{
  "contractName": "AugmintToken",
  "abi": [
    {
      "constant": false,
      "inputs": [
        {
          "name": "_from",
          "type": "address"
        },
        {
          "name": "_to",
          "type": "address"
        },
        {
          "name": "_amount",
          "type": "uint256"
        },
        {
          "name": "_narrative",
          "type": "string"
        }
      ],
      "name": "transferFromNoFee",
      "outputs": [],
      "payable": false,
      "stateMutability": "nonpayable",
      "type": "function"
    },
    {
      "constant": false,
      "inputs": [
        {
          "name": "_spender",
          "type": "address"
        },
        {
          "name": "_amount",
          "type": "uint256"
        }
      ],
      "name": "approve",
      "outputs": [
        {
          "name": "",
          "type": "bool"
        }
      ],
      "payable": false,
      "stateMutability": "nonpayable",
      "type": "function"
    },
    {
      "constant": false,
      "inputs": [
        {
          "name": "agent",
          "type": "address"
        },
        {
          "name": "requiredPermissions",
          "type": "bytes32[]"
        }
      ],
      "name": "revokeMulitplePermissions",
      "outputs": [],
      "payable": false,
      "stateMutability": "nonpayable",
      "type": "function"
    },
    {
      "constant": true,
      "inputs": [],
      "name": "totalSupply",
      "outputs": [
        {
          "name": "",
          "type": "uint256"
        }
      ],
      "payable": false,
      "stateMutability": "view",
      "type": "function"
    },
    {
      "constant": false,
      "inputs": [
        {
          "name": "_from",
          "type": "address"
        },
        {
          "name": "_to",
          "type": "address"
        },
        {
          "name": "_amount",
          "type": "uint256"
        }
      ],
      "name": "transferFrom",
      "outputs": [
        {
          "name": "",
          "type": "bool"
        }
      ],
      "payable": false,
      "stateMutability": "nonpayable",
      "type": "function"
    },
    {
      "constant": false,
      "inputs": [
        {
          "name": "newFeeAccount",
          "type": "address"
        },
        {
          "name": "newInteresPoolAccount",
          "type": "address"
        },
        {
          "name": "newInterestEarnedAccount",
          "type": "address"
        }
      ],
      "name": "setSystemAccounts",
      "outputs": [],
      "payable": false,
      "stateMutability": "nonpayable",
      "type": "function"
    },
    {
      "constant": true,
      "inputs": [
        {
          "name": "",
          "type": "address"
        }
      ],
      "name": "balances",
      "outputs": [
        {
          "name": "",
          "type": "uint256"
        }
      ],
      "payable": false,
      "stateMutability": "view",
      "type": "function"
    },
    {
      "constant": true,
      "inputs": [
        {
          "name": "",
          "type": "address"
        },
        {
          "name": "",
          "type": "bytes32"
        }
      ],
      "name": "permissions",
      "outputs": [
        {
          "name": "",
          "type": "bool"
        }
      ],
      "payable": false,
      "stateMutability": "view",
      "type": "function"
    },
    {
      "constant": true,
      "inputs": [
        {
          "name": "",
          "type": "address"
        },
        {
          "name": "",
          "type": "address"
        }
      ],
      "name": "allowed",
      "outputs": [
        {
          "name": "",
          "type": "uint256"
        }
      ],
      "payable": false,
      "stateMutability": "view",
      "type": "function"
    },
    {
      "constant": true,
      "inputs": [
        {
          "name": "agent",
          "type": "address"
        },
        {
          "name": "permission",
          "type": "bytes32"
        }
      ],
      "name": "isAllowed",
      "outputs": [
        {
          "name": "",
          "type": "bool"
        }
      ],
      "payable": false,
      "stateMutability": "view",
      "type": "function"
    },
    {
      "constant": true,
      "inputs": [],
      "name": "interestEarnedAccount",
      "outputs": [
        {
          "name": "",
          "type": "address"
        }
      ],
      "payable": false,
      "stateMutability": "view",
      "type": "function"
    },
    {
      "constant": false,
      "inputs": [
        {
          "name": "agent",
          "type": "address"
        },
        {
          "name": "requiredPermission",
          "type": "bytes32"
        }
      ],
      "name": "revokePermission",
      "outputs": [],
      "payable": false,
      "stateMutability": "nonpayable",
      "type": "function"
    },
    {
      "constant": true,
      "inputs": [],
      "name": "feeAccount",
      "outputs": [
        {
          "name": "",
          "type": "address"
        }
      ],
      "payable": false,
      "stateMutability": "view",
      "type": "function"
    },
    {
      "constant": false,
      "inputs": [
        {
          "name": "_spender",
          "type": "address"
        },
        {
          "name": "_subtractedValue",
          "type": "uint256"
        }
      ],
      "name": "decreaseApproval",
      "outputs": [
        {
          "name": "",
          "type": "bool"
        }
      ],
      "payable": false,
      "stateMutability": "nonpayable",
      "type": "function"
    },
    {
      "constant": true,
      "inputs": [
        {
          "name": "_owner",
          "type": "address"
        }
      ],
      "name": "balanceOf",
      "outputs": [
        {
          "name": "balance",
          "type": "uint256"
        }
      ],
      "payable": false,
      "stateMutability": "view",
      "type": "function"
    },
    {
      "constant": true,
      "inputs": [],
      "name": "transferFeeMax",
      "outputs": [
        {
          "name": "",
          "type": "uint256"
        }
      ],
      "payable": false,
      "stateMutability": "view",
      "type": "function"
    },
    {
      "constant": false,
      "inputs": [
        {
          "name": "_from",
          "type": "address"
        },
        {
          "name": "_to",
          "type": "address"
        },
        {
          "name": "_amount",
          "type": "uint256"
        },
        {
          "name": "_narrative",
          "type": "string"
        }
      ],
      "name": "transferFromWithNarrative",
      "outputs": [],
      "payable": false,
      "stateMutability": "nonpayable",
      "type": "function"
    },
    {
      "constant": true,
      "inputs": [],
      "name": "transferFeePt",
      "outputs": [
        {
          "name": "",
          "type": "uint256"
        }
      ],
      "payable": false,
      "stateMutability": "view",
      "type": "function"
    },
    {
      "constant": true,
      "inputs": [],
      "name": "owner",
      "outputs": [
        {
          "name": "",
          "type": "address"
        }
      ],
      "payable": false,
      "stateMutability": "view",
      "type": "function"
    },
    {
      "constant": false,
      "inputs": [
        {
          "name": "_loanManager",
          "type": "address"
        },
        {
          "name": "loanId",
          "type": "uint256"
        }
      ],
      "name": "repayLoan",
      "outputs": [],
      "payable": false,
      "stateMutability": "nonpayable",
      "type": "function"
    },
    {
      "constant": false,
      "inputs": [
        {
          "name": "agent",
          "type": "address"
        },
        {
          "name": "requiredPermissions",
          "type": "bytes32[]"
        }
      ],
      "name": "grantMultiplePermissions",
      "outputs": [],
      "payable": false,
      "stateMutability": "nonpayable",
      "type": "function"
    },
    {
      "constant": true,
      "inputs": [],
      "name": "interestPoolAccount",
      "outputs": [
        {
          "name": "",
          "type": "address"
        }
      ],
      "payable": false,
      "stateMutability": "view",
      "type": "function"
    },
    {
      "constant": true,
      "inputs": [],
      "name": "transferFeeMin",
      "outputs": [
        {
          "name": "",
          "type": "uint256"
        }
      ],
      "payable": false,
      "stateMutability": "view",
      "type": "function"
    },
    {
      "constant": false,
      "inputs": [
        {
          "name": "_to",
          "type": "address"
        },
        {
          "name": "_amount",
          "type": "uint256"
        }
      ],
      "name": "transfer",
      "outputs": [
        {
          "name": "",
          "type": "bool"
        }
      ],
      "payable": false,
      "stateMutability": "nonpayable",
      "type": "function"
    },
    {
      "constant": false,
      "inputs": [
        {
          "name": "_from",
          "type": "address"
        },
        {
          "name": "_to",
          "type": "address"
        },
        {
          "name": "_amount",
          "type": "uint256"
        },
        {
          "name": "_narrative",
          "type": "string"
        }
      ],
      "name": "transferNoFee",
      "outputs": [],
      "payable": false,
      "stateMutability": "nonpayable",
      "type": "function"
    },
    {
      "constant": false,
      "inputs": [
        {
          "name": "_transferFeePt",
          "type": "uint256"
        },
        {
          "name": "_transferFeeMin",
          "type": "uint256"
        },
        {
          "name": "_transferFeeMax",
          "type": "uint256"
        }
      ],
      "name": "setTransferFees",
      "outputs": [],
      "payable": false,
      "stateMutability": "nonpayable",
      "type": "function"
    },
    {
      "constant": false,
      "inputs": [
        {
          "name": "interestAmount",
          "type": "uint256"
        }
      ],
      "name": "moveCollectedInterest",
      "outputs": [],
      "payable": false,
      "stateMutability": "nonpayable",
      "type": "function"
    },
    {
      "constant": false,
      "inputs": [
        {
          "name": "borrower",
          "type": "address"
        },
        {
          "name": "loanAmount",
          "type": "uint256"
        },
        {
          "name": "interestAmount",
          "type": "uint256"
        },
        {
          "name": "narrative",
          "type": "string"
        }
      ],
      "name": "issueAndDisburse",
      "outputs": [],
      "payable": false,
      "stateMutability": "nonpayable",
      "type": "function"
    },
    {
      "constant": false,
      "inputs": [
        {
          "name": "borrower",
          "type": "address"
        },
        {
          "name": "repaymentAmount",
          "type": "uint256"
        },
        {
          "name": "interestAmount",
          "type": "uint256"
        },
        {
          "name": "narrative",
          "type": "string"
        }
      ],
      "name": "repayAndBurn",
      "outputs": [],
      "payable": false,
      "stateMutability": "nonpayable",
      "type": "function"
    },
    {
      "constant": false,
      "inputs": [
        {
          "name": "_spender",
          "type": "address"
        },
        {
          "name": "_addedValue",
          "type": "uint256"
        }
      ],
      "name": "increaseApproval",
      "outputs": [
        {
          "name": "",
          "type": "bool"
        }
      ],
      "payable": false,
      "stateMutability": "nonpayable",
      "type": "function"
    },
    {
      "constant": true,
      "inputs": [
        {
          "name": "_owner",
          "type": "address"
        },
        {
          "name": "_spender",
          "type": "address"
        }
      ],
      "name": "allowance",
      "outputs": [
        {
          "name": "remaining",
          "type": "uint256"
        }
      ],
      "payable": false,
      "stateMutability": "view",
      "type": "function"
    },
    {
      "constant": false,
      "inputs": [
        {
          "name": "newOwner",
          "type": "address"
        }
      ],
      "name": "transferOwnership",
      "outputs": [],
      "payable": false,
      "stateMutability": "nonpayable",
      "type": "function"
    },
    {
      "constant": false,
      "inputs": [
        {
          "name": "agent",
          "type": "address"
        },
        {
          "name": "requiredPermission",
          "type": "bytes32"
        }
      ],
      "name": "grantPermission",
      "outputs": [],
      "payable": false,
      "stateMutability": "nonpayable",
      "type": "function"
    },
    {
      "constant": false,
      "inputs": [
        {
          "name": "_to",
          "type": "address"
        },
        {
          "name": "_amount",
          "type": "uint256"
        },
        {
          "name": "_narrative",
          "type": "string"
        }
      ],
      "name": "transferWithNarrative",
      "outputs": [],
      "payable": false,
      "stateMutability": "nonpayable",
      "type": "function"
    },
    {
      "inputs": [
        {
          "name": "_feeAccount",
          "type": "address"
        },
        {
          "name": "_interestPoolAccount",
          "type": "address"
        },
        {
          "name": "_interestEarnedAccount",
          "type": "address"
        },
        {
          "name": "_transferFeePt",
          "type": "uint256"
        },
        {
          "name": "_transferFeeMin",
          "type": "uint256"
        },
        {
          "name": "_transferFeeMax",
          "type": "uint256"
        }
      ],
      "payable": false,
      "stateMutability": "nonpayable",
      "type": "constructor"
    },
    {
      "payable": true,
      "stateMutability": "payable",
      "type": "fallback"
    },
    {
      "anonymous": false,
      "inputs": [
        {
          "indexed": false,
          "name": "amount",
          "type": "uint256"
        }
      ],
      "name": "TokenIssued",
      "type": "event"
    },
    {
      "anonymous": false,
      "inputs": [
        {
          "indexed": false,
          "name": "amount",
          "type": "uint256"
        }
      ],
      "name": "TokenBurned",
      "type": "event"
    },
    {
      "anonymous": false,
      "inputs": [
        {
          "indexed": false,
          "name": "newFeeAccount",
          "type": "address"
        },
        {
          "indexed": false,
          "name": "newInteresPoolAccount",
          "type": "address"
        },
        {
          "indexed": false,
          "name": "newInterestEarnedAccount",
          "type": "address"
        }
      ],
      "name": "SystemAccountsChanged",
      "type": "event"
    },
    {
      "anonymous": false,
      "inputs": [
        {
          "indexed": false,
          "name": "_transferFeePt",
          "type": "uint256"
        },
        {
          "indexed": false,
          "name": "_transferFeeMin",
          "type": "uint256"
        },
        {
          "indexed": false,
          "name": "_transferFeeMax",
          "type": "uint256"
        }
      ],
      "name": "TransferFeesChanged",
      "type": "event"
    },
    {
      "anonymous": false,
      "inputs": [
        {
          "indexed": true,
          "name": "from",
          "type": "address"
        },
        {
          "indexed": true,
          "name": "to",
          "type": "address"
        },
        {
          "indexed": false,
          "name": "amount",
          "type": "uint256"
        }
      ],
      "name": "Transfer",
      "type": "event"
    },
    {
      "anonymous": false,
      "inputs": [
        {
          "indexed": true,
          "name": "from",
          "type": "address"
        },
        {
          "indexed": true,
          "name": "to",
          "type": "address"
        },
        {
          "indexed": false,
          "name": "amount",
          "type": "uint256"
        },
        {
          "indexed": false,
          "name": "narrative",
          "type": "string"
        },
        {
          "indexed": false,
          "name": "fee",
          "type": "uint256"
        }
      ],
      "name": "AugmintTransfer",
      "type": "event"
    },
    {
      "anonymous": false,
      "inputs": [
        {
          "indexed": true,
          "name": "_owner",
          "type": "address"
        },
        {
          "indexed": true,
          "name": "_spender",
          "type": "address"
        },
        {
          "indexed": false,
          "name": "_value",
          "type": "uint256"
        }
      ],
      "name": "Approval",
      "type": "event"
    },
    {
      "anonymous": false,
      "inputs": [
        {
          "indexed": true,
          "name": "agent",
          "type": "address"
        },
        {
          "indexed": false,
          "name": "grantedPermission",
          "type": "bytes32"
        }
      ],
      "name": "PermissionGranted",
      "type": "event"
    },
    {
      "anonymous": false,
      "inputs": [
        {
          "indexed": true,
          "name": "agent",
          "type": "address"
        },
        {
          "indexed": false,
          "name": "revokedPermission",
          "type": "bytes32"
        }
      ],
      "name": "PermissionRevoked",
      "type": "event"
    },
    {
      "anonymous": false,
      "inputs": [
        {
          "indexed": true,
          "name": "oldOwner",
          "type": "address"
        },
        {
          "indexed": true,
          "name": "newOwner",
          "type": "address"
        }
      ],
      "name": "NewOwner",
      "type": "event"
    }
  ],
  "bytecode": "0x606060405234156200001057600080fd5b60405160c0806200340083398101604052808051906020019091908051906020019091908051906020019091908051906020019091908051906020019091908051906020019091905050600073ffffffffffffffffffffffffffffffffffffffff166000809054906101000a900473ffffffffffffffffffffffffffffffffffffffff1673ffffffffffffffffffffffffffffffffffffffff16141515620000b757600080fd5b336000806101000a81548173ffffffffffffffffffffffffffffffffffffffff021916908373ffffffffffffffffffffffffffffffffffffffff16021790555060008673ffffffffffffffffffffffffffffffffffffffff16141515156200011e57600080fd5b60008573ffffffffffffffffffffffffffffffffffffffff16141515156200014557600080fd5b60008473ffffffffffffffffffffffffffffffffffffffff16141515156200016c57600080fd5b85600560006101000a81548173ffffffffffffffffffffffffffffffffffffffff021916908373ffffffffffffffffffffffffffffffffffffffff16021790555084600660006101000a81548173ffffffffffffffffffffffffffffffffffffffff021916908373ffffffffffffffffffffffffffffffffffffffff16021790555083600760006101000a81548173ffffffffffffffffffffffffffffffffffffffff021916908373ffffffffffffffffffffffffffffffffffffffff160217905550826008819055508160098190555080600a819055505050505050506131a6806200025a6000396000f3006060604052600436106101ac576000357c0100000000000000000000000000000000000000000000000000000000900463ffffffff16806304282d25146101ae578063095ea7b3146102525780630da32eaa146102ac57806318160ddd1461032557806323b872dd1461034e57806324839a3a146103c757806327e235e31461043e5780635b2255261461048b5780635c658165146104e95780635cb8dd09146105555780635fcf0455146105b35780635fe070131461060857806365e17c9d1461064e57806366188463146106a357806370a08231146106fd57806372a1eecc1461074a578063765879211461077357806377c9db1a146108175780638da5cb5b1461084057806393a595f5146108955780639ac3317b146108d75780639ae8dcef14610950578063a7f839a7146109a5578063a9059cbb146109ce578063b0455f1314610a28578063bfd201f514610a9d578063c06ec4bc14610ad2578063c28f379314610af5578063c613aa6a14610b54578063d73dd62314610bb3578063dd62ed3e14610c0d578063f2fde38b14610c79578063f38a826214610cb2578063ffdcf09514610cf8575b005b34156101b957600080fd5b610250600480803573ffffffffffffffffffffffffffffffffffffffff1690602001909190803573ffffffffffffffffffffffffffffffffffffffff1690602001909190803590602001909190803590602001908201803590602001908080601f01602080910402602001604051908101604052809392919081815260200183838082843782019150505050505091905050610d4e565b005b341561025d57600080fd5b610292600480803573ffffffffffffffffffffffffffffffffffffffff16906020019091908035906020019091905050610df5565b604051808215151515815260200191505060405180910390f35b34156102b757600080fd5b610323600480803573ffffffffffffffffffffffffffffffffffffffff1690602001909190803590602001908201803590602001908080602002602001604051908101604052809392919081815260200183836020028082843782019150505050505091905050610f22565b005b341561033057600080fd5b610338610fc5565b6040518082815260200191505060405180910390f35b341561035957600080fd5b6103ad600480803573ffffffffffffffffffffffffffffffffffffffff1690602001909190803573ffffffffffffffffffffffffffffffffffffffff16906020019091908035906020019091905050610fcb565b604051808215151515815260200191505060405180910390f35b34156103d257600080fd5b61043c600480803573ffffffffffffffffffffffffffffffffffffffff1690602001909190803573ffffffffffffffffffffffffffffffffffffffff1690602001909190803573ffffffffffffffffffffffffffffffffffffffff16906020019091905050610ffd565b005b341561044957600080fd5b610475600480803573ffffffffffffffffffffffffffffffffffffffff16906020019091905050611295565b6040518082815260200191505060405180910390f35b341561049657600080fd5b6104cf600480803573ffffffffffffffffffffffffffffffffffffffff16906020019091908035600019169060200190919050506112ad565b604051808215151515815260200191505060405180910390f35b34156104f457600080fd5b61053f600480803573ffffffffffffffffffffffffffffffffffffffff1690602001909190803573ffffffffffffffffffffffffffffffffffffffff169060200190919050506112dc565b6040518082815260200191505060405180910390f35b341561056057600080fd5b610599600480803573ffffffffffffffffffffffffffffffffffffffff1690602001909190803560001916906020019091905050611301565b604051808215151515815260200191505060405180910390f35b34156105be57600080fd5b6105c6611371565b604051808273ffffffffffffffffffffffffffffffffffffffff1673ffffffffffffffffffffffffffffffffffffffff16815260200191505060405180910390f35b341561061357600080fd5b61064c600480803573ffffffffffffffffffffffffffffffffffffffff1690602001909190803560001916906020019091905050611397565b005b341561065957600080fd5b6106616114bd565b604051808273ffffffffffffffffffffffffffffffffffffffff1673ffffffffffffffffffffffffffffffffffffffff16815260200191505060405180910390f35b34156106ae57600080fd5b6106e3600480803573ffffffffffffffffffffffffffffffffffffffff169060200190919080359060200190919050506114e3565b604051808215151515815260200191505060405180910390f35b341561070857600080fd5b610734600480803573ffffffffffffffffffffffffffffffffffffffff169060200190919050506117af565b6040518082815260200191505060405180910390f35b341561075557600080fd5b61075d6117f8565b6040518082815260200191505060405180910390f35b341561077e57600080fd5b610815600480803573ffffffffffffffffffffffffffffffffffffffff1690602001909190803573ffffffffffffffffffffffffffffffffffffffff1690602001909190803590602001909190803590602001908201803590602001908080601f016020809104026020016040519081016040528093929190818152602001838380828437820191505050505050919050506117fe565b005b341561082257600080fd5b61082a611819565b6040518082815260200191505060405180910390f35b341561084b57600080fd5b61085361181f565b604051808273ffffffffffffffffffffffffffffffffffffffff1673ffffffffffffffffffffffffffffffffffffffff16815260200191505060405180910390f35b34156108a057600080fd5b6108d5600480803573ffffffffffffffffffffffffffffffffffffffff16906020019091908035906020019091905050611844565b005b34156108e257600080fd5b61094e600480803573ffffffffffffffffffffffffffffffffffffffff1690602001909190803590602001908201803590602001908080602002602001604051908101604052809392919081815260200183836020028082843782019150505050505091905050611a1f565b005b341561095b57600080fd5b610963611ac2565b604051808273ffffffffffffffffffffffffffffffffffffffff1673ffffffffffffffffffffffffffffffffffffffff16815260200191505060405180910390f35b34156109b057600080fd5b6109b8611ae8565b6040518082815260200191505060405180910390f35b34156109d957600080fd5b610a0e600480803573ffffffffffffffffffffffffffffffffffffffff16906020019091908035906020019091905050611aee565b604051808215151515815260200191505060405180910390f35b3415610a3357600080fd5b610a9b600480803573ffffffffffffffffffffffffffffffffffffffff1690602001909190803573ffffffffffffffffffffffffffffffffffffffff169060200190919080359060200190919080359060200190820180359060200191909192905050611b1f565b005b3415610aa857600080fd5b610ad06004808035906020019091908035906020019091908035906020019091905050611bf9565b005b3415610add57600080fd5b610af36004808035906020019091905050611cf3565b005b3415610b0057600080fd5b610b52600480803573ffffffffffffffffffffffffffffffffffffffff169060200190919080359060200190919080359060200190919080359060200190820180359060200191909192905050611dee565b005b3415610b5f57600080fd5b610bb1600480803573ffffffffffffffffffffffffffffffffffffffff1690602001909190803590602001909190803590602001909190803590602001908201803590602001919091929050506120b9565b005b3415610bbe57600080fd5b610bf3600480803573ffffffffffffffffffffffffffffffffffffffff16906020019091908035906020019091905050612436565b604051808215151515815260200191505060405180910390f35b3415610c1857600080fd5b610c63600480803573ffffffffffffffffffffffffffffffffffffffff1690602001909190803573ffffffffffffffffffffffffffffffffffffffff1690602001909190505061244b565b6040518082815260200191505060405180910390f35b3415610c8457600080fd5b610cb0600480803573ffffffffffffffffffffffffffffffffffffffff169060200190919050506124d2565b005b3415610cbd57600080fd5b610cf6600480803573ffffffffffffffffffffffffffffffffffffffff1690602001909190803560001916906020019091905050612627565b005b3415610d0357600080fd5b610d4c600480803573ffffffffffffffffffffffffffffffffffffffff16906020019091908035906020019091908035906020019082018035906020019190919290505061274c565b005b7f7472616e7366657246726f6d4e6f466565000000000000000000000000000000600160003373ffffffffffffffffffffffffffffffffffffffff1673ffffffffffffffffffffffffffffffffffffffff1681526020019081526020016000206000826000191660001916815260200190815260200160002060009054906101000a900460ff161515610de057600080fd5b610dee858585856000612799565b5050505050565b60008273ffffffffffffffffffffffffffffffffffffffff163373ffffffffffffffffffffffffffffffffffffffff1614151515610e3257600080fd5b81600460003373ffffffffffffffffffffffffffffffffffffffff1673ffffffffffffffffffffffffffffffffffffffff16815260200190815260200160002060008573ffffffffffffffffffffffffffffffffffffffff1673ffffffffffffffffffffffffffffffffffffffff168152602001908152602001600020819055508273ffffffffffffffffffffffffffffffffffffffff163373ffffffffffffffffffffffffffffffffffffffff167f8c5be1e5ebec7d5bd14f71427d1e84f3dd0314c0f7b2291e5b200ac8c7c3b925846040518082815260200191505060405180910390a36001905092915050565b6000806000809054906101000a900473ffffffffffffffffffffffffffffffffffffffff1673ffffffffffffffffffffffffffffffffffffffff163373ffffffffffffffffffffffffffffffffffffffff16141515610f8057600080fd5b82519150600090505b81811015610fbf57610fb2848483815181101515610fa357fe5b90602001906020020151611397565b8080600101915050610f89565b50505050565b60025481565b6000610ff28484846020604051908101604052806000815250610fed87612a14565b612799565b600190509392505050565b7f73657453797374656d4163636f756e7473000000000000000000000000000000600160003373ffffffffffffffffffffffffffffffffffffffff1673ffffffffffffffffffffffffffffffffffffffff1681526020019081526020016000206000826000191660001916815260200190815260200160002060009054906101000a900460ff16151561108f57600080fd5b60008473ffffffffffffffffffffffffffffffffffffffff16141515156110b557600080fd5b60008373ffffffffffffffffffffffffffffffffffffffff16141515156110db57600080fd5b60008273ffffffffffffffffffffffffffffffffffffffff161415151561110157600080fd5b83600560006101000a81548173ffffffffffffffffffffffffffffffffffffffff021916908373ffffffffffffffffffffffffffffffffffffffff16021790555082600660006101000a81548173ffffffffffffffffffffffffffffffffffffffff021916908373ffffffffffffffffffffffffffffffffffffffff16021790555081600760006101000a81548173ffffffffffffffffffffffffffffffffffffffff021916908373ffffffffffffffffffffffffffffffffffffffff1602179055507f23dbec4dc224f6b5dbb7872e42fdf27b8eab89540005970d572678433093c94e848484604051808473ffffffffffffffffffffffffffffffffffffffff1673ffffffffffffffffffffffffffffffffffffffff1681526020018373ffffffffffffffffffffffffffffffffffffffff1673ffffffffffffffffffffffffffffffffffffffff1681526020018273ffffffffffffffffffffffffffffffffffffffff1673ffffffffffffffffffffffffffffffffffffffff168152602001935050505060405180910390a150505050565b60036020528060005260406000206000915090505481565b60016020528160005260406000206020528060005260406000206000915091509054906101000a900460ff1681565b6004602052816000526040600020602052806000526040600020600091509150505481565b6000600160008473ffffffffffffffffffffffffffffffffffffffff1673ffffffffffffffffffffffffffffffffffffffff1681526020019081526020016000206000836000191660001916815260200190815260200160002060009054906101000a900460ff16905092915050565b600760009054906101000a900473ffffffffffffffffffffffffffffffffffffffff1681565b6000809054906101000a900473ffffffffffffffffffffffffffffffffffffffff1673ffffffffffffffffffffffffffffffffffffffff163373ffffffffffffffffffffffffffffffffffffffff161415156113f257600080fd5b6000600160008473ffffffffffffffffffffffffffffffffffffffff1673ffffffffffffffffffffffffffffffffffffffff1681526020019081526020016000206000836000191660001916815260200190815260200160002060006101000a81548160ff0219169083151502179055508173ffffffffffffffffffffffffffffffffffffffff167f789770131846de4d1f28418f0f957cdf4fcabe5eccf70067083e20ecece69a348260405180826000191660001916815260200191505060405180910390a25050565b600560009054906101000a900473ffffffffffffffffffffffffffffffffffffffff1681565b6000808373ffffffffffffffffffffffffffffffffffffffff163373ffffffffffffffffffffffffffffffffffffffff161415151561152157600080fd5b600460003373ffffffffffffffffffffffffffffffffffffffff1673ffffffffffffffffffffffffffffffffffffffff16815260200190815260200160002060008573ffffffffffffffffffffffffffffffffffffffff1673ffffffffffffffffffffffffffffffffffffffff1681526020019081526020016000205490508083111561162f576000600460003373ffffffffffffffffffffffffffffffffffffffff1673ffffffffffffffffffffffffffffffffffffffff16815260200190815260200160002060008673ffffffffffffffffffffffffffffffffffffffff1673ffffffffffffffffffffffffffffffffffffffff168152602001908152602001600020819055506116c3565b6116428382612a6f90919063ffffffff16565b600460003373ffffffffffffffffffffffffffffffffffffffff1673ffffffffffffffffffffffffffffffffffffffff16815260200190815260200160002060008673ffffffffffffffffffffffffffffffffffffffff1673ffffffffffffffffffffffffffffffffffffffff168152602001908152602001600020819055505b8373ffffffffffffffffffffffffffffffffffffffff163373ffffffffffffffffffffffffffffffffffffffff167f8c5be1e5ebec7d5bd14f71427d1e84f3dd0314c0f7b2291e5b200ac8c7c3b925600460003373ffffffffffffffffffffffffffffffffffffffff1673ffffffffffffffffffffffffffffffffffffffff16815260200190815260200160002060008873ffffffffffffffffffffffffffffffffffffffff1673ffffffffffffffffffffffffffffffffffffffff168152602001908152602001600020546040518082815260200191505060405180910390a3600191505092915050565b6000600360008373ffffffffffffffffffffffffffffffffffffffff1673ffffffffffffffffffffffffffffffffffffffff168152602001908152602001600020549050919050565b600a5481565b6118138484848461180e87612a14565b612799565b50505050565b60085481565b6000809054906101000a900473ffffffffffffffffffffffffffffffffffffffff1681565b6000806000611873857f4c6f616e4d616e61676572000000000000000000000000000000000000000000611301565b151561187e57600080fd5b8492508273ffffffffffffffffffffffffffffffffffffffff1663e1ec3c6885600060405161012001526040518263ffffffff167c01000000000000000000000000000000000000000000000000000000000281526004018082815260200191505061012060405180830381600087803b15156118fa57600080fd5b6102c65a03f1151561190b57600080fd5b5050506040518051906020018051906020018051906020018051906020018051906020018051906020018051906020018051906020018051905050505050509350505091503373ffffffffffffffffffffffffffffffffffffffff168273ffffffffffffffffffffffffffffffffffffffff1614151561198a57600080fd5b611995338683612a8b565b508273ffffffffffffffffffffffffffffffffffffffff166339007b77856040518263ffffffff167c010000000000000000000000000000000000000000000000000000000002815260040180828152602001915050600060405180830381600087803b1515611a0457600080fd5b6102c65a03f11515611a1557600080fd5b5050505050505050565b6000806000809054906101000a900473ffffffffffffffffffffffffffffffffffffffff1673ffffffffffffffffffffffffffffffffffffffff163373ffffffffffffffffffffffffffffffffffffffff16141515611a7d57600080fd5b82519150600090505b81811015611abc57611aaf848483815181101515611aa057fe5b90602001906020020151612627565b8080600101915050611a86565b50505050565b600660009054906101000a900473ffffffffffffffffffffffffffffffffffffffff1681565b60095481565b6000611b153384846020604051908101604052806000815250611b1087612a14565b612cbf565b6001905092915050565b7f7472616e736665724e6f46656500000000000000000000000000000000000000600160003373ffffffffffffffffffffffffffffffffffffffff1673ffffffffffffffffffffffffffffffffffffffff1681526020019081526020016000206000826000191660001916815260200190815260200160002060009054906101000a900460ff161515611bb157600080fd5b611bf186868686868080601f0160208091040260200160405190810160405280939291908181526020018383808284378201915050505050506000612cbf565b505050505050565b7f7365745472616e73666572466565730000000000000000000000000000000000600160003373ffffffffffffffffffffffffffffffffffffffff1673ffffffffffffffffffffffffffffffffffffffff1681526020019081526020016000206000826000191660001916815260200190815260200160002060009054906101000a900460ff161515611c8b57600080fd5b836008819055508260098190555081600a819055507fd987a3acde40f231f760d7c3d2907c83d26bca5aededafbeefba5619b5955d71600854600954600a5460405180848152602001838152602001828152602001935050505060405180910390a150505050565b7f6d6f7665436f6c6c6563746564496e7465726573740000000000000000000000600160003373ffffffffffffffffffffffffffffffffffffffff1673ffffffffffffffffffffffffffffffffffffffff1681526020019081526020016000206000826000191660001916815260200190815260200160002060009054906101000a900460ff161515611d8557600080fd5b611dea600660009054906101000a900473ffffffffffffffffffffffffffffffffffffffff1630846040805190810160405280601781526020017f44656661756c746564206c6f616e20696e7465726573740000000000000000008152506000612cbf565b5050565b60007f6973737565416e64446973627572736500000000000000000000000000000000600160003373ffffffffffffffffffffffffffffffffffffffff1673ffffffffffffffffffffffffffffffffffffffff1681526020019081526020016000206000826000191660001916815260200190815260200160002060009054906101000a900460ff161515611e8257600080fd5b600086111515611e9157600080fd5b611ea4858761310890919063ffffffff16565b9150611ebb8260025461310890919063ffffffff16565b600281905550611f1386600360003073ffffffffffffffffffffffffffffffffffffffff1673ffffffffffffffffffffffffffffffffffffffff1681526020019081526020016000205461310890919063ffffffff16565b600360003073ffffffffffffffffffffffffffffffffffffffff1673ffffffffffffffffffffffffffffffffffffffff16815260200190815260200160002081905550600085111561203957611fd38560036000600660009054906101000a900473ffffffffffffffffffffffffffffffffffffffff1673ffffffffffffffffffffffffffffffffffffffff1673ffffffffffffffffffffffffffffffffffffffff1681526020019081526020016000205461310890919063ffffffff16565b60036000600660009054906101000a900473ffffffffffffffffffffffffffffffffffffffff1673ffffffffffffffffffffffffffffffffffffffff1673ffffffffffffffffffffffffffffffffffffffff168152602001908152602001600020819055505b61207930888887878080601f0160208091040260200160405190810160405280939291908181526020018383808284378201915050505050506000612cbf565b7f22e0481cfeefc9defe3dece414137b4b644284658facef6d9734c16204cca3f0826040518082815260200191505060405180910390a150505050505050565b7f7265706179416e644275726e0000000000000000000000000000000000000000600160003373ffffffffffffffffffffffffffffffffffffffff1673ffffffffffffffffffffffffffffffffffffffff1681526020019081526020016000206000826000191660001916815260200190815260200160002060009054906101000a900460ff16151561214b57600080fd5b61218b86308786868080601f0160208091040260200160405190810160405280939291908181526020018383808284378201915050505050506000612799565b6121a085600254612a6f90919063ffffffff16565b6002819055506121f885600360003073ffffffffffffffffffffffffffffffffffffffff1673ffffffffffffffffffffffffffffffffffffffff16815260200190815260200160002054612a6f90919063ffffffff16565b600360003073ffffffffffffffffffffffffffffffffffffffff1673ffffffffffffffffffffffffffffffffffffffff1681526020019081526020016000208190555060008411156123f7576122b88460036000600760009054906101000a900473ffffffffffffffffffffffffffffffffffffffff1673ffffffffffffffffffffffffffffffffffffffff1673ffffffffffffffffffffffffffffffffffffffff1681526020019081526020016000205461310890919063ffffffff16565b60036000600760009054906101000a900473ffffffffffffffffffffffffffffffffffffffff1673ffffffffffffffffffffffffffffffffffffffff1673ffffffffffffffffffffffffffffffffffffffff168152602001908152602001600020819055506123918460036000600660009054906101000a900473ffffffffffffffffffffffffffffffffffffffff1673ffffffffffffffffffffffffffffffffffffffff1673ffffffffffffffffffffffffffffffffffffffff16815260200190815260200160002054612a6f90919063ffffffff16565b60036000600660009054906101000a900473ffffffffffffffffffffffffffffffffffffffff1673ffffffffffffffffffffffffffffffffffffffff1673ffffffffffffffffffffffffffffffffffffffff168152602001908152602001600020819055505b7f0c526103b8f47af5516191d0c89a598755bd00faa211a3cb52e4c2cc782f7fe2856040518082815260200191505060405180910390a1505050505050565b6000612443338484612a8b565b905092915050565b6000600460008473ffffffffffffffffffffffffffffffffffffffff1673ffffffffffffffffffffffffffffffffffffffff16815260200190815260200160002060008373ffffffffffffffffffffffffffffffffffffffff1673ffffffffffffffffffffffffffffffffffffffff16815260200190815260200160002054905092915050565b6000809054906101000a900473ffffffffffffffffffffffffffffffffffffffff1673ffffffffffffffffffffffffffffffffffffffff163373ffffffffffffffffffffffffffffffffffffffff1614151561252d57600080fd5b600073ffffffffffffffffffffffffffffffffffffffff168173ffffffffffffffffffffffffffffffffffffffff161415151561256957600080fd5b8073ffffffffffffffffffffffffffffffffffffffff166000809054906101000a900473ffffffffffffffffffffffffffffffffffffffff1673ffffffffffffffffffffffffffffffffffffffff167f70aea8d848e8a90fb7661b227dc522eb6395c3dac71b63cb59edd5c9899b236460405160405180910390a3806000806101000a81548173ffffffffffffffffffffffffffffffffffffffff021916908373ffffffffffffffffffffffffffffffffffffffff16021790555050565b6000809054906101000a900473ffffffffffffffffffffffffffffffffffffffff1673ffffffffffffffffffffffffffffffffffffffff163373ffffffffffffffffffffffffffffffffffffffff1614151561268257600080fd5b60018060008473ffffffffffffffffffffffffffffffffffffffff1673ffffffffffffffffffffffffffffffffffffffff1681526020019081526020016000206000836000191660001916815260200190815260200160002060006101000a81548160ff0219169083151502179055508173ffffffffffffffffffffffffffffffffffffffff167fc65937e3dbcb9fb30f646815dd67a3dbd09ba17718cbcb54efbe3635f8e0a6fe8260405180826000191660001916815260200191505060405180910390a25050565b61279333858585858080601f01602080910402602001604051908101604052809392919081815260200183838082843782019150505050505061278e88612a14565b612cbf565b50505050565b82600360008773ffffffffffffffffffffffffffffffffffffffff1673ffffffffffffffffffffffffffffffffffffffff16815260200190815260200160002054101515156127e757600080fd5b82600460008773ffffffffffffffffffffffffffffffffffffffff1673ffffffffffffffffffffffffffffffffffffffff16815260200190815260200160002060003373ffffffffffffffffffffffffffffffffffffffff1673ffffffffffffffffffffffffffffffffffffffff168152602001908152602001600020541015151561287257600080fd5b60008311151561288157600080fd5b61288f858585856000612cbf565b60008111156128fe576128fd84600560009054906101000a900473ffffffffffffffffffffffffffffffffffffffff16836040805190810160405280601081526020017f5472616e7366657246726f6d20666565000000000000000000000000000000008152506000612cbf565b5b61298d83600460008873ffffffffffffffffffffffffffffffffffffffff1673ffffffffffffffffffffffffffffffffffffffff16815260200190815260200160002060003373ffffffffffffffffffffffffffffffffffffffff1673ffffffffffffffffffffffffffffffffffffffff16815260200190815260200160002054612a6f90919063ffffffff16565b600460008773ffffffffffffffffffffffffffffffffffffffff1673ffffffffffffffffffffffffffffffffffffffff16815260200190815260200160002060003373ffffffffffffffffffffffffffffffffffffffff1673ffffffffffffffffffffffffffffffffffffffff168152602001908152602001600020819055505050505050565b6000612a40620f4240612a326008548561312990919063ffffffff16565b61315f90919063ffffffff16565b9050600a54811115612a5657600a549050612a67565b600954811015612a665760095490505b5b809050919050565b6000828211151515612a8057600080fd5b818303905092915050565b60008273ffffffffffffffffffffffffffffffffffffffff168473ffffffffffffffffffffffffffffffffffffffff1614151515612ac857600080fd5b612b5782600460008773ffffffffffffffffffffffffffffffffffffffff1673ffffffffffffffffffffffffffffffffffffffff16815260200190815260200160002060008673ffffffffffffffffffffffffffffffffffffffff1673ffffffffffffffffffffffffffffffffffffffff1681526020019081526020016000205461310890919063ffffffff16565b600460008673ffffffffffffffffffffffffffffffffffffffff1673ffffffffffffffffffffffffffffffffffffffff16815260200190815260200160002060008573ffffffffffffffffffffffffffffffffffffffff1673ffffffffffffffffffffffffffffffffffffffff168152602001908152602001600020819055508273ffffffffffffffffffffffffffffffffffffffff168473ffffffffffffffffffffffffffffffffffffffff167f8c5be1e5ebec7d5bd14f71427d1e84f3dd0314c0f7b2291e5b200ac8c7c3b925600460008873ffffffffffffffffffffffffffffffffffffffff1673ffffffffffffffffffffffffffffffffffffffff16815260200190815260200160002060008773ffffffffffffffffffffffffffffffffffffffff1673ffffffffffffffffffffffffffffffffffffffff168152602001908152602001600020546040518082815260200191505060405180910390a39392505050565b8373ffffffffffffffffffffffffffffffffffffffff168573ffffffffffffffffffffffffffffffffffffffff1614151515612cfa57600080fd5b600083111515612d0957600080fd5b6000811115612e9757612d868160036000600560009054906101000a900473ffffffffffffffffffffffffffffffffffffffff1673ffffffffffffffffffffffffffffffffffffffff1673ffffffffffffffffffffffffffffffffffffffff1681526020019081526020016000205461310890919063ffffffff16565b60036000600560009054906101000a900473ffffffffffffffffffffffffffffffffffffffff1673ffffffffffffffffffffffffffffffffffffffff1673ffffffffffffffffffffffffffffffffffffffff16815260200190815260200160002081905550612e4f81612e4185600360008a73ffffffffffffffffffffffffffffffffffffffff1673ffffffffffffffffffffffffffffffffffffffff16815260200190815260200160002054612a6f90919063ffffffff16565b612a6f90919063ffffffff16565b600360008773ffffffffffffffffffffffffffffffffffffffff1673ffffffffffffffffffffffffffffffffffffffff16815260200190815260200160002081905550612f2d565b612ee983600360008873ffffffffffffffffffffffffffffffffffffffff1673ffffffffffffffffffffffffffffffffffffffff16815260200190815260200160002054612a6f90919063ffffffff16565b600360008773ffffffffffffffffffffffffffffffffffffffff1673ffffffffffffffffffffffffffffffffffffffff168152602001908152602001600020819055505b612f7f83600360008773ffffffffffffffffffffffffffffffffffffffff1673ffffffffffffffffffffffffffffffffffffffff1681526020019081526020016000205461310890919063ffffffff16565b600360008673ffffffffffffffffffffffffffffffffffffffff1673ffffffffffffffffffffffffffffffffffffffff168152602001908152602001600020819055508373ffffffffffffffffffffffffffffffffffffffff168573ffffffffffffffffffffffffffffffffffffffff167fddf252ad1be2c89b69c2b068fc378daa952ba7f163c4a11628f55a4df523b3ef856040518082815260200191505060405180910390a38373ffffffffffffffffffffffffffffffffffffffff168573ffffffffffffffffffffffffffffffffffffffff167f3c37a37469220e9bdcb1e8083efdcac8373f1448f59b5c4b23ebe3a0723642b28585856040518084815260200180602001838152602001828103825284818151815260200191508051906020019080838360005b838110156130c55780820151818401526020810190506130aa565b50505050905090810190601f1680156130f25780820380516001836020036101000a031916815260200191505b5094505050505060405180910390a35050505050565b600080828401905083811015151561311f57600080fd5b8091505092915050565b6000808284029050600084148061314a575082848281151561314757fe5b04145b151561315557600080fd5b8091505092915050565b600080828481151561316d57fe5b04905080915050929150505600a165627a7a723058203575157e8e75df4d42aecba9a0bcbd5a29c166c8db50d6e8a37e95611ca418e10029",
  "source": "/* Generic Augmint Token implementation (ERC20 token)\n    This contract manages:\n        * Balances of Augmint holders and transactions between them\n        * Issues and burns tokens when loan issued or repaid\n        * Holds reserves:\n            - ETH as regular ETH balance of the contract\n            - ERC20 token reserve (stored as regular Token balance under the contract address)\n            TODO: separate reserve contract ?\n\n        Note that all reserves are held under the contract address,\n          therefore any transaction on the reserve is limited to the tx-s defined here\n          (ie. transfer of reserve is not possible by the contract owner)\n    TODO: allow transfer of 0 (comply with ERC20 standard)\n    TODO: issue Transfer(0x, ) instead (or together?) of Issue event (comply with ERC20 standard)\n    TODO: don't aloow transfer to 0x\n    TODO: ERC20 short address attack protection? https://github.com/DecentLabs/dcm-poc/issues/62\n    TODO: ERC20 transferFrom attack protection: https://github.com/DecentLabs/dcm-poc/issues/57\n    TODO: check more security best practices, eg: https://github.com/ConsenSys/smart-contract-best-practices,\n                        https://github.com/OpenZeppelin/zeppelin-solidity\n                        https://github.com/OpenZeppelin/zeppelin-solidity/tree/master/contracts/token\n    TODO: function should be ordered according to Solidity style guide\n*/\npragma solidity ^0.4.18;\nimport \"./Restricted.sol\";\nimport \"../interfaces/AugmintTokenInterface.sol\";\nimport \"../interfaces/LoanManagerInterface.sol\";\n\n\ncontract AugmintToken is AugmintTokenInterface {\n    uint public totalSupply;\n\n    mapping(address => uint256) public balances; // Balances for each account\n    mapping(address => mapping (address => uint256)) public allowed; // allowances added with approve()\n\n    address public feeAccount;\n    address public interestPoolAccount;\n    address public interestEarnedAccount;\n    uint public transferFeePt; // in parts per million , ie. 2,000 = 0.2%\n    uint public transferFeeMin; // with base unit of augmint token, eg. 4 decimals for TokenACD, 31000 = 3.1ACD\n    uint public transferFeeMax; // with base unit of augmint token, eg. 4 decimals for TokenACD, 31000 = 3.1ACD\n\n    event TokenIssued(uint amount);\n    event TokenBurned(uint amount);\n    event SystemAccountsChanged(address newFeeAccount, address newInteresPoolAccount, address newInterestEarnedAccount);\n    event TransferFeesChanged(uint _transferFeePt, uint _transferFeeMin, uint _transferFeeMax);\n\n    function AugmintToken(address _feeAccount, address _interestPoolAccount, address _interestEarnedAccount,\n        uint _transferFeePt, uint _transferFeeMin, uint _transferFeeMax) public {\n        require(_feeAccount != 0);\n        require(_interestPoolAccount != 0);\n        require(_interestEarnedAccount != 0);\n        feeAccount = _feeAccount;\n        interestPoolAccount = _interestPoolAccount;\n        interestEarnedAccount = _interestEarnedAccount;\n        transferFeePt = _transferFeePt;\n        transferFeeMin = _transferFeeMin;\n        transferFeeMax = _transferFeeMax;\n    }\n\n    function () public payable { // solhint-disable-line no-empty-blocks\n        // to accept ETH sent into reserve (from defaulted loan's collateral )\n    }\n\n    function issueAndDisburse(address borrower, uint loanAmount, uint interestAmount, string narrative)\n    external restrict(\"issueAndDisburse\") {\n        require(loanAmount > 0);\n        uint issuedAmount = loanAmount.add(interestAmount);\n        totalSupply = totalSupply.add(issuedAmount);\n        balances[this] = balances[this].add(loanAmount);\n        if (interestAmount > 0) {\n            // move interest to InterestPoolAccount\n            balances[interestPoolAccount] = balances[interestPoolAccount].add(interestAmount);\n        }\n        _transfer(address(this), borrower, loanAmount, narrative, 0);\n        TokenIssued(issuedAmount);\n    }\n\n    /* Optional convenience function for users to be able to repay with one transaction */\n    function repayLoan(address _loanManager, uint loanId) external {\n        require(isAllowed(_loanManager, \"LoanManager\")); // only whitelisted loanManagers\n\n        LoanManagerInterface loanManager = LoanManagerInterface(_loanManager);\n        var (borrower, , ,repaymentAmount, ) = loanManager.loans(loanId);\n        require(borrower == msg.sender);\n        _increaseApproval(msg.sender, _loanManager, repaymentAmount);\n        loanManager.releaseCollateral(loanId);\n    }\n\n    function repayAndBurn(address borrower, uint repaymentAmount, uint interestAmount, string narrative)\n    external restrict(\"repayAndBurn\") {\n        _transferFrom(borrower, this, repaymentAmount, narrative, 0);\n        totalSupply = totalSupply.sub(repaymentAmount);\n        balances[this] = balances[this].sub(repaymentAmount);\n        if (interestAmount > 0) {\n            // transfer interestAmount to InterestEarnedAccount\n            balances[interestEarnedAccount] = balances[interestEarnedAccount].add(interestAmount);\n            balances[interestPoolAccount] = balances[interestPoolAccount].sub(interestAmount);\n        }\n        TokenBurned(repaymentAmount);\n    }\n\n    function moveCollectedInterest(uint interestAmount) external restrict(\"moveCollectedInterest\") {\n        _transfer(interestPoolAccount, address(this), interestAmount, \"Defaulted loan interest\", 0);\n    }\n\n    function transferWithNarrative(address _to, uint256 _amount, string _narrative) external {\n        _transfer(msg.sender, _to, _amount, _narrative, getFee(_amount));\n    }\n\n    function transferNoFee(address _from, address _to, uint256 _amount, string _narrative)\n    external restrict(\"transferNoFee\") {\n        _transfer(_from, _to, _amount, _narrative, 0);\n    }\n\n    function setSystemAccounts(address newFeeAccount, address newInteresPoolAccount,\n            address newInterestEarnedAccount) external restrict(\"setSystemAccounts\") {\n        require(newFeeAccount != 0);\n        require(newInteresPoolAccount != 0);\n        require(newInterestEarnedAccount != 0);\n        feeAccount = newFeeAccount;\n        interestPoolAccount = newInteresPoolAccount;\n        interestEarnedAccount = newInterestEarnedAccount;\n        SystemAccountsChanged(newFeeAccount, newInteresPoolAccount, newInterestEarnedAccount);\n    }\n\n    function setTransferFees(uint _transferFeePt, uint _transferFeeMin, uint _transferFeeMax)\n    external restrict(\"setTransferFees\") {\n        transferFeePt = _transferFeePt;\n        transferFeeMin = _transferFeeMin;\n        transferFeeMax = _transferFeeMax;\n        TransferFeesChanged(transferFeePt, transferFeeMin, transferFeeMax);\n    }\n\n    function balanceOf(address _owner) public view returns (uint256 balance) {\n        return balances[_owner];\n    }\n\n    function allowance(address _owner, address _spender) public view returns (uint256 remaining) {\n        return allowed[_owner][_spender];\n    }\n\n    function transfer(address _to, uint256 _amount) public returns (bool) {\n        _transfer(msg.sender, _to, _amount, \"\", getFee(_amount));\n        return true;\n    }\n\n    function approve(address _spender, uint256 _amount) public returns (bool) {\n        require(msg.sender != _spender); // no need to approve for myself. Makes client code simpler if we don't allow\n        allowed[msg.sender][_spender] = _amount;\n        Approval(msg.sender, _spender, _amount);\n        return true;\n    }\n\n    /**\n     approve should be called when allowed[_spender] == 0. To increment allowed value is better\n     to use this function to avoid 2 calls (and wait until the first transaction is mined)\n     From MonolithDAO Token.sol */\n    function increaseApproval(address _spender, uint _addedValue) public returns (bool) {\n        return _increaseApproval(msg.sender, _spender, _addedValue);\n    }\n\n    function decreaseApproval(address _spender, uint _subtractedValue) public returns (bool) {\n        require(msg.sender != _spender); // no need to approve for myself. Makes client code simpler if we don't allow\n        uint oldValue = allowed[msg.sender][_spender];\n        if (_subtractedValue > oldValue) {\n            allowed[msg.sender][_spender] = 0;\n        } else {\n            allowed[msg.sender][_spender] = oldValue.sub(_subtractedValue);\n        }\n        Approval(msg.sender, _spender, allowed[msg.sender][_spender]);\n        return true;\n    }\n\n    function transferFrom(address _from, address _to, uint256 _amount) public returns (bool) {\n        _transferFrom(_from, _to, _amount, \"\", getFee(_amount));\n        return true;\n    }\n\n    function transferFromWithNarrative(\n        address _from,\n        address _to,\n        uint256 _amount,\n        string _narrative\n    ) public {\n        _transferFrom(_from, _to, _amount, _narrative, getFee(_amount));\n    }\n\n    function transferFromNoFee(address _from, address _to, uint256 _amount, string _narrative)\n    public restrict(\"transferFromNoFee\") {\n        _transferFrom(_from, _to, _amount, _narrative, 0);\n    }\n\n    function _increaseApproval(address _approver, address _spender, uint _addedValue) internal returns (bool) {\n        require(_approver != _spender); // no need to approve for myself. Makes client code simpler if we don't allow\n        allowed[_approver][_spender] = allowed[_approver][_spender].add(_addedValue);\n        Approval(_approver, _spender, allowed[_approver][_spender]);\n    }\n\n    function getFee(uint amount) internal view returns (uint256 fee) {\n        fee = amount.mul(transferFeePt).div(1000000);\n        if (fee > transferFeeMax) {\n            fee = transferFeeMax;\n        } else if (fee < transferFeeMin) {\n            fee = transferFeeMin;\n        }\n        return fee;\n    }\n\n    function _transferFrom(address _from, address _to, uint256 _amount, string _narrative, uint _fee) internal {\n        require(balances[_from] >= _amount);\n        require(allowed[_from][msg.sender] >= _amount);\n        require(_amount > 0);\n\n        _transfer(_from, _to, _amount, _narrative, 0);\n        if (_fee > 0) {\n            /* we need to deduct fee from _to unlike normal transfer\n             TODO: better way to do this? E.g. allow transfer fee to be deducted from beneficiary? */\n            _transfer(_to, feeAccount, _fee, \"TransferFrom fee\", 0);\n        }\n\n        allowed[_from][msg.sender] = allowed[_from][msg.sender].sub(_amount);\n    }\n\n    function _transfer(address _from, address _to, uint256 _amount, string narrative, uint _fee) internal {\n        require(_from != _to); // no need to send to myself. Makes client code simpler if we don't allow\n        require(_amount > 0);\n        if (_fee > 0) {\n            balances[feeAccount] = balances[feeAccount].add(_fee);\n            balances[_from] = balances[_from].sub(_amount).sub(_fee);\n        } else {\n            balances[_from] = balances[_from].sub(_amount);\n        }\n        balances[_to] = balances[_to].add(_amount);\n        Transfer(_from, _to, _amount);\n        AugmintTransfer(_from, _to, _amount, narrative, _fee);\n    }\n\n}\n",
  "sourcePath": "/Users/petro/ether/dcm-poc/contracts/generic/AugmintToken.sol",
  "compiler": {
    "name": "solc",
    "version": "0.4.18+commit.9cf6e910.Emscripten.clang"
  },
  "schemaVersion": "1.0.1",
  "updatedAt": "2018-01-06T09:38:10.188Z"
}