{
  "contractName": "AugmintReserves",
  "abi": [
    {
      "constant": true,
      "inputs": [
        {
          "name": "",
          "type": "address"
        },
        {
          "name": "",
          "type": "bytes32"
        }
      ],
      "name": "permissions",
      "outputs": [
        {
          "name": "",
          "type": "bool"
        }
      ],
      "payable": false,
      "stateMutability": "view",
      "type": "function"
    },
    {
      "constant": false,
      "inputs": [
        {
          "name": "agent",
          "type": "address"
        },
        {
          "name": "requiredPermission",
          "type": "bytes32"
        }
      ],
      "name": "revokePermission",
      "outputs": [],
      "payable": false,
      "stateMutability": "nonpayable",
      "type": "function"
    },
    {
      "constant": false,
      "inputs": [
        {
          "name": "agent",
          "type": "address"
        },
        {
          "name": "requiredPermissions",
          "type": "bytes32[]"
        }
      ],
      "name": "revokeMultiplePermissions",
      "outputs": [],
      "payable": false,
      "stateMutability": "nonpayable",
      "type": "function"
    },
    {
      "constant": false,
      "inputs": [
        {
          "name": "agent",
          "type": "address"
        },
        {
          "name": "requiredPermissions",
          "type": "bytes32[]"
        }
      ],
      "name": "grantMultiplePermissions",
      "outputs": [],
      "payable": false,
      "stateMutability": "nonpayable",
      "type": "function"
    },
    {
      "constant": false,
      "inputs": [
        {
          "name": "tokenAddress",
          "type": "address"
        },
        {
          "name": "to",
          "type": "address"
        },
        {
          "name": "tokenAmount",
          "type": "uint256"
        },
        {
          "name": "weiAmount",
          "type": "uint256"
        },
        {
          "name": "narrative",
          "type": "string"
        }
      ],
      "name": "withdraw",
      "outputs": [],
      "payable": false,
      "stateMutability": "nonpayable",
      "type": "function"
    },
    {
      "constant": false,
      "inputs": [
        {
          "name": "agent",
          "type": "address"
        },
        {
          "name": "requiredPermission",
          "type": "bytes32"
        }
      ],
      "name": "grantPermission",
      "outputs": [],
      "payable": false,
      "stateMutability": "nonpayable",
      "type": "function"
    },
    {
      "payable": true,
      "stateMutability": "payable",
      "type": "fallback"
    },
    {
      "anonymous": false,
      "inputs": [
        {
          "indexed": false,
          "name": "tokenAddress",
          "type": "address"
        },
        {
          "indexed": false,
          "name": "to",
          "type": "address"
        },
        {
          "indexed": false,
          "name": "tokenAmount",
          "type": "uint256"
        },
        {
          "indexed": false,
          "name": "weiAmount",
          "type": "uint256"
        },
        {
          "indexed": false,
          "name": "narrative",
          "type": "string"
        }
      ],
      "name": "WithdrawFromSystemAccount",
      "type": "event"
    },
    {
      "anonymous": false,
      "inputs": [
        {
          "indexed": true,
          "name": "agent",
          "type": "address"
        },
        {
          "indexed": false,
          "name": "grantedPermission",
          "type": "bytes32"
        }
      ],
      "name": "PermissionGranted",
      "type": "event"
    },
    {
      "anonymous": false,
      "inputs": [
        {
          "indexed": true,
          "name": "agent",
          "type": "address"
        },
        {
          "indexed": false,
          "name": "revokedPermission",
          "type": "bytes32"
        }
      ],
      "name": "PermissionRevoked",
      "type": "event"
    },
    {
      "constant": false,
      "inputs": [
        {
          "name": "augmintToken",
          "type": "address"
        },
        {
          "name": "amount",
          "type": "uint256"
        }
      ],
      "name": "burn",
      "outputs": [],
      "payable": false,
      "stateMutability": "nonpayable",
      "type": "function"
    }
  ],
  "bytecode": "0x608060405260016000803373ffffffffffffffffffffffffffffffffffffffff1673ffffffffffffffffffffffffffffffffffffffff16815260200190815260200160002060007f4d6f6e6574617279426f6172640000000000000000000000000000000000000060001916815260200190815260200160002060006101000a81548160ff0219169083151502179055503373ffffffffffffffffffffffffffffffffffffffff167fc65937e3dbcb9fb30f646815dd67a3dbd09ba17718cbcb54efbe3635f8e0a6fe60405180807f4d6f6e6574617279426f61726400000000000000000000000000000000000000815250602001905060405180910390a2610dc88061010d6000396000f300608060405260043610610083576000357c0100000000000000000000000000000000000000000000000000000000900463ffffffff1680635b225526146100855780635fe07013146100ee5780637ea469931461013f5780639ac3317b146101c55780639dc29fac1461024b578063a2e201d414610298578063f38a826214610327575b005b34801561009157600080fd5b506100d4600480360381019080803573ffffffffffffffffffffffffffffffffffffffff1690602001909291908035600019169060200190929190505050610378565b604051808215151515815260200191505060405180910390f35b3480156100fa57600080fd5b5061013d600480360381019080803573ffffffffffffffffffffffffffffffffffffffff16906020019092919080356000191690602001909291905050506103a7565b005b34801561014b57600080fd5b506101c3600480360381019080803573ffffffffffffffffffffffffffffffffffffffff1690602001909291908035906020019082018035906020019080806020026020016040519081016040528093929190818152602001838360200280828437820191505050505050919291929050505061058c565b005b3480156101d157600080fd5b50610249600480360381019080803573ffffffffffffffffffffffffffffffffffffffff169060200190929190803590602001908201803590602001908080602002602001604051908101604052809392919081815260200183836020028082843782019150505050505091929192905050506105d4565b005b34801561025757600080fd5b50610296600480360381019080803573ffffffffffffffffffffffffffffffffffffffff16906020019092919080359060200190929190505050610737565b005b3480156102a457600080fd5b50610325600480360381019080803573ffffffffffffffffffffffffffffffffffffffff169060200190929190803573ffffffffffffffffffffffffffffffffffffffff16906020019092919080359060200190929190803590602001909291908035906020019082018035906020019190919293919293905050506108bd565b005b34801561033357600080fd5b50610376600480360381019080803573ffffffffffffffffffffffffffffffffffffffff1690602001909291908035600019169060200190929190505050610bb7565b005b60006020528160005260406000206020528060005260406000206000915091509054906101000a900460ff1681565b6000803373ffffffffffffffffffffffffffffffffffffffff1673ffffffffffffffffffffffffffffffffffffffff16815260200190815260200160002060007f4d6f6e6574617279426f6172640000000000000000000000000000000000000060001916815260200190815260200160002060009054906101000a900460ff1615156104c2576040517f08c379a000000000000000000000000000000000000000000000000000000000815260040180806020018281038252602d8152602001807f6d73672e73656e646572206d7573742068617665204d6f6e6574617279426f6181526020017f7264207065726d697373696f6e0000000000000000000000000000000000000081525060400191505060405180910390fd5b60008060008473ffffffffffffffffffffffffffffffffffffffff1673ffffffffffffffffffffffffffffffffffffffff1681526020019081526020016000206000836000191660001916815260200190815260200160002060006101000a81548160ff0219169083151502179055508173ffffffffffffffffffffffffffffffffffffffff167f789770131846de4d1f28418f0f957cdf4fcabe5eccf70067083e20ecece69a348260405180826000191660001916815260200191505060405180910390a25050565b60008082519150600090505b818110156105ce576105c18484838151811015156105b257fe5b906020019060200201516103a7565b8080600101915050610598565b50505050565b6000806000803373ffffffffffffffffffffffffffffffffffffffff1673ffffffffffffffffffffffffffffffffffffffff16815260200190815260200160002060007f4d6f6e6574617279426f6172640000000000000000000000000000000000000060001916815260200190815260200160002060009054906101000a900460ff1615156106f2576040517f08c379a000000000000000000000000000000000000000000000000000000000815260040180806020018281038252602d8152602001807f6d73672e73656e646572206d7573742068617665204d6f6e6574617279426f6181526020017f7264207065726d697373696f6e0000000000000000000000000000000000000081525060400191505060405180910390fd5b82519150600090505b818110156107315761072484848381518110151561071557fe5b90602001906020020151610bb7565b80806001019150506106fb565b50505050565b7f4d6f6e657461727953757065727669736f72436f6e74726163740000000000006000803373ffffffffffffffffffffffffffffffffffffffff1673ffffffffffffffffffffffffffffffffffffffff1681526020019081526020016000206000826000191660001916815260200190815260200160002060009054906101000a900460ff161515610831576040517f08c379a000000000000000000000000000000000000000000000000000000000815260040180806020018281038252601f8152602001807f6d73672e73656e646572206d7573742068617665207065726d697373696f6e0081525060200191505060405180910390fd5b8273ffffffffffffffffffffffffffffffffffffffff166342966c68836040518263ffffffff167c010000000000000000000000000000000000000000000000000000000002815260040180828152602001915050600060405180830381600087803b1580156108a057600080fd5b505af11580156108b4573d6000803e3d6000fd5b50505050505050565b7f4d6f6e6574617279426f617264000000000000000000000000000000000000006000803373ffffffffffffffffffffffffffffffffffffffff1673ffffffffffffffffffffffffffffffffffffffff1681526020019081526020016000206000826000191660001916815260200190815260200160002060009054906101000a900460ff1615156109b7576040517f08c379a000000000000000000000000000000000000000000000000000000000815260040180806020018281038252601f8152602001807f6d73672e73656e646572206d7573742068617665207065726d697373696f6e0081525060200191505060405180910390fd5b8673ffffffffffffffffffffffffffffffffffffffff1663ffdcf095878786866040518563ffffffff167c0100000000000000000000000000000000000000000000000000000000028152600401808573ffffffffffffffffffffffffffffffffffffffff1673ffffffffffffffffffffffffffffffffffffffff168152602001848152602001806020018281038252848482818152602001925080828437820191505095505050505050600060405180830381600087803b158015610a7c57600080fd5b505af1158015610a90573d6000803e3d6000fd5b505050506000841115610ae5578573ffffffffffffffffffffffffffffffffffffffff166108fc859081150290604051600060405180830381858888f19350505050158015610ae3573d6000803e3d6000fd5b505b7f6883a331384c74ae1b5e75351b4186a9e6c60291aa3182c8f77095552c850d9c878787878787604051808773ffffffffffffffffffffffffffffffffffffffff1673ffffffffffffffffffffffffffffffffffffffff1681526020018673ffffffffffffffffffffffffffffffffffffffff1673ffffffffffffffffffffffffffffffffffffffff168152602001858152602001848152602001806020018281038252848482818152602001925080828437820191505097505050505050505060405180910390a150505050505050565b6000803373ffffffffffffffffffffffffffffffffffffffff1673ffffffffffffffffffffffffffffffffffffffff16815260200190815260200160002060007f4d6f6e6574617279426f6172640000000000000000000000000000000000000060001916815260200190815260200160002060009054906101000a900460ff161515610cd2576040517f08c379a000000000000000000000000000000000000000000000000000000000815260040180806020018281038252602d8152602001807f6d73672e73656e646572206d7573742068617665204d6f6e6574617279426f6181526020017f7264207065726d697373696f6e0000000000000000000000000000000000000081525060400191505060405180910390fd5b60016000808473ffffffffffffffffffffffffffffffffffffffff1673ffffffffffffffffffffffffffffffffffffffff1681526020019081526020016000206000836000191660001916815260200190815260200160002060006101000a81548160ff0219169083151502179055508173ffffffffffffffffffffffffffffffffffffffff167fc65937e3dbcb9fb30f646815dd67a3dbd09ba17718cbcb54efbe3635f8e0a6fe8260405180826000191660001916815260200191505060405180910390a250505600a165627a7a72305820d176c1d881cc0e5f58c44899c0faa232b1fcaaeea3278c175b91c76d1b6b37b80029",
  "source": "/* Contract to hold Augmint reserves (ETH & Token)\n    - ETH as regular ETH balance of the contract\n    - ERC20 token reserve (stored as regular Token balance under the contract address)\n\nNB: reserves are held under the contract address, therefore any transaction on the reserve is limited to the\n    tx-s defined here (i.e. transfer is not allowed even by the contract owner or MonetaryBoard or MonetarySupervisor)\n\n */\n\npragma solidity ^0.4.23;\nimport \"./generic/SystemAccount.sol\";\nimport \"./interfaces/AugmintTokenInterface.sol\";\n\n\ncontract AugmintReserves is SystemAccount {\n\n    function () public payable { // solhint-disable-line no-empty-blocks\n        // to accept ETH sent into reserve (from defaulted loan's collateral )\n    }\n\n    function burn(AugmintTokenInterface augmintToken, uint amount) external restrict(\"MonetarySupervisorContract\") {\n        augmintToken.burn(amount);\n    }\n\n}\n",
  "sourcePath": "/Users/petro/ether/augmint-contracts/contracts/AugmintReserves.sol",
  "compiler": {
    "name": "solc",
    "version": "0.4.23+commit.124ca40d.Emscripten.clang"
  },
  "schemaVersion": "2.0.0",
  "updatedAt": "2018-04-20T18:14:08.862Z"
}