{
  "contractName": "AugmintToken",
  "abi": [
    {
      "constant": true,
      "inputs": [],
      "name": "name",
      "outputs": [
        {
          "name": "",
          "type": "string"
        }
      ],
      "payable": false,
      "stateMutability": "view",
      "type": "function"
    },
    {
      "constant": false,
      "inputs": [
        {
          "name": "agent",
          "type": "address"
        },
        {
          "name": "requiredPermissions",
          "type": "bytes32[]"
        }
      ],
      "name": "revokeMulitplePermissions",
      "outputs": [],
      "payable": false,
      "stateMutability": "nonpayable",
      "type": "function"
    },
    {
      "constant": true,
      "inputs": [],
      "name": "totalSupply",
      "outputs": [
        {
          "name": "",
          "type": "uint256"
        }
      ],
      "payable": false,
      "stateMutability": "view",
      "type": "function"
    },
    {
      "constant": true,
      "inputs": [
        {
          "name": "",
          "type": "address"
        }
      ],
      "name": "balances",
      "outputs": [
        {
          "name": "",
          "type": "uint256"
        }
      ],
      "payable": false,
      "stateMutability": "view",
      "type": "function"
    },
    {
      "constant": true,
      "inputs": [],
      "name": "decimals",
      "outputs": [
        {
          "name": "",
          "type": "uint8"
        }
      ],
      "payable": false,
      "stateMutability": "view",
      "type": "function"
    },
    {
      "constant": true,
      "inputs": [],
      "name": "peggedSymbol",
      "outputs": [
        {
          "name": "",
          "type": "bytes32"
        }
      ],
      "payable": false,
      "stateMutability": "view",
      "type": "function"
    },
    {
      "constant": true,
      "inputs": [],
      "name": "issuedByMonetaryBoard",
      "outputs": [
        {
          "name": "",
          "type": "uint256"
        }
      ],
      "payable": false,
      "stateMutability": "view",
      "type": "function"
    },
    {
      "constant": true,
      "inputs": [
        {
          "name": "",
          "type": "address"
        },
        {
          "name": "",
          "type": "bytes32"
        }
      ],
      "name": "permissions",
      "outputs": [
        {
          "name": "",
          "type": "bool"
        }
      ],
      "payable": false,
      "stateMutability": "view",
      "type": "function"
    },
    {
      "constant": true,
      "inputs": [
        {
          "name": "",
          "type": "address"
        },
        {
          "name": "",
          "type": "address"
        }
      ],
      "name": "allowed",
      "outputs": [
        {
          "name": "",
          "type": "uint256"
        }
      ],
      "payable": false,
      "stateMutability": "view",
      "type": "function"
    },
    {
      "constant": true,
      "inputs": [],
      "name": "interestEarnedAccount",
      "outputs": [
        {
          "name": "",
          "type": "address"
        }
      ],
      "payable": false,
      "stateMutability": "view",
      "type": "function"
    },
    {
      "constant": false,
      "inputs": [
        {
          "name": "agent",
          "type": "address"
        },
        {
          "name": "requiredPermission",
          "type": "bytes32"
        }
      ],
      "name": "revokePermission",
      "outputs": [],
      "payable": false,
      "stateMutability": "nonpayable",
      "type": "function"
    },
    {
      "constant": true,
      "inputs": [],
      "name": "feeAccount",
      "outputs": [
        {
          "name": "",
          "type": "address"
        }
      ],
      "payable": false,
      "stateMutability": "view",
      "type": "function"
    },
    {
      "constant": true,
      "inputs": [],
      "name": "transferFeeMax",
      "outputs": [
        {
          "name": "",
          "type": "uint256"
        }
      ],
      "payable": false,
      "stateMutability": "view",
      "type": "function"
    },
    {
      "constant": true,
      "inputs": [],
      "name": "transferFeePt",
      "outputs": [
        {
          "name": "",
          "type": "uint256"
        }
      ],
      "payable": false,
      "stateMutability": "view",
      "type": "function"
    },
    {
      "constant": true,
      "inputs": [],
      "name": "symbol",
      "outputs": [
        {
          "name": "",
          "type": "string"
        }
      ],
      "payable": false,
      "stateMutability": "view",
      "type": "function"
    },
    {
      "constant": false,
      "inputs": [
        {
          "name": "agent",
          "type": "address"
        },
        {
          "name": "requiredPermissions",
          "type": "bytes32[]"
        }
      ],
      "name": "grantMultiplePermissions",
      "outputs": [],
      "payable": false,
      "stateMutability": "nonpayable",
      "type": "function"
    },
    {
      "constant": true,
      "inputs": [],
      "name": "transferFeeMin",
      "outputs": [
        {
          "name": "",
          "type": "uint256"
        }
      ],
      "payable": false,
      "stateMutability": "view",
      "type": "function"
    },
    {
      "constant": false,
      "inputs": [
        {
          "name": "agent",
          "type": "address"
        },
        {
          "name": "requiredPermission",
          "type": "bytes32"
        }
      ],
      "name": "grantPermission",
      "outputs": [],
      "payable": false,
      "stateMutability": "nonpayable",
      "type": "function"
    },
    {
      "inputs": [
        {
          "name": "_name",
          "type": "string"
        },
        {
          "name": "_symbol",
          "type": "string"
        },
        {
          "name": "_peggedSymbol",
          "type": "bytes32"
        },
        {
          "name": "_decimals",
          "type": "uint8"
        },
        {
          "name": "_feeAccount",
          "type": "address"
        },
        {
          "name": "_interestEarnedAccount",
          "type": "address"
        },
        {
          "name": "_transferFeePt",
          "type": "uint256"
        },
        {
          "name": "_transferFeeMin",
          "type": "uint256"
        },
        {
          "name": "_transferFeeMax",
          "type": "uint256"
        }
      ],
      "payable": false,
      "stateMutability": "nonpayable",
      "type": "constructor"
    },
    {
      "payable": true,
      "stateMutability": "payable",
      "type": "fallback"
    },
    {
      "anonymous": false,
      "inputs": [
        {
          "indexed": false,
          "name": "_transferFeePt",
          "type": "uint256"
        },
        {
          "indexed": false,
          "name": "_transferFeeMin",
          "type": "uint256"
        },
        {
          "indexed": false,
          "name": "_transferFeeMax",
          "type": "uint256"
        }
      ],
      "name": "TransferFeesChanged",
      "type": "event"
    },
    {
      "anonymous": false,
      "inputs": [
        {
          "indexed": true,
          "name": "from",
          "type": "address"
        },
        {
          "indexed": true,
          "name": "to",
          "type": "address"
        },
        {
          "indexed": false,
          "name": "amount",
          "type": "uint256"
        }
      ],
      "name": "Transfer",
      "type": "event"
    },
    {
      "anonymous": false,
      "inputs": [
        {
          "indexed": true,
          "name": "from",
          "type": "address"
        },
        {
          "indexed": true,
          "name": "to",
          "type": "address"
        },
        {
          "indexed": false,
          "name": "amount",
          "type": "uint256"
        },
        {
          "indexed": false,
          "name": "narrative",
          "type": "string"
        },
        {
          "indexed": false,
          "name": "fee",
          "type": "uint256"
        }
      ],
      "name": "AugmintTransfer",
      "type": "event"
    },
    {
      "anonymous": false,
      "inputs": [
        {
          "indexed": false,
          "name": "amount",
          "type": "uint256"
        }
      ],
      "name": "TokenIssued",
      "type": "event"
    },
    {
      "anonymous": false,
      "inputs": [
        {
          "indexed": false,
          "name": "amount",
          "type": "uint256"
        }
      ],
      "name": "TokenBurned",
      "type": "event"
    },
    {
      "anonymous": false,
      "inputs": [
        {
          "indexed": true,
          "name": "_owner",
          "type": "address"
        },
        {
          "indexed": true,
          "name": "_spender",
          "type": "address"
        },
        {
          "indexed": false,
          "name": "_value",
          "type": "uint256"
        }
      ],
      "name": "Approval",
      "type": "event"
    },
    {
      "anonymous": false,
      "inputs": [
        {
          "indexed": true,
          "name": "agent",
          "type": "address"
        },
        {
          "indexed": false,
          "name": "grantedPermission",
          "type": "bytes32"
        }
      ],
      "name": "PermissionGranted",
      "type": "event"
    },
    {
      "anonymous": false,
      "inputs": [
        {
          "indexed": true,
          "name": "agent",
          "type": "address"
        },
        {
          "indexed": false,
          "name": "revokedPermission",
          "type": "bytes32"
        }
      ],
      "name": "PermissionRevoked",
      "type": "event"
    },
    {
      "constant": false,
      "inputs": [
        {
          "name": "amount",
          "type": "uint256"
        }
      ],
      "name": "issue",
      "outputs": [],
      "payable": false,
      "stateMutability": "nonpayable",
      "type": "function"
    },
    {
      "constant": false,
      "inputs": [
        {
          "name": "amount",
          "type": "uint256"
        }
      ],
      "name": "burn",
      "outputs": [],
      "payable": false,
      "stateMutability": "nonpayable",
      "type": "function"
    },
    {
      "constant": false,
      "inputs": [
        {
          "name": "lockerAddress",
          "type": "address"
        },
        {
          "name": "lockProductId",
          "type": "uint256"
        },
        {
          "name": "amountToLock",
          "type": "uint256"
        }
      ],
      "name": "lockFunds",
      "outputs": [],
      "payable": false,
      "stateMutability": "nonpayable",
      "type": "function"
    },
    {
      "constant": false,
      "inputs": [
        {
          "name": "borrower",
          "type": "address"
        },
        {
          "name": "loanAmount",
          "type": "uint256"
        },
        {
          "name": "narrative",
          "type": "string"
        }
      ],
      "name": "issueAndDisburse",
      "outputs": [],
      "payable": false,
      "stateMutability": "nonpayable",
      "type": "function"
    },
    {
      "constant": false,
      "inputs": [
        {
          "name": "_loanManager",
          "type": "address"
        },
        {
          "name": "loanId",
          "type": "uint256"
        }
      ],
      "name": "repayLoan",
      "outputs": [],
      "payable": false,
      "stateMutability": "nonpayable",
      "type": "function"
    },
    {
      "constant": false,
      "inputs": [
        {
          "name": "_exchange",
          "type": "address"
        },
        {
          "name": "price",
          "type": "uint256"
        },
        {
          "name": "tokenAmount",
          "type": "uint256"
        }
      ],
      "name": "placeSellTokenOrderOnExchange",
      "outputs": [
        {
          "name": "sellTokenOrderIndex",
          "type": "uint256"
        },
        {
          "name": "sellTokenOrderId",
          "type": "uint256"
        }
      ],
      "payable": false,
      "stateMutability": "nonpayable",
      "type": "function"
    },
    {
      "constant": false,
      "inputs": [
        {
          "name": "_to",
          "type": "address"
        },
        {
          "name": "_amount",
          "type": "uint256"
        },
        {
          "name": "_narrative",
          "type": "string"
        }
      ],
      "name": "transferWithNarrative",
      "outputs": [],
      "payable": false,
      "stateMutability": "nonpayable",
      "type": "function"
    },
    {
      "constant": false,
      "inputs": [
        {
          "name": "_to",
          "type": "address"
        },
        {
          "name": "_amount",
          "type": "uint256"
        },
        {
          "name": "_narrative",
          "type": "string"
        }
      ],
      "name": "transferNoFee",
      "outputs": [],
      "payable": false,
      "stateMutability": "nonpayable",
      "type": "function"
    },
    {
      "constant": false,
      "inputs": [
        {
          "name": "_transferFeePt",
          "type": "uint256"
        },
        {
          "name": "_transferFeeMin",
          "type": "uint256"
        },
        {
          "name": "_transferFeeMax",
          "type": "uint256"
        }
      ],
      "name": "setTransferFees",
      "outputs": [],
      "payable": false,
      "stateMutability": "nonpayable",
      "type": "function"
    },
    {
      "constant": true,
      "inputs": [
        {
          "name": "_owner",
          "type": "address"
        }
      ],
      "name": "balanceOf",
      "outputs": [
        {
          "name": "balance",
          "type": "uint256"
        }
      ],
      "payable": false,
      "stateMutability": "view",
      "type": "function"
    },
    {
      "constant": true,
      "inputs": [
        {
          "name": "_owner",
          "type": "address"
        },
        {
          "name": "_spender",
          "type": "address"
        }
      ],
      "name": "allowance",
      "outputs": [
        {
          "name": "remaining",
          "type": "uint256"
        }
      ],
      "payable": false,
      "stateMutability": "view",
      "type": "function"
    },
    {
      "constant": false,
      "inputs": [
        {
          "name": "_to",
          "type": "address"
        },
        {
          "name": "_amount",
          "type": "uint256"
        }
      ],
      "name": "transfer",
      "outputs": [
        {
          "name": "",
          "type": "bool"
        }
      ],
      "payable": false,
      "stateMutability": "nonpayable",
      "type": "function"
    },
    {
      "constant": false,
      "inputs": [
        {
          "name": "_spender",
          "type": "address"
        },
        {
          "name": "_amount",
          "type": "uint256"
        }
      ],
      "name": "approve",
      "outputs": [
        {
          "name": "",
          "type": "bool"
        }
      ],
      "payable": false,
      "stateMutability": "nonpayable",
      "type": "function"
    },
    {
      "constant": false,
      "inputs": [
        {
          "name": "_spender",
          "type": "address"
        },
        {
          "name": "_addedValue",
          "type": "uint256"
        }
      ],
      "name": "increaseApproval",
      "outputs": [
        {
          "name": "",
          "type": "bool"
        }
      ],
      "payable": false,
      "stateMutability": "nonpayable",
      "type": "function"
    },
    {
      "constant": false,
      "inputs": [
        {
          "name": "_spender",
          "type": "address"
        },
        {
          "name": "_subtractedValue",
          "type": "uint256"
        }
      ],
      "name": "decreaseApproval",
      "outputs": [
        {
          "name": "",
          "type": "bool"
        }
      ],
      "payable": false,
      "stateMutability": "nonpayable",
      "type": "function"
    },
    {
      "constant": false,
      "inputs": [
        {
          "name": "_from",
          "type": "address"
        },
        {
          "name": "_to",
          "type": "address"
        },
        {
          "name": "_amount",
          "type": "uint256"
        }
      ],
      "name": "transferFrom",
      "outputs": [
        {
          "name": "",
          "type": "bool"
        }
      ],
      "payable": false,
      "stateMutability": "nonpayable",
      "type": "function"
    },
    {
      "constant": false,
      "inputs": [
        {
          "name": "_from",
          "type": "address"
        },
        {
          "name": "_to",
          "type": "address"
        },
        {
          "name": "_amount",
          "type": "uint256"
        },
        {
          "name": "_narrative",
          "type": "string"
        }
      ],
      "name": "transferFromWithNarrative",
      "outputs": [],
      "payable": false,
      "stateMutability": "nonpayable",
      "type": "function"
    },
    {
      "constant": false,
      "inputs": [
        {
          "name": "_from",
          "type": "address"
        },
        {
          "name": "_to",
          "type": "address"
        },
        {
          "name": "_amount",
          "type": "uint256"
        },
        {
          "name": "_narrative",
          "type": "string"
        }
      ],
      "name": "transferFromNoFee",
      "outputs": [],
      "payable": false,
      "stateMutability": "nonpayable",
      "type": "function"
    }
  ],
  "bytecode": "0x606060405234156200001057600080fd5b60405162003575380380620035758339810160405280805182019190602001805182019190602001805190602001909190805190602001909190805190602001909190805190602001909190805190602001909190805190602001909190805190602001909190505060016000803373ffffffffffffffffffffffffffffffffffffffff1673ffffffffffffffffffffffffffffffffffffffff16815260200190815260200160002060007f4d6f6e6574617279426f6172640000000000000000000000000000000000000060001916815260200190815260200160002060006101000a81548160ff0219169083151502179055503373ffffffffffffffffffffffffffffffffffffffff167fc65937e3dbcb9fb30f646815dd67a3dbd09ba17718cbcb54efbe3635f8e0a6fe60405180807f4d6f6e6574617279426f61726400000000000000000000000000000000000000815250602001905060405180910390a2600073ffffffffffffffffffffffffffffffffffffffff168573ffffffffffffffffffffffffffffffffffffffff1614151515620001b057600080fd5b600073ffffffffffffffffffffffffffffffffffffffff168473ffffffffffffffffffffffffffffffffffffffff1614151515620001ed57600080fd5b60008951111515620001fe57600080fd5b886001908051906020019062000216929190620002fc565b5087600290805190602001906200022f929190620002fc565b50866003816000191690555085600460006101000a81548160ff021916908360ff16021790555084600860006101000a81548173ffffffffffffffffffffffffffffffffffffffff021916908373ffffffffffffffffffffffffffffffffffffffff16021790555083600960006101000a81548173ffffffffffffffffffffffffffffffffffffffff021916908373ffffffffffffffffffffffffffffffffffffffff16021790555082600a8190555081600b8190555080600c81905550505050505050505050620003ab565b828054600181600116156101000203166002900490600052602060002090601f016020900481019282601f106200033f57805160ff191683800117855562000370565b8280016001018555821562000370579182015b828111156200036f57825182559160200191906001019062000352565b5b5090506200037f919062000383565b5090565b620003a891905b80821115620003a45760008160009055506001016200038a565b5090565b90565b6131ba80620003bb6000396000f3006060604052600436106101c2576000357c0100000000000000000000000000000000000000000000000000000000900463ffffffff16806304282d25146101c457806306fdde0314610268578063095ea7b3146102f65780630da32eaa1461035057806318160ddd146103c957806323b872dd146103f257806327e235e31461046b578063313ce567146104b857806333a263e6146104e757806342966c6814610518578063596368e01461053b5780635b225526146105645780635c658165146105c25780635fcf04551461062e5780635fe070131461068357806365e17c9d146106c9578063661884631461071e57806370a082311461077857806372a1eecc146107c557806376587921146107ee57806377c9db1a1461089257806393a595f5146108bb57806395d89b41146108fd5780639ac3317b1461098b5780639c1a51a314610a04578063a7f839a714610a6a578063a9059cbb14610a93578063ab1f032714610aed578063babac77e14610b43578063bfd201f514610b8e578063c9a3249914610bc3578063cc872b6614610c19578063d73dd62314610c3c578063dd62ed3e14610c96578063f38a826214610d02578063ffdcf09514610d48575b005b34156101cf57600080fd5b610266600480803573ffffffffffffffffffffffffffffffffffffffff1690602001909190803573ffffffffffffffffffffffffffffffffffffffff1690602001909190803590602001909190803590602001908201803590602001908080601f01602080910402602001604051908101604052809392919081815260200183838082843782019150505050505091905050610d9e565b005b341561027357600080fd5b61027b610e44565b6040518080602001828103825283818151815260200191508051906020019080838360005b838110156102bb5780820151818401526020810190506102a0565b50505050905090810190601f1680156102e85780820380516001836020036101000a031916815260200191505b509250505060405180910390f35b341561030157600080fd5b610336600480803573ffffffffffffffffffffffffffffffffffffffff16906020019091908035906020019091905050610ee2565b604051808215151515815260200191505060405180910390f35b341561035b57600080fd5b6103c7600480803573ffffffffffffffffffffffffffffffffffffffff1690602001909190803590602001908201803590602001908080602002602001604051908101604052809392919081815260200183836020028082843782019150505050505091905050611034565b005b34156103d457600080fd5b6103dc61107c565b6040518082815260200191505060405180910390f35b34156103fd57600080fd5b610451600480803573ffffffffffffffffffffffffffffffffffffffff1690602001909190803573ffffffffffffffffffffffffffffffffffffffff16906020019091908035906020019091905050611082565b604051808215151515815260200191505060405180910390f35b341561047657600080fd5b6104a2600480803573ffffffffffffffffffffffffffffffffffffffff169060200190919050506110b4565b6040518082815260200191505060405180910390f35b34156104c357600080fd5b6104cb6110cc565b604051808260ff1660ff16815260200191505060405180910390f35b34156104f257600080fd5b6104fa6110df565b60405180826000191660001916815260200191505060405180910390f35b341561052357600080fd5b61053960048080359060200190919050506110e5565b005b341561054657600080fd5b61054e61119f565b6040518082815260200191505060405180910390f35b341561056f57600080fd5b6105a8600480803573ffffffffffffffffffffffffffffffffffffffff16906020019091908035600019169060200190919050506111a5565b604051808215151515815260200191505060405180910390f35b34156105cd57600080fd5b610618600480803573ffffffffffffffffffffffffffffffffffffffff1690602001909190803573ffffffffffffffffffffffffffffffffffffffff169060200190919050506111d4565b6040518082815260200191505060405180910390f35b341561063957600080fd5b6106416111f9565b604051808273ffffffffffffffffffffffffffffffffffffffff1673ffffffffffffffffffffffffffffffffffffffff16815260200191505060405180910390f35b341561068e57600080fd5b6106c7600480803573ffffffffffffffffffffffffffffffffffffffff169060200190919080356000191690602001909190505061121f565b005b34156106d457600080fd5b6106dc6112e9565b604051808273ffffffffffffffffffffffffffffffffffffffff1673ffffffffffffffffffffffffffffffffffffffff16815260200191505060405180910390f35b341561072957600080fd5b61075e600480803573ffffffffffffffffffffffffffffffffffffffff1690602001909190803590602001909190505061130f565b604051808215151515815260200191505060405180910390f35b341561078357600080fd5b6107af600480803573ffffffffffffffffffffffffffffffffffffffff169060200190919050506115db565b6040518082815260200191505060405180910390f35b34156107d057600080fd5b6107d8611624565b6040518082815260200191505060405180910390f35b34156107f957600080fd5b610890600480803573ffffffffffffffffffffffffffffffffffffffff1690602001909190803573ffffffffffffffffffffffffffffffffffffffff1690602001909190803590602001909190803590602001908201803590602001908080601f0160208091040260200160405190810160405280939291908181526020018383808284378201915050505050509190505061162a565b005b341561089d57600080fd5b6108a5611645565b6040518082815260200191505060405180910390f35b34156108c657600080fd5b6108fb600480803573ffffffffffffffffffffffffffffffffffffffff1690602001909190803590602001909190505061164b565b005b341561090857600080fd5b610910611a44565b6040518080602001828103825283818151815260200191508051906020019080838360005b83811015610950578082015181840152602081019050610935565b50505050905090810190601f16801561097d5780820380516001836020036101000a031916815260200191505b509250505060405180910390f35b341561099657600080fd5b610a02600480803573ffffffffffffffffffffffffffffffffffffffff1690602001909190803590602001908201803590602001908080602002602001604051908101604052809392919081815260200183836020028082843782019150505050505091905050611ae2565b005b3415610a0f57600080fd5b610a4d600480803573ffffffffffffffffffffffffffffffffffffffff16906020019091908035906020019091908035906020019091905050611bb6565b604051808381526020018281526020019250505060405180910390f35b3415610a7557600080fd5b610a7d611d6d565b6040518082815260200191505060405180910390f35b3415610a9e57600080fd5b610ad3600480803573ffffffffffffffffffffffffffffffffffffffff16906020019091908035906020019091905050611d73565b604051808215151515815260200191505060405180910390f35b3415610af857600080fd5b610b41600480803573ffffffffffffffffffffffffffffffffffffffff169060200190919080359060200190919080359060200190820180359060200191909192905050611da4565b005b3415610b4e57600080fd5b610b8c600480803573ffffffffffffffffffffffffffffffffffffffff16906020019091908035906020019091908035906020019091905050611e7c565b005b3415610b9957600080fd5b610bc1600480803590602001909190803590602001909190803590602001909190505061208d565b005b3415610bce57600080fd5b610c17600480803573ffffffffffffffffffffffffffffffffffffffff169060200190919080359060200190919080359060200190820180359060200191909192905050612186565b005b3415610c2457600080fd5b610c3a6004808035906020019091905050612277565b005b3415610c4757600080fd5b610c7c600480803573ffffffffffffffffffffffffffffffffffffffff16906020019091908035906020019091905050612331565b604051808215151515815260200191505060405180910390f35b3415610ca157600080fd5b610cec600480803573ffffffffffffffffffffffffffffffffffffffff1690602001909190803573ffffffffffffffffffffffffffffffffffffffff16906020019091905050612346565b6040518082815260200191505060405180910390f35b3415610d0d57600080fd5b610d46600480803573ffffffffffffffffffffffffffffffffffffffff16906020019091908035600019169060200190919050506123cd565b005b3415610d5357600080fd5b610d9c600480803573ffffffffffffffffffffffffffffffffffffffff169060200190919080359060200190919080359060200190820180359060200191909192905050612523565b005b7f4e6f4665655472616e73666572436f6e747261637473000000000000000000006000803373ffffffffffffffffffffffffffffffffffffffff1673ffffffffffffffffffffffffffffffffffffffff1681526020019081526020016000206000826000191660001916815260200190815260200160002060009054906101000a900460ff161515610e2f57600080fd5b610e3d858585856000612570565b5050505050565b60018054600181600116156101000203166002900480601f016020809104026020016040519081016040528092919081815260200182805460018160011615610100020316600290048015610eda5780601f10610eaf57610100808354040283529160200191610eda565b820191906000526020600020905b815481529060010190602001808311610ebd57829003601f168201915b505050505081565b6000808373ffffffffffffffffffffffffffffffffffffffff1614151515610f0957600080fd5b8273ffffffffffffffffffffffffffffffffffffffff163373ffffffffffffffffffffffffffffffffffffffff1614151515610f4457600080fd5b81600760003373ffffffffffffffffffffffffffffffffffffffff1673ffffffffffffffffffffffffffffffffffffffff16815260200190815260200160002060008573ffffffffffffffffffffffffffffffffffffffff1673ffffffffffffffffffffffffffffffffffffffff168152602001908152602001600020819055508273ffffffffffffffffffffffffffffffffffffffff163373ffffffffffffffffffffffffffffffffffffffff167f8c5be1e5ebec7d5bd14f71427d1e84f3dd0314c0f7b2291e5b200ac8c7c3b925846040518082815260200191505060405180910390a36001905092915050565b60008082519150600090505b818110156110765761106984848381518110151561105a57fe5b9060200190602002015161121f565b8080600101915050611040565b50505050565b60055481565b60006110a984848460206040519081016040528060008152506110a4876127f7565b612570565b600190509392505050565b60066020528060005260406000206000915090505481565b600460009054906101000a900460ff1681565b60035481565b7f4d6f6e6574617279426f617264000000000000000000000000000000000000006000803373ffffffffffffffffffffffffffffffffffffffff1673ffffffffffffffffffffffffffffffffffffffff1681526020019081526020016000206000826000191660001916815260200190815260200160002060009054906101000a900460ff16151561117657600080fd5b61118b82600d5461286490919063ffffffff16565b600d8190555061119b3083612880565b5050565b600d5481565b60006020528160005260406000206020528060005260406000206000915091509054906101000a900460ff1681565b6007602052816000526040600020602052806000526040600020600091509150505481565b600960009054906101000a900473ffffffffffffffffffffffffffffffffffffffff1681565b60008060008473ffffffffffffffffffffffffffffffffffffffff1673ffffffffffffffffffffffffffffffffffffffff1681526020019081526020016000206000836000191660001916815260200190815260200160002060006101000a81548160ff0219169083151502179055508173ffffffffffffffffffffffffffffffffffffffff167f789770131846de4d1f28418f0f957cdf4fcabe5eccf70067083e20ecece69a348260405180826000191660001916815260200191505060405180910390a25050565b600860009054906101000a900473ffffffffffffffffffffffffffffffffffffffff1681565b6000808373ffffffffffffffffffffffffffffffffffffffff163373ffffffffffffffffffffffffffffffffffffffff161415151561134d57600080fd5b600760003373ffffffffffffffffffffffffffffffffffffffff1673ffffffffffffffffffffffffffffffffffffffff16815260200190815260200160002060008573ffffffffffffffffffffffffffffffffffffffff1673ffffffffffffffffffffffffffffffffffffffff1681526020019081526020016000205490508083111561145b576000600760003373ffffffffffffffffffffffffffffffffffffffff1673ffffffffffffffffffffffffffffffffffffffff16815260200190815260200160002060008673ffffffffffffffffffffffffffffffffffffffff1673ffffffffffffffffffffffffffffffffffffffff168152602001908152602001600020819055506114ef565b61146e838261286490919063ffffffff16565b600760003373ffffffffffffffffffffffffffffffffffffffff1673ffffffffffffffffffffffffffffffffffffffff16815260200190815260200160002060008673ffffffffffffffffffffffffffffffffffffffff1673ffffffffffffffffffffffffffffffffffffffff168152602001908152602001600020819055505b8373ffffffffffffffffffffffffffffffffffffffff163373ffffffffffffffffffffffffffffffffffffffff167f8c5be1e5ebec7d5bd14f71427d1e84f3dd0314c0f7b2291e5b200ac8c7c3b925600760003373ffffffffffffffffffffffffffffffffffffffff1673ffffffffffffffffffffffffffffffffffffffff16815260200190815260200160002060008873ffffffffffffffffffffffffffffffffffffffff1673ffffffffffffffffffffffffffffffffffffffff168152602001908152602001600020546040518082815260200191505060405180910390a3600191505092915050565b6000600660008373ffffffffffffffffffffffffffffffffffffffff1673ffffffffffffffffffffffffffffffffffffffff168152602001908152602001600020549050919050565b600c5481565b61163f8484848461163a876127f7565b612570565b50505050565b600a5481565b60008060008060008060008873ffffffffffffffffffffffffffffffffffffffff1673ffffffffffffffffffffffffffffffffffffffff16815260200190815260200160002060007f4c6f616e4d616e61676572436f6e74726163747300000000000000000000000060001916815260200190815260200160002060009054906101000a900460ff1615156116df57600080fd5b8694508473ffffffffffffffffffffffffffffffffffffffff1663e1ec3c6887600060405161014001526040518263ffffffff167c01000000000000000000000000000000000000000000000000000000000281526004018082815260200191505061014060405180830381600087803b151561175b57600080fd5b6102c65a03f1151561176c57600080fd5b5050506040518051906020018051906020018051906020018051906020018051906020018051906020018051906020018051906020018051906020018051905050505050955095509550505093503373ffffffffffffffffffffffffffffffffffffffff168473ffffffffffffffffffffffffffffffffffffffff161415156117f457600080fd5b6118373330856040805190810160405280600e81526020017f4c6f616e2072657061796d656e740000000000000000000000000000000000008152506000612984565b6118413083612880565b60008111156119b95761189c81600660003073ffffffffffffffffffffffffffffffffffffffff1673ffffffffffffffffffffffffffffffffffffffff1681526020019081526020016000205461286490919063ffffffff16565b600660003073ffffffffffffffffffffffffffffffffffffffff1673ffffffffffffffffffffffffffffffffffffffff168152602001908152602001600020819055506119538160066000600960009054906101000a900473ffffffffffffffffffffffffffffffffffffffff1673ffffffffffffffffffffffffffffffffffffffff1673ffffffffffffffffffffffffffffffffffffffff16815260200190815260200160002054612de490919063ffffffff16565b60066000600960009054906101000a900473ffffffffffffffffffffffffffffffffffffffff1673ffffffffffffffffffffffffffffffffffffffff1673ffffffffffffffffffffffffffffffffffffffff168152602001908152602001600020819055505b8473ffffffffffffffffffffffffffffffffffffffff166339007b77876040518263ffffffff167c010000000000000000000000000000000000000000000000000000000002815260040180828152602001915050600060405180830381600087803b1515611a2757600080fd5b6102c65a03f11515611a3857600080fd5b50505050505050505050565b60028054600181600116156101000203166002900480601f016020809104026020016040519081016040528092919081815260200182805460018160011615610100020316600290048015611ada5780601f10611aaf57610100808354040283529160200191611ada565b820191906000526020600020905b815481529060010190602001808311611abd57829003601f168201915b505050505081565b6000806000803373ffffffffffffffffffffffffffffffffffffffff1673ffffffffffffffffffffffffffffffffffffffff16815260200190815260200160002060007f4d6f6e6574617279426f6172640000000000000000000000000000000000000060001916815260200190815260200160002060009054906101000a900460ff161515611b7157600080fd5b82519150600090505b81811015611bb057611ba3848483815181101515611b9457fe5b906020019060200201516123cd565b8080600101915050611b7a565b50505050565b60008060008060008773ffffffffffffffffffffffffffffffffffffffff1673ffffffffffffffffffffffffffffffffffffffff16815260200190815260200160002060007f45786368616e6765436f6e74726163747300000000000000000000000000000060001916815260200190815260200160002060009054906101000a900460ff161515611c4757600080fd5b859050611c8d3387866040805190810160405280601781526020017f53656c6c20746f6b656e206f7264657220706c616365640000000000000000008152506000612984565b8073ffffffffffffffffffffffffffffffffffffffff1663f7e8953b3387876000604051604001526040518463ffffffff167c0100000000000000000000000000000000000000000000000000000000028152600401808473ffffffffffffffffffffffffffffffffffffffff1673ffffffffffffffffffffffffffffffffffffffff16815260200183815260200182815260200193505050506040805180830381600087803b1515611d3f57600080fd5b6102c65a03f11515611d5057600080fd5b505050604051805190602001805190509250925050935093915050565b600b5481565b6000611d9a3384846020604051908101604052806000815250611d95876127f7565b612984565b6001905092915050565b7f4e6f4665655472616e73666572436f6e747261637473000000000000000000006000803373ffffffffffffffffffffffffffffffffffffffff1673ffffffffffffffffffffffffffffffffffffffff1681526020019081526020016000206000826000191660001916815260200190815260200160002060009054906101000a900460ff161515611e3557600080fd5b611e7533868686868080601f0160208091040260200160405190810160405280939291908181526020018383808284378201915050505050506000612984565b5050505050565b6000806000808673ffffffffffffffffffffffffffffffffffffffff1673ffffffffffffffffffffffffffffffffffffffff16815260200190815260200160002060007f4c6f636b6572436f6e747261637473000000000000000000000000000000000060001916815260200190815260200160002060009054906101000a900460ff161515611f0b57600080fd5b8491508173ffffffffffffffffffffffffffffffffffffffff1663f551de6c8533866000604051602001526040518463ffffffff167c0100000000000000000000000000000000000000000000000000000000028152600401808481526020018373ffffffffffffffffffffffffffffffffffffffff1673ffffffffffffffffffffffffffffffffffffffff1681526020018281526020019350505050602060405180830381600087803b1515611fc157600080fd5b6102c65a03f11515611fd257600080fd5b5050506040518051905090506120213383856040805190810160405280600d81526020017f4c6f636b696e672066756e6473000000000000000000000000000000000000008152506000612984565b612086600960009054906101000a900473ffffffffffffffffffffffffffffffffffffffff1683836040805190810160405280601481526020017f416363727565206c6f636b20696e7465726573740000000000000000000000008152506000612984565b5050505050565b7f4d6f6e6574617279426f617264000000000000000000000000000000000000006000803373ffffffffffffffffffffffffffffffffffffffff1673ffffffffffffffffffffffffffffffffffffffff1681526020019081526020016000206000826000191660001916815260200190815260200160002060009054906101000a900460ff16151561211e57600080fd5b83600a8190555082600b8190555081600c819055507fd987a3acde40f231f760d7c3d2907c83d26bca5aededafbeefba5619b5955d71600a54600b54600c5460405180848152602001838152602001828152602001935050505060405180910390a150505050565b7f4c6f616e4d616e61676572436f6e7472616374730000000000000000000000006000803373ffffffffffffffffffffffffffffffffffffffff1673ffffffffffffffffffffffffffffffffffffffff1681526020019081526020016000206000826000191660001916815260200190815260200160002060009054906101000a900460ff16151561221757600080fd5b60008411151561222657600080fd5b6122303085612e05565b61227030868686868080601f0160208091040260200160405190810160405280939291908181526020018383808284378201915050505050506000612984565b5050505050565b7f4d6f6e6574617279426f617264000000000000000000000000000000000000006000803373ffffffffffffffffffffffffffffffffffffffff1673ffffffffffffffffffffffffffffffffffffffff1681526020019081526020016000206000826000191660001916815260200190815260200160002060009054906101000a900460ff16151561230857600080fd5b61231d82600d54612de490919063ffffffff16565b600d8190555061232d3083612e05565b5050565b600061233e338484612f09565b905092915050565b6000600760008473ffffffffffffffffffffffffffffffffffffffff1673ffffffffffffffffffffffffffffffffffffffff16815260200190815260200160002060008373ffffffffffffffffffffffffffffffffffffffff1673ffffffffffffffffffffffffffffffffffffffff16815260200190815260200160002054905092915050565b6000803373ffffffffffffffffffffffffffffffffffffffff1673ffffffffffffffffffffffffffffffffffffffff16815260200190815260200160002060007f4d6f6e6574617279426f6172640000000000000000000000000000000000000060001916815260200190815260200160002060009054906101000a900460ff16151561245957600080fd5b60016000808473ffffffffffffffffffffffffffffffffffffffff1673ffffffffffffffffffffffffffffffffffffffff1681526020019081526020016000206000836000191660001916815260200190815260200160002060006101000a81548160ff0219169083151502179055508173ffffffffffffffffffffffffffffffffffffffff167fc65937e3dbcb9fb30f646815dd67a3dbd09ba17718cbcb54efbe3635f8e0a6fe8260405180826000191660001916815260200191505060405180910390a25050565b61256a33858585858080601f016020809104026020016040519081016040528093929190818152602001838380828437820191505050505050612565886127f7565b612984565b50505050565b82600660008773ffffffffffffffffffffffffffffffffffffffff1673ffffffffffffffffffffffffffffffffffffffff16815260200190815260200160002054101515156125be57600080fd5b82600760008773ffffffffffffffffffffffffffffffffffffffff1673ffffffffffffffffffffffffffffffffffffffff16815260200190815260200160002060003373ffffffffffffffffffffffffffffffffffffffff1673ffffffffffffffffffffffffffffffffffffffff168152602001908152602001600020541015151561264957600080fd5b6000600760008773ffffffffffffffffffffffffffffffffffffffff1673ffffffffffffffffffffffffffffffffffffffff16815260200190815260200160002060003373ffffffffffffffffffffffffffffffffffffffff1673ffffffffffffffffffffffffffffffffffffffff168152602001908152602001600020541115156126d457600080fd5b6126e18585858585612984565b61277083600760008873ffffffffffffffffffffffffffffffffffffffff1673ffffffffffffffffffffffffffffffffffffffff16815260200190815260200160002060003373ffffffffffffffffffffffffffffffffffffffff1673ffffffffffffffffffffffffffffffffffffffff1681526020019081526020016000205461286490919063ffffffff16565b600760008773ffffffffffffffffffffffffffffffffffffffff1673ffffffffffffffffffffffffffffffffffffffff16815260200190815260200160002060003373ffffffffffffffffffffffffffffffffffffffff1673ffffffffffffffffffffffffffffffffffffffff168152602001908152602001600020819055505050505050565b6000808211156128325761282b620f424061281d600a548561313d90919063ffffffff16565b61317390919063ffffffff16565b9050612837565b600090505b600c5481111561284b57600c54905061285c565b600b5481101561285b57600b5490505b5b809050919050565b600082821115151561287557600080fd5b818303905092915050565b6128d281600660008573ffffffffffffffffffffffffffffffffffffffff1673ffffffffffffffffffffffffffffffffffffffff1681526020019081526020016000205461286490919063ffffffff16565b600660008473ffffffffffffffffffffffffffffffffffffffff1673ffffffffffffffffffffffffffffffffffffffff1681526020019081526020016000208190555061292a8160055461286490919063ffffffff16565b60058190555060008273ffffffffffffffffffffffffffffffffffffffff167fddf252ad1be2c89b69c2b068fc378daa952ba7f163c4a11628f55a4df523b3ef836040518082815260200191505060405180910390a35050565b60008473ffffffffffffffffffffffffffffffffffffffff16141515156129aa57600080fd5b8373ffffffffffffffffffffffffffffffffffffffff168573ffffffffffffffffffffffffffffffffffffffff16141515156129e557600080fd5b6000811115612b7357612a628160066000600860009054906101000a900473ffffffffffffffffffffffffffffffffffffffff1673ffffffffffffffffffffffffffffffffffffffff1673ffffffffffffffffffffffffffffffffffffffff16815260200190815260200160002054612de490919063ffffffff16565b60066000600860009054906101000a900473ffffffffffffffffffffffffffffffffffffffff1673ffffffffffffffffffffffffffffffffffffffff1673ffffffffffffffffffffffffffffffffffffffff16815260200190815260200160002081905550612b2b81612b1d85600660008a73ffffffffffffffffffffffffffffffffffffffff1673ffffffffffffffffffffffffffffffffffffffff1681526020019081526020016000205461286490919063ffffffff16565b61286490919063ffffffff16565b600660008773ffffffffffffffffffffffffffffffffffffffff1673ffffffffffffffffffffffffffffffffffffffff16815260200190815260200160002081905550612c09565b612bc583600660008873ffffffffffffffffffffffffffffffffffffffff1673ffffffffffffffffffffffffffffffffffffffff1681526020019081526020016000205461286490919063ffffffff16565b600660008773ffffffffffffffffffffffffffffffffffffffff1673ffffffffffffffffffffffffffffffffffffffff168152602001908152602001600020819055505b612c5b83600660008773ffffffffffffffffffffffffffffffffffffffff1673ffffffffffffffffffffffffffffffffffffffff16815260200190815260200160002054612de490919063ffffffff16565b600660008673ffffffffffffffffffffffffffffffffffffffff1673ffffffffffffffffffffffffffffffffffffffff168152602001908152602001600020819055508373ffffffffffffffffffffffffffffffffffffffff168573ffffffffffffffffffffffffffffffffffffffff167fddf252ad1be2c89b69c2b068fc378daa952ba7f163c4a11628f55a4df523b3ef856040518082815260200191505060405180910390a38373ffffffffffffffffffffffffffffffffffffffff168573ffffffffffffffffffffffffffffffffffffffff167f3c37a37469220e9bdcb1e8083efdcac8373f1448f59b5c4b23ebe3a0723642b28585856040518084815260200180602001838152602001828103825284818151815260200191508051906020019080838360005b83811015612da1578082015181840152602081019050612d86565b50505050905090810190601f168015612dce5780820380516001836020036101000a031916815260200191505b5094505050505060405180910390a35050505050565b6000808284019050838110151515612dfb57600080fd5b8091505092915050565b612e5781600660008573ffffffffffffffffffffffffffffffffffffffff1673ffffffffffffffffffffffffffffffffffffffff16815260200190815260200160002054612de490919063ffffffff16565b600660008473ffffffffffffffffffffffffffffffffffffffff1673ffffffffffffffffffffffffffffffffffffffff16815260200190815260200160002081905550612eaf81600554612de490919063ffffffff16565b6005819055508173ffffffffffffffffffffffffffffffffffffffff1660007fddf252ad1be2c89b69c2b068fc378daa952ba7f163c4a11628f55a4df523b3ef836040518082815260200191505060405180910390a35050565b60008273ffffffffffffffffffffffffffffffffffffffff168473ffffffffffffffffffffffffffffffffffffffff1614151515612f4657600080fd5b612fd582600760008773ffffffffffffffffffffffffffffffffffffffff1673ffffffffffffffffffffffffffffffffffffffff16815260200190815260200160002060008673ffffffffffffffffffffffffffffffffffffffff1673ffffffffffffffffffffffffffffffffffffffff16815260200190815260200160002054612de490919063ffffffff16565b600760008673ffffffffffffffffffffffffffffffffffffffff1673ffffffffffffffffffffffffffffffffffffffff16815260200190815260200160002060008573ffffffffffffffffffffffffffffffffffffffff1673ffffffffffffffffffffffffffffffffffffffff168152602001908152602001600020819055508273ffffffffffffffffffffffffffffffffffffffff168473ffffffffffffffffffffffffffffffffffffffff167f8c5be1e5ebec7d5bd14f71427d1e84f3dd0314c0f7b2291e5b200ac8c7c3b925600760008873ffffffffffffffffffffffffffffffffffffffff1673ffffffffffffffffffffffffffffffffffffffff16815260200190815260200160002060008773ffffffffffffffffffffffffffffffffffffffff1673ffffffffffffffffffffffffffffffffffffffff168152602001908152602001600020546040518082815260200191505060405180910390a39392505050565b6000808284029050600084148061315e575082848281151561315b57fe5b04145b151561316957600080fd5b8091505092915050565b600080828481151561318157fe5b04905080915050929150505600a165627a7a723058206e3c04d61955865f20be42248957ecefbd475d76c4be9b17ddbaebb579e49ad80029",
  "source": "/* Generic Augmint Token implementation (ERC20 token)\n    This contract manages:\n        * Balances of Augmint holders and transactions between them\n        * Issues and burns tokens when loan issued or repaid\n        * Holds reserves:\n            - ETH as regular ETH balance of the contract\n            - ERC20 token reserve (stored as regular Token balance under the contract address)\n\n        Note that all reserves are held under the contract address,\n          therefore any transaction on the reserve is limited to the tx-s defined here\n          (ie. transfer of reserve is not possible by the contract owner)\n    TODO: ERC20 short address attack protection? https://github.com/DecentLabs/dcm-poc/issues/62\n    TODO: create a LockerInterface and use that instead of Locker.sol ?\n*/\npragma solidity 0.4.19;\nimport \"../interfaces/AugmintTokenInterface.sol\";\nimport \"../interfaces/LoanManagerInterface.sol\";\nimport \"../interfaces/ExchangeInterface.sol\";\nimport \"../Locker.sol\";\n\n\ncontract AugmintToken is AugmintTokenInterface {\n\n    address public feeAccount;\n    address public interestEarnedAccount;\n    uint public transferFeePt; // in parts per million , ie. 2,000 = 0.2%\n    uint public transferFeeMin; // with base unit of augmint token, eg. 4 decimals for token, eg. 31000 = 3.1 ACE\n    uint public transferFeeMax; // with base unit of augmint token, eg. 4 decimals for token, eg. 31000 = 3.1 ACE\n\n    uint public issuedByMonetaryBoard; // supply issued manually by monetary board\n\n    event TransferFeesChanged(uint _transferFeePt, uint _transferFeeMin, uint _transferFeeMax);\n\n    function AugmintToken(string _name, string _symbol, bytes32 _peggedSymbol, uint8 _decimals, address _feeAccount,\n        address _interestEarnedAccount, uint _transferFeePt, uint _transferFeeMin,\n        uint _transferFeeMax) public {\n        require(_feeAccount != address(0));\n        require(_interestEarnedAccount != address(0));\n        require(bytes(_name).length > 0);\n        name = _name;\n        symbol = _symbol;\n        peggedSymbol = _peggedSymbol;\n        decimals = _decimals;\n        feeAccount = _feeAccount;\n        interestEarnedAccount = _interestEarnedAccount;\n        transferFeePt = _transferFeePt;\n        transferFeeMin = _transferFeeMin;\n        transferFeeMax = _transferFeeMax;\n    }\n\n    function () public payable { // solhint-disable-line no-empty-blocks\n        // to accept ETH sent into reserve (from defaulted loan's collateral )\n    }\n\n    // Issue tokens to Reserve\n    function issue(uint amount) external restrict(\"MonetaryBoard\") {\n        issuedByMonetaryBoard = issuedByMonetaryBoard.add(amount);\n        _issue(this, amount);\n    }\n\n    // Burn tokens from Reserve\n    function burn(uint amount) external restrict(\"MonetaryBoard\") {\n        issuedByMonetaryBoard = issuedByMonetaryBoard.sub(amount);\n        _burn(this, amount);\n    }\n\n    function lockFunds(address lockerAddress, uint lockProductId, uint amountToLock) external {\n        require(permissions[lockerAddress][\"LockerContracts\"]); // only whitelisted LockerContracts\n\n        // NB: locker.createLock will validate lockProductId and amountToLock:\n        Locker locker = Locker(lockerAddress);\n        uint interestEarnedAmount = locker.createLock(lockProductId, msg.sender, amountToLock);\n\n        _transfer(msg.sender, address(locker), amountToLock, \"Locking funds\", 0);\n        _transfer(interestEarnedAccount, address(locker), interestEarnedAmount, \"Accrue lock interest\", 0);\n\n    }\n\n    function issueAndDisburse(address borrower, uint loanAmount, string narrative)\n    external restrict(\"LoanManagerContracts\") {\n        require(loanAmount > 0);\n        _issue(this, loanAmount);\n        _transfer(this, borrower, loanAmount, narrative, 0);\n    }\n\n    /* Users must repay through AugmintToken.repayLoan()*/\n    function repayLoan(address _loanManager, uint loanId) external {\n        require(permissions[_loanManager][\"LoanManagerContracts\"]); // only whitelisted loanManagers\n        LoanManagerInterface loanManager = LoanManagerInterface(_loanManager);\n        // solhint-disable-next-line space-after-comma\n        var (borrower, , , repaymentAmount , loanAmount, interestAmount, ) = loanManager.loans(loanId);\n        require(borrower == msg.sender);\n        _transfer(msg.sender, this, repaymentAmount, \"Loan repayment\", 0);\n        _burn(this, loanAmount);\n        if (interestAmount > 0) {\n            // transfer interestAmount to InterestEarnedAccount (internal transfer, no need for Transfer events)\n            balances[this] = balances[this].sub(interestAmount);\n            balances[interestEarnedAccount] = balances[interestEarnedAccount].add(interestAmount);\n        }\n        loanManager.releaseCollateral(loanId);\n    }\n\n    /* convenience function - alternative to Exchange.placeSellTokenOrder without approval required */\n    function placeSellTokenOrderOnExchange(address _exchange, uint price, uint tokenAmount)\n    external returns (uint sellTokenOrderIndex, uint sellTokenOrderId) {\n        require(permissions[_exchange][\"ExchangeContracts\"]); // only whitelisted exchanges\n        ExchangeInterface exchange = ExchangeInterface(_exchange);\n        _transfer(msg.sender, _exchange, tokenAmount, \"Sell token order placed\", 0);\n        return exchange.placeSellTokenOrderTrusted(msg.sender, price, tokenAmount);\n    }\n\n    function transferWithNarrative(address _to, uint256 _amount, string _narrative) external {\n        _transfer(msg.sender, _to, _amount, _narrative, getFee(_amount));\n    }\n\n    function transferNoFee(address _to, uint256 _amount, string _narrative)\n    external restrict(\"NoFeeTransferContracts\") {\n        _transfer(msg.sender, _to, _amount, _narrative, 0);\n    }\n\n    function setTransferFees(uint _transferFeePt, uint _transferFeeMin, uint _transferFeeMax)\n    external restrict(\"MonetaryBoard\") {\n        transferFeePt = _transferFeePt;\n        transferFeeMin = _transferFeeMin;\n        transferFeeMax = _transferFeeMax;\n        TransferFeesChanged(transferFeePt, transferFeeMin, transferFeeMax);\n    }\n\n    function balanceOf(address _owner) public view returns (uint256 balance) {\n        return balances[_owner];\n    }\n\n    function allowance(address _owner, address _spender) public view returns (uint256 remaining) {\n        return allowed[_owner][_spender];\n    }\n\n    function transfer(address _to, uint256 _amount) public returns (bool) {\n        _transfer(msg.sender, _to, _amount, \"\", getFee(_amount));\n        return true;\n    }\n\n    function approve(address _spender, uint256 _amount) public returns (bool) {\n        require(_spender != 0x0);\n        require(msg.sender != _spender); // no need to approve for myself. Makes client code simpler if we don't allow\n        allowed[msg.sender][_spender] = _amount;\n        Approval(msg.sender, _spender, _amount);\n        return true;\n    }\n\n    /**\n     ERC20 transferFrom attack protection: https://github.com/DecentLabs/dcm-poc/issues/57\n     approve should be called when allowed[_spender] == 0. To increment allowed value is better\n     to use this function to avoid 2 calls (and wait until the first transaction is mined)\n     Based on MonolithDAO Token.sol */\n    function increaseApproval(address _spender, uint _addedValue) public returns (bool) {\n        return _increaseApproval(msg.sender, _spender, _addedValue);\n    }\n\n    function decreaseApproval(address _spender, uint _subtractedValue) public returns (bool) {\n        require(msg.sender != _spender); // no need to approve for myself. Makes client code simpler if we don't allow\n        uint oldValue = allowed[msg.sender][_spender];\n        if (_subtractedValue > oldValue) {\n            allowed[msg.sender][_spender] = 0;\n        } else {\n            allowed[msg.sender][_spender] = oldValue.sub(_subtractedValue);\n        }\n        Approval(msg.sender, _spender, allowed[msg.sender][_spender]);\n        return true;\n    }\n\n    function transferFrom(address _from, address _to, uint256 _amount) public returns (bool) {\n        _transferFrom(_from, _to, _amount, \"\", getFee(_amount));\n        return true;\n    }\n\n    function transferFromWithNarrative(\n        address _from,\n        address _to,\n        uint256 _amount,\n        string _narrative\n    ) public {\n        _transferFrom(_from, _to, _amount, _narrative, getFee(_amount));\n    }\n\n    function transferFromNoFee(address _from, address _to, uint256 _amount, string _narrative)\n    public restrict(\"NoFeeTransferContracts\") {\n        _transferFrom(_from, _to, _amount, _narrative, 0);\n    }\n\n    function _increaseApproval(address _approver, address _spender, uint _addedValue) internal returns (bool) {\n        require(_approver != _spender); // no need to approve for myself. Makes client code simpler if we don't allow\n        allowed[_approver][_spender] = allowed[_approver][_spender].add(_addedValue);\n        Approval(_approver, _spender, allowed[_approver][_spender]);\n    }\n\n    function getFee(uint amount) internal view returns (uint256 fee) {\n        if (amount > 0) {\n            fee = amount.mul(transferFeePt).div(1000000);\n        } else {\n            fee = 0;\n        }\n        if (fee > transferFeeMax) {\n            fee = transferFeeMax;\n        } else if (fee < transferFeeMin) {\n            fee = transferFeeMin;\n        }\n        return fee;\n    }\n\n    function _transferFrom(address _from, address _to, uint256 _amount, string _narrative, uint _fee) private {\n        require(balances[_from] >= _amount);\n        require(allowed[_from][msg.sender] >= _amount);\n        require(allowed[_from][msg.sender] > 0); // don't allow 0 transferFrom if no approval\n\n        /* NB: fee is deducted from owner. It can result that transferFrom of amount x to fail\n                when x + fee is not availale on owner balance */\n        _transfer(_from, _to, _amount, _narrative, _fee);\n\n        allowed[_from][msg.sender] = allowed[_from][msg.sender].sub(_amount);\n    }\n\n    function _transfer(address _from, address _to, uint256 _amount, string narrative, uint _fee) private {\n        require(_to != 0x0);\n        require(_from != _to); // no need to send to myself. Makes client code simpler if we don't allow\n        if (_fee > 0) {\n            balances[feeAccount] = balances[feeAccount].add(_fee);\n            balances[_from] = balances[_from].sub(_amount).sub(_fee);\n        } else {\n            balances[_from] = balances[_from].sub(_amount);\n        }\n        balances[_to] = balances[_to].add(_amount);\n        Transfer(_from, _to, _amount);\n        AugmintTransfer(_from, _to, _amount, narrative, _fee);\n    }\n\n    function _burn(address from, uint amount) private {\n        balances[from] = balances[from].sub(amount);\n        totalSupply = totalSupply.sub(amount);\n        Transfer(from, 0x0, amount);\n    }\n\n    function _issue(address to, uint amount) private {\n        balances[to] = balances[to].add(amount);\n        totalSupply = totalSupply.add(amount);\n        Transfer(0x0, to, amount);\n    }\n}\n",
  "sourcePath": "/Users/petro/ether/augmint-core/contracts/generic/AugmintToken.sol",
  "compiler": {
    "name": "solc",
    "version": "0.4.19+commit.c4cbbb05.Emscripten.clang"
  },
  "schemaVersion": "1.0.1",
  "updatedAt": "2018-02-03T07:50:27.059Z"
}