{
  "contractName": "AugmintToken",
  "abi": [
    {
      "constant": false,
      "inputs": [
        {
          "name": "_from",
          "type": "address"
        },
        {
          "name": "_to",
          "type": "address"
        },
        {
          "name": "_amount",
          "type": "uint256"
        },
        {
          "name": "_narrative",
          "type": "string"
        }
      ],
      "name": "transferFromNoFee",
      "outputs": [],
      "payable": false,
      "stateMutability": "nonpayable",
      "type": "function"
    },
    {
      "constant": true,
      "inputs": [],
      "name": "name",
      "outputs": [
        {
          "name": "",
          "type": "string"
        }
      ],
      "payable": false,
      "stateMutability": "view",
      "type": "function"
    },
    {
      "constant": false,
      "inputs": [
        {
          "name": "_spender",
          "type": "address"
        },
        {
          "name": "_amount",
          "type": "uint256"
        }
      ],
      "name": "approve",
      "outputs": [
        {
          "name": "",
          "type": "bool"
        }
      ],
      "payable": false,
      "stateMutability": "nonpayable",
      "type": "function"
    },
    {
      "constant": false,
      "inputs": [
        {
          "name": "agent",
          "type": "address"
        },
        {
          "name": "requiredPermissions",
          "type": "bytes32[]"
        }
      ],
      "name": "revokeMulitplePermissions",
      "outputs": [],
      "payable": false,
      "stateMutability": "nonpayable",
      "type": "function"
    },
    {
      "constant": false,
      "inputs": [
        {
          "name": "lockerAddress",
          "type": "address"
        }
      ],
      "name": "setLocker",
      "outputs": [],
      "payable": false,
      "stateMutability": "nonpayable",
      "type": "function"
    },
    {
      "constant": true,
      "inputs": [],
      "name": "totalSupply",
      "outputs": [
        {
          "name": "",
          "type": "uint256"
        }
      ],
      "payable": false,
      "stateMutability": "view",
      "type": "function"
    },
    {
      "constant": false,
      "inputs": [
        {
          "name": "_from",
          "type": "address"
        },
        {
          "name": "_to",
          "type": "address"
        },
        {
          "name": "_amount",
          "type": "uint256"
        }
      ],
      "name": "transferFrom",
      "outputs": [
        {
          "name": "",
          "type": "bool"
        }
      ],
      "payable": false,
      "stateMutability": "nonpayable",
      "type": "function"
    },
    {
      "constant": true,
      "inputs": [
        {
          "name": "",
          "type": "address"
        }
      ],
      "name": "balances",
      "outputs": [
        {
          "name": "",
          "type": "uint256"
        }
      ],
      "payable": false,
      "stateMutability": "view",
      "type": "function"
    },
    {
      "constant": true,
      "inputs": [],
      "name": "decimals",
      "outputs": [
        {
          "name": "",
          "type": "uint8"
        }
      ],
      "payable": false,
      "stateMutability": "view",
      "type": "function"
    },
    {
      "constant": false,
      "inputs": [
        {
          "name": "lockProductId",
          "type": "uint256"
        },
        {
          "name": "amountToLock",
          "type": "uint256"
        }
      ],
      "name": "lockFunds",
      "outputs": [],
      "payable": false,
      "stateMutability": "nonpayable",
      "type": "function"
    },
    {
      "constant": true,
      "inputs": [],
      "name": "peggedSymbol",
      "outputs": [
        {
          "name": "",
          "type": "bytes32"
        }
      ],
      "payable": false,
      "stateMutability": "view",
      "type": "function"
    },
    {
      "constant": false,
      "inputs": [
        {
          "name": "amount",
          "type": "uint256"
        }
      ],
      "name": "burn",
      "outputs": [],
      "payable": false,
      "stateMutability": "nonpayable",
      "type": "function"
    },
    {
      "constant": true,
      "inputs": [
        {
          "name": "",
          "type": "address"
        },
        {
          "name": "",
          "type": "bytes32"
        }
      ],
      "name": "permissions",
      "outputs": [
        {
          "name": "",
          "type": "bool"
        }
      ],
      "payable": false,
      "stateMutability": "view",
      "type": "function"
    },
    {
      "constant": true,
      "inputs": [
        {
          "name": "",
          "type": "address"
        },
        {
          "name": "",
          "type": "address"
        }
      ],
      "name": "allowed",
      "outputs": [
        {
          "name": "",
          "type": "uint256"
        }
      ],
      "payable": false,
      "stateMutability": "view",
      "type": "function"
    },
    {
      "constant": true,
      "inputs": [],
      "name": "interestEarnedAccount",
      "outputs": [
        {
          "name": "",
          "type": "address"
        }
      ],
      "payable": false,
      "stateMutability": "view",
      "type": "function"
    },
    {
      "constant": false,
      "inputs": [
        {
          "name": "agent",
          "type": "address"
        },
        {
          "name": "requiredPermission",
          "type": "bytes32"
        }
      ],
      "name": "revokePermission",
      "outputs": [],
      "payable": false,
      "stateMutability": "nonpayable",
      "type": "function"
    },
    {
      "constant": true,
      "inputs": [],
      "name": "feeAccount",
      "outputs": [
        {
          "name": "",
          "type": "address"
        }
      ],
      "payable": false,
      "stateMutability": "view",
      "type": "function"
    },
    {
      "constant": false,
      "inputs": [
        {
          "name": "_spender",
          "type": "address"
        },
        {
          "name": "_subtractedValue",
          "type": "uint256"
        }
      ],
      "name": "decreaseApproval",
      "outputs": [
        {
          "name": "",
          "type": "bool"
        }
      ],
      "payable": false,
      "stateMutability": "nonpayable",
      "type": "function"
    },
    {
      "constant": true,
      "inputs": [
        {
          "name": "_owner",
          "type": "address"
        }
      ],
      "name": "balanceOf",
      "outputs": [
        {
          "name": "balance",
          "type": "uint256"
        }
      ],
      "payable": false,
      "stateMutability": "view",
      "type": "function"
    },
    {
      "constant": true,
      "inputs": [],
      "name": "transferFeeMax",
      "outputs": [
        {
          "name": "",
          "type": "uint256"
        }
      ],
      "payable": false,
      "stateMutability": "view",
      "type": "function"
    },
    {
      "constant": false,
      "inputs": [
        {
          "name": "_from",
          "type": "address"
        },
        {
          "name": "_to",
          "type": "address"
        },
        {
          "name": "_amount",
          "type": "uint256"
        },
        {
          "name": "_narrative",
          "type": "string"
        }
      ],
      "name": "transferFromWithNarrative",
      "outputs": [],
      "payable": false,
      "stateMutability": "nonpayable",
      "type": "function"
    },
    {
      "constant": true,
      "inputs": [],
      "name": "transferFeePt",
      "outputs": [
        {
          "name": "",
          "type": "uint256"
        }
      ],
      "payable": false,
      "stateMutability": "view",
      "type": "function"
    },
    {
      "constant": true,
      "inputs": [],
      "name": "owner",
      "outputs": [
        {
          "name": "",
          "type": "address"
        }
      ],
      "payable": false,
      "stateMutability": "view",
      "type": "function"
    },
    {
      "constant": false,
      "inputs": [
        {
          "name": "_loanManager",
          "type": "address"
        },
        {
          "name": "loanId",
          "type": "uint256"
        }
      ],
      "name": "repayLoan",
      "outputs": [],
      "payable": false,
      "stateMutability": "nonpayable",
      "type": "function"
    },
    {
      "constant": true,
      "inputs": [],
      "name": "symbol",
      "outputs": [
        {
          "name": "",
          "type": "string"
        }
      ],
      "payable": false,
      "stateMutability": "view",
      "type": "function"
    },
    {
      "constant": false,
      "inputs": [
        {
          "name": "agent",
          "type": "address"
        },
        {
          "name": "requiredPermissions",
          "type": "bytes32[]"
        }
      ],
      "name": "grantMultiplePermissions",
      "outputs": [],
      "payable": false,
      "stateMutability": "nonpayable",
      "type": "function"
    },
    {
      "constant": false,
      "inputs": [
        {
          "name": "_exchange",
          "type": "address"
        },
        {
          "name": "price",
          "type": "uint256"
        },
        {
          "name": "tokenAmount",
          "type": "uint256"
        }
      ],
      "name": "placeSellTokenOrderOnExchange",
      "outputs": [
        {
          "name": "sellTokenOrderIndex",
          "type": "uint256"
        },
        {
          "name": "sellTokenOrderId",
          "type": "uint256"
        }
      ],
      "payable": false,
      "stateMutability": "nonpayable",
      "type": "function"
    },
    {
      "constant": true,
      "inputs": [],
      "name": "transferFeeMin",
      "outputs": [
        {
          "name": "",
          "type": "uint256"
        }
      ],
      "payable": false,
      "stateMutability": "view",
      "type": "function"
    },
    {
      "constant": false,
      "inputs": [
        {
          "name": "_to",
          "type": "address"
        },
        {
          "name": "_amount",
          "type": "uint256"
        }
      ],
      "name": "transfer",
      "outputs": [
        {
          "name": "",
          "type": "bool"
        }
      ],
      "payable": false,
      "stateMutability": "nonpayable",
      "type": "function"
    },
    {
      "constant": false,
      "inputs": [
        {
          "name": "_to",
          "type": "address"
        },
        {
          "name": "_amount",
          "type": "uint256"
        },
        {
          "name": "_narrative",
          "type": "string"
        }
      ],
      "name": "transferNoFee",
      "outputs": [],
      "payable": false,
      "stateMutability": "nonpayable",
      "type": "function"
    },
    {
      "constant": false,
      "inputs": [
        {
          "name": "_transferFeePt",
          "type": "uint256"
        },
        {
          "name": "_transferFeeMin",
          "type": "uint256"
        },
        {
          "name": "_transferFeeMax",
          "type": "uint256"
        }
      ],
      "name": "setTransferFees",
      "outputs": [],
      "payable": false,
      "stateMutability": "nonpayable",
      "type": "function"
    },
    {
      "constant": false,
      "inputs": [
        {
          "name": "borrower",
          "type": "address"
        },
        {
          "name": "loanAmount",
          "type": "uint256"
        },
        {
          "name": "narrative",
          "type": "string"
        }
      ],
      "name": "issueAndDisburse",
      "outputs": [],
      "payable": false,
      "stateMutability": "nonpayable",
      "type": "function"
    },
    {
      "constant": false,
      "inputs": [
        {
          "name": "amount",
          "type": "uint256"
        }
      ],
      "name": "issue",
      "outputs": [],
      "payable": false,
      "stateMutability": "nonpayable",
      "type": "function"
    },
    {
      "constant": false,
      "inputs": [
        {
          "name": "_spender",
          "type": "address"
        },
        {
          "name": "_addedValue",
          "type": "uint256"
        }
      ],
      "name": "increaseApproval",
      "outputs": [
        {
          "name": "",
          "type": "bool"
        }
      ],
      "payable": false,
      "stateMutability": "nonpayable",
      "type": "function"
    },
    {
      "constant": true,
      "inputs": [],
      "name": "locker",
      "outputs": [
        {
          "name": "",
          "type": "address"
        }
      ],
      "payable": false,
      "stateMutability": "view",
      "type": "function"
    },
    {
      "constant": true,
      "inputs": [
        {
          "name": "_owner",
          "type": "address"
        },
        {
          "name": "_spender",
          "type": "address"
        }
      ],
      "name": "allowance",
      "outputs": [
        {
          "name": "remaining",
          "type": "uint256"
        }
      ],
      "payable": false,
      "stateMutability": "view",
      "type": "function"
    },
    {
      "constant": false,
      "inputs": [
        {
          "name": "newOwner",
          "type": "address"
        }
      ],
      "name": "transferOwnership",
      "outputs": [],
      "payable": false,
      "stateMutability": "nonpayable",
      "type": "function"
    },
    {
      "constant": false,
      "inputs": [
        {
          "name": "agent",
          "type": "address"
        },
        {
          "name": "requiredPermission",
          "type": "bytes32"
        }
      ],
      "name": "grantPermission",
      "outputs": [],
      "payable": false,
      "stateMutability": "nonpayable",
      "type": "function"
    },
    {
      "constant": false,
      "inputs": [
        {
          "name": "_to",
          "type": "address"
        },
        {
          "name": "_amount",
          "type": "uint256"
        },
        {
          "name": "_narrative",
          "type": "string"
        }
      ],
      "name": "transferWithNarrative",
      "outputs": [],
      "payable": false,
      "stateMutability": "nonpayable",
      "type": "function"
    },
    {
      "inputs": [
        {
          "name": "_name",
          "type": "string"
        },
        {
          "name": "_symbol",
          "type": "string"
        },
        {
          "name": "_peggedSymbol",
          "type": "bytes32"
        },
        {
          "name": "_decimals",
          "type": "uint8"
        },
        {
          "name": "_feeAccount",
          "type": "address"
        },
        {
          "name": "_interestEarnedAccount",
          "type": "address"
        },
        {
          "name": "_transferFeePt",
          "type": "uint256"
        },
        {
          "name": "_transferFeeMin",
          "type": "uint256"
        },
        {
          "name": "_transferFeeMax",
          "type": "uint256"
        }
      ],
      "payable": false,
      "stateMutability": "nonpayable",
      "type": "constructor"
    },
    {
      "payable": true,
      "stateMutability": "payable",
      "type": "fallback"
    },
    {
      "anonymous": false,
      "inputs": [
        {
          "indexed": false,
          "name": "_transferFeePt",
          "type": "uint256"
        },
        {
          "indexed": false,
          "name": "_transferFeeMin",
          "type": "uint256"
        },
        {
          "indexed": false,
          "name": "_transferFeeMax",
          "type": "uint256"
        }
      ],
      "name": "TransferFeesChanged",
      "type": "event"
    },
    {
      "anonymous": false,
      "inputs": [
        {
          "indexed": true,
          "name": "from",
          "type": "address"
        },
        {
          "indexed": true,
          "name": "to",
          "type": "address"
        },
        {
          "indexed": false,
          "name": "amount",
          "type": "uint256"
        }
      ],
      "name": "Transfer",
      "type": "event"
    },
    {
      "anonymous": false,
      "inputs": [
        {
          "indexed": true,
          "name": "from",
          "type": "address"
        },
        {
          "indexed": true,
          "name": "to",
          "type": "address"
        },
        {
          "indexed": false,
          "name": "amount",
          "type": "uint256"
        },
        {
          "indexed": false,
          "name": "narrative",
          "type": "string"
        },
        {
          "indexed": false,
          "name": "fee",
          "type": "uint256"
        }
      ],
      "name": "AugmintTransfer",
      "type": "event"
    },
    {
      "anonymous": false,
      "inputs": [
        {
          "indexed": false,
          "name": "amount",
          "type": "uint256"
        }
      ],
      "name": "TokenIssued",
      "type": "event"
    },
    {
      "anonymous": false,
      "inputs": [
        {
          "indexed": false,
          "name": "amount",
          "type": "uint256"
        }
      ],
      "name": "TokenBurned",
      "type": "event"
    },
    {
      "anonymous": false,
      "inputs": [
        {
          "indexed": true,
          "name": "_owner",
          "type": "address"
        },
        {
          "indexed": true,
          "name": "_spender",
          "type": "address"
        },
        {
          "indexed": false,
          "name": "_value",
          "type": "uint256"
        }
      ],
      "name": "Approval",
      "type": "event"
    },
    {
      "anonymous": false,
      "inputs": [
        {
          "indexed": true,
          "name": "agent",
          "type": "address"
        },
        {
          "indexed": false,
          "name": "grantedPermission",
          "type": "bytes32"
        }
      ],
      "name": "PermissionGranted",
      "type": "event"
    },
    {
      "anonymous": false,
      "inputs": [
        {
          "indexed": true,
          "name": "agent",
          "type": "address"
        },
        {
          "indexed": false,
          "name": "revokedPermission",
          "type": "bytes32"
        }
      ],
      "name": "PermissionRevoked",
      "type": "event"
    },
    {
      "anonymous": false,
      "inputs": [
        {
          "indexed": true,
          "name": "oldOwner",
          "type": "address"
        },
        {
          "indexed": true,
          "name": "newOwner",
          "type": "address"
        }
      ],
      "name": "NewOwner",
      "type": "event"
    }
  ],
  "bytecode": "0x606060405234156200001057600080fd5b604051620038793803806200387983398101604052808051820191906020018051820191906020018051906020019091908051906020019091908051906020019091908051906020019091908051906020019091908051906020019091908051906020019091905050600073ffffffffffffffffffffffffffffffffffffffff166000809054906101000a900473ffffffffffffffffffffffffffffffffffffffff1673ffffffffffffffffffffffffffffffffffffffff16141515620000d657600080fd5b336000806101000a81548173ffffffffffffffffffffffffffffffffffffffff021916908373ffffffffffffffffffffffffffffffffffffffff160217905550600073ffffffffffffffffffffffffffffffffffffffff168573ffffffffffffffffffffffffffffffffffffffff16141515156200015357600080fd5b600073ffffffffffffffffffffffffffffffffffffffff168473ffffffffffffffffffffffffffffffffffffffff16141515156200019057600080fd5b60008951111515620001a157600080fd5b8860029080519060200190620001b99291906200029f565b508760039080519060200190620001d29291906200029f565b50866004816000191690555085600560006101000a81548160ff021916908360ff16021790555084600960006101000a81548173ffffffffffffffffffffffffffffffffffffffff021916908373ffffffffffffffffffffffffffffffffffffffff16021790555083600a60006101000a81548173ffffffffffffffffffffffffffffffffffffffff021916908373ffffffffffffffffffffffffffffffffffffffff16021790555082600b8190555081600c8190555080600d819055505050505050505050506200034e565b828054600181600116156101000203166002900490600052602060002090601f016020900481019282601f10620002e257805160ff191683800117855562000313565b8280016001018555821562000313579182015b8281111562000312578251825591602001919060010190620002f5565b5b50905062000322919062000326565b5090565b6200034b91905b80821115620003475760008160009055506001016200032d565b5090565b90565b61351b806200035e6000396000f3006060604052600436106101e3576000357c0100000000000000000000000000000000000000000000000000000000900463ffffffff16806304282d25146101e557806306fdde0314610289578063095ea7b3146103175780630da32eaa14610371578063171060ec146103ea57806318160ddd1461042357806323b872dd1461044c57806327e235e3146104c5578063313ce567146105125780633287db4b1461054157806333a263e61461056d57806342966c681461059e5780635b225526146105c15780635c6581651461061f5780635fcf04551461068b5780635fe07013146106e057806365e17c9d14610726578063661884631461077b57806370a08231146107d557806372a1eecc14610822578063765879211461084b57806377c9db1a146108ef5780638da5cb5b1461091857806393a595f51461096d57806395d89b41146109af5780639ac3317b14610a3d5780639c1a51a314610ab6578063a7f839a714610b1c578063a9059cbb14610b45578063ab1f032714610b9f578063bfd201f514610bf5578063c9a3249914610c2a578063cc872b6614610c80578063d73dd62314610ca3578063d7b96d4e14610cfd578063dd62ed3e14610d52578063f2fde38b14610dbe578063f38a826214610df7578063ffdcf09514610e3d575b005b34156101f057600080fd5b610287600480803573ffffffffffffffffffffffffffffffffffffffff1690602001909190803573ffffffffffffffffffffffffffffffffffffffff1690602001909190803590602001909190803590602001908201803590602001908080601f01602080910402602001604051908101604052809392919081815260200183838082843782019150505050505091905050610e93565b005b341561029457600080fd5b61029c610f3a565b6040518080602001828103825283818151815260200191508051906020019080838360005b838110156102dc5780820151818401526020810190506102c1565b50505050905090810190601f1680156103095780820380516001836020036101000a031916815260200191505b509250505060405180910390f35b341561032257600080fd5b610357600480803573ffffffffffffffffffffffffffffffffffffffff16906020019091908035906020019091905050610fd8565b604051808215151515815260200191505060405180910390f35b341561037c57600080fd5b6103e8600480803573ffffffffffffffffffffffffffffffffffffffff169060200190919080359060200190820180359060200190808060200260200160405190810160405280939291908181526020018383602002808284378201915050505050509190505061112a565b005b34156103f557600080fd5b610421600480803573ffffffffffffffffffffffffffffffffffffffff169060200190919050506111cd565b005b341561042e57600080fd5b6104366112a4565b6040518082815260200191505060405180910390f35b341561045757600080fd5b6104ab600480803573ffffffffffffffffffffffffffffffffffffffff1690602001909190803573ffffffffffffffffffffffffffffffffffffffff169060200190919080359060200190919050506112aa565b604051808215151515815260200191505060405180910390f35b34156104d057600080fd5b6104fc600480803573ffffffffffffffffffffffffffffffffffffffff169060200190919050506112dc565b6040518082815260200191505060405180910390f35b341561051d57600080fd5b6105256112f4565b604051808260ff1660ff16815260200191505060405180910390f35b341561054c57600080fd5b61056b6004808035906020019091908035906020019091905050611307565b005b341561057857600080fd5b6105806114ec565b60405180826000191660001916815260200191505060405180910390f35b34156105a957600080fd5b6105bf60048080359060200190919050506114f2565b005b34156105cc57600080fd5b610605600480803573ffffffffffffffffffffffffffffffffffffffff1690602001909190803560001916906020019091905050611592565b604051808215151515815260200191505060405180910390f35b341561062a57600080fd5b610675600480803573ffffffffffffffffffffffffffffffffffffffff1690602001909190803573ffffffffffffffffffffffffffffffffffffffff169060200190919050506115c1565b6040518082815260200191505060405180910390f35b341561069657600080fd5b61069e6115e6565b604051808273ffffffffffffffffffffffffffffffffffffffff1673ffffffffffffffffffffffffffffffffffffffff16815260200191505060405180910390f35b34156106eb57600080fd5b610724600480803573ffffffffffffffffffffffffffffffffffffffff169060200190919080356000191690602001909190505061160c565b005b341561073157600080fd5b610739611732565b604051808273ffffffffffffffffffffffffffffffffffffffff1673ffffffffffffffffffffffffffffffffffffffff16815260200191505060405180910390f35b341561078657600080fd5b6107bb600480803573ffffffffffffffffffffffffffffffffffffffff16906020019091908035906020019091905050611758565b604051808215151515815260200191505060405180910390f35b34156107e057600080fd5b61080c600480803573ffffffffffffffffffffffffffffffffffffffff16906020019091905050611a24565b6040518082815260200191505060405180910390f35b341561082d57600080fd5b610835611a6d565b6040518082815260200191505060405180910390f35b341561085657600080fd5b6108ed600480803573ffffffffffffffffffffffffffffffffffffffff1690602001909190803573ffffffffffffffffffffffffffffffffffffffff1690602001909190803590602001909190803590602001908201803590602001908080601f01602080910402602001604051908101604052809392919081815260200183838082843782019150505050505091905050611a73565b005b34156108fa57600080fd5b610902611a8e565b6040518082815260200191505060405180910390f35b341561092357600080fd5b61092b611a94565b604051808273ffffffffffffffffffffffffffffffffffffffff1673ffffffffffffffffffffffffffffffffffffffff16815260200191505060405180910390f35b341561097857600080fd5b6109ad600480803573ffffffffffffffffffffffffffffffffffffffff16906020019091908035906020019091905050611ab9565b005b34156109ba57600080fd5b6109c2611eb3565b6040518080602001828103825283818151815260200191508051906020019080838360005b83811015610a025780820151818401526020810190506109e7565b50505050905090810190601f168015610a2f5780820380516001836020036101000a031916815260200191505b509250505060405180910390f35b3415610a4857600080fd5b610ab4600480803573ffffffffffffffffffffffffffffffffffffffff1690602001909190803590602001908201803590602001908080602002602001604051908101604052809392919081815260200183836020028082843782019150505050505091905050611f51565b005b3415610ac157600080fd5b610aff600480803573ffffffffffffffffffffffffffffffffffffffff16906020019091908035906020019091908035906020019091905050611ff4565b604051808381526020018281526020019250505060405180910390f35b3415610b2757600080fd5b610b2f6121ac565b6040518082815260200191505060405180910390f35b3415610b5057600080fd5b610b85600480803573ffffffffffffffffffffffffffffffffffffffff169060200190919080359060200190919050506121b2565b604051808215151515815260200191505060405180910390f35b3415610baa57600080fd5b610bf3600480803573ffffffffffffffffffffffffffffffffffffffff1690602001909190803590602001909190803590602001908201803590602001919091929050506121e3565b005b3415610c0057600080fd5b610c2860048080359060200190919080359060200190919080359060200190919050506122bc565b005b3415610c3557600080fd5b610c7e600480803573ffffffffffffffffffffffffffffffffffffffff1690602001909190803590602001909190803590602001908201803590602001919091929050506123b6565b005b3415610c8b57600080fd5b610ca160048080359060200190919050506124a8565b005b3415610cae57600080fd5b610ce3600480803573ffffffffffffffffffffffffffffffffffffffff16906020019091908035906020019091905050612548565b604051808215151515815260200191505060405180910390f35b3415610d0857600080fd5b610d1061255d565b604051808273ffffffffffffffffffffffffffffffffffffffff1673ffffffffffffffffffffffffffffffffffffffff16815260200191505060405180910390f35b3415610d5d57600080fd5b610da8600480803573ffffffffffffffffffffffffffffffffffffffff1690602001909190803573ffffffffffffffffffffffffffffffffffffffff16906020019091905050612583565b6040518082815260200191505060405180910390f35b3415610dc957600080fd5b610df5600480803573ffffffffffffffffffffffffffffffffffffffff1690602001909190505061260a565b005b3415610e0257600080fd5b610e3b600480803573ffffffffffffffffffffffffffffffffffffffff169060200190919080356000191690602001909190505061275f565b005b3415610e4857600080fd5b610e91600480803573ffffffffffffffffffffffffffffffffffffffff169060200190919080359060200190919080359060200190820180359060200191909192905050612884565b005b7f7472616e7366657246726f6d4e6f466565000000000000000000000000000000600160003373ffffffffffffffffffffffffffffffffffffffff1673ffffffffffffffffffffffffffffffffffffffff1681526020019081526020016000206000826000191660001916815260200190815260200160002060009054906101000a900460ff161515610f2557600080fd5b610f338585858560006128d1565b5050505050565b60028054600181600116156101000203166002900480601f016020809104026020016040519081016040528092919081815260200182805460018160011615610100020316600290048015610fd05780601f10610fa557610100808354040283529160200191610fd0565b820191906000526020600020905b815481529060010190602001808311610fb357829003601f168201915b505050505081565b6000808373ffffffffffffffffffffffffffffffffffffffff1614151515610fff57600080fd5b8273ffffffffffffffffffffffffffffffffffffffff163373ffffffffffffffffffffffffffffffffffffffff161415151561103a57600080fd5b81600860003373ffffffffffffffffffffffffffffffffffffffff1673ffffffffffffffffffffffffffffffffffffffff16815260200190815260200160002060008573ffffffffffffffffffffffffffffffffffffffff1673ffffffffffffffffffffffffffffffffffffffff168152602001908152602001600020819055508273ffffffffffffffffffffffffffffffffffffffff163373ffffffffffffffffffffffffffffffffffffffff167f8c5be1e5ebec7d5bd14f71427d1e84f3dd0314c0f7b2291e5b200ac8c7c3b925846040518082815260200191505060405180910390a36001905092915050565b6000806000809054906101000a900473ffffffffffffffffffffffffffffffffffffffff1673ffffffffffffffffffffffffffffffffffffffff163373ffffffffffffffffffffffffffffffffffffffff1614151561118857600080fd5b82519150600090505b818110156111c7576111ba8484838151811015156111ab57fe5b9060200190602002015161160c565b8080600101915050611191565b50505050565b7f7365744c6f636b65720000000000000000000000000000000000000000000000600160003373ffffffffffffffffffffffffffffffffffffffff1673ffffffffffffffffffffffffffffffffffffffff1681526020019081526020016000206000826000191660001916815260200190815260200160002060009054906101000a900460ff16151561125f57600080fd5b81600e60006101000a81548173ffffffffffffffffffffffffffffffffffffffff021916908373ffffffffffffffffffffffffffffffffffffffff1602179055505050565b60065481565b60006112d184848460206040519081016040528060008152506112cc87612b58565b6128d1565b600190509392505050565b60076020528060005260406000206000915090505481565b600560009054906101000a900460ff1681565b6000600e60009054906101000a900473ffffffffffffffffffffffffffffffffffffffff1673ffffffffffffffffffffffffffffffffffffffff1663f551de6c8433856000604051602001526040518463ffffffff167c0100000000000000000000000000000000000000000000000000000000028152600401808481526020018373ffffffffffffffffffffffffffffffffffffffff1673ffffffffffffffffffffffffffffffffffffffff1681526020018281526020019350505050602060405180830381600087803b15156113de57600080fd5b6102c65a03f115156113ef57600080fd5b50505060405180519050905061146033600e60009054906101000a900473ffffffffffffffffffffffffffffffffffffffff16846040805190810160405280600d81526020017f4c6f636b696e672066756e6473000000000000000000000000000000000000008152506000612bc5565b6114e7600a60009054906101000a900473ffffffffffffffffffffffffffffffffffffffff16600e60009054906101000a900473ffffffffffffffffffffffffffffffffffffffff16836040805190810160405280601481526020017f416363727565206c6f636b20696e7465726573740000000000000000000000008152506000612bc5565b505050565b60045481565b7f6275726e00000000000000000000000000000000000000000000000000000000600160003373ffffffffffffffffffffffffffffffffffffffff1673ffffffffffffffffffffffffffffffffffffffff1681526020019081526020016000206000826000191660001916815260200190815260200160002060009054906101000a900460ff16151561158457600080fd5b61158e3083613025565b5050565b60016020528160005260406000206020528060005260406000206000915091509054906101000a900460ff1681565b6008602052816000526040600020602052806000526040600020600091509150505481565b600a60009054906101000a900473ffffffffffffffffffffffffffffffffffffffff1681565b6000809054906101000a900473ffffffffffffffffffffffffffffffffffffffff1673ffffffffffffffffffffffffffffffffffffffff163373ffffffffffffffffffffffffffffffffffffffff1614151561166757600080fd5b6000600160008473ffffffffffffffffffffffffffffffffffffffff1673ffffffffffffffffffffffffffffffffffffffff1681526020019081526020016000206000836000191660001916815260200190815260200160002060006101000a81548160ff0219169083151502179055508173ffffffffffffffffffffffffffffffffffffffff167f789770131846de4d1f28418f0f957cdf4fcabe5eccf70067083e20ecece69a348260405180826000191660001916815260200191505060405180910390a25050565b600960009054906101000a900473ffffffffffffffffffffffffffffffffffffffff1681565b6000808373ffffffffffffffffffffffffffffffffffffffff163373ffffffffffffffffffffffffffffffffffffffff161415151561179657600080fd5b600860003373ffffffffffffffffffffffffffffffffffffffff1673ffffffffffffffffffffffffffffffffffffffff16815260200190815260200160002060008573ffffffffffffffffffffffffffffffffffffffff1673ffffffffffffffffffffffffffffffffffffffff168152602001908152602001600020549050808311156118a4576000600860003373ffffffffffffffffffffffffffffffffffffffff1673ffffffffffffffffffffffffffffffffffffffff16815260200190815260200160002060008673ffffffffffffffffffffffffffffffffffffffff1673ffffffffffffffffffffffffffffffffffffffff16815260200190815260200160002081905550611938565b6118b7838261312990919063ffffffff16565b600860003373ffffffffffffffffffffffffffffffffffffffff1673ffffffffffffffffffffffffffffffffffffffff16815260200190815260200160002060008673ffffffffffffffffffffffffffffffffffffffff1673ffffffffffffffffffffffffffffffffffffffff168152602001908152602001600020819055505b8373ffffffffffffffffffffffffffffffffffffffff163373ffffffffffffffffffffffffffffffffffffffff167f8c5be1e5ebec7d5bd14f71427d1e84f3dd0314c0f7b2291e5b200ac8c7c3b925600860003373ffffffffffffffffffffffffffffffffffffffff1673ffffffffffffffffffffffffffffffffffffffff16815260200190815260200160002060008873ffffffffffffffffffffffffffffffffffffffff1673ffffffffffffffffffffffffffffffffffffffff168152602001908152602001600020546040518082815260200191505060405180910390a3600191505092915050565b6000600760008373ffffffffffffffffffffffffffffffffffffffff1673ffffffffffffffffffffffffffffffffffffffff168152602001908152602001600020549050919050565b600d5481565b611a8884848484611a8387612b58565b6128d1565b50505050565b600b5481565b6000809054906101000a900473ffffffffffffffffffffffffffffffffffffffff1681565b6000806000806000600160008873ffffffffffffffffffffffffffffffffffffffff1673ffffffffffffffffffffffffffffffffffffffff16815260200190815260200160002060007f4c6f616e4d616e6167657200000000000000000000000000000000000000000060001916815260200190815260200160002060009054906101000a900460ff161515611b4e57600080fd5b8694508473ffffffffffffffffffffffffffffffffffffffff1663e1ec3c6887600060405161014001526040518263ffffffff167c01000000000000000000000000000000000000000000000000000000000281526004018082815260200191505061014060405180830381600087803b1515611bca57600080fd5b6102c65a03f11515611bdb57600080fd5b5050506040518051906020018051906020018051906020018051906020018051906020018051906020018051906020018051906020018051906020018051905050505050955095509550505093503373ffffffffffffffffffffffffffffffffffffffff168473ffffffffffffffffffffffffffffffffffffffff16141515611c6357600080fd5b611ca63330856040805190810160405280600e81526020017f4c6f616e2072657061796d656e740000000000000000000000000000000000008152506000612bc5565b611cb03083613025565b6000811115611e2857611d0b81600760003073ffffffffffffffffffffffffffffffffffffffff1673ffffffffffffffffffffffffffffffffffffffff1681526020019081526020016000205461312990919063ffffffff16565b600760003073ffffffffffffffffffffffffffffffffffffffff1673ffffffffffffffffffffffffffffffffffffffff16815260200190815260200160002081905550611dc28160076000600a60009054906101000a900473ffffffffffffffffffffffffffffffffffffffff1673ffffffffffffffffffffffffffffffffffffffff1673ffffffffffffffffffffffffffffffffffffffff1681526020019081526020016000205461314590919063ffffffff16565b60076000600a60009054906101000a900473ffffffffffffffffffffffffffffffffffffffff1673ffffffffffffffffffffffffffffffffffffffff1673ffffffffffffffffffffffffffffffffffffffff168152602001908152602001600020819055505b8473ffffffffffffffffffffffffffffffffffffffff166339007b77876040518263ffffffff167c010000000000000000000000000000000000000000000000000000000002815260040180828152602001915050600060405180830381600087803b1515611e9657600080fd5b6102c65a03f11515611ea757600080fd5b50505050505050505050565b60038054600181600116156101000203166002900480601f016020809104026020016040519081016040528092919081815260200182805460018160011615610100020316600290048015611f495780601f10611f1e57610100808354040283529160200191611f49565b820191906000526020600020905b815481529060010190602001808311611f2c57829003601f168201915b505050505081565b6000806000809054906101000a900473ffffffffffffffffffffffffffffffffffffffff1673ffffffffffffffffffffffffffffffffffffffff163373ffffffffffffffffffffffffffffffffffffffff16141515611faf57600080fd5b82519150600090505b81811015611fee57611fe1848483815181101515611fd257fe5b9060200190602002015161275f565b8080600101915050611fb8565b50505050565b6000806000600160008773ffffffffffffffffffffffffffffffffffffffff1673ffffffffffffffffffffffffffffffffffffffff16815260200190815260200160002060007f45786368616e676500000000000000000000000000000000000000000000000060001916815260200190815260200160002060009054906101000a900460ff16151561208657600080fd5b8590506120cc3387866040805190810160405280601781526020017f53656c6c20746f6b656e206f7264657220706c616365640000000000000000008152506000612bc5565b8073ffffffffffffffffffffffffffffffffffffffff1663f7e8953b3387876000604051604001526040518463ffffffff167c0100000000000000000000000000000000000000000000000000000000028152600401808473ffffffffffffffffffffffffffffffffffffffff1673ffffffffffffffffffffffffffffffffffffffff16815260200183815260200182815260200193505050506040805180830381600087803b151561217e57600080fd5b6102c65a03f1151561218f57600080fd5b505050604051805190602001805190509250925050935093915050565b600c5481565b60006121d933848460206040519081016040528060008152506121d487612b58565b612bc5565b6001905092915050565b7f7472616e736665724e6f46656500000000000000000000000000000000000000600160003373ffffffffffffffffffffffffffffffffffffffff1673ffffffffffffffffffffffffffffffffffffffff1681526020019081526020016000206000826000191660001916815260200190815260200160002060009054906101000a900460ff16151561227557600080fd5b6122b533868686868080601f0160208091040260200160405190810160405280939291908181526020018383808284378201915050505050506000612bc5565b5050505050565b7f7365745472616e73666572466565730000000000000000000000000000000000600160003373ffffffffffffffffffffffffffffffffffffffff1673ffffffffffffffffffffffffffffffffffffffff1681526020019081526020016000206000826000191660001916815260200190815260200160002060009054906101000a900460ff16151561234e57600080fd5b83600b8190555082600c8190555081600d819055507fd987a3acde40f231f760d7c3d2907c83d26bca5aededafbeefba5619b5955d71600b54600c54600d5460405180848152602001838152602001828152602001935050505060405180910390a150505050565b7f6973737565416e64446973627572736500000000000000000000000000000000600160003373ffffffffffffffffffffffffffffffffffffffff1673ffffffffffffffffffffffffffffffffffffffff1681526020019081526020016000206000826000191660001916815260200190815260200160002060009054906101000a900460ff16151561244857600080fd5b60008411151561245757600080fd5b6124613085613166565b6124a130868686868080601f0160208091040260200160405190810160405280939291908181526020018383808284378201915050505050506000612bc5565b5050505050565b7f6973737565000000000000000000000000000000000000000000000000000000600160003373ffffffffffffffffffffffffffffffffffffffff1673ffffffffffffffffffffffffffffffffffffffff1681526020019081526020016000206000826000191660001916815260200190815260200160002060009054906101000a900460ff16151561253a57600080fd5b6125443083613166565b5050565b600061255533848461326a565b905092915050565b600e60009054906101000a900473ffffffffffffffffffffffffffffffffffffffff1681565b6000600860008473ffffffffffffffffffffffffffffffffffffffff1673ffffffffffffffffffffffffffffffffffffffff16815260200190815260200160002060008373ffffffffffffffffffffffffffffffffffffffff1673ffffffffffffffffffffffffffffffffffffffff16815260200190815260200160002054905092915050565b6000809054906101000a900473ffffffffffffffffffffffffffffffffffffffff1673ffffffffffffffffffffffffffffffffffffffff163373ffffffffffffffffffffffffffffffffffffffff1614151561266557600080fd5b600073ffffffffffffffffffffffffffffffffffffffff168173ffffffffffffffffffffffffffffffffffffffff16141515156126a157600080fd5b8073ffffffffffffffffffffffffffffffffffffffff166000809054906101000a900473ffffffffffffffffffffffffffffffffffffffff1673ffffffffffffffffffffffffffffffffffffffff167f70aea8d848e8a90fb7661b227dc522eb6395c3dac71b63cb59edd5c9899b236460405160405180910390a3806000806101000a81548173ffffffffffffffffffffffffffffffffffffffff021916908373ffffffffffffffffffffffffffffffffffffffff16021790555050565b6000809054906101000a900473ffffffffffffffffffffffffffffffffffffffff1673ffffffffffffffffffffffffffffffffffffffff163373ffffffffffffffffffffffffffffffffffffffff161415156127ba57600080fd5b60018060008473ffffffffffffffffffffffffffffffffffffffff1673ffffffffffffffffffffffffffffffffffffffff1681526020019081526020016000206000836000191660001916815260200190815260200160002060006101000a81548160ff0219169083151502179055508173ffffffffffffffffffffffffffffffffffffffff167fc65937e3dbcb9fb30f646815dd67a3dbd09ba17718cbcb54efbe3635f8e0a6fe8260405180826000191660001916815260200191505060405180910390a25050565b6128cb33858585858080601f0160208091040260200160405190810160405280939291908181526020018383808284378201915050505050506128c688612b58565b612bc5565b50505050565b82600760008773ffffffffffffffffffffffffffffffffffffffff1673ffffffffffffffffffffffffffffffffffffffff168152602001908152602001600020541015151561291f57600080fd5b82600860008773ffffffffffffffffffffffffffffffffffffffff1673ffffffffffffffffffffffffffffffffffffffff16815260200190815260200160002060003373ffffffffffffffffffffffffffffffffffffffff1673ffffffffffffffffffffffffffffffffffffffff16815260200190815260200160002054101515156129aa57600080fd5b6000600860008773ffffffffffffffffffffffffffffffffffffffff1673ffffffffffffffffffffffffffffffffffffffff16815260200190815260200160002060003373ffffffffffffffffffffffffffffffffffffffff1673ffffffffffffffffffffffffffffffffffffffff16815260200190815260200160002054111515612a3557600080fd5b612a428585858585612bc5565b612ad183600860008873ffffffffffffffffffffffffffffffffffffffff1673ffffffffffffffffffffffffffffffffffffffff16815260200190815260200160002060003373ffffffffffffffffffffffffffffffffffffffff1673ffffffffffffffffffffffffffffffffffffffff1681526020019081526020016000205461312990919063ffffffff16565b600860008773ffffffffffffffffffffffffffffffffffffffff1673ffffffffffffffffffffffffffffffffffffffff16815260200190815260200160002060003373ffffffffffffffffffffffffffffffffffffffff1673ffffffffffffffffffffffffffffffffffffffff168152602001908152602001600020819055505050505050565b600080821115612b9357612b8c620f4240612b7e600b548561349e90919063ffffffff16565b6134d490919063ffffffff16565b9050612b98565b600090505b600d54811115612bac57600d549050612bbd565b600c54811015612bbc57600c5490505b5b809050919050565b60008473ffffffffffffffffffffffffffffffffffffffff1614151515612beb57600080fd5b8373ffffffffffffffffffffffffffffffffffffffff168573ffffffffffffffffffffffffffffffffffffffff1614151515612c2657600080fd5b6000811115612db457612ca38160076000600960009054906101000a900473ffffffffffffffffffffffffffffffffffffffff1673ffffffffffffffffffffffffffffffffffffffff1673ffffffffffffffffffffffffffffffffffffffff1681526020019081526020016000205461314590919063ffffffff16565b60076000600960009054906101000a900473ffffffffffffffffffffffffffffffffffffffff1673ffffffffffffffffffffffffffffffffffffffff1673ffffffffffffffffffffffffffffffffffffffff16815260200190815260200160002081905550612d6c81612d5e85600760008a73ffffffffffffffffffffffffffffffffffffffff1673ffffffffffffffffffffffffffffffffffffffff1681526020019081526020016000205461312990919063ffffffff16565b61312990919063ffffffff16565b600760008773ffffffffffffffffffffffffffffffffffffffff1673ffffffffffffffffffffffffffffffffffffffff16815260200190815260200160002081905550612e4a565b612e0683600760008873ffffffffffffffffffffffffffffffffffffffff1673ffffffffffffffffffffffffffffffffffffffff1681526020019081526020016000205461312990919063ffffffff16565b600760008773ffffffffffffffffffffffffffffffffffffffff1673ffffffffffffffffffffffffffffffffffffffff168152602001908152602001600020819055505b612e9c83600760008773ffffffffffffffffffffffffffffffffffffffff1673ffffffffffffffffffffffffffffffffffffffff1681526020019081526020016000205461314590919063ffffffff16565b600760008673ffffffffffffffffffffffffffffffffffffffff1673ffffffffffffffffffffffffffffffffffffffff168152602001908152602001600020819055508373ffffffffffffffffffffffffffffffffffffffff168573ffffffffffffffffffffffffffffffffffffffff167fddf252ad1be2c89b69c2b068fc378daa952ba7f163c4a11628f55a4df523b3ef856040518082815260200191505060405180910390a38373ffffffffffffffffffffffffffffffffffffffff168573ffffffffffffffffffffffffffffffffffffffff167f3c37a37469220e9bdcb1e8083efdcac8373f1448f59b5c4b23ebe3a0723642b28585856040518084815260200180602001838152602001828103825284818151815260200191508051906020019080838360005b83811015612fe2578082015181840152602081019050612fc7565b50505050905090810190601f16801561300f5780820380516001836020036101000a031916815260200191505b5094505050505060405180910390a35050505050565b61307781600760008573ffffffffffffffffffffffffffffffffffffffff1673ffffffffffffffffffffffffffffffffffffffff1681526020019081526020016000205461312990919063ffffffff16565b600760008473ffffffffffffffffffffffffffffffffffffffff1673ffffffffffffffffffffffffffffffffffffffff168152602001908152602001600020819055506130cf8160065461312990919063ffffffff16565b60068190555060008273ffffffffffffffffffffffffffffffffffffffff167fddf252ad1be2c89b69c2b068fc378daa952ba7f163c4a11628f55a4df523b3ef836040518082815260200191505060405180910390a35050565b600082821115151561313a57600080fd5b818303905092915050565b600080828401905083811015151561315c57600080fd5b8091505092915050565b6131b881600760008573ffffffffffffffffffffffffffffffffffffffff1673ffffffffffffffffffffffffffffffffffffffff1681526020019081526020016000205461314590919063ffffffff16565b600760008473ffffffffffffffffffffffffffffffffffffffff1673ffffffffffffffffffffffffffffffffffffffff168152602001908152602001600020819055506132108160065461314590919063ffffffff16565b6006819055508173ffffffffffffffffffffffffffffffffffffffff1660007fddf252ad1be2c89b69c2b068fc378daa952ba7f163c4a11628f55a4df523b3ef836040518082815260200191505060405180910390a35050565b60008273ffffffffffffffffffffffffffffffffffffffff168473ffffffffffffffffffffffffffffffffffffffff16141515156132a757600080fd5b61333682600860008773ffffffffffffffffffffffffffffffffffffffff1673ffffffffffffffffffffffffffffffffffffffff16815260200190815260200160002060008673ffffffffffffffffffffffffffffffffffffffff1673ffffffffffffffffffffffffffffffffffffffff1681526020019081526020016000205461314590919063ffffffff16565b600860008673ffffffffffffffffffffffffffffffffffffffff1673ffffffffffffffffffffffffffffffffffffffff16815260200190815260200160002060008573ffffffffffffffffffffffffffffffffffffffff1673ffffffffffffffffffffffffffffffffffffffff168152602001908152602001600020819055508273ffffffffffffffffffffffffffffffffffffffff168473ffffffffffffffffffffffffffffffffffffffff167f8c5be1e5ebec7d5bd14f71427d1e84f3dd0314c0f7b2291e5b200ac8c7c3b925600860008873ffffffffffffffffffffffffffffffffffffffff1673ffffffffffffffffffffffffffffffffffffffff16815260200190815260200160002060008773ffffffffffffffffffffffffffffffffffffffff1673ffffffffffffffffffffffffffffffffffffffff168152602001908152602001600020546040518082815260200191505060405180910390a39392505050565b600080828402905060008414806134bf57508284828115156134bc57fe5b04145b15156134ca57600080fd5b8091505092915050565b60008082848115156134e257fe5b04905080915050929150505600a165627a7a72305820f768fce35532c6dbeb9cabbe2121e6547e57562cfb90cd7f9a7e19d0565e09590029",
  "source": "/* Generic Augmint Token implementation (ERC20 token)\n    This contract manages:\n        * Balances of Augmint holders and transactions between them\n        * Issues and burns tokens when loan issued or repaid\n        * Holds reserves:\n            - ETH as regular ETH balance of the contract\n            - ERC20 token reserve (stored as regular Token balance under the contract address)\n            TODO: separate reserve contract ?\n\n        Note that all reserves are held under the contract address,\n          therefore any transaction on the reserve is limited to the tx-s defined here\n          (ie. transfer of reserve is not possible by the contract owner)\n    TODO: issue Transfer(0x, ) instead (or together?) of Issue event (comply with ERC20 standard)\n    TODO: ERC20 short address attack protection? https://github.com/DecentLabs/dcm-poc/issues/62\n*/\npragma solidity 0.4.18;\nimport \"./Restricted.sol\";\nimport \"../interfaces/AugmintTokenInterface.sol\";\nimport \"../interfaces/LoanManagerInterface.sol\";\nimport \"../interfaces/ExchangeInterface.sol\";\nimport \"../Locker.sol\";\n\n\ncontract AugmintToken is AugmintTokenInterface {\n\n    address public feeAccount;\n    address public interestEarnedAccount;\n    uint public transferFeePt; // in parts per million , ie. 2,000 = 0.2%\n    uint public transferFeeMin; // with base unit of augmint token, eg. 4 decimals for token, eg. 31000 = 3.1 ACE\n    uint public transferFeeMax; // with base unit of augmint token, eg. 4 decimals for token, eg. 31000 = 3.1 ACE\n\n    Locker public locker;\n\n    event TransferFeesChanged(uint _transferFeePt, uint _transferFeeMin, uint _transferFeeMax);\n\n    function AugmintToken(string _name, string _symbol, bytes32 _peggedSymbol, uint8 _decimals, address _feeAccount,\n        address _interestEarnedAccount, uint _transferFeePt, uint _transferFeeMin,\n        uint _transferFeeMax) public {\n        require(_feeAccount != address(0));\n        require(_interestEarnedAccount != address(0));\n        require(bytes(_name).length > 0);\n        name = _name;\n        symbol = _symbol;\n        peggedSymbol = _peggedSymbol;\n        decimals = _decimals;\n        feeAccount = _feeAccount;\n        interestEarnedAccount = _interestEarnedAccount;\n        transferFeePt = _transferFeePt;\n        transferFeeMin = _transferFeeMin;\n        transferFeeMax = _transferFeeMax;\n    }\n\n    function () public payable { // solhint-disable-line no-empty-blocks\n        // to accept ETH sent into reserve (from defaulted loan's collateral )\n    }\n\n    // Issue tokens to Reserve\n    function issue(uint amount) external restrict(\"issue\") {\n        _issue(this, amount);\n    }\n\n    // Burn tokens from Reserve\n    function burn(uint amount) external restrict(\"burn\") {\n        _burn(this, amount);\n    }\n\n    function setLocker(address lockerAddress) external restrict(\"setLocker\") {\n\n        locker = Locker(lockerAddress);\n\n    }\n\n    function lockFunds(uint lockProductId, uint amountToLock) external {\n\n        // NB: locker.createLock will validate lockProductId and amountToLock:\n        uint interestEarnedAmount = locker.createLock(lockProductId, msg.sender, amountToLock);\n\n        _transfer(msg.sender, address(locker), amountToLock, \"Locking funds\", 0);\n        _transfer(interestEarnedAccount, address(locker), interestEarnedAmount, \"Accrue lock interest\", 0);\n\n    }\n\n    function issueAndDisburse(address borrower, uint loanAmount, string narrative)\n    external restrict(\"issueAndDisburse\") {\n        require(loanAmount > 0);\n        _issue(this, loanAmount);\n        _transfer(this, borrower, loanAmount, narrative, 0);\n    }\n\n    /* Users must repay through AugmintToken.repayLoan()*/\n    function repayLoan(address _loanManager, uint loanId) external {\n        require(permissions[_loanManager][\"LoanManager\"]); // only whitelisted loanManagers\n        LoanManagerInterface loanManager = LoanManagerInterface(_loanManager);\n        // solhint-disable-next-line space-after-comma\n        var (borrower, , , repaymentAmount , loanAmount, interestAmount, ) = loanManager.loans(loanId);\n        require(borrower == msg.sender);\n        _transfer(msg.sender, this, repaymentAmount, \"Loan repayment\", 0);\n        _burn(this, loanAmount);\n        if (interestAmount > 0) {\n            // transfer interestAmount to InterestEarnedAccount (internal transfer, no need for Transfer events)\n            balances[this] = balances[this].sub(interestAmount);\n            balances[interestEarnedAccount] = balances[interestEarnedAccount].add(interestAmount);\n        }\n        loanManager.releaseCollateral(loanId);\n    }\n\n    /* convenience function - alternative to Exchange.placeSellTokenOrder without approval required */\n    function placeSellTokenOrderOnExchange(address _exchange, uint price, uint tokenAmount)\n    external returns (uint sellTokenOrderIndex, uint sellTokenOrderId) {\n        require(permissions[_exchange][\"Exchange\"]); // only whitelisted exchanges\n        ExchangeInterface exchange = ExchangeInterface(_exchange);\n        _transfer(msg.sender, _exchange, tokenAmount, \"Sell token order placed\", 0);\n        return exchange.placeSellTokenOrderTrusted(msg.sender, price, tokenAmount);\n    }\n\n    function transferWithNarrative(address _to, uint256 _amount, string _narrative) external {\n        _transfer(msg.sender, _to, _amount, _narrative, getFee(_amount));\n    }\n\n    function transferNoFee(address _to, uint256 _amount, string _narrative)\n    external restrict(\"transferNoFee\") {\n        _transfer(msg.sender, _to, _amount, _narrative, 0);\n    }\n\n    function setTransferFees(uint _transferFeePt, uint _transferFeeMin, uint _transferFeeMax)\n    external restrict(\"setTransferFees\") {\n        transferFeePt = _transferFeePt;\n        transferFeeMin = _transferFeeMin;\n        transferFeeMax = _transferFeeMax;\n        TransferFeesChanged(transferFeePt, transferFeeMin, transferFeeMax);\n    }\n\n    function balanceOf(address _owner) public view returns (uint256 balance) {\n        return balances[_owner];\n    }\n\n    function allowance(address _owner, address _spender) public view returns (uint256 remaining) {\n        return allowed[_owner][_spender];\n    }\n\n    function transfer(address _to, uint256 _amount) public returns (bool) {\n        _transfer(msg.sender, _to, _amount, \"\", getFee(_amount));\n        return true;\n    }\n\n    function approve(address _spender, uint256 _amount) public returns (bool) {\n        require(_spender != 0x0);\n        require(msg.sender != _spender); // no need to approve for myself. Makes client code simpler if we don't allow\n        allowed[msg.sender][_spender] = _amount;\n        Approval(msg.sender, _spender, _amount);\n        return true;\n    }\n\n    /**\n     ERC20 transferFrom attack protection: https://github.com/DecentLabs/dcm-poc/issues/57\n     approve should be called when allowed[_spender] == 0. To increment allowed value is better\n     to use this function to avoid 2 calls (and wait until the first transaction is mined)\n     Based on MonolithDAO Token.sol */\n    function increaseApproval(address _spender, uint _addedValue) public returns (bool) {\n        return _increaseApproval(msg.sender, _spender, _addedValue);\n    }\n\n    function decreaseApproval(address _spender, uint _subtractedValue) public returns (bool) {\n        require(msg.sender != _spender); // no need to approve for myself. Makes client code simpler if we don't allow\n        uint oldValue = allowed[msg.sender][_spender];\n        if (_subtractedValue > oldValue) {\n            allowed[msg.sender][_spender] = 0;\n        } else {\n            allowed[msg.sender][_spender] = oldValue.sub(_subtractedValue);\n        }\n        Approval(msg.sender, _spender, allowed[msg.sender][_spender]);\n        return true;\n    }\n\n    function transferFrom(address _from, address _to, uint256 _amount) public returns (bool) {\n        _transferFrom(_from, _to, _amount, \"\", getFee(_amount));\n        return true;\n    }\n\n    function transferFromWithNarrative(\n        address _from,\n        address _to,\n        uint256 _amount,\n        string _narrative\n    ) public {\n        _transferFrom(_from, _to, _amount, _narrative, getFee(_amount));\n    }\n\n    function transferFromNoFee(address _from, address _to, uint256 _amount, string _narrative)\n    public restrict(\"transferFromNoFee\") {\n        _transferFrom(_from, _to, _amount, _narrative, 0);\n    }\n\n    function _increaseApproval(address _approver, address _spender, uint _addedValue) internal returns (bool) {\n        require(_approver != _spender); // no need to approve for myself. Makes client code simpler if we don't allow\n        allowed[_approver][_spender] = allowed[_approver][_spender].add(_addedValue);\n        Approval(_approver, _spender, allowed[_approver][_spender]);\n    }\n\n    function getFee(uint amount) internal view returns (uint256 fee) {\n        if (amount > 0) {\n            fee = amount.mul(transferFeePt).div(1000000);\n        } else {\n            fee = 0;\n        }\n        if (fee > transferFeeMax) {\n            fee = transferFeeMax;\n        } else if (fee < transferFeeMin) {\n            fee = transferFeeMin;\n        }\n        return fee;\n    }\n\n    function _transferFrom(address _from, address _to, uint256 _amount, string _narrative, uint _fee) private {\n        require(balances[_from] >= _amount);\n        require(allowed[_from][msg.sender] >= _amount);\n        require(allowed[_from][msg.sender] > 0); // don't allow 0 transferFrom if no approval\n\n        /* NB: fee is deducted from owner. It can result that transferFrom of amount x to fail\n                when x + fee is not availale on owner balance */\n        _transfer(_from, _to, _amount, _narrative, _fee);\n\n        allowed[_from][msg.sender] = allowed[_from][msg.sender].sub(_amount);\n    }\n\n    function _transfer(address _from, address _to, uint256 _amount, string narrative, uint _fee) private {\n        require(_to != 0x0);\n        require(_from != _to); // no need to send to myself. Makes client code simpler if we don't allow\n        if (_fee > 0) {\n            balances[feeAccount] = balances[feeAccount].add(_fee);\n            balances[_from] = balances[_from].sub(_amount).sub(_fee);\n        } else {\n            balances[_from] = balances[_from].sub(_amount);\n        }\n        balances[_to] = balances[_to].add(_amount);\n        Transfer(_from, _to, _amount);\n        AugmintTransfer(_from, _to, _amount, narrative, _fee);\n    }\n\n    function _burn(address from, uint amount) private {\n        balances[from] = balances[from].sub(amount);\n        totalSupply = totalSupply.sub(amount);\n        Transfer(from, 0x0, amount);\n    }\n\n    function _issue(address to, uint amount) private {\n        balances[to] = balances[to].add(amount);\n        totalSupply = totalSupply.add(amount);\n        Transfer(0x0, to, amount);\n    }\n}\n",
  "sourcePath": "/Users/gyurka00/Documents/dcm-poc/contracts/generic/AugmintToken.sol",
  "compiler": {
    "name": "solc",
    "version": "0.4.18+commit.9cf6e910.Emscripten.clang"
  },
  "schemaVersion": "1.0.1",
  "updatedAt": "2018-01-29T16:51:41.535Z"
}