{
  "contractName": "AugmintToken",
  "abi": [
    {
      "constant": true,
      "inputs": [],
      "name": "totalLockedAmount",
      "outputs": [
        {
          "name": "",
          "type": "uint256"
        }
      ],
      "payable": false,
      "stateMutability": "view",
      "type": "function"
    },
    {
      "constant": true,
      "inputs": [],
      "name": "name",
      "outputs": [
        {
          "name": "",
          "type": "string"
        }
      ],
      "payable": false,
      "stateMutability": "view",
      "type": "function"
    },
    {
      "constant": false,
      "inputs": [
        {
          "name": "agent",
          "type": "address"
        },
        {
          "name": "requiredPermissions",
          "type": "bytes32[]"
        }
      ],
      "name": "revokeMulitplePermissions",
      "outputs": [],
      "payable": false,
      "stateMutability": "nonpayable",
      "type": "function"
    },
    {
      "constant": true,
      "inputs": [],
      "name": "totalSupply",
      "outputs": [
        {
          "name": "",
          "type": "uint256"
        }
      ],
      "payable": false,
      "stateMutability": "view",
      "type": "function"
    },
    {
      "constant": true,
      "inputs": [
        {
          "name": "",
          "type": "address"
        }
      ],
      "name": "balances",
      "outputs": [
        {
          "name": "",
          "type": "uint256"
        }
      ],
      "payable": false,
      "stateMutability": "view",
      "type": "function"
    },
    {
      "constant": true,
      "inputs": [],
      "name": "decimals",
      "outputs": [
        {
          "name": "",
          "type": "uint8"
        }
      ],
      "payable": false,
      "stateMutability": "view",
      "type": "function"
    },
    {
      "constant": true,
      "inputs": [],
      "name": "peggedSymbol",
      "outputs": [
        {
          "name": "",
          "type": "bytes32"
        }
      ],
      "payable": false,
      "stateMutability": "view",
      "type": "function"
    },
    {
      "constant": true,
      "inputs": [],
      "name": "loanToDepositLockLimit",
      "outputs": [
        {
          "name": "",
          "type": "uint256"
        }
      ],
      "payable": false,
      "stateMutability": "view",
      "type": "function"
    },
    {
      "constant": true,
      "inputs": [],
      "name": "lockNoLimitAllowance",
      "outputs": [
        {
          "name": "",
          "type": "uint256"
        }
      ],
      "payable": false,
      "stateMutability": "view",
      "type": "function"
    },
    {
      "constant": true,
      "inputs": [],
      "name": "totalLoanAmount",
      "outputs": [
        {
          "name": "",
          "type": "uint256"
        }
      ],
      "payable": false,
      "stateMutability": "view",
      "type": "function"
    },
    {
      "constant": true,
      "inputs": [],
      "name": "issuedByMonetaryBoard",
      "outputs": [
        {
          "name": "",
          "type": "uint256"
        }
      ],
      "payable": false,
      "stateMutability": "view",
      "type": "function"
    },
    {
      "constant": true,
      "inputs": [
        {
          "name": "",
          "type": "address"
        },
        {
          "name": "",
          "type": "bytes32"
        }
      ],
      "name": "permissions",
      "outputs": [
        {
          "name": "",
          "type": "bool"
        }
      ],
      "payable": false,
      "stateMutability": "view",
      "type": "function"
    },
    {
      "constant": true,
      "inputs": [
        {
          "name": "",
          "type": "address"
        },
        {
          "name": "",
          "type": "address"
        }
      ],
      "name": "allowed",
      "outputs": [
        {
          "name": "",
          "type": "uint256"
        }
      ],
      "payable": false,
      "stateMutability": "view",
      "type": "function"
    },
    {
      "constant": true,
      "inputs": [],
      "name": "interestEarnedAccount",
      "outputs": [
        {
          "name": "",
          "type": "address"
        }
      ],
      "payable": false,
      "stateMutability": "view",
      "type": "function"
    },
    {
      "constant": false,
      "inputs": [
        {
          "name": "agent",
          "type": "address"
        },
        {
          "name": "requiredPermission",
          "type": "bytes32"
        }
      ],
      "name": "revokePermission",
      "outputs": [],
      "payable": false,
      "stateMutability": "nonpayable",
      "type": "function"
    },
    {
      "constant": true,
      "inputs": [],
      "name": "feeAccount",
      "outputs": [
        {
          "name": "",
          "type": "address"
        }
      ],
      "payable": false,
      "stateMutability": "view",
      "type": "function"
    },
    {
      "constant": true,
      "inputs": [],
      "name": "transferFeeMax",
      "outputs": [
        {
          "name": "",
          "type": "uint256"
        }
      ],
      "payable": false,
      "stateMutability": "view",
      "type": "function"
    },
    {
      "constant": true,
      "inputs": [],
      "name": "transferFeePt",
      "outputs": [
        {
          "name": "",
          "type": "uint256"
        }
      ],
      "payable": false,
      "stateMutability": "view",
      "type": "function"
    },
    {
      "constant": true,
      "inputs": [],
      "name": "loanNoLimitAllowance",
      "outputs": [
        {
          "name": "",
          "type": "uint256"
        }
      ],
      "payable": false,
      "stateMutability": "view",
      "type": "function"
    },
    {
      "constant": true,
      "inputs": [],
      "name": "symbol",
      "outputs": [
        {
          "name": "",
          "type": "string"
        }
      ],
      "payable": false,
      "stateMutability": "view",
      "type": "function"
    },
    {
      "constant": false,
      "inputs": [
        {
          "name": "agent",
          "type": "address"
        },
        {
          "name": "requiredPermissions",
          "type": "bytes32[]"
        }
      ],
      "name": "grantMultiplePermissions",
      "outputs": [],
      "payable": false,
      "stateMutability": "nonpayable",
      "type": "function"
    },
    {
      "constant": true,
      "inputs": [],
      "name": "transferFeeMin",
      "outputs": [
        {
          "name": "",
          "type": "uint256"
        }
      ],
      "payable": false,
      "stateMutability": "view",
      "type": "function"
    },
    {
      "constant": true,
      "inputs": [],
      "name": "loanToDepositLoanLimit",
      "outputs": [
        {
          "name": "",
          "type": "uint256"
        }
      ],
      "payable": false,
      "stateMutability": "view",
      "type": "function"
    },
    {
      "constant": false,
      "inputs": [
        {
          "name": "agent",
          "type": "address"
        },
        {
          "name": "requiredPermission",
          "type": "bytes32"
        }
      ],
      "name": "grantPermission",
      "outputs": [],
      "payable": false,
      "stateMutability": "nonpayable",
      "type": "function"
    },
    {
      "inputs": [
        {
          "name": "_name",
          "type": "string"
        },
        {
          "name": "_symbol",
          "type": "string"
        },
        {
          "name": "_peggedSymbol",
          "type": "bytes32"
        },
        {
          "name": "_decimals",
          "type": "uint8"
        },
        {
          "name": "_feeAccount",
          "type": "address"
        },
        {
          "name": "_interestEarnedAccount",
          "type": "address"
        },
        {
          "name": "_transferFeePt",
          "type": "uint256"
        },
        {
          "name": "_transferFeeMin",
          "type": "uint256"
        },
        {
          "name": "_transferFeeMax",
          "type": "uint256"
        },
        {
          "name": "_loanToDepositLockLimit",
          "type": "uint256"
        },
        {
          "name": "_loanToDepositLoanLimit",
          "type": "uint256"
        },
        {
          "name": "_lockNoLimitAllowance",
          "type": "uint256"
        },
        {
          "name": "_loanNoLimitAllowance",
          "type": "uint256"
        }
      ],
      "payable": false,
      "stateMutability": "nonpayable",
      "type": "constructor"
    },
    {
      "payable": true,
      "stateMutability": "payable",
      "type": "fallback"
    },
    {
      "anonymous": false,
      "inputs": [
        {
          "indexed": false,
          "name": "transferFeePt",
          "type": "uint256"
        },
        {
          "indexed": false,
          "name": "transferFeeMin",
          "type": "uint256"
        },
        {
          "indexed": false,
          "name": "transferFeeMax",
          "type": "uint256"
        }
      ],
      "name": "TransferFeesChanged",
      "type": "event"
    },
    {
      "anonymous": false,
      "inputs": [
        {
          "indexed": false,
          "name": "loanToDepositLockLimit",
          "type": "uint256"
        },
        {
          "indexed": false,
          "name": "loanToDepositLoanLimit",
          "type": "uint256"
        }
      ],
      "name": "LoanToDepositLimitsChanged",
      "type": "event"
    },
    {
      "anonymous": false,
      "inputs": [
        {
          "indexed": false,
          "name": "loanToDepositLockLimit",
          "type": "uint256"
        },
        {
          "indexed": false,
          "name": "loanToDepositLoanLimit",
          "type": "uint256"
        },
        {
          "indexed": false,
          "name": "lockNoLimitAllowance",
          "type": "uint256"
        },
        {
          "indexed": false,
          "name": "loanNoLimitAllowance",
          "type": "uint256"
        }
      ],
      "name": "LoanAndLockParamsChanged",
      "type": "event"
    },
    {
      "anonymous": false,
      "inputs": [
        {
          "indexed": true,
          "name": "from",
          "type": "address"
        },
        {
          "indexed": true,
          "name": "to",
          "type": "address"
        },
        {
          "indexed": false,
          "name": "amount",
          "type": "uint256"
        }
      ],
      "name": "Transfer",
      "type": "event"
    },
    {
      "anonymous": false,
      "inputs": [
        {
          "indexed": true,
          "name": "from",
          "type": "address"
        },
        {
          "indexed": true,
          "name": "to",
          "type": "address"
        },
        {
          "indexed": false,
          "name": "amount",
          "type": "uint256"
        },
        {
          "indexed": false,
          "name": "narrative",
          "type": "string"
        },
        {
          "indexed": false,
          "name": "fee",
          "type": "uint256"
        }
      ],
      "name": "AugmintTransfer",
      "type": "event"
    },
    {
      "anonymous": false,
      "inputs": [
        {
          "indexed": false,
          "name": "amount",
          "type": "uint256"
        }
      ],
      "name": "TokenIssued",
      "type": "event"
    },
    {
      "anonymous": false,
      "inputs": [
        {
          "indexed": false,
          "name": "amount",
          "type": "uint256"
        }
      ],
      "name": "TokenBurned",
      "type": "event"
    },
    {
      "anonymous": false,
      "inputs": [
        {
          "indexed": true,
          "name": "_owner",
          "type": "address"
        },
        {
          "indexed": true,
          "name": "_spender",
          "type": "address"
        },
        {
          "indexed": false,
          "name": "_value",
          "type": "uint256"
        }
      ],
      "name": "Approval",
      "type": "event"
    },
    {
      "anonymous": false,
      "inputs": [
        {
          "indexed": true,
          "name": "agent",
          "type": "address"
        },
        {
          "indexed": false,
          "name": "grantedPermission",
          "type": "bytes32"
        }
      ],
      "name": "PermissionGranted",
      "type": "event"
    },
    {
      "anonymous": false,
      "inputs": [
        {
          "indexed": true,
          "name": "agent",
          "type": "address"
        },
        {
          "indexed": false,
          "name": "revokedPermission",
          "type": "bytes32"
        }
      ],
      "name": "PermissionRevoked",
      "type": "event"
    },
    {
      "constant": false,
      "inputs": [
        {
          "name": "amount",
          "type": "uint256"
        }
      ],
      "name": "issue",
      "outputs": [],
      "payable": false,
      "stateMutability": "nonpayable",
      "type": "function"
    },
    {
      "constant": false,
      "inputs": [
        {
          "name": "amount",
          "type": "uint256"
        }
      ],
      "name": "burn",
      "outputs": [],
      "payable": false,
      "stateMutability": "nonpayable",
      "type": "function"
    },
    {
      "constant": false,
      "inputs": [
        {
          "name": "lockerAddress",
          "type": "address"
        },
        {
          "name": "lockProductId",
          "type": "uint256"
        },
        {
          "name": "amountToLock",
          "type": "uint256"
        }
      ],
      "name": "lockFunds",
      "outputs": [],
      "payable": false,
      "stateMutability": "nonpayable",
      "type": "function"
    },
    {
      "constant": false,
      "inputs": [
        {
          "name": "releasedAmount",
          "type": "uint256"
        }
      ],
      "name": "fundsReleased",
      "outputs": [],
      "payable": false,
      "stateMutability": "nonpayable",
      "type": "function"
    },
    {
      "constant": false,
      "inputs": [
        {
          "name": "borrower",
          "type": "address"
        },
        {
          "name": "loanAmount",
          "type": "uint256"
        },
        {
          "name": "repaymentAmount",
          "type": "uint256"
        },
        {
          "name": "narrative",
          "type": "string"
        }
      ],
      "name": "issueAndDisburse",
      "outputs": [],
      "payable": false,
      "stateMutability": "nonpayable",
      "type": "function"
    },
    {
      "constant": false,
      "inputs": [
        {
          "name": "_loanManager",
          "type": "address"
        },
        {
          "name": "loanId",
          "type": "uint256"
        }
      ],
      "name": "repayLoan",
      "outputs": [],
      "payable": false,
      "stateMutability": "nonpayable",
      "type": "function"
    },
    {
      "constant": false,
      "inputs": [
        {
          "name": "repaymentAmount",
          "type": "uint256"
        }
      ],
      "name": "loanCollected",
      "outputs": [],
      "payable": false,
      "stateMutability": "nonpayable",
      "type": "function"
    },
    {
      "constant": false,
      "inputs": [
        {
          "name": "_exchange",
          "type": "address"
        },
        {
          "name": "price",
          "type": "uint256"
        },
        {
          "name": "tokenAmount",
          "type": "uint256"
        }
      ],
      "name": "placeSellTokenOrderOnExchange",
      "outputs": [
        {
          "name": "sellTokenOrderId",
          "type": "uint256"
        }
      ],
      "payable": false,
      "stateMutability": "nonpayable",
      "type": "function"
    },
    {
      "constant": false,
      "inputs": [
        {
          "name": "_to",
          "type": "address"
        },
        {
          "name": "_amount",
          "type": "uint256"
        },
        {
          "name": "_narrative",
          "type": "string"
        }
      ],
      "name": "transferWithNarrative",
      "outputs": [],
      "payable": false,
      "stateMutability": "nonpayable",
      "type": "function"
    },
    {
      "constant": false,
      "inputs": [
        {
          "name": "_to",
          "type": "address"
        },
        {
          "name": "_amount",
          "type": "uint256"
        },
        {
          "name": "_narrative",
          "type": "string"
        }
      ],
      "name": "transferNoFee",
      "outputs": [],
      "payable": false,
      "stateMutability": "nonpayable",
      "type": "function"
    },
    {
      "constant": false,
      "inputs": [
        {
          "name": "_transferFeePt",
          "type": "uint256"
        },
        {
          "name": "_transferFeeMin",
          "type": "uint256"
        },
        {
          "name": "_transferFeeMax",
          "type": "uint256"
        }
      ],
      "name": "setTransferFees",
      "outputs": [],
      "payable": false,
      "stateMutability": "nonpayable",
      "type": "function"
    },
    {
      "constant": false,
      "inputs": [
        {
          "name": "_loanToDepositLockLimit",
          "type": "uint256"
        },
        {
          "name": "_loanToDepositLoanLimit",
          "type": "uint256"
        },
        {
          "name": "_lockNoLimitAllowance",
          "type": "uint256"
        },
        {
          "name": "_loanNoLimitAllowance",
          "type": "uint256"
        }
      ],
      "name": "setLoanAndLockParams",
      "outputs": [],
      "payable": false,
      "stateMutability": "nonpayable",
      "type": "function"
    },
    {
      "constant": true,
      "inputs": [],
      "name": "getParams",
      "outputs": [
        {
          "name": "",
          "type": "uint256[7]"
        }
      ],
      "payable": false,
      "stateMutability": "view",
      "type": "function"
    },
    {
      "constant": true,
      "inputs": [
        {
          "name": "_owner",
          "type": "address"
        }
      ],
      "name": "balanceOf",
      "outputs": [
        {
          "name": "balance",
          "type": "uint256"
        }
      ],
      "payable": false,
      "stateMutability": "view",
      "type": "function"
    },
    {
      "constant": true,
      "inputs": [
        {
          "name": "_owner",
          "type": "address"
        },
        {
          "name": "_spender",
          "type": "address"
        }
      ],
      "name": "allowance",
      "outputs": [
        {
          "name": "remaining",
          "type": "uint256"
        }
      ],
      "payable": false,
      "stateMutability": "view",
      "type": "function"
    },
    {
      "constant": false,
      "inputs": [
        {
          "name": "_to",
          "type": "address"
        },
        {
          "name": "_amount",
          "type": "uint256"
        }
      ],
      "name": "transfer",
      "outputs": [
        {
          "name": "",
          "type": "bool"
        }
      ],
      "payable": false,
      "stateMutability": "nonpayable",
      "type": "function"
    },
    {
      "constant": false,
      "inputs": [
        {
          "name": "_spender",
          "type": "address"
        },
        {
          "name": "_amount",
          "type": "uint256"
        }
      ],
      "name": "approve",
      "outputs": [
        {
          "name": "",
          "type": "bool"
        }
      ],
      "payable": false,
      "stateMutability": "nonpayable",
      "type": "function"
    },
    {
      "constant": false,
      "inputs": [
        {
          "name": "_spender",
          "type": "address"
        },
        {
          "name": "_addedValue",
          "type": "uint256"
        }
      ],
      "name": "increaseApproval",
      "outputs": [
        {
          "name": "",
          "type": "bool"
        }
      ],
      "payable": false,
      "stateMutability": "nonpayable",
      "type": "function"
    },
    {
      "constant": false,
      "inputs": [
        {
          "name": "_spender",
          "type": "address"
        },
        {
          "name": "_subtractedValue",
          "type": "uint256"
        }
      ],
      "name": "decreaseApproval",
      "outputs": [
        {
          "name": "",
          "type": "bool"
        }
      ],
      "payable": false,
      "stateMutability": "nonpayable",
      "type": "function"
    },
    {
      "constant": false,
      "inputs": [
        {
          "name": "_from",
          "type": "address"
        },
        {
          "name": "_to",
          "type": "address"
        },
        {
          "name": "_amount",
          "type": "uint256"
        }
      ],
      "name": "transferFrom",
      "outputs": [
        {
          "name": "",
          "type": "bool"
        }
      ],
      "payable": false,
      "stateMutability": "nonpayable",
      "type": "function"
    },
    {
      "constant": false,
      "inputs": [
        {
          "name": "_from",
          "type": "address"
        },
        {
          "name": "_to",
          "type": "address"
        },
        {
          "name": "_amount",
          "type": "uint256"
        },
        {
          "name": "_narrative",
          "type": "string"
        }
      ],
      "name": "transferFromWithNarrative",
      "outputs": [],
      "payable": false,
      "stateMutability": "nonpayable",
      "type": "function"
    },
    {
      "constant": false,
      "inputs": [
        {
          "name": "_from",
          "type": "address"
        },
        {
          "name": "_to",
          "type": "address"
        },
        {
          "name": "_amount",
          "type": "uint256"
        },
        {
          "name": "_narrative",
          "type": "string"
        }
      ],
      "name": "transferFromNoFee",
      "outputs": [],
      "payable": false,
      "stateMutability": "nonpayable",
      "type": "function"
    }
  ],
  "bytecode": "0x606060405234156200001057600080fd5b60405162003b5738038062003b578339810160405280805182019190602001805182019190602001805190602001909190805190602001909190805190602001909190805190602001909190805190602001909190805190602001909190805190602001909190805190602001909190805190602001909190805190602001909190805190602001909190505060016000803373ffffffffffffffffffffffffffffffffffffffff1673ffffffffffffffffffffffffffffffffffffffff16815260200190815260200160002060007f4d6f6e6574617279426f6172640000000000000000000000000000000000000060001916815260200190815260200160002060006101000a81548160ff0219169083151502179055503373ffffffffffffffffffffffffffffffffffffffff167fc65937e3dbcb9fb30f646815dd67a3dbd09ba17718cbcb54efbe3635f8e0a6fe60405180807f4d6f6e6574617279426f61726400000000000000000000000000000000000000815250602001905060405180910390a2600073ffffffffffffffffffffffffffffffffffffffff168973ffffffffffffffffffffffffffffffffffffffff1614151515620001d457600080fd5b600073ffffffffffffffffffffffffffffffffffffffff168873ffffffffffffffffffffffffffffffffffffffff16141515156200021157600080fd5b60008d511115156200022257600080fd5b8c600190805190602001906200023a92919062000340565b508b600290805190602001906200025392919062000340565b508a6003816000191690555089600460006101000a81548160ff021916908360ff16021790555088600860006101000a81548173ffffffffffffffffffffffffffffffffffffffff021916908373ffffffffffffffffffffffffffffffffffffffff16021790555087600960006101000a81548173ffffffffffffffffffffffffffffffffffffffff021916908373ffffffffffffffffffffffffffffffffffffffff16021790555086600a8190555085600b8190555084600c819055508360108190555082601181905550816012819055508060138190555050505050505050505050505050620003ef565b828054600181600116156101000203166002900490600052602060002090601f016020900481019282601f106200038357805160ff1916838001178555620003b4565b82800160010185558215620003b4579182015b82811115620003b357825182559160200191906001019062000396565b5b509050620003c39190620003c7565b5090565b620003ec91905b80821115620003e8576000816000905550600101620003ce565b5090565b90565b61375880620003ff6000396000f300606060405260043610610230576000357c0100000000000000000000000000000000000000000000000000000000900463ffffffff16806304282d251461023257806305a9f274146102d657806306fdde03146102ff578063095ea7b31461038d5780630da32eaa146103e757806318160ddd146104605780631e1a55e61461048957806323b872dd146104ac57806327e235e314610525578063313ce5671461057257806333a263e6146105a157806333e2168a146105d257806342966c68146105fb578063492a8f571461061e5780634c9e502e14610647578063596368e0146106705780635b225526146106995780635c658165146106f75780635e615a6b146107635780635fcf0455146107b45780635fe070131461080957806365e17c9d1461084f57806366188463146108a457806370a08231146108fe57806372a1eecc1461094b578063765879211461097457806377c9db1a14610a185780638f9c0cdf14610a4157806393a595f514610a6a57806395d89b4114610aac5780639ac3317b14610b3a5780639b007f9d14610bb35780639c1a51a314610bd6578063a7f839a714610c35578063a9059cbb14610c5e578063ab1f032714610cb8578063b2979cbe14610d0e578063babac77e14610d37578063bfd201f514610d82578063c28f379314610db7578063cc872b6614610e16578063d73dd62314610e39578063dd62ed3e14610e93578063f38a826214610eff578063f4b4730914610f45578063ffdcf09514610f83575b005b341561023d57600080fd5b6102d4600480803573ffffffffffffffffffffffffffffffffffffffff1690602001909190803573ffffffffffffffffffffffffffffffffffffffff1690602001909190803590602001909190803590602001908201803590602001908080601f01602080910402602001604051908101604052809392919081815260200183838082843782019150505050505091905050610fd9565b005b34156102e157600080fd5b6102e961107f565b6040518082815260200191505060405180910390f35b341561030a57600080fd5b610312611085565b6040518080602001828103825283818151815260200191508051906020019080838360005b83811015610352578082015181840152602081019050610337565b50505050905090810190601f16801561037f5780820380516001836020036101000a031916815260200191505b509250505060405180910390f35b341561039857600080fd5b6103cd600480803573ffffffffffffffffffffffffffffffffffffffff16906020019091908035906020019091905050611123565b604051808215151515815260200191505060405180910390f35b34156103f257600080fd5b61045e600480803573ffffffffffffffffffffffffffffffffffffffff1690602001909190803590602001908201803590602001908080602002602001604051908101604052809392919081815260200183836020028082843782019150505050505091905050611275565b005b341561046b57600080fd5b6104736112bd565b6040518082815260200191505060405180910390f35b341561049457600080fd5b6104aa60048080359060200190919050506112c3565b005b34156104b757600080fd5b61050b600480803573ffffffffffffffffffffffffffffffffffffffff1690602001909190803573ffffffffffffffffffffffffffffffffffffffff1690602001909190803590602001909190505061136d565b604051808215151515815260200191505060405180910390f35b341561053057600080fd5b61055c600480803573ffffffffffffffffffffffffffffffffffffffff1690602001909190505061139f565b6040518082815260200191505060405180910390f35b341561057d57600080fd5b6105856113b7565b604051808260ff1660ff16815260200191505060405180910390f35b34156105ac57600080fd5b6105b46113ca565b60405180826000191660001916815260200191505060405180910390f35b34156105dd57600080fd5b6105e56113d0565b6040518082815260200191505060405180910390f35b341561060657600080fd5b61061c60048080359060200190919050506113d6565b005b341561062957600080fd5b610631611490565b6040518082815260200191505060405180910390f35b341561065257600080fd5b61065a611496565b6040518082815260200191505060405180910390f35b341561067b57600080fd5b61068361149c565b6040518082815260200191505060405180910390f35b34156106a457600080fd5b6106dd600480803573ffffffffffffffffffffffffffffffffffffffff16906020019091908035600019169060200190919050506114a2565b604051808215151515815260200191505060405180910390f35b341561070257600080fd5b61074d600480803573ffffffffffffffffffffffffffffffffffffffff1690602001909190803573ffffffffffffffffffffffffffffffffffffffff169060200190919050506114d1565b6040518082815260200191505060405180910390f35b341561076e57600080fd5b6107766114f6565b6040518082600760200280838360005b838110156107a1578082015181840152602081019050610786565b5050505090500191505060405180910390f35b34156107bf57600080fd5b6107c7611545565b604051808273ffffffffffffffffffffffffffffffffffffffff1673ffffffffffffffffffffffffffffffffffffffff16815260200191505060405180910390f35b341561081457600080fd5b61084d600480803573ffffffffffffffffffffffffffffffffffffffff169060200190919080356000191690602001909190505061156b565b005b341561085a57600080fd5b610862611635565b604051808273ffffffffffffffffffffffffffffffffffffffff1673ffffffffffffffffffffffffffffffffffffffff16815260200191505060405180910390f35b34156108af57600080fd5b6108e4600480803573ffffffffffffffffffffffffffffffffffffffff1690602001909190803590602001909190505061165b565b604051808215151515815260200191505060405180910390f35b341561090957600080fd5b610935600480803573ffffffffffffffffffffffffffffffffffffffff16906020019091905050611927565b6040518082815260200191505060405180910390f35b341561095657600080fd5b61095e611970565b6040518082815260200191505060405180910390f35b341561097f57600080fd5b610a16600480803573ffffffffffffffffffffffffffffffffffffffff1690602001909190803573ffffffffffffffffffffffffffffffffffffffff1690602001909190803590602001909190803590602001908201803590602001908080601f01602080910402602001604051908101604052809392919081815260200183838082843782019150505050505091905050611976565b005b3415610a2357600080fd5b610a2b611991565b6040518082815260200191505060405180910390f35b3415610a4c57600080fd5b610a54611997565b6040518082815260200191505060405180910390f35b3415610a7557600080fd5b610aaa600480803573ffffffffffffffffffffffffffffffffffffffff1690602001909190803590602001909190505061199d565b005b3415610ab757600080fd5b610abf611db1565b6040518080602001828103825283818151815260200191508051906020019080838360005b83811015610aff578082015181840152602081019050610ae4565b50505050905090810190601f168015610b2c5780820380516001836020036101000a031916815260200191505b509250505060405180910390f35b3415610b4557600080fd5b610bb1600480803573ffffffffffffffffffffffffffffffffffffffff1690602001909190803590602001908201803590602001908080602002602001604051908101604052809392919081815260200183836020028082843782019150505050505091905050611e4f565b005b3415610bbe57600080fd5b610bd46004808035906020019091905050611f23565b005b3415610be157600080fd5b610c1f600480803573ffffffffffffffffffffffffffffffffffffffff16906020019091908035906020019091908035906020019091905050611fcd565b6040518082815260200191505060405180910390f35b3415610c4057600080fd5b610c4861217a565b6040518082815260200191505060405180910390f35b3415610c6957600080fd5b610c9e600480803573ffffffffffffffffffffffffffffffffffffffff16906020019091908035906020019091905050612180565b604051808215151515815260200191505060405180910390f35b3415610cc357600080fd5b610d0c600480803573ffffffffffffffffffffffffffffffffffffffff1690602001909190803590602001909190803590602001908201803590602001919091929050506121b1565b005b3415610d1957600080fd5b610d21612289565b6040518082815260200191505060405180910390f35b3415610d4257600080fd5b610d80600480803573ffffffffffffffffffffffffffffffffffffffff1690602001909190803590602001909190803590602001909190505061228f565b005b3415610d8d57600080fd5b610db560048080359060200190919080359060200190919080359060200190919050506124cd565b005b3415610dc257600080fd5b610e14600480803573ffffffffffffffffffffffffffffffffffffffff1690602001909190803590602001909190803590602001909190803590602001908201803590602001919091929050506125c6565b005b3415610e2157600080fd5b610e3760048080359060200190919050506126e2565b005b3415610e4457600080fd5b610e79600480803573ffffffffffffffffffffffffffffffffffffffff1690602001909190803590602001909190505061279c565b604051808215151515815260200191505060405180910390f35b3415610e9e57600080fd5b610ee9600480803573ffffffffffffffffffffffffffffffffffffffff1690602001909190803573ffffffffffffffffffffffffffffffffffffffff169060200190919050506127b1565b6040518082815260200191505060405180910390f35b3415610f0a57600080fd5b610f43600480803573ffffffffffffffffffffffffffffffffffffffff1690602001909190803560001916906020019091905050612838565b005b3415610f5057600080fd5b610f81600480803590602001909190803590602001909190803590602001909190803590602001909190505061298e565b005b3415610f8e57600080fd5b610fd7600480803573ffffffffffffffffffffffffffffffffffffffff169060200190919080359060200190919080359060200190820180359060200191909192905050612a99565b005b7f4e6f4665655472616e73666572436f6e747261637473000000000000000000006000803373ffffffffffffffffffffffffffffffffffffffff1673ffffffffffffffffffffffffffffffffffffffff1681526020019081526020016000206000826000191660001916815260200190815260200160002060009054906101000a900460ff16151561106a57600080fd5b611078858585856000612ae6565b5050505050565b600f5481565b60018054600181600116156101000203166002900480601f01602080910402602001604051908101604052809291908181526020018280546001816001161561010002031660029004801561111b5780601f106110f05761010080835404028352916020019161111b565b820191906000526020600020905b8154815290600101906020018083116110fe57829003601f168201915b505050505081565b6000808373ffffffffffffffffffffffffffffffffffffffff161415151561114a57600080fd5b8273ffffffffffffffffffffffffffffffffffffffff163373ffffffffffffffffffffffffffffffffffffffff161415151561118557600080fd5b81600760003373ffffffffffffffffffffffffffffffffffffffff1673ffffffffffffffffffffffffffffffffffffffff16815260200190815260200160002060008573ffffffffffffffffffffffffffffffffffffffff1673ffffffffffffffffffffffffffffffffffffffff168152602001908152602001600020819055508273ffffffffffffffffffffffffffffffffffffffff163373ffffffffffffffffffffffffffffffffffffffff167f8c5be1e5ebec7d5bd14f71427d1e84f3dd0314c0f7b2291e5b200ac8c7c3b925846040518082815260200191505060405180910390a36001905092915050565b60008082519150600090505b818110156112b7576112aa84848381518110151561129b57fe5b9060200190602002015161156b565b8080600101915050611281565b50505050565b60055481565b6000803373ffffffffffffffffffffffffffffffffffffffff1673ffffffffffffffffffffffffffffffffffffffff16815260200190815260200160002060007f4c6f636b6572436f6e747261637473000000000000000000000000000000000060001916815260200190815260200160002060009054906101000a900460ff16151561134f57600080fd5b61136481600f54612d6d90919063ffffffff16565b600f8190555050565b6000611394848484602060405190810160405280600081525061138f87612d89565b612ae6565b600190509392505050565b60066020528060005260406000206000915090505481565b600460009054906101000a900460ff1681565b60035481565b60105481565b7f4d6f6e6574617279426f617264000000000000000000000000000000000000006000803373ffffffffffffffffffffffffffffffffffffffff1673ffffffffffffffffffffffffffffffffffffffff1681526020019081526020016000206000826000191660001916815260200190815260200160002060009054906101000a900460ff16151561146757600080fd5b61147c82600d54612d6d90919063ffffffff16565b600d8190555061148c3083612df6565b5050565b60125481565b600e5481565b600d5481565b60006020528160005260406000206020528060005260406000206000915091509054906101000a900460ff1681565b6007602052816000526040600020602052806000526040600020600091509150505481565b6114fe613704565b60e060405190810160405280600a548152602001600b548152602001600c548152602001601054815260200160115481526020016012548152602001601354815250905090565b600960009054906101000a900473ffffffffffffffffffffffffffffffffffffffff1681565b60008060008473ffffffffffffffffffffffffffffffffffffffff1673ffffffffffffffffffffffffffffffffffffffff1681526020019081526020016000206000836000191660001916815260200190815260200160002060006101000a81548160ff0219169083151502179055508173ffffffffffffffffffffffffffffffffffffffff167f789770131846de4d1f28418f0f957cdf4fcabe5eccf70067083e20ecece69a348260405180826000191660001916815260200191505060405180910390a25050565b600860009054906101000a900473ffffffffffffffffffffffffffffffffffffffff1681565b6000808373ffffffffffffffffffffffffffffffffffffffff163373ffffffffffffffffffffffffffffffffffffffff161415151561169957600080fd5b600760003373ffffffffffffffffffffffffffffffffffffffff1673ffffffffffffffffffffffffffffffffffffffff16815260200190815260200160002060008573ffffffffffffffffffffffffffffffffffffffff1673ffffffffffffffffffffffffffffffffffffffff168152602001908152602001600020549050808311156117a7576000600760003373ffffffffffffffffffffffffffffffffffffffff1673ffffffffffffffffffffffffffffffffffffffff16815260200190815260200160002060008673ffffffffffffffffffffffffffffffffffffffff1673ffffffffffffffffffffffffffffffffffffffff1681526020019081526020016000208190555061183b565b6117ba8382612d6d90919063ffffffff16565b600760003373ffffffffffffffffffffffffffffffffffffffff1673ffffffffffffffffffffffffffffffffffffffff16815260200190815260200160002060008673ffffffffffffffffffffffffffffffffffffffff1673ffffffffffffffffffffffffffffffffffffffff168152602001908152602001600020819055505b8373ffffffffffffffffffffffffffffffffffffffff163373ffffffffffffffffffffffffffffffffffffffff167f8c5be1e5ebec7d5bd14f71427d1e84f3dd0314c0f7b2291e5b200ac8c7c3b925600760003373ffffffffffffffffffffffffffffffffffffffff1673ffffffffffffffffffffffffffffffffffffffff16815260200190815260200160002060008873ffffffffffffffffffffffffffffffffffffffff1673ffffffffffffffffffffffffffffffffffffffff168152602001908152602001600020546040518082815260200191505060405180910390a3600191505092915050565b6000600660008373ffffffffffffffffffffffffffffffffffffffff1673ffffffffffffffffffffffffffffffffffffffff168152602001908152602001600020549050919050565b600c5481565b61198b8484848461198687612d89565b612ae6565b50505050565b600a5481565b60135481565b60008060008060008060008873ffffffffffffffffffffffffffffffffffffffff1673ffffffffffffffffffffffffffffffffffffffff16815260200190815260200160002060007f4c6f616e4d616e61676572436f6e74726163747300000000000000000000000060001916815260200190815260200160002060009054906101000a900460ff161515611a3157600080fd5b8694508473ffffffffffffffffffffffffffffffffffffffff1663e1ec3c6887600060405161014001526040518263ffffffff167c01000000000000000000000000000000000000000000000000000000000281526004018082815260200191505061014060405180830381600087803b1515611aad57600080fd5b6102c65a03f11515611abe57600080fd5b5050506040518051906020018051906020018051906020018051906020018051906020018051906020018051906020018051906020018051906020018051905050505050955095509550505093503373ffffffffffffffffffffffffffffffffffffffff168473ffffffffffffffffffffffffffffffffffffffff16141515611b4657600080fd5b611b5b83600e54612d6d90919063ffffffff16565b600e81905550611ba43330856040805190810160405280600e81526020017f4c6f616e2072657061796d656e740000000000000000000000000000000000008152506000612efa565b611bae3083612df6565b6000811115611d2657611c0981600660003073ffffffffffffffffffffffffffffffffffffffff1673ffffffffffffffffffffffffffffffffffffffff16815260200190815260200160002054612d6d90919063ffffffff16565b600660003073ffffffffffffffffffffffffffffffffffffffff1673ffffffffffffffffffffffffffffffffffffffff16815260200190815260200160002081905550611cc08160066000600960009054906101000a900473ffffffffffffffffffffffffffffffffffffffff1673ffffffffffffffffffffffffffffffffffffffff1673ffffffffffffffffffffffffffffffffffffffff1681526020019081526020016000205461335a90919063ffffffff16565b60066000600960009054906101000a900473ffffffffffffffffffffffffffffffffffffffff1673ffffffffffffffffffffffffffffffffffffffff1673ffffffffffffffffffffffffffffffffffffffff168152602001908152602001600020819055505b8473ffffffffffffffffffffffffffffffffffffffff166339007b77876040518263ffffffff167c010000000000000000000000000000000000000000000000000000000002815260040180828152602001915050600060405180830381600087803b1515611d9457600080fd5b6102c65a03f11515611da557600080fd5b50505050505050505050565b60028054600181600116156101000203166002900480601f016020809104026020016040519081016040528092919081815260200182805460018160011615610100020316600290048015611e475780601f10611e1c57610100808354040283529160200191611e47565b820191906000526020600020905b815481529060010190602001808311611e2a57829003601f168201915b505050505081565b6000806000803373ffffffffffffffffffffffffffffffffffffffff1673ffffffffffffffffffffffffffffffffffffffff16815260200190815260200160002060007f4d6f6e6574617279426f6172640000000000000000000000000000000000000060001916815260200190815260200160002060009054906101000a900460ff161515611ede57600080fd5b82519150600090505b81811015611f1d57611f10848483815181101515611f0157fe5b90602001906020020151612838565b8080600101915050611ee7565b50505050565b6000803373ffffffffffffffffffffffffffffffffffffffff1673ffffffffffffffffffffffffffffffffffffffff16815260200190815260200160002060007f4c6f616e4d616e61676572436f6e74726163747300000000000000000000000060001916815260200190815260200160002060009054906101000a900460ff161515611faf57600080fd5b611fc481600e54612d6d90919063ffffffff16565b600e8190555050565b6000806000808673ffffffffffffffffffffffffffffffffffffffff1673ffffffffffffffffffffffffffffffffffffffff16815260200190815260200160002060007f45786368616e6765436f6e74726163747300000000000000000000000000000060001916815260200190815260200160002060009054906101000a900460ff16151561205c57600080fd5b8490506120a23386856040805190810160405280601781526020017f53656c6c20746f6b656e206f7264657220706c616365640000000000000000008152506000612efa565b8073ffffffffffffffffffffffffffffffffffffffff1663f7e8953b3386866000604051602001526040518463ffffffff167c0100000000000000000000000000000000000000000000000000000000028152600401808473ffffffffffffffffffffffffffffffffffffffff1673ffffffffffffffffffffffffffffffffffffffff1681526020018381526020018281526020019350505050602060405180830381600087803b151561215557600080fd5b6102c65a03f1151561216657600080fd5b505050604051805190509150509392505050565b600b5481565b60006121a733848460206040519081016040528060008152506121a287612d89565b612efa565b6001905092915050565b7f4e6f4665655472616e73666572436f6e747261637473000000000000000000006000803373ffffffffffffffffffffffffffffffffffffffff1673ffffffffffffffffffffffffffffffffffffffff1681526020019081526020016000206000826000191660001916815260200190815260200160002060009054906101000a900460ff16151561224257600080fd5b61228233868686868080601f0160208091040260200160405190810160405280939291908181526020018383808284378201915050505050506000612efa565b5050505050565b60115481565b6000806000808673ffffffffffffffffffffffffffffffffffffffff1673ffffffffffffffffffffffffffffffffffffffff16815260200190815260200160002060007f4c6f636b6572436f6e747261637473000000000000000000000000000000000060001916815260200190815260200160002060009054906101000a900460ff16151561231e57600080fd5b8491508173ffffffffffffffffffffffffffffffffffffffff1663f551de6c8533866000604051602001526040518463ffffffff167c0100000000000000000000000000000000000000000000000000000000028152600401808481526020018373ffffffffffffffffffffffffffffffffffffffff1673ffffffffffffffffffffffffffffffffffffffff1681526020018281526020019350505050602060405180830381600087803b15156123d457600080fd5b6102c65a03f115156123e557600080fd5b5050506040518051905090506124188161240a85600f5461335a90919063ffffffff16565b61335a90919063ffffffff16565b600f819055506124613383856040805190810160405280600c81526020017f46756e6473206c6f636b656400000000000000000000000000000000000000008152506000612efa565b6124c6600960009054906101000a900473ffffffffffffffffffffffffffffffffffffffff1683836040805190810160405280601481526020017f416363727565206c6f636b20696e7465726573740000000000000000000000008152506000612efa565b5050505050565b7f4d6f6e6574617279426f617264000000000000000000000000000000000000006000803373ffffffffffffffffffffffffffffffffffffffff1673ffffffffffffffffffffffffffffffffffffffff1681526020019081526020016000206000826000191660001916815260200190815260200160002060009054906101000a900460ff16151561255e57600080fd5b83600a8190555082600b8190555081600c819055507fd987a3acde40f231f760d7c3d2907c83d26bca5aededafbeefba5619b5955d71600a54600b54600c5460405180848152602001838152602001828152602001935050505060405180910390a150505050565b7f4c6f616e4d616e61676572436f6e7472616374730000000000000000000000006000803373ffffffffffffffffffffffffffffffffffffffff1673ffffffffffffffffffffffffffffffffffffffff1681526020019081526020016000206000826000191660001916815260200190815260200160002060009054906101000a900460ff16151561265757600080fd5b60008511151561266657600080fd5b60008411151561267557600080fd5b61268a84600e5461335a90919063ffffffff16565b600e8190555061269a308661337b565b6126da30878786868080601f0160208091040260200160405190810160405280939291908181526020018383808284378201915050505050506000612efa565b505050505050565b7f4d6f6e6574617279426f617264000000000000000000000000000000000000006000803373ffffffffffffffffffffffffffffffffffffffff1673ffffffffffffffffffffffffffffffffffffffff1681526020019081526020016000206000826000191660001916815260200190815260200160002060009054906101000a900460ff16151561277357600080fd5b61278882600d5461335a90919063ffffffff16565b600d81905550612798308361337b565b5050565b60006127a933848461347f565b905092915050565b6000600760008473ffffffffffffffffffffffffffffffffffffffff1673ffffffffffffffffffffffffffffffffffffffff16815260200190815260200160002060008373ffffffffffffffffffffffffffffffffffffffff1673ffffffffffffffffffffffffffffffffffffffff16815260200190815260200160002054905092915050565b6000803373ffffffffffffffffffffffffffffffffffffffff1673ffffffffffffffffffffffffffffffffffffffff16815260200190815260200160002060007f4d6f6e6574617279426f6172640000000000000000000000000000000000000060001916815260200190815260200160002060009054906101000a900460ff1615156128c457600080fd5b60016000808473ffffffffffffffffffffffffffffffffffffffff1673ffffffffffffffffffffffffffffffffffffffff1681526020019081526020016000206000836000191660001916815260200190815260200160002060006101000a81548160ff0219169083151502179055508173ffffffffffffffffffffffffffffffffffffffff167fc65937e3dbcb9fb30f646815dd67a3dbd09ba17718cbcb54efbe3635f8e0a6fe8260405180826000191660001916815260200191505060405180910390a25050565b7f4d6f6e6574617279426f617264000000000000000000000000000000000000006000803373ffffffffffffffffffffffffffffffffffffffff1673ffffffffffffffffffffffffffffffffffffffff1681526020019081526020016000206000826000191660001916815260200190815260200160002060009054906101000a900460ff161515612a1f57600080fd5b846010819055508360118190555082601281905550816013819055507fa9bf431be023407f43a2b3ce72a229c859965fc3e711d398f966041b696b47e96010546011546012546013546040518085815260200184815260200183815260200182815260200194505050505060405180910390a15050505050565b612ae033858585858080601f016020809104026020016040519081016040528093929190818152602001838380828437820191505050505050612adb88612d89565b612efa565b50505050565b82600660008773ffffffffffffffffffffffffffffffffffffffff1673ffffffffffffffffffffffffffffffffffffffff1681526020019081526020016000205410151515612b3457600080fd5b82600760008773ffffffffffffffffffffffffffffffffffffffff1673ffffffffffffffffffffffffffffffffffffffff16815260200190815260200160002060003373ffffffffffffffffffffffffffffffffffffffff1673ffffffffffffffffffffffffffffffffffffffff1681526020019081526020016000205410151515612bbf57600080fd5b6000600760008773ffffffffffffffffffffffffffffffffffffffff1673ffffffffffffffffffffffffffffffffffffffff16815260200190815260200160002060003373ffffffffffffffffffffffffffffffffffffffff1673ffffffffffffffffffffffffffffffffffffffff16815260200190815260200160002054111515612c4a57600080fd5b612c578585858585612efa565b612ce683600760008873ffffffffffffffffffffffffffffffffffffffff1673ffffffffffffffffffffffffffffffffffffffff16815260200190815260200160002060003373ffffffffffffffffffffffffffffffffffffffff1673ffffffffffffffffffffffffffffffffffffffff16815260200190815260200160002054612d6d90919063ffffffff16565b600760008773ffffffffffffffffffffffffffffffffffffffff1673ffffffffffffffffffffffffffffffffffffffff16815260200190815260200160002060003373ffffffffffffffffffffffffffffffffffffffff1673ffffffffffffffffffffffffffffffffffffffff168152602001908152602001600020819055505050505050565b6000828211151515612d7e57600080fd5b818303905092915050565b600080821115612dc457612dbd620f4240612daf600a54856136b390919063ffffffff16565b6136e990919063ffffffff16565b9050612dc9565b600090505b600c54811115612ddd57600c549050612dee565b600b54811015612ded57600b5490505b5b809050919050565b612e4881600660008573ffffffffffffffffffffffffffffffffffffffff1673ffffffffffffffffffffffffffffffffffffffff16815260200190815260200160002054612d6d90919063ffffffff16565b600660008473ffffffffffffffffffffffffffffffffffffffff1673ffffffffffffffffffffffffffffffffffffffff16815260200190815260200160002081905550612ea081600554612d6d90919063ffffffff16565b60058190555060008273ffffffffffffffffffffffffffffffffffffffff167fddf252ad1be2c89b69c2b068fc378daa952ba7f163c4a11628f55a4df523b3ef836040518082815260200191505060405180910390a35050565b60008473ffffffffffffffffffffffffffffffffffffffff1614151515612f2057600080fd5b8373ffffffffffffffffffffffffffffffffffffffff168573ffffffffffffffffffffffffffffffffffffffff1614151515612f5b57600080fd5b60008111156130e957612fd88160066000600860009054906101000a900473ffffffffffffffffffffffffffffffffffffffff1673ffffffffffffffffffffffffffffffffffffffff1673ffffffffffffffffffffffffffffffffffffffff1681526020019081526020016000205461335a90919063ffffffff16565b60066000600860009054906101000a900473ffffffffffffffffffffffffffffffffffffffff1673ffffffffffffffffffffffffffffffffffffffff1673ffffffffffffffffffffffffffffffffffffffff168152602001908152602001600020819055506130a18161309385600660008a73ffffffffffffffffffffffffffffffffffffffff1673ffffffffffffffffffffffffffffffffffffffff16815260200190815260200160002054612d6d90919063ffffffff16565b612d6d90919063ffffffff16565b600660008773ffffffffffffffffffffffffffffffffffffffff1673ffffffffffffffffffffffffffffffffffffffff1681526020019081526020016000208190555061317f565b61313b83600660008873ffffffffffffffffffffffffffffffffffffffff1673ffffffffffffffffffffffffffffffffffffffff16815260200190815260200160002054612d6d90919063ffffffff16565b600660008773ffffffffffffffffffffffffffffffffffffffff1673ffffffffffffffffffffffffffffffffffffffff168152602001908152602001600020819055505b6131d183600660008773ffffffffffffffffffffffffffffffffffffffff1673ffffffffffffffffffffffffffffffffffffffff1681526020019081526020016000205461335a90919063ffffffff16565b600660008673ffffffffffffffffffffffffffffffffffffffff1673ffffffffffffffffffffffffffffffffffffffff168152602001908152602001600020819055508373ffffffffffffffffffffffffffffffffffffffff168573ffffffffffffffffffffffffffffffffffffffff167fddf252ad1be2c89b69c2b068fc378daa952ba7f163c4a11628f55a4df523b3ef856040518082815260200191505060405180910390a38373ffffffffffffffffffffffffffffffffffffffff168573ffffffffffffffffffffffffffffffffffffffff167f3c37a37469220e9bdcb1e8083efdcac8373f1448f59b5c4b23ebe3a0723642b28585856040518084815260200180602001838152602001828103825284818151815260200191508051906020019080838360005b838110156133175780820151818401526020810190506132fc565b50505050905090810190601f1680156133445780820380516001836020036101000a031916815260200191505b5094505050505060405180910390a35050505050565b600080828401905083811015151561337157600080fd5b8091505092915050565b6133cd81600660008573ffffffffffffffffffffffffffffffffffffffff1673ffffffffffffffffffffffffffffffffffffffff1681526020019081526020016000205461335a90919063ffffffff16565b600660008473ffffffffffffffffffffffffffffffffffffffff1673ffffffffffffffffffffffffffffffffffffffff168152602001908152602001600020819055506134258160055461335a90919063ffffffff16565b6005819055508173ffffffffffffffffffffffffffffffffffffffff1660007fddf252ad1be2c89b69c2b068fc378daa952ba7f163c4a11628f55a4df523b3ef836040518082815260200191505060405180910390a35050565b60008273ffffffffffffffffffffffffffffffffffffffff168473ffffffffffffffffffffffffffffffffffffffff16141515156134bc57600080fd5b61354b82600760008773ffffffffffffffffffffffffffffffffffffffff1673ffffffffffffffffffffffffffffffffffffffff16815260200190815260200160002060008673ffffffffffffffffffffffffffffffffffffffff1673ffffffffffffffffffffffffffffffffffffffff1681526020019081526020016000205461335a90919063ffffffff16565b600760008673ffffffffffffffffffffffffffffffffffffffff1673ffffffffffffffffffffffffffffffffffffffff16815260200190815260200160002060008573ffffffffffffffffffffffffffffffffffffffff1673ffffffffffffffffffffffffffffffffffffffff168152602001908152602001600020819055508273ffffffffffffffffffffffffffffffffffffffff168473ffffffffffffffffffffffffffffffffffffffff167f8c5be1e5ebec7d5bd14f71427d1e84f3dd0314c0f7b2291e5b200ac8c7c3b925600760008873ffffffffffffffffffffffffffffffffffffffff1673ffffffffffffffffffffffffffffffffffffffff16815260200190815260200160002060008773ffffffffffffffffffffffffffffffffffffffff1673ffffffffffffffffffffffffffffffffffffffff168152602001908152602001600020546040518082815260200191505060405180910390a39392505050565b600080828402905060008414806136d457508284828115156136d157fe5b04145b15156136df57600080fd5b8091505092915050565b60008082848115156136f757fe5b0490508091505092915050565b60e0604051908101604052806007905b600081526020019060019003908161371457905050905600a165627a7a72305820be3defff1be06b4d8025241c750e1ae68f32b16f4a3663322dba42b0ff03c7570029",
  "source": "/* Generic Augmint Token implementation (ERC20 token)\n    This contract manages:\n        * Balances of Augmint holders and transactions between them\n        * Issues and burns tokens when loan issued or repaid\n        * Holds reserves:\n            - ETH as regular ETH balance of the contract\n            - ERC20 token reserve (stored as regular Token balance under the contract address)\n\n        Note that all reserves are held under the contract address,\n          therefore any transaction on the reserve is limited to the tx-s defined here\n          (ie. transfer of reserve is not possible by the contract owner)\n    TODO: ERC20 short address attack protection? https://github.com/DecentLabs/dcm-poc/issues/62\n    TODO: create a LockerInterface and use that instead of Locker.sol ?\n*/\npragma solidity 0.4.19;\nimport \"../interfaces/AugmintTokenInterface.sol\";\nimport \"../interfaces/LoanManagerInterface.sol\";\nimport \"../interfaces/ExchangeInterface.sol\";\nimport \"../Locker.sol\";\n\n\ncontract AugmintToken is AugmintTokenInterface {\n\n    address public feeAccount;\n    address public interestEarnedAccount;\n    uint public transferFeePt; // in parts per million (ppm) , ie. 2,000 = 0.2%\n    uint public transferFeeMin; // with base unit of augmint token, eg. 4 decimals for token, eg. 31000 = 3.1 ACE\n    uint public transferFeeMax; // with base unit of augmint token, eg. 4 decimals for token, eg. 31000 = 3.1 ACE\n\n    uint public issuedByMonetaryBoard; // supply issued manually by monetary board\n\n    uint public totalLoanAmount; // total amount of all loans with interest, in token\n    uint public totalLockedAmount; // total amount of all locks with interest, in token\n    uint public loanToDepositLockLimit; // in ppm - don't allow new lock if ratio would go BELOW with new lock\n    uint public loanToDepositLoanLimit; // in ppm - don't allow new loan if ratio would go ABOVE with new loan\n\n    // Parameters Used to avoid system halt when there totalLoanAmount or totalLockedAmount is 0 or very low.\n    uint public lockNoLimitAllowance;   // in token - if totalLockAmount is below this then a new lock is allowed\n                                        // up to this amount even if it will bring the loanToDepositRatio BELOW\n                                        // loanToDepositLoanLimit\n                                        // (interest earned account balance still applies a limit on top of it)\n    uint public loanNoLimitAllowance;   // in token - if totalLoanAmount is below this then a new loan is allowed\n                                        // up this amount even if it will bring the loanToDepositRatio\n                                        // ABOVE loanToDepositLoanLimit\n\n\n    event TransferFeesChanged(uint transferFeePt, uint transferFeeMin, uint transferFeeMax);\n\n    event LoanToDepositLimitsChanged(uint loanToDepositLockLimit, uint loanToDepositLoanLimit);\n\n    event LoanAndLockParamsChanged(uint loanToDepositLockLimit, uint loanToDepositLoanLimit,\n                                    uint lockNoLimitAllowance, uint loanNoLimitAllowance);\n\n    function AugmintToken(string _name, string _symbol, bytes32 _peggedSymbol, uint8 _decimals, address _feeAccount,\n        address _interestEarnedAccount, uint _transferFeePt, uint _transferFeeMin, uint _transferFeeMax,\n        uint _loanToDepositLockLimit, uint _loanToDepositLoanLimit,\n        uint _lockNoLimitAllowance, uint _loanNoLimitAllowance) public {\n\n        require(_feeAccount != address(0));\n        require(_interestEarnedAccount != address(0));\n        require(bytes(_name).length > 0);\n        name = _name;\n        symbol = _symbol;\n        peggedSymbol = _peggedSymbol;\n        decimals = _decimals;\n        feeAccount = _feeAccount;\n        interestEarnedAccount = _interestEarnedAccount;\n        transferFeePt = _transferFeePt;\n        transferFeeMin = _transferFeeMin;\n        transferFeeMax = _transferFeeMax;\n        loanToDepositLockLimit = _loanToDepositLockLimit;\n        loanToDepositLoanLimit = _loanToDepositLoanLimit;\n        lockNoLimitAllowance = _lockNoLimitAllowance;\n        loanNoLimitAllowance = _loanNoLimitAllowance;\n    }\n\n    function () public payable { // solhint-disable-line no-empty-blocks\n        // to accept ETH sent into reserve (from defaulted loan's collateral )\n    }\n\n    // Issue tokens to Reserve\n    function issue(uint amount) external restrict(\"MonetaryBoard\") {\n        issuedByMonetaryBoard = issuedByMonetaryBoard.add(amount);\n        _issue(this, amount);\n    }\n\n    // Burn tokens from Reserve\n    function burn(uint amount) external restrict(\"MonetaryBoard\") {\n        issuedByMonetaryBoard = issuedByMonetaryBoard.sub(amount);\n        _burn(this, amount);\n    }\n\n    function lockFunds(address lockerAddress, uint lockProductId, uint amountToLock) external {\n        require(permissions[lockerAddress][\"LockerContracts\"]); // only whitelisted LockerContracts\n\n        // NB: locker.createLock will validate lockProductId and amountToLock:\n        Locker locker = Locker(lockerAddress);\n        uint interestEarnedAmount = locker.createLock(lockProductId, msg.sender, amountToLock);\n        totalLockedAmount = totalLockedAmount.add(amountToLock).add(interestEarnedAmount);\n\n        _transfer(msg.sender, address(locker), amountToLock, \"Funds locked\", 0);\n        _transfer(interestEarnedAccount, address(locker), interestEarnedAmount, \"Accrue lock interest\", 0);\n\n    }\n\n    /* called by Locker.releaseFunds to maintain totalLockAmount */\n    function fundsReleased(uint releasedAmount) external {\n        require(permissions[msg.sender][\"LockerContracts\"]); // only whitelisted LockerContracts\n        totalLockedAmount = totalLockedAmount.sub(releasedAmount);\n    }\n\n    function issueAndDisburse(address borrower, uint loanAmount, uint repaymentAmount, string narrative)\n    external restrict(\"LoanManagerContracts\") {\n        require(loanAmount > 0);\n        require(repaymentAmount > 0);\n        totalLoanAmount = totalLoanAmount.add(repaymentAmount);\n        _issue(this, loanAmount);\n        _transfer(this, borrower, loanAmount, narrative, 0);\n    }\n\n    /* Users must repay through AugmintToken.repayLoan()*/\n    function repayLoan(address _loanManager, uint loanId) external {\n        require(permissions[_loanManager][\"LoanManagerContracts\"]); // only whitelisted loanManagers\n        LoanManagerInterface loanManager = LoanManagerInterface(_loanManager);\n        // solhint-disable-next-line space-after-comma\n        var (borrower, , , repaymentAmount , loanAmount, interestAmount, ) = loanManager.loans(loanId);\n        require(borrower == msg.sender);\n\n        totalLoanAmount = totalLoanAmount.sub(repaymentAmount);\n        _transfer(msg.sender, this, repaymentAmount, \"Loan repayment\", 0);\n        _burn(this, loanAmount);\n        if (interestAmount > 0) {\n            // transfer interestAmount to InterestEarnedAccount (internal transfer, no need for Transfer events)\n            balances[this] = balances[this].sub(interestAmount);\n            balances[interestEarnedAccount] = balances[interestEarnedAccount].add(interestAmount);\n        }\n        loanManager.releaseCollateral(loanId);\n    }\n\n    /* called by LoanManager.collect to maintain totalLoanAmount */\n    function loanCollected(uint repaymentAmount) external {\n        require(permissions[msg.sender][\"LoanManagerContracts\"]); // only whitelisted loanManagers\n        totalLoanAmount = totalLoanAmount.sub(repaymentAmount);\n    }\n\n    /* convenience function - alternative to Exchange.placeSellTokenOrder without approval required */\n    function placeSellTokenOrderOnExchange(address _exchange, uint price, uint tokenAmount)\n    external returns (uint sellTokenOrderId) {\n        require(permissions[_exchange][\"ExchangeContracts\"]); // only whitelisted exchanges\n        ExchangeInterface exchange = ExchangeInterface(_exchange);\n        _transfer(msg.sender, _exchange, tokenAmount, \"Sell token order placed\", 0);\n        return exchange.placeSellTokenOrderTrusted(msg.sender, price, tokenAmount);\n    }\n\n    function transferWithNarrative(address _to, uint256 _amount, string _narrative) external {\n        _transfer(msg.sender, _to, _amount, _narrative, getFee(_amount));\n    }\n\n    function transferNoFee(address _to, uint256 _amount, string _narrative)\n    external restrict(\"NoFeeTransferContracts\") {\n        _transfer(msg.sender, _to, _amount, _narrative, 0);\n    }\n\n    function setTransferFees(uint _transferFeePt, uint _transferFeeMin, uint _transferFeeMax)\n    external restrict(\"MonetaryBoard\") {\n        transferFeePt = _transferFeePt;\n        transferFeeMin = _transferFeeMin;\n        transferFeeMax = _transferFeeMax;\n        TransferFeesChanged(transferFeePt, transferFeeMin, transferFeeMax);\n    }\n\n    function setLoanAndLockParams(uint _loanToDepositLockLimit, uint _loanToDepositLoanLimit,\n                                    uint _lockNoLimitAllowance, uint _loanNoLimitAllowance)\n    external restrict(\"MonetaryBoard\") {\n        loanToDepositLockLimit = _loanToDepositLockLimit;\n        loanToDepositLoanLimit = _loanToDepositLoanLimit;\n        lockNoLimitAllowance = _lockNoLimitAllowance;\n        loanNoLimitAllowance = _loanNoLimitAllowance;\n        LoanAndLockParamsChanged(loanToDepositLockLimit, loanToDepositLoanLimit,\n                                    lockNoLimitAllowance, loanNoLimitAllowance);\n    }\n\n    /* helper function for FrontEnd to reduce calls */\n    function getParams() external view returns(uint[7]) {\n        return [transferFeePt, transferFeeMin, transferFeeMax,\n                loanToDepositLockLimit, loanToDepositLoanLimit, lockNoLimitAllowance, loanNoLimitAllowance];\n    }\n\n    function balanceOf(address _owner) public view returns (uint256 balance) {\n        return balances[_owner];\n    }\n\n    function allowance(address _owner, address _spender) public view returns (uint256 remaining) {\n        return allowed[_owner][_spender];\n    }\n\n    function transfer(address _to, uint256 _amount) public returns (bool) {\n        _transfer(msg.sender, _to, _amount, \"\", getFee(_amount));\n        return true;\n    }\n\n    function approve(address _spender, uint256 _amount) public returns (bool) {\n        require(_spender != 0x0);\n        require(msg.sender != _spender); // no need to approve for myself. Makes client code simpler if we don't allow\n        allowed[msg.sender][_spender] = _amount;\n        Approval(msg.sender, _spender, _amount);\n        return true;\n    }\n\n    /**\n     ERC20 transferFrom attack protection: https://github.com/DecentLabs/dcm-poc/issues/57\n     approve should be called when allowed[_spender] == 0. To increment allowed value is better\n     to use this function to avoid 2 calls (and wait until the first transaction is mined)\n     Based on MonolithDAO Token.sol */\n    function increaseApproval(address _spender, uint _addedValue) public returns (bool) {\n        return _increaseApproval(msg.sender, _spender, _addedValue);\n    }\n\n    function decreaseApproval(address _spender, uint _subtractedValue) public returns (bool) {\n        require(msg.sender != _spender); // no need to approve for myself. Makes client code simpler if we don't allow\n        uint oldValue = allowed[msg.sender][_spender];\n        if (_subtractedValue > oldValue) {\n            allowed[msg.sender][_spender] = 0;\n        } else {\n            allowed[msg.sender][_spender] = oldValue.sub(_subtractedValue);\n        }\n        Approval(msg.sender, _spender, allowed[msg.sender][_spender]);\n        return true;\n    }\n\n    function transferFrom(address _from, address _to, uint256 _amount) public returns (bool) {\n        _transferFrom(_from, _to, _amount, \"\", getFee(_amount));\n        return true;\n    }\n\n    function transferFromWithNarrative(\n        address _from,\n        address _to,\n        uint256 _amount,\n        string _narrative\n    ) public {\n        _transferFrom(_from, _to, _amount, _narrative, getFee(_amount));\n    }\n\n    function transferFromNoFee(address _from, address _to, uint256 _amount, string _narrative)\n    public restrict(\"NoFeeTransferContracts\") {\n        _transferFrom(_from, _to, _amount, _narrative, 0);\n    }\n\n    function _increaseApproval(address _approver, address _spender, uint _addedValue) internal returns (bool) {\n        require(_approver != _spender); // no need to approve for myself. Makes client code simpler if we don't allow\n        allowed[_approver][_spender] = allowed[_approver][_spender].add(_addedValue);\n        Approval(_approver, _spender, allowed[_approver][_spender]);\n    }\n\n    function getFee(uint amount) internal view returns (uint256 fee) {\n        if (amount > 0) {\n            fee = amount.mul(transferFeePt).div(1000000);\n        } else {\n            fee = 0;\n        }\n        if (fee > transferFeeMax) {\n            fee = transferFeeMax;\n        } else if (fee < transferFeeMin) {\n            fee = transferFeeMin;\n        }\n        return fee;\n    }\n\n    function _transferFrom(address _from, address _to, uint256 _amount, string _narrative, uint _fee) private {\n        require(balances[_from] >= _amount);\n        require(allowed[_from][msg.sender] >= _amount);\n        require(allowed[_from][msg.sender] > 0); // don't allow 0 transferFrom if no approval\n\n        /* NB: fee is deducted from owner. It can result that transferFrom of amount x to fail\n                when x + fee is not availale on owner balance */\n        _transfer(_from, _to, _amount, _narrative, _fee);\n\n        allowed[_from][msg.sender] = allowed[_from][msg.sender].sub(_amount);\n    }\n\n    function _transfer(address _from, address _to, uint256 _amount, string narrative, uint _fee) private {\n        require(_to != 0x0);\n        require(_from != _to); // no need to send to myself. Makes client code simpler if we don't allow\n        if (_fee > 0) {\n            balances[feeAccount] = balances[feeAccount].add(_fee);\n            balances[_from] = balances[_from].sub(_amount).sub(_fee);\n        } else {\n            balances[_from] = balances[_from].sub(_amount);\n        }\n        balances[_to] = balances[_to].add(_amount);\n        Transfer(_from, _to, _amount);\n        AugmintTransfer(_from, _to, _amount, narrative, _fee);\n    }\n\n    function _burn(address from, uint amount) private {\n        balances[from] = balances[from].sub(amount);\n        totalSupply = totalSupply.sub(amount);\n        Transfer(from, 0x0, amount);\n    }\n\n    function _issue(address to, uint amount) private {\n        balances[to] = balances[to].add(amount);\n        totalSupply = totalSupply.add(amount);\n        Transfer(0x0, to, amount);\n    }\n}\n",
  "sourcePath": "/Users/petro/ether/augmint-contracts/contracts/generic/AugmintToken.sol",
  "compiler": {
    "name": "solc",
    "version": "0.4.19+commit.c4cbbb05.Emscripten.clang"
  },
  "schemaVersion": "1.0.1",
  "updatedAt": "2018-02-09T18:56:51.432Z"
}