{
  "contractName": "AugmintToken",
  "abi": [
    {
      "constant": false,
      "inputs": [
        {
          "name": "_from",
          "type": "address"
        },
        {
          "name": "_to",
          "type": "address"
        },
        {
          "name": "_amount",
          "type": "uint256"
        },
        {
          "name": "_narrative",
          "type": "string"
        }
      ],
      "name": "transferFromNoFee",
      "outputs": [],
      "payable": false,
      "stateMutability": "nonpayable",
      "type": "function"
    },
    {
      "constant": false,
      "inputs": [
        {
          "name": "_spender",
          "type": "address"
        },
        {
          "name": "_amount",
          "type": "uint256"
        }
      ],
      "name": "approve",
      "outputs": [],
      "payable": false,
      "stateMutability": "nonpayable",
      "type": "function"
    },
    {
      "constant": false,
      "inputs": [
        {
          "name": "agent",
          "type": "address"
        },
        {
          "name": "requiredPermissions",
          "type": "bytes32[]"
        }
      ],
      "name": "revokeMulitplePermissions",
      "outputs": [],
      "payable": false,
      "stateMutability": "nonpayable",
      "type": "function"
    },
    {
      "constant": false,
      "inputs": [
        {
          "name": "borrower",
          "type": "address"
        },
        {
          "name": "loanAmount",
          "type": "uint256"
        },
        {
          "name": "interestAmount",
          "type": "uint256"
        },
        {
          "name": "narrative",
          "type": "string"
        }
      ],
      "name": "newLoan",
      "outputs": [],
      "payable": false,
      "stateMutability": "nonpayable",
      "type": "function"
    },
    {
      "constant": true,
      "inputs": [],
      "name": "totalSupply",
      "outputs": [
        {
          "name": "",
          "type": "uint256"
        }
      ],
      "payable": false,
      "stateMutability": "view",
      "type": "function"
    },
    {
      "constant": false,
      "inputs": [
        {
          "name": "_from",
          "type": "address"
        },
        {
          "name": "_to",
          "type": "address"
        },
        {
          "name": "_amount",
          "type": "uint256"
        }
      ],
      "name": "transferFrom",
      "outputs": [],
      "payable": false,
      "stateMutability": "nonpayable",
      "type": "function"
    },
    {
      "constant": false,
      "inputs": [
        {
          "name": "newFeeAccount",
          "type": "address"
        },
        {
          "name": "newInteresPoolAccount",
          "type": "address"
        },
        {
          "name": "newInterestEarnedAccount",
          "type": "address"
        }
      ],
      "name": "setSystemAccounts",
      "outputs": [],
      "payable": false,
      "stateMutability": "nonpayable",
      "type": "function"
    },
    {
      "constant": true,
      "inputs": [
        {
          "name": "",
          "type": "address"
        }
      ],
      "name": "balances",
      "outputs": [
        {
          "name": "",
          "type": "uint256"
        }
      ],
      "payable": false,
      "stateMutability": "view",
      "type": "function"
    },
    {
      "constant": false,
      "inputs": [
        {
          "name": "amount",
          "type": "uint256"
        }
      ],
      "name": "burn",
      "outputs": [],
      "payable": false,
      "stateMutability": "nonpayable",
      "type": "function"
    },
    {
      "constant": true,
      "inputs": [
        {
          "name": "",
          "type": "address"
        },
        {
          "name": "",
          "type": "address"
        }
      ],
      "name": "allowed",
      "outputs": [
        {
          "name": "",
          "type": "uint256"
        }
      ],
      "payable": false,
      "stateMutability": "view",
      "type": "function"
    },
    {
      "constant": true,
      "inputs": [],
      "name": "interestEarnedAccount",
      "outputs": [
        {
          "name": "",
          "type": "address"
        }
      ],
      "payable": false,
      "stateMutability": "view",
      "type": "function"
    },
    {
      "constant": false,
      "inputs": [
        {
          "name": "agent",
          "type": "address"
        },
        {
          "name": "requiredPermission",
          "type": "bytes32"
        }
      ],
      "name": "revokePermission",
      "outputs": [],
      "payable": false,
      "stateMutability": "nonpayable",
      "type": "function"
    },
    {
      "constant": true,
      "inputs": [],
      "name": "feeAccount",
      "outputs": [
        {
          "name": "",
          "type": "address"
        }
      ],
      "payable": false,
      "stateMutability": "view",
      "type": "function"
    },
    {
      "constant": true,
      "inputs": [
        {
          "name": "_owner",
          "type": "address"
        }
      ],
      "name": "balanceOf",
      "outputs": [
        {
          "name": "balance",
          "type": "uint256"
        }
      ],
      "payable": false,
      "stateMutability": "view",
      "type": "function"
    },
    {
      "constant": true,
      "inputs": [],
      "name": "transferFeeMax",
      "outputs": [
        {
          "name": "",
          "type": "uint256"
        }
      ],
      "payable": false,
      "stateMutability": "view",
      "type": "function"
    },
    {
      "constant": false,
      "inputs": [
        {
          "name": "_from",
          "type": "address"
        },
        {
          "name": "_to",
          "type": "address"
        },
        {
          "name": "_amount",
          "type": "uint256"
        },
        {
          "name": "_narrative",
          "type": "string"
        }
      ],
      "name": "transferFromWithNarrative",
      "outputs": [],
      "payable": false,
      "stateMutability": "nonpayable",
      "type": "function"
    },
    {
      "constant": true,
      "inputs": [],
      "name": "transferFeePt",
      "outputs": [
        {
          "name": "",
          "type": "uint256"
        }
      ],
      "payable": false,
      "stateMutability": "view",
      "type": "function"
    },
    {
      "constant": true,
      "inputs": [],
      "name": "owner",
      "outputs": [
        {
          "name": "",
          "type": "address"
        }
      ],
      "payable": false,
      "stateMutability": "view",
      "type": "function"
    },
    {
      "constant": false,
      "inputs": [
        {
          "name": "agent",
          "type": "address"
        },
        {
          "name": "requiredPermissions",
          "type": "bytes32[]"
        }
      ],
      "name": "grantMultiplePermissions",
      "outputs": [],
      "payable": false,
      "stateMutability": "nonpayable",
      "type": "function"
    },
    {
      "constant": true,
      "inputs": [],
      "name": "interestPoolAccount",
      "outputs": [
        {
          "name": "",
          "type": "address"
        }
      ],
      "payable": false,
      "stateMutability": "view",
      "type": "function"
    },
    {
      "constant": true,
      "inputs": [],
      "name": "transferFeeMin",
      "outputs": [
        {
          "name": "",
          "type": "uint256"
        }
      ],
      "payable": false,
      "stateMutability": "view",
      "type": "function"
    },
    {
      "constant": false,
      "inputs": [
        {
          "name": "_to",
          "type": "address"
        },
        {
          "name": "_amount",
          "type": "uint256"
        }
      ],
      "name": "transfer",
      "outputs": [],
      "payable": false,
      "stateMutability": "nonpayable",
      "type": "function"
    },
    {
      "constant": false,
      "inputs": [
        {
          "name": "_from",
          "type": "address"
        },
        {
          "name": "_to",
          "type": "address"
        },
        {
          "name": "_amount",
          "type": "uint256"
        },
        {
          "name": "_narrative",
          "type": "string"
        }
      ],
      "name": "transferNoFee",
      "outputs": [],
      "payable": false,
      "stateMutability": "nonpayable",
      "type": "function"
    },
    {
      "constant": false,
      "inputs": [
        {
          "name": "_transferFeePt",
          "type": "uint256"
        },
        {
          "name": "_transferFeeMin",
          "type": "uint256"
        },
        {
          "name": "_transferFeeMax",
          "type": "uint256"
        }
      ],
      "name": "setTransferFees",
      "outputs": [],
      "payable": false,
      "stateMutability": "nonpayable",
      "type": "function"
    },
    {
      "constant": false,
      "inputs": [
        {
          "name": "amount",
          "type": "uint256"
        }
      ],
      "name": "issue",
      "outputs": [],
      "payable": false,
      "stateMutability": "nonpayable",
      "type": "function"
    },
    {
      "constant": true,
      "inputs": [
        {
          "name": "_owner",
          "type": "address"
        },
        {
          "name": "_spender",
          "type": "address"
        }
      ],
      "name": "allowance",
      "outputs": [
        {
          "name": "remaining",
          "type": "uint256"
        }
      ],
      "payable": false,
      "stateMutability": "view",
      "type": "function"
    },
    {
      "constant": false,
      "inputs": [
        {
          "name": "newOwner",
          "type": "address"
        }
      ],
      "name": "transferOwnership",
      "outputs": [],
      "payable": false,
      "stateMutability": "nonpayable",
      "type": "function"
    },
    {
      "constant": false,
      "inputs": [
        {
          "name": "agent",
          "type": "address"
        },
        {
          "name": "requiredPermission",
          "type": "bytes32"
        }
      ],
      "name": "grantPermission",
      "outputs": [],
      "payable": false,
      "stateMutability": "nonpayable",
      "type": "function"
    },
    {
      "constant": false,
      "inputs": [
        {
          "name": "_to",
          "type": "address"
        },
        {
          "name": "_amount",
          "type": "uint256"
        },
        {
          "name": "_narrative",
          "type": "string"
        }
      ],
      "name": "transferWithNarrative",
      "outputs": [],
      "payable": false,
      "stateMutability": "nonpayable",
      "type": "function"
    },
    {
      "inputs": [
        {
          "name": "_feeAccount",
          "type": "address"
        },
        {
          "name": "_interestPoolAccount",
          "type": "address"
        },
        {
          "name": "_interestEarnedAccount",
          "type": "address"
        },
        {
          "name": "_transferFeePt",
          "type": "uint256"
        },
        {
          "name": "_transferFeeMin",
          "type": "uint256"
        },
        {
          "name": "_transferFeeMax",
          "type": "uint256"
        }
      ],
      "payable": false,
      "stateMutability": "nonpayable",
      "type": "constructor"
    },
    {
      "payable": true,
      "stateMutability": "payable",
      "type": "fallback"
    },
    {
      "anonymous": false,
      "inputs": [
        {
          "indexed": false,
          "name": "newFeeAccount",
          "type": "address"
        },
        {
          "indexed": false,
          "name": "newInteresPoolAccount",
          "type": "address"
        },
        {
          "indexed": false,
          "name": "newInterestEarnedAccount",
          "type": "address"
        }
      ],
      "name": "SystemAccountsChanged",
      "type": "event"
    },
    {
      "anonymous": false,
      "inputs": [
        {
          "indexed": false,
          "name": "_transferFeePt",
          "type": "uint256"
        },
        {
          "indexed": false,
          "name": "_transferFeeMin",
          "type": "uint256"
        },
        {
          "indexed": false,
          "name": "_transferFeeMax",
          "type": "uint256"
        }
      ],
      "name": "TransferFeesChanged",
      "type": "event"
    },
    {
      "anonymous": false,
      "inputs": [
        {
          "indexed": true,
          "name": "from",
          "type": "address"
        },
        {
          "indexed": true,
          "name": "to",
          "type": "address"
        },
        {
          "indexed": false,
          "name": "amount",
          "type": "uint256"
        },
        {
          "indexed": false,
          "name": "narrative",
          "type": "string"
        },
        {
          "indexed": false,
          "name": "fee",
          "type": "uint256"
        }
      ],
      "name": "Transfer",
      "type": "event"
    },
    {
      "anonymous": false,
      "inputs": [
        {
          "indexed": false,
          "name": "amount",
          "type": "uint256"
        }
      ],
      "name": "TokenIssued",
      "type": "event"
    },
    {
      "anonymous": false,
      "inputs": [
        {
          "indexed": false,
          "name": "amount",
          "type": "uint256"
        }
      ],
      "name": "TokenBurned",
      "type": "event"
    },
    {
      "anonymous": false,
      "inputs": [
        {
          "indexed": true,
          "name": "_owner",
          "type": "address"
        },
        {
          "indexed": true,
          "name": "_spender",
          "type": "address"
        },
        {
          "indexed": false,
          "name": "_value",
          "type": "uint256"
        }
      ],
      "name": "Approval",
      "type": "event"
    },
    {
      "anonymous": false,
      "inputs": [
        {
          "indexed": true,
          "name": "agent",
          "type": "address"
        },
        {
          "indexed": false,
          "name": "grantedPermission",
          "type": "bytes32"
        }
      ],
      "name": "PermissionGranted",
      "type": "event"
    },
    {
      "anonymous": false,
      "inputs": [
        {
          "indexed": true,
          "name": "agent",
          "type": "address"
        },
        {
          "indexed": false,
          "name": "revokedPermission",
          "type": "bytes32"
        }
      ],
      "name": "PermissionRevoked",
      "type": "event"
    },
    {
      "anonymous": false,
      "inputs": [
        {
          "indexed": true,
          "name": "oldOwner",
          "type": "address"
        },
        {
          "indexed": true,
          "name": "newOwner",
          "type": "address"
        }
      ],
      "name": "NewOwner",
      "type": "event"
    }
  ],
  "bytecode": "0x6060604052341561000f57600080fd5b60405160c08061266a83398101604052808051906020019091908051906020019091908051906020019091908051906020019091908051906020019091908051906020019091905050600073ffffffffffffffffffffffffffffffffffffffff166000809054906101000a900473ffffffffffffffffffffffffffffffffffffffff1673ffffffffffffffffffffffffffffffffffffffff161415156100b457600080fd5b336000806101000a81548173ffffffffffffffffffffffffffffffffffffffff021916908373ffffffffffffffffffffffffffffffffffffffff16021790555060008673ffffffffffffffffffffffffffffffffffffffff161415151561011a57600080fd5b60008573ffffffffffffffffffffffffffffffffffffffff161415151561014057600080fd5b60008473ffffffffffffffffffffffffffffffffffffffff161415151561016657600080fd5b85600560006101000a81548173ffffffffffffffffffffffffffffffffffffffff021916908373ffffffffffffffffffffffffffffffffffffffff16021790555084600660006101000a81548173ffffffffffffffffffffffffffffffffffffffff021916908373ffffffffffffffffffffffffffffffffffffffff16021790555083600760006101000a81548173ffffffffffffffffffffffffffffffffffffffff021916908373ffffffffffffffffffffffffffffffffffffffff160217905550826008819055508160098190555080600a81905550505050505050612417806102536000396000f300606060405260043610610175576000357c0100000000000000000000000000000000000000000000000000000000900463ffffffff16806304282d2514610177578063095ea7b31461021b5780630da32eaa1461025d578063150e977c146102d657806318160ddd1461036457806323b872dd1461038d57806324839a3a146103ee57806327e235e31461046557806342966c68146104b25780635c658165146104d55780635fcf0455146105415780635fe070131461059657806365e17c9d146105dc57806370a082311461063157806372a1eecc1461067e57806376587921146106a757806377c9db1a1461074b5780638da5cb5b146107745780639ac3317b146107c95780639ae8dcef14610842578063a7f839a714610897578063a9059cbb146108c0578063b0455f1314610902578063bfd201f514610977578063cc872b66146109ac578063dd62ed3e146109cf578063f2fde38b14610a3b578063f38a826214610a74578063ffdcf09514610aba575b005b341561018257600080fd5b610219600480803573ffffffffffffffffffffffffffffffffffffffff1690602001909190803573ffffffffffffffffffffffffffffffffffffffff1690602001909190803590602001909190803590602001908201803590602001908080601f01602080910402602001604051908101604052809392919081815260200183838082843782019150505050505091905050610b10565b005b341561022657600080fd5b61025b600480803573ffffffffffffffffffffffffffffffffffffffff16906020019091908035906020019091905050610bb7565b005b341561026857600080fd5b6102d4600480803573ffffffffffffffffffffffffffffffffffffffff1690602001909190803590602001908201803590602001908080602002602001604051908101604052809392919081815260200183836020028082843782019150505050505091905050610cdc565b005b34156102e157600080fd5b610362600480803573ffffffffffffffffffffffffffffffffffffffff1690602001909190803590602001909190803590602001909190803590602001908201803590602001908080601f01602080910402602001604051908101604052809392919081815260200183838082843782019150505050505091905050610d7f565b005b341561036f57600080fd5b610377610e35565b6040518082815260200191505060405180910390f35b341561039857600080fd5b6103ec600480803573ffffffffffffffffffffffffffffffffffffffff1690602001909190803573ffffffffffffffffffffffffffffffffffffffff16906020019091908035906020019091905050610e3b565b005b34156103f957600080fd5b610463600480803573ffffffffffffffffffffffffffffffffffffffff1690602001909190803573ffffffffffffffffffffffffffffffffffffffff1690602001909190803573ffffffffffffffffffffffffffffffffffffffff16906020019091905050610e65565b005b341561047057600080fd5b61049c600480803573ffffffffffffffffffffffffffffffffffffffff169060200190919050506110fd565b6040518082815260200191505060405180910390f35b34156104bd57600080fd5b6104d36004808035906020019091905050611115565b005b34156104e057600080fd5b61052b600480803573ffffffffffffffffffffffffffffffffffffffff1690602001909190803573ffffffffffffffffffffffffffffffffffffffff169060200190919050506112e0565b6040518082815260200191505060405180910390f35b341561054c57600080fd5b610554611305565b604051808273ffffffffffffffffffffffffffffffffffffffff1673ffffffffffffffffffffffffffffffffffffffff16815260200191505060405180910390f35b34156105a157600080fd5b6105da600480803573ffffffffffffffffffffffffffffffffffffffff169060200190919080356000191690602001909190505061132b565b005b34156105e757600080fd5b6105ef611451565b604051808273ffffffffffffffffffffffffffffffffffffffff1673ffffffffffffffffffffffffffffffffffffffff16815260200191505060405180910390f35b341561063c57600080fd5b610668600480803573ffffffffffffffffffffffffffffffffffffffff16906020019091905050611477565b6040518082815260200191505060405180910390f35b341561068957600080fd5b6106916114c0565b6040518082815260200191505060405180910390f35b34156106b257600080fd5b610749600480803573ffffffffffffffffffffffffffffffffffffffff1690602001909190803573ffffffffffffffffffffffffffffffffffffffff1690602001909190803590602001909190803590602001908201803590602001908080601f016020809104026020016040519081016040528093929190818152602001838380828437820191505050505050919050506114c6565b005b341561075657600080fd5b61075e6114e1565b6040518082815260200191505060405180910390f35b341561077f57600080fd5b6107876114e7565b604051808273ffffffffffffffffffffffffffffffffffffffff1673ffffffffffffffffffffffffffffffffffffffff16815260200191505060405180910390f35b34156107d457600080fd5b610840600480803573ffffffffffffffffffffffffffffffffffffffff169060200190919080359060200190820180359060200190808060200260200160405190810160405280939291908181526020018383602002808284378201915050505050509190505061150c565b005b341561084d57600080fd5b6108556115af565b604051808273ffffffffffffffffffffffffffffffffffffffff1673ffffffffffffffffffffffffffffffffffffffff16815260200191505060405180910390f35b34156108a257600080fd5b6108aa6115d5565b6040518082815260200191505060405180910390f35b34156108cb57600080fd5b610900600480803573ffffffffffffffffffffffffffffffffffffffff169060200190919080359060200190919050506115db565b005b341561090d57600080fd5b610975600480803573ffffffffffffffffffffffffffffffffffffffff1690602001909190803573ffffffffffffffffffffffffffffffffffffffff169060200190919080359060200190919080359060200190820180359060200191909192905050611604565b005b341561098257600080fd5b6109aa60048080359060200190919080359060200190919080359060200190919050506116de565b005b34156109b757600080fd5b6109cd60048080359060200190919050506117d8565b005b34156109da57600080fd5b610a25600480803573ffffffffffffffffffffffffffffffffffffffff1690602001909190803573ffffffffffffffffffffffffffffffffffffffff16906020019091905050611955565b6040518082815260200191505060405180910390f35b3415610a4657600080fd5b610a72600480803573ffffffffffffffffffffffffffffffffffffffff169060200190919050506119dc565b005b3415610a7f57600080fd5b610ab8600480803573ffffffffffffffffffffffffffffffffffffffff1690602001909190803560001916906020019091905050611b31565b005b3415610ac557600080fd5b610b0e600480803573ffffffffffffffffffffffffffffffffffffffff169060200190919080359060200190919080359060200190820180359060200191909192905050611c56565b005b7f7472616e7366657246726f6d4e6f466565000000000000000000000000000000600160003373ffffffffffffffffffffffffffffffffffffffff1673ffffffffffffffffffffffffffffffffffffffff1681526020019081526020016000206000826000191660001916815260200190815260200160002060009054906101000a900460ff161515610ba257600080fd5b610bb0858585856000611ca3565b5050505050565b8173ffffffffffffffffffffffffffffffffffffffff163373ffffffffffffffffffffffffffffffffffffffff1614151515610bf257600080fd5b80600460003373ffffffffffffffffffffffffffffffffffffffff1673ffffffffffffffffffffffffffffffffffffffff16815260200190815260200160002060008473ffffffffffffffffffffffffffffffffffffffff1673ffffffffffffffffffffffffffffffffffffffff168152602001908152602001600020819055508173ffffffffffffffffffffffffffffffffffffffff163373ffffffffffffffffffffffffffffffffffffffff167f8c5be1e5ebec7d5bd14f71427d1e84f3dd0314c0f7b2291e5b200ac8c7c3b925836040518082815260200191505060405180910390a35050565b6000806000809054906101000a900473ffffffffffffffffffffffffffffffffffffffff1673ffffffffffffffffffffffffffffffffffffffff163373ffffffffffffffffffffffffffffffffffffffff16141515610d3a57600080fd5b82519150600090505b81811015610d7957610d6c848483815181101515610d5d57fe5b9060200190602002015161132b565b8080600101915050610d43565b50505050565b7f6e65774c6f616e00000000000000000000000000000000000000000000000000600160003373ffffffffffffffffffffffffffffffffffffffff1673ffffffffffffffffffffffffffffffffffffffff1681526020019081526020016000206000826000191660001916815260200190815260200160002060009054906101000a900460ff161515610e1157600080fd5b60009450600093506000925060206040519081016040528060008152509150600080fd5b60025481565b610e608383836020604051908101604052806000815250610e5b86611f1e565b611ca3565b505050565b7f73657453797374656d4163636f756e7473000000000000000000000000000000600160003373ffffffffffffffffffffffffffffffffffffffff1673ffffffffffffffffffffffffffffffffffffffff1681526020019081526020016000206000826000191660001916815260200190815260200160002060009054906101000a900460ff161515610ef757600080fd5b60008473ffffffffffffffffffffffffffffffffffffffff1614151515610f1d57600080fd5b60008373ffffffffffffffffffffffffffffffffffffffff1614151515610f4357600080fd5b60008273ffffffffffffffffffffffffffffffffffffffff1614151515610f6957600080fd5b83600560006101000a81548173ffffffffffffffffffffffffffffffffffffffff021916908373ffffffffffffffffffffffffffffffffffffffff16021790555082600660006101000a81548173ffffffffffffffffffffffffffffffffffffffff021916908373ffffffffffffffffffffffffffffffffffffffff16021790555081600760006101000a81548173ffffffffffffffffffffffffffffffffffffffff021916908373ffffffffffffffffffffffffffffffffffffffff1602179055507f23dbec4dc224f6b5dbb7872e42fdf27b8eab89540005970d572678433093c94e848484604051808473ffffffffffffffffffffffffffffffffffffffff1673ffffffffffffffffffffffffffffffffffffffff1681526020018373ffffffffffffffffffffffffffffffffffffffff1673ffffffffffffffffffffffffffffffffffffffff1681526020018273ffffffffffffffffffffffffffffffffffffffff1673ffffffffffffffffffffffffffffffffffffffff168152602001935050505060405180910390a150505050565b60036020528060005260406000206000915090505481565b7f6275726e00000000000000000000000000000000000000000000000000000000600160003373ffffffffffffffffffffffffffffffffffffffff1673ffffffffffffffffffffffffffffffffffffffff1681526020019081526020016000206000826000191660001916815260200190815260200160002060009054906101000a900460ff1615156111a757600080fd5b600360003073ffffffffffffffffffffffffffffffffffffffff1673ffffffffffffffffffffffffffffffffffffffff1681526020019081526020016000205482111515156111f557600080fd5b61120a82600254611f7990919063ffffffff16565b60028190555061126282600360003073ffffffffffffffffffffffffffffffffffffffff1673ffffffffffffffffffffffffffffffffffffffff16815260200190815260200160002054611f7990919063ffffffff16565b600360003073ffffffffffffffffffffffffffffffffffffffff1673ffffffffffffffffffffffffffffffffffffffff168152602001908152602001600020819055507f0c526103b8f47af5516191d0c89a598755bd00faa211a3cb52e4c2cc782f7fe2826040518082815260200191505060405180910390a15050565b6004602052816000526040600020602052806000526040600020600091509150505481565b600760009054906101000a900473ffffffffffffffffffffffffffffffffffffffff1681565b6000809054906101000a900473ffffffffffffffffffffffffffffffffffffffff1673ffffffffffffffffffffffffffffffffffffffff163373ffffffffffffffffffffffffffffffffffffffff1614151561138657600080fd5b6000600160008473ffffffffffffffffffffffffffffffffffffffff1673ffffffffffffffffffffffffffffffffffffffff1681526020019081526020016000206000836000191660001916815260200190815260200160002060006101000a81548160ff0219169083151502179055508173ffffffffffffffffffffffffffffffffffffffff167f789770131846de4d1f28418f0f957cdf4fcabe5eccf70067083e20ecece69a348260405180826000191660001916815260200191505060405180910390a25050565b600560009054906101000a900473ffffffffffffffffffffffffffffffffffffffff1681565b6000600360008373ffffffffffffffffffffffffffffffffffffffff1673ffffffffffffffffffffffffffffffffffffffff168152602001908152602001600020549050919050565b600a5481565b6114db848484846114d687611f1e565b611ca3565b50505050565b60085481565b6000809054906101000a900473ffffffffffffffffffffffffffffffffffffffff1681565b6000806000809054906101000a900473ffffffffffffffffffffffffffffffffffffffff1673ffffffffffffffffffffffffffffffffffffffff163373ffffffffffffffffffffffffffffffffffffffff1614151561156a57600080fd5b82519150600090505b818110156115a95761159c84848381518110151561158d57fe5b90602001906020020151611b31565b8080600101915050611573565b50505050565b600660009054906101000a900473ffffffffffffffffffffffffffffffffffffffff1681565b60095481565b61160033838360206040519081016040528060008152506115fb86611f1e565b611f95565b5050565b7f7472616e736665724e6f46656500000000000000000000000000000000000000600160003373ffffffffffffffffffffffffffffffffffffffff1673ffffffffffffffffffffffffffffffffffffffff1681526020019081526020016000206000826000191660001916815260200190815260200160002060009054906101000a900460ff16151561169657600080fd5b6116d686868686868080601f0160208091040260200160405190810160405280939291908181526020018383808284378201915050505050506000611f95565b505050505050565b7f7365745472616e73666572466565730000000000000000000000000000000000600160003373ffffffffffffffffffffffffffffffffffffffff1673ffffffffffffffffffffffffffffffffffffffff1681526020019081526020016000206000826000191660001916815260200190815260200160002060009054906101000a900460ff16151561177057600080fd5b836008819055508260098190555081600a819055507fd987a3acde40f231f760d7c3d2907c83d26bca5aededafbeefba5619b5955d71600854600954600a5460405180848152602001838152602001828152602001935050505060405180910390a150505050565b7f6973737565000000000000000000000000000000000000000000000000000000600160003373ffffffffffffffffffffffffffffffffffffffff1673ffffffffffffffffffffffffffffffffffffffff1681526020019081526020016000206000826000191660001916815260200190815260200160002060009054906101000a900460ff16151561186a57600080fd5b61187f8260025461237990919063ffffffff16565b6002819055506118d782600360003073ffffffffffffffffffffffffffffffffffffffff1673ffffffffffffffffffffffffffffffffffffffff1681526020019081526020016000205461237990919063ffffffff16565b600360003073ffffffffffffffffffffffffffffffffffffffff1673ffffffffffffffffffffffffffffffffffffffff168152602001908152602001600020819055507f22e0481cfeefc9defe3dece414137b4b644284658facef6d9734c16204cca3f0826040518082815260200191505060405180910390a15050565b6000600460008473ffffffffffffffffffffffffffffffffffffffff1673ffffffffffffffffffffffffffffffffffffffff16815260200190815260200160002060008373ffffffffffffffffffffffffffffffffffffffff1673ffffffffffffffffffffffffffffffffffffffff16815260200190815260200160002054905092915050565b6000809054906101000a900473ffffffffffffffffffffffffffffffffffffffff1673ffffffffffffffffffffffffffffffffffffffff163373ffffffffffffffffffffffffffffffffffffffff16141515611a3757600080fd5b600073ffffffffffffffffffffffffffffffffffffffff168173ffffffffffffffffffffffffffffffffffffffff1614151515611a7357600080fd5b8073ffffffffffffffffffffffffffffffffffffffff166000809054906101000a900473ffffffffffffffffffffffffffffffffffffffff1673ffffffffffffffffffffffffffffffffffffffff167f70aea8d848e8a90fb7661b227dc522eb6395c3dac71b63cb59edd5c9899b236460405160405180910390a3806000806101000a81548173ffffffffffffffffffffffffffffffffffffffff021916908373ffffffffffffffffffffffffffffffffffffffff16021790555050565b6000809054906101000a900473ffffffffffffffffffffffffffffffffffffffff1673ffffffffffffffffffffffffffffffffffffffff163373ffffffffffffffffffffffffffffffffffffffff16141515611b8c57600080fd5b60018060008473ffffffffffffffffffffffffffffffffffffffff1673ffffffffffffffffffffffffffffffffffffffff1681526020019081526020016000206000836000191660001916815260200190815260200160002060006101000a81548160ff0219169083151502179055508173ffffffffffffffffffffffffffffffffffffffff167fc65937e3dbcb9fb30f646815dd67a3dbd09ba17718cbcb54efbe3635f8e0a6fe8260405180826000191660001916815260200191505060405180910390a25050565b611c9d33858585858080601f016020809104026020016040519081016040528093929190818152602001838380828437820191505050505050611c9888611f1e565b611f95565b50505050565b82600360008773ffffffffffffffffffffffffffffffffffffffff1673ffffffffffffffffffffffffffffffffffffffff1681526020019081526020016000205410151515611cf157600080fd5b82600460008773ffffffffffffffffffffffffffffffffffffffff1673ffffffffffffffffffffffffffffffffffffffff16815260200190815260200160002060003373ffffffffffffffffffffffffffffffffffffffff1673ffffffffffffffffffffffffffffffffffffffff1681526020019081526020016000205410151515611d7c57600080fd5b600083111515611d8b57600080fd5b611d99858585856000611f95565b6000811115611e0857611e0784600560009054906101000a900473ffffffffffffffffffffffffffffffffffffffff16836040805190810160405280601081526020017f5472616e7366657246726f6d20666565000000000000000000000000000000008152506000611f95565b5b611e9783600460008873ffffffffffffffffffffffffffffffffffffffff1673ffffffffffffffffffffffffffffffffffffffff16815260200190815260200160002060003373ffffffffffffffffffffffffffffffffffffffff1673ffffffffffffffffffffffffffffffffffffffff16815260200190815260200160002054611f7990919063ffffffff16565b600460008773ffffffffffffffffffffffffffffffffffffffff1673ffffffffffffffffffffffffffffffffffffffff16815260200190815260200160002060003373ffffffffffffffffffffffffffffffffffffffff1673ffffffffffffffffffffffffffffffffffffffff168152602001908152602001600020819055505050505050565b6000611f4a620f4240611f3c6008548561239a90919063ffffffff16565b6123d090919063ffffffff16565b9050600a54811115611f6057600a549050611f71565b600954811015611f705760095490505b5b809050919050565b6000828211151515611f8a57600080fd5b818303905092915050565b8373ffffffffffffffffffffffffffffffffffffffff168573ffffffffffffffffffffffffffffffffffffffff1614151515611fd057600080fd5b600083111515611fdf57600080fd5b600081111561216d5761205c8160036000600560009054906101000a900473ffffffffffffffffffffffffffffffffffffffff1673ffffffffffffffffffffffffffffffffffffffff1673ffffffffffffffffffffffffffffffffffffffff1681526020019081526020016000205461237990919063ffffffff16565b60036000600560009054906101000a900473ffffffffffffffffffffffffffffffffffffffff1673ffffffffffffffffffffffffffffffffffffffff1673ffffffffffffffffffffffffffffffffffffffff168152602001908152602001600020819055506121258161211785600360008a73ffffffffffffffffffffffffffffffffffffffff1673ffffffffffffffffffffffffffffffffffffffff16815260200190815260200160002054611f7990919063ffffffff16565b611f7990919063ffffffff16565b600360008773ffffffffffffffffffffffffffffffffffffffff1673ffffffffffffffffffffffffffffffffffffffff16815260200190815260200160002081905550612203565b6121bf83600360008873ffffffffffffffffffffffffffffffffffffffff1673ffffffffffffffffffffffffffffffffffffffff16815260200190815260200160002054611f7990919063ffffffff16565b600360008773ffffffffffffffffffffffffffffffffffffffff1673ffffffffffffffffffffffffffffffffffffffff168152602001908152602001600020819055505b61225583600360008773ffffffffffffffffffffffffffffffffffffffff1673ffffffffffffffffffffffffffffffffffffffff1681526020019081526020016000205461237990919063ffffffff16565b600360008673ffffffffffffffffffffffffffffffffffffffff1673ffffffffffffffffffffffffffffffffffffffff168152602001908152602001600020819055508373ffffffffffffffffffffffffffffffffffffffff168573ffffffffffffffffffffffffffffffffffffffff167fc4b32d7ff75a51e487f3cbb5d3202f2efecca1f4c2b987e0039c1d3220b48a838585856040518084815260200180602001838152602001828103825284818151815260200191508051906020019080838360005b8381101561233657808201518184015260208101905061231b565b50505050905090810190601f1680156123635780820380516001836020036101000a031916815260200191505b5094505050505060405180910390a35050505050565b600080828401905083811015151561239057600080fd5b8091505092915050565b600080828402905060008414806123bb57508284828115156123b857fe5b04145b15156123c657600080fd5b8091505092915050565b60008082848115156123de57fe5b04905080915050929150505600a165627a7a7230582047b27e61bbabeb886d521a9eaf44cbed77fa8100540890a3cc3c8613bdf9ca480029",
  "source": "/* Generic Augmint Token implementation (ERC20 token)\n    This contract manages:\n        * Balances of Augmint holders and transactions between them\n        * Issues and burns tokens\n            - manually by the contract owner or\n            - automatically when new loan issued or repaid\n        * Holds  reserves:\n            - ETH as regular ETH balance of the contract\n            - ERC20 token reserve (stored as regular Token balance under the contract address)\n            TODO: separate reserve contract ?\n\n        Note that all reserves are held under the contract address,\n          therefore any transaction on the reserve is limited to the tx-s defined here\n          (ie. transfer of reserve is not possible by the contract owner)\n    TODO: ERC20 short address attack protection? https://github.com/DecentLabs/dcm-poc/issues/62\n    TODO: ERC20 transferFrom attack protection: https://github.com/DecentLabs/dcm-poc/issues/57\n    TODO: check more security best practices, eg: https://github.com/ConsenSys/smart-contract-best-practices,\n                        https://github.com/OpenZeppelin/zeppelin-solidity\n                        https://github.com/OpenZeppelin/zeppelin-solidity/tree/master/contracts/token\n    TODO: function should be ordered according to Solidity style guide\n*/\npragma solidity ^0.4.18;\nimport \"./Restricted.sol\";\nimport \"../interfaces/AugmintTokenInterface.sol\";\n\n\ncontract AugmintToken is AugmintTokenInterface {\n    uint public totalSupply;\n\n    mapping(address => uint256) public balances; // Balances for each account\n    mapping(address => mapping (address => uint256)) public allowed; // allowances added with approve()\n\n    address public feeAccount;\n    address public interestPoolAccount;\n    address public interestEarnedAccount;\n    uint public transferFeePt; // in parts per million , ie. 2,000 = 0.2%\n    uint public transferFeeMin; // with base unit of augmint token, eg. 4 decimals for TokenACD, 31000 = 3.1ACD\n    uint public transferFeeMax; // with base unit of augmint token, eg. 4 decimals for TokenACD, 31000 = 3.1ACD\n\n    function AugmintToken(address _feeAccount, address _interestPoolAccount, address _interestEarnedAccount,\n        uint _transferFeePt, uint _transferFeeMin, uint _transferFeeMax) public {\n        require(_feeAccount != 0);\n        require(_interestPoolAccount != 0);\n        require(_interestEarnedAccount != 0);\n        feeAccount = _feeAccount;\n        interestPoolAccount = _interestPoolAccount;\n        interestEarnedAccount = _interestEarnedAccount;\n        transferFeePt = _transferFeePt;\n        transferFeeMin = _transferFeeMin;\n        transferFeeMax = _transferFeeMax;\n    }\n\n    function () public payable {} // to accept ETH sent into reserve (from defaulted loan's collateral )\n    // TODO: shall we put protection against accidentally sending in ETH?\n\n    function balanceOf(address _owner) public view returns (uint256 balance) {\n        return balances[_owner];\n    }\n\n    function allowance(address _owner, address _spender) public view returns (uint256 remaining) {\n        return allowed[_owner][_spender];\n    }\n\n    function getFee(uint amount) internal view returns (uint256 fee) {\n        fee = amount.mul(transferFeePt).div(1000000);\n        if (fee > transferFeeMax) {\n            fee = transferFeeMax;\n        } else if (fee < transferFeeMin) {\n            fee = transferFeeMin;\n        }\n        return fee;\n    }\n\n    event SystemAccountsChanged(address newFeeAccount, address newInteresPoolAccount, address newInterestEarnedAccount);\n\n    function setSystemAccounts(address newFeeAccount, address newInteresPoolAccount,\n            address newInterestEarnedAccount) external restrict(\"setSystemAccounts\") {\n        require(newFeeAccount != 0);\n        require(newInteresPoolAccount != 0);\n        require(newInterestEarnedAccount != 0);\n        feeAccount = newFeeAccount;\n        interestPoolAccount = newInteresPoolAccount;\n        interestEarnedAccount = newInterestEarnedAccount;\n        SystemAccountsChanged(newFeeAccount, newInteresPoolAccount, newInterestEarnedAccount);\n    }\n\n    event TransferFeesChanged(uint _transferFeePt, uint _transferFeeMin, uint _transferFeeMax);\n\n    function setTransferFees(uint _transferFeePt, uint _transferFeeMin, uint _transferFeeMax) external restrict(\"setTransferFees\") {\n        transferFeePt = _transferFeePt;\n        transferFeeMin = _transferFeeMin;\n        transferFeeMax = _transferFeeMax;\n        TransferFeesChanged(transferFeePt, transferFeeMin, transferFeeMax);\n    }\n\n    event Transfer(address indexed from, address indexed to, uint amount, string narrative, uint fee);\n\n    function transfer(address _to, uint256 _amount) public {\n        _transfer(msg.sender, _to, _amount, \"\", getFee(_amount));\n    }\n\n    function transferWithNarrative(address _to, uint256 _amount, string _narrative) external {\n        _transfer(msg.sender, _to, _amount, _narrative, getFee(_amount));\n    }\n\n    function transferNoFee(address _from, address _to, uint256 _amount, string _narrative) external restrict(\"transferNoFee\") {\n        _transfer(_from, _to, _amount, _narrative, 0);\n    }\n\n    function _transfer(address _from, address _to, uint256 _amount, string narrative, uint _fee) internal {\n        require(_from != _to); // no need to send to myself. Makes client code simpler if we don't allow\n        require(_amount > 0);\n        if (_fee > 0) {\n            balances[feeAccount] = balances[feeAccount].add(_fee);\n            balances[_from] = balances[_from].sub(_amount).sub(_fee);\n        } else {\n            balances[_from] = balances[_from].sub(_amount);\n        }\n        balances[_to] = balances[_to].add(_amount);\n        Transfer(_from, _to, _amount, narrative, _fee);\n    }\n\n    function approve(address _spender, uint256 _amount) public {\n        require(msg.sender != _spender); // no need to approve for myself. Makes client code simpler if we don't allow\n        allowed[msg.sender][_spender] = _amount;\n        Approval(msg.sender, _spender, _amount);\n    }\n\n    function transferFrom(\n            address _from,\n            address _to,\n            uint256 _amount\n        ) public {\n        _transferFrom(_from, _to, _amount, \"\", getFee(_amount));\n    }\n\n    function transferFromWithNarrative(\n        address _from,\n        address _to,\n        uint256 _amount,\n        string _narrative\n    ) public {\n        _transferFrom(_from, _to, _amount, _narrative, getFee(_amount));\n    }\n\n    function transferFromNoFee(address _from, address _to, uint256 _amount, string _narrative)\n        public restrict(\"transferFromNoFee\") {\n        _transferFrom(_from, _to, _amount, _narrative, 0);\n    }\n\n    function _transferFrom(address _from, address _to, uint256 _amount, string _narrative, uint _fee) internal {\n        require(balances[_from] >= _amount);\n        require(allowed[_from][msg.sender] >= _amount);\n        require(_amount > 0);\n\n        _transfer(_from, _to, _amount, _narrative, 0);\n        if (_fee > 0) {\n            /* we need to deduct fee from _to unlike normal transfer\n             TODO: better way to do this? E.g. allow transfer fee to be deducted from beneficiary? */\n            _transfer(_to, feeAccount, _fee, \"TransferFrom fee\", 0);\n        }\n\n        allowed[_from][msg.sender] = allowed[_from][msg.sender].sub(_amount);\n    }\n\n    function newLoan(address borrower, uint loanAmount, uint interestAmount, string narrative)\n        public restrict(\"newLoan\"){\n            // FIXME: to be implemented\n            borrower = 0;\n            loanAmount = 0;\n            interestAmount = 0;\n            narrative = \"\";\n            revert();\n    }\n\n    event TokenIssued(uint amount);\n    function issue(uint amount) external restrict(\"issue\") {\n        totalSupply = totalSupply.add(amount);\n        balances[this] = balances[this].add(amount);\n        TokenIssued(amount);\n    }\n\n    event TokenBurned(uint amount);\n    function burn(uint amount) external restrict(\"burn\") {\n        require(amount <= balances[this]);\n        totalSupply = totalSupply.sub(amount);\n        balances[this] = balances[this].sub(amount);\n        TokenBurned(amount);\n    }\n\n}\n",
  "sourcePath": "/Users/petro/ether/dcm-poc/contracts/generic/AugmintToken.sol",
  "compiler": {
    "name": "solc",
    "version": "0.4.18+commit.9cf6e910.Emscripten.clang"
  },
  "schemaVersion": "1.0.1",
  "updatedAt": "2017-12-13T18:23:46.898Z"
}