{
  "contractName": "ERC20Impl",
  "abi": [
    {
      "constant": false,
      "inputs": [
        {
          "name": "_spender",
          "type": "address"
        },
        {
          "name": "_amount",
          "type": "uint256"
        }
      ],
      "name": "approve",
      "outputs": [
        {
          "name": "success",
          "type": "bool"
        }
      ],
      "payable": false,
      "type": "function",
      "stateMutability": "nonpayable"
    },
    {
      "constant": true,
      "inputs": [],
      "name": "totalSupply",
      "outputs": [
        {
          "name": "",
          "type": "uint256"
        }
      ],
      "payable": false,
      "type": "function",
      "stateMutability": "view"
    },
    {
      "constant": true,
      "inputs": [
        {
          "name": "_owner",
          "type": "address"
        }
      ],
      "name": "balanceOf",
      "outputs": [
        {
          "name": "balance",
          "type": "uint256"
        }
      ],
      "payable": false,
      "type": "function",
      "stateMutability": "view"
    }
  ],
  "bytecode": "0x6060604052341561000f57600080fd5b61026f8061001e6000396000f300606060405260043610610057576000357c0100000000000000000000000000000000000000000000000000000000900463ffffffff168063095ea7b31461005c57806318160ddd146100b657806370a08231146100df575b600080fd5b341561006757600080fd5b61009c600480803573ffffffffffffffffffffffffffffffffffffffff1690602001909190803590602001909190505061012c565b604051808215151515815260200191505060405180910390f35b34156100c157600080fd5b6100c96101f4565b6040518082815260200191505060405180910390f35b34156100ea57600080fd5b610116600480803573ffffffffffffffffffffffffffffffffffffffff169060200190919050506101fa565b6040518082815260200191505060405180910390f35b60008273ffffffffffffffffffffffffffffffffffffffff163373ffffffffffffffffffffffffffffffffffffffff161415151561016957600080fd5b81600260003373ffffffffffffffffffffffffffffffffffffffff1673ffffffffffffffffffffffffffffffffffffffff16815260200190815260200160002060008573ffffffffffffffffffffffffffffffffffffffff1673ffffffffffffffffffffffffffffffffffffffff168152602001908152602001600020819055506001905092915050565b60005481565b6000600160008373ffffffffffffffffffffffffffffffffffffffff1673ffffffffffffffffffffffffffffffffffffffff1681526020019081526020016000205490509190505600a165627a7a72305820a59e4e1df826e0bca0502c102ef8845315eac9f81ef57fc50ec1b5a3f9021b900029",
  "source": "/*\nERC20 Implementation\nTODO: consider using this instead: https://github.com/OpenZeppelin/zeppelin-solidity/tree/master/contracts/token\n */\npragma solidity ^0.4.11;\ncontract ERC20Impl {\n\n    /*  This is a slight change to the ERC20 base standard.\n        function totalSupply() constant returns (uint256 supply);\n        is replaced with:\n        uint256 public totalSupply;\n        This automatically creates a getter function for the totalSupply.\n        This is moved to the base contract since public getter functions are not\n        currently recognised as an implementation of the matching abstract\n        function by the compiler.\n    */\n    uint256 public totalSupply; // total amount of tokens\n\n    // Balances for each account\n    mapping(address => uint256) balances;\n    // Owner of account approves the transfer of an amount to another account\n    mapping(address => mapping (address => uint256)) allowed;\n\n    // What is the balance of a particular account?\n    function balanceOf(address _owner) constant returns (uint256 balance) {\n        return balances[_owner];\n    }\n\n     // Transfer the balance from owner's account to another account\n     // This is only callable by the parent contract which emits transfer events\n    function _transfer(address _to, uint256 _amount) internal returns (bool success) {\n        require(msg.sender != _to); // no need to send to myself. Makes client code simpler if we don't allow\n        if (balances[msg.sender] >= _amount\n            && _amount > 0\n            && balances[_to] + _amount > balances[_to]) {\n                balances[msg.sender] -= _amount;\n                balances[_to] += _amount;\n                return true;\n        } else {\n            return false;\n        }\n    }\n\n    // Transfer the balance between two accounts\n    // Used for internal transfers. Only system contracts allowed to call it (must be checked in calling contract!).\n    // Exchange and LoanManager contracts use it at the moment\n   function _transferInternal(address _from, address _to, uint256 _amount) internal returns (bool success) {\n       require(_from != _to); // no need to send to myself. Makes client code simpler if we don't allow\n       if (balances[_from] >= _amount\n           && _amount > 0\n           && balances[_to] + _amount > balances[_to]) {\n               balances[_from] -= _amount;\n               balances[_to] += _amount;\n               return true;\n       } else {\n           return false;\n       }\n   }\n\n    // Send _value amount of tokens from address _from to address _to\n    // The transferFrom method is used for a withdraw workflow, allowing contracts to send\n    // tokens on your behalf, for example to \"deposit\" to a contract address and/or to charge\n    // fees in sub-currencies; the command should fail unless the _from account has\n    // deliberately authorized the sender of the message via some mechanism; we propose\n    // these standardized APIs for approval:\n    // This is only callable by the parent contract which emits transfer events\n    function _transferFrom(\n        address _from,\n        address _to,\n        uint256 _amount\n    ) internal returns (bool success) {\n        if (balances[_from] >= _amount\n            && allowed[_from][msg.sender] >= _amount\n            && _amount > 0\n            && balances[_to] + _amount > balances[_to]) {\n                balances[_from] -= _amount;\n                allowed[_from][msg.sender] -= _amount;\n                balances[_to] += _amount;\n                return true;\n        } else {\n            return false;\n     }\n    }\n\n    // Allow _spender to withdraw from your account, multiple times, up to the _value amount.\n    // If this function is called again it overwrites the current allowance with _value.\n    function approve(address _spender, uint256 _amount) returns (bool success) {\n        require(msg.sender != _spender); // no need to approve for myself. Makes client code simpler if we don't allow\n        allowed[msg.sender][_spender] = _amount;\n        return true;\n    }\n}\n",
  "sourcePath": "/Users/petro/ether/dcm-poc/contracts/ERC20Impl.sol",
  "compiler": {
    "name": "solc",
    "version": "0.4.18+commit.9cf6e910.Emscripten.clang"
  },
  "schemaVersion": "1.0.1",
  "updatedAt": "2017-11-02T15:14:56.471Z"
}