{
  "contractName": "EthBackedLoan",
  "abi": [
    {
      "constant": true,
      "inputs": [],
      "name": "maturity",
      "outputs": [
        {
          "name": "",
          "type": "uint256"
        }
      ],
      "payable": false,
      "stateMutability": "view",
      "type": "function"
    },
    {
      "constant": true,
      "inputs": [],
      "name": "loanState",
      "outputs": [
        {
          "name": "",
          "type": "uint8"
        }
      ],
      "payable": false,
      "stateMutability": "view",
      "type": "function"
    },
    {
      "constant": true,
      "inputs": [],
      "name": "repayPeriod",
      "outputs": [
        {
          "name": "",
          "type": "uint256"
        }
      ],
      "payable": false,
      "stateMutability": "view",
      "type": "function"
    },
    {
      "constant": true,
      "inputs": [],
      "name": "ucdDueAtMaturity",
      "outputs": [
        {
          "name": "",
          "type": "uint256"
        }
      ],
      "payable": false,
      "stateMutability": "view",
      "type": "function"
    },
    {
      "constant": true,
      "inputs": [],
      "name": "tokenUcd",
      "outputs": [
        {
          "name": "",
          "type": "address"
        }
      ],
      "payable": false,
      "stateMutability": "view",
      "type": "function"
    },
    {
      "constant": false,
      "inputs": [],
      "name": "releaseCollateral",
      "outputs": [],
      "payable": false,
      "stateMutability": "nonpayable",
      "type": "function"
    },
    {
      "constant": true,
      "inputs": [],
      "name": "owner",
      "outputs": [
        {
          "name": "",
          "type": "address"
        }
      ],
      "payable": false,
      "stateMutability": "view",
      "type": "function"
    },
    {
      "constant": true,
      "inputs": [],
      "name": "disbursementDate",
      "outputs": [
        {
          "name": "",
          "type": "uint256"
        }
      ],
      "payable": false,
      "stateMutability": "view",
      "type": "function"
    },
    {
      "constant": true,
      "inputs": [],
      "name": "term",
      "outputs": [
        {
          "name": "",
          "type": "uint256"
        }
      ],
      "payable": false,
      "stateMutability": "view",
      "type": "function"
    },
    {
      "constant": true,
      "inputs": [],
      "name": "loanManager",
      "outputs": [
        {
          "name": "",
          "type": "address"
        }
      ],
      "payable": false,
      "stateMutability": "view",
      "type": "function"
    },
    {
      "constant": true,
      "inputs": [],
      "name": "loanId",
      "outputs": [
        {
          "name": "",
          "type": "uint256"
        }
      ],
      "payable": false,
      "stateMutability": "view",
      "type": "function"
    },
    {
      "constant": false,
      "inputs": [],
      "name": "collect",
      "outputs": [],
      "payable": false,
      "stateMutability": "nonpayable",
      "type": "function"
    },
    {
      "constant": true,
      "inputs": [],
      "name": "disbursedLoanInUcd",
      "outputs": [
        {
          "name": "",
          "type": "uint256"
        }
      ],
      "payable": false,
      "stateMutability": "view",
      "type": "function"
    },
    {
      "constant": true,
      "inputs": [],
      "name": "getDetails",
      "outputs": [
        {
          "name": "_owner",
          "type": "address"
        },
        {
          "name": "_loanManager",
          "type": "address"
        },
        {
          "name": "_tokenUcd",
          "type": "address"
        },
        {
          "name": "_loanState",
          "type": "uint8"
        },
        {
          "name": "_ucdDueAtMaturity",
          "type": "uint256"
        },
        {
          "name": "_disbursedLoanInUcd",
          "type": "uint256"
        },
        {
          "name": "_term",
          "type": "uint256"
        },
        {
          "name": "_disbursementDate",
          "type": "uint256"
        },
        {
          "name": "_maturity",
          "type": "uint256"
        },
        {
          "name": "_repayPeriod",
          "type": "uint256"
        },
        {
          "name": "_loanId",
          "type": "uint256"
        }
      ],
      "payable": false,
      "stateMutability": "view",
      "type": "function"
    },
    {
      "inputs": [
        {
          "name": "_loanId",
          "type": "uint256"
        },
        {
          "name": "_borrower",
          "type": "address"
        },
        {
          "name": "_term",
          "type": "uint256"
        },
        {
          "name": "_disbursedLoanInUcd",
          "type": "uint256"
        },
        {
          "name": "_ucdDueAtMaturity",
          "type": "uint256"
        },
        {
          "name": "_repayPeriod",
          "type": "uint256"
        }
      ],
      "payable": false,
      "stateMutability": "nonpayable",
      "type": "constructor"
    },
    {
      "payable": true,
      "stateMutability": "payable",
      "type": "fallback"
    }
  ],
  "bytecode": "0x6060604052341561000f57600080fd5b60405160c080610b29833981016040528080519060200190919080519060200190919080519060200190919080519060200190919080519060200190919080519060200190919050508560038190555033600160006101000a81548173ffffffffffffffffffffffffffffffffffffffff021916908373ffffffffffffffffffffffffffffffffffffffff160217905550846000806101000a81548173ffffffffffffffffffffffffffffffffffffffff021916908373ffffffffffffffffffffffffffffffffffffffff160217905550600160009054906101000a900473ffffffffffffffffffffffffffffffffffffffff1673ffffffffffffffffffffffffffffffffffffffff166335b6f81b6000604051602001526040518163ffffffff167c0100000000000000000000000000000000000000000000000000000000028152600401602060405180830381600087803b151561016e57600080fd5b6102c65a03f1151561017f57600080fd5b50505060405180519050600260006101000a81548173ffffffffffffffffffffffffffffffffffffffff021916908373ffffffffffffffffffffffffffffffffffffffff16021790555083600681905550426007819055506101fb60065460075461024564010000000002610867179091906401000000009004565b6008819055508060098190555082600581905550816004819055506000600260146101000a81548160ff0219169083600281111561023557fe5b0217905550505050505050610266565b600080828401905083811015151561025c57600080fd5b8091505092915050565b6108b4806102756000396000f3006060604052600436106100d0576000357c0100000000000000000000000000000000000000000000000000000000900463ffffffff168063204f83f9146100d257806325af34cd146100fb5780632bf51e40146101325780632cbdbd161461015b57806335b6f81b146101845780636665b621146101d95780638da5cb5b146101ee5780639c5a588014610243578063a10ffbed1461026c578063b3ccbcfe14610295578063c95669a5146102ea578063e522538114610313578063e720fe9414610328578063fbbf93a014610351575b005b34156100dd57600080fd5b6100e5610452565b6040518082815260200191505060405180910390f35b341561010657600080fd5b61010e610458565b6040518082600281111561011e57fe5b60ff16815260200191505060405180910390f35b341561013d57600080fd5b61014561046b565b6040518082815260200191505060405180910390f35b341561016657600080fd5b61016e610471565b6040518082815260200191505060405180910390f35b341561018f57600080fd5b610197610477565b604051808273ffffffffffffffffffffffffffffffffffffffff1673ffffffffffffffffffffffffffffffffffffffff16815260200191505060405180910390f35b34156101e457600080fd5b6101ec61049d565b005b34156101f957600080fd5b6102016105f0565b604051808273ffffffffffffffffffffffffffffffffffffffff1673ffffffffffffffffffffffffffffffffffffffff16815260200191505060405180910390f35b341561024e57600080fd5b610256610615565b6040518082815260200191505060405180910390f35b341561027757600080fd5b61027f61061b565b6040518082815260200191505060405180910390f35b34156102a057600080fd5b6102a8610621565b604051808273ffffffffffffffffffffffffffffffffffffffff1673ffffffffffffffffffffffffffffffffffffffff16815260200191505060405180910390f35b34156102f557600080fd5b6102fd610647565b6040518082815260200191505060405180910390f35b341561031e57600080fd5b61032661064d565b005b341561033357600080fd5b61033b6107a0565b6040518082815260200191505060405180910390f35b341561035c57600080fd5b6103646107a6565b604051808c73ffffffffffffffffffffffffffffffffffffffff1673ffffffffffffffffffffffffffffffffffffffff1681526020018b73ffffffffffffffffffffffffffffffffffffffff1673ffffffffffffffffffffffffffffffffffffffff1681526020018a73ffffffffffffffffffffffffffffffffffffffff1673ffffffffffffffffffffffffffffffffffffffff16815260200189600281111561040a57fe5b60ff1681526020018881526020018781526020018681526020018581526020018481526020018381526020018281526020019b50505050505050505050505060405180910390f35b60085481565b600260149054906101000a900460ff1681565b60095481565b60045481565b600260009054906101000a900473ffffffffffffffffffffffffffffffffffffffff1681565b600160009054906101000a900473ffffffffffffffffffffffffffffffffffffffff1673ffffffffffffffffffffffffffffffffffffffff163373ffffffffffffffffffffffffffffffffffffffff161415156104f957600080fd5b6000600281111561050657fe5b600260149054906101000a900460ff16600281111561052157fe5b14151561052d57600080fd5b61054460095460085461086790919063ffffffff16565b421115151561055257600080fd5b6001600260146101000a81548160ff0219169083600281111561057157fe5b02179055506000809054906101000a900473ffffffffffffffffffffffffffffffffffffffff1673ffffffffffffffffffffffffffffffffffffffff166108fc3073ffffffffffffffffffffffffffffffffffffffff16319081150290604051600060405180830381858888f1935050505015156105ee57600080fd5b565b6000809054906101000a900473ffffffffffffffffffffffffffffffffffffffff1681565b60075481565b60065481565b600160009054906101000a900473ffffffffffffffffffffffffffffffffffffffff1681565b60035481565b600160009054906101000a900473ffffffffffffffffffffffffffffffffffffffff1673ffffffffffffffffffffffffffffffffffffffff163373ffffffffffffffffffffffffffffffffffffffff161415156106a957600080fd5b600060028111156106b657fe5b600260149054906101000a900460ff1660028111156106d157fe5b1415156106dd57600080fd5b6106f460095460085461086790919063ffffffff16565b421015151561070257600080fd5b60028060146101000a81548160ff0219169083600281111561072057fe5b0217905550600260009054906101000a900473ffffffffffffffffffffffffffffffffffffffff1673ffffffffffffffffffffffffffffffffffffffff166108fc3073ffffffffffffffffffffffffffffffffffffffff16319081150290604051600060405180830381858888f19350505050151561079e57600080fd5b565b60055481565b60008060008060008060008060008060008060009054906101000a900473ffffffffffffffffffffffffffffffffffffffff16600160009054906101000a900473ffffffffffffffffffffffffffffffffffffffff16600260009054906101000a900473ffffffffffffffffffffffffffffffffffffffff16600260149054906101000a900460ff166004546005546006546007546008546009546003549a509a509a509a509a509a509a509a509a509a509a50909192939495969798999a565b600080828401905083811015151561087e57600080fd5b80915050929150505600a165627a7a723058208cddc2de489f4d429303216f98ace5e177911543ad2d5f1caddc54cb35c440580029",
  "source": "/* contract for each loan given in ACD for ETH collateral\n    holds ETH collateral in contract balance, only allows access to it on maturity\n    TODO: split it into AugmintLoan - EthBackedACDLoan ? generic loan contract interface contract ?\n    TODO: double check against reentrancy\n    TODO: consider storing collateral amount when loan created for easier tracking after repayment\n    TODO: consider store loanId (maintened in loanManager)\n    TODO: consider moving all repay functionality here from loanManager to make it self contained\n         - would need to remove state from loanManager (so wouldn't need to call loanManager for housekeeping)\n         - it would call tokenUcd directly, TBD: how would tokenUcd check permission if it doesn't know about contracts\n         - consider sending UCD to this loanContract  first?\n    TODO: consider moving functions to a library to reduce gas costs\n*/\n\npragma solidity ^0.4.18;\n\nimport \"./generic/SafeMath.sol\";\nimport \"./TokenAcd.sol\";\nimport \"./LoanManager.sol\";\n\n\ncontract EthBackedLoan {\n    using SafeMath for uint256;\n    enum LoanState { Open, Repaid, Defaulted } // TODO: move this to a lib (used by TokenUcd too)\n    address public owner; // the borrower\n    LoanManager public loanManager; // loan manager contract instance\n    TokenAcd public tokenUcd; // tokenAcd instance\n\n    LoanState public loanState; // TODO: make LoanState a getter which calculates state\n    uint public loanId;\n    uint public ucdDueAtMaturity; // nominal loan amount in UCD (non discounted amount)\n    uint public disbursedLoanInUcd;\n    uint public term; // duration of loan\n    uint public disbursementDate;\n    uint public maturity; // disbursementDate + term\n    uint public repayPeriod; // number of seconds after maturity before collect can be executed\n\n    function() external payable { } // to accept ETH collateral sent\n    // TODO: should it refuse any other amount sent after?\n    //       doens't seem to be a real issue as all ETH is going to be release after maturity anyway..\n\n    function EthBackedLoan(uint _loanId, address _borrower, uint _term, uint _disbursedLoanInUcd,\n                            uint _ucdDueAtMaturity, uint _repayPeriod) public {\n        loanId = _loanId;\n        loanManager = LoanManager(msg.sender);\n        owner = _borrower;\n        tokenUcd = loanManager.tokenUcd();\n        term = _term;\n        disbursementDate = now;\n        maturity = disbursementDate.add(term);\n        repayPeriod = _repayPeriod;\n        disbursedLoanInUcd = _disbursedLoanInUcd;\n        ucdDueAtMaturity = _ucdDueAtMaturity;\n        loanState = LoanState.Open;\n    }\n\n    function getDetails() external view returns (\n                                    address _owner,\n                                    LoanManager _loanManager,\n                                    TokenAcd _tokenUcd,\n                                    LoanState _loanState,\n                                    uint _ucdDueAtMaturity,\n                                    uint _disbursedLoanInUcd,\n                                    uint _term,\n                                    uint _disbursementDate,\n                                    uint _maturity,\n                                    uint _repayPeriod,\n                                    uint _loanId\n        ) {\n        return (\n            owner, // 0 the borrower\n            loanManager, // 1 loan manager contract instance\n            tokenUcd, // 2 tokenUcd instance\n            loanState, // 3\n            ucdDueAtMaturity, // 4 nominal loan amount in UCD (non discounted amount)\n            disbursedLoanInUcd, // 5\n            term, // 6 duration of loan\n            disbursementDate, // 7\n            maturity, // 8 disbursementDate + term\n            repayPeriod, // 9\n            loanId // 10\n        );\n    }\n\n    function releaseCollateral() external {\n        require(msg.sender == address(loanManager)); // repayment is only through loanManager\n        require(loanState == LoanState.Open);\n        require(now <= maturity.add(repayPeriod));\n        loanState = LoanState.Repaid;\n        owner.transfer(this.balance); // send back ETH collateral held in this contract\n    }\n\n    function collect() external {\n        /* TODO: payback collateral over the UCD value less default fee */\n        require(msg.sender == address(loanManager));\n        require(loanState == LoanState.Open);\n        require(now >= maturity.add(repayPeriod));\n        loanState = LoanState.Defaulted;\n        // send ETH collateral to tokenUcd reserve\n        address(tokenUcd).transfer(this.balance);\n    }\n\n\n}\n",
  "sourcePath": "/Users/petro/ether/dcm-poc/contracts/EthBackedLoan.sol",
  "compiler": {
    "name": "solc",
    "version": "0.4.18+commit.9cf6e910.Emscripten.clang"
  },
  "schemaVersion": "1.0.1",
  "updatedAt": "2017-11-23T18:04:41.236Z"
}