{
  "contractName": "EthBackedLoan",
  "abi": [
    {
      "constant": true,
      "inputs": [],
      "name": "maturity",
      "outputs": [
        {
          "name": "",
          "type": "uint256"
        }
      ],
      "payable": false,
      "type": "function",
      "stateMutability": "view"
    },
    {
      "constant": true,
      "inputs": [],
      "name": "ERR_REPAY_NOT_DUE_YET",
      "outputs": [
        {
          "name": "",
          "type": "int8"
        }
      ],
      "payable": false,
      "type": "function",
      "stateMutability": "view"
    },
    {
      "constant": true,
      "inputs": [],
      "name": "loanState",
      "outputs": [
        {
          "name": "",
          "type": "uint8"
        }
      ],
      "payable": false,
      "type": "function",
      "stateMutability": "view"
    },
    {
      "constant": true,
      "inputs": [],
      "name": "repayPeriod",
      "outputs": [
        {
          "name": "",
          "type": "uint256"
        }
      ],
      "payable": false,
      "type": "function",
      "stateMutability": "view"
    },
    {
      "constant": true,
      "inputs": [],
      "name": "ucdDueAtMaturity",
      "outputs": [
        {
          "name": "",
          "type": "uint256"
        }
      ],
      "payable": false,
      "type": "function",
      "stateMutability": "view"
    },
    {
      "constant": true,
      "inputs": [],
      "name": "tokenUcd",
      "outputs": [
        {
          "name": "",
          "type": "address"
        }
      ],
      "payable": false,
      "type": "function",
      "stateMutability": "view"
    },
    {
      "constant": false,
      "inputs": [],
      "name": "repay",
      "outputs": [
        {
          "name": "result",
          "type": "int8"
        }
      ],
      "payable": false,
      "type": "function",
      "stateMutability": "nonpayable"
    },
    {
      "constant": false,
      "inputs": [
        {
          "name": "buyer",
          "type": "address"
        },
        {
          "name": "priceInUcd",
          "type": "uint256"
        }
      ],
      "name": "sellLoan",
      "outputs": [
        {
          "name": "result",
          "type": "int8"
        }
      ],
      "payable": false,
      "type": "function",
      "stateMutability": "nonpayable"
    },
    {
      "constant": true,
      "inputs": [],
      "name": "ERR_COLLECT_NOT_DUE_YET",
      "outputs": [
        {
          "name": "",
          "type": "int8"
        }
      ],
      "payable": false,
      "type": "function",
      "stateMutability": "view"
    },
    {
      "constant": true,
      "inputs": [],
      "name": "ERR_NOT_AUTHORISED",
      "outputs": [
        {
          "name": "",
          "type": "int8"
        }
      ],
      "payable": false,
      "type": "function",
      "stateMutability": "view"
    },
    {
      "constant": true,
      "inputs": [],
      "name": "ERR_LOAN_NOT_OPEN",
      "outputs": [
        {
          "name": "",
          "type": "int8"
        }
      ],
      "payable": false,
      "type": "function",
      "stateMutability": "view"
    },
    {
      "constant": true,
      "inputs": [],
      "name": "owner",
      "outputs": [
        {
          "name": "",
          "type": "address"
        }
      ],
      "payable": false,
      "type": "function",
      "stateMutability": "view"
    },
    {
      "constant": true,
      "inputs": [],
      "name": "disbursementDate",
      "outputs": [
        {
          "name": "",
          "type": "uint256"
        }
      ],
      "payable": false,
      "type": "function",
      "stateMutability": "view"
    },
    {
      "constant": true,
      "inputs": [],
      "name": "term",
      "outputs": [
        {
          "name": "",
          "type": "uint256"
        }
      ],
      "payable": false,
      "type": "function",
      "stateMutability": "view"
    },
    {
      "constant": true,
      "inputs": [],
      "name": "ERR_EXT_ERRCODE_BASE",
      "outputs": [
        {
          "name": "",
          "type": "int8"
        }
      ],
      "payable": false,
      "type": "function",
      "stateMutability": "view"
    },
    {
      "constant": true,
      "inputs": [],
      "name": "loanManager",
      "outputs": [
        {
          "name": "",
          "type": "address"
        }
      ],
      "payable": false,
      "type": "function",
      "stateMutability": "view"
    },
    {
      "constant": true,
      "inputs": [],
      "name": "loanId",
      "outputs": [
        {
          "name": "",
          "type": "uint256"
        }
      ],
      "payable": false,
      "type": "function",
      "stateMutability": "view"
    },
    {
      "constant": true,
      "inputs": [],
      "name": "ERR_UCD_BALANCE_NOT_ENOUGH",
      "outputs": [
        {
          "name": "",
          "type": "int8"
        }
      ],
      "payable": false,
      "type": "function",
      "stateMutability": "view"
    },
    {
      "constant": true,
      "inputs": [],
      "name": "SUCCESS",
      "outputs": [
        {
          "name": "",
          "type": "int8"
        }
      ],
      "payable": false,
      "type": "function",
      "stateMutability": "view"
    },
    {
      "constant": false,
      "inputs": [],
      "name": "collect",
      "outputs": [
        {
          "name": "result",
          "type": "int8"
        }
      ],
      "payable": false,
      "type": "function",
      "stateMutability": "nonpayable"
    },
    {
      "constant": true,
      "inputs": [],
      "name": "disbursedLoanInUcd",
      "outputs": [
        {
          "name": "",
          "type": "uint256"
        }
      ],
      "payable": false,
      "type": "function",
      "stateMutability": "view"
    },
    {
      "constant": true,
      "inputs": [],
      "name": "getDetails",
      "outputs": [
        {
          "name": "_owner",
          "type": "address"
        },
        {
          "name": "_loanManager",
          "type": "address"
        },
        {
          "name": "_tokenUcd",
          "type": "address"
        },
        {
          "name": "_loanState",
          "type": "uint8"
        },
        {
          "name": "_ucdDueAtMaturity",
          "type": "uint256"
        },
        {
          "name": "_disbursedLoanInUcd",
          "type": "uint256"
        },
        {
          "name": "_term",
          "type": "uint256"
        },
        {
          "name": "_disbursementDate",
          "type": "uint256"
        },
        {
          "name": "_maturity",
          "type": "uint256"
        },
        {
          "name": "_repayPeriod",
          "type": "uint256"
        },
        {
          "name": "_loanId",
          "type": "uint256"
        }
      ],
      "payable": false,
      "type": "function",
      "stateMutability": "view"
    },
    {
      "inputs": [
        {
          "name": "_loanId",
          "type": "uint256"
        },
        {
          "name": "_borrower",
          "type": "address"
        },
        {
          "name": "_term",
          "type": "uint256"
        },
        {
          "name": "_disbursedLoanInUcd",
          "type": "uint256"
        },
        {
          "name": "_ucdDueAtMaturity",
          "type": "uint256"
        },
        {
          "name": "_repayPeriod",
          "type": "uint256"
        }
      ],
      "payable": false,
      "type": "constructor",
      "stateMutability": "nonpayable"
    },
    {
      "payable": true,
      "type": "fallback",
      "stateMutability": "payable"
    }
  ],
  "bytecode": "0x6060604052341561000f57600080fd5b60405160c080610f2c833981016040528080519060200190919080519060200190919080519060200190919080519060200190919080519060200190919080519060200190919050508560038190555033600160006101000a81548173ffffffffffffffffffffffffffffffffffffffff021916908373ffffffffffffffffffffffffffffffffffffffff160217905550846000806101000a81548173ffffffffffffffffffffffffffffffffffffffff021916908373ffffffffffffffffffffffffffffffffffffffff160217905550600160009054906101000a900473ffffffffffffffffffffffffffffffffffffffff1673ffffffffffffffffffffffffffffffffffffffff166335b6f81b6000604051602001526040518163ffffffff167c0100000000000000000000000000000000000000000000000000000000028152600401602060405180830381600087803b151561016e57600080fd5b6102c65a03f1151561017f57600080fd5b50505060405180519050600260006101000a81548173ffffffffffffffffffffffffffffffffffffffff021916908373ffffffffffffffffffffffffffffffffffffffff16021790555083600681905550426007819055506101fb60065460075461024564010000000002610c70179091906401000000009004565b6008819055508060098190555082600581905550816004819055506000600260146101000a81548160ff0219169083600281111561023557fe5b0217905550505050505050610263565b600080828401905083811015151561025957fe5b8091505092915050565b610cba806102726000396000f300606060405260043610610128576000357c0100000000000000000000000000000000000000000000000000000000900463ffffffff168063204f83f91461012a578063207efe651461015357806325af34cd146101825780632bf51e40146101b95780632cbdbd16146101e257806335b6f81b1461020b578063402d88831461026057806354d0258b1461028f57806368e8d7d6146102eb5780636ac2be9e1461031a5780636ff6680e146103495780638da5cb5b146103785780639c5a5880146103cd578063a10ffbed146103f6578063afb7cee01461041f578063b3ccbcfe1461044e578063c95669a5146104a3578063ca457372146104cc578063d0a6d1a6146104fb578063e52253811461052a578063e720fe9414610559578063fbbf93a014610582575b005b341561013557600080fd5b61013d610683565b6040518082815260200191505060405180910390f35b341561015e57600080fd5b610166610689565b604051808260000b60000b815260200191505060405180910390f35b341561018d57600080fd5b6101956106ad565b604051808260028111156101a557fe5b60ff16815260200191505060405180910390f35b34156101c457600080fd5b6101cc6106c0565b6040518082815260200191505060405180910390f35b34156101ed57600080fd5b6101f56106c6565b6040518082815260200191505060405180910390f35b341561021657600080fd5b61021e6106cc565b604051808273ffffffffffffffffffffffffffffffffffffffff1673ffffffffffffffffffffffffffffffffffffffff16815260200191505060405180910390f35b341561026b57600080fd5b6102736106f2565b604051808260000b60000b815260200191505060405180910390f35b341561029a57600080fd5b6102cf600480803573ffffffffffffffffffffffffffffffffffffffff169060200190919080359060200190919050506108a0565b604051808260000b60000b815260200191505060405180910390f35b34156102f657600080fd5b6102fe6108d1565b604051808260000b60000b815260200191505060405180910390f35b341561032557600080fd5b61032d6108f5565b604051808260000b60000b815260200191505060405180910390f35b341561035457600080fd5b61035c610919565b604051808260000b60000b815260200191505060405180910390f35b341561038357600080fd5b61038b61093d565b604051808273ffffffffffffffffffffffffffffffffffffffff1673ffffffffffffffffffffffffffffffffffffffff16815260200191505060405180910390f35b34156103d857600080fd5b6103e0610962565b6040518082815260200191505060405180910390f35b341561040157600080fd5b610409610968565b6040518082815260200191505060405180910390f35b341561042a57600080fd5b61043261096e565b604051808260000b60000b815260200191505060405180910390f35b341561045957600080fd5b610461610992565b604051808273ffffffffffffffffffffffffffffffffffffffff1673ffffffffffffffffffffffffffffffffffffffff16815260200191505060405180910390f35b34156104ae57600080fd5b6104b66109b8565b6040518082815260200191505060405180910390f35b34156104d757600080fd5b6104df6109be565b604051808260000b60000b815260200191505060405180910390f35b341561050657600080fd5b61050e6109e2565b604051808260000b60000b815260200191505060405180910390f35b341561053557600080fd5b61053d6109e7565b604051808260000b60000b815260200191505060405180910390f35b341561056457600080fd5b61056c610ba9565b6040518082815260200191505060405180910390f35b341561058d57600080fd5b610595610baf565b604051808c73ffffffffffffffffffffffffffffffffffffffff1673ffffffffffffffffffffffffffffffffffffffff1681526020018b73ffffffffffffffffffffffffffffffffffffffff1673ffffffffffffffffffffffffffffffffffffffff1681526020018a73ffffffffffffffffffffffffffffffffffffffff1673ffffffffffffffffffffffffffffffffffffffff16815260200189600281111561063b57fe5b60ff1681526020018881526020018781526020018681526020018581526020018481526020018381526020018281526020019b50505050505050505050505060405180910390f35b60085481565b7ffffffffffffffffffffffffffffffffffffffffffffffffffffffffffffffffe81565b600260149054906101000a900460ff1681565b60095481565b60045481565b600260009054906101000a900473ffffffffffffffffffffffffffffffffffffffff1681565b6000600160009054906101000a900473ffffffffffffffffffffffffffffffffffffffff1673ffffffffffffffffffffffffffffffffffffffff163373ffffffffffffffffffffffffffffffffffffffff16141515610773577ffffffffffffffffffffffffffffffffffffffffffffffffffffffffffffffffc905061089d565b6000600281111561078057fe5b600260149054906101000a900460ff16600281111561079b57fe5b1415156107ca577ffffffffffffffffffffffffffffffffffffffffffffffffffffffffffffffffb905061089d565b6008544210156107fc577ffffffffffffffffffffffffffffffffffffffffffffffffffffffffffffffffe905061089d565b6001600260146101000a81548160ff0219169083600281111561081b57fe5b02179055506000809054906101000a900473ffffffffffffffffffffffffffffffffffffffff1673ffffffffffffffffffffffffffffffffffffffff166108fc3073ffffffffffffffffffffffffffffffffffffffff16319081150290604051600060405180830381858888f19350505050151561089857600080fd5b600190505b90565b60008292508191507fffffffffffffffffffffffffffffffffffffffffffffffffffffffffffffffff905092915050565b7fffffffffffffffffffffffffffffffffffffffffffffffffffffffffffffffff81565b7ffffffffffffffffffffffffffffffffffffffffffffffffffffffffffffffffc81565b7ffffffffffffffffffffffffffffffffffffffffffffffffffffffffffffffffb81565b6000809054906101000a900473ffffffffffffffffffffffffffffffffffffffff1681565b60075481565b60065481565b7ffffffffffffffffffffffffffffffffffffffffffffffffffffffffffffffff681565b600160009054906101000a900473ffffffffffffffffffffffffffffffffffffffff1681565b60035481565b7ffffffffffffffffffffffffffffffffffffffffffffffffffffffffffffffffd81565b600181565b6000600160009054906101000a900473ffffffffffffffffffffffffffffffffffffffff1673ffffffffffffffffffffffffffffffffffffffff163373ffffffffffffffffffffffffffffffffffffffff16141515610a68577ffffffffffffffffffffffffffffffffffffffffffffffffffffffffffffffffc9050610ba6565b60006002811115610a7557fe5b600260149054906101000a900460ff166002811115610a9057fe5b141515610abf577ffffffffffffffffffffffffffffffffffffffffffffffffffffffffffffffffb9050610ba6565b610ad6600954600854610c7090919063ffffffff16565b421015610b05577fffffffffffffffffffffffffffffffffffffffffffffffffffffffffffffffff9050610ba6565b60028060146101000a81548160ff02191690836002811115610b2357fe5b0217905550600260009054906101000a900473ffffffffffffffffffffffffffffffffffffffff1673ffffffffffffffffffffffffffffffffffffffff166108fc3073ffffffffffffffffffffffffffffffffffffffff16319081150290604051600060405180830381858888f193505050501515610ba157600080fd5b600190505b90565b60055481565b60008060008060008060008060008060008060009054906101000a900473ffffffffffffffffffffffffffffffffffffffff16600160009054906101000a900473ffffffffffffffffffffffffffffffffffffffff16600260009054906101000a900473ffffffffffffffffffffffffffffffffffffffff16600260149054906101000a900460ff166004546005546006546007546008546009546003549a509a509a509a509a509a509a509a509a509a509a50909192939495969798999a565b6000808284019050838110151515610c8457fe5b80915050929150505600a165627a7a72305820bc06527d1bdf283eaa43ebc338b49272e6540862596ceb3d856d74ec5e8608420029",
  "source": "/* contract for each loan given in UCD for ETH collateral\n    holds ETH collateral in contract balance, only allows access to it on maturity\n    TODO: add reentrancy protection\n    TODO: consider storing collateral amount when loan created for easier tracking after repayment\n    TODO: consider store loanId (maintened in loanManager)\n    TODO: consider moving all repay functionality here from loanManager to make it self contained\n         - would need to remove state from loanManager (so wouldn't need to call loanManager for housekeeping)\n         - it would call tokenUcd directly, TBD: how would tokenUcd check permission if it doesn't know about contracts\n         - consider sending UCD to this loanContract  first?\n    TODO: it costs 1094127 gas to create this contract. consider moving all functions to a library to reduce it\n    TODO: implement sellLoan\n    TODO: consider a generic loan contract interface\n*/\n\npragma solidity ^0.4.11;\n\nimport \"./SafeMath.sol\";\nimport \"./TokenUcd.sol\";\nimport \"./LoanManager.sol\";\n\ncontract EthBackedLoan {\n    using SafeMath for uint256;\n    enum LoanState { Open, Repaid, Defaulted } // TODO: move this to a lib (used by TokenUcd too)\n    address public owner; // the borrower\n    LoanManager public loanManager; // loan manager contract instance\n    TokenUcd public tokenUcd; // tokenUcd instance\n\n    LoanState public loanState;\n    uint public loanId;\n    uint public ucdDueAtMaturity; // nominal loan amount in UCD (non discounted amount)\n    uint public disbursedLoanInUcd;\n    uint public term; // duration of loan\n    uint public disbursementDate;\n    uint public maturity; // disbursementDate + term\n    uint public repayPeriod; // number of seconds after maturity before collect can be executed\n\n    int8 public constant SUCCESS = 1;\n    int8 public constant ERR_COLLECT_NOT_DUE_YET = -1;\n    int8 public constant ERR_REPAY_NOT_DUE_YET = -2;\n    int8 public constant ERR_UCD_BALANCE_NOT_ENOUGH = -3;\n    int8 public constant ERR_NOT_AUTHORISED = -4;\n    int8 public constant ERR_LOAN_NOT_OPEN = -5;\n    int8 public constant ERR_EXT_ERRCODE_BASE = -10; // used to pass on error code returned fro mexternal calls\n\n    function() payable { } // to accept ETH collateral sent\n    // TODO: should it refuse any other amount sent after?\n    //       doens't seem to be a real issue as all ETH is going to be release after maturity anyway..\n\n    function EthBackedLoan(uint _loanId, address _borrower, uint _term, uint _disbursedLoanInUcd,\n                            uint _ucdDueAtMaturity, uint _repayPeriod) {\n        loanId = _loanId;\n        loanManager = LoanManager(msg.sender);\n        owner = _borrower;\n        tokenUcd = loanManager.tokenUcd();\n        term = _term;\n        disbursementDate = now;\n        maturity = disbursementDate.add(term);\n        repayPeriod = _repayPeriod;\n        disbursedLoanInUcd = _disbursedLoanInUcd;\n        ucdDueAtMaturity = _ucdDueAtMaturity;\n        loanState = LoanState.Open;\n    }\n\n    function getDetails() constant returns (\n                                    address _owner,\n                                    LoanManager _loanManager,\n                                    TokenUcd _tokenUcd,\n                                    LoanState _loanState,\n                                    uint _ucdDueAtMaturity,\n                                    uint _disbursedLoanInUcd,\n                                    uint _term,\n                                    uint _disbursementDate,\n                                    uint _maturity,\n                                    uint _repayPeriod,\n                                    uint _loanId\n        ) {\n            return (\n                owner, // 0 the borrower\n                loanManager, // 1 loan manager contract instance\n                tokenUcd, // 2 tokenUcd instance\n                loanState, // 3\n                ucdDueAtMaturity, // 4 nominal loan amount in UCD (non discounted amount)\n                disbursedLoanInUcd, // 5\n                term, // 6 duration of loan\n                disbursementDate, // 7\n                maturity, // 8 disbursementDate + term\n                repayPeriod, // 9\n                loanId // 10\n            );\n    }\n\n    function repay() returns (int8 result) {\n        // TODO: don't allow repayment when repayPeriod is over\n        //  TODO: rename this function, eg. releaseCollateralWhenRepaid closeRepaid?\n        if( msg.sender != address(loanManager)) {\n            // repayment is only through loanManager.\n            // loanManager only allows owner to repay loan\n            return ERR_NOT_AUTHORISED;\n        }\n        if(loanState != LoanState.Open) {\n            return ERR_LOAN_NOT_OPEN;\n        }\n\n        if(now < maturity) {\n            return ERR_REPAY_NOT_DUE_YET;\n        }\n\n        loanState = LoanState.Repaid;\n         // send back ETH collateral held in this contract\n        owner.transfer(this.balance);\n\n        return SUCCESS;\n    }\n\n    function collect() returns (int8 result) {\n        /* This function is only callable by loanManager contract.\n           It MUST throw an exception if there is an error after any state change happened here.\n                It's to ensure that any changes made in loanmanager before this call are reverted too.\n                see loanManager.collect() for more details.\n        TODO: payback collateral over the UCD value\n        TODO: deduct fee\n        */\n        if( msg.sender != address(loanManager)) {\n            // default is only through loanManager\n            return ERR_NOT_AUTHORISED;\n        }\n\n        if(loanState != LoanState.Open) {\n            return ERR_LOAN_NOT_OPEN;\n        }\n\n        if(now < maturity.add(repayPeriod) ) {\n            return ERR_COLLECT_NOT_DUE_YET;\n        }\n\n        loanState = LoanState.Defaulted;\n        // send ETH collateral to tokenUcd reserve\n        address(tokenUcd).transfer(this.balance);\n\n        return SUCCESS;\n    }\n\n    function sellLoan(address buyer, uint priceInUcd) returns (int8 result) {\n        /* TODO: 2 steps process, offer/approve method TBD\n        */\n        buyer = buyer; // to silence complier warnings until it's implemented\n        priceInUcd = priceInUcd;\n        return -1;\n    }\n\n}\n",
  "sourcePath": "/Users/petro/ether/dcm-poc/contracts/EthBackedLoan.sol",
  "compiler": {
    "name": "solc",
    "version": "0.4.18+commit.9cf6e910.Emscripten.clang"
  },
  "schemaVersion": "1.0.1",
  "updatedAt": "2017-11-02T15:14:56.494Z"
}