{
  "contractName": "Exchange",
  "abi": [
    {
      "constant": true,
      "inputs": [
        {
          "name": "",
          "type": "uint64"
        }
      ],
      "name": "buyTokenOrders",
      "outputs": [
        {
          "name": "index",
          "type": "uint64"
        },
        {
          "name": "maker",
          "type": "address"
        },
        {
          "name": "price",
          "type": "uint32"
        },
        {
          "name": "amount",
          "type": "uint256"
        }
      ],
      "payable": false,
      "stateMutability": "view",
      "type": "function"
    },
    {
      "constant": true,
      "inputs": [],
      "name": "orderCount",
      "outputs": [
        {
          "name": "",
          "type": "uint64"
        }
      ],
      "payable": false,
      "stateMutability": "view",
      "type": "function"
    },
    {
      "constant": true,
      "inputs": [],
      "name": "augmintToken",
      "outputs": [
        {
          "name": "",
          "type": "address"
        }
      ],
      "payable": false,
      "stateMutability": "view",
      "type": "function"
    },
    {
      "constant": true,
      "inputs": [
        {
          "name": "",
          "type": "uint64"
        }
      ],
      "name": "sellTokenOrders",
      "outputs": [
        {
          "name": "index",
          "type": "uint64"
        },
        {
          "name": "maker",
          "type": "address"
        },
        {
          "name": "price",
          "type": "uint32"
        },
        {
          "name": "amount",
          "type": "uint256"
        }
      ],
      "payable": false,
      "stateMutability": "view",
      "type": "function"
    },
    {
      "constant": true,
      "inputs": [],
      "name": "CHUNK_SIZE",
      "outputs": [
        {
          "name": "",
          "type": "uint256"
        }
      ],
      "payable": false,
      "stateMutability": "view",
      "type": "function"
    },
    {
      "inputs": [
        {
          "name": "_augmintToken",
          "type": "address"
        }
      ],
      "payable": false,
      "stateMutability": "nonpayable",
      "type": "constructor"
    },
    {
      "anonymous": false,
      "inputs": [
        {
          "indexed": true,
          "name": "orderId",
          "type": "uint64"
        },
        {
          "indexed": true,
          "name": "maker",
          "type": "address"
        },
        {
          "indexed": false,
          "name": "price",
          "type": "uint32"
        },
        {
          "indexed": false,
          "name": "tokenAmount",
          "type": "uint256"
        },
        {
          "indexed": false,
          "name": "weiAmount",
          "type": "uint256"
        }
      ],
      "name": "NewOrder",
      "type": "event"
    },
    {
      "anonymous": false,
      "inputs": [
        {
          "indexed": true,
          "name": "tokenBuyer",
          "type": "address"
        },
        {
          "indexed": true,
          "name": "tokenSeller",
          "type": "address"
        },
        {
          "indexed": false,
          "name": "buyTokenOrderId",
          "type": "uint64"
        },
        {
          "indexed": false,
          "name": "sellTokenOrderId",
          "type": "uint64"
        },
        {
          "indexed": false,
          "name": "price",
          "type": "uint32"
        },
        {
          "indexed": false,
          "name": "weiAmount",
          "type": "uint256"
        },
        {
          "indexed": false,
          "name": "tokenAmount",
          "type": "uint256"
        }
      ],
      "name": "OrderFill",
      "type": "event"
    },
    {
      "anonymous": false,
      "inputs": [
        {
          "indexed": true,
          "name": "orderId",
          "type": "uint64"
        },
        {
          "indexed": true,
          "name": "maker",
          "type": "address"
        },
        {
          "indexed": false,
          "name": "tokenAmount",
          "type": "uint256"
        },
        {
          "indexed": false,
          "name": "weiAmount",
          "type": "uint256"
        }
      ],
      "name": "CancelledOrder",
      "type": "event"
    },
    {
      "constant": false,
      "inputs": [
        {
          "name": "price",
          "type": "uint32"
        }
      ],
      "name": "placeBuyTokenOrder",
      "outputs": [
        {
          "name": "orderId",
          "type": "uint64"
        }
      ],
      "payable": true,
      "stateMutability": "payable",
      "type": "function"
    },
    {
      "constant": false,
      "inputs": [
        {
          "name": "price",
          "type": "uint32"
        },
        {
          "name": "tokenAmount",
          "type": "uint256"
        }
      ],
      "name": "placeSellTokenOrder",
      "outputs": [
        {
          "name": "orderId",
          "type": "uint256"
        }
      ],
      "payable": false,
      "stateMutability": "nonpayable",
      "type": "function"
    },
    {
      "constant": false,
      "inputs": [
        {
          "name": "maker",
          "type": "address"
        },
        {
          "name": "tokenAmount",
          "type": "uint256"
        },
        {
          "name": "price",
          "type": "uint256"
        }
      ],
      "name": "transferNotification",
      "outputs": [],
      "payable": false,
      "stateMutability": "nonpayable",
      "type": "function"
    },
    {
      "constant": false,
      "inputs": [
        {
          "name": "buyTokenId",
          "type": "uint64"
        }
      ],
      "name": "cancelBuyTokenOrder",
      "outputs": [],
      "payable": false,
      "stateMutability": "nonpayable",
      "type": "function"
    },
    {
      "constant": false,
      "inputs": [
        {
          "name": "sellTokenId",
          "type": "uint64"
        }
      ],
      "name": "cancelSellTokenOrder",
      "outputs": [],
      "payable": false,
      "stateMutability": "nonpayable",
      "type": "function"
    },
    {
      "constant": false,
      "inputs": [
        {
          "name": "buyTokenId",
          "type": "uint64"
        },
        {
          "name": "sellTokenId",
          "type": "uint64"
        }
      ],
      "name": "matchOrders",
      "outputs": [],
      "payable": false,
      "stateMutability": "nonpayable",
      "type": "function"
    },
    {
      "constant": false,
      "inputs": [
        {
          "name": "buyTokenIds",
          "type": "uint64[]"
        },
        {
          "name": "sellTokenIds",
          "type": "uint64[]"
        }
      ],
      "name": "matchMultipleOrders",
      "outputs": [
        {
          "name": "matchCount",
          "type": "uint256"
        }
      ],
      "payable": false,
      "stateMutability": "nonpayable",
      "type": "function"
    },
    {
      "constant": true,
      "inputs": [],
      "name": "getActiveOrderCounts",
      "outputs": [
        {
          "name": "buyTokenOrderCount",
          "type": "uint256"
        },
        {
          "name": "sellTokenOrderCount",
          "type": "uint256"
        }
      ],
      "payable": false,
      "stateMutability": "view",
      "type": "function"
    },
    {
      "constant": true,
      "inputs": [
        {
          "name": "offset",
          "type": "uint256"
        }
      ],
      "name": "getActiveBuyOrders",
      "outputs": [
        {
          "name": "response",
          "type": "uint256[4][100]"
        }
      ],
      "payable": false,
      "stateMutability": "view",
      "type": "function"
    },
    {
      "constant": true,
      "inputs": [
        {
          "name": "offset",
          "type": "uint256"
        }
      ],
      "name": "getActiveSellOrders",
      "outputs": [
        {
          "name": "response",
          "type": "uint256[4][100]"
        }
      ],
      "payable": false,
      "stateMutability": "view",
      "type": "function"
    }
  ],
  "bytecode": "0x608060405234801561001057600080fd5b506040516020806122b183398101806040528101908080519060200190929190505050806000806101000a81548173ffffffffffffffffffffffffffffffffffffffff021916908373ffffffffffffffffffffffffffffffffffffffff1602179055505061222e806100836000396000f3006080604052600436106100db576000357c0100000000000000000000000000000000000000000000000000000000900463ffffffff1680630c85feea146100e05780630d53272e1461012b5780632453ffa8146101d75780632bd0ce0f146102165780632dc9d3e51461024d57806364e7e4a41461029e5780636e593210146102f55780637b9b9c89146103815780637e6503bb146103d8578063ae94ec051461040a578063bcaeed2014610458578063c3c51aca14610504578063c7e834511461053b578063c93e8b15146105a2578063e91e13a91461062e575b600080fd5b3480156100ec57600080fd5b50610129600480360381019080803567ffffffffffffffff169060200190929190803567ffffffffffffffff169060200190929190505050610659565b005b34801561013757600080fd5b50610160600480360381019080803567ffffffffffffffff169060200190929190505050610667565b604051808567ffffffffffffffff1667ffffffffffffffff1681526020018473ffffffffffffffffffffffffffffffffffffffff1673ffffffffffffffffffffffffffffffffffffffff1681526020018363ffffffff1663ffffffff16815260200182815260200194505050505060405180910390f35b3480156101e357600080fd5b506101ec6106db565b604051808267ffffffffffffffff1667ffffffffffffffff16815260200191505060405180910390f35b34801561022257600080fd5b5061024b600480360381019080803567ffffffffffffffff1690602001909291905050506106f5565b005b34801561025957600080fd5b50610288600480360381019080803563ffffffff169060200190929190803590602001909291905050506108b0565b6040518082815260200191505060405180910390f35b3480156102aa57600080fd5b506102f3600480360381019080803573ffffffffffffffffffffffffffffffffffffffff1690602001909291908035906020019092919080359060200190929190505050610a03565b005b34801561030157600080fd5b5061032060048036038101908080359060200190929190505050610ad8565b604051808260646000925b818410156103715782846020020151600460200280838360005b83811015610360578082015181840152602081019050610345565b50505050905001926001019261032b565b9250505091505060405180910390f35b34801561038d57600080fd5b50610396610c25565b604051808273ffffffffffffffffffffffffffffffffffffffff1673ffffffffffffffffffffffffffffffffffffffff16815260200191505060405180910390f35b3480156103e457600080fd5b506103ed610c4a565b604051808381526020018281526020019250505060405180910390f35b61042e600480360381019080803563ffffffff169060200190929190505050610c61565b604051808267ffffffffffffffff1667ffffffffffffffff16815260200191505060405180910390f35b34801561046457600080fd5b5061048d600480360381019080803567ffffffffffffffff169060200190929190505050610f8d565b604051808567ffffffffffffffff1667ffffffffffffffff1681526020018473ffffffffffffffffffffffffffffffffffffffff1673ffffffffffffffffffffffffffffffffffffffff1681526020018363ffffffff1663ffffffff16815260200182815260200194505050505060405180910390f35b34801561051057600080fd5b50610539600480360381019080803567ffffffffffffffff169060200190929190505050611001565b005b34801561054757600080fd5b5061058c60048036038101908080359060200190820180359060200191909192939192939080359060200190820180359060200191909192939192939050505061128a565b6040518082815260200191505060405180910390f35b3480156105ae57600080fd5b506105cd600480360381019080803590602001909291905050506113bb565b604051808260646000925b8184101561061e5782846020020151600460200280838360005b8381101561060d5780820151818401526020810190506105f2565b5050505090500192600101926105d8565b9250505091505060405180910390f35b34801561063a57600080fd5b50610643611508565b6040518082815260200191505060405180910390f35b610663828261150d565b5050565b60016020528060005260406000206000915090508060000160009054906101000a900467ffffffffffffffff16908060000160089054906101000a900473ffffffffffffffffffffffffffffffffffffffff169080600001601c9054906101000a900463ffffffff16908060010154905084565b600060149054906101000a900467ffffffffffffffff1681565b600080600160008467ffffffffffffffff1667ffffffffffffffff16815260200190815260200160002091503373ffffffffffffffffffffffffffffffffffffffff168260000160089054906101000a900473ffffffffffffffffffffffffffffffffffffffff1673ffffffffffffffffffffffffffffffffffffffff161415156107e8576040517f08c379a000000000000000000000000000000000000000000000000000000000815260040180806020018281038252601e8152602001807f6d73672e73656e646572206d757374206265206f726465722e6d616b6572000081525060200191505060405180910390fd5b816001015490506000826001018190555061080282611a15565b3373ffffffffffffffffffffffffffffffffffffffff166108fc829081150290604051600060405180830381858888f19350505050158015610848573d6000803e3d6000fd5b503373ffffffffffffffffffffffffffffffffffffffff168367ffffffffffffffff167f46576cf7860a96ee935d6c6cb19aed137c56b1338f49b73225afe99cb923e761600084604051808381526020018281526020019250505060405180910390a3505050565b60008060009054906101000a900473ffffffffffffffffffffffffffffffffffffffff1673ffffffffffffffffffffffffffffffffffffffff166323b872dd3330856040518463ffffffff167c0100000000000000000000000000000000000000000000000000000000028152600401808473ffffffffffffffffffffffffffffffffffffffff1673ffffffffffffffffffffffffffffffffffffffff1681526020018373ffffffffffffffffffffffffffffffffffffffff1673ffffffffffffffffffffffffffffffffffffffff1681526020018281526020019350505050602060405180830381600087803b1580156109aa57600080fd5b505af11580156109be573d6000803e3d6000fd5b505050506040513d60208110156109d457600080fd5b8101908080519060200190929190505050506109f1338484611a3b565b67ffffffffffffffff16905092915050565b6000809054906101000a900473ffffffffffffffffffffffffffffffffffffffff1673ffffffffffffffffffffffffffffffffffffffff163373ffffffffffffffffffffffffffffffffffffffff16141515610ac7576040517f08c379a000000000000000000000000000000000000000000000000000000000815260040180806020018281038252601f8152602001807f6d73672e73656e646572206d757374206265206175676d696e74546f6b656e0081525060200191505060405180910390fd5b610ad2838284611a3b565b50505050565b610ae0612151565b60008060008092505b60648360ff16108015610b055750600480549050858460ff1601105b15610c1d5760048360ff168601815481101515610b1e57fe5b90600052602060002090600491828204019190066008029054906101000a900467ffffffffffffffff169150600260008367ffffffffffffffff1667ffffffffffffffff16815260200190815260200160002090506080604051908101604052808367ffffffffffffffff1681526020018260000160089054906101000a900473ffffffffffffffffffffffffffffffffffffffff1673ffffffffffffffffffffffffffffffffffffffff16815260200182600001601c9054906101000a900463ffffffff1663ffffffff1681526020018260010154815250848460ff16606481101515610c0857fe5b60200201819052508280600101935050610ae9565b505050919050565b6000809054906101000a900473ffffffffffffffffffffffffffffffffffffffff1681565b600080600380549050600480549050915091509091565b6000808263ffffffff16111515610ce0576040517f08c379a00000000000000000000000000000000000000000000000000000000081526004018080602001828103825260118152602001807f7072696365206d757374206265203e203000000000000000000000000000000081525060200191505060405180910390fd5b600034111515610d58576040517f08c379a00000000000000000000000000000000000000000000000000000000081526004018080602001828103825260158152602001807f6d73672e76616c7565206d757374206265203e2030000000000000000000000081525060200191505060405180910390fd5b6000601481819054906101000a900467ffffffffffffffff1660010191906101000a81548167ffffffffffffffff021916908367ffffffffffffffff1602179055905060806040519081016040528060038054905067ffffffffffffffff1681526020013373ffffffffffffffffffffffffffffffffffffffff1681526020018363ffffffff16815260200134815250600160008367ffffffffffffffff1667ffffffffffffffff16815260200190815260200160002060008201518160000160006101000a81548167ffffffffffffffff021916908367ffffffffffffffff16021790555060208201518160000160086101000a81548173ffffffffffffffffffffffffffffffffffffffff021916908373ffffffffffffffffffffffffffffffffffffffff160217905550604082015181600001601c6101000a81548163ffffffff021916908363ffffffff16021790555060608201518160010155905050600381908060018154018082558091505090600182039060005260206000209060049182820401919006600802909192909190916101000a81548167ffffffffffffffff021916908367ffffffffffffffff160217905550503373ffffffffffffffffffffffffffffffffffffffff168167ffffffffffffffff167f19e48c9ddede2f434b2a662a6e331ff29b3701f08ad88722e4fecf058b3fd75984600034604051808463ffffffff1663ffffffff168152602001838152602001828152602001935050505060405180910390a3919050565b60026020528060005260406000206000915090508060000160009054906101000a900467ffffffffffffffff16908060000160089054906101000a900473ffffffffffffffffffffffffffffffffffffffff169080600001601c9054906101000a900463ffffffff16908060010154905084565b600080600260008467ffffffffffffffff1667ffffffffffffffff16815260200190815260200160002091503373ffffffffffffffffffffffffffffffffffffffff168260000160089054906101000a900473ffffffffffffffffffffffffffffffffffffffff1673ffffffffffffffffffffffffffffffffffffffff161415156110f4576040517f08c379a000000000000000000000000000000000000000000000000000000000815260040180806020018281038252601e8152602001807f6d73672e73656e646572206d757374206265206f726465722e6d616b6572000081525060200191505060405180910390fd5b816001015490506000826001018190555061110e82611d69565b6000809054906101000a900473ffffffffffffffffffffffffffffffffffffffff1673ffffffffffffffffffffffffffffffffffffffff1663ffdcf09533836040518363ffffffff167c0100000000000000000000000000000000000000000000000000000000028152600401808373ffffffffffffffffffffffffffffffffffffffff1673ffffffffffffffffffffffffffffffffffffffff168152602001828152602001806020018281038252601a8152602001807f53656c6c20746f6b656e206f726465722063616e63656c6c65640000000000008152506020019350505050600060405180830381600087803b15801561120b57600080fd5b505af115801561121f573d6000803e3d6000fd5b505050503373ffffffffffffffffffffffffffffffffffffffff168367ffffffffffffffff167f46576cf7860a96ee935d6c6cb19aed137c56b1338f49b73225afe99cb923e761836000604051808381526020018281526020019250505060405180910390a3505050565b6000806000868690509150600090505b81811080156112b15750620186a063ffffffff165a115b156113b1578484905082141515611356576040517f08c379a00000000000000000000000000000000000000000000000000000000081526004018080602001828103825260328152602001807f627579546f6b656e49647320616e642073656c6c546f6b656e496473206c656e81526020017f67746873206d75737420626520657175616c000000000000000000000000000081525060400191505060405180910390fd5b61139c878783818110151561136757fe5b9050602002013567ffffffffffffffff16868684818110151561138657fe5b9050602002013567ffffffffffffffff1661150d565b8280600101935050808060010191505061129a565b5050949350505050565b6113c3612151565b60008060008092505b60648360ff161080156113e85750600380549050858460ff1601105b156115005760038360ff16860181548110151561140157fe5b90600052602060002090600491828204019190066008029054906101000a900467ffffffffffffffff169150600160008367ffffffffffffffff1667ffffffffffffffff16815260200190815260200160002090506080604051908101604052808367ffffffffffffffff1681526020018260000160089054906101000a900473ffffffffffffffffffffffffffffffffffffffff1673ffffffffffffffffffffffffffffffffffffffff16815260200182600001601c9054906101000a900463ffffffff1663ffffffff1681526020018260010154815250848460ff166064811015156114eb57fe5b602002018190525082806001019350506113cc565b505050919050565b606481565b600080600080600080600160008967ffffffffffffffff1667ffffffffffffffff1681526020019081526020016000209550600260008867ffffffffffffffff1667ffffffffffffffff168152602001908152602001600020945084600001601c9054906101000a900463ffffffff1663ffffffff1686600001601c9054906101000a900463ffffffff1663ffffffff1610151515611614576040517f08c379a000000000000000000000000000000000000000000000000000000000815260040180806020018281038252601f8152602001807f627579207072696365206d757374206265203e3d2073656c6c2070726963650081525060200191505060405180910390fd5b61166e600261166087600001601c9054906101000a900463ffffffff1663ffffffff1689600001601c9054906101000a900463ffffffff1663ffffffff16611d8f90919063ffffffff16565b611e1990919063ffffffff16565b93506116a184611693670de0b6b3a76400008860010154611eac90919063ffffffff16565b611f4b90919063ffffffff16565b92508560010154831115156116bf57829150846001015490506116fa565b856001015491506116f7670de0b6b3a76400006116e9868960010154611eac90919063ffffffff16565b611f4b90919063ffffffff16565b90505b61171182876001015461200790919063ffffffff16565b86600101819055506000866001015414156117305761172f86611a15565b5b61174781866001015461200790919063ffffffff16565b85600101819055506000856001015414156117665761176585611d69565b5b6000809054906101000a900473ffffffffffffffffffffffffffffffffffffffff1673ffffffffffffffffffffffffffffffffffffffff1663ffdcf0958760000160089054906101000a900473ffffffffffffffffffffffffffffffffffffffff16836040518363ffffffff167c0100000000000000000000000000000000000000000000000000000000028152600401808373ffffffffffffffffffffffffffffffffffffffff1673ffffffffffffffffffffffffffffffffffffffff16815260200182815260200180602001828103825260148152602001807f42757920746f6b656e206f726465722066696c6c0000000000000000000000008152506020019350505050600060405180830381600087803b15801561188757600080fd5b505af115801561189b573d6000803e3d6000fd5b505050508460000160089054906101000a900473ffffffffffffffffffffffffffffffffffffffff1673ffffffffffffffffffffffffffffffffffffffff166108fc839081150290604051600060405180830381858888f19350505050158015611909573d6000803e3d6000fd5b508460000160089054906101000a900473ffffffffffffffffffffffffffffffffffffffff1673ffffffffffffffffffffffffffffffffffffffff168660000160089054906101000a900473ffffffffffffffffffffffffffffffffffffffff1673ffffffffffffffffffffffffffffffffffffffff167fdb33ebc776d0a89df7663a9051bd8e40d5b751d74d9fd7f86ede82e6d16f4c678a8a888787604051808667ffffffffffffffff1667ffffffffffffffff1681526020018567ffffffffffffffff1667ffffffffffffffff1681526020018463ffffffff1663ffffffff1681526020018381526020018281526020019550505050505060405180910390a35050505050505050565b611a3860038260000160009054906101000a900467ffffffffffffffff1661208c565b50565b6000808363ffffffff16111515611aba576040517f08c379a00000000000000000000000000000000000000000000000000000000081526004018080602001828103825260118152602001807f7072696365206d757374206265203e203000000000000000000000000000000081525060200191505060405180910390fd5b600082111515611b32576040517f08c379a00000000000000000000000000000000000000000000000000000000081526004018080602001828103825260178152602001807f746f6b656e416d6f756e74206d757374206265203e203000000000000000000081525060200191505060405180910390fd5b6000601481819054906101000a900467ffffffffffffffff1660010191906101000a81548167ffffffffffffffff021916908367ffffffffffffffff1602179055905060806040519081016040528060048054905067ffffffffffffffff1681526020018573ffffffffffffffffffffffffffffffffffffffff1681526020018463ffffffff16815260200183815250600260008367ffffffffffffffff1667ffffffffffffffff16815260200190815260200160002060008201518160000160006101000a81548167ffffffffffffffff021916908367ffffffffffffffff16021790555060208201518160000160086101000a81548173ffffffffffffffffffffffffffffffffffffffff021916908373ffffffffffffffffffffffffffffffffffffffff160217905550604082015181600001601c6101000a81548163ffffffff021916908363ffffffff16021790555060608201518160010155905050600481908060018154018082558091505090600182039060005260206000209060049182820401919006600802909192909190916101000a81548167ffffffffffffffff021916908367ffffffffffffffff160217905550508373ffffffffffffffffffffffffffffffffffffffff168167ffffffffffffffff167f19e48c9ddede2f434b2a662a6e331ff29b3701f08ad88722e4fecf058b3fd75985856000604051808463ffffffff1663ffffffff168152602001838152602001828152602001935050505060405180910390a39392505050565b611d8c60048260000160009054906101000a900467ffffffffffffffff1661208c565b50565b6000808284019050838110151515611e0f576040517f08c379a000000000000000000000000000000000000000000000000000000000815260040180806020018281038252600c8152602001807f616464206f766572666c6f77000000000000000000000000000000000000000081525060200191505060405180910390fd5b8091505092915050565b600080600083111515611e94576040517f08c379a00000000000000000000000000000000000000000000000000000000081526004018080602001828103825260088152602001807f646976206279203000000000000000000000000000000000000000000000000081525060200191505060405180910390fd5b8284811515611e9f57fe5b0490508091505092915050565b60008082840290506000841480611ecd5750828482811515611eca57fe5b04145b1515611f41576040517f08c379a000000000000000000000000000000000000000000000000000000000815260040180806020018281038252600c8152602001807f6d756c206f766572666c6f77000000000000000000000000000000000000000081525060200191505060405180910390fd5b8091505092915050565b600080600083111515611fc6576040517f08c379a00000000000000000000000000000000000000000000000000000000081526004018080602001828103825260088152602001807f646976206279203000000000000000000000000000000000000000000000000081525060200191505060405180910390fd5b8284811515611fd157fe5b049050600283811515611fe057fe5b048385811515611fec57fe5b06101515611ffd5780806001019150505b8091505092915050565b6000828211151515612081576040517f08c379a000000000000000000000000000000000000000000000000000000000815260040180806020018281038252600d8152602001807f73756220756e646572666c6f770000000000000000000000000000000000000081525060200191505060405180910390fd5b818303905092915050565b60018280549050038167ffffffffffffffff161015612138578160018380549050038154811015156120ba57fe5b90600052602060002090600491828204019190066008029054906101000a900467ffffffffffffffff16828267ffffffffffffffff168154811015156120fc57fe5b90600052602060002090600491828204019190066008026101000a81548167ffffffffffffffff021916908367ffffffffffffffff1602179055505b8180548091906001900361214c9190612180565b505050565b613200604051908101604052806064905b61216a6121ba565b8152602001906001900390816121625790505090565b8154818355818111156121b55760030160049004816003016004900483600052602060002091820191016121b491906121dd565b5b505050565b608060405190810160405280600490602082028038833980820191505090505090565b6121ff91905b808211156121fb5760008160009055506001016121e3565b5090565b905600a165627a7a72305820e0aeca93b42e2147ae6e6340fd9bf15783ef22cdfeb44efa99d820a1c61bc3330029",
  "source": "/* Augmint's Internal Exchange\n\n  For flows see: https://github.com/Augmint/augmint-contracts/blob/master/docs/exchangeFlow.png\n\n    TODO:\n        - deduct fee\n        - consider take funcs (frequent rate changes with takeBuyToken? send more and send back remainder?)\n*/\npragma solidity ^0.4.23;\n\nimport \"./generic/SafeMath.sol\";\nimport \"./interfaces/AugmintTokenInterface.sol\";\n\n\ncontract Exchange {\n    using SafeMath for uint256;\n    AugmintTokenInterface public augmintToken;\n\n    uint public constant CHUNK_SIZE = 100;\n\n    struct Order {\n        uint64 index;\n        address maker;\n\n        // tokens per ether\n        uint32 price;\n\n        // buy order: amount in wei\n        // sell order: token amount\n        uint amount;\n    }\n\n    uint64 public orderCount;\n    mapping(uint64 => Order) public buyTokenOrders;\n    mapping(uint64 => Order) public sellTokenOrders;\n\n    uint64[] private activeBuyOrders;\n    uint64[] private activeSellOrders;\n\n    /* used to stop executing matchMultiple when running out of gas.\n        actual is much less, just leaving enough matchMultipleOrders() to finish TODO: fine tune & test it*/\n    uint32 private constant ORDER_MATCH_WORST_GAS = 100000;\n\n    event NewOrder(uint64 indexed orderId, address indexed maker, uint32 price, uint tokenAmount,\n        uint weiAmount);\n\n    event OrderFill(address indexed tokenBuyer, address indexed tokenSeller, uint64 buyTokenOrderId,\n        uint64 sellTokenOrderId, uint32 price, uint weiAmount, uint tokenAmount);\n\n    event CancelledOrder(uint64 indexed orderId, address indexed maker, uint tokenAmount, uint weiAmount);\n\n    constructor(AugmintTokenInterface _augmintToken) public {\n        augmintToken = _augmintToken;\n    }\n\n    function placeBuyTokenOrder(uint32 price) external payable returns (uint64 orderId) {\n        require(price > 0, \"price must be > 0\");\n        require(msg.value > 0, \"msg.value must be > 0\");\n\n        orderId = ++orderCount;\n        buyTokenOrders[orderId] = Order(uint64(activeBuyOrders.length), msg.sender, price, msg.value);\n        activeBuyOrders.push(orderId);\n\n        emit NewOrder(orderId, msg.sender, price, 0, msg.value);\n    }\n\n    /* this function requires previous approval to transfer tokens */\n    function placeSellTokenOrder(uint32 price, uint tokenAmount) external returns (uint orderId) {\n        augmintToken.transferFrom(msg.sender, this, tokenAmount);\n        return _placeSellTokenOrder(msg.sender, price, tokenAmount);\n    }\n\n    /* place sell token order called from AugmintToken's transferAndNotify\n     Flow:\n        1) user calls token contract's transferAndNotify price passed in data arg\n        2) transferAndNotify transfers tokens to the Exchange contract\n        3) transferAndNotify calls Exchange.transferNotification with lockProductId\n    */\n    function transferNotification(address maker, uint tokenAmount, uint price) external {\n        require(msg.sender == address(augmintToken), \"msg.sender must be augmintToken\");\n        _placeSellTokenOrder(maker, uint32(price), tokenAmount);\n    }\n\n    function cancelBuyTokenOrder(uint64 buyTokenId) external {\n        Order storage order = buyTokenOrders[buyTokenId];\n        require(order.maker == msg.sender, \"msg.sender must be order.maker\");\n\n        uint amount = order.amount;\n        order.amount = 0;\n        _removeBuyOrder(order);\n\n        msg.sender.transfer(amount);\n\n        emit CancelledOrder(buyTokenId, msg.sender, 0, amount);\n    }\n\n    function cancelSellTokenOrder(uint64 sellTokenId) external {\n        Order storage order = sellTokenOrders[sellTokenId];\n        require(order.maker == msg.sender, \"msg.sender must be order.maker\");\n\n        uint amount = order.amount;\n        order.amount = 0;\n        _removeSellOrder(order);\n\n        augmintToken.transferWithNarrative(msg.sender, amount, \"Sell token order cancelled\");\n\n        emit CancelledOrder(sellTokenId, msg.sender, amount, 0);\n    }\n\n    /* matches any two orders if the sell price >= buy price\n        trade price meets in the middle\n        reverts if any of the orders have been removed\n    */\n    function matchOrders(uint64 buyTokenId, uint64 sellTokenId) external {\n        _fillOrder(buyTokenId, sellTokenId);\n    }\n\n    /*  matches as many orders as possible from the passed orders\n        Runs as long as gas is available for the call.\n        Stops if any match is invalid (case when any of the orders removed after client generated the match list sent)\n    */\n    function matchMultipleOrders(uint64[] buyTokenIds, uint64[] sellTokenIds) external returns(uint matchCount) {\n        uint len = buyTokenIds.length;\n        for (uint i = 0; i < len && gasleft() > ORDER_MATCH_WORST_GAS; i++) {\n        require(len == sellTokenIds.length, \"buyTokenIds and sellTokenIds lengths must be equal\");\n            _fillOrder(buyTokenIds[i], sellTokenIds[i]);\n            matchCount++;\n        }\n    }\n\n    function getActiveOrderCounts() external view returns(uint buyTokenOrderCount, uint sellTokenOrderCount) {\n        return(activeBuyOrders.length, activeSellOrders.length);\n    }\n\n    // returns CHUNK_SIZE orders starting from offset\n    // orders are encoded as [id, maker, price, amount]\n    function getActiveBuyOrders(uint offset) external view returns (uint[4][CHUNK_SIZE] response) {\n        for (uint8 i = 0; i < CHUNK_SIZE && i + offset < activeBuyOrders.length; i++) {\n            uint64 orderId = activeBuyOrders[offset + i];\n            Order storage order = buyTokenOrders[orderId];\n            response[i] = [orderId, uint(order.maker), order.price, order.amount];\n        }\n    }\n\n    function getActiveSellOrders(uint offset) external view returns (uint[4][CHUNK_SIZE] response) {\n        for (uint8 i = 0; i < CHUNK_SIZE && i + offset < activeSellOrders.length; i++) {\n            uint64 orderId = activeSellOrders[offset + i];\n            Order storage order = sellTokenOrders[orderId];\n            response[i] = [orderId, uint(order.maker), order.price, order.amount];\n        }\n    }\n\n    function _fillOrder(uint64 buyTokenId, uint64 sellTokenId) private {\n        Order storage buy = buyTokenOrders[buyTokenId];\n        Order storage sell = sellTokenOrders[sellTokenId];\n\n        require(buy.price >= sell.price, \"buy price must be >= sell price\");\n\n        // meet in the middle\n        uint price = uint(buy.price).add(sell.price).div(2);\n\n        uint sellWei = sell.amount.mul(1 ether).roundedDiv(price);\n\n        uint tradedWei;\n        uint tradedTokens;\n        if (sellWei <= buy.amount) {\n            tradedWei = sellWei;\n            tradedTokens = sell.amount;\n        } else {\n            tradedWei = buy.amount;\n            tradedTokens = buy.amount.mul(price).roundedDiv(1 ether);\n        }\n\n        buy.amount = buy.amount.sub(tradedWei);\n        if (buy.amount == 0) {\n            _removeBuyOrder(buy);\n        }\n\n        sell.amount = sell.amount.sub(tradedTokens);\n        if (sell.amount == 0) {\n            _removeSellOrder(sell);\n        }\n\n        augmintToken.transferWithNarrative(buy.maker, tradedTokens, \"Buy token order fill\");\n        sell.maker.transfer(tradedWei);\n\n        emit OrderFill(buy.maker, sell.maker, buyTokenId,\n            sellTokenId, uint32(price), tradedWei, tradedTokens);\n    }\n\n    function _placeSellTokenOrder(address maker, uint32 price, uint tokenAmount)\n    private returns (uint64 orderId) {\n        require(price > 0, \"price must be > 0\");\n        require(tokenAmount > 0, \"tokenAmount must be > 0\");\n\n        orderId = ++orderCount;\n        sellTokenOrders[orderId] = Order(uint64(activeSellOrders.length), maker, price, tokenAmount);\n        activeSellOrders.push(orderId);\n\n        emit NewOrder(orderId, maker, price, tokenAmount, 0);\n    }\n\n    function _removeBuyOrder(Order storage order) private {\n        _removeOrder(activeBuyOrders, order.index);\n    }\n\n    function _removeSellOrder(Order storage order) private {\n        _removeOrder(activeSellOrders, order.index);\n    }\n\n    function _removeOrder(uint64[] storage orders, uint64 index) private {\n        if (index < orders.length - 1) {\n            orders[index] = orders[orders.length - 1];\n        }\n        orders.length--;\n    }\n\n}\n",
  "sourcePath": "/Users/petro/ether/augmint-contracts/contracts/Exchange.sol",
  "compiler": {
    "name": "solc",
    "version": "0.4.23+commit.124ca40d.Emscripten.clang"
  },
  "schemaVersion": "2.0.0",
  "updatedAt": "2018-04-20T18:25:08.442Z"
}