{
  "contractName": "Exchange",
  "abi": [
    {
      "constant": true,
      "inputs": [
        {
          "name": "offset",
          "type": "uint256"
        }
      ],
      "name": "getOrders",
      "outputs": [
        {
          "name": "response",
          "type": "uint256[6][50]"
        },
        {
          "name": "makers",
          "type": "address[50]"
        }
      ],
      "payable": false,
      "stateMutability": "view",
      "type": "function"
    },
    {
      "constant": false,
      "inputs": [
        {
          "name": "agent",
          "type": "address"
        },
        {
          "name": "requiredPermissions",
          "type": "bytes32[]"
        }
      ],
      "name": "revokeMulitplePermissions",
      "outputs": [],
      "payable": false,
      "stateMutability": "nonpayable",
      "type": "function"
    },
    {
      "constant": false,
      "inputs": [
        {
          "name": "price",
          "type": "uint256"
        },
        {
          "name": "tokenAmount",
          "type": "uint256"
        }
      ],
      "name": "placeSellTokenOrder",
      "outputs": [
        {
          "name": "orderIndex",
          "type": "uint256"
        },
        {
          "name": "orderId",
          "type": "uint256"
        }
      ],
      "payable": false,
      "stateMutability": "nonpayable",
      "type": "function"
    },
    {
      "constant": true,
      "inputs": [],
      "name": "rates",
      "outputs": [
        {
          "name": "",
          "type": "address"
        }
      ],
      "payable": false,
      "stateMutability": "view",
      "type": "function"
    },
    {
      "constant": true,
      "inputs": [],
      "name": "minOrderAmount",
      "outputs": [
        {
          "name": "",
          "type": "uint256"
        }
      ],
      "payable": false,
      "stateMutability": "view",
      "type": "function"
    },
    {
      "constant": true,
      "inputs": [],
      "name": "lastOrderId",
      "outputs": [
        {
          "name": "",
          "type": "uint256"
        }
      ],
      "payable": false,
      "stateMutability": "view",
      "type": "function"
    },
    {
      "constant": true,
      "inputs": [
        {
          "name": "",
          "type": "address"
        },
        {
          "name": "",
          "type": "bytes32"
        }
      ],
      "name": "permissions",
      "outputs": [
        {
          "name": "",
          "type": "bool"
        }
      ],
      "payable": false,
      "stateMutability": "view",
      "type": "function"
    },
    {
      "constant": true,
      "inputs": [],
      "name": "ORDER_MATCH_WORST_GAS",
      "outputs": [
        {
          "name": "",
          "type": "uint32"
        }
      ],
      "payable": false,
      "stateMutability": "view",
      "type": "function"
    },
    {
      "constant": false,
      "inputs": [
        {
          "name": "agent",
          "type": "address"
        },
        {
          "name": "requiredPermission",
          "type": "bytes32"
        }
      ],
      "name": "revokePermission",
      "outputs": [],
      "payable": false,
      "stateMutability": "nonpayable",
      "type": "function"
    },
    {
      "constant": false,
      "inputs": [
        {
          "name": "buyTokenIndex",
          "type": "uint256"
        },
        {
          "name": "buyTokenId",
          "type": "uint256"
        }
      ],
      "name": "cancelBuyTokenOrder",
      "outputs": [],
      "payable": false,
      "stateMutability": "nonpayable",
      "type": "function"
    },
    {
      "constant": false,
      "inputs": [
        {
          "name": "price",
          "type": "uint256"
        }
      ],
      "name": "placeBuyTokenOrder",
      "outputs": [
        {
          "name": "orderIndex",
          "type": "uint256"
        },
        {
          "name": "orderId",
          "type": "uint256"
        }
      ],
      "payable": true,
      "stateMutability": "payable",
      "type": "function"
    },
    {
      "constant": false,
      "inputs": [
        {
          "name": "buyTokenIndex",
          "type": "uint256"
        },
        {
          "name": "buyTokenId",
          "type": "uint256"
        },
        {
          "name": "sellTokenIndex",
          "type": "uint256"
        },
        {
          "name": "sellTokenId",
          "type": "uint256"
        }
      ],
      "name": "matchOrders",
      "outputs": [],
      "payable": false,
      "stateMutability": "nonpayable",
      "type": "function"
    },
    {
      "constant": true,
      "inputs": [
        {
          "name": "",
          "type": "uint256"
        }
      ],
      "name": "sellTokenOrders",
      "outputs": [
        {
          "name": "id",
          "type": "uint256"
        },
        {
          "name": "maker",
          "type": "address"
        },
        {
          "name": "addedTime",
          "type": "uint256"
        },
        {
          "name": "price",
          "type": "uint256"
        },
        {
          "name": "amount",
          "type": "uint256"
        }
      ],
      "payable": false,
      "stateMutability": "view",
      "type": "function"
    },
    {
      "constant": false,
      "inputs": [
        {
          "name": "buyTokenIndexes",
          "type": "uint256[]"
        },
        {
          "name": "buyTokenIds",
          "type": "uint256[]"
        },
        {
          "name": "sellTokenIndexes",
          "type": "uint256[]"
        },
        {
          "name": "sellTokenIds",
          "type": "uint256[]"
        }
      ],
      "name": "matchMultipleOrders",
      "outputs": [
        {
          "name": "i",
          "type": "uint256"
        }
      ],
      "payable": false,
      "stateMutability": "nonpayable",
      "type": "function"
    },
    {
      "constant": true,
      "inputs": [],
      "name": "augmintToken",
      "outputs": [
        {
          "name": "",
          "type": "address"
        }
      ],
      "payable": false,
      "stateMutability": "view",
      "type": "function"
    },
    {
      "constant": true,
      "inputs": [],
      "name": "getOrderCounts",
      "outputs": [
        {
          "name": "buyTokenOrderCount",
          "type": "uint256"
        },
        {
          "name": "sellTokenOrderCount",
          "type": "uint256"
        }
      ],
      "payable": false,
      "stateMutability": "view",
      "type": "function"
    },
    {
      "constant": true,
      "inputs": [],
      "name": "owner",
      "outputs": [
        {
          "name": "",
          "type": "address"
        }
      ],
      "payable": false,
      "stateMutability": "view",
      "type": "function"
    },
    {
      "constant": false,
      "inputs": [
        {
          "name": "agent",
          "type": "address"
        },
        {
          "name": "requiredPermissions",
          "type": "bytes32[]"
        }
      ],
      "name": "grantMultiplePermissions",
      "outputs": [],
      "payable": false,
      "stateMutability": "nonpayable",
      "type": "function"
    },
    {
      "constant": false,
      "inputs": [
        {
          "name": "sellTokenIndex",
          "type": "uint256"
        },
        {
          "name": "sellTokenId",
          "type": "uint256"
        }
      ],
      "name": "cancelSellTokenOrder",
      "outputs": [],
      "payable": false,
      "stateMutability": "nonpayable",
      "type": "function"
    },
    {
      "constant": false,
      "inputs": [
        {
          "name": "_minOrderAmount",
          "type": "uint256"
        }
      ],
      "name": "setMinOrderAmount",
      "outputs": [],
      "payable": false,
      "stateMutability": "nonpayable",
      "type": "function"
    },
    {
      "constant": true,
      "inputs": [
        {
          "name": "",
          "type": "uint256"
        }
      ],
      "name": "buyTokenOrders",
      "outputs": [
        {
          "name": "id",
          "type": "uint256"
        },
        {
          "name": "maker",
          "type": "address"
        },
        {
          "name": "addedTime",
          "type": "uint256"
        },
        {
          "name": "price",
          "type": "uint256"
        },
        {
          "name": "amount",
          "type": "uint256"
        }
      ],
      "payable": false,
      "stateMutability": "view",
      "type": "function"
    },
    {
      "constant": false,
      "inputs": [
        {
          "name": "newOwner",
          "type": "address"
        }
      ],
      "name": "transferOwnership",
      "outputs": [],
      "payable": false,
      "stateMutability": "nonpayable",
      "type": "function"
    },
    {
      "constant": false,
      "inputs": [
        {
          "name": "agent",
          "type": "address"
        },
        {
          "name": "requiredPermission",
          "type": "bytes32"
        }
      ],
      "name": "grantPermission",
      "outputs": [],
      "payable": false,
      "stateMutability": "nonpayable",
      "type": "function"
    },
    {
      "constant": false,
      "inputs": [
        {
          "name": "maker",
          "type": "address"
        },
        {
          "name": "price",
          "type": "uint256"
        },
        {
          "name": "tokenAmount",
          "type": "uint256"
        }
      ],
      "name": "placeSellTokenOrderTrusted",
      "outputs": [
        {
          "name": "orderIndex",
          "type": "uint256"
        },
        {
          "name": "orderId",
          "type": "uint256"
        }
      ],
      "payable": false,
      "stateMutability": "nonpayable",
      "type": "function"
    },
    {
      "constant": true,
      "inputs": [
        {
          "name": "buyTokenIndex",
          "type": "uint256"
        },
        {
          "name": "buyTokenId",
          "type": "uint256"
        },
        {
          "name": "sellTokenIndex",
          "type": "uint256"
        },
        {
          "name": "sellTokenId",
          "type": "uint256"
        }
      ],
      "name": "isValidMatch",
      "outputs": [
        {
          "name": "",
          "type": "bool"
        }
      ],
      "payable": false,
      "stateMutability": "view",
      "type": "function"
    },
    {
      "inputs": [
        {
          "name": "augmintTokenAddress",
          "type": "address"
        },
        {
          "name": "ratesAddress",
          "type": "address"
        },
        {
          "name": "_minOrderAmount",
          "type": "uint256"
        }
      ],
      "payable": false,
      "stateMutability": "nonpayable",
      "type": "constructor"
    },
    {
      "anonymous": false,
      "inputs": [
        {
          "indexed": false,
          "name": "orderIndex",
          "type": "uint256"
        },
        {
          "indexed": true,
          "name": "orderId",
          "type": "uint256"
        },
        {
          "indexed": true,
          "name": "maker",
          "type": "address"
        },
        {
          "indexed": false,
          "name": "price",
          "type": "uint256"
        },
        {
          "indexed": false,
          "name": "tokenAmount",
          "type": "uint256"
        },
        {
          "indexed": false,
          "name": "weiAmount",
          "type": "uint256"
        }
      ],
      "name": "NewOrder",
      "type": "event"
    },
    {
      "anonymous": false,
      "inputs": [
        {
          "indexed": true,
          "name": "tokenBuyer",
          "type": "address"
        },
        {
          "indexed": true,
          "name": "tokenSeller",
          "type": "address"
        },
        {
          "indexed": false,
          "name": "buyTokenOrderId",
          "type": "uint256"
        },
        {
          "indexed": false,
          "name": "sellTokenOrderId",
          "type": "uint256"
        },
        {
          "indexed": false,
          "name": "price",
          "type": "uint256"
        },
        {
          "indexed": false,
          "name": "weiAmount",
          "type": "uint256"
        },
        {
          "indexed": false,
          "name": "tokenAmount",
          "type": "uint256"
        }
      ],
      "name": "OrderFill",
      "type": "event"
    },
    {
      "anonymous": false,
      "inputs": [
        {
          "indexed": true,
          "name": "orderId",
          "type": "uint256"
        },
        {
          "indexed": true,
          "name": "maker",
          "type": "address"
        },
        {
          "indexed": false,
          "name": "tokenAmount",
          "type": "uint256"
        },
        {
          "indexed": false,
          "name": "weiAmount",
          "type": "uint256"
        }
      ],
      "name": "CancelledOrder",
      "type": "event"
    },
    {
      "anonymous": false,
      "inputs": [
        {
          "indexed": false,
          "name": "newMinOrderAmount",
          "type": "uint256"
        }
      ],
      "name": "MinOrderAmountChanged",
      "type": "event"
    },
    {
      "anonymous": false,
      "inputs": [
        {
          "indexed": true,
          "name": "agent",
          "type": "address"
        },
        {
          "indexed": false,
          "name": "grantedPermission",
          "type": "bytes32"
        }
      ],
      "name": "PermissionGranted",
      "type": "event"
    },
    {
      "anonymous": false,
      "inputs": [
        {
          "indexed": true,
          "name": "agent",
          "type": "address"
        },
        {
          "indexed": false,
          "name": "revokedPermission",
          "type": "bytes32"
        }
      ],
      "name": "PermissionRevoked",
      "type": "event"
    },
    {
      "anonymous": false,
      "inputs": [
        {
          "indexed": true,
          "name": "oldOwner",
          "type": "address"
        },
        {
          "indexed": true,
          "name": "newOwner",
          "type": "address"
        }
      ],
      "name": "NewOwner",
      "type": "event"
    }
  ],
  "bytecode": "0x6060604052341561000f57600080fd5b604051606080612c8283398101604052808051906020019091908051906020019091908051906020019091905050600073ffffffffffffffffffffffffffffffffffffffff166000809054906101000a900473ffffffffffffffffffffffffffffffffffffffff1673ffffffffffffffffffffffffffffffffffffffff1614151561009957600080fd5b336000806101000a81548173ffffffffffffffffffffffffffffffffffffffff021916908373ffffffffffffffffffffffffffffffffffffffff16021790555082600260006101000a81548173ffffffffffffffffffffffffffffffffffffffff021916908373ffffffffffffffffffffffffffffffffffffffff16021790555081600360006101000a81548173ffffffffffffffffffffffffffffffffffffffff021916908373ffffffffffffffffffffffffffffffffffffffff16021790555080600781905550505050612b0e806101746000396000f300606060405260043610610149576000357c0100000000000000000000000000000000000000000000000000000000900463ffffffff16806305e0141d1461014e5780630da32eaa146101ff5780632001b3241461027857806343f48fbd146102bf57806346b62c4a146103145780635662ecc71461033d5780635b225526146103665780635d66210e146103c45780635fe07013146103f95780636bcb441b1461043f5780636c0f41d81461046b5780636cf848821461049e5780637a5e129d146104dc5780637aa9d6dc1461055b5780637b9b9c89146105d95780637d381efe1461062e5780638da5cb5b1461065e5780639ac3317b146106b35780639e2ca6571461072c578063a3b8ef0414610758578063f14eb3a11461077b578063f2fde38b146107fa578063f38a826214610833578063f7e8953b14610879578063f830b71e146108df575b600080fd5b341561015957600080fd5b61016f6004808035906020019091905050610935565b604051808360326000925b818410156101c05782846020020151600660200280838360005b838110156101af578082015181840152602081019050610194565b50505050905001926001019261017a565b9250505082603260200280838360005b838110156101eb5780820151818401526020810190506101d0565b505050509050019250505060405180910390f35b341561020a57600080fd5b610276600480803573ffffffffffffffffffffffffffffffffffffffff1690602001909190803590602001908201803590602001908080602002602001604051908101604052809392919081815260200183836020028082843782019150505050505091905050610c9b565b005b341561028357600080fd5b6102a26004808035906020019091908035906020019091905050610d3e565b604051808381526020018281526020019250505060405180910390f35b34156102ca57600080fd5b6102d2610e9c565b604051808273ffffffffffffffffffffffffffffffffffffffff1673ffffffffffffffffffffffffffffffffffffffff16815260200191505060405180910390f35b341561031f57600080fd5b610327610ec2565b6040518082815260200191505060405180910390f35b341561034857600080fd5b610350610ec8565b6040518082815260200191505060405180910390f35b341561037157600080fd5b6103aa600480803573ffffffffffffffffffffffffffffffffffffffff1690602001909190803560001916906020019091905050610ece565b604051808215151515815260200191505060405180910390f35b34156103cf57600080fd5b6103d7610efd565b604051808263ffffffff1663ffffffff16815260200191505060405180910390f35b341561040457600080fd5b61043d600480803573ffffffffffffffffffffffffffffffffffffffff1690602001909190803560001916906020019091905050610f04565b005b341561044a57600080fd5b610469600480803590602001909190803590602001909190505061102a565b005b61048160048080359060200190919050506111b9565b604051808381526020018281526020019250505060405180910390f35b34156104a957600080fd5b6104da60048080359060200190919080359060200190919080359060200190919080359060200190919050506114e9565b005b34156104e757600080fd5b6104fd600480803590602001909190505061153d565b604051808681526020018573ffffffffffffffffffffffffffffffffffffffff1673ffffffffffffffffffffffffffffffffffffffff1681526020018481526020018381526020018281526020019550505050505060405180910390f35b341561056657600080fd5b6105c3600480803590602001908201803590602001919091929080359060200190820180359060200191909192908035906020019082018035906020019190919290803590602001908201803590602001919091929050506115a2565b6040518082815260200191505060405180910390f35b34156105e457600080fd5b6105ec6116fb565b604051808273ffffffffffffffffffffffffffffffffffffffff1673ffffffffffffffffffffffffffffffffffffffff16815260200191505060405180910390f35b341561063957600080fd5b610641611721565b604051808381526020018281526020019250505060405180910390f35b341561066957600080fd5b610671611738565b604051808273ffffffffffffffffffffffffffffffffffffffff1673ffffffffffffffffffffffffffffffffffffffff16815260200191505060405180910390f35b34156106be57600080fd5b61072a600480803573ffffffffffffffffffffffffffffffffffffffff169060200190919080359060200190820180359060200190808060200260200160405190810160405280939291908181526020018383602002808284378201915050505050509190505061175d565b005b341561073757600080fd5b6107566004808035906020019091908035906020019091905050611800565b005b341561076357600080fd5b6107796004808035906020019091905050611a60565b005b341561078657600080fd5b61079c6004808035906020019091905050611b36565b604051808681526020018573ffffffffffffffffffffffffffffffffffffffff1673ffffffffffffffffffffffffffffffffffffffff1681526020018481526020018381526020018281526020019550505050505060405180910390f35b341561080557600080fd5b610831600480803573ffffffffffffffffffffffffffffffffffffffff16906020019091905050611b9b565b005b341561083e57600080fd5b610877600480803573ffffffffffffffffffffffffffffffffffffffff1690602001909190803560001916906020019091905050611cf0565b005b341561088457600080fd5b6108c2600480803573ffffffffffffffffffffffffffffffffffffffff16906020019091908035906020019091908035906020019091905050611e15565b604051808381526020018281526020019250505060405180910390f35b34156108ea57600080fd5b61091b6004808035906020019091908035906020019091908035906020019091908035906020019091905050611e8b565b604051808215151515815260200191505060405180910390f35b61093d61296e565b61094561299d565b61094d6129dc565b6000806000866005805490501061096557600061096e565b60058054905087035b9250600091505b60328260ff161080156109915750600580549050878360ff1601105b15610afb5760058260ff1688018154811015156109aa57fe5b906000526020600020906005020160a06040519081016040529081600082015481526020016001820160009054906101000a900473ffffffffffffffffffffffffffffffffffffffff1673ffffffffffffffffffffffffffffffffffffffff1673ffffffffffffffffffffffffffffffffffffffff1681526020016002820154815260200160038201548152602001600482015481525050935060c0604051908101604052808360ff1689018152602001856000015181526020018560400151815260200185606001518152602001600081526020018560800151815250868360ff16603281101515610a9957fe5b60200201819052508360200151858360ff16603281101515610ab757fe5b602002019073ffffffffffffffffffffffffffffffffffffffff16908173ffffffffffffffffffffffffffffffffffffffff16815250508180600101925050610975565b600090505b603282820160ff16108015610b1e57506006805490508160ff168401105b15610c8c5760068160ff168401815481101515610b3757fe5b906000526020600020906005020160a06040519081016040529081600082015481526020016001820160009054906101000a900473ffffffffffffffffffffffffffffffffffffffff1673ffffffffffffffffffffffffffffffffffffffff1673ffffffffffffffffffffffffffffffffffffffff1681526020016002820154815260200160038201548152602001600482015481525050935060c0604051908101604052808260ff16850181526020018560000151815260200185604001518152602001856060015181526020018560800151815260200160008152508682840160ff16603281101515610c2857fe5b602002018190525083602001518582840160ff16603281101515610c4857fe5b602002019073ffffffffffffffffffffffffffffffffffffffff16908173ffffffffffffffffffffffffffffffffffffffff16815250508080600101915050610b00565b85859550955050505050915091565b6000806000809054906101000a900473ffffffffffffffffffffffffffffffffffffffff1673ffffffffffffffffffffffffffffffffffffffff163373ffffffffffffffffffffffffffffffffffffffff16141515610cf957600080fd5b82519150600090505b81811015610d3857610d2b848483815181101515610d1c57fe5b90602001906020020151610f04565b8080600101915050610d02565b50505050565b600080600260009054906101000a900473ffffffffffffffffffffffffffffffffffffffff1673ffffffffffffffffffffffffffffffffffffffff166304282d253330866040518463ffffffff167c0100000000000000000000000000000000000000000000000000000000028152600401808473ffffffffffffffffffffffffffffffffffffffff1673ffffffffffffffffffffffffffffffffffffffff1681526020018373ffffffffffffffffffffffffffffffffffffffff1673ffffffffffffffffffffffffffffffffffffffff16815260200182815260200180602001828103825260178152602001807f53656c6c20746f6b656e206f7264657220706c61636564000000000000000000815250602001945050505050600060405180830381600087803b1515610e7257600080fd5b6102c65a03f11515610e8357600080fd5b505050610e91338585611f31565b915091509250929050565b600360009054906101000a900473ffffffffffffffffffffffffffffffffffffffff1681565b60075481565b60045481565b60016020528160005260406000206020528060005260406000206000915091509054906101000a900460ff1681565b62030d4081565b6000809054906101000a900473ffffffffffffffffffffffffffffffffffffffff1673ffffffffffffffffffffffffffffffffffffffff163373ffffffffffffffffffffffffffffffffffffffff16141515610f5f57600080fd5b6000600160008473ffffffffffffffffffffffffffffffffffffffff1673ffffffffffffffffffffffffffffffffffffffff1681526020019081526020016000206000836000191660001916815260200190815260200160002060006101000a81548160ff0219169083151502179055508173ffffffffffffffffffffffffffffffffffffffff167f789770131846de4d1f28418f0f957cdf4fcabe5eccf70067083e20ecece69a348260405180826000191660001916815260200191505060405180910390a25050565b3373ffffffffffffffffffffffffffffffffffffffff1660058381548110151561105057fe5b906000526020600020906005020160010160009054906101000a900473ffffffffffffffffffffffffffffffffffffffff1673ffffffffffffffffffffffffffffffffffffffff161415156110a457600080fd5b6005828154811015156110b357fe5b906000526020600020906005020160000154811415156110d257600080fd5b3373ffffffffffffffffffffffffffffffffffffffff166108fc6005848154811015156110fb57fe5b9060005260206000209060050201600401549081150290604051600060405180830381858888f19350505050151561113257600080fd5b3373ffffffffffffffffffffffffffffffffffffffff16817f61a4c3ec95de122096d654ab66ccf22fc8dc74fab994e098df193c7b7d79ebe9600060058681548110151561117c57fe5b906000526020600020906005020160040154604051808381526020018281526020019250505060405180910390a36111b56005836120ce565b5050565b600080600080841115156111cc57600080fd5b6000341115156111db57600080fd5b600360009054906101000a900473ffffffffffffffffffffffffffffffffffffffff1673ffffffffffffffffffffffffffffffffffffffff166382f5e31b600260009054906101000a900473ffffffffffffffffffffffffffffffffffffffff1673ffffffffffffffffffffffffffffffffffffffff166333a263e66000604051602001526040518163ffffffff167c0100000000000000000000000000000000000000000000000000000000028152600401602060405180830381600087803b15156112a757600080fd5b6102c65a03f115156112b857600080fd5b505050604051805190506112e96127106112db89346121c890919063ffffffff16565b61220c90919063ffffffff16565b6000604051602001526040518363ffffffff167c010000000000000000000000000000000000000000000000000000000002815260040180836000191660001916815260200182815260200192505050602060405180830381600087803b151561135257600080fd5b6102c65a03f1151561136357600080fd5b505050604051805190509050600754811015151561138057600080fd5b6004600081548092919060010191905055506001600580548060010182816113a89190612a22565b9160005260206000209060050201600060a06040519081016040528060045481526020013373ffffffffffffffffffffffffffffffffffffffff1681526020014281526020018981526020013481525090919091506000820151816000015560208201518160010160006101000a81548173ffffffffffffffffffffffffffffffffffffffff021916908373ffffffffffffffffffffffffffffffffffffffff16021790555060408201518160020155606082015181600301556080820151816004015550500392503373ffffffffffffffffffffffffffffffffffffffff166004547f724e82de9e81c8a3a2070a76f1725eae61d722a42c0edd94b09e7b79d7b0e6f285876000346040518085815260200184815260200183815260200182815260200194505050505060405180910390a3826004549250925050915091565b6000806114f886868686611e8b565b151561150357600080fd5b61150d8685612242565b915091508015611523576115226006856120ce565b5b8115611535576115346005876120ce565b5b505050505050565b60068181548110151561154c57fe5b90600052602060002090600502016000915090508060000154908060010160009054906101000a900473ffffffffffffffffffffffffffffffffffffffff16908060020154908060030154908060040154905085565b60008060008092505b8a8a9050831080156115c5575062030d4063ffffffff165a115b156116f6576116268b8b8581811015156115db57fe5b905060200201358a8a8681811015156115f057fe5b90506020020135898987818110151561160557fe5b90506020020135888888818110151561161a57fe5b90506020020135611e8b565b1515611631576116f6565b6116638b8b85818110151561164257fe5b90506020020135888886818110151561165757fe5b90506020020135612242565b9150915081156116a857600060058c8c86818110151561167f57fe5b9050602002013581548110151561169257fe5b9060005260206000209060050201600401819055505b80156116e9576000600688888681811015156116c057fe5b905060200201358154811015156116d357fe5b9060005260206000209060050201600401819055505b82806001019350506115ab565b600080fd5b600260009054906101000a900473ffffffffffffffffffffffffffffffffffffffff1681565b600080600580549050600680549050915091509091565b6000809054906101000a900473ffffffffffffffffffffffffffffffffffffffff1681565b6000806000809054906101000a900473ffffffffffffffffffffffffffffffffffffffff1673ffffffffffffffffffffffffffffffffffffffff163373ffffffffffffffffffffffffffffffffffffffff161415156117bb57600080fd5b82519150600090505b818110156117fa576117ed8484838151811015156117de57fe5b90602001906020020151611cf0565b80806001019150506117c4565b50505050565b3373ffffffffffffffffffffffffffffffffffffffff1660068381548110151561182657fe5b906000526020600020906005020160010160009054906101000a900473ffffffffffffffffffffffffffffffffffffffff1673ffffffffffffffffffffffffffffffffffffffff1614151561187a57600080fd5b60068281548110151561188957fe5b906000526020600020906005020160000154811415156118a857600080fd5b600260009054906101000a900473ffffffffffffffffffffffffffffffffffffffff1673ffffffffffffffffffffffffffffffffffffffff1663ab1f0327336006858154811015156118f657fe5b9060005260206000209060050201600401546040518363ffffffff167c0100000000000000000000000000000000000000000000000000000000028152600401808373ffffffffffffffffffffffffffffffffffffffff1673ffffffffffffffffffffffffffffffffffffffff168152602001828152602001806020018281038252601a8152602001807f53656c6c20746f6b656e206f726465722063616e63656c6c65640000000000008152506020019350505050600060405180830381600087803b15156119c557600080fd5b6102c65a03f115156119d657600080fd5b5050503373ffffffffffffffffffffffffffffffffffffffff16817f61a4c3ec95de122096d654ab66ccf22fc8dc74fab994e098df193c7b7d79ebe9600685815481101515611a2157fe5b9060005260206000209060050201600401546000604051808381526020018281526020019250505060405180910390a3611a5c6006836120ce565b5050565b7f7365744d696e4f72646572416d6f756e74000000000000000000000000000000600160003373ffffffffffffffffffffffffffffffffffffffff1673ffffffffffffffffffffffffffffffffffffffff1681526020019081526020016000206000826000191660001916815260200190815260200160002060009054906101000a900460ff161515611af257600080fd5b816007819055507fd47f797ef16d066fe9af8c5e52ca02dcd115792897ba09baaddbc728fe48bfd26007546040518082815260200191505060405180910390a15050565b600581815481101515611b4557fe5b90600052602060002090600502016000915090508060000154908060010160009054906101000a900473ffffffffffffffffffffffffffffffffffffffff16908060020154908060030154908060040154905085565b6000809054906101000a900473ffffffffffffffffffffffffffffffffffffffff1673ffffffffffffffffffffffffffffffffffffffff163373ffffffffffffffffffffffffffffffffffffffff16141515611bf657600080fd5b600073ffffffffffffffffffffffffffffffffffffffff168173ffffffffffffffffffffffffffffffffffffffff1614151515611c3257600080fd5b8073ffffffffffffffffffffffffffffffffffffffff166000809054906101000a900473ffffffffffffffffffffffffffffffffffffffff1673ffffffffffffffffffffffffffffffffffffffff167f70aea8d848e8a90fb7661b227dc522eb6395c3dac71b63cb59edd5c9899b236460405160405180910390a3806000806101000a81548173ffffffffffffffffffffffffffffffffffffffff021916908373ffffffffffffffffffffffffffffffffffffffff16021790555050565b6000809054906101000a900473ffffffffffffffffffffffffffffffffffffffff1673ffffffffffffffffffffffffffffffffffffffff163373ffffffffffffffffffffffffffffffffffffffff16141515611d4b57600080fd5b60018060008473ffffffffffffffffffffffffffffffffffffffff1673ffffffffffffffffffffffffffffffffffffffff1681526020019081526020016000206000836000191660001916815260200190815260200160002060006101000a81548160ff0219169083151502179055508173ffffffffffffffffffffffffffffffffffffffff167fc65937e3dbcb9fb30f646815dd67a3dbd09ba17718cbcb54efbe3635f8e0a6fe8260405180826000191660001916815260200191505060405180910390a25050565b600080600260009054906101000a900473ffffffffffffffffffffffffffffffffffffffff1673ffffffffffffffffffffffffffffffffffffffff163373ffffffffffffffffffffffffffffffffffffffff16141515611e7457600080fd5b611e7f858585611f31565b91509150935093915050565b6000600585815481101515611e9c57fe5b90600052602060002090600502016000015484148015611edb5750600683815481101515611ec657fe5b90600052602060002090600502016000015482145b8015611f275750600683815481101515611ef157fe5b906000526020600020906005020160030154600586815481101515611f1257fe5b90600052602060002090600502016003015410155b9050949350505050565b600080600084111515611f4357600080fd5b600083111515611f5257600080fd5b6007548310151515611f6357600080fd5b600460008154809291906001019190505550600160068054806001018281611f8b9190612a22565b9160005260206000209060050201600060a06040519081016040528060045481526020018a73ffffffffffffffffffffffffffffffffffffffff1681526020014281526020018981526020018881525090919091506000820151816000015560208201518160010160006101000a81548173ffffffffffffffffffffffffffffffffffffffff021916908373ffffffffffffffffffffffffffffffffffffffff16021790555060408201518160020155606082015181600301556080820151816004015550500391508473ffffffffffffffffffffffffffffffffffffffff166004547f724e82de9e81c8a3a2070a76f1725eae61d722a42c0edd94b09e7b79d7b0e6f284878760006040518085815260200184815260200183815260200182815260200194505050505060405180910390a38160045491509150935093915050565b60018280549050038110156121af578160018380549050038154811015156120f257fe5b9060005260206000209060050201828281548110151561210e57fe5b9060005260206000209060050201600082015481600001556001820160009054906101000a900473ffffffffffffffffffffffffffffffffffffffff168160010160006101000a81548173ffffffffffffffffffffffffffffffffffffffff021916908373ffffffffffffffffffffffffffffffffffffffff1602179055506002820154816002015560038201548160030155600482015481600401559050505b818054809190600190036121c39190612a22565b505050565b60008082848115156121d657fe5b0490506002838115156121e557fe5b0483858115156121f157fe5b061015156122025780806001019150505b8091505092915050565b6000808284029050600084148061222d575082848281151561222a57fe5b04145b151561223857600080fd5b8091505092915050565b60008060008060008060008060058a81548110151561225d57fe5b9060005260206000209060050201955060068981548110151561227c57fe5b9060005260206000209060050201945061229e866003015486600301546128f3565b9350612436612710600360009054906101000a900473ffffffffffffffffffffffffffffffffffffffff1673ffffffffffffffffffffffffffffffffffffffff16635c481d8b600260009054906101000a900473ffffffffffffffffffffffffffffffffffffffff1673ffffffffffffffffffffffffffffffffffffffff166333a263e66000604051602001526040518163ffffffff167c0100000000000000000000000000000000000000000000000000000000028152600401602060405180830381600087803b151561237257600080fd5b6102c65a03f1151561238357600080fd5b505050604051805190506123a4898b6004015461220c90919063ffffffff16565b6000604051602001526040518363ffffffff167c010000000000000000000000000000000000000000000000000000000002815260040180836000191660001916815260200182815260200192505050602060405180830381600087803b151561240d57600080fd5b6102c65a03f1151561241e57600080fd5b505050604051805190506121c890919063ffffffff16565b925085600401548311151561245457829150846004015490506125f4565b85600401549150600360009054906101000a900473ffffffffffffffffffffffffffffffffffffffff1673ffffffffffffffffffffffffffffffffffffffff166382f5e31b600260009054906101000a900473ffffffffffffffffffffffffffffffffffffffff1673ffffffffffffffffffffffffffffffffffffffff166333a263e66000604051602001526040518163ffffffff167c0100000000000000000000000000000000000000000000000000000000028152600401602060405180830381600087803b151561252757600080fd5b6102c65a03f1151561253857600080fd5b5050506040518051905061256d61271061255f898c600401546121c890919063ffffffff16565b61220c90919063ffffffff16565b6000604051602001526040518363ffffffff167c010000000000000000000000000000000000000000000000000000000002815260040180836000191660001916815260200182815260200192505050602060405180830381600087803b15156125d657600080fd5b6102c65a03f115156125e757600080fd5b5050506040518051905090505b846004015481149650856004015482149750871515612620578186600401600082825403925050819055505b86151561263a578085600401600082825403925050819055505b8460010160009054906101000a900473ffffffffffffffffffffffffffffffffffffffff1673ffffffffffffffffffffffffffffffffffffffff166108fc839081150290604051600060405180830381858888f19350505050151561269e57600080fd5b600260009054906101000a900473ffffffffffffffffffffffffffffffffffffffff1673ffffffffffffffffffffffffffffffffffffffff1663ab1f03278760010160009054906101000a900473ffffffffffffffffffffffffffffffffffffffff16836040518363ffffffff167c0100000000000000000000000000000000000000000000000000000000028152600401808373ffffffffffffffffffffffffffffffffffffffff1673ffffffffffffffffffffffffffffffffffffffff16815260200182815260200180602001828103825260148152602001807f42757920746f6b656e206f726465722066696c6c0000000000000000000000008152506020019350505050600060405180830381600087803b15156127bf57600080fd5b6102c65a03f115156127d057600080fd5b5050508460010160009054906101000a900473ffffffffffffffffffffffffffffffffffffffff1673ffffffffffffffffffffffffffffffffffffffff168660010160009054906101000a900473ffffffffffffffffffffffffffffffffffffffff1673ffffffffffffffffffffffffffffffffffffffff167ff800bd56a5db2764620505d2880a4bff9e4406107f48f8913c07b3626b7720d460058d81548110151561287957fe5b90600052602060002090600502016000015460068d81548110151561289a57fe5b906000526020600020906005020160000154888787604051808681526020018581526020018481526020018381526020018281526020019550505050505060405180910390a38787975097505050505050509250929050565b6000806000612710841115801561290c57506127108510155b1561291b576127109250612963565b612710841161292e578361271003612934565b61271084035b9150612710851161294957846127100361294f565b61271085035b905080821161295e5783612960565b845b92505b829250505092915050565b612580604051908101604052806032905b612987612a54565b81526020019060019003908161297f5790505090565b610640604051908101604052806032905b600073ffffffffffffffffffffffffffffffffffffffff168152602001906001900390816129ae5790505090565b60a06040519081016040528060008152602001600073ffffffffffffffffffffffffffffffffffffffff1681526020016000815260200160008152602001600081525090565b815481835581811511612a4f57600502816005028360005260206000209182019101612a4e9190612a7c565b5b505050565b60c0604051908101604052806006905b6000815260200190600190039081612a645790505090565b612adf91905b80821115612adb576000808201600090556001820160006101000a81549073ffffffffffffffffffffffffffffffffffffffff021916905560028201600090556003820160009055600482016000905550600501612a82565b5090565b905600a165627a7a7230582059dc77d18309ab4b53c1324d0acea9544b032b9fa84fb83bb735e151c9d43bcf0029",
  "source": "/* Augmint's internal Exchange\n    TODO: finish matchMultipleOrders()\n    TODO: check/test if underflow possible on sell/buyORder.amount -= token/weiAmount in matchOrders()\n    TODO: deduct fee\n    TODO: consider take funcs (frequent rate changes with takeBuyToken? send more and send back remainder?)\n*/\npragma solidity 0.4.18;\nimport \"./interfaces/ExchangeInterface.sol\";\n\n\ncontract Exchange is ExchangeInterface {\n    uint public minOrderAmount; // 0: no limit. For placeBuyTokenOrder it's calculated on current rate & price provided\n\n    /* used to stop executing matchMultiple when running out of gas.\n        actual is much less, just leaving enough matchMultipleOrders() to finish TODO: fine tune & test it*/\n    uint32 public constant ORDER_MATCH_WORST_GAS = 200000;\n\n    event NewOrder(uint orderIndex, uint indexed orderId, address indexed maker, uint price, uint tokenAmount,\n        uint weiAmount);\n\n    event OrderFill(address indexed tokenBuyer, address indexed tokenSeller, uint buyTokenOrderId,\n        uint sellTokenOrderId, uint price, uint weiAmount, uint tokenAmount);\n\n    event CancelledOrder(uint indexed orderId, address indexed maker, uint tokenAmount, uint weiAmount);\n\n    event MinOrderAmountChanged(uint newMinOrderAmount);\n\n    function Exchange(address augmintTokenAddress, address ratesAddress, uint _minOrderAmount) public {\n        augmintToken = AugmintTokenInterface(augmintTokenAddress);\n        rates = Rates(ratesAddress);\n        minOrderAmount = _minOrderAmount;\n    }\n\n    function placeBuyTokenOrder(uint price) external payable returns (uint orderIndex, uint orderId) {\n        require(price > 0);\n        require(msg.value > 0);\n\n        uint tokenAmount = rates.convertFromWei(augmintToken.peggedSymbol(), msg.value.roundedDiv(price).mul(10000));\n        require(tokenAmount >= minOrderAmount);\n\n        lastOrderId++;\n        orderIndex = buyTokenOrders.push(Order(lastOrderId, msg.sender, now, price, msg.value)) - 1;\n\n        NewOrder(orderIndex, lastOrderId, msg.sender, price, 0, msg.value);\n        return(orderIndex, lastOrderId);\n    }\n\n    /* this function requires previous approval to transfer tokens */\n    function placeSellTokenOrder(uint price, uint tokenAmount) external returns (uint orderIndex, uint orderId) {\n        augmintToken.transferFromNoFee(msg.sender, this, tokenAmount, \"Sell token order placed\");\n        return _placeSellTokenOrder(msg.sender, price, tokenAmount);\n    }\n\n    /* This func assuming that token already transferred to Exchange so it can be only called\n        via AugmintToken.placeSellTokenOrderOnExchange() convenience function */\n    function placeSellTokenOrderTrusted(address maker, uint price, uint tokenAmount)\n    external returns (uint orderIndex, uint orderId) {\n        require(msg.sender == address(augmintToken));\n        return _placeSellTokenOrder(maker, price, tokenAmount);\n    }\n\n    function cancelBuyTokenOrder(uint buyTokenIndex, uint buyTokenId) external {\n        require(buyTokenOrders[buyTokenIndex].maker == msg.sender);\n        require(buyTokenId == buyTokenOrders[buyTokenIndex].id);\n\n        msg.sender.transfer(buyTokenOrders[buyTokenIndex].amount);\n\n        CancelledOrder(buyTokenId, msg.sender, 0, buyTokenOrders[buyTokenIndex].amount);\n        _removeOrder(buyTokenOrders, buyTokenIndex);\n    }\n\n    function cancelSellTokenOrder(uint sellTokenIndex, uint sellTokenId) external {\n        require(sellTokenOrders[sellTokenIndex].maker == msg.sender);\n        require(sellTokenId == sellTokenOrders[sellTokenIndex].id);\n\n        augmintToken.transferNoFee(msg.sender, sellTokenOrders[sellTokenIndex].amount, \"Sell token order cancelled\");\n\n        CancelledOrder(sellTokenId, msg.sender, sellTokenOrders[sellTokenIndex].amount, 0);\n        _removeOrder(sellTokenOrders, sellTokenIndex);\n    }\n\n    /* matches any two orders if the sell price >= buy price\n        trade price is the price which is closer to par.\n        reverts if any of the orders been removed (i.e. passed orderId is not matching the orderIndex in contract)\n    */\n    function matchOrders(uint buyTokenIndex, uint buyTokenId, uint sellTokenIndex, uint sellTokenId) external {\n        require(isValidMatch(buyTokenIndex, buyTokenId, sellTokenIndex, sellTokenId));\n\n        var (buyFilled, sellFilled) = _fillOrder(buyTokenIndex, sellTokenIndex);\n        if (sellFilled) { _removeOrder(sellTokenOrders, sellTokenIndex);}\n        if (buyFilled) { _removeOrder(buyTokenOrders, buyTokenIndex); }\n    }\n\n    /*  matches as many orders as possible from the passed orders\n        Runs as long as gas avialable for the call\n        Returns the number of orders matched\n        Stops if any match is invalid (case when any of the orders removed after client generated the match list sent)\n        Reverts if sizes of arrays passed shorter than passed buyTokenIndexes.\n\n        FIXME: finish this func */\n    function matchMultipleOrders(uint[] buyTokenIndexes, uint[] buyTokenIds, uint[] sellTokenIndexes,\n    uint[] sellTokenIds) external returns(uint i) {\n        // fill but don't remove yet to keep indexes\n        for (i = 0; i < buyTokenIndexes.length && msg.gas > ORDER_MATCH_WORST_GAS; i++) {\n            /* stop processing next match is not valid but let the others pass */\n            if (!isValidMatch(buyTokenIndexes[i], buyTokenIds[i], sellTokenIndexes[i], sellTokenIds[i])) { break; }\n\n            var (buyFilled, sellFilled) = _fillOrder(buyTokenIndexes[i], sellTokenIndexes[i]);\n\n            /* mark orders for removal - we can't remove yet as it would change indexes in buyTokenOrders storage array\n                TODO: more gas effecient way? i.e. without writing storage */\n            if (buyFilled) { buyTokenOrders[buyTokenIndexes[i]].amount = 0; }\n            if (sellFilled) { sellTokenOrders[sellTokenIndexes[i]].amount = 0; }\n        }\n\n        /* FIXME: do removal\n            potentially with a func optimised for multiple removals (instead of _removeOrder)\n            TODO: fix gas cost left over calculation to count in removals gas cost */\n\n        revert(); // function is not finished\n\n        return i;\n    }\n\n    /* only allowed for Monetary Board. */\n    function setMinOrderAmount(uint _minOrderAmount) external restrict(\"setMinOrderAmount\") {\n        minOrderAmount = _minOrderAmount;\n        MinOrderAmountChanged(minOrderAmount);\n    }\n\n    function getOrderCounts() external view returns(uint buyTokenOrderCount, uint sellTokenOrderCount) {\n        return(buyTokenOrders.length, sellTokenOrders.length);\n    }\n\n    // returns 50 buy and sell token orders starting from some offset\n    //      orders are encoded as [maker], [index, id, addedTime, price, tokenAmount, weiAmount]\n    //      if weiAmount == 0 then SELL token order, if tokenAmount == 0 then BUY token order\n    function getOrders(uint offset) external view returns (uint[6][50] response, address[50] makers) {\n        Order memory order; // we should maybe use storage pointer here but that gives a warning\n\n        uint sellOffset = buyTokenOrders.length < offset ? offset - buyTokenOrders.length : 0;\n\n        for (uint8 i = 0; i < 50 && i + offset < buyTokenOrders.length; i++) {\n            order = buyTokenOrders[offset + i];\n            response[i] = [offset + i, order.id, order.addedTime, order.price, 0, order.amount];\n            makers[i] = order.maker;\n        }\n\n        for (uint8 j = 0; j + i < 50 && sellOffset + j < sellTokenOrders.length; j++) {\n            order = sellTokenOrders[sellOffset + j];\n            response[i + j] = [sellOffset + j, order.id, order.addedTime, order.price,\n                                order.amount, 0];\n            makers[i + j] = order.maker;\n        }\n\n        return (response, makers);\n    }\n\n    function isValidMatch(uint buyTokenIndex, uint buyTokenId, uint sellTokenIndex, uint sellTokenId)\n    public view returns (bool) {\n        return (buyTokenId == buyTokenOrders[buyTokenIndex].id &&\n                sellTokenId == sellTokenOrders[sellTokenIndex].id &&\n                buyTokenOrders[buyTokenIndex].price >= sellTokenOrders[sellTokenIndex].price);\n    }\n\n    /* internal fill function, called by matchOrders and matchMultipleOrders.\n        NB: it doesn't remove or check the match, calling function must do it */\n    function _fillOrder(uint buyTokenIndex, uint sellTokenIndex) internal returns (bool buyFilled, bool sellFilled) {\n        Order storage buyTokenOrder = buyTokenOrders[buyTokenIndex];\n        Order storage sellTokenOrder = sellTokenOrders[sellTokenIndex];\n\n        uint price = getMatchPrice(buyTokenOrder.price, sellTokenOrder.price); // use price which is closer to par\n        uint sellTokenWeiAmount = rates.convertToWei(augmintToken.peggedSymbol(),\n                                    sellTokenOrder.amount.mul(price)).roundedDiv(10000);\n        uint tradedWeiAmount;\n        uint tradedTokenAmount;\n\n        if (sellTokenWeiAmount <= buyTokenOrder.amount) {\n            tradedWeiAmount = sellTokenWeiAmount;\n            tradedTokenAmount = sellTokenOrder.amount;\n        } else {\n            tradedWeiAmount = buyTokenOrder.amount;\n            tradedTokenAmount = rates.convertFromWei(augmintToken.peggedSymbol(),\n                                                        buyTokenOrder.amount.roundedDiv(price).mul(10000));\n        }\n\n        sellFilled = tradedTokenAmount == sellTokenOrder.amount;\n        buyFilled = tradedWeiAmount == buyTokenOrder.amount;\n\n        if (!buyFilled) {\n            buyTokenOrder.amount -= tradedWeiAmount;\n        }\n        if (!sellFilled) {\n            sellTokenOrder.amount -= tradedTokenAmount;\n        }\n\n        sellTokenOrder.maker.transfer(tradedWeiAmount);\n        augmintToken.transferNoFee(buyTokenOrder.maker, tradedTokenAmount, \"Buy token order fill\");\n\n        OrderFill(buyTokenOrder.maker, sellTokenOrder.maker, buyTokenOrders[buyTokenIndex].id,\n            sellTokenOrders[sellTokenIndex].id, price, tradedWeiAmount, tradedTokenAmount);\n        return(buyFilled, sellFilled);\n    }\n\n    // return par if it's between par otherwise the price which is closer to par\n    function getMatchPrice(uint buyPrice, uint sellPrice) internal pure returns(uint price) {\n        if (sellPrice <= 10000 && buyPrice >= 10000) {\n            price = 10000;\n        } else {\n            uint sellPriceDeviationFromPar = sellPrice > 10000 ? sellPrice - 10000 : 10000 - sellPrice;\n            uint buyPriceDeviationFromPar = buyPrice > 10000 ? buyPrice - 10000 : 10000 - buyPrice;\n            price = sellPriceDeviationFromPar > buyPriceDeviationFromPar ? buyPrice : sellPrice;\n        }\n        return price;\n    }\n\n    function _placeSellTokenOrder(address maker, uint price, uint tokenAmount)\n    private returns (uint orderIndex, uint orderId) {\n        require(price > 0);\n        require(tokenAmount > 0);\n        require(tokenAmount >= minOrderAmount);\n\n        lastOrderId++;\n        orderIndex = sellTokenOrders.push(Order(lastOrderId, maker, now, price, tokenAmount)) - 1;\n\n        NewOrder(orderIndex, lastOrderId, maker, price, tokenAmount, 0);\n        return(orderIndex, lastOrderId);\n    }\n\n    function _removeOrder(Order[] storage orders, uint orderIndex) private {\n        if (orderIndex < orders.length - 1) {\n            orders[orderIndex] = orders[orders.length - 1];\n        }\n        orders.length--;\n    }\n\n}\n",
  "sourcePath": "/Users/gyurka00/Documents/dcm-poc/contracts/Exchange.sol",
  "compiler": {
    "name": "solc",
    "version": "0.4.18+commit.9cf6e910.Emscripten.clang"
  },
  "schemaVersion": "1.0.1",
  "updatedAt": "2018-01-29T16:51:44.049Z"
}