{
  "contractName": "Exchange",
  "abi": [
    {
      "constant": false,
      "inputs": [
        {
          "name": "agent",
          "type": "address"
        },
        {
          "name": "requiredPermissions",
          "type": "bytes32[]"
        }
      ],
      "name": "revokeMulitplePermissions",
      "outputs": [],
      "payable": false,
      "stateMutability": "nonpayable",
      "type": "function"
    },
    {
      "constant": true,
      "inputs": [
        {
          "name": "",
          "type": "address"
        },
        {
          "name": "",
          "type": "bytes32"
        }
      ],
      "name": "permissions",
      "outputs": [
        {
          "name": "",
          "type": "bool"
        }
      ],
      "payable": false,
      "stateMutability": "view",
      "type": "function"
    },
    {
      "constant": true,
      "inputs": [],
      "name": "ORDER_MATCH_WORST_GAS",
      "outputs": [
        {
          "name": "",
          "type": "uint32"
        }
      ],
      "payable": false,
      "stateMutability": "view",
      "type": "function"
    },
    {
      "constant": false,
      "inputs": [
        {
          "name": "agent",
          "type": "address"
        },
        {
          "name": "requiredPermission",
          "type": "bytes32"
        }
      ],
      "name": "revokePermission",
      "outputs": [],
      "payable": false,
      "stateMutability": "nonpayable",
      "type": "function"
    },
    {
      "constant": true,
      "inputs": [
        {
          "name": "",
          "type": "uint256"
        }
      ],
      "name": "sellTokenOrders",
      "outputs": [
        {
          "name": "index",
          "type": "uint256"
        },
        {
          "name": "maker",
          "type": "address"
        },
        {
          "name": "addedTime",
          "type": "uint256"
        },
        {
          "name": "price",
          "type": "uint256"
        },
        {
          "name": "amount",
          "type": "uint256"
        }
      ],
      "payable": false,
      "stateMutability": "view",
      "type": "function"
    },
    {
      "constant": true,
      "inputs": [],
      "name": "augmintToken",
      "outputs": [
        {
          "name": "",
          "type": "address"
        }
      ],
      "payable": false,
      "stateMutability": "view",
      "type": "function"
    },
    {
      "constant": false,
      "inputs": [
        {
          "name": "agent",
          "type": "address"
        },
        {
          "name": "requiredPermissions",
          "type": "bytes32[]"
        }
      ],
      "name": "grantMultiplePermissions",
      "outputs": [],
      "payable": false,
      "stateMutability": "nonpayable",
      "type": "function"
    },
    {
      "constant": true,
      "inputs": [],
      "name": "CHUNK_SIZE",
      "outputs": [
        {
          "name": "",
          "type": "uint256"
        }
      ],
      "payable": false,
      "stateMutability": "view",
      "type": "function"
    },
    {
      "constant": true,
      "inputs": [
        {
          "name": "",
          "type": "uint256"
        }
      ],
      "name": "buyTokenOrders",
      "outputs": [
        {
          "name": "index",
          "type": "uint256"
        },
        {
          "name": "maker",
          "type": "address"
        },
        {
          "name": "addedTime",
          "type": "uint256"
        },
        {
          "name": "price",
          "type": "uint256"
        },
        {
          "name": "amount",
          "type": "uint256"
        }
      ],
      "payable": false,
      "stateMutability": "view",
      "type": "function"
    },
    {
      "constant": false,
      "inputs": [
        {
          "name": "agent",
          "type": "address"
        },
        {
          "name": "requiredPermission",
          "type": "bytes32"
        }
      ],
      "name": "grantPermission",
      "outputs": [],
      "payable": false,
      "stateMutability": "nonpayable",
      "type": "function"
    },
    {
      "inputs": [
        {
          "name": "_augmintToken",
          "type": "address"
        }
      ],
      "payable": false,
      "stateMutability": "nonpayable",
      "type": "constructor"
    },
    {
      "anonymous": false,
      "inputs": [
        {
          "indexed": true,
          "name": "orderId",
          "type": "uint256"
        },
        {
          "indexed": true,
          "name": "maker",
          "type": "address"
        },
        {
          "indexed": false,
          "name": "price",
          "type": "uint256"
        },
        {
          "indexed": false,
          "name": "tokenAmount",
          "type": "uint256"
        },
        {
          "indexed": false,
          "name": "weiAmount",
          "type": "uint256"
        }
      ],
      "name": "NewOrder",
      "type": "event"
    },
    {
      "anonymous": false,
      "inputs": [
        {
          "indexed": true,
          "name": "tokenBuyer",
          "type": "address"
        },
        {
          "indexed": true,
          "name": "tokenSeller",
          "type": "address"
        },
        {
          "indexed": false,
          "name": "buyTokenOrderId",
          "type": "uint256"
        },
        {
          "indexed": false,
          "name": "sellTokenOrderId",
          "type": "uint256"
        },
        {
          "indexed": false,
          "name": "price",
          "type": "uint256"
        },
        {
          "indexed": false,
          "name": "weiAmount",
          "type": "uint256"
        },
        {
          "indexed": false,
          "name": "tokenAmount",
          "type": "uint256"
        }
      ],
      "name": "OrderFill",
      "type": "event"
    },
    {
      "anonymous": false,
      "inputs": [
        {
          "indexed": true,
          "name": "orderId",
          "type": "uint256"
        },
        {
          "indexed": true,
          "name": "maker",
          "type": "address"
        },
        {
          "indexed": false,
          "name": "tokenAmount",
          "type": "uint256"
        },
        {
          "indexed": false,
          "name": "weiAmount",
          "type": "uint256"
        }
      ],
      "name": "CancelledOrder",
      "type": "event"
    },
    {
      "anonymous": false,
      "inputs": [
        {
          "indexed": true,
          "name": "agent",
          "type": "address"
        },
        {
          "indexed": false,
          "name": "grantedPermission",
          "type": "bytes32"
        }
      ],
      "name": "PermissionGranted",
      "type": "event"
    },
    {
      "anonymous": false,
      "inputs": [
        {
          "indexed": true,
          "name": "agent",
          "type": "address"
        },
        {
          "indexed": false,
          "name": "revokedPermission",
          "type": "bytes32"
        }
      ],
      "name": "PermissionRevoked",
      "type": "event"
    },
    {
      "constant": false,
      "inputs": [
        {
          "name": "price",
          "type": "uint256"
        }
      ],
      "name": "placeBuyTokenOrder",
      "outputs": [
        {
          "name": "orderId",
          "type": "uint256"
        }
      ],
      "payable": true,
      "stateMutability": "payable",
      "type": "function"
    },
    {
      "constant": false,
      "inputs": [
        {
          "name": "price",
          "type": "uint256"
        },
        {
          "name": "tokenAmount",
          "type": "uint256"
        }
      ],
      "name": "placeSellTokenOrder",
      "outputs": [
        {
          "name": "orderId",
          "type": "uint256"
        }
      ],
      "payable": false,
      "stateMutability": "nonpayable",
      "type": "function"
    },
    {
      "constant": false,
      "inputs": [
        {
          "name": "buyTokenId",
          "type": "uint256"
        }
      ],
      "name": "cancelBuyTokenOrder",
      "outputs": [],
      "payable": false,
      "stateMutability": "nonpayable",
      "type": "function"
    },
    {
      "constant": false,
      "inputs": [
        {
          "name": "sellTokenId",
          "type": "uint256"
        }
      ],
      "name": "cancelSellTokenOrder",
      "outputs": [],
      "payable": false,
      "stateMutability": "nonpayable",
      "type": "function"
    },
    {
      "constant": false,
      "inputs": [
        {
          "name": "buyTokenId",
          "type": "uint256"
        },
        {
          "name": "sellTokenId",
          "type": "uint256"
        }
      ],
      "name": "matchOrders",
      "outputs": [],
      "payable": false,
      "stateMutability": "nonpayable",
      "type": "function"
    },
    {
      "constant": false,
      "inputs": [
        {
          "name": "buyTokenIds",
          "type": "uint256[]"
        },
        {
          "name": "sellTokenIds",
          "type": "uint256[]"
        }
      ],
      "name": "matchMultipleOrders",
      "outputs": [
        {
          "name": "matchCount",
          "type": "uint256"
        }
      ],
      "payable": false,
      "stateMutability": "nonpayable",
      "type": "function"
    },
    {
      "constant": true,
      "inputs": [],
      "name": "getActiveOrderCounts",
      "outputs": [
        {
          "name": "buyTokenOrderCount",
          "type": "uint256"
        },
        {
          "name": "sellTokenOrderCount",
          "type": "uint256"
        }
      ],
      "payable": false,
      "stateMutability": "view",
      "type": "function"
    },
    {
      "constant": true,
      "inputs": [
        {
          "name": "offset",
          "type": "uint256"
        }
      ],
      "name": "getActiveBuyOrders",
      "outputs": [
        {
          "name": "response",
          "type": "uint256[5][100]"
        }
      ],
      "payable": false,
      "stateMutability": "view",
      "type": "function"
    },
    {
      "constant": true,
      "inputs": [
        {
          "name": "offset",
          "type": "uint256"
        }
      ],
      "name": "getActiveSellOrders",
      "outputs": [
        {
          "name": "response",
          "type": "uint256[5][100]"
        }
      ],
      "payable": false,
      "stateMutability": "view",
      "type": "function"
    },
    {
      "constant": false,
      "inputs": [
        {
          "name": "maker",
          "type": "address"
        },
        {
          "name": "tokenAmount",
          "type": "uint256"
        },
        {
          "name": "price",
          "type": "uint256"
        }
      ],
      "name": "transferNotification",
      "outputs": [],
      "payable": false,
      "stateMutability": "nonpayable",
      "type": "function"
    }
  ],
  "bytecode": "0x6060604052341561000f57600080fd5b604051602080611e7c8339810160405280805190602001909190505060016000803373ffffffffffffffffffffffffffffffffffffffff1673ffffffffffffffffffffffffffffffffffffffff16815260200190815260200160002060007f4d6f6e6574617279426f6172640000000000000000000000000000000000000060001916815260200190815260200160002060006101000a81548160ff0219169083151502179055503373ffffffffffffffffffffffffffffffffffffffff167fc65937e3dbcb9fb30f646815dd67a3dbd09ba17718cbcb54efbe3635f8e0a6fe60405180807f4d6f6e6574617279426f61726400000000000000000000000000000000000000815250602001905060405180910390a280600160006101000a81548173ffffffffffffffffffffffffffffffffffffffff021916908373ffffffffffffffffffffffffffffffffffffffff16021790555050611d06806101766000396000f300606060405260043610610112576000357c0100000000000000000000000000000000000000000000000000000000900463ffffffff1680630da32eaa146101175780631756353d146101905780632001b324146101bc5780633cadc37d146101fc5780635b225526146102525780635d66210e146102b05780635fe07013146102e557806364e7e4a41461032b5780636c0f41d8146103765780636e593210146103a25780636ecd87e1146104245780637a5e129d146104475780637b9b9c89146104c65780637e6503bb1461051b5780639ac3317b1461054b578063b040f741146105c4578063c93e8b15146105e7578063e91e13a914610669578063f14eb3a114610692578063f38a826214610711575b600080fd5b341561012257600080fd5b61018e600480803573ffffffffffffffffffffffffffffffffffffffff1690602001909190803590602001908201803590602001908080602002602001604051908101604052809392919081815260200183836020028082843782019150505050505091905050610757565b005b341561019b57600080fd5b6101ba600480803590602001909190803590602001909190505061079f565b005b34156101c757600080fd5b6101e660048080359060200190919080359060200190919050506107ad565b6040518082815260200191505060405180910390f35b341561020757600080fd5b61023c6004808035906020019082018035906020019190919290803590602001908201803590602001919091929050506108df565b6040518082815260200191505060405180910390f35b341561025d57600080fd5b610296600480803573ffffffffffffffffffffffffffffffffffffffff169060200190919080356000191690602001909190505061096d565b604051808215151515815260200191505060405180910390f35b34156102bb57600080fd5b6102c361099c565b604051808263ffffffff1663ffffffff16815260200191505060405180910390f35b34156102f057600080fd5b610329600480803573ffffffffffffffffffffffffffffffffffffffff16906020019091908035600019169060200190919050506109a3565b005b341561033657600080fd5b610374600480803573ffffffffffffffffffffffffffffffffffffffff16906020019091908035906020019091908035906020019091905050610a6d565b005b61038c6004808035906020019091905050610ada565b6040518082815260200191505060405180910390f35b34156103ad57600080fd5b6103c36004808035906020019091905050610c69565b604051808260646000925b818410156104145782846020020151600560200280838360005b838110156104035780820151818401526020810190506103e8565b5050505090500192600101926103ce565b9250505091505060405180910390f35b341561042f57600080fd5b6104456004808035906020019091905050610d78565b005b341561045257600080fd5b6104686004808035906020019091905050610eaf565b604051808681526020018573ffffffffffffffffffffffffffffffffffffffff1673ffffffffffffffffffffffffffffffffffffffff1681526020018481526020018381526020018281526020019550505050505060405180910390f35b34156104d157600080fd5b6104d9610f14565b604051808273ffffffffffffffffffffffffffffffffffffffff1673ffffffffffffffffffffffffffffffffffffffff16815260200191505060405180910390f35b341561052657600080fd5b61052e610f3a565b604051808381526020018281526020019250505060405180910390f35b341561055657600080fd5b6105c2600480803573ffffffffffffffffffffffffffffffffffffffff1690602001909190803590602001908201803590602001908080602002602001604051908101604052809392919081815260200183836020028082843782019150505050505091905050610f51565b005b34156105cf57600080fd5b6105e56004808035906020019091905050611025565b005b34156105f257600080fd5b610608600480803590602001909190505061122d565b604051808260646000925b818410156106595782846020020151600560200280838360005b8381101561064857808201518184015260208101905061062d565b505050509050019260010192610613565b9250505091505060405180910390f35b341561067457600080fd5b61067c61133c565b6040518082815260200191505060405180910390f35b341561069d57600080fd5b6106b36004808035906020019091905050611341565b604051808681526020018573ffffffffffffffffffffffffffffffffffffffff1673ffffffffffffffffffffffffffffffffffffffff1681526020018481526020018381526020018281526020019550505050505060405180910390f35b341561071c57600080fd5b610755600480803573ffffffffffffffffffffffffffffffffffffffff16906020019091908035600019169060200190919050506113a6565b005b60008082519150600090505b818110156107995761078c84848381518110151561077d57fe5b906020019060200201516109a3565b8080600101915050610763565b50505050565b6107a982826114fc565b5050565b6000600160009054906101000a900473ffffffffffffffffffffffffffffffffffffffff1673ffffffffffffffffffffffffffffffffffffffff166323b872dd3330856000604051602001526040518463ffffffff167c0100000000000000000000000000000000000000000000000000000000028152600401808473ffffffffffffffffffffffffffffffffffffffff1673ffffffffffffffffffffffffffffffffffffffff1681526020018373ffffffffffffffffffffffffffffffffffffffff1673ffffffffffffffffffffffffffffffffffffffff1681526020018281526020019350505050602060405180830381600087803b15156108b057600080fd5b6102c65a03f115156108c157600080fd5b50505060405180519050506108d73384846118f0565b905092915050565b600080600086869050915084849050821415156108fb57600080fd5b600090505b8181108015610917575062030d4063ffffffff165a115b156109635761094e878783818110151561092d57fe5b90506020020135868684818110151561094257fe5b905060200201356114fc565b82806001019350508080600101915050610900565b5050949350505050565b60006020528160005260406000206020528060005260406000206000915091509054906101000a900460ff1681565b62030d4081565b60008060008473ffffffffffffffffffffffffffffffffffffffff1673ffffffffffffffffffffffffffffffffffffffff1681526020019081526020016000206000836000191660001916815260200190815260200160002060006101000a81548160ff0219169083151502179055508173ffffffffffffffffffffffffffffffffffffffff167f789770131846de4d1f28418f0f957cdf4fcabe5eccf70067083e20ecece69a348260405180826000191660001916815260200191505060405180910390a25050565b600160009054906101000a900473ffffffffffffffffffffffffffffffffffffffff1673ffffffffffffffffffffffffffffffffffffffff163373ffffffffffffffffffffffffffffffffffffffff16141515610ac957600080fd5b610ad48382846118f0565b50505050565b60008082111515610aea57600080fd5b600034111515610af957600080fd5b600160028054806001018281610b0f9190611b9a565b9160005260206000209060050201600060a06040519081016040528060048054905081526020013373ffffffffffffffffffffffffffffffffffffffff1681526020014281526020018781526020013481525090919091506000820151816000015560208201518160010160006101000a81548173ffffffffffffffffffffffffffffffffffffffff021916908373ffffffffffffffffffffffffffffffffffffffff160217905550604082015181600201556060820151816003015560808201518160040155505003905060048054806001018281610bef9190611bcc565b9160005260206000209001600083909190915055503373ffffffffffffffffffffffffffffffffffffffff16817f5fb69864eabf6f6af276c839a96d25daee1489f5f897dec6d6cb483fd820e2e38460003460405180848152602001838152602001828152602001935050505060405180910390a3919050565b610c71611bf8565b60008060008092505b60648360ff16108015610c965750600580549050858460ff1601105b15610d705760058360ff168601815481101515610caf57fe5b9060005260206000209001549150600382815481101515610ccc57fe5b9060005260206000209060050201905060a0604051908101604052808381526020018260010160009054906101000a900473ffffffffffffffffffffffffffffffffffffffff1673ffffffffffffffffffffffffffffffffffffffff16815260200182600201548152602001826003015481526020018260040154815250848460ff16606481101515610d5b57fe5b60200201819052508280600101935050610c7a565b505050919050565b600080600283815481101515610d8a57fe5b906000526020600020906005020191503373ffffffffffffffffffffffffffffffffffffffff168260010160009054906101000a900473ffffffffffffffffffffffffffffffffffffffff1673ffffffffffffffffffffffffffffffffffffffff16141515610df857600080fd5b8160040154905060008260040181905550610e1282611a81565b3373ffffffffffffffffffffffffffffffffffffffff166108fc829081150290604051600060405180830381858888f193505050501515610e5257600080fd5b3373ffffffffffffffffffffffffffffffffffffffff16837f61a4c3ec95de122096d654ab66ccf22fc8dc74fab994e098df193c7b7d79ebe9600084604051808381526020018281526020019250505060405180910390a3505050565b600381815481101515610ebe57fe5b90600052602060002090600502016000915090508060000154908060010160009054906101000a900473ffffffffffffffffffffffffffffffffffffffff16908060020154908060030154908060040154905085565b600160009054906101000a900473ffffffffffffffffffffffffffffffffffffffff1681565b600080600480549050600580549050915091509091565b6000806000803373ffffffffffffffffffffffffffffffffffffffff1673ffffffffffffffffffffffffffffffffffffffff16815260200190815260200160002060007f4d6f6e6574617279426f6172640000000000000000000000000000000000000060001916815260200190815260200160002060009054906101000a900460ff161515610fe057600080fd5b82519150600090505b8181101561101f5761101284848381518110151561100357fe5b906020019060200201516113a6565b8080600101915050610fe9565b50505050565b60008060038381548110151561103757fe5b906000526020600020906005020191503373ffffffffffffffffffffffffffffffffffffffff168260010160009054906101000a900473ffffffffffffffffffffffffffffffffffffffff1673ffffffffffffffffffffffffffffffffffffffff161415156110a557600080fd5b81600401549050600082600401819055506110bf82611a93565b600160009054906101000a900473ffffffffffffffffffffffffffffffffffffffff1673ffffffffffffffffffffffffffffffffffffffff1663ffdcf09533836040518363ffffffff167c0100000000000000000000000000000000000000000000000000000000028152600401808373ffffffffffffffffffffffffffffffffffffffff1673ffffffffffffffffffffffffffffffffffffffff168152602001828152602001806020018281038252601a8152602001807f53656c6c20746f6b656e206f726465722063616e63656c6c65640000000000008152506020019350505050600060405180830381600087803b15156111bc57600080fd5b6102c65a03f115156111cd57600080fd5b5050503373ffffffffffffffffffffffffffffffffffffffff16837f61a4c3ec95de122096d654ab66ccf22fc8dc74fab994e098df193c7b7d79ebe9836000604051808381526020018281526020019250505060405180910390a3505050565b611235611bf8565b60008060008092505b60648360ff1610801561125a5750600480549050858460ff1601105b156113345760048360ff16860181548110151561127357fe5b906000526020600020900154915060028281548110151561129057fe5b9060005260206000209060050201905060a0604051908101604052808381526020018260010160009054906101000a900473ffffffffffffffffffffffffffffffffffffffff1673ffffffffffffffffffffffffffffffffffffffff16815260200182600201548152602001826003015481526020018260040154815250848460ff1660648110151561131f57fe5b6020020181905250828060010193505061123e565b505050919050565b606481565b60028181548110151561135057fe5b90600052602060002090600502016000915090508060000154908060010160009054906101000a900473ffffffffffffffffffffffffffffffffffffffff16908060020154908060030154908060040154905085565b6000803373ffffffffffffffffffffffffffffffffffffffff1673ffffffffffffffffffffffffffffffffffffffff16815260200190815260200160002060007f4d6f6e6574617279426f6172640000000000000000000000000000000000000060001916815260200190815260200160002060009054906101000a900460ff16151561143257600080fd5b60016000808473ffffffffffffffffffffffffffffffffffffffff1673ffffffffffffffffffffffffffffffffffffffff1681526020019081526020016000206000836000191660001916815260200190815260200160002060006101000a81548160ff0219169083151502179055508173ffffffffffffffffffffffffffffffffffffffff167fc65937e3dbcb9fb30f646815dd67a3dbd09ba17718cbcb54efbe3635f8e0a6fe8260405180826000191660001916815260200191505060405180910390a25050565b60008060008060008060028881548110151561151457fe5b9060005260206000209060050201955060038781548110151561153357fe5b90600052602060002090600502019450846003015486600301541015151561155a57600080fd5b611588600261157a87600301548960030154611aa590919063ffffffff16565b611ac690919063ffffffff16565b93506115bb846115ad670de0b6b3a76400008860040154611ae190919063ffffffff16565b611ac690919063ffffffff16565b92508560040154831115156115d95782915084600401549050611614565b85600401549150611611670de0b6b3a7640000611603868960040154611ae190919063ffffffff16565b611ac690919063ffffffff16565b90505b61162b828760040154611b1790919063ffffffff16565b866004018190555060008660040154141561164a5761164986611a81565b5b611661818660040154611b1790919063ffffffff16565b85600401819055506000856004015414156116805761167f85611a93565b5b8460010160009054906101000a900473ffffffffffffffffffffffffffffffffffffffff1673ffffffffffffffffffffffffffffffffffffffff166108fc839081150290604051600060405180830381858888f1935050505015156116e457600080fd5b600160009054906101000a900473ffffffffffffffffffffffffffffffffffffffff1673ffffffffffffffffffffffffffffffffffffffff1663ffdcf0958760010160009054906101000a900473ffffffffffffffffffffffffffffffffffffffff16836040518363ffffffff167c0100000000000000000000000000000000000000000000000000000000028152600401808373ffffffffffffffffffffffffffffffffffffffff1673ffffffffffffffffffffffffffffffffffffffff16815260200182815260200180602001828103825260148152602001807f42757920746f6b656e206f726465722066696c6c0000000000000000000000008152506020019350505050600060405180830381600087803b151561180557600080fd5b6102c65a03f1151561181657600080fd5b5050508460010160009054906101000a900473ffffffffffffffffffffffffffffffffffffffff1673ffffffffffffffffffffffffffffffffffffffff168660010160009054906101000a900473ffffffffffffffffffffffffffffffffffffffff1673ffffffffffffffffffffffffffffffffffffffff167ff800bd56a5db2764620505d2880a4bff9e4406107f48f8913c07b3626b7720d48a8a888787604051808681526020018581526020018481526020018381526020018281526020019550505050505060405180910390a35050505050505050565b6000808311151561190057600080fd5b60008211151561190f57600080fd5b6001600380548060010182816119259190611b9a565b9160005260206000209060050201600060a06040519081016040528060058054905081526020018973ffffffffffffffffffffffffffffffffffffffff1681526020014281526020018881526020018781525090919091506000820151816000015560208201518160010160006101000a81548173ffffffffffffffffffffffffffffffffffffffff021916908373ffffffffffffffffffffffffffffffffffffffff160217905550604082015181600201556060820151816003015560808201518160040155505003905060058054806001018281611a059190611bcc565b9160005260206000209001600083909190915055508373ffffffffffffffffffffffffffffffffffffffff16817f5fb69864eabf6f6af276c839a96d25daee1489f5f897dec6d6cb483fd820e2e38585600060405180848152602001838152602001828152602001935050505060405180910390a39392505050565b611a9060048260000154611b33565b50565b611aa260058260000154611b33565b50565b6000808284019050838110151515611abc57600080fd5b8091505092915050565b6000808284811515611ad457fe5b0490508091505092915050565b60008082840290506000841480611b025750828482811515611aff57fe5b04145b1515611b0d57600080fd5b8091505092915050565b6000828211151515611b2857600080fd5b818303905092915050565b6001828054905003811015611b8157816001838054905003815481101515611b5757fe5b9060005260206000209001548282815481101515611b7157fe5b9060005260206000209001819055505b81805480919060019003611b959190611bcc565b505050565b815481835581811511611bc757600502816005028360005260206000209182019101611bc69190611c27565b5b505050565b815481835581811511611bf357818360005260206000209182019101611bf29190611c8d565b5b505050565b613e80604051908101604052806064905b611c11611cb2565b815260200190600190039081611c095790505090565b611c8a91905b80821115611c86576000808201600090556001820160006101000a81549073ffffffffffffffffffffffffffffffffffffffff021916905560028201600090556003820160009055600482016000905550600501611c2d565b5090565b90565b611caf91905b80821115611cab576000816000905550600101611c93565b5090565b90565b60a0604051908101604052806005905b6000815260200190600190039081611cc257905050905600a165627a7a72305820533248d47ba0e916de7a58093a7fdb38139cf5f0822bc52711ff08849d2305c60029",
  "source": "/* Augmint's Internal Exchange\n\n  For flows see: https://github.com/Augmint/augmint-contracts/blob/master/docs/exchangeFlow.png\n\n    TODO:\n        - deduct fee\n        - consider take funcs (frequent rate changes with takeBuyToken? send more and send back remainder?)\n        - uint32 for addedTime?\n*/\npragma solidity 0.4.19;\nimport \"./generic/SafeMath.sol\";\nimport \"./generic/Restricted.sol\";\nimport \"./interfaces/AugmintTokenInterface.sol\";\n\n\ncontract Exchange is Restricted {\n    using SafeMath for uint256;\n    AugmintTokenInterface public augmintToken;\n\n    uint public constant CHUNK_SIZE = 100;\n\n    struct Order {\n        uint index;\n        address maker;\n        uint addedTime;\n\n        // tokens per ether (4 decimals)\n        uint price;\n\n        // buy order: amount in wei \n        // sell order: token amount (4 decimals)\n        uint amount;    \n    }\n\n    Order[] public buyTokenOrders;\n    Order[] public sellTokenOrders;\n\n    uint[] private activeBuyOrders;\n    uint[] private activeSellOrders;\n\n    /* used to stop executing matchMultiple when running out of gas.\n        actual is much less, just leaving enough matchMultipleOrders() to finish TODO: fine tune & test it*/\n    uint32 public constant ORDER_MATCH_WORST_GAS = 200000;\n\n    event NewOrder(uint indexed orderId, address indexed maker, uint price, uint tokenAmount,\n        uint weiAmount);\n\n    event OrderFill(address indexed tokenBuyer, address indexed tokenSeller, uint buyTokenOrderId,\n        uint sellTokenOrderId, uint price, uint weiAmount, uint tokenAmount);\n\n    event CancelledOrder(uint indexed orderId, address indexed maker, uint tokenAmount, uint weiAmount);\n\n    function Exchange(AugmintTokenInterface _augmintToken) public {\n        augmintToken = _augmintToken;\n    }\n\n    function placeBuyTokenOrder(uint price) external payable returns (uint orderId) {\n        require(price > 0);\n        require(msg.value > 0);\n\n        orderId = buyTokenOrders.push(Order(activeBuyOrders.length, msg.sender, now, price, msg.value)) - 1;\n        activeBuyOrders.push(orderId);\n\n        NewOrder(orderId, msg.sender, price, 0, msg.value);\n    }\n\n    /* this function requires previous approval to transfer tokens */\n    function placeSellTokenOrder(uint price, uint tokenAmount) external returns (uint orderId) {\n        augmintToken.transferFrom(msg.sender, this, tokenAmount);\n        return _placeSellTokenOrder(msg.sender, price, tokenAmount);\n    }\n\n    function cancelBuyTokenOrder(uint buyTokenId) external {\n        Order storage order = buyTokenOrders[buyTokenId];\n        require(order.maker == msg.sender);\n\n        uint amount = order.amount;\n        order.amount = 0;\n        _removeBuyOrder(order);\n        msg.sender.transfer(amount);\n\n        CancelledOrder(buyTokenId, msg.sender, 0, amount);\n    }\n\n    function cancelSellTokenOrder(uint sellTokenId) external {\n        Order storage order = sellTokenOrders[sellTokenId];\n        require(order.maker == msg.sender);\n\n        uint amount = order.amount;\n        order.amount = 0;\n        _removeSellOrder(order);\n\n        augmintToken.transferWithNarrative(msg.sender, amount, \"Sell token order cancelled\");\n\n        CancelledOrder(sellTokenId, msg.sender, amount, 0);\n    }\n\n    /* matches any two orders if the sell price >= buy price\n        trade price meets in the middle\n        reverts if any of the orders have been removed\n    */\n    function matchOrders(uint buyTokenId, uint sellTokenId) external {\n        _fillOrder(buyTokenId, sellTokenId);\n    }\n\n    /*  matches as many orders as possible from the passed orders\n        Runs as long as gas is available for the call.\n        Stops if any match is invalid (case when any of the orders removed after client generated the match list sent)\n    */\n    function matchMultipleOrders(uint[] buyTokenIds, uint[] sellTokenIds) external returns(uint matchCount) {\n        uint len = buyTokenIds.length;\n        require(len == sellTokenIds.length);\n        for (uint i = 0; i < len && msg.gas > ORDER_MATCH_WORST_GAS; i++) {\n            _fillOrder(buyTokenIds[i], sellTokenIds[i]);\n            matchCount++;\n        }\n    }\n\n    function getActiveOrderCounts() external view returns(uint buyTokenOrderCount, uint sellTokenOrderCount) {\n        return(activeBuyOrders.length, activeSellOrders.length);\n    }\n\n    // returns CHUNK_SIZE orders starting from offset\n    // orders are encoded as [id, maker, addedTime, price, amount]\n    function getActiveBuyOrders(uint offset) external view returns (uint[5][CHUNK_SIZE] response) {\n        for (uint8 i = 0; i < CHUNK_SIZE && i + offset < activeBuyOrders.length; i++) {\n            uint orderId = activeBuyOrders[offset + i];\n            Order storage order = buyTokenOrders[orderId];\n            response[i] = [orderId, uint(order.maker), order.addedTime, order.price, order.amount];\n        }\n    }\n\n    function getActiveSellOrders(uint offset) external view returns (uint[5][CHUNK_SIZE] response) {\n        for (uint8 i = 0; i < CHUNK_SIZE && i + offset < activeSellOrders.length; i++) {\n            uint orderId = activeSellOrders[offset + i];\n            Order storage order = sellTokenOrders[orderId];\n            response[i] = [orderId, uint(order.maker), order.addedTime, order.price, order.amount];\n        }\n    }\n\n    /* place sell token order called from AugmintToken's transferAndNotify\n     Flow:\n        1) user calls token contract's transferAndNotify price passed in data arg\n        2) transferAndNotify transfers tokens to the Exchange contract\n        3) transferAndNotify calls Exchange.transferNotification with lockProductId\n    */\n    function transferNotification(address maker, uint tokenAmount, uint price) public {\n        require(msg.sender == address(augmintToken));\n        _placeSellTokenOrder(maker, price, tokenAmount);\n    }\n\n    function _fillOrder(uint buyTokenId, uint sellTokenId) private {\n        Order storage buy = buyTokenOrders[buyTokenId];\n        Order storage sell = sellTokenOrders[sellTokenId];\n\n        require(buy.price >= sell.price);\n\n        // meet in the middle\n        uint price = buy.price.add(sell.price).div(2);\n\n        uint sellWei = sell.amount.mul(1 ether).div(price);\n\n        uint tradedWei;\n        uint tradedTokens;\n        if (sellWei <= buy.amount) {\n            tradedWei = sellWei;\n            tradedTokens = sell.amount;\n        } else {\n            tradedWei = buy.amount;\n            tradedTokens = buy.amount.mul(price).div(1 ether);\n        }\n\n        buy.amount = buy.amount.sub(tradedWei);\n        if (buy.amount == 0) {\n            _removeBuyOrder(buy);\n        }\n\n        sell.amount = sell.amount.sub(tradedTokens);\n        if (sell.amount == 0) {\n            _removeSellOrder(sell);\n        }\n\n        sell.maker.transfer(tradedWei);\n        augmintToken.transferWithNarrative(buy.maker, tradedTokens, \"Buy token order fill\");\n\n        OrderFill(buy.maker, sell.maker, buyTokenId,\n            sellTokenId, price, tradedWei, tradedTokens);\n    }\n\n\n    function _placeSellTokenOrder(address maker, uint price, uint tokenAmount)\n    private returns (uint orderId) {\n        require(price > 0);\n        require(tokenAmount > 0);\n\n        orderId = sellTokenOrders.push(Order(activeSellOrders.length, maker, now, price, tokenAmount)) - 1;\n        activeSellOrders.push(orderId);\n\n        NewOrder(orderId, maker, price, tokenAmount, 0);\n    }\n\n    function _removeBuyOrder(Order storage order) private {\n        _removeOrder(activeBuyOrders, order.index);\n    }\n\n    function _removeSellOrder(Order storage order) private {\n        _removeOrder(activeSellOrders, order.index);\n    }\n\n    function _removeOrder(uint[] storage orders, uint index) private {\n        if (index < orders.length - 1) {\n            orders[index] = orders[orders.length - 1];\n        }\n        orders.length--;\n    }\n\n}\n",
  "sourcePath": "/Users/petro/ether/augmint-web/augmint-contracts/contracts/Exchange.sol",
  "compiler": {
    "name": "solc",
    "version": "0.4.19+commit.c4cbbb05.Emscripten.clang"
  },
  "schemaVersion": "1.0.1",
  "updatedAt": "2018-02-14T01:20:16.476Z"
}