{
  "contractName": "Exchange",
  "abi": [
    {
      "constant": false,
      "inputs": [
        {
          "name": "agent",
          "type": "address"
        },
        {
          "name": "requiredPermissions",
          "type": "bytes32[]"
        }
      ],
      "name": "revokeMulitplePermissions",
      "outputs": [],
      "payable": false,
      "stateMutability": "nonpayable",
      "type": "function"
    },
    {
      "constant": true,
      "inputs": [],
      "name": "rates",
      "outputs": [
        {
          "name": "",
          "type": "address"
        }
      ],
      "payable": false,
      "stateMutability": "view",
      "type": "function"
    },
    {
      "constant": true,
      "inputs": [],
      "name": "minOrderAmount",
      "outputs": [
        {
          "name": "",
          "type": "uint256"
        }
      ],
      "payable": false,
      "stateMutability": "view",
      "type": "function"
    },
    {
      "constant": true,
      "inputs": [
        {
          "name": "",
          "type": "address"
        },
        {
          "name": "",
          "type": "bytes32"
        }
      ],
      "name": "permissions",
      "outputs": [
        {
          "name": "",
          "type": "bool"
        }
      ],
      "payable": false,
      "stateMutability": "view",
      "type": "function"
    },
    {
      "constant": true,
      "inputs": [],
      "name": "ORDER_MATCH_WORST_GAS",
      "outputs": [
        {
          "name": "",
          "type": "uint32"
        }
      ],
      "payable": false,
      "stateMutability": "view",
      "type": "function"
    },
    {
      "constant": false,
      "inputs": [
        {
          "name": "agent",
          "type": "address"
        },
        {
          "name": "requiredPermission",
          "type": "bytes32"
        }
      ],
      "name": "revokePermission",
      "outputs": [],
      "payable": false,
      "stateMutability": "nonpayable",
      "type": "function"
    },
    {
      "constant": true,
      "inputs": [
        {
          "name": "",
          "type": "uint256"
        }
      ],
      "name": "sellTokenOrders",
      "outputs": [
        {
          "name": "index",
          "type": "uint256"
        },
        {
          "name": "maker",
          "type": "address"
        },
        {
          "name": "addedTime",
          "type": "uint256"
        },
        {
          "name": "price",
          "type": "uint256"
        },
        {
          "name": "amount",
          "type": "uint256"
        }
      ],
      "payable": false,
      "stateMutability": "view",
      "type": "function"
    },
    {
      "constant": true,
      "inputs": [],
      "name": "augmintToken",
      "outputs": [
        {
          "name": "",
          "type": "address"
        }
      ],
      "payable": false,
      "stateMutability": "view",
      "type": "function"
    },
    {
      "constant": false,
      "inputs": [
        {
          "name": "agent",
          "type": "address"
        },
        {
          "name": "requiredPermissions",
          "type": "bytes32[]"
        }
      ],
      "name": "grantMultiplePermissions",
      "outputs": [],
      "payable": false,
      "stateMutability": "nonpayable",
      "type": "function"
    },
    {
      "constant": true,
      "inputs": [],
      "name": "CHUNK_SIZE",
      "outputs": [
        {
          "name": "",
          "type": "uint256"
        }
      ],
      "payable": false,
      "stateMutability": "view",
      "type": "function"
    },
    {
      "constant": true,
      "inputs": [
        {
          "name": "",
          "type": "uint256"
        }
      ],
      "name": "buyTokenOrders",
      "outputs": [
        {
          "name": "index",
          "type": "uint256"
        },
        {
          "name": "maker",
          "type": "address"
        },
        {
          "name": "addedTime",
          "type": "uint256"
        },
        {
          "name": "price",
          "type": "uint256"
        },
        {
          "name": "amount",
          "type": "uint256"
        }
      ],
      "payable": false,
      "stateMutability": "view",
      "type": "function"
    },
    {
      "constant": false,
      "inputs": [
        {
          "name": "agent",
          "type": "address"
        },
        {
          "name": "requiredPermission",
          "type": "bytes32"
        }
      ],
      "name": "grantPermission",
      "outputs": [],
      "payable": false,
      "stateMutability": "nonpayable",
      "type": "function"
    },
    {
      "inputs": [
        {
          "name": "augmintTokenAddress",
          "type": "address"
        },
        {
          "name": "ratesAddress",
          "type": "address"
        },
        {
          "name": "_minOrderAmount",
          "type": "uint256"
        }
      ],
      "payable": false,
      "stateMutability": "nonpayable",
      "type": "constructor"
    },
    {
      "anonymous": false,
      "inputs": [
        {
          "indexed": true,
          "name": "orderId",
          "type": "uint256"
        },
        {
          "indexed": true,
          "name": "maker",
          "type": "address"
        },
        {
          "indexed": false,
          "name": "price",
          "type": "uint256"
        },
        {
          "indexed": false,
          "name": "tokenAmount",
          "type": "uint256"
        },
        {
          "indexed": false,
          "name": "weiAmount",
          "type": "uint256"
        }
      ],
      "name": "NewOrder",
      "type": "event"
    },
    {
      "anonymous": false,
      "inputs": [
        {
          "indexed": true,
          "name": "tokenBuyer",
          "type": "address"
        },
        {
          "indexed": true,
          "name": "tokenSeller",
          "type": "address"
        },
        {
          "indexed": false,
          "name": "buyTokenOrderId",
          "type": "uint256"
        },
        {
          "indexed": false,
          "name": "sellTokenOrderId",
          "type": "uint256"
        },
        {
          "indexed": false,
          "name": "price",
          "type": "uint256"
        },
        {
          "indexed": false,
          "name": "weiAmount",
          "type": "uint256"
        },
        {
          "indexed": false,
          "name": "tokenAmount",
          "type": "uint256"
        }
      ],
      "name": "OrderFill",
      "type": "event"
    },
    {
      "anonymous": false,
      "inputs": [
        {
          "indexed": true,
          "name": "orderId",
          "type": "uint256"
        },
        {
          "indexed": true,
          "name": "maker",
          "type": "address"
        },
        {
          "indexed": false,
          "name": "tokenAmount",
          "type": "uint256"
        },
        {
          "indexed": false,
          "name": "weiAmount",
          "type": "uint256"
        }
      ],
      "name": "CancelledOrder",
      "type": "event"
    },
    {
      "anonymous": false,
      "inputs": [
        {
          "indexed": false,
          "name": "newMinOrderAmount",
          "type": "uint256"
        }
      ],
      "name": "MinOrderAmountChanged",
      "type": "event"
    },
    {
      "anonymous": false,
      "inputs": [
        {
          "indexed": true,
          "name": "agent",
          "type": "address"
        },
        {
          "indexed": false,
          "name": "grantedPermission",
          "type": "bytes32"
        }
      ],
      "name": "PermissionGranted",
      "type": "event"
    },
    {
      "anonymous": false,
      "inputs": [
        {
          "indexed": true,
          "name": "agent",
          "type": "address"
        },
        {
          "indexed": false,
          "name": "revokedPermission",
          "type": "bytes32"
        }
      ],
      "name": "PermissionRevoked",
      "type": "event"
    },
    {
      "constant": false,
      "inputs": [
        {
          "name": "price",
          "type": "uint256"
        }
      ],
      "name": "placeBuyTokenOrder",
      "outputs": [
        {
          "name": "orderId",
          "type": "uint256"
        }
      ],
      "payable": true,
      "stateMutability": "payable",
      "type": "function"
    },
    {
      "constant": false,
      "inputs": [
        {
          "name": "price",
          "type": "uint256"
        },
        {
          "name": "tokenAmount",
          "type": "uint256"
        }
      ],
      "name": "placeSellTokenOrder",
      "outputs": [
        {
          "name": "orderId",
          "type": "uint256"
        }
      ],
      "payable": false,
      "stateMutability": "nonpayable",
      "type": "function"
    },
    {
      "constant": false,
      "inputs": [
        {
          "name": "maker",
          "type": "address"
        },
        {
          "name": "price",
          "type": "uint256"
        },
        {
          "name": "tokenAmount",
          "type": "uint256"
        }
      ],
      "name": "placeSellTokenOrderTrusted",
      "outputs": [
        {
          "name": "orderId",
          "type": "uint256"
        }
      ],
      "payable": false,
      "stateMutability": "nonpayable",
      "type": "function"
    },
    {
      "constant": false,
      "inputs": [
        {
          "name": "buyTokenId",
          "type": "uint256"
        }
      ],
      "name": "cancelBuyTokenOrder",
      "outputs": [],
      "payable": false,
      "stateMutability": "nonpayable",
      "type": "function"
    },
    {
      "constant": false,
      "inputs": [
        {
          "name": "sellTokenId",
          "type": "uint256"
        }
      ],
      "name": "cancelSellTokenOrder",
      "outputs": [],
      "payable": false,
      "stateMutability": "nonpayable",
      "type": "function"
    },
    {
      "constant": false,
      "inputs": [
        {
          "name": "buyTokenId",
          "type": "uint256"
        },
        {
          "name": "sellTokenId",
          "type": "uint256"
        }
      ],
      "name": "matchOrders",
      "outputs": [],
      "payable": false,
      "stateMutability": "nonpayable",
      "type": "function"
    },
    {
      "constant": false,
      "inputs": [
        {
          "name": "buyTokenIds",
          "type": "uint256[]"
        },
        {
          "name": "sellTokenIds",
          "type": "uint256[]"
        }
      ],
      "name": "matchMultipleOrders",
      "outputs": [
        {
          "name": "matchCount",
          "type": "uint256"
        }
      ],
      "payable": false,
      "stateMutability": "nonpayable",
      "type": "function"
    },
    {
      "constant": false,
      "inputs": [
        {
          "name": "_minOrderAmount",
          "type": "uint256"
        }
      ],
      "name": "setMinOrderAmount",
      "outputs": [],
      "payable": false,
      "stateMutability": "nonpayable",
      "type": "function"
    },
    {
      "constant": true,
      "inputs": [],
      "name": "getActiveOrderCounts",
      "outputs": [
        {
          "name": "buyTokenOrderCount",
          "type": "uint256"
        },
        {
          "name": "sellTokenOrderCount",
          "type": "uint256"
        }
      ],
      "payable": false,
      "stateMutability": "view",
      "type": "function"
    },
    {
      "constant": true,
      "inputs": [
        {
          "name": "offset",
          "type": "uint256"
        }
      ],
      "name": "getActiveBuyOrders",
      "outputs": [
        {
          "name": "response",
          "type": "uint256[5][100]"
        }
      ],
      "payable": false,
      "stateMutability": "view",
      "type": "function"
    },
    {
      "constant": true,
      "inputs": [
        {
          "name": "offset",
          "type": "uint256"
        }
      ],
      "name": "getActiveSellOrders",
      "outputs": [
        {
          "name": "response",
          "type": "uint256[5][100]"
        }
      ],
      "payable": false,
      "stateMutability": "view",
      "type": "function"
    }
  ],
  "bytecode": "0x6060604052341561000f57600080fd5b6040516060806127788339810160405280805190602001909190805190602001909190805190602001909190505060016000803373ffffffffffffffffffffffffffffffffffffffff1673ffffffffffffffffffffffffffffffffffffffff16815260200190815260200160002060007f4d6f6e6574617279426f6172640000000000000000000000000000000000000060001916815260200190815260200160002060006101000a81548160ff0219169083151502179055503373ffffffffffffffffffffffffffffffffffffffff167fc65937e3dbcb9fb30f646815dd67a3dbd09ba17718cbcb54efbe3635f8e0a6fe60405180807f4d6f6e6574617279426f61726400000000000000000000000000000000000000815250602001905060405180910390a282600160006101000a81548173ffffffffffffffffffffffffffffffffffffffff021916908373ffffffffffffffffffffffffffffffffffffffff16021790555081600260006101000a81548173ffffffffffffffffffffffffffffffffffffffff021916908373ffffffffffffffffffffffffffffffffffffffff160217905550806007819055505050506125a6806101d26000396000f300606060405260043610610133576000357c0100000000000000000000000000000000000000000000000000000000900463ffffffff1680630da32eaa146101385780631756353d146101b15780632001b324146101dd5780633cadc37d1461021d57806343f48fbd1461027357806346b62c4a146102c85780635b225526146102f15780635d66210e1461034f5780635fe07013146103845780636c0f41d8146103ca5780636e593210146103f65780636ecd87e1146104785780637a5e129d1461049b5780637b9b9c891461051a5780637e6503bb1461056f5780639ac3317b1461059f578063a3b8ef0414610618578063b040f7411461063b578063c93e8b151461065e578063e91e13a9146106e0578063f14eb3a114610709578063f38a826214610788578063f7e8953b146107ce575b600080fd5b341561014357600080fd5b6101af600480803573ffffffffffffffffffffffffffffffffffffffff169060200190919080359060200190820180359060200190808060200260200160405190810160405280939291908181526020018383602002808284378201915050505050509190505061082d565b005b34156101bc57600080fd5b6101db6004808035906020019091908035906020019091905050610875565b005b34156101e857600080fd5b6102076004808035906020019091908035906020019091905050610883565b6040518082815260200191505060405180910390f35b341561022857600080fd5b61025d6004808035906020019082018035906020019190919290803590602001908201803590602001919091929050506109dd565b6040518082815260200191505060405180910390f35b341561027e57600080fd5b610286610a6b565b604051808273ffffffffffffffffffffffffffffffffffffffff1673ffffffffffffffffffffffffffffffffffffffff16815260200191505060405180910390f35b34156102d357600080fd5b6102db610a91565b6040518082815260200191505060405180910390f35b34156102fc57600080fd5b610335600480803573ffffffffffffffffffffffffffffffffffffffff1690602001909190803560001916906020019091905050610a97565b604051808215151515815260200191505060405180910390f35b341561035a57600080fd5b610362610ac6565b604051808263ffffffff1663ffffffff16815260200191505060405180910390f35b341561038f57600080fd5b6103c8600480803573ffffffffffffffffffffffffffffffffffffffff1690602001909190803560001916906020019091905050610acd565b005b6103e06004808035906020019091905050610b97565b6040518082815260200191505060405180910390f35b341561040157600080fd5b6104176004808035906020019091905050610ece565b604051808260646000925b818410156104685782846020020151600560200280838360005b8381101561045757808201518184015260208101905061043c565b505050509050019260010192610422565b9250505091505060405180910390f35b341561048357600080fd5b6104996004808035906020019091905050610fdd565b005b34156104a657600080fd5b6104bc6004808035906020019091905050611114565b604051808681526020018573ffffffffffffffffffffffffffffffffffffffff1673ffffffffffffffffffffffffffffffffffffffff1681526020018481526020018381526020018281526020019550505050505060405180910390f35b341561052557600080fd5b61052d611179565b604051808273ffffffffffffffffffffffffffffffffffffffff1673ffffffffffffffffffffffffffffffffffffffff16815260200191505060405180910390f35b341561057a57600080fd5b61058261119f565b604051808381526020018281526020019250505060405180910390f35b34156105aa57600080fd5b610616600480803573ffffffffffffffffffffffffffffffffffffffff16906020019091908035906020019082018035906020019080806020026020016040519081016040528093929190818152602001838360200280828437820191505050505050919050506111b6565b005b341561062357600080fd5b610639600480803590602001909190505061128a565b005b341561064657600080fd5b61065c600480803590602001909190505061135f565b005b341561066957600080fd5b61067f6004808035906020019091905050611567565b604051808260646000925b818410156106d05782846020020151600560200280838360005b838110156106bf5780820151818401526020810190506106a4565b50505050905001926001019261068a565b9250505091505060405180910390f35b34156106eb57600080fd5b6106f3611676565b6040518082815260200191505060405180910390f35b341561071457600080fd5b61072a600480803590602001909190505061167b565b604051808681526020018573ffffffffffffffffffffffffffffffffffffffff1673ffffffffffffffffffffffffffffffffffffffff1681526020018481526020018381526020018281526020019550505050505060405180910390f35b341561079357600080fd5b6107cc600480803573ffffffffffffffffffffffffffffffffffffffff16906020019091908035600019169060200190919050506116e0565b005b34156107d957600080fd5b610817600480803573ffffffffffffffffffffffffffffffffffffffff16906020019091908035906020019091908035906020019091905050611836565b6040518082815260200191505060405180910390f35b60008082519150600090505b8181101561086f5761086284848381518110151561085357fe5b90602001906020020151610acd565b8080600101915050610839565b50505050565b61087f82826118a8565b5050565b6000600160009054906101000a900473ffffffffffffffffffffffffffffffffffffffff1673ffffffffffffffffffffffffffffffffffffffff166304282d253330856040518463ffffffff167c0100000000000000000000000000000000000000000000000000000000028152600401808473ffffffffffffffffffffffffffffffffffffffff1673ffffffffffffffffffffffffffffffffffffffff1681526020018373ffffffffffffffffffffffffffffffffffffffff1673ffffffffffffffffffffffffffffffffffffffff16815260200182815260200180602001828103825260178152602001807f53656c6c20746f6b656e206f7264657220706c61636564000000000000000000815250602001945050505050600060405180830381600087803b15156109b657600080fd5b6102c65a03f115156109c757600080fd5b5050506109d5338484611f82565b905092915050565b600080600086869050915084849050821415156109f957600080fd5b600090505b8181108015610a15575062030d4063ffffffff165a115b15610a6157610a4c8787838181101515610a2b57fe5b905060200201358686848181101515610a4057fe5b905060200201356118a8565b828060010193505080806001019150506109fe565b5050949350505050565b600260009054906101000a900473ffffffffffffffffffffffffffffffffffffffff1681565b60075481565b60006020528160005260406000206020528060005260406000206000915091509054906101000a900460ff1681565b62030d4081565b60008060008473ffffffffffffffffffffffffffffffffffffffff1673ffffffffffffffffffffffffffffffffffffffff1681526020019081526020016000206000836000191660001916815260200190815260200160002060006101000a81548160ff0219169083151502179055508173ffffffffffffffffffffffffffffffffffffffff167f789770131846de4d1f28418f0f957cdf4fcabe5eccf70067083e20ecece69a348260405180826000191660001916815260200191505060405180910390a25050565b600080600083111515610ba957600080fd5b600034111515610bb857600080fd5b600260009054906101000a900473ffffffffffffffffffffffffffffffffffffffff1673ffffffffffffffffffffffffffffffffffffffff166382f5e31b600160009054906101000a900473ffffffffffffffffffffffffffffffffffffffff1673ffffffffffffffffffffffffffffffffffffffff166333a263e66000604051602001526040518163ffffffff167c0100000000000000000000000000000000000000000000000000000000028152600401602060405180830381600087803b1515610c8457600080fd5b6102c65a03f11515610c9557600080fd5b50505060405180519050610cc6612710610cb8883461229e90919063ffffffff16565b6122e290919063ffffffff16565b6000604051602001526040518363ffffffff167c010000000000000000000000000000000000000000000000000000000002815260040180836000191660001916815260200182815260200192505050602060405180830381600087803b1515610d2f57600080fd5b6102c65a03f11515610d4057600080fd5b5050506040518051905090506007548110151515610d5d57600080fd5b600160038054806001018281610d73919061243a565b9160005260206000209060050201600060a06040519081016040528060058054905081526020013373ffffffffffffffffffffffffffffffffffffffff1681526020014281526020018881526020013481525090919091506000820151816000015560208201518160010160006101000a81548173ffffffffffffffffffffffffffffffffffffffff021916908373ffffffffffffffffffffffffffffffffffffffff160217905550604082015181600201556060820151816003015560808201518160040155505003915060058054806001018281610e53919061246c565b9160005260206000209001600084909190915055503373ffffffffffffffffffffffffffffffffffffffff16827f5fb69864eabf6f6af276c839a96d25daee1489f5f897dec6d6cb483fd820e2e38560003460405180848152602001838152602001828152602001935050505060405180910390a350919050565b610ed6612498565b60008060008092505b60648360ff16108015610efb5750600680549050858460ff1601105b15610fd55760068360ff168601815481101515610f1457fe5b9060005260206000209001549150600482815481101515610f3157fe5b9060005260206000209060050201905060a0604051908101604052808381526020018260010160009054906101000a900473ffffffffffffffffffffffffffffffffffffffff1673ffffffffffffffffffffffffffffffffffffffff16815260200182600201548152602001826003015481526020018260040154815250848460ff16606481101515610fc057fe5b60200201819052508280600101935050610edf565b505050919050565b600080600383815481101515610fef57fe5b906000526020600020906005020191503373ffffffffffffffffffffffffffffffffffffffff168260010160009054906101000a900473ffffffffffffffffffffffffffffffffffffffff1673ffffffffffffffffffffffffffffffffffffffff1614151561105d57600080fd5b816004015490506000826004018190555061107782612318565b3373ffffffffffffffffffffffffffffffffffffffff166108fc829081150290604051600060405180830381858888f1935050505015156110b757600080fd5b3373ffffffffffffffffffffffffffffffffffffffff16837f61a4c3ec95de122096d654ab66ccf22fc8dc74fab994e098df193c7b7d79ebe9600084604051808381526020018281526020019250505060405180910390a3505050565b60048181548110151561112357fe5b90600052602060002090600502016000915090508060000154908060010160009054906101000a900473ffffffffffffffffffffffffffffffffffffffff16908060020154908060030154908060040154905085565b600160009054906101000a900473ffffffffffffffffffffffffffffffffffffffff1681565b600080600580549050600680549050915091509091565b6000806000803373ffffffffffffffffffffffffffffffffffffffff1673ffffffffffffffffffffffffffffffffffffffff16815260200190815260200160002060007f4d6f6e6574617279426f6172640000000000000000000000000000000000000060001916815260200190815260200160002060009054906101000a900460ff16151561124557600080fd5b82519150600090505b818110156112845761127784848381518110151561126857fe5b906020019060200201516116e0565b808060010191505061124e565b50505050565b7f4d6f6e6574617279426f617264000000000000000000000000000000000000006000803373ffffffffffffffffffffffffffffffffffffffff1673ffffffffffffffffffffffffffffffffffffffff1681526020019081526020016000206000826000191660001916815260200190815260200160002060009054906101000a900460ff16151561131b57600080fd5b816007819055507fd47f797ef16d066fe9af8c5e52ca02dcd115792897ba09baaddbc728fe48bfd26007546040518082815260200191505060405180910390a15050565b60008060048381548110151561137157fe5b906000526020600020906005020191503373ffffffffffffffffffffffffffffffffffffffff168260010160009054906101000a900473ffffffffffffffffffffffffffffffffffffffff1673ffffffffffffffffffffffffffffffffffffffff161415156113df57600080fd5b81600401549050600082600401819055506113f98261232a565b600160009054906101000a900473ffffffffffffffffffffffffffffffffffffffff1673ffffffffffffffffffffffffffffffffffffffff1663ab1f032733836040518363ffffffff167c0100000000000000000000000000000000000000000000000000000000028152600401808373ffffffffffffffffffffffffffffffffffffffff1673ffffffffffffffffffffffffffffffffffffffff168152602001828152602001806020018281038252601a8152602001807f53656c6c20746f6b656e206f726465722063616e63656c6c65640000000000008152506020019350505050600060405180830381600087803b15156114f657600080fd5b6102c65a03f1151561150757600080fd5b5050503373ffffffffffffffffffffffffffffffffffffffff16837f61a4c3ec95de122096d654ab66ccf22fc8dc74fab994e098df193c7b7d79ebe9836000604051808381526020018281526020019250505060405180910390a3505050565b61156f612498565b60008060008092505b60648360ff161080156115945750600580549050858460ff1601105b1561166e5760058360ff1686018154811015156115ad57fe5b90600052602060002090015491506003828154811015156115ca57fe5b9060005260206000209060050201905060a0604051908101604052808381526020018260010160009054906101000a900473ffffffffffffffffffffffffffffffffffffffff1673ffffffffffffffffffffffffffffffffffffffff16815260200182600201548152602001826003015481526020018260040154815250848460ff1660648110151561165957fe5b60200201819052508280600101935050611578565b505050919050565b606481565b60038181548110151561168a57fe5b90600052602060002090600502016000915090508060000154908060010160009054906101000a900473ffffffffffffffffffffffffffffffffffffffff16908060020154908060030154908060040154905085565b6000803373ffffffffffffffffffffffffffffffffffffffff1673ffffffffffffffffffffffffffffffffffffffff16815260200190815260200160002060007f4d6f6e6574617279426f6172640000000000000000000000000000000000000060001916815260200190815260200160002060009054906101000a900460ff16151561176c57600080fd5b60016000808473ffffffffffffffffffffffffffffffffffffffff1673ffffffffffffffffffffffffffffffffffffffff1681526020019081526020016000206000836000191660001916815260200190815260200160002060006101000a81548160ff0219169083151502179055508173ffffffffffffffffffffffffffffffffffffffff167fc65937e3dbcb9fb30f646815dd67a3dbd09ba17718cbcb54efbe3635f8e0a6fe8260405180826000191660001916815260200191505060405180910390a25050565b6000600160009054906101000a900473ffffffffffffffffffffffffffffffffffffffff1673ffffffffffffffffffffffffffffffffffffffff163373ffffffffffffffffffffffffffffffffffffffff1614151561189457600080fd5b61189f848484611f82565b90509392505050565b6000806000806000806003888154811015156118c057fe5b906000526020600020906005020195506004878154811015156118df57fe5b906000526020600020906005020194506004878154811015156118fe57fe5b90600052602060002090600502016003015460038981548110151561191f57fe5b9060005260206000209060050201600301541015151561193e57600080fd5b6119508660030154866003015461233c565b9350611ae8612710600260009054906101000a900473ffffffffffffffffffffffffffffffffffffffff1673ffffffffffffffffffffffffffffffffffffffff16635c481d8b600160009054906101000a900473ffffffffffffffffffffffffffffffffffffffff1673ffffffffffffffffffffffffffffffffffffffff166333a263e66000604051602001526040518163ffffffff167c0100000000000000000000000000000000000000000000000000000000028152600401602060405180830381600087803b1515611a2457600080fd5b6102c65a03f11515611a3557600080fd5b50505060405180519050611a56898b600401546122e290919063ffffffff16565b6000604051602001526040518363ffffffff167c010000000000000000000000000000000000000000000000000000000002815260040180836000191660001916815260200182815260200192505050602060405180830381600087803b1515611abf57600080fd5b6102c65a03f11515611ad057600080fd5b5050506040518051905061229e90919063ffffffff16565b9250856004015483111515611b065782915084600401549050611ca6565b85600401549150600260009054906101000a900473ffffffffffffffffffffffffffffffffffffffff1673ffffffffffffffffffffffffffffffffffffffff166382f5e31b600160009054906101000a900473ffffffffffffffffffffffffffffffffffffffff1673ffffffffffffffffffffffffffffffffffffffff166333a263e66000604051602001526040518163ffffffff167c0100000000000000000000000000000000000000000000000000000000028152600401602060405180830381600087803b1515611bd957600080fd5b6102c65a03f11515611bea57600080fd5b50505060405180519050611c1f612710611c11898c6004015461229e90919063ffffffff16565b6122e290919063ffffffff16565b6000604051602001526040518363ffffffff167c010000000000000000000000000000000000000000000000000000000002815260040180836000191660001916815260200182815260200192505050602060405180830381600087803b1515611c8857600080fd5b6102c65a03f11515611c9957600080fd5b5050506040518051905090505b611cbd8287600401546123b790919063ffffffff16565b8660040181905550600086600401541415611cdc57611cdb86612318565b5b611cf38186600401546123b790919063ffffffff16565b8560040181905550600085600401541415611d1257611d118561232a565b5b8460010160009054906101000a900473ffffffffffffffffffffffffffffffffffffffff1673ffffffffffffffffffffffffffffffffffffffff166108fc839081150290604051600060405180830381858888f193505050501515611d7657600080fd5b600160009054906101000a900473ffffffffffffffffffffffffffffffffffffffff1673ffffffffffffffffffffffffffffffffffffffff1663ab1f03278760010160009054906101000a900473ffffffffffffffffffffffffffffffffffffffff16836040518363ffffffff167c0100000000000000000000000000000000000000000000000000000000028152600401808373ffffffffffffffffffffffffffffffffffffffff1673ffffffffffffffffffffffffffffffffffffffff16815260200182815260200180602001828103825260148152602001807f42757920746f6b656e206f726465722066696c6c0000000000000000000000008152506020019350505050600060405180830381600087803b1515611e9757600080fd5b6102c65a03f11515611ea857600080fd5b5050508460010160009054906101000a900473ffffffffffffffffffffffffffffffffffffffff1673ffffffffffffffffffffffffffffffffffffffff168660010160009054906101000a900473ffffffffffffffffffffffffffffffffffffffff1673ffffffffffffffffffffffffffffffffffffffff167ff800bd56a5db2764620505d2880a4bff9e4406107f48f8913c07b3626b7720d48a8a888787604051808681526020018581526020018481526020018381526020018281526020019550505050505060405180910390a35050505050505050565b60008083111515611f9257600080fd5b600082111515611fa157600080fd5b6007548210151515611fb257600080fd5b6000600260009054906101000a900473ffffffffffffffffffffffffffffffffffffffff1673ffffffffffffffffffffffffffffffffffffffff16635c481d8b600160009054906101000a900473ffffffffffffffffffffffffffffffffffffffff1673ffffffffffffffffffffffffffffffffffffffff166333a263e66000604051602001526040518163ffffffff167c0100000000000000000000000000000000000000000000000000000000028152600401602060405180830381600087803b151561208057600080fd5b6102c65a03f1151561209157600080fd5b50505060405180519050856000604051602001526040518363ffffffff167c010000000000000000000000000000000000000000000000000000000002815260040180836000191660001916815260200182815260200192505050602060405180830381600087803b151561210557600080fd5b6102c65a03f1151561211657600080fd5b5050506040518051905011151561212c57600080fd5b600160048054806001018281612142919061243a565b9160005260206000209060050201600060a06040519081016040528060068054905081526020018973ffffffffffffffffffffffffffffffffffffffff1681526020014281526020018881526020018781525090919091506000820151816000015560208201518160010160006101000a81548173ffffffffffffffffffffffffffffffffffffffff021916908373ffffffffffffffffffffffffffffffffffffffff160217905550604082015181600201556060820151816003015560808201518160040155505003905060068054806001018281612222919061246c565b9160005260206000209001600083909190915055508373ffffffffffffffffffffffffffffffffffffffff16817f5fb69864eabf6f6af276c839a96d25daee1489f5f897dec6d6cb483fd820e2e38585600060405180848152602001838152602001828152602001935050505060405180910390a39392505050565b60008082848115156122ac57fe5b0490506002838115156122bb57fe5b0483858115156122c757fe5b061015156122d85780806001019150505b8091505092915050565b60008082840290506000841480612303575082848281151561230057fe5b04145b151561230e57600080fd5b8091505092915050565b612327600582600001546123d3565b50565b612339600682600001546123d3565b50565b6000806000612710841115801561235557506127108510155b156123645761271092506123ac565b612710841161237757836127100361237d565b61271084035b91506127108511612392578461271003612398565b61271085035b90508082116123a757836123a9565b845b92505b829250505092915050565b60008282111515156123c857600080fd5b818303905092915050565b6001828054905003811015612421578160018380549050038154811015156123f757fe5b906000526020600020900154828281548110151561241157fe5b9060005260206000209001819055505b81805480919060019003612435919061246c565b505050565b8154818355818115116124675760050281600502836000526020600020918201910161246691906124c7565b5b505050565b81548183558181151161249357818360005260206000209182019101612492919061252d565b5b505050565b613e80604051908101604052806064905b6124b1612552565b8152602001906001900390816124a95790505090565b61252a91905b80821115612526576000808201600090556001820160006101000a81549073ffffffffffffffffffffffffffffffffffffffff0219169055600282016000905560038201600090556004820160009055506005016124cd565b5090565b90565b61254f91905b8082111561254b576000816000905550600101612533565b5090565b90565b60a0604051908101604052806005905b600081526020019060019003908161256257905050905600a165627a7a72305820417b970a5c6b05162ae6ffe15507e8e42a146d71d87423d496ea697ed386e26c0029",
  "source": "/* Augmint's internal Exchange\n    TODO: deduct fee\n    TODO: consider take funcs (frequent rate changes with takeBuyToken? send more and send back remainder?)\n*/\npragma solidity 0.4.19;\nimport \"./interfaces/ExchangeInterface.sol\";\n\n\ncontract Exchange is ExchangeInterface {\n\n    uint public constant CHUNK_SIZE = 100;\n\n    uint[] private activeBuyOrders;\n    uint[] private activeSellOrders;\n\n    uint public minOrderAmount; // 0: no limit. For placeBuyTokenOrder it's calculated on current rate & price provided\n\n    /* used to stop executing matchMultiple when running out of gas.\n        actual is much less, just leaving enough matchMultipleOrders() to finish TODO: fine tune & test it*/\n    uint32 public constant ORDER_MATCH_WORST_GAS = 200000;\n\n    event NewOrder(uint indexed orderId, address indexed maker, uint price, uint tokenAmount,\n        uint weiAmount);\n\n    event OrderFill(address indexed tokenBuyer, address indexed tokenSeller, uint buyTokenOrderId,\n        uint sellTokenOrderId, uint price, uint weiAmount, uint tokenAmount);\n\n    event CancelledOrder(uint indexed orderId, address indexed maker, uint tokenAmount, uint weiAmount);\n\n    event MinOrderAmountChanged(uint newMinOrderAmount);\n\n    function Exchange(address augmintTokenAddress, address ratesAddress, uint _minOrderAmount) public {\n        augmintToken = AugmintTokenInterface(augmintTokenAddress);\n        rates = Rates(ratesAddress);\n        minOrderAmount = _minOrderAmount;\n    }\n\n    function placeBuyTokenOrder(uint price) external payable returns (uint orderId) {\n        require(price > 0);\n        require(msg.value > 0);\n\n        uint tokenAmount = rates.convertFromWei(augmintToken.peggedSymbol(), msg.value.roundedDiv(price).mul(10000));\n        require(tokenAmount >= minOrderAmount);\n\n        orderId = buyTokenOrders.push(Order(activeBuyOrders.length, msg.sender, now, price, msg.value)) - 1;\n        activeBuyOrders.push(orderId);\n\n        NewOrder(orderId, msg.sender, price, 0, msg.value);\n    }\n\n    /* this function requires previous approval to transfer tokens */\n    function placeSellTokenOrder(uint price, uint tokenAmount) external returns (uint orderId) {\n        augmintToken.transferFromNoFee(msg.sender, this, tokenAmount, \"Sell token order placed\");\n        return _placeSellTokenOrder(msg.sender, price, tokenAmount);\n    }\n\n    /* This func assuming that token already transferred to Exchange so it can be only called\n        via AugmintToken.placeSellTokenOrderOnExchange() convenience function */\n    function placeSellTokenOrderTrusted(address maker, uint price, uint tokenAmount)\n    external returns (uint orderId) {\n        require(msg.sender == address(augmintToken));\n        return _placeSellTokenOrder(maker, price, tokenAmount);\n    }\n\n    function cancelBuyTokenOrder(uint buyTokenId) external {\n        Order storage order = buyTokenOrders[buyTokenId];\n        require(order.maker == msg.sender);\n\n        uint amount = order.amount;\n        order.amount = 0;\n        _removeBuyOrder(order);\n        msg.sender.transfer(amount);\n\n        CancelledOrder(buyTokenId, msg.sender, 0, amount);\n    }\n\n    function cancelSellTokenOrder(uint sellTokenId) external {\n        Order storage order = sellTokenOrders[sellTokenId];\n        require(order.maker == msg.sender);\n\n        uint amount = order.amount;\n        order.amount = 0;\n        _removeSellOrder(order);\n\n        augmintToken.transferNoFee(msg.sender, amount, \"Sell token order cancelled\");\n\n        CancelledOrder(sellTokenId, msg.sender, amount, 0);\n    }\n\n    /* matches any two orders if the sell price >= buy price\n        trade price is the price which is closer to par.\n        reverts if any of the orders been removed\n    */\n    function matchOrders(uint buyTokenId, uint sellTokenId) external {\n        _fillOrder(buyTokenId, sellTokenId);\n    }\n\n    /*  matches as many orders as possible from the passed orders\n        Runs as long as gas is available for the call.\n        Stops if any match is invalid (case when any of the orders removed after client generated the match list sent)\n    */\n    function matchMultipleOrders(uint[] buyTokenIds, uint[] sellTokenIds) external returns(uint matchCount) {\n        uint len = buyTokenIds.length;\n        require(len == sellTokenIds.length);\n        for (uint i = 0; i < len && msg.gas > ORDER_MATCH_WORST_GAS; i++) {\n            _fillOrder(buyTokenIds[i], sellTokenIds[i]);\n            matchCount++;\n        }\n    }\n\n    /* only allowed for Monetary Board. */\n    function setMinOrderAmount(uint _minOrderAmount) external restrict(\"MonetaryBoard\") {\n        minOrderAmount = _minOrderAmount;\n        MinOrderAmountChanged(minOrderAmount);\n    }\n\n    function getActiveOrderCounts() external view returns(uint buyTokenOrderCount, uint sellTokenOrderCount) {\n        return(activeBuyOrders.length, activeSellOrders.length);\n    }\n\n    // returns CHUNK_SIZE orders starting from offset\n    // orders are encoded as [id, maker, addedTime, price, amount]\n    function getActiveBuyOrders(uint offset) external view returns (uint[5][CHUNK_SIZE] response) {\n        for (uint8 i = 0; i < CHUNK_SIZE && i + offset < activeBuyOrders.length; i++) {\n            uint orderId = activeBuyOrders[offset + i];\n            Order storage order = buyTokenOrders[orderId];\n            response[i] = [orderId, uint(order.maker), order.addedTime, order.price, order.amount];\n        }\n    }\n\n    function getActiveSellOrders(uint offset) external view returns (uint[5][CHUNK_SIZE] response) {\n        for (uint8 i = 0; i < CHUNK_SIZE && i + offset < activeSellOrders.length; i++) {\n            uint orderId = activeSellOrders[offset + i];\n            Order storage order = sellTokenOrders[orderId];\n            response[i] = [orderId, uint(order.maker), order.addedTime, order.price, order.amount];\n        }\n    }\n\n    function _fillOrder(uint buyTokenId, uint sellTokenId) private {\n        Order storage buyTokenOrder = buyTokenOrders[buyTokenId];\n        Order storage sellTokenOrder = sellTokenOrders[sellTokenId];\n\n        require(buyTokenOrders[buyTokenId].price >= sellTokenOrders[sellTokenId].price);\n\n        uint price = getMatchPrice(buyTokenOrder.price, sellTokenOrder.price); // use price which is closer to par\n        uint sellTokenWeiAmount = rates.convertToWei(augmintToken.peggedSymbol(),\n                                    sellTokenOrder.amount.mul(price)).roundedDiv(10000);\n        uint tradedWeiAmount;\n        uint tradedTokenAmount;\n\n        if (sellTokenWeiAmount <= buyTokenOrder.amount) {\n            tradedWeiAmount = sellTokenWeiAmount;\n            tradedTokenAmount = sellTokenOrder.amount;\n        } else {\n            tradedWeiAmount = buyTokenOrder.amount;\n            tradedTokenAmount = rates.convertFromWei(augmintToken.peggedSymbol(),\n                                                        buyTokenOrder.amount.roundedDiv(price).mul(10000));\n        }\n\n        buyTokenOrder.amount = buyTokenOrder.amount.sub(tradedWeiAmount);\n        if (buyTokenOrder.amount == 0) {\n            _removeBuyOrder(buyTokenOrder);\n        }\n\n        sellTokenOrder.amount = sellTokenOrder.amount.sub(tradedTokenAmount);\n        if (sellTokenOrder.amount == 0) {\n            _removeSellOrder(sellTokenOrder);\n        }\n\n        sellTokenOrder.maker.transfer(tradedWeiAmount);\n        augmintToken.transferNoFee(buyTokenOrder.maker, tradedTokenAmount, \"Buy token order fill\");\n\n        OrderFill(buyTokenOrder.maker, sellTokenOrder.maker, buyTokenId,\n            sellTokenId, price, tradedWeiAmount, tradedTokenAmount);\n    }\n\n    // return par if it's between par otherwise the price which is closer to par\n    function getMatchPrice(uint buyPrice, uint sellPrice) private pure returns(uint price) {\n        if (sellPrice <= 10000 && buyPrice >= 10000) {\n            price = 10000;\n        } else {\n            uint sellPriceDeviationFromPar = sellPrice > 10000 ? sellPrice - 10000 : 10000 - sellPrice;\n            uint buyPriceDeviationFromPar = buyPrice > 10000 ? buyPrice - 10000 : 10000 - buyPrice;\n            price = sellPriceDeviationFromPar > buyPriceDeviationFromPar ? buyPrice : sellPrice;\n        }\n        return price;\n    }\n\n    function _placeSellTokenOrder(address maker, uint price, uint tokenAmount)\n    private returns (uint orderId) {\n        require(price > 0);\n        require(tokenAmount > 0);\n        require(tokenAmount >= minOrderAmount);\n        require(rates.convertToWei(augmintToken.peggedSymbol(), tokenAmount) > 0);\n\n        orderId = sellTokenOrders.push(Order(activeSellOrders.length, maker, now, price, tokenAmount)) - 1;\n        activeSellOrders.push(orderId);\n\n        NewOrder(orderId, maker, price, tokenAmount, 0);\n    }\n\n    function _removeBuyOrder(Order storage order) private {\n        _removeOrder(activeBuyOrders, order.index);\n    }\n\n    function _removeSellOrder(Order storage order) private {\n        _removeOrder(activeSellOrders, order.index);\n    }\n\n    function _removeOrder(uint[] storage orders, uint index) private {\n        if (index < orders.length - 1) {\n            orders[index] = orders[orders.length - 1];\n        }\n        orders.length--;\n    }\n\n}\n",
  "sourcePath": "/Users/petro/ether/augmint-contracts/contracts/Exchange.sol",
  "compiler": {
    "name": "solc",
    "version": "0.4.19+commit.c4cbbb05.Emscripten.clang"
  },
  "schemaVersion": "1.0.1",
  "updatedAt": "2018-02-09T19:14:11.253Z"
}