{
  "contractName": "Exchange",
  "abi": [
    {
      "constant": true,
      "inputs": [
        {
          "name": "",
          "type": "address"
        },
        {
          "name": "",
          "type": "uint256"
        }
      ],
      "name": "m_orders",
      "outputs": [
        {
          "name": "",
          "type": "uint80"
        }
      ],
      "payable": false,
      "type": "function",
      "stateMutability": "view"
    },
    {
      "constant": false,
      "inputs": [
        {
          "name": "_new",
          "type": "address"
        }
      ],
      "name": "setOwner",
      "outputs": [],
      "payable": false,
      "type": "function",
      "stateMutability": "nonpayable"
    },
    {
      "constant": true,
      "inputs": [],
      "name": "tokenUcd",
      "outputs": [
        {
          "name": "",
          "type": "address"
        }
      ],
      "payable": false,
      "type": "function",
      "stateMutability": "view"
    },
    {
      "constant": false,
      "inputs": [
        {
          "name": "orderId",
          "type": "uint80"
        }
      ],
      "name": "cancelOrder",
      "outputs": [],
      "payable": false,
      "type": "function",
      "stateMutability": "nonpayable"
    },
    {
      "constant": true,
      "inputs": [],
      "name": "rates",
      "outputs": [
        {
          "name": "",
          "type": "address"
        }
      ],
      "payable": false,
      "type": "function",
      "stateMutability": "view"
    },
    {
      "constant": false,
      "inputs": [
        {
          "name": "ucdAmount",
          "type": "uint256"
        }
      ],
      "name": "placeSellUcdOrder",
      "outputs": [],
      "payable": false,
      "type": "function",
      "stateMutability": "nonpayable"
    },
    {
      "constant": true,
      "inputs": [
        {
          "name": "orderId",
          "type": "uint80"
        }
      ],
      "name": "getOrder",
      "outputs": [
        {
          "name": "maker",
          "type": "address"
        },
        {
          "name": "makerOrderIdx",
          "type": "uint80"
        },
        {
          "name": "orderType",
          "type": "uint8"
        },
        {
          "name": "amount",
          "type": "uint256"
        }
      ],
      "payable": false,
      "type": "function",
      "stateMutability": "view"
    },
    {
      "constant": true,
      "inputs": [],
      "name": "orders",
      "outputs": [
        {
          "name": "first",
          "type": "uint80"
        },
        {
          "name": "last",
          "type": "uint80"
        },
        {
          "name": "count",
          "type": "uint80"
        }
      ],
      "payable": false,
      "type": "function",
      "stateMutability": "view"
    },
    {
      "constant": true,
      "inputs": [],
      "name": "totalEthSellOrders",
      "outputs": [
        {
          "name": "",
          "type": "uint256"
        }
      ],
      "payable": false,
      "type": "function",
      "stateMutability": "view"
    },
    {
      "constant": true,
      "inputs": [
        {
          "name": "maker",
          "type": "address"
        },
        {
          "name": "_makerOrderIdx",
          "type": "uint80"
        }
      ],
      "name": "getMakerOrder",
      "outputs": [
        {
          "name": "orderId",
          "type": "uint80"
        },
        {
          "name": "makerOrderIdx",
          "type": "uint80"
        },
        {
          "name": "orderType",
          "type": "uint8"
        },
        {
          "name": "amount",
          "type": "uint256"
        }
      ],
      "payable": false,
      "type": "function",
      "stateMutability": "view"
    },
    {
      "constant": true,
      "inputs": [
        {
          "name": "maker",
          "type": "address"
        }
      ],
      "name": "getMakerOrderCount",
      "outputs": [
        {
          "name": "orderCount",
          "type": "uint256"
        }
      ],
      "payable": false,
      "type": "function",
      "stateMutability": "view"
    },
    {
      "constant": true,
      "inputs": [],
      "name": "getOrderCount",
      "outputs": [
        {
          "name": "orderCount",
          "type": "uint80"
        }
      ],
      "payable": false,
      "type": "function",
      "stateMutability": "view"
    },
    {
      "constant": true,
      "inputs": [],
      "name": "owner",
      "outputs": [
        {
          "name": "",
          "type": "address"
        }
      ],
      "payable": false,
      "type": "function",
      "stateMutability": "view"
    },
    {
      "constant": false,
      "inputs": [],
      "name": "placeSellEthOrder",
      "outputs": [],
      "payable": true,
      "type": "function",
      "stateMutability": "payable"
    },
    {
      "constant": true,
      "inputs": [
        {
          "name": "orderId",
          "type": "uint80"
        }
      ],
      "name": "iterateOpenOrders",
      "outputs": [
        {
          "name": "_orderId",
          "type": "uint80"
        },
        {
          "name": "maker",
          "type": "address"
        },
        {
          "name": "makerOrderIdx",
          "type": "uint80"
        },
        {
          "name": "orderType",
          "type": "uint8"
        },
        {
          "name": "amount",
          "type": "uint256"
        },
        {
          "name": "nextOrderId",
          "type": "uint80"
        }
      ],
      "payable": false,
      "type": "function",
      "stateMutability": "view"
    },
    {
      "constant": true,
      "inputs": [],
      "name": "totalUcdSellOrders",
      "outputs": [
        {
          "name": "",
          "type": "uint256"
        }
      ],
      "payable": false,
      "type": "function",
      "stateMutability": "view"
    },
    {
      "inputs": [
        {
          "name": "_tokenUcdAddress",
          "type": "address"
        },
        {
          "name": "_ratesAddress",
          "type": "address"
        }
      ],
      "payable": false,
      "type": "constructor",
      "stateMutability": "nonpayable"
    },
    {
      "anonymous": false,
      "inputs": [
        {
          "indexed": false,
          "name": "orderId",
          "type": "uint80"
        },
        {
          "indexed": false,
          "name": "orderType",
          "type": "uint8"
        },
        {
          "indexed": false,
          "name": "maker",
          "type": "address"
        },
        {
          "indexed": false,
          "name": "amount",
          "type": "uint256"
        }
      ],
      "name": "e_newOrder",
      "type": "event"
    },
    {
      "anonymous": false,
      "inputs": [
        {
          "indexed": false,
          "name": "orderId",
          "type": "uint80"
        },
        {
          "indexed": false,
          "name": "taker",
          "type": "address"
        },
        {
          "indexed": false,
          "name": "amountSold",
          "type": "uint256"
        },
        {
          "indexed": false,
          "name": "amountPaid",
          "type": "uint256"
        }
      ],
      "name": "e_orderFill",
      "type": "event"
    },
    {
      "anonymous": false,
      "inputs": [
        {
          "indexed": true,
          "name": "old",
          "type": "address"
        },
        {
          "indexed": true,
          "name": "current",
          "type": "address"
        }
      ],
      "name": "NewOwner",
      "type": "event"
    }
  ],
  "bytecode": "0x6060604052341561000f57600080fd5b6040516040806130e783398101604052808051906020019091908051906020019091905050336000806101000a81548173ffffffffffffffffffffffffffffffffffffffff021916908373ffffffffffffffffffffffffffffffffffffffff16021790555080600160006101000a81548173ffffffffffffffffffffffffffffffffffffffff021916908373ffffffffffffffffffffffffffffffffffffffff16021790555081600260006101000a81548173ffffffffffffffffffffffffffffffffffffffff021916908373ffffffffffffffffffffffffffffffffffffffff1602179055505050612fe0806101076000396000f3006060604052600436106100e6576000357c0100000000000000000000000000000000000000000000000000000000900463ffffffff1680630f3e8af2146100eb57806313af40351461015957806335b6f81b146101925780633b19b19f146101e757806343f48fbd146102165780634c5291ed1461026b5780634d88a6391461028e5780634fb764c91461033857806368a958af146103b757806374ee4d4d146103e05780637539a425146104955780638d0a5fbb146104e25780638da5cb5b14610523578063a9facb4214610578578063beeb401814610582578063ec0ee35c1461066a575b600080fd5b34156100f657600080fd5b61012b600480803573ffffffffffffffffffffffffffffffffffffffff16906020019091908035906020019091905050610693565b604051808269ffffffffffffffffffff1669ffffffffffffffffffff16815260200191505060405180910390f35b341561016457600080fd5b610190600480803573ffffffffffffffffffffffffffffffffffffffff169060200190919050506106e1565b005b341561019d57600080fd5b6101a56107f5565b604051808273ffffffffffffffffffffffffffffffffffffffff1673ffffffffffffffffffffffffffffffffffffffff16815260200191505060405180910390f35b34156101f257600080fd5b610214600480803569ffffffffffffffffffff1690602001909190505061081b565b005b341561022157600080fd5b610229610821565b604051808273ffffffffffffffffffffffffffffffffffffffff1673ffffffffffffffffffffffffffffffffffffffff16815260200191505060405180910390f35b341561027657600080fd5b61028c6004808035906020019091905050610847565b005b341561029957600080fd5b6102bb600480803569ffffffffffffffffffff16906020019091905050610ed8565b604051808573ffffffffffffffffffffffffffffffffffffffff1673ffffffffffffffffffffffffffffffffffffffff1681526020018469ffffffffffffffffffff1669ffffffffffffffffffff16815260200183600181111561031b57fe5b60ff16815260200182815260200194505050505060405180910390f35b341561034357600080fd5b61034b611008565b604051808469ffffffffffffffffffff1669ffffffffffffffffffff1681526020018369ffffffffffffffffffff1669ffffffffffffffffffff1681526020018269ffffffffffffffffffff1669ffffffffffffffffffff168152602001935050505060405180910390f35b34156103c257600080fd5b6103ca611062565b6040518082815260200191505060405180910390f35b34156103eb57600080fd5b61042c600480803573ffffffffffffffffffffffffffffffffffffffff1690602001909190803569ffffffffffffffffffff16906020019091905050611068565b604051808569ffffffffffffffffffff1669ffffffffffffffffffff1681526020018469ffffffffffffffffffff1669ffffffffffffffffffff16815260200183600181111561047857fe5b60ff16815260200182815260200194505050505060405180910390f35b34156104a057600080fd5b6104cc600480803573ffffffffffffffffffffffffffffffffffffffff169060200190919050506111cb565b6040518082815260200191505060405180910390f35b34156104ed57600080fd5b6104f5611217565b604051808269ffffffffffffffffffff1669ffffffffffffffffffff16815260200191505060405180910390f35b341561052e57600080fd5b61053661123a565b604051808273ffffffffffffffffffffffffffffffffffffffff1673ffffffffffffffffffffffffffffffffffffffff16815260200191505060405180910390f35b61058061125f565b005b341561058d57600080fd5b6105af600480803569ffffffffffffffffffff169060200190919050506118cb565b604051808769ffffffffffffffffffff1669ffffffffffffffffffff1681526020018673ffffffffffffffffffffffffffffffffffffffff1673ffffffffffffffffffffffffffffffffffffffff1681526020018569ffffffffffffffffffff1669ffffffffffffffffffff16815260200184600181111561062d57fe5b60ff1681526020018381526020018269ffffffffffffffffffff1669ffffffffffffffffffff168152602001965050505050505060405180910390f35b341561067557600080fd5b61067d611ad9565b6040518082815260200191505060405180910390f35b6007602052816000526040600020818154811015156106ae57fe5b9060005260206000209060039182820401919006600a02915091509054906101000a900469ffffffffffffffffffff1681565b6000809054906101000a900473ffffffffffffffffffffffffffffffffffffffff1673ffffffffffffffffffffffffffffffffffffffff163373ffffffffffffffffffffffffffffffffffffffff1614156107f2578073ffffffffffffffffffffffffffffffffffffffff166000809054906101000a900473ffffffffffffffffffffffffffffffffffffffff1673ffffffffffffffffffffffffffffffffffffffff167f70aea8d848e8a90fb7661b227dc522eb6395c3dac71b63cb59edd5c9899b236460405160405180910390a3806000806101000a81548173ffffffffffffffffffffffffffffffffffffffff021916908373ffffffffffffffffffffffffffffffffffffffff1602179055505b50565b600260009054906101000a900473ffffffffffffffffffffffffffffffffffffffff1681565b80905050565b600160009054906101000a900473ffffffffffffffffffffffffffffffffffffffff1681565b60008060008060008060008060008911151561086257600080fd5b600260009054906101000a900473ffffffffffffffffffffffffffffffffffffffff1673ffffffffffffffffffffffffffffffffffffffff1663d1a48c3633308c6000604051602001526040518463ffffffff167c0100000000000000000000000000000000000000000000000000000000028152600401808473ffffffffffffffffffffffffffffffffffffffff1673ffffffffffffffffffffffffffffffffffffffff1681526020018373ffffffffffffffffffffffffffffffffffffffff1673ffffffffffffffffffffffffffffffffffffffff16815260200182815260200180602001828103825260158152602001807f5543442073656c6c206f7264657220706c616365640000000000000000000000815250602001945050505050602060405180830381600087803b151561099c57600080fd5b6102c65a03f115156109ad57600080fd5b5050506040518051905015156109c257600080fd5b600160009054906101000a900473ffffffffffffffffffffffffffffffffffffffff1673ffffffffffffffffffffffffffffffffffffffff166375e1d3ac8a6000604051602001526040518263ffffffff167c010000000000000000000000000000000000000000000000000000000002815260040180828152602001915050602060405180830381600087803b1515610a5b57600080fd5b6102c65a03f11515610a6c57600080fd5b505050604051805190509750879650889550600573__OrdersLib_____________________________639854d12990916000604051602001526040518263ffffffff167c01000000000000000000000000000000000000000000000000000000000281526004018082815260200191505060206040518083038186803b1515610af457600080fd5b6102c65a03f41515610b0557600080fd5b5050506040518051905090505b600573__OrdersLib_____________________________63e25fb1eb9091836000604051602001526040518363ffffffff167c0100000000000000000000000000000000000000000000000000000000028152600401808381526020018269ffffffffffffffffffff1669ffffffffffffffffffff1681526020019250505060206040518083038186803b1515610ba857600080fd5b6102c65a03f41515610bb957600080fd5b505050604051805190508015610bcf5750600087115b8015610bde5750600060045414155b15610e6457809150600573__OrdersLib_____________________________63754646f89091846000604051602001526040518363ffffffff167c0100000000000000000000000000000000000000000000000000000000028152600401808381526020018269ffffffffffffffffffff1669ffffffffffffffffffff1681526020019250505060206040518083038186803b1515610c7c57600080fd5b6102c65a03f41515610c8d57600080fd5b50505060405180519050905060056001016001830369ffffffffffffffffffff16815481101515610cba57fe5b906000526020600020906003020160010160000160009054906101000a900473ffffffffffffffffffffffffffffffffffffffff1692508660056001016001840369ffffffffffffffffffff16815481101515610d1357fe5b906000526020600020906003020160010160010154101515610d3a57869450859350610e29565b60056001016001830369ffffffffffffffffffff16815481101515610d5b57fe5b9060005260206000209060030201600101600101549450600160009054906101000a900473ffffffffffffffffffffffffffffffffffffffff1673ffffffffffffffffffffffffffffffffffffffff166319605cd9866000604051602001526040518263ffffffff167c010000000000000000000000000000000000000000000000000000000002815260040180828152602001915050602060405180830381600087803b1515610e0b57600080fd5b6102c65a03f11515610e1c57600080fd5b5050506040518051905093505b610e3c8588611adf90919063ffffffff16565b9650610e518487611adf90919063ffffffff16565b9550610e5f82338787611af8565b610b12565b3373ffffffffffffffffffffffffffffffffffffffff166108fc610e91898b611adf90919063ffffffff16565b9081150290604051600060405180830381858888f193505050501515610eb657600080fd5b600086141515610ecd57610ecc60013388611f1f565b5b505050505050505050565b60008060008060056001016001860369ffffffffffffffffffff16815481101515610eff57fe5b906000526020600020906003020160010160000160009054906101000a900473ffffffffffffffffffffffffffffffffffffffff1660056001016001870369ffffffffffffffffffff16815481101515610f5557fe5b906000526020600020906003020160010160000160149054906101000a900469ffffffffffffffffffff1660056001016001880369ffffffffffffffffffff16815481101515610fa157fe5b9060005260206000209060030201600101600001601e9054906101000a900460ff1660056001016001890369ffffffffffffffffffff16815481101515610fe457fe5b90600052602060002090600302016001016001015493509350935093509193509193565b60058060000160009054906101000a900469ffffffffffffffffffff169080600001600a9054906101000a900469ffffffffffffffffffff16908060000160149054906101000a900469ffffffffffffffffffff16905083565b60045481565b600080600080600760008773ffffffffffffffffffffffffffffffffffffffff1673ffffffffffffffffffffffffffffffffffffffff1681526020019081526020016000208569ffffffffffffffffffff168154811015156110c657fe5b9060005260206000209060039182820401919006600a029054906101000a900469ffffffffffffffffffff1693508360056001016001860369ffffffffffffffffffff1681548110151561111657fe5b906000526020600020906003020160010160000160149054906101000a900469ffffffffffffffffffff1660056001016001870369ffffffffffffffffffff1681548110151561116257fe5b9060005260206000209060030201600101600001601e9054906101000a900460ff1660056001016001880369ffffffffffffffffffff168154811015156111a557fe5b906000526020600020906003020160010160010154935093509350935092959194509250565b6000600760008373ffffffffffffffffffffffffffffffffffffffff1673ffffffffffffffffffffffffffffffffffffffff168152602001908152602001600020805490509050919050565b6000600560000160149054906101000a900469ffffffffffffffffffff16905090565b6000809054906101000a900473ffffffffffffffffffffffffffffffffffffffff1681565b60008060008060008060008060003411151561127a57600080fd5b349750600160009054906101000a900473ffffffffffffffffffffffffffffffffffffffff1673ffffffffffffffffffffffffffffffffffffffff166319605cd9896000604051602001526040518263ffffffff167c010000000000000000000000000000000000000000000000000000000002815260040180828152602001915050602060405180830381600087803b151561131657600080fd5b6102c65a03f1151561132757600080fd5b505050604051805190509650869550600573__OrdersLib_____________________________639854d12990916000604051602001526040518263ffffffff167c01000000000000000000000000000000000000000000000000000000000281526004018082815260200191505060206040518083038186803b15156113ac57600080fd5b6102c65a03f415156113bd57600080fd5b5050506040518051905090505b600573__OrdersLib_____________________________63e25fb1eb9091836000604051602001526040518363ffffffff167c0100000000000000000000000000000000000000000000000000000000028152600401808381526020018269ffffffffffffffffffff1669ffffffffffffffffffff1681526020019250505060206040518083038186803b151561146057600080fd5b6102c65a03f4151561147157600080fd5b5050506040518051905080156114875750600088115b80156114965750600060035414155b1561171c57809150600573__OrdersLib_____________________________63754646f89091846000604051602001526040518363ffffffff167c0100000000000000000000000000000000000000000000000000000000028152600401808381526020018269ffffffffffffffffffff1669ffffffffffffffffffff1681526020019250505060206040518083038186803b151561153457600080fd5b6102c65a03f4151561154557600080fd5b50505060405180519050905060056001016001830369ffffffffffffffffffff1681548110151561157257fe5b906000526020600020906003020160010160000160009054906101000a900473ffffffffffffffffffffffffffffffffffffffff1692508560056001016001840369ffffffffffffffffffff168154811015156115cb57fe5b9060005260206000209060030201600101600101541015156115f2578593508794506116e1565b60056001016001830369ffffffffffffffffffff1681548110151561161357fe5b9060005260206000209060030201600101600101549350600160009054906101000a900473ffffffffffffffffffffffffffffffffffffffff1673ffffffffffffffffffffffffffffffffffffffff166375e1d3ac856000604051602001526040518263ffffffff167c010000000000000000000000000000000000000000000000000000000002815260040180828152602001915050602060405180830381600087803b15156116c357600080fd5b6102c65a03f115156116d457600080fd5b5050506040518051905094505b6116f48487611adf90919063ffffffff16565b95506117098589611adf90919063ffffffff16565b975061171782338688611af8565b6113ca565b60006117318789611adf90919063ffffffff16565b11156118aa57600260009054906101000a900473ffffffffffffffffffffffffffffffffffffffff1673ffffffffffffffffffffffffffffffffffffffff1663d1a48c36303361178a8a8c611adf90919063ffffffff16565b6000604051602001526040518463ffffffff167c0100000000000000000000000000000000000000000000000000000000028152600401808473ffffffffffffffffffffffffffffffffffffffff1673ffffffffffffffffffffffffffffffffffffffff1681526020018373ffffffffffffffffffffffffffffffffffffffff1673ffffffffffffffffffffffffffffffffffffffff16815260200182815260200180602001828103825260088152602001807f55434420736f6c64000000000000000000000000000000000000000000000000815250602001945050505050602060405180830381600087803b151561188357600080fd5b6102c65a03f1151561189457600080fd5b5050506040518051905015156118a957600080fd5b5b6000881415156118c1576118c06000338a611f1f565b5b5050505050505050565b6000806000806000806000600560000160009054906101000a900469ffffffffffffffffffff1669ffffffffffffffffffff16141561192a57600080600080600080859550839350819150809050955095509550955095509550611ad0565b60008769ffffffffffffffffffff16141561195e57600560000160009054906101000a900469ffffffffffffffffffff1696505b8660056001016001890369ffffffffffffffffffff1681548110151561198057fe5b906000526020600020906003020160010160000160009054906101000a900473ffffffffffffffffffffffffffffffffffffffff16600560010160018a0369ffffffffffffffffffff168154811015156119d657fe5b906000526020600020906003020160010160000160149054906101000a900469ffffffffffffffffffff16600560010160018b0369ffffffffffffffffffff16815481101515611a2257fe5b9060005260206000209060030201600101600001601e9054906101000a900460ff16600560010160018c0369ffffffffffffffffffff16815481101515611a6557fe5b906000526020600020906003020160010160010154600560010160018d0369ffffffffffffffffffff16815481101515611a9b57fe5b9060005260206000209060030201600001600a9054906101000a900469ffffffffffffffffffff169550955095509550955095505b91939550919395565b60035481565b6000828211151515611aed57fe5b818303905092915050565b60008060056001016001870369ffffffffffffffffffff16815481101515611b1c57fe5b9060005260206000209060030201600101600001601e9054906101000a900460ff16915060056001016001870369ffffffffffffffffffff16815481101515611b6157fe5b906000526020600020906003020160010160000160009054906101000a900473ffffffffffffffffffffffffffffffffffffffff16905060006001811115611ba557fe5b826001811115611bb157fe5b1415611d3757600260009054906101000a900473ffffffffffffffffffffffffffffffffffffffff1673ffffffffffffffffffffffffffffffffffffffff1663d1a48c363083866000604051602001526040518463ffffffff167c0100000000000000000000000000000000000000000000000000000000028152600401808473ffffffffffffffffffffffffffffffffffffffff1673ffffffffffffffffffffffffffffffffffffffff1681526020018373ffffffffffffffffffffffffffffffffffffffff1673ffffffffffffffffffffffffffffffffffffffff16815260200182815260200180602001828103825260088152602001807f45544820736f6c64000000000000000000000000000000000000000000000000815250602001945050505050602060405180830381600087803b1515611cf157600080fd5b6102c65a03f11515611d0257600080fd5b505050604051805190501515611d1757600080fd5b611d2c84600454611adf90919063ffffffff16565b600481905550611dbb565b600180811115611d4357fe5b826001811115611d4f57fe5b1415611db5578073ffffffffffffffffffffffffffffffffffffffff166108fc849081150290604051600060405180830381858888f193505050501515611d9557600080fd5b611daa84600354611adf90919063ffffffff16565b600381905550611dba565b600080fd5b5b611e038460056001016001890369ffffffffffffffffffff16815481101515611de057fe5b906000526020600020906003020160010160010154611adf90919063ffffffff16565b60056001016001880369ffffffffffffffffffff16815481101515611e2457fe5b906000526020600020906003020160010160010181905550600060056001016001880369ffffffffffffffffffff16815481101515611e5f57fe5b9060005260206000209060030201600101600101541415611e8457611e83866121ac565b5b7fb3fc4af679e46f08642f310e723080297e3141483e86707d76ebde10485fc6e686868686604051808569ffffffffffffffffffff1669ffffffffffffffffffff1681526020018473ffffffffffffffffffffffffffffffffffffffff1673ffffffffffffffffffffffffffffffffffffffff16815260200183815260200182815260200194505050505060405180910390a1505050505050565b60008060006001811115611f2f57fe5b856001811115611f3b57fe5b1415611f6157611f568360045461256590919063ffffffff16565b600481905550611fa5565b600180811115611f6d57fe5b856001811115611f7957fe5b1415611f9f57611f948360035461256590919063ffffffff16565b600381905550611fa4565b600080fd5b5b6120086080604051908101604052808673ffffffffffffffffffffffffffffffffffffffff168152602001600069ffffffffffffffffffff168152602001876001811115611fef57fe5b815260200185815250600561258390919063ffffffff16565b9150600760008573ffffffffffffffffffffffffffffffffffffffff1673ffffffffffffffffffffffffffffffffffffffff168152602001908152602001600020805480600101828161205b9190612e29565b9160005260206000209060039182820401919006600a0284909190916101000a81548169ffffffffffffffffffff021916908369ffffffffffffffffffff16021790555090506001810360056001016001840369ffffffffffffffffffff168154811015156120c657fe5b906000526020600020906003020160010160000160146101000a81548169ffffffffffffffffffff021916908369ffffffffffffffffffff1602179055507f6a6a3654772608c35489e2c1e81b1408c68274aafcbbd354e8eac75c28a4412582868686604051808569ffffffffffffffffffff1669ffffffffffffffffffff16815260200184600181111561215757fe5b60ff1681526020018373ffffffffffffffffffffffffffffffffffffffff1673ffffffffffffffffffffffffffffffffffffffff16815260200182815260200194505050505060405180910390a15050505050565b600080600060056001016001850369ffffffffffffffffffff168154811015156121d257fe5b906000526020600020906003020160010160000160149054906101000a900469ffffffffffffffffffff16925060056001016001850369ffffffffffffffffffff1681548110151561222057fe5b906000526020600020906003020160010160000160009054906101000a900473ffffffffffffffffffffffffffffffffffffffff16915061226b84600561295b90919063ffffffff16565b600760008373ffffffffffffffffffffffffffffffffffffffff1673ffffffffffffffffffffffffffffffffffffffff168152602001908152602001600020805490509050600181038369ffffffffffffffffffff16141561231f57600760008373ffffffffffffffffffffffffffffffffffffffff1673ffffffffffffffffffffffffffffffffffffffff1681526020019081526020016000208054809190600190036123199190612e63565b5061255f565b600760008373ffffffffffffffffffffffffffffffffffffffff1673ffffffffffffffffffffffffffffffffffffffff1681526020019081526020016000206001820381548110151561236e57fe5b9060005260206000209060039182820401919006600a029054906101000a900469ffffffffffffffffffff16600760008473ffffffffffffffffffffffffffffffffffffffff1673ffffffffffffffffffffffffffffffffffffffff1681526020019081526020016000208469ffffffffffffffffffff168154811015156123f257fe5b9060005260206000209060039182820401919006600a026101000a81548169ffffffffffffffffffff021916908369ffffffffffffffffffff1602179055508260056001016001600760008673ffffffffffffffffffffffffffffffffffffffff1673ffffffffffffffffffffffffffffffffffffffff1681526020019081526020016000206001850381548110151561248857fe5b9060005260206000209060039182820401919006600a029054906101000a900469ffffffffffffffffffff160369ffffffffffffffffffff168154811015156124cd57fe5b906000526020600020906003020160010160000160146101000a81548169ffffffffffffffffffff021916908369ffffffffffffffffffff160217905550600760008373ffffffffffffffffffffffffffffffffffffffff1673ffffffffffffffffffffffffffffffffffffffff16815260200190815260200160002080548091906001900361255d9190612e63565b505b50505050565b600080828401905083811015151561257957fe5b8091505092915050565b600082600101805480600101828161259b9190612e9d565b9160005260206000209060030201600060606040519081016040528087600001600a9054906101000a900469ffffffffffffffffffff1669ffffffffffffffffffff168152602001600069ffffffffffffffffffff16815260200186815250909190915060008201518160000160006101000a81548169ffffffffffffffffffff021916908369ffffffffffffffffffff160217905550602082015181600001600a6101000a81548169ffffffffffffffffffff021916908369ffffffffffffffffffff16021790555060408201518160010160008201518160000160006101000a81548173ffffffffffffffffffffffffffffffffffffffff021916908373ffffffffffffffffffffffffffffffffffffffff16021790555060208201518160000160146101000a81548169ffffffffffffffffffff021916908369ffffffffffffffffffff160217905550604082015181600001601e6101000a81548160ff0219169083600181111561270c57fe5b021790555060608201518160010155505050509050600069ffffffffffffffffffff1683600001600a9054906101000a900469ffffffffffffffffffff1669ffffffffffffffffffff16141561285d57600069ffffffffffffffffffff168360000160009054906101000a900469ffffffffffffffffffff1669ffffffffffffffffffff161480156127c4575060008360000160149054906101000a900469ffffffffffffffffffff1669ffffffffffffffffffff16145b15156127cc57fe5b8083600001600a6101000a81548169ffffffffffffffffffff021916908369ffffffffffffffffffff16021790558360000160006101000a81548169ffffffffffffffffffff021916908369ffffffffffffffffffff16021790555060018360000160146101000a81548169ffffffffffffffffffff021916908369ffffffffffffffffffff160217905550612952565b8083600101600185600001600a9054906101000a900469ffffffffffffffffffff160369ffffffffffffffffffff1681548110151561289857fe5b9060005260206000209060030201600001600a6101000a81548169ffffffffffffffffffff021916908369ffffffffffffffffffff1602179055508083600001600a6101000a81548169ffffffffffffffffffff021916908369ffffffffffffffffffff16021790555082600001601481819054906101000a900469ffffffffffffffffffff168092919060010191906101000a81548169ffffffffffffffffffff021916908369ffffffffffffffffffff160217905550505b80905092915050565b6000826001016001830369ffffffffffffffffffff1681548110151561297d57fe5b9060005260206000209060030201905060018360000160149054906101000a900469ffffffffffffffffffff1669ffffffffffffffffffff161415612ab15760008360000160146101000a81548169ffffffffffffffffffff021916908369ffffffffffffffffffff16021790555060008360000160006101000a81548169ffffffffffffffffffff021916908369ffffffffffffffffffff160217905550600083600001600a6101000a81548169ffffffffffffffffffff021916908369ffffffffffffffffffff16021790555060008160000160006101000a81548169ffffffffffffffffffff021916908369ffffffffffffffffffff160217905550600081600001600a6101000a81548169ffffffffffffffffffff021916908369ffffffffffffffffffff160217905550612e24565b600069ffffffffffffffffffff168160000160009054906101000a900469ffffffffffffffffffff1669ffffffffffffffffffff16148015612b255750600069ffffffffffffffffffff1681600001600a9054906101000a900469ffffffffffffffffffff1669ffffffffffffffffffff16145b15612b2f57612e24565b600069ffffffffffffffffffff168160000160009054906101000a900469ffffffffffffffffffff1669ffffffffffffffffffff161415612bb45780600001600a9054906101000a900469ffffffffffffffffffff168360000160006101000a81548169ffffffffffffffffffff021916908369ffffffffffffffffffff1602179055505b600069ffffffffffffffffffff1681600001600a9054906101000a900469ffffffffffffffffffff1669ffffffffffffffffffff161415612c39578060000160009054906101000a900469ffffffffffffffffffff1683600001600a6101000a81548169ffffffffffffffffffff021916908369ffffffffffffffffffff1602179055505b600069ffffffffffffffffffff168160000160009054906101000a900469ffffffffffffffffffff1669ffffffffffffffffffff16141515612d065780600001600a9054906101000a900469ffffffffffffffffffff168360010160018360000160009054906101000a900469ffffffffffffffffffff160369ffffffffffffffffffff16815481101515612cca57fe5b9060005260206000209060030201600001600a6101000a81548169ffffffffffffffffffff021916908369ffffffffffffffffffff1602179055505b600069ffffffffffffffffffff1681600001600a9054906101000a900469ffffffffffffffffffff1669ffffffffffffffffffff16141515612dd3578060000160009054906101000a900469ffffffffffffffffffff1683600101600183600001600a9054906101000a900469ffffffffffffffffffff160369ffffffffffffffffffff16815481101515612d9757fe5b906000526020600020906003020160000160006101000a81548169ffffffffffffffffffff021916908369ffffffffffffffffffff1602179055505b82600001601481819054906101000a900469ffffffffffffffffffff16809291906001900391906101000a81548169ffffffffffffffffffff021916908369ffffffffffffffffffff160217905550505b505050565b815481835581811511612e5e576002016003900481600201600390048360005260206000209182019101612e5d9190612ecf565b5b505050565b815481835581811511612e98576002016003900481600201600390048360005260206000209182019101612e979190612ecf565b5b505050565b815481835581811511612eca57600302816003028360005260206000209182019101612ec99190612ef4565b5b505050565b612ef191905b80821115612eed576000816000905550600101612ed5565b5090565b90565b612fb191905b80821115612fad57600080820160006101000a81549069ffffffffffffffffffff021916905560008201600a6101000a81549069ffffffffffffffffffff021916905560018201600080820160006101000a81549073ffffffffffffffffffffffffffffffffffffffff02191690556000820160146101000a81549069ffffffffffffffffffff021916905560008201601e6101000a81549060ff02191690556001820160009055505050600301612efa565b5090565b905600a165627a7a723058206f22b282ac11f04ec03ac732b8f8125e93786addef7fa1ca8d02122cd284e5830029",
  "source": "/*\nExchange UCD <-> ETH\nIt's mock only yet, basic implemantion of selling UCD for ETH or vica versa.\nAll orders are on a market ethUCD rate at the moment of fullmilment\nMarket rate is provided  by the rates contract\n\nTODO: add reentrancy protection\nTODO: add min exchanged amount param (set in UCD for both?)\n    + what if total leftover from fills  carried over to new order but it's small than minamount?\nTODO: astronomical gas costs when filling a lot of orders\n    + how to handle on client side (eg. estimate if it might be over the gas etc.)\nTODO: make orders generic, ie. more generic placeSellOrder func.\nTODO: test for rounding if could be any leftover after order fills\nTODO: add option to fill or kill (ie option to not place orders if can't fill from open orders)\nTODO: add option to pass a rate for fill or kill orders to avoid different rate if it changes while submitting - it would ensure trade happens on predictable rate\nTODO: add orderId to UCD transfer narrative\n*/\npragma solidity ^0.4.11;\nimport \"./SafeMath.sol\";\nimport \"./Owned.sol\";\nimport \"./OrdersLib.sol\";\nimport \"./TokenUcd.sol\";\nimport \"./Rates.sol\";\n\ncontract Exchange is owned {\n    using SafeMath for uint256;\n    using OrdersLib for OrdersLib.OrderList;\n    using OrdersLib for OrdersLib.OrderData;\n\n    Rates public rates;\n    TokenUcd public tokenUcd; // for UCD transfers\n\n    // These should be equal to ETH and UCD Balances of contract\n    /* TODO: consider to remove these when rounding tested */\n    uint256 public totalUcdSellOrders;\n    uint256 public totalEthSellOrders;\n\n    /*\n     orders stores all open orders. It's a linked array, ordered by the order was placed\n     Order removed  when fully filled and updated when partially filled\n     Note that it contains only one type of orders (EthSell or UtcSell) at any given time because all orders are on market rate\n     Ie. it's not a real order book\n    */\n    OrdersLib.OrderList public orders;\n\n    mapping(address => uint80[]) public m_orders; // orders for an account => orderId\n\n    function Exchange(address _tokenUcdAddress, address _ratesAddress) owned() {\n         rates = Rates(_ratesAddress);\n         tokenUcd = TokenUcd(_tokenUcdAddress);\n    }\n\n    function getMakerOrderCount(address maker) constant returns(uint orderCount) {\n        return m_orders[maker].length;\n    }\n\n    function getOrderCount() constant returns(uint80 orderCount) {\n        return orders.count;\n    }\n\n    function getMakerOrder(address maker, uint80 _makerOrderIdx) constant\n            returns(uint80 orderId, uint80 makerOrderIdx, OrdersLib.OrderType orderType, uint amount)  {\n        orderId = m_orders[maker][_makerOrderIdx];\n        return (\n                orderId,\n                orders.orders[ orderId -1].order.makerOrderIdx,\n                orders.orders[ orderId -1].order.orderType,\n                orders.orders[ orderId -1].order.amount);\n    }\n\n    function getOrder(uint80 orderId) constant\n            returns(address maker,  uint80 makerOrderIdx, OrdersLib.OrderType orderType, uint amount) {\n        return (orders.orders[ orderId -1 ].order.maker,\n                orders.orders[ orderId -1 ].order.makerOrderIdx,\n                orders.orders[ orderId -1 ].order.orderType,\n                orders.orders[ orderId -1 ].order.amount);\n    }\n\n    /* Helper function for client to reduce web3 calls when getting orderlist\n        Note: client should handle potential state changes in orders during iteration\n        Returns:\n            order data for orderId if order is open + next open orderId.\n            Passing 0 orderId will return first open order\n        Return values:\n         order.amount 0 returned then orderId is not open\n         nextOrderId 0 returned then no more open orders\n         For invalid orderId returns 0 order.amount and nextOrderId\n    */\n    function iterateOpenOrders(uint80 orderId) constant\n        returns (uint80 _orderId,\n                address maker,\n                uint80 makerOrderIdx,\n                OrdersLib.OrderType orderType,\n                uint amount,\n                uint80 nextOrderId) {\n        if( orders.first == 0) { // OrdersLib.None\n            // no open orders\n            return (0,address(0), 0,OrdersLib.OrderType.EthSell,0,0);\n        }\n        if(orderId == 0) {\n            //|| orders.orders[orderid-1].first == OrdersLib.None) {\n            orderId =  orders.first;\n        }\n\n        return (orderId,\n                orders.orders[ orderId -1 ].order.maker,\n                orders.orders[ orderId -1 ].order.makerOrderIdx,\n                orders.orders[ orderId -1 ].order.orderType,\n                orders.orders[ orderId -1 ].order.amount,\n                orders.orders[ orderId -1 ].next);\n    }\n\n\n    function placeSellEthOrder() payable {\n        require(msg.value > 0); // FIXME: min amount? Shall we use min UCD amount instead of ETH value?\n        uint weiToSellLeft = msg.value;\n        uint ucdValueTotal = rates.convertWeiToUsdc(weiToSellLeft);\n        uint ucdValueLeft = ucdValueTotal;\n        uint weiToPay;\n        uint ucdSold;\n        address maker;\n        // fill as much as we can from open buy eth orders\n        uint80 i;\n        uint80 nextOrderId = orders.iterateFirst();\n        while ( orders.iterateValid(nextOrderId) &&\n                weiToSellLeft > 0 && // FIXME: minAmount to rounding acc?\n                totalUcdSellOrders != 0 ) {\n            i = nextOrderId;\n            nextOrderId = orders.iterateNext(i);\n            maker = orders.orders[i-1].order.maker;\n            if (orders.orders[i-1].order.amount >= ucdValueLeft) {\n                // sell order fully covered from maker buy order\n                ucdSold = ucdValueLeft ;\n                weiToPay = weiToSellLeft;\n            } else {\n                // sell order partially covers buy order\n                ucdSold = orders.orders[i-1].order.amount ;\n                weiToPay = rates.convertUsdcToWei(ucdSold);\n            }\n            ucdValueLeft = ucdValueLeft.sub(ucdSold);\n            weiToSellLeft = weiToSellLeft.sub(weiToPay);\n\n            fillOrder(i, msg.sender, ucdSold, weiToPay); // this pays the maker but not the taker yet\n\n        }\n        if( ucdValueTotal.sub(ucdValueLeft) > 0 ) {\n            // transfer the sum UCD value of all WEI sold with orderFills\n            require(tokenUcd.systemTransfer(this, msg.sender, ucdValueTotal.sub(ucdValueLeft), \"UCD sold\"));\n        }\n        if (weiToSellLeft != 0) {\n            // No buy order or buy orders wasn't enough to fully fill order\n            // ETH amount already on contract balance\n            addOrder(OrdersLib.OrderType.EthSell, msg.sender,  weiToSellLeft);\n        }\n    }\n\n    function placeSellUcdOrder(uint ucdAmount) {\n        require(ucdAmount > 0); // FIXME: min amount?\n        require(tokenUcd.systemTransfer(msg.sender, this, ucdAmount, \"UCD sell order placed\" ) );\n        uint weiValueTotal = rates.convertUsdcToWei(ucdAmount);\n        uint weiValueLeft = weiValueTotal;\n        uint ucdToSellLeft = ucdAmount;\n        uint weiSold;\n        uint ucdToPay;\n        address maker;\n        // fill as much as we can from open buy ucd orders\n        uint80 i;\n        uint80 nextOrderId = orders.iterateFirst();\n        while ( orders.iterateValid(nextOrderId) &&\n                weiValueLeft > 0 && // FIXME: minAmount to rounding acc?\n                totalEthSellOrders != 0 ) {\n            i = nextOrderId;\n            nextOrderId = orders.iterateNext(i);\n            maker = orders.orders[i-1].order.maker;\n            if (orders.orders[i-1].order.amount >= weiValueLeft) {\n                // sell order fully covered from maker buy order\n                weiSold = weiValueLeft;\n                ucdToPay = ucdToSellLeft;\n           } else {\n                // sell order partially covers buy order\n                weiSold = orders.orders[i-1].order.amount;\n                ucdToPay = rates.convertWeiToUsdc(weiSold);\n            }\n            weiValueLeft = weiValueLeft.sub(weiSold);\n            ucdToSellLeft = ucdToSellLeft.sub(ucdToPay);\n            fillOrder(i, msg.sender, weiSold, ucdToPay); // this pays the maker but not the taker yet\n        }\n        // pay the sum WEI value of all UCD sold with orderFills to taker\n        msg.sender.transfer( weiValueTotal.sub(weiValueLeft));\n        if (ucdToSellLeft != 0) {\n            // No buy order or weren't enough buy orders to fully fill order\n            addOrder(OrdersLib.OrderType.UcdSell, msg.sender, ucdToSellLeft);\n        }\n    }\n\n    event e_newOrder(uint80 orderId, OrdersLib.OrderType orderType, address maker, uint amount);\n    function addOrder(OrdersLib.OrderType orderType, address maker, uint amount) internal {\n        // It's assumed that the ETH/UCD already taken from maker in calling function\n        if (orderType == OrdersLib.OrderType.EthSell) {\n            totalEthSellOrders = totalEthSellOrders.add(amount);\n        } else if(orderType == OrdersLib.OrderType.UcdSell ){\n            totalUcdSellOrders = totalUcdSellOrders.add(amount);\n        } else {\n            revert();\n        }\n\n        uint80 orderId = orders.append(OrdersLib.OrderData(maker, 0, orderType, amount));\n        uint80 makerOrderIdx = uint80( m_orders[maker].push(orderId));\n        orders.orders[orderId-1].order.makerOrderIdx = makerOrderIdx - 1;\n\n        e_newOrder(orderId, orderType, maker, amount );\n        return;\n    }\n\n    event e_orderFill(uint80 orderId, address taker, uint amountSold, uint amountPaid);\n    function fillOrder(uint80 orderId, address taker,\n            uint amountToSell, uint amountToPay) internal {\n        // we only pay the maker here. Calling function must pay the sum of all buys to taker\n        OrdersLib.OrderType orderType = orders.orders[orderId -1].order.orderType;\n        address maker = orders.orders[orderId-1].order.maker;\n        if (orderType == OrdersLib.OrderType.EthSell) {\n            require (tokenUcd.systemTransfer(this, maker, amountToPay, \"ETH sold\"));\n            totalEthSellOrders = totalEthSellOrders.sub(amountToSell);\n        } else if(orderType == OrdersLib.OrderType.UcdSell ){\n            maker.transfer(amountToPay);\n            totalUcdSellOrders = totalUcdSellOrders.sub(amountToSell);\n        } else {\n            revert();\n        }\n\n        orders.orders[orderId -1 ].order.amount = orders.orders[orderId -1 ].order.amount.sub(amountToSell);\n\n        if (orders.orders[orderId -1].order.amount == 0) {\n            removeOrder(orderId);\n        }\n\n        e_orderFill(orderId, taker, amountToSell, amountToPay);\n    }\n\n    function removeOrder(uint80 orderId) internal {\n        uint80 makerOrderIdx = orders.orders[orderId-1].order.makerOrderIdx;\n        address maker = orders.orders[orderId-1].order.maker;\n        orders.remove(orderId);\n        uint len = m_orders[maker].length;\n        if(makerOrderIdx == len -1 ) {\n            // last item\n            m_orders[maker].length--;\n        } else {\n            // not the last item, overwrite with last item and shrink array\n            m_orders[maker][makerOrderIdx] = m_orders[maker][len -1];\n            orders.orders[  m_orders[maker][len -1] - 1 ].order.makerOrderIdx = makerOrderIdx;\n            m_orders[maker].length--;\n        }\n    }\n\n    function cancelOrder(uint80 orderId) {\n        // FIXME: to implement\n        // transfer ETH or UCD back\n         orderId = orderId; // to supress compiler warnings\n         // FIXME: check orderId\n         // removeOrder( orderIdx)\n    }\n\n}\n",
  "sourcePath": "/Users/petro/ether/dcm-poc/contracts/Exchange.sol",
  "compiler": {
    "name": "solc",
    "version": "0.4.18+commit.9cf6e910.Emscripten.clang"
  },
  "schemaVersion": "1.0.1",
  "updatedAt": "2017-11-02T15:35:41.622Z"
}