{
  "contractName": "Exchange",
  "abi": [
    {
      "constant": true,
      "inputs": [
        {
          "name": "",
          "type": "uint256"
        }
      ],
      "name": "sellTokenOrders",
      "outputs": [
        {
          "name": "index",
          "type": "uint256"
        },
        {
          "name": "maker",
          "type": "address"
        },
        {
          "name": "addedTime",
          "type": "uint256"
        },
        {
          "name": "price",
          "type": "uint256"
        },
        {
          "name": "amount",
          "type": "uint256"
        }
      ],
      "payable": false,
      "stateMutability": "view",
      "type": "function"
    },
    {
      "constant": true,
      "inputs": [],
      "name": "augmintToken",
      "outputs": [
        {
          "name": "",
          "type": "address"
        }
      ],
      "payable": false,
      "stateMutability": "view",
      "type": "function"
    },
    {
      "constant": true,
      "inputs": [],
      "name": "CHUNK_SIZE",
      "outputs": [
        {
          "name": "",
          "type": "uint256"
        }
      ],
      "payable": false,
      "stateMutability": "view",
      "type": "function"
    },
    {
      "constant": true,
      "inputs": [
        {
          "name": "",
          "type": "uint256"
        }
      ],
      "name": "buyTokenOrders",
      "outputs": [
        {
          "name": "index",
          "type": "uint256"
        },
        {
          "name": "maker",
          "type": "address"
        },
        {
          "name": "addedTime",
          "type": "uint256"
        },
        {
          "name": "price",
          "type": "uint256"
        },
        {
          "name": "amount",
          "type": "uint256"
        }
      ],
      "payable": false,
      "stateMutability": "view",
      "type": "function"
    },
    {
      "inputs": [
        {
          "name": "_augmintToken",
          "type": "address"
        }
      ],
      "payable": false,
      "stateMutability": "nonpayable",
      "type": "constructor"
    },
    {
      "anonymous": false,
      "inputs": [
        {
          "indexed": true,
          "name": "orderId",
          "type": "uint256"
        },
        {
          "indexed": true,
          "name": "maker",
          "type": "address"
        },
        {
          "indexed": false,
          "name": "price",
          "type": "uint256"
        },
        {
          "indexed": false,
          "name": "tokenAmount",
          "type": "uint256"
        },
        {
          "indexed": false,
          "name": "weiAmount",
          "type": "uint256"
        }
      ],
      "name": "NewOrder",
      "type": "event"
    },
    {
      "anonymous": false,
      "inputs": [
        {
          "indexed": true,
          "name": "tokenBuyer",
          "type": "address"
        },
        {
          "indexed": true,
          "name": "tokenSeller",
          "type": "address"
        },
        {
          "indexed": false,
          "name": "buyTokenOrderId",
          "type": "uint256"
        },
        {
          "indexed": false,
          "name": "sellTokenOrderId",
          "type": "uint256"
        },
        {
          "indexed": false,
          "name": "price",
          "type": "uint256"
        },
        {
          "indexed": false,
          "name": "weiAmount",
          "type": "uint256"
        },
        {
          "indexed": false,
          "name": "tokenAmount",
          "type": "uint256"
        }
      ],
      "name": "OrderFill",
      "type": "event"
    },
    {
      "anonymous": false,
      "inputs": [
        {
          "indexed": true,
          "name": "orderId",
          "type": "uint256"
        },
        {
          "indexed": true,
          "name": "maker",
          "type": "address"
        },
        {
          "indexed": false,
          "name": "tokenAmount",
          "type": "uint256"
        },
        {
          "indexed": false,
          "name": "weiAmount",
          "type": "uint256"
        }
      ],
      "name": "CancelledOrder",
      "type": "event"
    },
    {
      "constant": false,
      "inputs": [
        {
          "name": "price",
          "type": "uint256"
        }
      ],
      "name": "placeBuyTokenOrder",
      "outputs": [
        {
          "name": "orderId",
          "type": "uint256"
        }
      ],
      "payable": true,
      "stateMutability": "payable",
      "type": "function"
    },
    {
      "constant": false,
      "inputs": [
        {
          "name": "price",
          "type": "uint256"
        },
        {
          "name": "tokenAmount",
          "type": "uint256"
        }
      ],
      "name": "placeSellTokenOrder",
      "outputs": [
        {
          "name": "orderId",
          "type": "uint256"
        }
      ],
      "payable": false,
      "stateMutability": "nonpayable",
      "type": "function"
    },
    {
      "constant": false,
      "inputs": [
        {
          "name": "buyTokenId",
          "type": "uint256"
        }
      ],
      "name": "cancelBuyTokenOrder",
      "outputs": [],
      "payable": false,
      "stateMutability": "nonpayable",
      "type": "function"
    },
    {
      "constant": false,
      "inputs": [
        {
          "name": "sellTokenId",
          "type": "uint256"
        }
      ],
      "name": "cancelSellTokenOrder",
      "outputs": [],
      "payable": false,
      "stateMutability": "nonpayable",
      "type": "function"
    },
    {
      "constant": false,
      "inputs": [
        {
          "name": "buyTokenId",
          "type": "uint256"
        },
        {
          "name": "sellTokenId",
          "type": "uint256"
        }
      ],
      "name": "matchOrders",
      "outputs": [],
      "payable": false,
      "stateMutability": "nonpayable",
      "type": "function"
    },
    {
      "constant": false,
      "inputs": [
        {
          "name": "buyTokenIds",
          "type": "uint256[]"
        },
        {
          "name": "sellTokenIds",
          "type": "uint256[]"
        }
      ],
      "name": "matchMultipleOrders",
      "outputs": [
        {
          "name": "matchCount",
          "type": "uint256"
        }
      ],
      "payable": false,
      "stateMutability": "nonpayable",
      "type": "function"
    },
    {
      "constant": true,
      "inputs": [],
      "name": "getActiveOrderCounts",
      "outputs": [
        {
          "name": "buyTokenOrderCount",
          "type": "uint256"
        },
        {
          "name": "sellTokenOrderCount",
          "type": "uint256"
        }
      ],
      "payable": false,
      "stateMutability": "view",
      "type": "function"
    },
    {
      "constant": true,
      "inputs": [
        {
          "name": "offset",
          "type": "uint256"
        }
      ],
      "name": "getActiveBuyOrders",
      "outputs": [
        {
          "name": "response",
          "type": "uint256[5][100]"
        }
      ],
      "payable": false,
      "stateMutability": "view",
      "type": "function"
    },
    {
      "constant": true,
      "inputs": [
        {
          "name": "offset",
          "type": "uint256"
        }
      ],
      "name": "getActiveSellOrders",
      "outputs": [
        {
          "name": "response",
          "type": "uint256[5][100]"
        }
      ],
      "payable": false,
      "stateMutability": "view",
      "type": "function"
    },
    {
      "constant": false,
      "inputs": [
        {
          "name": "maker",
          "type": "address"
        },
        {
          "name": "tokenAmount",
          "type": "uint256"
        },
        {
          "name": "price",
          "type": "uint256"
        }
      ],
      "name": "transferNotification",
      "outputs": [],
      "payable": false,
      "stateMutability": "nonpayable",
      "type": "function"
    }
  ],
  "bytecode": "0x6060604052341561000f57600080fd5b6040516020806117b683398101604052808051906020019091905050806000806101000a81548173ffffffffffffffffffffffffffffffffffffffff021916908373ffffffffffffffffffffffffffffffffffffffff1602179055505061173b8061007b6000396000f3006060604052600436106100d0576000357c0100000000000000000000000000000000000000000000000000000000900463ffffffff1680631756353d146100d55780632001b324146101015780633cadc37d1461014157806364e7e4a4146101975780636c0f41d8146101e25780636e5932101461020e5780636ecd87e1146102905780637a5e129d146102b35780637b9b9c89146103325780637e6503bb14610387578063b040f741146103b7578063c93e8b15146103da578063e91e13a91461045c578063f14eb3a114610485575b600080fd5b34156100e057600080fd5b6100ff6004808035906020019091908035906020019091905050610504565b005b341561010c57600080fd5b61012b6004808035906020019091908035906020019091905050610512565b6040518082815260200191505060405180910390f35b341561014c57600080fd5b610181600480803590602001908201803590602001919091929080359060200190820180359060200191909192905050610643565b6040518082815260200191505060405180910390f35b34156101a257600080fd5b6101e0600480803573ffffffffffffffffffffffffffffffffffffffff169060200190919080359060200190919080359060200190919050506106d1565b005b6101f8600480803590602001909190505061073d565b6040518082815260200191505060405180910390f35b341561021957600080fd5b61022f60048080359060200190919050506108cb565b604051808260646000925b818410156102805782846020020151600560200280838360005b8381101561026f578082015181840152602081019050610254565b50505050905001926001019261023a565b9250505091505060405180910390f35b341561029b57600080fd5b6102b160048080359060200190919050506109da565b005b34156102be57600080fd5b6102d46004808035906020019091905050610b11565b604051808681526020018573ffffffffffffffffffffffffffffffffffffffff1673ffffffffffffffffffffffffffffffffffffffff1681526020018481526020018381526020018281526020019550505050505060405180910390f35b341561033d57600080fd5b610345610b76565b604051808273ffffffffffffffffffffffffffffffffffffffff1673ffffffffffffffffffffffffffffffffffffffff16815260200191505060405180910390f35b341561039257600080fd5b61039a610b9b565b604051808381526020018281526020019250505060405180910390f35b34156103c257600080fd5b6103d86004808035906020019091905050610bb2565b005b34156103e557600080fd5b6103fb6004808035906020019091905050610db9565b604051808260646000925b8184101561044c5782846020020151600560200280838360005b8381101561043b578082015181840152602081019050610420565b505050509050019260010192610406565b9250505091505060405180910390f35b341561046757600080fd5b61046f610ec8565b6040518082815260200191505060405180910390f35b341561049057600080fd5b6104a66004808035906020019091905050610ecd565b604051808681526020018573ffffffffffffffffffffffffffffffffffffffff1673ffffffffffffffffffffffffffffffffffffffff1681526020018481526020018381526020018281526020019550505050505060405180910390f35b61050e8282610f32565b5050565b60008060009054906101000a900473ffffffffffffffffffffffffffffffffffffffff1673ffffffffffffffffffffffffffffffffffffffff166323b872dd3330856000604051602001526040518463ffffffff167c0100000000000000000000000000000000000000000000000000000000028152600401808473ffffffffffffffffffffffffffffffffffffffff1673ffffffffffffffffffffffffffffffffffffffff1681526020018373ffffffffffffffffffffffffffffffffffffffff1673ffffffffffffffffffffffffffffffffffffffff1681526020018281526020019350505050602060405180830381600087803b151561061457600080fd5b6102c65a03f1151561062557600080fd5b505050604051805190505061063b338484611325565b905092915050565b6000806000868690509150848490508214151561065f57600080fd5b600090505b818110801561067b5750620186a063ffffffff165a115b156106c7576106b2878783818110151561069157fe5b9050602002013586868481811015156106a657fe5b90506020020135610f32565b82806001019350508080600101915050610664565b5050949350505050565b6000809054906101000a900473ffffffffffffffffffffffffffffffffffffffff1673ffffffffffffffffffffffffffffffffffffffff163373ffffffffffffffffffffffffffffffffffffffff1614151561072c57600080fd5b610737838284611325565b50505050565b6000808211151561074d57600080fd5b60003411151561075c57600080fd5b600180805480600101828161077191906115cf565b9160005260206000209060050201600060a06040519081016040528060038054905081526020013373ffffffffffffffffffffffffffffffffffffffff1681526020014281526020018781526020013481525090919091506000820151816000015560208201518160010160006101000a81548173ffffffffffffffffffffffffffffffffffffffff021916908373ffffffffffffffffffffffffffffffffffffffff1602179055506040820151816002015560608201518160030155608082015181600401555050039050600380548060010182816108519190611601565b9160005260206000209001600083909190915055503373ffffffffffffffffffffffffffffffffffffffff16817f5fb69864eabf6f6af276c839a96d25daee1489f5f897dec6d6cb483fd820e2e38460003460405180848152602001838152602001828152602001935050505060405180910390a3919050565b6108d361162d565b60008060008092505b60648360ff161080156108f85750600480549050858460ff1601105b156109d25760048360ff16860181548110151561091157fe5b906000526020600020900154915060028281548110151561092e57fe5b9060005260206000209060050201905060a0604051908101604052808381526020018260010160009054906101000a900473ffffffffffffffffffffffffffffffffffffffff1673ffffffffffffffffffffffffffffffffffffffff16815260200182600201548152602001826003015481526020018260040154815250848460ff166064811015156109bd57fe5b602002018190525082806001019350506108dc565b505050919050565b6000806001838154811015156109ec57fe5b906000526020600020906005020191503373ffffffffffffffffffffffffffffffffffffffff168260010160009054906101000a900473ffffffffffffffffffffffffffffffffffffffff1673ffffffffffffffffffffffffffffffffffffffff16141515610a5a57600080fd5b8160040154905060008260040181905550610a74826114b6565b3373ffffffffffffffffffffffffffffffffffffffff166108fc829081150290604051600060405180830381858888f193505050501515610ab457600080fd5b3373ffffffffffffffffffffffffffffffffffffffff16837f61a4c3ec95de122096d654ab66ccf22fc8dc74fab994e098df193c7b7d79ebe9600084604051808381526020018281526020019250505060405180910390a3505050565b600281815481101515610b2057fe5b90600052602060002090600502016000915090508060000154908060010160009054906101000a900473ffffffffffffffffffffffffffffffffffffffff16908060020154908060030154908060040154905085565b6000809054906101000a900473ffffffffffffffffffffffffffffffffffffffff1681565b600080600380549050600480549050915091509091565b600080600283815481101515610bc457fe5b906000526020600020906005020191503373ffffffffffffffffffffffffffffffffffffffff168260010160009054906101000a900473ffffffffffffffffffffffffffffffffffffffff1673ffffffffffffffffffffffffffffffffffffffff16141515610c3257600080fd5b8160040154905060008260040181905550610c4c826114c8565b6000809054906101000a900473ffffffffffffffffffffffffffffffffffffffff1673ffffffffffffffffffffffffffffffffffffffff1663ffdcf09533836040518363ffffffff167c0100000000000000000000000000000000000000000000000000000000028152600401808373ffffffffffffffffffffffffffffffffffffffff1673ffffffffffffffffffffffffffffffffffffffff168152602001828152602001806020018281038252601a8152602001807f53656c6c20746f6b656e206f726465722063616e63656c6c65640000000000008152506020019350505050600060405180830381600087803b1515610d4857600080fd5b6102c65a03f11515610d5957600080fd5b5050503373ffffffffffffffffffffffffffffffffffffffff16837f61a4c3ec95de122096d654ab66ccf22fc8dc74fab994e098df193c7b7d79ebe9836000604051808381526020018281526020019250505060405180910390a3505050565b610dc161162d565b60008060008092505b60648360ff16108015610de65750600380549050858460ff1601105b15610ec05760038360ff168601815481101515610dff57fe5b9060005260206000209001549150600182815481101515610e1c57fe5b9060005260206000209060050201905060a0604051908101604052808381526020018260010160009054906101000a900473ffffffffffffffffffffffffffffffffffffffff1673ffffffffffffffffffffffffffffffffffffffff16815260200182600201548152602001826003015481526020018260040154815250848460ff16606481101515610eab57fe5b60200201819052508280600101935050610dca565b505050919050565b606481565b600181815481101515610edc57fe5b90600052602060002090600502016000915090508060000154908060010160009054906101000a900473ffffffffffffffffffffffffffffffffffffffff16908060020154908060030154908060040154905085565b600080600080600080600188815481101515610f4a57fe5b90600052602060002090600502019550600287815481101515610f6957fe5b906000526020600020906005020194508460030154866003015410151515610f9057600080fd5b610fbe6002610fb0876003015489600301546114da90919063ffffffff16565b6114fb90919063ffffffff16565b9350610ff184610fe3670de0b6b3a7640000886004015461151690919063ffffffff16565b6114fb90919063ffffffff16565b925085600401548311151561100f578291508460040154905061104a565b85600401549150611047670de0b6b3a764000061103986896004015461151690919063ffffffff16565b6114fb90919063ffffffff16565b90505b61106182876004015461154c90919063ffffffff16565b86600401819055506000866004015414156110805761107f866114b6565b5b61109781866004015461154c90919063ffffffff16565b85600401819055506000856004015414156110b6576110b5856114c8565b5b6000809054906101000a900473ffffffffffffffffffffffffffffffffffffffff1673ffffffffffffffffffffffffffffffffffffffff1663ffdcf0958760010160009054906101000a900473ffffffffffffffffffffffffffffffffffffffff16836040518363ffffffff167c0100000000000000000000000000000000000000000000000000000000028152600401808373ffffffffffffffffffffffffffffffffffffffff1673ffffffffffffffffffffffffffffffffffffffff16815260200182815260200180602001828103825260148152602001807f42757920746f6b656e206f726465722066696c6c0000000000000000000000008152506020019350505050600060405180830381600087803b15156111d657600080fd5b6102c65a03f115156111e757600080fd5b5050508460010160009054906101000a900473ffffffffffffffffffffffffffffffffffffffff1673ffffffffffffffffffffffffffffffffffffffff166108fc839081150290604051600060405180830381858888f19350505050151561124e57600080fd5b8460010160009054906101000a900473ffffffffffffffffffffffffffffffffffffffff1673ffffffffffffffffffffffffffffffffffffffff168660010160009054906101000a900473ffffffffffffffffffffffffffffffffffffffff1673ffffffffffffffffffffffffffffffffffffffff167ff800bd56a5db2764620505d2880a4bff9e4406107f48f8913c07b3626b7720d48a8a888787604051808681526020018581526020018481526020018381526020018281526020019550505050505060405180910390a35050505050505050565b6000808311151561133557600080fd5b60008211151561134457600080fd5b60016002805480600101828161135a91906115cf565b9160005260206000209060050201600060a06040519081016040528060048054905081526020018973ffffffffffffffffffffffffffffffffffffffff1681526020014281526020018881526020018781525090919091506000820151816000015560208201518160010160006101000a81548173ffffffffffffffffffffffffffffffffffffffff021916908373ffffffffffffffffffffffffffffffffffffffff16021790555060408201518160020155606082015181600301556080820151816004015550500390506004805480600101828161143a9190611601565b9160005260206000209001600083909190915055508373ffffffffffffffffffffffffffffffffffffffff16817f5fb69864eabf6f6af276c839a96d25daee1489f5f897dec6d6cb483fd820e2e38585600060405180848152602001838152602001828152602001935050505060405180910390a39392505050565b6114c560038260000154611568565b50565b6114d760048260000154611568565b50565b60008082840190508381101515156114f157600080fd5b8091505092915050565b600080828481151561150957fe5b0490508091505092915050565b60008082840290506000841480611537575082848281151561153457fe5b04145b151561154257600080fd5b8091505092915050565b600082821115151561155d57600080fd5b818303905092915050565b60018280549050038110156115b65781600183805490500381548110151561158c57fe5b90600052602060002090015482828154811015156115a657fe5b9060005260206000209001819055505b818054809190600190036115ca9190611601565b505050565b8154818355818115116115fc576005028160050283600052602060002091820191016115fb919061165c565b5b505050565b8154818355818115116116285781836000526020600020918201910161162791906116c2565b5b505050565b613e80604051908101604052806064905b6116466116e7565b81526020019060019003908161163e5790505090565b6116bf91905b808211156116bb576000808201600090556001820160006101000a81549073ffffffffffffffffffffffffffffffffffffffff021916905560028201600090556003820160009055600482016000905550600501611662565b5090565b90565b6116e491905b808211156116e05760008160009055506001016116c8565b5090565b90565b60a0604051908101604052806005905b60008152602001906001900390816116f757905050905600a165627a7a723058206d2151d4127750ad5499a7a227d466c41162e4f69e1d179627ed630b71dfd9b80029",
  "source": "/* Augmint's Internal Exchange\n\n  For flows see: https://github.com/Augmint/augmint-contracts/blob/master/docs/exchangeFlow.png\n\n    TODO:\n        - deduct fee\n        - consider take funcs (frequent rate changes with takeBuyToken? send more and send back remainder?)\n        - uint32 for addedTime?\n*/\npragma solidity 0.4.19;\n\nimport \"./generic/SafeMath.sol\";\nimport \"./interfaces/AugmintTokenInterface.sol\";\n\ncontract Exchange {\n    using SafeMath for uint256;\n    AugmintTokenInterface public augmintToken;\n\n    uint public constant CHUNK_SIZE = 100;\n\n    struct Order {\n        uint index;\n        address maker;\n        uint addedTime;\n\n        // tokens per ether\n        uint price;\n\n        // buy order: amount in wei \n        // sell order: token amount\n        uint amount;    \n    }\n\n    Order[] public buyTokenOrders;\n    Order[] public sellTokenOrders;\n\n    uint[] private activeBuyOrders;\n    uint[] private activeSellOrders;\n\n    /* used to stop executing matchMultiple when running out of gas.\n        actual is much less, just leaving enough matchMultipleOrders() to finish TODO: fine tune & test it*/\n    uint32 private constant ORDER_MATCH_WORST_GAS = 100000;\n\n    event NewOrder(uint indexed orderId, address indexed maker, uint price, uint tokenAmount,\n        uint weiAmount);\n\n    event OrderFill(address indexed tokenBuyer, address indexed tokenSeller, uint buyTokenOrderId,\n        uint sellTokenOrderId, uint price, uint weiAmount, uint tokenAmount);\n\n    event CancelledOrder(uint indexed orderId, address indexed maker, uint tokenAmount, uint weiAmount);\n\n    function Exchange(AugmintTokenInterface _augmintToken) public {\n        augmintToken = _augmintToken;\n    }\n\n    function placeBuyTokenOrder(uint price) external payable returns (uint orderId) {\n        require(price > 0);\n        require(msg.value > 0);\n\n        orderId = buyTokenOrders.push(Order(activeBuyOrders.length, msg.sender, now, price, msg.value)) - 1;\n        activeBuyOrders.push(orderId);\n\n        NewOrder(orderId, msg.sender, price, 0, msg.value);\n    }\n\n    /* this function requires previous approval to transfer tokens */\n    function placeSellTokenOrder(uint price, uint tokenAmount) external returns (uint orderId) {\n        augmintToken.transferFrom(msg.sender, this, tokenAmount);\n        return _placeSellTokenOrder(msg.sender, price, tokenAmount);\n    }\n\n    function cancelBuyTokenOrder(uint buyTokenId) external {\n        Order storage order = buyTokenOrders[buyTokenId];\n        require(order.maker == msg.sender);\n\n        uint amount = order.amount;\n        order.amount = 0;\n        _removeBuyOrder(order);\n\n        msg.sender.transfer(amount);\n\n        CancelledOrder(buyTokenId, msg.sender, 0, amount);\n    }\n\n    function cancelSellTokenOrder(uint sellTokenId) external {\n        Order storage order = sellTokenOrders[sellTokenId];\n        require(order.maker == msg.sender);\n\n        uint amount = order.amount;\n        order.amount = 0;\n        _removeSellOrder(order);\n\n        augmintToken.transferWithNarrative(msg.sender, amount, \"Sell token order cancelled\");\n\n        CancelledOrder(sellTokenId, msg.sender, amount, 0);\n    }\n\n    /* matches any two orders if the sell price >= buy price\n        trade price meets in the middle\n        reverts if any of the orders have been removed\n    */\n    function matchOrders(uint buyTokenId, uint sellTokenId) external {\n        _fillOrder(buyTokenId, sellTokenId);\n    }\n\n    /*  matches as many orders as possible from the passed orders\n        Runs as long as gas is available for the call.\n        Stops if any match is invalid (case when any of the orders removed after client generated the match list sent)\n    */\n    function matchMultipleOrders(uint[] buyTokenIds, uint[] sellTokenIds) external returns(uint matchCount) {\n        uint len = buyTokenIds.length;\n        require(len == sellTokenIds.length);\n        for (uint i = 0; i < len && msg.gas > ORDER_MATCH_WORST_GAS; i++) {\n            _fillOrder(buyTokenIds[i], sellTokenIds[i]);\n            matchCount++;\n        }\n    }\n\n    function getActiveOrderCounts() external view returns(uint buyTokenOrderCount, uint sellTokenOrderCount) {\n        return(activeBuyOrders.length, activeSellOrders.length);\n    }\n\n    // returns CHUNK_SIZE orders starting from offset\n    // orders are encoded as [id, maker, addedTime, price, amount]\n    function getActiveBuyOrders(uint offset) external view returns (uint[5][CHUNK_SIZE] response) {\n        for (uint8 i = 0; i < CHUNK_SIZE && i + offset < activeBuyOrders.length; i++) {\n            uint orderId = activeBuyOrders[offset + i];\n            Order storage order = buyTokenOrders[orderId];\n            response[i] = [orderId, uint(order.maker), order.addedTime, order.price, order.amount];\n        }\n    }\n\n    function getActiveSellOrders(uint offset) external view returns (uint[5][CHUNK_SIZE] response) {\n        for (uint8 i = 0; i < CHUNK_SIZE && i + offset < activeSellOrders.length; i++) {\n            uint orderId = activeSellOrders[offset + i];\n            Order storage order = sellTokenOrders[orderId];\n            response[i] = [orderId, uint(order.maker), order.addedTime, order.price, order.amount];\n        }\n    }\n\n    /* place sell token order called from AugmintToken's transferAndNotify\n     Flow:\n        1) user calls token contract's transferAndNotify price passed in data arg\n        2) transferAndNotify transfers tokens to the Exchange contract\n        3) transferAndNotify calls Exchange.transferNotification with lockProductId\n    */\n    function transferNotification(address maker, uint tokenAmount, uint price) public {\n        require(msg.sender == address(augmintToken));\n        _placeSellTokenOrder(maker, price, tokenAmount);\n    }\n\n    function _fillOrder(uint buyTokenId, uint sellTokenId) private {\n        Order storage buy = buyTokenOrders[buyTokenId];\n        Order storage sell = sellTokenOrders[sellTokenId];\n\n        require(buy.price >= sell.price);\n\n        // meet in the middle\n        uint price = buy.price.add(sell.price).div(2);\n\n        uint sellWei = sell.amount.mul(1 ether).div(price);\n\n        uint tradedWei;\n        uint tradedTokens;\n        if (sellWei <= buy.amount) {\n            tradedWei = sellWei;\n            tradedTokens = sell.amount;\n        } else {\n            tradedWei = buy.amount;\n            tradedTokens = buy.amount.mul(price).div(1 ether);\n        }\n\n        buy.amount = buy.amount.sub(tradedWei);\n        if (buy.amount == 0) {\n            _removeBuyOrder(buy);\n        }\n\n        sell.amount = sell.amount.sub(tradedTokens);\n        if (sell.amount == 0) {\n            _removeSellOrder(sell);\n        }\n\n        augmintToken.transferWithNarrative(buy.maker, tradedTokens, \"Buy token order fill\");\n        sell.maker.transfer(tradedWei);\n\n        OrderFill(buy.maker, sell.maker, buyTokenId,\n            sellTokenId, price, tradedWei, tradedTokens);\n    }\n\n\n    function _placeSellTokenOrder(address maker, uint price, uint tokenAmount)\n    private returns (uint orderId) {\n        require(price > 0);\n        require(tokenAmount > 0);\n\n        orderId = sellTokenOrders.push(Order(activeSellOrders.length, maker, now, price, tokenAmount)) - 1;\n        activeSellOrders.push(orderId);\n\n        NewOrder(orderId, maker, price, tokenAmount, 0);\n    }\n\n    function _removeBuyOrder(Order storage order) private {\n        _removeOrder(activeBuyOrders, order.index);\n    }\n\n    function _removeSellOrder(Order storage order) private {\n        _removeOrder(activeSellOrders, order.index);\n    }\n\n    function _removeOrder(uint[] storage orders, uint index) private {\n        if (index < orders.length - 1) {\n            orders[index] = orders[orders.length - 1];\n        }\n        orders.length--;\n    }\n\n}\n",
  "sourcePath": "/Users/petro/ether/augmint-web/augmint-contracts/contracts/Exchange.sol",
  "compiler": {
    "name": "solc",
    "version": "0.4.19+commit.c4cbbb05.Emscripten.clang"
  },
  "schemaVersion": "1.0.1",
  "updatedAt": "2018-02-14T18:14:31.576Z"
}