{
  "contractName": "Exchange",
  "abi": [
    {
      "constant": true,
      "inputs": [],
      "name": "totalTokenSellOrders",
      "outputs": [
        {
          "name": "",
          "type": "uint256"
        }
      ],
      "payable": false,
      "stateMutability": "view",
      "type": "function"
    },
    {
      "constant": true,
      "inputs": [
        {
          "name": "",
          "type": "address"
        },
        {
          "name": "",
          "type": "uint256"
        }
      ],
      "name": "m_orders",
      "outputs": [
        {
          "name": "",
          "type": "uint80"
        }
      ],
      "payable": false,
      "stateMutability": "view",
      "type": "function"
    },
    {
      "constant": true,
      "inputs": [],
      "name": "rates",
      "outputs": [
        {
          "name": "",
          "type": "address"
        }
      ],
      "payable": false,
      "stateMutability": "view",
      "type": "function"
    },
    {
      "constant": true,
      "inputs": [
        {
          "name": "orderId",
          "type": "uint80"
        }
      ],
      "name": "getOrder",
      "outputs": [
        {
          "name": "maker",
          "type": "address"
        },
        {
          "name": "makerOrderIdx",
          "type": "uint80"
        },
        {
          "name": "orderType",
          "type": "uint8"
        },
        {
          "name": "amount",
          "type": "uint256"
        }
      ],
      "payable": false,
      "stateMutability": "view",
      "type": "function"
    },
    {
      "constant": true,
      "inputs": [],
      "name": "orders",
      "outputs": [
        {
          "name": "first",
          "type": "uint80"
        },
        {
          "name": "last",
          "type": "uint80"
        },
        {
          "name": "count",
          "type": "uint80"
        }
      ],
      "payable": false,
      "stateMutability": "view",
      "type": "function"
    },
    {
      "constant": true,
      "inputs": [],
      "name": "totalEthSellOrders",
      "outputs": [
        {
          "name": "",
          "type": "uint256"
        }
      ],
      "payable": false,
      "stateMutability": "view",
      "type": "function"
    },
    {
      "constant": true,
      "inputs": [
        {
          "name": "maker",
          "type": "address"
        },
        {
          "name": "_makerOrderIdx",
          "type": "uint80"
        }
      ],
      "name": "getMakerOrder",
      "outputs": [
        {
          "name": "orderId",
          "type": "uint80"
        },
        {
          "name": "makerOrderIdx",
          "type": "uint80"
        },
        {
          "name": "orderType",
          "type": "uint8"
        },
        {
          "name": "amount",
          "type": "uint256"
        }
      ],
      "payable": false,
      "stateMutability": "view",
      "type": "function"
    },
    {
      "constant": true,
      "inputs": [
        {
          "name": "maker",
          "type": "address"
        }
      ],
      "name": "getMakerOrderCount",
      "outputs": [
        {
          "name": "orderCount",
          "type": "uint256"
        }
      ],
      "payable": false,
      "stateMutability": "view",
      "type": "function"
    },
    {
      "constant": false,
      "inputs": [
        {
          "name": "tokenAmount",
          "type": "uint256"
        }
      ],
      "name": "placeSellTokenOrder",
      "outputs": [],
      "payable": false,
      "stateMutability": "nonpayable",
      "type": "function"
    },
    {
      "constant": true,
      "inputs": [],
      "name": "augmintToken",
      "outputs": [
        {
          "name": "",
          "type": "address"
        }
      ],
      "payable": false,
      "stateMutability": "view",
      "type": "function"
    },
    {
      "constant": true,
      "inputs": [],
      "name": "getOrderCount",
      "outputs": [
        {
          "name": "orderCount",
          "type": "uint80"
        }
      ],
      "payable": false,
      "stateMutability": "view",
      "type": "function"
    },
    {
      "constant": true,
      "inputs": [],
      "name": "owner",
      "outputs": [
        {
          "name": "",
          "type": "address"
        }
      ],
      "payable": false,
      "stateMutability": "view",
      "type": "function"
    },
    {
      "constant": false,
      "inputs": [],
      "name": "placeSellEthOrder",
      "outputs": [],
      "payable": true,
      "stateMutability": "payable",
      "type": "function"
    },
    {
      "constant": true,
      "inputs": [
        {
          "name": "orderId",
          "type": "uint80"
        }
      ],
      "name": "iterateOpenOrders",
      "outputs": [
        {
          "name": "_orderId",
          "type": "uint80"
        },
        {
          "name": "maker",
          "type": "address"
        },
        {
          "name": "makerOrderIdx",
          "type": "uint80"
        },
        {
          "name": "orderType",
          "type": "uint8"
        },
        {
          "name": "amount",
          "type": "uint256"
        },
        {
          "name": "nextOrderId",
          "type": "uint80"
        }
      ],
      "payable": false,
      "stateMutability": "view",
      "type": "function"
    },
    {
      "constant": false,
      "inputs": [
        {
          "name": "newOwner",
          "type": "address"
        }
      ],
      "name": "transferOwnership",
      "outputs": [],
      "payable": false,
      "stateMutability": "nonpayable",
      "type": "function"
    },
    {
      "inputs": [
        {
          "name": "_augmintTokenAddress",
          "type": "address"
        },
        {
          "name": "_ratesAddress",
          "type": "address"
        }
      ],
      "payable": false,
      "stateMutability": "nonpayable",
      "type": "constructor"
    },
    {
      "anonymous": false,
      "inputs": [
        {
          "indexed": false,
          "name": "orderId",
          "type": "uint80"
        },
        {
          "indexed": false,
          "name": "orderType",
          "type": "uint8"
        },
        {
          "indexed": false,
          "name": "maker",
          "type": "address"
        },
        {
          "indexed": false,
          "name": "amount",
          "type": "uint256"
        }
      ],
      "name": "e_newOrder",
      "type": "event"
    },
    {
      "anonymous": false,
      "inputs": [
        {
          "indexed": false,
          "name": "orderId",
          "type": "uint80"
        },
        {
          "indexed": false,
          "name": "taker",
          "type": "address"
        },
        {
          "indexed": false,
          "name": "amountSold",
          "type": "uint256"
        },
        {
          "indexed": false,
          "name": "amountPaid",
          "type": "uint256"
        }
      ],
      "name": "e_orderFill",
      "type": "event"
    },
    {
      "anonymous": false,
      "inputs": [
        {
          "indexed": true,
          "name": "oldOwner",
          "type": "address"
        },
        {
          "indexed": true,
          "name": "newOwner",
          "type": "address"
        }
      ],
      "name": "NewOwner",
      "type": "event"
    }
  ],
  "bytecode": "0x6060604052341561000f57600080fd5b6040516040806130fb83398101604052808051906020019091908051906020019091905050600073ffffffffffffffffffffffffffffffffffffffff166000809054906101000a900473ffffffffffffffffffffffffffffffffffffffff1673ffffffffffffffffffffffffffffffffffffffff1614151561009057600080fd5b336000806101000a81548173ffffffffffffffffffffffffffffffffffffffff021916908373ffffffffffffffffffffffffffffffffffffffff16021790555080600160006101000a81548173ffffffffffffffffffffffffffffffffffffffff021916908373ffffffffffffffffffffffffffffffffffffffff16021790555081600260006101000a81548173ffffffffffffffffffffffffffffffffffffffff021916908373ffffffffffffffffffffffffffffffffffffffff1602179055505050612f98806101636000396000f3006060604052600436106100db576000357c0100000000000000000000000000000000000000000000000000000000900463ffffffff1680630d7ab2ed146100e05780630f3e8af21461010957806343f48fbd146101775780634d88a639146101cc5780634fb764c91461027657806368a958af146102f557806374ee4d4d1461031e5780637539a425146103d3578063790609da146104205780637b9b9c89146104435780638d0a5fbb146104985780638da5cb5b146104d9578063a9facb421461052e578063beeb401814610538578063f2fde38b14610620575b600080fd5b34156100eb57600080fd5b6100f3610659565b6040518082815260200191505060405180910390f35b341561011457600080fd5b610149600480803573ffffffffffffffffffffffffffffffffffffffff1690602001909190803590602001909190505061065f565b604051808269ffffffffffffffffffff1669ffffffffffffffffffff16815260200191505060405180910390f35b341561018257600080fd5b61018a6106ad565b604051808273ffffffffffffffffffffffffffffffffffffffff1673ffffffffffffffffffffffffffffffffffffffff16815260200191505060405180910390f35b34156101d757600080fd5b6101f9600480803569ffffffffffffffffffff169060200190919050506106d3565b604051808573ffffffffffffffffffffffffffffffffffffffff1673ffffffffffffffffffffffffffffffffffffffff1681526020018469ffffffffffffffffffff1669ffffffffffffffffffff16815260200183600181111561025957fe5b60ff16815260200182815260200194505050505060405180910390f35b341561028157600080fd5b610289610803565b604051808469ffffffffffffffffffff1669ffffffffffffffffffff1681526020018369ffffffffffffffffffff1669ffffffffffffffffffff1681526020018269ffffffffffffffffffff1669ffffffffffffffffffff168152602001935050505060405180910390f35b341561030057600080fd5b61030861085d565b6040518082815260200191505060405180910390f35b341561032957600080fd5b61036a600480803573ffffffffffffffffffffffffffffffffffffffff1690602001909190803569ffffffffffffffffffff16906020019091905050610863565b604051808569ffffffffffffffffffff1669ffffffffffffffffffff1681526020018469ffffffffffffffffffff1669ffffffffffffffffffff1681526020018360018111156103b657fe5b60ff16815260200182815260200194505050505060405180910390f35b34156103de57600080fd5b61040a600480803573ffffffffffffffffffffffffffffffffffffffff169060200190919050506109c6565b6040518082815260200191505060405180910390f35b341561042b57600080fd5b6104416004808035906020019091905050610a12565b005b341561044e57600080fd5b610456611037565b604051808273ffffffffffffffffffffffffffffffffffffffff1673ffffffffffffffffffffffffffffffffffffffff16815260200191505060405180910390f35b34156104a357600080fd5b6104ab61105d565b604051808269ffffffffffffffffffff1669ffffffffffffffffffff16815260200191505060405180910390f35b34156104e457600080fd5b6104ec611080565b604051808273ffffffffffffffffffffffffffffffffffffffff1673ffffffffffffffffffffffffffffffffffffffff16815260200191505060405180910390f35b6105366110a5565b005b341561054357600080fd5b610565600480803569ffffffffffffffffffff169060200190919050506116a5565b604051808769ffffffffffffffffffff1669ffffffffffffffffffff1681526020018673ffffffffffffffffffffffffffffffffffffffff1673ffffffffffffffffffffffffffffffffffffffff1681526020018569ffffffffffffffffffff1669ffffffffffffffffffff1681526020018460018111156105e357fe5b60ff1681526020018381526020018269ffffffffffffffffffff1669ffffffffffffffffffff168152602001965050505050505060405180910390f35b341561062b57600080fd5b610657600480803573ffffffffffffffffffffffffffffffffffffffff169060200190919050506118bb565b005b60035481565b60076020528160005260406000208181548110151561067a57fe5b9060005260206000209060039182820401919006600a02915091509054906101000a900469ffffffffffffffffffff1681565b600160009054906101000a900473ffffffffffffffffffffffffffffffffffffffff1681565b60008060008060056001016001860369ffffffffffffffffffff168154811015156106fa57fe5b906000526020600020906003020160010160000160009054906101000a900473ffffffffffffffffffffffffffffffffffffffff1660056001016001870369ffffffffffffffffffff1681548110151561075057fe5b906000526020600020906003020160010160000160149054906101000a900469ffffffffffffffffffff1660056001016001880369ffffffffffffffffffff1681548110151561079c57fe5b9060005260206000209060030201600101600001601e9054906101000a900460ff1660056001016001890369ffffffffffffffffffff168154811015156107df57fe5b90600052602060002090600302016001016001015493509350935093509193509193565b60058060000160009054906101000a900469ffffffffffffffffffff169080600001600a9054906101000a900469ffffffffffffffffffff16908060000160149054906101000a900469ffffffffffffffffffff16905083565b60045481565b600080600080600760008773ffffffffffffffffffffffffffffffffffffffff1673ffffffffffffffffffffffffffffffffffffffff1681526020019081526020016000208569ffffffffffffffffffff168154811015156108c157fe5b9060005260206000209060039182820401919006600a029054906101000a900469ffffffffffffffffffff1693508360056001016001860369ffffffffffffffffffff1681548110151561091157fe5b906000526020600020906003020160010160000160149054906101000a900469ffffffffffffffffffff1660056001016001870369ffffffffffffffffffff1681548110151561095d57fe5b9060005260206000209060030201600101600001601e9054906101000a900460ff1660056001016001880369ffffffffffffffffffff168154811015156109a057fe5b906000526020600020906003020160010160010154935093509350935092959194509250565b6000600760008373ffffffffffffffffffffffffffffffffffffffff1673ffffffffffffffffffffffffffffffffffffffff168152602001908152602001600020805490509050919050565b600080600080600080600080600089111515610a2d57600080fd5b600260009054906101000a900473ffffffffffffffffffffffffffffffffffffffff1673ffffffffffffffffffffffffffffffffffffffff1663b0455f1333308c6040518463ffffffff167c0100000000000000000000000000000000000000000000000000000000028152600401808473ffffffffffffffffffffffffffffffffffffffff1673ffffffffffffffffffffffffffffffffffffffff1681526020018373ffffffffffffffffffffffffffffffffffffffff1673ffffffffffffffffffffffffffffffffffffffff16815260200182815260200180602001828103825260178152602001807f746f6b656e2073656c6c206f7264657220706c61636564000000000000000000815250602001945050505050600060405180830381600087803b1515610b5e57600080fd5b6102c65a03f11515610b6f57600080fd5b505050600160009054906101000a900473ffffffffffffffffffffffffffffffffffffffff1673ffffffffffffffffffffffffffffffffffffffff16635c481d8b600260009054906101000a900473ffffffffffffffffffffffffffffffffffffffff1673ffffffffffffffffffffffffffffffffffffffff166333a263e66000604051602001526040518163ffffffff167c0100000000000000000000000000000000000000000000000000000000028152600401602060405180830381600087803b1515610c3e57600080fd5b6102c65a03f11515610c4f57600080fd5b505050604051805190508b6000604051602001526040518363ffffffff167c010000000000000000000000000000000000000000000000000000000002815260040180836000191660001916815260200182815260200192505050602060405180830381600087803b1515610cc357600080fd5b6102c65a03f11515610cd457600080fd5b505050604051805190509750879650889550610cf06005611a10565b90505b610d07816005611a3490919063ffffffff16565b8015610d135750600087115b8015610d225750600060045414155b15610fc357809150610d3e826005611a5790919063ffffffff16565b905060056001016001830369ffffffffffffffffffff16815481101515610d6157fe5b906000526020600020906003020160010160000160009054906101000a900473ffffffffffffffffffffffffffffffffffffffff1692508660056001016001840369ffffffffffffffffffff16815481101515610dba57fe5b906000526020600020906003020160010160010154101515610de157869450859350610f88565b60056001016001830369ffffffffffffffffffff16815481101515610e0257fe5b9060005260206000209060030201600101600101549450600160009054906101000a900473ffffffffffffffffffffffffffffffffffffffff1673ffffffffffffffffffffffffffffffffffffffff166382f5e31b600260009054906101000a900473ffffffffffffffffffffffffffffffffffffffff1673ffffffffffffffffffffffffffffffffffffffff166333a263e66000604051602001526040518163ffffffff167c0100000000000000000000000000000000000000000000000000000000028152600401602060405180830381600087803b1515610ee557600080fd5b6102c65a03f11515610ef657600080fd5b50505060405180519050876000604051602001526040518363ffffffff167c010000000000000000000000000000000000000000000000000000000002815260040180836000191660001916815260200182815260200192505050602060405180830381600087803b1515610f6a57600080fd5b6102c65a03f11515610f7b57600080fd5b5050506040518051905093505b610f9b8588611aa990919063ffffffff16565b9650610fb08487611aa990919063ffffffff16565b9550610fbe82338787611ac5565b610cf3565b3373ffffffffffffffffffffffffffffffffffffffff166108fc610ff0898b611aa990919063ffffffff16565b9081150290604051600060405180830381858888f19350505050151561101557600080fd5b60008614151561102c5761102b60013388611ed1565b5b505050505050505050565b600260009054906101000a900473ffffffffffffffffffffffffffffffffffffffff1681565b6000600560000160149054906101000a900469ffffffffffffffffffff16905090565b6000809054906101000a900473ffffffffffffffffffffffffffffffffffffffff1681565b6000806000806000806000806000341115156110c057600080fd5b349750600160009054906101000a900473ffffffffffffffffffffffffffffffffffffffff1673ffffffffffffffffffffffffffffffffffffffff166382f5e31b600260009054906101000a900473ffffffffffffffffffffffffffffffffffffffff1673ffffffffffffffffffffffffffffffffffffffff166333a263e66000604051602001526040518163ffffffff167c0100000000000000000000000000000000000000000000000000000000028152600401602060405180830381600087803b151561118f57600080fd5b6102c65a03f115156111a057600080fd5b505050604051805190508a6000604051602001526040518363ffffffff167c010000000000000000000000000000000000000000000000000000000002815260040180836000191660001916815260200182815260200192505050602060405180830381600087803b151561121457600080fd5b6102c65a03f1151561122557600080fd5b50505060405180519050965086955061123e6005611a10565b90505b611255816005611a3490919063ffffffff16565b80156112615750600088115b80156112705750600060035414155b156115115780915061128c826005611a5790919063ffffffff16565b905060056001016001830369ffffffffffffffffffff168154811015156112af57fe5b906000526020600020906003020160010160000160009054906101000a900473ffffffffffffffffffffffffffffffffffffffff1692508560056001016001840369ffffffffffffffffffff1681548110151561130857fe5b90600052602060002090600302016001016001015410151561132f578593508794506114d6565b60056001016001830369ffffffffffffffffffff1681548110151561135057fe5b9060005260206000209060030201600101600101549350600160009054906101000a900473ffffffffffffffffffffffffffffffffffffffff1673ffffffffffffffffffffffffffffffffffffffff16635c481d8b600260009054906101000a900473ffffffffffffffffffffffffffffffffffffffff1673ffffffffffffffffffffffffffffffffffffffff166333a263e66000604051602001526040518163ffffffff167c0100000000000000000000000000000000000000000000000000000000028152600401602060405180830381600087803b151561143357600080fd5b6102c65a03f1151561144457600080fd5b50505060405180519050866000604051602001526040518363ffffffff167c010000000000000000000000000000000000000000000000000000000002815260040180836000191660001916815260200182815260200192505050602060405180830381600087803b15156114b857600080fd5b6102c65a03f115156114c957600080fd5b5050506040518051905094505b6114e98487611aa990919063ffffffff16565b95506114fe8589611aa990919063ffffffff16565b975061150c82338688611ac5565b611241565b60006115268789611aa990919063ffffffff16565b111561168457600260009054906101000a900473ffffffffffffffffffffffffffffffffffffffff1673ffffffffffffffffffffffffffffffffffffffff1663b0455f13303361157f8a8c611aa990919063ffffffff16565b6040518463ffffffff167c0100000000000000000000000000000000000000000000000000000000028152600401808473ffffffffffffffffffffffffffffffffffffffff1673ffffffffffffffffffffffffffffffffffffffff1681526020018373ffffffffffffffffffffffffffffffffffffffff1673ffffffffffffffffffffffffffffffffffffffff168152602001828152602001806020018281038252600a8152602001807f746f6b656e20736f6c6400000000000000000000000000000000000000000000815250602001945050505050600060405180830381600087803b151561166f57600080fd5b6102c65a03f1151561168057600080fd5b5050505b60008814151561169b5761169a6000338a611ed1565b5b5050505050505050565b6000806000806000806000600560000160009054906101000a900469ffffffffffffffffffff1669ffffffffffffffffffff161415611704576000806000806000808595508393508191508090509550955095509550955095506118b2565b60008769ffffffffffffffffffff16141561173c57600560000160009054906101000a900469ffffffffffffffffffff169550611740565b8695505b8560056001016001880369ffffffffffffffffffff1681548110151561176257fe5b906000526020600020906003020160010160000160009054906101000a900473ffffffffffffffffffffffffffffffffffffffff1660056001016001890369ffffffffffffffffffff168154811015156117b857fe5b906000526020600020906003020160010160000160149054906101000a900469ffffffffffffffffffff16600560010160018a0369ffffffffffffffffffff1681548110151561180457fe5b9060005260206000209060030201600101600001601e9054906101000a900460ff16600560010160018b0369ffffffffffffffffffff1681548110151561184757fe5b906000526020600020906003020160010160010154600560010160018c0369ffffffffffffffffffff1681548110151561187d57fe5b9060005260206000209060030201600001600a9054906101000a900469ffffffffffffffffffff169550955095509550955095505b91939550919395565b6000809054906101000a900473ffffffffffffffffffffffffffffffffffffffff1673ffffffffffffffffffffffffffffffffffffffff163373ffffffffffffffffffffffffffffffffffffffff1614151561191657600080fd5b600073ffffffffffffffffffffffffffffffffffffffff168173ffffffffffffffffffffffffffffffffffffffff161415151561195257600080fd5b8073ffffffffffffffffffffffffffffffffffffffff166000809054906101000a900473ffffffffffffffffffffffffffffffffffffffff1673ffffffffffffffffffffffffffffffffffffffff167f70aea8d848e8a90fb7661b227dc522eb6395c3dac71b63cb59edd5c9899b236460405160405180910390a3806000806101000a81548173ffffffffffffffffffffffffffffffffffffffff021916908373ffffffffffffffffffffffffffffffffffffffff16021790555050565b60008160000160009054906101000a900469ffffffffffffffffffff169050919050565b600082600101805490506001830369ffffffffffffffffffff1610905092915050565b6000826001016001830369ffffffffffffffffffff16815481101515611a7957fe5b9060005260206000209060030201600001600a9054906101000a900469ffffffffffffffffffff16905092915050565b6000828211151515611aba57600080fd5b818303905092915050565b60008060056001016001870369ffffffffffffffffffff16815481101515611ae957fe5b9060005260206000209060030201600101600001601e9054906101000a900460ff16915060056001016001870369ffffffffffffffffffff16815481101515611b2e57fe5b906000526020600020906003020160010160000160009054906101000a900473ffffffffffffffffffffffffffffffffffffffff16905060006001811115611b7257fe5b826001811115611b7e57fe5b1415611ce957600260009054906101000a900473ffffffffffffffffffffffffffffffffffffffff1673ffffffffffffffffffffffffffffffffffffffff1663b0455f133083866040518463ffffffff167c0100000000000000000000000000000000000000000000000000000000028152600401808473ffffffffffffffffffffffffffffffffffffffff1673ffffffffffffffffffffffffffffffffffffffff1681526020018373ffffffffffffffffffffffffffffffffffffffff1673ffffffffffffffffffffffffffffffffffffffff16815260200182815260200180602001828103825260088152602001807f45544820736f6c64000000000000000000000000000000000000000000000000815250602001945050505050600060405180830381600087803b1515611cb557600080fd5b6102c65a03f11515611cc657600080fd5b505050611cde84600454611aa990919063ffffffff16565b600481905550611d6d565b600180811115611cf557fe5b826001811115611d0157fe5b1415611d67578073ffffffffffffffffffffffffffffffffffffffff166108fc849081150290604051600060405180830381858888f193505050501515611d4757600080fd5b611d5c84600354611aa990919063ffffffff16565b600381905550611d6c565b600080fd5b5b611db58460056001016001890369ffffffffffffffffffff16815481101515611d9257fe5b906000526020600020906003020160010160010154611aa990919063ffffffff16565b60056001016001880369ffffffffffffffffffff16815481101515611dd657fe5b906000526020600020906003020160010160010181905550600060056001016001880369ffffffffffffffffffff16815481101515611e1157fe5b9060005260206000209060030201600101600101541415611e3657611e358661215e565b5b7fb3fc4af679e46f08642f310e723080297e3141483e86707d76ebde10485fc6e686868686604051808569ffffffffffffffffffff1669ffffffffffffffffffff1681526020018473ffffffffffffffffffffffffffffffffffffffff1673ffffffffffffffffffffffffffffffffffffffff16815260200183815260200182815260200194505050505060405180910390a1505050505050565b60008060006001811115611ee157fe5b856001811115611eed57fe5b1415611f1357611f088360045461251790919063ffffffff16565b600481905550611f57565b600180811115611f1f57fe5b856001811115611f2b57fe5b1415611f5157611f468360035461251790919063ffffffff16565b600381905550611f56565b600080fd5b5b611fba6080604051908101604052808673ffffffffffffffffffffffffffffffffffffffff168152602001600069ffffffffffffffffffff168152602001876001811115611fa157fe5b815260200185815250600561253890919063ffffffff16565b9150600760008573ffffffffffffffffffffffffffffffffffffffff1673ffffffffffffffffffffffffffffffffffffffff168152602001908152602001600020805480600101828161200d9190612de1565b9160005260206000209060039182820401919006600a0284909190916101000a81548169ffffffffffffffffffff021916908369ffffffffffffffffffff16021790555090506001810360056001016001840369ffffffffffffffffffff1681548110151561207857fe5b906000526020600020906003020160010160000160146101000a81548169ffffffffffffffffffff021916908369ffffffffffffffffffff1602179055507f6a6a3654772608c35489e2c1e81b1408c68274aafcbbd354e8eac75c28a4412582868686604051808569ffffffffffffffffffff1669ffffffffffffffffffff16815260200184600181111561210957fe5b60ff1681526020018373ffffffffffffffffffffffffffffffffffffffff1673ffffffffffffffffffffffffffffffffffffffff16815260200182815260200194505050505060405180910390a15050505050565b600080600060056001016001850369ffffffffffffffffffff1681548110151561218457fe5b906000526020600020906003020160010160000160149054906101000a900469ffffffffffffffffffff16925060056001016001850369ffffffffffffffffffff168154811015156121d257fe5b906000526020600020906003020160010160000160009054906101000a900473ffffffffffffffffffffffffffffffffffffffff16915061221d84600561291390919063ffffffff16565b600760008373ffffffffffffffffffffffffffffffffffffffff1673ffffffffffffffffffffffffffffffffffffffff168152602001908152602001600020805490509050600181038369ffffffffffffffffffff1614156122d157600760008373ffffffffffffffffffffffffffffffffffffffff1673ffffffffffffffffffffffffffffffffffffffff1681526020019081526020016000208054809190600190036122cb9190612e1b565b50612511565b600760008373ffffffffffffffffffffffffffffffffffffffff1673ffffffffffffffffffffffffffffffffffffffff1681526020019081526020016000206001820381548110151561232057fe5b9060005260206000209060039182820401919006600a029054906101000a900469ffffffffffffffffffff16600760008473ffffffffffffffffffffffffffffffffffffffff1673ffffffffffffffffffffffffffffffffffffffff1681526020019081526020016000208469ffffffffffffffffffff168154811015156123a457fe5b9060005260206000209060039182820401919006600a026101000a81548169ffffffffffffffffffff021916908369ffffffffffffffffffff1602179055508260056001016001600760008673ffffffffffffffffffffffffffffffffffffffff1673ffffffffffffffffffffffffffffffffffffffff1681526020019081526020016000206001850381548110151561243a57fe5b9060005260206000209060039182820401919006600a029054906101000a900469ffffffffffffffffffff160369ffffffffffffffffffff1681548110151561247f57fe5b906000526020600020906003020160010160000160146101000a81548169ffffffffffffffffffff021916908369ffffffffffffffffffff160217905550600760008373ffffffffffffffffffffffffffffffffffffffff1673ffffffffffffffffffffffffffffffffffffffff16815260200190815260200160002080548091906001900361250f9190612e1b565b505b50505050565b600080828401905083811015151561252e57600080fd5b8091505092915050565b60008260010180548060010182816125509190612e55565b9160005260206000209060030201600060606040519081016040528087600001600a9054906101000a900469ffffffffffffffffffff1669ffffffffffffffffffff168152602001600069ffffffffffffffffffff16815260200186815250909190915060008201518160000160006101000a81548169ffffffffffffffffffff021916908369ffffffffffffffffffff160217905550602082015181600001600a6101000a81548169ffffffffffffffffffff021916908369ffffffffffffffffffff16021790555060408201518160010160008201518160000160006101000a81548173ffffffffffffffffffffffffffffffffffffffff021916908373ffffffffffffffffffffffffffffffffffffffff16021790555060208201518160000160146101000a81548169ffffffffffffffffffff021916908369ffffffffffffffffffff160217905550604082015181600001601e6101000a81548160ff021916908360018111156126c157fe5b021790555060608201518160010155505050509050600069ffffffffffffffffffff1683600001600a9054906101000a900469ffffffffffffffffffff1669ffffffffffffffffffff16141561281557600069ffffffffffffffffffff168360000160009054906101000a900469ffffffffffffffffffff1669ffffffffffffffffffff16148015612779575060008360000160149054906101000a900469ffffffffffffffffffff1669ffffffffffffffffffff16145b151561278457600080fd5b8083600001600a6101000a81548169ffffffffffffffffffff021916908369ffffffffffffffffffff16021790558360000160006101000a81548169ffffffffffffffffffff021916908369ffffffffffffffffffff16021790555060018360000160146101000a81548169ffffffffffffffffffff021916908369ffffffffffffffffffff16021790555061290a565b8083600101600185600001600a9054906101000a900469ffffffffffffffffffff160369ffffffffffffffffffff1681548110151561285057fe5b9060005260206000209060030201600001600a6101000a81548169ffffffffffffffffffff021916908369ffffffffffffffffffff1602179055508083600001600a6101000a81548169ffffffffffffffffffff021916908369ffffffffffffffffffff16021790555082600001601481819054906101000a900469ffffffffffffffffffff168092919060010191906101000a81548169ffffffffffffffffffff021916908369ffffffffffffffffffff160217905550505b80905092915050565b6000826001016001830369ffffffffffffffffffff1681548110151561293557fe5b9060005260206000209060030201905060018360000160149054906101000a900469ffffffffffffffffffff1669ffffffffffffffffffff161415612a695760008360000160146101000a81548169ffffffffffffffffffff021916908369ffffffffffffffffffff16021790555060008360000160006101000a81548169ffffffffffffffffffff021916908369ffffffffffffffffffff160217905550600083600001600a6101000a81548169ffffffffffffffffffff021916908369ffffffffffffffffffff16021790555060008160000160006101000a81548169ffffffffffffffffffff021916908369ffffffffffffffffffff160217905550600081600001600a6101000a81548169ffffffffffffffffffff021916908369ffffffffffffffffffff160217905550612ddc565b600069ffffffffffffffffffff168160000160009054906101000a900469ffffffffffffffffffff1669ffffffffffffffffffff16148015612add5750600069ffffffffffffffffffff1681600001600a9054906101000a900469ffffffffffffffffffff1669ffffffffffffffffffff16145b15612ae757612ddc565b600069ffffffffffffffffffff168160000160009054906101000a900469ffffffffffffffffffff1669ffffffffffffffffffff161415612b6c5780600001600a9054906101000a900469ffffffffffffffffffff168360000160006101000a81548169ffffffffffffffffffff021916908369ffffffffffffffffffff1602179055505b600069ffffffffffffffffffff1681600001600a9054906101000a900469ffffffffffffffffffff1669ffffffffffffffffffff161415612bf1578060000160009054906101000a900469ffffffffffffffffffff1683600001600a6101000a81548169ffffffffffffffffffff021916908369ffffffffffffffffffff1602179055505b600069ffffffffffffffffffff168160000160009054906101000a900469ffffffffffffffffffff1669ffffffffffffffffffff16141515612cbe5780600001600a9054906101000a900469ffffffffffffffffffff168360010160018360000160009054906101000a900469ffffffffffffffffffff160369ffffffffffffffffffff16815481101515612c8257fe5b9060005260206000209060030201600001600a6101000a81548169ffffffffffffffffffff021916908369ffffffffffffffffffff1602179055505b600069ffffffffffffffffffff1681600001600a9054906101000a900469ffffffffffffffffffff1669ffffffffffffffffffff16141515612d8b578060000160009054906101000a900469ffffffffffffffffffff1683600101600183600001600a9054906101000a900469ffffffffffffffffffff160369ffffffffffffffffffff16815481101515612d4f57fe5b906000526020600020906003020160000160006101000a81548169ffffffffffffffffffff021916908369ffffffffffffffffffff1602179055505b82600001601481819054906101000a900469ffffffffffffffffffff16809291906001900391906101000a81548169ffffffffffffffffffff021916908369ffffffffffffffffffff160217905550505b505050565b815481835581811511612e16576002016003900481600201600390048360005260206000209182019101612e159190612e87565b5b505050565b815481835581811511612e50576002016003900481600201600390048360005260206000209182019101612e4f9190612e87565b5b505050565b815481835581811511612e8257600302816003028360005260206000209182019101612e819190612eac565b5b505050565b612ea991905b80821115612ea5576000816000905550600101612e8d565b5090565b90565b612f6991905b80821115612f6557600080820160006101000a81549069ffffffffffffffffffff021916905560008201600a6101000a81549069ffffffffffffffffffff021916905560018201600080820160006101000a81549073ffffffffffffffffffffffffffffffffffffffff02191690556000820160146101000a81549069ffffffffffffffffffff021916905560008201601e6101000a81549060ff02191690556001820160009055505050600301612eb2565b5090565b905600a165627a7a72305820668e9e507dbc5907320e3c13bd7a764c27477653d33f56c9a67bc5e122d9c66d0029",
  "source": "/*\nExchange augmint tokens <-> ETH\nIt's mock only yet, basic implemantion of selling tokens for ETH or vica versa.\nAll orders are on a market eth/pegged currency rate at the moment of fullmilment\nMarket rate is provided  by the rates contract\n\nTODO: add reentrancy protection\nTODO: add min exchanged amount param (set in token amount for both?)\n    + what if total leftover from fills  carried over to new order but it's small than minamount?\nTODO: astronomical gas costs when filling a lot of orders\n    + how to handle on client side (eg. estimate if it might be over the gas etc.)\nTODO: make orders generic, ie. more generic placeSellOrder func.\nTODO: test for rounding if could be any leftover after order fills\nTODO: add option to fill or kill (ie option to not place orders if can't fill from open orders)\nTODO: add option to pass a rate for fill or kill orders to avoid different rate if it changes while submitting\n        - it would ensure trade happens on predictable rate\nTODO: add orderId to token transfer narrative\n*/\npragma solidity 0.4.18;\nimport \"./generic/SafeMath.sol\";\nimport \"./generic/Owned.sol\";\nimport \"./generic/OrdersLib.sol\";\nimport \"./generic/AugmintToken.sol\";\nimport \"./Rates.sol\";\n\n\ncontract Exchange is Owned {\n    using SafeMath for uint256;\n    using OrdersLib for OrdersLib.OrderList;\n    using OrdersLib for OrdersLib.OrderData;\n\n    Rates public rates;\n    AugmintToken public augmintToken; // for transfers\n\n    // These should be equal to ETH and token Balances of contract\n    /* TODO: consider to remove these when rounding tested */\n    uint256 public totalTokenSellOrders;\n    uint256 public totalEthSellOrders;\n\n    /*\n     orders stores all open orders. It's a linked array, ordered by the order was placed\n     Order removed  when fully filled and updated when partially filled\n     Note that it contains only one type of orders (EthSell or UtcSell) at any given time\n        because all orders are on market rate\n     Ie. it's not a real order book\n    */\n    OrdersLib.OrderList public orders;\n\n    mapping(address => uint80[]) public m_orders; // orders for an account => orderId\n\n    function Exchange(address _augmintTokenAddress, address _ratesAddress) public Owned() {\n        rates = Rates(_ratesAddress);\n        augmintToken = AugmintToken(_augmintTokenAddress);\n    }\n\n    function getMakerOrderCount(address maker) external view returns(uint orderCount) {\n        return m_orders[maker].length;\n    }\n\n    function getMakerOrder(address maker, uint80 _makerOrderIdx) external view\n    returns(uint80 orderId, uint80 makerOrderIdx, OrdersLib.OrderType orderType, uint amount) {\n        orderId = m_orders[maker][_makerOrderIdx];\n        return (\n                orderId,\n                orders.orders[orderId - 1].order.makerOrderIdx,\n                orders.orders[orderId - 1].order.orderType,\n                orders.orders[orderId - 1].order.amount);\n    }\n\n    function getOrder(uint80 orderId) external view\n    returns(address maker, uint80 makerOrderIdx, OrdersLib.OrderType orderType, uint amount) {\n        return (orders.orders[orderId - 1].order.maker,\n                orders.orders[orderId - 1].order.makerOrderIdx,\n                orders.orders[orderId - 1].order.orderType,\n                orders.orders[orderId - 1].order.amount);\n    }\n\n    /* Helper function for client to reduce web3 calls when getting orderlist\n        Note: client should handle potential state changes in orders during iteration\n        Returns:\n            order data for orderId if order is open + next open orderId.\n            Passing 0 orderId will return first open order\n        Return values:\n         order.amount 0 returned then orderId is not open\n         nextOrderId 0 returned then no more open orders\n         For invalid orderId returns 0 order.amount and nextOrderId\n    */\n    function iterateOpenOrders(uint80 orderId) external view\n    returns (uint80 _orderId,\n                address maker,\n                uint80 makerOrderIdx,\n                OrdersLib.OrderType orderType,\n                uint amount,\n                uint80 nextOrderId) {\n        if (orders.first == 0) { // OrdersLib.None\n            // no open orders\n            return (0, address(0), 0, OrdersLib.OrderType.EthSell, 0, 0);\n        }\n        if (orderId == 0) {\n            //|| orders.orders[orderid-1].first == OrdersLib.None) {\n            _orderId = orders.first;\n        } else {\n            _orderId = orderId;\n        }\n\n        return (_orderId,\n                orders.orders[_orderId - 1].order.maker,\n                orders.orders[_orderId - 1].order.makerOrderIdx,\n                orders.orders[_orderId - 1].order.orderType,\n                orders.orders[_orderId - 1].order.amount,\n                orders.orders[_orderId - 1].next);\n    }\n\n    function placeSellEthOrder() external payable {\n        require(msg.value > 0); // FIXME: min amount? Shall we use min token amount instead of ETH value?\n        uint weiToSellLeft = msg.value;\n        uint tokenValueTotal = rates.convertFromWei(augmintToken.peggedSymbol(), weiToSellLeft);\n        uint tokenValueLeft = tokenValueTotal;\n        uint weiToPay;\n        uint tokenSold;\n        address maker;\n        // fill as much as we can from open buy eth orders\n        uint80 i;\n        uint80 nextOrderId = orders.iterateFirst();\n        while (orders.iterateValid(nextOrderId) && weiToSellLeft > 0 && // FIXME: minAmount to rounding acc?\n                totalTokenSellOrders != 0) {\n            i = nextOrderId;\n            nextOrderId = orders.iterateNext(i);\n            maker = orders.orders[i-1].order.maker;\n            if (orders.orders[i-1].order.amount >= tokenValueLeft) {\n                // sell order fully covered from maker buy order\n                tokenSold = tokenValueLeft;\n                weiToPay = weiToSellLeft;\n            } else {\n                // sell order partially covers buy order\n                tokenSold = orders.orders[i - 1].order.amount;\n                weiToPay = rates.convertToWei(augmintToken.peggedSymbol(), tokenSold);\n            }\n            tokenValueLeft = tokenValueLeft.sub(tokenSold);\n            weiToSellLeft = weiToSellLeft.sub(weiToPay);\n\n            fillOrder(i, msg.sender, tokenSold, weiToPay); // this pays the maker but not the taker yet\n\n        }\n        if (tokenValueTotal.sub(tokenValueLeft) > 0) {\n            // transfer the sum token value of all WEI sold with orderFills\n            augmintToken.transferNoFee(this, msg.sender, tokenValueTotal.sub(tokenValueLeft), \"token sold\");\n        }\n        if (weiToSellLeft != 0) {\n            // No buy order or buy orders wasn't enough to fully fill order\n            // ETH amount already on contract balance\n            addOrder(OrdersLib.OrderType.EthSell, msg.sender, weiToSellLeft);\n        }\n    }\n\n    function placeSellTokenOrder(uint tokenAmount) external {\n        require(tokenAmount > 0); // FIXME: min amount?\n        augmintToken.transferNoFee(msg.sender, this, tokenAmount, \"token sell order placed\");\n        uint weiValueTotal = rates.convertToWei(augmintToken.peggedSymbol(), tokenAmount);\n        uint weiValueLeft = weiValueTotal;\n        uint tokenToSellLeft = tokenAmount;\n        uint weiSold;\n        uint tokenToPay;\n        address maker;\n        // fill as much as we can from open buy token orders\n        uint80 i;\n        uint80 nextOrderId = orders.iterateFirst();\n        while (orders.iterateValid(nextOrderId) && weiValueLeft > 0 && // FIXME: minAmount to rounding acc?\n                totalEthSellOrders != 0) {\n            i = nextOrderId;\n            nextOrderId = orders.iterateNext(i);\n            maker = orders.orders[i-1].order.maker;\n            if (orders.orders[i-1].order.amount >= weiValueLeft) {\n                // sell order fully covered from maker buy order\n                weiSold = weiValueLeft;\n                tokenToPay = tokenToSellLeft;\n            } else {\n                // sell order partially covers buy order\n                weiSold = orders.orders[i-1].order.amount;\n                tokenToPay = rates.convertFromWei(augmintToken.peggedSymbol(), weiSold);\n            }\n            weiValueLeft = weiValueLeft.sub(weiSold);\n            tokenToSellLeft = tokenToSellLeft.sub(tokenToPay);\n            fillOrder(i, msg.sender, weiSold, tokenToPay); // this pays the maker but not the taker yet\n        }\n        // pay the sum WEI value of all token sold with orderFills to taker\n        msg.sender.transfer(weiValueTotal.sub(weiValueLeft));\n        if (tokenToSellLeft != 0) {\n            // No buy order or weren't enough buy orders to fully fill order\n            addOrder(OrdersLib.OrderType.TokenSell, msg.sender, tokenToSellLeft);\n        }\n    }\n\n    function getOrderCount() public view returns(uint80 orderCount) {\n        return orders.count;\n    }\n\n    event e_newOrder(uint80 orderId, OrdersLib.OrderType orderType, address maker, uint amount);\n\n    function addOrder(OrdersLib.OrderType orderType, address maker, uint amount) internal {\n        // It's assumed that the ETH/token already taken from maker in calling function\n        if (orderType == OrdersLib.OrderType.EthSell) {\n            totalEthSellOrders = totalEthSellOrders.add(amount);\n        } else if (orderType == OrdersLib.OrderType.TokenSell) {\n            totalTokenSellOrders = totalTokenSellOrders.add(amount);\n        } else {\n            revert();\n        }\n\n        uint80 orderId = orders.append(OrdersLib.OrderData(maker, 0, orderType, amount));\n        uint80 makerOrderIdx = uint80(m_orders[maker].push(orderId));\n        orders.orders[orderId-1].order.makerOrderIdx = makerOrderIdx - 1;\n\n        e_newOrder(orderId, orderType, maker, amount);\n        return;\n    }\n\n    event e_orderFill(uint80 orderId, address taker, uint amountSold, uint amountPaid);\n\n    function fillOrder(uint80 orderId, address taker,\n            uint amountToSell, uint amountToPay) internal {\n        // we only pay the maker here. Calling function must pay the sum of all buys to taker\n        OrdersLib.OrderType orderType = orders.orders[orderId - 1].order.orderType;\n        address maker = orders.orders[orderId-1].order.maker;\n        if (orderType == OrdersLib.OrderType.EthSell) {\n            augmintToken.transferNoFee(this, maker, amountToPay, \"ETH sold\");\n            totalEthSellOrders = totalEthSellOrders.sub(amountToSell);\n        } else if (orderType == OrdersLib.OrderType.TokenSell) {\n            maker.transfer(amountToPay);\n            totalTokenSellOrders = totalTokenSellOrders.sub(amountToSell);\n        } else {\n            revert();\n        }\n\n        orders.orders[orderId - 1].order.amount = orders.orders[orderId - 1].order.amount.sub(amountToSell);\n\n        if (orders.orders[orderId - 1].order.amount == 0) {\n            removeOrder(orderId);\n        }\n\n        e_orderFill(orderId, taker, amountToSell, amountToPay);\n    }\n\n    function removeOrder(uint80 orderId) internal {\n        uint80 makerOrderIdx = orders.orders[orderId-1].order.makerOrderIdx;\n        address maker = orders.orders[orderId-1].order.maker;\n        orders.remove(orderId);\n        uint len = m_orders[maker].length;\n        if (makerOrderIdx == len - 1) {\n            // last item\n            m_orders[maker].length--;\n        } else {\n            // not the last item, overwrite with last item and shrink array\n            m_orders[maker][makerOrderIdx] = m_orders[maker][len - 1];\n            orders.orders[m_orders[maker][len - 1] - 1].order.makerOrderIdx = makerOrderIdx;\n            m_orders[maker].length--;\n        }\n    }\n/*\n    function cancelOrder( uint80 orderId ) external {\n        // FIXME: to implement\n        // transfer ETH or token back\n         //orderId = orderId; // to supress compiler warnings\n         // FIXME: check orderId\n         // removeOrder( orderIdx)\n    }\n*/\n}\n",
  "sourcePath": "/Users/petro/ether/dcm-poc/contracts/Exchange.sol",
  "compiler": {
    "name": "solc",
    "version": "0.4.18+commit.9cf6e910.Emscripten.clang"
  },
  "schemaVersion": "1.0.1",
  "updatedAt": "2018-01-10T20:22:40.485Z"
}