{
  "contractName": "Exchange",
  "abi": [
    {
      "constant": false,
      "inputs": [
        {
          "name": "agent",
          "type": "address"
        },
        {
          "name": "requiredPermissions",
          "type": "bytes32[]"
        }
      ],
      "name": "revokeMulitplePermissions",
      "outputs": [],
      "payable": false,
      "stateMutability": "nonpayable",
      "type": "function"
    },
    {
      "constant": true,
      "inputs": [],
      "name": "rates",
      "outputs": [
        {
          "name": "",
          "type": "address"
        }
      ],
      "payable": false,
      "stateMutability": "view",
      "type": "function"
    },
    {
      "constant": true,
      "inputs": [],
      "name": "minOrderAmount",
      "outputs": [
        {
          "name": "",
          "type": "uint256"
        }
      ],
      "payable": false,
      "stateMutability": "view",
      "type": "function"
    },
    {
      "constant": true,
      "inputs": [],
      "name": "lastOrderId",
      "outputs": [
        {
          "name": "",
          "type": "uint256"
        }
      ],
      "payable": false,
      "stateMutability": "view",
      "type": "function"
    },
    {
      "constant": true,
      "inputs": [
        {
          "name": "",
          "type": "address"
        },
        {
          "name": "",
          "type": "bytes32"
        }
      ],
      "name": "permissions",
      "outputs": [
        {
          "name": "",
          "type": "bool"
        }
      ],
      "payable": false,
      "stateMutability": "view",
      "type": "function"
    },
    {
      "constant": true,
      "inputs": [],
      "name": "ORDER_MATCH_WORST_GAS",
      "outputs": [
        {
          "name": "",
          "type": "uint32"
        }
      ],
      "payable": false,
      "stateMutability": "view",
      "type": "function"
    },
    {
      "constant": false,
      "inputs": [
        {
          "name": "agent",
          "type": "address"
        },
        {
          "name": "requiredPermission",
          "type": "bytes32"
        }
      ],
      "name": "revokePermission",
      "outputs": [],
      "payable": false,
      "stateMutability": "nonpayable",
      "type": "function"
    },
    {
      "constant": true,
      "inputs": [
        {
          "name": "",
          "type": "uint256"
        }
      ],
      "name": "sellTokenOrders",
      "outputs": [
        {
          "name": "id",
          "type": "uint256"
        },
        {
          "name": "maker",
          "type": "address"
        },
        {
          "name": "addedTime",
          "type": "uint256"
        },
        {
          "name": "price",
          "type": "uint256"
        },
        {
          "name": "amount",
          "type": "uint256"
        }
      ],
      "payable": false,
      "stateMutability": "view",
      "type": "function"
    },
    {
      "constant": true,
      "inputs": [],
      "name": "augmintToken",
      "outputs": [
        {
          "name": "",
          "type": "address"
        }
      ],
      "payable": false,
      "stateMutability": "view",
      "type": "function"
    },
    {
      "constant": false,
      "inputs": [
        {
          "name": "agent",
          "type": "address"
        },
        {
          "name": "requiredPermissions",
          "type": "bytes32[]"
        }
      ],
      "name": "grantMultiplePermissions",
      "outputs": [],
      "payable": false,
      "stateMutability": "nonpayable",
      "type": "function"
    },
    {
      "constant": true,
      "inputs": [
        {
          "name": "",
          "type": "uint256"
        }
      ],
      "name": "buyTokenOrders",
      "outputs": [
        {
          "name": "id",
          "type": "uint256"
        },
        {
          "name": "maker",
          "type": "address"
        },
        {
          "name": "addedTime",
          "type": "uint256"
        },
        {
          "name": "price",
          "type": "uint256"
        },
        {
          "name": "amount",
          "type": "uint256"
        }
      ],
      "payable": false,
      "stateMutability": "view",
      "type": "function"
    },
    {
      "constant": false,
      "inputs": [
        {
          "name": "agent",
          "type": "address"
        },
        {
          "name": "requiredPermission",
          "type": "bytes32"
        }
      ],
      "name": "grantPermission",
      "outputs": [],
      "payable": false,
      "stateMutability": "nonpayable",
      "type": "function"
    },
    {
      "inputs": [
        {
          "name": "augmintTokenAddress",
          "type": "address"
        },
        {
          "name": "ratesAddress",
          "type": "address"
        },
        {
          "name": "_minOrderAmount",
          "type": "uint256"
        }
      ],
      "payable": false,
      "stateMutability": "nonpayable",
      "type": "constructor"
    },
    {
      "anonymous": false,
      "inputs": [
        {
          "indexed": false,
          "name": "orderIndex",
          "type": "uint256"
        },
        {
          "indexed": true,
          "name": "orderId",
          "type": "uint256"
        },
        {
          "indexed": true,
          "name": "maker",
          "type": "address"
        },
        {
          "indexed": false,
          "name": "price",
          "type": "uint256"
        },
        {
          "indexed": false,
          "name": "tokenAmount",
          "type": "uint256"
        },
        {
          "indexed": false,
          "name": "weiAmount",
          "type": "uint256"
        }
      ],
      "name": "NewOrder",
      "type": "event"
    },
    {
      "anonymous": false,
      "inputs": [
        {
          "indexed": true,
          "name": "tokenBuyer",
          "type": "address"
        },
        {
          "indexed": true,
          "name": "tokenSeller",
          "type": "address"
        },
        {
          "indexed": false,
          "name": "buyTokenOrderId",
          "type": "uint256"
        },
        {
          "indexed": false,
          "name": "sellTokenOrderId",
          "type": "uint256"
        },
        {
          "indexed": false,
          "name": "price",
          "type": "uint256"
        },
        {
          "indexed": false,
          "name": "weiAmount",
          "type": "uint256"
        },
        {
          "indexed": false,
          "name": "tokenAmount",
          "type": "uint256"
        }
      ],
      "name": "OrderFill",
      "type": "event"
    },
    {
      "anonymous": false,
      "inputs": [
        {
          "indexed": true,
          "name": "orderId",
          "type": "uint256"
        },
        {
          "indexed": true,
          "name": "maker",
          "type": "address"
        },
        {
          "indexed": false,
          "name": "tokenAmount",
          "type": "uint256"
        },
        {
          "indexed": false,
          "name": "weiAmount",
          "type": "uint256"
        }
      ],
      "name": "CancelledOrder",
      "type": "event"
    },
    {
      "anonymous": false,
      "inputs": [
        {
          "indexed": false,
          "name": "newMinOrderAmount",
          "type": "uint256"
        }
      ],
      "name": "MinOrderAmountChanged",
      "type": "event"
    },
    {
      "anonymous": false,
      "inputs": [
        {
          "indexed": true,
          "name": "agent",
          "type": "address"
        },
        {
          "indexed": false,
          "name": "grantedPermission",
          "type": "bytes32"
        }
      ],
      "name": "PermissionGranted",
      "type": "event"
    },
    {
      "anonymous": false,
      "inputs": [
        {
          "indexed": true,
          "name": "agent",
          "type": "address"
        },
        {
          "indexed": false,
          "name": "revokedPermission",
          "type": "bytes32"
        }
      ],
      "name": "PermissionRevoked",
      "type": "event"
    },
    {
      "constant": false,
      "inputs": [
        {
          "name": "price",
          "type": "uint256"
        }
      ],
      "name": "placeBuyTokenOrder",
      "outputs": [
        {
          "name": "orderIndex",
          "type": "uint256"
        },
        {
          "name": "orderId",
          "type": "uint256"
        }
      ],
      "payable": true,
      "stateMutability": "payable",
      "type": "function"
    },
    {
      "constant": false,
      "inputs": [
        {
          "name": "price",
          "type": "uint256"
        },
        {
          "name": "tokenAmount",
          "type": "uint256"
        }
      ],
      "name": "placeSellTokenOrder",
      "outputs": [
        {
          "name": "orderIndex",
          "type": "uint256"
        },
        {
          "name": "orderId",
          "type": "uint256"
        }
      ],
      "payable": false,
      "stateMutability": "nonpayable",
      "type": "function"
    },
    {
      "constant": false,
      "inputs": [
        {
          "name": "maker",
          "type": "address"
        },
        {
          "name": "price",
          "type": "uint256"
        },
        {
          "name": "tokenAmount",
          "type": "uint256"
        }
      ],
      "name": "placeSellTokenOrderTrusted",
      "outputs": [
        {
          "name": "orderIndex",
          "type": "uint256"
        },
        {
          "name": "orderId",
          "type": "uint256"
        }
      ],
      "payable": false,
      "stateMutability": "nonpayable",
      "type": "function"
    },
    {
      "constant": false,
      "inputs": [
        {
          "name": "buyTokenIndex",
          "type": "uint256"
        },
        {
          "name": "buyTokenId",
          "type": "uint256"
        }
      ],
      "name": "cancelBuyTokenOrder",
      "outputs": [],
      "payable": false,
      "stateMutability": "nonpayable",
      "type": "function"
    },
    {
      "constant": false,
      "inputs": [
        {
          "name": "sellTokenIndex",
          "type": "uint256"
        },
        {
          "name": "sellTokenId",
          "type": "uint256"
        }
      ],
      "name": "cancelSellTokenOrder",
      "outputs": [],
      "payable": false,
      "stateMutability": "nonpayable",
      "type": "function"
    },
    {
      "constant": false,
      "inputs": [
        {
          "name": "buyTokenIndex",
          "type": "uint256"
        },
        {
          "name": "buyTokenId",
          "type": "uint256"
        },
        {
          "name": "sellTokenIndex",
          "type": "uint256"
        },
        {
          "name": "sellTokenId",
          "type": "uint256"
        }
      ],
      "name": "matchOrders",
      "outputs": [],
      "payable": false,
      "stateMutability": "nonpayable",
      "type": "function"
    },
    {
      "constant": false,
      "inputs": [
        {
          "name": "buyTokenIndexes",
          "type": "uint256[]"
        },
        {
          "name": "buyTokenIds",
          "type": "uint256[]"
        },
        {
          "name": "sellTokenIndexes",
          "type": "uint256[]"
        },
        {
          "name": "sellTokenIds",
          "type": "uint256[]"
        }
      ],
      "name": "matchMultipleOrders",
      "outputs": [
        {
          "name": "i",
          "type": "uint256"
        }
      ],
      "payable": false,
      "stateMutability": "nonpayable",
      "type": "function"
    },
    {
      "constant": false,
      "inputs": [
        {
          "name": "_minOrderAmount",
          "type": "uint256"
        }
      ],
      "name": "setMinOrderAmount",
      "outputs": [],
      "payable": false,
      "stateMutability": "nonpayable",
      "type": "function"
    },
    {
      "constant": true,
      "inputs": [],
      "name": "getOrderCounts",
      "outputs": [
        {
          "name": "buyTokenOrderCount",
          "type": "uint256"
        },
        {
          "name": "sellTokenOrderCount",
          "type": "uint256"
        }
      ],
      "payable": false,
      "stateMutability": "view",
      "type": "function"
    },
    {
      "constant": true,
      "inputs": [
        {
          "name": "offset",
          "type": "uint256"
        }
      ],
      "name": "getOrders",
      "outputs": [
        {
          "name": "response",
          "type": "uint256[6][50]"
        },
        {
          "name": "makers",
          "type": "address[50]"
        }
      ],
      "payable": false,
      "stateMutability": "view",
      "type": "function"
    },
    {
      "constant": true,
      "inputs": [
        {
          "name": "buyTokenIndex",
          "type": "uint256"
        },
        {
          "name": "buyTokenId",
          "type": "uint256"
        },
        {
          "name": "sellTokenIndex",
          "type": "uint256"
        },
        {
          "name": "sellTokenId",
          "type": "uint256"
        }
      ],
      "name": "isValidMatch",
      "outputs": [
        {
          "name": "",
          "type": "bool"
        }
      ],
      "payable": false,
      "stateMutability": "view",
      "type": "function"
    }
  ],
  "bytecode": "0x6060604052341561000f57600080fd5b604051606080612a6c8339810160405280805190602001909190805190602001909190805190602001909190505060016000803373ffffffffffffffffffffffffffffffffffffffff1673ffffffffffffffffffffffffffffffffffffffff16815260200190815260200160002060007f4d6f6e6574617279426f6172640000000000000000000000000000000000000060001916815260200190815260200160002060006101000a81548160ff0219169083151502179055503373ffffffffffffffffffffffffffffffffffffffff167fc65937e3dbcb9fb30f646815dd67a3dbd09ba17718cbcb54efbe3635f8e0a6fe60405180807f4d6f6e6574617279426f61726400000000000000000000000000000000000000815250602001905060405180910390a282600160006101000a81548173ffffffffffffffffffffffffffffffffffffffff021916908373ffffffffffffffffffffffffffffffffffffffff16021790555081600260006101000a81548173ffffffffffffffffffffffffffffffffffffffff021916908373ffffffffffffffffffffffffffffffffffffffff1602179055508060068190555050505061289a806101d26000396000f300606060405260043610610133576000357c0100000000000000000000000000000000000000000000000000000000900463ffffffff16806305e0141d146101385780630da32eaa146101e95780632001b3241461026257806343f48fbd146102a957806346b62c4a146102fe5780635662ecc7146103275780635b225526146103505780635d66210e146103ae5780635fe07013146103e35780636bcb441b146104295780636c0f41d8146104555780636cf84882146104885780637a5e129d146104c65780637aa9d6dc146105455780637b9b9c89146105c35780637d381efe146106185780639ac3317b146106485780639e2ca657146106c1578063a3b8ef04146106ed578063f14eb3a114610710578063f38a82621461078f578063f7e8953b146107d5578063f830b71e1461083b575b600080fd5b341561014357600080fd5b6101596004808035906020019091905050610891565b604051808360326000925b818410156101aa5782846020020151600660200280838360005b8381101561019957808201518184015260208101905061017e565b505050509050019260010192610164565b9250505082603260200280838360005b838110156101d55780820151818401526020810190506101ba565b505050509050019250505060405180910390f35b34156101f457600080fd5b610260600480803573ffffffffffffffffffffffffffffffffffffffff1690602001909190803590602001908201803590602001908080602002602001604051908101604052809392919081815260200183836020028082843782019150505050505091905050610bf7565b005b341561026d57600080fd5b61028c6004808035906020019091908035906020019091905050610c3f565b604051808381526020018281526020019250505060405180910390f35b34156102b457600080fd5b6102bc610d9d565b604051808273ffffffffffffffffffffffffffffffffffffffff1673ffffffffffffffffffffffffffffffffffffffff16815260200191505060405180910390f35b341561030957600080fd5b610311610dc3565b6040518082815260200191505060405180910390f35b341561033257600080fd5b61033a610dc9565b6040518082815260200191505060405180910390f35b341561035b57600080fd5b610394600480803573ffffffffffffffffffffffffffffffffffffffff1690602001909190803560001916906020019091905050610dcf565b604051808215151515815260200191505060405180910390f35b34156103b957600080fd5b6103c1610dfe565b604051808263ffffffff1663ffffffff16815260200191505060405180910390f35b34156103ee57600080fd5b610427600480803573ffffffffffffffffffffffffffffffffffffffff1690602001909190803560001916906020019091905050610e05565b005b341561043457600080fd5b6104536004808035906020019091908035906020019091905050610ecf565b005b61046b600480803590602001909190505061105e565b604051808381526020018281526020019250505060405180910390f35b341561049357600080fd5b6104c4600480803590602001909190803590602001909190803590602001909190803590602001909190505061138e565b005b34156104d157600080fd5b6104e760048080359060200190919050506113e2565b604051808681526020018573ffffffffffffffffffffffffffffffffffffffff1673ffffffffffffffffffffffffffffffffffffffff1681526020018481526020018381526020018281526020019550505050505060405180910390f35b341561055057600080fd5b6105ad60048080359060200190820180359060200191909192908035906020019082018035906020019190919290803590602001908201803590602001919091929080359060200190820180359060200191909192905050611447565b6040518082815260200191505060405180910390f35b34156105ce57600080fd5b6105d66115a0565b604051808273ffffffffffffffffffffffffffffffffffffffff1673ffffffffffffffffffffffffffffffffffffffff16815260200191505060405180910390f35b341561062357600080fd5b61062b6115c6565b604051808381526020018281526020019250505060405180910390f35b341561065357600080fd5b6106bf600480803573ffffffffffffffffffffffffffffffffffffffff16906020019091908035906020019082018035906020019080806020026020016040519081016040528093929190818152602001838360200280828437820191505050505050919050506115dd565b005b34156106cc57600080fd5b6106eb60048080359060200190919080359060200190919050506116b1565b005b34156106f857600080fd5b61070e6004808035906020019091905050611911565b005b341561071b57600080fd5b61073160048080359060200190919050506119e6565b604051808681526020018573ffffffffffffffffffffffffffffffffffffffff1673ffffffffffffffffffffffffffffffffffffffff1681526020018481526020018381526020018281526020019550505050505060405180910390f35b341561079a57600080fd5b6107d3600480803573ffffffffffffffffffffffffffffffffffffffff1690602001909190803560001916906020019091905050611a4b565b005b34156107e057600080fd5b61081e600480803573ffffffffffffffffffffffffffffffffffffffff16906020019091908035906020019091908035906020019091905050611ba1565b604051808381526020018281526020019250505060405180910390f35b341561084657600080fd5b6108776004808035906020019091908035906020019091908035906020019091908035906020019091905050611c17565b604051808215151515815260200191505060405180910390f35b6108996126fa565b6108a1612729565b6108a9612768565b600080600086600480549050106108c15760006108ca565b60048054905087035b9250600091505b60328260ff161080156108ed5750600480549050878360ff1601105b15610a575760048260ff16880181548110151561090657fe5b906000526020600020906005020160a06040519081016040529081600082015481526020016001820160009054906101000a900473ffffffffffffffffffffffffffffffffffffffff1673ffffffffffffffffffffffffffffffffffffffff1673ffffffffffffffffffffffffffffffffffffffff1681526020016002820154815260200160038201548152602001600482015481525050935060c0604051908101604052808360ff1689018152602001856000015181526020018560400151815260200185606001518152602001600081526020018560800151815250868360ff166032811015156109f557fe5b60200201819052508360200151858360ff16603281101515610a1357fe5b602002019073ffffffffffffffffffffffffffffffffffffffff16908173ffffffffffffffffffffffffffffffffffffffff168152505081806001019250506108d1565b600090505b603282820160ff16108015610a7a57506005805490508160ff168401105b15610be85760058160ff168401815481101515610a9357fe5b906000526020600020906005020160a06040519081016040529081600082015481526020016001820160009054906101000a900473ffffffffffffffffffffffffffffffffffffffff1673ffffffffffffffffffffffffffffffffffffffff1673ffffffffffffffffffffffffffffffffffffffff1681526020016002820154815260200160038201548152602001600482015481525050935060c0604051908101604052808260ff16850181526020018560000151815260200185604001518152602001856060015181526020018560800151815260200160008152508682840160ff16603281101515610b8457fe5b602002018190525083602001518582840160ff16603281101515610ba457fe5b602002019073ffffffffffffffffffffffffffffffffffffffff16908173ffffffffffffffffffffffffffffffffffffffff16815250508080600101915050610a5c565b85859550955050505050915091565b60008082519150600090505b81811015610c3957610c2c848483815181101515610c1d57fe5b90602001906020020151610e05565b8080600101915050610c03565b50505050565b600080600160009054906101000a900473ffffffffffffffffffffffffffffffffffffffff1673ffffffffffffffffffffffffffffffffffffffff166304282d253330866040518463ffffffff167c0100000000000000000000000000000000000000000000000000000000028152600401808473ffffffffffffffffffffffffffffffffffffffff1673ffffffffffffffffffffffffffffffffffffffff1681526020018373ffffffffffffffffffffffffffffffffffffffff1673ffffffffffffffffffffffffffffffffffffffff16815260200182815260200180602001828103825260178152602001807f53656c6c20746f6b656e206f7264657220706c61636564000000000000000000815250602001945050505050600060405180830381600087803b1515610d7357600080fd5b6102c65a03f11515610d8457600080fd5b505050610d92338585611cbd565b915091509250929050565b600260009054906101000a900473ffffffffffffffffffffffffffffffffffffffff1681565b60065481565b60035481565b60006020528160005260406000206020528060005260406000206000915091509054906101000a900460ff1681565b62030d4081565b60008060008473ffffffffffffffffffffffffffffffffffffffff1673ffffffffffffffffffffffffffffffffffffffff1681526020019081526020016000206000836000191660001916815260200190815260200160002060006101000a81548160ff0219169083151502179055508173ffffffffffffffffffffffffffffffffffffffff167f789770131846de4d1f28418f0f957cdf4fcabe5eccf70067083e20ecece69a348260405180826000191660001916815260200191505060405180910390a25050565b3373ffffffffffffffffffffffffffffffffffffffff16600483815481101515610ef557fe5b906000526020600020906005020160010160009054906101000a900473ffffffffffffffffffffffffffffffffffffffff1673ffffffffffffffffffffffffffffffffffffffff16141515610f4957600080fd5b600482815481101515610f5857fe5b90600052602060002090600502016000015481141515610f7757600080fd5b3373ffffffffffffffffffffffffffffffffffffffff166108fc600484815481101515610fa057fe5b9060005260206000209060050201600401549081150290604051600060405180830381858888f193505050501515610fd757600080fd5b3373ffffffffffffffffffffffffffffffffffffffff16817f61a4c3ec95de122096d654ab66ccf22fc8dc74fab994e098df193c7b7d79ebe9600060048681548110151561102157fe5b906000526020600020906005020160040154604051808381526020018281526020019250505060405180910390a361105a600483611e5a565b5050565b6000806000808411151561107157600080fd5b60003411151561108057600080fd5b600260009054906101000a900473ffffffffffffffffffffffffffffffffffffffff1673ffffffffffffffffffffffffffffffffffffffff166382f5e31b600160009054906101000a900473ffffffffffffffffffffffffffffffffffffffff1673ffffffffffffffffffffffffffffffffffffffff166333a263e66000604051602001526040518163ffffffff167c0100000000000000000000000000000000000000000000000000000000028152600401602060405180830381600087803b151561114c57600080fd5b6102c65a03f1151561115d57600080fd5b5050506040518051905061118e6127106111808934611f5490919063ffffffff16565b611f9890919063ffffffff16565b6000604051602001526040518363ffffffff167c010000000000000000000000000000000000000000000000000000000002815260040180836000191660001916815260200182815260200192505050602060405180830381600087803b15156111f757600080fd5b6102c65a03f1151561120857600080fd5b505050604051805190509050600654811015151561122557600080fd5b60036000815480929190600101919050555060016004805480600101828161124d91906127ae565b9160005260206000209060050201600060a06040519081016040528060035481526020013373ffffffffffffffffffffffffffffffffffffffff1681526020014281526020018981526020013481525090919091506000820151816000015560208201518160010160006101000a81548173ffffffffffffffffffffffffffffffffffffffff021916908373ffffffffffffffffffffffffffffffffffffffff16021790555060408201518160020155606082015181600301556080820151816004015550500392503373ffffffffffffffffffffffffffffffffffffffff166003547f724e82de9e81c8a3a2070a76f1725eae61d722a42c0edd94b09e7b79d7b0e6f285876000346040518085815260200184815260200183815260200182815260200194505050505060405180910390a3826003549250925050915091565b60008061139d86868686611c17565b15156113a857600080fd5b6113b28685611fce565b9150915080156113c8576113c7600585611e5a565b5b81156113da576113d9600487611e5a565b5b505050505050565b6005818154811015156113f157fe5b90600052602060002090600502016000915090508060000154908060010160009054906101000a900473ffffffffffffffffffffffffffffffffffffffff16908060020154908060030154908060040154905085565b60008060008092505b8a8a90508310801561146a575062030d4063ffffffff165a115b1561159b576114cb8b8b85818110151561148057fe5b905060200201358a8a86818110151561149557fe5b9050602002013589898781811015156114aa57fe5b9050602002013588888881811015156114bf57fe5b90506020020135611c17565b15156114d65761159b565b6115088b8b8581811015156114e757fe5b9050602002013588888681811015156114fc57fe5b90506020020135611fce565b91509150811561154d57600060048c8c86818110151561152457fe5b9050602002013581548110151561153757fe5b9060005260206000209060050201600401819055505b801561158e5760006005888886818110151561156557fe5b9050602002013581548110151561157857fe5b9060005260206000209060050201600401819055505b8280600101935050611450565b600080fd5b600160009054906101000a900473ffffffffffffffffffffffffffffffffffffffff1681565b600080600480549050600580549050915091509091565b6000806000803373ffffffffffffffffffffffffffffffffffffffff1673ffffffffffffffffffffffffffffffffffffffff16815260200190815260200160002060007f4d6f6e6574617279426f6172640000000000000000000000000000000000000060001916815260200190815260200160002060009054906101000a900460ff16151561166c57600080fd5b82519150600090505b818110156116ab5761169e84848381518110151561168f57fe5b90602001906020020151611a4b565b8080600101915050611675565b50505050565b3373ffffffffffffffffffffffffffffffffffffffff166005838154811015156116d757fe5b906000526020600020906005020160010160009054906101000a900473ffffffffffffffffffffffffffffffffffffffff1673ffffffffffffffffffffffffffffffffffffffff1614151561172b57600080fd5b60058281548110151561173a57fe5b9060005260206000209060050201600001548114151561175957600080fd5b600160009054906101000a900473ffffffffffffffffffffffffffffffffffffffff1673ffffffffffffffffffffffffffffffffffffffff1663ab1f0327336005858154811015156117a757fe5b9060005260206000209060050201600401546040518363ffffffff167c0100000000000000000000000000000000000000000000000000000000028152600401808373ffffffffffffffffffffffffffffffffffffffff1673ffffffffffffffffffffffffffffffffffffffff168152602001828152602001806020018281038252601a8152602001807f53656c6c20746f6b656e206f726465722063616e63656c6c65640000000000008152506020019350505050600060405180830381600087803b151561187657600080fd5b6102c65a03f1151561188757600080fd5b5050503373ffffffffffffffffffffffffffffffffffffffff16817f61a4c3ec95de122096d654ab66ccf22fc8dc74fab994e098df193c7b7d79ebe96005858154811015156118d257fe5b9060005260206000209060050201600401546000604051808381526020018281526020019250505060405180910390a361190d600583611e5a565b5050565b7f4d6f6e6574617279426f617264000000000000000000000000000000000000006000803373ffffffffffffffffffffffffffffffffffffffff1673ffffffffffffffffffffffffffffffffffffffff1681526020019081526020016000206000826000191660001916815260200190815260200160002060009054906101000a900460ff1615156119a257600080fd5b816006819055507fd47f797ef16d066fe9af8c5e52ca02dcd115792897ba09baaddbc728fe48bfd26006546040518082815260200191505060405180910390a15050565b6004818154811015156119f557fe5b90600052602060002090600502016000915090508060000154908060010160009054906101000a900473ffffffffffffffffffffffffffffffffffffffff16908060020154908060030154908060040154905085565b6000803373ffffffffffffffffffffffffffffffffffffffff1673ffffffffffffffffffffffffffffffffffffffff16815260200190815260200160002060007f4d6f6e6574617279426f6172640000000000000000000000000000000000000060001916815260200190815260200160002060009054906101000a900460ff161515611ad757600080fd5b60016000808473ffffffffffffffffffffffffffffffffffffffff1673ffffffffffffffffffffffffffffffffffffffff1681526020019081526020016000206000836000191660001916815260200190815260200160002060006101000a81548160ff0219169083151502179055508173ffffffffffffffffffffffffffffffffffffffff167fc65937e3dbcb9fb30f646815dd67a3dbd09ba17718cbcb54efbe3635f8e0a6fe8260405180826000191660001916815260200191505060405180910390a25050565b600080600160009054906101000a900473ffffffffffffffffffffffffffffffffffffffff1673ffffffffffffffffffffffffffffffffffffffff163373ffffffffffffffffffffffffffffffffffffffff16141515611c0057600080fd5b611c0b858585611cbd565b91509150935093915050565b6000600485815481101515611c2857fe5b90600052602060002090600502016000015484148015611c675750600583815481101515611c5257fe5b90600052602060002090600502016000015482145b8015611cb35750600583815481101515611c7d57fe5b906000526020600020906005020160030154600486815481101515611c9e57fe5b90600052602060002090600502016003015410155b9050949350505050565b600080600084111515611ccf57600080fd5b600083111515611cde57600080fd5b6006548310151515611cef57600080fd5b600360008154809291906001019190505550600160058054806001018281611d1791906127ae565b9160005260206000209060050201600060a06040519081016040528060035481526020018a73ffffffffffffffffffffffffffffffffffffffff1681526020014281526020018981526020018881525090919091506000820151816000015560208201518160010160006101000a81548173ffffffffffffffffffffffffffffffffffffffff021916908373ffffffffffffffffffffffffffffffffffffffff16021790555060408201518160020155606082015181600301556080820151816004015550500391508473ffffffffffffffffffffffffffffffffffffffff166003547f724e82de9e81c8a3a2070a76f1725eae61d722a42c0edd94b09e7b79d7b0e6f284878760006040518085815260200184815260200183815260200182815260200194505050505060405180910390a38160035491509150935093915050565b6001828054905003811015611f3b57816001838054905003815481101515611e7e57fe5b90600052602060002090600502018282815481101515611e9a57fe5b9060005260206000209060050201600082015481600001556001820160009054906101000a900473ffffffffffffffffffffffffffffffffffffffff168160010160006101000a81548173ffffffffffffffffffffffffffffffffffffffff021916908373ffffffffffffffffffffffffffffffffffffffff1602179055506002820154816002015560038201548160030155600482015481600401559050505b81805480919060019003611f4f91906127ae565b505050565b6000808284811515611f6257fe5b049050600283811515611f7157fe5b048385811515611f7d57fe5b06101515611f8e5780806001019150505b8091505092915050565b60008082840290506000841480611fb95750828482811515611fb657fe5b04145b1515611fc457600080fd5b8091505092915050565b60008060008060008060008060048a815481101515611fe957fe5b9060005260206000209060050201955060058981548110151561200857fe5b9060005260206000209060050201945061202a8660030154866003015461267f565b93506121c2612710600260009054906101000a900473ffffffffffffffffffffffffffffffffffffffff1673ffffffffffffffffffffffffffffffffffffffff16635c481d8b600160009054906101000a900473ffffffffffffffffffffffffffffffffffffffff1673ffffffffffffffffffffffffffffffffffffffff166333a263e66000604051602001526040518163ffffffff167c0100000000000000000000000000000000000000000000000000000000028152600401602060405180830381600087803b15156120fe57600080fd5b6102c65a03f1151561210f57600080fd5b50505060405180519050612130898b60040154611f9890919063ffffffff16565b6000604051602001526040518363ffffffff167c010000000000000000000000000000000000000000000000000000000002815260040180836000191660001916815260200182815260200192505050602060405180830381600087803b151561219957600080fd5b6102c65a03f115156121aa57600080fd5b50505060405180519050611f5490919063ffffffff16565b92508560040154831115156121e05782915084600401549050612380565b85600401549150600260009054906101000a900473ffffffffffffffffffffffffffffffffffffffff1673ffffffffffffffffffffffffffffffffffffffff166382f5e31b600160009054906101000a900473ffffffffffffffffffffffffffffffffffffffff1673ffffffffffffffffffffffffffffffffffffffff166333a263e66000604051602001526040518163ffffffff167c0100000000000000000000000000000000000000000000000000000000028152600401602060405180830381600087803b15156122b357600080fd5b6102c65a03f115156122c457600080fd5b505050604051805190506122f96127106122eb898c60040154611f5490919063ffffffff16565b611f9890919063ffffffff16565b6000604051602001526040518363ffffffff167c010000000000000000000000000000000000000000000000000000000002815260040180836000191660001916815260200182815260200192505050602060405180830381600087803b151561236257600080fd5b6102c65a03f1151561237357600080fd5b5050506040518051905090505b8460040154811496508560040154821497508715156123ac578186600401600082825403925050819055505b8615156123c6578085600401600082825403925050819055505b8460010160009054906101000a900473ffffffffffffffffffffffffffffffffffffffff1673ffffffffffffffffffffffffffffffffffffffff166108fc839081150290604051600060405180830381858888f19350505050151561242a57600080fd5b600160009054906101000a900473ffffffffffffffffffffffffffffffffffffffff1673ffffffffffffffffffffffffffffffffffffffff1663ab1f03278760010160009054906101000a900473ffffffffffffffffffffffffffffffffffffffff16836040518363ffffffff167c0100000000000000000000000000000000000000000000000000000000028152600401808373ffffffffffffffffffffffffffffffffffffffff1673ffffffffffffffffffffffffffffffffffffffff16815260200182815260200180602001828103825260148152602001807f42757920746f6b656e206f726465722066696c6c0000000000000000000000008152506020019350505050600060405180830381600087803b151561254b57600080fd5b6102c65a03f1151561255c57600080fd5b5050508460010160009054906101000a900473ffffffffffffffffffffffffffffffffffffffff1673ffffffffffffffffffffffffffffffffffffffff168660010160009054906101000a900473ffffffffffffffffffffffffffffffffffffffff1673ffffffffffffffffffffffffffffffffffffffff167ff800bd56a5db2764620505d2880a4bff9e4406107f48f8913c07b3626b7720d460048d81548110151561260557fe5b90600052602060002090600502016000015460058d81548110151561262657fe5b906000526020600020906005020160000154888787604051808681526020018581526020018481526020018381526020018281526020019550505050505060405180910390a38787975097505050505050509250929050565b6000806000612710841115801561269857506127108510155b156126a75761271092506126ef565b61271084116126ba5783612710036126c0565b61271084035b915061271085116126d55784612710036126db565b61271085035b90508082116126ea57836126ec565b845b92505b829250505092915050565b612580604051908101604052806032905b6127136127e0565b81526020019060019003908161270b5790505090565b610640604051908101604052806032905b600073ffffffffffffffffffffffffffffffffffffffff1681526020019060019003908161273a5790505090565b60a06040519081016040528060008152602001600073ffffffffffffffffffffffffffffffffffffffff1681526020016000815260200160008152602001600081525090565b8154818355818115116127db576005028160050283600052602060002091820191016127da9190612808565b5b505050565b60c0604051908101604052806006905b60008152602001906001900390816127f05790505090565b61286b91905b80821115612867576000808201600090556001820160006101000a81549073ffffffffffffffffffffffffffffffffffffffff02191690556002820160009055600382016000905560048201600090555060050161280e565b5090565b905600a165627a7a7230582086a515fd7e1196302b48069db97952213611ce8267c1d13aabf48de5a4b1e4a20029",
  "source": "/* Augmint's internal Exchange\n    TODO: finish matchMultipleOrders()\n    TODO: check/test if underflow possible on sell/buyORder.amount -= token/weiAmount in matchOrders()\n    TODO: deduct fee\n    TODO: consider take funcs (frequent rate changes with takeBuyToken? send more and send back remainder?)\n*/\npragma solidity 0.4.19;\nimport \"./interfaces/ExchangeInterface.sol\";\n\n\ncontract Exchange is ExchangeInterface {\n    uint public minOrderAmount; // 0: no limit. For placeBuyTokenOrder it's calculated on current rate & price provided\n\n    /* used to stop executing matchMultiple when running out of gas.\n        actual is much less, just leaving enough matchMultipleOrders() to finish TODO: fine tune & test it*/\n    uint32 public constant ORDER_MATCH_WORST_GAS = 200000;\n\n    event NewOrder(uint orderIndex, uint indexed orderId, address indexed maker, uint price, uint tokenAmount,\n        uint weiAmount);\n\n    event OrderFill(address indexed tokenBuyer, address indexed tokenSeller, uint buyTokenOrderId,\n        uint sellTokenOrderId, uint price, uint weiAmount, uint tokenAmount);\n\n    event CancelledOrder(uint indexed orderId, address indexed maker, uint tokenAmount, uint weiAmount);\n\n    event MinOrderAmountChanged(uint newMinOrderAmount);\n\n    function Exchange(address augmintTokenAddress, address ratesAddress, uint _minOrderAmount) public {\n        augmintToken = AugmintTokenInterface(augmintTokenAddress);\n        rates = Rates(ratesAddress);\n        minOrderAmount = _minOrderAmount;\n    }\n\n    function placeBuyTokenOrder(uint price) external payable returns (uint orderIndex, uint orderId) {\n        require(price > 0);\n        require(msg.value > 0);\n\n        uint tokenAmount = rates.convertFromWei(augmintToken.peggedSymbol(), msg.value.roundedDiv(price).mul(10000));\n        require(tokenAmount >= minOrderAmount);\n\n        lastOrderId++;\n        orderIndex = buyTokenOrders.push(Order(lastOrderId, msg.sender, now, price, msg.value)) - 1;\n\n        NewOrder(orderIndex, lastOrderId, msg.sender, price, 0, msg.value);\n        return(orderIndex, lastOrderId);\n    }\n\n    /* this function requires previous approval to transfer tokens */\n    function placeSellTokenOrder(uint price, uint tokenAmount) external returns (uint orderIndex, uint orderId) {\n        augmintToken.transferFromNoFee(msg.sender, this, tokenAmount, \"Sell token order placed\");\n        return _placeSellTokenOrder(msg.sender, price, tokenAmount);\n    }\n\n    /* This func assuming that token already transferred to Exchange so it can be only called\n        via AugmintToken.placeSellTokenOrderOnExchange() convenience function */\n    function placeSellTokenOrderTrusted(address maker, uint price, uint tokenAmount)\n    external returns (uint orderIndex, uint orderId) {\n        require(msg.sender == address(augmintToken));\n        return _placeSellTokenOrder(maker, price, tokenAmount);\n    }\n\n    function cancelBuyTokenOrder(uint buyTokenIndex, uint buyTokenId) external {\n        require(buyTokenOrders[buyTokenIndex].maker == msg.sender);\n        require(buyTokenId == buyTokenOrders[buyTokenIndex].id);\n\n        msg.sender.transfer(buyTokenOrders[buyTokenIndex].amount);\n\n        CancelledOrder(buyTokenId, msg.sender, 0, buyTokenOrders[buyTokenIndex].amount);\n        _removeOrder(buyTokenOrders, buyTokenIndex);\n    }\n\n    function cancelSellTokenOrder(uint sellTokenIndex, uint sellTokenId) external {\n        require(sellTokenOrders[sellTokenIndex].maker == msg.sender);\n        require(sellTokenId == sellTokenOrders[sellTokenIndex].id);\n\n        augmintToken.transferNoFee(msg.sender, sellTokenOrders[sellTokenIndex].amount, \"Sell token order cancelled\");\n\n        CancelledOrder(sellTokenId, msg.sender, sellTokenOrders[sellTokenIndex].amount, 0);\n        _removeOrder(sellTokenOrders, sellTokenIndex);\n    }\n\n    /* matches any two orders if the sell price >= buy price\n        trade price is the price which is closer to par.\n        reverts if any of the orders been removed (i.e. passed orderId is not matching the orderIndex in contract)\n    */\n    function matchOrders(uint buyTokenIndex, uint buyTokenId, uint sellTokenIndex, uint sellTokenId) external {\n        require(isValidMatch(buyTokenIndex, buyTokenId, sellTokenIndex, sellTokenId));\n\n        var (buyFilled, sellFilled) = _fillOrder(buyTokenIndex, sellTokenIndex);\n        if (sellFilled) { _removeOrder(sellTokenOrders, sellTokenIndex);}\n        if (buyFilled) { _removeOrder(buyTokenOrders, buyTokenIndex); }\n    }\n\n    /*  matches as many orders as possible from the passed orders\n        Runs as long as gas avialable for the call\n        Returns the number of orders matched\n        Stops if any match is invalid (case when any of the orders removed after client generated the match list sent)\n        Reverts if sizes of arrays passed shorter than passed buyTokenIndexes.\n\n        FIXME: finish this func */\n    function matchMultipleOrders(uint[] buyTokenIndexes, uint[] buyTokenIds, uint[] sellTokenIndexes,\n    uint[] sellTokenIds) external returns(uint i) {\n        // fill but don't remove yet to keep indexes\n        for (i = 0; i < buyTokenIndexes.length && msg.gas > ORDER_MATCH_WORST_GAS; i++) {\n            /* stop processing next match is not valid but let the others pass */\n            if (!isValidMatch(buyTokenIndexes[i], buyTokenIds[i], sellTokenIndexes[i], sellTokenIds[i])) { break; }\n\n            var (buyFilled, sellFilled) = _fillOrder(buyTokenIndexes[i], sellTokenIndexes[i]);\n\n            /* mark orders for removal - we can't remove yet as it would change indexes in buyTokenOrders storage array\n                TODO: more gas effecient way? i.e. without writing storage */\n            if (buyFilled) { buyTokenOrders[buyTokenIndexes[i]].amount = 0; }\n            if (sellFilled) { sellTokenOrders[sellTokenIndexes[i]].amount = 0; }\n        }\n\n        /* FIXME: do removal\n            potentially with a func optimised for multiple removals (instead of _removeOrder)\n            TODO: fix gas cost left over calculation to count in removals gas cost */\n\n        revert(); // function is not finished\n\n        return i;\n    }\n\n    /* only allowed for Monetary Board. */\n    function setMinOrderAmount(uint _minOrderAmount) external restrict(\"MonetaryBoard\") {\n        minOrderAmount = _minOrderAmount;\n        MinOrderAmountChanged(minOrderAmount);\n    }\n\n    function getOrderCounts() external view returns(uint buyTokenOrderCount, uint sellTokenOrderCount) {\n        return(buyTokenOrders.length, sellTokenOrders.length);\n    }\n\n    // returns 50 buy and sell token orders starting from some offset\n    //      orders are encoded as [maker], [index, id, addedTime, price, tokenAmount, weiAmount]\n    //      if weiAmount == 0 then SELL token order, if tokenAmount == 0 then BUY token order\n    function getOrders(uint offset) external view returns (uint[6][50] response, address[50] makers) {\n        Order memory order; // we should maybe use storage pointer here but that gives a warning\n\n        uint sellOffset = buyTokenOrders.length < offset ? offset - buyTokenOrders.length : 0;\n\n        for (uint8 i = 0; i < 50 && i + offset < buyTokenOrders.length; i++) {\n            order = buyTokenOrders[offset + i];\n            response[i] = [offset + i, order.id, order.addedTime, order.price, 0, order.amount];\n            makers[i] = order.maker;\n        }\n\n        for (uint8 j = 0; j + i < 50 && sellOffset + j < sellTokenOrders.length; j++) {\n            order = sellTokenOrders[sellOffset + j];\n            response[i + j] = [sellOffset + j, order.id, order.addedTime, order.price,\n                                order.amount, 0];\n            makers[i + j] = order.maker;\n        }\n\n        return (response, makers);\n    }\n\n    function isValidMatch(uint buyTokenIndex, uint buyTokenId, uint sellTokenIndex, uint sellTokenId)\n    public view returns (bool) {\n        return (buyTokenId == buyTokenOrders[buyTokenIndex].id &&\n                sellTokenId == sellTokenOrders[sellTokenIndex].id &&\n                buyTokenOrders[buyTokenIndex].price >= sellTokenOrders[sellTokenIndex].price);\n    }\n\n    /* internal fill function, called by matchOrders and matchMultipleOrders.\n        NB: it doesn't remove or check the match, calling function must do it */\n    function _fillOrder(uint buyTokenIndex, uint sellTokenIndex) internal returns (bool buyFilled, bool sellFilled) {\n        Order storage buyTokenOrder = buyTokenOrders[buyTokenIndex];\n        Order storage sellTokenOrder = sellTokenOrders[sellTokenIndex];\n\n        uint price = getMatchPrice(buyTokenOrder.price, sellTokenOrder.price); // use price which is closer to par\n        uint sellTokenWeiAmount = rates.convertToWei(augmintToken.peggedSymbol(),\n                                    sellTokenOrder.amount.mul(price)).roundedDiv(10000);\n        uint tradedWeiAmount;\n        uint tradedTokenAmount;\n\n        if (sellTokenWeiAmount <= buyTokenOrder.amount) {\n            tradedWeiAmount = sellTokenWeiAmount;\n            tradedTokenAmount = sellTokenOrder.amount;\n        } else {\n            tradedWeiAmount = buyTokenOrder.amount;\n            tradedTokenAmount = rates.convertFromWei(augmintToken.peggedSymbol(),\n                                                        buyTokenOrder.amount.roundedDiv(price).mul(10000));\n        }\n\n        sellFilled = tradedTokenAmount == sellTokenOrder.amount;\n        buyFilled = tradedWeiAmount == buyTokenOrder.amount;\n\n        if (!buyFilled) {\n            buyTokenOrder.amount -= tradedWeiAmount;\n        }\n        if (!sellFilled) {\n            sellTokenOrder.amount -= tradedTokenAmount;\n        }\n\n        sellTokenOrder.maker.transfer(tradedWeiAmount);\n        augmintToken.transferNoFee(buyTokenOrder.maker, tradedTokenAmount, \"Buy token order fill\");\n\n        OrderFill(buyTokenOrder.maker, sellTokenOrder.maker, buyTokenOrders[buyTokenIndex].id,\n            sellTokenOrders[sellTokenIndex].id, price, tradedWeiAmount, tradedTokenAmount);\n        return(buyFilled, sellFilled);\n    }\n\n    // return par if it's between par otherwise the price which is closer to par\n    function getMatchPrice(uint buyPrice, uint sellPrice) internal pure returns(uint price) {\n        if (sellPrice <= 10000 && buyPrice >= 10000) {\n            price = 10000;\n        } else {\n            uint sellPriceDeviationFromPar = sellPrice > 10000 ? sellPrice - 10000 : 10000 - sellPrice;\n            uint buyPriceDeviationFromPar = buyPrice > 10000 ? buyPrice - 10000 : 10000 - buyPrice;\n            price = sellPriceDeviationFromPar > buyPriceDeviationFromPar ? buyPrice : sellPrice;\n        }\n        return price;\n    }\n\n    function _placeSellTokenOrder(address maker, uint price, uint tokenAmount)\n    private returns (uint orderIndex, uint orderId) {\n        require(price > 0);\n        require(tokenAmount > 0);\n        require(tokenAmount >= minOrderAmount);\n\n        lastOrderId++;\n        orderIndex = sellTokenOrders.push(Order(lastOrderId, maker, now, price, tokenAmount)) - 1;\n\n        NewOrder(orderIndex, lastOrderId, maker, price, tokenAmount, 0);\n        return(orderIndex, lastOrderId);\n    }\n\n    function _removeOrder(Order[] storage orders, uint orderIndex) private {\n        if (orderIndex < orders.length - 1) {\n            orders[orderIndex] = orders[orders.length - 1];\n        }\n        orders.length--;\n    }\n\n}\n",
  "sourcePath": "/Users/petro/ether/augmint-core/contracts/Exchange.sol",
  "compiler": {
    "name": "solc",
    "version": "0.4.19+commit.c4cbbb05.Emscripten.clang"
  },
  "schemaVersion": "1.0.1",
  "updatedAt": "2018-02-03T08:14:43.873Z"
}