{
  "contractName": "FeeAccount",
  "abi": [
    {
      "constant": true,
      "inputs": [
        {
          "name": "",
          "type": "address"
        },
        {
          "name": "",
          "type": "bytes32"
        }
      ],
      "name": "permissions",
      "outputs": [
        {
          "name": "",
          "type": "bool"
        }
      ],
      "payable": false,
      "stateMutability": "view",
      "type": "function"
    },
    {
      "constant": false,
      "inputs": [
        {
          "name": "agent",
          "type": "address"
        },
        {
          "name": "requiredPermission",
          "type": "bytes32"
        }
      ],
      "name": "revokePermission",
      "outputs": [],
      "payable": false,
      "stateMutability": "nonpayable",
      "type": "function"
    },
    {
      "constant": false,
      "inputs": [
        {
          "name": "agent",
          "type": "address"
        },
        {
          "name": "requiredPermissions",
          "type": "bytes32[]"
        }
      ],
      "name": "revokeMultiplePermissions",
      "outputs": [],
      "payable": false,
      "stateMutability": "nonpayable",
      "type": "function"
    },
    {
      "constant": false,
      "inputs": [
        {
          "name": "agent",
          "type": "address"
        },
        {
          "name": "requiredPermissions",
          "type": "bytes32[]"
        }
      ],
      "name": "grantMultiplePermissions",
      "outputs": [],
      "payable": false,
      "stateMutability": "nonpayable",
      "type": "function"
    },
    {
      "constant": false,
      "inputs": [
        {
          "name": "tokenAddress",
          "type": "address"
        },
        {
          "name": "to",
          "type": "address"
        },
        {
          "name": "tokenAmount",
          "type": "uint256"
        },
        {
          "name": "weiAmount",
          "type": "uint256"
        },
        {
          "name": "narrative",
          "type": "string"
        }
      ],
      "name": "withdraw",
      "outputs": [],
      "payable": false,
      "stateMutability": "nonpayable",
      "type": "function"
    },
    {
      "constant": true,
      "inputs": [],
      "name": "transferFee",
      "outputs": [
        {
          "name": "pt",
          "type": "uint256"
        },
        {
          "name": "min",
          "type": "uint256"
        },
        {
          "name": "max",
          "type": "uint256"
        }
      ],
      "payable": false,
      "stateMutability": "view",
      "type": "function"
    },
    {
      "constant": false,
      "inputs": [
        {
          "name": "agent",
          "type": "address"
        },
        {
          "name": "requiredPermission",
          "type": "bytes32"
        }
      ],
      "name": "grantPermission",
      "outputs": [],
      "payable": false,
      "stateMutability": "nonpayable",
      "type": "function"
    },
    {
      "inputs": [
        {
          "name": "transferFeePt",
          "type": "uint256"
        },
        {
          "name": "transferFeeMin",
          "type": "uint256"
        },
        {
          "name": "transferFeeMax",
          "type": "uint256"
        }
      ],
      "payable": false,
      "stateMutability": "nonpayable",
      "type": "constructor"
    },
    {
      "payable": true,
      "stateMutability": "payable",
      "type": "fallback"
    },
    {
      "anonymous": false,
      "inputs": [
        {
          "indexed": false,
          "name": "transferFeePt",
          "type": "uint256"
        },
        {
          "indexed": false,
          "name": "transferFeeMin",
          "type": "uint256"
        },
        {
          "indexed": false,
          "name": "transferFeeMax",
          "type": "uint256"
        }
      ],
      "name": "TransferFeesChanged",
      "type": "event"
    },
    {
      "anonymous": false,
      "inputs": [
        {
          "indexed": false,
          "name": "tokenAddress",
          "type": "address"
        },
        {
          "indexed": false,
          "name": "to",
          "type": "address"
        },
        {
          "indexed": false,
          "name": "tokenAmount",
          "type": "uint256"
        },
        {
          "indexed": false,
          "name": "weiAmount",
          "type": "uint256"
        },
        {
          "indexed": false,
          "name": "narrative",
          "type": "string"
        }
      ],
      "name": "WithdrawFromSystemAccount",
      "type": "event"
    },
    {
      "anonymous": false,
      "inputs": [
        {
          "indexed": true,
          "name": "agent",
          "type": "address"
        },
        {
          "indexed": false,
          "name": "grantedPermission",
          "type": "bytes32"
        }
      ],
      "name": "PermissionGranted",
      "type": "event"
    },
    {
      "anonymous": false,
      "inputs": [
        {
          "indexed": true,
          "name": "agent",
          "type": "address"
        },
        {
          "indexed": false,
          "name": "revokedPermission",
          "type": "bytes32"
        }
      ],
      "name": "PermissionRevoked",
      "type": "event"
    },
    {
      "constant": false,
      "inputs": [
        {
          "name": "transferFeePt",
          "type": "uint256"
        },
        {
          "name": "transferFeeMin",
          "type": "uint256"
        },
        {
          "name": "transferFeeMax",
          "type": "uint256"
        }
      ],
      "name": "setTransferFees",
      "outputs": [],
      "payable": false,
      "stateMutability": "nonpayable",
      "type": "function"
    },
    {
      "constant": true,
      "inputs": [
        {
          "name": "from",
          "type": "address"
        },
        {
          "name": "to",
          "type": "address"
        },
        {
          "name": "amount",
          "type": "uint256"
        }
      ],
      "name": "calculateTransferFee",
      "outputs": [
        {
          "name": "fee",
          "type": "uint256"
        }
      ],
      "payable": false,
      "stateMutability": "view",
      "type": "function"
    },
    {
      "constant": true,
      "inputs": [
        {
          "name": "weiAmount",
          "type": "uint256"
        }
      ],
      "name": "calculateExchangeFee",
      "outputs": [
        {
          "name": "weiFee",
          "type": "uint256"
        }
      ],
      "payable": false,
      "stateMutability": "view",
      "type": "function"
    }
  ],
  "bytecode": "0x6060604052341561000f57600080fd5b604051606080610f608339810160405280805190602001909190805190602001909190805190602001909190505060016000803373ffffffffffffffffffffffffffffffffffffffff1673ffffffffffffffffffffffffffffffffffffffff16815260200190815260200160002060007f4d6f6e6574617279426f6172640000000000000000000000000000000000000060001916815260200190815260200160002060006101000a81548160ff0219169083151502179055503373ffffffffffffffffffffffffffffffffffffffff167fc65937e3dbcb9fb30f646815dd67a3dbd09ba17718cbcb54efbe3635f8e0a6fe60405180807f4d6f6e6574617279426f61726400000000000000000000000000000000000000815250602001905060405180910390a2606060405190810160405280848152602001838152602001828152506001600082015181600001556020820151816001015560408201518160020155905050505050610dd8806101886000396000f3006060604052600436106100a4576000357c0100000000000000000000000000000000000000000000000000000000900463ffffffff1680634d3d14f2146100a65780635b2255261461011b5780635fe07013146101795780637ea46993146101bf5780639aa03cc6146102385780639ac3317b1461026f578063a2e201d4146102e8578063acb2ad6f14610366578063bfd201f51461039d578063f38a8262146103d2575b005b34156100b157600080fd5b610105600480803573ffffffffffffffffffffffffffffffffffffffff1690602001909190803573ffffffffffffffffffffffffffffffffffffffff16906020019091908035906020019091905050610418565b6040518082815260200191505060405180910390f35b341561012657600080fd5b61015f600480803573ffffffffffffffffffffffffffffffffffffffff1690602001909190803560001916906020019091905050610594565b604051808215151515815260200191505060405180910390f35b341561018457600080fd5b6101bd600480803573ffffffffffffffffffffffffffffffffffffffff16906020019091908035600019169060200190919050506105c3565b005b34156101ca57600080fd5b610236600480803573ffffffffffffffffffffffffffffffffffffffff1690602001909190803590602001908201803590602001908080602002602001604051908101604052809392919081815260200183836020028082843782019150505050505091905050610719565b005b341561024357600080fd5b6102596004808035906020019091905050610761565b6040518082815260200191505060405180910390f35b341561027a57600080fd5b6102e6600480803573ffffffffffffffffffffffffffffffffffffffff169060200190919080359060200190820180359060200190808060200260200160405190810160405280939291908181526020018383602002808284378201915050505050509190505061077b565b005b34156102f357600080fd5b610364600480803573ffffffffffffffffffffffffffffffffffffffff1690602001909190803573ffffffffffffffffffffffffffffffffffffffff16906020019091908035906020019091908035906020019091908035906020019082018035906020019190919290505061084f565b005b341561037157600080fd5b610379610ad0565b60405180848152602001838152602001828152602001935050505060405180910390f35b34156103a857600080fd5b6103d06004808035906020019091908035906020019091908035906020019091905050610ae8565b005b34156103dd57600080fd5b610416600480803573ffffffffffffffffffffffffffffffffffffffff1690602001909190803560001916906020019091905050610c05565b005b60008060008573ffffffffffffffffffffffffffffffffffffffff1673ffffffffffffffffffffffffffffffffffffffff16815260200190815260200160002060007f4e6f4665655472616e73666572436f6e7472616374730000000000000000000060001916815260200190815260200160002060009054906101000a900460ff1615801561052657506000808473ffffffffffffffffffffffffffffffffffffffff1673ffffffffffffffffffffffffffffffffffffffff16815260200190815260200160002060007f4e6f4665655472616e73666572436f6e7472616374730000000000000000000060001916815260200190815260200160002060009054906101000a900460ff16155b1561058a57610558620f424061054a60016000015485610d5b90919063ffffffff16565b610d9190919063ffffffff16565b9050600160020154811115610574576001600201549050610589565b600180015481101561058857600180015490505b5b5b8090509392505050565b60006020528160005260406000206020528060005260406000206000915091509054906101000a900460ff1681565b6000803373ffffffffffffffffffffffffffffffffffffffff1673ffffffffffffffffffffffffffffffffffffffff16815260200190815260200160002060007f4d6f6e6574617279426f6172640000000000000000000000000000000000000060001916815260200190815260200160002060009054906101000a900460ff16151561064f57600080fd5b60008060008473ffffffffffffffffffffffffffffffffffffffff1673ffffffffffffffffffffffffffffffffffffffff1681526020019081526020016000206000836000191660001916815260200190815260200160002060006101000a81548160ff0219169083151502179055508173ffffffffffffffffffffffffffffffffffffffff167f789770131846de4d1f28418f0f957cdf4fcabe5eccf70067083e20ecece69a348260405180826000191660001916815260200191505060405180910390a25050565b60008082519150600090505b8181101561075b5761074e84848381518110151561073f57fe5b906020019060200201516105c3565b8080600101915050610725565b50505050565b600081821415151561077257600080fd5b60009050919050565b6000806000803373ffffffffffffffffffffffffffffffffffffffff1673ffffffffffffffffffffffffffffffffffffffff16815260200190815260200160002060007f4d6f6e6574617279426f6172640000000000000000000000000000000000000060001916815260200190815260200160002060009054906101000a900460ff16151561080a57600080fd5b82519150600090505b818110156108495761083c84848381518110151561082d57fe5b90602001906020020151610c05565b8080600101915050610813565b50505050565b7f4d6f6e6574617279426f617264000000000000000000000000000000000000006000803373ffffffffffffffffffffffffffffffffffffffff1673ffffffffffffffffffffffffffffffffffffffff1681526020019081526020016000206000826000191660001916815260200190815260200160002060009054906101000a900460ff1615156108e057600080fd5b8673ffffffffffffffffffffffffffffffffffffffff1663ffdcf095878786866040518563ffffffff167c0100000000000000000000000000000000000000000000000000000000028152600401808573ffffffffffffffffffffffffffffffffffffffff1673ffffffffffffffffffffffffffffffffffffffff168152602001848152602001806020018281038252848482818152602001925080828437820191505095505050505050600060405180830381600087803b15156109a457600080fd5b5af115156109b157600080fd5b50505060008411156109fe578573ffffffffffffffffffffffffffffffffffffffff166108fc859081150290604051600060405180830381858888f1935050505015156109fd57600080fd5b5b7f6883a331384c74ae1b5e75351b4186a9e6c60291aa3182c8f77095552c850d9c878787878787604051808773ffffffffffffffffffffffffffffffffffffffff1673ffffffffffffffffffffffffffffffffffffffff1681526020018673ffffffffffffffffffffffffffffffffffffffff1673ffffffffffffffffffffffffffffffffffffffff168152602001858152602001848152602001806020018281038252848482818152602001925080828437820191505097505050505050505060405180910390a150505050505050565b60018060000154908060010154908060020154905083565b7f4d6f6e6574617279426f617264000000000000000000000000000000000000006000803373ffffffffffffffffffffffffffffffffffffffff1673ffffffffffffffffffffffffffffffffffffffff1681526020019081526020016000206000826000191660001916815260200190815260200160002060009054906101000a900460ff161515610b7957600080fd5b6060604051908101604052808581526020018481526020018381525060016000820151816000015560208201518160010155604082015181600201559050507fd987a3acde40f231f760d7c3d2907c83d26bca5aededafbeefba5619b5955d7184848460405180848152602001838152602001828152602001935050505060405180910390a150505050565b6000803373ffffffffffffffffffffffffffffffffffffffff1673ffffffffffffffffffffffffffffffffffffffff16815260200190815260200160002060007f4d6f6e6574617279426f6172640000000000000000000000000000000000000060001916815260200190815260200160002060009054906101000a900460ff161515610c9157600080fd5b60016000808473ffffffffffffffffffffffffffffffffffffffff1673ffffffffffffffffffffffffffffffffffffffff1681526020019081526020016000206000836000191660001916815260200190815260200160002060006101000a81548160ff0219169083151502179055508173ffffffffffffffffffffffffffffffffffffffff167fc65937e3dbcb9fb30f646815dd67a3dbd09ba17718cbcb54efbe3635f8e0a6fe8260405180826000191660001916815260200191505060405180910390a25050565b60008082840290506000841480610d7c5750828482811515610d7957fe5b04145b1515610d8757600080fd5b8091505092915050565b6000808284811515610d9f57fe5b04905080915050929150505600a165627a7a7230582052c099b1cb78f04e2b42b4a93e58a9c8a378677dd5db2ad35ffb9635223782220029",
  "source": "/* Contract to collect fees from system\n    TODO: calculateExchangeFee + Exchange params and setters\n*/\n\npragma solidity 0.4.21;\nimport \"./generic/SafeMath.sol\";\nimport \"./generic/SystemAccount.sol\";\nimport \"./interfaces/FeeAccountInterface.sol\";\n\n\ncontract FeeAccount is SystemAccount, FeeAccountInterface {\n\n    using SafeMath for uint256;\n\n    struct TransferFee {\n        uint pt;  // in parts per million (ppm) , ie. 2,000 = 0.2%\n        uint min; // with base unit of augmint token, eg. 2 decimals for token, eg. 310 = 3.1 ACE\n        uint max; // with base unit of augmint token, eg. 2 decimals for token, eg. 310 = 3.1 ACE\n    }\n\n    TransferFee public transferFee;\n\n    event TransferFeesChanged(uint transferFeePt, uint transferFeeMin, uint transferFeeMax);\n\n    function FeeAccount( uint transferFeePt, uint transferFeeMin, uint transferFeeMax) public {\n        transferFee = TransferFee(transferFeePt, transferFeeMin, transferFeeMax);\n    }\n\n    function () public payable { // solhint-disable-line no-empty-blocks\n        // to accept ETH sent into feeAccount (defaulting fee in ETH )\n    }\n\n    function setTransferFees(uint transferFeePt, uint transferFeeMin, uint transferFeeMax)\n    external restrict(\"MonetaryBoard\") {\n        transferFee = TransferFee(transferFeePt, transferFeeMin, transferFeeMax);\n        emit TransferFeesChanged(transferFeePt, transferFeeMin, transferFeeMax);\n    }\n\n    function calculateTransferFee(address from, address to, uint amount) external view returns (uint256 fee) {\n        if (!permissions[from][\"NoFeeTransferContracts\"] && !permissions[to][\"NoFeeTransferContracts\"]) {\n            fee = amount.mul(transferFee.pt).div(1000000);\n            if (fee > transferFee.max) {\n                fee = transferFee.max;\n            } else if (fee < transferFee.min) {\n                fee = transferFee.min;\n            }\n        }\n        return fee;\n    }\n\n    function calculateExchangeFee(uint weiAmount) external view returns (uint256 weiFee) {\n        /* TODO: to be implemented and use in Exchange.sol. always revert for now */\n        require(weiAmount != weiAmount);\n        weiFee = 0; // to silence compiler warnings until it's implemented\n    }\n\n}\n",
  "sourcePath": "/Users/petro/ether/augmint-web/augmint-contracts/contracts/FeeAccount.sol",
  "compiler": {
    "name": "solc",
    "version": "0.4.21+commit.dfe3193c.Emscripten.clang"
  },
  "schemaVersion": "2.0.0",
  "updatedAt": "2018-04-16T22:40:03.775Z"
}