{
  "contractName": "InterestEarnedAccount",
  "abi": [
    {
      "constant": false,
      "inputs": [
        {
          "name": "agent",
          "type": "address"
        },
        {
          "name": "requiredPermissions",
          "type": "bytes32[]"
        }
      ],
      "name": "revokeMulitplePermissions",
      "outputs": [],
      "payable": false,
      "stateMutability": "nonpayable",
      "type": "function"
    },
    {
      "constant": true,
      "inputs": [
        {
          "name": "",
          "type": "address"
        },
        {
          "name": "",
          "type": "bytes32"
        }
      ],
      "name": "permissions",
      "outputs": [
        {
          "name": "",
          "type": "bool"
        }
      ],
      "payable": false,
      "stateMutability": "view",
      "type": "function"
    },
    {
      "constant": false,
      "inputs": [
        {
          "name": "agent",
          "type": "address"
        },
        {
          "name": "requiredPermission",
          "type": "bytes32"
        }
      ],
      "name": "revokePermission",
      "outputs": [],
      "payable": false,
      "stateMutability": "nonpayable",
      "type": "function"
    },
    {
      "constant": false,
      "inputs": [
        {
          "name": "agent",
          "type": "address"
        },
        {
          "name": "requiredPermissions",
          "type": "bytes32[]"
        }
      ],
      "name": "grantMultiplePermissions",
      "outputs": [],
      "payable": false,
      "stateMutability": "nonpayable",
      "type": "function"
    },
    {
      "constant": false,
      "inputs": [
        {
          "name": "agent",
          "type": "address"
        },
        {
          "name": "requiredPermission",
          "type": "bytes32"
        }
      ],
      "name": "grantPermission",
      "outputs": [],
      "payable": false,
      "stateMutability": "nonpayable",
      "type": "function"
    },
    {
      "constant": false,
      "inputs": [
        {
          "name": "tokenAddress",
          "type": "address"
        },
        {
          "name": "to",
          "type": "address"
        },
        {
          "name": "amount",
          "type": "uint256"
        },
        {
          "name": "narrative",
          "type": "string"
        }
      ],
      "name": "withdrawTokens",
      "outputs": [],
      "payable": false,
      "stateMutability": "nonpayable",
      "type": "function"
    },
    {
      "anonymous": false,
      "inputs": [
        {
          "indexed": true,
          "name": "agent",
          "type": "address"
        },
        {
          "indexed": false,
          "name": "grantedPermission",
          "type": "bytes32"
        }
      ],
      "name": "PermissionGranted",
      "type": "event"
    },
    {
      "anonymous": false,
      "inputs": [
        {
          "indexed": true,
          "name": "agent",
          "type": "address"
        },
        {
          "indexed": false,
          "name": "revokedPermission",
          "type": "bytes32"
        }
      ],
      "name": "PermissionRevoked",
      "type": "event"
    },
    {
      "constant": false,
      "inputs": [
        {
          "name": "augmintToken",
          "type": "address"
        },
        {
          "name": "locker",
          "type": "address"
        },
        {
          "name": "interestAmount",
          "type": "uint256"
        }
      ],
      "name": "transferInterest",
      "outputs": [],
      "payable": false,
      "stateMutability": "nonpayable",
      "type": "function"
    }
  ],
  "bytecode": "0x606060405260016000803373ffffffffffffffffffffffffffffffffffffffff1673ffffffffffffffffffffffffffffffffffffffff16815260200190815260200160002060007f4d6f6e6574617279426f6172640000000000000000000000000000000000000060001916815260200190815260200160002060006101000a81548160ff0219169083151502179055503373ffffffffffffffffffffffffffffffffffffffff167fc65937e3dbcb9fb30f646815dd67a3dbd09ba17718cbcb54efbe3635f8e0a6fe60405180807f4d6f6e6574617279426f61726400000000000000000000000000000000000000815250602001905060405180910390a26109a08061010d6000396000f300606060405260043610610083576000357c0100000000000000000000000000000000000000000000000000000000900463ffffffff1680630da32eaa146100885780635b225526146101015780635fe070131461015f578063726254d2146101a55780639ac3317b14610206578063f38a82621461027f578063fd979672146102c5575b600080fd5b341561009357600080fd5b6100ff600480803573ffffffffffffffffffffffffffffffffffffffff169060200190919080359060200190820180359060200190808060200260200160405190810160405280939291908181526020018383602002808284378201915050505050509190505061033a565b005b341561010c57600080fd5b610145600480803573ffffffffffffffffffffffffffffffffffffffff1690602001909190803560001916906020019091905050610382565b604051808215151515815260200191505060405180910390f35b341561016a57600080fd5b6101a3600480803573ffffffffffffffffffffffffffffffffffffffff16906020019091908035600019169060200190919050506103b1565b005b34156101b057600080fd5b610204600480803573ffffffffffffffffffffffffffffffffffffffff1690602001909190803573ffffffffffffffffffffffffffffffffffffffff1690602001909190803590602001909190505061047b565b005b341561021157600080fd5b61027d600480803573ffffffffffffffffffffffffffffffffffffffff16906020019091908035906020019082018035906020019080806020026020016040519081016040528093929190818152602001838360200280828437820191505050505050919050506105d9565b005b341561028a57600080fd5b6102c3600480803573ffffffffffffffffffffffffffffffffffffffff16906020019091908035600019169060200190919050506106ad565b005b34156102d057600080fd5b610338600480803573ffffffffffffffffffffffffffffffffffffffff1690602001909190803573ffffffffffffffffffffffffffffffffffffffff169060200190919080359060200190919080359060200190820180359060200191909192905050610803565b005b60008082519150600090505b8181101561037c5761036f84848381518110151561036057fe5b906020019060200201516103b1565b8080600101915050610346565b50505050565b60006020528160005260406000206020528060005260406000206000915091509054906101000a900460ff1681565b60008060008473ffffffffffffffffffffffffffffffffffffffff1673ffffffffffffffffffffffffffffffffffffffff1681526020019081526020016000206000836000191660001916815260200190815260200160002060006101000a81548160ff0219169083151502179055508173ffffffffffffffffffffffffffffffffffffffff167f789770131846de4d1f28418f0f957cdf4fcabe5eccf70067083e20ecece69a348260405180826000191660001916815260200191505060405180910390a25050565b7f4d6f6e657461727953757065727669736f72436f6e74726163740000000000006000803373ffffffffffffffffffffffffffffffffffffffff1673ffffffffffffffffffffffffffffffffffffffff1681526020019081526020016000206000826000191660001916815260200190815260200160002060009054906101000a900460ff16151561050c57600080fd5b8373ffffffffffffffffffffffffffffffffffffffff1663a9059cbb84846000604051602001526040518363ffffffff167c0100000000000000000000000000000000000000000000000000000000028152600401808373ffffffffffffffffffffffffffffffffffffffff1673ffffffffffffffffffffffffffffffffffffffff16815260200182815260200192505050602060405180830381600087803b15156105b757600080fd5b6102c65a03f115156105c857600080fd5b505050604051805190505050505050565b6000806000803373ffffffffffffffffffffffffffffffffffffffff1673ffffffffffffffffffffffffffffffffffffffff16815260200190815260200160002060007f4d6f6e6574617279426f6172640000000000000000000000000000000000000060001916815260200190815260200160002060009054906101000a900460ff16151561066857600080fd5b82519150600090505b818110156106a75761069a84848381518110151561068b57fe5b906020019060200201516106ad565b8080600101915050610671565b50505050565b6000803373ffffffffffffffffffffffffffffffffffffffff1673ffffffffffffffffffffffffffffffffffffffff16815260200190815260200160002060007f4d6f6e6574617279426f6172640000000000000000000000000000000000000060001916815260200190815260200160002060009054906101000a900460ff16151561073957600080fd5b60016000808473ffffffffffffffffffffffffffffffffffffffff1673ffffffffffffffffffffffffffffffffffffffff1681526020019081526020016000206000836000191660001916815260200190815260200160002060006101000a81548160ff0219169083151502179055508173ffffffffffffffffffffffffffffffffffffffff167fc65937e3dbcb9fb30f646815dd67a3dbd09ba17718cbcb54efbe3635f8e0a6fe8260405180826000191660001916815260200191505060405180910390a25050565b7f4d6f6e6574617279426f617264000000000000000000000000000000000000006000803373ffffffffffffffffffffffffffffffffffffffff1673ffffffffffffffffffffffffffffffffffffffff1681526020019081526020016000206000826000191660001916815260200190815260200160002060009054906101000a900460ff16151561089457600080fd5b8573ffffffffffffffffffffffffffffffffffffffff1663ffdcf095868686866040518563ffffffff167c0100000000000000000000000000000000000000000000000000000000028152600401808573ffffffffffffffffffffffffffffffffffffffff1673ffffffffffffffffffffffffffffffffffffffff168152602001848152602001806020018281038252848482818152602001925080828437820191505095505050505050600060405180830381600087803b151561095857600080fd5b6102c65a03f1151561096957600080fd5b5050505050505050505600a165627a7a72305820f90cded2471fa3776db896faaa45d94452ea0ad6f5ad2d725bbd46651ab4f50d0029",
  "source": "/* Contract to hold earned interest from loans repaid\n   premiums for locks are being accrued (i.e. transferred) to Locker */\n\npragma solidity 0.4.19;\nimport \"./generic/SystemAccount.sol\";\nimport \"./interfaces/AugmintTokenInterface.sol\";\n\n\ncontract InterestEarnedAccount is SystemAccount {\n\n    function transferInterest(AugmintTokenInterface augmintToken, address locker, uint interestAmount)\n    external restrict(\"MonetarySupervisorContract\") {\n        augmintToken.transfer(locker, interestAmount);\n    }\n\n}\n",
  "sourcePath": "/Users/petro/ether/augmint-web/augmint-contracts/contracts/InterestEarnedAccount.sol",
  "compiler": {
    "name": "solc",
    "version": "0.4.19+commit.c4cbbb05.Emscripten.clang"
  },
  "schemaVersion": "1.0.1",
  "updatedAt": "2018-02-27T07:31:58.109Z"
}