{
  "contractName": "InterestEarnedAccount",
  "abi": [
    {
      "constant": false,
      "inputs": [
        {
          "name": "_new",
          "type": "address"
        }
      ],
      "name": "setOwner",
      "outputs": [],
      "payable": false,
      "stateMutability": "nonpayable",
      "type": "function"
    },
    {
      "constant": true,
      "inputs": [],
      "name": "owner",
      "outputs": [
        {
          "name": "",
          "type": "address"
        }
      ],
      "payable": false,
      "stateMutability": "view",
      "type": "function"
    },
    {
      "constant": false,
      "inputs": [
        {
          "name": "tokenAddress",
          "type": "address"
        },
        {
          "name": "to",
          "type": "address"
        },
        {
          "name": "amount",
          "type": "uint256"
        },
        {
          "name": "narrative",
          "type": "string"
        }
      ],
      "name": "withdrawTokens",
      "outputs": [],
      "payable": false,
      "stateMutability": "nonpayable",
      "type": "function"
    },
    {
      "anonymous": false,
      "inputs": [
        {
          "indexed": true,
          "name": "old",
          "type": "address"
        },
        {
          "indexed": true,
          "name": "current",
          "type": "address"
        }
      ],
      "name": "NewOwner",
      "type": "event"
    }
  ],
  "bytecode": "0x6060604052336000806101000a81548173ffffffffffffffffffffffffffffffffffffffff021916908373ffffffffffffffffffffffffffffffffffffffff160217905550610403806100536000396000f300606060405260043610610057576000357c0100000000000000000000000000000000000000000000000000000000900463ffffffff16806313af40351461005c5780638da5cb5b14610095578063fd979672146100ea575b600080fd5b341561006757600080fd5b610093600480803573ffffffffffffffffffffffffffffffffffffffff1690602001909190505061015f565b005b34156100a057600080fd5b6100a8610278565b604051808273ffffffffffffffffffffffffffffffffffffffff1673ffffffffffffffffffffffffffffffffffffffff16815260200191505060405180910390f35b34156100f557600080fd5b61015d600480803573ffffffffffffffffffffffffffffffffffffffff1690602001909190803573ffffffffffffffffffffffffffffffffffffffff16906020019091908035906020019091908035906020019082018035906020019190919290505061029d565b005b6000809054906101000a900473ffffffffffffffffffffffffffffffffffffffff1673ffffffffffffffffffffffffffffffffffffffff163373ffffffffffffffffffffffffffffffffffffffff161415156101ba57600080fd5b8073ffffffffffffffffffffffffffffffffffffffff166000809054906101000a900473ffffffffffffffffffffffffffffffffffffffff1673ffffffffffffffffffffffffffffffffffffffff167f70aea8d848e8a90fb7661b227dc522eb6395c3dac71b63cb59edd5c9899b236460405160405180910390a3806000806101000a81548173ffffffffffffffffffffffffffffffffffffffff021916908373ffffffffffffffffffffffffffffffffffffffff16021790555050565b6000809054906101000a900473ffffffffffffffffffffffffffffffffffffffff1681565b6000809054906101000a900473ffffffffffffffffffffffffffffffffffffffff1673ffffffffffffffffffffffffffffffffffffffff163373ffffffffffffffffffffffffffffffffffffffff161415156102f857600080fd5b8473ffffffffffffffffffffffffffffffffffffffff1663ffdcf095858585856040518563ffffffff167c0100000000000000000000000000000000000000000000000000000000028152600401808573ffffffffffffffffffffffffffffffffffffffff1673ffffffffffffffffffffffffffffffffffffffff168152602001848152602001806020018281038252848482818152602001925080828437820191505095505050505050600060405180830381600087803b15156103bc57600080fd5b6102c65a03f115156103cd57600080fd5b50505050505050505600a165627a7a72305820bbf57113c68bc5921eb4fca5447924db062006500b393de8587e2649b2b4c26b0029",
  "source": "/* Contract to temporarly hold \"unearned\" interest of not defaulted (and collected) or not yet repaid loans\n    Interest moved to this account on disbursment\n    On repayment interest moves to InterestEarningsAccount\n    If loan defaults then interest moves to MIR (Market Intervention Reserve held in TokenUcd contract)\n */\n\npragma solidity ^0.4.18;\nimport \"./Owned.sol\";\nimport \"./SystemAccount.sol\";\n\n\ncontract InterestEarnedAccount is SystemAccount {\n\n}\n",
  "sourcePath": "/Users/petro/ether/dcm-poc/contracts/InterestEarnedAccount.sol",
  "compiler": {
    "name": "solc",
    "version": "0.4.18+commit.9cf6e910.Emscripten.clang"
  },
  "schemaVersion": "1.0.1",
  "updatedAt": "2017-11-21T15:28:07.252Z"
}