{
  "contractName": "LoanManager",
  "abi": [
    {
      "constant": false,
      "inputs": [
        {
          "name": "agent",
          "type": "address"
        },
        {
          "name": "requiredPermissions",
          "type": "bytes32[]"
        }
      ],
      "name": "revokeMulitplePermissions",
      "outputs": [],
      "payable": false,
      "stateMutability": "nonpayable",
      "type": "function"
    },
    {
      "constant": true,
      "inputs": [],
      "name": "rates",
      "outputs": [
        {
          "name": "",
          "type": "address"
        }
      ],
      "payable": false,
      "stateMutability": "view",
      "type": "function"
    },
    {
      "constant": true,
      "inputs": [
        {
          "name": "",
          "type": "address"
        },
        {
          "name": "",
          "type": "bytes32"
        }
      ],
      "name": "permissions",
      "outputs": [
        {
          "name": "",
          "type": "bool"
        }
      ],
      "payable": false,
      "stateMutability": "view",
      "type": "function"
    },
    {
      "constant": false,
      "inputs": [
        {
          "name": "agent",
          "type": "address"
        },
        {
          "name": "requiredPermission",
          "type": "bytes32"
        }
      ],
      "name": "revokePermission",
      "outputs": [],
      "payable": false,
      "stateMutability": "nonpayable",
      "type": "function"
    },
    {
      "constant": true,
      "inputs": [
        {
          "name": "",
          "type": "uint256"
        }
      ],
      "name": "products",
      "outputs": [
        {
          "name": "term",
          "type": "uint256"
        },
        {
          "name": "discountRate",
          "type": "uint256"
        },
        {
          "name": "collateralRatio",
          "type": "uint256"
        },
        {
          "name": "minDisbursedAmount",
          "type": "uint256"
        },
        {
          "name": "defaultingFeePt",
          "type": "uint256"
        },
        {
          "name": "isActive",
          "type": "bool"
        }
      ],
      "payable": false,
      "stateMutability": "view",
      "type": "function"
    },
    {
      "constant": true,
      "inputs": [],
      "name": "augmintToken",
      "outputs": [
        {
          "name": "",
          "type": "address"
        }
      ],
      "payable": false,
      "stateMutability": "view",
      "type": "function"
    },
    {
      "constant": false,
      "inputs": [
        {
          "name": "agent",
          "type": "address"
        },
        {
          "name": "requiredPermissions",
          "type": "bytes32[]"
        }
      ],
      "name": "grantMultiplePermissions",
      "outputs": [],
      "payable": false,
      "stateMutability": "nonpayable",
      "type": "function"
    },
    {
      "constant": true,
      "inputs": [
        {
          "name": "",
          "type": "address"
        },
        {
          "name": "",
          "type": "uint256"
        }
      ],
      "name": "mLoans",
      "outputs": [
        {
          "name": "",
          "type": "uint256"
        }
      ],
      "payable": false,
      "stateMutability": "view",
      "type": "function"
    },
    {
      "constant": true,
      "inputs": [
        {
          "name": "",
          "type": "uint256"
        }
      ],
      "name": "loans",
      "outputs": [
        {
          "name": "borrower",
          "type": "address"
        },
        {
          "name": "state",
          "type": "uint8"
        },
        {
          "name": "collateralAmount",
          "type": "uint256"
        },
        {
          "name": "repaymentAmount",
          "type": "uint256"
        },
        {
          "name": "loanAmount",
          "type": "uint256"
        },
        {
          "name": "interestAmount",
          "type": "uint256"
        },
        {
          "name": "term",
          "type": "uint256"
        },
        {
          "name": "disbursementDate",
          "type": "uint256"
        },
        {
          "name": "maturity",
          "type": "uint256"
        },
        {
          "name": "defaultingFeePt",
          "type": "uint256"
        }
      ],
      "payable": false,
      "stateMutability": "view",
      "type": "function"
    },
    {
      "constant": false,
      "inputs": [
        {
          "name": "agent",
          "type": "address"
        },
        {
          "name": "requiredPermission",
          "type": "bytes32"
        }
      ],
      "name": "grantPermission",
      "outputs": [],
      "payable": false,
      "stateMutability": "nonpayable",
      "type": "function"
    },
    {
      "inputs": [
        {
          "name": "_augmintTokenAddress",
          "type": "address"
        },
        {
          "name": "_ratesAddress",
          "type": "address"
        }
      ],
      "payable": false,
      "stateMutability": "nonpayable",
      "type": "constructor"
    },
    {
      "anonymous": false,
      "inputs": [
        {
          "indexed": false,
          "name": "productId",
          "type": "uint256"
        },
        {
          "indexed": false,
          "name": "loanId",
          "type": "uint256"
        },
        {
          "indexed": false,
          "name": "borrower",
          "type": "address"
        },
        {
          "indexed": false,
          "name": "collateralAmount",
          "type": "uint256"
        },
        {
          "indexed": false,
          "name": "loanAmount",
          "type": "uint256"
        },
        {
          "indexed": false,
          "name": "repaymentAmount",
          "type": "uint256"
        }
      ],
      "name": "NewLoan",
      "type": "event"
    },
    {
      "anonymous": false,
      "inputs": [
        {
          "indexed": false,
          "name": "productId",
          "type": "uint256"
        },
        {
          "indexed": false,
          "name": "newState",
          "type": "bool"
        }
      ],
      "name": "LoanProductActiveStateChanged",
      "type": "event"
    },
    {
      "anonymous": false,
      "inputs": [
        {
          "indexed": false,
          "name": "productId",
          "type": "uint256"
        }
      ],
      "name": "LoanProductAdded",
      "type": "event"
    },
    {
      "anonymous": false,
      "inputs": [
        {
          "indexed": false,
          "name": "loanId",
          "type": "uint256"
        },
        {
          "indexed": false,
          "name": "borrower",
          "type": "address"
        }
      ],
      "name": "LoanRepayed",
      "type": "event"
    },
    {
      "anonymous": false,
      "inputs": [
        {
          "indexed": true,
          "name": "loanId",
          "type": "uint256"
        },
        {
          "indexed": true,
          "name": "borrower",
          "type": "address"
        },
        {
          "indexed": false,
          "name": "collectedCollateral",
          "type": "uint256"
        },
        {
          "indexed": false,
          "name": "releasedCollateral",
          "type": "uint256"
        },
        {
          "indexed": false,
          "name": "defaultingFee",
          "type": "uint256"
        }
      ],
      "name": "LoanCollected",
      "type": "event"
    },
    {
      "anonymous": false,
      "inputs": [
        {
          "indexed": true,
          "name": "agent",
          "type": "address"
        },
        {
          "indexed": false,
          "name": "grantedPermission",
          "type": "bytes32"
        }
      ],
      "name": "PermissionGranted",
      "type": "event"
    },
    {
      "anonymous": false,
      "inputs": [
        {
          "indexed": true,
          "name": "agent",
          "type": "address"
        },
        {
          "indexed": false,
          "name": "revokedPermission",
          "type": "bytes32"
        }
      ],
      "name": "PermissionRevoked",
      "type": "event"
    },
    {
      "constant": false,
      "inputs": [
        {
          "name": "_term",
          "type": "uint256"
        },
        {
          "name": "_discountRate",
          "type": "uint256"
        },
        {
          "name": "_collateralRatio",
          "type": "uint256"
        },
        {
          "name": "_minDisbursedAmount",
          "type": "uint256"
        },
        {
          "name": "_defaultingFee",
          "type": "uint256"
        },
        {
          "name": "_isActive",
          "type": "bool"
        }
      ],
      "name": "addLoanProduct",
      "outputs": [
        {
          "name": "newProductId",
          "type": "uint256"
        }
      ],
      "payable": false,
      "stateMutability": "nonpayable",
      "type": "function"
    },
    {
      "constant": false,
      "inputs": [
        {
          "name": "productId",
          "type": "uint8"
        },
        {
          "name": "newState",
          "type": "bool"
        }
      ],
      "name": "setLoanProductActiveState",
      "outputs": [],
      "payable": false,
      "stateMutability": "nonpayable",
      "type": "function"
    },
    {
      "constant": false,
      "inputs": [
        {
          "name": "productId",
          "type": "uint8"
        }
      ],
      "name": "newEthBackedLoan",
      "outputs": [],
      "payable": true,
      "stateMutability": "payable",
      "type": "function"
    },
    {
      "constant": false,
      "inputs": [
        {
          "name": "loanId",
          "type": "uint256"
        }
      ],
      "name": "releaseCollateral",
      "outputs": [],
      "payable": false,
      "stateMutability": "nonpayable",
      "type": "function"
    },
    {
      "constant": false,
      "inputs": [
        {
          "name": "loanIds",
          "type": "uint256[]"
        }
      ],
      "name": "collect",
      "outputs": [],
      "payable": false,
      "stateMutability": "nonpayable",
      "type": "function"
    },
    {
      "constant": true,
      "inputs": [],
      "name": "getLoanCount",
      "outputs": [
        {
          "name": "ct",
          "type": "uint256"
        }
      ],
      "payable": false,
      "stateMutability": "view",
      "type": "function"
    },
    {
      "constant": true,
      "inputs": [],
      "name": "getProductCount",
      "outputs": [
        {
          "name": "ct",
          "type": "uint256"
        }
      ],
      "payable": false,
      "stateMutability": "view",
      "type": "function"
    },
    {
      "constant": true,
      "inputs": [
        {
          "name": "borrower",
          "type": "address"
        }
      ],
      "name": "getLoanIds",
      "outputs": [
        {
          "name": "loans",
          "type": "uint256[]"
        }
      ],
      "payable": false,
      "stateMutability": "view",
      "type": "function"
    }
  ],
  "bytecode": "0x6060604052341561000f57600080fd5b60405160408061235a8339810160405280805190602001909190805190602001909190505060016000803373ffffffffffffffffffffffffffffffffffffffff1673ffffffffffffffffffffffffffffffffffffffff16815260200190815260200160002060007f4d6f6e6574617279426f6172640000000000000000000000000000000000000060001916815260200190815260200160002060006101000a81548160ff0219169083151502179055503373ffffffffffffffffffffffffffffffffffffffff167fc65937e3dbcb9fb30f646815dd67a3dbd09ba17718cbcb54efbe3635f8e0a6fe60405180807f4d6f6e6574617279426f61726400000000000000000000000000000000000000815250602001905060405180910390a281600560006101000a81548173ffffffffffffffffffffffffffffffffffffffff021916908373ffffffffffffffffffffffffffffffffffffffff16021790555080600460006101000a81548173ffffffffffffffffffffffffffffffffffffffff021916908373ffffffffffffffffffffffffffffffffffffffff1602179055505050612199806101c16000396000f3006060604052600436106100fc576000357c0100000000000000000000000000000000000000000000000000000000900463ffffffff1680630da32eaa146101015780631509c8cf1461017a578063172676a91461019557806339007b77146101fb57806343f48fbd1461021e5780634a348da914610273578063521968121461029c57806357f46cbe146102c55780635b225526146102f35780635fe07013146103515780636b64c885146103975780637acc0b20146104255780637b9b9c89146104835780637dbbc2bc146104d85780639ac3317b146105095780639f4780b014610582578063e1ec3c68146105d8578063f38a826214610688575b600080fd5b341561010c57600080fd5b610178600480803573ffffffffffffffffffffffffffffffffffffffff16906020019091908035906020019082018035906020019080806020026020016040519081016040528093929190818152602001838360200280828437820191505050505050919050506106ce565b005b610193600480803560ff16906020019091905050610716565b005b34156101a057600080fd5b6101e560048080359060200190919080359060200190919080359060200190919080359060200190919080359060200190919080351515906020019091905050610ded565b6040518082815260200191505060405180910390f35b341561020657600080fd5b61021c6004808035906020019091905050610f76565b005b341561022957600080fd5b6102316111e3565b604051808273ffffffffffffffffffffffffffffffffffffffff1673ffffffffffffffffffffffffffffffffffffffff16815260200191505060405180910390f35b341561027e57600080fd5b610286611209565b6040518082815260200191505060405180910390f35b34156102a757600080fd5b6102af611216565b6040518082815260200191505060405180910390f35b34156102d057600080fd5b6102f160048080359060200190820180359060200191909192905050611223565b005b34156102fe57600080fd5b610337600480803573ffffffffffffffffffffffffffffffffffffffff16906020019091908035600019169060200190919050506118c6565b604051808215151515815260200191505060405180910390f35b341561035c57600080fd5b610395600480803573ffffffffffffffffffffffffffffffffffffffff16906020019091908035600019169060200190919050506118f5565b005b34156103a257600080fd5b6103ce600480803573ffffffffffffffffffffffffffffffffffffffff169060200190919050506119bf565b6040518080602001828103825283818151815260200191508051906020019060200280838360005b838110156104115780820151818401526020810190506103f6565b505050509050019250505060405180910390f35b341561043057600080fd5b6104466004808035906020019091905050611a5c565b6040518087815260200186815260200185815260200184815260200183815260200182151515158152602001965050505050505060405180910390f35b341561048e57600080fd5b610496611ab4565b604051808273ffffffffffffffffffffffffffffffffffffffff1673ffffffffffffffffffffffffffffffffffffffff16815260200191505060405180910390f35b34156104e357600080fd5b610507600480803560ff169060200190919080351515906020019091905050611ada565b005b341561051457600080fd5b610580600480803573ffffffffffffffffffffffffffffffffffffffff1690602001909190803590602001908201803590602001908080602002602001604051908101604052809392919081815260200183836020028082843782019150505050505091905050611bf2565b005b341561058d57600080fd5b6105c2600480803573ffffffffffffffffffffffffffffffffffffffff16906020019091908035906020019091905050611cc6565b6040518082815260200191505060405180910390f35b34156105e357600080fd5b6105f96004808035906020019091905050611cf7565b604051808b73ffffffffffffffffffffffffffffffffffffffff1673ffffffffffffffffffffffffffffffffffffffff1681526020018a600281111561063b57fe5b60ff1681526020018981526020018881526020018781526020018681526020018581526020018481526020018381526020018281526020019a505050505050505050505060405180910390f35b341561069357600080fd5b6106cc600480803573ffffffffffffffffffffffffffffffffffffffff1690602001909190803560001916906020019091905050611d87565b005b60008082519150600090505b81811015610710576107038484838151811015156106f457fe5b906020019060200201516118f5565b80806001019150506106da565b50505050565b60008060008060008060018760ff1681548110151561073157fe5b906000526020600020906006020160050160009054906101000a900460ff16151561075b57600080fd5b600460009054906101000a900473ffffffffffffffffffffffffffffffffffffffff1673ffffffffffffffffffffffffffffffffffffffff166382f5e31b600560009054906101000a900473ffffffffffffffffffffffffffffffffffffffff1673ffffffffffffffffffffffffffffffffffffffff166333a263e66000604051602001526040518163ffffffff167c0100000000000000000000000000000000000000000000000000000000028152600401602060405180830381600087803b151561082757600080fd5b6102c65a03f1151561083857600080fd5b50505060405180519050346000604051602001526040518363ffffffff167c010000000000000000000000000000000000000000000000000000000002815260040180836000191660001916815260200182815260200192505050602060405180830381600087803b15156108ac57600080fd5b6102c65a03f115156108bd57600080fd5b5050506040518051905095506109156305f5e10061090760018a60ff168154811015156108e657fe5b90600052602060002090600602016002015489611edd90919063ffffffff16565b611f1390919063ffffffff16565b9450606485029450620f424061097a60018960ff1681548110151561093657fe5b90600052602060002090600602016001015460018a60ff1681548110151561095a57fe5b906000526020600020906006020160020154611edd90919063ffffffff16565b81151561098357fe5b0493506109af6305f5e1006109a18689611edd90919063ffffffff16565b611f1390919063ffffffff16565b925060648302925060018760ff168154811015156109c957fe5b90600052602060002090600602016003015483101515156109e957600080fd5b6001600280548060010182816109ff9190611faf565b91600052602060002090600902016000610140604051908101604052803373ffffffffffffffffffffffffffffffffffffffff16815260200160006002811115610a4557fe5b81526020013481526020018a8152602001888152602001610a6f898c611f5790919063ffffffff16565b815260200160018d60ff16815481101515610a8657fe5b906000526020600020906006020160000154815260200142815260200160018d60ff16815481101515610ab557fe5b9060005260206000209060060201600001544201815260200160018d60ff16815481101515610ae057fe5b906000526020600020906006020160040154815250909190915060008201518160000160006101000a81548173ffffffffffffffffffffffffffffffffffffffff021916908373ffffffffffffffffffffffffffffffffffffffff16021790555060208201518160000160146101000a81548160ff02191690836002811115610b6557fe5b021790555060408201518160010155606082015181600201556080820151816003015560a0820151816004015560c0820151816005015560e08201518160060155610100820151816007015561012082015181600801555050039150600360003373ffffffffffffffffffffffffffffffffffffffff1673ffffffffffffffffffffffffffffffffffffffff1681526020019081526020016000208054806001018281610c129190611fe1565b91600052602060002090016000849091909150555082851115610c4557610c428386611f5790919063ffffffff16565b90505b600560009054906101000a900473ffffffffffffffffffffffffffffffffffffffff1673ffffffffffffffffffffffffffffffffffffffff1663c9a3249933856040518363ffffffff167c0100000000000000000000000000000000000000000000000000000000028152600401808373ffffffffffffffffffffffffffffffffffffffff1673ffffffffffffffffffffffffffffffffffffffff16815260200182815260200180602001828103825260118152602001807f4c6f616e2064697362757273656d656e740000000000000000000000000000008152506020019350505050600060405180830381600087803b1515610d4257600080fd5b6102c65a03f11515610d5357600080fd5b5050507f2a8897a779aeb52af2c0d0d98a731e5346c03bd447d0743dc37543d119341a8a87833334878a604051808760ff1681526020018681526020018573ffffffffffffffffffffffffffffffffffffffff1673ffffffffffffffffffffffffffffffffffffffff168152602001848152602001838152602001828152602001965050505050505060405180910390a150505050505050565b60007f4d6f6e6574617279426f617264000000000000000000000000000000000000006000803373ffffffffffffffffffffffffffffffffffffffff1673ffffffffffffffffffffffffffffffffffffffff1681526020019081526020016000206000826000191660001916815260200190815260200160002060009054906101000a900460ff161515610e8057600080fd5b6001808054806001018281610e95919061200d565b9160005260206000209060060201600060c0604051908101604052808d81526020018c81526020018b81526020018a81526020018981526020018815158152509091909150600082015181600001556020820151816001015560408201518160020155606082015181600301556080820151816004015560a08201518160050160006101000a81548160ff02191690831515021790555050500391507f8aaf15a3416b8ef4e80d82317d5955a3f3a244a77e9c6ccc0cbb4c19dc3e811b826040518082815260200191505060405180910390a1819150509695505050505050565b600560009054906101000a900473ffffffffffffffffffffffffffffffffffffffff1673ffffffffffffffffffffffffffffffffffffffff163373ffffffffffffffffffffffffffffffffffffffff16141515610fd257600080fd5b60006002811115610fdf57fe5b600282815481101515610fee57fe5b906000526020600020906009020160000160149054906101000a900460ff16600281111561101857fe5b14151561102457600080fd5b60028181548110151561103357fe5b906000526020600020906009020160070154421115151561105357600080fd5b600160028281548110151561106457fe5b906000526020600020906009020160000160146101000a81548160ff0219169083600281111561109057fe5b02179055506002818154811015156110a457fe5b906000526020600020906009020160000160009054906101000a900473ffffffffffffffffffffffffffffffffffffffff1673ffffffffffffffffffffffffffffffffffffffff166108fc6002838154811015156110fe57fe5b9060005260206000209060090201600101549081150290604051600060405180830381858888f19350505050151561113557600080fd5b7f0bc2fda5eb321ed5f7471e814a5c00752523b3ba8fbfeb905e1b8707eefa16c58160028381548110151561116657fe5b906000526020600020906009020160000160009054906101000a900473ffffffffffffffffffffffffffffffffffffffff16604051808381526020018273ffffffffffffffffffffffffffffffffffffffff1673ffffffffffffffffffffffffffffffffffffffff1681526020019250505060405180910390a150565b600460009054906101000a900473ffffffffffffffffffffffffffffffffffffffff1681565b6000600180549050905090565b6000600280549050905090565b60008060008060008060008096505b888890508710156118bb57888888818110151561124b57fe5b9050602002013595506000600281111561126157fe5b60028781548110151561127057fe5b906000526020600020906009020160000160149054906101000a900460ff16600281111561129a57fe5b1415156112a657600080fd5b6002868154811015156112b557fe5b90600052602060002090600902016007015442101515156112d557600080fd5b600280878154811015156112e557fe5b906000526020600020906009020160000160146101000a81548160ff0219169083600281111561131157fe5b021790555061137e620f424061137060028981548110151561132f57fe5b90600052602060002090600902016008015460028a81548110151561135057fe5b906000526020600020906009020160020154611edd90919063ffffffff16565b611f7390919063ffffffff16565b9450600460009054906101000a900473ffffffffffffffffffffffffffffffffffffffff1673ffffffffffffffffffffffffffffffffffffffff16635c481d8b600560009054906101000a900473ffffffffffffffffffffffffffffffffffffffff1673ffffffffffffffffffffffffffffffffffffffff166333a263e66000604051602001526040518163ffffffff167c0100000000000000000000000000000000000000000000000000000000028152600401602060405180830381600087803b151561144c57600080fd5b6102c65a03f1151561145d57600080fd5b50505060405180519050876000604051602001526040518363ffffffff167c010000000000000000000000000000000000000000000000000000000002815260040180836000191660001916815260200182815260200192505050602060405180830381600087803b15156114d157600080fd5b6102c65a03f115156114e257600080fd5b50505060405180519050935061168c84600460009054906101000a900473ffffffffffffffffffffffffffffffffffffffff1673ffffffffffffffffffffffffffffffffffffffff16635c481d8b600560009054906101000a900473ffffffffffffffffffffffffffffffffffffffff1673ffffffffffffffffffffffffffffffffffffffff166333a263e66000604051602001526040518163ffffffff167c0100000000000000000000000000000000000000000000000000000000028152600401602060405180830381600087803b15156115be57600080fd5b6102c65a03f115156115cf57600080fd5b5050506040518051905060028b8154811015156115e857fe5b9060005260206000209060090201600201546000604051602001526040518363ffffffff167c010000000000000000000000000000000000000000000000000000000002815260040180836000191660001916815260200182815260200192505050602060405180830381600087803b151561166357600080fd5b6102c65a03f1151561167457600080fd5b50505060405180519050611f8e90919063ffffffff16565b925060028681548110151561169d57fe5b90600052602060002090600902016001015483101561176c576116e9836002888154811015156116c957fe5b906000526020600020906009020160010154611f5790919063ffffffff16565b91506002868154811015156116fa57fe5b906000526020600020906009020160000160009054906101000a900473ffffffffffffffffffffffffffffffffffffffff1673ffffffffffffffffffffffffffffffffffffffff166108fc839081150290604051600060405180830381858888f19350505050151561176b57600080fd5b5b61179f8260028881548110151561177f57fe5b906000526020600020906009020160010154611f5790919063ffffffff16565b9050808411156117ad578093505b600560009054906101000a900473ffffffffffffffffffffffffffffffffffffffff1673ffffffffffffffffffffffffffffffffffffffff166108fc829081150290604051600060405180830381858888f19350505050151561180f57600080fd5b60028681548110151561181e57fe5b906000526020600020906009020160000160009054906101000a900473ffffffffffffffffffffffffffffffffffffffff1673ffffffffffffffffffffffffffffffffffffffff16867f328dba6669445381058bdb02ebe2ec93eb6f203f283073dee9b206720390f10b83858860405180848152602001838152602001828152602001935050505060405180910390a38680600101975050611232565b505050505050505050565b60006020528160005260406000206020528060005260406000206000915091509054906101000a900460ff1681565b60008060008473ffffffffffffffffffffffffffffffffffffffff1673ffffffffffffffffffffffffffffffffffffffff1681526020019081526020016000206000836000191660001916815260200190815260200160002060006101000a81548160ff0219169083151502179055508173ffffffffffffffffffffffffffffffffffffffff167f789770131846de4d1f28418f0f957cdf4fcabe5eccf70067083e20ecece69a348260405180826000191660001916815260200191505060405180910390a25050565b6119c761203f565b600360008373ffffffffffffffffffffffffffffffffffffffff1673ffffffffffffffffffffffffffffffffffffffff168152602001908152602001600020805480602002602001604051908101604052809291908181526020018280548015611a5057602002820191906000526020600020905b815481526020019060010190808311611a3c575b50505050509050919050565b600181815481101515611a6b57fe5b90600052602060002090600602016000915090508060000154908060010154908060020154908060030154908060040154908060050160009054906101000a900460ff16905086565b600560009054906101000a900473ffffffffffffffffffffffffffffffffffffffff1681565b7f4d6f6e6574617279426f617264000000000000000000000000000000000000006000803373ffffffffffffffffffffffffffffffffffffffff1673ffffffffffffffffffffffffffffffffffffffff1681526020019081526020016000206000826000191660001916815260200190815260200160002060009054906101000a900460ff161515611b6b57600080fd5b600060018460ff16815481101515611b7f57fe5b906000526020600020906006020160050160006101000a81548160ff0219169083151502179055507f689f692868769ea7204c471c3a1f849d14c0812ed265979b39e3dcb8531fdc968383604051808360ff168152602001821515151581526020019250505060405180910390a1505050565b6000806000803373ffffffffffffffffffffffffffffffffffffffff1673ffffffffffffffffffffffffffffffffffffffff16815260200190815260200160002060007f4d6f6e6574617279426f6172640000000000000000000000000000000000000060001916815260200190815260200160002060009054906101000a900460ff161515611c8157600080fd5b82519150600090505b81811015611cc057611cb3848483815181101515611ca457fe5b90602001906020020151611d87565b8080600101915050611c8a565b50505050565b600360205281600052604060002081815481101515611ce157fe5b9060005260206000209001600091509150505481565b600281815481101515611d0657fe5b90600052602060002090600902016000915090508060000160009054906101000a900473ffffffffffffffffffffffffffffffffffffffff16908060000160149054906101000a900460ff1690806001015490806002015490806003015490806004015490806005015490806006015490806007015490806008015490508a565b6000803373ffffffffffffffffffffffffffffffffffffffff1673ffffffffffffffffffffffffffffffffffffffff16815260200190815260200160002060007f4d6f6e6574617279426f6172640000000000000000000000000000000000000060001916815260200190815260200160002060009054906101000a900460ff161515611e1357600080fd5b60016000808473ffffffffffffffffffffffffffffffffffffffff1673ffffffffffffffffffffffffffffffffffffffff1681526020019081526020016000206000836000191660001916815260200190815260200160002060006101000a81548160ff0219169083151502179055508173ffffffffffffffffffffffffffffffffffffffff167fc65937e3dbcb9fb30f646815dd67a3dbd09ba17718cbcb54efbe3635f8e0a6fe8260405180826000191660001916815260200191505060405180910390a25050565b60008082840290506000841480611efe5750828482811515611efb57fe5b04145b1515611f0957600080fd5b8091505092915050565b6000808284811515611f2157fe5b049050600283811515611f3057fe5b048385811515611f3c57fe5b06101515611f4d5780806001019150505b8091505092915050565b6000828211151515611f6857600080fd5b818303905092915050565b6000808284811515611f8157fe5b0490508091505092915050565b6000808284019050838110151515611fa557600080fd5b8091505092915050565b815481835581811511611fdc57600902816009028360005260206000209182019101611fdb9190612053565b5b505050565b8154818355818115116120085781836000526020600020918201910161200791906120ed565b5b505050565b81548183558181151161203a576006028160060283600052602060002091820191016120399190612112565b5b505050565b602060405190810160405280600081525090565b6120ea91905b808211156120e657600080820160006101000a81549073ffffffffffffffffffffffffffffffffffffffff02191690556000820160146101000a81549060ff02191690556001820160009055600282016000905560038201600090556004820160009055600582016000905560068201600090556007820160009055600882016000905550600901612059565b5090565b90565b61210f91905b8082111561210b5760008160009055506001016120f3565b5090565b90565b61216a91905b808211156121665760008082016000905560018201600090556002820160009055600382016000905560048201600090556005820160006101000a81549060ff021916905550600601612118565b5090565b905600a165627a7a723058200b68a9eeb261edce21740c7e910b94fda0e19e7576cc45c796e3f1b426c2d2de0029",
  "source": "/* Contract to manage Augmint token loan contracts backed by ETH\n    TODO: add loanId to disbursement, repay and collection narrative\n*/\npragma solidity 0.4.19;\n\nimport \"./Rates.sol\";\nimport \"./interfaces/AugmintTokenInterface.sol\";\nimport \"./interfaces/LoanManagerInterface.sol\";\n\n\ncontract LoanManager is LoanManagerInterface {\n    Rates public rates; // instance of ETH/pegged currency rate provider contract\n    AugmintTokenInterface public augmintToken; // instance of token contract\n\n    event NewLoan(uint productId, uint loanId, address borrower, uint collateralAmount, uint loanAmount,\n        uint repaymentAmount);\n\n    event LoanProductActiveStateChanged(uint productId, bool newState);\n\n    event LoanProductAdded(uint productId);\n\n    event LoanRepayed(uint loanId, address borrower);\n\n    event LoanCollected(uint indexed loanId, address indexed borrower, uint collectedCollateral,\n        uint releasedCollateral, uint defaultingFee);\n\n    function LoanManager(address _augmintTokenAddress, address _ratesAddress) public {\n        augmintToken = AugmintTokenInterface(_augmintTokenAddress);\n        rates = Rates(_ratesAddress);\n    }\n\n    function addLoanProduct(uint _term, uint _discountRate, uint _collateralRatio, uint _minDisbursedAmount,\n        uint _defaultingFee, bool _isActive)\n    external restrict(\"MonetaryBoard\") returns (uint newProductId) {\n        newProductId = products.push(\n            LoanProduct(_term, _discountRate, _collateralRatio, _minDisbursedAmount, _defaultingFee, _isActive)\n        ) - 1;\n\n        LoanProductAdded(newProductId);\n        return newProductId;\n    }\n\n    function setLoanProductActiveState(uint8 productId, bool newState)\n    external restrict (\"MonetaryBoard\") {\n        products[productId].isActive = false;\n        LoanProductActiveStateChanged(productId, newState);\n    }\n\n    function newEthBackedLoan(uint8 productId) external payable {\n        require(products[productId].isActive); // valid productId?\n\n        // calculate loan values based on ETH sent in with Tx\n        uint tokenValue = rates.convertFromWei(augmintToken.peggedSymbol(), msg.value);\n        uint repaymentAmount = tokenValue.mul(products[productId].collateralRatio).roundedDiv(100000000);\n        repaymentAmount = repaymentAmount * 100;  // rounding 4 decimals value to 2 decimals.\n                                        // no safe mul needed b/c of prev divide\n\n        uint mul = products[productId].collateralRatio.mul(products[productId].discountRate) / 1000000;\n        uint loanAmount = tokenValue.mul(mul).roundedDiv(100000000);\n        loanAmount = loanAmount * 100;    // rounding 4 decimals value to 2 decimals.\n                                                    // no safe mul needed b/c of prev divide\n\n        require(loanAmount >= products[productId].minDisbursedAmount);\n\n        // Create new loan\n        uint loanId = loans.push(\n            LoanData(msg.sender, LoanState.Open, msg.value, repaymentAmount, loanAmount,\n                repaymentAmount.sub(loanAmount), products[productId].term, now, now + products[productId].term,\n                products[productId].defaultingFeePt)\n            ) - 1;\n\n        // Store ref to new loan\n        mLoans[msg.sender].push(loanId);\n\n        // Issue tokens and send to borrower\n        uint interestAmount;\n        if (repaymentAmount > loanAmount) {\n            interestAmount = repaymentAmount.sub(loanAmount);\n        }\n        augmintToken.issueAndDisburse(msg.sender, loanAmount, \"Loan disbursement\");\n\n        NewLoan(productId, loanId, msg.sender, msg.value, loanAmount, repaymentAmount);\n    }\n\n    /* users must call AugmintToken.repayLoan() to release collateral */\n    function releaseCollateral(uint loanId) external {\n        require(msg.sender == address(augmintToken));\n        require(loans[loanId].state == LoanState.Open);\n        require(now <= loans[loanId].maturity);\n        loans[loanId].state = LoanState.Repaid;\n        loans[loanId].borrower.transfer(loans[loanId].collateralAmount); // send back ETH collateral\n\n        LoanRepayed(loanId, loans[loanId].borrower);\n    }\n\n    function collect(uint[] loanIds) external {\n        /* when there are a lots of loans to be collected then\n             the client need to call it in batches to make sure tx won't exceed block gas limit.\n         Anyone can call it - can't cause harm as it only allows to collect loans which they are defaulted\n         TODO: optimise these calculation\n        */\n        for (uint i = 0; i < loanIds.length; i++) {\n            uint loanId = loanIds[i];\n            require(loans[loanId].state == LoanState.Open);\n            require(now >= loans[loanId].maturity);\n            loans[loanId].state = LoanState.Defaulted;\n            // send ETH collateral to augmintToken reserve\n            uint defaultingFeeInToken = loans[loanId].repaymentAmount.mul(loans[loanId].defaultingFeePt).div(1000000);\n            uint defaultingFee = rates.convertToWei(augmintToken.peggedSymbol(), defaultingFeeInToken);\n            uint targetCollection = rates.convertToWei(augmintToken.peggedSymbol(), loans[loanId].repaymentAmount)\n                .add(defaultingFee);\n            uint releasedCollateral;\n            if (targetCollection < loans[loanId].collateralAmount) {\n                releasedCollateral = loans[loanId].collateralAmount.sub(targetCollection);\n                loans[loanId].borrower.transfer(releasedCollateral);\n            }\n            uint collectedCollateral = loans[loanId].collateralAmount.sub(releasedCollateral);\n            if (defaultingFee > collectedCollateral) {\n                defaultingFee = collectedCollateral;\n            }\n\n            address(augmintToken).transfer(collectedCollateral);\n\n            LoanCollected(loanId, loans[loanId].borrower, collectedCollateral, releasedCollateral, defaultingFee);\n        }\n\n    }\n\n    function getLoanCount() external view returns (uint ct) {\n        return loans.length;\n    }\n\n    function getProductCount() external view returns (uint ct) {\n        return products.length;\n    }\n\n    function getLoanIds(address borrower) external view returns (uint[] loans) {\n        return mLoans[borrower];\n    }\n\n}\n",
  "sourcePath": "/Users/petro/ether/augmint-core/contracts/LoanManager.sol",
  "compiler": {
    "name": "solc",
    "version": "0.4.19+commit.c4cbbb05.Emscripten.clang"
  },
  "schemaVersion": "1.0.1",
  "updatedAt": "2018-02-02T20:45:24.578Z"
}