{
  "contractName": "LoanManager",
  "abi": [
    {
      "constant": false,
      "inputs": [
        {
          "name": "agent",
          "type": "address"
        },
        {
          "name": "requiredPermissions",
          "type": "bytes32[]"
        }
      ],
      "name": "revokeMulitplePermissions",
      "outputs": [],
      "payable": false,
      "stateMutability": "nonpayable",
      "type": "function"
    },
    {
      "constant": true,
      "inputs": [],
      "name": "monetarySupervisor",
      "outputs": [
        {
          "name": "",
          "type": "address"
        }
      ],
      "payable": false,
      "stateMutability": "view",
      "type": "function"
    },
    {
      "constant": true,
      "inputs": [],
      "name": "rates",
      "outputs": [
        {
          "name": "",
          "type": "address"
        }
      ],
      "payable": false,
      "stateMutability": "view",
      "type": "function"
    },
    {
      "constant": true,
      "inputs": [
        {
          "name": "",
          "type": "address"
        },
        {
          "name": "",
          "type": "bytes32"
        }
      ],
      "name": "permissions",
      "outputs": [
        {
          "name": "",
          "type": "bool"
        }
      ],
      "payable": false,
      "stateMutability": "view",
      "type": "function"
    },
    {
      "constant": true,
      "inputs": [],
      "name": "interestEarnedAccount",
      "outputs": [
        {
          "name": "",
          "type": "address"
        }
      ],
      "payable": false,
      "stateMutability": "view",
      "type": "function"
    },
    {
      "constant": false,
      "inputs": [
        {
          "name": "agent",
          "type": "address"
        },
        {
          "name": "requiredPermission",
          "type": "bytes32"
        }
      ],
      "name": "revokePermission",
      "outputs": [],
      "payable": false,
      "stateMutability": "nonpayable",
      "type": "function"
    },
    {
      "constant": true,
      "inputs": [
        {
          "name": "",
          "type": "uint256"
        }
      ],
      "name": "products",
      "outputs": [
        {
          "name": "term",
          "type": "uint256"
        },
        {
          "name": "discountRate",
          "type": "uint256"
        },
        {
          "name": "collateralRatio",
          "type": "uint256"
        },
        {
          "name": "minDisbursedAmount",
          "type": "uint256"
        },
        {
          "name": "defaultingFeePt",
          "type": "uint256"
        },
        {
          "name": "isActive",
          "type": "bool"
        }
      ],
      "payable": false,
      "stateMutability": "view",
      "type": "function"
    },
    {
      "constant": true,
      "inputs": [],
      "name": "augmintToken",
      "outputs": [
        {
          "name": "",
          "type": "address"
        }
      ],
      "payable": false,
      "stateMutability": "view",
      "type": "function"
    },
    {
      "constant": false,
      "inputs": [
        {
          "name": "agent",
          "type": "address"
        },
        {
          "name": "requiredPermissions",
          "type": "bytes32[]"
        }
      ],
      "name": "grantMultiplePermissions",
      "outputs": [],
      "payable": false,
      "stateMutability": "nonpayable",
      "type": "function"
    },
    {
      "constant": true,
      "inputs": [
        {
          "name": "",
          "type": "address"
        },
        {
          "name": "",
          "type": "uint256"
        }
      ],
      "name": "mLoans",
      "outputs": [
        {
          "name": "",
          "type": "uint256"
        }
      ],
      "payable": false,
      "stateMutability": "view",
      "type": "function"
    },
    {
      "constant": true,
      "inputs": [
        {
          "name": "",
          "type": "uint256"
        }
      ],
      "name": "loans",
      "outputs": [
        {
          "name": "borrower",
          "type": "address"
        },
        {
          "name": "state",
          "type": "uint8"
        },
        {
          "name": "collateralAmount",
          "type": "uint256"
        },
        {
          "name": "repaymentAmount",
          "type": "uint256"
        },
        {
          "name": "loanAmount",
          "type": "uint256"
        },
        {
          "name": "interestAmount",
          "type": "uint256"
        },
        {
          "name": "term",
          "type": "uint256"
        },
        {
          "name": "disbursementDate",
          "type": "uint256"
        },
        {
          "name": "maturity",
          "type": "uint256"
        },
        {
          "name": "defaultingFeePt",
          "type": "uint256"
        }
      ],
      "payable": false,
      "stateMutability": "view",
      "type": "function"
    },
    {
      "constant": false,
      "inputs": [
        {
          "name": "agent",
          "type": "address"
        },
        {
          "name": "requiredPermission",
          "type": "bytes32"
        }
      ],
      "name": "grantPermission",
      "outputs": [],
      "payable": false,
      "stateMutability": "nonpayable",
      "type": "function"
    },
    {
      "inputs": [
        {
          "name": "_augmintToken",
          "type": "address"
        },
        {
          "name": "_monetarySupervisor",
          "type": "address"
        },
        {
          "name": "_rates",
          "type": "address"
        },
        {
          "name": "_interestEarnedAccount",
          "type": "address"
        }
      ],
      "payable": false,
      "stateMutability": "nonpayable",
      "type": "constructor"
    },
    {
      "anonymous": false,
      "inputs": [
        {
          "indexed": false,
          "name": "productId",
          "type": "uint256"
        },
        {
          "indexed": false,
          "name": "loanId",
          "type": "uint256"
        },
        {
          "indexed": false,
          "name": "borrower",
          "type": "address"
        },
        {
          "indexed": false,
          "name": "collateralAmount",
          "type": "uint256"
        },
        {
          "indexed": false,
          "name": "loanAmount",
          "type": "uint256"
        },
        {
          "indexed": false,
          "name": "repaymentAmount",
          "type": "uint256"
        }
      ],
      "name": "NewLoan",
      "type": "event"
    },
    {
      "anonymous": false,
      "inputs": [
        {
          "indexed": false,
          "name": "productId",
          "type": "uint256"
        },
        {
          "indexed": false,
          "name": "newState",
          "type": "bool"
        }
      ],
      "name": "LoanProductActiveStateChanged",
      "type": "event"
    },
    {
      "anonymous": false,
      "inputs": [
        {
          "indexed": false,
          "name": "productId",
          "type": "uint256"
        }
      ],
      "name": "LoanProductAdded",
      "type": "event"
    },
    {
      "anonymous": false,
      "inputs": [
        {
          "indexed": false,
          "name": "loanId",
          "type": "uint256"
        },
        {
          "indexed": false,
          "name": "borrower",
          "type": "address"
        }
      ],
      "name": "LoanRepayed",
      "type": "event"
    },
    {
      "anonymous": false,
      "inputs": [
        {
          "indexed": true,
          "name": "loanId",
          "type": "uint256"
        },
        {
          "indexed": true,
          "name": "borrower",
          "type": "address"
        },
        {
          "indexed": false,
          "name": "collectedCollateral",
          "type": "uint256"
        },
        {
          "indexed": false,
          "name": "releasedCollateral",
          "type": "uint256"
        },
        {
          "indexed": false,
          "name": "defaultingFee",
          "type": "uint256"
        }
      ],
      "name": "LoanCollected",
      "type": "event"
    },
    {
      "anonymous": false,
      "inputs": [
        {
          "indexed": true,
          "name": "agent",
          "type": "address"
        },
        {
          "indexed": false,
          "name": "grantedPermission",
          "type": "bytes32"
        }
      ],
      "name": "PermissionGranted",
      "type": "event"
    },
    {
      "anonymous": false,
      "inputs": [
        {
          "indexed": true,
          "name": "agent",
          "type": "address"
        },
        {
          "indexed": false,
          "name": "revokedPermission",
          "type": "bytes32"
        }
      ],
      "name": "PermissionRevoked",
      "type": "event"
    },
    {
      "constant": false,
      "inputs": [
        {
          "name": "_term",
          "type": "uint256"
        },
        {
          "name": "_discountRate",
          "type": "uint256"
        },
        {
          "name": "_collateralRatio",
          "type": "uint256"
        },
        {
          "name": "_minDisbursedAmount",
          "type": "uint256"
        },
        {
          "name": "_defaultingFee",
          "type": "uint256"
        },
        {
          "name": "_isActive",
          "type": "bool"
        }
      ],
      "name": "addLoanProduct",
      "outputs": [
        {
          "name": "newProductId",
          "type": "uint256"
        }
      ],
      "payable": false,
      "stateMutability": "nonpayable",
      "type": "function"
    },
    {
      "constant": false,
      "inputs": [
        {
          "name": "productId",
          "type": "uint8"
        },
        {
          "name": "newState",
          "type": "bool"
        }
      ],
      "name": "setLoanProductActiveState",
      "outputs": [],
      "payable": false,
      "stateMutability": "nonpayable",
      "type": "function"
    },
    {
      "constant": false,
      "inputs": [
        {
          "name": "productId",
          "type": "uint8"
        }
      ],
      "name": "newEthBackedLoan",
      "outputs": [],
      "payable": true,
      "stateMutability": "payable",
      "type": "function"
    },
    {
      "constant": false,
      "inputs": [
        {
          "name": "loanIds",
          "type": "uint256[]"
        }
      ],
      "name": "collect",
      "outputs": [],
      "payable": false,
      "stateMutability": "nonpayable",
      "type": "function"
    },
    {
      "constant": true,
      "inputs": [],
      "name": "getLoanCount",
      "outputs": [
        {
          "name": "ct",
          "type": "uint256"
        }
      ],
      "payable": false,
      "stateMutability": "view",
      "type": "function"
    },
    {
      "constant": true,
      "inputs": [],
      "name": "getProductCount",
      "outputs": [
        {
          "name": "ct",
          "type": "uint256"
        }
      ],
      "payable": false,
      "stateMutability": "view",
      "type": "function"
    },
    {
      "constant": true,
      "inputs": [
        {
          "name": "borrower",
          "type": "address"
        }
      ],
      "name": "getLoanIds",
      "outputs": [
        {
          "name": "_loans",
          "type": "uint256[]"
        }
      ],
      "payable": false,
      "stateMutability": "view",
      "type": "function"
    },
    {
      "constant": false,
      "inputs": [
        {
          "name": "",
          "type": "address"
        },
        {
          "name": "repaymentAmount",
          "type": "uint256"
        },
        {
          "name": "loanId",
          "type": "uint256"
        }
      ],
      "name": "transferNotification",
      "outputs": [],
      "payable": false,
      "stateMutability": "nonpayable",
      "type": "function"
    }
  ],
  "bytecode": "0x6060604052341561000f57600080fd5b6040516080806129538339810160405280805190602001909190805190602001909190805190602001909190805190602001909190505060016000803373ffffffffffffffffffffffffffffffffffffffff1673ffffffffffffffffffffffffffffffffffffffff16815260200190815260200160002060007f4d6f6e6574617279426f6172640000000000000000000000000000000000000060001916815260200190815260200160002060006101000a81548160ff0219169083151502179055503373ffffffffffffffffffffffffffffffffffffffff167fc65937e3dbcb9fb30f646815dd67a3dbd09ba17718cbcb54efbe3635f8e0a6fe60405180807f4d6f6e6574617279426f61726400000000000000000000000000000000000000815250602001905060405180910390a283600560006101000a81548173ffffffffffffffffffffffffffffffffffffffff021916908373ffffffffffffffffffffffffffffffffffffffff16021790555082600660006101000a81548173ffffffffffffffffffffffffffffffffffffffff021916908373ffffffffffffffffffffffffffffffffffffffff16021790555081600460006101000a81548173ffffffffffffffffffffffffffffffffffffffff021916908373ffffffffffffffffffffffffffffffffffffffff16021790555080600760006101000a81548173ffffffffffffffffffffffffffffffffffffffff021916908373ffffffffffffffffffffffffffffffffffffffff160217905550505050506126fc806102576000396000f300606060405260043610610112576000357c0100000000000000000000000000000000000000000000000000000000900463ffffffff1680630da32eaa146101175780631509c8cf14610190578063169f66df146101ab578063172676a91461020057806343f48fbd146102665780634a348da9146102bb57806352196812146102e457806357f46cbe1461030d5780635b2255261461033b5780635fcf0455146103995780635fe07013146103ee57806364e7e4a4146104345780636b64c8851461047f5780637acc0b201461050d5780637b9b9c891461056b5780637dbbc2bc146105c05780639ac3317b146105f15780639f4780b01461066a578063e1ec3c68146106c0578063f38a826214610770575b600080fd5b341561012257600080fd5b61018e600480803573ffffffffffffffffffffffffffffffffffffffff16906020019091908035906020019082018035906020019080806020026020016040519081016040528093929190818152602001838360200280828437820191505050505050919050506107b6565b005b6101a9600480803560ff169060200190919050506107fe565b005b34156101b657600080fd5b6101be610e90565b604051808273ffffffffffffffffffffffffffffffffffffffff1673ffffffffffffffffffffffffffffffffffffffff16815260200191505060405180910390f35b341561020b57600080fd5b61025060048080359060200190919080359060200190919080359060200190919080359060200190919080359060200190919080351515906020019091905050610eb6565b6040518082815260200191505060405180910390f35b341561027157600080fd5b61027961103f565b604051808273ffffffffffffffffffffffffffffffffffffffff1673ffffffffffffffffffffffffffffffffffffffff16815260200191505060405180910390f35b34156102c657600080fd5b6102ce611065565b6040518082815260200191505060405180910390f35b34156102ef57600080fd5b6102f7611072565b6040518082815260200191505060405180910390f35b341561031857600080fd5b6103396004808035906020019082018035906020019190919290505061107f565b005b341561034657600080fd5b61037f600480803573ffffffffffffffffffffffffffffffffffffffff16906020019091908035600019169060200190919050506118a5565b604051808215151515815260200191505060405180910390f35b34156103a457600080fd5b6103ac6118d4565b604051808273ffffffffffffffffffffffffffffffffffffffff1673ffffffffffffffffffffffffffffffffffffffff16815260200191505060405180910390f35b34156103f957600080fd5b610432600480803573ffffffffffffffffffffffffffffffffffffffff16906020019091908035600019169060200190919050506118fa565b005b341561043f57600080fd5b61047d600480803573ffffffffffffffffffffffffffffffffffffffff169060200190919080359060200190919080359060200190919050506119c4565b005b341561048a57600080fd5b6104b6600480803573ffffffffffffffffffffffffffffffffffffffff16906020019091905050611a2f565b6040518080602001828103825283818151815260200191508051906020019060200280838360005b838110156104f95780820151818401526020810190506104de565b505050509050019250505060405180910390f35b341561051857600080fd5b61052e6004808035906020019091905050611acc565b6040518087815260200186815260200185815260200184815260200183815260200182151515158152602001965050505050505060405180910390f35b341561057657600080fd5b61057e611b24565b604051808273ffffffffffffffffffffffffffffffffffffffff1673ffffffffffffffffffffffffffffffffffffffff16815260200191505060405180910390f35b34156105cb57600080fd5b6105ef600480803560ff169060200190919080351515906020019091905050611b4a565b005b34156105fc57600080fd5b610668600480803573ffffffffffffffffffffffffffffffffffffffff1690602001909190803590602001908201803590602001908080602002602001604051908101604052809392919081815260200183836020028082843782019150505050505091905050611c62565b005b341561067557600080fd5b6106aa600480803573ffffffffffffffffffffffffffffffffffffffff16906020019091908035906020019091905050611d36565b6040518082815260200191505060405180910390f35b34156106cb57600080fd5b6106e16004808035906020019091905050611d67565b604051808b73ffffffffffffffffffffffffffffffffffffffff1673ffffffffffffffffffffffffffffffffffffffff1681526020018a600281111561072357fe5b60ff1681526020018981526020018881526020018781526020018681526020018581526020018481526020018381526020018281526020019a505050505050505050505060405180910390f35b341561077b57600080fd5b6107b4600480803573ffffffffffffffffffffffffffffffffffffffff1690602001909190803560001916906020019091905050611df7565b005b60008082519150600090505b818110156107f8576107eb8484838151811015156107dc57fe5b906020019060200201516118fa565b80806001019150506107c2565b50505050565b60008060008060008060018760ff1681548110151561081957fe5b906000526020600020906006020160050160009054906101000a900460ff16151561084357600080fd5b600460009054906101000a900473ffffffffffffffffffffffffffffffffffffffff1673ffffffffffffffffffffffffffffffffffffffff166382f5e31b600560009054906101000a900473ffffffffffffffffffffffffffffffffffffffff1673ffffffffffffffffffffffffffffffffffffffff166333a263e66000604051602001526040518163ffffffff167c0100000000000000000000000000000000000000000000000000000000028152600401602060405180830381600087803b151561090f57600080fd5b6102c65a03f1151561092057600080fd5b50505060405180519050346000604051602001526040518363ffffffff167c010000000000000000000000000000000000000000000000000000000002815260040180836000191660001916815260200182815260200192505050602060405180830381600087803b151561099457600080fd5b6102c65a03f115156109a557600080fd5b5050506040518051905095506109fd6305f5e1006109ef60018a60ff168154811015156109ce57fe5b90600052602060002090600602016002015489611f4d90919063ffffffff16565b611f8390919063ffffffff16565b9450606485029450620f4240610a6260018960ff16815481101515610a1e57fe5b90600052602060002090600602016001015460018a60ff16815481101515610a4257fe5b906000526020600020906006020160020154611f4d90919063ffffffff16565b811515610a6b57fe5b049350610a976305f5e100610a898689611f4d90919063ffffffff16565b611f8390919063ffffffff16565b925060648302925060018760ff16815481101515610ab157fe5b9060005260206000209060060201600301548310151515610ad157600080fd5b848311610af057610aeb8386611fc790919063ffffffff16565b610af3565b60005b9150600160028054806001018281610b0b9190612512565b91600052602060002090600902016000610140604051908101604052803373ffffffffffffffffffffffffffffffffffffffff16815260200160006002811115610b5157fe5b81526020013481526020018a815260200188815260200187815260200160018d60ff16815481101515610b8057fe5b906000526020600020906006020160000154815260200142815260200160018d60ff16815481101515610baf57fe5b9060005260206000209060060201600001544201815260200160018d60ff16815481101515610bda57fe5b906000526020600020906006020160040154815250909190915060008201518160000160006101000a81548173ffffffffffffffffffffffffffffffffffffffff021916908373ffffffffffffffffffffffffffffffffffffffff16021790555060208201518160000160146101000a81548160ff02191690836002811115610c5f57fe5b021790555060408201518160010155606082015181600201556080820151816003015560a0820151816004015560c0820151816005015560e08201518160060155610100820151816007015561012082015181600801555050039050600360003373ffffffffffffffffffffffffffffffffffffffff1673ffffffffffffffffffffffffffffffffffffffff1681526020019081526020016000208054806001018281610d0c9190612544565b916000526020600020900160008390919091505550600660009054906101000a900473ffffffffffffffffffffffffffffffffffffffff1673ffffffffffffffffffffffffffffffffffffffff16631895687d33856040518363ffffffff167c0100000000000000000000000000000000000000000000000000000000028152600401808373ffffffffffffffffffffffffffffffffffffffff1673ffffffffffffffffffffffffffffffffffffffff16815260200182815260200192505050600060405180830381600087803b1515610de557600080fd5b6102c65a03f11515610df657600080fd5b5050507f2a8897a779aeb52af2c0d0d98a731e5346c03bd447d0743dc37543d119341a8a87823334878a604051808760ff1681526020018681526020018573ffffffffffffffffffffffffffffffffffffffff1673ffffffffffffffffffffffffffffffffffffffff168152602001848152602001838152602001828152602001965050505050505060405180910390a150505050505050565b600660009054906101000a900473ffffffffffffffffffffffffffffffffffffffff1681565b60007f4d6f6e6574617279426f617264000000000000000000000000000000000000006000803373ffffffffffffffffffffffffffffffffffffffff1673ffffffffffffffffffffffffffffffffffffffff1681526020019081526020016000206000826000191660001916815260200190815260200160002060009054906101000a900460ff161515610f4957600080fd5b6001808054806001018281610f5e9190612570565b9160005260206000209060060201600060c0604051908101604052808d81526020018c81526020018b81526020018a81526020018981526020018815158152509091909150600082015181600001556020820151816001015560408201518160020155606082015181600301556080820151816004015560a08201518160050160006101000a81548160ff02191690831515021790555050500391507f8aaf15a3416b8ef4e80d82317d5955a3f3a244a77e9c6ccc0cbb4c19dc3e811b826040518082815260200191505060405180910390a1819150509695505050505050565b600460009054906101000a900473ffffffffffffffffffffffffffffffffffffffff1681565b6000600180549050905090565b6000600280549050905090565b60008060008060008060008060008096505b8a8a9050871015611702578a8a8881811015156110aa57fe5b905060200201359550600060028111156110c057fe5b6002878154811015156110cf57fe5b906000526020600020906009020160000160149054906101000a900460ff1660028111156110f957fe5b14151561110557600080fd5b60028681548110151561111457fe5b906000526020600020906009020160070154421015151561113457600080fd5b61116760028781548110151561114657fe5b9060005260206000209060090201600301548a611fe390919063ffffffff16565b98506002808781548110151561117957fe5b906000526020600020906009020160000160146101000a81548160ff021916908360028111156111a557fe5b0217905550611212620f42406112046002898154811015156111c357fe5b90600052602060002090600902016008015460028a8154811015156111e457fe5b906000526020600020906009020160020154611f4d90919063ffffffff16565b61200490919063ffffffff16565b9450600460009054906101000a900473ffffffffffffffffffffffffffffffffffffffff1673ffffffffffffffffffffffffffffffffffffffff16635c481d8b600560009054906101000a900473ffffffffffffffffffffffffffffffffffffffff1673ffffffffffffffffffffffffffffffffffffffff166333a263e66000604051602001526040518163ffffffff167c0100000000000000000000000000000000000000000000000000000000028152600401602060405180830381600087803b15156112e057600080fd5b6102c65a03f115156112f157600080fd5b50505060405180519050876000604051602001526040518363ffffffff167c010000000000000000000000000000000000000000000000000000000002815260040180836000191660001916815260200182815260200192505050602060405180830381600087803b151561136557600080fd5b6102c65a03f1151561137657600080fd5b50505060405180519050935061152084600460009054906101000a900473ffffffffffffffffffffffffffffffffffffffff1673ffffffffffffffffffffffffffffffffffffffff16635c481d8b600560009054906101000a900473ffffffffffffffffffffffffffffffffffffffff1673ffffffffffffffffffffffffffffffffffffffff166333a263e66000604051602001526040518163ffffffff167c0100000000000000000000000000000000000000000000000000000000028152600401602060405180830381600087803b151561145257600080fd5b6102c65a03f1151561146357600080fd5b5050506040518051905060028b81548110151561147c57fe5b9060005260206000209060090201600201546000604051602001526040518363ffffffff167c010000000000000000000000000000000000000000000000000000000002815260040180836000191660001916815260200182815260200192505050602060405180830381600087803b15156114f757600080fd5b6102c65a03f1151561150857600080fd5b50505060405180519050611fe390919063ffffffff16565b925060028681548110151561153157fe5b9060005260206000209060090201600101548310156116005761157d8360028881548110151561155d57fe5b906000526020600020906009020160010154611fc790919063ffffffff16565b915060028681548110151561158e57fe5b906000526020600020906009020160000160009054906101000a900473ffffffffffffffffffffffffffffffffffffffff1673ffffffffffffffffffffffffffffffffffffffff166108fc839081150290604051600060405180830381858888f1935050505015156115ff57600080fd5b5b6116338260028881548110151561161357fe5b906000526020600020906009020160010154611fc790919063ffffffff16565b905080841115611641578093505b6116548189611fe390919063ffffffff16565b975060028681548110151561166557fe5b906000526020600020906009020160000160009054906101000a900473ffffffffffffffffffffffffffffffffffffffff1673ffffffffffffffffffffffffffffffffffffffff16867f328dba6669445381058bdb02ebe2ec93eb6f203f283073dee9b206720390f10b83858860405180848152602001838152602001828152602001935050505060405180910390a38680600101975050611091565b60008811156117f457600660009054906101000a900473ffffffffffffffffffffffffffffffffffffffff1673ffffffffffffffffffffffffffffffffffffffff1663fe1ebb046000604051602001526040518163ffffffff167c0100000000000000000000000000000000000000000000000000000000028152600401602060405180830381600087803b151561179957600080fd5b6102c65a03f115156117aa57600080fd5b5050506040518051905073ffffffffffffffffffffffffffffffffffffffff166108fc899081150290604051600060405180830381858888f1935050505015156117f357600080fd5b5b600660009054906101000a900473ffffffffffffffffffffffffffffffffffffffff1673ffffffffffffffffffffffffffffffffffffffff166358c316038a6040518263ffffffff167c010000000000000000000000000000000000000000000000000000000002815260040180828152602001915050600060405180830381600087803b151561188457600080fd5b6102c65a03f1151561189557600080fd5b5050505050505050505050505050565b60006020528160005260406000206020528060005260406000206000915091509054906101000a900460ff1681565b600760009054906101000a900473ffffffffffffffffffffffffffffffffffffffff1681565b60008060008473ffffffffffffffffffffffffffffffffffffffff1673ffffffffffffffffffffffffffffffffffffffff1681526020019081526020016000206000836000191660001916815260200190815260200160002060006101000a81548160ff0219169083151502179055508173ffffffffffffffffffffffffffffffffffffffff167f789770131846de4d1f28418f0f957cdf4fcabe5eccf70067083e20ecece69a348260405180826000191660001916815260200191505060405180910390a25050565b600560009054906101000a900473ffffffffffffffffffffffffffffffffffffffff1673ffffffffffffffffffffffffffffffffffffffff163373ffffffffffffffffffffffffffffffffffffffff16141515611a2057600080fd5b611a2a818361201f565b505050565b611a376125a2565b600360008373ffffffffffffffffffffffffffffffffffffffff1673ffffffffffffffffffffffffffffffffffffffff168152602001908152602001600020805480602002602001604051908101604052809291908181526020018280548015611ac057602002820191906000526020600020905b815481526020019060010190808311611aac575b50505050509050919050565b600181815481101515611adb57fe5b90600052602060002090600602016000915090508060000154908060010154908060020154908060030154908060040154908060050160009054906101000a900460ff16905086565b600560009054906101000a900473ffffffffffffffffffffffffffffffffffffffff1681565b7f4d6f6e6574617279426f617264000000000000000000000000000000000000006000803373ffffffffffffffffffffffffffffffffffffffff1673ffffffffffffffffffffffffffffffffffffffff1681526020019081526020016000206000826000191660001916815260200190815260200160002060009054906101000a900460ff161515611bdb57600080fd5b600060018460ff16815481101515611bef57fe5b906000526020600020906006020160050160006101000a81548160ff0219169083151502179055507f689f692868769ea7204c471c3a1f849d14c0812ed265979b39e3dcb8531fdc968383604051808360ff168152602001821515151581526020019250505060405180910390a1505050565b6000806000803373ffffffffffffffffffffffffffffffffffffffff1673ffffffffffffffffffffffffffffffffffffffff16815260200190815260200160002060007f4d6f6e6574617279426f6172640000000000000000000000000000000000000060001916815260200190815260200160002060009054906101000a900460ff161515611cf157600080fd5b82519150600090505b81811015611d3057611d23848483815181101515611d1457fe5b90602001906020020151611df7565b8080600101915050611cfa565b50505050565b600360205281600052604060002081815481101515611d5157fe5b9060005260206000209001600091509150505481565b600281815481101515611d7657fe5b90600052602060002090600902016000915090508060000160009054906101000a900473ffffffffffffffffffffffffffffffffffffffff16908060000160149054906101000a900460ff1690806001015490806002015490806003015490806004015490806005015490806006015490806007015490806008015490508a565b6000803373ffffffffffffffffffffffffffffffffffffffff1673ffffffffffffffffffffffffffffffffffffffff16815260200190815260200160002060007f4d6f6e6574617279426f6172640000000000000000000000000000000000000060001916815260200190815260200160002060009054906101000a900460ff161515611e8357600080fd5b60016000808473ffffffffffffffffffffffffffffffffffffffff1673ffffffffffffffffffffffffffffffffffffffff1681526020019081526020016000206000836000191660001916815260200190815260200160002060006101000a81548160ff0219169083151502179055508173ffffffffffffffffffffffffffffffffffffffff167fc65937e3dbcb9fb30f646815dd67a3dbd09ba17718cbcb54efbe3635f8e0a6fe8260405180826000191660001916815260200191505060405180910390a25050565b60008082840290506000841480611f6e5750828482811515611f6b57fe5b04145b1515611f7957600080fd5b8091505092915050565b6000808284811515611f9157fe5b049050600283811515611fa057fe5b048385811515611fac57fe5b06101515611fbd5780806001019150505b8091505092915050565b6000828211151515611fd857600080fd5b818303905092915050565b6000808284019050838110151515611ffa57600080fd5b8091505092915050565b600080828481151561201257fe5b0490508091505092915050565b6000600281111561202c57fe5b60028381548110151561203b57fe5b906000526020600020906009020160000160149054906101000a900460ff16600281111561206557fe5b14151561207157600080fd5b60028281548110151561208057fe5b90600052602060002090600902016007015442111515156120a057600080fd5b806002838154811015156120b057fe5b9060005260206000209060090201600201541415156120ce57600080fd5b60016002838154811015156120df57fe5b906000526020600020906009020160000160146101000a81548160ff0219169083600281111561210b57fe5b0217905550600560009054906101000a900473ffffffffffffffffffffffffffffffffffffffff1673ffffffffffffffffffffffffffffffffffffffff1663a9059cbb600760009054906101000a900473ffffffffffffffffffffffffffffffffffffffff1660028581548110151561218057fe5b9060005260206000209060090201600401546000604051602001526040518363ffffffff167c0100000000000000000000000000000000000000000000000000000000028152600401808373ffffffffffffffffffffffffffffffffffffffff1673ffffffffffffffffffffffffffffffffffffffff16815260200182815260200192505050602060405180830381600087803b151561221f57600080fd5b6102c65a03f1151561223057600080fd5b5050506040518051905050600560009054906101000a900473ffffffffffffffffffffffffffffffffffffffff1673ffffffffffffffffffffffffffffffffffffffff166342966c6860028481548110151561228857fe5b9060005260206000209060090201600301546040518263ffffffff167c010000000000000000000000000000000000000000000000000000000002815260040180828152602001915050600060405180830381600087803b15156122eb57600080fd5b6102c65a03f115156122fc57600080fd5b505050600660009054906101000a900473ffffffffffffffffffffffffffffffffffffffff1673ffffffffffffffffffffffffffffffffffffffff16634cae5f9960028481548110151561234c57fe5b9060005260206000209060090201600301546040518263ffffffff167c010000000000000000000000000000000000000000000000000000000002815260040180828152602001915050600060405180830381600087803b15156123af57600080fd5b6102c65a03f115156123c057600080fd5b5050506002828154811015156123d257fe5b906000526020600020906009020160000160009054906101000a900473ffffffffffffffffffffffffffffffffffffffff1673ffffffffffffffffffffffffffffffffffffffff166108fc60028481548110151561242c57fe5b9060005260206000209060090201600101549081150290604051600060405180830381858888f19350505050151561246357600080fd5b7f0bc2fda5eb321ed5f7471e814a5c00752523b3ba8fbfeb905e1b8707eefa16c58260028481548110151561249457fe5b906000526020600020906009020160000160009054906101000a900473ffffffffffffffffffffffffffffffffffffffff16604051808381526020018273ffffffffffffffffffffffffffffffffffffffff1673ffffffffffffffffffffffffffffffffffffffff1681526020019250505060405180910390a15050565b81548183558181151161253f5760090281600902836000526020600020918201910161253e91906125b6565b5b505050565b81548183558181151161256b5781836000526020600020918201910161256a9190612650565b5b505050565b81548183558181151161259d5760060281600602836000526020600020918201910161259c9190612675565b5b505050565b602060405190810160405280600081525090565b61264d91905b8082111561264957600080820160006101000a81549073ffffffffffffffffffffffffffffffffffffffff02191690556000820160146101000a81549060ff021916905560018201600090556002820160009055600382016000905560048201600090556005820160009055600682016000905560078201600090556008820160009055506009016125bc565b5090565b90565b61267291905b8082111561266e576000816000905550600101612656565b5090565b90565b6126cd91905b808211156126c95760008082016000905560018201600090556002820160009055600382016000905560048201600090556005820160006101000a81549060ff02191690555060060161267b565b5090565b905600a165627a7a723058200e3d20b06b909f192a05c4a00e04af00485fed795f7ff0b3256a1bf08ec7da9d0029",
  "source": "/*\n    Contract to manage Augmint token loan contracts backed by ETH\n    For flows see: https://github.com/Augmint/augmint-contracts/blob/master/docs/loanFlow.png\n\n    TODO:\n        - interestEarnedAccount setter?\n        - create MonetarySupervisor interface and use it instead?\n        - make data arg generic bytes?\n        - create and use InterestEarnedAccount interface instead?\n        - make collect() run as long as gas provided allows\n*/\npragma solidity 0.4.19;\n\nimport \"./Rates.sol\";\nimport \"./generic/Restricted.sol\";\nimport \"./generic/SafeMath.sol\";\nimport \"./interfaces/AugmintTokenInterface.sol\";\nimport \"./InterestEarnedAccount.sol\";\nimport \"./MonetarySupervisor.sol\";\n\n\ncontract LoanManager is Restricted {\n    using SafeMath for uint256;\n\n    enum LoanState { Open, Repaid, Defaulted }\n\n    struct LoanProduct {\n        uint term; // 0\n        uint discountRate; // 1: discountRate in parts per million , ie. 10,000 = 1%\n        uint collateralRatio;   // 2: loan token amount / colleteral pegged ccy value\n                                // in parts per million , ie. 10,000 = 1%\n        uint minDisbursedAmount; // 3: with 4 decimals, e.g. 31000 = 3.1ACE\n        uint defaultingFeePt; // 4: % of collateral in parts per million , ie. 50,000 = 5%\n        bool isActive; // 5\n    }\n\n    struct LoanData {\n        address borrower; // 0\n        LoanState state; // 1\n        uint collateralAmount; // 2\n        uint repaymentAmount; // 3\n        uint loanAmount; // 4\n        uint interestAmount; // 5\n        uint term; // 6\n        uint disbursementDate; // 7\n        uint maturity; // 8\n        uint defaultingFeePt; // 9\n    }\n\n    LoanProduct[] public products;\n\n    LoanData[] public loans;\n    mapping(address => uint[]) public mLoans;  // owner account address =>  array of loan Ids\n\n    Rates public rates; // instance of ETH/pegged currency rate provider contract\n    AugmintTokenInterface public augmintToken; // instance of token contract\n    MonetarySupervisor public monetarySupervisor;\n    InterestEarnedAccount public interestEarnedAccount;\n\n    event NewLoan(uint productId, uint loanId, address borrower, uint collateralAmount, uint loanAmount,\n        uint repaymentAmount);\n\n    event LoanProductActiveStateChanged(uint productId, bool newState);\n\n    event LoanProductAdded(uint productId);\n\n    event LoanRepayed(uint loanId, address borrower);\n\n    event LoanCollected(uint indexed loanId, address indexed borrower, uint collectedCollateral,\n        uint releasedCollateral, uint defaultingFee);\n\n    function LoanManager(AugmintTokenInterface _augmintToken, MonetarySupervisor _monetarySupervisor, Rates _rates,\n                            InterestEarnedAccount _interestEarnedAccount)\n    public {\n        augmintToken = _augmintToken;\n        monetarySupervisor = _monetarySupervisor;\n        rates = _rates;\n        interestEarnedAccount = _interestEarnedAccount;\n    }\n\n    function addLoanProduct(uint _term, uint _discountRate, uint _collateralRatio, uint _minDisbursedAmount,\n        uint _defaultingFee, bool _isActive)\n    external restrict(\"MonetaryBoard\") returns (uint newProductId) {\n        newProductId = products.push(\n            LoanProduct(_term, _discountRate, _collateralRatio, _minDisbursedAmount, _defaultingFee, _isActive)\n        ) - 1;\n\n        LoanProductAdded(newProductId);\n        return newProductId;\n    }\n\n    function setLoanProductActiveState(uint8 productId, bool newState)\n    external restrict (\"MonetaryBoard\") {\n        products[productId].isActive = false;\n        LoanProductActiveStateChanged(productId, newState);\n    }\n\n    function newEthBackedLoan(uint8 productId) external payable {\n        require(products[productId].isActive); // valid productId?\n\n        // calculate loan values based on ETH sent in with Tx\n        uint tokenValue = rates.convertFromWei(augmintToken.peggedSymbol(), msg.value);\n        uint repaymentAmount = tokenValue.mul(products[productId].collateralRatio).roundedDiv(100000000);\n        repaymentAmount = repaymentAmount * 100;    // rounding 4 decimals value to 2 decimals.\n                                                    // no safe mul needed b/c of prev divide\n\n        uint mul = products[productId].collateralRatio.mul(products[productId].discountRate) / 1000000;\n        uint loanAmount = tokenValue.mul(mul).roundedDiv(100000000);\n        loanAmount = loanAmount * 100;  // rounding 4 decimals value to 2 decimals.\n                                        // no safe mul needed b/c of prev divide\n\n        require(loanAmount >= products[productId].minDisbursedAmount);\n        uint interestAmount = loanAmount > repaymentAmount ? 0 : repaymentAmount.sub(loanAmount);\n\n        // Create new loan\n        uint loanId = loans.push(\n            LoanData(msg.sender, LoanState.Open, msg.value, repaymentAmount, loanAmount,\n                interestAmount, products[productId].term, now, now + products[productId].term,\n                products[productId].defaultingFeePt)\n            ) - 1;\n\n        // Store ref to new loan\n        mLoans[msg.sender].push(loanId);\n\n        // Issue tokens and send to borrower\n        monetarySupervisor.issueLoan(msg.sender, loanAmount);\n\n        NewLoan(productId, loanId, msg.sender, msg.value, loanAmount, repaymentAmount);\n    }\n\n    function collect(uint[] loanIds) external {\n        /* when there are a lots of loans to be collected then\n             the client need to call it in batches to make sure tx won't exceed block gas limit.\n         Anyone can call it - can't cause harm as it only allows to collect loans which they are defaulted\n         TODO: optimise defaulting fee calculations\n        */\n        uint totalLoanAmountCollected;\n        uint totalCollateralToCollect;\n        for (uint i = 0; i < loanIds.length; i++) {\n            uint loanId = loanIds[i];\n            require(loans[loanId].state == LoanState.Open);\n            require(now >= loans[loanId].maturity);\n\n            totalLoanAmountCollected = totalLoanAmountCollected.add(loans[loanId].loanAmount);\n\n            loans[loanId].state = LoanState.Defaulted;\n\n            // send ETH collateral to augmintToken reserve\n            uint defaultingFeeInToken = loans[loanId].repaymentAmount.mul(loans[loanId].defaultingFeePt).div(1000000);\n            uint defaultingFee = rates.convertToWei(augmintToken.peggedSymbol(), defaultingFeeInToken);\n            uint targetCollection = rates.convertToWei(augmintToken.peggedSymbol(), loans[loanId].repaymentAmount)\n                .add(defaultingFee);\n            uint releasedCollateral;\n            if (targetCollection < loans[loanId].collateralAmount) {\n                releasedCollateral = loans[loanId].collateralAmount.sub(targetCollection);\n                loans[loanId].borrower.transfer(releasedCollateral);\n            }\n            uint collateralToCollect = loans[loanId].collateralAmount.sub(releasedCollateral);\n            if (defaultingFee > collateralToCollect) {\n                defaultingFee = collateralToCollect;\n            }\n\n            totalCollateralToCollect = totalCollateralToCollect.add(collateralToCollect);\n\n            LoanCollected(loanId, loans[loanId].borrower, collateralToCollect, releasedCollateral, defaultingFee);\n        }\n\n        if (totalCollateralToCollect > 0) {\n            monetarySupervisor.augmintReserves().transfer(totalCollateralToCollect);\n        }\n\n        monetarySupervisor.loanCollectionNotification(totalLoanAmountCollected);// update KPIs\n\n    }\n\n    function getLoanCount() external view returns (uint ct) {\n        return loans.length;\n    }\n\n    function getProductCount() external view returns (uint ct) {\n        return products.length;\n    }\n\n    function getLoanIds(address borrower) external view returns (uint[] _loans) {\n        return mLoans[borrower];\n    }\n\n    /* repay loan, called from AugmintToken's transferAndNotify\n     Flow for repaying loan:\n        1) user calls token contract's transferAndNotify loanId passed in data arg\n        2) transferAndNotify transfers tokens to the Lender contract\n        3) transferAndNotify calls Lender.transferNotification with lockProductId\n    */\n    // from arg is not used as we allow anyone to repay a loan:\n    function transferNotification(address, uint repaymentAmount, uint loanId) public {\n        require(msg.sender == address(augmintToken));\n        _repayLoan(loanId, repaymentAmount);\n    }\n\n    /* internal function, assuming repayment amount already transfered  */\n    function _repayLoan(uint loanId, uint repaymentAmount) internal {\n        require(loans[loanId].state == LoanState.Open);\n        require(now <= loans[loanId].maturity);\n        require(loans[loanId].repaymentAmount == repaymentAmount);\n        loans[loanId].state = LoanState.Repaid;\n\n        augmintToken.transfer(interestEarnedAccount, loans[loanId].interestAmount);\n\n        augmintToken.burn(loans[loanId].loanAmount);\n        monetarySupervisor.loanRepaymentNotification(loans[loanId].loanAmount); // update KPIs\n\n        loans[loanId].borrower.transfer(loans[loanId].collateralAmount); // send back ETH collateral\n\n        LoanRepayed(loanId, loans[loanId].borrower);\n    }\n\n}\n",
  "sourcePath": "/Users/petro/ether/augmint-web/augmint-contracts/contracts/LoanManager.sol",
  "compiler": {
    "name": "solc",
    "version": "0.4.19+commit.c4cbbb05.Emscripten.clang"
  },
  "schemaVersion": "1.0.1",
  "updatedAt": "2018-02-14T18:14:30.397Z"
}