{
  "contractName": "LoanManager",
  "abi": [
    {
      "constant": true,
      "inputs": [],
      "name": "monetarySupervisor",
      "outputs": [
        {
          "name": "",
          "type": "address"
        }
      ],
      "payable": false,
      "stateMutability": "view",
      "type": "function"
    },
    {
      "constant": true,
      "inputs": [],
      "name": "rates",
      "outputs": [
        {
          "name": "",
          "type": "address"
        }
      ],
      "payable": false,
      "stateMutability": "view",
      "type": "function"
    },
    {
      "constant": true,
      "inputs": [
        {
          "name": "",
          "type": "address"
        },
        {
          "name": "",
          "type": "bytes32"
        }
      ],
      "name": "permissions",
      "outputs": [
        {
          "name": "",
          "type": "bool"
        }
      ],
      "payable": false,
      "stateMutability": "view",
      "type": "function"
    },
    {
      "constant": false,
      "inputs": [
        {
          "name": "agent",
          "type": "address"
        },
        {
          "name": "requiredPermission",
          "type": "bytes32"
        }
      ],
      "name": "revokePermission",
      "outputs": [],
      "payable": false,
      "stateMutability": "nonpayable",
      "type": "function"
    },
    {
      "constant": true,
      "inputs": [
        {
          "name": "",
          "type": "address"
        },
        {
          "name": "",
          "type": "uint256"
        }
      ],
      "name": "accountLoans",
      "outputs": [
        {
          "name": "",
          "type": "uint256"
        }
      ],
      "payable": false,
      "stateMutability": "view",
      "type": "function"
    },
    {
      "constant": true,
      "inputs": [
        {
          "name": "",
          "type": "uint256"
        }
      ],
      "name": "products",
      "outputs": [
        {
          "name": "minDisbursedAmount",
          "type": "uint256"
        },
        {
          "name": "term",
          "type": "uint32"
        },
        {
          "name": "discountRate",
          "type": "uint32"
        },
        {
          "name": "collateralRatio",
          "type": "uint32"
        },
        {
          "name": "defaultingFeePt",
          "type": "uint32"
        },
        {
          "name": "isActive",
          "type": "bool"
        }
      ],
      "payable": false,
      "stateMutability": "view",
      "type": "function"
    },
    {
      "constant": true,
      "inputs": [],
      "name": "augmintToken",
      "outputs": [
        {
          "name": "",
          "type": "address"
        }
      ],
      "payable": false,
      "stateMutability": "view",
      "type": "function"
    },
    {
      "constant": false,
      "inputs": [
        {
          "name": "agent",
          "type": "address"
        },
        {
          "name": "requiredPermissions",
          "type": "bytes32[]"
        }
      ],
      "name": "revokeMultiplePermissions",
      "outputs": [],
      "payable": false,
      "stateMutability": "nonpayable",
      "type": "function"
    },
    {
      "constant": false,
      "inputs": [
        {
          "name": "agent",
          "type": "address"
        },
        {
          "name": "requiredPermissions",
          "type": "bytes32[]"
        }
      ],
      "name": "grantMultiplePermissions",
      "outputs": [],
      "payable": false,
      "stateMutability": "nonpayable",
      "type": "function"
    },
    {
      "constant": true,
      "inputs": [
        {
          "name": "",
          "type": "uint256"
        }
      ],
      "name": "loans",
      "outputs": [
        {
          "name": "collateralAmount",
          "type": "uint256"
        },
        {
          "name": "repaymentAmount",
          "type": "uint256"
        },
        {
          "name": "borrower",
          "type": "address"
        },
        {
          "name": "productId",
          "type": "uint32"
        },
        {
          "name": "state",
          "type": "uint8"
        },
        {
          "name": "maturity",
          "type": "uint40"
        }
      ],
      "payable": false,
      "stateMutability": "view",
      "type": "function"
    },
    {
      "constant": true,
      "inputs": [],
      "name": "CHUNK_SIZE",
      "outputs": [
        {
          "name": "",
          "type": "uint16"
        }
      ],
      "payable": false,
      "stateMutability": "view",
      "type": "function"
    },
    {
      "constant": false,
      "inputs": [
        {
          "name": "agent",
          "type": "address"
        },
        {
          "name": "requiredPermission",
          "type": "bytes32"
        }
      ],
      "name": "grantPermission",
      "outputs": [],
      "payable": false,
      "stateMutability": "nonpayable",
      "type": "function"
    },
    {
      "inputs": [
        {
          "name": "_augmintToken",
          "type": "address"
        },
        {
          "name": "_monetarySupervisor",
          "type": "address"
        },
        {
          "name": "_rates",
          "type": "address"
        }
      ],
      "payable": false,
      "stateMutability": "nonpayable",
      "type": "constructor"
    },
    {
      "anonymous": false,
      "inputs": [
        {
          "indexed": false,
          "name": "productId",
          "type": "uint32"
        },
        {
          "indexed": false,
          "name": "loanId",
          "type": "uint256"
        },
        {
          "indexed": true,
          "name": "borrower",
          "type": "address"
        },
        {
          "indexed": false,
          "name": "collateralAmount",
          "type": "uint256"
        },
        {
          "indexed": false,
          "name": "loanAmount",
          "type": "uint256"
        },
        {
          "indexed": false,
          "name": "repaymentAmount",
          "type": "uint256"
        },
        {
          "indexed": false,
          "name": "maturity",
          "type": "uint40"
        }
      ],
      "name": "NewLoan",
      "type": "event"
    },
    {
      "anonymous": false,
      "inputs": [
        {
          "indexed": false,
          "name": "productId",
          "type": "uint32"
        },
        {
          "indexed": false,
          "name": "newState",
          "type": "bool"
        }
      ],
      "name": "LoanProductActiveStateChanged",
      "type": "event"
    },
    {
      "anonymous": false,
      "inputs": [
        {
          "indexed": false,
          "name": "productId",
          "type": "uint32"
        }
      ],
      "name": "LoanProductAdded",
      "type": "event"
    },
    {
      "anonymous": false,
      "inputs": [
        {
          "indexed": false,
          "name": "loanId",
          "type": "uint256"
        },
        {
          "indexed": false,
          "name": "borrower",
          "type": "address"
        }
      ],
      "name": "LoanRepayed",
      "type": "event"
    },
    {
      "anonymous": false,
      "inputs": [
        {
          "indexed": false,
          "name": "loanId",
          "type": "uint256"
        },
        {
          "indexed": true,
          "name": "borrower",
          "type": "address"
        },
        {
          "indexed": false,
          "name": "collectedCollateral",
          "type": "uint256"
        },
        {
          "indexed": false,
          "name": "releasedCollateral",
          "type": "uint256"
        },
        {
          "indexed": false,
          "name": "defaultingFee",
          "type": "uint256"
        }
      ],
      "name": "LoanCollected",
      "type": "event"
    },
    {
      "anonymous": false,
      "inputs": [
        {
          "indexed": false,
          "name": "newRatesContract",
          "type": "address"
        },
        {
          "indexed": false,
          "name": "newMonetarySupervisor",
          "type": "address"
        }
      ],
      "name": "SystemContractsChanged",
      "type": "event"
    },
    {
      "anonymous": false,
      "inputs": [
        {
          "indexed": true,
          "name": "agent",
          "type": "address"
        },
        {
          "indexed": false,
          "name": "grantedPermission",
          "type": "bytes32"
        }
      ],
      "name": "PermissionGranted",
      "type": "event"
    },
    {
      "anonymous": false,
      "inputs": [
        {
          "indexed": true,
          "name": "agent",
          "type": "address"
        },
        {
          "indexed": false,
          "name": "revokedPermission",
          "type": "bytes32"
        }
      ],
      "name": "PermissionRevoked",
      "type": "event"
    },
    {
      "constant": false,
      "inputs": [
        {
          "name": "term",
          "type": "uint32"
        },
        {
          "name": "discountRate",
          "type": "uint32"
        },
        {
          "name": "collateralRatio",
          "type": "uint32"
        },
        {
          "name": "minDisbursedAmount",
          "type": "uint256"
        },
        {
          "name": "defaultingFeePt",
          "type": "uint32"
        },
        {
          "name": "isActive",
          "type": "bool"
        }
      ],
      "name": "addLoanProduct",
      "outputs": [],
      "payable": false,
      "stateMutability": "nonpayable",
      "type": "function"
    },
    {
      "constant": false,
      "inputs": [
        {
          "name": "productId",
          "type": "uint32"
        },
        {
          "name": "newState",
          "type": "bool"
        }
      ],
      "name": "setLoanProductActiveState",
      "outputs": [],
      "payable": false,
      "stateMutability": "nonpayable",
      "type": "function"
    },
    {
      "constant": false,
      "inputs": [
        {
          "name": "productId",
          "type": "uint32"
        }
      ],
      "name": "newEthBackedLoan",
      "outputs": [],
      "payable": true,
      "stateMutability": "payable",
      "type": "function"
    },
    {
      "constant": false,
      "inputs": [
        {
          "name": "",
          "type": "address"
        },
        {
          "name": "repaymentAmount",
          "type": "uint256"
        },
        {
          "name": "loanId",
          "type": "uint256"
        }
      ],
      "name": "transferNotification",
      "outputs": [],
      "payable": false,
      "stateMutability": "nonpayable",
      "type": "function"
    },
    {
      "constant": false,
      "inputs": [
        {
          "name": "loanIds",
          "type": "uint256[]"
        }
      ],
      "name": "collect",
      "outputs": [],
      "payable": false,
      "stateMutability": "nonpayable",
      "type": "function"
    },
    {
      "constant": false,
      "inputs": [
        {
          "name": "newRatesContract",
          "type": "address"
        },
        {
          "name": "newMonetarySupervisor",
          "type": "address"
        }
      ],
      "name": "setSystemContracts",
      "outputs": [],
      "payable": false,
      "stateMutability": "nonpayable",
      "type": "function"
    },
    {
      "constant": true,
      "inputs": [],
      "name": "getProductCount",
      "outputs": [
        {
          "name": "ct",
          "type": "uint256"
        }
      ],
      "payable": false,
      "stateMutability": "view",
      "type": "function"
    },
    {
      "constant": true,
      "inputs": [
        {
          "name": "offset",
          "type": "uint256"
        }
      ],
      "name": "getProducts",
      "outputs": [
        {
          "name": "response",
          "type": "uint256[8][100]"
        }
      ],
      "payable": false,
      "stateMutability": "view",
      "type": "function"
    },
    {
      "constant": true,
      "inputs": [],
      "name": "getLoanCount",
      "outputs": [
        {
          "name": "ct",
          "type": "uint256"
        }
      ],
      "payable": false,
      "stateMutability": "view",
      "type": "function"
    },
    {
      "constant": true,
      "inputs": [
        {
          "name": "offset",
          "type": "uint256"
        }
      ],
      "name": "getLoans",
      "outputs": [
        {
          "name": "response",
          "type": "uint256[10][100]"
        }
      ],
      "payable": false,
      "stateMutability": "view",
      "type": "function"
    },
    {
      "constant": true,
      "inputs": [
        {
          "name": "borrower",
          "type": "address"
        }
      ],
      "name": "getLoanCountForAddress",
      "outputs": [
        {
          "name": "",
          "type": "uint256"
        }
      ],
      "payable": false,
      "stateMutability": "view",
      "type": "function"
    },
    {
      "constant": true,
      "inputs": [
        {
          "name": "borrower",
          "type": "address"
        },
        {
          "name": "offset",
          "type": "uint256"
        }
      ],
      "name": "getLoansForAddress",
      "outputs": [
        {
          "name": "response",
          "type": "uint256[10][100]"
        }
      ],
      "payable": false,
      "stateMutability": "view",
      "type": "function"
    },
    {
      "constant": true,
      "inputs": [
        {
          "name": "loanId",
          "type": "uint256"
        }
      ],
      "name": "getLoanTuple",
      "outputs": [
        {
          "name": "result",
          "type": "uint256[10]"
        }
      ],
      "payable": false,
      "stateMutability": "view",
      "type": "function"
    }
  ],
  "bytecode": "0x6060604052341561000f57600080fd5b60405160608061348e8339810160405280805190602001909190805190602001909190805190602001909190505060016000803373ffffffffffffffffffffffffffffffffffffffff1673ffffffffffffffffffffffffffffffffffffffff16815260200190815260200160002060007f4d6f6e6574617279426f6172640000000000000000000000000000000000000060001916815260200190815260200160002060006101000a81548160ff0219169083151502179055503373ffffffffffffffffffffffffffffffffffffffff167fc65937e3dbcb9fb30f646815dd67a3dbd09ba17718cbcb54efbe3635f8e0a6fe60405180807f4d6f6e6574617279426f61726400000000000000000000000000000000000000815250602001905060405180910390a282600560006101000a81548173ffffffffffffffffffffffffffffffffffffffff021916908373ffffffffffffffffffffffffffffffffffffffff16021790555081600660006101000a81548173ffffffffffffffffffffffffffffffffffffffff021916908373ffffffffffffffffffffffffffffffffffffffff16021790555080600460006101000a81548173ffffffffffffffffffffffffffffffffffffffff021916908373ffffffffffffffffffffffffffffffffffffffff1602179055505050506132828061020c6000396000f300606060405260043610610149576000357c0100000000000000000000000000000000000000000000000000000000900463ffffffff1680630aed3ca11461014e57806315f647fc146101d0578063169f66df146102045780632432282d1461025957806343f48fbd146102a6578063442d27dc146102fb5780634a348da91461035a5780634d8e64ee1461038357806352196812146103db57806357f46cbe146104045780635b225526146104325780635fe070131461049057806360ad970d146104d657806364e7e4a414610577578063761004bd146105c25780637acc0b20146106185780637b9b9c89146106a65780637ea46993146106fb5780639ac3317b14610774578063c1c6d4e8146107ed578063d4849a8b14610857578063debad27f14610875578063e1ec3c68146108f7578063e91e13a9146109a5578063f38a8262146109d6575b600080fd5b341561015957600080fd5b61016f6004808035906020019091905050610a1c565b604051808260646000925b818410156101c05782846020020151600a60200280838360005b838110156101af578082015181840152602081019050610194565b50505050905001926001019261017a565b9250505091505060405180910390f35b34156101db57600080fd5b610202600480803563ffffffff169060200190919080351515906020019091905050610a90565b005b341561020f57600080fd5b610217610bb4565b604051808273ffffffffffffffffffffffffffffffffffffffff1673ffffffffffffffffffffffffffffffffffffffff16815260200191505060405180910390f35b341561026457600080fd5b610290600480803573ffffffffffffffffffffffffffffffffffffffff16906020019091905050610bda565b6040518082815260200191505060405180910390f35b34156102b157600080fd5b6102b9610c26565b604051808273ffffffffffffffffffffffffffffffffffffffff1673ffffffffffffffffffffffffffffffffffffffff16815260200191505060405180910390f35b341561030657600080fd5b61031c6004808035906020019091905050610c4c565b6040518082600a60200280838360005b8381101561034757808201518184015260208101905061032c565b5050505090500191505060405180910390f35b341561036557600080fd5b61036d610e50565b6040518082815260200191505060405180910390f35b341561038e57600080fd5b6103d9600480803573ffffffffffffffffffffffffffffffffffffffff1690602001909190803573ffffffffffffffffffffffffffffffffffffffff16906020019091905050610e5d565b005b34156103e657600080fd5b6103ee61100c565b6040518082815260200191505060405180910390f35b341561040f57600080fd5b61043060048080359060200190820180359060200191909192905050611019565b005b341561043d57600080fd5b610476600480803573ffffffffffffffffffffffffffffffffffffffff169060200190919080356000191690602001909190505061188b565b604051808215151515815260200191505060405180910390f35b341561049b57600080fd5b6104d4600480803573ffffffffffffffffffffffffffffffffffffffff16906020019091908035600019169060200190919050506118ba565b005b34156104e157600080fd5b610516600480803573ffffffffffffffffffffffffffffffffffffffff16906020019091908035906020019091905050611a10565b604051808260646000925b818410156105675782846020020151600a60200280838360005b8381101561055657808201518184015260208101905061053b565b505050509050019260010192610521565b9250505091505060405180910390f35b341561058257600080fd5b6105c0600480803573ffffffffffffffffffffffffffffffffffffffff16906020019091908035906020019091908035906020019091905050611ae1565b005b34156105cd57600080fd5b610602600480803573ffffffffffffffffffffffffffffffffffffffff16906020019091908035906020019091905050611b4c565b6040518082815260200191505060405180910390f35b341561062357600080fd5b6106396004808035906020019091905050611b7d565b604051808781526020018663ffffffff1663ffffffff1681526020018563ffffffff1663ffffffff1681526020018463ffffffff1663ffffffff1681526020018363ffffffff1663ffffffff16815260200182151515158152602001965050505050505060405180910390f35b34156106b157600080fd5b6106b9611c15565b604051808273ffffffffffffffffffffffffffffffffffffffff1673ffffffffffffffffffffffffffffffffffffffff16815260200191505060405180910390f35b341561070657600080fd5b610772600480803573ffffffffffffffffffffffffffffffffffffffff1690602001909190803590602001908201803590602001908080602002602001604051908101604052809392919081815260200183836020028082843782019150505050505091905050611c3b565b005b341561077f57600080fd5b6107eb600480803573ffffffffffffffffffffffffffffffffffffffff1690602001909190803590602001908201803590602001908080602002602001604051908101604052809392919081815260200183836020028082843782019150505050505091905050611c83565b005b34156107f857600080fd5b610855600480803563ffffffff1690602001909190803563ffffffff1690602001909190803563ffffffff1690602001909190803590602001909190803563ffffffff169060200190919080351515906020019091905050611d57565b005b610873600480803563ffffffff16906020019091905050611f8d565b005b341561088057600080fd5b6108966004808035906020019091905050612510565b604051808260646000925b818410156108e75782846020020151600860200280838360005b838110156108d65780820151818401526020810190506108bb565b5050505090500192600101926108a1565b9250505091505060405180910390f35b341561090257600080fd5b6109186004808035906020019091905050612716565b604051808781526020018681526020018573ffffffffffffffffffffffffffffffffffffffff1673ffffffffffffffffffffffffffffffffffffffff1681526020018463ffffffff1663ffffffff16815260200183600381111561097857fe5b60ff1681526020018264ffffffffff1664ffffffffff168152602001965050505050505060405180910390f35b34156109b057600080fd5b6109b86127af565b604051808261ffff1661ffff16815260200191505060405180910390f35b34156109e157600080fd5b610a1a600480803573ffffffffffffffffffffffffffffffffffffffff16906020019091908035600019169060200190919050506127b4565b005b610a24612f98565b60008090505b606461ffff168161ffff161015610a8a576002805490508161ffff168401101515610a5457610a8a565b610a638161ffff168401610c4c565b828261ffff16606481101515610a7557fe5b60200201819052508080600101915050610a2a565b50919050565b7f4d6f6e6574617279426f617264000000000000000000000000000000000000006000803373ffffffffffffffffffffffffffffffffffffffff1673ffffffffffffffffffffffffffffffffffffffff1681526020019081526020016000206000826000191660001916815260200190815260200160002060009054906101000a900460ff161515610b2157600080fd5b600060018463ffffffff16815481101515610b3857fe5b906000526020600020906002020160010160106101000a81548160ff0219169083151502179055507ff686833114a6119b006ebfaf64ed31277c71b76a9855945de8d58f849bff68908383604051808363ffffffff1663ffffffff168152602001821515151581526020019250505060405180910390a1505050565b600660009054906101000a900473ffffffffffffffffffffffffffffffffffffffff1681565b6000600360008373ffffffffffffffffffffffffffffffffffffffff1673ffffffffffffffffffffffffffffffffffffffff168152602001908152602001600020805490509050919050565b600460009054906101000a900473ffffffffffffffffffffffffffffffffffffffff1681565b610c54612fc7565b600080600080600080600288815481101515610c6c57fe5b9060005260206000209060030201955060018660020160149054906101000a900463ffffffff1663ffffffff16815481101515610ca557fe5b90600052602060002090600202019450610cc385876001015461290a565b80945081955050508460010160009054906101000a900463ffffffff1663ffffffff168660020160199054906101000a900464ffffffffff160364ffffffffff16915060006003811115610d1357fe5b8660020160189054906101000a900460ff166003811115610d3057fe5b148015610d5957508560020160199054906101000a900464ffffffffff1664ffffffffff164210155b610d74578560020160189054906101000a900460ff16610d77565b60025b90506101406040519081016040528089815260200187600001548152602001876001015481526020018760020160009054906101000a900473ffffffffffffffffffffffffffffffffffffffff1673ffffffffffffffffffffffffffffffffffffffff1681526020018760020160149054906101000a900463ffffffff1663ffffffff168152602001826003811115610e0c57fe5b81526020018760020160199054906101000a900464ffffffffff1664ffffffffff168152602001838152602001858152602001848152509650505050505050919050565b6000600180549050905090565b7f4d6f6e6574617279426f617264000000000000000000000000000000000000006000803373ffffffffffffffffffffffffffffffffffffffff1673ffffffffffffffffffffffffffffffffffffffff1681526020019081526020016000206000826000191660001916815260200190815260200160002060009054906101000a900460ff161515610eee57600080fd5b82600460006101000a81548173ffffffffffffffffffffffffffffffffffffffff021916908373ffffffffffffffffffffffffffffffffffffffff16021790555081600660006101000a81548173ffffffffffffffffffffffffffffffffffffffff021916908373ffffffffffffffffffffffffffffffffffffffff1602179055507f68700d71686a6c45f4e450fa2f38d15fcddf5956d2bd054075f77d4636ff0f1a8383604051808373ffffffffffffffffffffffffffffffffffffffff1673ffffffffffffffffffffffffffffffffffffffff1681526020018273ffffffffffffffffffffffffffffffffffffffff1673ffffffffffffffffffffffffffffffffffffffff1681526020019250505060405180910390a1505050565b6000600280549050905090565b600080600080600080600080600080600080600098505b8d8d90508910156116115760028e8e8b818110151561104b57fe5b9050602002013581548110151561105e57fe5b906000526020600020906003020197506000600381111561107b57fe5b8860020160189054906101000a900460ff16600381111561109857fe5b1415156110a457600080fd5b8760020160199054906101000a900464ffffffffff1664ffffffffff1642101515156110cf57600080fd5b60018860020160149054906101000a900463ffffffff1663ffffffff168154811015156110f857fe5b9060005260206000209060020201965061111687896001015461290a565b508096505061112e868d61297c90919063ffffffff16565b9b5060038860020160186101000a81548160ff0219169083600381111561115157fe5b021790555061119c620f424061118e89600101600c9054906101000a900463ffffffff1663ffffffff168b6001015461299d90919063ffffffff16565b6129d390919063ffffffff16565b9450600460009054906101000a900473ffffffffffffffffffffffffffffffffffffffff1673ffffffffffffffffffffffffffffffffffffffff16635c481d8b600560009054906101000a900473ffffffffffffffffffffffffffffffffffffffff1673ffffffffffffffffffffffffffffffffffffffff166333a263e66040518163ffffffff167c0100000000000000000000000000000000000000000000000000000000028152600401602060405180830381600087803b151561126157600080fd5b5af1151561126e57600080fd5b50505060405180519050876040518363ffffffff167c010000000000000000000000000000000000000000000000000000000002815260040180836000191660001916815260200182815260200192505050602060405180830381600087803b15156112d957600080fd5b5af115156112e657600080fd5b50505060405180519050935061145a84600460009054906101000a900473ffffffffffffffffffffffffffffffffffffffff1673ffffffffffffffffffffffffffffffffffffffff16635c481d8b600560009054906101000a900473ffffffffffffffffffffffffffffffffffffffff1673ffffffffffffffffffffffffffffffffffffffff166333a263e66040518163ffffffff167c0100000000000000000000000000000000000000000000000000000000028152600401602060405180830381600087803b15156113b957600080fd5b5af115156113c657600080fd5b505050604051805190508c600101546040518363ffffffff167c010000000000000000000000000000000000000000000000000000000002815260040180836000191660001916815260200182815260200192505050602060405180830381600087803b151561143557600080fd5b5af1151561144257600080fd5b5050506040518051905061297c90919063ffffffff16565b925087600001548310156114e65761147f8389600001546129ee90919063ffffffff16565b91508760020160009054906101000a900473ffffffffffffffffffffffffffffffffffffffff1673ffffffffffffffffffffffffffffffffffffffff166108fc839081150290604051600060405180830381858888f1935050505015156114e557600080fd5b5b6114fd8289600001546129ee90919063ffffffff16565b90508084101515611514578093506000905061152a565b61152784826129ee90919063ffffffff16565b90505b61153d848b61297c90919063ffffffff16565b9950611552818c61297c90919063ffffffff16565b9a508760020160009054906101000a900473ffffffffffffffffffffffffffffffffffffffff1673ffffffffffffffffffffffffffffffffffffffff167f328dba6669445381058bdb02ebe2ec93eb6f203f283073dee9b206720390f10b8f8f8c81811015156115be57fe5b905060200201356115d8878561297c90919063ffffffff16565b85886040518085815260200184815260200183815260200182815260200194505050505060405180910390a28880600101995050611030565b60008b11156116f657600660009054906101000a900473ffffffffffffffffffffffffffffffffffffffff1673ffffffffffffffffffffffffffffffffffffffff1663fe1ebb046040518163ffffffff167c0100000000000000000000000000000000000000000000000000000000028152600401602060405180830381600087803b151561169f57600080fd5b5af115156116ac57600080fd5b5050506040518051905073ffffffffffffffffffffffffffffffffffffffff166108fc8c9081150290604051600060405180830381858888f1935050505015156116f557600080fd5b5b60008a11156117db57600560009054906101000a900473ffffffffffffffffffffffffffffffffffffffff1673ffffffffffffffffffffffffffffffffffffffff166365e17c9d6040518163ffffffff167c0100000000000000000000000000000000000000000000000000000000028152600401602060405180830381600087803b151561178457600080fd5b5af1151561179157600080fd5b5050506040518051905073ffffffffffffffffffffffffffffffffffffffff166108fc8b9081150290604051600060405180830381858888f1935050505015156117da57600080fd5b5b600660009054906101000a900473ffffffffffffffffffffffffffffffffffffffff1673ffffffffffffffffffffffffffffffffffffffff166358c316038d6040518263ffffffff167c010000000000000000000000000000000000000000000000000000000002815260040180828152602001915050600060405180830381600087803b151561186b57600080fd5b5af1151561187857600080fd5b5050505050505050505050505050505050565b60006020528160005260406000206020528060005260406000206000915091509054906101000a900460ff1681565b6000803373ffffffffffffffffffffffffffffffffffffffff1673ffffffffffffffffffffffffffffffffffffffff16815260200190815260200160002060007f4d6f6e6574617279426f6172640000000000000000000000000000000000000060001916815260200190815260200160002060009054906101000a900460ff16151561194657600080fd5b60008060008473ffffffffffffffffffffffffffffffffffffffff1673ffffffffffffffffffffffffffffffffffffffff1681526020019081526020016000206000836000191660001916815260200190815260200160002060006101000a81548160ff0219169083151502179055508173ffffffffffffffffffffffffffffffffffffffff167f789770131846de4d1f28418f0f957cdf4fcabe5eccf70067083e20ecece69a348260405180826000191660001916815260200191505060405180910390a25050565b611a18612f98565b600080600360008673ffffffffffffffffffffffffffffffffffffffff1673ffffffffffffffffffffffffffffffffffffffff1681526020019081526020016000209150600090505b606461ffff168161ffff161015611ad95781805490508161ffff168501101515611a8a57611ad9565b611ab2828261ffff168601815481101515611aa157fe5b906000526020600020900154610c4c565b838261ffff16606481101515611ac457fe5b60200201819052508080600101915050611a61565b505092915050565b600560009054906101000a900473ffffffffffffffffffffffffffffffffffffffff1673ffffffffffffffffffffffffffffffffffffffff163373ffffffffffffffffffffffffffffffffffffffff16141515611b3d57600080fd5b611b478183612a0a565b505050565b600360205281600052604060002081815481101515611b6757fe5b9060005260206000209001600091509150505481565b600181815481101515611b8c57fe5b90600052602060002090600202016000915090508060000154908060010160009054906101000a900463ffffffff16908060010160049054906101000a900463ffffffff16908060010160089054906101000a900463ffffffff169080600101600c9054906101000a900463ffffffff16908060010160109054906101000a900460ff16905086565b600560009054906101000a900473ffffffffffffffffffffffffffffffffffffffff1681565b60008082519150600090505b81811015611c7d57611c70848483815181101515611c6157fe5b906020019060200201516118ba565b8080600101915050611c47565b50505050565b6000806000803373ffffffffffffffffffffffffffffffffffffffff1673ffffffffffffffffffffffffffffffffffffffff16815260200190815260200160002060007f4d6f6e6574617279426f6172640000000000000000000000000000000000000060001916815260200190815260200160002060009054906101000a900460ff161515611d1257600080fd5b82519150600090505b81811015611d5157611d44848483815181101515611d3557fe5b906020019060200201516127b4565b8080600101915050611d1b565b50505050565b6000807f4d6f6e6574617279426f617264000000000000000000000000000000000000006000803373ffffffffffffffffffffffffffffffffffffffff1673ffffffffffffffffffffffffffffffffffffffff1681526020019081526020016000206000826000191660001916815260200190815260200160002060009054906101000a900460ff161515611deb57600080fd5b6001808054806001018281611e009190612ff0565b9160005260206000209060020201600060c0604051908101604052808b81526020018e63ffffffff1681526020018d63ffffffff1681526020018c63ffffffff1681526020018a63ffffffff16815260200189151581525090919091506000820151816000015560208201518160010160006101000a81548163ffffffff021916908363ffffffff16021790555060408201518160010160046101000a81548163ffffffff021916908363ffffffff16021790555060608201518160010160086101000a81548163ffffffff021916908363ffffffff160217905550608082015181600101600c6101000a81548163ffffffff021916908363ffffffff16021790555060a08201518160010160106101000a81548160ff0219169083151502179055505050039250829150828263ffffffff16141515611f3f57600080fd5b7fccadd8a27b8a91830a26f7dd76f3acec14cd6bc7bfb79e91113ec547150d95f082604051808263ffffffff1663ffffffff16815260200191505060405180910390a1505050505050505050565b600080600080600080600060018863ffffffff16815481101515611fad57fe5b906000526020600020906002020196508660010160109054906101000a900460ff161515611fda57600080fd5b600460009054906101000a900473ffffffffffffffffffffffffffffffffffffffff1673ffffffffffffffffffffffffffffffffffffffff166382f5e31b600560009054906101000a900473ffffffffffffffffffffffffffffffffffffffff1673ffffffffffffffffffffffffffffffffffffffff166333a263e66040518163ffffffff167c0100000000000000000000000000000000000000000000000000000000028152600401602060405180830381600087803b151561209d57600080fd5b5af115156120aa57600080fd5b50505060405180519050346040518363ffffffff167c010000000000000000000000000000000000000000000000000000000002815260040180836000191660001916815260200182815260200192505050602060405180830381600087803b151561211557600080fd5b5af1151561212257600080fd5b505050604051805190509550612170620f42406121628960010160089054906101000a900463ffffffff1663ffffffff168961299d90919063ffffffff16565b6129d390919063ffffffff16565b945061217c878661290a565b50809450508660000154841015151561219457600080fd5b6121c18760010160009054906101000a900463ffffffff1663ffffffff164261297c90919063ffffffff16565b9250829150828264ffffffffff161415156121db57600080fd5b6001600280548060010182816121f19190613022565b9160005260206000209060030201600060c0604051908101604052803481526020018a81526020013373ffffffffffffffffffffffffffffffffffffffff1681526020018d63ffffffff1681526020016000600381111561224e57fe5b81526020018764ffffffffff168152509091909150600082015181600001556020820151816001015560408201518160020160006101000a81548173ffffffffffffffffffffffffffffffffffffffff021916908373ffffffffffffffffffffffffffffffffffffffff16021790555060608201518160020160146101000a81548163ffffffff021916908363ffffffff16021790555060808201518160020160186101000a81548160ff0219169083600381111561230957fe5b021790555060a08201518160020160196101000a81548164ffffffffff021916908364ffffffffff1602179055505050039050600360003373ffffffffffffffffffffffffffffffffffffffff1673ffffffffffffffffffffffffffffffffffffffff168152602001908152602001600020805480600101828161238d9190613054565b916000526020600020900160008390919091505550600660009054906101000a900473ffffffffffffffffffffffffffffffffffffffff1673ffffffffffffffffffffffffffffffffffffffff16631895687d33866040518363ffffffff167c0100000000000000000000000000000000000000000000000000000000028152600401808373ffffffffffffffffffffffffffffffffffffffff1673ffffffffffffffffffffffffffffffffffffffff16815260200182815260200192505050600060405180830381600087803b151561246657600080fd5b5af1151561247357600080fd5b5050503373ffffffffffffffffffffffffffffffffffffffff167f1f9972ec35a86b6ea1c3884c02fda9d8d0c5c14089a133610fed51c481b7e208898334888a88604051808763ffffffff1663ffffffff1681526020018681526020018581526020018481526020018381526020018264ffffffffff1664ffffffffff168152602001965050505050505060405180910390a25050505050505050565b612518613080565b600080600091505b606461ffff168261ffff16101561270f576001805490508261ffff16850110151561254a5761270f565b60018261ffff16850181548110151561255f57fe5b90600052602060002090600202019050610100604051908101604052808361ffff1686018152602001826000015481526020018260010160009054906101000a900463ffffffff1663ffffffff1681526020018260010160049054906101000a900463ffffffff1663ffffffff1681526020018260010160089054906101000a900463ffffffff1663ffffffff16815260200182600101600c9054906101000a900463ffffffff1663ffffffff168152602001600660009054906101000a900473ffffffffffffffffffffffffffffffffffffffff1673ffffffffffffffffffffffffffffffffffffffff1663e95f2c7d84600001546040518263ffffffff167c010000000000000000000000000000000000000000000000000000000002815260040180828152602001915050602060405180830381600087803b15156126a657600080fd5b5af115156126b357600080fd5b5050506040518051905081526020018260010160109054906101000a900460ff166126df5760006126e2565b60015b60ff16815250838361ffff166064811015156126fa57fe5b60200201819052508180600101925050612520565b5050919050565b60028181548110151561272557fe5b90600052602060002090600302016000915090508060000154908060010154908060020160009054906101000a900473ffffffffffffffffffffffffffffffffffffffff16908060020160149054906101000a900463ffffffff16908060020160189054906101000a900460ff16908060020160199054906101000a900464ffffffffff16905086565b606481565b6000803373ffffffffffffffffffffffffffffffffffffffff1673ffffffffffffffffffffffffffffffffffffffff16815260200190815260200160002060007f4d6f6e6574617279426f6172640000000000000000000000000000000000000060001916815260200190815260200160002060009054906101000a900460ff16151561284057600080fd5b60016000808473ffffffffffffffffffffffffffffffffffffffff1673ffffffffffffffffffffffffffffffffffffffff1681526020019081526020016000206000836000191660001916815260200190815260200160002060006101000a81548160ff0219169083151502179055508173ffffffffffffffffffffffffffffffffffffffff167fc65937e3dbcb9fb30f646815dd67a3dbd09ba17718cbcb54efbe3635f8e0a6fe8260405180826000191660001916815260200191505060405180910390a25050565b60008061294f620f42406129418660010160049054906101000a900463ffffffff1663ffffffff168661299d90919063ffffffff16565b6129d390919063ffffffff16565b91508282116129705761296b82846129ee90919063ffffffff16565b612973565b60005b90509250929050565b600080828401905083811015151561299357600080fd5b8091505092915050565b600080828402905060008414806129be57508284828115156129bb57fe5b04145b15156129c957600080fd5b8091505092915050565b60008082848115156129e157fe5b0490508091505092915050565b60008282111515156129ff57600080fd5b818303905092915050565b600080600080600286815481101515612a1f57fe5b9060005260206000209060030201935060006003811115612a3c57fe5b8460020160189054906101000a900460ff166003811115612a5957fe5b141515612a6557600080fd5b836001015485141515612a7757600080fd5b8360020160199054906101000a900464ffffffffff1664ffffffffff164211151515612aa257600080fd5b60018460020160149054906101000a900463ffffffff1663ffffffff16815481101515612acb57fe5b90600052602060002090600202019250612ae983856001015461290a565b80925081935050506001600287815481101515612b0257fe5b906000526020600020906003020160020160186101000a81548160ff02191690836003811115612b2e57fe5b02179055506000811115612d5857600560009054906101000a900473ffffffffffffffffffffffffffffffffffffffff1673ffffffffffffffffffffffffffffffffffffffff1663a9059cbb600660009054906101000a900473ffffffffffffffffffffffffffffffffffffffff1673ffffffffffffffffffffffffffffffffffffffff16635fcf04556040518163ffffffff167c0100000000000000000000000000000000000000000000000000000000028152600401602060405180830381600087803b1515612bff57600080fd5b5af11515612c0c57600080fd5b50505060405180519050836040518363ffffffff167c0100000000000000000000000000000000000000000000000000000000028152600401808373ffffffffffffffffffffffffffffffffffffffff1673ffffffffffffffffffffffffffffffffffffffff16815260200182815260200192505050602060405180830381600087803b1515612c9b57600080fd5b5af11515612ca857600080fd5b5050506040518051905050600560009054906101000a900473ffffffffffffffffffffffffffffffffffffffff1673ffffffffffffffffffffffffffffffffffffffff166342966c68836040518263ffffffff167c010000000000000000000000000000000000000000000000000000000002815260040180828152602001915050600060405180830381600087803b1515612d4357600080fd5b5af11515612d5057600080fd5b505050612df9565b600560009054906101000a900473ffffffffffffffffffffffffffffffffffffffff1673ffffffffffffffffffffffffffffffffffffffff166342966c68866040518263ffffffff167c010000000000000000000000000000000000000000000000000000000002815260040180828152602001915050600060405180830381600087803b1515612de857600080fd5b5af11515612df557600080fd5b5050505b600660009054906101000a900473ffffffffffffffffffffffffffffffffffffffff1673ffffffffffffffffffffffffffffffffffffffff16634cae5f99836040518263ffffffff167c010000000000000000000000000000000000000000000000000000000002815260040180828152602001915050600060405180830381600087803b1515612e8957600080fd5b5af11515612e9657600080fd5b5050508360020160009054906101000a900473ffffffffffffffffffffffffffffffffffffffff1673ffffffffffffffffffffffffffffffffffffffff166108fc85600001549081150290604051600060405180830381858888f193505050501515612f0157600080fd5b7f0bc2fda5eb321ed5f7471e814a5c00752523b3ba8fbfeb905e1b8707eefa16c5868560020160009054906101000a900473ffffffffffffffffffffffffffffffffffffffff16604051808381526020018273ffffffffffffffffffffffffffffffffffffffff1673ffffffffffffffffffffffffffffffffffffffff1681526020019250505060405180910390a1505050505050565b617d00604051908101604052806064905b612fb16130af565b815260200190600190039081612fa95790505090565b61014060405190810160405280600a905b6000815260200190600190039081612fd85790505090565b81548183558181151161301d5760020281600202836000526020600020918201910161301c91906130d8565b5b505050565b81548183558181151161304f5760030281600302836000526020600020918201910161304e919061316f565b5b505050565b81548183558181151161307b5781836000526020600020918201910161307a9190613208565b5b505050565b616400604051908101604052806064905b61309961322d565b8152602001906001900390816130915790505090565b61014060405190810160405280600a905b60008152602001906001900390816130c05790505090565b61316c91905b80821115613168576000808201600090556001820160006101000a81549063ffffffff02191690556001820160046101000a81549063ffffffff02191690556001820160086101000a81549063ffffffff021916905560018201600c6101000a81549063ffffffff02191690556001820160106101000a81549060ff0219169055506002016130de565b5090565b90565b61320591905b808211156132015760008082016000905560018201600090556002820160006101000a81549073ffffffffffffffffffffffffffffffffffffffff02191690556002820160146101000a81549063ffffffff02191690556002820160186101000a81549060ff02191690556002820160196101000a81549064ffffffffff021916905550600301613175565b5090565b90565b61322a91905b8082111561322657600081600090555060010161320e565b5090565b90565b610100604051908101604052806008905b600081526020019060019003908161323e57905050905600a165627a7a72305820783186cc9a1e677481bd456db76cde5381862b25159eea108787c256d42a83de0029",
  "source": "/*\n    Contract to manage Augmint token loan contracts backed by ETH\n    For flows see: https://github.com/Augmint/augmint-contracts/blob/master/docs/loanFlow.png\n\n    TODO:\n        - create MonetarySupervisor interface and use it instead?\n        - make data arg generic bytes?\n        - make collect() run as long as gas provided allows\n*/\npragma solidity 0.4.21;\n\nimport \"./Rates.sol\";\nimport \"./generic/Restricted.sol\";\nimport \"./generic/SafeMath.sol\";\nimport \"./interfaces/AugmintTokenInterface.sol\";\nimport \"./MonetarySupervisor.sol\";\n\n\ncontract LoanManager is Restricted {\n    using SafeMath for uint256;\n\n    uint16 public constant CHUNK_SIZE = 100;\n\n    enum LoanState { Open, Repaid, Defaulted, Collected } // NB: Defaulted state is not stored, only getters calculate\n\n    struct LoanProduct {\n        uint minDisbursedAmount; // 0: with decimals set in AugmintToken.decimals\n        uint32 term;            // 1\n        uint32 discountRate;    // 2: discountRate in parts per million , ie. 10,000 = 1%\n        uint32 collateralRatio; // 3: loan token amount / colleteral pegged ccy value\n                                //      in parts per million , ie. 10,000 = 1%\n        uint32 defaultingFeePt; // 4: % of collateral in parts per million , ie. 50,000 = 5%\n        bool isActive;          // 5\n    }\n\n    /* NB: we don't need to store loan parameters because loan products can't be altered (only disabled/enabled) */\n    struct LoanData {\n        uint collateralAmount; // 0\n        uint repaymentAmount; // 1\n        address borrower; // 2\n        uint32 productId; // 3\n        LoanState state; // 4\n        uint40 maturity; // 5\n    }\n\n    LoanProduct[] public products;\n\n    LoanData[] public loans;\n    mapping(address => uint[]) public accountLoans;  // owner account address =>  array of loan Ids\n\n    Rates public rates; // instance of ETH/pegged currency rate provider contract\n    AugmintTokenInterface public augmintToken; // instance of token contract\n    MonetarySupervisor public monetarySupervisor;\n\n    event NewLoan(uint32 productId, uint loanId, address indexed borrower, uint collateralAmount, uint loanAmount,\n        uint repaymentAmount, uint40 maturity);\n\n    event LoanProductActiveStateChanged(uint32 productId, bool newState);\n\n    event LoanProductAdded(uint32 productId);\n\n    event LoanRepayed(uint loanId, address borrower);\n\n    event LoanCollected(uint loanId, address indexed borrower, uint collectedCollateral,\n        uint releasedCollateral, uint defaultingFee);\n\n    event SystemContractsChanged(Rates newRatesContract, MonetarySupervisor newMonetarySupervisor);\n\n    function LoanManager(AugmintTokenInterface _augmintToken, MonetarySupervisor _monetarySupervisor, Rates _rates)\n    public {\n        augmintToken = _augmintToken;\n        monetarySupervisor = _monetarySupervisor;\n        rates = _rates;\n    }\n\n    function addLoanProduct(uint32 term, uint32 discountRate, uint32 collateralRatio, uint minDisbursedAmount,\n                                uint32 defaultingFeePt, bool isActive)\n    external restrict(\"MonetaryBoard\") {\n\n        uint _newProductId = products.push(\n            LoanProduct(minDisbursedAmount, term, discountRate, collateralRatio, defaultingFeePt, isActive)\n        ) - 1;\n\n        uint32 newProductId = uint32(_newProductId);\n        require(newProductId == _newProductId);\n\n        emit LoanProductAdded(newProductId);\n    }\n\n    function setLoanProductActiveState(uint32 productId, bool newState)\n    external restrict (\"MonetaryBoard\") {\n        products[productId].isActive = false;\n        emit LoanProductActiveStateChanged(productId, newState);\n    }\n\n    function newEthBackedLoan(uint32 productId) external payable {\n        LoanProduct storage product = products[productId];\n        require(product.isActive); // valid productId?\n\n        // calculate loan values based on ETH sent in with Tx\n        uint tokenValue = rates.convertFromWei(augmintToken.peggedSymbol(), msg.value);\n        uint repaymentAmount = tokenValue.mul(product.collateralRatio).div(1000000);\n\n        uint loanAmount;\n        (loanAmount, ) = calculateLoanValues(product, repaymentAmount);\n\n        require(loanAmount >= product.minDisbursedAmount);\n\n        uint expiration = now.add(product.term);\n        uint40 maturity = uint40(expiration);\n        require(maturity == expiration);\n\n        // Create new loan\n        uint loanId = loans.push(LoanData(msg.value, repaymentAmount, msg.sender,\n                                            productId, LoanState.Open, maturity)) - 1;\n\n        // Store ref to new loan\n        accountLoans[msg.sender].push(loanId);\n\n        // Issue tokens and send to borrower\n        monetarySupervisor.issueLoan(msg.sender, loanAmount);\n\n        emit NewLoan(productId, loanId, msg.sender, msg.value, loanAmount, repaymentAmount, maturity);\n    }\n\n    /* repay loan, called from AugmintToken's transferAndNotify\n     Flow for repaying loan:\n        1) user calls token contract's transferAndNotify loanId passed in data arg\n        2) transferAndNotify transfers tokens to the Lender contract\n        3) transferAndNotify calls Lender.transferNotification with lockProductId\n    */\n    // from arg is not used as we allow anyone to repay a loan:\n    function transferNotification(address, uint repaymentAmount, uint loanId) external {\n        require(msg.sender == address(augmintToken));\n        _repayLoan(loanId, repaymentAmount);\n    }\n\n    function collect(uint[] loanIds) external {\n        /* when there are a lots of loans to be collected then\n             the client need to call it in batches to make sure tx won't exceed block gas limit.\n         Anyone can call it - can't cause harm as it only allows to collect loans which they are defaulted\n         TODO: optimise defaulting fee calculations\n        */\n        uint totalLoanAmountCollected;\n        uint totalCollateralToCollect;\n        uint totalDefaultingFee;\n        for (uint i = 0; i < loanIds.length; i++) {\n            LoanData storage loan = loans[loanIds[i]];\n            require(loan.state == LoanState.Open);\n            require(now >= loan.maturity);\n            LoanProduct storage product = products[loan.productId];\n\n            uint loanAmount;\n            (loanAmount, ) = calculateLoanValues(product, loan.repaymentAmount);\n\n            totalLoanAmountCollected = totalLoanAmountCollected.add(loanAmount);\n\n            loan.state = LoanState.Collected;\n\n            // send ETH collateral to augmintToken reserve\n            uint defaultingFeeInToken = loan.repaymentAmount.mul(product.defaultingFeePt).div(1000000);\n            uint defaultingFee = rates.convertToWei(augmintToken.peggedSymbol(), defaultingFeeInToken);\n            uint targetCollection = rates.convertToWei(augmintToken.peggedSymbol(),\n                                                            loan.repaymentAmount).add(defaultingFee);\n\n            uint releasedCollateral;\n            if (targetCollection < loan.collateralAmount) {\n                releasedCollateral = loan.collateralAmount.sub(targetCollection);\n                loan.borrower.transfer(releasedCollateral);\n            }\n            uint collateralToCollect = loan.collateralAmount.sub(releasedCollateral);\n            if (defaultingFee >= collateralToCollect) {\n                defaultingFee = collateralToCollect;\n                collateralToCollect = 0;\n            } else {\n                collateralToCollect = collateralToCollect.sub(defaultingFee);\n            }\n            totalDefaultingFee = totalDefaultingFee.add(defaultingFee);\n\n            totalCollateralToCollect = totalCollateralToCollect.add(collateralToCollect);\n\n            emit LoanCollected(loanIds[i], loan.borrower, collateralToCollect.add(defaultingFee), releasedCollateral, defaultingFee);\n        }\n\n        if (totalCollateralToCollect > 0) {\n            address(monetarySupervisor.augmintReserves()).transfer(totalCollateralToCollect);\n        }\n\n        if (totalDefaultingFee > 0){\n            address(augmintToken.feeAccount()).transfer(totalDefaultingFee);\n        }\n\n        monetarySupervisor.loanCollectionNotification(totalLoanAmountCollected);// update KPIs\n\n    }\n\n    /* to allow upgrade of Rates and MonetarySupervisor contracts */\n    function setSystemContracts(Rates newRatesContract, MonetarySupervisor newMonetarySupervisor)\n    external restrict(\"MonetaryBoard\") {\n        rates = newRatesContract;\n        monetarySupervisor = newMonetarySupervisor;\n        emit SystemContractsChanged(newRatesContract, newMonetarySupervisor);\n    }\n\n    function getProductCount() external view returns (uint ct) {\n        return products.length;\n    }\n\n    // returns CHUNK_SIZE loan products starting from some offset:\n    // [ productId, minDisbursedAmount, term, discountRate, collateralRatio, defaultingFeePt, maxLoanAmount, isActive ]\n    function getProducts(uint offset) external view returns (uint[8][CHUNK_SIZE] response) {\n\n        for (uint16 i = 0; i < CHUNK_SIZE; i++) {\n\n            if (offset + i >= products.length) { break; }\n\n            LoanProduct storage product = products[offset + i];\n\n            response[i] = [offset + i, product.minDisbursedAmount, product.term, product.discountRate,\n                            product.collateralRatio, product.defaultingFeePt,\n                            monetarySupervisor.getMaxLoanAmount(product.minDisbursedAmount), product.isActive ? 1 : 0 ];\n        }\n    }\n\n    function getLoanCount() external view returns (uint ct) {\n        return loans.length;\n    }\n\n    /* returns CHUNK_SIZE loans starting from some offset. Loans data encoded as:\n        [loanId, collateralAmount, repaymentAmount, borrower, productId, state, maturity, disbursementTime,\n                                                                                    loanAmount, interestAmount ]   */\n    function getLoans(uint offset) external view returns (uint[10][CHUNK_SIZE] response) {\n\n        for (uint16 i = 0; i < CHUNK_SIZE; i++) {\n\n            if (offset + i >= loans.length) { break; }\n\n            response[i] = getLoanTuple(offset + i);\n        }\n    }\n\n    function getLoanCountForAddress(address borrower) external view returns (uint) {\n        return accountLoans[borrower].length;\n    }\n\n    /* returns CHUNK_SIZE loans of a given account, starting from some offset. Loans data encoded as:\n        [loanId, collateralAmount, repaymentAmount, borrower, productId, state, maturity, disbursementTime,\n                                                                                    loanAmount, interestAmount ] */\n    function getLoansForAddress(address borrower, uint offset) external view returns (uint[10][CHUNK_SIZE] response) {\n\n        uint[] storage loansForAddress = accountLoans[borrower];\n\n        for (uint16 i = 0; i < CHUNK_SIZE; i++) {\n\n            if (offset + i >= loansForAddress.length) { break; }\n\n            response[i] = getLoanTuple(loansForAddress[offset + i]);\n        }\n    }\n\n    function getLoanTuple(uint loanId) public view returns (uint[10] result) {\n        LoanData storage loan = loans[loanId];\n        LoanProduct storage product = products[loan.productId];\n\n        uint loanAmount;\n        uint interestAmount;\n        (loanAmount, interestAmount) = calculateLoanValues(product, loan.repaymentAmount);\n        uint disbursementTime = loan.maturity - product.term;\n\n        LoanState loanState =\n                        loan.state == LoanState.Open && now >= loan.maturity ? LoanState.Defaulted : loan.state;\n\n        result = [loanId, loan.collateralAmount, loan.repaymentAmount, uint(loan.borrower),\n                    loan.productId, uint(loanState), loan.maturity, disbursementTime, loanAmount, interestAmount];\n    }\n\n    function calculateLoanValues(LoanProduct storage product, uint repaymentAmount)\n    internal view returns (uint loanAmount, uint interestAmount) {\n        // calculate loan values based on repayment amount\n        loanAmount = repaymentAmount.mul(product.discountRate).div(1000000);\n        interestAmount = loanAmount > repaymentAmount ? 0 : repaymentAmount.sub(loanAmount);\n    }\n\n    /* internal function, assuming repayment amount already transfered  */\n    function _repayLoan(uint loanId, uint repaymentAmount) internal {\n        LoanData storage loan = loans[loanId];\n        require(loan.state == LoanState.Open);\n        require(repaymentAmount == loan.repaymentAmount);\n        require(now <= loan.maturity);\n\n        LoanProduct storage product = products[loan.productId];\n        uint loanAmount;\n        uint interestAmount;\n        (loanAmount, interestAmount) = calculateLoanValues(product, loan.repaymentAmount);\n\n        loans[loanId].state = LoanState.Repaid;\n\n        if (interestAmount > 0) {\n            augmintToken.transfer(monetarySupervisor.interestEarnedAccount(), interestAmount);\n            augmintToken.burn(loanAmount);\n        } else {\n            // negative or zero interest (i.e. discountRate >= 0)\n            augmintToken.burn(repaymentAmount);\n        }\n\n        monetarySupervisor.loanRepaymentNotification(loanAmount); // update KPIs\n\n        loan.borrower.transfer(loan.collateralAmount); // send back ETH collateral\n\n        emit LoanRepayed(loanId, loan.borrower);\n    }\n\n}\n",
  "sourcePath": "/Users/petro/ether/augmint-web/augmint-contracts/contracts/LoanManager.sol",
  "compiler": {
    "name": "solc",
    "version": "0.4.21+commit.dfe3193c.Emscripten.clang"
  },
  "schemaVersion": "2.0.0",
  "updatedAt": "2018-04-16T22:40:03.819Z"
}