{
  "contractName": "LoanManager",
  "abi": [
    {
      "constant": false,
      "inputs": [
        {
          "name": "_new",
          "type": "address"
        }
      ],
      "name": "setOwner",
      "outputs": [],
      "payable": false,
      "stateMutability": "nonpayable",
      "type": "function"
    },
    {
      "constant": false,
      "inputs": [
        {
          "name": "productId",
          "type": "uint8"
        }
      ],
      "name": "newEthBackedLoan",
      "outputs": [],
      "payable": true,
      "stateMutability": "payable",
      "type": "function"
    },
    {
      "constant": true,
      "inputs": [
        {
          "name": "",
          "type": "uint256"
        }
      ],
      "name": "loanPointers",
      "outputs": [
        {
          "name": "contractAddress",
          "type": "address"
        },
        {
          "name": "loanState",
          "type": "uint8"
        }
      ],
      "payable": false,
      "stateMutability": "view",
      "type": "function"
    },
    {
      "constant": true,
      "inputs": [],
      "name": "tokenUcd",
      "outputs": [
        {
          "name": "",
          "type": "address"
        }
      ],
      "payable": false,
      "stateMutability": "view",
      "type": "function"
    },
    {
      "constant": false,
      "inputs": [
        {
          "name": "loanId",
          "type": "uint256"
        }
      ],
      "name": "repay",
      "outputs": [],
      "payable": false,
      "stateMutability": "nonpayable",
      "type": "function"
    },
    {
      "constant": true,
      "inputs": [],
      "name": "rates",
      "outputs": [
        {
          "name": "",
          "type": "address"
        }
      ],
      "payable": false,
      "stateMutability": "view",
      "type": "function"
    },
    {
      "constant": true,
      "inputs": [],
      "name": "getProductCount",
      "outputs": [
        {
          "name": "ct",
          "type": "uint256"
        }
      ],
      "payable": false,
      "stateMutability": "view",
      "type": "function"
    },
    {
      "constant": true,
      "inputs": [],
      "name": "getLoanCount",
      "outputs": [
        {
          "name": "ct",
          "type": "uint256"
        }
      ],
      "payable": false,
      "stateMutability": "view",
      "type": "function"
    },
    {
      "constant": false,
      "inputs": [
        {
          "name": "loanIds",
          "type": "uint256[]"
        }
      ],
      "name": "collect",
      "outputs": [],
      "payable": false,
      "stateMutability": "nonpayable",
      "type": "function"
    },
    {
      "constant": false,
      "inputs": [
        {
          "name": "_term",
          "type": "uint256"
        },
        {
          "name": "_discountRate",
          "type": "uint256"
        },
        {
          "name": "_loanCollateralRatio",
          "type": "uint256"
        },
        {
          "name": "_minDisbursedAmountInUcd",
          "type": "uint256"
        },
        {
          "name": "_repayPeriod",
          "type": "uint256"
        },
        {
          "name": "_isActive",
          "type": "bool"
        }
      ],
      "name": "addProduct",
      "outputs": [
        {
          "name": "newProductId",
          "type": "uint256"
        }
      ],
      "payable": false,
      "stateMutability": "nonpayable",
      "type": "function"
    },
    {
      "constant": true,
      "inputs": [
        {
          "name": "borrower",
          "type": "address"
        }
      ],
      "name": "getLoanIds",
      "outputs": [
        {
          "name": "loans",
          "type": "uint256[]"
        }
      ],
      "payable": false,
      "stateMutability": "view",
      "type": "function"
    },
    {
      "constant": true,
      "inputs": [
        {
          "name": "",
          "type": "uint256"
        }
      ],
      "name": "products",
      "outputs": [
        {
          "name": "term",
          "type": "uint256"
        },
        {
          "name": "discountRate",
          "type": "uint256"
        },
        {
          "name": "loanCollateralRatio",
          "type": "uint256"
        },
        {
          "name": "minDisbursedAmountInUcd",
          "type": "uint256"
        },
        {
          "name": "repayPeriod",
          "type": "uint256"
        },
        {
          "name": "isActive",
          "type": "bool"
        }
      ],
      "payable": false,
      "stateMutability": "view",
      "type": "function"
    },
    {
      "constant": true,
      "inputs": [],
      "name": "owner",
      "outputs": [
        {
          "name": "",
          "type": "address"
        }
      ],
      "payable": false,
      "stateMutability": "view",
      "type": "function"
    },
    {
      "constant": false,
      "inputs": [
        {
          "name": "productId",
          "type": "uint8"
        }
      ],
      "name": "enableProduct",
      "outputs": [],
      "payable": false,
      "stateMutability": "nonpayable",
      "type": "function"
    },
    {
      "constant": true,
      "inputs": [
        {
          "name": "",
          "type": "address"
        },
        {
          "name": "",
          "type": "uint256"
        }
      ],
      "name": "m_loanPointers",
      "outputs": [
        {
          "name": "",
          "type": "uint256"
        }
      ],
      "payable": false,
      "stateMutability": "view",
      "type": "function"
    },
    {
      "constant": false,
      "inputs": [
        {
          "name": "productId",
          "type": "uint8"
        }
      ],
      "name": "disableProduct",
      "outputs": [],
      "payable": false,
      "stateMutability": "nonpayable",
      "type": "function"
    },
    {
      "inputs": [
        {
          "name": "_tokenUcdAddress",
          "type": "address"
        },
        {
          "name": "_ratesAddress",
          "type": "address"
        }
      ],
      "payable": false,
      "stateMutability": "nonpayable",
      "type": "constructor"
    },
    {
      "anonymous": false,
      "inputs": [
        {
          "indexed": false,
          "name": "productId",
          "type": "uint8"
        },
        {
          "indexed": false,
          "name": "loanId",
          "type": "uint256"
        },
        {
          "indexed": false,
          "name": "borrower",
          "type": "address"
        },
        {
          "indexed": false,
          "name": "loanContract",
          "type": "address"
        },
        {
          "indexed": false,
          "name": "disbursedLoanInUcd",
          "type": "uint256"
        }
      ],
      "name": "e_newLoan",
      "type": "event"
    },
    {
      "anonymous": false,
      "inputs": [
        {
          "indexed": false,
          "name": "loanContractAddress",
          "type": "address"
        },
        {
          "indexed": false,
          "name": "borrower",
          "type": "address"
        }
      ],
      "name": "e_repayed",
      "type": "event"
    },
    {
      "anonymous": false,
      "inputs": [
        {
          "indexed": false,
          "name": "borrower",
          "type": "address"
        },
        {
          "indexed": false,
          "name": "loanContractAddress",
          "type": "address"
        }
      ],
      "name": "e_collected",
      "type": "event"
    },
    {
      "anonymous": false,
      "inputs": [
        {
          "indexed": true,
          "name": "old",
          "type": "address"
        },
        {
          "indexed": true,
          "name": "current",
          "type": "address"
        }
      ],
      "name": "NewOwner",
      "type": "event"
    }
  ],
  "bytecode": "0x6060604052341561000f57600080fd5b60405160408061329c83398101604052808051906020019091908051906020019091905050336000806101000a81548173ffffffffffffffffffffffffffffffffffffffff021916908373ffffffffffffffffffffffffffffffffffffffff16021790555081600260006101000a81548173ffffffffffffffffffffffffffffffffffffffff021916908373ffffffffffffffffffffffffffffffffffffffff16021790555080600160006101000a81548173ffffffffffffffffffffffffffffffffffffffff021916908373ffffffffffffffffffffffffffffffffffffffff1602179055505050613195806101076000396000f300606060405260043610620000f7576000357c0100000000000000000000000000000000000000000000000000000000900463ffffffff16806313af403514620000fc5780631509c8cf1462000138578063176ab16c146200015557806335b6f81b14620001d1578063371fd8e6146200022957806343f48fbd146200024f5780634a348da914620002a75780635219681214620002d357806357f46cbe14620002ff57806364858d2114620003305780636b64c88514620003995780637acc0b20146200042c5780638da5cb5b146200048d578063c4e1c7cb14620004e5578063c5fa437c146200050e578063caa543621462000567575b600080fd5b34156200010857600080fd5b62000136600480803573ffffffffffffffffffffffffffffffffffffffff1690602001909190505062000590565b005b62000153600480803560ff16906020019091905050620006aa565b005b34156200016157600080fd5b62000179600480803590602001909190505062001080565b604051808373ffffffffffffffffffffffffffffffffffffffff1673ffffffffffffffffffffffffffffffffffffffff168152602001826002811115620001bc57fe5b60ff1681526020019250505060405180910390f35b3415620001dd57600080fd5b620001e7620010de565b604051808273ffffffffffffffffffffffffffffffffffffffff1673ffffffffffffffffffffffffffffffffffffffff16815260200191505060405180910390f35b34156200023557600080fd5b6200024d600480803590602001909190505062001104565b005b34156200025b57600080fd5b6200026562001a22565b604051808273ffffffffffffffffffffffffffffffffffffffff1673ffffffffffffffffffffffffffffffffffffffff16815260200191505060405180910390f35b3415620002b357600080fd5b620002bd62001a48565b6040518082815260200191505060405180910390f35b3415620002df57600080fd5b620002e962001a55565b6040518082815260200191505060405180910390f35b34156200030b57600080fd5b6200032e6004808035906020019082018035906020019190919290505062001a62565b005b34156200033c57600080fd5b62000383600480803590602001909190803590602001909190803590602001909190803590602001909190803590602001909190803515159060200190919050506200204e565b6040518082815260200191505060405180910390f35b3415620003a557600080fd5b620003d3600480803573ffffffffffffffffffffffffffffffffffffffff169060200190919050506200216d565b6040518080602001828103825283818151815260200191508051906020019060200280838360005b8381101562000418578082015181840152602081019050620003fb565b505050509050019250505060405180910390f35b34156200043857600080fd5b6200045060048080359060200190919050506200220e565b6040518087815260200186815260200185815260200184815260200183815260200182151515158152602001965050505050505060405180910390f35b34156200049957600080fd5b620004a362002267565b604051808273ffffffffffffffffffffffffffffffffffffffff1673ffffffffffffffffffffffffffffffffffffffff16815260200191505060405180910390f35b3415620004f157600080fd5b6200050c600480803560ff169060200190919050506200228c565b005b34156200051a57600080fd5b62000551600480803573ffffffffffffffffffffffffffffffffffffffff1690602001909190803590602001909190505062002328565b6040518082815260200191505060405180910390f35b34156200057357600080fd5b6200058e600480803560ff169060200190919050506200235a565b005b6000809054906101000a900473ffffffffffffffffffffffffffffffffffffffff1673ffffffffffffffffffffffffffffffffffffffff163373ffffffffffffffffffffffffffffffffffffffff16141515620005ec57600080fd5b8073ffffffffffffffffffffffffffffffffffffffff166000809054906101000a900473ffffffffffffffffffffffffffffffffffffffff1673ffffffffffffffffffffffffffffffffffffffff167f70aea8d848e8a90fb7661b227dc522eb6395c3dac71b63cb59edd5c9899b236460405160405180910390a3806000806101000a81548173ffffffffffffffffffffffffffffffffffffffff021916908373ffffffffffffffffffffffffffffffffffffffff16021790555050565b60008060008060008060038760ff16815481101515620006c657fe5b906000526020600020906006020160050160009054906101000a900460ff161515620006f157600080fd5b600160009054906101000a900473ffffffffffffffffffffffffffffffffffffffff1673ffffffffffffffffffffffffffffffffffffffff166319605cd9346000604051602001526040518263ffffffff167c010000000000000000000000000000000000000000000000000000000002815260040180828152602001915050602060405180830381600087803b15156200078b57600080fd5b6102c65a03f115156200079d57600080fd5b505050604051805190509550620007fa6305f5e100620007eb60038a60ff16815481101515620007c957fe5b90600052602060002090600602016002015489620023f690919063ffffffff16565b6200242f90919063ffffffff16565b9450606485029450620f42406200086360038960ff168154811015156200081d57fe5b90600052602060002090600602016001015460038a60ff168154811015156200084257fe5b906000526020600020906006020160020154620023f690919063ffffffff16565b8115156200086d57fe5b0493506200089d6305f5e1006200088e8689620023f690919063ffffffff16565b6200242f90919063ffffffff16565b925060648302925060038760ff16815481101515620008b857fe5b9060005260206000209060060201600301548310151515620008d957600080fd5b600160048054806001018281620008f1919062002494565b916000526020600020900160006040805190810160405280600073ffffffffffffffffffffffffffffffffffffffff168152602001600060028111156200093457fe5b815250909190915060008201518160000160006101000a81548173ffffffffffffffffffffffffffffffffffffffff021916908373ffffffffffffffffffffffffffffffffffffffff16021790555060208201518160000160146101000a81548160ff02191690836002811115620009a857fe5b02179055505050039150813360038960ff16815481101515620009c757fe5b906000526020600020906006020160000154858860038c60ff16815481101515620009ee57fe5b90600052602060002090600602016004015462000a0a620024c3565b808781526020018673ffffffffffffffffffffffffffffffffffffffff1673ffffffffffffffffffffffffffffffffffffffff1681526020018581526020018481526020018381526020018281526020019650505050505050604051809103906000f080151562000a7a57600080fd5b90508060048381548110151562000a8d57fe5b906000526020600020900160000160006101000a81548173ffffffffffffffffffffffffffffffffffffffff021916908373ffffffffffffffffffffffffffffffffffffffff160217905550600560003373ffffffffffffffffffffffffffffffffffffffff1673ffffffffffffffffffffffffffffffffffffffff168152602001908152602001600020805480600101828162000b2c9190620024d4565b9160005260206000209001600084909190915055508073ffffffffffffffffffffffffffffffffffffffff166108fc349081150290604051600060405180830381858888f19350505050151562000b8257600080fd5b600260009054906101000a900473ffffffffffffffffffffffffffffffffffffffff1673ffffffffffffffffffffffffffffffffffffffff1663cc872b66866040518263ffffffff167c010000000000000000000000000000000000000000000000000000000002815260040180828152602001915050600060405180830381600087803b151562000c1357600080fd5b6102c65a03f1151562000c2557600080fd5b505050600260009054906101000a900473ffffffffffffffffffffffffffffffffffffffff1673ffffffffffffffffffffffffffffffffffffffff1663b0455f13600260009054906101000a900473ffffffffffffffffffffffffffffffffffffffff1633866040518463ffffffff167c0100000000000000000000000000000000000000000000000000000000028152600401808473ffffffffffffffffffffffffffffffffffffffff1673ffffffffffffffffffffffffffffffffffffffff1681526020018373ffffffffffffffffffffffffffffffffffffffff1673ffffffffffffffffffffffffffffffffffffffff16815260200182815260200180602001828103825260118152602001807f4c6f616e2064697362757273656d656e74000000000000000000000000000000815250602001945050505050600060405180830381600087803b151562000d7c57600080fd5b6102c65a03f1151562000d8e57600080fd5b5050508285111562000fc257600260009054906101000a900473ffffffffffffffffffffffffffffffffffffffff1673ffffffffffffffffffffffffffffffffffffffff1663b0455f13600260009054906101000a900473ffffffffffffffffffffffffffffffffffffffff16600260009054906101000a900473ffffffffffffffffffffffffffffffffffffffff1673ffffffffffffffffffffffffffffffffffffffff16639ae8dcef6000604051602001526040518163ffffffff167c0100000000000000000000000000000000000000000000000000000000028152600401602060405180830381600087803b151562000e8a57600080fd5b6102c65a03f1151562000e9c57600080fd5b5050506040518051905062000ebb878a6200247790919063ffffffff16565b6040518463ffffffff167c0100000000000000000000000000000000000000000000000000000000028152600401808473ffffffffffffffffffffffffffffffffffffffff1673ffffffffffffffffffffffffffffffffffffffff1681526020018373ffffffffffffffffffffffffffffffffffffffff1673ffffffffffffffffffffffffffffffffffffffff168152602001828152602001806020018281038252601c8152602001807f4c6f616e20696e746572657374206174206f726967696e6174696f6e00000000815250602001945050505050600060405180830381600087803b151562000fac57600080fd5b6102c65a03f1151562000fbe57600080fd5b5050505b7fd2ee45819a43ebf6a838cb6f114c920e274ad2c21ee8a33517f01a2fef1ab9af8783338487604051808660ff1660ff1681526020018581526020018473ffffffffffffffffffffffffffffffffffffffff1673ffffffffffffffffffffffffffffffffffffffff1681526020018373ffffffffffffffffffffffffffffffffffffffff1673ffffffffffffffffffffffffffffffffffffffff1681526020018281526020019550505050505060405180910390a150505050505050565b6004818154811015156200109057fe5b90600052602060002090016000915090508060000160009054906101000a900473ffffffffffffffffffffffffffffffffffffffff16908060000160149054906101000a900460ff16905082565b600260009054906101000a900473ffffffffffffffffffffffffffffffffffffffff1681565b600080600080600060028111156200111857fe5b6004868154811015156200112857fe5b906000526020600020900160000160149054906101000a900460ff1660028111156200115057fe5b1415156200115d57600080fd5b6004858154811015156200116d57fe5b906000526020600020900160000160009054906101000a900473ffffffffffffffffffffffffffffffffffffffff1693508392503373ffffffffffffffffffffffffffffffffffffffff168373ffffffffffffffffffffffffffffffffffffffff16638da5cb5b6000604051602001526040518163ffffffff167c0100000000000000000000000000000000000000000000000000000000028152600401602060405180830381600087803b15156200122557600080fd5b6102c65a03f115156200123757600080fd5b5050506040518051905073ffffffffffffffffffffffffffffffffffffffff161415156200126457600080fd5b8273ffffffffffffffffffffffffffffffffffffffff1663e720fe946000604051602001526040518163ffffffff167c0100000000000000000000000000000000000000000000000000000000028152600401602060405180830381600087803b1515620012d157600080fd5b6102c65a03f11515620012e357600080fd5b5050506040518051905091508273ffffffffffffffffffffffffffffffffffffffff16632cbdbd166000604051602001526040518163ffffffff167c0100000000000000000000000000000000000000000000000000000000028152600401602060405180830381600087803b15156200135c57600080fd5b6102c65a03f115156200136e57600080fd5b505050604051805190509050600260009054906101000a900473ffffffffffffffffffffffffffffffffffffffff1673ffffffffffffffffffffffffffffffffffffffff1663b0455f1333600260009054906101000a900473ffffffffffffffffffffffffffffffffffffffff16846040518463ffffffff167c0100000000000000000000000000000000000000000000000000000000028152600401808473ffffffffffffffffffffffffffffffffffffffff1673ffffffffffffffffffffffffffffffffffffffff1681526020018373ffffffffffffffffffffffffffffffffffffffff1673ffffffffffffffffffffffffffffffffffffffff168152602001828152602001806020018281038252600e8152602001807f4c6f616e2072657061796d656e74000000000000000000000000000000000000815250602001945050505050600060405180830381600087803b1515620014ce57600080fd5b6102c65a03f11515620014e057600080fd5b505050600260009054906101000a900473ffffffffffffffffffffffffffffffffffffffff1673ffffffffffffffffffffffffffffffffffffffff166342966c68826040518263ffffffff167c010000000000000000000000000000000000000000000000000000000002815260040180828152602001915050600060405180830381600087803b15156200157457600080fd5b6102c65a03f115156200158657600080fd5b505050818111156200184257600260009054906101000a900473ffffffffffffffffffffffffffffffffffffffff1673ffffffffffffffffffffffffffffffffffffffff1663b0455f13600260009054906101000a900473ffffffffffffffffffffffffffffffffffffffff1673ffffffffffffffffffffffffffffffffffffffff16639ae8dcef6000604051602001526040518163ffffffff167c0100000000000000000000000000000000000000000000000000000000028152600401602060405180830381600087803b15156200165f57600080fd5b6102c65a03f115156200167157600080fd5b50505060405180519050600260009054906101000a900473ffffffffffffffffffffffffffffffffffffffff1673ffffffffffffffffffffffffffffffffffffffff16635fcf04556000604051602001526040518163ffffffff167c0100000000000000000000000000000000000000000000000000000000028152600401602060405180830381600087803b15156200170a57600080fd5b6102c65a03f115156200171c57600080fd5b505050604051805190506200173b86866200247790919063ffffffff16565b6040518463ffffffff167c0100000000000000000000000000000000000000000000000000000000028152600401808473ffffffffffffffffffffffffffffffffffffffff1673ffffffffffffffffffffffffffffffffffffffff1681526020018373ffffffffffffffffffffffffffffffffffffffff1673ffffffffffffffffffffffffffffffffffffffff168152602001828152602001806020018281038252601a8152602001807f4c6f616e20696e7465726573742061742072657061796d656e74000000000000815250602001945050505050600060405180830381600087803b15156200182c57600080fd5b6102c65a03f115156200183e57600080fd5b5050505b8273ffffffffffffffffffffffffffffffffffffffff16636665b6216040518163ffffffff167c0100000000000000000000000000000000000000000000000000000000028152600401600060405180830381600087803b1515620018a657600080fd5b6102c65a03f11515620018b857600080fd5b5050506001600486815481101515620018cd57fe5b906000526020600020900160000160146101000a81548160ff02191690836002811115620018f757fe5b02179055507f92673760d27f198e5f8d087e7d5d6d4ae04069d64af7cf7bd8897bde49be7dee848473ffffffffffffffffffffffffffffffffffffffff16638da5cb5b6000604051602001526040518163ffffffff167c0100000000000000000000000000000000000000000000000000000000028152600401602060405180830381600087803b15156200198b57600080fd5b6102c65a03f115156200199d57600080fd5b50505060405180519050604051808373ffffffffffffffffffffffffffffffffffffffff1673ffffffffffffffffffffffffffffffffffffffff1681526020018273ffffffffffffffffffffffffffffffffffffffff1673ffffffffffffffffffffffffffffffffffffffff1681526020019250505060405180910390a15050505050565b600160009054906101000a900473ffffffffffffffffffffffffffffffffffffffff1681565b6000600380549050905090565b6000600480549050905090565b600080600080600093505b858590508410156200204657858585818110151562001a8857fe5b9050602002013592506000600281111562001a9f57fe5b60048481548110151562001aaf57fe5b906000526020600020900160000160149054906101000a900460ff16600281111562001ad757fe5b14151562001ae457600080fd5b60048381548110151562001af457fe5b906000526020600020900160000160009054906101000a900473ffffffffffffffffffffffffffffffffffffffff1691508190508073ffffffffffffffffffffffffffffffffffffffff1663e52253816040518163ffffffff167c0100000000000000000000000000000000000000000000000000000000028152600401600060405180830381600087803b151562001b8c57600080fd5b6102c65a03f1151562001b9e57600080fd5b505050600260048481548110151562001bb357fe5b906000526020600020900160000160146101000a81548160ff0219169083600281111562001bdd57fe5b0217905550600260009054906101000a900473ffffffffffffffffffffffffffffffffffffffff1673ffffffffffffffffffffffffffffffffffffffff1663b0455f13600260009054906101000a900473ffffffffffffffffffffffffffffffffffffffff1673ffffffffffffffffffffffffffffffffffffffff16639ae8dcef6000604051602001526040518163ffffffff167c0100000000000000000000000000000000000000000000000000000000028152600401602060405180830381600087803b151562001caf57600080fd5b6102c65a03f1151562001cc157600080fd5b50505060405180519050600260009054906101000a900473ffffffffffffffffffffffffffffffffffffffff1662001e138573ffffffffffffffffffffffffffffffffffffffff1663e720fe946000604051602001526040518163ffffffff167c0100000000000000000000000000000000000000000000000000000000028152600401602060405180830381600087803b151562001d5f57600080fd5b6102c65a03f1151562001d7157600080fd5b505050604051805190508673ffffffffffffffffffffffffffffffffffffffff16632cbdbd166000604051602001526040518163ffffffff167c0100000000000000000000000000000000000000000000000000000000028152600401602060405180830381600087803b151562001de857600080fd5b6102c65a03f1151562001dfa57600080fd5b505050604051805190506200247790919063ffffffff16565b6040518463ffffffff167c0100000000000000000000000000000000000000000000000000000000028152600401808473ffffffffffffffffffffffffffffffffffffffff1673ffffffffffffffffffffffffffffffffffffffff1681526020018373ffffffffffffffffffffffffffffffffffffffff1673ffffffffffffffffffffffffffffffffffffffff16815260200182815260200180602001828103825260178152602001807f44656661756c746564206c6f616e20696e746572657374000000000000000000815250602001945050505050600060405180830381600087803b151562001f0457600080fd5b6102c65a03f1151562001f1657600080fd5b5050507f07a9507ae6cf5a62a8d57d3060ad7eb3049ddc76843ed80f26b105eedb7f6f7a8173ffffffffffffffffffffffffffffffffffffffff16638da5cb5b6000604051602001526040518163ffffffff167c0100000000000000000000000000000000000000000000000000000000028152600401602060405180830381600087803b151562001fa757600080fd5b6102c65a03f1151562001fb957600080fd5b5050506040518051905083604051808373ffffffffffffffffffffffffffffffffffffffff1673ffffffffffffffffffffffffffffffffffffffff1681526020018273ffffffffffffffffffffffffffffffffffffffff1673ffffffffffffffffffffffffffffffffffffffff1681526020019250505060405180910390a1838060010194505062001a6d565b505050505050565b60008060009054906101000a900473ffffffffffffffffffffffffffffffffffffffff1673ffffffffffffffffffffffffffffffffffffffff163373ffffffffffffffffffffffffffffffffffffffff16141515620020ac57600080fd5b60038054806001018281620020c2919062002503565b9160005260206000209060060201600060c0604051908101604052808b81526020018a81526020018981526020018881526020018781526020018615158152509091909150600082015181600001556020820151816001015560408201518160020155606082015181600301556080820151816004015560a08201518160050160006101000a81548160ff021916908315150217905550505090506001810390509695505050505050565b6200217762002538565b600560008373ffffffffffffffffffffffffffffffffffffffff1673ffffffffffffffffffffffffffffffffffffffff1681526020019081526020016000208054806020026020016040519081016040528092919081815260200182805480156200220257602002820191906000526020600020905b815481526020019060010190808311620021ed575b50505050509050919050565b6003818154811015156200221e57fe5b90600052602060002090600602016000915090508060000154908060010154908060020154908060030154908060040154908060050160009054906101000a900460ff16905086565b6000809054906101000a900473ffffffffffffffffffffffffffffffffffffffff1681565b6000809054906101000a900473ffffffffffffffffffffffffffffffffffffffff1673ffffffffffffffffffffffffffffffffffffffff163373ffffffffffffffffffffffffffffffffffffffff16141515620022e857600080fd5b600160038260ff16815481101515620022fd57fe5b906000526020600020906006020160050160006101000a81548160ff02191690831515021790555050565b6005602052816000526040600020818154811015156200234457fe5b9060005260206000209001600091509150505481565b6000809054906101000a900473ffffffffffffffffffffffffffffffffffffffff1673ffffffffffffffffffffffffffffffffffffffff163373ffffffffffffffffffffffffffffffffffffffff16141515620023b657600080fd5b600060038260ff16815481101515620023cb57fe5b906000526020600020906006020160050160006101000a81548160ff02191690831515021790555050565b600080828402905060008414806200241957508284828115156200241657fe5b04145b15156200242557600080fd5b8091505092915050565b60008082848115156200243e57fe5b0490506002838115156200244e57fe5b0483858115156200245b57fe5b061015156200246d5780806001019150505b8091505092915050565b60008282111515156200248957600080fd5b818303905092915050565b815481835581811511620024be57818360005260206000209182019101620024bd91906200254c565b5b505050565b604051610b3a806200263083390190565b815481835581811511620024fe57818360005260206000209182019101620024fd9190620025a9565b5b505050565b8154818355818115116200253357600602816006028360005260206000209182019101620025329190620025d1565b5b505050565b602060405190810160405280600081525090565b620025a691905b80821115620025a257600080820160006101000a81549073ffffffffffffffffffffffffffffffffffffffff02191690556000820160146101000a81549060ff02191690555060010162002553565b5090565b90565b620025ce91905b80821115620025ca576000816000905550600101620025b0565b5090565b90565b6200262c91905b80821115620026285760008082016000905560018201600090556002820160009055600382016000905560048201600090556005820160006101000a81549060ff021916905550600601620025d8565b5090565b9056006060604052341561000f57600080fd5b60405160c080610b3a833981016040528080519060200190919080519060200190919080519060200190919080519060200190919080519060200190919080519060200190919050508560038190555033600160006101000a81548173ffffffffffffffffffffffffffffffffffffffff021916908373ffffffffffffffffffffffffffffffffffffffff160217905550846000806101000a81548173ffffffffffffffffffffffffffffffffffffffff021916908373ffffffffffffffffffffffffffffffffffffffff160217905550600160009054906101000a900473ffffffffffffffffffffffffffffffffffffffff1673ffffffffffffffffffffffffffffffffffffffff166335b6f81b6000604051602001526040518163ffffffff167c0100000000000000000000000000000000000000000000000000000000028152600401602060405180830381600087803b151561016e57600080fd5b6102c65a03f1151561017f57600080fd5b50505060405180519050600260006101000a81548173ffffffffffffffffffffffffffffffffffffffff021916908373ffffffffffffffffffffffffffffffffffffffff16021790555083600681905550426007819055506101fb60065460075461024564010000000002610878179091906401000000009004565b6008819055508060098190555082600581905550816004819055506000600260146101000a81548160ff0219169083600281111561023557fe5b0217905550505050505050610266565b600080828401905083811015151561025c57600080fd5b8091505092915050565b6108c5806102756000396000f3006060604052600436106100d0576000357c0100000000000000000000000000000000000000000000000000000000900463ffffffff168063204f83f9146100d257806325af34cd146100fb5780632bf51e40146101325780632cbdbd161461015b57806335b6f81b146101845780636665b621146101d95780638da5cb5b146101ee5780639c5a588014610243578063a10ffbed1461026c578063b3ccbcfe14610295578063c95669a5146102ea578063e522538114610313578063e720fe9414610328578063fbbf93a014610351575b005b34156100dd57600080fd5b6100e5610452565b6040518082815260200191505060405180910390f35b341561010657600080fd5b61010e610458565b6040518082600281111561011e57fe5b60ff16815260200191505060405180910390f35b341561013d57600080fd5b61014561046b565b6040518082815260200191505060405180910390f35b341561016657600080fd5b61016e610471565b6040518082815260200191505060405180910390f35b341561018f57600080fd5b610197610477565b604051808273ffffffffffffffffffffffffffffffffffffffff1673ffffffffffffffffffffffffffffffffffffffff16815260200191505060405180910390f35b34156101e457600080fd5b6101ec61049d565b005b34156101f957600080fd5b610201610601565b604051808273ffffffffffffffffffffffffffffffffffffffff1673ffffffffffffffffffffffffffffffffffffffff16815260200191505060405180910390f35b341561024e57600080fd5b610256610626565b6040518082815260200191505060405180910390f35b341561027757600080fd5b61027f61062c565b6040518082815260200191505060405180910390f35b34156102a057600080fd5b6102a8610632565b604051808273ffffffffffffffffffffffffffffffffffffffff1673ffffffffffffffffffffffffffffffffffffffff16815260200191505060405180910390f35b34156102f557600080fd5b6102fd610658565b6040518082815260200191505060405180910390f35b341561031e57600080fd5b61032661065e565b005b341561033357600080fd5b61033b6107b1565b6040518082815260200191505060405180910390f35b341561035c57600080fd5b6103646107b7565b604051808c73ffffffffffffffffffffffffffffffffffffffff1673ffffffffffffffffffffffffffffffffffffffff1681526020018b73ffffffffffffffffffffffffffffffffffffffff1673ffffffffffffffffffffffffffffffffffffffff1681526020018a73ffffffffffffffffffffffffffffffffffffffff1673ffffffffffffffffffffffffffffffffffffffff16815260200189600281111561040a57fe5b60ff1681526020018881526020018781526020018681526020018581526020018481526020018381526020018281526020019b50505050505050505050505060405180910390f35b60085481565b600260149054906101000a900460ff1681565b60095481565b60045481565b600260009054906101000a900473ffffffffffffffffffffffffffffffffffffffff1681565b600160009054906101000a900473ffffffffffffffffffffffffffffffffffffffff1673ffffffffffffffffffffffffffffffffffffffff163373ffffffffffffffffffffffffffffffffffffffff161415156104f957600080fd5b6000600281111561050657fe5b600260149054906101000a900460ff16600281111561052157fe5b14151561052d57600080fd5b600854421015151561053e57600080fd5b61055560095460085461087890919063ffffffff16565b421115151561056357600080fd5b6001600260146101000a81548160ff0219169083600281111561058257fe5b02179055506000809054906101000a900473ffffffffffffffffffffffffffffffffffffffff1673ffffffffffffffffffffffffffffffffffffffff166108fc3073ffffffffffffffffffffffffffffffffffffffff16319081150290604051600060405180830381858888f1935050505015156105ff57600080fd5b565b6000809054906101000a900473ffffffffffffffffffffffffffffffffffffffff1681565b60075481565b60065481565b600160009054906101000a900473ffffffffffffffffffffffffffffffffffffffff1681565b60035481565b600160009054906101000a900473ffffffffffffffffffffffffffffffffffffffff1673ffffffffffffffffffffffffffffffffffffffff163373ffffffffffffffffffffffffffffffffffffffff161415156106ba57600080fd5b600060028111156106c757fe5b600260149054906101000a900460ff1660028111156106e257fe5b1415156106ee57600080fd5b61070560095460085461087890919063ffffffff16565b421015151561071357600080fd5b60028060146101000a81548160ff0219169083600281111561073157fe5b0217905550600260009054906101000a900473ffffffffffffffffffffffffffffffffffffffff1673ffffffffffffffffffffffffffffffffffffffff166108fc3073ffffffffffffffffffffffffffffffffffffffff16319081150290604051600060405180830381858888f1935050505015156107af57600080fd5b565b60055481565b60008060008060008060008060008060008060009054906101000a900473ffffffffffffffffffffffffffffffffffffffff16600160009054906101000a900473ffffffffffffffffffffffffffffffffffffffff16600260009054906101000a900473ffffffffffffffffffffffffffffffffffffffff16600260149054906101000a900460ff166004546005546006546007546008546009546003549a509a509a509a509a509a509a509a509a509a509a50909192939495969798999a565b600080828401905083811015151561088f57600080fd5b80915050929150505600a165627a7a72305820ff28599543f0cddf860c3dc7de2083c9694b750d11ce2c1f15cdea261363a4890029a165627a7a72305820a8cb292d8b415f5ea06fc92edffeebbbdf0821e3303069b8b871ab86ac29ada40029",
  "source": "/* Contract to manage Acd loan contracts\n    TODO: add loanId to disbursement, repay and collection narrative\n    TODO: check if we could do repayment without \"direct\" access to borrower's balance (i.e. systemTransfer)\n           eg. transfer Acd to EthBackedLoan initiates repayment? or using ECR20 transfer approval?\n           it wouldn't restrict access more but would be better seperation of functions\n*/\npragma solidity ^0.4.18;\nimport \"./Owned.sol\";\nimport \"./SafeMath.sol\";\nimport \"./Rates.sol\";\nimport \"./TokenAcd.sol\";\nimport \"./EthBackedLoan.sol\";\n\n\ncontract LoanManager is owned {\n    using SafeMath for uint256;\n\n    Rates public rates; // instance of ETH/USD rate provider contract\n                        // TODO:  setter to be able to change? (consider trust questions)\n    TokenAcd public tokenUcd; // instance of UCD token contract\n\n    struct Product {\n        uint term;\n        uint discountRate; // discountRate in parts per million , ie. 10,000 = 1%\n        uint loanCollateralRatio;  // ucd loan amount / colleteral usd value\n                                    // in parts per million , ie. 10,000 = 1%\n        uint minDisbursedAmountInUcd; // with 4 decimals, ie. 31000 = 3.1UCD\n        uint repayPeriod; // number of seconds after maturity before collect can be executed\n        bool isActive;\n    }\n\n    Product[] public products;\n\n    enum LoanState { Open, Repaid, Defaulted }\n\n    struct LoanPointer {\n        address contractAddress;\n        LoanState loanState;    // Redundant, stored in loan contract as well but saves us to instantiate each contract\n                                //   when need to iterate through\n    }\n\n    LoanPointer[] public loanPointers;\n    mapping(address => uint[]) public m_loanPointers;  // owner account address =>  array of loanContracts array idx-s (idx + 1)\n\n    function LoanManager(address _tokenUcdAddress, address _ratesAddress) public owned() {\n        tokenUcd = TokenAcd(_tokenUcdAddress);\n        rates = Rates(_ratesAddress);\n    }\n\n    function getLoanCount() external view returns (uint ct) {\n        return loanPointers.length;\n    }\n\n    function getProductCount() external view returns (uint ct) {\n        return products.length;\n    }\n\n    function getLoanIds(address borrower) external view returns (uint[] loans) {\n        return m_loanPointers[borrower];\n    }\n\n    function addProduct(uint _term, uint _discountRate, uint _loanCollateralRatio, uint _minDisbursedAmountInUcd,\n            uint _repayPeriod, bool _isActive) external onlyOwner returns (uint newProductId) {\n        newProductId = products.push(\n            Product(\n                {term: _term, discountRate: _discountRate,\n                loanCollateralRatio: _loanCollateralRatio, minDisbursedAmountInUcd: _minDisbursedAmountInUcd,\n                repayPeriod: _repayPeriod, isActive: _isActive}\n            )\n        );\n\n        return newProductId - 1;\n        // TODO: emit event\n    }\n\n    function disableProduct(uint8 productId) external onlyOwner {\n        products[productId].isActive = false;\n        // TODO: emit event\n    }\n\n    function enableProduct(uint8 productId) external onlyOwner {\n        products[productId].isActive = true;\n        // TODO: emit event\n    }\n\n    event e_newLoan(uint8 productId, uint loanId, address borrower, address loanContract, uint disbursedLoanInUcd);\n\n    function newEthBackedLoan(uint8 productId) external payable {\n        require(products[productId].isActive); // valid productId?\n\n        // calculate UCD loan values based on ETH sent in with Tx\n        uint usdcValue = rates.convertWeiToUsdc(msg.value);\n        uint loanAmount = usdcValue.mul(products[productId].loanCollateralRatio).roundedDiv(100000000);\n        loanAmount = loanAmount * 100;  // rounding 4 decimals value to 2 decimals.\n                                                    // no safe mul needed b/c of prev divide\n\n        uint mul = products[productId].loanCollateralRatio.mul(products[productId].discountRate) / 1000000;\n        uint disbursedAmount = usdcValue.mul(mul).roundedDiv(100000000);\n        disbursedAmount = disbursedAmount * 100;  // rounding 4 decimals value to 2 decimals.\n                                                        // no safe mul needed b/c of prev divide\n\n        require(disbursedAmount >= products[productId].minDisbursedAmountInUcd);\n\n        // Create new loan contract\n        uint loanId = loanPointers.push(LoanPointer(address(0), LoanState.Open)) - 1;\n        // TODO: check if it's better to pass productId or Product struct\n        address loanContractAddress = new EthBackedLoan(loanId, msg.sender, products[productId].term,\n                    disbursedAmount, loanAmount, products[productId].repayPeriod);\n        loanPointers[loanId].contractAddress = loanContractAddress;\n\n        // Store ref to new loan contract in this contract\n        m_loanPointers[msg.sender].push(loanId);\n\n        // Send ETH collateral to loan contract\n        loanContractAddress.transfer(msg.value);\n\n        // Issue ACD and send to borrower. TODO: interest should go to Interest Pool\n        tokenUcd.issue(loanAmount);\n        tokenUcd.transferNoFee(address(tokenUcd), msg.sender, disbursedAmount, \"Loan disbursement\");\n        if (loanAmount > disbursedAmount) {\n            tokenUcd.transferNoFee(address(tokenUcd), tokenUcd.interestPoolAccount(),\n                loanAmount.sub(disbursedAmount), \"Loan interest at origination\");\n        }\n\n        e_newLoan(productId, loanId, msg.sender, loanContractAddress, disbursedAmount);\n    }\n\n    event e_repayed(address loanContractAddress, address borrower);\n\n    function repay(uint loanId) external {\n        // TODO: remove contract from loanPointers & m_loanPointer on SUCCESS\n        require(loanPointers[loanId].loanState == LoanState.Open);\n\n        address loanContractAddress = loanPointers[loanId].contractAddress;\n        EthBackedLoan loanContract = EthBackedLoan(loanContractAddress);\n\n        require(loanContract.owner() == msg.sender);\n\n        uint disbursedAmount = loanContract.disbursedLoanInUcd();\n        uint loanAmount = loanContract.ucdDueAtMaturity();\n        tokenUcd.transferNoFee(msg.sender, address(tokenUcd), loanAmount, \"Loan repayment\");\n        tokenUcd.burn(loanAmount);\n        if (loanAmount > disbursedAmount) {\n            tokenUcd.transferNoFee(tokenUcd.interestPoolAccount(), tokenUcd.interestEarnedAccount(),\n                loanAmount.sub(disbursedAmount), \"Loan interest at repayment\");\n        }\n\n        loanContract.releaseCollateral();\n\n        loanPointers[loanId].loanState = LoanState.Repaid;\n        e_repayed(loanContractAddress, loanContract.owner());\n    }\n\n    event e_collected(address borrower, address loanContractAddress);\n\n    function collect(uint[] loanIds) external {\n        /* when there are a lots of loans to be collected then\n             the client need to call it in batches to make sure tx won't exceed block gas limit.\n         Anyone can call it - can't cause harm as it only allows to collect loans which they are defaulted\n         TODO: remove contract from loanPointers & m_loanPointer on SUCCESS\n        */\n        for (uint i = 0; i < loanIds.length; i++) {\n            uint loanId = loanIds[i];\n            require(loanPointers[loanId].loanState == LoanState.Open);\n\n            address loanContractAddress = loanPointers[loanId].contractAddress;\n            EthBackedLoan loanContract = EthBackedLoan(loanContractAddress);\n\n            loanContract.collect();\n            loanPointers[loanId].loanState = LoanState.Defaulted;\n            // move interest from InterestPoolAccount to MIR (tokenAcd reserve)\n            tokenUcd.transferNoFee(tokenUcd.interestPoolAccount(), address(tokenUcd),\n                loanContract.ucdDueAtMaturity().sub(loanContract.disbursedLoanInUcd()), \"Defaulted loan interest\");\n            e_collected(loanContract.owner(), loanContractAddress);\n        }\n\n    }\n\n}\n",
  "sourcePath": "/Users/petro/ether/dcm-poc/contracts/LoanManager.sol",
  "compiler": {
    "name": "solc",
    "version": "0.4.18+commit.9cf6e910.Emscripten.clang"
  },
  "schemaVersion": "1.0.1",
  "updatedAt": "2017-11-21T15:37:15.771Z"
}