{
  "contractName": "LoanManager",
  "abi": [
    {
      "constant": false,
      "inputs": [
        {
          "name": "productId",
          "type": "uint8"
        }
      ],
      "name": "newEthBackedLoan",
      "outputs": [],
      "payable": true,
      "stateMutability": "payable",
      "type": "function"
    },
    {
      "constant": false,
      "inputs": [
        {
          "name": "loanId",
          "type": "uint256"
        }
      ],
      "name": "releaseCollateral",
      "outputs": [],
      "payable": false,
      "stateMutability": "nonpayable",
      "type": "function"
    },
    {
      "constant": true,
      "inputs": [],
      "name": "rates",
      "outputs": [
        {
          "name": "",
          "type": "address"
        }
      ],
      "payable": false,
      "stateMutability": "view",
      "type": "function"
    },
    {
      "constant": true,
      "inputs": [],
      "name": "getProductCount",
      "outputs": [
        {
          "name": "ct",
          "type": "uint256"
        }
      ],
      "payable": false,
      "stateMutability": "view",
      "type": "function"
    },
    {
      "constant": true,
      "inputs": [],
      "name": "getLoanCount",
      "outputs": [
        {
          "name": "ct",
          "type": "uint256"
        }
      ],
      "payable": false,
      "stateMutability": "view",
      "type": "function"
    },
    {
      "constant": false,
      "inputs": [
        {
          "name": "loanIds",
          "type": "uint256[]"
        }
      ],
      "name": "collect",
      "outputs": [],
      "payable": false,
      "stateMutability": "nonpayable",
      "type": "function"
    },
    {
      "constant": true,
      "inputs": [
        {
          "name": "borrower",
          "type": "address"
        }
      ],
      "name": "getLoanIds",
      "outputs": [
        {
          "name": "loans",
          "type": "uint256[]"
        }
      ],
      "payable": false,
      "stateMutability": "view",
      "type": "function"
    },
    {
      "constant": true,
      "inputs": [
        {
          "name": "",
          "type": "uint256"
        }
      ],
      "name": "products",
      "outputs": [
        {
          "name": "term",
          "type": "uint256"
        },
        {
          "name": "discountRate",
          "type": "uint256"
        },
        {
          "name": "collateralRatio",
          "type": "uint256"
        },
        {
          "name": "minDisbursedAmount",
          "type": "uint256"
        },
        {
          "name": "isActive",
          "type": "bool"
        }
      ],
      "payable": false,
      "stateMutability": "view",
      "type": "function"
    },
    {
      "constant": true,
      "inputs": [],
      "name": "augmintToken",
      "outputs": [
        {
          "name": "",
          "type": "address"
        }
      ],
      "payable": false,
      "stateMutability": "view",
      "type": "function"
    },
    {
      "constant": true,
      "inputs": [],
      "name": "owner",
      "outputs": [
        {
          "name": "",
          "type": "address"
        }
      ],
      "payable": false,
      "stateMutability": "view",
      "type": "function"
    },
    {
      "constant": true,
      "inputs": [
        {
          "name": "",
          "type": "address"
        },
        {
          "name": "",
          "type": "uint256"
        }
      ],
      "name": "mLoans",
      "outputs": [
        {
          "name": "",
          "type": "uint256"
        }
      ],
      "payable": false,
      "stateMutability": "view",
      "type": "function"
    },
    {
      "constant": false,
      "inputs": [
        {
          "name": "productId",
          "type": "uint8"
        }
      ],
      "name": "enableProduct",
      "outputs": [],
      "payable": false,
      "stateMutability": "nonpayable",
      "type": "function"
    },
    {
      "constant": false,
      "inputs": [
        {
          "name": "productId",
          "type": "uint8"
        }
      ],
      "name": "disableProduct",
      "outputs": [],
      "payable": false,
      "stateMutability": "nonpayable",
      "type": "function"
    },
    {
      "constant": true,
      "inputs": [
        {
          "name": "",
          "type": "uint256"
        }
      ],
      "name": "loans",
      "outputs": [
        {
          "name": "borrower",
          "type": "address"
        },
        {
          "name": "state",
          "type": "uint8"
        },
        {
          "name": "collateralAmount",
          "type": "uint256"
        },
        {
          "name": "repaymentAmount",
          "type": "uint256"
        },
        {
          "name": "loanAmount",
          "type": "uint256"
        },
        {
          "name": "interestAmount",
          "type": "uint256"
        },
        {
          "name": "term",
          "type": "uint256"
        },
        {
          "name": "disbursementDate",
          "type": "uint256"
        },
        {
          "name": "maturity",
          "type": "uint256"
        }
      ],
      "payable": false,
      "stateMutability": "view",
      "type": "function"
    },
    {
      "constant": false,
      "inputs": [
        {
          "name": "newOwner",
          "type": "address"
        }
      ],
      "name": "transferOwnership",
      "outputs": [],
      "payable": false,
      "stateMutability": "nonpayable",
      "type": "function"
    },
    {
      "constant": false,
      "inputs": [
        {
          "name": "_term",
          "type": "uint256"
        },
        {
          "name": "_discountRate",
          "type": "uint256"
        },
        {
          "name": "_collateralRatio",
          "type": "uint256"
        },
        {
          "name": "_minDisbursedAmount",
          "type": "uint256"
        },
        {
          "name": "_isActive",
          "type": "bool"
        }
      ],
      "name": "addProduct",
      "outputs": [
        {
          "name": "newProductId",
          "type": "uint256"
        }
      ],
      "payable": false,
      "stateMutability": "nonpayable",
      "type": "function"
    },
    {
      "inputs": [
        {
          "name": "_augmintTokenAddress",
          "type": "address"
        },
        {
          "name": "_ratesAddress",
          "type": "address"
        }
      ],
      "payable": false,
      "stateMutability": "nonpayable",
      "type": "constructor"
    },
    {
      "anonymous": false,
      "inputs": [
        {
          "indexed": false,
          "name": "productId",
          "type": "uint8"
        },
        {
          "indexed": false,
          "name": "loanId",
          "type": "uint256"
        },
        {
          "indexed": false,
          "name": "borrower",
          "type": "address"
        },
        {
          "indexed": false,
          "name": "collateralAmount",
          "type": "uint256"
        },
        {
          "indexed": false,
          "name": "loanAmount",
          "type": "uint256"
        },
        {
          "indexed": false,
          "name": "repaymentAmount",
          "type": "uint256"
        }
      ],
      "name": "NewLoan",
      "type": "event"
    },
    {
      "anonymous": false,
      "inputs": [
        {
          "indexed": false,
          "name": "loanId",
          "type": "uint256"
        },
        {
          "indexed": false,
          "name": "borrower",
          "type": "address"
        }
      ],
      "name": "LoanRepayed",
      "type": "event"
    },
    {
      "anonymous": false,
      "inputs": [
        {
          "indexed": false,
          "name": "loanId",
          "type": "uint256"
        },
        {
          "indexed": false,
          "name": "borrower",
          "type": "address"
        }
      ],
      "name": "LoanCollected",
      "type": "event"
    },
    {
      "anonymous": false,
      "inputs": [
        {
          "indexed": true,
          "name": "oldOwner",
          "type": "address"
        },
        {
          "indexed": true,
          "name": "newOwner",
          "type": "address"
        }
      ],
      "name": "NewOwner",
      "type": "event"
    }
  ],
  "bytecode": "0x6060604052341561000f57600080fd5b604051604080611cac83398101604052808051906020019091908051906020019091905050600073ffffffffffffffffffffffffffffffffffffffff166000809054906101000a900473ffffffffffffffffffffffffffffffffffffffff1673ffffffffffffffffffffffffffffffffffffffff1614151561009057600080fd5b336000806101000a81548173ffffffffffffffffffffffffffffffffffffffff021916908373ffffffffffffffffffffffffffffffffffffffff16021790555081600560006101000a81548173ffffffffffffffffffffffffffffffffffffffff021916908373ffffffffffffffffffffffffffffffffffffffff16021790555080600460006101000a81548173ffffffffffffffffffffffffffffffffffffffff021916908373ffffffffffffffffffffffffffffffffffffffff1602179055505050611b49806101636000396000f3006060604052600436106100e6576000357c0100000000000000000000000000000000000000000000000000000000900463ffffffff1680631509c8cf146100eb57806339007b771461010657806343f48fbd146101295780634a348da91461017e57806352196812146101a757806357f46cbe146101d05780636b64c885146101fe5780637acc0b201461028c5780637b9b9c89146102e35780638da5cb5b146103385780639f4780b01461038d578063c4e1c7cb146103e3578063caa5436214610409578063e1ec3c681461042f578063f2fde38b146104d8578063f966fffb14610511575b600080fd5b610104600480803560ff1690602001909190505061056e565b005b341561011157600080fd5b6101276004808035906020019091905050610b64565b005b341561013457600080fd5b61013c610fe0565b604051808273ffffffffffffffffffffffffffffffffffffffff1673ffffffffffffffffffffffffffffffffffffffff16815260200191505060405180910390f35b341561018957600080fd5b610191611006565b6040518082815260200191505060405180910390f35b34156101b257600080fd5b6101ba611013565b6040518082815260200191505060405180910390f35b34156101db57600080fd5b6101fc60048080359060200190820180359060200191909192905050611020565b005b341561020957600080fd5b610235600480803573ffffffffffffffffffffffffffffffffffffffff16906020019091905050611351565b6040518080602001828103825283818151815260200191508051906020019060200280838360005b8381101561027857808201518184015260208101905061025d565b505050509050019250505060405180910390f35b341561029757600080fd5b6102ad60048080359060200190919050506113ee565b60405180868152602001858152602001848152602001838152602001821515151581526020019550505050505060405180910390f35b34156102ee57600080fd5b6102f6611440565b604051808273ffffffffffffffffffffffffffffffffffffffff1673ffffffffffffffffffffffffffffffffffffffff16815260200191505060405180910390f35b341561034357600080fd5b61034b611466565b604051808273ffffffffffffffffffffffffffffffffffffffff1673ffffffffffffffffffffffffffffffffffffffff16815260200191505060405180910390f35b341561039857600080fd5b6103cd600480803573ffffffffffffffffffffffffffffffffffffffff1690602001909190803590602001909190505061148b565b6040518082815260200191505060405180910390f35b34156103ee57600080fd5b610407600480803560ff169060200190919050506114bc565b005b341561041457600080fd5b61042d600480803560ff16906020019091905050611555565b005b341561043a57600080fd5b61045060048080359060200190919050506115ef565b604051808a73ffffffffffffffffffffffffffffffffffffffff1673ffffffffffffffffffffffffffffffffffffffff16815260200189600281111561049257fe5b60ff168152602001888152602001878152602001868152602001858152602001848152602001838152602001828152602001995050505050505050505060405180910390f35b34156104e357600080fd5b61050f600480803573ffffffffffffffffffffffffffffffffffffffff16906020019091905050611679565b005b341561051c57600080fd5b610558600480803590602001909190803590602001909190803590602001909190803590602001909190803515159060200190919050506117ce565b6040518082815260200191505060405180910390f35b60008060008060008060018760ff1681548110151561058957fe5b906000526020600020906005020160040160009054906101000a900460ff1615156105b357600080fd5b600460009054906101000a900473ffffffffffffffffffffffffffffffffffffffff1673ffffffffffffffffffffffffffffffffffffffff166319605cd9346000604051602001526040518263ffffffff167c010000000000000000000000000000000000000000000000000000000002815260040180828152602001915050602060405180830381600087803b151561064c57600080fd5b6102c65a03f1151561065d57600080fd5b5050506040518051905095506106b56305f5e1006106a760018a60ff1681548110151561068657fe5b906000526020600020906005020160020154896118d990919063ffffffff16565b61190f90919063ffffffff16565b9450606485029450620f424061071a60018960ff168154811015156106d657fe5b90600052602060002090600502016001015460018a60ff168154811015156106fa57fe5b9060005260206000209060050201600201546118d990919063ffffffff16565b81151561072357fe5b04935061074f6305f5e10061074186896118d990919063ffffffff16565b61190f90919063ffffffff16565b925060648302925060018760ff1681548110151561076957fe5b906000526020600020906005020160030154831015151561078957600080fd5b60016002805480600101828161079f919061196f565b91600052602060002090600802016000610120604051908101604052803373ffffffffffffffffffffffffffffffffffffffff168152602001600060028111156107e557fe5b81526020013481526020018a815260200188815260200161080f898c61195390919063ffffffff16565b815260200160018d60ff1681548110151561082657fe5b906000526020600020906005020160000154815260200142815260200160018d60ff1681548110151561085557fe5b9060005260206000209060050201600001544201815250909190915060008201518160000160006101000a81548173ffffffffffffffffffffffffffffffffffffffff021916908373ffffffffffffffffffffffffffffffffffffffff16021790555060208201518160000160146101000a81548160ff021916908360028111156108dc57fe5b021790555060408201518160010155606082015181600201556080820151816003015560a0820151816004015560c0820151816005015560e0820151816006015561010082015181600701555050039150600360003373ffffffffffffffffffffffffffffffffffffffff1673ffffffffffffffffffffffffffffffffffffffff168152602001908152602001600020805480600101828161097e91906119a1565b916000526020600020900160008490919091505550828511156109b1576109ae838661195390919063ffffffff16565b90505b600560009054906101000a900473ffffffffffffffffffffffffffffffffffffffff1673ffffffffffffffffffffffffffffffffffffffff1663c28f37933385846040518463ffffffff167c0100000000000000000000000000000000000000000000000000000000028152600401808473ffffffffffffffffffffffffffffffffffffffff1673ffffffffffffffffffffffffffffffffffffffff16815260200183815260200182815260200180602001828103825260118152602001807f4c6f616e2064697362757273656d656e74000000000000000000000000000000815250602001945050505050600060405180830381600087803b1515610ab657600080fd5b6102c65a03f11515610ac757600080fd5b5050507f05df3ac6f5398fdac3e2258f4942b47e940eb01f2efb7e5985f510dba0990c3d87833334878a604051808760ff1660ff1681526020018681526020018573ffffffffffffffffffffffffffffffffffffffff1673ffffffffffffffffffffffffffffffffffffffff168152602001848152602001838152602001828152602001965050505050505060405180910390a150505050505050565b3373ffffffffffffffffffffffffffffffffffffffff16600282815481101515610b8a57fe5b906000526020600020906008020160000160009054906101000a900473ffffffffffffffffffffffffffffffffffffffff1673ffffffffffffffffffffffffffffffffffffffff161480610c2b5750600560009054906101000a900473ffffffffffffffffffffffffffffffffffffffff1673ffffffffffffffffffffffffffffffffffffffff163373ffffffffffffffffffffffffffffffffffffffff16145b1515610c3657600080fd5b60006002811115610c4357fe5b600282815481101515610c5257fe5b906000526020600020906008020160000160149054906101000a900460ff166002811115610c7c57fe5b141515610c8857600080fd5b600281815481101515610c9757fe5b9060005260206000209060080201600701544211151515610cb757600080fd5b6001600282815481101515610cc857fe5b906000526020600020906008020160000160146101000a81548160ff02191690836002811115610cf457fe5b0217905550600560009054906101000a900473ffffffffffffffffffffffffffffffffffffffff1673ffffffffffffffffffffffffffffffffffffffff1663c613aa6a600283815481101515610d4657fe5b906000526020600020906008020160000160009054906101000a900473ffffffffffffffffffffffffffffffffffffffff16600284815481101515610d8757fe5b906000526020600020906008020160020154600285815481101515610da857fe5b9060005260206000209060080201600401546040518463ffffffff167c0100000000000000000000000000000000000000000000000000000000028152600401808473ffffffffffffffffffffffffffffffffffffffff1673ffffffffffffffffffffffffffffffffffffffff168152602001838152602001828152602001806020018281038252600e8152602001807f4c6f616e2072657061796d656e74000000000000000000000000000000000000815250602001945050505050600060405180830381600087803b1515610e7e57600080fd5b6102c65a03f11515610e8f57600080fd5b505050600281815481101515610ea157fe5b906000526020600020906008020160000160009054906101000a900473ffffffffffffffffffffffffffffffffffffffff1673ffffffffffffffffffffffffffffffffffffffff166108fc600283815481101515610efb57fe5b9060005260206000209060080201600101549081150290604051600060405180830381858888f193505050501515610f3257600080fd5b7f0bc2fda5eb321ed5f7471e814a5c00752523b3ba8fbfeb905e1b8707eefa16c581600283815481101515610f6357fe5b906000526020600020906008020160000160009054906101000a900473ffffffffffffffffffffffffffffffffffffffff16604051808381526020018273ffffffffffffffffffffffffffffffffffffffff1673ffffffffffffffffffffffffffffffffffffffff1681526020019250505060405180910390a150565b600460009054906101000a900473ffffffffffffffffffffffffffffffffffffffff1681565b6000600180549050905090565b6000600280549050905090565b600080600091505b8383905082101561134b57838383818110151561104157fe5b9050602002013590506000600281111561105757fe5b60028281548110151561106657fe5b906000526020600020906008020160000160149054906101000a900460ff16600281111561109057fe5b14151561109c57600080fd5b6002818154811015156110ab57fe5b90600052602060002090600802016007015442101515156110cb57600080fd5b600280828154811015156110db57fe5b906000526020600020906008020160000160146101000a81548160ff0219169083600281111561110757fe5b0217905550600560009054906101000a900473ffffffffffffffffffffffffffffffffffffffff1673ffffffffffffffffffffffffffffffffffffffff166108fc60028381548110151561115757fe5b9060005260206000209060080201600101549081150290604051600060405180830381858888f19350505050151561118e57600080fd5b6002808281548110151561119e57fe5b906000526020600020906008020160000160146101000a81548160ff021916908360028111156111ca57fe5b0217905550600560009054906101000a900473ffffffffffffffffffffffffffffffffffffffff1673ffffffffffffffffffffffffffffffffffffffff1663c06ec4bc60028381548110151561121c57fe5b9060005260206000209060080201600401546040518263ffffffff167c010000000000000000000000000000000000000000000000000000000002815260040180828152602001915050600060405180830381600087803b151561127f57600080fd5b6102c65a03f1151561129057600080fd5b5050507f51c9d4cf27afd2f86e622ca8f052aa77c06b3562ec214763f4cb6d7d3a9c844d816002838154811015156112c457fe5b906000526020600020906008020160000160009054906101000a900473ffffffffffffffffffffffffffffffffffffffff16604051808381526020018273ffffffffffffffffffffffffffffffffffffffff1673ffffffffffffffffffffffffffffffffffffffff1681526020019250505060405180910390a18180600101925050611028565b50505050565b6113596119cd565b600360008373ffffffffffffffffffffffffffffffffffffffff1673ffffffffffffffffffffffffffffffffffffffff1681526020019081526020016000208054806020026020016040519081016040528092919081815260200182805480156113e257602002820191906000526020600020905b8154815260200190600101908083116113ce575b50505050509050919050565b6001818154811015156113fd57fe5b90600052602060002090600502016000915090508060000154908060010154908060020154908060030154908060040160009054906101000a900460ff16905085565b600560009054906101000a900473ffffffffffffffffffffffffffffffffffffffff1681565b6000809054906101000a900473ffffffffffffffffffffffffffffffffffffffff1681565b6003602052816000526040600020818154811015156114a657fe5b9060005260206000209001600091509150505481565b6000809054906101000a900473ffffffffffffffffffffffffffffffffffffffff1673ffffffffffffffffffffffffffffffffffffffff163373ffffffffffffffffffffffffffffffffffffffff1614151561151757600080fd5b6001808260ff1681548110151561152a57fe5b906000526020600020906005020160040160006101000a81548160ff02191690831515021790555050565b6000809054906101000a900473ffffffffffffffffffffffffffffffffffffffff1673ffffffffffffffffffffffffffffffffffffffff163373ffffffffffffffffffffffffffffffffffffffff161415156115b057600080fd5b600060018260ff168154811015156115c457fe5b906000526020600020906005020160040160006101000a81548160ff02191690831515021790555050565b6002818154811015156115fe57fe5b90600052602060002090600802016000915090508060000160009054906101000a900473ffffffffffffffffffffffffffffffffffffffff16908060000160149054906101000a900460ff16908060010154908060020154908060030154908060040154908060050154908060060154908060070154905089565b6000809054906101000a900473ffffffffffffffffffffffffffffffffffffffff1673ffffffffffffffffffffffffffffffffffffffff163373ffffffffffffffffffffffffffffffffffffffff161415156116d457600080fd5b600073ffffffffffffffffffffffffffffffffffffffff168173ffffffffffffffffffffffffffffffffffffffff161415151561171057600080fd5b8073ffffffffffffffffffffffffffffffffffffffff166000809054906101000a900473ffffffffffffffffffffffffffffffffffffffff1673ffffffffffffffffffffffffffffffffffffffff167f70aea8d848e8a90fb7661b227dc522eb6395c3dac71b63cb59edd5c9899b236460405160405180910390a3806000806101000a81548173ffffffffffffffffffffffffffffffffffffffff021916908373ffffffffffffffffffffffffffffffffffffffff16021790555050565b60008060009054906101000a900473ffffffffffffffffffffffffffffffffffffffff1673ffffffffffffffffffffffffffffffffffffffff163373ffffffffffffffffffffffffffffffffffffffff1614151561182b57600080fd5b6001805480600101828161183f91906119e1565b9160005260206000209060050201600060a0604051908101604052808a815260200189815260200188815260200187815260200186151581525090919091506000820151816000015560208201518160010155604082015181600201556060820151816003015560808201518160040160006101000a81548160ff0219169083151502179055505050905060018103905095945050505050565b600080828402905060008414806118fa57508284828115156118f757fe5b04145b151561190557600080fd5b8091505092915050565b600080828481151561191d57fe5b04905060028381151561192c57fe5b04838581151561193857fe5b061015156119495780806001019150505b8091505092915050565b600082821115151561196457600080fd5b818303905092915050565b81548183558181151161199c5760080281600802836000526020600020918201910161199b9190611a13565b5b505050565b8154818355818115116119c8578183600052602060002091820191016119c79190611aa5565b5b505050565b602060405190810160405280600081525090565b815481835581811511611a0e57600502816005028360005260206000209182019101611a0d9190611aca565b5b505050565b611aa291905b80821115611a9e57600080820160006101000a81549073ffffffffffffffffffffffffffffffffffffffff02191690556000820160146101000a81549060ff0219169055600182016000905560028201600090556003820160009055600482016000905560058201600090556006820160009055600782016000905550600801611a19565b5090565b90565b611ac791905b80821115611ac3576000816000905550600101611aab565b5090565b90565b611b1a91905b80821115611b16576000808201600090556001820160009055600282016000905560038201600090556004820160006101000a81549060ff021916905550600501611ad0565b5090565b905600a165627a7a72305820ff87888548c1d270e384ab806f10e857b584a6f49938fe5598af6d34ee9ca3af0029",
  "source": "/* Contract to manage Acd loan contracts\n    TODO: payback collateral over the UCD value less default fee\n    TODO: add loanId to disbursement, repay and collection narrative\n*/\npragma solidity ^0.4.18;\n\nimport \"./generic/Owned.sol\";\nimport \"./Rates.sol\";\nimport \"./generic/AugmintToken.sol\"; /* TODO: shall we use AugmintTokenInterface instead? */\nimport \"./interfaces/LoanManagerInterface.sol\";\n\n\ncontract LoanManager is LoanManagerInterface {\n    Rates public rates; // instance of ETH/USD rate provider contract\n    AugmintToken public augmintToken; // instance of UCD token contract\n\n    event NewLoan(uint8 productId, uint loanId, address borrower, uint collateralAmount, uint loanAmount,\n        uint repaymentAmount);\n\n    event LoanRepayed(uint loanId, address borrower);\n    \n    event LoanCollected(uint loanId, address borrower);\n\n    function LoanManager(address _augmintTokenAddress, address _ratesAddress) public Owned() {\n        augmintToken = AugmintToken(_augmintTokenAddress);\n        rates = Rates(_ratesAddress);\n    }\n\n    function getLoanCount() external view returns (uint ct) {\n        return loans.length;\n    }\n\n    function getProductCount() external view returns (uint ct) {\n        return products.length;\n    }\n\n    function getLoanIds(address borrower) external view returns (uint[] loans) {\n        return mLoans[borrower];\n    }\n\n    function addProduct(uint _term, uint _discountRate, uint _collateralRatio, uint _minDisbursedAmount,\n            bool _isActive) external onlyOwner returns (uint newProductId) {\n        newProductId = products.push(\n            LoanProduct(_term, _discountRate, _collateralRatio, _minDisbursedAmount, _isActive)\n        );\n\n        return newProductId - 1;\n        // TODO: emit event\n    }\n\n    function disableProduct(uint8 productId) external onlyOwner {\n        products[productId].isActive = false;\n        // TODO: emit event\n    }\n\n    function enableProduct(uint8 productId) external onlyOwner {\n        products[productId].isActive = true;\n        // TODO: emit event\n    }\n\n    function newEthBackedLoan(uint8 productId) external payable {\n        require(products[productId].isActive); // valid productId?\n\n        // calculate UCD loan values based on ETH sent in with Tx\n        uint usdcValue = rates.convertWeiToUsdc(msg.value);\n        uint repaymentAmount = usdcValue.mul(products[productId].collateralRatio).roundedDiv(100000000);\n        repaymentAmount = repaymentAmount * 100;  // rounding 4 decimals value to 2 decimals.\n                                        // no safe mul needed b/c of prev divide\n\n        uint mul = products[productId].collateralRatio.mul(products[productId].discountRate) / 1000000;\n        uint loanAmount = usdcValue.mul(mul).roundedDiv(100000000);\n        loanAmount = loanAmount * 100;    // rounding 4 decimals value to 2 decimals.\n                                                    // no safe mul needed b/c of prev divide\n\n        require(loanAmount >= products[productId].minDisbursedAmount);\n\n        // Create new loan\n        uint loanId = loans.push(\n            LoanData(msg.sender, LoanState.Open, msg.value, repaymentAmount, loanAmount,\n                repaymentAmount.sub(loanAmount), products[productId].term, now, now + products[productId].term)\n            ) - 1;\n\n        // Store ref to new loan\n        mLoans[msg.sender].push(loanId);\n\n        // Issue ACD and send to borrower\n        uint interestAmount;\n        if (repaymentAmount > loanAmount) {\n            interestAmount = repaymentAmount.sub(loanAmount);\n        }\n        augmintToken.issueAndDisburse(msg.sender, loanAmount, interestAmount, \"Loan disbursement\");\n\n        NewLoan(productId, loanId, msg.sender, msg.value, loanAmount, repaymentAmount);\n    }\n\n    function releaseCollateral(uint loanId) external {\n        require(loans[loanId].borrower == msg.sender || msg.sender == address(augmintToken));\n        require(loans[loanId].state == LoanState.Open);\n        require(now <= loans[loanId].maturity);\n        loans[loanId].state = LoanState.Repaid;\n        augmintToken.repayAndBurn(loans[loanId].borrower, loans[loanId].repaymentAmount,\n            loans[loanId].interestAmount, \"Loan repayment\");\n        loans[loanId].borrower.transfer(loans[loanId].collateralAmount); // send back ETH collateral\n\n        LoanRepayed(loanId, loans[loanId].borrower);\n    }\n\n    function collect(uint[] loanIds) external {\n        /* when there are a lots of loans to be collected then\n             the client need to call it in batches to make sure tx won't exceed block gas limit.\n         Anyone can call it - can't cause harm as it only allows to collect loans which they are defaulted\n        */\n        for (uint i = 0; i < loanIds.length; i++) {\n            uint loanId = loanIds[i];\n            require(loans[loanId].state == LoanState.Open);\n            require(now >= loans[loanId].maturity);\n            loans[loanId].state = LoanState.Defaulted;\n            // send ETH collateral to augmintToken reserve\n            address(augmintToken).transfer(loans[loanId].collateralAmount);\n\n            loans[loanId].state = LoanState.Defaulted;\n            // move interest from InterestPoolAccount to MIR (augmintToken reserve)\n            augmintToken.moveCollectedInterest(loans[loanId].interestAmount);\n            LoanCollected(loanId, loans[loanId].borrower);\n        }\n\n    }\n\n}\n",
  "sourcePath": "/Users/petro/ether/dcm-poc/contracts/LoanManager.sol",
  "compiler": {
    "name": "solc",
    "version": "0.4.18+commit.9cf6e910.Emscripten.clang"
  },
  "schemaVersion": "1.0.1",
  "updatedAt": "2018-01-06T09:38:10.187Z"
}