{
  "contractName": "LoanManager",
  "abi": [
    {
      "constant": true,
      "inputs": [],
      "name": "monetarySupervisor",
      "outputs": [
        {
          "name": "",
          "type": "address"
        }
      ],
      "payable": false,
      "stateMutability": "view",
      "type": "function"
    },
    {
      "constant": true,
      "inputs": [],
      "name": "rates",
      "outputs": [
        {
          "name": "",
          "type": "address"
        }
      ],
      "payable": false,
      "stateMutability": "view",
      "type": "function"
    },
    {
      "constant": true,
      "inputs": [
        {
          "name": "",
          "type": "address"
        },
        {
          "name": "",
          "type": "bytes32"
        }
      ],
      "name": "permissions",
      "outputs": [
        {
          "name": "",
          "type": "bool"
        }
      ],
      "payable": false,
      "stateMutability": "view",
      "type": "function"
    },
    {
      "constant": false,
      "inputs": [
        {
          "name": "agent",
          "type": "address"
        },
        {
          "name": "requiredPermission",
          "type": "bytes32"
        }
      ],
      "name": "revokePermission",
      "outputs": [],
      "payable": false,
      "stateMutability": "nonpayable",
      "type": "function"
    },
    {
      "constant": true,
      "inputs": [
        {
          "name": "",
          "type": "address"
        },
        {
          "name": "",
          "type": "uint256"
        }
      ],
      "name": "accountLoans",
      "outputs": [
        {
          "name": "",
          "type": "uint256"
        }
      ],
      "payable": false,
      "stateMutability": "view",
      "type": "function"
    },
    {
      "constant": true,
      "inputs": [
        {
          "name": "",
          "type": "uint256"
        }
      ],
      "name": "products",
      "outputs": [
        {
          "name": "minDisbursedAmount",
          "type": "uint256"
        },
        {
          "name": "term",
          "type": "uint32"
        },
        {
          "name": "discountRate",
          "type": "uint32"
        },
        {
          "name": "collateralRatio",
          "type": "uint32"
        },
        {
          "name": "defaultingFeePt",
          "type": "uint32"
        },
        {
          "name": "isActive",
          "type": "bool"
        }
      ],
      "payable": false,
      "stateMutability": "view",
      "type": "function"
    },
    {
      "constant": true,
      "inputs": [],
      "name": "augmintToken",
      "outputs": [
        {
          "name": "",
          "type": "address"
        }
      ],
      "payable": false,
      "stateMutability": "view",
      "type": "function"
    },
    {
      "constant": false,
      "inputs": [
        {
          "name": "agent",
          "type": "address"
        },
        {
          "name": "requiredPermissions",
          "type": "bytes32[]"
        }
      ],
      "name": "revokeMultiplePermissions",
      "outputs": [],
      "payable": false,
      "stateMutability": "nonpayable",
      "type": "function"
    },
    {
      "constant": false,
      "inputs": [
        {
          "name": "agent",
          "type": "address"
        },
        {
          "name": "requiredPermissions",
          "type": "bytes32[]"
        }
      ],
      "name": "grantMultiplePermissions",
      "outputs": [],
      "payable": false,
      "stateMutability": "nonpayable",
      "type": "function"
    },
    {
      "constant": true,
      "inputs": [
        {
          "name": "",
          "type": "uint256"
        }
      ],
      "name": "loans",
      "outputs": [
        {
          "name": "collateralAmount",
          "type": "uint256"
        },
        {
          "name": "repaymentAmount",
          "type": "uint256"
        },
        {
          "name": "borrower",
          "type": "address"
        },
        {
          "name": "productId",
          "type": "uint32"
        },
        {
          "name": "state",
          "type": "uint8"
        },
        {
          "name": "maturity",
          "type": "uint40"
        }
      ],
      "payable": false,
      "stateMutability": "view",
      "type": "function"
    },
    {
      "constant": true,
      "inputs": [],
      "name": "CHUNK_SIZE",
      "outputs": [
        {
          "name": "",
          "type": "uint16"
        }
      ],
      "payable": false,
      "stateMutability": "view",
      "type": "function"
    },
    {
      "constant": false,
      "inputs": [
        {
          "name": "agent",
          "type": "address"
        },
        {
          "name": "requiredPermission",
          "type": "bytes32"
        }
      ],
      "name": "grantPermission",
      "outputs": [],
      "payable": false,
      "stateMutability": "nonpayable",
      "type": "function"
    },
    {
      "inputs": [
        {
          "name": "_augmintToken",
          "type": "address"
        },
        {
          "name": "_monetarySupervisor",
          "type": "address"
        },
        {
          "name": "_rates",
          "type": "address"
        }
      ],
      "payable": false,
      "stateMutability": "nonpayable",
      "type": "constructor"
    },
    {
      "anonymous": false,
      "inputs": [
        {
          "indexed": false,
          "name": "productId",
          "type": "uint32"
        },
        {
          "indexed": false,
          "name": "loanId",
          "type": "uint256"
        },
        {
          "indexed": true,
          "name": "borrower",
          "type": "address"
        },
        {
          "indexed": false,
          "name": "collateralAmount",
          "type": "uint256"
        },
        {
          "indexed": false,
          "name": "loanAmount",
          "type": "uint256"
        },
        {
          "indexed": false,
          "name": "repaymentAmount",
          "type": "uint256"
        },
        {
          "indexed": false,
          "name": "maturity",
          "type": "uint40"
        }
      ],
      "name": "NewLoan",
      "type": "event"
    },
    {
      "anonymous": false,
      "inputs": [
        {
          "indexed": false,
          "name": "productId",
          "type": "uint32"
        },
        {
          "indexed": false,
          "name": "newState",
          "type": "bool"
        }
      ],
      "name": "LoanProductActiveStateChanged",
      "type": "event"
    },
    {
      "anonymous": false,
      "inputs": [
        {
          "indexed": false,
          "name": "productId",
          "type": "uint32"
        }
      ],
      "name": "LoanProductAdded",
      "type": "event"
    },
    {
      "anonymous": false,
      "inputs": [
        {
          "indexed": false,
          "name": "loanId",
          "type": "uint256"
        },
        {
          "indexed": false,
          "name": "borrower",
          "type": "address"
        }
      ],
      "name": "LoanRepayed",
      "type": "event"
    },
    {
      "anonymous": false,
      "inputs": [
        {
          "indexed": false,
          "name": "loanId",
          "type": "uint256"
        },
        {
          "indexed": true,
          "name": "borrower",
          "type": "address"
        },
        {
          "indexed": false,
          "name": "collectedCollateral",
          "type": "uint256"
        },
        {
          "indexed": false,
          "name": "releasedCollateral",
          "type": "uint256"
        },
        {
          "indexed": false,
          "name": "defaultingFee",
          "type": "uint256"
        }
      ],
      "name": "LoanCollected",
      "type": "event"
    },
    {
      "anonymous": false,
      "inputs": [
        {
          "indexed": false,
          "name": "newRatesContract",
          "type": "address"
        },
        {
          "indexed": false,
          "name": "newMonetarySupervisor",
          "type": "address"
        }
      ],
      "name": "SystemContractsChanged",
      "type": "event"
    },
    {
      "anonymous": false,
      "inputs": [
        {
          "indexed": true,
          "name": "agent",
          "type": "address"
        },
        {
          "indexed": false,
          "name": "grantedPermission",
          "type": "bytes32"
        }
      ],
      "name": "PermissionGranted",
      "type": "event"
    },
    {
      "anonymous": false,
      "inputs": [
        {
          "indexed": true,
          "name": "agent",
          "type": "address"
        },
        {
          "indexed": false,
          "name": "revokedPermission",
          "type": "bytes32"
        }
      ],
      "name": "PermissionRevoked",
      "type": "event"
    },
    {
      "constant": false,
      "inputs": [
        {
          "name": "term",
          "type": "uint32"
        },
        {
          "name": "discountRate",
          "type": "uint32"
        },
        {
          "name": "collateralRatio",
          "type": "uint32"
        },
        {
          "name": "minDisbursedAmount",
          "type": "uint256"
        },
        {
          "name": "defaultingFeePt",
          "type": "uint32"
        },
        {
          "name": "isActive",
          "type": "bool"
        }
      ],
      "name": "addLoanProduct",
      "outputs": [],
      "payable": false,
      "stateMutability": "nonpayable",
      "type": "function"
    },
    {
      "constant": false,
      "inputs": [
        {
          "name": "productId",
          "type": "uint32"
        },
        {
          "name": "newState",
          "type": "bool"
        }
      ],
      "name": "setLoanProductActiveState",
      "outputs": [],
      "payable": false,
      "stateMutability": "nonpayable",
      "type": "function"
    },
    {
      "constant": false,
      "inputs": [
        {
          "name": "productId",
          "type": "uint32"
        }
      ],
      "name": "newEthBackedLoan",
      "outputs": [],
      "payable": true,
      "stateMutability": "payable",
      "type": "function"
    },
    {
      "constant": false,
      "inputs": [
        {
          "name": "",
          "type": "address"
        },
        {
          "name": "repaymentAmount",
          "type": "uint256"
        },
        {
          "name": "loanId",
          "type": "uint256"
        }
      ],
      "name": "transferNotification",
      "outputs": [],
      "payable": false,
      "stateMutability": "nonpayable",
      "type": "function"
    },
    {
      "constant": false,
      "inputs": [
        {
          "name": "loanIds",
          "type": "uint256[]"
        }
      ],
      "name": "collect",
      "outputs": [],
      "payable": false,
      "stateMutability": "nonpayable",
      "type": "function"
    },
    {
      "constant": false,
      "inputs": [
        {
          "name": "newRatesContract",
          "type": "address"
        },
        {
          "name": "newMonetarySupervisor",
          "type": "address"
        }
      ],
      "name": "setSystemContracts",
      "outputs": [],
      "payable": false,
      "stateMutability": "nonpayable",
      "type": "function"
    },
    {
      "constant": true,
      "inputs": [],
      "name": "getProductCount",
      "outputs": [
        {
          "name": "ct",
          "type": "uint256"
        }
      ],
      "payable": false,
      "stateMutability": "view",
      "type": "function"
    },
    {
      "constant": true,
      "inputs": [
        {
          "name": "offset",
          "type": "uint256"
        }
      ],
      "name": "getProducts",
      "outputs": [
        {
          "name": "response",
          "type": "uint256[8][100]"
        }
      ],
      "payable": false,
      "stateMutability": "view",
      "type": "function"
    },
    {
      "constant": true,
      "inputs": [],
      "name": "getLoanCount",
      "outputs": [
        {
          "name": "ct",
          "type": "uint256"
        }
      ],
      "payable": false,
      "stateMutability": "view",
      "type": "function"
    },
    {
      "constant": true,
      "inputs": [
        {
          "name": "offset",
          "type": "uint256"
        }
      ],
      "name": "getLoans",
      "outputs": [
        {
          "name": "response",
          "type": "uint256[10][100]"
        }
      ],
      "payable": false,
      "stateMutability": "view",
      "type": "function"
    },
    {
      "constant": true,
      "inputs": [
        {
          "name": "borrower",
          "type": "address"
        }
      ],
      "name": "getLoanCountForAddress",
      "outputs": [
        {
          "name": "",
          "type": "uint256"
        }
      ],
      "payable": false,
      "stateMutability": "view",
      "type": "function"
    },
    {
      "constant": true,
      "inputs": [
        {
          "name": "borrower",
          "type": "address"
        },
        {
          "name": "offset",
          "type": "uint256"
        }
      ],
      "name": "getLoansForAddress",
      "outputs": [
        {
          "name": "response",
          "type": "uint256[10][100]"
        }
      ],
      "payable": false,
      "stateMutability": "view",
      "type": "function"
    },
    {
      "constant": true,
      "inputs": [
        {
          "name": "loanId",
          "type": "uint256"
        }
      ],
      "name": "getLoanTuple",
      "outputs": [
        {
          "name": "result",
          "type": "uint256[10]"
        }
      ],
      "payable": false,
      "stateMutability": "view",
      "type": "function"
    }
  ],
  "bytecode": "0x608060405234801561001057600080fd5b5060405160608061413183398101806040528101908080519060200190929190805190602001909291908051906020019092919050505060016000803373ffffffffffffffffffffffffffffffffffffffff1673ffffffffffffffffffffffffffffffffffffffff16815260200190815260200160002060007f4d6f6e6574617279426f6172640000000000000000000000000000000000000060001916815260200190815260200160002060006101000a81548160ff0219169083151502179055503373ffffffffffffffffffffffffffffffffffffffff167fc65937e3dbcb9fb30f646815dd67a3dbd09ba17718cbcb54efbe3635f8e0a6fe60405180807f4d6f6e6574617279426f61726400000000000000000000000000000000000000815250602001905060405180910390a282600560006101000a81548173ffffffffffffffffffffffffffffffffffffffff021916908373ffffffffffffffffffffffffffffffffffffffff16021790555081600660006101000a81548173ffffffffffffffffffffffffffffffffffffffff021916908373ffffffffffffffffffffffffffffffffffffffff16021790555080600460006101000a81548173ffffffffffffffffffffffffffffffffffffffff021916908373ffffffffffffffffffffffffffffffffffffffff160217905550505050613f1b806102166000396000f300608060405260043610610149576000357c0100000000000000000000000000000000000000000000000000000000900463ffffffff1680630aed3ca11461014e57806315f647fc146101da578063169f66df146102195780632432282d1461027057806343f48fbd146102c7578063442d27dc1461031e5780634a348da9146103875780634d8e64ee146103b2578063521968121461041557806357f46cbe146104405780635b2255261461047b5780635fe07013146104e457806360ad970d1461053557806364e7e4a4146105e1578063761004bd146106385780637acc0b20146106995780637b9b9c89146107315780637ea46993146107885780639ac3317b1461080e578063c1c6d4e814610894578063d4849a8b1461090d578063debad27f14610933578063e1ec3c68146109bf578063e91e13a914610a77578063f38a826214610aaa575b600080fd5b34801561015a57600080fd5b5061017960048036038101908080359060200190929190505050610afb565b604051808260646000925b818410156101ca5782846020020151600a60200280838360005b838110156101b957808201518184015260208101905061019e565b505050509050019260010192610184565b9250505091505060405180910390f35b3480156101e657600080fd5b50610217600480360381019080803563ffffffff169060200190929190803515159060200190929190505050610b6f565b005b34801561022557600080fd5b5061022e610d7e565b604051808273ffffffffffffffffffffffffffffffffffffffff1673ffffffffffffffffffffffffffffffffffffffff16815260200191505060405180910390f35b34801561027c57600080fd5b506102b1600480360381019080803573ffffffffffffffffffffffffffffffffffffffff169060200190929190505050610da4565b6040518082815260200191505060405180910390f35b3480156102d357600080fd5b506102dc610df0565b604051808273ffffffffffffffffffffffffffffffffffffffff1673ffffffffffffffffffffffffffffffffffffffff16815260200191505060405180910390f35b34801561032a57600080fd5b5061034960048036038101908080359060200190929190505050610e16565b6040518082600a60200280838360005b83811015610374578082015181840152602081019050610359565b5050505090500191505060405180910390f35b34801561039357600080fd5b5061039c611096565b6040518082815260200191505060405180910390f35b3480156103be57600080fd5b50610413600480360381019080803573ffffffffffffffffffffffffffffffffffffffff169060200190929190803573ffffffffffffffffffffffffffffffffffffffff1690602001909291905050506110a3565b005b34801561042157600080fd5b5061042a6112bb565b6040518082815260200191505060405180910390f35b34801561044c57600080fd5b506104796004803603810190808035906020019082018035906020019190919293919293905050506112c8565b005b34801561048757600080fd5b506104ca600480360381019080803573ffffffffffffffffffffffffffffffffffffffff1690602001909291908035600019169060200190929190505050611daa565b604051808215151515815260200191505060405180910390f35b3480156104f057600080fd5b50610533600480360381019080803573ffffffffffffffffffffffffffffffffffffffff1690602001909291908035600019169060200190929190505050611dd9565b005b34801561054157600080fd5b50610580600480360381019080803573ffffffffffffffffffffffffffffffffffffffff16906020019092919080359060200190929190505050611fbe565b604051808260646000925b818410156105d15782846020020151600a60200280838360005b838110156105c05780820151818401526020810190506105a5565b50505050905001926001019261058b565b9250505091505060405180910390f35b3480156105ed57600080fd5b50610636600480360381019080803573ffffffffffffffffffffffffffffffffffffffff169060200190929190803590602001909291908035906020019092919050505061208e565b005b34801561064457600080fd5b50610683600480360381019080803573ffffffffffffffffffffffffffffffffffffffff16906020019092919080359060200190929190505050612162565b6040518082815260200191505060405180910390f35b3480156106a557600080fd5b506106c460048036038101908080359060200190929190505050612192565b604051808781526020018663ffffffff1663ffffffff1681526020018563ffffffff1663ffffffff1681526020018463ffffffff1663ffffffff1681526020018363ffffffff1663ffffffff16815260200182151515158152602001965050505050505060405180910390f35b34801561073d57600080fd5b5061074661222a565b604051808273ffffffffffffffffffffffffffffffffffffffff1673ffffffffffffffffffffffffffffffffffffffff16815260200191505060405180910390f35b34801561079457600080fd5b5061080c600480360381019080803573ffffffffffffffffffffffffffffffffffffffff16906020019092919080359060200190820180359060200190808060200260200160405190810160405280939291908181526020018383602002808284378201915050505050509192919290505050612250565b005b34801561081a57600080fd5b50610892600480360381019080803573ffffffffffffffffffffffffffffffffffffffff16906020019092919080359060200190820180359060200190808060200260200160405190810160405280939291908181526020018383602002808284378201915050505050509192919290505050612298565b005b3480156108a057600080fd5b5061090b600480360381019080803563ffffffff169060200190929190803563ffffffff169060200190929190803563ffffffff16906020019092919080359060200190929190803563ffffffff1690602001909291908035151590602001909291905050506123fb565b005b610931600480360381019080803563ffffffff169060200190929190505050612707565b005b34801561093f57600080fd5b5061095e60048036038101908080359060200190929190505050612ec7565b604051808260646000925b818410156109af5782846020020151600860200280838360005b8381101561099e578082015181840152602081019050610983565b505050509050019260010192610969565b9250505091505060405180910390f35b3480156109cb57600080fd5b506109ea600480360381019080803590602001909291905050506130f2565b604051808781526020018681526020018573ffffffffffffffffffffffffffffffffffffffff1673ffffffffffffffffffffffffffffffffffffffff1681526020018463ffffffff1663ffffffff168152602001836003811115610a4a57fe5b60ff1681526020018264ffffffffff1664ffffffffff168152602001965050505050505060405180910390f35b348015610a8357600080fd5b50610a8c61318b565b604051808261ffff1661ffff16815260200191505060405180910390f35b348015610ab657600080fd5b50610af9600480360381019080803573ffffffffffffffffffffffffffffffffffffffff1690602001909291908035600019169060200190929190505050613190565b005b610b03613e25565b60008090505b606461ffff168161ffff161015610b69576002805490508161ffff168401101515610b3357610b69565b610b428161ffff168401610e16565b828261ffff16606481101515610b5457fe5b60200201819052508080600101915050610b09565b50919050565b7f4d6f6e6574617279426f617264000000000000000000000000000000000000006000803373ffffffffffffffffffffffffffffffffffffffff1673ffffffffffffffffffffffffffffffffffffffff1681526020019081526020016000206000826000191660001916815260200190815260200160002060009054906101000a900460ff161515610c69576040517f08c379a000000000000000000000000000000000000000000000000000000000815260040180806020018281038252601f8152602001807f6d73672e73656e646572206d7573742068617665207065726d697373696f6e0081525060200191505060405180910390fd5b6001805490508363ffffffff16101515610ceb576040517f08c379a00000000000000000000000000000000000000000000000000000000081526004018080602001828103825260118152602001807f696e76616c69642070726f64756374496400000000000000000000000000000081525060200191505060405180910390fd5b600060018463ffffffff16815481101515610d0257fe5b906000526020600020906002020160010160106101000a81548160ff0219169083151502179055507ff686833114a6119b006ebfaf64ed31277c71b76a9855945de8d58f849bff68908383604051808363ffffffff1663ffffffff168152602001821515151581526020019250505060405180910390a1505050565b600660009054906101000a900473ffffffffffffffffffffffffffffffffffffffff1681565b6000600360008373ffffffffffffffffffffffffffffffffffffffff1673ffffffffffffffffffffffffffffffffffffffff168152602001908152602001600020805490509050919050565b600460009054906101000a900473ffffffffffffffffffffffffffffffffffffffff1681565b610e1e613e54565b60008060008060008060028054905088101515610ea3576040517f08c379a000000000000000000000000000000000000000000000000000000000815260040180806020018281038252600e8152602001807f696e76616c6964206c6f616e496400000000000000000000000000000000000081525060200191505060405180910390fd5b600288815481101515610eb257fe5b9060005260206000209060030201955060018660020160149054906101000a900463ffffffff1663ffffffff16815481101515610eeb57fe5b90600052602060002090600202019450610f09858760010154613375565b80945081955050508460010160009054906101000a900463ffffffff1663ffffffff168660020160199054906101000a900464ffffffffff160364ffffffffff16915060006003811115610f5957fe5b8660020160189054906101000a900460ff166003811115610f7657fe5b148015610f9f57508560020160199054906101000a900464ffffffffff1664ffffffffff164210155b610fba578560020160189054906101000a900460ff16610fbd565b60025b90506101406040519081016040528089815260200187600001548152602001876001015481526020018760020160009054906101000a900473ffffffffffffffffffffffffffffffffffffffff1673ffffffffffffffffffffffffffffffffffffffff1681526020018760020160149054906101000a900463ffffffff1663ffffffff16815260200182600381111561105257fe5b81526020018760020160199054906101000a900464ffffffffff1664ffffffffff168152602001838152602001858152602001848152509650505050505050919050565b6000600180549050905090565b7f4d6f6e6574617279426f617264000000000000000000000000000000000000006000803373ffffffffffffffffffffffffffffffffffffffff1673ffffffffffffffffffffffffffffffffffffffff1681526020019081526020016000206000826000191660001916815260200190815260200160002060009054906101000a900460ff16151561119d576040517f08c379a000000000000000000000000000000000000000000000000000000000815260040180806020018281038252601f8152602001807f6d73672e73656e646572206d7573742068617665207065726d697373696f6e0081525060200191505060405180910390fd5b82600460006101000a81548173ffffffffffffffffffffffffffffffffffffffff021916908373ffffffffffffffffffffffffffffffffffffffff16021790555081600660006101000a81548173ffffffffffffffffffffffffffffffffffffffff021916908373ffffffffffffffffffffffffffffffffffffffff1602179055507f68700d71686a6c45f4e450fa2f38d15fcddf5956d2bd054075f77d4636ff0f1a8383604051808373ffffffffffffffffffffffffffffffffffffffff1673ffffffffffffffffffffffffffffffffffffffff1681526020018273ffffffffffffffffffffffffffffffffffffffff1673ffffffffffffffffffffffffffffffffffffffff1681526020019250505060405180910390a1505050565b6000600280549050905090565b600080600080600080600080600080600080600098505b8d8d9050891015611acf5760028054905089101515611366576040517f08c379a000000000000000000000000000000000000000000000000000000000815260040180806020018281038252600e8152602001807f696e76616c6964206c6f616e496400000000000000000000000000000000000081525060200191505060405180910390fd5b60028e8e8b818110151561137657fe5b9050602002013581548110151561138957fe5b90600052602060002090600302019750600060038111156113a657fe5b8860020160189054906101000a900460ff1660038111156113c357fe5b141515611438576040517f08c379a00000000000000000000000000000000000000000000000000000000081526004018080602001828103825260178152602001807f6c6f616e207374617465206d757374206265204f70656e00000000000000000081525060200191505060405180910390fd5b8760020160199054906101000a900464ffffffffff1664ffffffffff1642101515156114f2576040517f08c379a00000000000000000000000000000000000000000000000000000000081526004018080602001828103825260288152602001807f63757272656e742074696d65206d757374206265206c61746572207468616e2081526020017f6d6174757269747900000000000000000000000000000000000000000000000081525060400191505060405180910390fd5b60018860020160149054906101000a900463ffffffff1663ffffffff1681548110151561151b57fe5b90600052602060002090600202019650611539878960010154613375565b5080965050611551868d6133e790919063ffffffff16565b9b5060038860020160186101000a81548160ff0219169083600381111561157457fe5b02179055506115bf620f42406115b189600101600c9054906101000a900463ffffffff1663ffffffff168b6001015461347190919063ffffffff16565b61351090919063ffffffff16565b9450600460009054906101000a900473ffffffffffffffffffffffffffffffffffffffff1673ffffffffffffffffffffffffffffffffffffffff16635c481d8b600560009054906101000a900473ffffffffffffffffffffffffffffffffffffffff1673ffffffffffffffffffffffffffffffffffffffff166333a263e66040518163ffffffff167c0100000000000000000000000000000000000000000000000000000000028152600401602060405180830381600087803b15801561168557600080fd5b505af1158015611699573d6000803e3d6000fd5b505050506040513d60208110156116af57600080fd5b8101908080519060200190929190505050876040518363ffffffff167c010000000000000000000000000000000000000000000000000000000002815260040180836000191660001916815260200182815260200192505050602060405180830381600087803b15801561172257600080fd5b505af1158015611736573d6000803e3d6000fd5b505050506040513d602081101561174c57600080fd5b8101908080519060200190929190505050935061191184600460009054906101000a900473ffffffffffffffffffffffffffffffffffffffff1673ffffffffffffffffffffffffffffffffffffffff16635c481d8b600560009054906101000a900473ffffffffffffffffffffffffffffffffffffffff1673ffffffffffffffffffffffffffffffffffffffff166333a263e66040518163ffffffff167c0100000000000000000000000000000000000000000000000000000000028152600401602060405180830381600087803b15801561182757600080fd5b505af115801561183b573d6000803e3d6000fd5b505050506040513d602081101561185157600080fd5b81019080805190602001909291905050508c600101546040518363ffffffff167c010000000000000000000000000000000000000000000000000000000002815260040180836000191660001916815260200182815260200192505050602060405180830381600087803b1580156118c857600080fd5b505af11580156118dc573d6000803e3d6000fd5b505050506040513d60208110156118f257600080fd5b81019080805190602001909291905050506133e790919063ffffffff16565b925087600001548310156119a4576119368389600001546135a390919063ffffffff16565b91508760020160009054906101000a900473ffffffffffffffffffffffffffffffffffffffff1673ffffffffffffffffffffffffffffffffffffffff166108fc839081150290604051600060405180830381858888f193505050501580156119a2573d6000803e3d6000fd5b505b6119bb8289600001546135a390919063ffffffff16565b905080841015156119d257809350600090506119e8565b6119e584826135a390919063ffffffff16565b90505b6119fb848b6133e790919063ffffffff16565b9950611a10818c6133e790919063ffffffff16565b9a508760020160009054906101000a900473ffffffffffffffffffffffffffffffffffffffff1673ffffffffffffffffffffffffffffffffffffffff167f328dba6669445381058bdb02ebe2ec93eb6f203f283073dee9b206720390f10b8f8f8c8181101515611a7c57fe5b90506020020135611a9687856133e790919063ffffffff16565b85886040518085815260200184815260200183815260200182815260200194505050505060405180910390a288806001019950506112df565b60008b1115611be057600660009054906101000a900473ffffffffffffffffffffffffffffffffffffffff1673ffffffffffffffffffffffffffffffffffffffff1663fe1ebb046040518163ffffffff167c0100000000000000000000000000000000000000000000000000000000028152600401602060405180830381600087803b158015611b5e57600080fd5b505af1158015611b72573d6000803e3d6000fd5b505050506040513d6020811015611b8857600080fd5b810190808051906020019092919050505073ffffffffffffffffffffffffffffffffffffffff166108fc8c9081150290604051600060405180830381858888f19350505050158015611bde573d6000803e3d6000fd5b505b60008a1115611cf157600560009054906101000a900473ffffffffffffffffffffffffffffffffffffffff1673ffffffffffffffffffffffffffffffffffffffff166365e17c9d6040518163ffffffff167c0100000000000000000000000000000000000000000000000000000000028152600401602060405180830381600087803b158015611c6f57600080fd5b505af1158015611c83573d6000803e3d6000fd5b505050506040513d6020811015611c9957600080fd5b810190808051906020019092919050505073ffffffffffffffffffffffffffffffffffffffff166108fc8b9081150290604051600060405180830381858888f19350505050158015611cef573d6000803e3d6000fd5b505b600660009054906101000a900473ffffffffffffffffffffffffffffffffffffffff1673ffffffffffffffffffffffffffffffffffffffff166358c316038d6040518263ffffffff167c010000000000000000000000000000000000000000000000000000000002815260040180828152602001915050600060405180830381600087803b158015611d8257600080fd5b505af1158015611d96573d6000803e3d6000fd5b505050505050505050505050505050505050565b60006020528160005260406000206020528060005260406000206000915091509054906101000a900460ff1681565b6000803373ffffffffffffffffffffffffffffffffffffffff1673ffffffffffffffffffffffffffffffffffffffff16815260200190815260200160002060007f4d6f6e6574617279426f6172640000000000000000000000000000000000000060001916815260200190815260200160002060009054906101000a900460ff161515611ef4576040517f08c379a000000000000000000000000000000000000000000000000000000000815260040180806020018281038252602d8152602001807f6d73672e73656e646572206d7573742068617665204d6f6e6574617279426f6181526020017f7264207065726d697373696f6e0000000000000000000000000000000000000081525060400191505060405180910390fd5b60008060008473ffffffffffffffffffffffffffffffffffffffff1673ffffffffffffffffffffffffffffffffffffffff1681526020019081526020016000206000836000191660001916815260200190815260200160002060006101000a81548160ff0219169083151502179055508173ffffffffffffffffffffffffffffffffffffffff167f789770131846de4d1f28418f0f957cdf4fcabe5eccf70067083e20ecece69a348260405180826000191660001916815260200191505060405180910390a25050565b611fc6613e25565b600080600360008673ffffffffffffffffffffffffffffffffffffffff1673ffffffffffffffffffffffffffffffffffffffff1681526020019081526020016000209150600090505b606461ffff168161ffff1610156120865781805490508161ffff16850110151561203857612086565b61205f828261ffff16860181548110151561204f57fe5b9060005260206000200154610e16565b838261ffff1660648110151561207157fe5b6020020181905250808060010191505061200f565b505092915050565b600560009054906101000a900473ffffffffffffffffffffffffffffffffffffffff1673ffffffffffffffffffffffffffffffffffffffff163373ffffffffffffffffffffffffffffffffffffffff16141515612153576040517f08c379a000000000000000000000000000000000000000000000000000000000815260040180806020018281038252601f8152602001807f6d73672e73656e646572206d757374206265206175676d696e74546f6b656e0081525060200191505060405180910390fd5b61215d8183613628565b505050565b60036020528160005260406000208181548110151561217d57fe5b90600052602060002001600091509150505481565b6001818154811015156121a157fe5b90600052602060002090600202016000915090508060000154908060010160009054906101000a900463ffffffff16908060010160049054906101000a900463ffffffff16908060010160089054906101000a900463ffffffff169080600101600c9054906101000a900463ffffffff16908060010160109054906101000a900460ff16905086565b600560009054906101000a900473ffffffffffffffffffffffffffffffffffffffff1681565b60008082519150600090505b818110156122925761228584848381518110151561227657fe5b90602001906020020151611dd9565b808060010191505061225c565b50505050565b6000806000803373ffffffffffffffffffffffffffffffffffffffff1673ffffffffffffffffffffffffffffffffffffffff16815260200190815260200160002060007f4d6f6e6574617279426f6172640000000000000000000000000000000000000060001916815260200190815260200160002060009054906101000a900460ff1615156123b6576040517f08c379a000000000000000000000000000000000000000000000000000000000815260040180806020018281038252602d8152602001807f6d73672e73656e646572206d7573742068617665204d6f6e6574617279426f6181526020017f7264207065726d697373696f6e0000000000000000000000000000000000000081525060400191505060405180910390fd5b82519150600090505b818110156123f5576123e88484838151811015156123d957fe5b90602001906020020151613190565b80806001019150506123bf565b50505050565b6000807f4d6f6e6574617279426f617264000000000000000000000000000000000000006000803373ffffffffffffffffffffffffffffffffffffffff1673ffffffffffffffffffffffffffffffffffffffff1681526020019081526020016000206000826000191660001916815260200190815260200160002060009054906101000a900460ff1615156124f8576040517f08c379a000000000000000000000000000000000000000000000000000000000815260040180806020018281038252601f8152602001807f6d73672e73656e646572206d7573742068617665207065726d697373696f6e0081525060200191505060405180910390fd5b60018060c0604051908101604052808981526020018c63ffffffff1681526020018b63ffffffff1681526020018a63ffffffff1681526020018863ffffffff168152602001871515815250908060018154018082558091505090600182039060005260206000209060020201600090919290919091506000820151816000015560208201518160010160006101000a81548163ffffffff021916908363ffffffff16021790555060408201518160010160046101000a81548163ffffffff021916908363ffffffff16021790555060608201518160010160086101000a81548163ffffffff021916908363ffffffff160217905550608082015181600101600c6101000a81548163ffffffff021916908363ffffffff16021790555060a08201518160010160106101000a81548160ff0219169083151502179055505050039250829150828263ffffffff161415156126b9576040517f08c379a00000000000000000000000000000000000000000000000000000000081526004018080602001828103825260128152602001807f70726f647563744964206f766572666c6f77000000000000000000000000000081525060200191505060405180910390fd5b7fccadd8a27b8a91830a26f7dd76f3acec14cd6bc7bfb79e91113ec547150d95f082604051808263ffffffff1663ffffffff16815260200191505060405180910390a1505050505050505050565b60008060008060008060006001805490508863ffffffff16101515612794576040517f08c379a00000000000000000000000000000000000000000000000000000000081526004018080602001828103825260118152602001807f696e76616c69642070726f64756374496400000000000000000000000000000081525060200191505060405180910390fd5b60018863ffffffff168154811015156127a957fe5b906000526020600020906002020196508660010160109054906101000a900460ff16151561283f576040517f08c379a000000000000000000000000000000000000000000000000000000000815260040180806020018281038252601f8152602001807f70726f64756374206d75737420626520696e206163746976652073746174650081525060200191505060405180910390fd5b600460009054906101000a900473ffffffffffffffffffffffffffffffffffffffff1673ffffffffffffffffffffffffffffffffffffffff166382f5e31b600560009054906101000a900473ffffffffffffffffffffffffffffffffffffffff1673ffffffffffffffffffffffffffffffffffffffff166333a263e66040518163ffffffff167c0100000000000000000000000000000000000000000000000000000000028152600401602060405180830381600087803b15801561290357600080fd5b505af1158015612917573d6000803e3d6000fd5b505050506040513d602081101561292d57600080fd5b8101908080519060200190929190505050346040518363ffffffff167c010000000000000000000000000000000000000000000000000000000002815260040180836000191660001916815260200182815260200192505050602060405180830381600087803b1580156129a057600080fd5b505af11580156129b4573d6000803e3d6000fd5b505050506040513d60208110156129ca57600080fd5b81019080805190602001909291905050509550612a1f620f4240612a118960010160089054906101000a900463ffffffff1663ffffffff168961347190919063ffffffff16565b61351090919063ffffffff16565b9450612a2b8786613375565b508094505086600001548410151515612ad2576040517f08c379a00000000000000000000000000000000000000000000000000000000081526004018080602001828103825260288152602001807f6c6f616e416d6f756e74206d757374206265203e3d206d696e4469736275727381526020017f6564416d6f756e7400000000000000000000000000000000000000000000000081525060400191505060405180910390fd5b612aff8760010160009054906101000a900463ffffffff1663ffffffff16426133e790919063ffffffff16565b9250829150828264ffffffffff16141515612b82576040517f08c379a00000000000000000000000000000000000000000000000000000000081526004018080602001828103825260118152602001807f6d61747572697479206f766572666c6f7700000000000000000000000000000081525060200191505060405180910390fd5b6001600260c0604051908101604052803481526020018881526020013373ffffffffffffffffffffffffffffffffffffffff1681526020018b63ffffffff16815260200160006003811115612bd357fe5b81526020018564ffffffffff1681525090806001815401808255809150509060018203906000526020600020906003020160009091929091909150600082015181600001556020820151816001015560408201518160020160006101000a81548173ffffffffffffffffffffffffffffffffffffffff021916908373ffffffffffffffffffffffffffffffffffffffff16021790555060608201518160020160146101000a81548163ffffffff021916908363ffffffff16021790555060808201518160020160186101000a81548160ff02191690836003811115612cb457fe5b021790555060a08201518160020160196101000a81548164ffffffffff021916908364ffffffffff1602179055505050039050600360003373ffffffffffffffffffffffffffffffffffffffff1673ffffffffffffffffffffffffffffffffffffffff168152602001908152602001600020819080600181540180825580915050906001820390600052602060002001600090919290919091505550600660009054906101000a900473ffffffffffffffffffffffffffffffffffffffff1673ffffffffffffffffffffffffffffffffffffffff16631895687d33866040518363ffffffff167c0100000000000000000000000000000000000000000000000000000000028152600401808373ffffffffffffffffffffffffffffffffffffffff1673ffffffffffffffffffffffffffffffffffffffff16815260200182815260200192505050600060405180830381600087803b158015612e1557600080fd5b505af1158015612e29573d6000803e3d6000fd5b505050503373ffffffffffffffffffffffffffffffffffffffff167f1f9972ec35a86b6ea1c3884c02fda9d8d0c5c14089a133610fed51c481b7e208898334888a88604051808763ffffffff1663ffffffff1681526020018681526020018581526020018481526020018381526020018264ffffffffff1664ffffffffff168152602001965050505050505060405180910390a25050505050505050565b612ecf613e78565b600080600091505b606461ffff168261ffff1610156130eb576001805490508261ffff168501101515612f01576130eb565b60018261ffff168501815481101515612f1657fe5b90600052602060002090600202019050610100604051908101604052808361ffff1686018152602001826000015481526020018260010160009054906101000a900463ffffffff1663ffffffff1681526020018260010160049054906101000a900463ffffffff1663ffffffff1681526020018260010160089054906101000a900463ffffffff1663ffffffff16815260200182600101600c9054906101000a900463ffffffff1663ffffffff168152602001600660009054906101000a900473ffffffffffffffffffffffffffffffffffffffff1673ffffffffffffffffffffffffffffffffffffffff1663e95f2c7d84600001546040518263ffffffff167c010000000000000000000000000000000000000000000000000000000002815260040180828152602001915050602060405180830381600087803b15801561305e57600080fd5b505af1158015613072573d6000803e3d6000fd5b505050506040513d602081101561308857600080fd5b810190808051906020019092919050505081526020018260010160109054906101000a900460ff166130bb5760006130be565b60015b60ff16815250838361ffff166064811015156130d657fe5b60200201819052508180600101925050612ed7565b5050919050565b60028181548110151561310157fe5b90600052602060002090600302016000915090508060000154908060010154908060020160009054906101000a900473ffffffffffffffffffffffffffffffffffffffff16908060020160149054906101000a900463ffffffff16908060020160189054906101000a900460ff16908060020160199054906101000a900464ffffffffff16905086565b606481565b6000803373ffffffffffffffffffffffffffffffffffffffff1673ffffffffffffffffffffffffffffffffffffffff16815260200190815260200160002060007f4d6f6e6574617279426f6172640000000000000000000000000000000000000060001916815260200190815260200160002060009054906101000a900460ff1615156132ab576040517f08c379a000000000000000000000000000000000000000000000000000000000815260040180806020018281038252602d8152602001807f6d73672e73656e646572206d7573742068617665204d6f6e6574617279426f6181526020017f7264207065726d697373696f6e0000000000000000000000000000000000000081525060400191505060405180910390fd5b60016000808473ffffffffffffffffffffffffffffffffffffffff1673ffffffffffffffffffffffffffffffffffffffff1681526020019081526020016000206000836000191660001916815260200190815260200160002060006101000a81548160ff0219169083151502179055508173ffffffffffffffffffffffffffffffffffffffff167fc65937e3dbcb9fb30f646815dd67a3dbd09ba17718cbcb54efbe3635f8e0a6fe8260405180826000191660001916815260200191505060405180910390a25050565b6000806133ba620f42406133ac8660010160049054906101000a900463ffffffff1663ffffffff168661347190919063ffffffff16565b61351090919063ffffffff16565b91508282116133db576133d682846135a390919063ffffffff16565b6133de565b60005b90509250929050565b6000808284019050838110151515613467576040517f08c379a000000000000000000000000000000000000000000000000000000000815260040180806020018281038252600c8152602001807f616464206f766572666c6f77000000000000000000000000000000000000000081525060200191505060405180910390fd5b8091505092915050565b60008082840290506000841480613492575082848281151561348f57fe5b04145b1515613506576040517f08c379a000000000000000000000000000000000000000000000000000000000815260040180806020018281038252600c8152602001807f6d756c206f766572666c6f77000000000000000000000000000000000000000081525060200191505060405180910390fd5b8091505092915050565b60008060008311151561358b576040517f08c379a00000000000000000000000000000000000000000000000000000000081526004018080602001828103825260088152602001807f646976206279203000000000000000000000000000000000000000000000000081525060200191505060405180910390fd5b828481151561359657fe5b0490508091505092915050565b600082821115151561361d576040517f08c379a000000000000000000000000000000000000000000000000000000000815260040180806020018281038252600d8152602001807f73756220756e646572666c6f770000000000000000000000000000000000000081525060200191505060405180910390fd5b818303905092915050565b600080600080600280549050861015156136aa576040517f08c379a000000000000000000000000000000000000000000000000000000000815260040180806020018281038252600e8152602001807f696e76616c6964206c6f616e496400000000000000000000000000000000000081525060200191505060405180910390fd5b6002868154811015156136b957fe5b90600052602060002090600302019350600060038111156136d657fe5b8460020160189054906101000a900460ff1660038111156136f357fe5b141515613768576040517f08c379a00000000000000000000000000000000000000000000000000000000081526004018080602001828103825260178152602001807f6c6f616e207374617465206d757374206265204f70656e00000000000000000081525060200191505060405180910390fd5b836001015485141515613809576040517f08c379a000000000000000000000000000000000000000000000000000000000815260040180806020018281038252602c8152602001807f72657061796d656e74416d6f756e74206d75737420626520657175616c20746f81526020017f20746f6b656e732073656e74000000000000000000000000000000000000000081525060400191505060405180910390fd5b8360020160199054906101000a900464ffffffffff1664ffffffffff1642111515156138c3576040517f08c379a000000000000000000000000000000000000000000000000000000000815260040180806020018281038252602a8152602001807f63757272656e742074696d65206d757374206265206561726c6965722074686181526020017f6e206d617475726974790000000000000000000000000000000000000000000081525060400191505060405180910390fd5b60018460020160149054906101000a900463ffffffff1663ffffffff168154811015156138ec57fe5b9060005260206000209060020201925061390a838560010154613375565b8092508193505050600160028781548110151561392357fe5b906000526020600020906003020160020160186101000a81548160ff0219169083600381111561394f57fe5b02179055506000811115613bcc57600560009054906101000a900473ffffffffffffffffffffffffffffffffffffffff1673ffffffffffffffffffffffffffffffffffffffff1663a9059cbb600660009054906101000a900473ffffffffffffffffffffffffffffffffffffffff1673ffffffffffffffffffffffffffffffffffffffff16635fcf04556040518163ffffffff167c0100000000000000000000000000000000000000000000000000000000028152600401602060405180830381600087803b158015613a2157600080fd5b505af1158015613a35573d6000803e3d6000fd5b505050506040513d6020811015613a4b57600080fd5b8101908080519060200190929190505050836040518363ffffffff167c0100000000000000000000000000000000000000000000000000000000028152600401808373ffffffffffffffffffffffffffffffffffffffff1673ffffffffffffffffffffffffffffffffffffffff16815260200182815260200192505050602060405180830381600087803b158015613ae257600080fd5b505af1158015613af6573d6000803e3d6000fd5b505050506040513d6020811015613b0c57600080fd5b810190808051906020019092919050505050600560009054906101000a900473ffffffffffffffffffffffffffffffffffffffff1673ffffffffffffffffffffffffffffffffffffffff166342966c68836040518263ffffffff167c010000000000000000000000000000000000000000000000000000000002815260040180828152602001915050600060405180830381600087803b158015613baf57600080fd5b505af1158015613bc3573d6000803e3d6000fd5b50505050613c76565b600560009054906101000a900473ffffffffffffffffffffffffffffffffffffffff1673ffffffffffffffffffffffffffffffffffffffff166342966c68866040518263ffffffff167c010000000000000000000000000000000000000000000000000000000002815260040180828152602001915050600060405180830381600087803b158015613c5d57600080fd5b505af1158015613c71573d6000803e3d6000fd5b505050505b600660009054906101000a900473ffffffffffffffffffffffffffffffffffffffff1673ffffffffffffffffffffffffffffffffffffffff16634cae5f99836040518263ffffffff167c010000000000000000000000000000000000000000000000000000000002815260040180828152602001915050600060405180830381600087803b158015613d0757600080fd5b505af1158015613d1b573d6000803e3d6000fd5b505050508360020160009054906101000a900473ffffffffffffffffffffffffffffffffffffffff1673ffffffffffffffffffffffffffffffffffffffff166108fc85600001549081150290604051600060405180830381858888f19350505050158015613d8d573d6000803e3d6000fd5b507f0bc2fda5eb321ed5f7471e814a5c00752523b3ba8fbfeb905e1b8707eefa16c5868560020160009054906101000a900473ffffffffffffffffffffffffffffffffffffffff16604051808381526020018273ffffffffffffffffffffffffffffffffffffffff1673ffffffffffffffffffffffffffffffffffffffff1681526020019250505060405180910390a1505050505050565b617d00604051908101604052806064905b613e3e613ea7565b815260200190600190039081613e365790505090565b61014060405190810160405280600a90602082028038833980820191505090505090565b616400604051908101604052806064905b613e91613ecb565b815260200190600190039081613e895790505090565b61014060405190810160405280600a90602082028038833980820191505090505090565b610100604051908101604052806008906020820280388339808201915050905050905600a165627a7a723058205fd7c1bd832f6ba1b653ce873169eb15a83a1ce5d5c959f30eabb2154c6bdf4e0029",
  "source": "/*\n    Contract to manage Augmint token loan contracts backed by ETH\n    For flows see: https://github.com/Augmint/augmint-contracts/blob/master/docs/loanFlow.png\n\n    TODO:\n        - create MonetarySupervisor interface and use it instead?\n        - make data arg generic bytes?\n        - make collect() run as long as gas provided allows\n*/\npragma solidity ^0.4.23;\n\nimport \"./Rates.sol\";\nimport \"./generic/Restricted.sol\";\nimport \"./generic/SafeMath.sol\";\nimport \"./interfaces/AugmintTokenInterface.sol\";\nimport \"./MonetarySupervisor.sol\";\n\n\ncontract LoanManager is Restricted {\n    using SafeMath for uint256;\n\n    uint16 public constant CHUNK_SIZE = 100;\n\n    enum LoanState { Open, Repaid, Defaulted, Collected } // NB: Defaulted state is not stored, only getters calculate\n\n    struct LoanProduct {\n        uint minDisbursedAmount; // 0: with decimals set in AugmintToken.decimals\n        uint32 term;            // 1\n        uint32 discountRate;    // 2: discountRate in parts per million , ie. 10,000 = 1%\n        uint32 collateralRatio; // 3: loan token amount / colleteral pegged ccy value\n                                //      in parts per million , ie. 10,000 = 1%\n        uint32 defaultingFeePt; // 4: % of collateral in parts per million , ie. 50,000 = 5%\n        bool isActive;          // 5\n    }\n\n    /* NB: we don't need to store loan parameters because loan products can't be altered (only disabled/enabled) */\n    struct LoanData {\n        uint collateralAmount; // 0\n        uint repaymentAmount; // 1\n        address borrower; // 2\n        uint32 productId; // 3\n        LoanState state; // 4\n        uint40 maturity; // 5\n    }\n\n    LoanProduct[] public products;\n\n    LoanData[] public loans;\n    mapping(address => uint[]) public accountLoans;  // owner account address =>  array of loan Ids\n\n    Rates public rates; // instance of ETH/pegged currency rate provider contract\n    AugmintTokenInterface public augmintToken; // instance of token contract\n    MonetarySupervisor public monetarySupervisor;\n\n    event NewLoan(uint32 productId, uint loanId, address indexed borrower, uint collateralAmount, uint loanAmount,\n        uint repaymentAmount, uint40 maturity);\n\n    event LoanProductActiveStateChanged(uint32 productId, bool newState);\n\n    event LoanProductAdded(uint32 productId);\n\n    event LoanRepayed(uint loanId, address borrower);\n\n    event LoanCollected(uint loanId, address indexed borrower, uint collectedCollateral,\n        uint releasedCollateral, uint defaultingFee);\n\n    event SystemContractsChanged(Rates newRatesContract, MonetarySupervisor newMonetarySupervisor);\n\n    constructor(AugmintTokenInterface _augmintToken, MonetarySupervisor _monetarySupervisor, Rates _rates)\n    public {\n        augmintToken = _augmintToken;\n        monetarySupervisor = _monetarySupervisor;\n        rates = _rates;\n    }\n\n    function addLoanProduct(uint32 term, uint32 discountRate, uint32 collateralRatio, uint minDisbursedAmount,\n                                uint32 defaultingFeePt, bool isActive)\n    external restrict(\"MonetaryBoard\") {\n\n        uint _newProductId = products.push(\n            LoanProduct(minDisbursedAmount, term, discountRate, collateralRatio, defaultingFeePt, isActive)\n        ) - 1;\n\n        uint32 newProductId = uint32(_newProductId);\n        require(newProductId == _newProductId, \"productId overflow\");\n\n        emit LoanProductAdded(newProductId);\n    }\n\n    function setLoanProductActiveState(uint32 productId, bool newState)\n    external restrict (\"MonetaryBoard\") {\n        require(productId < products.length, \"invalid productId\"); // next line would revert but require to emit reason\n        products[productId].isActive = false;\n        emit LoanProductActiveStateChanged(productId, newState);\n    }\n\n    function newEthBackedLoan(uint32 productId) external payable {\n        require(productId < products.length, \"invalid productId\"); // next line would revert but require to emit reason\n        LoanProduct storage product = products[productId];\n        require(product.isActive, \"product must be in active state\"); // valid product\n\n\n        // calculate loan values based on ETH sent in with Tx\n        uint tokenValue = rates.convertFromWei(augmintToken.peggedSymbol(), msg.value);\n        uint repaymentAmount = tokenValue.mul(product.collateralRatio).div(1000000);\n\n        uint loanAmount;\n        (loanAmount, ) = calculateLoanValues(product, repaymentAmount);\n\n        require(loanAmount >= product.minDisbursedAmount, \"loanAmount must be >= minDisbursedAmount\");\n\n        uint expiration = now.add(product.term);\n        uint40 maturity = uint40(expiration);\n        require(maturity == expiration, \"maturity overflow\");\n\n        // Create new loan\n        uint loanId = loans.push(LoanData(msg.value, repaymentAmount, msg.sender,\n                                            productId, LoanState.Open, maturity)) - 1;\n\n        // Store ref to new loan\n        accountLoans[msg.sender].push(loanId);\n\n        // Issue tokens and send to borrower\n        monetarySupervisor.issueLoan(msg.sender, loanAmount);\n\n        emit NewLoan(productId, loanId, msg.sender, msg.value, loanAmount, repaymentAmount, maturity);\n    }\n\n    /* repay loan, called from AugmintToken's transferAndNotify\n     Flow for repaying loan:\n        1) user calls token contract's transferAndNotify loanId passed in data arg\n        2) transferAndNotify transfers tokens to the Lender contract\n        3) transferAndNotify calls Lender.transferNotification with lockProductId\n    */\n    // from arg is not used as we allow anyone to repay a loan:\n    function transferNotification(address, uint repaymentAmount, uint loanId) external {\n        require(msg.sender == address(augmintToken), \"msg.sender must be augmintToken\");\n\n        _repayLoan(loanId, repaymentAmount);\n    }\n\n    function collect(uint[] loanIds) external {\n        /* when there are a lots of loans to be collected then\n             the client need to call it in batches to make sure tx won't exceed block gas limit.\n         Anyone can call it - can't cause harm as it only allows to collect loans which they are defaulted\n         TODO: optimise defaulting fee calculations\n        */\n        uint totalLoanAmountCollected;\n        uint totalCollateralToCollect;\n        uint totalDefaultingFee;\n        for (uint i = 0; i < loanIds.length; i++) {\n            require(i < loans.length, \"invalid loanId\"); // next line would revert but require to emit reason\n            LoanData storage loan = loans[loanIds[i]];\n            require(loan.state == LoanState.Open, \"loan state must be Open\");\n            require(now >= loan.maturity, \"current time must be later than maturity\");\n            LoanProduct storage product = products[loan.productId];\n\n            uint loanAmount;\n            (loanAmount, ) = calculateLoanValues(product, loan.repaymentAmount);\n\n            totalLoanAmountCollected = totalLoanAmountCollected.add(loanAmount);\n\n            loan.state = LoanState.Collected;\n\n            // send ETH collateral to augmintToken reserve\n            uint defaultingFeeInToken = loan.repaymentAmount.mul(product.defaultingFeePt).div(1000000);\n            uint defaultingFee = rates.convertToWei(augmintToken.peggedSymbol(), defaultingFeeInToken);\n            uint targetCollection = rates.convertToWei(augmintToken.peggedSymbol(),\n                                                            loan.repaymentAmount).add(defaultingFee);\n\n            uint releasedCollateral;\n            if (targetCollection < loan.collateralAmount) {\n                releasedCollateral = loan.collateralAmount.sub(targetCollection);\n                loan.borrower.transfer(releasedCollateral);\n            }\n            uint collateralToCollect = loan.collateralAmount.sub(releasedCollateral);\n            if (defaultingFee >= collateralToCollect) {\n                defaultingFee = collateralToCollect;\n                collateralToCollect = 0;\n            } else {\n                collateralToCollect = collateralToCollect.sub(defaultingFee);\n            }\n            totalDefaultingFee = totalDefaultingFee.add(defaultingFee);\n\n            totalCollateralToCollect = totalCollateralToCollect.add(collateralToCollect);\n\n            emit LoanCollected(loanIds[i], loan.borrower, collateralToCollect.add(defaultingFee), releasedCollateral, defaultingFee);\n        }\n\n        if (totalCollateralToCollect > 0) {\n            address(monetarySupervisor.augmintReserves()).transfer(totalCollateralToCollect);\n        }\n\n        if (totalDefaultingFee > 0){\n            address(augmintToken.feeAccount()).transfer(totalDefaultingFee);\n        }\n\n        monetarySupervisor.loanCollectionNotification(totalLoanAmountCollected);// update KPIs\n\n    }\n\n    /* to allow upgrade of Rates and MonetarySupervisor contracts */\n    function setSystemContracts(Rates newRatesContract, MonetarySupervisor newMonetarySupervisor)\n    external restrict(\"MonetaryBoard\") {\n        rates = newRatesContract;\n        monetarySupervisor = newMonetarySupervisor;\n        emit SystemContractsChanged(newRatesContract, newMonetarySupervisor);\n    }\n\n    function getProductCount() external view returns (uint ct) {\n        return products.length;\n    }\n\n    // returns CHUNK_SIZE loan products starting from some offset:\n    // [ productId, minDisbursedAmount, term, discountRate, collateralRatio, defaultingFeePt, maxLoanAmount, isActive ]\n    function getProducts(uint offset) external view returns (uint[8][CHUNK_SIZE] response) {\n\n        for (uint16 i = 0; i < CHUNK_SIZE; i++) {\n\n            if (offset + i >= products.length) { break; }\n\n            LoanProduct storage product = products[offset + i];\n\n            response[i] = [offset + i, product.minDisbursedAmount, product.term, product.discountRate,\n                            product.collateralRatio, product.defaultingFeePt,\n                            monetarySupervisor.getMaxLoanAmount(product.minDisbursedAmount), product.isActive ? 1 : 0 ];\n        }\n    }\n\n    function getLoanCount() external view returns (uint ct) {\n        return loans.length;\n    }\n\n    /* returns CHUNK_SIZE loans starting from some offset. Loans data encoded as:\n        [loanId, collateralAmount, repaymentAmount, borrower, productId, state, maturity, disbursementTime,\n                                                                                    loanAmount, interestAmount ]   */\n    function getLoans(uint offset) external view returns (uint[10][CHUNK_SIZE] response) {\n\n        for (uint16 i = 0; i < CHUNK_SIZE; i++) {\n\n            if (offset + i >= loans.length) { break; }\n\n            response[i] = getLoanTuple(offset + i);\n        }\n    }\n\n    function getLoanCountForAddress(address borrower) external view returns (uint) {\n        return accountLoans[borrower].length;\n    }\n\n    /* returns CHUNK_SIZE loans of a given account, starting from some offset. Loans data encoded as:\n        [loanId, collateralAmount, repaymentAmount, borrower, productId, state, maturity, disbursementTime,\n                                                                                    loanAmount, interestAmount ] */\n    function getLoansForAddress(address borrower, uint offset) external view returns (uint[10][CHUNK_SIZE] response) {\n\n        uint[] storage loansForAddress = accountLoans[borrower];\n\n        for (uint16 i = 0; i < CHUNK_SIZE; i++) {\n\n            if (offset + i >= loansForAddress.length) { break; }\n\n            response[i] = getLoanTuple(loansForAddress[offset + i]);\n        }\n    }\n\n    function getLoanTuple(uint loanId) public view returns (uint[10] result) {\n        require(loanId < loans.length, \"invalid loanId\"); // next line would revert but require to emit reason\n        LoanData storage loan = loans[loanId];\n        LoanProduct storage product = products[loan.productId];\n\n        uint loanAmount;\n        uint interestAmount;\n        (loanAmount, interestAmount) = calculateLoanValues(product, loan.repaymentAmount);\n        uint disbursementTime = loan.maturity - product.term;\n\n        LoanState loanState =\n                        loan.state == LoanState.Open && now >= loan.maturity ? LoanState.Defaulted : loan.state;\n\n        result = [loanId, loan.collateralAmount, loan.repaymentAmount, uint(loan.borrower),\n                    loan.productId, uint(loanState), loan.maturity, disbursementTime, loanAmount, interestAmount];\n    }\n\n    function calculateLoanValues(LoanProduct storage product, uint repaymentAmount)\n    internal view returns (uint loanAmount, uint interestAmount) {\n        // calculate loan values based on repayment amount\n        loanAmount = repaymentAmount.mul(product.discountRate).div(1000000);\n        interestAmount = loanAmount > repaymentAmount ? 0 : repaymentAmount.sub(loanAmount);\n    }\n\n    /* internal function, assuming repayment amount already transfered  */\n    function _repayLoan(uint loanId, uint repaymentAmount) internal {\n        require(loanId < loans.length, \"invalid loanId\"); // next line would revert but require to emit reason\n        LoanData storage loan = loans[loanId];\n        require(loan.state == LoanState.Open, \"loan state must be Open\");\n        require(repaymentAmount == loan.repaymentAmount, \"repaymentAmount must be equal to tokens sent\");\n        require(now <= loan.maturity, \"current time must be earlier than maturity\");\n\n        LoanProduct storage product = products[loan.productId];\n        uint loanAmount;\n        uint interestAmount;\n        (loanAmount, interestAmount) = calculateLoanValues(product, loan.repaymentAmount);\n\n        loans[loanId].state = LoanState.Repaid;\n\n        if (interestAmount > 0) {\n            augmintToken.transfer(monetarySupervisor.interestEarnedAccount(), interestAmount);\n            augmintToken.burn(loanAmount);\n        } else {\n            // negative or zero interest (i.e. discountRate >= 0)\n            augmintToken.burn(repaymentAmount);\n        }\n\n        monetarySupervisor.loanRepaymentNotification(loanAmount); // update KPIs\n\n        loan.borrower.transfer(loan.collateralAmount); // send back ETH collateral\n\n        emit LoanRepayed(loanId, loan.borrower);\n    }\n\n}\n",
  "sourcePath": "/Users/petro/ether/augmint-contracts/contracts/LoanManager.sol",
  "compiler": {
    "name": "solc",
    "version": "0.4.23+commit.124ca40d.Emscripten.clang"
  },
  "schemaVersion": "2.0.0",
  "updatedAt": "2018-04-20T18:26:53.590Z"
}