{
  "contractName": "LoanManager",
  "abi": [
    {
      "constant": true,
      "inputs": [],
      "name": "monetarySupervisor",
      "outputs": [
        {
          "name": "",
          "type": "address"
        }
      ],
      "payable": false,
      "stateMutability": "view",
      "type": "function"
    },
    {
      "constant": true,
      "inputs": [],
      "name": "rates",
      "outputs": [
        {
          "name": "",
          "type": "address"
        }
      ],
      "payable": false,
      "stateMutability": "view",
      "type": "function"
    },
    {
      "constant": true,
      "inputs": [
        {
          "name": "",
          "type": "address"
        },
        {
          "name": "",
          "type": "bytes32"
        }
      ],
      "name": "permissions",
      "outputs": [
        {
          "name": "",
          "type": "bool"
        }
      ],
      "payable": false,
      "stateMutability": "view",
      "type": "function"
    },
    {
      "constant": true,
      "inputs": [],
      "name": "interestEarnedAccount",
      "outputs": [
        {
          "name": "",
          "type": "address"
        }
      ],
      "payable": false,
      "stateMutability": "view",
      "type": "function"
    },
    {
      "constant": false,
      "inputs": [
        {
          "name": "agent",
          "type": "address"
        },
        {
          "name": "requiredPermission",
          "type": "bytes32"
        }
      ],
      "name": "revokePermission",
      "outputs": [],
      "payable": false,
      "stateMutability": "nonpayable",
      "type": "function"
    },
    {
      "constant": true,
      "inputs": [
        {
          "name": "",
          "type": "address"
        },
        {
          "name": "",
          "type": "uint256"
        }
      ],
      "name": "accountLoans",
      "outputs": [
        {
          "name": "",
          "type": "uint256"
        }
      ],
      "payable": false,
      "stateMutability": "view",
      "type": "function"
    },
    {
      "constant": true,
      "inputs": [
        {
          "name": "",
          "type": "uint256"
        }
      ],
      "name": "products",
      "outputs": [
        {
          "name": "minDisbursedAmount",
          "type": "uint256"
        },
        {
          "name": "term",
          "type": "uint32"
        },
        {
          "name": "discountRate",
          "type": "uint32"
        },
        {
          "name": "collateralRatio",
          "type": "uint32"
        },
        {
          "name": "defaultingFeePt",
          "type": "uint32"
        },
        {
          "name": "isActive",
          "type": "bool"
        }
      ],
      "payable": false,
      "stateMutability": "view",
      "type": "function"
    },
    {
      "constant": true,
      "inputs": [],
      "name": "augmintToken",
      "outputs": [
        {
          "name": "",
          "type": "address"
        }
      ],
      "payable": false,
      "stateMutability": "view",
      "type": "function"
    },
    {
      "constant": false,
      "inputs": [
        {
          "name": "agent",
          "type": "address"
        },
        {
          "name": "requiredPermissions",
          "type": "bytes32[]"
        }
      ],
      "name": "revokeMultiplePermissions",
      "outputs": [],
      "payable": false,
      "stateMutability": "nonpayable",
      "type": "function"
    },
    {
      "constant": false,
      "inputs": [
        {
          "name": "agent",
          "type": "address"
        },
        {
          "name": "requiredPermissions",
          "type": "bytes32[]"
        }
      ],
      "name": "grantMultiplePermissions",
      "outputs": [],
      "payable": false,
      "stateMutability": "nonpayable",
      "type": "function"
    },
    {
      "constant": true,
      "inputs": [
        {
          "name": "",
          "type": "uint256"
        }
      ],
      "name": "loans",
      "outputs": [
        {
          "name": "collateralAmount",
          "type": "uint256"
        },
        {
          "name": "repaymentAmount",
          "type": "uint256"
        },
        {
          "name": "borrower",
          "type": "address"
        },
        {
          "name": "productId",
          "type": "uint32"
        },
        {
          "name": "state",
          "type": "uint8"
        },
        {
          "name": "maturity",
          "type": "uint40"
        }
      ],
      "payable": false,
      "stateMutability": "view",
      "type": "function"
    },
    {
      "constant": true,
      "inputs": [],
      "name": "CHUNK_SIZE",
      "outputs": [
        {
          "name": "",
          "type": "uint16"
        }
      ],
      "payable": false,
      "stateMutability": "view",
      "type": "function"
    },
    {
      "constant": false,
      "inputs": [
        {
          "name": "agent",
          "type": "address"
        },
        {
          "name": "requiredPermission",
          "type": "bytes32"
        }
      ],
      "name": "grantPermission",
      "outputs": [],
      "payable": false,
      "stateMutability": "nonpayable",
      "type": "function"
    },
    {
      "inputs": [
        {
          "name": "_augmintToken",
          "type": "address"
        },
        {
          "name": "_monetarySupervisor",
          "type": "address"
        },
        {
          "name": "_rates",
          "type": "address"
        },
        {
          "name": "_interestEarnedAccount",
          "type": "address"
        }
      ],
      "payable": false,
      "stateMutability": "nonpayable",
      "type": "constructor"
    },
    {
      "anonymous": false,
      "inputs": [
        {
          "indexed": false,
          "name": "productId",
          "type": "uint32"
        },
        {
          "indexed": false,
          "name": "loanId",
          "type": "uint256"
        },
        {
          "indexed": true,
          "name": "borrower",
          "type": "address"
        },
        {
          "indexed": false,
          "name": "collateralAmount",
          "type": "uint256"
        },
        {
          "indexed": false,
          "name": "loanAmount",
          "type": "uint256"
        },
        {
          "indexed": false,
          "name": "repaymentAmount",
          "type": "uint256"
        },
        {
          "indexed": false,
          "name": "maturity",
          "type": "uint40"
        }
      ],
      "name": "NewLoan",
      "type": "event"
    },
    {
      "anonymous": false,
      "inputs": [
        {
          "indexed": false,
          "name": "productId",
          "type": "uint32"
        },
        {
          "indexed": false,
          "name": "newState",
          "type": "bool"
        }
      ],
      "name": "LoanProductActiveStateChanged",
      "type": "event"
    },
    {
      "anonymous": false,
      "inputs": [
        {
          "indexed": false,
          "name": "productId",
          "type": "uint32"
        }
      ],
      "name": "LoanProductAdded",
      "type": "event"
    },
    {
      "anonymous": false,
      "inputs": [
        {
          "indexed": false,
          "name": "loanId",
          "type": "uint256"
        },
        {
          "indexed": false,
          "name": "borrower",
          "type": "address"
        }
      ],
      "name": "LoanRepayed",
      "type": "event"
    },
    {
      "anonymous": false,
      "inputs": [
        {
          "indexed": false,
          "name": "loanId",
          "type": "uint256"
        },
        {
          "indexed": true,
          "name": "borrower",
          "type": "address"
        },
        {
          "indexed": false,
          "name": "collectedCollateral",
          "type": "uint256"
        },
        {
          "indexed": false,
          "name": "releasedCollateral",
          "type": "uint256"
        },
        {
          "indexed": false,
          "name": "defaultingFee",
          "type": "uint256"
        }
      ],
      "name": "LoanCollected",
      "type": "event"
    },
    {
      "anonymous": false,
      "inputs": [
        {
          "indexed": true,
          "name": "agent",
          "type": "address"
        },
        {
          "indexed": false,
          "name": "grantedPermission",
          "type": "bytes32"
        }
      ],
      "name": "PermissionGranted",
      "type": "event"
    },
    {
      "anonymous": false,
      "inputs": [
        {
          "indexed": true,
          "name": "agent",
          "type": "address"
        },
        {
          "indexed": false,
          "name": "revokedPermission",
          "type": "bytes32"
        }
      ],
      "name": "PermissionRevoked",
      "type": "event"
    },
    {
      "constant": false,
      "inputs": [
        {
          "name": "term",
          "type": "uint32"
        },
        {
          "name": "discountRate",
          "type": "uint32"
        },
        {
          "name": "collateralRatio",
          "type": "uint32"
        },
        {
          "name": "minDisbursedAmount",
          "type": "uint256"
        },
        {
          "name": "defaultingFeePt",
          "type": "uint32"
        },
        {
          "name": "isActive",
          "type": "bool"
        }
      ],
      "name": "addLoanProduct",
      "outputs": [],
      "payable": false,
      "stateMutability": "nonpayable",
      "type": "function"
    },
    {
      "constant": false,
      "inputs": [
        {
          "name": "productId",
          "type": "uint32"
        },
        {
          "name": "newState",
          "type": "bool"
        }
      ],
      "name": "setLoanProductActiveState",
      "outputs": [],
      "payable": false,
      "stateMutability": "nonpayable",
      "type": "function"
    },
    {
      "constant": false,
      "inputs": [
        {
          "name": "productId",
          "type": "uint32"
        }
      ],
      "name": "newEthBackedLoan",
      "outputs": [],
      "payable": true,
      "stateMutability": "payable",
      "type": "function"
    },
    {
      "constant": false,
      "inputs": [
        {
          "name": "",
          "type": "address"
        },
        {
          "name": "repaymentAmount",
          "type": "uint256"
        },
        {
          "name": "loanId",
          "type": "uint256"
        }
      ],
      "name": "transferNotification",
      "outputs": [],
      "payable": false,
      "stateMutability": "nonpayable",
      "type": "function"
    },
    {
      "constant": false,
      "inputs": [
        {
          "name": "loanIds",
          "type": "uint256[]"
        }
      ],
      "name": "collect",
      "outputs": [],
      "payable": false,
      "stateMutability": "nonpayable",
      "type": "function"
    },
    {
      "constant": true,
      "inputs": [],
      "name": "getProductCount",
      "outputs": [
        {
          "name": "ct",
          "type": "uint256"
        }
      ],
      "payable": false,
      "stateMutability": "view",
      "type": "function"
    },
    {
      "constant": true,
      "inputs": [
        {
          "name": "offset",
          "type": "uint256"
        }
      ],
      "name": "getProducts",
      "outputs": [
        {
          "name": "response",
          "type": "uint256[7][100]"
        }
      ],
      "payable": false,
      "stateMutability": "view",
      "type": "function"
    },
    {
      "constant": true,
      "inputs": [],
      "name": "getLoanCount",
      "outputs": [
        {
          "name": "ct",
          "type": "uint256"
        }
      ],
      "payable": false,
      "stateMutability": "view",
      "type": "function"
    },
    {
      "constant": true,
      "inputs": [
        {
          "name": "offset",
          "type": "uint256"
        }
      ],
      "name": "getLoans",
      "outputs": [
        {
          "name": "response",
          "type": "uint256[10][100]"
        }
      ],
      "payable": false,
      "stateMutability": "view",
      "type": "function"
    },
    {
      "constant": true,
      "inputs": [
        {
          "name": "borrower",
          "type": "address"
        }
      ],
      "name": "getLoanCountForAddress",
      "outputs": [
        {
          "name": "",
          "type": "uint256"
        }
      ],
      "payable": false,
      "stateMutability": "view",
      "type": "function"
    },
    {
      "constant": true,
      "inputs": [
        {
          "name": "borrower",
          "type": "address"
        },
        {
          "name": "offset",
          "type": "uint256"
        }
      ],
      "name": "getLoansForAddress",
      "outputs": [
        {
          "name": "response",
          "type": "uint256[10][100]"
        }
      ],
      "payable": false,
      "stateMutability": "view",
      "type": "function"
    },
    {
      "constant": true,
      "inputs": [
        {
          "name": "loanId",
          "type": "uint256"
        }
      ],
      "name": "getLoanTuple",
      "outputs": [
        {
          "name": "result",
          "type": "uint256[10]"
        }
      ],
      "payable": false,
      "stateMutability": "view",
      "type": "function"
    }
  ],
  "bytecode": "0x6060604052341561000f57600080fd5b6040516080806130f48339810160405280805190602001909190805190602001909190805190602001909190805190602001909190505060016000803373ffffffffffffffffffffffffffffffffffffffff1673ffffffffffffffffffffffffffffffffffffffff16815260200190815260200160002060007f4d6f6e6574617279426f6172640000000000000000000000000000000000000060001916815260200190815260200160002060006101000a81548160ff0219169083151502179055503373ffffffffffffffffffffffffffffffffffffffff167fc65937e3dbcb9fb30f646815dd67a3dbd09ba17718cbcb54efbe3635f8e0a6fe60405180807f4d6f6e6574617279426f61726400000000000000000000000000000000000000815250602001905060405180910390a283600560006101000a81548173ffffffffffffffffffffffffffffffffffffffff021916908373ffffffffffffffffffffffffffffffffffffffff16021790555082600660006101000a81548173ffffffffffffffffffffffffffffffffffffffff021916908373ffffffffffffffffffffffffffffffffffffffff16021790555081600460006101000a81548173ffffffffffffffffffffffffffffffffffffffff021916908373ffffffffffffffffffffffffffffffffffffffff16021790555080600760006101000a81548173ffffffffffffffffffffffffffffffffffffffff021916908373ffffffffffffffffffffffffffffffffffffffff16021790555050505050612e9d806102576000396000f300606060405260043610610149576000357c0100000000000000000000000000000000000000000000000000000000900463ffffffff1680630aed3ca11461014e57806315f647fc146101d0578063169f66df146102045780632432282d1461025957806343f48fbd146102a6578063442d27dc146102fb5780634a348da91461035a578063521968121461038357806357f46cbe146103ac5780635b225526146103da5780635fcf0455146104385780635fe070131461048d57806360ad970d146104d357806364e7e4a414610574578063761004bd146105bf5780637acc0b20146106155780637b9b9c89146106a35780637ea46993146106f85780639ac3317b14610771578063c1c6d4e8146107ea578063d4849a8b14610854578063debad27f14610872578063e1ec3c68146108f4578063e91e13a9146109a2578063f38a8262146109d3575b600080fd5b341561015957600080fd5b61016f6004808035906020019091905050610a19565b604051808260646000925b818410156101c05782846020020151600a60200280838360005b838110156101af578082015181840152602081019050610194565b50505050905001926001019261017a565b9250505091505060405180910390f35b34156101db57600080fd5b610202600480803563ffffffff169060200190919080351515906020019091905050610a8d565b005b341561020f57600080fd5b610217610bb1565b604051808273ffffffffffffffffffffffffffffffffffffffff1673ffffffffffffffffffffffffffffffffffffffff16815260200191505060405180910390f35b341561026457600080fd5b610290600480803573ffffffffffffffffffffffffffffffffffffffff16906020019091905050610bd7565b6040518082815260200191505060405180910390f35b34156102b157600080fd5b6102b9610c23565b604051808273ffffffffffffffffffffffffffffffffffffffff1673ffffffffffffffffffffffffffffffffffffffff16815260200191505060405180910390f35b341561030657600080fd5b61031c6004808035906020019091905050610c49565b6040518082600a60200280838360005b8381101561034757808201518184015260208101905061032c565b5050505090500191505060405180910390f35b341561036557600080fd5b61036d610e4d565b6040518082815260200191505060405180910390f35b341561038e57600080fd5b610396610e5a565b6040518082815260200191505060405180910390f35b34156103b757600080fd5b6103d860048080359060200190820180359060200191909192905050610e67565b005b34156103e557600080fd5b61041e600480803573ffffffffffffffffffffffffffffffffffffffff16906020019091908035600019169060200190919050506115ab565b604051808215151515815260200191505060405180910390f35b341561044357600080fd5b61044b6115da565b604051808273ffffffffffffffffffffffffffffffffffffffff1673ffffffffffffffffffffffffffffffffffffffff16815260200191505060405180910390f35b341561049857600080fd5b6104d1600480803573ffffffffffffffffffffffffffffffffffffffff1690602001909190803560001916906020019091905050611600565b005b34156104de57600080fd5b610513600480803573ffffffffffffffffffffffffffffffffffffffff16906020019091908035906020019091905050611756565b604051808260646000925b818410156105645782846020020151600a60200280838360005b83811015610553578082015181840152602081019050610538565b50505050905001926001019261051e565b9250505091505060405180910390f35b341561057f57600080fd5b6105bd600480803573ffffffffffffffffffffffffffffffffffffffff16906020019091908035906020019091908035906020019091905050611827565b005b34156105ca57600080fd5b6105ff600480803573ffffffffffffffffffffffffffffffffffffffff16906020019091908035906020019091905050611892565b6040518082815260200191505060405180910390f35b341561062057600080fd5b61063660048080359060200190919050506118c3565b604051808781526020018663ffffffff1663ffffffff1681526020018563ffffffff1663ffffffff1681526020018463ffffffff1663ffffffff1681526020018363ffffffff1663ffffffff16815260200182151515158152602001965050505050505060405180910390f35b34156106ae57600080fd5b6106b661195b565b604051808273ffffffffffffffffffffffffffffffffffffffff1673ffffffffffffffffffffffffffffffffffffffff16815260200191505060405180910390f35b341561070357600080fd5b61076f600480803573ffffffffffffffffffffffffffffffffffffffff1690602001909190803590602001908201803590602001908080602002602001604051908101604052809392919081815260200183836020028082843782019150505050505091905050611981565b005b341561077c57600080fd5b6107e8600480803573ffffffffffffffffffffffffffffffffffffffff16906020019091908035906020019082018035906020019080806020026020016040519081016040528093929190818152602001838360200280828437820191505050505050919050506119c9565b005b34156107f557600080fd5b610852600480803563ffffffff1690602001909190803563ffffffff1690602001909190803563ffffffff1690602001909190803590602001909190803563ffffffff169060200190919080351515906020019091905050611a9d565b005b610870600480803563ffffffff16906020019091905050611cd3565b005b341561087d57600080fd5b6108936004808035906020019091905050612256565b604051808260646000925b818410156108e45782846020020151600760200280838360005b838110156108d35780820151818401526020810190506108b8565b50505050905001926001019261089e565b9250505091505060405180910390f35b34156108ff57600080fd5b61091560048080359060200190919050506123ab565b604051808781526020018681526020018573ffffffffffffffffffffffffffffffffffffffff1673ffffffffffffffffffffffffffffffffffffffff1681526020018463ffffffff1663ffffffff16815260200183600381111561097557fe5b60ff1681526020018264ffffffffff1664ffffffffff168152602001965050505050505060405180910390f35b34156109ad57600080fd5b6109b5612444565b604051808261ffff1661ffff16815260200191505060405180910390f35b34156109de57600080fd5b610a17600480803573ffffffffffffffffffffffffffffffffffffffff1690602001909190803560001916906020019091905050612449565b005b610a21612bb4565b60008090505b606461ffff168161ffff161015610a87576002805490508161ffff168401101515610a5157610a87565b610a608161ffff168401610c49565b828261ffff16606481101515610a7257fe5b60200201819052508080600101915050610a27565b50919050565b7f4d6f6e6574617279426f617264000000000000000000000000000000000000006000803373ffffffffffffffffffffffffffffffffffffffff1673ffffffffffffffffffffffffffffffffffffffff1681526020019081526020016000206000826000191660001916815260200190815260200160002060009054906101000a900460ff161515610b1e57600080fd5b600060018463ffffffff16815481101515610b3557fe5b906000526020600020906002020160010160106101000a81548160ff0219169083151502179055507ff686833114a6119b006ebfaf64ed31277c71b76a9855945de8d58f849bff68908383604051808363ffffffff1663ffffffff168152602001821515151581526020019250505060405180910390a1505050565b600660009054906101000a900473ffffffffffffffffffffffffffffffffffffffff1681565b6000600360008373ffffffffffffffffffffffffffffffffffffffff1673ffffffffffffffffffffffffffffffffffffffff168152602001908152602001600020805490509050919050565b600460009054906101000a900473ffffffffffffffffffffffffffffffffffffffff1681565b610c51612be3565b600080600080600080600288815481101515610c6957fe5b9060005260206000209060030201955060018660020160149054906101000a900463ffffffff1663ffffffff16815481101515610ca257fe5b90600052602060002090600202019450610cc085876001015461259f565b80945081955050508460010160009054906101000a900463ffffffff1663ffffffff168660020160199054906101000a900464ffffffffff160364ffffffffff16915060006003811115610d1057fe5b8660020160189054906101000a900460ff166003811115610d2d57fe5b148015610d5657508560020160199054906101000a900464ffffffffff1664ffffffffff164210155b610d71578560020160189054906101000a900460ff16610d74565b60025b90506101406040519081016040528089815260200187600001548152602001876001015481526020018760020160009054906101000a900473ffffffffffffffffffffffffffffffffffffffff1673ffffffffffffffffffffffffffffffffffffffff1681526020018760020160149054906101000a900463ffffffff1663ffffffff168152602001826003811115610e0957fe5b81526020018760020160199054906101000a900464ffffffffff1664ffffffffff168152602001838152602001858152602001848152509650505050505050919050565b6000600180549050905090565b6000600280549050905090565b60008060008060008060008060008060008098505b8c8c90508910156114175760028d8d8b8181101515610e9757fe5b90506020020135815481101515610eaa57fe5b9060005260206000209060030201975060006003811115610ec757fe5b8860020160189054906101000a900460ff166003811115610ee457fe5b141515610ef057600080fd5b8760020160199054906101000a900464ffffffffff1664ffffffffff164210151515610f1b57600080fd5b60018860020160149054906101000a900463ffffffff1663ffffffff16815481101515610f4457fe5b90600052602060002090600202019650610f6287896001015461259f565b5080965050610f7a868c61261190919063ffffffff16565b9a5060038860020160186101000a81548160ff02191690836003811115610f9d57fe5b0217905550610fe8620f4240610fda89600101600c9054906101000a900463ffffffff1663ffffffff168b6001015461263290919063ffffffff16565b61266890919063ffffffff16565b9450600460009054906101000a900473ffffffffffffffffffffffffffffffffffffffff1673ffffffffffffffffffffffffffffffffffffffff16635c481d8b600560009054906101000a900473ffffffffffffffffffffffffffffffffffffffff1673ffffffffffffffffffffffffffffffffffffffff166333a263e66040518163ffffffff167c0100000000000000000000000000000000000000000000000000000000028152600401602060405180830381600087803b15156110ad57600080fd5b5af115156110ba57600080fd5b50505060405180519050876040518363ffffffff167c010000000000000000000000000000000000000000000000000000000002815260040180836000191660001916815260200182815260200192505050602060405180830381600087803b151561112557600080fd5b5af1151561113257600080fd5b5050506040518051905093506112a684600460009054906101000a900473ffffffffffffffffffffffffffffffffffffffff1673ffffffffffffffffffffffffffffffffffffffff16635c481d8b600560009054906101000a900473ffffffffffffffffffffffffffffffffffffffff1673ffffffffffffffffffffffffffffffffffffffff166333a263e66040518163ffffffff167c0100000000000000000000000000000000000000000000000000000000028152600401602060405180830381600087803b151561120557600080fd5b5af1151561121257600080fd5b505050604051805190508c600101546040518363ffffffff167c010000000000000000000000000000000000000000000000000000000002815260040180836000191660001916815260200182815260200192505050602060405180830381600087803b151561128157600080fd5b5af1151561128e57600080fd5b5050506040518051905061261190919063ffffffff16565b92508760000154831015611332576112cb83896000015461268390919063ffffffff16565b91508760020160009054906101000a900473ffffffffffffffffffffffffffffffffffffffff1673ffffffffffffffffffffffffffffffffffffffff166108fc839081150290604051600060405180830381858888f19350505050151561133157600080fd5b5b61134982896000015461268390919063ffffffff16565b905080841115611357578093505b61136a818b61261190919063ffffffff16565b99508760020160009054906101000a900473ffffffffffffffffffffffffffffffffffffffff1673ffffffffffffffffffffffffffffffffffffffff167f328dba6669445381058bdb02ebe2ec93eb6f203f283073dee9b206720390f10b8e8e8c81811015156113d657fe5b905060200201358385886040518085815260200184815260200183815260200182815260200194505050505060405180910390a28880600101995050610e7c565b60008a11156114fc57600660009054906101000a900473ffffffffffffffffffffffffffffffffffffffff1673ffffffffffffffffffffffffffffffffffffffff1663fe1ebb046040518163ffffffff167c0100000000000000000000000000000000000000000000000000000000028152600401602060405180830381600087803b15156114a557600080fd5b5af115156114b257600080fd5b5050506040518051905073ffffffffffffffffffffffffffffffffffffffff166108fc8b9081150290604051600060405180830381858888f1935050505015156114fb57600080fd5b5b600660009054906101000a900473ffffffffffffffffffffffffffffffffffffffff1673ffffffffffffffffffffffffffffffffffffffff166358c316038c6040518263ffffffff167c010000000000000000000000000000000000000000000000000000000002815260040180828152602001915050600060405180830381600087803b151561158c57600080fd5b5af1151561159957600080fd5b50505050505050505050505050505050565b60006020528160005260406000206020528060005260406000206000915091509054906101000a900460ff1681565b600760009054906101000a900473ffffffffffffffffffffffffffffffffffffffff1681565b6000803373ffffffffffffffffffffffffffffffffffffffff1673ffffffffffffffffffffffffffffffffffffffff16815260200190815260200160002060007f4d6f6e6574617279426f6172640000000000000000000000000000000000000060001916815260200190815260200160002060009054906101000a900460ff16151561168c57600080fd5b60008060008473ffffffffffffffffffffffffffffffffffffffff1673ffffffffffffffffffffffffffffffffffffffff1681526020019081526020016000206000836000191660001916815260200190815260200160002060006101000a81548160ff0219169083151502179055508173ffffffffffffffffffffffffffffffffffffffff167f789770131846de4d1f28418f0f957cdf4fcabe5eccf70067083e20ecece69a348260405180826000191660001916815260200191505060405180910390a25050565b61175e612bb4565b600080600360008673ffffffffffffffffffffffffffffffffffffffff1673ffffffffffffffffffffffffffffffffffffffff1681526020019081526020016000209150600090505b606461ffff168161ffff16101561181f5781805490508161ffff1685011015156117d05761181f565b6117f8828261ffff1686018154811015156117e757fe5b906000526020600020900154610c49565b838261ffff1660648110151561180a57fe5b602002018190525080806001019150506117a7565b505092915050565b600560009054906101000a900473ffffffffffffffffffffffffffffffffffffffff1673ffffffffffffffffffffffffffffffffffffffff163373ffffffffffffffffffffffffffffffffffffffff1614151561188357600080fd5b61188d818361269f565b505050565b6003602052816000526040600020818154811015156118ad57fe5b9060005260206000209001600091509150505481565b6001818154811015156118d257fe5b90600052602060002090600202016000915090508060000154908060010160009054906101000a900463ffffffff16908060010160049054906101000a900463ffffffff16908060010160089054906101000a900463ffffffff169080600101600c9054906101000a900463ffffffff16908060010160109054906101000a900460ff16905086565b600560009054906101000a900473ffffffffffffffffffffffffffffffffffffffff1681565b60008082519150600090505b818110156119c3576119b68484838151811015156119a757fe5b90602001906020020151611600565b808060010191505061198d565b50505050565b6000806000803373ffffffffffffffffffffffffffffffffffffffff1673ffffffffffffffffffffffffffffffffffffffff16815260200190815260200160002060007f4d6f6e6574617279426f6172640000000000000000000000000000000000000060001916815260200190815260200160002060009054906101000a900460ff161515611a5857600080fd5b82519150600090505b81811015611a9757611a8a848483815181101515611a7b57fe5b90602001906020020151612449565b8080600101915050611a61565b50505050565b6000807f4d6f6e6574617279426f617264000000000000000000000000000000000000006000803373ffffffffffffffffffffffffffffffffffffffff1673ffffffffffffffffffffffffffffffffffffffff1681526020019081526020016000206000826000191660001916815260200190815260200160002060009054906101000a900460ff161515611b3157600080fd5b6001808054806001018281611b469190612c0c565b9160005260206000209060020201600060c0604051908101604052808b81526020018e63ffffffff1681526020018d63ffffffff1681526020018c63ffffffff1681526020018a63ffffffff16815260200189151581525090919091506000820151816000015560208201518160010160006101000a81548163ffffffff021916908363ffffffff16021790555060408201518160010160046101000a81548163ffffffff021916908363ffffffff16021790555060608201518160010160086101000a81548163ffffffff021916908363ffffffff160217905550608082015181600101600c6101000a81548163ffffffff021916908363ffffffff16021790555060a08201518160010160106101000a81548160ff0219169083151502179055505050039250829150828263ffffffff16141515611c8557600080fd5b7fccadd8a27b8a91830a26f7dd76f3acec14cd6bc7bfb79e91113ec547150d95f082604051808263ffffffff1663ffffffff16815260200191505060405180910390a1505050505050505050565b600080600080600080600060018863ffffffff16815481101515611cf357fe5b906000526020600020906002020196508660010160109054906101000a900460ff161515611d2057600080fd5b600460009054906101000a900473ffffffffffffffffffffffffffffffffffffffff1673ffffffffffffffffffffffffffffffffffffffff166382f5e31b600560009054906101000a900473ffffffffffffffffffffffffffffffffffffffff1673ffffffffffffffffffffffffffffffffffffffff166333a263e66040518163ffffffff167c0100000000000000000000000000000000000000000000000000000000028152600401602060405180830381600087803b1515611de357600080fd5b5af11515611df057600080fd5b50505060405180519050346040518363ffffffff167c010000000000000000000000000000000000000000000000000000000002815260040180836000191660001916815260200182815260200192505050602060405180830381600087803b1515611e5b57600080fd5b5af11515611e6857600080fd5b505050604051805190509550611eb6620f4240611ea88960010160089054906101000a900463ffffffff1663ffffffff168961263290919063ffffffff16565b61266890919063ffffffff16565b9450611ec2878661259f565b508094505086600001548410151515611eda57600080fd5b611f078760010160009054906101000a900463ffffffff1663ffffffff164261261190919063ffffffff16565b9250829150828264ffffffffff16141515611f2157600080fd5b600160028054806001018281611f379190612c3e565b9160005260206000209060030201600060c0604051908101604052803481526020018a81526020013373ffffffffffffffffffffffffffffffffffffffff1681526020018d63ffffffff16815260200160006003811115611f9457fe5b81526020018764ffffffffff168152509091909150600082015181600001556020820151816001015560408201518160020160006101000a81548173ffffffffffffffffffffffffffffffffffffffff021916908373ffffffffffffffffffffffffffffffffffffffff16021790555060608201518160020160146101000a81548163ffffffff021916908363ffffffff16021790555060808201518160020160186101000a81548160ff0219169083600381111561204f57fe5b021790555060a08201518160020160196101000a81548164ffffffffff021916908364ffffffffff1602179055505050039050600360003373ffffffffffffffffffffffffffffffffffffffff1673ffffffffffffffffffffffffffffffffffffffff16815260200190815260200160002080548060010182816120d39190612c70565b916000526020600020900160008390919091505550600660009054906101000a900473ffffffffffffffffffffffffffffffffffffffff1673ffffffffffffffffffffffffffffffffffffffff16631895687d33866040518363ffffffff167c0100000000000000000000000000000000000000000000000000000000028152600401808373ffffffffffffffffffffffffffffffffffffffff1673ffffffffffffffffffffffffffffffffffffffff16815260200182815260200192505050600060405180830381600087803b15156121ac57600080fd5b5af115156121b957600080fd5b5050503373ffffffffffffffffffffffffffffffffffffffff167f1f9972ec35a86b6ea1c3884c02fda9d8d0c5c14089a133610fed51c481b7e208898334888a88604051808763ffffffff1663ffffffff1681526020018681526020018581526020018481526020018381526020018264ffffffffff1664ffffffffff168152602001965050505050505060405180910390a25050505050505050565b61225e612c9c565b600080600091505b606461ffff168261ffff1610156123a4576001805490508261ffff168501101515612290576123a4565b60018261ffff1685018154811015156122a557fe5b9060005260206000209060020201905060e0604051908101604052808361ffff1686018152602001826000015481526020018260010160009054906101000a900463ffffffff1663ffffffff1681526020018260010160049054906101000a900463ffffffff1663ffffffff1681526020018260010160089054906101000a900463ffffffff1663ffffffff16815260200182600101600c9054906101000a900463ffffffff1663ffffffff1681526020018260010160109054906101000a900460ff16612374576000612377565b60015b60ff16815250838361ffff1660648110151561238f57fe5b60200201819052508180600101925050612266565b5050919050565b6002818154811015156123ba57fe5b90600052602060002090600302016000915090508060000154908060010154908060020160009054906101000a900473ffffffffffffffffffffffffffffffffffffffff16908060020160149054906101000a900463ffffffff16908060020160189054906101000a900460ff16908060020160199054906101000a900464ffffffffff16905086565b606481565b6000803373ffffffffffffffffffffffffffffffffffffffff1673ffffffffffffffffffffffffffffffffffffffff16815260200190815260200160002060007f4d6f6e6574617279426f6172640000000000000000000000000000000000000060001916815260200190815260200160002060009054906101000a900460ff1615156124d557600080fd5b60016000808473ffffffffffffffffffffffffffffffffffffffff1673ffffffffffffffffffffffffffffffffffffffff1681526020019081526020016000206000836000191660001916815260200190815260200160002060006101000a81548160ff0219169083151502179055508173ffffffffffffffffffffffffffffffffffffffff167fc65937e3dbcb9fb30f646815dd67a3dbd09ba17718cbcb54efbe3635f8e0a6fe8260405180826000191660001916815260200191505060405180910390a25050565b6000806125e4620f42406125d68660010160049054906101000a900463ffffffff1663ffffffff168661263290919063ffffffff16565b61266890919063ffffffff16565b915082821161260557612600828461268390919063ffffffff16565b612608565b60005b90509250929050565b600080828401905083811015151561262857600080fd5b8091505092915050565b60008082840290506000841480612653575082848281151561265057fe5b04145b151561265e57600080fd5b8091505092915050565b600080828481151561267657fe5b0490508091505092915050565b600082821115151561269457600080fd5b818303905092915050565b6000806000806002868154811015156126b457fe5b90600052602060002090600302019350600060038111156126d157fe5b8460020160189054906101000a900460ff1660038111156126ee57fe5b1415156126fa57600080fd5b83600101548514151561270c57600080fd5b8360020160199054906101000a900464ffffffffff1664ffffffffff16421115151561273757600080fd5b60018460020160149054906101000a900463ffffffff1663ffffffff1681548110151561276057fe5b9060005260206000209060020201925061277e83856001015461259f565b8092508193505050600160028781548110151561279757fe5b906000526020600020906003020160020160186101000a81548160ff021916908360038111156127c357fe5b0217905550600081111561297457600560009054906101000a900473ffffffffffffffffffffffffffffffffffffffff1673ffffffffffffffffffffffffffffffffffffffff1663a9059cbb600760009054906101000a900473ffffffffffffffffffffffffffffffffffffffff16836040518363ffffffff167c0100000000000000000000000000000000000000000000000000000000028152600401808373ffffffffffffffffffffffffffffffffffffffff1673ffffffffffffffffffffffffffffffffffffffff16815260200182815260200192505050602060405180830381600087803b15156128b757600080fd5b5af115156128c457600080fd5b5050506040518051905050600560009054906101000a900473ffffffffffffffffffffffffffffffffffffffff1673ffffffffffffffffffffffffffffffffffffffff166342966c68836040518263ffffffff167c010000000000000000000000000000000000000000000000000000000002815260040180828152602001915050600060405180830381600087803b151561295f57600080fd5b5af1151561296c57600080fd5b505050612a15565b600560009054906101000a900473ffffffffffffffffffffffffffffffffffffffff1673ffffffffffffffffffffffffffffffffffffffff166342966c68866040518263ffffffff167c010000000000000000000000000000000000000000000000000000000002815260040180828152602001915050600060405180830381600087803b1515612a0457600080fd5b5af11515612a1157600080fd5b5050505b600660009054906101000a900473ffffffffffffffffffffffffffffffffffffffff1673ffffffffffffffffffffffffffffffffffffffff16634cae5f99836040518263ffffffff167c010000000000000000000000000000000000000000000000000000000002815260040180828152602001915050600060405180830381600087803b1515612aa557600080fd5b5af11515612ab257600080fd5b5050508360020160009054906101000a900473ffffffffffffffffffffffffffffffffffffffff1673ffffffffffffffffffffffffffffffffffffffff166108fc85600001549081150290604051600060405180830381858888f193505050501515612b1d57600080fd5b7f0bc2fda5eb321ed5f7471e814a5c00752523b3ba8fbfeb905e1b8707eefa16c5868560020160009054906101000a900473ffffffffffffffffffffffffffffffffffffffff16604051808381526020018273ffffffffffffffffffffffffffffffffffffffff1673ffffffffffffffffffffffffffffffffffffffff1681526020019250505060405180910390a1505050505050565b617d00604051908101604052806064905b612bcd612ccb565b815260200190600190039081612bc55790505090565b61014060405190810160405280600a905b6000815260200190600190039081612bf45790505090565b815481835581811511612c3957600202816002028360005260206000209182019101612c389190612cf4565b5b505050565b815481835581811511612c6b57600302816003028360005260206000209182019101612c6a9190612d8b565b5b505050565b815481835581811511612c9757818360005260206000209182019101612c969190612e24565b5b505050565b615780604051908101604052806064905b612cb5612e49565b815260200190600190039081612cad5790505090565b61014060405190810160405280600a905b6000815260200190600190039081612cdc5790505090565b612d8891905b80821115612d84576000808201600090556001820160006101000a81549063ffffffff02191690556001820160046101000a81549063ffffffff02191690556001820160086101000a81549063ffffffff021916905560018201600c6101000a81549063ffffffff02191690556001820160106101000a81549060ff021916905550600201612cfa565b5090565b90565b612e2191905b80821115612e1d5760008082016000905560018201600090556002820160006101000a81549073ffffffffffffffffffffffffffffffffffffffff02191690556002820160146101000a81549063ffffffff02191690556002820160186101000a81549060ff02191690556002820160196101000a81549064ffffffffff021916905550600301612d91565b5090565b90565b612e4691905b80821115612e42576000816000905550600101612e2a565b5090565b90565b60e0604051908101604052806007905b6000815260200190600190039081612e5957905050905600a165627a7a723058202dad9aca457dc495e3b4d3211eec0f028eaa8652e52d6b7f348da490dd51495e0029",
  "source": "/*\n    Contract to manage Augmint token loan contracts backed by ETH\n    For flows see: https://github.com/Augmint/augmint-contracts/blob/master/docs/loanFlow.png\n\n    TODO:\n        - interestEarnedAccount setter?\n        - create MonetarySupervisor interface and use it instead?\n        - make data arg generic bytes?\n        - create and use InterestEarnedAccount interface instead?\n        - make collect() run as long as gas provided allows\n*/\npragma solidity 0.4.21;\n\nimport \"./Rates.sol\";\nimport \"./generic/Restricted.sol\";\nimport \"./generic/SafeMath.sol\";\nimport \"./interfaces/AugmintTokenInterface.sol\";\nimport \"./InterestEarnedAccount.sol\";\nimport \"./MonetarySupervisor.sol\";\n\n\ncontract LoanManager is Restricted {\n    using SafeMath for uint256;\n\n    uint16 public constant CHUNK_SIZE = 100;\n\n    enum LoanState { Open, Repaid, Defaulted, Collected } // NB: Defaulted state is not stored, only getters calculate\n\n    struct LoanProduct {\n        uint minDisbursedAmount; // 0: with decimals set in AugmintToken.decimals\n        uint32 term;            // 1\n        uint32 discountRate;    // 2: discountRate in parts per million , ie. 10,000 = 1%\n        uint32 collateralRatio; // 3: loan token amount / colleteral pegged ccy value\n                                //      in parts per million , ie. 10,000 = 1%\n        uint32 defaultingFeePt; // 4: % of collateral in parts per million , ie. 50,000 = 5%\n        bool isActive;          // 5\n    }\n\n    /* NB: we don't need to store loan parameters because loan products can't be altered (only disabled/enabled) */\n    struct LoanData {\n        uint collateralAmount; // 0\n        uint repaymentAmount; // 1\n        address borrower; // 2\n        uint32 productId; // 3\n        LoanState state; // 4\n        uint40 maturity; // 5\n    }\n\n    LoanProduct[] public products;\n\n    LoanData[] public loans;\n    mapping(address => uint[]) public accountLoans;  // owner account address =>  array of loan Ids\n\n    Rates public rates; // instance of ETH/pegged currency rate provider contract\n    AugmintTokenInterface public augmintToken; // instance of token contract\n    MonetarySupervisor public monetarySupervisor;\n    InterestEarnedAccount public interestEarnedAccount;\n\n    event NewLoan(uint32 productId, uint loanId, address indexed borrower, uint collateralAmount, uint loanAmount,\n        uint repaymentAmount, uint40 maturity);\n\n    event LoanProductActiveStateChanged(uint32 productId, bool newState);\n\n    event LoanProductAdded(uint32 productId);\n\n    event LoanRepayed(uint loanId, address borrower);\n\n    event LoanCollected(uint loanId, address indexed borrower, uint collectedCollateral,\n        uint releasedCollateral, uint defaultingFee);\n\n    function LoanManager(AugmintTokenInterface _augmintToken, MonetarySupervisor _monetarySupervisor, Rates _rates,\n                            InterestEarnedAccount _interestEarnedAccount)\n    public {\n        augmintToken = _augmintToken;\n        monetarySupervisor = _monetarySupervisor;\n        rates = _rates;\n        interestEarnedAccount = _interestEarnedAccount;\n    }\n\n    function addLoanProduct(uint32 term, uint32 discountRate, uint32 collateralRatio, uint minDisbursedAmount,\n                                uint32 defaultingFeePt, bool isActive)\n    external restrict(\"MonetaryBoard\") {\n\n        uint _newProductId = products.push(\n            LoanProduct(minDisbursedAmount, term, discountRate, collateralRatio, defaultingFeePt, isActive)\n        ) - 1;\n\n        uint32 newProductId = uint32(_newProductId);\n        require(newProductId == _newProductId);\n\n        emit LoanProductAdded(newProductId);\n    }\n\n    function setLoanProductActiveState(uint32 productId, bool newState)\n    external restrict (\"MonetaryBoard\") {\n        products[productId].isActive = false;\n        emit LoanProductActiveStateChanged(productId, newState);\n    }\n\n    function newEthBackedLoan(uint32 productId) external payable {\n        LoanProduct storage product = products[productId];\n        require(product.isActive); // valid productId?\n\n        // calculate loan values based on ETH sent in with Tx\n        uint tokenValue = rates.convertFromWei(augmintToken.peggedSymbol(), msg.value);\n        uint repaymentAmount = tokenValue.mul(product.collateralRatio).div(1000000);\n\n        uint loanAmount;\n        (loanAmount, ) = calculateLoanValues(product, repaymentAmount);\n\n        require(loanAmount >= product.minDisbursedAmount);\n\n        uint expiration = now.add(product.term);\n        uint40 maturity = uint40(expiration);\n        require(maturity == expiration);\n\n        // Create new loan\n        uint loanId = loans.push(LoanData(msg.value, repaymentAmount, msg.sender,\n                                            productId, LoanState.Open, maturity)) - 1;\n\n        // Store ref to new loan\n        accountLoans[msg.sender].push(loanId);\n\n        // Issue tokens and send to borrower\n        monetarySupervisor.issueLoan(msg.sender, loanAmount);\n\n        emit NewLoan(productId, loanId, msg.sender, msg.value, loanAmount, repaymentAmount, maturity);\n    }\n\n    /* repay loan, called from AugmintToken's transferAndNotify\n     Flow for repaying loan:\n        1) user calls token contract's transferAndNotify loanId passed in data arg\n        2) transferAndNotify transfers tokens to the Lender contract\n        3) transferAndNotify calls Lender.transferNotification with lockProductId\n    */\n    // from arg is not used as we allow anyone to repay a loan:\n    function transferNotification(address, uint repaymentAmount, uint loanId) external {\n        require(msg.sender == address(augmintToken));\n        _repayLoan(loanId, repaymentAmount);\n    }\n\n    function collect(uint[] loanIds) external {\n        /* when there are a lots of loans to be collected then\n             the client need to call it in batches to make sure tx won't exceed block gas limit.\n         Anyone can call it - can't cause harm as it only allows to collect loans which they are defaulted\n         TODO: optimise defaulting fee calculations\n        */\n        uint totalLoanAmountCollected;\n        uint totalCollateralToCollect;\n        for (uint i = 0; i < loanIds.length; i++) {\n            LoanData storage loan = loans[loanIds[i]];\n            require(loan.state == LoanState.Open);\n            require(now >= loan.maturity);\n            LoanProduct storage product = products[loan.productId];\n\n            uint loanAmount;\n            (loanAmount, ) = calculateLoanValues(product, loan.repaymentAmount);\n\n            totalLoanAmountCollected = totalLoanAmountCollected.add(loanAmount);\n\n            loan.state = LoanState.Collected;\n\n            // send ETH collateral to augmintToken reserve\n            uint defaultingFeeInToken = loan.repaymentAmount.mul(product.defaultingFeePt).div(1000000);\n            uint defaultingFee = rates.convertToWei(augmintToken.peggedSymbol(), defaultingFeeInToken);\n            uint targetCollection = rates.convertToWei(augmintToken.peggedSymbol(),\n                                                            loan.repaymentAmount).add(defaultingFee);\n\n            uint releasedCollateral;\n            if (targetCollection < loan.collateralAmount) {\n                releasedCollateral = loan.collateralAmount.sub(targetCollection);\n                loan.borrower.transfer(releasedCollateral);\n            }\n            uint collateralToCollect = loan.collateralAmount.sub(releasedCollateral);\n            if (defaultingFee > collateralToCollect) {\n                defaultingFee = collateralToCollect;\n            }\n\n            totalCollateralToCollect = totalCollateralToCollect.add(collateralToCollect);\n\n            emit LoanCollected(loanIds[i], loan.borrower, collateralToCollect, releasedCollateral, defaultingFee);\n        }\n\n        if (totalCollateralToCollect > 0) {\n            address(monetarySupervisor.augmintReserves()).transfer(totalCollateralToCollect);\n        }\n\n        monetarySupervisor.loanCollectionNotification(totalLoanAmountCollected);// update KPIs\n\n    }\n\n    function getProductCount() external view returns (uint ct) {\n        return products.length;\n    }\n\n    // returns CHUNK_SIZE loan products starting from some offset:\n    // [ productId, minDisbursedAmount, term, discountRate, collateralRatio, defaultingFeePt, isActive ]\n    function getProducts(uint offset) external view returns (uint[7][CHUNK_SIZE] response) {\n        for (uint16 i = 0; i < CHUNK_SIZE; i++) {\n\n            if (offset + i >= products.length) { break; }\n\n            LoanProduct storage product = products[offset + i];\n\n            response[i] = [offset + i, product.minDisbursedAmount, product.term, product.discountRate,\n                                product.collateralRatio, product.defaultingFeePt, product.isActive ? 1 : 0 ];\n        }\n    }\n\n    function getLoanCount() external view returns (uint ct) {\n        return loans.length;\n    }\n\n    /* returns CHUNK_SIZE loans starting from some offset. Loans data encoded as:\n        [loanId, collateralAmount, repaymentAmount, borrower, productId, state, maturity, disbursementTime,\n                                                                                    loanAmount, interestAmount ]   */\n    function getLoans(uint offset) external view returns (uint[10][CHUNK_SIZE] response) {\n\n        for (uint16 i = 0; i < CHUNK_SIZE; i++) {\n\n            if (offset + i >= loans.length) { break; }\n\n            response[i] = getLoanTuple(offset + i);\n        }\n    }\n\n    function getLoanCountForAddress(address borrower) external view returns (uint) {\n        return accountLoans[borrower].length;\n    }\n\n    /* returns CHUNK_SIZE loans of a given account, starting from some offset. Loans data encoded as:\n        [loanId, collateralAmount, repaymentAmount, borrower, productId, state, maturity, disbursementTime,\n                                                                                    loanAmount, interestAmount ] */\n    function getLoansForAddress(address borrower, uint offset) external view returns (uint[10][CHUNK_SIZE] response) {\n\n        uint[] storage loansForAddress = accountLoans[borrower];\n\n        for (uint16 i = 0; i < CHUNK_SIZE; i++) {\n\n            if (offset + i >= loansForAddress.length) { break; }\n\n            response[i] = getLoanTuple(loansForAddress[offset + i]);\n        }\n    }\n\n    function getLoanTuple(uint loanId) public view returns (uint[10] result) {\n        LoanData storage loan = loans[loanId];\n        LoanProduct storage product = products[loan.productId];\n\n        uint loanAmount;\n        uint interestAmount;\n        (loanAmount, interestAmount) = calculateLoanValues(product, loan.repaymentAmount);\n        uint disbursementTime = loan.maturity - product.term;\n\n        LoanState loanState =\n                        loan.state == LoanState.Open && now >= loan.maturity ? LoanState.Defaulted : loan.state;\n\n        result = [loanId, loan.collateralAmount, loan.repaymentAmount, uint(loan.borrower),\n                    loan.productId, uint(loanState), loan.maturity, disbursementTime, loanAmount, interestAmount];\n    }\n\n    function calculateLoanValues(LoanProduct storage product, uint repaymentAmount)\n    internal view returns (uint loanAmount, uint interestAmount) {\n        // calculate loan values based on repayment amount\n        loanAmount = repaymentAmount.mul(product.discountRate).div(1000000);\n        interestAmount = loanAmount > repaymentAmount ? 0 : repaymentAmount.sub(loanAmount);\n    }\n\n    /* internal function, assuming repayment amount already transfered  */\n    function _repayLoan(uint loanId, uint repaymentAmount) internal {\n        LoanData storage loan = loans[loanId];\n        require(loan.state == LoanState.Open);\n        require(repaymentAmount == loan.repaymentAmount);\n        require(now <= loan.maturity);\n\n        LoanProduct storage product = products[loan.productId];\n        uint loanAmount;\n        uint interestAmount;\n        (loanAmount, interestAmount) = calculateLoanValues(product, loan.repaymentAmount);\n\n        loans[loanId].state = LoanState.Repaid;\n\n        if (interestAmount > 0) {\n            augmintToken.transfer(interestEarnedAccount, interestAmount);\n            augmintToken.burn(loanAmount);\n        } else {\n            // negative or zero interest (i.e. discountRate >= 0)\n            augmintToken.burn(repaymentAmount);\n        }\n\n        monetarySupervisor.loanRepaymentNotification(loanAmount); // update KPIs\n\n        loan.borrower.transfer(loan.collateralAmount); // send back ETH collateral\n\n        emit LoanRepayed(loanId, loan.borrower);\n    }\n\n}\n",
  "sourcePath": "/Users/petro/ether/augmint-contracts/contracts/LoanManager.sol",
  "compiler": {
    "name": "solc",
    "version": "0.4.21+commit.dfe3193c.Emscripten.clang"
  },
  "schemaVersion": "2.0.0",
  "updatedAt": "2018-04-03T11:22:47.487Z"
}