{
  "contractName": "LoanManager",
  "abi": [
    {
      "constant": false,
      "inputs": [
        {
          "name": "agent",
          "type": "address"
        },
        {
          "name": "requiredPermissions",
          "type": "bytes32[]"
        }
      ],
      "name": "revokeMulitplePermissions",
      "outputs": [],
      "payable": false,
      "stateMutability": "nonpayable",
      "type": "function"
    },
    {
      "constant": false,
      "inputs": [
        {
          "name": "productId",
          "type": "uint8"
        }
      ],
      "name": "newEthBackedLoan",
      "outputs": [],
      "payable": true,
      "stateMutability": "payable",
      "type": "function"
    },
    {
      "constant": false,
      "inputs": [
        {
          "name": "_term",
          "type": "uint256"
        },
        {
          "name": "_discountRate",
          "type": "uint256"
        },
        {
          "name": "_collateralRatio",
          "type": "uint256"
        },
        {
          "name": "_minDisbursedAmount",
          "type": "uint256"
        },
        {
          "name": "_defaultingFee",
          "type": "uint256"
        },
        {
          "name": "_isActive",
          "type": "bool"
        }
      ],
      "name": "addLoanProduct",
      "outputs": [
        {
          "name": "newProductId",
          "type": "uint256"
        }
      ],
      "payable": false,
      "stateMutability": "nonpayable",
      "type": "function"
    },
    {
      "constant": false,
      "inputs": [
        {
          "name": "loanId",
          "type": "uint256"
        }
      ],
      "name": "releaseCollateral",
      "outputs": [],
      "payable": false,
      "stateMutability": "nonpayable",
      "type": "function"
    },
    {
      "constant": true,
      "inputs": [],
      "name": "rates",
      "outputs": [
        {
          "name": "",
          "type": "address"
        }
      ],
      "payable": false,
      "stateMutability": "view",
      "type": "function"
    },
    {
      "constant": true,
      "inputs": [],
      "name": "getProductCount",
      "outputs": [
        {
          "name": "ct",
          "type": "uint256"
        }
      ],
      "payable": false,
      "stateMutability": "view",
      "type": "function"
    },
    {
      "constant": true,
      "inputs": [],
      "name": "getLoanCount",
      "outputs": [
        {
          "name": "ct",
          "type": "uint256"
        }
      ],
      "payable": false,
      "stateMutability": "view",
      "type": "function"
    },
    {
      "constant": false,
      "inputs": [
        {
          "name": "loanIds",
          "type": "uint256[]"
        }
      ],
      "name": "collect",
      "outputs": [],
      "payable": false,
      "stateMutability": "nonpayable",
      "type": "function"
    },
    {
      "constant": true,
      "inputs": [
        {
          "name": "",
          "type": "address"
        },
        {
          "name": "",
          "type": "bytes32"
        }
      ],
      "name": "permissions",
      "outputs": [
        {
          "name": "",
          "type": "bool"
        }
      ],
      "payable": false,
      "stateMutability": "view",
      "type": "function"
    },
    {
      "constant": false,
      "inputs": [
        {
          "name": "agent",
          "type": "address"
        },
        {
          "name": "requiredPermission",
          "type": "bytes32"
        }
      ],
      "name": "revokePermission",
      "outputs": [],
      "payable": false,
      "stateMutability": "nonpayable",
      "type": "function"
    },
    {
      "constant": true,
      "inputs": [
        {
          "name": "borrower",
          "type": "address"
        }
      ],
      "name": "getLoanIds",
      "outputs": [
        {
          "name": "loans",
          "type": "uint256[]"
        }
      ],
      "payable": false,
      "stateMutability": "view",
      "type": "function"
    },
    {
      "constant": true,
      "inputs": [
        {
          "name": "",
          "type": "uint256"
        }
      ],
      "name": "products",
      "outputs": [
        {
          "name": "term",
          "type": "uint256"
        },
        {
          "name": "discountRate",
          "type": "uint256"
        },
        {
          "name": "collateralRatio",
          "type": "uint256"
        },
        {
          "name": "minDisbursedAmount",
          "type": "uint256"
        },
        {
          "name": "defaultingFeePt",
          "type": "uint256"
        },
        {
          "name": "isActive",
          "type": "bool"
        }
      ],
      "payable": false,
      "stateMutability": "view",
      "type": "function"
    },
    {
      "constant": true,
      "inputs": [],
      "name": "augmintToken",
      "outputs": [
        {
          "name": "",
          "type": "address"
        }
      ],
      "payable": false,
      "stateMutability": "view",
      "type": "function"
    },
    {
      "constant": false,
      "inputs": [
        {
          "name": "productId",
          "type": "uint8"
        },
        {
          "name": "newState",
          "type": "bool"
        }
      ],
      "name": "setLoanProductActiveState",
      "outputs": [],
      "payable": false,
      "stateMutability": "nonpayable",
      "type": "function"
    },
    {
      "constant": true,
      "inputs": [],
      "name": "owner",
      "outputs": [
        {
          "name": "",
          "type": "address"
        }
      ],
      "payable": false,
      "stateMutability": "view",
      "type": "function"
    },
    {
      "constant": false,
      "inputs": [
        {
          "name": "agent",
          "type": "address"
        },
        {
          "name": "requiredPermissions",
          "type": "bytes32[]"
        }
      ],
      "name": "grantMultiplePermissions",
      "outputs": [],
      "payable": false,
      "stateMutability": "nonpayable",
      "type": "function"
    },
    {
      "constant": true,
      "inputs": [
        {
          "name": "",
          "type": "address"
        },
        {
          "name": "",
          "type": "uint256"
        }
      ],
      "name": "mLoans",
      "outputs": [
        {
          "name": "",
          "type": "uint256"
        }
      ],
      "payable": false,
      "stateMutability": "view",
      "type": "function"
    },
    {
      "constant": true,
      "inputs": [
        {
          "name": "",
          "type": "uint256"
        }
      ],
      "name": "loans",
      "outputs": [
        {
          "name": "borrower",
          "type": "address"
        },
        {
          "name": "state",
          "type": "uint8"
        },
        {
          "name": "collateralAmount",
          "type": "uint256"
        },
        {
          "name": "repaymentAmount",
          "type": "uint256"
        },
        {
          "name": "loanAmount",
          "type": "uint256"
        },
        {
          "name": "interestAmount",
          "type": "uint256"
        },
        {
          "name": "term",
          "type": "uint256"
        },
        {
          "name": "disbursementDate",
          "type": "uint256"
        },
        {
          "name": "maturity",
          "type": "uint256"
        },
        {
          "name": "defaultingFeePt",
          "type": "uint256"
        }
      ],
      "payable": false,
      "stateMutability": "view",
      "type": "function"
    },
    {
      "constant": false,
      "inputs": [
        {
          "name": "newOwner",
          "type": "address"
        }
      ],
      "name": "transferOwnership",
      "outputs": [],
      "payable": false,
      "stateMutability": "nonpayable",
      "type": "function"
    },
    {
      "constant": false,
      "inputs": [
        {
          "name": "agent",
          "type": "address"
        },
        {
          "name": "requiredPermission",
          "type": "bytes32"
        }
      ],
      "name": "grantPermission",
      "outputs": [],
      "payable": false,
      "stateMutability": "nonpayable",
      "type": "function"
    },
    {
      "inputs": [
        {
          "name": "_augmintTokenAddress",
          "type": "address"
        },
        {
          "name": "_ratesAddress",
          "type": "address"
        }
      ],
      "payable": false,
      "stateMutability": "nonpayable",
      "type": "constructor"
    },
    {
      "anonymous": false,
      "inputs": [
        {
          "indexed": false,
          "name": "productId",
          "type": "uint256"
        },
        {
          "indexed": false,
          "name": "loanId",
          "type": "uint256"
        },
        {
          "indexed": false,
          "name": "borrower",
          "type": "address"
        },
        {
          "indexed": false,
          "name": "collateralAmount",
          "type": "uint256"
        },
        {
          "indexed": false,
          "name": "loanAmount",
          "type": "uint256"
        },
        {
          "indexed": false,
          "name": "repaymentAmount",
          "type": "uint256"
        }
      ],
      "name": "NewLoan",
      "type": "event"
    },
    {
      "anonymous": false,
      "inputs": [
        {
          "indexed": false,
          "name": "productId",
          "type": "uint256"
        },
        {
          "indexed": false,
          "name": "newState",
          "type": "bool"
        }
      ],
      "name": "LoanProductActiveStateChanged",
      "type": "event"
    },
    {
      "anonymous": false,
      "inputs": [
        {
          "indexed": false,
          "name": "productId",
          "type": "uint256"
        }
      ],
      "name": "LoanProductAdded",
      "type": "event"
    },
    {
      "anonymous": false,
      "inputs": [
        {
          "indexed": false,
          "name": "loanId",
          "type": "uint256"
        },
        {
          "indexed": false,
          "name": "borrower",
          "type": "address"
        }
      ],
      "name": "LoanRepayed",
      "type": "event"
    },
    {
      "anonymous": false,
      "inputs": [
        {
          "indexed": true,
          "name": "loanId",
          "type": "uint256"
        },
        {
          "indexed": true,
          "name": "borrower",
          "type": "address"
        },
        {
          "indexed": false,
          "name": "collectedCollateral",
          "type": "uint256"
        },
        {
          "indexed": false,
          "name": "releasedCollateral",
          "type": "uint256"
        },
        {
          "indexed": false,
          "name": "defaultingFee",
          "type": "uint256"
        }
      ],
      "name": "LoanCollected",
      "type": "event"
    },
    {
      "anonymous": false,
      "inputs": [
        {
          "indexed": true,
          "name": "agent",
          "type": "address"
        },
        {
          "indexed": false,
          "name": "grantedPermission",
          "type": "bytes32"
        }
      ],
      "name": "PermissionGranted",
      "type": "event"
    },
    {
      "anonymous": false,
      "inputs": [
        {
          "indexed": true,
          "name": "agent",
          "type": "address"
        },
        {
          "indexed": false,
          "name": "revokedPermission",
          "type": "bytes32"
        }
      ],
      "name": "PermissionRevoked",
      "type": "event"
    },
    {
      "anonymous": false,
      "inputs": [
        {
          "indexed": true,
          "name": "oldOwner",
          "type": "address"
        },
        {
          "indexed": true,
          "name": "newOwner",
          "type": "address"
        }
      ],
      "name": "NewOwner",
      "type": "event"
    }
  ],
  "bytecode": "0x6060604052341561000f57600080fd5b60405160408061257283398101604052808051906020019091908051906020019091905050600073ffffffffffffffffffffffffffffffffffffffff166000809054906101000a900473ffffffffffffffffffffffffffffffffffffffff1673ffffffffffffffffffffffffffffffffffffffff1614151561009057600080fd5b336000806101000a81548173ffffffffffffffffffffffffffffffffffffffff021916908373ffffffffffffffffffffffffffffffffffffffff16021790555081600660006101000a81548173ffffffffffffffffffffffffffffffffffffffff021916908373ffffffffffffffffffffffffffffffffffffffff16021790555080600560006101000a81548173ffffffffffffffffffffffffffffffffffffffff021916908373ffffffffffffffffffffffffffffffffffffffff160217905550505061240f806101636000396000f300606060405260043610610112576000357c0100000000000000000000000000000000000000000000000000000000900463ffffffff1680630da32eaa146101175780631509c8cf14610190578063172676a9146101ab57806339007b771461021157806343f48fbd146102345780634a348da91461028957806352196812146102b257806357f46cbe146102db5780635b225526146103095780635fe07013146103675780636b64c885146103ad5780637acc0b201461043b5780637b9b9c89146104995780637dbbc2bc146104ee5780638da5cb5b1461051f5780639ac3317b146105745780639f4780b0146105ed578063e1ec3c6814610643578063f2fde38b146106f3578063f38a82621461072c575b600080fd5b341561012257600080fd5b61018e600480803573ffffffffffffffffffffffffffffffffffffffff1690602001909190803590602001908201803590602001908080602002602001604051908101604052809392919081815260200183836020028082843782019150505050505091905050610772565b005b6101a9600480803560ff16906020019091905050610815565b005b34156101b657600080fd5b6101fb60048080359060200190919080359060200190919080359060200190919080359060200190919080359060200190919080351515906020019091905050610eec565b6040518082815260200191505060405180910390f35b341561021c57600080fd5b6102326004808035906020019091905050611076565b005b341561023f57600080fd5b6102476112e3565b604051808273ffffffffffffffffffffffffffffffffffffffff1673ffffffffffffffffffffffffffffffffffffffff16815260200191505060405180910390f35b341561029457600080fd5b61029c611309565b6040518082815260200191505060405180910390f35b34156102bd57600080fd5b6102c5611316565b6040518082815260200191505060405180910390f35b34156102e657600080fd5b61030760048080359060200190820180359060200191909192905050611323565b005b341561031457600080fd5b61034d600480803573ffffffffffffffffffffffffffffffffffffffff16906020019091908035600019169060200190919050506119c6565b604051808215151515815260200191505060405180910390f35b341561037257600080fd5b6103ab600480803573ffffffffffffffffffffffffffffffffffffffff16906020019091908035600019169060200190919050506119f5565b005b34156103b857600080fd5b6103e4600480803573ffffffffffffffffffffffffffffffffffffffff16906020019091905050611b1b565b6040518080602001828103825283818151815260200191508051906020019060200280838360005b8381101561042757808201518184015260208101905061040c565b505050509050019250505060405180910390f35b341561044657600080fd5b61045c6004808035906020019091905050611bb8565b6040518087815260200186815260200185815260200184815260200183815260200182151515158152602001965050505050505060405180910390f35b34156104a457600080fd5b6104ac611c10565b604051808273ffffffffffffffffffffffffffffffffffffffff1673ffffffffffffffffffffffffffffffffffffffff16815260200191505060405180910390f35b34156104f957600080fd5b61051d600480803560ff169060200190919080351515906020019091905050611c36565b005b341561052a57600080fd5b610532611d4f565b604051808273ffffffffffffffffffffffffffffffffffffffff1673ffffffffffffffffffffffffffffffffffffffff16815260200191505060405180910390f35b341561057f57600080fd5b6105eb600480803573ffffffffffffffffffffffffffffffffffffffff1690602001909190803590602001908201803590602001908080602002602001604051908101604052809392919081815260200183836020028082843782019150505050505091905050611d74565b005b34156105f857600080fd5b61062d600480803573ffffffffffffffffffffffffffffffffffffffff16906020019091908035906020019091905050611e17565b6040518082815260200191505060405180910390f35b341561064e57600080fd5b6106646004808035906020019091905050611e48565b604051808b73ffffffffffffffffffffffffffffffffffffffff1673ffffffffffffffffffffffffffffffffffffffff1681526020018a60028111156106a657fe5b60ff1681526020018981526020018881526020018781526020018681526020018581526020018481526020018381526020018281526020019a505050505050505050505060405180910390f35b34156106fe57600080fd5b61072a600480803573ffffffffffffffffffffffffffffffffffffffff16906020019091905050611ed8565b005b341561073757600080fd5b610770600480803573ffffffffffffffffffffffffffffffffffffffff169060200190919080356000191690602001909190505061202d565b005b6000806000809054906101000a900473ffffffffffffffffffffffffffffffffffffffff1673ffffffffffffffffffffffffffffffffffffffff163373ffffffffffffffffffffffffffffffffffffffff161415156107d057600080fd5b82519150600090505b8181101561080f576108028484838151811015156107f357fe5b906020019060200201516119f5565b80806001019150506107d9565b50505050565b60008060008060008060018760ff1681548110151561083057fe5b906000526020600020906006020160050160009054906101000a900460ff16151561085a57600080fd5b600560009054906101000a900473ffffffffffffffffffffffffffffffffffffffff1673ffffffffffffffffffffffffffffffffffffffff166382f5e31b600660009054906101000a900473ffffffffffffffffffffffffffffffffffffffff1673ffffffffffffffffffffffffffffffffffffffff166333a263e66000604051602001526040518163ffffffff167c0100000000000000000000000000000000000000000000000000000000028152600401602060405180830381600087803b151561092657600080fd5b6102c65a03f1151561093757600080fd5b50505060405180519050346000604051602001526040518363ffffffff167c010000000000000000000000000000000000000000000000000000000002815260040180836000191660001916815260200182815260200192505050602060405180830381600087803b15156109ab57600080fd5b6102c65a03f115156109bc57600080fd5b505050604051805190509550610a146305f5e100610a0660018a60ff168154811015156109e557fe5b9060005260206000209060060201600201548961215390919063ffffffff16565b61218990919063ffffffff16565b9450606485029450620f4240610a7960018960ff16815481101515610a3557fe5b90600052602060002090600602016001015460018a60ff16815481101515610a5957fe5b90600052602060002090600602016002015461215390919063ffffffff16565b811515610a8257fe5b049350610aae6305f5e100610aa0868961215390919063ffffffff16565b61218990919063ffffffff16565b925060648302925060018760ff16815481101515610ac857fe5b9060005260206000209060060201600301548310151515610ae857600080fd5b600160028054806001018281610afe9190612225565b91600052602060002090600902016000610140604051908101604052803373ffffffffffffffffffffffffffffffffffffffff16815260200160006002811115610b4457fe5b81526020013481526020018a8152602001888152602001610b6e898c6121cd90919063ffffffff16565b815260200160018d60ff16815481101515610b8557fe5b906000526020600020906006020160000154815260200142815260200160018d60ff16815481101515610bb457fe5b9060005260206000209060060201600001544201815260200160018d60ff16815481101515610bdf57fe5b906000526020600020906006020160040154815250909190915060008201518160000160006101000a81548173ffffffffffffffffffffffffffffffffffffffff021916908373ffffffffffffffffffffffffffffffffffffffff16021790555060208201518160000160146101000a81548160ff02191690836002811115610c6457fe5b021790555060408201518160010155606082015181600201556080820151816003015560a0820151816004015560c0820151816005015560e08201518160060155610100820151816007015561012082015181600801555050039150600360003373ffffffffffffffffffffffffffffffffffffffff1673ffffffffffffffffffffffffffffffffffffffff1681526020019081526020016000208054806001018281610d119190612257565b91600052602060002090016000849091909150555082851115610d4457610d4183866121cd90919063ffffffff16565b90505b600660009054906101000a900473ffffffffffffffffffffffffffffffffffffffff1673ffffffffffffffffffffffffffffffffffffffff1663c9a3249933856040518363ffffffff167c0100000000000000000000000000000000000000000000000000000000028152600401808373ffffffffffffffffffffffffffffffffffffffff1673ffffffffffffffffffffffffffffffffffffffff16815260200182815260200180602001828103825260118152602001807f4c6f616e2064697362757273656d656e740000000000000000000000000000008152506020019350505050600060405180830381600087803b1515610e4157600080fd5b6102c65a03f11515610e5257600080fd5b5050507f2a8897a779aeb52af2c0d0d98a731e5346c03bd447d0743dc37543d119341a8a87833334878a604051808760ff1681526020018681526020018573ffffffffffffffffffffffffffffffffffffffff1673ffffffffffffffffffffffffffffffffffffffff168152602001848152602001838152602001828152602001965050505050505060405180910390a150505050505050565b60007f6164644c6f616e50726f64756374000000000000000000000000000000000000600460003373ffffffffffffffffffffffffffffffffffffffff1673ffffffffffffffffffffffffffffffffffffffff1681526020019081526020016000206000826000191660001916815260200190815260200160002060009054906101000a900460ff161515610f8057600080fd5b6001808054806001018281610f959190612283565b9160005260206000209060060201600060c0604051908101604052808d81526020018c81526020018b81526020018a81526020018981526020018815158152509091909150600082015181600001556020820151816001015560408201518160020155606082015181600301556080820151816004015560a08201518160050160006101000a81548160ff02191690831515021790555050500391507f8aaf15a3416b8ef4e80d82317d5955a3f3a244a77e9c6ccc0cbb4c19dc3e811b826040518082815260200191505060405180910390a1819150509695505050505050565b600660009054906101000a900473ffffffffffffffffffffffffffffffffffffffff1673ffffffffffffffffffffffffffffffffffffffff163373ffffffffffffffffffffffffffffffffffffffff161415156110d257600080fd5b600060028111156110df57fe5b6002828154811015156110ee57fe5b906000526020600020906009020160000160149054906101000a900460ff16600281111561111857fe5b14151561112457600080fd5b60028181548110151561113357fe5b906000526020600020906009020160070154421115151561115357600080fd5b600160028281548110151561116457fe5b906000526020600020906009020160000160146101000a81548160ff0219169083600281111561119057fe5b02179055506002818154811015156111a457fe5b906000526020600020906009020160000160009054906101000a900473ffffffffffffffffffffffffffffffffffffffff1673ffffffffffffffffffffffffffffffffffffffff166108fc6002838154811015156111fe57fe5b9060005260206000209060090201600101549081150290604051600060405180830381858888f19350505050151561123557600080fd5b7f0bc2fda5eb321ed5f7471e814a5c00752523b3ba8fbfeb905e1b8707eefa16c58160028381548110151561126657fe5b906000526020600020906009020160000160009054906101000a900473ffffffffffffffffffffffffffffffffffffffff16604051808381526020018273ffffffffffffffffffffffffffffffffffffffff1673ffffffffffffffffffffffffffffffffffffffff1681526020019250505060405180910390a150565b600560009054906101000a900473ffffffffffffffffffffffffffffffffffffffff1681565b6000600180549050905090565b6000600280549050905090565b60008060008060008060008096505b888890508710156119bb57888888818110151561134b57fe5b9050602002013595506000600281111561136157fe5b60028781548110151561137057fe5b906000526020600020906009020160000160149054906101000a900460ff16600281111561139a57fe5b1415156113a657600080fd5b6002868154811015156113b557fe5b90600052602060002090600902016007015442101515156113d557600080fd5b600280878154811015156113e557fe5b906000526020600020906009020160000160146101000a81548160ff0219169083600281111561141157fe5b021790555061147e620f424061147060028981548110151561142f57fe5b90600052602060002090600902016008015460028a81548110151561145057fe5b90600052602060002090600902016002015461215390919063ffffffff16565b6121e990919063ffffffff16565b9450600560009054906101000a900473ffffffffffffffffffffffffffffffffffffffff1673ffffffffffffffffffffffffffffffffffffffff16635c481d8b600660009054906101000a900473ffffffffffffffffffffffffffffffffffffffff1673ffffffffffffffffffffffffffffffffffffffff166333a263e66000604051602001526040518163ffffffff167c0100000000000000000000000000000000000000000000000000000000028152600401602060405180830381600087803b151561154c57600080fd5b6102c65a03f1151561155d57600080fd5b50505060405180519050876000604051602001526040518363ffffffff167c010000000000000000000000000000000000000000000000000000000002815260040180836000191660001916815260200182815260200192505050602060405180830381600087803b15156115d157600080fd5b6102c65a03f115156115e257600080fd5b50505060405180519050935061178c84600560009054906101000a900473ffffffffffffffffffffffffffffffffffffffff1673ffffffffffffffffffffffffffffffffffffffff16635c481d8b600660009054906101000a900473ffffffffffffffffffffffffffffffffffffffff1673ffffffffffffffffffffffffffffffffffffffff166333a263e66000604051602001526040518163ffffffff167c0100000000000000000000000000000000000000000000000000000000028152600401602060405180830381600087803b15156116be57600080fd5b6102c65a03f115156116cf57600080fd5b5050506040518051905060028b8154811015156116e857fe5b9060005260206000209060090201600201546000604051602001526040518363ffffffff167c010000000000000000000000000000000000000000000000000000000002815260040180836000191660001916815260200182815260200192505050602060405180830381600087803b151561176357600080fd5b6102c65a03f1151561177457600080fd5b5050506040518051905061220490919063ffffffff16565b925060028681548110151561179d57fe5b90600052602060002090600902016001015483101561186c576117e9836002888154811015156117c957fe5b9060005260206000209060090201600101546121cd90919063ffffffff16565b91506002868154811015156117fa57fe5b906000526020600020906009020160000160009054906101000a900473ffffffffffffffffffffffffffffffffffffffff1673ffffffffffffffffffffffffffffffffffffffff166108fc839081150290604051600060405180830381858888f19350505050151561186b57600080fd5b5b61189f8260028881548110151561187f57fe5b9060005260206000209060090201600101546121cd90919063ffffffff16565b9050808411156118ad578093505b600660009054906101000a900473ffffffffffffffffffffffffffffffffffffffff1673ffffffffffffffffffffffffffffffffffffffff166108fc829081150290604051600060405180830381858888f19350505050151561190f57600080fd5b60028681548110151561191e57fe5b906000526020600020906009020160000160009054906101000a900473ffffffffffffffffffffffffffffffffffffffff1673ffffffffffffffffffffffffffffffffffffffff16867f328dba6669445381058bdb02ebe2ec93eb6f203f283073dee9b206720390f10b83858860405180848152602001838152602001828152602001935050505060405180910390a38680600101975050611332565b505050505050505050565b60046020528160005260406000206020528060005260406000206000915091509054906101000a900460ff1681565b6000809054906101000a900473ffffffffffffffffffffffffffffffffffffffff1673ffffffffffffffffffffffffffffffffffffffff163373ffffffffffffffffffffffffffffffffffffffff16141515611a5057600080fd5b6000600460008473ffffffffffffffffffffffffffffffffffffffff1673ffffffffffffffffffffffffffffffffffffffff1681526020019081526020016000206000836000191660001916815260200190815260200160002060006101000a81548160ff0219169083151502179055508173ffffffffffffffffffffffffffffffffffffffff167f789770131846de4d1f28418f0f957cdf4fcabe5eccf70067083e20ecece69a348260405180826000191660001916815260200191505060405180910390a25050565b611b236122b5565b600360008373ffffffffffffffffffffffffffffffffffffffff1673ffffffffffffffffffffffffffffffffffffffff168152602001908152602001600020805480602002602001604051908101604052809291908181526020018280548015611bac57602002820191906000526020600020905b815481526020019060010190808311611b98575b50505050509050919050565b600181815481101515611bc757fe5b90600052602060002090600602016000915090508060000154908060010154908060020154908060030154908060040154908060050160009054906101000a900460ff16905086565b600660009054906101000a900473ffffffffffffffffffffffffffffffffffffffff1681565b7f7365744c6f616e50726f64756374416374697665537461746500000000000000600460003373ffffffffffffffffffffffffffffffffffffffff1673ffffffffffffffffffffffffffffffffffffffff1681526020019081526020016000206000826000191660001916815260200190815260200160002060009054906101000a900460ff161515611cc857600080fd5b600060018460ff16815481101515611cdc57fe5b906000526020600020906006020160050160006101000a81548160ff0219169083151502179055507f689f692868769ea7204c471c3a1f849d14c0812ed265979b39e3dcb8531fdc968383604051808360ff168152602001821515151581526020019250505060405180910390a1505050565b6000809054906101000a900473ffffffffffffffffffffffffffffffffffffffff1681565b6000806000809054906101000a900473ffffffffffffffffffffffffffffffffffffffff1673ffffffffffffffffffffffffffffffffffffffff163373ffffffffffffffffffffffffffffffffffffffff16141515611dd257600080fd5b82519150600090505b81811015611e1157611e04848483815181101515611df557fe5b9060200190602002015161202d565b8080600101915050611ddb565b50505050565b600360205281600052604060002081815481101515611e3257fe5b9060005260206000209001600091509150505481565b600281815481101515611e5757fe5b90600052602060002090600902016000915090508060000160009054906101000a900473ffffffffffffffffffffffffffffffffffffffff16908060000160149054906101000a900460ff1690806001015490806002015490806003015490806004015490806005015490806006015490806007015490806008015490508a565b6000809054906101000a900473ffffffffffffffffffffffffffffffffffffffff1673ffffffffffffffffffffffffffffffffffffffff163373ffffffffffffffffffffffffffffffffffffffff16141515611f3357600080fd5b600073ffffffffffffffffffffffffffffffffffffffff168173ffffffffffffffffffffffffffffffffffffffff1614151515611f6f57600080fd5b8073ffffffffffffffffffffffffffffffffffffffff166000809054906101000a900473ffffffffffffffffffffffffffffffffffffffff1673ffffffffffffffffffffffffffffffffffffffff167f70aea8d848e8a90fb7661b227dc522eb6395c3dac71b63cb59edd5c9899b236460405160405180910390a3806000806101000a81548173ffffffffffffffffffffffffffffffffffffffff021916908373ffffffffffffffffffffffffffffffffffffffff16021790555050565b6000809054906101000a900473ffffffffffffffffffffffffffffffffffffffff1673ffffffffffffffffffffffffffffffffffffffff163373ffffffffffffffffffffffffffffffffffffffff1614151561208857600080fd5b6001600460008473ffffffffffffffffffffffffffffffffffffffff1673ffffffffffffffffffffffffffffffffffffffff1681526020019081526020016000206000836000191660001916815260200190815260200160002060006101000a81548160ff0219169083151502179055508173ffffffffffffffffffffffffffffffffffffffff167fc65937e3dbcb9fb30f646815dd67a3dbd09ba17718cbcb54efbe3635f8e0a6fe8260405180826000191660001916815260200191505060405180910390a25050565b60008082840290506000841480612174575082848281151561217157fe5b04145b151561217f57600080fd5b8091505092915050565b600080828481151561219757fe5b0490506002838115156121a657fe5b0483858115156121b257fe5b061015156121c35780806001019150505b8091505092915050565b60008282111515156121de57600080fd5b818303905092915050565b60008082848115156121f757fe5b0490508091505092915050565b600080828401905083811015151561221b57600080fd5b8091505092915050565b8154818355818115116122525760090281600902836000526020600020918201910161225191906122c9565b5b505050565b81548183558181151161227e5781836000526020600020918201910161227d9190612363565b5b505050565b8154818355818115116122b0576006028160060283600052602060002091820191016122af9190612388565b5b505050565b602060405190810160405280600081525090565b61236091905b8082111561235c57600080820160006101000a81549073ffffffffffffffffffffffffffffffffffffffff02191690556000820160146101000a81549060ff021916905560018201600090556002820160009055600382016000905560048201600090556005820160009055600682016000905560078201600090556008820160009055506009016122cf565b5090565b90565b61238591905b80821115612381576000816000905550600101612369565b5090565b90565b6123e091905b808211156123dc5760008082016000905560018201600090556002820160009055600382016000905560048201600090556005820160006101000a81549060ff02191690555060060161238e565b5090565b905600a165627a7a723058201d06a21470cc35c3149f8f8fd7a4044ee08fe39e3034eca251c82f8981da79cc0029",
  "source": "/* Contract to manage Augmint token loan contracts backed by ETH\n    TODO: add loanId to disbursement, repay and collection narrative\n*/\npragma solidity 0.4.18;\n\nimport \"./generic/Restricted.sol\";\nimport \"./Rates.sol\";\nimport \"./interfaces/AugmintTokenInterface.sol\";\nimport \"./interfaces/LoanManagerInterface.sol\";\n\n\ncontract LoanManager is LoanManagerInterface, Restricted {\n    Rates public rates; // instance of ETH/pegged currency rate provider contract\n    AugmintTokenInterface public augmintToken; // instance of token contract\n\n    event NewLoan(uint productId, uint loanId, address borrower, uint collateralAmount, uint loanAmount,\n        uint repaymentAmount);\n\n    event LoanProductActiveStateChanged(uint productId, bool newState);\n\n    event LoanProductAdded(uint productId);\n\n    event LoanRepayed(uint loanId, address borrower);\n\n    event LoanCollected(uint indexed loanId, address indexed borrower, uint collectedCollateral,\n        uint releasedCollateral, uint defaultingFee);\n\n    function LoanManager(address _augmintTokenAddress, address _ratesAddress) public Owned() {\n        augmintToken = AugmintTokenInterface(_augmintTokenAddress);\n        rates = Rates(_ratesAddress);\n    }\n\n    function addLoanProduct(uint _term, uint _discountRate, uint _collateralRatio, uint _minDisbursedAmount,\n        uint _defaultingFee, bool _isActive)\n    external restrict(\"addLoanProduct\") returns (uint newProductId) {\n        newProductId = products.push(\n            LoanProduct(_term, _discountRate, _collateralRatio, _minDisbursedAmount, _defaultingFee, _isActive)\n        ) - 1;\n\n        LoanProductAdded(newProductId);\n        return newProductId;\n    }\n\n    function setLoanProductActiveState(uint8 productId, bool newState) external restrict (\"setLoanProductActiveState\") {\n        products[productId].isActive = false;\n        LoanProductActiveStateChanged(productId, newState);\n    }\n\n    function newEthBackedLoan(uint8 productId) external payable {\n        require(products[productId].isActive); // valid productId?\n\n        // calculate loan values based on ETH sent in with Tx\n        uint tokenValue = rates.convertFromWei(augmintToken.peggedSymbol(), msg.value);\n        uint repaymentAmount = tokenValue.mul(products[productId].collateralRatio).roundedDiv(100000000);\n        repaymentAmount = repaymentAmount * 100;  // rounding 4 decimals value to 2 decimals.\n                                        // no safe mul needed b/c of prev divide\n\n        uint mul = products[productId].collateralRatio.mul(products[productId].discountRate) / 1000000;\n        uint loanAmount = tokenValue.mul(mul).roundedDiv(100000000);\n        loanAmount = loanAmount * 100;    // rounding 4 decimals value to 2 decimals.\n                                                    // no safe mul needed b/c of prev divide\n\n        require(loanAmount >= products[productId].minDisbursedAmount);\n\n        // Create new loan\n        uint loanId = loans.push(\n            LoanData(msg.sender, LoanState.Open, msg.value, repaymentAmount, loanAmount,\n                repaymentAmount.sub(loanAmount), products[productId].term, now, now + products[productId].term,\n                products[productId].defaultingFeePt)\n            ) - 1;\n\n        // Store ref to new loan\n        mLoans[msg.sender].push(loanId);\n\n        // Issue tokens and send to borrower\n        uint interestAmount;\n        if (repaymentAmount > loanAmount) {\n            interestAmount = repaymentAmount.sub(loanAmount);\n        }\n        augmintToken.issueAndDisburse(msg.sender, loanAmount, \"Loan disbursement\");\n\n        NewLoan(productId, loanId, msg.sender, msg.value, loanAmount, repaymentAmount);\n    }\n\n    /* users must call AugmintToken.repayLoan() to release collateral */\n    function releaseCollateral(uint loanId) external {\n        require(msg.sender == address(augmintToken));\n        require(loans[loanId].state == LoanState.Open);\n        require(now <= loans[loanId].maturity);\n        loans[loanId].state = LoanState.Repaid;\n        loans[loanId].borrower.transfer(loans[loanId].collateralAmount); // send back ETH collateral\n\n        LoanRepayed(loanId, loans[loanId].borrower);\n    }\n\n    function collect(uint[] loanIds) external {\n        /* when there are a lots of loans to be collected then\n             the client need to call it in batches to make sure tx won't exceed block gas limit.\n         Anyone can call it - can't cause harm as it only allows to collect loans which they are defaulted\n         TODO: optimise these calculation\n        */\n        for (uint i = 0; i < loanIds.length; i++) {\n            uint loanId = loanIds[i];\n            require(loans[loanId].state == LoanState.Open);\n            require(now >= loans[loanId].maturity);\n            loans[loanId].state = LoanState.Defaulted;\n            // send ETH collateral to augmintToken reserve\n            uint defaultingFeeInToken = loans[loanId].repaymentAmount.mul(loans[loanId].defaultingFeePt).div(1000000);\n            uint defaultingFee = rates.convertToWei(augmintToken.peggedSymbol(), defaultingFeeInToken);\n            uint targetCollection = rates.convertToWei(augmintToken.peggedSymbol(), loans[loanId].repaymentAmount)\n                .add(defaultingFee);\n            uint releasedCollateral;\n            if (targetCollection < loans[loanId].collateralAmount) {\n                releasedCollateral = loans[loanId].collateralAmount.sub(targetCollection);\n                loans[loanId].borrower.transfer(releasedCollateral);\n            }\n            uint collectedCollateral = loans[loanId].collateralAmount.sub(releasedCollateral);\n            if (defaultingFee > collectedCollateral) {\n                defaultingFee = collectedCollateral;\n            }\n\n            address(augmintToken).transfer(collectedCollateral);\n\n            LoanCollected(loanId, loans[loanId].borrower, collectedCollateral, releasedCollateral, defaultingFee);\n        }\n\n    }\n\n    function getLoanCount() external view returns (uint ct) {\n        return loans.length;\n    }\n\n    function getProductCount() external view returns (uint ct) {\n        return products.length;\n    }\n\n    function getLoanIds(address borrower) external view returns (uint[] loans) {\n        return mLoans[borrower];\n    }\n\n}\n",
  "sourcePath": "/Users/petro/ether/dcm-poc/contracts/LoanManager.sol",
  "compiler": {
    "name": "solc",
    "version": "0.4.18+commit.9cf6e910.Emscripten.clang"
  },
  "schemaVersion": "1.0.1",
  "updatedAt": "2018-01-26T19:51:30.605Z"
}