{
  "contractName": "LoanManager",
  "abi": [
    {
      "constant": false,
      "inputs": [
        {
          "name": "_new",
          "type": "address"
        }
      ],
      "name": "setOwner",
      "outputs": [],
      "payable": false,
      "type": "function",
      "stateMutability": "nonpayable"
    },
    {
      "constant": false,
      "inputs": [
        {
          "name": "productId",
          "type": "uint8"
        }
      ],
      "name": "newEthBackedLoan",
      "outputs": [],
      "payable": true,
      "type": "function",
      "stateMutability": "payable"
    },
    {
      "constant": true,
      "inputs": [
        {
          "name": "",
          "type": "uint256"
        }
      ],
      "name": "loanPointers",
      "outputs": [
        {
          "name": "contractAddress",
          "type": "address"
        },
        {
          "name": "loanState",
          "type": "uint8"
        }
      ],
      "payable": false,
      "type": "function",
      "stateMutability": "view"
    },
    {
      "constant": true,
      "inputs": [],
      "name": "tokenUcd",
      "outputs": [
        {
          "name": "",
          "type": "address"
        }
      ],
      "payable": false,
      "type": "function",
      "stateMutability": "view"
    },
    {
      "constant": false,
      "inputs": [
        {
          "name": "loanId",
          "type": "uint256"
        }
      ],
      "name": "repay",
      "outputs": [
        {
          "name": "result",
          "type": "int8"
        }
      ],
      "payable": false,
      "type": "function",
      "stateMutability": "nonpayable"
    },
    {
      "constant": true,
      "inputs": [],
      "name": "rates",
      "outputs": [
        {
          "name": "",
          "type": "address"
        }
      ],
      "payable": false,
      "type": "function",
      "stateMutability": "view"
    },
    {
      "constant": true,
      "inputs": [],
      "name": "getProductCount",
      "outputs": [
        {
          "name": "ct",
          "type": "uint256"
        }
      ],
      "payable": false,
      "type": "function",
      "stateMutability": "view"
    },
    {
      "constant": true,
      "inputs": [],
      "name": "getLoanCount",
      "outputs": [
        {
          "name": "ct",
          "type": "uint256"
        }
      ],
      "payable": false,
      "type": "function",
      "stateMutability": "view"
    },
    {
      "constant": false,
      "inputs": [
        {
          "name": "loanIds",
          "type": "uint256[]"
        }
      ],
      "name": "collect",
      "outputs": [
        {
          "name": "result",
          "type": "int8"
        }
      ],
      "payable": false,
      "type": "function",
      "stateMutability": "nonpayable"
    },
    {
      "constant": false,
      "inputs": [
        {
          "name": "_term",
          "type": "uint256"
        },
        {
          "name": "_discountRate",
          "type": "uint256"
        },
        {
          "name": "_loanCollateralRatio",
          "type": "uint256"
        },
        {
          "name": "_minDisbursedAmountInUcd",
          "type": "uint256"
        },
        {
          "name": "_repayPeriod",
          "type": "uint256"
        },
        {
          "name": "_isActive",
          "type": "bool"
        }
      ],
      "name": "addProduct",
      "outputs": [
        {
          "name": "newProductId",
          "type": "uint256"
        }
      ],
      "payable": false,
      "type": "function",
      "stateMutability": "nonpayable"
    },
    {
      "constant": true,
      "inputs": [
        {
          "name": "borrower",
          "type": "address"
        }
      ],
      "name": "getLoanIds",
      "outputs": [
        {
          "name": "loans",
          "type": "uint256[]"
        }
      ],
      "payable": false,
      "type": "function",
      "stateMutability": "view"
    },
    {
      "constant": true,
      "inputs": [],
      "name": "ERR_LOAN_NOT_OPEN",
      "outputs": [
        {
          "name": "",
          "type": "int8"
        }
      ],
      "payable": false,
      "type": "function",
      "stateMutability": "view"
    },
    {
      "constant": true,
      "inputs": [],
      "name": "ERR_NOT_OWNER",
      "outputs": [
        {
          "name": "",
          "type": "int8"
        }
      ],
      "payable": false,
      "type": "function",
      "stateMutability": "view"
    },
    {
      "constant": true,
      "inputs": [
        {
          "name": "",
          "type": "uint256"
        }
      ],
      "name": "products",
      "outputs": [
        {
          "name": "term",
          "type": "uint256"
        },
        {
          "name": "discountRate",
          "type": "uint256"
        },
        {
          "name": "loanCollateralRatio",
          "type": "uint256"
        },
        {
          "name": "minDisbursedAmountInUcd",
          "type": "uint256"
        },
        {
          "name": "repayPeriod",
          "type": "uint256"
        },
        {
          "name": "isActive",
          "type": "bool"
        }
      ],
      "payable": false,
      "type": "function",
      "stateMutability": "view"
    },
    {
      "constant": true,
      "inputs": [],
      "name": "owner",
      "outputs": [
        {
          "name": "",
          "type": "address"
        }
      ],
      "payable": false,
      "type": "function",
      "stateMutability": "view"
    },
    {
      "constant": true,
      "inputs": [],
      "name": "ERR_NO_LOAN",
      "outputs": [
        {
          "name": "",
          "type": "int8"
        }
      ],
      "payable": false,
      "type": "function",
      "stateMutability": "view"
    },
    {
      "constant": true,
      "inputs": [],
      "name": "ERR_EXT_ERRCODE_BASE",
      "outputs": [
        {
          "name": "",
          "type": "int8"
        }
      ],
      "payable": false,
      "type": "function",
      "stateMutability": "view"
    },
    {
      "constant": false,
      "inputs": [
        {
          "name": "productId",
          "type": "uint8"
        }
      ],
      "name": "enableProduct",
      "outputs": [],
      "payable": false,
      "type": "function",
      "stateMutability": "nonpayable"
    },
    {
      "constant": true,
      "inputs": [
        {
          "name": "",
          "type": "address"
        },
        {
          "name": "",
          "type": "uint256"
        }
      ],
      "name": "m_loanPointers",
      "outputs": [
        {
          "name": "",
          "type": "uint256"
        }
      ],
      "payable": false,
      "type": "function",
      "stateMutability": "view"
    },
    {
      "constant": false,
      "inputs": [
        {
          "name": "productId",
          "type": "uint8"
        }
      ],
      "name": "disableProduct",
      "outputs": [],
      "payable": false,
      "type": "function",
      "stateMutability": "nonpayable"
    },
    {
      "constant": true,
      "inputs": [],
      "name": "SUCCESS",
      "outputs": [
        {
          "name": "",
          "type": "int8"
        }
      ],
      "payable": false,
      "type": "function",
      "stateMutability": "view"
    },
    {
      "inputs": [
        {
          "name": "_tokenUcdAddress",
          "type": "address"
        },
        {
          "name": "_ratesAddress",
          "type": "address"
        }
      ],
      "payable": false,
      "type": "constructor",
      "stateMutability": "nonpayable"
    },
    {
      "anonymous": false,
      "inputs": [
        {
          "indexed": false,
          "name": "productId",
          "type": "uint8"
        },
        {
          "indexed": false,
          "name": "loanId",
          "type": "uint256"
        },
        {
          "indexed": false,
          "name": "borrower",
          "type": "address"
        },
        {
          "indexed": false,
          "name": "loanContract",
          "type": "address"
        },
        {
          "indexed": false,
          "name": "disbursedLoanInUcd",
          "type": "uint256"
        }
      ],
      "name": "e_newLoan",
      "type": "event"
    },
    {
      "anonymous": false,
      "inputs": [
        {
          "indexed": false,
          "name": "errorCode",
          "type": "int8"
        }
      ],
      "name": "e_error",
      "type": "event"
    },
    {
      "anonymous": false,
      "inputs": [
        {
          "indexed": false,
          "name": "loanContractAddress",
          "type": "address"
        },
        {
          "indexed": false,
          "name": "borrower",
          "type": "address"
        }
      ],
      "name": "e_repayed",
      "type": "event"
    },
    {
      "anonymous": false,
      "inputs": [
        {
          "indexed": false,
          "name": "borrower",
          "type": "address"
        },
        {
          "indexed": false,
          "name": "loanContractAddress",
          "type": "address"
        }
      ],
      "name": "e_collected",
      "type": "event"
    },
    {
      "anonymous": false,
      "inputs": [
        {
          "indexed": true,
          "name": "old",
          "type": "address"
        },
        {
          "indexed": true,
          "name": "current",
          "type": "address"
        }
      ],
      "name": "NewOwner",
      "type": "event"
    }
  ],
  "bytecode": "0x6060604052341561000f57600080fd5b6040516040806136dc83398101604052808051906020019091908051906020019091905050336000806101000a81548173ffffffffffffffffffffffffffffffffffffffff021916908373ffffffffffffffffffffffffffffffffffffffff16021790555081600260006101000a81548173ffffffffffffffffffffffffffffffffffffffff021916908373ffffffffffffffffffffffffffffffffffffffff16021790555080600160006101000a81548173ffffffffffffffffffffffffffffffffffffffff021916908373ffffffffffffffffffffffffffffffffffffffff16021790555050506135d5806101076000396000f30060606040526004361062000133576000357c0100000000000000000000000000000000000000000000000000000000900463ffffffff16806313af403514620001385780631509c8cf1462000174578063176ab16c146200019157806335b6f81b146200020d578063371fd8e6146200026557806343f48fbd14620002a55780634a348da914620002fd57806352196812146200032957806357f46cbe146200035557806364858d2114620003cc5780636b64c88514620004355780636ff6680e14620004c857806374c64fb314620004fa5780637acc0b20146200052c5780638da5cb5b146200058d578063a7444b4914620005e5578063afb7cee01462000617578063c4e1c7cb1462000649578063c5fa437c1462000672578063caa5436214620006cb578063d0a6d1a614620006f4575b600080fd5b34156200014457600080fd5b62000172600480803573ffffffffffffffffffffffffffffffffffffffff1690602001909190505062000726565b005b6200018f600480803560ff169060200190919050506200083b565b005b34156200019d57600080fd5b620001b56004808035906020019091905050620010ca565b604051808373ffffffffffffffffffffffffffffffffffffffff1673ffffffffffffffffffffffffffffffffffffffff168152602001826002811115620001f857fe5b60ff1681526020019250505060405180910390f35b34156200021957600080fd5b6200022362001128565b604051808273ffffffffffffffffffffffffffffffffffffffff1673ffffffffffffffffffffffffffffffffffffffff16815260200191505060405180910390f35b34156200027157600080fd5b6200028960048080359060200190919050506200114e565b604051808260000b60000b815260200191505060405180910390f35b3415620002b157600080fd5b620002bb62001a9f565b604051808273ffffffffffffffffffffffffffffffffffffffff1673ffffffffffffffffffffffffffffffffffffffff16815260200191505060405180910390f35b34156200030957600080fd5b6200031362001ac5565b6040518082815260200191505060405180910390f35b34156200033557600080fd5b6200033f62001ad2565b6040518082815260200191505060405180910390f35b34156200036157600080fd5b620003b060048080359060200190820180359060200190808060200260200160405190810160405280939291908181526020018383602002808284378201915050505050509190505062001adf565b604051808260000b60000b815260200191505060405180910390f35b3415620003d857600080fd5b6200041f600480803590602001909190803590602001909190803590602001909190803590602001909190803590602001909190803515159060200190919050506200207e565b6040518082815260200191505060405180910390f35b34156200044157600080fd5b6200046f600480803573ffffffffffffffffffffffffffffffffffffffff1690602001909190505062002198565b6040518080602001828103825283818151815260200191508051906020019060200280838360005b83811015620004b457808201518184015260208101905062000497565b505050509050019250505060405180910390f35b3415620004d457600080fd5b620004de62002239565b604051808260000b60000b815260200191505060405180910390f35b34156200050657600080fd5b620005106200225d565b604051808260000b60000b815260200191505060405180910390f35b34156200053857600080fd5b62000550600480803590602001909190505062002281565b6040518087815260200186815260200185815260200184815260200183815260200182151515158152602001965050505050505060405180910390f35b34156200059957600080fd5b620005a3620022da565b604051808273ffffffffffffffffffffffffffffffffffffffff1673ffffffffffffffffffffffffffffffffffffffff16815260200191505060405180910390f35b3415620005f157600080fd5b620005fb620022ff565b604051808260000b60000b815260200191505060405180910390f35b34156200062357600080fd5b6200062d62002323565b604051808260000b60000b815260200191505060405180910390f35b34156200065557600080fd5b62000670600480803560ff1690602001909190505062002347565b005b34156200067e57600080fd5b620006b5600480803573ffffffffffffffffffffffffffffffffffffffff16906020019091908035906020019091905050620023de565b6040518082815260200191505060405180910390f35b3415620006d757600080fd5b620006f2600480803560ff1690602001909190505062002410565b005b34156200070057600080fd5b6200070a620024a7565b604051808260000b60000b815260200191505060405180910390f35b6000809054906101000a900473ffffffffffffffffffffffffffffffffffffffff1673ffffffffffffffffffffffffffffffffffffffff163373ffffffffffffffffffffffffffffffffffffffff16141562000838578073ffffffffffffffffffffffffffffffffffffffff166000809054906101000a900473ffffffffffffffffffffffffffffffffffffffff1673ffffffffffffffffffffffffffffffffffffffff167f70aea8d848e8a90fb7661b227dc522eb6395c3dac71b63cb59edd5c9899b236460405160405180910390a3806000806101000a81548173ffffffffffffffffffffffffffffffffffffffff021916908373ffffffffffffffffffffffffffffffffffffffff1602179055505b50565b600080600080600080600060038860ff168154811015156200085957fe5b906000526020600020906006020160050160009054906101000a900460ff1615156200088457600080fd5b600160009054906101000a900473ffffffffffffffffffffffffffffffffffffffff1673ffffffffffffffffffffffffffffffffffffffff166319605cd9346000604051602001526040518263ffffffff167c010000000000000000000000000000000000000000000000000000000002815260040180828152602001915050602060405180830381600087803b15156200091e57600080fd5b6102c65a03f115156200093057600080fd5b5050506040518051905096506200097560038960ff168154811015156200095357fe5b90600052602060002090600602016002015488620024ac90919063ffffffff16565b73__SafeMath______________________________6351b644c090916305f5e1006000604051602001526040518363ffffffff167c0100000000000000000000000000000000000000000000000000000000028152600401808381526020018281526020019250505060206040518083038186803b1515620009f657600080fd5b6102c65a03f4151562000a0857600080fd5b505050604051805190509550606486029550620f424062000a7b60038a60ff1681548110151562000a3557fe5b90600052602060002090600602016001015460038b60ff1681548110151562000a5a57fe5b906000526020600020906006020160020154620024ac90919063ffffffff16565b81151562000a8557fe5b04945062000a9d8588620024ac90919063ffffffff16565b73__SafeMath______________________________6351b644c090916305f5e1006000604051602001526040518363ffffffff167c0100000000000000000000000000000000000000000000000000000000028152600401808381526020018281526020019250505060206040518083038186803b151562000b1e57600080fd5b6102c65a03f4151562000b3057600080fd5b50505060405180519050935060648402935060038860ff1681548110151562000b5557fe5b906000526020600020906006020160030154841015151562000b7657600080fd5b60016004805480600101828162000b8e9190620024e2565b916000526020600020900160006040805190810160405280600073ffffffffffffffffffffffffffffffffffffffff1681526020016000600281111562000bd157fe5b815250909190915060008201518160000160006101000a81548173ffffffffffffffffffffffffffffffffffffffff021916908373ffffffffffffffffffffffffffffffffffffffff16021790555060208201518160000160146101000a81548160ff0219169083600281111562000c4557fe5b02179055505050039250823360038a60ff1681548110151562000c6457fe5b906000526020600020906006020160000154868960038d60ff1681548110151562000c8b57fe5b90600052602060002090600602016004015462000ca762002511565b808781526020018673ffffffffffffffffffffffffffffffffffffffff1673ffffffffffffffffffffffffffffffffffffffff1681526020018581526020018481526020018381526020018281526020019650505050505050604051809103906000f080151562000d1757600080fd5b91508160048481548110151562000d2a57fe5b906000526020600020900160000160006101000a81548173ffffffffffffffffffffffffffffffffffffffff021916908373ffffffffffffffffffffffffffffffffffffffff160217905550600560003373ffffffffffffffffffffffffffffffffffffffff1673ffffffffffffffffffffffffffffffffffffffff168152602001908152602001600020805480600101828162000dc9919062002522565b9160005260206000209001600085909190915055508173ffffffffffffffffffffffffffffffffffffffff166108fc349081150290604051600060405180830381858888f19350505050151562000e1f57600080fd5b600260009054906101000a900473ffffffffffffffffffffffffffffffffffffffff1673ffffffffffffffffffffffffffffffffffffffff16632c4a958e3388876000604051602001526040518463ffffffff167c0100000000000000000000000000000000000000000000000000000000028152600401808473ffffffffffffffffffffffffffffffffffffffff1673ffffffffffffffffffffffffffffffffffffffff16815260200183815260200182815260200180602001828103825260118152602001807f4c6f616e2064697362757273656d656e74000000000000000000000000000000815250602001945050505050602060405180830381600087803b151562000f2e57600080fd5b6102c65a03f1151562000f4057600080fd5b505050604051805190509050600260009054906101000a900473ffffffffffffffffffffffffffffffffffffffff1673ffffffffffffffffffffffffffffffffffffffff1663d0a6d1a66000604051602001526040518163ffffffff167c0100000000000000000000000000000000000000000000000000000000028152600401602060405180830381600087803b151562000fdb57600080fd5b6102c65a03f1151562000fed57600080fd5b5050506040518051905060000b8160000b1415156200100b57600080fd5b7fd2ee45819a43ebf6a838cb6f114c920e274ad2c21ee8a33517f01a2fef1ab9af8884338588604051808660ff1660ff1681526020018581526020018473ffffffffffffffffffffffffffffffffffffffff1673ffffffffffffffffffffffffffffffffffffffff1681526020018373ffffffffffffffffffffffffffffffffffffffff1673ffffffffffffffffffffffffffffffffffffffff1681526020018281526020019550505050505060405180910390a15050505050505050565b600481815481101515620010da57fe5b90600052602060002090016000915090508060000160009054906101000a900473ffffffffffffffffffffffffffffffffffffffff16908060000160149054906101000a900460ff16905082565b600260009054906101000a900473ffffffffffffffffffffffffffffffffffffffff1681565b600080600080600185016004805490501015620011eb577fc25603b84a99df3a9bd030fe06c8ff67cea262f9966e79d4604d9991e1702cd07ffffffffffffffffffffffffffffffffffffffffffffffffffffffffffffffffd604051808260000b60000b815260200191505060405180910390a17ffffffffffffffffffffffffffffffffffffffffffffffffffffffffffffffffd935062001a97565b60006002811115620011f957fe5b6004868154811015156200120957fe5b906000526020600020900160000160149054906101000a900460ff1660028111156200123157fe5b141515620012bf577fc25603b84a99df3a9bd030fe06c8ff67cea262f9966e79d4604d9991e1702cd07ffffffffffffffffffffffffffffffffffffffffffffffffffffffffffffffffc604051808260000b60000b815260200191505060405180910390a17ffffffffffffffffffffffffffffffffffffffffffffffffffffffffffffffffc935062001a97565b6000600560003373ffffffffffffffffffffffffffffffffffffffff1673ffffffffffffffffffffffffffffffffffffffff16815260200190815260200160002080549050141562001391577fc25603b84a99df3a9bd030fe06c8ff67cea262f9966e79d4604d9991e1702cd07ffffffffffffffffffffffffffffffffffffffffffffffffffffffffffffffffe604051808260000b60000b815260200191505060405180910390a17ffffffffffffffffffffffffffffffffffffffffffffffffffffffffffffffffe935062001a97565b600485815481101515620013a157fe5b906000526020600020900160000160009054906101000a900473ffffffffffffffffffffffffffffffffffffffff1692508291503373ffffffffffffffffffffffffffffffffffffffff168273ffffffffffffffffffffffffffffffffffffffff16638da5cb5b6000604051602001526040518163ffffffff167c0100000000000000000000000000000000000000000000000000000000028152600401602060405180830381600087803b15156200145957600080fd5b6102c65a03f115156200146b57600080fd5b5050506040518051905073ffffffffffffffffffffffffffffffffffffffff1614151562001519577fc25603b84a99df3a9bd030fe06c8ff67cea262f9966e79d4604d9991e1702cd07ffffffffffffffffffffffffffffffffffffffffffffffffffffffffffffffffe604051808260000b60000b815260200191505060405180910390a17ffffffffffffffffffffffffffffffffffffffffffffffffffffffffffffffffe935062001a97565b600260009054906101000a900473ffffffffffffffffffffffffffffffffffffffff1673ffffffffffffffffffffffffffffffffffffffff166328dfa43d338473ffffffffffffffffffffffffffffffffffffffff16632cbdbd166000604051602001526040518163ffffffff167c0100000000000000000000000000000000000000000000000000000000028152600401602060405180830381600087803b1515620015c557600080fd5b6102c65a03f11515620015d757600080fd5b505050604051805190506000604051602001526040518363ffffffff167c0100000000000000000000000000000000000000000000000000000000028152600401808373ffffffffffffffffffffffffffffffffffffffff1673ffffffffffffffffffffffffffffffffffffffff168152602001828152602001806020018281038252600e8152602001807f4c6f616e2072657061796d656e740000000000000000000000000000000000008152506020019350505050602060405180830381600087803b1515620016a857600080fd5b6102c65a03f11515620016ba57600080fd5b505050604051805190509050600260009054906101000a900473ffffffffffffffffffffffffffffffffffffffff1673ffffffffffffffffffffffffffffffffffffffff1663d0a6d1a66000604051602001526040518163ffffffff167c0100000000000000000000000000000000000000000000000000000000028152600401602060405180830381600087803b15156200175557600080fd5b6102c65a03f115156200176757600080fd5b5050506040518051905060000b8160000b1415156200180a577fc25603b84a99df3a9bd030fe06c8ff67cea262f9966e79d4604d9991e1702cd0817ffffffffffffffffffffffffffffffffffffffffffffffffffffffffffffffff601604051808260000b60000b815260200191505060405180910390a1807ffffffffffffffffffffffffffffffffffffffffffffffffffffffffffffffff601935062001a97565b8173ffffffffffffffffffffffffffffffffffffffff1663402d88836000604051602001526040518163ffffffff167c0100000000000000000000000000000000000000000000000000000000028152600401602060405180830381600087803b15156200187757600080fd5b6102c65a03f115156200188957600080fd5b5050506040518051905090508173ffffffffffffffffffffffffffffffffffffffff1663d0a6d1a66000604051602001526040518163ffffffff167c0100000000000000000000000000000000000000000000000000000000028152600401602060405180830381600087803b15156200190257600080fd5b6102c65a03f115156200191457600080fd5b5050506040518051905060000b8160000b1415156200193257600080fd5b60016004868154811015156200194457fe5b906000526020600020900160000160146101000a81548160ff021916908360028111156200196e57fe5b02179055507f92673760d27f198e5f8d087e7d5d6d4ae04069d64af7cf7bd8897bde49be7dee838373ffffffffffffffffffffffffffffffffffffffff16638da5cb5b6000604051602001526040518163ffffffff167c0100000000000000000000000000000000000000000000000000000000028152600401602060405180830381600087803b151562001a0257600080fd5b6102c65a03f1151562001a1457600080fd5b50505060405180519050604051808373ffffffffffffffffffffffffffffffffffffffff1673ffffffffffffffffffffffffffffffffffffffff1681526020018273ffffffffffffffffffffffffffffffffffffffff1673ffffffffffffffffffffffffffffffffffffffff1681526020019250505060405180910390a1600193505b505050919050565b600160009054906101000a900473ffffffffffffffffffffffffffffffffffffffff1681565b6000600380549050905090565b6000600480549050905090565b6000806000806000806000600480549050141562001b7d577fc25603b84a99df3a9bd030fe06c8ff67cea262f9966e79d4604d9991e1702cd07ffffffffffffffffffffffffffffffffffffffffffffffffffffffffffffffffd604051808260000b60000b815260200191505060405180910390a17ffffffffffffffffffffffffffffffffffffffffffffffffffffffffffffffffd955062002074565b600094505b86518510156200206f57868581518110151562001b9b57fe5b9060200190602002015193508360048054905011151562001c3c577fc25603b84a99df3a9bd030fe06c8ff67cea262f9966e79d4604d9991e1702cd07ffffffffffffffffffffffffffffffffffffffffffffffffffffffffffffffffd604051808260000b60000b815260200191505060405180910390a17ffffffffffffffffffffffffffffffffffffffffffffffffffffffffffffffffd955062002074565b6000600281111562001c4a57fe5b60048581548110151562001c5a57fe5b906000526020600020900160000160149054906101000a900460ff16600281111562001c8257fe5b14151562001d10577fc25603b84a99df3a9bd030fe06c8ff67cea262f9966e79d4604d9991e1702cd07ffffffffffffffffffffffffffffffffffffffffffffffffffffffffffffffffc604051808260000b60000b815260200191505060405180910390a17ffffffffffffffffffffffffffffffffffffffffffffffffffffffffffffffffc955062002074565b60048481548110151562001d2057fe5b906000526020600020900160000160009054906101000a900473ffffffffffffffffffffffffffffffffffffffff1692508291508173ffffffffffffffffffffffffffffffffffffffff1663e52253816000604051602001526040518163ffffffff167c0100000000000000000000000000000000000000000000000000000000028152600401602060405180830381600087803b151562001dc157600080fd5b6102c65a03f1151562001dd357600080fd5b5050506040518051905090508173ffffffffffffffffffffffffffffffffffffffff1663d0a6d1a66000604051602001526040518163ffffffff167c0100000000000000000000000000000000000000000000000000000000028152600401602060405180830381600087803b151562001e4c57600080fd5b6102c65a03f1151562001e5e57600080fd5b5050506040518051905060000b8160000b14151562001f01577fc25603b84a99df3a9bd030fe06c8ff67cea262f9966e79d4604d9991e1702cd0817ffffffffffffffffffffffffffffffffffffffffffffffffffffffffffffffff601604051808260000b60000b815260200191505060405180910390a1807ffffffffffffffffffffffffffffffffffffffffffffffffffffffffffffffff601955062002074565b600260048581548110151562001f1357fe5b906000526020600020900160000160146101000a81548160ff0219169083600281111562001f3d57fe5b02179055507f07a9507ae6cf5a62a8d57d3060ad7eb3049ddc76843ed80f26b105eedb7f6f7a8273ffffffffffffffffffffffffffffffffffffffff16638da5cb5b6000604051602001526040518163ffffffff167c0100000000000000000000000000000000000000000000000000000000028152600401602060405180830381600087803b151562001fd057600080fd5b6102c65a03f1151562001fe257600080fd5b5050506040518051905084604051808373ffffffffffffffffffffffffffffffffffffffff1673ffffffffffffffffffffffffffffffffffffffff1681526020018273ffffffffffffffffffffffffffffffffffffffff1673ffffffffffffffffffffffffffffffffffffffff1681526020019250505060405180910390a1848060010195505062001b82565b600195505b5050505050919050565b60008060009054906101000a900473ffffffffffffffffffffffffffffffffffffffff1673ffffffffffffffffffffffffffffffffffffffff163373ffffffffffffffffffffffffffffffffffffffff1614156200218e5760038054806001018281620020ec919062002551565b9160005260206000209060060201600060c0604051908101604052808b81526020018a81526020018981526020018881526020018781526020018615158152509091909150600082015181600001556020820151816001015560408201518160020155606082015181600301556080820151816004015560a08201518160050160006101000a81548160ff021916908315150217905550505090506001810390505b9695505050505050565b620021a262002586565b600560008373ffffffffffffffffffffffffffffffffffffffff1673ffffffffffffffffffffffffffffffffffffffff1681526020019081526020016000208054806020026020016040519081016040528092919081815260200182805480156200222d57602002820191906000526020600020905b81548152602001906001019080831162002218575b50505050509050919050565b7ffffffffffffffffffffffffffffffffffffffffffffffffffffffffffffffffc81565b7ffffffffffffffffffffffffffffffffffffffffffffffffffffffffffffffffe81565b6003818154811015156200229157fe5b90600052602060002090600602016000915090508060000154908060010154908060020154908060030154908060040154908060050160009054906101000a900460ff16905086565b6000809054906101000a900473ffffffffffffffffffffffffffffffffffffffff1681565b7ffffffffffffffffffffffffffffffffffffffffffffffffffffffffffffffffd81565b7ffffffffffffffffffffffffffffffffffffffffffffffffffffffffffffffff681565b6000809054906101000a900473ffffffffffffffffffffffffffffffffffffffff1673ffffffffffffffffffffffffffffffffffffffff163373ffffffffffffffffffffffffffffffffffffffff161415620023db57600160038260ff16815481101515620023b257fe5b906000526020600020906006020160050160006101000a81548160ff0219169083151502179055505b50565b600560205281600052604060002081815481101515620023fa57fe5b9060005260206000209001600091509150505481565b6000809054906101000a900473ffffffffffffffffffffffffffffffffffffffff1673ffffffffffffffffffffffffffffffffffffffff163373ffffffffffffffffffffffffffffffffffffffff161415620024a457600060038260ff168154811015156200247b57fe5b906000526020600020906006020160050160006101000a81548160ff0219169083151502179055505b50565b600181565b60008082840290506000841480620024cf5750828482811515620024cc57fe5b04145b1515620024d857fe5b8091505092915050565b8154818355818115116200250c578183600052602060002091820191016200250b91906200259a565b5b505050565b604051610f2c806200267e83390190565b8154818355818115116200254c578183600052602060002091820191016200254b9190620025f7565b5b505050565b81548183558181151162002581576006028160060283600052602060002091820191016200258091906200261f565b5b505050565b602060405190810160405280600081525090565b620025f491905b80821115620025f057600080820160006101000a81549073ffffffffffffffffffffffffffffffffffffffff02191690556000820160146101000a81549060ff021916905550600101620025a1565b5090565b90565b6200261c91905b8082111562002618576000816000905550600101620025fe565b5090565b90565b6200267a91905b80821115620026765760008082016000905560018201600090556002820160009055600382016000905560048201600090556005820160006101000a81549060ff02191690555060060162002626565b5090565b9056006060604052341561000f57600080fd5b60405160c080610f2c833981016040528080519060200190919080519060200190919080519060200190919080519060200190919080519060200190919080519060200190919050508560038190555033600160006101000a81548173ffffffffffffffffffffffffffffffffffffffff021916908373ffffffffffffffffffffffffffffffffffffffff160217905550846000806101000a81548173ffffffffffffffffffffffffffffffffffffffff021916908373ffffffffffffffffffffffffffffffffffffffff160217905550600160009054906101000a900473ffffffffffffffffffffffffffffffffffffffff1673ffffffffffffffffffffffffffffffffffffffff166335b6f81b6000604051602001526040518163ffffffff167c0100000000000000000000000000000000000000000000000000000000028152600401602060405180830381600087803b151561016e57600080fd5b6102c65a03f1151561017f57600080fd5b50505060405180519050600260006101000a81548173ffffffffffffffffffffffffffffffffffffffff021916908373ffffffffffffffffffffffffffffffffffffffff16021790555083600681905550426007819055506101fb60065460075461024564010000000002610c70179091906401000000009004565b6008819055508060098190555082600581905550816004819055506000600260146101000a81548160ff0219169083600281111561023557fe5b0217905550505050505050610263565b600080828401905083811015151561025957fe5b8091505092915050565b610cba806102726000396000f300606060405260043610610128576000357c0100000000000000000000000000000000000000000000000000000000900463ffffffff168063204f83f91461012a578063207efe651461015357806325af34cd146101825780632bf51e40146101b95780632cbdbd16146101e257806335b6f81b1461020b578063402d88831461026057806354d0258b1461028f57806368e8d7d6146102eb5780636ac2be9e1461031a5780636ff6680e146103495780638da5cb5b146103785780639c5a5880146103cd578063a10ffbed146103f6578063afb7cee01461041f578063b3ccbcfe1461044e578063c95669a5146104a3578063ca457372146104cc578063d0a6d1a6146104fb578063e52253811461052a578063e720fe9414610559578063fbbf93a014610582575b005b341561013557600080fd5b61013d610683565b6040518082815260200191505060405180910390f35b341561015e57600080fd5b610166610689565b604051808260000b60000b815260200191505060405180910390f35b341561018d57600080fd5b6101956106ad565b604051808260028111156101a557fe5b60ff16815260200191505060405180910390f35b34156101c457600080fd5b6101cc6106c0565b6040518082815260200191505060405180910390f35b34156101ed57600080fd5b6101f56106c6565b6040518082815260200191505060405180910390f35b341561021657600080fd5b61021e6106cc565b604051808273ffffffffffffffffffffffffffffffffffffffff1673ffffffffffffffffffffffffffffffffffffffff16815260200191505060405180910390f35b341561026b57600080fd5b6102736106f2565b604051808260000b60000b815260200191505060405180910390f35b341561029a57600080fd5b6102cf600480803573ffffffffffffffffffffffffffffffffffffffff169060200190919080359060200190919050506108a0565b604051808260000b60000b815260200191505060405180910390f35b34156102f657600080fd5b6102fe6108d1565b604051808260000b60000b815260200191505060405180910390f35b341561032557600080fd5b61032d6108f5565b604051808260000b60000b815260200191505060405180910390f35b341561035457600080fd5b61035c610919565b604051808260000b60000b815260200191505060405180910390f35b341561038357600080fd5b61038b61093d565b604051808273ffffffffffffffffffffffffffffffffffffffff1673ffffffffffffffffffffffffffffffffffffffff16815260200191505060405180910390f35b34156103d857600080fd5b6103e0610962565b6040518082815260200191505060405180910390f35b341561040157600080fd5b610409610968565b6040518082815260200191505060405180910390f35b341561042a57600080fd5b61043261096e565b604051808260000b60000b815260200191505060405180910390f35b341561045957600080fd5b610461610992565b604051808273ffffffffffffffffffffffffffffffffffffffff1673ffffffffffffffffffffffffffffffffffffffff16815260200191505060405180910390f35b34156104ae57600080fd5b6104b66109b8565b6040518082815260200191505060405180910390f35b34156104d757600080fd5b6104df6109be565b604051808260000b60000b815260200191505060405180910390f35b341561050657600080fd5b61050e6109e2565b604051808260000b60000b815260200191505060405180910390f35b341561053557600080fd5b61053d6109e7565b604051808260000b60000b815260200191505060405180910390f35b341561056457600080fd5b61056c610ba9565b6040518082815260200191505060405180910390f35b341561058d57600080fd5b610595610baf565b604051808c73ffffffffffffffffffffffffffffffffffffffff1673ffffffffffffffffffffffffffffffffffffffff1681526020018b73ffffffffffffffffffffffffffffffffffffffff1673ffffffffffffffffffffffffffffffffffffffff1681526020018a73ffffffffffffffffffffffffffffffffffffffff1673ffffffffffffffffffffffffffffffffffffffff16815260200189600281111561063b57fe5b60ff1681526020018881526020018781526020018681526020018581526020018481526020018381526020018281526020019b50505050505050505050505060405180910390f35b60085481565b7ffffffffffffffffffffffffffffffffffffffffffffffffffffffffffffffffe81565b600260149054906101000a900460ff1681565b60095481565b60045481565b600260009054906101000a900473ffffffffffffffffffffffffffffffffffffffff1681565b6000600160009054906101000a900473ffffffffffffffffffffffffffffffffffffffff1673ffffffffffffffffffffffffffffffffffffffff163373ffffffffffffffffffffffffffffffffffffffff16141515610773577ffffffffffffffffffffffffffffffffffffffffffffffffffffffffffffffffc905061089d565b6000600281111561078057fe5b600260149054906101000a900460ff16600281111561079b57fe5b1415156107ca577ffffffffffffffffffffffffffffffffffffffffffffffffffffffffffffffffb905061089d565b6008544210156107fc577ffffffffffffffffffffffffffffffffffffffffffffffffffffffffffffffffe905061089d565b6001600260146101000a81548160ff0219169083600281111561081b57fe5b02179055506000809054906101000a900473ffffffffffffffffffffffffffffffffffffffff1673ffffffffffffffffffffffffffffffffffffffff166108fc3073ffffffffffffffffffffffffffffffffffffffff16319081150290604051600060405180830381858888f19350505050151561089857600080fd5b600190505b90565b60008292508191507fffffffffffffffffffffffffffffffffffffffffffffffffffffffffffffffff905092915050565b7fffffffffffffffffffffffffffffffffffffffffffffffffffffffffffffffff81565b7ffffffffffffffffffffffffffffffffffffffffffffffffffffffffffffffffc81565b7ffffffffffffffffffffffffffffffffffffffffffffffffffffffffffffffffb81565b6000809054906101000a900473ffffffffffffffffffffffffffffffffffffffff1681565b60075481565b60065481565b7ffffffffffffffffffffffffffffffffffffffffffffffffffffffffffffffff681565b600160009054906101000a900473ffffffffffffffffffffffffffffffffffffffff1681565b60035481565b7ffffffffffffffffffffffffffffffffffffffffffffffffffffffffffffffffd81565b600181565b6000600160009054906101000a900473ffffffffffffffffffffffffffffffffffffffff1673ffffffffffffffffffffffffffffffffffffffff163373ffffffffffffffffffffffffffffffffffffffff16141515610a68577ffffffffffffffffffffffffffffffffffffffffffffffffffffffffffffffffc9050610ba6565b60006002811115610a7557fe5b600260149054906101000a900460ff166002811115610a9057fe5b141515610abf577ffffffffffffffffffffffffffffffffffffffffffffffffffffffffffffffffb9050610ba6565b610ad6600954600854610c7090919063ffffffff16565b421015610b05577fffffffffffffffffffffffffffffffffffffffffffffffffffffffffffffffff9050610ba6565b60028060146101000a81548160ff02191690836002811115610b2357fe5b0217905550600260009054906101000a900473ffffffffffffffffffffffffffffffffffffffff1673ffffffffffffffffffffffffffffffffffffffff166108fc3073ffffffffffffffffffffffffffffffffffffffff16319081150290604051600060405180830381858888f193505050501515610ba157600080fd5b600190505b90565b60055481565b60008060008060008060008060008060008060009054906101000a900473ffffffffffffffffffffffffffffffffffffffff16600160009054906101000a900473ffffffffffffffffffffffffffffffffffffffff16600260009054906101000a900473ffffffffffffffffffffffffffffffffffffffff16600260149054906101000a900460ff166004546005546006546007546008546009546003549a509a509a509a509a509a509a509a509a509a509a50909192939495969798999a565b6000808284019050838110151515610c8457fe5b80915050929150505600a165627a7a72305820bc06527d1bdf283eaa43ebc338b49272e6540862596ceb3d856d74ec5e8608420029a165627a7a723058203f4b26abfb277d074e9ced8b4b13d842433f44c2633634e3eb8603f2622626b60029",
  "source": "/* Contract to manage UCD loan contracts\n    TODO: add reentrancy protection\n    TODO: consider to add early repayment\n    TODO: consider to allow partial repayment (eg. 60% repaid, 40% default )\n    TODO: add loanId to disbursement, repay and collection narrative\n    TODO: check if we could do repayment without \"direct\" access to borrower's UCD balance\n           eg. transfer UCD to EthBackedLoan initiates repayment? or using ECR20 transfer approval?\n           it wouldn't restrict access more but would be better seperation of functions\n*/\npragma solidity ^0.4.11;\nimport \"./Owned.sol\";\nimport \"./SafeMath.sol\";\nimport \"./Rates.sol\";\nimport \"./TokenUcd.sol\";\nimport \"./EthBackedLoan.sol\";\n\ncontract LoanManager is owned {\n    using SafeMath for uint256;\n\n    int8 public constant SUCCESS = 1;\n    int8 public constant ERR_NOT_OWNER = -2;\n    int8 public constant ERR_NO_LOAN = -3;\n    int8 public constant ERR_LOAN_NOT_OPEN = -4;\n\n    int8 public constant ERR_EXT_ERRCODE_BASE = -10;\n\n    Rates public rates; // instance of ETH/USD rate provider contract\n                        // TODO:  setter to be able to change? (consider trust questions)\n    TokenUcd public tokenUcd; // instance of UCD token contract\n\n    struct Product {\n        uint term;\n        uint discountRate; // discountRate in parts per million , ie. 10,000 = 1%\n        uint loanCollateralRatio;  // ucd loan amount / colleteral usd value\n                                    // in parts per million , ie. 10,000 = 1%\n        uint minDisbursedAmountInUcd; // with 4 decimals, ie. 31000 = 3.1UCD\n        uint repayPeriod; // number of seconds after maturity before collect can be executed\n        bool isActive;\n    }\n\n    Product[] public products;\n\n    enum LoanState { Open, Repaid, Defaulted }\n\n    struct LoanPointer { // TODO: better name for it...\n        address contractAddress;\n        LoanState loanState;  // Redundant, stored in loan contract as well but saves us to instantiate each contract when need to iterate through\n    }\n\n    LoanPointer[] public loanPointers;\n    mapping(address => uint[]) public m_loanPointers;  // owner account address =>  array of loanContracts array idx-s (idx + 1)\n\n    function LoanManager(address _tokenUcdAddress, address _ratesAddress) owned() {\n        tokenUcd = TokenUcd(_tokenUcdAddress);\n        rates = Rates(_ratesAddress);\n    }\n\n    function getLoanCount() constant returns (uint ct) {\n        return loanPointers.length;\n    }\n\n    function getProductCount() constant returns (uint ct) {\n        return products.length;\n    }\n\n    function getLoanIds(address borrower) constant returns (uint[] loans) {\n        return m_loanPointers[borrower];\n    }\n\n    function addProduct(uint _term, uint _discountRate, uint _loanCollateralRatio,\n            uint _minDisbursedAmountInUcd, uint _repayPeriod, bool _isActive) onlyOwner returns (uint newProductId) {\n        newProductId = products.push( Product( {term: _term, discountRate: _discountRate,\n                loanCollateralRatio: _loanCollateralRatio, minDisbursedAmountInUcd: _minDisbursedAmountInUcd,\n                repayPeriod: _repayPeriod, isActive: _isActive }) );\n\n        return newProductId - 1;\n        // TODO: emit event\n    }\n\n    function disableProduct(uint8 productId) onlyOwner {\n        products[productId].isActive = false;\n        // TODO: emit event\n    }\n\n    function enableProduct(uint8 productId) onlyOwner {\n        products[productId].isActive = true;\n        // TODO: emit event\n    }\n\n    event e_newLoan(uint8 productId, uint loanId, address borrower, address loanContract, uint disbursedLoanInUcd );\n    function newEthBackedLoan(uint8 productId) payable {\n        require( products[productId].isActive); // valid productId?\n\n        // calculate UCD loan values based on ETH sent in with Tx\n        uint usdcValue = rates.convertWeiToUsdc(msg.value);\n        uint ucdDueAtMaturity = usdcValue.mul(products[productId].loanCollateralRatio).roundedDiv(100000000);\n        ucdDueAtMaturity = ucdDueAtMaturity * 100; // rounding 4 decimals value to 2 decimals. no safe mul needed b/c of prev divide\n\n        uint mul = products[productId].loanCollateralRatio.mul(products[productId].discountRate) / 1000000;\n        uint disbursedLoanInUcd = usdcValue.mul(mul).roundedDiv(100000000);\n        disbursedLoanInUcd = disbursedLoanInUcd * 100; // rounding 4 decimals value to 2 decimals. no safe mul needed b/c of prev divide\n\n        require(disbursedLoanInUcd >= products[productId].minDisbursedAmountInUcd);\n\n        // Create new loan contract\n        uint loanId = loanPointers.push( LoanPointer(address(0), LoanState.Open) ) - 1;\n        // TODO: check if it's better to pass productId or Product struct\n        address loanContractAddress = new EthBackedLoan(loanId, msg.sender, products[productId].term,\n                    disbursedLoanInUcd, ucdDueAtMaturity, products[productId].repayPeriod);\n        loanPointers[loanId].contractAddress = loanContractAddress;\n\n        // Store ref to new loan contract in this contract\n        m_loanPointers[msg.sender].push(loanId );\n\n        // Send ETH collateral to loan contract\n        loanContractAddress.transfer(msg.value);\n\n        // Issue UCD and send to borrower\n        int8 res = tokenUcd.issueAndDisburseUcd( msg.sender, ucdDueAtMaturity, disbursedLoanInUcd, \"Loan disbursement\");\n        if( res != tokenUcd.SUCCESS()) {\n            revert(); // can't return error code b/c changes need to be reverted\n        }\n\n        e_newLoan(productId, loanId, msg.sender, loanContractAddress, disbursedLoanInUcd );\n    }\n\n    event e_error(int8 errorCode);\n    event e_repayed(address loanContractAddress, address borrower);\n    function repay(uint loanId) returns (int8 result) {\n        // TODO: remove contract from loanPointers & m_loanPointer on SUCCESS\n        if(loanPointers.length < loanId + 1) {\n            e_error(ERR_NO_LOAN);\n            return ERR_NO_LOAN;\n        }\n\n        if(loanPointers[loanId].loanState != LoanState.Open) {\n            e_error(ERR_LOAN_NOT_OPEN);\n            return ERR_LOAN_NOT_OPEN;\n        }\n\n        if(m_loanPointers[msg.sender].length == 0) {\n            e_error(ERR_NOT_OWNER);\n            return ERR_NOT_OWNER;\n        }\n\n        address loanContractAddress = loanPointers[ loanId ].contractAddress;\n        EthBackedLoan loanContract = EthBackedLoan( loanContractAddress );\n\n        if(loanContract.owner() != msg.sender) {\n            e_error(ERR_NOT_OWNER);\n            return ERR_NOT_OWNER;\n        }\n\n        int8 res = tokenUcd.repayAndBurnUcd(msg.sender, loanContract.ucdDueAtMaturity(), \"Loan repayment\");\n        if(res != tokenUcd.SUCCESS() ) {\n            // no state changes can happen up to this point\n            // ie. no revert required\n            e_error(ERR_EXT_ERRCODE_BASE + res);\n            return ERR_EXT_ERRCODE_BASE + res;\n        }\n\n        res = loanContract.repay();\n        if (res != loanContract.SUCCESS() ) {\n            // revert required as previous steps made state changes\n           revert();\n        }\n\n        loanPointers[loanId].loanState = LoanState.Repaid;\n        e_repayed(loanContractAddress, loanContract.owner());\n        return SUCCESS;\n    }\n\n    event e_collected(address borrower, address loanContractAddress);\n    function collect(uint[] loanIds) returns (int8 result) {\n        /* when there are a lots of loans to be collected then\n             the client need to call it in batches to make sure tx won't exceed block gas limit.\n         Anyone can call it - can't cause harm as it only allows to collect loans which they are defaulted\n         TODO: remove contract from loanPointers & m_loanPointer on SUCCESS\n        */\n        if(loanPointers.length == 0) {\n            e_error(ERR_NO_LOAN);\n            return ERR_NO_LOAN;\n        }\n        for (uint i = 0; i < loanIds.length; i++) {\n            uint loanId = loanIds[i];\n            if (loanPointers.length <= loanId) {\n                e_error(ERR_NO_LOAN);\n                return ERR_NO_LOAN;\n            }\n            if(loanPointers[loanId].loanState != LoanState.Open) {\n                e_error(ERR_LOAN_NOT_OPEN);\n                return ERR_LOAN_NOT_OPEN;\n            }\n\n            address loanContractAddress = loanPointers[ loanId ].contractAddress;\n            EthBackedLoan loanContract = EthBackedLoan( loanContractAddress );\n\n            int8 res = loanContract.collect();\n            if (res != loanContract.SUCCESS() ) {\n                // if EthBackedLoan.collect returned an error then no state changes could have happen yet\n                // ie. no revert required\n                e_error(ERR_EXT_ERRCODE_BASE + res);\n                return ERR_EXT_ERRCODE_BASE + res;\n            }\n\n            loanPointers[loanId].loanState = LoanState.Defaulted;\n            e_collected(loanContract.owner(), loanContractAddress);\n        }\n        return SUCCESS;\n    }\n\n}\n",
  "sourcePath": "/Users/petro/ether/dcm-poc/contracts/LoanManager.sol",
  "compiler": {
    "name": "solc",
    "version": "0.4.18+commit.9cf6e910.Emscripten.clang"
  },
  "schemaVersion": "1.0.1",
  "updatedAt": "2017-11-02T15:35:42.727Z"
}