{
  "contractName": "LoanManager",
  "abi": [
    {
      "constant": false,
      "inputs": [
        {
          "name": "productId",
          "type": "uint8"
        }
      ],
      "name": "newEthBackedLoan",
      "outputs": [],
      "payable": true,
      "stateMutability": "payable",
      "type": "function"
    },
    {
      "constant": false,
      "inputs": [
        {
          "name": "loanId",
          "type": "uint256"
        }
      ],
      "name": "releaseCollateral",
      "outputs": [],
      "payable": false,
      "stateMutability": "nonpayable",
      "type": "function"
    },
    {
      "constant": true,
      "inputs": [],
      "name": "rates",
      "outputs": [
        {
          "name": "",
          "type": "address"
        }
      ],
      "payable": false,
      "stateMutability": "view",
      "type": "function"
    },
    {
      "constant": true,
      "inputs": [],
      "name": "getProductCount",
      "outputs": [
        {
          "name": "ct",
          "type": "uint256"
        }
      ],
      "payable": false,
      "stateMutability": "view",
      "type": "function"
    },
    {
      "constant": true,
      "inputs": [],
      "name": "getLoanCount",
      "outputs": [
        {
          "name": "ct",
          "type": "uint256"
        }
      ],
      "payable": false,
      "stateMutability": "view",
      "type": "function"
    },
    {
      "constant": false,
      "inputs": [
        {
          "name": "loanIds",
          "type": "uint256[]"
        }
      ],
      "name": "collect",
      "outputs": [],
      "payable": false,
      "stateMutability": "nonpayable",
      "type": "function"
    },
    {
      "constant": false,
      "inputs": [
        {
          "name": "_term",
          "type": "uint256"
        },
        {
          "name": "_discountRate",
          "type": "uint256"
        },
        {
          "name": "_collateralRatio",
          "type": "uint256"
        },
        {
          "name": "_minDisbursedAmount",
          "type": "uint256"
        },
        {
          "name": "_defaultingFee",
          "type": "uint256"
        },
        {
          "name": "_isActive",
          "type": "bool"
        }
      ],
      "name": "addProduct",
      "outputs": [
        {
          "name": "newProductId",
          "type": "uint256"
        }
      ],
      "payable": false,
      "stateMutability": "nonpayable",
      "type": "function"
    },
    {
      "constant": true,
      "inputs": [
        {
          "name": "borrower",
          "type": "address"
        }
      ],
      "name": "getLoanIds",
      "outputs": [
        {
          "name": "loans",
          "type": "uint256[]"
        }
      ],
      "payable": false,
      "stateMutability": "view",
      "type": "function"
    },
    {
      "constant": true,
      "inputs": [
        {
          "name": "",
          "type": "uint256"
        }
      ],
      "name": "products",
      "outputs": [
        {
          "name": "term",
          "type": "uint256"
        },
        {
          "name": "discountRate",
          "type": "uint256"
        },
        {
          "name": "collateralRatio",
          "type": "uint256"
        },
        {
          "name": "minDisbursedAmount",
          "type": "uint256"
        },
        {
          "name": "defaultingFeePt",
          "type": "uint256"
        },
        {
          "name": "isActive",
          "type": "bool"
        }
      ],
      "payable": false,
      "stateMutability": "view",
      "type": "function"
    },
    {
      "constant": true,
      "inputs": [],
      "name": "augmintToken",
      "outputs": [
        {
          "name": "",
          "type": "address"
        }
      ],
      "payable": false,
      "stateMutability": "view",
      "type": "function"
    },
    {
      "constant": true,
      "inputs": [],
      "name": "owner",
      "outputs": [
        {
          "name": "",
          "type": "address"
        }
      ],
      "payable": false,
      "stateMutability": "view",
      "type": "function"
    },
    {
      "constant": true,
      "inputs": [
        {
          "name": "",
          "type": "address"
        },
        {
          "name": "",
          "type": "uint256"
        }
      ],
      "name": "mLoans",
      "outputs": [
        {
          "name": "",
          "type": "uint256"
        }
      ],
      "payable": false,
      "stateMutability": "view",
      "type": "function"
    },
    {
      "constant": false,
      "inputs": [
        {
          "name": "productId",
          "type": "uint8"
        }
      ],
      "name": "enableProduct",
      "outputs": [],
      "payable": false,
      "stateMutability": "nonpayable",
      "type": "function"
    },
    {
      "constant": false,
      "inputs": [
        {
          "name": "productId",
          "type": "uint8"
        }
      ],
      "name": "disableProduct",
      "outputs": [],
      "payable": false,
      "stateMutability": "nonpayable",
      "type": "function"
    },
    {
      "constant": true,
      "inputs": [
        {
          "name": "",
          "type": "uint256"
        }
      ],
      "name": "loans",
      "outputs": [
        {
          "name": "borrower",
          "type": "address"
        },
        {
          "name": "state",
          "type": "uint8"
        },
        {
          "name": "collateralAmount",
          "type": "uint256"
        },
        {
          "name": "repaymentAmount",
          "type": "uint256"
        },
        {
          "name": "loanAmount",
          "type": "uint256"
        },
        {
          "name": "interestAmount",
          "type": "uint256"
        },
        {
          "name": "term",
          "type": "uint256"
        },
        {
          "name": "disbursementDate",
          "type": "uint256"
        },
        {
          "name": "maturity",
          "type": "uint256"
        },
        {
          "name": "defaultingFeePt",
          "type": "uint256"
        }
      ],
      "payable": false,
      "stateMutability": "view",
      "type": "function"
    },
    {
      "constant": false,
      "inputs": [
        {
          "name": "newOwner",
          "type": "address"
        }
      ],
      "name": "transferOwnership",
      "outputs": [],
      "payable": false,
      "stateMutability": "nonpayable",
      "type": "function"
    },
    {
      "inputs": [
        {
          "name": "_augmintTokenAddress",
          "type": "address"
        },
        {
          "name": "_ratesAddress",
          "type": "address"
        }
      ],
      "payable": false,
      "stateMutability": "nonpayable",
      "type": "constructor"
    },
    {
      "anonymous": false,
      "inputs": [
        {
          "indexed": false,
          "name": "productId",
          "type": "uint8"
        },
        {
          "indexed": false,
          "name": "loanId",
          "type": "uint256"
        },
        {
          "indexed": false,
          "name": "borrower",
          "type": "address"
        },
        {
          "indexed": false,
          "name": "collateralAmount",
          "type": "uint256"
        },
        {
          "indexed": false,
          "name": "loanAmount",
          "type": "uint256"
        },
        {
          "indexed": false,
          "name": "repaymentAmount",
          "type": "uint256"
        }
      ],
      "name": "NewLoan",
      "type": "event"
    },
    {
      "anonymous": false,
      "inputs": [
        {
          "indexed": false,
          "name": "loanId",
          "type": "uint256"
        },
        {
          "indexed": false,
          "name": "borrower",
          "type": "address"
        }
      ],
      "name": "LoanRepayed",
      "type": "event"
    },
    {
      "anonymous": false,
      "inputs": [
        {
          "indexed": true,
          "name": "loanId",
          "type": "uint256"
        },
        {
          "indexed": true,
          "name": "borrower",
          "type": "address"
        },
        {
          "indexed": false,
          "name": "collectedCollateral",
          "type": "uint256"
        },
        {
          "indexed": false,
          "name": "releasedCollateral",
          "type": "uint256"
        },
        {
          "indexed": false,
          "name": "defaultingFee",
          "type": "uint256"
        }
      ],
      "name": "LoanCollected",
      "type": "event"
    },
    {
      "anonymous": false,
      "inputs": [
        {
          "indexed": true,
          "name": "oldOwner",
          "type": "address"
        },
        {
          "indexed": true,
          "name": "newOwner",
          "type": "address"
        }
      ],
      "name": "NewOwner",
      "type": "event"
    }
  ],
  "bytecode": "0x6060604052341561000f57600080fd5b6040516040806120d283398101604052808051906020019091908051906020019091905050600073ffffffffffffffffffffffffffffffffffffffff166000809054906101000a900473ffffffffffffffffffffffffffffffffffffffff1673ffffffffffffffffffffffffffffffffffffffff1614151561009057600080fd5b336000806101000a81548173ffffffffffffffffffffffffffffffffffffffff021916908373ffffffffffffffffffffffffffffffffffffffff16021790555081600560006101000a81548173ffffffffffffffffffffffffffffffffffffffff021916908373ffffffffffffffffffffffffffffffffffffffff16021790555080600460006101000a81548173ffffffffffffffffffffffffffffffffffffffff021916908373ffffffffffffffffffffffffffffffffffffffff1602179055505050611f6f806101636000396000f3006060604052600436106100e6576000357c0100000000000000000000000000000000000000000000000000000000900463ffffffff1680631509c8cf146100eb57806339007b771461010657806343f48fbd146101295780634a348da91461017e57806352196812146101a757806357f46cbe146101d057806364858d21146101fe5780636b64c885146102645780637acc0b20146102f25780637b9b9c89146103505780638da5cb5b146103a55780639f4780b0146103fa578063c4e1c7cb14610450578063caa5436214610476578063e1ec3c681461049c578063f2fde38b1461054c575b600080fd5b610104600480803560ff16906020019091905050610585565b005b341561011157600080fd5b6101276004808035906020019091905050610c67565b005b341561013457600080fd5b61013c6110e3565b604051808273ffffffffffffffffffffffffffffffffffffffff1673ffffffffffffffffffffffffffffffffffffffff16815260200191505060405180910390f35b341561018957600080fd5b610191611109565b6040518082815260200191505060405180910390f35b34156101b257600080fd5b6101ba611116565b6040518082815260200191505060405180910390f35b34156101db57600080fd5b6101fc60048080359060200190820180359060200191909192905050611123565b005b341561020957600080fd5b61024e6004808035906020019091908035906020019091908035906020019091908035906020019091908035906020019091908035151590602001909190505061170e565b6040518082815260200191505060405180910390f35b341561026f57600080fd5b61029b600480803573ffffffffffffffffffffffffffffffffffffffff1690602001909190505061182a565b6040518080602001828103825283818151815260200191508051906020019060200280838360005b838110156102de5780820151818401526020810190506102c3565b505050509050019250505060405180910390f35b34156102fd57600080fd5b61031360048080359060200190919050506118c7565b6040518087815260200186815260200185815260200184815260200183815260200182151515158152602001965050505050505060405180910390f35b341561035b57600080fd5b61036361191f565b604051808273ffffffffffffffffffffffffffffffffffffffff1673ffffffffffffffffffffffffffffffffffffffff16815260200191505060405180910390f35b34156103b057600080fd5b6103b8611945565b604051808273ffffffffffffffffffffffffffffffffffffffff1673ffffffffffffffffffffffffffffffffffffffff16815260200191505060405180910390f35b341561040557600080fd5b61043a600480803573ffffffffffffffffffffffffffffffffffffffff1690602001909190803590602001909190505061196a565b6040518082815260200191505060405180910390f35b341561045b57600080fd5b610474600480803560ff1690602001909190505061199b565b005b341561048157600080fd5b61049a600480803560ff16906020019091905050611a34565b005b34156104a757600080fd5b6104bd6004808035906020019091905050611ace565b604051808b73ffffffffffffffffffffffffffffffffffffffff1673ffffffffffffffffffffffffffffffffffffffff1681526020018a60028111156104ff57fe5b60ff1681526020018981526020018881526020018781526020018681526020018581526020018481526020018381526020018281526020019a505050505050505050505060405180910390f35b341561055757600080fd5b610583600480803573ffffffffffffffffffffffffffffffffffffffff16906020019091905050611b5e565b005b60008060008060008060018760ff168154811015156105a057fe5b906000526020600020906006020160050160009054906101000a900460ff1615156105ca57600080fd5b600460009054906101000a900473ffffffffffffffffffffffffffffffffffffffff1673ffffffffffffffffffffffffffffffffffffffff166382f5e31b600560009054906101000a900473ffffffffffffffffffffffffffffffffffffffff1673ffffffffffffffffffffffffffffffffffffffff166333a263e66000604051602001526040518163ffffffff167c0100000000000000000000000000000000000000000000000000000000028152600401602060405180830381600087803b151561069657600080fd5b6102c65a03f115156106a757600080fd5b50505060405180519050346000604051602001526040518363ffffffff167c010000000000000000000000000000000000000000000000000000000002815260040180836000191660001916815260200182815260200192505050602060405180830381600087803b151561071b57600080fd5b6102c65a03f1151561072c57600080fd5b5050506040518051905095506107846305f5e10061077660018a60ff1681548110151561075557fe5b90600052602060002090600602016002015489611cb390919063ffffffff16565b611ce990919063ffffffff16565b9450606485029450620f42406107e960018960ff168154811015156107a557fe5b90600052602060002090600602016001015460018a60ff168154811015156107c957fe5b906000526020600020906006020160020154611cb390919063ffffffff16565b8115156107f257fe5b04935061081e6305f5e1006108108689611cb390919063ffffffff16565b611ce990919063ffffffff16565b925060648302925060018760ff1681548110151561083857fe5b906000526020600020906006020160030154831015151561085857600080fd5b60016002805480600101828161086e9190611d85565b91600052602060002090600902016000610140604051908101604052803373ffffffffffffffffffffffffffffffffffffffff168152602001600060028111156108b457fe5b81526020013481526020018a81526020018881526020016108de898c611d2d90919063ffffffff16565b815260200160018d60ff168154811015156108f557fe5b906000526020600020906006020160000154815260200142815260200160018d60ff1681548110151561092457fe5b9060005260206000209060060201600001544201815260200160018d60ff1681548110151561094f57fe5b906000526020600020906006020160040154815250909190915060008201518160000160006101000a81548173ffffffffffffffffffffffffffffffffffffffff021916908373ffffffffffffffffffffffffffffffffffffffff16021790555060208201518160000160146101000a81548160ff021916908360028111156109d457fe5b021790555060408201518160010155606082015181600201556080820151816003015560a0820151816004015560c0820151816005015560e08201518160060155610100820151816007015561012082015181600801555050039150600360003373ffffffffffffffffffffffffffffffffffffffff1673ffffffffffffffffffffffffffffffffffffffff1681526020019081526020016000208054806001018281610a819190611db7565b91600052602060002090016000849091909150555082851115610ab457610ab18386611d2d90919063ffffffff16565b90505b600560009054906101000a900473ffffffffffffffffffffffffffffffffffffffff1673ffffffffffffffffffffffffffffffffffffffff1663c28f37933385846040518463ffffffff167c0100000000000000000000000000000000000000000000000000000000028152600401808473ffffffffffffffffffffffffffffffffffffffff1673ffffffffffffffffffffffffffffffffffffffff16815260200183815260200182815260200180602001828103825260118152602001807f4c6f616e2064697362757273656d656e74000000000000000000000000000000815250602001945050505050600060405180830381600087803b1515610bb957600080fd5b6102c65a03f11515610bca57600080fd5b5050507f05df3ac6f5398fdac3e2258f4942b47e940eb01f2efb7e5985f510dba0990c3d87833334878a604051808760ff1660ff1681526020018681526020018573ffffffffffffffffffffffffffffffffffffffff1673ffffffffffffffffffffffffffffffffffffffff168152602001848152602001838152602001828152602001965050505050505060405180910390a150505050505050565b3373ffffffffffffffffffffffffffffffffffffffff16600282815481101515610c8d57fe5b906000526020600020906009020160000160009054906101000a900473ffffffffffffffffffffffffffffffffffffffff1673ffffffffffffffffffffffffffffffffffffffff161480610d2e5750600560009054906101000a900473ffffffffffffffffffffffffffffffffffffffff1673ffffffffffffffffffffffffffffffffffffffff163373ffffffffffffffffffffffffffffffffffffffff16145b1515610d3957600080fd5b60006002811115610d4657fe5b600282815481101515610d5557fe5b906000526020600020906009020160000160149054906101000a900460ff166002811115610d7f57fe5b141515610d8b57600080fd5b600281815481101515610d9a57fe5b9060005260206000209060090201600701544211151515610dba57600080fd5b6001600282815481101515610dcb57fe5b906000526020600020906009020160000160146101000a81548160ff02191690836002811115610df757fe5b0217905550600560009054906101000a900473ffffffffffffffffffffffffffffffffffffffff1673ffffffffffffffffffffffffffffffffffffffff1663c613aa6a600283815481101515610e4957fe5b906000526020600020906009020160000160009054906101000a900473ffffffffffffffffffffffffffffffffffffffff16600284815481101515610e8a57fe5b906000526020600020906009020160020154600285815481101515610eab57fe5b9060005260206000209060090201600401546040518463ffffffff167c0100000000000000000000000000000000000000000000000000000000028152600401808473ffffffffffffffffffffffffffffffffffffffff1673ffffffffffffffffffffffffffffffffffffffff168152602001838152602001828152602001806020018281038252600e8152602001807f4c6f616e2072657061796d656e74000000000000000000000000000000000000815250602001945050505050600060405180830381600087803b1515610f8157600080fd5b6102c65a03f11515610f9257600080fd5b505050600281815481101515610fa457fe5b906000526020600020906009020160000160009054906101000a900473ffffffffffffffffffffffffffffffffffffffff1673ffffffffffffffffffffffffffffffffffffffff166108fc600283815481101515610ffe57fe5b9060005260206000209060090201600101549081150290604051600060405180830381858888f19350505050151561103557600080fd5b7f0bc2fda5eb321ed5f7471e814a5c00752523b3ba8fbfeb905e1b8707eefa16c58160028381548110151561106657fe5b906000526020600020906009020160000160009054906101000a900473ffffffffffffffffffffffffffffffffffffffff16604051808381526020018273ffffffffffffffffffffffffffffffffffffffff1673ffffffffffffffffffffffffffffffffffffffff1681526020019250505060405180910390a150565b600460009054906101000a900473ffffffffffffffffffffffffffffffffffffffff1681565b6000600180549050905090565b6000600280549050905090565b600080600080600080600095505b8787905086101561170457878787818110151561114a57fe5b9050602002013594506000600281111561116057fe5b60028681548110151561116f57fe5b906000526020600020906009020160000160149054906101000a900460ff16600281111561119957fe5b1415156111a557600080fd5b6002858154811015156111b457fe5b90600052602060002090600902016007015442101515156111d457600080fd5b600280868154811015156111e457fe5b906000526020600020906009020160000160146101000a81548160ff0219169083600281111561121057fe5b021790555061127d620f424061126f60028881548110151561122e57fe5b90600052602060002090600902016008015460028981548110151561124f57fe5b906000526020600020906009020160010154611cb390919063ffffffff16565b611d4990919063ffffffff16565b935061141d84600460009054906101000a900473ffffffffffffffffffffffffffffffffffffffff1673ffffffffffffffffffffffffffffffffffffffff16635c481d8b600560009054906101000a900473ffffffffffffffffffffffffffffffffffffffff1673ffffffffffffffffffffffffffffffffffffffff166333a263e66000604051602001526040518163ffffffff167c0100000000000000000000000000000000000000000000000000000000028152600401602060405180830381600087803b151561134f57600080fd5b6102c65a03f1151561136057600080fd5b5050506040518051905060028a81548110151561137957fe5b9060005260206000209060090201600201546000604051602001526040518363ffffffff167c010000000000000000000000000000000000000000000000000000000002815260040180836000191660001916815260200182815260200192505050602060405180830381600087803b15156113f457600080fd5b6102c65a03f1151561140557600080fd5b50505060405180519050611d6490919063ffffffff16565b925060028581548110151561142e57fe5b9060005260206000209060090201600101548310156114fd5761147a8360028781548110151561145a57fe5b906000526020600020906009020160010154611d2d90919063ffffffff16565b915060028581548110151561148b57fe5b906000526020600020906009020160000160009054906101000a900473ffffffffffffffffffffffffffffffffffffffff1673ffffffffffffffffffffffffffffffffffffffff166108fc839081150290604051600060405180830381858888f1935050505015156114fc57600080fd5b5b6115308260028781548110151561151057fe5b906000526020600020906009020160010154611d2d90919063ffffffff16565b9050600560009054906101000a900473ffffffffffffffffffffffffffffffffffffffff1673ffffffffffffffffffffffffffffffffffffffff166108fc829081150290604051600060405180830381858888f19350505050151561159457600080fd5b600560009054906101000a900473ffffffffffffffffffffffffffffffffffffffff1673ffffffffffffffffffffffffffffffffffffffff1663c06ec4bc6002878154811015156115e157fe5b9060005260206000209060090201600401546040518263ffffffff167c010000000000000000000000000000000000000000000000000000000002815260040180828152602001915050600060405180830381600087803b151561164457600080fd5b6102c65a03f1151561165557600080fd5b50505060028581548110151561166757fe5b906000526020600020906009020160000160009054906101000a900473ffffffffffffffffffffffffffffffffffffffff1673ffffffffffffffffffffffffffffffffffffffff16857f328dba6669445381058bdb02ebe2ec93eb6f203f283073dee9b206720390f10b83858860405180848152602001838152602001828152602001935050505060405180910390a38580600101965050611131565b5050505050505050565b60008060009054906101000a900473ffffffffffffffffffffffffffffffffffffffff1673ffffffffffffffffffffffffffffffffffffffff163373ffffffffffffffffffffffffffffffffffffffff1614151561176b57600080fd5b6001805480600101828161177f9190611de3565b9160005260206000209060060201600060c0604051908101604052808b81526020018a81526020018981526020018881526020018781526020018615158152509091909150600082015181600001556020820151816001015560408201518160020155606082015181600301556080820151816004015560a08201518160050160006101000a81548160ff021916908315150217905550505090506001810390509695505050505050565b611832611e15565b600360008373ffffffffffffffffffffffffffffffffffffffff1673ffffffffffffffffffffffffffffffffffffffff1681526020019081526020016000208054806020026020016040519081016040528092919081815260200182805480156118bb57602002820191906000526020600020905b8154815260200190600101908083116118a7575b50505050509050919050565b6001818154811015156118d657fe5b90600052602060002090600602016000915090508060000154908060010154908060020154908060030154908060040154908060050160009054906101000a900460ff16905086565b600560009054906101000a900473ffffffffffffffffffffffffffffffffffffffff1681565b6000809054906101000a900473ffffffffffffffffffffffffffffffffffffffff1681565b60036020528160005260406000208181548110151561198557fe5b9060005260206000209001600091509150505481565b6000809054906101000a900473ffffffffffffffffffffffffffffffffffffffff1673ffffffffffffffffffffffffffffffffffffffff163373ffffffffffffffffffffffffffffffffffffffff161415156119f657600080fd5b6001808260ff16815481101515611a0957fe5b906000526020600020906006020160050160006101000a81548160ff02191690831515021790555050565b6000809054906101000a900473ffffffffffffffffffffffffffffffffffffffff1673ffffffffffffffffffffffffffffffffffffffff163373ffffffffffffffffffffffffffffffffffffffff16141515611a8f57600080fd5b600060018260ff16815481101515611aa357fe5b906000526020600020906006020160050160006101000a81548160ff02191690831515021790555050565b600281815481101515611add57fe5b90600052602060002090600902016000915090508060000160009054906101000a900473ffffffffffffffffffffffffffffffffffffffff16908060000160149054906101000a900460ff1690806001015490806002015490806003015490806004015490806005015490806006015490806007015490806008015490508a565b6000809054906101000a900473ffffffffffffffffffffffffffffffffffffffff1673ffffffffffffffffffffffffffffffffffffffff163373ffffffffffffffffffffffffffffffffffffffff16141515611bb957600080fd5b600073ffffffffffffffffffffffffffffffffffffffff168173ffffffffffffffffffffffffffffffffffffffff1614151515611bf557600080fd5b8073ffffffffffffffffffffffffffffffffffffffff166000809054906101000a900473ffffffffffffffffffffffffffffffffffffffff1673ffffffffffffffffffffffffffffffffffffffff167f70aea8d848e8a90fb7661b227dc522eb6395c3dac71b63cb59edd5c9899b236460405160405180910390a3806000806101000a81548173ffffffffffffffffffffffffffffffffffffffff021916908373ffffffffffffffffffffffffffffffffffffffff16021790555050565b60008082840290506000841480611cd45750828482811515611cd157fe5b04145b1515611cdf57600080fd5b8091505092915050565b6000808284811515611cf757fe5b049050600283811515611d0657fe5b048385811515611d1257fe5b06101515611d235780806001019150505b8091505092915050565b6000828211151515611d3e57600080fd5b818303905092915050565b6000808284811515611d5757fe5b0490508091505092915050565b6000808284019050838110151515611d7b57600080fd5b8091505092915050565b815481835581811511611db257600902816009028360005260206000209182019101611db19190611e29565b5b505050565b815481835581811511611dde57818360005260206000209182019101611ddd9190611ec3565b5b505050565b815481835581811511611e1057600602816006028360005260206000209182019101611e0f9190611ee8565b5b505050565b602060405190810160405280600081525090565b611ec091905b80821115611ebc57600080820160006101000a81549073ffffffffffffffffffffffffffffffffffffffff02191690556000820160146101000a81549060ff02191690556001820160009055600282016000905560038201600090556004820160009055600582016000905560068201600090556007820160009055600882016000905550600901611e2f565b5090565b90565b611ee591905b80821115611ee1576000816000905550600101611ec9565b5090565b90565b611f4091905b80821115611f3c5760008082016000905560018201600090556002820160009055600382016000905560048201600090556005820160006101000a81549060ff021916905550600601611eee565b5090565b905600a165627a7a72305820cd0e3790a2fdf003127eacd4f910eddc8eeb17ba389f691475bdb626bf5bb3510029",
  "source": "/* Contract to manage Acd loan contracts\n    TODO: add loanId to disbursement, repay and collection narrative\n*/\npragma solidity 0.4.18;\n\nimport \"./generic/Owned.sol\";\nimport \"./Rates.sol\";\nimport \"./generic/AugmintToken.sol\"; /* TODO: shall we use AugmintTokenInterface instead? */\nimport \"./interfaces/LoanManagerInterface.sol\";\n\n\ncontract LoanManager is LoanManagerInterface {\n    Rates public rates; // instance of ETH/pegged currency rate provider contract\n    AugmintToken public augmintToken; // instance of token contract\n\n    event NewLoan(uint8 productId, uint loanId, address borrower, uint collateralAmount, uint loanAmount,\n        uint repaymentAmount);\n\n    event LoanRepayed(uint loanId, address borrower);\n\n    event LoanCollected(uint indexed loanId, address indexed borrower, uint collectedCollateral,\n        uint releasedCollateral, uint defaultingFee);\n\n    function LoanManager(address _augmintTokenAddress, address _ratesAddress) public Owned() {\n        augmintToken = AugmintToken(_augmintTokenAddress);\n        rates = Rates(_ratesAddress);\n    }\n\n    function getLoanCount() external view returns (uint ct) {\n        return loans.length;\n    }\n\n    function getProductCount() external view returns (uint ct) {\n        return products.length;\n    }\n\n    function getLoanIds(address borrower) external view returns (uint[] loans) {\n        return mLoans[borrower];\n    }\n\n    function addProduct(uint _term, uint _discountRate, uint _collateralRatio, uint _minDisbursedAmount,\n        uint _defaultingFee, bool _isActive) external onlyOwner returns (uint newProductId) {\n        newProductId = products.push(\n            LoanProduct(_term, _discountRate, _collateralRatio, _minDisbursedAmount, _defaultingFee, _isActive)\n        );\n\n        return newProductId - 1;\n        // TODO: emit event\n    }\n\n    function disableProduct(uint8 productId) external onlyOwner {\n        products[productId].isActive = false;\n        // TODO: emit event\n    }\n\n    function enableProduct(uint8 productId) external onlyOwner {\n        products[productId].isActive = true;\n        // TODO: emit event\n    }\n\n    function newEthBackedLoan(uint8 productId) external payable {\n        require(products[productId].isActive); // valid productId?\n\n        // calculate loan values based on ETH sent in with Tx\n        uint tokenValue = rates.convertFromWei(augmintToken.peggedSymbol(), msg.value);\n        uint repaymentAmount = tokenValue.mul(products[productId].collateralRatio).roundedDiv(100000000);\n        repaymentAmount = repaymentAmount * 100;  // rounding 4 decimals value to 2 decimals.\n                                        // no safe mul needed b/c of prev divide\n\n        uint mul = products[productId].collateralRatio.mul(products[productId].discountRate) / 1000000;\n        uint loanAmount = tokenValue.mul(mul).roundedDiv(100000000);\n        loanAmount = loanAmount * 100;    // rounding 4 decimals value to 2 decimals.\n                                                    // no safe mul needed b/c of prev divide\n\n        require(loanAmount >= products[productId].minDisbursedAmount);\n\n        // Create new loan\n        uint loanId = loans.push(\n            LoanData(msg.sender, LoanState.Open, msg.value, repaymentAmount, loanAmount,\n                repaymentAmount.sub(loanAmount), products[productId].term, now, now + products[productId].term,\n                products[productId].defaultingFeePt)\n            ) - 1;\n\n        // Store ref to new loan\n        mLoans[msg.sender].push(loanId);\n\n        // Issue ACD and send to borrower\n        uint interestAmount;\n        if (repaymentAmount > loanAmount) {\n            interestAmount = repaymentAmount.sub(loanAmount);\n        }\n        augmintToken.issueAndDisburse(msg.sender, loanAmount, interestAmount, \"Loan disbursement\");\n\n        NewLoan(productId, loanId, msg.sender, msg.value, loanAmount, repaymentAmount);\n    }\n\n    function releaseCollateral(uint loanId) external {\n        require(loans[loanId].borrower == msg.sender || msg.sender == address(augmintToken));\n        require(loans[loanId].state == LoanState.Open);\n        require(now <= loans[loanId].maturity);\n        loans[loanId].state = LoanState.Repaid;\n        augmintToken.repayAndBurn(loans[loanId].borrower, loans[loanId].repaymentAmount,\n            loans[loanId].interestAmount, \"Loan repayment\");\n        loans[loanId].borrower.transfer(loans[loanId].collateralAmount); // send back ETH collateral\n\n        LoanRepayed(loanId, loans[loanId].borrower);\n    }\n\n    function collect(uint[] loanIds) external {\n        /* when there are a lots of loans to be collected then\n             the client need to call it in batches to make sure tx won't exceed block gas limit.\n         Anyone can call it - can't cause harm as it only allows to collect loans which they are defaulted\n        */\n        for (uint i = 0; i < loanIds.length; i++) {\n            uint loanId = loanIds[i];\n            require(loans[loanId].state == LoanState.Open);\n            require(now >= loans[loanId].maturity);\n            loans[loanId].state = LoanState.Defaulted;\n            // send ETH collateral to augmintToken reserve\n            uint defaultingFee = loans[loanId].collateralAmount.mul(loans[loanId].defaultingFeePt).div(1000000);\n            uint coveringValue = rates.convertToWei(augmintToken.peggedSymbol(), loans[loanId].repaymentAmount)\n                .add(defaultingFee);\n            uint releasedCollateral;\n            if (coveringValue < loans[loanId].collateralAmount) {\n                releasedCollateral = loans[loanId].collateralAmount.sub(coveringValue);\n                loans[loanId].borrower.transfer(releasedCollateral);\n            }\n            uint collectedCollateral = loans[loanId].collateralAmount.sub(releasedCollateral);\n            address(augmintToken).transfer(collectedCollateral);\n\n            // move interest from InterestPoolAccount to MIR (augmintToken reserve)\n            augmintToken.moveCollectedInterest(loans[loanId].interestAmount);\n            LoanCollected(loanId, loans[loanId].borrower, collectedCollateral, releasedCollateral, defaultingFee);\n        }\n\n    }\n\n}\n",
  "sourcePath": "/Users/petro/ether/dcm-poc/contracts/LoanManager.sol",
  "compiler": {
    "name": "solc",
    "version": "0.4.18+commit.9cf6e910.Emscripten.clang"
  },
  "schemaVersion": "1.0.1",
  "updatedAt": "2018-01-10T20:22:39.485Z"
}