{
  "contractName": "LoanManager",
  "abi": [
    {
      "constant": false,
      "inputs": [
        {
          "name": "agent",
          "type": "address"
        },
        {
          "name": "requiredPermissions",
          "type": "bytes32[]"
        }
      ],
      "name": "revokeMulitplePermissions",
      "outputs": [],
      "payable": false,
      "stateMutability": "nonpayable",
      "type": "function"
    },
    {
      "constant": true,
      "inputs": [],
      "name": "monetarySupervisor",
      "outputs": [
        {
          "name": "",
          "type": "address"
        }
      ],
      "payable": false,
      "stateMutability": "view",
      "type": "function"
    },
    {
      "constant": true,
      "inputs": [],
      "name": "rates",
      "outputs": [
        {
          "name": "",
          "type": "address"
        }
      ],
      "payable": false,
      "stateMutability": "view",
      "type": "function"
    },
    {
      "constant": true,
      "inputs": [
        {
          "name": "",
          "type": "address"
        },
        {
          "name": "",
          "type": "bytes32"
        }
      ],
      "name": "permissions",
      "outputs": [
        {
          "name": "",
          "type": "bool"
        }
      ],
      "payable": false,
      "stateMutability": "view",
      "type": "function"
    },
    {
      "constant": true,
      "inputs": [],
      "name": "interestEarnedAccount",
      "outputs": [
        {
          "name": "",
          "type": "address"
        }
      ],
      "payable": false,
      "stateMutability": "view",
      "type": "function"
    },
    {
      "constant": false,
      "inputs": [
        {
          "name": "agent",
          "type": "address"
        },
        {
          "name": "requiredPermission",
          "type": "bytes32"
        }
      ],
      "name": "revokePermission",
      "outputs": [],
      "payable": false,
      "stateMutability": "nonpayable",
      "type": "function"
    },
    {
      "constant": true,
      "inputs": [
        {
          "name": "",
          "type": "address"
        },
        {
          "name": "",
          "type": "uint256"
        }
      ],
      "name": "accountLoans",
      "outputs": [
        {
          "name": "",
          "type": "uint256"
        }
      ],
      "payable": false,
      "stateMutability": "view",
      "type": "function"
    },
    {
      "constant": true,
      "inputs": [
        {
          "name": "",
          "type": "uint256"
        }
      ],
      "name": "products",
      "outputs": [
        {
          "name": "minDisbursedAmount",
          "type": "uint256"
        },
        {
          "name": "term",
          "type": "uint32"
        },
        {
          "name": "discountRate",
          "type": "uint32"
        },
        {
          "name": "collateralRatio",
          "type": "uint32"
        },
        {
          "name": "defaultingFeePt",
          "type": "uint32"
        },
        {
          "name": "isActive",
          "type": "bool"
        }
      ],
      "payable": false,
      "stateMutability": "view",
      "type": "function"
    },
    {
      "constant": true,
      "inputs": [],
      "name": "augmintToken",
      "outputs": [
        {
          "name": "",
          "type": "address"
        }
      ],
      "payable": false,
      "stateMutability": "view",
      "type": "function"
    },
    {
      "constant": false,
      "inputs": [
        {
          "name": "agent",
          "type": "address"
        },
        {
          "name": "requiredPermissions",
          "type": "bytes32[]"
        }
      ],
      "name": "grantMultiplePermissions",
      "outputs": [],
      "payable": false,
      "stateMutability": "nonpayable",
      "type": "function"
    },
    {
      "constant": true,
      "inputs": [
        {
          "name": "",
          "type": "uint256"
        }
      ],
      "name": "loans",
      "outputs": [
        {
          "name": "collateralAmount",
          "type": "uint256"
        },
        {
          "name": "repaymentAmount",
          "type": "uint256"
        },
        {
          "name": "borrower",
          "type": "address"
        },
        {
          "name": "productId",
          "type": "uint32"
        },
        {
          "name": "state",
          "type": "uint8"
        },
        {
          "name": "maturity",
          "type": "uint40"
        }
      ],
      "payable": false,
      "stateMutability": "view",
      "type": "function"
    },
    {
      "constant": true,
      "inputs": [],
      "name": "CHUNK_SIZE",
      "outputs": [
        {
          "name": "",
          "type": "uint16"
        }
      ],
      "payable": false,
      "stateMutability": "view",
      "type": "function"
    },
    {
      "constant": false,
      "inputs": [
        {
          "name": "agent",
          "type": "address"
        },
        {
          "name": "requiredPermission",
          "type": "bytes32"
        }
      ],
      "name": "grantPermission",
      "outputs": [],
      "payable": false,
      "stateMutability": "nonpayable",
      "type": "function"
    },
    {
      "inputs": [
        {
          "name": "_augmintToken",
          "type": "address"
        },
        {
          "name": "_monetarySupervisor",
          "type": "address"
        },
        {
          "name": "_rates",
          "type": "address"
        },
        {
          "name": "_interestEarnedAccount",
          "type": "address"
        }
      ],
      "payable": false,
      "stateMutability": "nonpayable",
      "type": "constructor"
    },
    {
      "anonymous": false,
      "inputs": [
        {
          "indexed": false,
          "name": "productId",
          "type": "uint32"
        },
        {
          "indexed": false,
          "name": "loanId",
          "type": "uint256"
        },
        {
          "indexed": true,
          "name": "borrower",
          "type": "address"
        },
        {
          "indexed": false,
          "name": "collateralAmount",
          "type": "uint256"
        },
        {
          "indexed": false,
          "name": "loanAmount",
          "type": "uint256"
        },
        {
          "indexed": false,
          "name": "repaymentAmount",
          "type": "uint256"
        },
        {
          "indexed": false,
          "name": "maturity",
          "type": "uint40"
        }
      ],
      "name": "NewLoan",
      "type": "event"
    },
    {
      "anonymous": false,
      "inputs": [
        {
          "indexed": false,
          "name": "productId",
          "type": "uint32"
        },
        {
          "indexed": false,
          "name": "newState",
          "type": "bool"
        }
      ],
      "name": "LoanProductActiveStateChanged",
      "type": "event"
    },
    {
      "anonymous": false,
      "inputs": [
        {
          "indexed": false,
          "name": "productId",
          "type": "uint32"
        }
      ],
      "name": "LoanProductAdded",
      "type": "event"
    },
    {
      "anonymous": false,
      "inputs": [
        {
          "indexed": false,
          "name": "loanId",
          "type": "uint256"
        },
        {
          "indexed": false,
          "name": "borrower",
          "type": "address"
        }
      ],
      "name": "LoanRepayed",
      "type": "event"
    },
    {
      "anonymous": false,
      "inputs": [
        {
          "indexed": false,
          "name": "loanId",
          "type": "uint256"
        },
        {
          "indexed": true,
          "name": "borrower",
          "type": "address"
        },
        {
          "indexed": false,
          "name": "collectedCollateral",
          "type": "uint256"
        },
        {
          "indexed": false,
          "name": "releasedCollateral",
          "type": "uint256"
        },
        {
          "indexed": false,
          "name": "defaultingFee",
          "type": "uint256"
        }
      ],
      "name": "LoanCollected",
      "type": "event"
    },
    {
      "anonymous": false,
      "inputs": [
        {
          "indexed": true,
          "name": "agent",
          "type": "address"
        },
        {
          "indexed": false,
          "name": "grantedPermission",
          "type": "bytes32"
        }
      ],
      "name": "PermissionGranted",
      "type": "event"
    },
    {
      "anonymous": false,
      "inputs": [
        {
          "indexed": true,
          "name": "agent",
          "type": "address"
        },
        {
          "indexed": false,
          "name": "revokedPermission",
          "type": "bytes32"
        }
      ],
      "name": "PermissionRevoked",
      "type": "event"
    },
    {
      "constant": false,
      "inputs": [
        {
          "name": "term",
          "type": "uint32"
        },
        {
          "name": "discountRate",
          "type": "uint32"
        },
        {
          "name": "collateralRatio",
          "type": "uint32"
        },
        {
          "name": "minDisbursedAmount",
          "type": "uint256"
        },
        {
          "name": "defaultingFeePt",
          "type": "uint32"
        },
        {
          "name": "isActive",
          "type": "bool"
        }
      ],
      "name": "addLoanProduct",
      "outputs": [],
      "payable": false,
      "stateMutability": "nonpayable",
      "type": "function"
    },
    {
      "constant": false,
      "inputs": [
        {
          "name": "productId",
          "type": "uint32"
        },
        {
          "name": "newState",
          "type": "bool"
        }
      ],
      "name": "setLoanProductActiveState",
      "outputs": [],
      "payable": false,
      "stateMutability": "nonpayable",
      "type": "function"
    },
    {
      "constant": false,
      "inputs": [
        {
          "name": "productId",
          "type": "uint32"
        }
      ],
      "name": "newEthBackedLoan",
      "outputs": [],
      "payable": true,
      "stateMutability": "payable",
      "type": "function"
    },
    {
      "constant": false,
      "inputs": [
        {
          "name": "loanIds",
          "type": "uint256[]"
        }
      ],
      "name": "collect",
      "outputs": [],
      "payable": false,
      "stateMutability": "nonpayable",
      "type": "function"
    },
    {
      "constant": true,
      "inputs": [],
      "name": "getProductCount",
      "outputs": [
        {
          "name": "ct",
          "type": "uint256"
        }
      ],
      "payable": false,
      "stateMutability": "view",
      "type": "function"
    },
    {
      "constant": true,
      "inputs": [
        {
          "name": "offset",
          "type": "uint256"
        }
      ],
      "name": "getProducts",
      "outputs": [
        {
          "name": "response",
          "type": "uint256[7][100]"
        }
      ],
      "payable": false,
      "stateMutability": "view",
      "type": "function"
    },
    {
      "constant": true,
      "inputs": [],
      "name": "getLoanCount",
      "outputs": [
        {
          "name": "ct",
          "type": "uint256"
        }
      ],
      "payable": false,
      "stateMutability": "view",
      "type": "function"
    },
    {
      "constant": true,
      "inputs": [
        {
          "name": "offset",
          "type": "uint256"
        }
      ],
      "name": "getLoans",
      "outputs": [
        {
          "name": "response",
          "type": "uint256[10][100]"
        }
      ],
      "payable": false,
      "stateMutability": "view",
      "type": "function"
    },
    {
      "constant": true,
      "inputs": [
        {
          "name": "borrower",
          "type": "address"
        }
      ],
      "name": "getLoanCountForAddress",
      "outputs": [
        {
          "name": "",
          "type": "uint256"
        }
      ],
      "payable": false,
      "stateMutability": "view",
      "type": "function"
    },
    {
      "constant": true,
      "inputs": [
        {
          "name": "borrower",
          "type": "address"
        },
        {
          "name": "offset",
          "type": "uint256"
        }
      ],
      "name": "getLoansForAddress",
      "outputs": [
        {
          "name": "response",
          "type": "uint256[10][100]"
        }
      ],
      "payable": false,
      "stateMutability": "view",
      "type": "function"
    },
    {
      "constant": false,
      "inputs": [
        {
          "name": "",
          "type": "address"
        },
        {
          "name": "repaymentAmount",
          "type": "uint256"
        },
        {
          "name": "loanId",
          "type": "uint256"
        }
      ],
      "name": "transferNotification",
      "outputs": [],
      "payable": false,
      "stateMutability": "nonpayable",
      "type": "function"
    }
  ],
  "bytecode": "0x6060604052341561000f57600080fd5b6040516080806132318339810160405280805190602001909190805190602001909190805190602001909190805190602001909190505060016000803373ffffffffffffffffffffffffffffffffffffffff1673ffffffffffffffffffffffffffffffffffffffff16815260200190815260200160002060007f4d6f6e6574617279426f6172640000000000000000000000000000000000000060001916815260200190815260200160002060006101000a81548160ff0219169083151502179055503373ffffffffffffffffffffffffffffffffffffffff167fc65937e3dbcb9fb30f646815dd67a3dbd09ba17718cbcb54efbe3635f8e0a6fe60405180807f4d6f6e6574617279426f61726400000000000000000000000000000000000000815250602001905060405180910390a283600560006101000a81548173ffffffffffffffffffffffffffffffffffffffff021916908373ffffffffffffffffffffffffffffffffffffffff16021790555082600660006101000a81548173ffffffffffffffffffffffffffffffffffffffff021916908373ffffffffffffffffffffffffffffffffffffffff16021790555081600460006101000a81548173ffffffffffffffffffffffffffffffffffffffff021916908373ffffffffffffffffffffffffffffffffffffffff16021790555080600760006101000a81548173ffffffffffffffffffffffffffffffffffffffff021916908373ffffffffffffffffffffffffffffffffffffffff16021790555050505050612fda806102576000396000f30060606040526004361061013e576000357c0100000000000000000000000000000000000000000000000000000000900463ffffffff1680630aed3ca1146101435780630da32eaa146101c557806315f647fc1461023e578063169f66df146102725780632432282d146102c757806343f48fbd146103145780634a348da914610369578063521968121461039257806357f46cbe146103bb5780635b225526146103e95780635fcf0455146104475780635fe070131461049c57806360ad970d146104e257806364e7e4a414610583578063761004bd146105ce5780637acc0b20146106245780637b9b9c89146106b25780639ac3317b14610707578063c1c6d4e814610780578063d4849a8b146107ea578063debad27f14610808578063e1ec3c681461088a578063e91e13a914610938578063f38a826214610969575b600080fd5b341561014e57600080fd5b61016460048080359060200190919050506109af565b604051808260646000925b818410156101b55782846020020151600a60200280838360005b838110156101a4578082015181840152602081019050610189565b50505050905001926001019261016f565b9250505091505060405180910390f35b34156101d057600080fd5b61023c600480803573ffffffffffffffffffffffffffffffffffffffff1690602001909190803590602001908201803590602001908080602002602001604051908101604052809392919081815260200183836020028082843782019150505050505091905050610c15565b005b341561024957600080fd5b610270600480803563ffffffff169060200190919080351515906020019091905050610c5d565b005b341561027d57600080fd5b610285610d81565b604051808273ffffffffffffffffffffffffffffffffffffffff1673ffffffffffffffffffffffffffffffffffffffff16815260200191505060405180910390f35b34156102d257600080fd5b6102fe600480803573ffffffffffffffffffffffffffffffffffffffff16906020019091905050610da7565b6040518082815260200191505060405180910390f35b341561031f57600080fd5b610327610df3565b604051808273ffffffffffffffffffffffffffffffffffffffff1673ffffffffffffffffffffffffffffffffffffffff16815260200191505060405180910390f35b341561037457600080fd5b61037c610e19565b6040518082815260200191505060405180910390f35b341561039d57600080fd5b6103a5610e26565b6040518082815260200191505060405180910390f35b34156103c657600080fd5b6103e760048080359060200190820180359060200191909192905050610e33565b005b34156103f457600080fd5b61042d600480803573ffffffffffffffffffffffffffffffffffffffff16906020019091908035600019169060200190919050506115bc565b604051808215151515815260200191505060405180910390f35b341561045257600080fd5b61045a6115eb565b604051808273ffffffffffffffffffffffffffffffffffffffff1673ffffffffffffffffffffffffffffffffffffffff16815260200191505060405180910390f35b34156104a757600080fd5b6104e0600480803573ffffffffffffffffffffffffffffffffffffffff1690602001909190803560001916906020019091905050611611565b005b34156104ed57600080fd5b610522600480803573ffffffffffffffffffffffffffffffffffffffff169060200190919080359060200190919050506116db565b604051808260646000925b818410156105735782846020020151600a60200280838360005b83811015610562578082015181840152602081019050610547565b50505050905001926001019261052d565b9250505091505060405180910390f35b341561058e57600080fd5b6105cc600480803573ffffffffffffffffffffffffffffffffffffffff1690602001909190803590602001909190803590602001909190505061199e565b005b34156105d957600080fd5b61060e600480803573ffffffffffffffffffffffffffffffffffffffff16906020019091908035906020019091905050611a09565b6040518082815260200191505060405180910390f35b341561062f57600080fd5b6106456004808035906020019091905050611a3a565b604051808781526020018663ffffffff1663ffffffff1681526020018563ffffffff1663ffffffff1681526020018463ffffffff1663ffffffff1681526020018363ffffffff1663ffffffff16815260200182151515158152602001965050505050505060405180910390f35b34156106bd57600080fd5b6106c5611ad2565b604051808273ffffffffffffffffffffffffffffffffffffffff1673ffffffffffffffffffffffffffffffffffffffff16815260200191505060405180910390f35b341561071257600080fd5b61077e600480803573ffffffffffffffffffffffffffffffffffffffff1690602001909190803590602001908201803590602001908080602002602001604051908101604052809392919081815260200183836020028082843782019150505050505091905050611af8565b005b341561078b57600080fd5b6107e8600480803563ffffffff1690602001909190803563ffffffff1690602001909190803563ffffffff1690602001909190803590602001909190803563ffffffff169060200190919080351515906020019091905050611bcc565b005b610806600480803563ffffffff16906020019091905050611e02565b005b341561081357600080fd5b61082960048080359060200190919050506123a3565b604051808260646000925b8184101561087a5782846020020151600760200280838360005b8381101561086957808201518184015260208101905061084e565b505050509050019260010192610834565b9250505091505060405180910390f35b341561089557600080fd5b6108ab60048080359060200190919050506124f8565b604051808781526020018681526020018573ffffffffffffffffffffffffffffffffffffffff1673ffffffffffffffffffffffffffffffffffffffff1681526020018463ffffffff1663ffffffff16815260200183600381111561090b57fe5b60ff1681526020018264ffffffffff1664ffffffffff168152602001965050505050505060405180910390f35b341561094357600080fd5b61094b612591565b604051808261ffff1661ffff16815260200191505060405180910390f35b341561097457600080fd5b6109ad600480803573ffffffffffffffffffffffffffffffffffffffff1690602001909190803560001916906020019091905050612596565b005b6109b7612d1a565b60008060008060008060008096505b606461ffff168761ffff161015610c09576002805490508761ffff168a011015156109f057610c09565b60028761ffff168a01815481101515610a0557fe5b9060005260206000209060030201955060018660020160149054906101000a900463ffffffff1663ffffffff16815481101515610a3e57fe5b90600052602060002090600202019450610a5c8587600101546126ec565b80945081955050508460010160009054906101000a900463ffffffff1663ffffffff168660020160199054906101000a900464ffffffffff160364ffffffffff16915060006003811115610aac57fe5b8660020160189054906101000a900460ff166003811115610ac957fe5b148015610af257508560020160199054906101000a900464ffffffffff1664ffffffffff164210155b610b0d578560020160189054906101000a900460ff16610b10565b60025b9050610140604051908101604052808861ffff168b01815260200187600001548152602001876001015481526020018760020160009054906101000a900473ffffffffffffffffffffffffffffffffffffffff1673ffffffffffffffffffffffffffffffffffffffff1681526020018760020160149054906101000a900463ffffffff1663ffffffff168152602001826003811115610bab57fe5b81526020018760020160199054906101000a900464ffffffffff1664ffffffffff16815260200183815260200185815260200184815250888861ffff16606481101515610bf457fe5b602002018190525086806001019750506109c6565b50505050505050919050565b60008082519150600090505b81811015610c5757610c4a848483815181101515610c3b57fe5b90602001906020020151611611565b8080600101915050610c21565b50505050565b7f4d6f6e6574617279426f617264000000000000000000000000000000000000006000803373ffffffffffffffffffffffffffffffffffffffff1673ffffffffffffffffffffffffffffffffffffffff1681526020019081526020016000206000826000191660001916815260200190815260200160002060009054906101000a900460ff161515610cee57600080fd5b600060018463ffffffff16815481101515610d0557fe5b906000526020600020906002020160010160106101000a81548160ff0219169083151502179055507ff686833114a6119b006ebfaf64ed31277c71b76a9855945de8d58f849bff68908383604051808363ffffffff1663ffffffff168152602001821515151581526020019250505060405180910390a1505050565b600660009054906101000a900473ffffffffffffffffffffffffffffffffffffffff1681565b6000600360008373ffffffffffffffffffffffffffffffffffffffff1673ffffffffffffffffffffffffffffffffffffffff168152602001908152602001600020805490509050919050565b600460009054906101000a900473ffffffffffffffffffffffffffffffffffffffff1681565b6000600180549050905090565b6000600280549050905090565b60008060008060008060008060008060008098505b8c8c90508910156114175760028d8d8b8181101515610e6357fe5b90506020020135815481101515610e7657fe5b9060005260206000209060030201975060006003811115610e9357fe5b8860020160189054906101000a900460ff166003811115610eb057fe5b141515610ebc57600080fd5b8760020160199054906101000a900464ffffffffff1664ffffffffff164210151515610ee757600080fd5b60018860020160149054906101000a900463ffffffff1663ffffffff16815481101515610f1057fe5b90600052602060002090600202019650610f2e8789600101546126ec565b5080965050610f46868c61275e90919063ffffffff16565b9a5060038860020160186101000a81548160ff02191690836003811115610f6957fe5b0217905550610fb4620f4240610fa689600101600c9054906101000a900463ffffffff1663ffffffff168b6001015461277f90919063ffffffff16565b6127b590919063ffffffff16565b9450600460009054906101000a900473ffffffffffffffffffffffffffffffffffffffff1673ffffffffffffffffffffffffffffffffffffffff16635c481d8b600560009054906101000a900473ffffffffffffffffffffffffffffffffffffffff1673ffffffffffffffffffffffffffffffffffffffff166333a263e66000604051602001526040518163ffffffff167c0100000000000000000000000000000000000000000000000000000000028152600401602060405180830381600087803b151561108257600080fd5b6102c65a03f1151561109357600080fd5b50505060405180519050876000604051602001526040518363ffffffff167c010000000000000000000000000000000000000000000000000000000002815260040180836000191660001916815260200182815260200192505050602060405180830381600087803b151561110757600080fd5b6102c65a03f1151561111857600080fd5b5050506040518051905093506112a684600460009054906101000a900473ffffffffffffffffffffffffffffffffffffffff1673ffffffffffffffffffffffffffffffffffffffff16635c481d8b600560009054906101000a900473ffffffffffffffffffffffffffffffffffffffff1673ffffffffffffffffffffffffffffffffffffffff166333a263e66000604051602001526040518163ffffffff167c0100000000000000000000000000000000000000000000000000000000028152600401602060405180830381600087803b15156111f457600080fd5b6102c65a03f1151561120557600080fd5b505050604051805190508c600101546000604051602001526040518363ffffffff167c010000000000000000000000000000000000000000000000000000000002815260040180836000191660001916815260200182815260200192505050602060405180830381600087803b151561127d57600080fd5b6102c65a03f1151561128e57600080fd5b5050506040518051905061275e90919063ffffffff16565b92508760000154831015611332576112cb8389600001546127d090919063ffffffff16565b91508760020160009054906101000a900473ffffffffffffffffffffffffffffffffffffffff1673ffffffffffffffffffffffffffffffffffffffff166108fc839081150290604051600060405180830381858888f19350505050151561133157600080fd5b5b6113498289600001546127d090919063ffffffff16565b905080841115611357578093505b61136a818b61275e90919063ffffffff16565b99508760020160009054906101000a900473ffffffffffffffffffffffffffffffffffffffff1673ffffffffffffffffffffffffffffffffffffffff167f328dba6669445381058bdb02ebe2ec93eb6f203f283073dee9b206720390f10b8e8e8c81811015156113d657fe5b905060200201358385886040518085815260200184815260200183815260200182815260200194505050505060405180910390a28880600101995050610e48565b60008a111561150957600660009054906101000a900473ffffffffffffffffffffffffffffffffffffffff1673ffffffffffffffffffffffffffffffffffffffff1663fe1ebb046000604051602001526040518163ffffffff167c0100000000000000000000000000000000000000000000000000000000028152600401602060405180830381600087803b15156114ae57600080fd5b6102c65a03f115156114bf57600080fd5b5050506040518051905073ffffffffffffffffffffffffffffffffffffffff166108fc8b9081150290604051600060405180830381858888f19350505050151561150857600080fd5b5b600660009054906101000a900473ffffffffffffffffffffffffffffffffffffffff1673ffffffffffffffffffffffffffffffffffffffff166358c316038c6040518263ffffffff167c010000000000000000000000000000000000000000000000000000000002815260040180828152602001915050600060405180830381600087803b151561159957600080fd5b6102c65a03f115156115aa57600080fd5b50505050505050505050505050505050565b60006020528160005260406000206020528060005260406000206000915091509054906101000a900460ff1681565b600760009054906101000a900473ffffffffffffffffffffffffffffffffffffffff1681565b60008060008473ffffffffffffffffffffffffffffffffffffffff1673ffffffffffffffffffffffffffffffffffffffff1681526020019081526020016000206000836000191660001916815260200190815260200160002060006101000a81548160ff0219169083151502179055508173ffffffffffffffffffffffffffffffffffffffff167f789770131846de4d1f28418f0f957cdf4fcabe5eccf70067083e20ecece69a348260405180826000191660001916815260200191505060405180910390a25050565b6116e3612d1a565b6000806000806000806000806000600360008d73ffffffffffffffffffffffffffffffffffffffff1673ffffffffffffffffffffffffffffffffffffffff1681526020019081526020016000209850600097505b606461ffff168861ffff16101561198f5788805490508861ffff168c011015156117605761198f565b888861ffff168c0181548110151561177457fe5b906000526020600020900154965060028781548110151561179157fe5b9060005260206000209060030201955060018660020160149054906101000a900463ffffffff1663ffffffff168154811015156117ca57fe5b906000526020600020906002020194506117e88587600101546126ec565b80945081955050508460010160009054906101000a900463ffffffff1663ffffffff168660020160199054906101000a900464ffffffffff160364ffffffffff1691506000600381111561183857fe5b8660020160189054906101000a900460ff16600381111561185557fe5b14801561187e57508560020160199054906101000a900464ffffffffff1664ffffffffff164210155b611899578560020160189054906101000a900460ff1661189c565b60025b90506101406040519081016040528088815260200187600001548152602001876001015481526020018760020160009054906101000a900473ffffffffffffffffffffffffffffffffffffffff1673ffffffffffffffffffffffffffffffffffffffff1681526020018760020160149054906101000a900463ffffffff1663ffffffff16815260200182600381111561193157fe5b81526020018760020160199054906101000a900464ffffffffff1664ffffffffff168152602001838152602001858152602001848152508a8961ffff1660648110151561197a57fe5b60200201819052508780600101985050611737565b50505050505050505092915050565b600560009054906101000a900473ffffffffffffffffffffffffffffffffffffffff1673ffffffffffffffffffffffffffffffffffffffff163373ffffffffffffffffffffffffffffffffffffffff161415156119fa57600080fd5b611a0481836127ec565b505050565b600360205281600052604060002081815481101515611a2457fe5b9060005260206000209001600091509150505481565b600181815481101515611a4957fe5b90600052602060002090600202016000915090508060000154908060010160009054906101000a900463ffffffff16908060010160049054906101000a900463ffffffff16908060010160089054906101000a900463ffffffff169080600101600c9054906101000a900463ffffffff16908060010160109054906101000a900460ff16905086565b600560009054906101000a900473ffffffffffffffffffffffffffffffffffffffff1681565b6000806000803373ffffffffffffffffffffffffffffffffffffffff1673ffffffffffffffffffffffffffffffffffffffff16815260200190815260200160002060007f4d6f6e6574617279426f6172640000000000000000000000000000000000000060001916815260200190815260200160002060009054906101000a900460ff161515611b8757600080fd5b82519150600090505b81811015611bc657611bb9848483815181101515611baa57fe5b90602001906020020151612596565b8080600101915050611b90565b50505050565b6000807f4d6f6e6574617279426f617264000000000000000000000000000000000000006000803373ffffffffffffffffffffffffffffffffffffffff1673ffffffffffffffffffffffffffffffffffffffff1681526020019081526020016000206000826000191660001916815260200190815260200160002060009054906101000a900460ff161515611c6057600080fd5b6001808054806001018281611c759190612d49565b9160005260206000209060020201600060c0604051908101604052808b81526020018e63ffffffff1681526020018d63ffffffff1681526020018c63ffffffff1681526020018a63ffffffff16815260200189151581525090919091506000820151816000015560208201518160010160006101000a81548163ffffffff021916908363ffffffff16021790555060408201518160010160046101000a81548163ffffffff021916908363ffffffff16021790555060608201518160010160086101000a81548163ffffffff021916908363ffffffff160217905550608082015181600101600c6101000a81548163ffffffff021916908363ffffffff16021790555060a08201518160010160106101000a81548160ff0219169083151502179055505050039250829150828263ffffffff16141515611db457600080fd5b7fccadd8a27b8a91830a26f7dd76f3acec14cd6bc7bfb79e91113ec547150d95f082604051808263ffffffff1663ffffffff16815260200191505060405180910390a1505050505050505050565b600080600080600080600060018863ffffffff16815481101515611e2257fe5b906000526020600020906002020196508660010160109054906101000a900460ff161515611e4f57600080fd5b600460009054906101000a900473ffffffffffffffffffffffffffffffffffffffff1673ffffffffffffffffffffffffffffffffffffffff166382f5e31b600560009054906101000a900473ffffffffffffffffffffffffffffffffffffffff1673ffffffffffffffffffffffffffffffffffffffff166333a263e66000604051602001526040518163ffffffff167c0100000000000000000000000000000000000000000000000000000000028152600401602060405180830381600087803b1515611f1b57600080fd5b6102c65a03f11515611f2c57600080fd5b50505060405180519050346000604051602001526040518363ffffffff167c010000000000000000000000000000000000000000000000000000000002815260040180836000191660001916815260200182815260200192505050602060405180830381600087803b1515611fa057600080fd5b6102c65a03f11515611fb157600080fd5b505050604051805190509550611fff620f4240611ff18960010160089054906101000a900463ffffffff1663ffffffff168961277f90919063ffffffff16565b6127b590919063ffffffff16565b945061200b87866126ec565b50809450508660000154841015151561202357600080fd5b6120508760010160009054906101000a900463ffffffff1663ffffffff164261275e90919063ffffffff16565b9250829150828264ffffffffff1614151561206a57600080fd5b6001600280548060010182816120809190612d7b565b9160005260206000209060030201600060c0604051908101604052803481526020018a81526020013373ffffffffffffffffffffffffffffffffffffffff1681526020018d63ffffffff168152602001600060038111156120dd57fe5b81526020018764ffffffffff168152509091909150600082015181600001556020820151816001015560408201518160020160006101000a81548173ffffffffffffffffffffffffffffffffffffffff021916908373ffffffffffffffffffffffffffffffffffffffff16021790555060608201518160020160146101000a81548163ffffffff021916908363ffffffff16021790555060808201518160020160186101000a81548160ff0219169083600381111561219857fe5b021790555060a08201518160020160196101000a81548164ffffffffff021916908364ffffffffff1602179055505050039050600360003373ffffffffffffffffffffffffffffffffffffffff1673ffffffffffffffffffffffffffffffffffffffff168152602001908152602001600020805480600101828161221c9190612dad565b916000526020600020900160008390919091505550600660009054906101000a900473ffffffffffffffffffffffffffffffffffffffff1673ffffffffffffffffffffffffffffffffffffffff16631895687d33866040518363ffffffff167c0100000000000000000000000000000000000000000000000000000000028152600401808373ffffffffffffffffffffffffffffffffffffffff1673ffffffffffffffffffffffffffffffffffffffff16815260200182815260200192505050600060405180830381600087803b15156122f557600080fd5b6102c65a03f1151561230657600080fd5b5050503373ffffffffffffffffffffffffffffffffffffffff167f1f9972ec35a86b6ea1c3884c02fda9d8d0c5c14089a133610fed51c481b7e208898334888a88604051808763ffffffff1663ffffffff1681526020018681526020018581526020018481526020018381526020018264ffffffffff1664ffffffffff168152602001965050505050505060405180910390a25050505050505050565b6123ab612dd9565b600080600091505b606461ffff168261ffff1610156124f1576001805490508261ffff1685011015156123dd576124f1565b60018261ffff1685018154811015156123f257fe5b9060005260206000209060020201905060e0604051908101604052808361ffff1686018152602001826000015481526020018260010160009054906101000a900463ffffffff1663ffffffff1681526020018260010160049054906101000a900463ffffffff1663ffffffff1681526020018260010160089054906101000a900463ffffffff1663ffffffff16815260200182600101600c9054906101000a900463ffffffff1663ffffffff1681526020018260010160109054906101000a900460ff166124c15760006124c4565b60015b60ff16815250838361ffff166064811015156124dc57fe5b602002018190525081806001019250506123b3565b5050919050565b60028181548110151561250757fe5b90600052602060002090600302016000915090508060000154908060010154908060020160009054906101000a900473ffffffffffffffffffffffffffffffffffffffff16908060020160149054906101000a900463ffffffff16908060020160189054906101000a900460ff16908060020160199054906101000a900464ffffffffff16905086565b606481565b6000803373ffffffffffffffffffffffffffffffffffffffff1673ffffffffffffffffffffffffffffffffffffffff16815260200190815260200160002060007f4d6f6e6574617279426f6172640000000000000000000000000000000000000060001916815260200190815260200160002060009054906101000a900460ff16151561262257600080fd5b60016000808473ffffffffffffffffffffffffffffffffffffffff1673ffffffffffffffffffffffffffffffffffffffff1681526020019081526020016000206000836000191660001916815260200190815260200160002060006101000a81548160ff0219169083151502179055508173ffffffffffffffffffffffffffffffffffffffff167fc65937e3dbcb9fb30f646815dd67a3dbd09ba17718cbcb54efbe3635f8e0a6fe8260405180826000191660001916815260200191505060405180910390a25050565b600080612731620f42406127238660010160049054906101000a900463ffffffff1663ffffffff168661277f90919063ffffffff16565b6127b590919063ffffffff16565b91508282116127525761274d82846127d090919063ffffffff16565b612755565b60005b90509250929050565b600080828401905083811015151561277557600080fd5b8091505092915050565b600080828402905060008414806127a0575082848281151561279d57fe5b04145b15156127ab57600080fd5b8091505092915050565b60008082848115156127c357fe5b0490508091505092915050565b60008282111515156127e157600080fd5b818303905092915050565b60008060008060028681548110151561280157fe5b906000526020600020906003020193506000600381111561281e57fe5b8460020160189054906101000a900460ff16600381111561283b57fe5b14151561284757600080fd5b83600101548514151561285957600080fd5b8360020160199054906101000a900464ffffffffff1664ffffffffff16421115151561288457600080fd5b60018460020160149054906101000a900463ffffffff1663ffffffff168154811015156128ad57fe5b906000526020600020906002020192506128cb8385600101546126ec565b809250819350505060016002878154811015156128e457fe5b906000526020600020906003020160020160186101000a81548160ff0219169083600381111561291057fe5b02179055506000811115612ad257600560009054906101000a900473ffffffffffffffffffffffffffffffffffffffff1673ffffffffffffffffffffffffffffffffffffffff1663a9059cbb600760009054906101000a900473ffffffffffffffffffffffffffffffffffffffff16836000604051602001526040518363ffffffff167c0100000000000000000000000000000000000000000000000000000000028152600401808373ffffffffffffffffffffffffffffffffffffffff1673ffffffffffffffffffffffffffffffffffffffff16815260200182815260200192505050602060405180830381600087803b1515612a0d57600080fd5b6102c65a03f11515612a1e57600080fd5b5050506040518051905050600560009054906101000a900473ffffffffffffffffffffffffffffffffffffffff1673ffffffffffffffffffffffffffffffffffffffff166342966c68836040518263ffffffff167c010000000000000000000000000000000000000000000000000000000002815260040180828152602001915050600060405180830381600087803b1515612ab957600080fd5b6102c65a03f11515612aca57600080fd5b505050612b77565b600560009054906101000a900473ffffffffffffffffffffffffffffffffffffffff1673ffffffffffffffffffffffffffffffffffffffff166342966c68866040518263ffffffff167c010000000000000000000000000000000000000000000000000000000002815260040180828152602001915050600060405180830381600087803b1515612b6257600080fd5b6102c65a03f11515612b7357600080fd5b5050505b600660009054906101000a900473ffffffffffffffffffffffffffffffffffffffff1673ffffffffffffffffffffffffffffffffffffffff16634cae5f99836040518263ffffffff167c010000000000000000000000000000000000000000000000000000000002815260040180828152602001915050600060405180830381600087803b1515612c0757600080fd5b6102c65a03f11515612c1857600080fd5b5050508360020160009054906101000a900473ffffffffffffffffffffffffffffffffffffffff1673ffffffffffffffffffffffffffffffffffffffff166108fc85600001549081150290604051600060405180830381858888f193505050501515612c8357600080fd5b7f0bc2fda5eb321ed5f7471e814a5c00752523b3ba8fbfeb905e1b8707eefa16c5868560020160009054906101000a900473ffffffffffffffffffffffffffffffffffffffff16604051808381526020018273ffffffffffffffffffffffffffffffffffffffff1673ffffffffffffffffffffffffffffffffffffffff1681526020019250505060405180910390a1505050505050565b617d00604051908101604052806064905b612d33612e08565b815260200190600190039081612d2b5790505090565b815481835581811511612d7657600202816002028360005260206000209182019101612d759190612e31565b5b505050565b815481835581811511612da857600302816003028360005260206000209182019101612da79190612ec8565b5b505050565b815481835581811511612dd457818360005260206000209182019101612dd39190612f61565b5b505050565b615780604051908101604052806064905b612df2612f86565b815260200190600190039081612dea5790505090565b61014060405190810160405280600a905b6000815260200190600190039081612e195790505090565b612ec591905b80821115612ec1576000808201600090556001820160006101000a81549063ffffffff02191690556001820160046101000a81549063ffffffff02191690556001820160086101000a81549063ffffffff021916905560018201600c6101000a81549063ffffffff02191690556001820160106101000a81549060ff021916905550600201612e37565b5090565b90565b612f5e91905b80821115612f5a5760008082016000905560018201600090556002820160006101000a81549073ffffffffffffffffffffffffffffffffffffffff02191690556002820160146101000a81549063ffffffff02191690556002820160186101000a81549060ff02191690556002820160196101000a81549064ffffffffff021916905550600301612ece565b5090565b90565b612f8391905b80821115612f7f576000816000905550600101612f67565b5090565b90565b60e0604051908101604052806007905b6000815260200190600190039081612f9657905050905600a165627a7a72305820f529a5ceb2e3ed6cbe028fe86035f00fd2c8c23f6539d24f0826aaa7891a17ee0029",
  "source": "/*\n    Contract to manage Augmint token loan contracts backed by ETH\n    For flows see: https://github.com/Augmint/augmint-contracts/blob/master/docs/loanFlow.png\n\n    TODO:\n        - interestEarnedAccount setter?\n        - create MonetarySupervisor interface and use it instead?\n        - make data arg generic bytes?\n        - create and use InterestEarnedAccount interface instead?\n        - make collect() run as long as gas provided allows\n*/\npragma solidity 0.4.19;\n\nimport \"./Rates.sol\";\nimport \"./generic/Restricted.sol\";\nimport \"./generic/SafeMath.sol\";\nimport \"./interfaces/AugmintTokenInterface.sol\";\nimport \"./InterestEarnedAccount.sol\";\nimport \"./MonetarySupervisor.sol\";\n\n\ncontract LoanManager is Restricted {\n    using SafeMath for uint256;\n\n    uint16 public constant CHUNK_SIZE = 100;\n\n    enum LoanState { Open, Repaid, Defaulted, Collected } // NB: Defaulted state is not stored, only getters calculate\n\n    struct LoanProduct {\n        uint minDisbursedAmount; // 0: with decimals set in AugmintToken.decimals\n        uint32 term;            // 1\n        uint32 discountRate;    // 2: discountRate in parts per million , ie. 10,000 = 1%\n        uint32 collateralRatio; // 3: loan token amount / colleteral pegged ccy value\n                                //      in parts per million , ie. 10,000 = 1%\n        uint32 defaultingFeePt; // 4: % of collateral in parts per million , ie. 50,000 = 5%\n        bool isActive;          // 5\n    }\n\n    /* NB: we don't need to store loan parameters because loan products can't be altered (only disabled/enabled) */\n    struct LoanData {\n        uint collateralAmount; // 0\n        uint repaymentAmount; // 1\n        address borrower; // 2\n        uint32 productId; // 3\n        LoanState state; // 4\n        uint40 maturity; // 5\n    }\n\n    LoanProduct[] public products;\n\n    LoanData[] public loans;\n    mapping(address => uint[]) public accountLoans;  // owner account address =>  array of loan Ids\n\n    Rates public rates; // instance of ETH/pegged currency rate provider contract\n    AugmintTokenInterface public augmintToken; // instance of token contract\n    MonetarySupervisor public monetarySupervisor;\n    InterestEarnedAccount public interestEarnedAccount;\n\n    event NewLoan(uint32 productId, uint loanId, address indexed borrower, uint collateralAmount, uint loanAmount,\n        uint repaymentAmount, uint40 maturity);\n\n    event LoanProductActiveStateChanged(uint32 productId, bool newState);\n\n    event LoanProductAdded(uint32 productId);\n\n    event LoanRepayed(uint loanId, address borrower);\n\n    event LoanCollected(uint loanId, address indexed borrower, uint collectedCollateral,\n        uint releasedCollateral, uint defaultingFee);\n\n    function LoanManager(AugmintTokenInterface _augmintToken, MonetarySupervisor _monetarySupervisor, Rates _rates,\n                            InterestEarnedAccount _interestEarnedAccount)\n    public {\n        augmintToken = _augmintToken;\n        monetarySupervisor = _monetarySupervisor;\n        rates = _rates;\n        interestEarnedAccount = _interestEarnedAccount;\n    }\n\n    function addLoanProduct(uint32 term, uint32 discountRate, uint32 collateralRatio, uint minDisbursedAmount,\n                                uint32 defaultingFeePt, bool isActive)\n    external restrict(\"MonetaryBoard\") {\n\n        uint _newProductId = products.push(\n            LoanProduct(minDisbursedAmount, term, discountRate, collateralRatio, defaultingFeePt, isActive)\n        ) - 1;\n\n        uint32 newProductId = uint32(_newProductId);\n        require(newProductId == _newProductId);\n\n        LoanProductAdded(newProductId);\n    }\n\n    function setLoanProductActiveState(uint32 productId, bool newState)\n    external restrict (\"MonetaryBoard\") {\n        products[productId].isActive = false;\n        LoanProductActiveStateChanged(productId, newState);\n    }\n\n    function newEthBackedLoan(uint32 productId) external payable {\n        LoanProduct storage product = products[productId];\n        require(product.isActive); // valid productId?\n\n        // calculate loan values based on ETH sent in with Tx\n        uint tokenValue = rates.convertFromWei(augmintToken.peggedSymbol(), msg.value);\n        uint repaymentAmount = tokenValue.mul(product.collateralRatio).div(1000000);\n\n        uint loanAmount;\n        (loanAmount, ) = calculateLoanValues(product, repaymentAmount);\n\n        require(loanAmount >= product.minDisbursedAmount);\n\n        uint expiration = now.add(product.term);\n        uint40 maturity = uint40(expiration);\n        require(maturity == expiration);\n\n        // Create new loan\n        uint loanId = loans.push(LoanData(msg.value, repaymentAmount, msg.sender,\n                                            productId, LoanState.Open, maturity)) - 1;\n\n        // Store ref to new loan\n        accountLoans[msg.sender].push(loanId);\n\n        // Issue tokens and send to borrower\n        monetarySupervisor.issueLoan(msg.sender, loanAmount);\n\n        NewLoan(productId, loanId, msg.sender, msg.value, loanAmount, repaymentAmount, maturity);\n    }\n\n    function collect(uint[] loanIds) external {\n        /* when there are a lots of loans to be collected then\n             the client need to call it in batches to make sure tx won't exceed block gas limit.\n         Anyone can call it - can't cause harm as it only allows to collect loans which they are defaulted\n         TODO: optimise defaulting fee calculations\n        */\n        uint totalLoanAmountCollected;\n        uint totalCollateralToCollect;\n        for (uint i = 0; i < loanIds.length; i++) {\n            LoanData storage loan = loans[loanIds[i]];\n            require(loan.state == LoanState.Open);\n            require(now >= loan.maturity);\n            LoanProduct storage product = products[loan.productId];\n\n            uint loanAmount;\n            (loanAmount, ) = calculateLoanValues(product, loan.repaymentAmount);\n\n            totalLoanAmountCollected = totalLoanAmountCollected.add(loanAmount);\n\n            loan.state = LoanState.Collected;\n\n            // send ETH collateral to augmintToken reserve\n            uint defaultingFeeInToken = loan.repaymentAmount.mul(product.defaultingFeePt).div(1000000);\n            uint defaultingFee = rates.convertToWei(augmintToken.peggedSymbol(), defaultingFeeInToken);\n            uint targetCollection = rates.convertToWei(augmintToken.peggedSymbol(),\n                                                            loan.repaymentAmount).add(defaultingFee);\n\n            uint releasedCollateral;\n            if (targetCollection < loan.collateralAmount) {\n                releasedCollateral = loan.collateralAmount.sub(targetCollection);\n                loan.borrower.transfer(releasedCollateral);\n            }\n            uint collateralToCollect = loan.collateralAmount.sub(releasedCollateral);\n            if (defaultingFee > collateralToCollect) {\n                defaultingFee = collateralToCollect;\n            }\n\n            totalCollateralToCollect = totalCollateralToCollect.add(collateralToCollect);\n\n            LoanCollected(loanIds[i], loan.borrower, collateralToCollect, releasedCollateral, defaultingFee);\n        }\n\n        if (totalCollateralToCollect > 0) {\n            monetarySupervisor.augmintReserves().transfer(totalCollateralToCollect);\n        }\n\n        monetarySupervisor.loanCollectionNotification(totalLoanAmountCollected);// update KPIs\n\n    }\n\n    function getProductCount() external view returns (uint ct) {\n        return products.length;\n    }\n\n    // returns CHUNK_SIZE loan products starting from some offset:\n    // [ productId, minDisbursedAmount, term, discountRate, collateralRatio, defaultingFeePt, isActive ]\n    function getProducts(uint offset) external view returns (uint[7][CHUNK_SIZE] response) {\n        for (uint16 i = 0; i < CHUNK_SIZE; i++) {\n\n            if (offset + i >= products.length) { break; }\n\n            LoanProduct storage product = products[offset + i];\n\n            response[i] = [offset + i, product.minDisbursedAmount, product.term, product.discountRate,\n                                product.collateralRatio, product.defaultingFeePt, product.isActive ? 1 : 0 ];\n        }\n    }\n\n    function getLoanCount() external view returns (uint ct) {\n        return loans.length;\n    }\n\n    /* returns CHUNK_SIZE loans starting from some offset. Loans data encoded as:\n        [loanId, collateralAmount, repaymentAmount, borrower, productId, state, maturity, disbursementTime,\n                                                                                    loanAmount, interestAmount ]   */\n    function getLoans(uint offset) external view returns (uint[10][CHUNK_SIZE] response) {\n\n        for (uint16 i = 0; i < CHUNK_SIZE; i++) {\n\n            if (offset + i >= loans.length) { break; }\n\n            LoanData storage loan = loans[offset + i];\n            LoanProduct storage product = products[loan.productId];\n\n            uint loanAmount;\n            uint interestAmount;\n            (loanAmount, interestAmount) = calculateLoanValues(product, loan.repaymentAmount);\n            uint disbursementTime = loan.maturity - product.term;\n\n            LoanState loanState =\n                            loan.state == LoanState.Open && now >= loan.maturity ? LoanState.Defaulted : loan.state;\n\n            response[i] = [offset + i, loan.collateralAmount, loan.repaymentAmount, uint(loan.borrower),\n                        loan.productId, uint(loanState), loan.maturity, disbursementTime, loanAmount, interestAmount];\n        }\n    }\n\n    function getLoanCountForAddress(address borrower) external view returns (uint) {\n        return accountLoans[borrower].length;\n    }\n\n    /* returns CHUNK_SIZE loans of a given account, starting from some offset. Loans data encoded as:\n        [loanId, collateralAmount, repaymentAmount, borrower, productId, state, maturity, disbursementTime,\n                                                                                    loanAmount, interestAmount ] */\n    function getLoansForAddress(address borrower, uint offset) external view returns (uint[10][CHUNK_SIZE] response) {\n\n        uint[] storage loansForAddress = accountLoans[borrower];\n\n        for (uint16 i = 0; i < CHUNK_SIZE; i++) {\n\n            if (offset + i >= loansForAddress.length) { break; }\n\n            uint loanId = loansForAddress[offset + i];\n\n            LoanData storage loan = loans[loanId];\n            LoanProduct storage product = products[loan.productId];\n\n            uint loanAmount;\n            uint interestAmount;\n            (loanAmount, interestAmount) = calculateLoanValues(product, loan.repaymentAmount);\n            uint disbursementTime = loan.maturity - product.term;\n\n            LoanState loanState =\n                            loan.state == LoanState.Open && now >= loan.maturity? LoanState.Defaulted : loan.state;\n\n            response[i] = [loanId, loan.collateralAmount, loan.repaymentAmount, uint(loan.borrower),\n                        loan.productId, uint(loanState), loan.maturity, disbursementTime, loanAmount, interestAmount];\n        }\n    }\n\n    /* repay loan, called from AugmintToken's transferAndNotify\n     Flow for repaying loan:\n        1) user calls token contract's transferAndNotify loanId passed in data arg\n        2) transferAndNotify transfers tokens to the Lender contract\n        3) transferAndNotify calls Lender.transferNotification with lockProductId\n    */\n    // from arg is not used as we allow anyone to repay a loan:\n    function transferNotification(address, uint repaymentAmount, uint loanId) public {\n        require(msg.sender == address(augmintToken));\n        _repayLoan(loanId, repaymentAmount);\n    }\n\n    function calculateLoanValues(LoanProduct storage product, uint repaymentAmount)\n    internal view returns (uint loanAmount, uint interestAmount) {\n        // calculate loan values based on repayment amount\n        loanAmount = repaymentAmount.mul(product.discountRate).div(1000000);\n        interestAmount = loanAmount > repaymentAmount ? 0 : repaymentAmount.sub(loanAmount);\n    }\n\n    /* internal function, assuming repayment amount already transfered  */\n    function _repayLoan(uint loanId, uint repaymentAmount) internal {\n        LoanData storage loan = loans[loanId];\n        require(loan.state == LoanState.Open);\n        require(repaymentAmount == loan.repaymentAmount);\n        require(now <= loan.maturity);\n\n        LoanProduct storage product = products[loan.productId];\n        uint loanAmount;\n        uint interestAmount;\n        (loanAmount, interestAmount) = calculateLoanValues(product, loan.repaymentAmount);\n\n        loans[loanId].state = LoanState.Repaid;\n\n        if (interestAmount > 0) {\n            augmintToken.transfer(interestEarnedAccount, interestAmount);\n            augmintToken.burn(loanAmount);\n        } else {\n            // negative or zero interest (i.e. discountRate >= 0)\n            augmintToken.burn(repaymentAmount);\n        }\n\n        monetarySupervisor.loanRepaymentNotification(loanAmount); // update KPIs\n\n        loan.borrower.transfer(loan.collateralAmount); // send back ETH collateral\n\n        LoanRepayed(loanId, loan.borrower);\n    }\n\n}\n",
  "sourcePath": "/Users/petro/ether/augmint-web/augmint-contracts/contracts/LoanManager.sol",
  "compiler": {
    "name": "solc",
    "version": "0.4.19+commit.c4cbbb05.Emscripten.clang"
  },
  "schemaVersion": "1.0.1",
  "updatedAt": "2018-02-25T22:45:24.707Z"
}