{
  "contractName": "Locker",
  "abi": [
    {
      "constant": true,
      "inputs": [
        {
          "name": "",
          "type": "uint256"
        }
      ],
      "name": "lockProducts",
      "outputs": [
        {
          "name": "perTermInterest",
          "type": "uint32"
        },
        {
          "name": "durationInSecs",
          "type": "uint32"
        },
        {
          "name": "minimumLockAmount",
          "type": "uint32"
        },
        {
          "name": "isActive",
          "type": "bool"
        }
      ],
      "payable": false,
      "stateMutability": "view",
      "type": "function"
    },
    {
      "constant": true,
      "inputs": [],
      "name": "monetarySupervisor",
      "outputs": [
        {
          "name": "",
          "type": "address"
        }
      ],
      "payable": false,
      "stateMutability": "view",
      "type": "function"
    },
    {
      "constant": true,
      "inputs": [
        {
          "name": "",
          "type": "address"
        },
        {
          "name": "",
          "type": "bytes32"
        }
      ],
      "name": "permissions",
      "outputs": [
        {
          "name": "",
          "type": "bool"
        }
      ],
      "payable": false,
      "stateMutability": "view",
      "type": "function"
    },
    {
      "constant": false,
      "inputs": [
        {
          "name": "agent",
          "type": "address"
        },
        {
          "name": "requiredPermission",
          "type": "bytes32"
        }
      ],
      "name": "revokePermission",
      "outputs": [],
      "payable": false,
      "stateMutability": "nonpayable",
      "type": "function"
    },
    {
      "constant": true,
      "inputs": [],
      "name": "augmintToken",
      "outputs": [
        {
          "name": "",
          "type": "address"
        }
      ],
      "payable": false,
      "stateMutability": "view",
      "type": "function"
    },
    {
      "constant": false,
      "inputs": [
        {
          "name": "agent",
          "type": "address"
        },
        {
          "name": "requiredPermissions",
          "type": "bytes32[]"
        }
      ],
      "name": "revokeMultiplePermissions",
      "outputs": [],
      "payable": false,
      "stateMutability": "nonpayable",
      "type": "function"
    },
    {
      "constant": false,
      "inputs": [
        {
          "name": "agent",
          "type": "address"
        },
        {
          "name": "requiredPermissions",
          "type": "bytes32[]"
        }
      ],
      "name": "grantMultiplePermissions",
      "outputs": [],
      "payable": false,
      "stateMutability": "nonpayable",
      "type": "function"
    },
    {
      "constant": true,
      "inputs": [
        {
          "name": "",
          "type": "address"
        },
        {
          "name": "",
          "type": "uint256"
        }
      ],
      "name": "accountLocks",
      "outputs": [
        {
          "name": "",
          "type": "uint256"
        }
      ],
      "payable": false,
      "stateMutability": "view",
      "type": "function"
    },
    {
      "constant": true,
      "inputs": [],
      "name": "CHUNK_SIZE",
      "outputs": [
        {
          "name": "",
          "type": "uint256"
        }
      ],
      "payable": false,
      "stateMutability": "view",
      "type": "function"
    },
    {
      "constant": false,
      "inputs": [
        {
          "name": "agent",
          "type": "address"
        },
        {
          "name": "requiredPermission",
          "type": "bytes32"
        }
      ],
      "name": "grantPermission",
      "outputs": [],
      "payable": false,
      "stateMutability": "nonpayable",
      "type": "function"
    },
    {
      "constant": true,
      "inputs": [
        {
          "name": "",
          "type": "uint256"
        }
      ],
      "name": "locks",
      "outputs": [
        {
          "name": "amountLocked",
          "type": "uint256"
        },
        {
          "name": "owner",
          "type": "address"
        },
        {
          "name": "productId",
          "type": "uint32"
        },
        {
          "name": "lockedUntil",
          "type": "uint40"
        },
        {
          "name": "isActive",
          "type": "bool"
        }
      ],
      "payable": false,
      "stateMutability": "view",
      "type": "function"
    },
    {
      "inputs": [
        {
          "name": "_augmintToken",
          "type": "address"
        },
        {
          "name": "_monetarySupervisor",
          "type": "address"
        }
      ],
      "payable": false,
      "stateMutability": "nonpayable",
      "type": "constructor"
    },
    {
      "anonymous": false,
      "inputs": [
        {
          "indexed": true,
          "name": "lockProductId",
          "type": "uint32"
        },
        {
          "indexed": false,
          "name": "perTermInterest",
          "type": "uint32"
        },
        {
          "indexed": false,
          "name": "durationInSecs",
          "type": "uint32"
        },
        {
          "indexed": false,
          "name": "minimumLockAmount",
          "type": "uint32"
        },
        {
          "indexed": false,
          "name": "isActive",
          "type": "bool"
        }
      ],
      "name": "NewLockProduct",
      "type": "event"
    },
    {
      "anonymous": false,
      "inputs": [
        {
          "indexed": true,
          "name": "lockProductId",
          "type": "uint32"
        },
        {
          "indexed": false,
          "name": "newActiveState",
          "type": "bool"
        }
      ],
      "name": "LockProductActiveChange",
      "type": "event"
    },
    {
      "anonymous": false,
      "inputs": [
        {
          "indexed": true,
          "name": "lockOwner",
          "type": "address"
        },
        {
          "indexed": false,
          "name": "lockId",
          "type": "uint256"
        },
        {
          "indexed": false,
          "name": "amountLocked",
          "type": "uint256"
        },
        {
          "indexed": false,
          "name": "interestEarned",
          "type": "uint256"
        },
        {
          "indexed": false,
          "name": "lockedUntil",
          "type": "uint40"
        },
        {
          "indexed": false,
          "name": "perTermInterest",
          "type": "uint32"
        },
        {
          "indexed": false,
          "name": "durationInSecs",
          "type": "uint32"
        }
      ],
      "name": "NewLock",
      "type": "event"
    },
    {
      "anonymous": false,
      "inputs": [
        {
          "indexed": true,
          "name": "lockOwner",
          "type": "address"
        },
        {
          "indexed": false,
          "name": "lockId",
          "type": "uint256"
        }
      ],
      "name": "LockReleased",
      "type": "event"
    },
    {
      "anonymous": false,
      "inputs": [
        {
          "indexed": true,
          "name": "agent",
          "type": "address"
        },
        {
          "indexed": false,
          "name": "grantedPermission",
          "type": "bytes32"
        }
      ],
      "name": "PermissionGranted",
      "type": "event"
    },
    {
      "anonymous": false,
      "inputs": [
        {
          "indexed": true,
          "name": "agent",
          "type": "address"
        },
        {
          "indexed": false,
          "name": "revokedPermission",
          "type": "bytes32"
        }
      ],
      "name": "PermissionRevoked",
      "type": "event"
    },
    {
      "constant": false,
      "inputs": [
        {
          "name": "perTermInterest",
          "type": "uint32"
        },
        {
          "name": "durationInSecs",
          "type": "uint32"
        },
        {
          "name": "minimumLockAmount",
          "type": "uint32"
        },
        {
          "name": "isActive",
          "type": "bool"
        }
      ],
      "name": "addLockProduct",
      "outputs": [],
      "payable": false,
      "stateMutability": "nonpayable",
      "type": "function"
    },
    {
      "constant": false,
      "inputs": [
        {
          "name": "lockProductId",
          "type": "uint32"
        },
        {
          "name": "isActive",
          "type": "bool"
        }
      ],
      "name": "setLockProductActiveState",
      "outputs": [],
      "payable": false,
      "stateMutability": "nonpayable",
      "type": "function"
    },
    {
      "constant": false,
      "inputs": [
        {
          "name": "from",
          "type": "address"
        },
        {
          "name": "amountToLock",
          "type": "uint256"
        },
        {
          "name": "_lockProductId",
          "type": "uint256"
        }
      ],
      "name": "transferNotification",
      "outputs": [],
      "payable": false,
      "stateMutability": "nonpayable",
      "type": "function"
    },
    {
      "constant": false,
      "inputs": [
        {
          "name": "lockId",
          "type": "uint256"
        }
      ],
      "name": "releaseFunds",
      "outputs": [],
      "payable": false,
      "stateMutability": "nonpayable",
      "type": "function"
    },
    {
      "constant": true,
      "inputs": [],
      "name": "getLockProductCount",
      "outputs": [
        {
          "name": "",
          "type": "uint256"
        }
      ],
      "payable": false,
      "stateMutability": "view",
      "type": "function"
    },
    {
      "constant": true,
      "inputs": [
        {
          "name": "offset",
          "type": "uint256"
        }
      ],
      "name": "getLockProducts",
      "outputs": [
        {
          "name": "response",
          "type": "uint256[5][100]"
        }
      ],
      "payable": false,
      "stateMutability": "view",
      "type": "function"
    },
    {
      "constant": true,
      "inputs": [],
      "name": "getLockCount",
      "outputs": [
        {
          "name": "",
          "type": "uint256"
        }
      ],
      "payable": false,
      "stateMutability": "view",
      "type": "function"
    },
    {
      "constant": true,
      "inputs": [
        {
          "name": "lockOwner",
          "type": "address"
        }
      ],
      "name": "getLockCountForAddress",
      "outputs": [
        {
          "name": "",
          "type": "uint256"
        }
      ],
      "payable": false,
      "stateMutability": "view",
      "type": "function"
    },
    {
      "constant": true,
      "inputs": [
        {
          "name": "offset",
          "type": "uint256"
        }
      ],
      "name": "getLocks",
      "outputs": [
        {
          "name": "response",
          "type": "uint256[8][100]"
        }
      ],
      "payable": false,
      "stateMutability": "view",
      "type": "function"
    },
    {
      "constant": true,
      "inputs": [
        {
          "name": "lockOwner",
          "type": "address"
        },
        {
          "name": "offset",
          "type": "uint256"
        }
      ],
      "name": "getLocksForAddress",
      "outputs": [
        {
          "name": "response",
          "type": "uint256[7][100]"
        }
      ],
      "payable": false,
      "stateMutability": "view",
      "type": "function"
    },
    {
      "constant": true,
      "inputs": [
        {
          "name": "perTermInterest",
          "type": "uint32"
        },
        {
          "name": "amountToLock",
          "type": "uint256"
        }
      ],
      "name": "calculateInterest",
      "outputs": [
        {
          "name": "interestEarned",
          "type": "uint256"
        }
      ],
      "payable": false,
      "stateMutability": "pure",
      "type": "function"
    }
  ],
  "bytecode": "0x6060604052341561000f57600080fd5b6040516040806124e18339810160405280805190602001909190805190602001909190505060016000803373ffffffffffffffffffffffffffffffffffffffff1673ffffffffffffffffffffffffffffffffffffffff16815260200190815260200160002060007f4d6f6e6574617279426f6172640000000000000000000000000000000000000060001916815260200190815260200160002060006101000a81548160ff0219169083151502179055503373ffffffffffffffffffffffffffffffffffffffff167fc65937e3dbcb9fb30f646815dd67a3dbd09ba17718cbcb54efbe3635f8e0a6fe60405180807f4d6f6e6574617279426f61726400000000000000000000000000000000000000815250602001905060405180910390a281600160006101000a81548173ffffffffffffffffffffffffffffffffffffffff021916908373ffffffffffffffffffffffffffffffffffffffff16021790555080600260006101000a81548173ffffffffffffffffffffffffffffffffffffffff021916908373ffffffffffffffffffffffffffffffffffffffff1602179055505050612320806101c16000396000f300606060405260043610610128576000357c0100000000000000000000000000000000000000000000000000000000900463ffffffff16806314f6c8da1461012d578063169f66df146101a1578063277a6889146101f657806344fcbd791461023c5780634d68282f146102dd5780634de16053146103005780635b225526146103295780635fe070131461038757806364e7e4a4146103cd5780637b9b9c89146104185780637ea469931461046d57806390f549ba146104e657806394493c43146105335780639ac3317b1461055c578063c29ab95b146105d5578063c3b75b8f1461062b578063c57c3bbd1461065f578063c6d8f0c4146106b1578063e18a913414610733578063e91e13a9146107b5578063f38a8262146107de578063f4dadc6114610824575b600080fd5b341561013857600080fd5b61014e60048080359060200190919050506108c1565b604051808563ffffffff1663ffffffff1681526020018463ffffffff1663ffffffff1681526020018363ffffffff1663ffffffff1681526020018215151515815260200194505050505060405180910390f35b34156101ac57600080fd5b6101b461093a565b604051808273ffffffffffffffffffffffffffffffffffffffff1673ffffffffffffffffffffffffffffffffffffffff16815260200191505060405180910390f35b341561020157600080fd5b610226600480803563ffffffff16906020019091908035906020019091905050610960565b6040518082815260200191505060405180910390f35b341561024757600080fd5b61027c600480803573ffffffffffffffffffffffffffffffffffffffff16906020019091908035906020019091905050610998565b604051808260646000925b818410156102cd5782846020020151600760200280838360005b838110156102bc5780820151818401526020810190506102a1565b505050509050019260010192610287565b9250505091505060405180910390f35b34156102e857600080fd5b6102fe6004808035906020019091905050610ba6565b005b341561030b57600080fd5b610313610eec565b6040518082815260200191505060405180910390f35b341561033457600080fd5b61036d600480803573ffffffffffffffffffffffffffffffffffffffff1690602001909190803560001916906020019091905050610ef9565b604051808215151515815260200191505060405180910390f35b341561039257600080fd5b6103cb600480803573ffffffffffffffffffffffffffffffffffffffff1690602001909190803560001916906020019091905050610f28565b005b34156103d857600080fd5b610416600480803573ffffffffffffffffffffffffffffffffffffffff1690602001909190803590602001909190803590602001909190505061107e565b005b341561042357600080fd5b61042b611105565b604051808273ffffffffffffffffffffffffffffffffffffffff1673ffffffffffffffffffffffffffffffffffffffff16815260200191505060405180910390f35b341561047857600080fd5b6104e4600480803573ffffffffffffffffffffffffffffffffffffffff169060200190919080359060200190820180359060200190808060200260200160405190810160405280939291908181526020018383602002808284378201915050505050509190505061112b565b005b34156104f157600080fd5b61051d600480803573ffffffffffffffffffffffffffffffffffffffff16906020019091905050611173565b6040518082815260200191505060405180910390f35b341561053e57600080fd5b6105466111bf565b6040518082815260200191505060405180910390f35b341561056757600080fd5b6105d3600480803573ffffffffffffffffffffffffffffffffffffffff16906020019091908035906020019082018035906020019080806020026020016040519081016040528093929190818152602001838360200280828437820191505050505050919050506111cc565b005b34156105e057600080fd5b610615600480803573ffffffffffffffffffffffffffffffffffffffff169060200190919080359060200190919050506112a0565b6040518082815260200191505060405180910390f35b341561063657600080fd5b61065d600480803563ffffffff1690602001909190803515159060200190919050506112d1565b005b341561066a57600080fd5b6106af600480803563ffffffff1690602001909190803563ffffffff1690602001909190803563ffffffff1690602001909190803515159060200190919050506113e4565b005b34156106bc57600080fd5b6106d2600480803590602001909190505061160e565b604051808260646000925b818410156107235782846020020151600860200280838360005b838110156107125780820151818401526020810190506106f7565b5050505090500192600101926106dd565b9250505091505060405180910390f35b341561073e57600080fd5b61075460048080359060200190919050506117e7565b604051808260646000925b818410156107a55782846020020151600560200280838360005b83811015610794578082015181840152602081019050610779565b50505050905001926001019261075f565b9250505091505060405180910390f35b34156107c057600080fd5b6107c86119e3565b6040518082815260200191505060405180910390f35b34156107e957600080fd5b610822600480803573ffffffffffffffffffffffffffffffffffffffff16906020019091908035600019169060200190919050506119e8565b005b341561082f57600080fd5b6108456004808035906020019091905050611b3e565b604051808681526020018573ffffffffffffffffffffffffffffffffffffffff1673ffffffffffffffffffffffffffffffffffffffff1681526020018463ffffffff1663ffffffff1681526020018364ffffffffff1664ffffffffff168152602001821515151581526020019550505050505060405180910390f35b6003818154811015156108d057fe5b90600052602060002090016000915090508060000160009054906101000a900463ffffffff16908060000160049054906101000a900463ffffffff16908060000160089054906101000a900463ffffffff169080600001600c9054906101000a900460ff16905084565b600260009054906101000a900473ffffffffffffffffffffffffffffffffffffffff1681565b6000610990620f42406109828563ffffffff1685611bd190919063ffffffff16565b611c0790919063ffffffff16565b905092915050565b6109a0612036565b6000806000806000600560008973ffffffffffffffffffffffffffffffffffffffff1673ffffffffffffffffffffffffffffffffffffffff1681526020019081526020016000209450600093505b60648461ffff161015610b9b5784805490508461ffff168801101515610a1357610b9b565b6004858561ffff168901815481101515610a2957fe5b906000526020600020900154815481101515610a4157fe5b9060005260206000209060020201925060038360010160149054906101000a900463ffffffff1663ffffffff16815481101515610a7a57fe5b90600052602060002090019150610aa98260000160009054906101000a900463ffffffff168460000154610960565b905060e060405190810160405280868661ffff168a01815481101515610acb57fe5b9060005260206000209001548152602001846000015481526020018281526020018460010160189054906101000a900464ffffffffff1664ffffffffff1681526020018360000160009054906101000a900463ffffffff1663ffffffff1681526020018360000160049054906101000a900463ffffffff1663ffffffff16815260200184600101601d9054906101000a900460ff16610b6b576000610b6e565b60015b60ff16815250868561ffff16606481101515610b8657fe5b602002018190525083806001019450506109ee565b505050505092915050565b6000806000600484815481101515610bba57fe5b9060005260206000209060020201925060038360010160149054906101000a900463ffffffff1663ffffffff16815481101515610bf357fe5b9060005260206000209001915082600101601d9054906101000a900460ff161515610c1d57600080fd5b8260010160189054906101000a900464ffffffffff1664ffffffffff164210151515610c4857600080fd5b600083600101601d6101000a81548160ff021916908315150217905550610c878260000160009054906101000a900463ffffffff168460000154610960565b9050600260009054906101000a900473ffffffffffffffffffffffffffffffffffffffff1673ffffffffffffffffffffffffffffffffffffffff1663295777be84600001546040518263ffffffff167c010000000000000000000000000000000000000000000000000000000002815260040180828152602001915050600060405180830381600087803b1515610d1d57600080fd5b5af11515610d2a57600080fd5b505050600160009054906101000a900473ffffffffffffffffffffffffffffffffffffffff1673ffffffffffffffffffffffffffffffffffffffff1663ffdcf0958460010160009054906101000a900473ffffffffffffffffffffffffffffffffffffffff16610da7848760000154611c2290919063ffffffff16565b6040518363ffffffff167c0100000000000000000000000000000000000000000000000000000000028152600401808373ffffffffffffffffffffffffffffffffffffffff1673ffffffffffffffffffffffffffffffffffffffff16815260200182815260200180602001828103825260188152602001807f46756e64732072656c65617365642066726f6d206c6f636b00000000000000008152506020019350505050600060405180830381600087803b1515610e6457600080fd5b5af11515610e7157600080fd5b5050508260010160009054906101000a900473ffffffffffffffffffffffffffffffffffffffff1673ffffffffffffffffffffffffffffffffffffffff167f622ca42598ab680a7def4a7346e1963a82207cf42a5ddb8056ad62cfbda19b88856040518082815260200191505060405180910390a250505050565b6000600380549050905090565b60006020528160005260406000206020528060005260406000206000915091509054906101000a900460ff1681565b6000803373ffffffffffffffffffffffffffffffffffffffff1673ffffffffffffffffffffffffffffffffffffffff16815260200190815260200160002060007f4d6f6e6574617279426f6172640000000000000000000000000000000000000060001916815260200190815260200160002060009054906101000a900460ff161515610fb457600080fd5b60008060008473ffffffffffffffffffffffffffffffffffffffff1673ffffffffffffffffffffffffffffffffffffffff1681526020019081526020016000206000836000191660001916815260200190815260200160002060006101000a81548160ff0219169083151502179055508173ffffffffffffffffffffffffffffffffffffffff167f789770131846de4d1f28418f0f957cdf4fcabe5eccf70067083e20ecece69a348260405180826000191660001916815260200191505060405180910390a25050565b6000600160009054906101000a900473ffffffffffffffffffffffffffffffffffffffff1673ffffffffffffffffffffffffffffffffffffffff163373ffffffffffffffffffffffffffffffffffffffff161415156110dc57600080fd5b819050818163ffffffff161415156110f357600080fd5b6110fe818585611c43565b5050505050565b600160009054906101000a900473ffffffffffffffffffffffffffffffffffffffff1681565b60008082519150600090505b8181101561116d5761116084848381518110151561115157fe5b90602001906020020151610f28565b8080600101915050611137565b50505050565b6000600560008373ffffffffffffffffffffffffffffffffffffffff1673ffffffffffffffffffffffffffffffffffffffff168152602001908152602001600020805490509050919050565b6000600480549050905090565b6000806000803373ffffffffffffffffffffffffffffffffffffffff1673ffffffffffffffffffffffffffffffffffffffff16815260200190815260200160002060007f4d6f6e6574617279426f6172640000000000000000000000000000000000000060001916815260200190815260200160002060009054906101000a900460ff16151561125b57600080fd5b82519150600090505b8181101561129a5761128d84848381518110151561127e57fe5b906020019060200201516119e8565b8080600101915050611264565b50505050565b6005602052816000526040600020818154811015156112bb57fe5b9060005260206000209001600091509150505481565b7f4d6f6e6574617279426f617264000000000000000000000000000000000000006000803373ffffffffffffffffffffffffffffffffffffffff1673ffffffffffffffffffffffffffffffffffffffff1681526020019081526020016000206000826000191660001916815260200190815260200160002060009054906101000a900460ff16151561136257600080fd5b8160038463ffffffff1681548110151561137857fe5b9060005260206000209001600001600c6101000a81548160ff0219169083151502179055508263ffffffff167f8b86e3e2da15c800fc123a7c2555729cf7819f68bdf7d98a97a80c43d051bc9f83604051808215151515815260200191505060405180910390a2505050565b6000807f4d6f6e6574617279426f617264000000000000000000000000000000000000006000803373ffffffffffffffffffffffffffffffffffffffff1673ffffffffffffffffffffffffffffffffffffffff1681526020019081526020016000206000826000191660001916815260200190815260200160002060009054906101000a900460ff16151561147857600080fd5b60016003805480600101828161148e9190612065565b916000526020600020900160006080604051908101604052808c63ffffffff1681526020018b63ffffffff1681526020018a63ffffffff168152602001891515815250909190915060008201518160000160006101000a81548163ffffffff021916908363ffffffff16021790555060208201518160000160046101000a81548163ffffffff021916908363ffffffff16021790555060408201518160000160086101000a81548163ffffffff021916908363ffffffff160217905550606082015181600001600c6101000a81548160ff0219169083151502179055505050039250829150828263ffffffff1614151561158757600080fd5b8163ffffffff167f1f8c90040d4429f522e53fbe964004b66d66b4fd7a31d87359d1813adc33568e88888888604051808563ffffffff1663ffffffff1681526020018463ffffffff1663ffffffff1681526020018363ffffffff1663ffffffff1681526020018215151515815260200194505050505060405180910390a250505050505050565b611616612091565b600080600080600093505b60648461ffff1610156117de576004805490508461ffff168701101515611647576117de565b60048461ffff16870181548110151561165c57fe5b9060005260206000209060020201925060038360010160149054906101000a900463ffffffff1663ffffffff1681548110151561169557fe5b906000526020600020900191506116c48260000160009054906101000a900463ffffffff168460000154610960565b9050610100604051908101604052808561ffff16880181526020018460010160009054906101000a900473ffffffffffffffffffffffffffffffffffffffff1673ffffffffffffffffffffffffffffffffffffffff168152602001846000015481526020018281526020018460010160189054906101000a900464ffffffffff1664ffffffffff1681526020018360000160009054906101000a900463ffffffff1663ffffffff1681526020018360000160049054906101000a900463ffffffff1663ffffffff16815260200184600101601d9054906101000a900460ff166117ae5760006117b1565b60015b60ff16815250858561ffff166064811015156117c957fe5b60200201819052508380600101945050611621565b50505050919050565b6117ef6120c0565b600080600091505b60648260ff1610156119dc576003805490508260ff16850110151561181b576119dc565b60038260ff16850181548110151561182f57fe5b9060005260206000209001905060a0604051908101604052808260000160009054906101000a900463ffffffff1663ffffffff1681526020018260000160049054906101000a900463ffffffff1663ffffffff1681526020018260000160089054906101000a900463ffffffff1663ffffffff168152602001600260009054906101000a900473ffffffffffffffffffffffffffffffffffffffff1673ffffffffffffffffffffffffffffffffffffffff1663265b5d938460000160089054906101000a900463ffffffff168560000160009054906101000a900463ffffffff166040518363ffffffff167c0100000000000000000000000000000000000000000000000000000000028152600401808363ffffffff1681526020018263ffffffff16815260200192505050602060405180830381600087803b151561197457600080fd5b5af1151561198157600080fd5b50505060405180519050815260200182600001600c9054906101000a900460ff166119ad5760006119b0565b60015b60ff16815250838360ff166064811015156119c757fe5b602002018190525081806001019250506117f7565b5050919050565b606481565b6000803373ffffffffffffffffffffffffffffffffffffffff1673ffffffffffffffffffffffffffffffffffffffff16815260200190815260200160002060007f4d6f6e6574617279426f6172640000000000000000000000000000000000000060001916815260200190815260200160002060009054906101000a900460ff161515611a7457600080fd5b60016000808473ffffffffffffffffffffffffffffffffffffffff1673ffffffffffffffffffffffffffffffffffffffff1681526020019081526020016000206000836000191660001916815260200190815260200160002060006101000a81548160ff0219169083151502179055508173ffffffffffffffffffffffffffffffffffffffff167fc65937e3dbcb9fb30f646815dd67a3dbd09ba17718cbcb54efbe3635f8e0a6fe8260405180826000191660001916815260200191505060405180910390a25050565b600481815481101515611b4d57fe5b90600052602060002090600202016000915090508060000154908060010160009054906101000a900473ffffffffffffffffffffffffffffffffffffffff16908060010160149054906101000a900463ffffffff16908060010160189054906101000a900464ffffffffff169080600101601d9054906101000a900460ff16905085565b60008082840290506000841480611bf25750828482811515611bef57fe5b04145b1515611bfd57600080fd5b8091505092915050565b6000808284811515611c1557fe5b0490508091505092915050565b6000808284019050838110151515611c3957600080fd5b8091505092915050565b600080600080600060038863ffffffff16815481101515611c6057fe5b9060005260206000209001935083600001600c9054906101000a900460ff161515611c8a57600080fd5b8360000160089054906101000a900463ffffffff1663ffffffff168610151515611cb357600080fd5b611cd18460000160009054906101000a900463ffffffff1687610960565b9250611d008460000160049054906101000a900463ffffffff1663ffffffff1642611c2290919063ffffffff16565b9150819050818164ffffffffff16141515611d1a57600080fd5b600160048054806001018281611d3091906120ef565b9160005260206000209060020201600060a0604051908101604052808b81526020018c73ffffffffffffffffffffffffffffffffffffffff1681526020018d63ffffffff1681526020018664ffffffffff1681526020016001151581525090919091506000820151816000015560208201518160010160006101000a81548173ffffffffffffffffffffffffffffffffffffffff021916908373ffffffffffffffffffffffffffffffffffffffff16021790555060408201518160010160146101000a81548163ffffffff021916908363ffffffff16021790555060608201518160010160186101000a81548164ffffffffff021916908364ffffffffff160217905550608082015181600101601d6101000a81548160ff0219169083151502179055505050039450600560008873ffffffffffffffffffffffffffffffffffffffff1673ffffffffffffffffffffffffffffffffffffffff1681526020019081526020016000208054806001018281611eaa9190612121565b916000526020600020900160008790919091505550600260009054906101000a900473ffffffffffffffffffffffffffffffffffffffff1673ffffffffffffffffffffffffffffffffffffffff166364217bdf87856040518363ffffffff167c01000000000000000000000000000000000000000000000000000000000281526004018083815260200182815260200192505050600060405180830381600087803b1515611f5757600080fd5b5af11515611f6457600080fd5b5050508673ffffffffffffffffffffffffffffffffffffffff167fa69aa1880e9e76a4474a64a1bc8d02f6eb94abe59641a4d8e858b2c66c768dcf868886858960000160009054906101000a900463ffffffff168a60000160049054906101000a900463ffffffff16604051808781526020018681526020018581526020018464ffffffffff1664ffffffffff1681526020018363ffffffff1663ffffffff1681526020018263ffffffff1663ffffffff168152602001965050505050505060405180910390a2505050509392505050565b615780604051908101604052806064905b61204f61214d565b8152602001906001900390816120475790505090565b81548183558181151161208c5781836000526020600020918201910161208b9190612175565b5b505050565b616400604051908101604052806064905b6120aa6121ed565b8152602001906001900390816120a25790505090565b613e80604051908101604052806064905b6120d9612216565b8152602001906001900390816120d15790505090565b81548183558181151161211c5760020281600202836000526020600020918201910161211b919061223e565b5b505050565b8154818355818115116121485781836000526020600020918201910161214791906122cf565b5b505050565b60e0604051908101604052806007905b600081526020019060019003908161215d5790505090565b6121ea91905b808211156121e657600080820160006101000a81549063ffffffff02191690556000820160046101000a81549063ffffffff02191690556000820160086101000a81549063ffffffff021916905560008201600c6101000a81549060ff02191690555060010161217b565b5090565b90565b610100604051908101604052806008905b60008152602001906001900390816121fe5790505090565b60a0604051908101604052806005905b60008152602001906001900390816122265790505090565b6122cc91905b808211156122c8576000808201600090556001820160006101000a81549073ffffffffffffffffffffffffffffffffffffffff02191690556001820160146101000a81549063ffffffff02191690556001820160186101000a81549064ffffffffff021916905560018201601d6101000a81549060ff021916905550600201612244565b5090565b90565b6122f191905b808211156122ed5760008160009055506001016122d5565b5090565b905600a165627a7a72305820b98ac51ea9d19aa14d35b67b6f15d1b91f8560138e40a09eb1dd72a764ab3d310029",
  "source": "/* contract for tracking locked funds etc.\n\n requirements\n  -> lock funds\n  -> unlock funds\n  -> index locks by address\n\n For flows see: https://github.com/Augmint/augmint-contracts/blob/master/docs/lockFlow.png\n\n TODO / think about:\n    - monetarySupervisor setter?\n\n to do/think about:\n  -> self-destruct function?\n  -> return only active loan products from getLoanProducts?\n*/\n\npragma solidity 0.4.21;\n\nimport \"./generic/Restricted.sol\";\nimport \"./generic/SafeMath.sol\";\nimport \"./interfaces/AugmintTokenInterface.sol\";\nimport \"./MonetarySupervisor.sol\";\nimport \"./interfaces/TokenReceiver.sol\";\n\n\ncontract Locker is Restricted, TokenReceiver {\n\n    using SafeMath for uint256;\n\n    uint public constant CHUNK_SIZE = 100;\n\n    event NewLockProduct(uint32 indexed lockProductId, uint32 perTermInterest, uint32 durationInSecs,\n                            uint32 minimumLockAmount, bool isActive);\n\n    event LockProductActiveChange(uint32 indexed lockProductId, bool newActiveState);\n\n    // NB: amountLocked includes the original amount, plus interest\n    event NewLock(address indexed lockOwner, uint lockId, uint amountLocked, uint interestEarned,\n                    uint40 lockedUntil, uint32 perTermInterest, uint32 durationInSecs);\n\n    event LockReleased(address indexed lockOwner, uint lockId);\n\n    struct LockProduct {\n        // perTermInterest is in millionths (i.e. 1,000,000 = 100%):\n        uint32 perTermInterest;\n        uint32 durationInSecs;\n        uint32 minimumLockAmount;\n        bool isActive;\n    }\n\n    /* NB: we don't need to store lock parameters because lockProducts can't be altered (only disabled/enabled) */\n    struct Lock {\n        uint amountLocked;\n        address owner;\n        uint32 productId;\n        uint40 lockedUntil;\n        bool isActive;\n    }\n\n    AugmintTokenInterface public augmintToken;\n    MonetarySupervisor public monetarySupervisor;\n\n    LockProduct[] public lockProducts;\n\n    Lock[] public locks;\n\n    // lock ids for an account\n    mapping(address => uint[]) public accountLocks;\n\n    function Locker(AugmintTokenInterface _augmintToken, MonetarySupervisor _monetarySupervisor) public {\n\n        augmintToken = _augmintToken;\n        monetarySupervisor = _monetarySupervisor;\n\n    }\n\n    function addLockProduct(uint32 perTermInterest, uint32 durationInSecs, uint32 minimumLockAmount, bool isActive)\n    external restrict(\"MonetaryBoard\") {\n\n        uint _newLockProductId = lockProducts.push(\n                                    LockProduct(perTermInterest, durationInSecs, minimumLockAmount, isActive)) - 1;\n        uint32 newLockProductId = uint32(_newLockProductId);\n        require(newLockProductId == _newLockProductId);\n        emit NewLockProduct(newLockProductId, perTermInterest, durationInSecs, minimumLockAmount, isActive);\n\n    }\n\n    function setLockProductActiveState(uint32 lockProductId, bool isActive) external restrict(\"MonetaryBoard\") {\n\n        lockProducts[lockProductId].isActive = isActive;\n        emit LockProductActiveChange(lockProductId, isActive);\n\n    }\n\n    /* lock funds, called from AugmintToken's transferAndNotify\n     Flow for locking tokens:\n        1) user calls token contract's transferAndNotify lockProductId passed in data arg\n        2) transferAndNotify transfers tokens to the Lock contract\n        3) transferAndNotify calls Lock.transferNotification with lockProductId\n    */\n    function transferNotification(address from, uint256 amountToLock, uint _lockProductId) external {\n        require(msg.sender == address(augmintToken));\n        uint32 lockProductId = uint32(_lockProductId);\n        require(lockProductId == _lockProductId);\n        /* TODO: make data arg generic bytes\n            uint productId;\n            assembly { // solhint-disable-line no-inline-assembly\n                productId := mload(data)\n        } */\n        _createLock(lockProductId, from, amountToLock);\n    }\n\n    function releaseFunds(uint lockId) external {\n        Lock storage lock = locks[lockId];\n        LockProduct storage lockProduct = lockProducts[lock.productId];\n\n        require(lock.isActive);\n        require(now >= lock.lockedUntil);\n\n        lock.isActive = false;\n\n        uint interestEarned = calculateInterest(lockProduct.perTermInterest, lock.amountLocked);\n\n        monetarySupervisor.releaseFundsNotification(lock.amountLocked); // to maintain totalLockAmount\n        augmintToken.transferWithNarrative(lock.owner, lock.amountLocked.add(interestEarned),\n                                                                                \"Funds released from lock\");\n\n        emit LockReleased(lock.owner, lockId);\n    }\n\n    function getLockProductCount() external view returns (uint) {\n\n        return lockProducts.length;\n\n    }\n\n    // returns 20 lock products starting from some offset\n    // lock products are encoded as [ perTermInterest, durationInSecs, minimumLockAmount, maxLockAmount, isActive ]\n    function getLockProducts(uint offset) external view returns (uint[5][CHUNK_SIZE] response) {\n        for (uint8 i = 0; i < CHUNK_SIZE; i++) {\n\n            if (offset + i >= lockProducts.length) { break; }\n\n            LockProduct storage lockProduct = lockProducts[offset + i];\n\n            response[i] = [ lockProduct.perTermInterest, lockProduct.durationInSecs, lockProduct.minimumLockAmount,\n                        monetarySupervisor.getMaxLockAmount(lockProduct.minimumLockAmount, lockProduct.perTermInterest),\n                        lockProduct.isActive ? 1 : 0 ];\n        }\n    }\n\n    function getLockCount() external view returns (uint) {\n        return locks.length;\n    }\n\n    function getLockCountForAddress(address lockOwner) external view returns (uint) {\n        return accountLocks[lockOwner].length;\n    }\n\n    // returns CHUNK_SIZE locks starting from some offset\n    // lock products are encoded as\n    //       [lockId, owner, amountLocked, interestEarned, lockedUntil, perTermInterest, durationInSecs, isActive ]\n    // NB: perTermInterest is in millionths (i.e. 1,000,000 = 100%):\n    function getLocks(uint offset) external view returns (uint[8][CHUNK_SIZE] response) {\n\n        for (uint16 i = 0; i < CHUNK_SIZE; i++) {\n\n            if (offset + i >= locks.length) { break; }\n\n            Lock storage lock = locks[offset + i];\n            LockProduct storage lockProduct = lockProducts[lock.productId];\n\n            uint interestEarned = calculateInterest(lockProduct.perTermInterest, lock.amountLocked);\n\n            response[i] = [uint(offset + i), uint(lock.owner), lock.amountLocked, interestEarned, lock.lockedUntil,\n                                lockProduct.perTermInterest, lockProduct.durationInSecs, lock.isActive ? 1 : 0];\n        }\n    }\n\n    // returns CHUNK_SIZE locks of a given account, starting from some offset\n    // lock products are encoded as\n    //             [lockId, amountLocked, interestEarned, lockedUntil, perTermInterest, durationInSecs, isActive ]\n    function getLocksForAddress(address lockOwner, uint offset) external view returns (uint[7][CHUNK_SIZE] response) {\n\n        uint[] storage locksForAddress = accountLocks[lockOwner];\n\n        for (uint16 i = 0; i < CHUNK_SIZE; i++) {\n\n            if (offset + i >= locksForAddress.length) { break; }\n\n            Lock storage lock = locks[locksForAddress[offset + i]];\n            LockProduct storage lockProduct = lockProducts[lock.productId];\n\n            uint interestEarned = calculateInterest(lockProduct.perTermInterest, lock.amountLocked);\n\n            response[i] = [ locksForAddress[offset + i], lock.amountLocked, interestEarned, lock.lockedUntil,\n                                lockProduct.perTermInterest, lockProduct.durationInSecs, lock.isActive ? 1 : 0 ];\n        }\n    }\n\n    function calculateInterest(uint32 perTermInterest, uint amountToLock) public pure returns (uint interestEarned) {\n        interestEarned = amountToLock.mul(perTermInterest).div(1000000);\n    }\n\n    // Internal function. assumes amountToLock is already transferred to this Lock contract\n    function _createLock(uint32 lockProductId, address lockOwner, uint amountToLock) internal returns(uint lockId) {\n        LockProduct storage lockProduct = lockProducts[lockProductId];\n        require(lockProduct.isActive);\n        require(amountToLock >= lockProduct.minimumLockAmount);\n\n        uint interestEarned = calculateInterest(lockProduct.perTermInterest, amountToLock);\n        uint expiration = now.add(lockProduct.durationInSecs);\n        uint40 lockedUntil = uint40(expiration);\n        require(lockedUntil == expiration);\n\n        lockId = locks.push(Lock(amountToLock, lockOwner, lockProductId, lockedUntil, true)) - 1;\n        accountLocks[lockOwner].push(lockId);\n\n        monetarySupervisor.requestInterest(amountToLock, interestEarned); // update KPIs & transfer interest here\n\n        emit NewLock(lockOwner, lockId, amountToLock, interestEarned, lockedUntil, lockProduct.perTermInterest,\n                    lockProduct.durationInSecs);\n    }\n\n}\n",
  "sourcePath": "/Users/petro/ether/augmint-web/augmint-contracts/contracts/Locker.sol",
  "compiler": {
    "name": "solc",
    "version": "0.4.21+commit.dfe3193c.Emscripten.clang"
  },
  "schemaVersion": "2.0.0",
  "updatedAt": "2018-04-12T15:00:23.912Z"
}