{
  "contractName": "Locker",
  "abi": [
    {
      "constant": true,
      "inputs": [
        {
          "name": "",
          "type": "uint256"
        }
      ],
      "name": "lockProducts",
      "outputs": [
        {
          "name": "perTermInterest",
          "type": "uint32"
        },
        {
          "name": "durationInSecs",
          "type": "uint32"
        },
        {
          "name": "minimumLockAmount",
          "type": "uint32"
        },
        {
          "name": "isActive",
          "type": "bool"
        }
      ],
      "payable": false,
      "stateMutability": "view",
      "type": "function"
    },
    {
      "constant": true,
      "inputs": [],
      "name": "monetarySupervisor",
      "outputs": [
        {
          "name": "",
          "type": "address"
        }
      ],
      "payable": false,
      "stateMutability": "view",
      "type": "function"
    },
    {
      "constant": true,
      "inputs": [
        {
          "name": "",
          "type": "address"
        },
        {
          "name": "",
          "type": "bytes32"
        }
      ],
      "name": "permissions",
      "outputs": [
        {
          "name": "",
          "type": "bool"
        }
      ],
      "payable": false,
      "stateMutability": "view",
      "type": "function"
    },
    {
      "constant": false,
      "inputs": [
        {
          "name": "agent",
          "type": "address"
        },
        {
          "name": "requiredPermission",
          "type": "bytes32"
        }
      ],
      "name": "revokePermission",
      "outputs": [],
      "payable": false,
      "stateMutability": "nonpayable",
      "type": "function"
    },
    {
      "constant": true,
      "inputs": [],
      "name": "augmintToken",
      "outputs": [
        {
          "name": "",
          "type": "address"
        }
      ],
      "payable": false,
      "stateMutability": "view",
      "type": "function"
    },
    {
      "constant": false,
      "inputs": [
        {
          "name": "agent",
          "type": "address"
        },
        {
          "name": "requiredPermissions",
          "type": "bytes32[]"
        }
      ],
      "name": "revokeMultiplePermissions",
      "outputs": [],
      "payable": false,
      "stateMutability": "nonpayable",
      "type": "function"
    },
    {
      "constant": false,
      "inputs": [
        {
          "name": "agent",
          "type": "address"
        },
        {
          "name": "requiredPermissions",
          "type": "bytes32[]"
        }
      ],
      "name": "grantMultiplePermissions",
      "outputs": [],
      "payable": false,
      "stateMutability": "nonpayable",
      "type": "function"
    },
    {
      "constant": true,
      "inputs": [
        {
          "name": "",
          "type": "address"
        },
        {
          "name": "",
          "type": "uint256"
        }
      ],
      "name": "accountLocks",
      "outputs": [
        {
          "name": "",
          "type": "uint256"
        }
      ],
      "payable": false,
      "stateMutability": "view",
      "type": "function"
    },
    {
      "constant": true,
      "inputs": [],
      "name": "CHUNK_SIZE",
      "outputs": [
        {
          "name": "",
          "type": "uint256"
        }
      ],
      "payable": false,
      "stateMutability": "view",
      "type": "function"
    },
    {
      "constant": false,
      "inputs": [
        {
          "name": "agent",
          "type": "address"
        },
        {
          "name": "requiredPermission",
          "type": "bytes32"
        }
      ],
      "name": "grantPermission",
      "outputs": [],
      "payable": false,
      "stateMutability": "nonpayable",
      "type": "function"
    },
    {
      "constant": true,
      "inputs": [
        {
          "name": "",
          "type": "uint256"
        }
      ],
      "name": "locks",
      "outputs": [
        {
          "name": "amountLocked",
          "type": "uint256"
        },
        {
          "name": "owner",
          "type": "address"
        },
        {
          "name": "productId",
          "type": "uint32"
        },
        {
          "name": "lockedUntil",
          "type": "uint40"
        },
        {
          "name": "isActive",
          "type": "bool"
        }
      ],
      "payable": false,
      "stateMutability": "view",
      "type": "function"
    },
    {
      "inputs": [
        {
          "name": "_augmintToken",
          "type": "address"
        },
        {
          "name": "_monetarySupervisor",
          "type": "address"
        }
      ],
      "payable": false,
      "stateMutability": "nonpayable",
      "type": "constructor"
    },
    {
      "anonymous": false,
      "inputs": [
        {
          "indexed": true,
          "name": "lockProductId",
          "type": "uint32"
        },
        {
          "indexed": false,
          "name": "perTermInterest",
          "type": "uint32"
        },
        {
          "indexed": false,
          "name": "durationInSecs",
          "type": "uint32"
        },
        {
          "indexed": false,
          "name": "minimumLockAmount",
          "type": "uint32"
        },
        {
          "indexed": false,
          "name": "isActive",
          "type": "bool"
        }
      ],
      "name": "NewLockProduct",
      "type": "event"
    },
    {
      "anonymous": false,
      "inputs": [
        {
          "indexed": true,
          "name": "lockProductId",
          "type": "uint32"
        },
        {
          "indexed": false,
          "name": "newActiveState",
          "type": "bool"
        }
      ],
      "name": "LockProductActiveChange",
      "type": "event"
    },
    {
      "anonymous": false,
      "inputs": [
        {
          "indexed": true,
          "name": "lockOwner",
          "type": "address"
        },
        {
          "indexed": false,
          "name": "lockId",
          "type": "uint256"
        },
        {
          "indexed": false,
          "name": "amountLocked",
          "type": "uint256"
        },
        {
          "indexed": false,
          "name": "interestEarned",
          "type": "uint256"
        },
        {
          "indexed": false,
          "name": "lockedUntil",
          "type": "uint40"
        },
        {
          "indexed": false,
          "name": "perTermInterest",
          "type": "uint32"
        },
        {
          "indexed": false,
          "name": "durationInSecs",
          "type": "uint32"
        }
      ],
      "name": "NewLock",
      "type": "event"
    },
    {
      "anonymous": false,
      "inputs": [
        {
          "indexed": true,
          "name": "lockOwner",
          "type": "address"
        },
        {
          "indexed": false,
          "name": "lockId",
          "type": "uint256"
        }
      ],
      "name": "LockReleased",
      "type": "event"
    },
    {
      "anonymous": false,
      "inputs": [
        {
          "indexed": false,
          "name": "newMonetarySupervisor",
          "type": "address"
        }
      ],
      "name": "MonetarySupervisorChanged",
      "type": "event"
    },
    {
      "anonymous": false,
      "inputs": [
        {
          "indexed": true,
          "name": "agent",
          "type": "address"
        },
        {
          "indexed": false,
          "name": "grantedPermission",
          "type": "bytes32"
        }
      ],
      "name": "PermissionGranted",
      "type": "event"
    },
    {
      "anonymous": false,
      "inputs": [
        {
          "indexed": true,
          "name": "agent",
          "type": "address"
        },
        {
          "indexed": false,
          "name": "revokedPermission",
          "type": "bytes32"
        }
      ],
      "name": "PermissionRevoked",
      "type": "event"
    },
    {
      "constant": false,
      "inputs": [
        {
          "name": "perTermInterest",
          "type": "uint32"
        },
        {
          "name": "durationInSecs",
          "type": "uint32"
        },
        {
          "name": "minimumLockAmount",
          "type": "uint32"
        },
        {
          "name": "isActive",
          "type": "bool"
        }
      ],
      "name": "addLockProduct",
      "outputs": [],
      "payable": false,
      "stateMutability": "nonpayable",
      "type": "function"
    },
    {
      "constant": false,
      "inputs": [
        {
          "name": "lockProductId",
          "type": "uint32"
        },
        {
          "name": "isActive",
          "type": "bool"
        }
      ],
      "name": "setLockProductActiveState",
      "outputs": [],
      "payable": false,
      "stateMutability": "nonpayable",
      "type": "function"
    },
    {
      "constant": false,
      "inputs": [
        {
          "name": "from",
          "type": "address"
        },
        {
          "name": "amountToLock",
          "type": "uint256"
        },
        {
          "name": "_lockProductId",
          "type": "uint256"
        }
      ],
      "name": "transferNotification",
      "outputs": [],
      "payable": false,
      "stateMutability": "nonpayable",
      "type": "function"
    },
    {
      "constant": false,
      "inputs": [
        {
          "name": "lockId",
          "type": "uint256"
        }
      ],
      "name": "releaseFunds",
      "outputs": [],
      "payable": false,
      "stateMutability": "nonpayable",
      "type": "function"
    },
    {
      "constant": false,
      "inputs": [
        {
          "name": "newMonetarySupervisor",
          "type": "address"
        }
      ],
      "name": "setMonetarySupervisor",
      "outputs": [],
      "payable": false,
      "stateMutability": "nonpayable",
      "type": "function"
    },
    {
      "constant": true,
      "inputs": [],
      "name": "getLockProductCount",
      "outputs": [
        {
          "name": "",
          "type": "uint256"
        }
      ],
      "payable": false,
      "stateMutability": "view",
      "type": "function"
    },
    {
      "constant": true,
      "inputs": [
        {
          "name": "offset",
          "type": "uint256"
        }
      ],
      "name": "getLockProducts",
      "outputs": [
        {
          "name": "response",
          "type": "uint256[5][100]"
        }
      ],
      "payable": false,
      "stateMutability": "view",
      "type": "function"
    },
    {
      "constant": true,
      "inputs": [],
      "name": "getLockCount",
      "outputs": [
        {
          "name": "",
          "type": "uint256"
        }
      ],
      "payable": false,
      "stateMutability": "view",
      "type": "function"
    },
    {
      "constant": true,
      "inputs": [
        {
          "name": "lockOwner",
          "type": "address"
        }
      ],
      "name": "getLockCountForAddress",
      "outputs": [
        {
          "name": "",
          "type": "uint256"
        }
      ],
      "payable": false,
      "stateMutability": "view",
      "type": "function"
    },
    {
      "constant": true,
      "inputs": [
        {
          "name": "offset",
          "type": "uint256"
        }
      ],
      "name": "getLocks",
      "outputs": [
        {
          "name": "response",
          "type": "uint256[8][100]"
        }
      ],
      "payable": false,
      "stateMutability": "view",
      "type": "function"
    },
    {
      "constant": true,
      "inputs": [
        {
          "name": "lockOwner",
          "type": "address"
        },
        {
          "name": "offset",
          "type": "uint256"
        }
      ],
      "name": "getLocksForAddress",
      "outputs": [
        {
          "name": "response",
          "type": "uint256[7][100]"
        }
      ],
      "payable": false,
      "stateMutability": "view",
      "type": "function"
    },
    {
      "constant": true,
      "inputs": [
        {
          "name": "perTermInterest",
          "type": "uint32"
        },
        {
          "name": "amountToLock",
          "type": "uint256"
        }
      ],
      "name": "calculateInterest",
      "outputs": [
        {
          "name": "interestEarned",
          "type": "uint256"
        }
      ],
      "payable": false,
      "stateMutability": "pure",
      "type": "function"
    }
  ],
  "bytecode": "0x6060604052341561000f57600080fd5b60405160408061265e8339810160405280805190602001909190805190602001909190505060016000803373ffffffffffffffffffffffffffffffffffffffff1673ffffffffffffffffffffffffffffffffffffffff16815260200190815260200160002060007f4d6f6e6574617279426f6172640000000000000000000000000000000000000060001916815260200190815260200160002060006101000a81548160ff0219169083151502179055503373ffffffffffffffffffffffffffffffffffffffff167fc65937e3dbcb9fb30f646815dd67a3dbd09ba17718cbcb54efbe3635f8e0a6fe60405180807f4d6f6e6574617279426f61726400000000000000000000000000000000000000815250602001905060405180910390a281600160006101000a81548173ffffffffffffffffffffffffffffffffffffffff021916908373ffffffffffffffffffffffffffffffffffffffff16021790555080600260006101000a81548173ffffffffffffffffffffffffffffffffffffffff021916908373ffffffffffffffffffffffffffffffffffffffff160217905550505061249d806101c16000396000f300606060405260043610610133576000357c0100000000000000000000000000000000000000000000000000000000900463ffffffff16806314f6c8da14610138578063169f66df146101ac578063277a68891461020157806344fcbd79146102475780634d68282f146102e85780634de160531461030b5780635b225526146103345780635fe070131461039257806364e7e4a4146103d85780637b9b9c89146104235780637ea469931461047857806389952c89146104f157806390f549ba1461052a57806394493c43146105775780639ac3317b146105a0578063c29ab95b14610619578063c3b75b8f1461066f578063c57c3bbd146106a3578063c6d8f0c4146106f5578063e18a913414610777578063e91e13a9146107f9578063f38a826214610822578063f4dadc6114610868575b600080fd5b341561014357600080fd5b6101596004808035906020019091905050610905565b604051808563ffffffff1663ffffffff1681526020018463ffffffff1663ffffffff1681526020018363ffffffff1663ffffffff1681526020018215151515815260200194505050505060405180910390f35b34156101b757600080fd5b6101bf61097e565b604051808273ffffffffffffffffffffffffffffffffffffffff1673ffffffffffffffffffffffffffffffffffffffff16815260200191505060405180910390f35b341561020c57600080fd5b610231600480803563ffffffff169060200190919080359060200190919050506109a4565b6040518082815260200191505060405180910390f35b341561025257600080fd5b610287600480803573ffffffffffffffffffffffffffffffffffffffff169060200190919080359060200190919050506109dc565b604051808260646000925b818410156102d85782846020020151600760200280838360005b838110156102c75780820151818401526020810190506102ac565b505050509050019260010192610292565b9250505091505060405180910390f35b34156102f357600080fd5b6103096004808035906020019091905050610bea565b005b341561031657600080fd5b61031e610f30565b6040518082815260200191505060405180910390f35b341561033f57600080fd5b610378600480803573ffffffffffffffffffffffffffffffffffffffff1690602001909190803560001916906020019091905050610f3d565b604051808215151515815260200191505060405180910390f35b341561039d57600080fd5b6103d6600480803573ffffffffffffffffffffffffffffffffffffffff1690602001909190803560001916906020019091905050610f6c565b005b34156103e357600080fd5b610421600480803573ffffffffffffffffffffffffffffffffffffffff169060200190919080359060200190919080359060200190919050506110c2565b005b341561042e57600080fd5b610436611149565b604051808273ffffffffffffffffffffffffffffffffffffffff1673ffffffffffffffffffffffffffffffffffffffff16815260200191505060405180910390f35b341561048357600080fd5b6104ef600480803573ffffffffffffffffffffffffffffffffffffffff169060200190919080359060200190820180359060200190808060200260200160405190810160405280939291908181526020018383602002808284378201915050505050509190505061116f565b005b34156104fc57600080fd5b610528600480803573ffffffffffffffffffffffffffffffffffffffff169060200190919050506111b7565b005b341561053557600080fd5b610561600480803573ffffffffffffffffffffffffffffffffffffffff169060200190919050506112f0565b6040518082815260200191505060405180910390f35b341561058257600080fd5b61058a61133c565b6040518082815260200191505060405180910390f35b34156105ab57600080fd5b610617600480803573ffffffffffffffffffffffffffffffffffffffff1690602001909190803590602001908201803590602001908080602002602001604051908101604052809392919081815260200183836020028082843782019150505050505091905050611349565b005b341561062457600080fd5b610659600480803573ffffffffffffffffffffffffffffffffffffffff1690602001909190803590602001909190505061141d565b6040518082815260200191505060405180910390f35b341561067a57600080fd5b6106a1600480803563ffffffff16906020019091908035151590602001909190505061144e565b005b34156106ae57600080fd5b6106f3600480803563ffffffff1690602001909190803563ffffffff1690602001909190803563ffffffff169060200190919080351515906020019091905050611561565b005b341561070057600080fd5b610716600480803590602001909190505061178b565b604051808260646000925b818410156107675782846020020151600860200280838360005b8381101561075657808201518184015260208101905061073b565b505050509050019260010192610721565b9250505091505060405180910390f35b341561078257600080fd5b6107986004808035906020019091905050611964565b604051808260646000925b818410156107e95782846020020151600560200280838360005b838110156107d85780820151818401526020810190506107bd565b5050505090500192600101926107a3565b9250505091505060405180910390f35b341561080457600080fd5b61080c611b60565b6040518082815260200191505060405180910390f35b341561082d57600080fd5b610866600480803573ffffffffffffffffffffffffffffffffffffffff1690602001909190803560001916906020019091905050611b65565b005b341561087357600080fd5b6108896004808035906020019091905050611cbb565b604051808681526020018573ffffffffffffffffffffffffffffffffffffffff1673ffffffffffffffffffffffffffffffffffffffff1681526020018463ffffffff1663ffffffff1681526020018364ffffffffff1664ffffffffff168152602001821515151581526020019550505050505060405180910390f35b60038181548110151561091457fe5b90600052602060002090016000915090508060000160009054906101000a900463ffffffff16908060000160049054906101000a900463ffffffff16908060000160089054906101000a900463ffffffff169080600001600c9054906101000a900460ff16905084565b600260009054906101000a900473ffffffffffffffffffffffffffffffffffffffff1681565b60006109d4620f42406109c68563ffffffff1685611d4e90919063ffffffff16565b611d8490919063ffffffff16565b905092915050565b6109e46121b3565b6000806000806000600560008973ffffffffffffffffffffffffffffffffffffffff1673ffffffffffffffffffffffffffffffffffffffff1681526020019081526020016000209450600093505b60648461ffff161015610bdf5784805490508461ffff168801101515610a5757610bdf565b6004858561ffff168901815481101515610a6d57fe5b906000526020600020900154815481101515610a8557fe5b9060005260206000209060020201925060038360010160149054906101000a900463ffffffff1663ffffffff16815481101515610abe57fe5b90600052602060002090019150610aed8260000160009054906101000a900463ffffffff1684600001546109a4565b905060e060405190810160405280868661ffff168a01815481101515610b0f57fe5b9060005260206000209001548152602001846000015481526020018281526020018460010160189054906101000a900464ffffffffff1664ffffffffff1681526020018360000160009054906101000a900463ffffffff1663ffffffff1681526020018360000160049054906101000a900463ffffffff1663ffffffff16815260200184600101601d9054906101000a900460ff16610baf576000610bb2565b60015b60ff16815250868561ffff16606481101515610bca57fe5b60200201819052508380600101945050610a32565b505050505092915050565b6000806000600484815481101515610bfe57fe5b9060005260206000209060020201925060038360010160149054906101000a900463ffffffff1663ffffffff16815481101515610c3757fe5b9060005260206000209001915082600101601d9054906101000a900460ff161515610c6157600080fd5b8260010160189054906101000a900464ffffffffff1664ffffffffff164210151515610c8c57600080fd5b600083600101601d6101000a81548160ff021916908315150217905550610ccb8260000160009054906101000a900463ffffffff1684600001546109a4565b9050600260009054906101000a900473ffffffffffffffffffffffffffffffffffffffff1673ffffffffffffffffffffffffffffffffffffffff1663295777be84600001546040518263ffffffff167c010000000000000000000000000000000000000000000000000000000002815260040180828152602001915050600060405180830381600087803b1515610d6157600080fd5b5af11515610d6e57600080fd5b505050600160009054906101000a900473ffffffffffffffffffffffffffffffffffffffff1673ffffffffffffffffffffffffffffffffffffffff1663ffdcf0958460010160009054906101000a900473ffffffffffffffffffffffffffffffffffffffff16610deb848760000154611d9f90919063ffffffff16565b6040518363ffffffff167c0100000000000000000000000000000000000000000000000000000000028152600401808373ffffffffffffffffffffffffffffffffffffffff1673ffffffffffffffffffffffffffffffffffffffff16815260200182815260200180602001828103825260188152602001807f46756e64732072656c65617365642066726f6d206c6f636b00000000000000008152506020019350505050600060405180830381600087803b1515610ea857600080fd5b5af11515610eb557600080fd5b5050508260010160009054906101000a900473ffffffffffffffffffffffffffffffffffffffff1673ffffffffffffffffffffffffffffffffffffffff167f622ca42598ab680a7def4a7346e1963a82207cf42a5ddb8056ad62cfbda19b88856040518082815260200191505060405180910390a250505050565b6000600380549050905090565b60006020528160005260406000206020528060005260406000206000915091509054906101000a900460ff1681565b6000803373ffffffffffffffffffffffffffffffffffffffff1673ffffffffffffffffffffffffffffffffffffffff16815260200190815260200160002060007f4d6f6e6574617279426f6172640000000000000000000000000000000000000060001916815260200190815260200160002060009054906101000a900460ff161515610ff857600080fd5b60008060008473ffffffffffffffffffffffffffffffffffffffff1673ffffffffffffffffffffffffffffffffffffffff1681526020019081526020016000206000836000191660001916815260200190815260200160002060006101000a81548160ff0219169083151502179055508173ffffffffffffffffffffffffffffffffffffffff167f789770131846de4d1f28418f0f957cdf4fcabe5eccf70067083e20ecece69a348260405180826000191660001916815260200191505060405180910390a25050565b6000600160009054906101000a900473ffffffffffffffffffffffffffffffffffffffff1673ffffffffffffffffffffffffffffffffffffffff163373ffffffffffffffffffffffffffffffffffffffff1614151561112057600080fd5b819050818163ffffffff1614151561113757600080fd5b611142818585611dc0565b5050505050565b600160009054906101000a900473ffffffffffffffffffffffffffffffffffffffff1681565b60008082519150600090505b818110156111b1576111a484848381518110151561119557fe5b90602001906020020151610f6c565b808060010191505061117b565b50505050565b7f4d6f6e6574617279426f617264000000000000000000000000000000000000006000803373ffffffffffffffffffffffffffffffffffffffff1673ffffffffffffffffffffffffffffffffffffffff1681526020019081526020016000206000826000191660001916815260200190815260200160002060009054906101000a900460ff16151561124857600080fd5b81600260006101000a81548173ffffffffffffffffffffffffffffffffffffffff021916908373ffffffffffffffffffffffffffffffffffffffff1602179055507f230749e2d30c004ff4cbe604d7814ccdf13042c157f2690d47e2585997e470c082604051808273ffffffffffffffffffffffffffffffffffffffff1673ffffffffffffffffffffffffffffffffffffffff16815260200191505060405180910390a15050565b6000600560008373ffffffffffffffffffffffffffffffffffffffff1673ffffffffffffffffffffffffffffffffffffffff168152602001908152602001600020805490509050919050565b6000600480549050905090565b6000806000803373ffffffffffffffffffffffffffffffffffffffff1673ffffffffffffffffffffffffffffffffffffffff16815260200190815260200160002060007f4d6f6e6574617279426f6172640000000000000000000000000000000000000060001916815260200190815260200160002060009054906101000a900460ff1615156113d857600080fd5b82519150600090505b818110156114175761140a8484838151811015156113fb57fe5b90602001906020020151611b65565b80806001019150506113e1565b50505050565b60056020528160005260406000208181548110151561143857fe5b9060005260206000209001600091509150505481565b7f4d6f6e6574617279426f617264000000000000000000000000000000000000006000803373ffffffffffffffffffffffffffffffffffffffff1673ffffffffffffffffffffffffffffffffffffffff1681526020019081526020016000206000826000191660001916815260200190815260200160002060009054906101000a900460ff1615156114df57600080fd5b8160038463ffffffff168154811015156114f557fe5b9060005260206000209001600001600c6101000a81548160ff0219169083151502179055508263ffffffff167f8b86e3e2da15c800fc123a7c2555729cf7819f68bdf7d98a97a80c43d051bc9f83604051808215151515815260200191505060405180910390a2505050565b6000807f4d6f6e6574617279426f617264000000000000000000000000000000000000006000803373ffffffffffffffffffffffffffffffffffffffff1673ffffffffffffffffffffffffffffffffffffffff1681526020019081526020016000206000826000191660001916815260200190815260200160002060009054906101000a900460ff1615156115f557600080fd5b60016003805480600101828161160b91906121e2565b916000526020600020900160006080604051908101604052808c63ffffffff1681526020018b63ffffffff1681526020018a63ffffffff168152602001891515815250909190915060008201518160000160006101000a81548163ffffffff021916908363ffffffff16021790555060208201518160000160046101000a81548163ffffffff021916908363ffffffff16021790555060408201518160000160086101000a81548163ffffffff021916908363ffffffff160217905550606082015181600001600c6101000a81548160ff0219169083151502179055505050039250829150828263ffffffff1614151561170457600080fd5b8163ffffffff167f1f8c90040d4429f522e53fbe964004b66d66b4fd7a31d87359d1813adc33568e88888888604051808563ffffffff1663ffffffff1681526020018463ffffffff1663ffffffff1681526020018363ffffffff1663ffffffff1681526020018215151515815260200194505050505060405180910390a250505050505050565b61179361220e565b600080600080600093505b60648461ffff16101561195b576004805490508461ffff1687011015156117c45761195b565b60048461ffff1687018154811015156117d957fe5b9060005260206000209060020201925060038360010160149054906101000a900463ffffffff1663ffffffff1681548110151561181257fe5b906000526020600020900191506118418260000160009054906101000a900463ffffffff1684600001546109a4565b9050610100604051908101604052808561ffff16880181526020018460010160009054906101000a900473ffffffffffffffffffffffffffffffffffffffff1673ffffffffffffffffffffffffffffffffffffffff168152602001846000015481526020018281526020018460010160189054906101000a900464ffffffffff1664ffffffffff1681526020018360000160009054906101000a900463ffffffff1663ffffffff1681526020018360000160049054906101000a900463ffffffff1663ffffffff16815260200184600101601d9054906101000a900460ff1661192b57600061192e565b60015b60ff16815250858561ffff1660648110151561194657fe5b6020020181905250838060010194505061179e565b50505050919050565b61196c61223d565b600080600091505b60648260ff161015611b59576003805490508260ff16850110151561199857611b59565b60038260ff1685018154811015156119ac57fe5b9060005260206000209001905060a0604051908101604052808260000160009054906101000a900463ffffffff1663ffffffff1681526020018260000160049054906101000a900463ffffffff1663ffffffff1681526020018260000160089054906101000a900463ffffffff1663ffffffff168152602001600260009054906101000a900473ffffffffffffffffffffffffffffffffffffffff1673ffffffffffffffffffffffffffffffffffffffff1663265b5d938460000160089054906101000a900463ffffffff168560000160009054906101000a900463ffffffff166040518363ffffffff167c0100000000000000000000000000000000000000000000000000000000028152600401808363ffffffff1681526020018263ffffffff16815260200192505050602060405180830381600087803b1515611af157600080fd5b5af11515611afe57600080fd5b50505060405180519050815260200182600001600c9054906101000a900460ff16611b2a576000611b2d565b60015b60ff16815250838360ff16606481101515611b4457fe5b60200201819052508180600101925050611974565b5050919050565b606481565b6000803373ffffffffffffffffffffffffffffffffffffffff1673ffffffffffffffffffffffffffffffffffffffff16815260200190815260200160002060007f4d6f6e6574617279426f6172640000000000000000000000000000000000000060001916815260200190815260200160002060009054906101000a900460ff161515611bf157600080fd5b60016000808473ffffffffffffffffffffffffffffffffffffffff1673ffffffffffffffffffffffffffffffffffffffff1681526020019081526020016000206000836000191660001916815260200190815260200160002060006101000a81548160ff0219169083151502179055508173ffffffffffffffffffffffffffffffffffffffff167fc65937e3dbcb9fb30f646815dd67a3dbd09ba17718cbcb54efbe3635f8e0a6fe8260405180826000191660001916815260200191505060405180910390a25050565b600481815481101515611cca57fe5b90600052602060002090600202016000915090508060000154908060010160009054906101000a900473ffffffffffffffffffffffffffffffffffffffff16908060010160149054906101000a900463ffffffff16908060010160189054906101000a900464ffffffffff169080600101601d9054906101000a900460ff16905085565b60008082840290506000841480611d6f5750828482811515611d6c57fe5b04145b1515611d7a57600080fd5b8091505092915050565b6000808284811515611d9257fe5b0490508091505092915050565b6000808284019050838110151515611db657600080fd5b8091505092915050565b600080600080600060038863ffffffff16815481101515611ddd57fe5b9060005260206000209001935083600001600c9054906101000a900460ff161515611e0757600080fd5b8360000160089054906101000a900463ffffffff1663ffffffff168610151515611e3057600080fd5b611e4e8460000160009054906101000a900463ffffffff16876109a4565b9250611e7d8460000160049054906101000a900463ffffffff1663ffffffff1642611d9f90919063ffffffff16565b9150819050818164ffffffffff16141515611e9757600080fd5b600160048054806001018281611ead919061226c565b9160005260206000209060020201600060a0604051908101604052808b81526020018c73ffffffffffffffffffffffffffffffffffffffff1681526020018d63ffffffff1681526020018664ffffffffff1681526020016001151581525090919091506000820151816000015560208201518160010160006101000a81548173ffffffffffffffffffffffffffffffffffffffff021916908373ffffffffffffffffffffffffffffffffffffffff16021790555060408201518160010160146101000a81548163ffffffff021916908363ffffffff16021790555060608201518160010160186101000a81548164ffffffffff021916908364ffffffffff160217905550608082015181600101601d6101000a81548160ff0219169083151502179055505050039450600560008873ffffffffffffffffffffffffffffffffffffffff1673ffffffffffffffffffffffffffffffffffffffff1681526020019081526020016000208054806001018281612027919061229e565b916000526020600020900160008790919091505550600260009054906101000a900473ffffffffffffffffffffffffffffffffffffffff1673ffffffffffffffffffffffffffffffffffffffff166364217bdf87856040518363ffffffff167c01000000000000000000000000000000000000000000000000000000000281526004018083815260200182815260200192505050600060405180830381600087803b15156120d457600080fd5b5af115156120e157600080fd5b5050508673ffffffffffffffffffffffffffffffffffffffff167fa69aa1880e9e76a4474a64a1bc8d02f6eb94abe59641a4d8e858b2c66c768dcf868886858960000160009054906101000a900463ffffffff168a60000160049054906101000a900463ffffffff16604051808781526020018681526020018581526020018464ffffffffff1664ffffffffff1681526020018363ffffffff1663ffffffff1681526020018263ffffffff1663ffffffff168152602001965050505050505060405180910390a2505050509392505050565b615780604051908101604052806064905b6121cc6122ca565b8152602001906001900390816121c45790505090565b8154818355818115116122095781836000526020600020918201910161220891906122f2565b5b505050565b616400604051908101604052806064905b61222761236a565b81526020019060019003908161221f5790505090565b613e80604051908101604052806064905b612256612393565b81526020019060019003908161224e5790505090565b8154818355818115116122995760020281600202836000526020600020918201910161229891906123bb565b5b505050565b8154818355818115116122c5578183600052602060002091820191016122c4919061244c565b5b505050565b60e0604051908101604052806007905b60008152602001906001900390816122da5790505090565b61236791905b8082111561236357600080820160006101000a81549063ffffffff02191690556000820160046101000a81549063ffffffff02191690556000820160086101000a81549063ffffffff021916905560008201600c6101000a81549060ff0219169055506001016122f8565b5090565b90565b610100604051908101604052806008905b600081526020019060019003908161237b5790505090565b60a0604051908101604052806005905b60008152602001906001900390816123a35790505090565b61244991905b80821115612445576000808201600090556001820160006101000a81549073ffffffffffffffffffffffffffffffffffffffff02191690556001820160146101000a81549063ffffffff02191690556001820160186101000a81549064ffffffffff021916905560018201601d6101000a81549060ff0219169055506002016123c1565b5090565b90565b61246e91905b8082111561246a576000816000905550600101612452565b5090565b905600a165627a7a7230582022ae3c9017f153dd0bac1f8843ac71bd0972dbe8edba128af18a01a2a7a4e06c0029",
  "source": "/* contract for tracking locked funds\n\n requirements\n  -> lock funds\n  -> unlock funds\n  -> index locks by address\n\n For flows see: https://github.com/Augmint/augmint-contracts/blob/master/docs/lockFlow.png\n\n TODO / think about:\n  -> self-destruct function?\n\n*/\n\npragma solidity 0.4.21;\n\nimport \"./generic/Restricted.sol\";\nimport \"./generic/SafeMath.sol\";\nimport \"./interfaces/AugmintTokenInterface.sol\";\nimport \"./MonetarySupervisor.sol\";\nimport \"./interfaces/TokenReceiver.sol\";\n\n\ncontract Locker is Restricted, TokenReceiver {\n\n    using SafeMath for uint256;\n\n    uint public constant CHUNK_SIZE = 100;\n\n    event NewLockProduct(uint32 indexed lockProductId, uint32 perTermInterest, uint32 durationInSecs,\n                            uint32 minimumLockAmount, bool isActive);\n\n    event LockProductActiveChange(uint32 indexed lockProductId, bool newActiveState);\n\n    // NB: amountLocked includes the original amount, plus interest\n    event NewLock(address indexed lockOwner, uint lockId, uint amountLocked, uint interestEarned,\n                    uint40 lockedUntil, uint32 perTermInterest, uint32 durationInSecs);\n\n    event LockReleased(address indexed lockOwner, uint lockId);\n\n    event MonetarySupervisorChanged(MonetarySupervisor newMonetarySupervisor);\n\n    struct LockProduct {\n        // perTermInterest is in millionths (i.e. 1,000,000 = 100%):\n        uint32 perTermInterest;\n        uint32 durationInSecs;\n        uint32 minimumLockAmount;\n        bool isActive;\n    }\n\n    /* NB: we don't need to store lock parameters because lockProducts can't be altered (only disabled/enabled) */\n    struct Lock {\n        uint amountLocked;\n        address owner;\n        uint32 productId;\n        uint40 lockedUntil;\n        bool isActive;\n    }\n\n    AugmintTokenInterface public augmintToken;\n    MonetarySupervisor public monetarySupervisor;\n\n    LockProduct[] public lockProducts;\n\n    Lock[] public locks;\n\n    // lock ids for an account\n    mapping(address => uint[]) public accountLocks;\n\n    function Locker(AugmintTokenInterface _augmintToken, MonetarySupervisor _monetarySupervisor) public {\n\n        augmintToken = _augmintToken;\n        monetarySupervisor = _monetarySupervisor;\n\n    }\n\n    function addLockProduct(uint32 perTermInterest, uint32 durationInSecs, uint32 minimumLockAmount, bool isActive)\n    external restrict(\"MonetaryBoard\") {\n\n        uint _newLockProductId = lockProducts.push(\n                                    LockProduct(perTermInterest, durationInSecs, minimumLockAmount, isActive)) - 1;\n        uint32 newLockProductId = uint32(_newLockProductId);\n        require(newLockProductId == _newLockProductId);\n        emit NewLockProduct(newLockProductId, perTermInterest, durationInSecs, minimumLockAmount, isActive);\n\n    }\n\n    function setLockProductActiveState(uint32 lockProductId, bool isActive) external restrict(\"MonetaryBoard\") {\n\n        lockProducts[lockProductId].isActive = isActive;\n        emit LockProductActiveChange(lockProductId, isActive);\n\n    }\n\n    /* lock funds, called from AugmintToken's transferAndNotify\n     Flow for locking tokens:\n        1) user calls token contract's transferAndNotify lockProductId passed in data arg\n        2) transferAndNotify transfers tokens to the Lock contract\n        3) transferAndNotify calls Lock.transferNotification with lockProductId\n    */\n    function transferNotification(address from, uint256 amountToLock, uint _lockProductId) external {\n        require(msg.sender == address(augmintToken));\n        uint32 lockProductId = uint32(_lockProductId);\n        require(lockProductId == _lockProductId);\n        /* TODO: make data arg generic bytes\n            uint productId;\n            assembly { // solhint-disable-line no-inline-assembly\n                productId := mload(data)\n        } */\n        _createLock(lockProductId, from, amountToLock);\n    }\n\n    function releaseFunds(uint lockId) external {\n        Lock storage lock = locks[lockId];\n        LockProduct storage lockProduct = lockProducts[lock.productId];\n\n        require(lock.isActive);\n        require(now >= lock.lockedUntil);\n\n        lock.isActive = false;\n\n        uint interestEarned = calculateInterest(lockProduct.perTermInterest, lock.amountLocked);\n\n        monetarySupervisor.releaseFundsNotification(lock.amountLocked); // to maintain totalLockAmount\n        augmintToken.transferWithNarrative(lock.owner, lock.amountLocked.add(interestEarned),\n                                                                                \"Funds released from lock\");\n\n        emit LockReleased(lock.owner, lockId);\n    }\n\n    function setMonetarySupervisor(MonetarySupervisor newMonetarySupervisor) external restrict(\"MonetaryBoard\") {\n        monetarySupervisor = newMonetarySupervisor;\n        emit MonetarySupervisorChanged(newMonetarySupervisor);\n    }\n\n    function getLockProductCount() external view returns (uint) {\n\n        return lockProducts.length;\n\n    }\n\n    // returns 20 lock products starting from some offset\n    // lock products are encoded as [ perTermInterest, durationInSecs, minimumLockAmount, maxLockAmount, isActive ]\n    function getLockProducts(uint offset) external view returns (uint[5][CHUNK_SIZE] response) {\n        for (uint8 i = 0; i < CHUNK_SIZE; i++) {\n\n            if (offset + i >= lockProducts.length) { break; }\n\n            LockProduct storage lockProduct = lockProducts[offset + i];\n\n            response[i] = [ lockProduct.perTermInterest, lockProduct.durationInSecs, lockProduct.minimumLockAmount,\n                        monetarySupervisor.getMaxLockAmount(lockProduct.minimumLockAmount, lockProduct.perTermInterest),\n                        lockProduct.isActive ? 1 : 0 ];\n        }\n    }\n\n    function getLockCount() external view returns (uint) {\n        return locks.length;\n    }\n\n    function getLockCountForAddress(address lockOwner) external view returns (uint) {\n        return accountLocks[lockOwner].length;\n    }\n\n    // returns CHUNK_SIZE locks starting from some offset\n    // lock products are encoded as\n    //       [lockId, owner, amountLocked, interestEarned, lockedUntil, perTermInterest, durationInSecs, isActive ]\n    // NB: perTermInterest is in millionths (i.e. 1,000,000 = 100%):\n    function getLocks(uint offset) external view returns (uint[8][CHUNK_SIZE] response) {\n\n        for (uint16 i = 0; i < CHUNK_SIZE; i++) {\n\n            if (offset + i >= locks.length) { break; }\n\n            Lock storage lock = locks[offset + i];\n            LockProduct storage lockProduct = lockProducts[lock.productId];\n\n            uint interestEarned = calculateInterest(lockProduct.perTermInterest, lock.amountLocked);\n\n            response[i] = [uint(offset + i), uint(lock.owner), lock.amountLocked, interestEarned, lock.lockedUntil,\n                                lockProduct.perTermInterest, lockProduct.durationInSecs, lock.isActive ? 1 : 0];\n        }\n    }\n\n    // returns CHUNK_SIZE locks of a given account, starting from some offset\n    // lock products are encoded as\n    //             [lockId, amountLocked, interestEarned, lockedUntil, perTermInterest, durationInSecs, isActive ]\n    function getLocksForAddress(address lockOwner, uint offset) external view returns (uint[7][CHUNK_SIZE] response) {\n\n        uint[] storage locksForAddress = accountLocks[lockOwner];\n\n        for (uint16 i = 0; i < CHUNK_SIZE; i++) {\n\n            if (offset + i >= locksForAddress.length) { break; }\n\n            Lock storage lock = locks[locksForAddress[offset + i]];\n            LockProduct storage lockProduct = lockProducts[lock.productId];\n\n            uint interestEarned = calculateInterest(lockProduct.perTermInterest, lock.amountLocked);\n\n            response[i] = [ locksForAddress[offset + i], lock.amountLocked, interestEarned, lock.lockedUntil,\n                                lockProduct.perTermInterest, lockProduct.durationInSecs, lock.isActive ? 1 : 0 ];\n        }\n    }\n\n    function calculateInterest(uint32 perTermInterest, uint amountToLock) public pure returns (uint interestEarned) {\n        interestEarned = amountToLock.mul(perTermInterest).div(1000000);\n    }\n\n    // Internal function. assumes amountToLock is already transferred to this Lock contract\n    function _createLock(uint32 lockProductId, address lockOwner, uint amountToLock) internal returns(uint lockId) {\n        LockProduct storage lockProduct = lockProducts[lockProductId];\n        require(lockProduct.isActive);\n        require(amountToLock >= lockProduct.minimumLockAmount);\n\n        uint interestEarned = calculateInterest(lockProduct.perTermInterest, amountToLock);\n        uint expiration = now.add(lockProduct.durationInSecs);\n        uint40 lockedUntil = uint40(expiration);\n        require(lockedUntil == expiration);\n\n        lockId = locks.push(Lock(amountToLock, lockOwner, lockProductId, lockedUntil, true)) - 1;\n        accountLocks[lockOwner].push(lockId);\n\n        monetarySupervisor.requestInterest(amountToLock, interestEarned); // update KPIs & transfer interest here\n\n        emit NewLock(lockOwner, lockId, amountToLock, interestEarned, lockedUntil, lockProduct.perTermInterest,\n                    lockProduct.durationInSecs);\n    }\n\n}\n",
  "sourcePath": "/Users/petro/ether/augmint-web/augmint-contracts/contracts/Locker.sol",
  "compiler": {
    "name": "solc",
    "version": "0.4.21+commit.dfe3193c.Emscripten.clang"
  },
  "schemaVersion": "2.0.0",
  "updatedAt": "2018-04-16T22:40:03.786Z"
}