{
  "contractName": "Locker",
  "abi": [
    {
      "constant": false,
      "inputs": [
        {
          "name": "agent",
          "type": "address"
        },
        {
          "name": "requiredPermissions",
          "type": "bytes32[]"
        }
      ],
      "name": "revokeMulitplePermissions",
      "outputs": [],
      "payable": false,
      "stateMutability": "nonpayable",
      "type": "function"
    },
    {
      "constant": true,
      "inputs": [
        {
          "name": "",
          "type": "uint256"
        }
      ],
      "name": "lockProducts",
      "outputs": [
        {
          "name": "perTermInterest",
          "type": "uint32"
        },
        {
          "name": "durationInSecs",
          "type": "uint32"
        },
        {
          "name": "minimumLockAmount",
          "type": "uint32"
        },
        {
          "name": "isActive",
          "type": "bool"
        }
      ],
      "payable": false,
      "stateMutability": "view",
      "type": "function"
    },
    {
      "constant": true,
      "inputs": [],
      "name": "monetarySupervisor",
      "outputs": [
        {
          "name": "",
          "type": "address"
        }
      ],
      "payable": false,
      "stateMutability": "view",
      "type": "function"
    },
    {
      "constant": true,
      "inputs": [
        {
          "name": "",
          "type": "address"
        },
        {
          "name": "",
          "type": "bytes32"
        }
      ],
      "name": "permissions",
      "outputs": [
        {
          "name": "",
          "type": "bool"
        }
      ],
      "payable": false,
      "stateMutability": "view",
      "type": "function"
    },
    {
      "constant": false,
      "inputs": [
        {
          "name": "agent",
          "type": "address"
        },
        {
          "name": "requiredPermission",
          "type": "bytes32"
        }
      ],
      "name": "revokePermission",
      "outputs": [],
      "payable": false,
      "stateMutability": "nonpayable",
      "type": "function"
    },
    {
      "constant": true,
      "inputs": [],
      "name": "augmintToken",
      "outputs": [
        {
          "name": "",
          "type": "address"
        }
      ],
      "payable": false,
      "stateMutability": "view",
      "type": "function"
    },
    {
      "constant": false,
      "inputs": [
        {
          "name": "agent",
          "type": "address"
        },
        {
          "name": "requiredPermissions",
          "type": "bytes32[]"
        }
      ],
      "name": "grantMultiplePermissions",
      "outputs": [],
      "payable": false,
      "stateMutability": "nonpayable",
      "type": "function"
    },
    {
      "constant": true,
      "inputs": [
        {
          "name": "",
          "type": "address"
        },
        {
          "name": "",
          "type": "uint256"
        }
      ],
      "name": "accountLocks",
      "outputs": [
        {
          "name": "",
          "type": "uint256"
        }
      ],
      "payable": false,
      "stateMutability": "view",
      "type": "function"
    },
    {
      "constant": true,
      "inputs": [],
      "name": "CHUNK_SIZE",
      "outputs": [
        {
          "name": "",
          "type": "uint256"
        }
      ],
      "payable": false,
      "stateMutability": "view",
      "type": "function"
    },
    {
      "constant": false,
      "inputs": [
        {
          "name": "agent",
          "type": "address"
        },
        {
          "name": "requiredPermission",
          "type": "bytes32"
        }
      ],
      "name": "grantPermission",
      "outputs": [],
      "payable": false,
      "stateMutability": "nonpayable",
      "type": "function"
    },
    {
      "constant": true,
      "inputs": [
        {
          "name": "",
          "type": "uint256"
        }
      ],
      "name": "locks",
      "outputs": [
        {
          "name": "amountLocked",
          "type": "uint256"
        },
        {
          "name": "owner",
          "type": "address"
        },
        {
          "name": "productId",
          "type": "uint32"
        },
        {
          "name": "lockedUntil",
          "type": "uint40"
        },
        {
          "name": "isActive",
          "type": "bool"
        }
      ],
      "payable": false,
      "stateMutability": "view",
      "type": "function"
    },
    {
      "inputs": [
        {
          "name": "_augmintToken",
          "type": "address"
        },
        {
          "name": "_monetarySupervisor",
          "type": "address"
        }
      ],
      "payable": false,
      "stateMutability": "nonpayable",
      "type": "constructor"
    },
    {
      "anonymous": false,
      "inputs": [
        {
          "indexed": true,
          "name": "lockProductId",
          "type": "uint32"
        },
        {
          "indexed": false,
          "name": "perTermInterest",
          "type": "uint32"
        },
        {
          "indexed": false,
          "name": "durationInSecs",
          "type": "uint32"
        },
        {
          "indexed": false,
          "name": "minimumLockAmount",
          "type": "uint32"
        },
        {
          "indexed": false,
          "name": "isActive",
          "type": "bool"
        }
      ],
      "name": "NewLockProduct",
      "type": "event"
    },
    {
      "anonymous": false,
      "inputs": [
        {
          "indexed": true,
          "name": "lockProductId",
          "type": "uint32"
        },
        {
          "indexed": false,
          "name": "newActiveState",
          "type": "bool"
        }
      ],
      "name": "LockProductActiveChange",
      "type": "event"
    },
    {
      "anonymous": false,
      "inputs": [
        {
          "indexed": true,
          "name": "lockOwner",
          "type": "address"
        },
        {
          "indexed": false,
          "name": "lockId",
          "type": "uint256"
        },
        {
          "indexed": false,
          "name": "amountLocked",
          "type": "uint256"
        },
        {
          "indexed": false,
          "name": "interestEarned",
          "type": "uint256"
        },
        {
          "indexed": false,
          "name": "lockedUntil",
          "type": "uint40"
        },
        {
          "indexed": false,
          "name": "perTermInterest",
          "type": "uint32"
        },
        {
          "indexed": false,
          "name": "durationInSecs",
          "type": "uint32"
        },
        {
          "indexed": false,
          "name": "isActive",
          "type": "bool"
        }
      ],
      "name": "NewLock",
      "type": "event"
    },
    {
      "anonymous": false,
      "inputs": [
        {
          "indexed": true,
          "name": "lockOwner",
          "type": "address"
        },
        {
          "indexed": false,
          "name": "lockId",
          "type": "uint256"
        }
      ],
      "name": "LockReleased",
      "type": "event"
    },
    {
      "anonymous": false,
      "inputs": [
        {
          "indexed": true,
          "name": "agent",
          "type": "address"
        },
        {
          "indexed": false,
          "name": "grantedPermission",
          "type": "bytes32"
        }
      ],
      "name": "PermissionGranted",
      "type": "event"
    },
    {
      "anonymous": false,
      "inputs": [
        {
          "indexed": true,
          "name": "agent",
          "type": "address"
        },
        {
          "indexed": false,
          "name": "revokedPermission",
          "type": "bytes32"
        }
      ],
      "name": "PermissionRevoked",
      "type": "event"
    },
    {
      "constant": false,
      "inputs": [
        {
          "name": "perTermInterest",
          "type": "uint32"
        },
        {
          "name": "durationInSecs",
          "type": "uint32"
        },
        {
          "name": "minimumLockAmount",
          "type": "uint32"
        },
        {
          "name": "isActive",
          "type": "bool"
        }
      ],
      "name": "addLockProduct",
      "outputs": [],
      "payable": false,
      "stateMutability": "nonpayable",
      "type": "function"
    },
    {
      "constant": false,
      "inputs": [
        {
          "name": "lockProductId",
          "type": "uint32"
        },
        {
          "name": "isActive",
          "type": "bool"
        }
      ],
      "name": "setLockProductActiveState",
      "outputs": [],
      "payable": false,
      "stateMutability": "nonpayable",
      "type": "function"
    },
    {
      "constant": false,
      "inputs": [
        {
          "name": "lockId",
          "type": "uint256"
        }
      ],
      "name": "releaseFunds",
      "outputs": [],
      "payable": false,
      "stateMutability": "nonpayable",
      "type": "function"
    },
    {
      "constant": true,
      "inputs": [],
      "name": "getLockProductCount",
      "outputs": [
        {
          "name": "",
          "type": "uint256"
        }
      ],
      "payable": false,
      "stateMutability": "view",
      "type": "function"
    },
    {
      "constant": true,
      "inputs": [
        {
          "name": "offset",
          "type": "uint256"
        }
      ],
      "name": "getLockProducts",
      "outputs": [
        {
          "name": "response",
          "type": "uint32[4][100]"
        }
      ],
      "payable": false,
      "stateMutability": "view",
      "type": "function"
    },
    {
      "constant": true,
      "inputs": [],
      "name": "getLockCount",
      "outputs": [
        {
          "name": "",
          "type": "uint256"
        }
      ],
      "payable": false,
      "stateMutability": "view",
      "type": "function"
    },
    {
      "constant": true,
      "inputs": [
        {
          "name": "lockOwner",
          "type": "address"
        }
      ],
      "name": "getLockCountForAddress",
      "outputs": [
        {
          "name": "",
          "type": "uint256"
        }
      ],
      "payable": false,
      "stateMutability": "view",
      "type": "function"
    },
    {
      "constant": true,
      "inputs": [
        {
          "name": "offset",
          "type": "uint256"
        }
      ],
      "name": "getLocks",
      "outputs": [
        {
          "name": "response",
          "type": "uint256[8][100]"
        }
      ],
      "payable": false,
      "stateMutability": "view",
      "type": "function"
    },
    {
      "constant": true,
      "inputs": [
        {
          "name": "lockOwner",
          "type": "address"
        },
        {
          "name": "offset",
          "type": "uint256"
        }
      ],
      "name": "getLocksForAddress",
      "outputs": [
        {
          "name": "response",
          "type": "uint256[7][100]"
        }
      ],
      "payable": false,
      "stateMutability": "view",
      "type": "function"
    },
    {
      "constant": false,
      "inputs": [
        {
          "name": "from",
          "type": "address"
        },
        {
          "name": "amountToLock",
          "type": "uint256"
        },
        {
          "name": "_lockProductId",
          "type": "uint256"
        }
      ],
      "name": "transferNotification",
      "outputs": [],
      "payable": false,
      "stateMutability": "nonpayable",
      "type": "function"
    },
    {
      "constant": true,
      "inputs": [
        {
          "name": "perTermInterest",
          "type": "uint32"
        },
        {
          "name": "amountToLock",
          "type": "uint256"
        }
      ],
      "name": "calculateInterest",
      "outputs": [
        {
          "name": "interestEarned",
          "type": "uint256"
        }
      ],
      "payable": false,
      "stateMutability": "pure",
      "type": "function"
    }
  ],
  "bytecode": "0x6060604052341561000f57600080fd5b6040516040806123bd8339810160405280805190602001909190805190602001909190505060016000803373ffffffffffffffffffffffffffffffffffffffff1673ffffffffffffffffffffffffffffffffffffffff16815260200190815260200160002060007f4d6f6e6574617279426f6172640000000000000000000000000000000000000060001916815260200190815260200160002060006101000a81548160ff0219169083151502179055503373ffffffffffffffffffffffffffffffffffffffff167fc65937e3dbcb9fb30f646815dd67a3dbd09ba17718cbcb54efbe3635f8e0a6fe60405180807f4d6f6e6574617279426f61726400000000000000000000000000000000000000815250602001905060405180910390a281600160006101000a81548173ffffffffffffffffffffffffffffffffffffffff021916908373ffffffffffffffffffffffffffffffffffffffff16021790555080600260006101000a81548173ffffffffffffffffffffffffffffffffffffffff021916908373ffffffffffffffffffffffffffffffffffffffff16021790555050506121fc806101c16000396000f300606060405260043610610128576000357c0100000000000000000000000000000000000000000000000000000000900463ffffffff1680630da32eaa1461012d57806314f6c8da146101a6578063169f66df1461021a578063277a68891461026f57806344fcbd79146102b55780634d68282f146103565780634de16053146103795780635b225526146103a25780635fe070131461040057806364e7e4a4146104465780637b9b9c891461049157806390f549ba146104e657806394493c43146105335780639ac3317b1461055c578063c29ab95b146105d5578063c3b75b8f1461062b578063c57c3bbd1461065f578063c6d8f0c4146106b1578063e18a913414610733578063e91e13a9146107b5578063f38a8262146107de578063f4dadc6114610824575b600080fd5b341561013857600080fd5b6101a4600480803573ffffffffffffffffffffffffffffffffffffffff16906020019091908035906020019082018035906020019080806020026020016040519081016040528093929190818152602001838360200280828437820191505050505050919050506108c1565b005b34156101b157600080fd5b6101c76004808035906020019091905050610909565b604051808563ffffffff1663ffffffff1681526020018463ffffffff1663ffffffff1681526020018363ffffffff1663ffffffff1681526020018215151515815260200194505050505060405180910390f35b341561022557600080fd5b61022d610982565b604051808273ffffffffffffffffffffffffffffffffffffffff1673ffffffffffffffffffffffffffffffffffffffff16815260200191505060405180910390f35b341561027a57600080fd5b61029f600480803563ffffffff169060200190919080359060200190919050506109a8565b6040518082815260200191505060405180910390f35b34156102c057600080fd5b6102f5600480803573ffffffffffffffffffffffffffffffffffffffff169060200190919080359060200190919050506109e0565b604051808260646000925b818410156103465782846020020151600760200280838360005b8381101561033557808201518184015260208101905061031a565b505050509050019260010192610300565b9250505091505060405180910390f35b341561036157600080fd5b6103776004808035906020019091905050610bee565b005b341561038457600080fd5b61038c610f3c565b6040518082815260200191505060405180910390f35b34156103ad57600080fd5b6103e6600480803573ffffffffffffffffffffffffffffffffffffffff1690602001909190803560001916906020019091905050610f49565b604051808215151515815260200191505060405180910390f35b341561040b57600080fd5b610444600480803573ffffffffffffffffffffffffffffffffffffffff1690602001909190803560001916906020019091905050610f78565b005b341561045157600080fd5b61048f600480803573ffffffffffffffffffffffffffffffffffffffff16906020019091908035906020019091908035906020019091905050611042565b005b341561049c57600080fd5b6104a46110c9565b604051808273ffffffffffffffffffffffffffffffffffffffff1673ffffffffffffffffffffffffffffffffffffffff16815260200191505060405180910390f35b34156104f157600080fd5b61051d600480803573ffffffffffffffffffffffffffffffffffffffff169060200190919050506110ef565b6040518082815260200191505060405180910390f35b341561053e57600080fd5b61054661113b565b6040518082815260200191505060405180910390f35b341561056757600080fd5b6105d3600480803573ffffffffffffffffffffffffffffffffffffffff1690602001909190803590602001908201803590602001908080602002602001604051908101604052809392919081815260200183836020028082843782019150505050505091905050611148565b005b34156105e057600080fd5b610615600480803573ffffffffffffffffffffffffffffffffffffffff1690602001909190803590602001909190505061121c565b6040518082815260200191505060405180910390f35b341561063657600080fd5b61065d600480803563ffffffff16906020019091908035151590602001909190505061124d565b005b341561066a57600080fd5b6106af600480803563ffffffff1690602001909190803563ffffffff1690602001909190803563ffffffff169060200190919080351515906020019091905050611379565b005b34156106bc57600080fd5b6106d260048080359060200190919050506115a3565b604051808260646000925b818410156107235782846020020151600860200280838360005b838110156107125780820151818401526020810190506106f7565b5050505090500192600101926106dd565b9250505091505060405180910390f35b341561073e57600080fd5b610754600480803590602001909190505061177c565b604051808260646000925b818410156107a55782846020020151600460200280838360005b83811015610794578082015181840152602081019050610779565b50505050905001926001019261075f565b9250505091505060405180910390f35b34156107c057600080fd5b6107c86118a8565b6040518082815260200191505060405180910390f35b34156107e957600080fd5b610822600480803573ffffffffffffffffffffffffffffffffffffffff16906020019091908035600019169060200190919050506118ad565b005b341561082f57600080fd5b6108456004808035906020019091905050611a03565b604051808681526020018573ffffffffffffffffffffffffffffffffffffffff1673ffffffffffffffffffffffffffffffffffffffff1681526020018463ffffffff1663ffffffff1681526020018364ffffffffff1664ffffffffff168152602001821515151581526020019550505050505060405180910390f35b60008082519150600090505b81811015610903576108f68484838151811015156108e757fe5b90602001906020020151610f78565b80806001019150506108cd565b50505050565b60038181548110151561091857fe5b90600052602060002090016000915090508060000160009054906101000a900463ffffffff16908060000160049054906101000a900463ffffffff16908060000160089054906101000a900463ffffffff169080600001600c9054906101000a900460ff16905084565b600260009054906101000a900473ffffffffffffffffffffffffffffffffffffffff1681565b60006109d8620f42406109ca8563ffffffff1685611a9690919063ffffffff16565b611acc90919063ffffffff16565b905092915050565b6109e8611f0c565b6000806000806000600560008973ffffffffffffffffffffffffffffffffffffffff1673ffffffffffffffffffffffffffffffffffffffff1681526020019081526020016000209450600093505b60648461ffff161015610be35784805490508461ffff168801101515610a5b57610be3565b6004858561ffff168901815481101515610a7157fe5b906000526020600020900154815481101515610a8957fe5b9060005260206000209060020201925060038360010160149054906101000a900463ffffffff1663ffffffff16815481101515610ac257fe5b90600052602060002090019150610af18260000160009054906101000a900463ffffffff1684600001546109a8565b905060e060405190810160405280868661ffff168a01815481101515610b1357fe5b9060005260206000209001548152602001846000015481526020018281526020018460010160189054906101000a900464ffffffffff1664ffffffffff1681526020018360000160009054906101000a900463ffffffff1663ffffffff1681526020018360000160049054906101000a900463ffffffff1663ffffffff16815260200184600101601d9054906101000a900460ff16610bb3576000610bb6565b60015b60ff16815250868561ffff16606481101515610bce57fe5b60200201819052508380600101945050610a36565b505050505092915050565b6000806000600484815481101515610c0257fe5b9060005260206000209060020201925060038360010160149054906101000a900463ffffffff1663ffffffff16815481101515610c3b57fe5b9060005260206000209001915082600101601d9054906101000a900460ff161515610c6557600080fd5b8260010160189054906101000a900464ffffffffff1664ffffffffff164210151515610c9057600080fd5b600083600101601d6101000a81548160ff021916908315150217905550610ccf8260000160009054906101000a900463ffffffff1684600001546109a8565b9050600260009054906101000a900473ffffffffffffffffffffffffffffffffffffffff1673ffffffffffffffffffffffffffffffffffffffff1663295777be84600001546040518263ffffffff167c010000000000000000000000000000000000000000000000000000000002815260040180828152602001915050600060405180830381600087803b1515610d6557600080fd5b6102c65a03f11515610d7657600080fd5b505050600160009054906101000a900473ffffffffffffffffffffffffffffffffffffffff1673ffffffffffffffffffffffffffffffffffffffff1663ffdcf0958460010160009054906101000a900473ffffffffffffffffffffffffffffffffffffffff16610df3848760000154611ae790919063ffffffff16565b6040518363ffffffff167c0100000000000000000000000000000000000000000000000000000000028152600401808373ffffffffffffffffffffffffffffffffffffffff1673ffffffffffffffffffffffffffffffffffffffff16815260200182815260200180602001828103825260188152602001807f46756e64732072656c65617365642066726f6d206c6f636b00000000000000008152506020019350505050600060405180830381600087803b1515610eb057600080fd5b6102c65a03f11515610ec157600080fd5b5050508260010160009054906101000a900473ffffffffffffffffffffffffffffffffffffffff1673ffffffffffffffffffffffffffffffffffffffff167f622ca42598ab680a7def4a7346e1963a82207cf42a5ddb8056ad62cfbda19b88856040518082815260200191505060405180910390a250505050565b6000600380549050905090565b60006020528160005260406000206020528060005260406000206000915091509054906101000a900460ff1681565b60008060008473ffffffffffffffffffffffffffffffffffffffff1673ffffffffffffffffffffffffffffffffffffffff1681526020019081526020016000206000836000191660001916815260200190815260200160002060006101000a81548160ff0219169083151502179055508173ffffffffffffffffffffffffffffffffffffffff167f789770131846de4d1f28418f0f957cdf4fcabe5eccf70067083e20ecece69a348260405180826000191660001916815260200191505060405180910390a25050565b6000600160009054906101000a900473ffffffffffffffffffffffffffffffffffffffff1673ffffffffffffffffffffffffffffffffffffffff163373ffffffffffffffffffffffffffffffffffffffff161415156110a057600080fd5b819050818163ffffffff161415156110b757600080fd5b6110c2818585611b08565b5050505050565b600160009054906101000a900473ffffffffffffffffffffffffffffffffffffffff1681565b6000600560008373ffffffffffffffffffffffffffffffffffffffff1673ffffffffffffffffffffffffffffffffffffffff168152602001908152602001600020805490509050919050565b6000600480549050905090565b6000806000803373ffffffffffffffffffffffffffffffffffffffff1673ffffffffffffffffffffffffffffffffffffffff16815260200190815260200160002060007f4d6f6e6574617279426f6172640000000000000000000000000000000000000060001916815260200190815260200160002060009054906101000a900460ff1615156111d757600080fd5b82519150600090505b81811015611216576112098484838151811015156111fa57fe5b906020019060200201516118ad565b80806001019150506111e0565b50505050565b60056020528160005260406000208181548110151561123757fe5b9060005260206000209001600091509150505481565b7f4d6f6e6574617279426f617264000000000000000000000000000000000000006000803373ffffffffffffffffffffffffffffffffffffffff1673ffffffffffffffffffffffffffffffffffffffff1681526020019081526020016000206000826000191660001916815260200190815260200160002060009054906101000a900460ff1615156112de57600080fd5b6003805490508363ffffffff161015156112f757600080fd5b8160038463ffffffff1681548110151561130d57fe5b9060005260206000209001600001600c6101000a81548160ff0219169083151502179055508263ffffffff167f8b86e3e2da15c800fc123a7c2555729cf7819f68bdf7d98a97a80c43d051bc9f83604051808215151515815260200191505060405180910390a2505050565b6000807f4d6f6e6574617279426f617264000000000000000000000000000000000000006000803373ffffffffffffffffffffffffffffffffffffffff1673ffffffffffffffffffffffffffffffffffffffff1681526020019081526020016000206000826000191660001916815260200190815260200160002060009054906101000a900460ff16151561140d57600080fd5b6001600380548060010182816114239190611f3b565b916000526020600020900160006080604051908101604052808c63ffffffff1681526020018b63ffffffff1681526020018a63ffffffff168152602001891515815250909190915060008201518160000160006101000a81548163ffffffff021916908363ffffffff16021790555060208201518160000160046101000a81548163ffffffff021916908363ffffffff16021790555060408201518160000160086101000a81548163ffffffff021916908363ffffffff160217905550606082015181600001600c6101000a81548160ff0219169083151502179055505050039250829150828263ffffffff1614151561151c57600080fd5b8163ffffffff167f1f8c90040d4429f522e53fbe964004b66d66b4fd7a31d87359d1813adc33568e88888888604051808563ffffffff1663ffffffff1681526020018463ffffffff1663ffffffff1681526020018363ffffffff1663ffffffff1681526020018215151515815260200194505050505060405180910390a250505050505050565b6115ab611f67565b600080600080600093505b60648461ffff161015611773576004805490508461ffff1687011015156115dc57611773565b60048461ffff1687018154811015156115f157fe5b9060005260206000209060020201925060038360010160149054906101000a900463ffffffff1663ffffffff1681548110151561162a57fe5b906000526020600020900191506116598260000160009054906101000a900463ffffffff1684600001546109a8565b9050610100604051908101604052808561ffff16880181526020018460010160009054906101000a900473ffffffffffffffffffffffffffffffffffffffff1673ffffffffffffffffffffffffffffffffffffffff168152602001846000015481526020018281526020018460010160189054906101000a900464ffffffffff1664ffffffffff1681526020018360000160009054906101000a900463ffffffff1663ffffffff1681526020018360000160049054906101000a900463ffffffff1663ffffffff16815260200184600101601d9054906101000a900460ff16611743576000611746565b60015b60ff16815250858561ffff1660648110151561175e57fe5b602002018190525083806001019450506115b6565b50505050919050565b611784611f96565b600080600091505b60648260ff1610156118a1576003805490508260ff1685011015156117b0576118a1565b60038260ff1685018154811015156117c457fe5b906000526020600020900190506080604051908101604052808260000160009054906101000a900463ffffffff1663ffffffff1663ffffffff1681526020018260000160049054906101000a900463ffffffff1663ffffffff1663ffffffff1681526020018260000160089054906101000a900463ffffffff1663ffffffff1663ffffffff16815260200182600001600c9054906101000a900460ff1661186c57600061186f565b60015b60ff1663ffffffff16815250838360ff1660648110151561188c57fe5b6020020181905250818060010192505061178c565b5050919050565b606481565b6000803373ffffffffffffffffffffffffffffffffffffffff1673ffffffffffffffffffffffffffffffffffffffff16815260200190815260200160002060007f4d6f6e6574617279426f6172640000000000000000000000000000000000000060001916815260200190815260200160002060009054906101000a900460ff16151561193957600080fd5b60016000808473ffffffffffffffffffffffffffffffffffffffff1673ffffffffffffffffffffffffffffffffffffffff1681526020019081526020016000206000836000191660001916815260200190815260200160002060006101000a81548160ff0219169083151502179055508173ffffffffffffffffffffffffffffffffffffffff167fc65937e3dbcb9fb30f646815dd67a3dbd09ba17718cbcb54efbe3635f8e0a6fe8260405180826000191660001916815260200191505060405180910390a25050565b600481815481101515611a1257fe5b90600052602060002090600202016000915090508060000154908060010160009054906101000a900473ffffffffffffffffffffffffffffffffffffffff16908060010160149054906101000a900463ffffffff16908060010160189054906101000a900464ffffffffff169080600101601d9054906101000a900460ff16905085565b60008082840290506000841480611ab75750828482811515611ab457fe5b04145b1515611ac257600080fd5b8091505092915050565b6000808284811515611ada57fe5b0490508091505092915050565b6000808284019050838110151515611afe57600080fd5b8091505092915050565b600080600080600060038863ffffffff16815481101515611b2557fe5b9060005260206000209001935083600001600c9054906101000a900460ff161515611b4f57600080fd5b8360000160089054906101000a900463ffffffff1663ffffffff168610151515611b7857600080fd5b611b968460000160009054906101000a900463ffffffff16876109a8565b9250611bc58460000160049054906101000a900463ffffffff1663ffffffff1642611ae790919063ffffffff16565b9150819050818164ffffffffff16141515611bdf57600080fd5b600160048054806001018281611bf59190611fc5565b9160005260206000209060020201600060a0604051908101604052808b81526020018c73ffffffffffffffffffffffffffffffffffffffff1681526020018d63ffffffff1681526020018664ffffffffff1681526020016001151581525090919091506000820151816000015560208201518160010160006101000a81548173ffffffffffffffffffffffffffffffffffffffff021916908373ffffffffffffffffffffffffffffffffffffffff16021790555060408201518160010160146101000a81548163ffffffff021916908363ffffffff16021790555060608201518160010160186101000a81548164ffffffffff021916908364ffffffffff160217905550608082015181600101601d6101000a81548160ff0219169083151502179055505050039450600560008873ffffffffffffffffffffffffffffffffffffffff1673ffffffffffffffffffffffffffffffffffffffff1681526020019081526020016000208054806001018281611d6f9190611ff7565b916000526020600020900160008790919091505550600260009054906101000a900473ffffffffffffffffffffffffffffffffffffffff1673ffffffffffffffffffffffffffffffffffffffff166364217bdf87856040518363ffffffff167c01000000000000000000000000000000000000000000000000000000000281526004018083815260200182815260200192505050600060405180830381600087803b1515611e1c57600080fd5b6102c65a03f11515611e2d57600080fd5b5050508673ffffffffffffffffffffffffffffffffffffffff167f74b80e2c905c5f457a2c0be97fb8fa4b72bcfbb7e9fc1b4544f49931a807ef78868886858960000160009054906101000a900463ffffffff168a60000160049054906101000a900463ffffffff166001604051808881526020018781526020018681526020018564ffffffffff1664ffffffffff1681526020018463ffffffff1663ffffffff1681526020018363ffffffff1663ffffffff1681526020018215151515815260200197505050505050505060405180910390a2505050509392505050565b615780604051908101604052806064905b611f25612023565b815260200190600190039081611f1d5790505090565b815481835581811511611f6257818360005260206000209182019101611f61919061204b565b5b505050565b616400604051908101604052806064905b611f806120c3565b815260200190600190039081611f785790505090565b613200604051908101604052806064905b611faf6120ec565b815260200190600190039081611fa75790505090565b815481835581811511611ff257600202816002028360005260206000209182019101611ff1919061211a565b5b505050565b81548183558181151161201e5781836000526020600020918201910161201d91906121ab565b5b505050565b60e0604051908101604052806007905b60008152602001906001900390816120335790505090565b6120c091905b808211156120bc57600080820160006101000a81549063ffffffff02191690556000820160046101000a81549063ffffffff02191690556000820160086101000a81549063ffffffff021916905560008201600c6101000a81549060ff021916905550600101612051565b5090565b90565b610100604051908101604052806008905b60008152602001906001900390816120d45790505090565b6080604051908101604052806004905b600063ffffffff168152602001906001900390816120fc5790505090565b6121a891905b808211156121a4576000808201600090556001820160006101000a81549073ffffffffffffffffffffffffffffffffffffffff02191690556001820160146101000a81549063ffffffff02191690556001820160186101000a81549064ffffffffff021916905560018201601d6101000a81549060ff021916905550600201612120565b5090565b90565b6121cd91905b808211156121c95760008160009055506001016121b1565b5090565b905600a165627a7a72305820ba5e949fa5ea92cd31f1fd98add7a4e530bf9cd8977158589694112eaa0f73a90029",
  "source": "/* contract for tracking locked funds etc.\n\n requirements\n  -> lock funds\n  -> unlock funds\n  -> index locks by address\n\n For flows see: https://github.com/Augmint/augmint-contracts/blob/master/docs/lockFlow.png\n\n TODO / think about:\n    - monetarySupervisor setter?\n\n to do/think about:\n  -> self-destruct function?\n  -> return only active loan products from getLoanProducts?\n*/\n\npragma solidity 0.4.19;\n\nimport \"./generic/Restricted.sol\";\nimport \"./generic/SafeMath.sol\";\nimport \"./interfaces/AugmintTokenInterface.sol\";\nimport \"./MonetarySupervisor.sol\";\nimport \"./interfaces/TokenReceiver.sol\";\n\n\ncontract Locker is Restricted, TokenReceiver {\n\n    using SafeMath for uint256;\n\n    uint public constant CHUNK_SIZE = 100;\n\n    event NewLockProduct(uint32 indexed lockProductId, uint32 perTermInterest, uint32 durationInSecs,\n                            uint32 minimumLockAmount, bool isActive);\n\n    event LockProductActiveChange(uint32 indexed lockProductId, bool newActiveState);\n\n    // NB: amountLocked includes the original amount, plus interest\n    event NewLock(address indexed lockOwner, uint lockId, uint amountLocked, uint interestEarned,\n                    uint40 lockedUntil, uint32 perTermInterest, uint32 durationInSecs, bool isActive);\n\n    event LockReleased(address indexed lockOwner, uint lockId);\n\n    struct LockProduct {\n        // perTermInterest is in millionths (i.e. 1,000,000 = 100%):\n        uint32 perTermInterest;\n        uint32 durationInSecs;\n        uint32 minimumLockAmount;\n        bool isActive;\n    }\n\n    /* NB: we don't need to store lock parameters because lockProducts can't be altered (only disabled/enabled) */\n    struct Lock {\n        uint amountLocked;\n        address owner;\n        uint32 productId;\n        uint40 lockedUntil;\n        bool isActive;\n    }\n\n    AugmintTokenInterface public augmintToken;\n    MonetarySupervisor public monetarySupervisor;\n\n    LockProduct[] public lockProducts;\n\n    Lock[] public locks;\n\n    // lock ids for an account\n    mapping(address => uint[]) public accountLocks;\n\n    function Locker(AugmintTokenInterface _augmintToken, MonetarySupervisor _monetarySupervisor) public {\n\n        augmintToken = _augmintToken;\n        monetarySupervisor = _monetarySupervisor;\n\n    }\n\n    function addLockProduct(uint32 perTermInterest, uint32 durationInSecs, uint32 minimumLockAmount, bool isActive)\n    external restrict(\"MonetaryBoard\") {\n\n        uint _newLockProductId = lockProducts.push(\n                                    LockProduct(perTermInterest, durationInSecs, minimumLockAmount, isActive)) - 1;\n        uint32 newLockProductId = uint32(_newLockProductId);\n        require(newLockProductId == _newLockProductId);\n        NewLockProduct(newLockProductId, perTermInterest, durationInSecs, minimumLockAmount, isActive);\n\n    }\n\n    function setLockProductActiveState(uint32 lockProductId, bool isActive) external restrict(\"MonetaryBoard\") {\n\n        require(lockProductId < lockProducts.length);\n        lockProducts[lockProductId].isActive = isActive;\n        LockProductActiveChange(lockProductId, isActive);\n\n    }\n\n    function releaseFunds(uint lockId) external {\n        Lock storage lock = locks[lockId];\n        LockProduct storage lockProduct = lockProducts[lock.productId];\n\n        require(lock.isActive);\n        require(now >= lock.lockedUntil);\n\n        lock.isActive = false;\n\n        uint interestEarned = calculateInterest(lockProduct.perTermInterest, lock.amountLocked);\n\n        monetarySupervisor.releaseFundsNotification(lock.amountLocked); // to maintain totalLockAmount\n        augmintToken.transferWithNarrative(lock.owner, lock.amountLocked.add(interestEarned),\n                                                                                \"Funds released from lock\");\n\n        LockReleased(lock.owner, lockId);\n    }\n\n    function getLockProductCount() external view returns (uint) {\n\n        return lockProducts.length;\n\n    }\n\n    // returns 20 lock products starting from some offset\n    // lock products are encoded as [ perTermInterest, durationInSecs, minimumLockAmount, isActive ]\n    function getLockProducts(uint offset) external view returns (uint32[4][CHUNK_SIZE] response) {\n        for (uint8 i = 0; i < CHUNK_SIZE; i++) {\n\n            if (offset + i >= lockProducts.length) { break; }\n\n            LockProduct storage lockProduct = lockProducts[offset + i];\n\n            response[i] = [ lockProduct.perTermInterest, lockProduct.durationInSecs,\n                                        lockProduct.minimumLockAmount, lockProduct.isActive ? 1 : 0 ];\n        }\n    }\n\n    function getLockCount() external view returns (uint) {\n        return locks.length;\n    }\n\n    function getLockCountForAddress(address lockOwner) external view returns (uint) {\n        return accountLocks[lockOwner].length;\n    }\n\n    // returns CHUNK_SIZE locks starting from some offset\n    // lock products are encoded as\n    //       [lockId, owner, amountLocked, interestEarned, lockedUntil, perTermInterest, durationInSecs, isActive ]\n    // NB: perTermInterest is in millionths (i.e. 1,000,000 = 100%):\n    function getLocks(uint offset) external view returns (uint[8][CHUNK_SIZE] response) {\n\n        for (uint16 i = 0; i < CHUNK_SIZE; i++) {\n\n            if (offset + i >= locks.length) { break; }\n\n            Lock storage lock = locks[offset + i];\n            LockProduct storage lockProduct = lockProducts[lock.productId];\n\n            uint interestEarned = calculateInterest(lockProduct.perTermInterest, lock.amountLocked);\n\n            response[i] = [uint(offset + i), uint(lock.owner), lock.amountLocked, interestEarned, lock.lockedUntil,\n                                lockProduct.perTermInterest, lockProduct.durationInSecs, lock.isActive ? 1 : 0];\n        }\n    }\n\n    // returns CHUNK_SIZE locks of a given account, starting from some offset\n    // lock products are encoded as\n    //             [lockId, amountLocked, interestEarned, lockedUntil, perTermInterest, durationInSecs, isActive ]\n    function getLocksForAddress(address lockOwner, uint offset) external view returns (uint[7][CHUNK_SIZE] response) {\n\n        uint[] storage locksForAddress = accountLocks[lockOwner];\n\n        for (uint16 i = 0; i < CHUNK_SIZE; i++) {\n\n            if (offset + i >= locksForAddress.length) { break; }\n\n            Lock storage lock = locks[locksForAddress[offset + i]];\n            LockProduct storage lockProduct = lockProducts[lock.productId];\n\n            uint interestEarned = calculateInterest(lockProduct.perTermInterest, lock.amountLocked);\n\n            response[i] = [ locksForAddress[offset + i], lock.amountLocked, interestEarned, lock.lockedUntil,\n                                lockProduct.perTermInterest, lockProduct.durationInSecs, lock.isActive ? 1 : 0 ];\n        }\n    }\n\n    /* lock funds, called from AugmintToken's transferAndNotify\n     Flow for locking tokens:\n        1) user calls token contract's transferAndNotify lockProductId passed in data arg\n        2) transferAndNotify transfers tokens to the Lock contract\n        3) transferAndNotify calls Lock.transferNotification with lockProductId\n    */\n    function transferNotification(address from, uint256 amountToLock, uint _lockProductId) public {\n        require(msg.sender == address(augmintToken));\n        uint32 lockProductId = uint32(_lockProductId);\n        require(lockProductId == _lockProductId);\n        /* TODO: make data arg generic bytes\n            uint productId;\n            assembly { // solhint-disable-line no-inline-assembly\n                productId := mload(data)\n        } */\n        _createLock(lockProductId, from, amountToLock);\n    }\n\n    function calculateInterest(uint32 perTermInterest, uint amountToLock) public pure returns (uint interestEarned) {\n        interestEarned = amountToLock.mul(perTermInterest).div(1000000);\n    }\n\n    // Internal function. assumes amountToLock is already transferred to this Lock contract\n    function _createLock(uint32 lockProductId, address lockOwner, uint amountToLock) internal returns(uint lockId) {\n        LockProduct storage lockProduct = lockProducts[lockProductId];\n        require(lockProduct.isActive);\n        require(amountToLock >= lockProduct.minimumLockAmount);\n\n        uint interestEarned = calculateInterest(lockProduct.perTermInterest, amountToLock);\n        uint expiration = now.add(lockProduct.durationInSecs);\n        uint40 lockedUntil = uint40(expiration);\n        require(lockedUntil == expiration);\n\n        lockId = locks.push(Lock(amountToLock, lockOwner, lockProductId, lockedUntil, true)) - 1;\n        accountLocks[lockOwner].push(lockId);\n\n        monetarySupervisor.requestInterest(amountToLock, interestEarned); // update KPIs & transfer interest here\n\n        NewLock(lockOwner, lockId, amountToLock, interestEarned, lockedUntil, lockProduct.perTermInterest,\n                    lockProduct.durationInSecs, true);\n    }\n\n}\n",
  "sourcePath": "/Users/petro/ether/augmint-web/augmint-contracts/contracts/Locker.sol",
  "compiler": {
    "name": "solc",
    "version": "0.4.19+commit.c4cbbb05.Emscripten.clang"
  },
  "schemaVersion": "1.0.1",
  "updatedAt": "2018-02-27T07:36:28.125Z"
}