{
  "contractName": "Locker",
  "abi": [
    {
      "constant": false,
      "inputs": [
        {
          "name": "agent",
          "type": "address"
        },
        {
          "name": "requiredPermissions",
          "type": "bytes32[]"
        }
      ],
      "name": "revokeMulitplePermissions",
      "outputs": [],
      "payable": false,
      "stateMutability": "nonpayable",
      "type": "function"
    },
    {
      "constant": true,
      "inputs": [
        {
          "name": "",
          "type": "uint256"
        }
      ],
      "name": "lockProducts",
      "outputs": [
        {
          "name": "perTermInterest",
          "type": "uint256"
        },
        {
          "name": "durationInSecs",
          "type": "uint256"
        },
        {
          "name": "minimumLockAmount",
          "type": "uint256"
        },
        {
          "name": "isActive",
          "type": "bool"
        }
      ],
      "payable": false,
      "stateMutability": "view",
      "type": "function"
    },
    {
      "constant": true,
      "inputs": [
        {
          "name": "",
          "type": "address"
        },
        {
          "name": "",
          "type": "bytes32"
        }
      ],
      "name": "permissions",
      "outputs": [
        {
          "name": "",
          "type": "bool"
        }
      ],
      "payable": false,
      "stateMutability": "view",
      "type": "function"
    },
    {
      "constant": false,
      "inputs": [
        {
          "name": "agent",
          "type": "address"
        },
        {
          "name": "requiredPermission",
          "type": "bytes32"
        }
      ],
      "name": "revokePermission",
      "outputs": [],
      "payable": false,
      "stateMutability": "nonpayable",
      "type": "function"
    },
    {
      "constant": true,
      "inputs": [],
      "name": "augmintToken",
      "outputs": [
        {
          "name": "",
          "type": "address"
        }
      ],
      "payable": false,
      "stateMutability": "view",
      "type": "function"
    },
    {
      "constant": false,
      "inputs": [
        {
          "name": "agent",
          "type": "address"
        },
        {
          "name": "requiredPermissions",
          "type": "bytes32[]"
        }
      ],
      "name": "grantMultiplePermissions",
      "outputs": [],
      "payable": false,
      "stateMutability": "nonpayable",
      "type": "function"
    },
    {
      "constant": true,
      "inputs": [
        {
          "name": "",
          "type": "address"
        },
        {
          "name": "",
          "type": "uint256"
        }
      ],
      "name": "locks",
      "outputs": [
        {
          "name": "amountLocked",
          "type": "uint256"
        },
        {
          "name": "interestEarned",
          "type": "uint256"
        },
        {
          "name": "lockedUntil",
          "type": "uint256"
        },
        {
          "name": "perTermInterest",
          "type": "uint256"
        },
        {
          "name": "durationInSecs",
          "type": "uint256"
        },
        {
          "name": "isActive",
          "type": "bool"
        }
      ],
      "payable": false,
      "stateMutability": "view",
      "type": "function"
    },
    {
      "constant": false,
      "inputs": [
        {
          "name": "agent",
          "type": "address"
        },
        {
          "name": "requiredPermission",
          "type": "bytes32"
        }
      ],
      "name": "grantPermission",
      "outputs": [],
      "payable": false,
      "stateMutability": "nonpayable",
      "type": "function"
    },
    {
      "inputs": [
        {
          "name": "augmintTokenAddress",
          "type": "address"
        }
      ],
      "payable": false,
      "stateMutability": "nonpayable",
      "type": "constructor"
    },
    {
      "anonymous": false,
      "inputs": [
        {
          "indexed": true,
          "name": "lockProductId",
          "type": "uint256"
        },
        {
          "indexed": false,
          "name": "perTermInterest",
          "type": "uint256"
        },
        {
          "indexed": false,
          "name": "durationInSecs",
          "type": "uint256"
        },
        {
          "indexed": false,
          "name": "minimumLockAmount",
          "type": "uint256"
        },
        {
          "indexed": false,
          "name": "isActive",
          "type": "bool"
        }
      ],
      "name": "NewLockProduct",
      "type": "event"
    },
    {
      "anonymous": false,
      "inputs": [
        {
          "indexed": true,
          "name": "lockProductId",
          "type": "uint256"
        },
        {
          "indexed": false,
          "name": "newActiveState",
          "type": "bool"
        }
      ],
      "name": "LockProductActiveChange",
      "type": "event"
    },
    {
      "anonymous": false,
      "inputs": [
        {
          "indexed": true,
          "name": "lockOwner",
          "type": "address"
        },
        {
          "indexed": true,
          "name": "lockIndex",
          "type": "uint256"
        },
        {
          "indexed": false,
          "name": "amountLocked",
          "type": "uint256"
        },
        {
          "indexed": false,
          "name": "interestEarned",
          "type": "uint256"
        },
        {
          "indexed": false,
          "name": "lockedUntil",
          "type": "uint256"
        },
        {
          "indexed": false,
          "name": "perTermInterest",
          "type": "uint256"
        },
        {
          "indexed": false,
          "name": "durationInSecs",
          "type": "uint256"
        },
        {
          "indexed": false,
          "name": "isActive",
          "type": "bool"
        }
      ],
      "name": "NewLock",
      "type": "event"
    },
    {
      "anonymous": false,
      "inputs": [
        {
          "indexed": true,
          "name": "lockOwner",
          "type": "address"
        },
        {
          "indexed": true,
          "name": "lockIndex",
          "type": "uint256"
        }
      ],
      "name": "LockReleased",
      "type": "event"
    },
    {
      "anonymous": false,
      "inputs": [
        {
          "indexed": true,
          "name": "agent",
          "type": "address"
        },
        {
          "indexed": false,
          "name": "grantedPermission",
          "type": "bytes32"
        }
      ],
      "name": "PermissionGranted",
      "type": "event"
    },
    {
      "anonymous": false,
      "inputs": [
        {
          "indexed": true,
          "name": "agent",
          "type": "address"
        },
        {
          "indexed": false,
          "name": "revokedPermission",
          "type": "bytes32"
        }
      ],
      "name": "PermissionRevoked",
      "type": "event"
    },
    {
      "constant": false,
      "inputs": [
        {
          "name": "perTermInterest",
          "type": "uint256"
        },
        {
          "name": "durationInSecs",
          "type": "uint256"
        },
        {
          "name": "minimumLockAmount",
          "type": "uint256"
        },
        {
          "name": "isActive",
          "type": "bool"
        }
      ],
      "name": "addLockProduct",
      "outputs": [],
      "payable": false,
      "stateMutability": "nonpayable",
      "type": "function"
    },
    {
      "constant": false,
      "inputs": [
        {
          "name": "lockProductId",
          "type": "uint256"
        },
        {
          "name": "isActive",
          "type": "bool"
        }
      ],
      "name": "setLockProductActiveState",
      "outputs": [],
      "payable": false,
      "stateMutability": "nonpayable",
      "type": "function"
    },
    {
      "constant": true,
      "inputs": [],
      "name": "getLockProductCount",
      "outputs": [
        {
          "name": "",
          "type": "uint256"
        }
      ],
      "payable": false,
      "stateMutability": "view",
      "type": "function"
    },
    {
      "constant": true,
      "inputs": [
        {
          "name": "offset",
          "type": "uint256"
        }
      ],
      "name": "getLockProducts",
      "outputs": [
        {
          "name": "",
          "type": "uint256[4][20]"
        }
      ],
      "payable": false,
      "stateMutability": "view",
      "type": "function"
    },
    {
      "constant": true,
      "inputs": [
        {
          "name": "lockProductId",
          "type": "uint256"
        },
        {
          "name": "amountToLock",
          "type": "uint256"
        }
      ],
      "name": "calculateInterestForLockProduct",
      "outputs": [
        {
          "name": "",
          "type": "uint256"
        }
      ],
      "payable": false,
      "stateMutability": "view",
      "type": "function"
    },
    {
      "constant": false,
      "inputs": [
        {
          "name": "lockProductId",
          "type": "uint256"
        },
        {
          "name": "lockOwner",
          "type": "address"
        },
        {
          "name": "amountToLock",
          "type": "uint256"
        }
      ],
      "name": "createLock",
      "outputs": [
        {
          "name": "",
          "type": "uint256"
        }
      ],
      "payable": false,
      "stateMutability": "nonpayable",
      "type": "function"
    },
    {
      "constant": false,
      "inputs": [
        {
          "name": "lockOwner",
          "type": "address"
        },
        {
          "name": "lockIndex",
          "type": "uint256"
        }
      ],
      "name": "releaseFunds",
      "outputs": [],
      "payable": false,
      "stateMutability": "nonpayable",
      "type": "function"
    },
    {
      "constant": true,
      "inputs": [
        {
          "name": "lockOwner",
          "type": "address"
        }
      ],
      "name": "getLockCountForAddress",
      "outputs": [
        {
          "name": "",
          "type": "uint256"
        }
      ],
      "payable": false,
      "stateMutability": "view",
      "type": "function"
    },
    {
      "constant": true,
      "inputs": [
        {
          "name": "lockOwner",
          "type": "address"
        },
        {
          "name": "offset",
          "type": "uint256"
        }
      ],
      "name": "getLocksForAddress",
      "outputs": [
        {
          "name": "",
          "type": "uint256[6][20]"
        }
      ],
      "payable": false,
      "stateMutability": "view",
      "type": "function"
    }
  ],
  "bytecode": "0x6060604052341561000f57600080fd5b6040516020806118d58339810160405280805190602001909190505060016000803373ffffffffffffffffffffffffffffffffffffffff1673ffffffffffffffffffffffffffffffffffffffff16815260200190815260200160002060007f4d6f6e6574617279426f6172640000000000000000000000000000000000000060001916815260200190815260200160002060006101000a81548160ff0219169083151502179055503373ffffffffffffffffffffffffffffffffffffffff167fc65937e3dbcb9fb30f646815dd67a3dbd09ba17718cbcb54efbe3635f8e0a6fe60405180807f4d6f6e6574617279426f61726400000000000000000000000000000000000000815250602001905060405180910390a280600160006101000a81548173ffffffffffffffffffffffffffffffffffffffff021916908373ffffffffffffffffffffffffffffffffffffffff1602179055505061175f806101766000396000f3006060604052600436106100f1576000357c0100000000000000000000000000000000000000000000000000000000900463ffffffff1680630da32eaa146100f657806314f6c8da1461016f57806326eda038146101bf57806344fcbd79146101ff5780634de16053146102a05780635b225526146102c95780635fe07013146103275780637217f20c1461036d5780637b9b9c89146103ad57806390f549ba146104025780639ac3317b1461044f578063a22f302e146104c8578063b425f802146104f6578063d6e982e514610573578063e18a9134146105b5578063f38a826214610637578063f551de6c1461067d575b600080fd5b341561010157600080fd5b61016d600480803573ffffffffffffffffffffffffffffffffffffffff16906020019091908035906020019082018035906020019080806020026020016040519081016040528093929190818152602001838360200280828437820191505050505050919050506106dc565b005b341561017a57600080fd5b6101906004808035906020019091905050610724565b604051808581526020018481526020018381526020018215151515815260200194505050505060405180910390f35b34156101ca57600080fd5b6101e96004808035906020019091908035906020019091905050610770565b6040518082815260200191505060405180910390f35b341561020a57600080fd5b61023f600480803573ffffffffffffffffffffffffffffffffffffffff169060200190919080359060200190919050506107fd565b604051808260146000925b818410156102905782846020020151600660200280838360005b8381101561027f578082015181840152602081019050610264565b50505050905001926001019261024a565b9250505091505060405180910390f35b34156102ab57600080fd5b6102b3610935565b6040518082815260200191505060405180910390f35b34156102d457600080fd5b61030d600480803573ffffffffffffffffffffffffffffffffffffffff1690602001909190803560001916906020019091905050610942565b604051808215151515815260200191505060405180910390f35b341561033257600080fd5b61036b600480803573ffffffffffffffffffffffffffffffffffffffff1690602001909190803560001916906020019091905050610971565b005b341561037857600080fd5b6103ab60048080359060200190919080359060200190919080359060200190919080351515906020019091905050610a3b565b005b34156103b857600080fd5b6103c0610bbc565b604051808273ffffffffffffffffffffffffffffffffffffffff1673ffffffffffffffffffffffffffffffffffffffff16815260200191505060405180910390f35b341561040d57600080fd5b610439600480803573ffffffffffffffffffffffffffffffffffffffff16906020019091905050610be2565b6040518082815260200191505060405180910390f35b341561045a57600080fd5b6104c6600480803573ffffffffffffffffffffffffffffffffffffffff1690602001909190803590602001908201803590602001908080602002602001604051908101604052809392919081815260200183836020028082843782019150505050505091905050610c2e565b005b34156104d357600080fd5b6104f460048080359060200190919080351515906020019091905050610d02565b005b341561050157600080fd5b610536600480803573ffffffffffffffffffffffffffffffffffffffff16906020019091908035906020019091905050610e1f565b6040518087815260200186815260200185815260200184815260200183815260200182151515158152602001965050505050505060405180910390f35b341561057e57600080fd5b6105b3600480803573ffffffffffffffffffffffffffffffffffffffff16906020019091908035906020019091905050610e84565b005b34156105c057600080fd5b6105d660048080359060200190919050506110a0565b604051808260146000925b818410156106275782846020020151600460200280838360005b838110156106165780820151818401526020810190506105fb565b5050505090500192600101926105e1565b9250505091505060405180910390f35b341561064257600080fd5b61067b600480803573ffffffffffffffffffffffffffffffffffffffff1690602001909190803560001916906020019091905050611181565b005b341561068857600080fd5b6106c6600480803590602001909190803573ffffffffffffffffffffffffffffffffffffffff169060200190919080359060200190919050506112d7565b6040518082815260200191505060405180910390f35b60008082519150600090505b8181101561071e5761071184848381518110151561070257fe5b90602001906020020151610971565b80806001019150506106e8565b50505050565b60028181548110151561073357fe5b90600052602060002090600402016000915090508060000154908060010154908060020154908060030160009054906101000a900460ff16905084565b600080600060028581548110151561078457fe5b906000526020600020906004020191508160030160009054906101000a900460ff1615156107b157600080fd5b816002015484101515156107c457600080fd5b6107f0620f42406107e284600001548761150990919063ffffffff16565b61153f90919063ffffffff16565b9050809250505092915050565b61080561157b565b600061080f61157b565b600080600360008873ffffffffffffffffffffffffffffffffffffffff1673ffffffffffffffffffffffffffffffffffffffff1681526020019081526020016000209350600091505b60148260ff1610156109285783805490508260ff16870110151561087b57610928565b838260ff16870181548110151561088e57fe5b9060005260206000209060060201905060c06040519081016040528082600001548152602001826001015481526020018260020154815260200182600301548152602001826004015481526020018260050160009054906101000a900460ff166108f95760006108fc565b60015b60ff16815250838360ff1660148110151561091357fe5b60200201819052508180600101925050610858565b8294505050505092915050565b6000600280549050905090565b60006020528160005260406000206020528060005260406000206000915091509054906101000a900460ff1681565b60008060008473ffffffffffffffffffffffffffffffffffffffff1673ffffffffffffffffffffffffffffffffffffffff1681526020019081526020016000206000836000191660001916815260200190815260200160002060006101000a81548160ff0219169083151502179055508173ffffffffffffffffffffffffffffffffffffffff167f789770131846de4d1f28418f0f957cdf4fcabe5eccf70067083e20ecece69a348260405180826000191660001916815260200191505060405180910390a25050565b60007f4d6f6e6574617279426f617264000000000000000000000000000000000000006000803373ffffffffffffffffffffffffffffffffffffffff1673ffffffffffffffffffffffffffffffffffffffff1681526020019081526020016000206000826000191660001916815260200190815260200160002060009054906101000a900460ff161515610ace57600080fd5b600160028054806001018281610ae491906115aa565b916000526020600020906004020160006080604051908101604052808b81526020018a8152602001898152602001881515815250909190915060008201518160000155602082015181600101556040820151816002015560608201518160030160006101000a81548160ff0219169083151502179055505050039150817fec8fb973146e5bda73af7fc35d819a22b58200709a61afcef19ce7bc7616885e87878787604051808581526020018481526020018381526020018215151515815260200194505050505060405180910390a2505050505050565b600160009054906101000a900473ffffffffffffffffffffffffffffffffffffffff1681565b6000600360008373ffffffffffffffffffffffffffffffffffffffff1673ffffffffffffffffffffffffffffffffffffffff168152602001908152602001600020805490509050919050565b6000806000803373ffffffffffffffffffffffffffffffffffffffff1673ffffffffffffffffffffffffffffffffffffffff16815260200190815260200160002060007f4d6f6e6574617279426f6172640000000000000000000000000000000000000060001916815260200190815260200160002060009054906101000a900460ff161515610cbd57600080fd5b82519150600090505b81811015610cfc57610cef848483815181101515610ce057fe5b90602001906020020151611181565b8080600101915050610cc6565b50505050565b7f4d6f6e6574617279426f617264000000000000000000000000000000000000006000803373ffffffffffffffffffffffffffffffffffffffff1673ffffffffffffffffffffffffffffffffffffffff1681526020019081526020016000206000826000191660001916815260200190815260200160002060009054906101000a900460ff161515610d9357600080fd5b60028054905083101515610da657600080fd5b81600284815481101515610db657fe5b906000526020600020906004020160030160006101000a81548160ff021916908315150217905550827f33f9621e2788987cc551fd25b10528952f3cf8ddfe8f42c82c085fb33792f99083604051808215151515815260200191505060405180910390a2505050565b600360205281600052604060002081815481101515610e3a57fe5b9060005260206000209060060201600091509150508060000154908060010154908060020154908060030154908060040154908060050160009054906101000a900460ff16905086565b6000600360008473ffffffffffffffffffffffffffffffffffffffff1673ffffffffffffffffffffffffffffffffffffffff16815260200190815260200160002082815481101515610ed257fe5b906000526020600020906006020190508060050160009054906101000a900460ff168015610f04575080600201544210155b1515610f0f57600080fd5b60008160050160006101000a81548160ff021916908315150217905550600160009054906101000a900473ffffffffffffffffffffffffffffffffffffffff1673ffffffffffffffffffffffffffffffffffffffff1663ab1f032784610f868460010154856000015461155a90919063ffffffff16565b6040518363ffffffff167c0100000000000000000000000000000000000000000000000000000000028152600401808373ffffffffffffffffffffffffffffffffffffffff1673ffffffffffffffffffffffffffffffffffffffff16815260200182815260200180602001828103825260198152602001807f52656c656173696e672066756e64732066726f6d206c6f636b000000000000008152506020019350505050600060405180830381600087803b151561104357600080fd5b6102c65a03f1151561105457600080fd5b505050818373ffffffffffffffffffffffffffffffffffffffff167f622ca42598ab680a7def4a7346e1963a82207cf42a5ddb8056ad62cfbda19b8860405160405180910390a3505050565b6110a86115dc565b6110b06115dc565b600080600091505b60148260ff161015611176576002805490508260ff1686011015156110dc57611176565b60028260ff1686018154811015156110f057fe5b906000526020600020906004020190506080604051908101604052808260000154815260200182600101548152602001826002015481526020018260030160009054906101000a900460ff1661114757600061114a565b60015b60ff16815250838360ff1660148110151561116157fe5b602002018190525081806001019250506110b8565b829350505050919050565b6000803373ffffffffffffffffffffffffffffffffffffffff1673ffffffffffffffffffffffffffffffffffffffff16815260200190815260200160002060007f4d6f6e6574617279426f6172640000000000000000000000000000000000000060001916815260200190815260200160002060009054906101000a900460ff16151561120d57600080fd5b60016000808473ffffffffffffffffffffffffffffffffffffffff1673ffffffffffffffffffffffffffffffffffffffff1681526020019081526020016000206000836000191660001916815260200190815260200160002060006101000a81548160ff0219169083151502179055508173ffffffffffffffffffffffffffffffffffffffff167fc65937e3dbcb9fb30f646815dd67a3dbd09ba17718cbcb54efbe3635f8e0a6fe8260405180826000191660001916815260200191505060405180910390a25050565b6000806000806000600160009054906101000a900473ffffffffffffffffffffffffffffffffffffffff1673ffffffffffffffffffffffffffffffffffffffff163373ffffffffffffffffffffffffffffffffffffffff1614151561133b57600080fd5b6113458887610770565b935060028881548110151561135657fe5b9060005260206000209060040201925061137d83600101544261155a90919063ffffffff16565b91506001600360008973ffffffffffffffffffffffffffffffffffffffff1673ffffffffffffffffffffffffffffffffffffffff16815260200190815260200160002080548060010182816113d2919061160b565b9160005260206000209060060201600060c0604051908101604052808b81526020018981526020018781526020018860000154815260200188600101548152602001600115158152509091909150600082015181600001556020820151816001015560408201518160020155606082015181600301556080820151816004015560a08201518160050160006101000a81548160ff0219169083151502179055505050039050808773ffffffffffffffffffffffffffffffffffffffff167f72f9c6e77e5aec28e666b63082d6dba491cf7dd30561d29c47620c96bc0f8e158887868860000154896001015460016040518087815260200186815260200185815260200184815260200183815260200182151515158152602001965050505050505060405180910390a3839450505050509392505050565b6000808284029050600084148061152a575082848281151561152757fe5b04145b151561153557600080fd5b8091505092915050565b600080828481151561154d57fe5b0490508091505092915050565b600080828401905083811015151561157157600080fd5b8091505092915050565b610f00604051908101604052806014905b61159461163d565b81526020019060019003908161158c5790505090565b8154818355818115116115d7576004028160040283600052602060002091820191016115d69190611665565b5b505050565b610a00604051908101604052806014905b6115f56116b0565b8152602001906001900390816115ed5790505090565b8154818355818115116116385760060281600602836000526020600020918201910161163791906116d8565b5b505050565b60c0604051908101604052806006905b600081526020019060019003908161164d5790505090565b6116ad91905b808211156116a957600080820160009055600182016000905560028201600090556003820160006101000a81549060ff02191690555060040161166b565b5090565b90565b6080604051908101604052806004905b60008152602001906001900390816116c05790505090565b61173091905b8082111561172c5760008082016000905560018201600090556002820160009055600382016000905560048201600090556005820160006101000a81549060ff0219169055506006016116de565b5090565b905600a165627a7a723058201fa2a076c8de98a62de7ec40ab2d3257048518b2f470c856c1ed603d4832cdd40029",
  "source": "\n// contract for tracking locked funds etc.\n\n// requirements\n// -> lock funds\n// -> unlock funds\n// -> index locks by address\n\n// to do/think about:\n// -> self-destruct function?\n// -> return only active loan products from getLoanProducts?\n// -> need to update token contract? probably not? a new token contract would imply a fresh deployment?\n// -> test locking small (<10) amounts - need a min lock amount in lockProducts\n\npragma solidity 0.4.19;\n\nimport \"./generic/Restricted.sol\";\nimport \"./generic/SafeMath.sol\";\nimport \"./interfaces/AugmintTokenInterface.sol\";\n\n\ncontract Locker is Restricted {\n\n    using SafeMath for uint256;\n\n    event NewLockProduct(uint indexed lockProductId, uint perTermInterest, uint durationInSecs,\n                            uint minimumLockAmount, bool isActive);\n\n    event LockProductActiveChange(uint indexed lockProductId, bool newActiveState);\n\n    // NB: amountLocked includes the original amount, plus interest\n    event NewLock(address indexed lockOwner, uint indexed lockIndex, uint amountLocked, uint interestEarned,\n                    uint lockedUntil, uint perTermInterest, uint durationInSecs, bool isActive);\n\n    event LockReleased(address indexed lockOwner, uint indexed lockIndex);\n\n    struct LockProduct {\n        // perTermInterest is in millionths (i.e. 1,000,000 = 100%):\n        uint perTermInterest;\n        uint durationInSecs;\n        uint minimumLockAmount;\n        bool isActive;\n    }\n\n    struct Lock {\n        uint amountLocked;\n        uint interestEarned;\n        uint lockedUntil;\n        uint perTermInterest;\n        uint durationInSecs;\n        bool isActive;\n    }\n\n    AugmintTokenInterface public augmintToken;\n\n    LockProduct[] public lockProducts;\n    // per account locks (i.e. an id for a lock is a tuple (owner, index)):\n    mapping(address => Lock[]) public locks;\n\n    function Locker(address augmintTokenAddress) public {\n\n        augmintToken = AugmintTokenInterface(augmintTokenAddress);\n\n    }\n\n    function addLockProduct(uint perTermInterest, uint durationInSecs, uint minimumLockAmount, bool isActive)\n    external restrict(\"MonetaryBoard\") {\n\n        uint newLockProductId = lockProducts.push(\n                                    LockProduct(perTermInterest, durationInSecs, minimumLockAmount, isActive)) - 1;\n        NewLockProduct(newLockProductId, perTermInterest, durationInSecs, minimumLockAmount, isActive);\n\n    }\n\n    function setLockProductActiveState(uint lockProductId, bool isActive) external restrict(\"MonetaryBoard\") {\n\n        require(lockProductId < lockProducts.length);\n        lockProducts[lockProductId].isActive = isActive;\n        LockProductActiveChange(lockProductId, isActive);\n\n    }\n\n    function getLockProductCount() external view returns (uint) {\n\n        return lockProducts.length;\n\n    }\n\n    // returns 20 lock products starting from some offset\n    // lock products are encoded as [ perTermInterest, durationInSecs, minimumLockAmount, isActive ]\n    function getLockProducts(uint offset) external view returns (uint[4][20]) {\n\n        uint[4][20] memory response;\n\n        for (uint8 i = 0; i < 20; i++) {\n\n            if (offset + i >= lockProducts.length) { break; }\n\n            LockProduct storage lockProduct = lockProducts[offset + i];\n\n            response[i] = [ lockProduct.perTermInterest, lockProduct.durationInSecs,\n                                        lockProduct.minimumLockAmount, lockProduct.isActive ? 1 : 0 ];\n\n        }\n\n        return response;\n\n    }\n\n    // the flow for locking tokens is:\n    // 1) user calls token contract to lock tokens\n    // 2) token contract calls createLock, which creates the locks and returns the interestEarned\n    // 3) token contract transfers tokens from user and interestEarnedPool to Locker\n    function calculateInterestForLockProduct(uint lockProductId, uint amountToLock) public view returns (uint) {\n\n        LockProduct storage lockProduct = lockProducts[lockProductId];\n        require(lockProduct.isActive);\n        require(amountToLock >= lockProduct.minimumLockAmount);\n\n        uint interestEarned = amountToLock.mul(lockProduct.perTermInterest).div(1000000);\n\n        return interestEarned;\n\n    }\n\n    // NB: totalAmountLocked includes both the lock amount AND the interest\n    function createLock(uint lockProductId, address lockOwner, uint amountToLock) external returns (uint) {\n\n        // only the token can call this:\n        require(msg.sender == address(augmintToken));\n\n        // NB: calculateInterestForLockProduct will validate the lock product and amountToLock:\n        uint interestEarned = calculateInterestForLockProduct(lockProductId, amountToLock);\n\n        LockProduct storage lockProduct = lockProducts[lockProductId];\n\n        uint lockedUntil = now.add(lockProduct.durationInSecs);\n        uint lockIndex = locks[lockOwner].push(Lock(amountToLock, interestEarned, lockedUntil,\n                                                    lockProduct.perTermInterest, lockProduct.durationInSecs, true)) - 1;\n\n        NewLock(lockOwner, lockIndex, amountToLock, interestEarned, lockedUntil, lockProduct.perTermInterest,\n                    lockProduct.durationInSecs, true);\n\n        return interestEarned;\n\n    }\n\n    function releaseFunds(address lockOwner, uint lockIndex) external {\n\n        Lock storage lock = locks[lockOwner][lockIndex];\n\n        require(lock.isActive && now >= lock.lockedUntil);\n\n        lock.isActive = false;\n        augmintToken.transferNoFee(lockOwner, lock.amountLocked.add(lock.interestEarned), \"Releasing funds from lock\");\n\n        LockReleased(lockOwner, lockIndex);\n    }\n\n    function getLockCountForAddress(address lockOwner) external view returns (uint) {\n\n        return locks[lockOwner].length;\n\n    }\n\n    // returns 20 locks starting from some offset\n    // lock products are encoded as\n    //              [amountLocked, interestEarned, lockedUntil, perTermInterest, durationInSecs, isActive ]\n    // NB: perTermInterest is in millionths (i.e. 1,000,000 = 100%):\n    function getLocksForAddress(address lockOwner, uint offset) external view returns (uint[6][20]) {\n\n        Lock[] storage locksForAddress = locks[lockOwner];\n        uint[6][20] memory response;\n\n        for (uint8 i = 0; i < 20; i++) {\n\n            if (offset + i >= locksForAddress.length) { break; }\n\n            Lock storage lock = locksForAddress[offset + i];\n\n            response[i] = [ lock.amountLocked, lock.interestEarned, lock.lockedUntil, lock.perTermInterest,\n                                        lock.durationInSecs, lock.isActive ? 1 : 0 ];\n\n        }\n\n        return response;\n\n    }\n\n}\n",
  "sourcePath": "/Users/petro/ether/augmint-core/contracts/Locker.sol",
  "compiler": {
    "name": "solc",
    "version": "0.4.19+commit.c4cbbb05.Emscripten.clang"
  },
  "schemaVersion": "1.0.1",
  "updatedAt": "2018-02-03T08:14:44.051Z"
}