{
  "contractName": "Locker",
  "abi": [
    {
      "constant": true,
      "inputs": [
        {
          "name": "",
          "type": "uint256"
        }
      ],
      "name": "lockProducts",
      "outputs": [
        {
          "name": "perTermInterest",
          "type": "uint256"
        },
        {
          "name": "durationInSecs",
          "type": "uint256"
        },
        {
          "name": "minimumLockAmount",
          "type": "uint256"
        },
        {
          "name": "isActive",
          "type": "bool"
        }
      ],
      "payable": false,
      "stateMutability": "view",
      "type": "function"
    },
    {
      "constant": true,
      "inputs": [
        {
          "name": "lockProductId",
          "type": "uint256"
        },
        {
          "name": "amountToLock",
          "type": "uint256"
        }
      ],
      "name": "calculateInterestForLockProduct",
      "outputs": [
        {
          "name": "",
          "type": "uint256"
        }
      ],
      "payable": false,
      "stateMutability": "view",
      "type": "function"
    },
    {
      "constant": true,
      "inputs": [
        {
          "name": "lockOwner",
          "type": "address"
        },
        {
          "name": "offset",
          "type": "uint256"
        }
      ],
      "name": "getLocksForAddress",
      "outputs": [
        {
          "name": "",
          "type": "uint256[6][20]"
        }
      ],
      "payable": false,
      "stateMutability": "view",
      "type": "function"
    },
    {
      "constant": true,
      "inputs": [],
      "name": "getLockProductCount",
      "outputs": [
        {
          "name": "",
          "type": "uint256"
        }
      ],
      "payable": false,
      "stateMutability": "view",
      "type": "function"
    },
    {
      "constant": false,
      "inputs": [
        {
          "name": "perTermInterest",
          "type": "uint256"
        },
        {
          "name": "durationInSecs",
          "type": "uint256"
        },
        {
          "name": "minimumLockAmount",
          "type": "uint256"
        },
        {
          "name": "isActive",
          "type": "bool"
        }
      ],
      "name": "addLockProduct",
      "outputs": [],
      "payable": false,
      "stateMutability": "nonpayable",
      "type": "function"
    },
    {
      "constant": true,
      "inputs": [],
      "name": "augmintToken",
      "outputs": [
        {
          "name": "",
          "type": "address"
        }
      ],
      "payable": false,
      "stateMutability": "view",
      "type": "function"
    },
    {
      "constant": true,
      "inputs": [],
      "name": "owner",
      "outputs": [
        {
          "name": "",
          "type": "address"
        }
      ],
      "payable": false,
      "stateMutability": "view",
      "type": "function"
    },
    {
      "constant": true,
      "inputs": [
        {
          "name": "lockOwner",
          "type": "address"
        }
      ],
      "name": "getLockCountForAddress",
      "outputs": [
        {
          "name": "",
          "type": "uint256"
        }
      ],
      "payable": false,
      "stateMutability": "view",
      "type": "function"
    },
    {
      "constant": false,
      "inputs": [
        {
          "name": "lockProductId",
          "type": "uint256"
        },
        {
          "name": "isActive",
          "type": "bool"
        }
      ],
      "name": "setLockProductActiveState",
      "outputs": [],
      "payable": false,
      "stateMutability": "nonpayable",
      "type": "function"
    },
    {
      "constant": true,
      "inputs": [
        {
          "name": "",
          "type": "address"
        },
        {
          "name": "",
          "type": "uint256"
        }
      ],
      "name": "locks",
      "outputs": [
        {
          "name": "amountLocked",
          "type": "uint256"
        },
        {
          "name": "interestEarned",
          "type": "uint256"
        },
        {
          "name": "lockedUntil",
          "type": "uint256"
        },
        {
          "name": "perTermInterest",
          "type": "uint256"
        },
        {
          "name": "durationInSecs",
          "type": "uint256"
        },
        {
          "name": "isActive",
          "type": "bool"
        }
      ],
      "payable": false,
      "stateMutability": "view",
      "type": "function"
    },
    {
      "constant": false,
      "inputs": [
        {
          "name": "lockOwner",
          "type": "address"
        },
        {
          "name": "lockIndex",
          "type": "uint256"
        }
      ],
      "name": "releaseFunds",
      "outputs": [],
      "payable": false,
      "stateMutability": "nonpayable",
      "type": "function"
    },
    {
      "constant": true,
      "inputs": [
        {
          "name": "offset",
          "type": "uint256"
        }
      ],
      "name": "getLockProducts",
      "outputs": [
        {
          "name": "",
          "type": "uint256[4][20]"
        }
      ],
      "payable": false,
      "stateMutability": "view",
      "type": "function"
    },
    {
      "constant": false,
      "inputs": [
        {
          "name": "newOwner",
          "type": "address"
        }
      ],
      "name": "transferOwnership",
      "outputs": [],
      "payable": false,
      "stateMutability": "nonpayable",
      "type": "function"
    },
    {
      "constant": false,
      "inputs": [
        {
          "name": "lockProductId",
          "type": "uint256"
        },
        {
          "name": "lockOwner",
          "type": "address"
        },
        {
          "name": "amountToLock",
          "type": "uint256"
        }
      ],
      "name": "createLock",
      "outputs": [
        {
          "name": "",
          "type": "uint256"
        }
      ],
      "payable": false,
      "stateMutability": "nonpayable",
      "type": "function"
    },
    {
      "inputs": [
        {
          "name": "augmintTokenAddress",
          "type": "address"
        }
      ],
      "payable": false,
      "stateMutability": "nonpayable",
      "type": "constructor"
    },
    {
      "anonymous": false,
      "inputs": [
        {
          "indexed": true,
          "name": "lockProductId",
          "type": "uint256"
        },
        {
          "indexed": false,
          "name": "perTermInterest",
          "type": "uint256"
        },
        {
          "indexed": false,
          "name": "durationInSecs",
          "type": "uint256"
        },
        {
          "indexed": false,
          "name": "minimumLockAmount",
          "type": "uint256"
        },
        {
          "indexed": false,
          "name": "isActive",
          "type": "bool"
        }
      ],
      "name": "NewLockProduct",
      "type": "event"
    },
    {
      "anonymous": false,
      "inputs": [
        {
          "indexed": true,
          "name": "lockProductId",
          "type": "uint256"
        },
        {
          "indexed": false,
          "name": "newActiveState",
          "type": "bool"
        }
      ],
      "name": "LockProductActiveChange",
      "type": "event"
    },
    {
      "anonymous": false,
      "inputs": [
        {
          "indexed": true,
          "name": "lockOwner",
          "type": "address"
        },
        {
          "indexed": true,
          "name": "lockIndex",
          "type": "uint256"
        },
        {
          "indexed": false,
          "name": "amountLocked",
          "type": "uint256"
        },
        {
          "indexed": false,
          "name": "interestEarned",
          "type": "uint256"
        },
        {
          "indexed": false,
          "name": "lockedUntil",
          "type": "uint256"
        },
        {
          "indexed": false,
          "name": "perTermInterest",
          "type": "uint256"
        },
        {
          "indexed": false,
          "name": "durationInSecs",
          "type": "uint256"
        },
        {
          "indexed": false,
          "name": "isActive",
          "type": "bool"
        }
      ],
      "name": "NewLock",
      "type": "event"
    },
    {
      "anonymous": false,
      "inputs": [
        {
          "indexed": true,
          "name": "lockOwner",
          "type": "address"
        },
        {
          "indexed": true,
          "name": "lockIndex",
          "type": "uint256"
        }
      ],
      "name": "LockReleased",
      "type": "event"
    },
    {
      "anonymous": false,
      "inputs": [
        {
          "indexed": true,
          "name": "oldOwner",
          "type": "address"
        },
        {
          "indexed": true,
          "name": "newOwner",
          "type": "address"
        }
      ],
      "name": "NewOwner",
      "type": "event"
    }
  ],
  "bytecode": "0x6060604052341561000f57600080fd5b6040516020806114a983398101604052808051906020019091905050600073ffffffffffffffffffffffffffffffffffffffff166000809054906101000a900473ffffffffffffffffffffffffffffffffffffffff1673ffffffffffffffffffffffffffffffffffffffff1614151561008757600080fd5b336000806101000a81548173ffffffffffffffffffffffffffffffffffffffff021916908373ffffffffffffffffffffffffffffffffffffffff16021790555080600160006101000a81548173ffffffffffffffffffffffffffffffffffffffff021916908373ffffffffffffffffffffffffffffffffffffffff16021790555050611391806101186000396000f3006060604052600436106100d0576000357c0100000000000000000000000000000000000000000000000000000000900463ffffffff16806314f6c8da146100d557806326eda0381461012557806344fcbd79146101655780634de16053146102065780637217f20c1461022f5780637b9b9c891461026f5780638da5cb5b146102c457806390f549ba14610319578063a22f302e14610366578063b425f80214610394578063d6e982e514610411578063e18a913414610453578063f2fde38b146104d5578063f551de6c1461050e575b600080fd5b34156100e057600080fd5b6100f6600480803590602001909190505061056d565b604051808581526020018481526020018381526020018215151515815260200194505050505060405180910390f35b341561013057600080fd5b61014f60048080359060200190919080359060200190919050506105b9565b6040518082815260200191505060405180910390f35b341561017057600080fd5b6101a5600480803573ffffffffffffffffffffffffffffffffffffffff16906020019091908035906020019091905050610646565b604051808260146000925b818410156101f65782846020020151600660200280838360005b838110156101e55780820151818401526020810190506101ca565b5050505090500192600101926101b0565b9250505091505060405180910390f35b341561021157600080fd5b61021961077e565b6040518082815260200191505060405180910390f35b341561023a57600080fd5b61026d6004808035906020019091908035906020019091908035906020019091908035151590602001909190505061078b565b005b341561027a57600080fd5b6102826108d5565b604051808273ffffffffffffffffffffffffffffffffffffffff1673ffffffffffffffffffffffffffffffffffffffff16815260200191505060405180910390f35b34156102cf57600080fd5b6102d76108fb565b604051808273ffffffffffffffffffffffffffffffffffffffff1673ffffffffffffffffffffffffffffffffffffffff16815260200191505060405180910390f35b341561032457600080fd5b610350600480803573ffffffffffffffffffffffffffffffffffffffff16906020019091905050610920565b6040518082815260200191505060405180910390f35b341561037157600080fd5b6103926004808035906020019091908035151590602001909190505061096c565b005b341561039f57600080fd5b6103d4600480803573ffffffffffffffffffffffffffffffffffffffff16906020019091908035906020019091905050610a52565b6040518087815260200186815260200185815260200184815260200183815260200182151515158152602001965050505050505060405180910390f35b341561041c57600080fd5b610451600480803573ffffffffffffffffffffffffffffffffffffffff16906020019091908035906020019091905050610ab7565b005b341561045e57600080fd5b6104746004808035906020019091905050610cd3565b604051808260146000925b818410156104c55782846020020151600460200280838360005b838110156104b4578082015181840152602081019050610499565b50505050905001926001019261047f565b9250505091505060405180910390f35b34156104e057600080fd5b61050c600480803573ffffffffffffffffffffffffffffffffffffffff16906020019091905050610db4565b005b341561051957600080fd5b610557600480803590602001909190803573ffffffffffffffffffffffffffffffffffffffff16906020019091908035906020019091905050610f09565b6040518082815260200191505060405180910390f35b60028181548110151561057c57fe5b90600052602060002090600402016000915090508060000154908060010154908060020154908060030160009054906101000a900460ff16905084565b60008060006002858154811015156105cd57fe5b906000526020600020906004020191508160030160009054906101000a900460ff1615156105fa57600080fd5b8160020154841015151561060d57600080fd5b610639620f424061062b84600001548761113b90919063ffffffff16565b61117190919063ffffffff16565b9050809250505092915050565b61064e6111ad565b60006106586111ad565b600080600360008873ffffffffffffffffffffffffffffffffffffffff1673ffffffffffffffffffffffffffffffffffffffff1681526020019081526020016000209350600091505b60148260ff1610156107715783805490508260ff1687011015156106c457610771565b838260ff1687018154811015156106d757fe5b9060005260206000209060060201905060c06040519081016040528082600001548152602001826001015481526020018260020154815260200182600301548152602001826004015481526020018260050160009054906101000a900460ff16610742576000610745565b60015b60ff16815250838360ff1660148110151561075c57fe5b602002018190525081806001019250506106a1565b8294505050505092915050565b6000600280549050905090565b60008060009054906101000a900473ffffffffffffffffffffffffffffffffffffffff1673ffffffffffffffffffffffffffffffffffffffff163373ffffffffffffffffffffffffffffffffffffffff161415156107e857600080fd5b6001600280548060010182816107fe91906111dc565b916000526020600020906004020160006080604051908101604052808a8152602001898152602001888152602001871515815250909190915060008201518160000155602082015181600101556040820151816002015560608201518160030160006101000a81548160ff0219169083151502179055505050039050807fec8fb973146e5bda73af7fc35d819a22b58200709a61afcef19ce7bc7616885e86868686604051808581526020018481526020018381526020018215151515815260200194505050505060405180910390a25050505050565b600160009054906101000a900473ffffffffffffffffffffffffffffffffffffffff1681565b6000809054906101000a900473ffffffffffffffffffffffffffffffffffffffff1681565b6000600360008373ffffffffffffffffffffffffffffffffffffffff1673ffffffffffffffffffffffffffffffffffffffff168152602001908152602001600020805490509050919050565b6000809054906101000a900473ffffffffffffffffffffffffffffffffffffffff1673ffffffffffffffffffffffffffffffffffffffff163373ffffffffffffffffffffffffffffffffffffffff161415156109c757600080fd5b600280549050821015156109da57600080fd5b806002838154811015156109ea57fe5b906000526020600020906004020160030160006101000a81548160ff021916908315150217905550817f33f9621e2788987cc551fd25b10528952f3cf8ddfe8f42c82c085fb33792f99082604051808215151515815260200191505060405180910390a25050565b600360205281600052604060002081815481101515610a6d57fe5b9060005260206000209060060201600091509150508060000154908060010154908060020154908060030154908060040154908060050160009054906101000a900460ff16905086565b6000600360008473ffffffffffffffffffffffffffffffffffffffff1673ffffffffffffffffffffffffffffffffffffffff16815260200190815260200160002082815481101515610b0557fe5b906000526020600020906006020190508060050160009054906101000a900460ff168015610b37575080600201544210155b1515610b4257600080fd5b60008160050160006101000a81548160ff021916908315150217905550600160009054906101000a900473ffffffffffffffffffffffffffffffffffffffff1673ffffffffffffffffffffffffffffffffffffffff1663ab1f032784610bb98460010154856000015461118c90919063ffffffff16565b6040518363ffffffff167c0100000000000000000000000000000000000000000000000000000000028152600401808373ffffffffffffffffffffffffffffffffffffffff1673ffffffffffffffffffffffffffffffffffffffff16815260200182815260200180602001828103825260198152602001807f52656c656173696e672066756e64732066726f6d206c6f636b000000000000008152506020019350505050600060405180830381600087803b1515610c7657600080fd5b6102c65a03f11515610c8757600080fd5b505050818373ffffffffffffffffffffffffffffffffffffffff167f622ca42598ab680a7def4a7346e1963a82207cf42a5ddb8056ad62cfbda19b8860405160405180910390a3505050565b610cdb61120e565b610ce361120e565b600080600091505b60148260ff161015610da9576002805490508260ff168601101515610d0f57610da9565b60028260ff168601815481101515610d2357fe5b906000526020600020906004020190506080604051908101604052808260000154815260200182600101548152602001826002015481526020018260030160009054906101000a900460ff16610d7a576000610d7d565b60015b60ff16815250838360ff16601481101515610d9457fe5b60200201819052508180600101925050610ceb565b829350505050919050565b6000809054906101000a900473ffffffffffffffffffffffffffffffffffffffff1673ffffffffffffffffffffffffffffffffffffffff163373ffffffffffffffffffffffffffffffffffffffff16141515610e0f57600080fd5b600073ffffffffffffffffffffffffffffffffffffffff168173ffffffffffffffffffffffffffffffffffffffff1614151515610e4b57600080fd5b8073ffffffffffffffffffffffffffffffffffffffff166000809054906101000a900473ffffffffffffffffffffffffffffffffffffffff1673ffffffffffffffffffffffffffffffffffffffff167f70aea8d848e8a90fb7661b227dc522eb6395c3dac71b63cb59edd5c9899b236460405160405180910390a3806000806101000a81548173ffffffffffffffffffffffffffffffffffffffff021916908373ffffffffffffffffffffffffffffffffffffffff16021790555050565b6000806000806000600160009054906101000a900473ffffffffffffffffffffffffffffffffffffffff1673ffffffffffffffffffffffffffffffffffffffff163373ffffffffffffffffffffffffffffffffffffffff16141515610f6d57600080fd5b610f7788876105b9565b9350600288815481101515610f8857fe5b90600052602060002090600402019250610faf83600101544261118c90919063ffffffff16565b91506001600360008973ffffffffffffffffffffffffffffffffffffffff1673ffffffffffffffffffffffffffffffffffffffff1681526020019081526020016000208054806001018281611004919061123d565b9160005260206000209060060201600060c0604051908101604052808b81526020018981526020018781526020018860000154815260200188600101548152602001600115158152509091909150600082015181600001556020820151816001015560408201518160020155606082015181600301556080820151816004015560a08201518160050160006101000a81548160ff0219169083151502179055505050039050808773ffffffffffffffffffffffffffffffffffffffff167f72f9c6e77e5aec28e666b63082d6dba491cf7dd30561d29c47620c96bc0f8e158887868860000154896001015460016040518087815260200186815260200185815260200184815260200183815260200182151515158152602001965050505050505060405180910390a3839450505050509392505050565b6000808284029050600084148061115c575082848281151561115957fe5b04145b151561116757600080fd5b8091505092915050565b600080828481151561117f57fe5b0490508091505092915050565b60008082840190508381101515156111a357600080fd5b8091505092915050565b610f00604051908101604052806014905b6111c661126f565b8152602001906001900390816111be5790505090565b815481835581811511611209576004028160040283600052602060002091820191016112089190611297565b5b505050565b610a00604051908101604052806014905b6112276112e2565b81526020019060019003908161121f5790505090565b81548183558181151161126a57600602816006028360005260206000209182019101611269919061130a565b5b505050565b60c0604051908101604052806006905b600081526020019060019003908161127f5790505090565b6112df91905b808211156112db57600080820160009055600182016000905560028201600090556003820160006101000a81549060ff02191690555060040161129d565b5090565b90565b6080604051908101604052806004905b60008152602001906001900390816112f25790505090565b61136291905b8082111561135e5760008082016000905560018201600090556002820160009055600382016000905560048201600090556005820160006101000a81549060ff021916905550600601611310565b5090565b905600a165627a7a72305820c73b4a260cffe58423f200dc35ae99976e6c521c6eaeb831a28e0f23837d72e60029",
  "source": "\n// contract for tracking locked funds etc.\n\n// requirements\n// -> lock funds\n// -> unlock funds\n// -> index locks by address\n\n// to do/think about:\n// -> self-destruct function?\n// -> return only active loan products from getLoanProducts?\n// -> need to update token contract? probably not? a new token contract would imply a fresh deployment?\n// -> test locking small (<10) amounts - need a min lock amount in lockProducts\n\npragma solidity 0.4.18;\n\nimport \"./generic/Owned.sol\";\nimport \"./generic/SafeMath.sol\";\nimport \"./interfaces/AugmintTokenInterface.sol\";\n\n\ncontract Locker is Owned {\n\n    using SafeMath for uint256;\n\n    event NewLockProduct(uint indexed lockProductId, uint perTermInterest, uint durationInSecs, \n                            uint minimumLockAmount, bool isActive);\n    event LockProductActiveChange(uint indexed lockProductId, bool newActiveState);\n    // NB: totalAmountLocked includes the original amount, plus interested\n    event NewLock(address indexed lockOwner, uint indexed lockIndex, uint amountLocked, uint interestEarned, \n                    uint lockedUntil, uint perTermInterest, uint durationInSecs, bool isActive);\n    event LockReleased(address indexed lockOwner, uint indexed lockIndex);\n\n    struct LockProduct {\n        // perTermInterest is in millionths (i.e. 1,000,000 = 100%):\n        uint perTermInterest;\n        uint durationInSecs;\n        uint minimumLockAmount;\n        bool isActive;\n    }\n\n    struct Lock {\n        uint amountLocked;\n        uint interestEarned;\n        uint lockedUntil;\n        uint perTermInterest;\n        uint durationInSecs;\n        bool isActive;\n    }\n\n    AugmintTokenInterface public augmintToken;\n\n    LockProduct[] public lockProducts;\n    // per account locks (i.e. an id for a lock is a tuple (owner, index)):\n    mapping(address => Lock[]) public locks;\n\n    function Locker(address augmintTokenAddress) public {\n\n        augmintToken = AugmintTokenInterface(augmintTokenAddress);\n\n    }\n\n    function addLockProduct(uint perTermInterest, uint durationInSecs, uint minimumLockAmount, bool isActive) external onlyOwner {\n\n        uint newLockProductId = lockProducts.push(LockProduct(perTermInterest, durationInSecs, minimumLockAmount, isActive)) - 1;\n        NewLockProduct(newLockProductId, perTermInterest, durationInSecs, minimumLockAmount, isActive);\n\n    }\n\n    function setLockProductActiveState(uint lockProductId, bool isActive) external onlyOwner {\n\n        require(lockProductId < lockProducts.length);\n        lockProducts[lockProductId].isActive = isActive;\n        LockProductActiveChange(lockProductId, isActive);\n\n    }\n\n    function getLockProductCount() external view returns (uint) {\n\n        return lockProducts.length;\n\n    }\n\n    // returns 20 lock products starting from some offset\n    // lock products are encoded as [ perTermInterest, durationInSecs, minimumLockAmount, isActive ]\n    function getLockProducts(uint offset) external view returns (uint[4][20]) {\n\n        uint[4][20] memory response;\n\n        for (uint8 i = 0; i < 20; i++) {\n\n            if (offset + i >= lockProducts.length) { break; }\n\n            LockProduct storage lockProduct = lockProducts[offset + i];\n\n            response[i] = [ lockProduct.perTermInterest, lockProduct.durationInSecs,\n                                        lockProduct.minimumLockAmount, lockProduct.isActive ? 1 : 0 ];\n\n        }\n\n        return response;\n\n    }\n\n    // the flow for locking tokens is:\n    // 1) user calls token contract to lock tokens\n    // 2) token contract calls createLock, which creates the locks and returns the interestEarned\n    // 3) token contract transfers tokens from user and interestEarnedPool to Locker\n    function calculateInterestForLockProduct(uint lockProductId, uint amountToLock) public view returns (uint) {\n\n        LockProduct storage lockProduct = lockProducts[lockProductId];\n        require(lockProduct.isActive);\n        require(amountToLock >= lockProduct.minimumLockAmount);\n\n        uint interestEarned = amountToLock.mul(lockProduct.perTermInterest).div(1000000);\n\n        return interestEarned;\n\n    }\n\n    // NB: totalAmountLocked includes both the lock amount AND the interest\n    function createLock(uint lockProductId, address lockOwner, uint amountToLock) external returns (uint) {\n\n        // only the token can call this:\n        require(msg.sender == address(augmintToken));\n\n        // NB: calculateInterestForLockProduct will validate the lock product and amountToLock:\n        uint interestEarned = calculateInterestForLockProduct(lockProductId, amountToLock);\n\n        LockProduct storage lockProduct = lockProducts[lockProductId];\n\n        uint lockedUntil = now.add(lockProduct.durationInSecs);\n        uint lockIndex = locks[lockOwner].push(Lock(amountToLock, interestEarned, lockedUntil, lockProduct.perTermInterest, \n                                    lockProduct.durationInSecs, true)) - 1;\n\n        NewLock(lockOwner, lockIndex, amountToLock, interestEarned, lockedUntil, lockProduct.perTermInterest, \n                    lockProduct.durationInSecs, true);\n\n        return interestEarned;\n\n    }\n\n    function releaseFunds(address lockOwner, uint lockIndex) external {\n        \n        Lock storage lock = locks[lockOwner][lockIndex];\n        \n        require(lock.isActive && now >= lock.lockedUntil);\n        \n        lock.isActive = false;\n        augmintToken.transferNoFee(lockOwner, lock.amountLocked.add(lock.interestEarned), \"Releasing funds from lock\");\n        \n        LockReleased(lockOwner, lockIndex);\n    }\n\n    function getLockCountForAddress(address lockOwner) external view returns (uint) {\n\n        return locks[lockOwner].length;\n\n    }\n\n    // returns 20 locks starting from some offset\n    // lock products are encoded as [ amountLocked, interestEarned, lockedUntil, perTermInterest, durationInSecs, isActive ]\n    // NB: perTermInterest is in millionths (i.e. 1,000,000 = 100%):\n    function getLocksForAddress(address lockOwner, uint offset) external view returns (uint[6][20]) {\n\n        Lock[] storage locksForAddress = locks[lockOwner];\n        uint[6][20] memory response;\n\n        for (uint8 i = 0; i < 20; i++) {\n\n            if (offset + i >= locksForAddress.length) { break; }\n\n            Lock storage lock = locksForAddress[offset + i];\n\n            response[i] = [ lock.amountLocked, lock.interestEarned, lock.lockedUntil, lock.perTermInterest, \n                                        lock.durationInSecs, lock.isActive ? 1 : 0 ];\n\n        }\n\n        return response;\n\n    }\n\n}\n",
  "sourcePath": "/Users/petro/ether/dcm-poc/contracts/Locker.sol",
  "compiler": {
    "name": "solc",
    "version": "0.4.18+commit.9cf6e910.Emscripten.clang"
  },
  "schemaVersion": "1.0.1",
  "updatedAt": "2018-01-23T13:47:32.452Z"
}