{
  "contractName": "Locker",
  "abi": [
    {
      "constant": false,
      "inputs": [
        {
          "name": "agent",
          "type": "address"
        },
        {
          "name": "requiredPermissions",
          "type": "bytes32[]"
        }
      ],
      "name": "revokeMulitplePermissions",
      "outputs": [],
      "payable": false,
      "stateMutability": "nonpayable",
      "type": "function"
    },
    {
      "constant": true,
      "inputs": [
        {
          "name": "",
          "type": "uint256"
        }
      ],
      "name": "lockProducts",
      "outputs": [
        {
          "name": "perTermInterest",
          "type": "uint256"
        },
        {
          "name": "durationInSecs",
          "type": "uint256"
        },
        {
          "name": "minimumLockAmount",
          "type": "uint256"
        },
        {
          "name": "isActive",
          "type": "bool"
        }
      ],
      "payable": false,
      "stateMutability": "view",
      "type": "function"
    },
    {
      "constant": true,
      "inputs": [],
      "name": "monetarySupervisor",
      "outputs": [
        {
          "name": "",
          "type": "address"
        }
      ],
      "payable": false,
      "stateMutability": "view",
      "type": "function"
    },
    {
      "constant": true,
      "inputs": [
        {
          "name": "",
          "type": "address"
        },
        {
          "name": "",
          "type": "bytes32"
        }
      ],
      "name": "permissions",
      "outputs": [
        {
          "name": "",
          "type": "bool"
        }
      ],
      "payable": false,
      "stateMutability": "view",
      "type": "function"
    },
    {
      "constant": false,
      "inputs": [
        {
          "name": "agent",
          "type": "address"
        },
        {
          "name": "requiredPermission",
          "type": "bytes32"
        }
      ],
      "name": "revokePermission",
      "outputs": [],
      "payable": false,
      "stateMutability": "nonpayable",
      "type": "function"
    },
    {
      "constant": true,
      "inputs": [],
      "name": "augmintToken",
      "outputs": [
        {
          "name": "",
          "type": "address"
        }
      ],
      "payable": false,
      "stateMutability": "view",
      "type": "function"
    },
    {
      "constant": false,
      "inputs": [
        {
          "name": "agent",
          "type": "address"
        },
        {
          "name": "requiredPermissions",
          "type": "bytes32[]"
        }
      ],
      "name": "grantMultiplePermissions",
      "outputs": [],
      "payable": false,
      "stateMutability": "nonpayable",
      "type": "function"
    },
    {
      "constant": true,
      "inputs": [
        {
          "name": "",
          "type": "address"
        },
        {
          "name": "",
          "type": "uint256"
        }
      ],
      "name": "locks",
      "outputs": [
        {
          "name": "amountLocked",
          "type": "uint256"
        },
        {
          "name": "interestEarned",
          "type": "uint256"
        },
        {
          "name": "lockedUntil",
          "type": "uint256"
        },
        {
          "name": "perTermInterest",
          "type": "uint256"
        },
        {
          "name": "durationInSecs",
          "type": "uint256"
        },
        {
          "name": "isActive",
          "type": "bool"
        }
      ],
      "payable": false,
      "stateMutability": "view",
      "type": "function"
    },
    {
      "constant": false,
      "inputs": [
        {
          "name": "agent",
          "type": "address"
        },
        {
          "name": "requiredPermission",
          "type": "bytes32"
        }
      ],
      "name": "grantPermission",
      "outputs": [],
      "payable": false,
      "stateMutability": "nonpayable",
      "type": "function"
    },
    {
      "inputs": [
        {
          "name": "_augmintToken",
          "type": "address"
        },
        {
          "name": "_monetarySupervisor",
          "type": "address"
        }
      ],
      "payable": false,
      "stateMutability": "nonpayable",
      "type": "constructor"
    },
    {
      "anonymous": false,
      "inputs": [
        {
          "indexed": true,
          "name": "lockProductId",
          "type": "uint256"
        },
        {
          "indexed": false,
          "name": "perTermInterest",
          "type": "uint256"
        },
        {
          "indexed": false,
          "name": "durationInSecs",
          "type": "uint256"
        },
        {
          "indexed": false,
          "name": "minimumLockAmount",
          "type": "uint256"
        },
        {
          "indexed": false,
          "name": "isActive",
          "type": "bool"
        }
      ],
      "name": "NewLockProduct",
      "type": "event"
    },
    {
      "anonymous": false,
      "inputs": [
        {
          "indexed": true,
          "name": "lockProductId",
          "type": "uint256"
        },
        {
          "indexed": false,
          "name": "newActiveState",
          "type": "bool"
        }
      ],
      "name": "LockProductActiveChange",
      "type": "event"
    },
    {
      "anonymous": false,
      "inputs": [
        {
          "indexed": true,
          "name": "lockOwner",
          "type": "address"
        },
        {
          "indexed": true,
          "name": "lockIndex",
          "type": "uint256"
        },
        {
          "indexed": false,
          "name": "amountLocked",
          "type": "uint256"
        },
        {
          "indexed": false,
          "name": "interestEarned",
          "type": "uint256"
        },
        {
          "indexed": false,
          "name": "lockedUntil",
          "type": "uint256"
        },
        {
          "indexed": false,
          "name": "perTermInterest",
          "type": "uint256"
        },
        {
          "indexed": false,
          "name": "durationInSecs",
          "type": "uint256"
        },
        {
          "indexed": false,
          "name": "isActive",
          "type": "bool"
        }
      ],
      "name": "NewLock",
      "type": "event"
    },
    {
      "anonymous": false,
      "inputs": [
        {
          "indexed": true,
          "name": "lockOwner",
          "type": "address"
        },
        {
          "indexed": true,
          "name": "lockIndex",
          "type": "uint256"
        }
      ],
      "name": "LockReleased",
      "type": "event"
    },
    {
      "anonymous": false,
      "inputs": [
        {
          "indexed": true,
          "name": "agent",
          "type": "address"
        },
        {
          "indexed": false,
          "name": "grantedPermission",
          "type": "bytes32"
        }
      ],
      "name": "PermissionGranted",
      "type": "event"
    },
    {
      "anonymous": false,
      "inputs": [
        {
          "indexed": true,
          "name": "agent",
          "type": "address"
        },
        {
          "indexed": false,
          "name": "revokedPermission",
          "type": "bytes32"
        }
      ],
      "name": "PermissionRevoked",
      "type": "event"
    },
    {
      "constant": false,
      "inputs": [
        {
          "name": "perTermInterest",
          "type": "uint256"
        },
        {
          "name": "durationInSecs",
          "type": "uint256"
        },
        {
          "name": "minimumLockAmount",
          "type": "uint256"
        },
        {
          "name": "isActive",
          "type": "bool"
        }
      ],
      "name": "addLockProduct",
      "outputs": [],
      "payable": false,
      "stateMutability": "nonpayable",
      "type": "function"
    },
    {
      "constant": false,
      "inputs": [
        {
          "name": "lockProductId",
          "type": "uint256"
        },
        {
          "name": "isActive",
          "type": "bool"
        }
      ],
      "name": "setLockProductActiveState",
      "outputs": [],
      "payable": false,
      "stateMutability": "nonpayable",
      "type": "function"
    },
    {
      "constant": false,
      "inputs": [
        {
          "name": "lockOwner",
          "type": "address"
        },
        {
          "name": "lockIndex",
          "type": "uint256"
        }
      ],
      "name": "releaseFunds",
      "outputs": [],
      "payable": false,
      "stateMutability": "nonpayable",
      "type": "function"
    },
    {
      "constant": true,
      "inputs": [],
      "name": "getLockProductCount",
      "outputs": [
        {
          "name": "",
          "type": "uint256"
        }
      ],
      "payable": false,
      "stateMutability": "view",
      "type": "function"
    },
    {
      "constant": true,
      "inputs": [
        {
          "name": "offset",
          "type": "uint256"
        }
      ],
      "name": "getLockProducts",
      "outputs": [
        {
          "name": "",
          "type": "uint256[4][20]"
        }
      ],
      "payable": false,
      "stateMutability": "view",
      "type": "function"
    },
    {
      "constant": true,
      "inputs": [
        {
          "name": "lockOwner",
          "type": "address"
        }
      ],
      "name": "getLockCountForAddress",
      "outputs": [
        {
          "name": "",
          "type": "uint256"
        }
      ],
      "payable": false,
      "stateMutability": "view",
      "type": "function"
    },
    {
      "constant": true,
      "inputs": [
        {
          "name": "lockOwner",
          "type": "address"
        },
        {
          "name": "offset",
          "type": "uint256"
        }
      ],
      "name": "getLocksForAddress",
      "outputs": [
        {
          "name": "",
          "type": "uint256[6][20]"
        }
      ],
      "payable": false,
      "stateMutability": "view",
      "type": "function"
    },
    {
      "constant": false,
      "inputs": [
        {
          "name": "from",
          "type": "address"
        },
        {
          "name": "amountToLock",
          "type": "uint256"
        },
        {
          "name": "lockProductId",
          "type": "uint256"
        }
      ],
      "name": "transferNotification",
      "outputs": [],
      "payable": false,
      "stateMutability": "nonpayable",
      "type": "function"
    },
    {
      "constant": true,
      "inputs": [
        {
          "name": "lockProductId",
          "type": "uint256"
        },
        {
          "name": "amountToLock",
          "type": "uint256"
        }
      ],
      "name": "calculateInterestForLockProduct",
      "outputs": [
        {
          "name": "",
          "type": "uint256"
        }
      ],
      "payable": false,
      "stateMutability": "view",
      "type": "function"
    }
  ],
  "bytecode": "0x6060604052341561000f57600080fd5b604051604080611af78339810160405280805190602001909190805190602001909190505060016000803373ffffffffffffffffffffffffffffffffffffffff1673ffffffffffffffffffffffffffffffffffffffff16815260200190815260200160002060007f4d6f6e6574617279426f6172640000000000000000000000000000000000000060001916815260200190815260200160002060006101000a81548160ff0219169083151502179055503373ffffffffffffffffffffffffffffffffffffffff167fc65937e3dbcb9fb30f646815dd67a3dbd09ba17718cbcb54efbe3635f8e0a6fe60405180807f4d6f6e6574617279426f61726400000000000000000000000000000000000000815250602001905060405180910390a281600160006101000a81548173ffffffffffffffffffffffffffffffffffffffff021916908373ffffffffffffffffffffffffffffffffffffffff16021790555080600260006101000a81548173ffffffffffffffffffffffffffffffffffffffff021916908373ffffffffffffffffffffffffffffffffffffffff1602179055505050611936806101c16000396000f3006060604052600436106100fc576000357c0100000000000000000000000000000000000000000000000000000000900463ffffffff1680630da32eaa1461010157806314f6c8da1461017a578063169f66df146101ca57806326eda0381461021f57806344fcbd791461025f5780634de16053146103005780635b225526146103295780635fe070131461038757806364e7e4a4146103cd5780637217f20c146104185780637b9b9c891461045857806390f549ba146104ad5780639ac3317b146104fa578063a22f302e14610573578063b425f802146105a1578063d6e982e51461061e578063e18a913414610660578063f38a8262146106e2575b600080fd5b341561010c57600080fd5b610178600480803573ffffffffffffffffffffffffffffffffffffffff1690602001909190803590602001908201803590602001908080602002602001604051908101604052809392919081815260200183836020028082843782019150505050505091905050610728565b005b341561018557600080fd5b61019b6004808035906020019091905050610770565b604051808581526020018481526020018381526020018215151515815260200194505050505060405180910390f35b34156101d557600080fd5b6101dd6107bc565b604051808273ffffffffffffffffffffffffffffffffffffffff1673ffffffffffffffffffffffffffffffffffffffff16815260200191505060405180910390f35b341561022a57600080fd5b61024960048080359060200190919080359060200190919050506107e2565b6040518082815260200191505060405180910390f35b341561026a57600080fd5b61029f600480803573ffffffffffffffffffffffffffffffffffffffff1690602001909190803590602001909190505061086f565b604051808260146000925b818410156102f05782846020020151600660200280838360005b838110156102df5780820151818401526020810190506102c4565b5050505090500192600101926102aa565b9250505091505060405180910390f35b341561030b57600080fd5b6103136109a7565b6040518082815260200191505060405180910390f35b341561033457600080fd5b61036d600480803573ffffffffffffffffffffffffffffffffffffffff16906020019091908035600019169060200190919050506109b4565b604051808215151515815260200191505060405180910390f35b341561039257600080fd5b6103cb600480803573ffffffffffffffffffffffffffffffffffffffff16906020019091908035600019169060200190919050506109e3565b005b34156103d857600080fd5b610416600480803573ffffffffffffffffffffffffffffffffffffffff16906020019091908035906020019091908035906020019091905050610aad565b005b341561042357600080fd5b61045660048080359060200190919080359060200190919080359060200190919080351515906020019091905050610b1a565b005b341561046357600080fd5b61046b610c9b565b604051808273ffffffffffffffffffffffffffffffffffffffff1673ffffffffffffffffffffffffffffffffffffffff16815260200191505060405180910390f35b34156104b857600080fd5b6104e4600480803573ffffffffffffffffffffffffffffffffffffffff16906020019091905050610cc1565b6040518082815260200191505060405180910390f35b341561050557600080fd5b610571600480803573ffffffffffffffffffffffffffffffffffffffff1690602001909190803590602001908201803590602001908080602002602001604051908101604052809392919081815260200183836020028082843782019150505050505091905050610d0d565b005b341561057e57600080fd5b61059f60048080359060200190919080351515906020019091905050610de1565b005b34156105ac57600080fd5b6105e1600480803573ffffffffffffffffffffffffffffffffffffffff16906020019091908035906020019091905050610efe565b6040518087815260200186815260200185815260200184815260200183815260200182151515158152602001965050505050505060405180910390f35b341561062957600080fd5b61065e600480803573ffffffffffffffffffffffffffffffffffffffff16906020019091908035906020019091905050610f63565b005b341561066b57600080fd5b6106816004808035906020019091905050611227565b604051808260146000925b818410156106d25782846020020151600460200280838360005b838110156106c15780820151818401526020810190506106a6565b50505050905001926001019261068c565b9250505091505060405180910390f35b34156106ed57600080fd5b610726600480803573ffffffffffffffffffffffffffffffffffffffff1690602001909190803560001916906020019091905050611308565b005b60008082519150600090505b8181101561076a5761075d84848381518110151561074e57fe5b906020019060200201516109e3565b8080600101915050610734565b50505050565b60038181548110151561077f57fe5b90600052602060002090600402016000915090508060000154908060010154908060020154908060030160009054906101000a900460ff16905084565b600260009054906101000a900473ffffffffffffffffffffffffffffffffffffffff1681565b60008060006003858154811015156107f657fe5b906000526020600020906004020191508160030160009054906101000a900460ff16151561082357600080fd5b8160020154841015151561083657600080fd5b610862620f424061085484600001548761145e90919063ffffffff16565b61149490919063ffffffff16565b9050809250505092915050565b610877611752565b6000610881611752565b600080600460008873ffffffffffffffffffffffffffffffffffffffff1673ffffffffffffffffffffffffffffffffffffffff1681526020019081526020016000209350600091505b60148260ff16101561099a5783805490508260ff1687011015156108ed5761099a565b838260ff16870181548110151561090057fe5b9060005260206000209060060201905060c06040519081016040528082600001548152602001826001015481526020018260020154815260200182600301548152602001826004015481526020018260050160009054906101000a900460ff1661096b57600061096e565b60015b60ff16815250838360ff1660148110151561098557fe5b602002018190525081806001019250506108ca565b8294505050505092915050565b6000600380549050905090565b60006020528160005260406000206020528060005260406000206000915091509054906101000a900460ff1681565b60008060008473ffffffffffffffffffffffffffffffffffffffff1673ffffffffffffffffffffffffffffffffffffffff1681526020019081526020016000206000836000191660001916815260200190815260200160002060006101000a81548160ff0219169083151502179055508173ffffffffffffffffffffffffffffffffffffffff167f789770131846de4d1f28418f0f957cdf4fcabe5eccf70067083e20ecece69a348260405180826000191660001916815260200191505060405180910390a25050565b600160009054906101000a900473ffffffffffffffffffffffffffffffffffffffff1673ffffffffffffffffffffffffffffffffffffffff163373ffffffffffffffffffffffffffffffffffffffff16141515610b0957600080fd5b610b148184846114af565b50505050565b60007f4d6f6e6574617279426f617264000000000000000000000000000000000000006000803373ffffffffffffffffffffffffffffffffffffffff1673ffffffffffffffffffffffffffffffffffffffff1681526020019081526020016000206000826000191660001916815260200190815260200160002060009054906101000a900460ff161515610bad57600080fd5b600160038054806001018281610bc39190611781565b916000526020600020906004020160006080604051908101604052808b81526020018a8152602001898152602001881515815250909190915060008201518160000155602082015181600101556040820151816002015560608201518160030160006101000a81548160ff0219169083151502179055505050039150817fec8fb973146e5bda73af7fc35d819a22b58200709a61afcef19ce7bc7616885e87878787604051808581526020018481526020018381526020018215151515815260200194505050505060405180910390a2505050505050565b600160009054906101000a900473ffffffffffffffffffffffffffffffffffffffff1681565b6000600460008373ffffffffffffffffffffffffffffffffffffffff1673ffffffffffffffffffffffffffffffffffffffff168152602001908152602001600020805490509050919050565b6000806000803373ffffffffffffffffffffffffffffffffffffffff1673ffffffffffffffffffffffffffffffffffffffff16815260200190815260200160002060007f4d6f6e6574617279426f6172640000000000000000000000000000000000000060001916815260200190815260200160002060009054906101000a900460ff161515610d9c57600080fd5b82519150600090505b81811015610ddb57610dce848483815181101515610dbf57fe5b90602001906020020151611308565b8080600101915050610da5565b50505050565b7f4d6f6e6574617279426f617264000000000000000000000000000000000000006000803373ffffffffffffffffffffffffffffffffffffffff1673ffffffffffffffffffffffffffffffffffffffff1681526020019081526020016000206000826000191660001916815260200190815260200160002060009054906101000a900460ff161515610e7257600080fd5b60038054905083101515610e8557600080fd5b81600384815481101515610e9557fe5b906000526020600020906004020160030160006101000a81548160ff021916908315150217905550827f33f9621e2788987cc551fd25b10528952f3cf8ddfe8f42c82c085fb33792f99083604051808215151515815260200191505060405180910390a2505050565b600460205281600052604060002081815481101515610f1957fe5b9060005260206000209060060201600091509150508060000154908060010154908060020154908060030154908060040154908060050160009054906101000a900460ff16905086565b6000600460008473ffffffffffffffffffffffffffffffffffffffff1673ffffffffffffffffffffffffffffffffffffffff16815260200190815260200160002082815481101515610fb157fe5b906000526020600020906006020190508060050160009054906101000a900460ff168015610fe3575080600201544210155b1515610fee57600080fd5b60008160050160006101000a81548160ff021916908315150217905550600260009054906101000a900473ffffffffffffffffffffffffffffffffffffffff1673ffffffffffffffffffffffffffffffffffffffff1663295777be82600001546040518263ffffffff167c010000000000000000000000000000000000000000000000000000000002815260040180828152602001915050600060405180830381600087803b151561109f57600080fd5b6102c65a03f115156110b057600080fd5b505050600160009054906101000a900473ffffffffffffffffffffffffffffffffffffffff1673ffffffffffffffffffffffffffffffffffffffff1663ffdcf0958461110d8460010154856000015461173190919063ffffffff16565b6040518363ffffffff167c0100000000000000000000000000000000000000000000000000000000028152600401808373ffffffffffffffffffffffffffffffffffffffff1673ffffffffffffffffffffffffffffffffffffffff16815260200182815260200180602001828103825260188152602001807f46756e64732072656c65617365642066726f6d206c6f636b00000000000000008152506020019350505050600060405180830381600087803b15156111ca57600080fd5b6102c65a03f115156111db57600080fd5b505050818373ffffffffffffffffffffffffffffffffffffffff167f622ca42598ab680a7def4a7346e1963a82207cf42a5ddb8056ad62cfbda19b8860405160405180910390a3505050565b61122f6117b3565b6112376117b3565b600080600091505b60148260ff1610156112fd576003805490508260ff168601101515611263576112fd565b60038260ff16860181548110151561127757fe5b906000526020600020906004020190506080604051908101604052808260000154815260200182600101548152602001826002015481526020018260030160009054906101000a900460ff166112ce5760006112d1565b60015b60ff16815250838360ff166014811015156112e857fe5b6020020181905250818060010192505061123f565b829350505050919050565b6000803373ffffffffffffffffffffffffffffffffffffffff1673ffffffffffffffffffffffffffffffffffffffff16815260200190815260200160002060007f4d6f6e6574617279426f6172640000000000000000000000000000000000000060001916815260200190815260200160002060009054906101000a900460ff16151561139457600080fd5b60016000808473ffffffffffffffffffffffffffffffffffffffff1673ffffffffffffffffffffffffffffffffffffffff1681526020019081526020016000206000836000191660001916815260200190815260200160002060006101000a81548160ff0219169083151502179055508173ffffffffffffffffffffffffffffffffffffffff167fc65937e3dbcb9fb30f646815dd67a3dbd09ba17718cbcb54efbe3635f8e0a6fe8260405180826000191660001916815260200191505060405180910390a25050565b6000808284029050600084148061147f575082848281151561147c57fe5b04145b151561148a57600080fd5b8091505092915050565b60008082848115156114a257fe5b0490508091505092915050565b60008060008060006114c188876107e2565b93506003888154811015156114d257fe5b906000526020600020906004020192506114f983600101544261173190919063ffffffff16565b91506001600460008973ffffffffffffffffffffffffffffffffffffffff1673ffffffffffffffffffffffffffffffffffffffff168152602001908152602001600020805480600101828161154e91906117e2565b9160005260206000209060060201600060c0604051908101604052808b81526020018981526020018781526020018860000154815260200188600101548152602001600115158152509091909150600082015181600001556020820151816001015560408201518160020155606082015181600301556080820151816004015560a08201518160050160006101000a81548160ff0219169083151502179055505050039050600260009054906101000a900473ffffffffffffffffffffffffffffffffffffffff1673ffffffffffffffffffffffffffffffffffffffff166364217bdf87866040518363ffffffff167c01000000000000000000000000000000000000000000000000000000000281526004018083815260200182815260200192505050600060405180830381600087803b151561168b57600080fd5b6102c65a03f1151561169c57600080fd5b505050808773ffffffffffffffffffffffffffffffffffffffff167f72f9c6e77e5aec28e666b63082d6dba491cf7dd30561d29c47620c96bc0f8e158887868860000154896001015460016040518087815260200186815260200185815260200184815260200183815260200182151515158152602001965050505050505060405180910390a3839450505050509392505050565b600080828401905083811015151561174857600080fd5b8091505092915050565b610f00604051908101604052806014905b61176b611814565b8152602001906001900390816117635790505090565b8154818355818115116117ae576004028160040283600052602060002091820191016117ad919061183c565b5b505050565b610a00604051908101604052806014905b6117cc611887565b8152602001906001900390816117c45790505090565b81548183558181151161180f5760060281600602836000526020600020918201910161180e91906118af565b5b505050565b60c0604051908101604052806006905b60008152602001906001900390816118245790505090565b61188491905b8082111561188057600080820160009055600182016000905560028201600090556003820160006101000a81549060ff021916905550600401611842565b5090565b90565b6080604051908101604052806004905b60008152602001906001900390816118975790505090565b61190791905b808211156119035760008082016000905560018201600090556002820160009055600382016000905560048201600090556005820160006101000a81549060ff0219169055506006016118b5565b5090565b905600a165627a7a72305820e1fbcdd0084c19ce96d286153385960043c57644f6ab728ac7b85d2a61fceeee0029",
  "source": "/* contract for tracking locked funds etc.\n\n requirements\n  -> lock funds\n  -> unlock funds\n  -> index locks by address\n\n For flows see: https://github.com/Augmint/augmint-contracts/blob/master/docs/lockFlow.png\n\n TODO:\n  - create  MonetarySupervisorInterface and use it instead of MonetarySupervisor\n  - monetarySupervisor setter?\n  - store locks in array so we can iterate over them\n\n to do/think about:\n  -> self-destruct function?\n  -> return only active loan products from getLoanProducts?\n*/\n\npragma solidity 0.4.19;\n\nimport \"./generic/Restricted.sol\";\nimport \"./generic/SafeMath.sol\";\nimport \"./interfaces/AugmintTokenInterface.sol\";\nimport \"./MonetarySupervisor.sol\";\nimport \"./interfaces/TokenReceiver.sol\";\n\n\ncontract Locker is Restricted, TokenReceiver {\n\n    using SafeMath for uint256;\n\n    event NewLockProduct(uint indexed lockProductId, uint perTermInterest, uint durationInSecs,\n                            uint minimumLockAmount, bool isActive);\n\n    event LockProductActiveChange(uint indexed lockProductId, bool newActiveState);\n\n    // NB: amountLocked includes the original amount, plus interest\n    event NewLock(address indexed lockOwner, uint indexed lockIndex, uint amountLocked, uint interestEarned,\n                    uint lockedUntil, uint perTermInterest, uint durationInSecs, bool isActive);\n\n    event LockReleased(address indexed lockOwner, uint indexed lockIndex);\n\n    struct LockProduct {\n        // perTermInterest is in millionths (i.e. 1,000,000 = 100%):\n        uint perTermInterest;\n        uint durationInSecs;\n        uint minimumLockAmount;\n        bool isActive;\n    }\n\n    struct Lock {\n        uint amountLocked;\n        uint interestEarned;\n        uint lockedUntil;\n        uint perTermInterest;\n        uint durationInSecs;\n        bool isActive;\n    }\n\n    AugmintTokenInterface public augmintToken;\n    MonetarySupervisor public monetarySupervisor;\n\n    LockProduct[] public lockProducts;\n    // per account locks (i.e. an id for a lock is a tuple (owner, index)):\n    mapping(address => Lock[]) public locks;\n\n    function Locker(AugmintTokenInterface _augmintToken, MonetarySupervisor _monetarySupervisor) public {\n\n        augmintToken = _augmintToken;\n        monetarySupervisor = _monetarySupervisor;\n\n    }\n\n    function addLockProduct(uint perTermInterest, uint durationInSecs, uint minimumLockAmount, bool isActive)\n    external restrict(\"MonetaryBoard\") {\n\n        uint newLockProductId = lockProducts.push(\n                                    LockProduct(perTermInterest, durationInSecs, minimumLockAmount, isActive)) - 1;\n        NewLockProduct(newLockProductId, perTermInterest, durationInSecs, minimumLockAmount, isActive);\n\n    }\n\n    function setLockProductActiveState(uint lockProductId, bool isActive) external restrict(\"MonetaryBoard\") {\n\n        require(lockProductId < lockProducts.length);\n        lockProducts[lockProductId].isActive = isActive;\n        LockProductActiveChange(lockProductId, isActive);\n\n    }\n\n    function releaseFunds(address lockOwner, uint lockIndex) external {\n\n        Lock storage lock = locks[lockOwner][lockIndex];\n\n        require(lock.isActive && now >= lock.lockedUntil);\n\n        lock.isActive = false;\n        monetarySupervisor.releaseFundsNotification(lock.amountLocked);   // to maintain totalLockAmount\n        augmintToken.transferWithNarrative(lockOwner, lock.amountLocked.add(lock.interestEarned),\n                                                                                \"Funds released from lock\");\n\n        LockReleased(lockOwner, lockIndex);\n    }\n\n    function getLockProductCount() external view returns (uint) {\n\n        return lockProducts.length;\n\n    }\n\n    // returns 20 lock products starting from some offset\n    // lock products are encoded as [ perTermInterest, durationInSecs, minimumLockAmount, isActive ]\n    function getLockProducts(uint offset) external view returns (uint[4][20]) {\n\n        uint[4][20] memory response;\n\n        for (uint8 i = 0; i < 20; i++) {\n\n            if (offset + i >= lockProducts.length) { break; }\n\n            LockProduct storage lockProduct = lockProducts[offset + i];\n\n            response[i] = [ lockProduct.perTermInterest, lockProduct.durationInSecs,\n                                        lockProduct.minimumLockAmount, lockProduct.isActive ? 1 : 0 ];\n\n        }\n\n        return response;\n\n    }\n\n    function getLockCountForAddress(address lockOwner) external view returns (uint) {\n\n        return locks[lockOwner].length;\n\n    }\n\n    // returns 20 locks starting from some offset\n    // lock products are encoded as\n    //              [amountLocked, interestEarned, lockedUntil, perTermInterest, durationInSecs, isActive ]\n    // NB: perTermInterest is in millionths (i.e. 1,000,000 = 100%):\n    function getLocksForAddress(address lockOwner, uint offset) external view returns (uint[6][20]) {\n\n        Lock[] storage locksForAddress = locks[lockOwner];\n        uint[6][20] memory response;\n\n        for (uint8 i = 0; i < 20; i++) {\n\n            if (offset + i >= locksForAddress.length) { break; }\n\n            Lock storage lock = locksForAddress[offset + i];\n\n            response[i] = [ lock.amountLocked, lock.interestEarned, lock.lockedUntil, lock.perTermInterest,\n                                        lock.durationInSecs, lock.isActive ? 1 : 0 ];\n\n        }\n\n        return response;\n\n    }\n\n    /* lock funds, called from AugmintToken's transferAndNotify\n     Flow for locking tokens:\n        1) user calls token contract's transferAndNotify lockProductId passed in data arg\n        2) transferAndNotify transfers tokens to the Lock contract\n        3) transferAndNotify calls Lock.transferNotification with lockProductId\n    */\n    function transferNotification(address from, uint256 amountToLock, uint lockProductId) public {\n        require(msg.sender == address(augmintToken));\n        /* TODO: make data arg generic bytes\n            uint productId;\n            assembly { // solhint-disable-line no-inline-assembly\n                productId := mload(data)\n        } */\n        _createLock(lockProductId, from, amountToLock);\n    }\n\n    function calculateInterestForLockProduct(uint lockProductId, uint amountToLock) public view returns (uint) {\n\n        LockProduct storage lockProduct = lockProducts[lockProductId];\n        require(lockProduct.isActive);\n        require(amountToLock >= lockProduct.minimumLockAmount);\n\n        uint interestEarned = amountToLock.mul(lockProduct.perTermInterest).div(1000000);\n\n        return interestEarned;\n\n    }\n\n    // Internal function. assumes amountToLock is already transferred to this Lock contract\n    function _createLock(uint lockProductId, address lockOwner, uint amountToLock) internal returns (uint) {\n\n        // NB: calculateInterestForLockProduct will validate the lock product and amountToLock:\n        uint interestEarned = calculateInterestForLockProduct(lockProductId, amountToLock);\n\n        LockProduct storage lockProduct = lockProducts[lockProductId];\n\n        uint lockedUntil = now.add(lockProduct.durationInSecs);\n        uint lockIndex = locks[lockOwner].push(Lock(amountToLock, interestEarned, lockedUntil,\n                                                    lockProduct.perTermInterest, lockProduct.durationInSecs, true)) - 1;\n\n        monetarySupervisor.requestInterest(amountToLock, interestEarned); // update KPIs & transfer interest here\n\n        NewLock(lockOwner, lockIndex, amountToLock, interestEarned, lockedUntil, lockProduct.perTermInterest,\n                    lockProduct.durationInSecs, true);\n\n        return interestEarned;\n    }\n\n}\n",
  "sourcePath": "/Users/petro/ether/augmint-contracts/contracts/Locker.sol",
  "compiler": {
    "name": "solc",
    "version": "0.4.19+commit.c4cbbb05.Emscripten.clang"
  },
  "schemaVersion": "1.0.1",
  "updatedAt": "2018-02-14T23:29:32.229Z"
}