{
  "contractName": "MonetarySupervisor",
  "abi": [
    {
      "constant": true,
      "inputs": [],
      "name": "totalLockedAmount",
      "outputs": [
        {
          "name": "",
          "type": "uint256"
        }
      ],
      "payable": false,
      "stateMutability": "view",
      "type": "function"
    },
    {
      "constant": true,
      "inputs": [],
      "name": "ltdDifferenceLimit",
      "outputs": [
        {
          "name": "",
          "type": "uint256"
        }
      ],
      "payable": false,
      "stateMutability": "view",
      "type": "function"
    },
    {
      "constant": false,
      "inputs": [
        {
          "name": "agent",
          "type": "address"
        },
        {
          "name": "requiredPermissions",
          "type": "bytes32[]"
        }
      ],
      "name": "revokeMulitplePermissions",
      "outputs": [],
      "payable": false,
      "stateMutability": "nonpayable",
      "type": "function"
    },
    {
      "constant": true,
      "inputs": [],
      "name": "totalLoanAmount",
      "outputs": [
        {
          "name": "",
          "type": "uint256"
        }
      ],
      "payable": false,
      "stateMutability": "view",
      "type": "function"
    },
    {
      "constant": true,
      "inputs": [],
      "name": "issuedByMonetaryBoard",
      "outputs": [
        {
          "name": "",
          "type": "uint256"
        }
      ],
      "payable": false,
      "stateMutability": "view",
      "type": "function"
    },
    {
      "constant": true,
      "inputs": [
        {
          "name": "",
          "type": "address"
        },
        {
          "name": "",
          "type": "bytes32"
        }
      ],
      "name": "permissions",
      "outputs": [
        {
          "name": "",
          "type": "bool"
        }
      ],
      "payable": false,
      "stateMutability": "view",
      "type": "function"
    },
    {
      "constant": true,
      "inputs": [],
      "name": "interestEarnedAccount",
      "outputs": [
        {
          "name": "",
          "type": "address"
        }
      ],
      "payable": false,
      "stateMutability": "view",
      "type": "function"
    },
    {
      "constant": false,
      "inputs": [
        {
          "name": "agent",
          "type": "address"
        },
        {
          "name": "requiredPermission",
          "type": "bytes32"
        }
      ],
      "name": "revokePermission",
      "outputs": [],
      "payable": false,
      "stateMutability": "nonpayable",
      "type": "function"
    },
    {
      "constant": true,
      "inputs": [],
      "name": "allowedLtdDifferenceAmount",
      "outputs": [
        {
          "name": "",
          "type": "uint256"
        }
      ],
      "payable": false,
      "stateMutability": "view",
      "type": "function"
    },
    {
      "constant": true,
      "inputs": [],
      "name": "augmintToken",
      "outputs": [
        {
          "name": "",
          "type": "address"
        }
      ],
      "payable": false,
      "stateMutability": "view",
      "type": "function"
    },
    {
      "constant": false,
      "inputs": [
        {
          "name": "agent",
          "type": "address"
        },
        {
          "name": "requiredPermissions",
          "type": "bytes32[]"
        }
      ],
      "name": "grantMultiplePermissions",
      "outputs": [],
      "payable": false,
      "stateMutability": "nonpayable",
      "type": "function"
    },
    {
      "constant": false,
      "inputs": [
        {
          "name": "agent",
          "type": "address"
        },
        {
          "name": "requiredPermission",
          "type": "bytes32"
        }
      ],
      "name": "grantPermission",
      "outputs": [],
      "payable": false,
      "stateMutability": "nonpayable",
      "type": "function"
    },
    {
      "constant": true,
      "inputs": [],
      "name": "augmintReserves",
      "outputs": [
        {
          "name": "",
          "type": "address"
        }
      ],
      "payable": false,
      "stateMutability": "view",
      "type": "function"
    },
    {
      "inputs": [
        {
          "name": "_augmintToken",
          "type": "address"
        },
        {
          "name": "_augmintReserves",
          "type": "address"
        },
        {
          "name": "_interestEarnedAccount",
          "type": "address"
        },
        {
          "name": "_ltdDifferenceLimit",
          "type": "uint256"
        },
        {
          "name": "_allowedLtdDifferenceAmount",
          "type": "uint256"
        }
      ],
      "payable": false,
      "stateMutability": "nonpayable",
      "type": "constructor"
    },
    {
      "anonymous": false,
      "inputs": [
        {
          "indexed": false,
          "name": "ltdDifferenceLimit",
          "type": "uint256"
        },
        {
          "indexed": false,
          "name": "allowedLtdDifferenceAmount",
          "type": "uint256"
        }
      ],
      "name": "ParamsChanged",
      "type": "event"
    },
    {
      "anonymous": false,
      "inputs": [
        {
          "indexed": true,
          "name": "agent",
          "type": "address"
        },
        {
          "indexed": false,
          "name": "grantedPermission",
          "type": "bytes32"
        }
      ],
      "name": "PermissionGranted",
      "type": "event"
    },
    {
      "anonymous": false,
      "inputs": [
        {
          "indexed": true,
          "name": "agent",
          "type": "address"
        },
        {
          "indexed": false,
          "name": "revokedPermission",
          "type": "bytes32"
        }
      ],
      "name": "PermissionRevoked",
      "type": "event"
    },
    {
      "constant": false,
      "inputs": [
        {
          "name": "amount",
          "type": "uint256"
        }
      ],
      "name": "issueToReserve",
      "outputs": [],
      "payable": false,
      "stateMutability": "nonpayable",
      "type": "function"
    },
    {
      "constant": false,
      "inputs": [
        {
          "name": "amount",
          "type": "uint256"
        }
      ],
      "name": "burnFromReserve",
      "outputs": [],
      "payable": false,
      "stateMutability": "nonpayable",
      "type": "function"
    },
    {
      "constant": false,
      "inputs": [
        {
          "name": "amountToLock",
          "type": "uint256"
        },
        {
          "name": "interestAmount",
          "type": "uint256"
        }
      ],
      "name": "requestInterest",
      "outputs": [],
      "payable": false,
      "stateMutability": "nonpayable",
      "type": "function"
    },
    {
      "constant": false,
      "inputs": [
        {
          "name": "lockedAmount",
          "type": "uint256"
        }
      ],
      "name": "releaseFundsNotification",
      "outputs": [],
      "payable": false,
      "stateMutability": "nonpayable",
      "type": "function"
    },
    {
      "constant": false,
      "inputs": [
        {
          "name": "borrower",
          "type": "address"
        },
        {
          "name": "loanAmount",
          "type": "uint256"
        }
      ],
      "name": "issueLoan",
      "outputs": [],
      "payable": false,
      "stateMutability": "nonpayable",
      "type": "function"
    },
    {
      "constant": false,
      "inputs": [
        {
          "name": "loanAmount",
          "type": "uint256"
        }
      ],
      "name": "loanRepaymentNotification",
      "outputs": [],
      "payable": false,
      "stateMutability": "nonpayable",
      "type": "function"
    },
    {
      "constant": false,
      "inputs": [
        {
          "name": "totalLoanAmountCollected",
          "type": "uint256"
        }
      ],
      "name": "loanCollectionNotification",
      "outputs": [],
      "payable": false,
      "stateMutability": "nonpayable",
      "type": "function"
    },
    {
      "constant": false,
      "inputs": [
        {
          "name": "_ltdDifferenceLimit",
          "type": "uint256"
        },
        {
          "name": "_allowedLtdDifferenceAmount",
          "type": "uint256"
        }
      ],
      "name": "setParams",
      "outputs": [],
      "payable": false,
      "stateMutability": "nonpayable",
      "type": "function"
    },
    {
      "constant": true,
      "inputs": [],
      "name": "getParams",
      "outputs": [
        {
          "name": "",
          "type": "uint256[2]"
        }
      ],
      "payable": false,
      "stateMutability": "view",
      "type": "function"
    }
  ],
  "bytecode": "0x6060604052341561000f57600080fd5b60405160a0806116e38339810160405280805190602001909190805190602001909190805190602001909190805190602001909190805190602001909190505060016000803373ffffffffffffffffffffffffffffffffffffffff1673ffffffffffffffffffffffffffffffffffffffff16815260200190815260200160002060007f4d6f6e6574617279426f6172640000000000000000000000000000000000000060001916815260200190815260200160002060006101000a81548160ff0219169083151502179055503373ffffffffffffffffffffffffffffffffffffffff167fc65937e3dbcb9fb30f646815dd67a3dbd09ba17718cbcb54efbe3635f8e0a6fe60405180807f4d6f6e6574617279426f61726400000000000000000000000000000000000000815250602001905060405180910390a284600160006101000a81548173ffffffffffffffffffffffffffffffffffffffff021916908373ffffffffffffffffffffffffffffffffffffffff16021790555083600360006101000a81548173ffffffffffffffffffffffffffffffffffffffff021916908373ffffffffffffffffffffffffffffffffffffffff16021790555082600260006101000a81548173ffffffffffffffffffffffffffffffffffffffff021916908373ffffffffffffffffffffffffffffffffffffffff160217905550816007819055508060088190555050505050506114b58061022e6000396000f300606060405260043610610128576000357c0100000000000000000000000000000000000000000000000000000000900463ffffffff168063023f4a661461012d57806305a9f2741461015057806307e01f40146101795780630da32eaa146101a25780631895687d1461021b578063295777be1461025d5780634c9e502e146102805780634cae5f99146102a957806358c31603146102cc578063596368e0146102ef5780635b225526146103185780635e615a6b146103765780635fcf0455146103c75780635fe070131461041c57806364217bdf14610462578063777896f81461048e5780637b9b9c89146104b75780639ac3317b1461050c578063c0324c7714610585578063d0d968c0146105b1578063f38a8262146105d4578063fe1ebb041461061a575b600080fd5b341561013857600080fd5b61014e600480803590602001909190505061066f565b005b341561015b57600080fd5b610163610819565b6040518082815260200191505060405180910390f35b341561018457600080fd5b61018c61081f565b6040518082815260200191505060405180910390f35b34156101ad57600080fd5b610219600480803573ffffffffffffffffffffffffffffffffffffffff1690602001909190803590602001908201803590602001908080602002602001604051908101604052809392919081815260200183836020028082843782019150505050505091905050610825565b005b341561022657600080fd5b61025b600480803573ffffffffffffffffffffffffffffffffffffffff1690602001909190803590602001909190505061086d565b005b341561026857600080fd5b61027e60048080359060200190919050506109f0565b005b341561028b57600080fd5b610293610a9a565b6040518082815260200191505060405180910390f35b34156102b457600080fd5b6102ca6004808035906020019091905050610aa0565b005b34156102d757600080fd5b6102ed6004808035906020019091905050610b4a565b005b34156102fa57600080fd5b610302610bf4565b6040518082815260200191505060405180910390f35b341561032357600080fd5b61035c600480803573ffffffffffffffffffffffffffffffffffffffff1690602001909190803560001916906020019091905050610bfa565b604051808215151515815260200191505060405180910390f35b341561038157600080fd5b610389610c29565b6040518082600260200280838360005b838110156103b4578082015181840152602081019050610399565b5050505090500191505060405180910390f35b34156103d257600080fd5b6103da610c4f565b604051808273ffffffffffffffffffffffffffffffffffffffff1673ffffffffffffffffffffffffffffffffffffffff16815260200191505060405180910390f35b341561042757600080fd5b610460600480803573ffffffffffffffffffffffffffffffffffffffff1690602001909190803560001916906020019091905050610c75565b005b341561046d57600080fd5b61048c6004808035906020019091908035906020019091905050610d3f565b005b341561049957600080fd5b6104a1610f18565b6040518082815260200191505060405180910390f35b34156104c257600080fd5b6104ca610f1e565b604051808273ffffffffffffffffffffffffffffffffffffffff1673ffffffffffffffffffffffffffffffffffffffff16815260200191505060405180910390f35b341561051757600080fd5b610583600480803573ffffffffffffffffffffffffffffffffffffffff1690602001909190803590602001908201803590602001908080602002602001604051908101604052809392919081815260200183836020028082843782019150505050505091905050610f44565b005b341561059057600080fd5b6105af6004808035906020019091908035906020019091905050611018565b005b34156105bc57600080fd5b6105d260048080359060200190919050506110ff565b005b34156105df57600080fd5b610618600480803573ffffffffffffffffffffffffffffffffffffffff16906020019091908035600019169060200190919050506112a9565b005b341561062557600080fd5b61062d6113ff565b604051808273ffffffffffffffffffffffffffffffffffffffff1673ffffffffffffffffffffffffffffffffffffffff16815260200191505060405180910390f35b7f4d6f6e6574617279426f617264000000000000000000000000000000000000006000803373ffffffffffffffffffffffffffffffffffffffff1673ffffffffffffffffffffffffffffffffffffffff1681526020019081526020016000206000826000191660001916815260200190815260200160002060009054906101000a900460ff16151561070057600080fd5b6107158260045461142590919063ffffffff16565b600481905550600160009054906101000a900473ffffffffffffffffffffffffffffffffffffffff1673ffffffffffffffffffffffffffffffffffffffff16631207f0c1600360009054906101000a900473ffffffffffffffffffffffffffffffffffffffff16846040518363ffffffff167c0100000000000000000000000000000000000000000000000000000000028152600401808373ffffffffffffffffffffffffffffffffffffffff1673ffffffffffffffffffffffffffffffffffffffff16815260200182815260200192505050600060405180830381600087803b151561080157600080fd5b6102c65a03f1151561081257600080fd5b5050505050565b60065481565b60075481565b60008082519150600090505b818110156108675761085a84848381518110151561084b57fe5b90602001906020020151610c75565b8080600101915050610831565b50505050565b6000803373ffffffffffffffffffffffffffffffffffffffff1673ffffffffffffffffffffffffffffffffffffffff16815260200190815260200160002060007f4c6f616e4d616e61676572436f6e74726163747300000000000000000000000060001916815260200190815260200160002060009054906101000a900460ff1615156108f957600080fd5b61090e8160055461142590919063ffffffff16565b600581905550600160009054906101000a900473ffffffffffffffffffffffffffffffffffffffff1673ffffffffffffffffffffffffffffffffffffffff16631207f0c183836040518363ffffffff167c0100000000000000000000000000000000000000000000000000000000028152600401808373ffffffffffffffffffffffffffffffffffffffff1673ffffffffffffffffffffffffffffffffffffffff16815260200182815260200192505050600060405180830381600087803b15156109d857600080fd5b6102c65a03f115156109e957600080fd5b5050505050565b6000803373ffffffffffffffffffffffffffffffffffffffff1673ffffffffffffffffffffffffffffffffffffffff16815260200190815260200160002060007f4c6f636b6572436f6e747261637473000000000000000000000000000000000060001916815260200190815260200160002060009054906101000a900460ff161515610a7c57600080fd5b610a918160065461144690919063ffffffff16565b60068190555050565b60055481565b6000803373ffffffffffffffffffffffffffffffffffffffff1673ffffffffffffffffffffffffffffffffffffffff16815260200190815260200160002060007f4c6f616e4d616e61676572436f6e74726163747300000000000000000000000060001916815260200190815260200160002060009054906101000a900460ff161515610b2c57600080fd5b610b418160055461144690919063ffffffff16565b60058190555050565b6000803373ffffffffffffffffffffffffffffffffffffffff1673ffffffffffffffffffffffffffffffffffffffff16815260200190815260200160002060007f4c6f616e4d616e61676572436f6e74726163747300000000000000000000000060001916815260200190815260200160002060009054906101000a900460ff161515610bd657600080fd5b610beb8160055461144690919063ffffffff16565b60058190555050565b60045481565b60006020528160005260406000206020528060005260406000206000915091509054906101000a900460ff1681565b610c31611462565b60408051908101604052806007548152602001600854815250905090565b600260009054906101000a900473ffffffffffffffffffffffffffffffffffffffff1681565b60008060008473ffffffffffffffffffffffffffffffffffffffff1673ffffffffffffffffffffffffffffffffffffffff1681526020019081526020016000206000836000191660001916815260200190815260200160002060006101000a81548160ff0219169083151502179055508173ffffffffffffffffffffffffffffffffffffffff167f789770131846de4d1f28418f0f957cdf4fcabe5eccf70067083e20ecece69a348260405180826000191660001916815260200191505060405180910390a25050565b6000803373ffffffffffffffffffffffffffffffffffffffff1673ffffffffffffffffffffffffffffffffffffffff16815260200190815260200160002060007f4c6f636b6572436f6e747261637473000000000000000000000000000000000060001916815260200190815260200160002060009054906101000a900460ff161515610dcb57600080fd5b610de08260065461142590919063ffffffff16565b600681905550600260009054906101000a900473ffffffffffffffffffffffffffffffffffffffff1673ffffffffffffffffffffffffffffffffffffffff1663726254d2600160009054906101000a900473ffffffffffffffffffffffffffffffffffffffff1633846040518463ffffffff167c0100000000000000000000000000000000000000000000000000000000028152600401808473ffffffffffffffffffffffffffffffffffffffff1673ffffffffffffffffffffffffffffffffffffffff1681526020018373ffffffffffffffffffffffffffffffffffffffff1673ffffffffffffffffffffffffffffffffffffffff1681526020018281526020019350505050600060405180830381600087803b1515610f0057600080fd5b6102c65a03f11515610f1157600080fd5b5050505050565b60085481565b600160009054906101000a900473ffffffffffffffffffffffffffffffffffffffff1681565b6000806000803373ffffffffffffffffffffffffffffffffffffffff1673ffffffffffffffffffffffffffffffffffffffff16815260200190815260200160002060007f4d6f6e6574617279426f6172640000000000000000000000000000000000000060001916815260200190815260200160002060009054906101000a900460ff161515610fd357600080fd5b82519150600090505b8181101561101257611005848483815181101515610ff657fe5b906020019060200201516112a9565b8080600101915050610fdc565b50505050565b7f4d6f6e6574617279426f617264000000000000000000000000000000000000006000803373ffffffffffffffffffffffffffffffffffffffff1673ffffffffffffffffffffffffffffffffffffffff1681526020019081526020016000206000826000191660001916815260200190815260200160002060009054906101000a900460ff1615156110a957600080fd5b82600781905550816008819055507f7402265d37fc9b13e36e199e69d811676e05f51ab84ed748b69b3f9a65af162d600754600854604051808381526020018281526020019250505060405180910390a1505050565b7f4d6f6e6574617279426f617264000000000000000000000000000000000000006000803373ffffffffffffffffffffffffffffffffffffffff1673ffffffffffffffffffffffffffffffffffffffff1681526020019081526020016000206000826000191660001916815260200190815260200160002060009054906101000a900460ff16151561119057600080fd5b6111a58260045461144690919063ffffffff16565b600481905550600360009054906101000a900473ffffffffffffffffffffffffffffffffffffffff1673ffffffffffffffffffffffffffffffffffffffff16639dc29fac600160009054906101000a900473ffffffffffffffffffffffffffffffffffffffff16846040518363ffffffff167c0100000000000000000000000000000000000000000000000000000000028152600401808373ffffffffffffffffffffffffffffffffffffffff1673ffffffffffffffffffffffffffffffffffffffff16815260200182815260200192505050600060405180830381600087803b151561129157600080fd5b6102c65a03f115156112a257600080fd5b5050505050565b6000803373ffffffffffffffffffffffffffffffffffffffff1673ffffffffffffffffffffffffffffffffffffffff16815260200190815260200160002060007f4d6f6e6574617279426f6172640000000000000000000000000000000000000060001916815260200190815260200160002060009054906101000a900460ff16151561133557600080fd5b60016000808473ffffffffffffffffffffffffffffffffffffffff1673ffffffffffffffffffffffffffffffffffffffff1681526020019081526020016000206000836000191660001916815260200190815260200160002060006101000a81548160ff0219169083151502179055508173ffffffffffffffffffffffffffffffffffffffff167fc65937e3dbcb9fb30f646815dd67a3dbd09ba17718cbcb54efbe3635f8e0a6fe8260405180826000191660001916815260200191505060405180910390a25050565b600360009054906101000a900473ffffffffffffffffffffffffffffffffffffffff1681565b600080828401905083811015151561143c57600080fd5b8091505092915050565b600082821115151561145757600080fd5b818303905092915050565b60408051908101604052806002905b600081526020019060019003908161147157905050905600a165627a7a72305820a148f07eaa50e3f1f549edc346abf9e899a197ee78f045158d76480bdfc417e70029",
  "source": "/* MonetarySupervisor\n    - maintains system wide KPIs (eg totalLockAmount, totalLoanAmount)\n    - holds system wide parameters/limits\n    - enforces system wide limits\n    - burns and issues to AugmintReserves\n    - Send funds from reserve to exchange when intervening (not implemented yet)\n\n    TODO:\n        - MonetarySupervisorInterface (and use it everywhere)\n        - interestEarnedAccount setter?\n        - create and use InterestEarnedAccount interface instead?\n\n*/\n\npragma solidity 0.4.19;\nimport \"./generic/SafeMath.sol\";\nimport \"./generic/Restricted.sol\";\nimport \"./interfaces/AugmintTokenInterface.sol\";\nimport \"./InterestEarnedAccount.sol\";\nimport \"./AugmintReserves.sol\";\n\n\ncontract MonetarySupervisor is Restricted { // solhint-disable-line no-empty-blocks\n    using SafeMath for uint256;\n\n    AugmintTokenInterface public augmintToken;\n    InterestEarnedAccount public interestEarnedAccount;\n    AugmintReserves public augmintReserves;\n\n    uint public issuedByMonetaryBoard; // supply issued manually by monetary board\n\n    uint public totalLoanAmount; // total amount of all loans without interest, in token\n    uint public totalLockedAmount; // total amount of all locks without premium, in token\n\n    /* Parameters Used to ensure totalLoanAmount or totalLockedAmount difference is withing limit and system also works\n        when any of those 0 or low. */\n    uint public ltdDifferenceLimit;     /* allow lock or loan if Loan To Deposut ratio stay within 1 +- this param\n                                            stored as parts per million */\n    uint public allowedLtdDifferenceAmount; /* in token - if totalLoan and totalLock difference is less than that\n                                             then allow loan or lock even if ltdDifference limit would go off with it */\n\n    event ParamsChanged(uint ltdDifferenceLimit, uint allowedLtdDifferenceAmount);\n\n    function MonetarySupervisor(AugmintTokenInterface _augmintToken, AugmintReserves _augmintReserves,\n        InterestEarnedAccount _interestEarnedAccount,\n        uint _ltdDifferenceLimit, uint _allowedLtdDifferenceAmount) public {\n        augmintToken = _augmintToken;\n        augmintReserves = _augmintReserves;\n        interestEarnedAccount = _interestEarnedAccount;\n\n        ltdDifferenceLimit = _ltdDifferenceLimit;\n        allowedLtdDifferenceAmount = _allowedLtdDifferenceAmount;\n    }\n\n    function issueToReserve(uint amount) external restrict(\"MonetaryBoard\") {\n        issuedByMonetaryBoard = issuedByMonetaryBoard.add(amount);\n        augmintToken.issueTo(augmintReserves, amount);\n    }\n\n    function burnFromReserve(uint amount) external restrict(\"MonetaryBoard\") {\n        issuedByMonetaryBoard = issuedByMonetaryBoard.sub(amount);\n        augmintReserves.burn(augmintToken, amount);\n    }\n\n    // Locker requesting interest when locking funds\n    function requestInterest(uint amountToLock, uint interestAmount) external {\n        require(permissions[msg.sender][\"LockerContracts\"]); // only whitelisted LockerContracts\n        /* TODO: enforce LTD limits (ltdDifferenceLimit & allowedLtdDifferenceAmount) */\n\n        totalLockedAmount = totalLockedAmount.add(amountToLock);\n        interestEarnedAccount.transferInterest(augmintToken, msg.sender, interestAmount); // transfer interest to Locker\n    }\n\n    // Locker notifying when releasing funds to update KPIs\n    function releaseFundsNotification(uint lockedAmount) external {\n        require(permissions[msg.sender][\"LockerContracts\"]); // only whitelisted LockerContracts\n        totalLockedAmount = totalLockedAmount.sub(lockedAmount);\n    }\n\n    function issueLoan(address borrower, uint loanAmount) external {\n        require(permissions[msg.sender][\"LoanManagerContracts\"]); // only whitelisted LoanManager contracts\n        totalLoanAmount = totalLoanAmount.add(loanAmount);\n        augmintToken.issueTo(borrower, loanAmount);\n    }\n\n    function loanRepaymentNotification(uint loanAmount) external {\n        require(permissions[msg.sender][\"LoanManagerContracts\"]); // only whitelisted Lender contracts\n        totalLoanAmount = totalLoanAmount.sub(loanAmount);\n    }\n\n    // NB: this is called by Lender contract with the sum of all loans collected in batch\n    function loanCollectionNotification(uint totalLoanAmountCollected) external {\n        require(permissions[msg.sender][\"LoanManagerContracts\"]); // only whitelisted Lender contracts\n        totalLoanAmount = totalLoanAmount.sub(totalLoanAmountCollected);\n    }\n\n    function setParams(uint _ltdDifferenceLimit, uint _allowedLtdDifferenceAmount)\n    external restrict(\"MonetaryBoard\") {\n        ltdDifferenceLimit = _ltdDifferenceLimit;\n        allowedLtdDifferenceAmount = _allowedLtdDifferenceAmount;\n\n        ParamsChanged(ltdDifferenceLimit, allowedLtdDifferenceAmount);\n    }\n\n    // helper function for FrontEnd to reduce calls\n    function getParams() external view returns(uint[2]) {\n        return [ltdDifferenceLimit, allowedLtdDifferenceAmount];\n    }\n\n}\n",
  "sourcePath": "/Users/petro/ether/augmint-web/augmint-contracts/contracts/MonetarySupervisor.sol",
  "compiler": {
    "name": "solc",
    "version": "0.4.19+commit.c4cbbb05.Emscripten.clang"
  },
  "schemaVersion": "1.0.1",
  "updatedAt": "2018-02-27T07:36:28.104Z"
}