{
  "contractName": "MonetarySupervisor",
  "abi": [
    {
      "constant": true,
      "inputs": [],
      "name": "totalLockedAmount",
      "outputs": [
        {
          "name": "",
          "type": "uint256"
        }
      ],
      "payable": false,
      "stateMutability": "view",
      "type": "function"
    },
    {
      "constant": true,
      "inputs": [],
      "name": "ltdDifferenceLimit",
      "outputs": [
        {
          "name": "",
          "type": "uint256"
        }
      ],
      "payable": false,
      "stateMutability": "view",
      "type": "function"
    },
    {
      "constant": true,
      "inputs": [],
      "name": "totalLoanAmount",
      "outputs": [
        {
          "name": "",
          "type": "uint256"
        }
      ],
      "payable": false,
      "stateMutability": "view",
      "type": "function"
    },
    {
      "constant": true,
      "inputs": [],
      "name": "issuedByMonetaryBoard",
      "outputs": [
        {
          "name": "",
          "type": "uint256"
        }
      ],
      "payable": false,
      "stateMutability": "view",
      "type": "function"
    },
    {
      "constant": true,
      "inputs": [
        {
          "name": "",
          "type": "address"
        },
        {
          "name": "",
          "type": "bytes32"
        }
      ],
      "name": "permissions",
      "outputs": [
        {
          "name": "",
          "type": "bool"
        }
      ],
      "payable": false,
      "stateMutability": "view",
      "type": "function"
    },
    {
      "constant": true,
      "inputs": [],
      "name": "interestEarnedAccount",
      "outputs": [
        {
          "name": "",
          "type": "address"
        }
      ],
      "payable": false,
      "stateMutability": "view",
      "type": "function"
    },
    {
      "constant": false,
      "inputs": [
        {
          "name": "agent",
          "type": "address"
        },
        {
          "name": "requiredPermission",
          "type": "bytes32"
        }
      ],
      "name": "revokePermission",
      "outputs": [],
      "payable": false,
      "stateMutability": "nonpayable",
      "type": "function"
    },
    {
      "constant": true,
      "inputs": [],
      "name": "allowedLtdDifferenceAmount",
      "outputs": [
        {
          "name": "",
          "type": "uint256"
        }
      ],
      "payable": false,
      "stateMutability": "view",
      "type": "function"
    },
    {
      "constant": true,
      "inputs": [],
      "name": "augmintToken",
      "outputs": [
        {
          "name": "",
          "type": "address"
        }
      ],
      "payable": false,
      "stateMutability": "view",
      "type": "function"
    },
    {
      "constant": false,
      "inputs": [
        {
          "name": "agent",
          "type": "address"
        },
        {
          "name": "requiredPermissions",
          "type": "bytes32[]"
        }
      ],
      "name": "revokeMultiplePermissions",
      "outputs": [],
      "payable": false,
      "stateMutability": "nonpayable",
      "type": "function"
    },
    {
      "constant": true,
      "inputs": [
        {
          "name": "",
          "type": "address"
        }
      ],
      "name": "acceptedLegacyAugmintTokens",
      "outputs": [
        {
          "name": "",
          "type": "bool"
        }
      ],
      "payable": false,
      "stateMutability": "view",
      "type": "function"
    },
    {
      "constant": false,
      "inputs": [
        {
          "name": "agent",
          "type": "address"
        },
        {
          "name": "requiredPermissions",
          "type": "bytes32[]"
        }
      ],
      "name": "grantMultiplePermissions",
      "outputs": [],
      "payable": false,
      "stateMutability": "nonpayable",
      "type": "function"
    },
    {
      "constant": false,
      "inputs": [
        {
          "name": "agent",
          "type": "address"
        },
        {
          "name": "requiredPermission",
          "type": "bytes32"
        }
      ],
      "name": "grantPermission",
      "outputs": [],
      "payable": false,
      "stateMutability": "nonpayable",
      "type": "function"
    },
    {
      "constant": true,
      "inputs": [],
      "name": "augmintReserves",
      "outputs": [
        {
          "name": "",
          "type": "address"
        }
      ],
      "payable": false,
      "stateMutability": "view",
      "type": "function"
    },
    {
      "inputs": [
        {
          "name": "_augmintToken",
          "type": "address"
        },
        {
          "name": "_augmintReserves",
          "type": "address"
        },
        {
          "name": "_interestEarnedAccount",
          "type": "address"
        },
        {
          "name": "_ltdDifferenceLimit",
          "type": "uint256"
        },
        {
          "name": "_allowedLtdDifferenceAmount",
          "type": "uint256"
        }
      ],
      "payable": false,
      "stateMutability": "nonpayable",
      "type": "constructor"
    },
    {
      "anonymous": false,
      "inputs": [
        {
          "indexed": false,
          "name": "ltdDifferenceLimit",
          "type": "uint256"
        },
        {
          "indexed": false,
          "name": "allowedLtdDifferenceAmount",
          "type": "uint256"
        }
      ],
      "name": "ParamsChanged",
      "type": "event"
    },
    {
      "anonymous": false,
      "inputs": [
        {
          "indexed": false,
          "name": "augmintTokenAddress",
          "type": "address"
        },
        {
          "indexed": false,
          "name": "newAcceptedState",
          "type": "bool"
        }
      ],
      "name": "AcceptedLegacyAugmintTokenChanged",
      "type": "event"
    },
    {
      "anonymous": false,
      "inputs": [
        {
          "indexed": false,
          "name": "oldTokenAddress",
          "type": "address"
        },
        {
          "indexed": false,
          "name": "account",
          "type": "address"
        },
        {
          "indexed": false,
          "name": "amount",
          "type": "uint256"
        }
      ],
      "name": "LegacyTokenConverted",
      "type": "event"
    },
    {
      "anonymous": false,
      "inputs": [
        {
          "indexed": true,
          "name": "agent",
          "type": "address"
        },
        {
          "indexed": false,
          "name": "grantedPermission",
          "type": "bytes32"
        }
      ],
      "name": "PermissionGranted",
      "type": "event"
    },
    {
      "anonymous": false,
      "inputs": [
        {
          "indexed": true,
          "name": "agent",
          "type": "address"
        },
        {
          "indexed": false,
          "name": "revokedPermission",
          "type": "bytes32"
        }
      ],
      "name": "PermissionRevoked",
      "type": "event"
    },
    {
      "constant": false,
      "inputs": [
        {
          "name": "amount",
          "type": "uint256"
        }
      ],
      "name": "issueToReserve",
      "outputs": [],
      "payable": false,
      "stateMutability": "nonpayable",
      "type": "function"
    },
    {
      "constant": false,
      "inputs": [
        {
          "name": "amount",
          "type": "uint256"
        }
      ],
      "name": "burnFromReserve",
      "outputs": [],
      "payable": false,
      "stateMutability": "nonpayable",
      "type": "function"
    },
    {
      "constant": false,
      "inputs": [
        {
          "name": "amountToLock",
          "type": "uint256"
        },
        {
          "name": "interestAmount",
          "type": "uint256"
        }
      ],
      "name": "requestInterest",
      "outputs": [],
      "payable": false,
      "stateMutability": "nonpayable",
      "type": "function"
    },
    {
      "constant": false,
      "inputs": [
        {
          "name": "lockedAmount",
          "type": "uint256"
        }
      ],
      "name": "releaseFundsNotification",
      "outputs": [],
      "payable": false,
      "stateMutability": "nonpayable",
      "type": "function"
    },
    {
      "constant": false,
      "inputs": [
        {
          "name": "borrower",
          "type": "address"
        },
        {
          "name": "loanAmount",
          "type": "uint256"
        }
      ],
      "name": "issueLoan",
      "outputs": [],
      "payable": false,
      "stateMutability": "nonpayable",
      "type": "function"
    },
    {
      "constant": false,
      "inputs": [
        {
          "name": "loanAmount",
          "type": "uint256"
        }
      ],
      "name": "loanRepaymentNotification",
      "outputs": [],
      "payable": false,
      "stateMutability": "nonpayable",
      "type": "function"
    },
    {
      "constant": false,
      "inputs": [
        {
          "name": "totalLoanAmountCollected",
          "type": "uint256"
        }
      ],
      "name": "loanCollectionNotification",
      "outputs": [],
      "payable": false,
      "stateMutability": "nonpayable",
      "type": "function"
    },
    {
      "constant": false,
      "inputs": [
        {
          "name": "legacyAugmintTokenAddress",
          "type": "address"
        },
        {
          "name": "newAcceptedState",
          "type": "bool"
        }
      ],
      "name": "setAcceptedLegacyAugmintToken",
      "outputs": [],
      "payable": false,
      "stateMutability": "nonpayable",
      "type": "function"
    },
    {
      "constant": false,
      "inputs": [
        {
          "name": "_ltdDifferenceLimit",
          "type": "uint256"
        },
        {
          "name": "_allowedLtdDifferenceAmount",
          "type": "uint256"
        }
      ],
      "name": "setParams",
      "outputs": [],
      "payable": false,
      "stateMutability": "nonpayable",
      "type": "function"
    },
    {
      "constant": false,
      "inputs": [
        {
          "name": "from",
          "type": "address"
        },
        {
          "name": "amount",
          "type": "uint256"
        },
        {
          "name": "",
          "type": "uint256"
        }
      ],
      "name": "transferNotification",
      "outputs": [],
      "payable": false,
      "stateMutability": "nonpayable",
      "type": "function"
    },
    {
      "constant": true,
      "inputs": [],
      "name": "getParams",
      "outputs": [
        {
          "name": "",
          "type": "uint256[2]"
        }
      ],
      "payable": false,
      "stateMutability": "view",
      "type": "function"
    }
  ],
  "bytecode": "0x6060604052341561000f57600080fd5b60405160a080611c308339810160405280805190602001909190805190602001909190805190602001909190805190602001909190805190602001909190505060016000803373ffffffffffffffffffffffffffffffffffffffff1673ffffffffffffffffffffffffffffffffffffffff16815260200190815260200160002060007f4d6f6e6574617279426f6172640000000000000000000000000000000000000060001916815260200190815260200160002060006101000a81548160ff0219169083151502179055503373ffffffffffffffffffffffffffffffffffffffff167fc65937e3dbcb9fb30f646815dd67a3dbd09ba17718cbcb54efbe3635f8e0a6fe60405180807f4d6f6e6574617279426f61726400000000000000000000000000000000000000815250602001905060405180910390a284600160006101000a81548173ffffffffffffffffffffffffffffffffffffffff021916908373ffffffffffffffffffffffffffffffffffffffff16021790555083600360006101000a81548173ffffffffffffffffffffffffffffffffffffffff021916908373ffffffffffffffffffffffffffffffffffffffff16021790555082600260006101000a81548173ffffffffffffffffffffffffffffffffffffffff021916908373ffffffffffffffffffffffffffffffffffffffff16021790555081600781905550806008819055505050505050611a028061022e6000396000f300606060405260043610610149576000357c0100000000000000000000000000000000000000000000000000000000900463ffffffff168063023f4a661461014e57806305a9f2741461017157806307e01f401461019a5780631895687d146101c3578063295777be146102055780634c9e502e146102285780634cae5f991461025157806358c3160314610274578063596368e0146102975780635b225526146102c05780635e615a6b1461031e5780635fcf04551461036f5780635fe07013146103c457806364217bdf1461040a57806364e7e4a414610436578063777896f8146104815780637b9b9c89146104aa5780637ea46993146104ff57806392413ddc1461057857806392969b30146105c95780639ac3317b1461060d578063c0324c7714610686578063d0d968c0146106b2578063f38a8262146106d5578063fe1ebb041461071b575b600080fd5b341561015957600080fd5b61016f6004808035906020019091905050610770565b005b341561017c57600080fd5b610184610916565b6040518082815260200191505060405180910390f35b34156101a557600080fd5b6101ad61091c565b6040518082815260200191505060405180910390f35b34156101ce57600080fd5b610203600480803573ffffffffffffffffffffffffffffffffffffffff16906020019091908035906020019091905050610922565b005b341561021057600080fd5b6102266004808035906020019091905050610aa1565b005b341561023357600080fd5b61023b610b4b565b6040518082815260200191505060405180910390f35b341561025c57600080fd5b6102726004808035906020019091905050610b51565b005b341561027f57600080fd5b6102956004808035906020019091905050610bfb565b005b34156102a257600080fd5b6102aa610ca5565b6040518082815260200191505060405180910390f35b34156102cb57600080fd5b610304600480803573ffffffffffffffffffffffffffffffffffffffff1690602001909190803560001916906020019091905050610cab565b604051808215151515815260200191505060405180910390f35b341561032957600080fd5b610331610cda565b6040518082600260200280838360005b8381101561035c578082015181840152602081019050610341565b5050505090500191505060405180910390f35b341561037a57600080fd5b610382610d00565b604051808273ffffffffffffffffffffffffffffffffffffffff1673ffffffffffffffffffffffffffffffffffffffff16815260200191505060405180910390f35b34156103cf57600080fd5b610408600480803573ffffffffffffffffffffffffffffffffffffffff1690602001909190803560001916906020019091905050610d26565b005b341561041557600080fd5b6104346004808035906020019091908035906020019091905050610e7c565b005b341561044157600080fd5b61047f600480803573ffffffffffffffffffffffffffffffffffffffff16906020019091908035906020019091908035906020019091905050611051565b005b341561048c57600080fd5b6104946112a5565b6040518082815260200191505060405180910390f35b34156104b557600080fd5b6104bd6112ab565b604051808273ffffffffffffffffffffffffffffffffffffffff1673ffffffffffffffffffffffffffffffffffffffff16815260200191505060405180910390f35b341561050a57600080fd5b610576600480803573ffffffffffffffffffffffffffffffffffffffff16906020019091908035906020019082018035906020019080806020026020016040519081016040528093929190818152602001838360200280828437820191505050505050919050506112d1565b005b341561058357600080fd5b6105af600480803573ffffffffffffffffffffffffffffffffffffffff16906020019091905050611319565b604051808215151515815260200191505060405180910390f35b34156105d457600080fd5b61060b600480803573ffffffffffffffffffffffffffffffffffffffff169060200190919080351515906020019091905050611339565b005b341561061857600080fd5b610684600480803573ffffffffffffffffffffffffffffffffffffffff1690602001909190803590602001908201803590602001908080602002602001604051908101604052809392919081815260200183836020028082843782019150505050505091905050611495565b005b341561069157600080fd5b6106b06004808035906020019091908035906020019091905050611569565b005b34156106bd57600080fd5b6106d36004808035906020019091905050611650565b005b34156106e057600080fd5b610719600480803573ffffffffffffffffffffffffffffffffffffffff16906020019091908035600019169060200190919050506117f6565b005b341561072657600080fd5b61072e61194c565b604051808273ffffffffffffffffffffffffffffffffffffffff1673ffffffffffffffffffffffffffffffffffffffff16815260200191505060405180910390f35b7f4d6f6e6574617279426f617264000000000000000000000000000000000000006000803373ffffffffffffffffffffffffffffffffffffffff1673ffffffffffffffffffffffffffffffffffffffff1681526020019081526020016000206000826000191660001916815260200190815260200160002060009054906101000a900460ff16151561080157600080fd5b6108168260045461197290919063ffffffff16565b600481905550600160009054906101000a900473ffffffffffffffffffffffffffffffffffffffff1673ffffffffffffffffffffffffffffffffffffffff16631207f0c1600360009054906101000a900473ffffffffffffffffffffffffffffffffffffffff16846040518363ffffffff167c0100000000000000000000000000000000000000000000000000000000028152600401808373ffffffffffffffffffffffffffffffffffffffff1673ffffffffffffffffffffffffffffffffffffffff16815260200182815260200192505050600060405180830381600087803b151561090257600080fd5b5af1151561090f57600080fd5b5050505050565b60065481565b60075481565b6000803373ffffffffffffffffffffffffffffffffffffffff1673ffffffffffffffffffffffffffffffffffffffff16815260200190815260200160002060007f4c6f616e4d616e61676572436f6e74726163747300000000000000000000000060001916815260200190815260200160002060009054906101000a900460ff1615156109ae57600080fd5b6109c38160055461197290919063ffffffff16565b600581905550600160009054906101000a900473ffffffffffffffffffffffffffffffffffffffff1673ffffffffffffffffffffffffffffffffffffffff16631207f0c183836040518363ffffffff167c0100000000000000000000000000000000000000000000000000000000028152600401808373ffffffffffffffffffffffffffffffffffffffff1673ffffffffffffffffffffffffffffffffffffffff16815260200182815260200192505050600060405180830381600087803b1515610a8d57600080fd5b5af11515610a9a57600080fd5b5050505050565b6000803373ffffffffffffffffffffffffffffffffffffffff1673ffffffffffffffffffffffffffffffffffffffff16815260200190815260200160002060007f4c6f636b6572436f6e747261637473000000000000000000000000000000000060001916815260200190815260200160002060009054906101000a900460ff161515610b2d57600080fd5b610b428160065461199390919063ffffffff16565b60068190555050565b60055481565b6000803373ffffffffffffffffffffffffffffffffffffffff1673ffffffffffffffffffffffffffffffffffffffff16815260200190815260200160002060007f4c6f616e4d616e61676572436f6e74726163747300000000000000000000000060001916815260200190815260200160002060009054906101000a900460ff161515610bdd57600080fd5b610bf28160055461199390919063ffffffff16565b60058190555050565b6000803373ffffffffffffffffffffffffffffffffffffffff1673ffffffffffffffffffffffffffffffffffffffff16815260200190815260200160002060007f4c6f616e4d616e61676572436f6e74726163747300000000000000000000000060001916815260200190815260200160002060009054906101000a900460ff161515610c8757600080fd5b610c9c8160055461199390919063ffffffff16565b60058190555050565b60045481565b60006020528160005260406000206020528060005260406000206000915091509054906101000a900460ff1681565b610ce26119af565b60408051908101604052806007548152602001600854815250905090565b600260009054906101000a900473ffffffffffffffffffffffffffffffffffffffff1681565b6000803373ffffffffffffffffffffffffffffffffffffffff1673ffffffffffffffffffffffffffffffffffffffff16815260200190815260200160002060007f4d6f6e6574617279426f6172640000000000000000000000000000000000000060001916815260200190815260200160002060009054906101000a900460ff161515610db257600080fd5b60008060008473ffffffffffffffffffffffffffffffffffffffff1673ffffffffffffffffffffffffffffffffffffffff1681526020019081526020016000206000836000191660001916815260200190815260200160002060006101000a81548160ff0219169083151502179055508173ffffffffffffffffffffffffffffffffffffffff167f789770131846de4d1f28418f0f957cdf4fcabe5eccf70067083e20ecece69a348260405180826000191660001916815260200191505060405180910390a25050565b6000803373ffffffffffffffffffffffffffffffffffffffff1673ffffffffffffffffffffffffffffffffffffffff16815260200190815260200160002060007f4c6f636b6572436f6e747261637473000000000000000000000000000000000060001916815260200190815260200160002060009054906101000a900460ff161515610f0857600080fd5b610f1d8260065461197290919063ffffffff16565b600681905550600260009054906101000a900473ffffffffffffffffffffffffffffffffffffffff1673ffffffffffffffffffffffffffffffffffffffff1663726254d2600160009054906101000a900473ffffffffffffffffffffffffffffffffffffffff1633846040518463ffffffff167c0100000000000000000000000000000000000000000000000000000000028152600401808473ffffffffffffffffffffffffffffffffffffffff1673ffffffffffffffffffffffffffffffffffffffff1681526020018373ffffffffffffffffffffffffffffffffffffffff1673ffffffffffffffffffffffffffffffffffffffff1681526020018281526020019350505050600060405180830381600087803b151561103d57600080fd5b5af1151561104a57600080fd5b5050505050565b6000339050600960008273ffffffffffffffffffffffffffffffffffffffff1673ffffffffffffffffffffffffffffffffffffffff16815260200190815260200160002060009054906101000a900460ff1615156110ae57600080fd5b8073ffffffffffffffffffffffffffffffffffffffff166342966c68846040518263ffffffff167c010000000000000000000000000000000000000000000000000000000002815260040180828152602001915050600060405180830381600087803b151561111c57600080fd5b5af1151561112957600080fd5b505050600160009054906101000a900473ffffffffffffffffffffffffffffffffffffffff1673ffffffffffffffffffffffffffffffffffffffff16631207f0c185856040518363ffffffff167c0100000000000000000000000000000000000000000000000000000000028152600401808373ffffffffffffffffffffffffffffffffffffffff1673ffffffffffffffffffffffffffffffffffffffff16815260200182815260200192505050600060405180830381600087803b15156111f057600080fd5b5af115156111fd57600080fd5b5050507fed3be8b083d065309356e7da4e9c3ea55ca16ce92d8c239b0bae2aa6fcf32432338585604051808473ffffffffffffffffffffffffffffffffffffffff1673ffffffffffffffffffffffffffffffffffffffff1681526020018373ffffffffffffffffffffffffffffffffffffffff1673ffffffffffffffffffffffffffffffffffffffff168152602001828152602001935050505060405180910390a150505050565b60085481565b600160009054906101000a900473ffffffffffffffffffffffffffffffffffffffff1681565b60008082519150600090505b81811015611313576113068484838151811015156112f757fe5b90602001906020020151610d26565b80806001019150506112dd565b50505050565b60096020528060005260406000206000915054906101000a900460ff1681565b7f4d6f6e6574617279426f617264000000000000000000000000000000000000006000803373ffffffffffffffffffffffffffffffffffffffff1673ffffffffffffffffffffffffffffffffffffffff1681526020019081526020016000206000826000191660001916815260200190815260200160002060009054906101000a900460ff1615156113ca57600080fd5b81600960008573ffffffffffffffffffffffffffffffffffffffff1673ffffffffffffffffffffffffffffffffffffffff16815260200190815260200160002060006101000a81548160ff0219169083151502179055507fae884efbcf119c5626909ea781d57194bdb5943d13bb537cdec2fbd8294febbf8383604051808373ffffffffffffffffffffffffffffffffffffffff1673ffffffffffffffffffffffffffffffffffffffff168152602001821515151581526020019250505060405180910390a1505050565b6000806000803373ffffffffffffffffffffffffffffffffffffffff1673ffffffffffffffffffffffffffffffffffffffff16815260200190815260200160002060007f4d6f6e6574617279426f6172640000000000000000000000000000000000000060001916815260200190815260200160002060009054906101000a900460ff16151561152457600080fd5b82519150600090505b818110156115635761155684848381518110151561154757fe5b906020019060200201516117f6565b808060010191505061152d565b50505050565b7f4d6f6e6574617279426f617264000000000000000000000000000000000000006000803373ffffffffffffffffffffffffffffffffffffffff1673ffffffffffffffffffffffffffffffffffffffff1681526020019081526020016000206000826000191660001916815260200190815260200160002060009054906101000a900460ff1615156115fa57600080fd5b82600781905550816008819055507f7402265d37fc9b13e36e199e69d811676e05f51ab84ed748b69b3f9a65af162d600754600854604051808381526020018281526020019250505060405180910390a1505050565b7f4d6f6e6574617279426f617264000000000000000000000000000000000000006000803373ffffffffffffffffffffffffffffffffffffffff1673ffffffffffffffffffffffffffffffffffffffff1681526020019081526020016000206000826000191660001916815260200190815260200160002060009054906101000a900460ff1615156116e157600080fd5b6116f68260045461199390919063ffffffff16565b600481905550600360009054906101000a900473ffffffffffffffffffffffffffffffffffffffff1673ffffffffffffffffffffffffffffffffffffffff16639dc29fac600160009054906101000a900473ffffffffffffffffffffffffffffffffffffffff16846040518363ffffffff167c0100000000000000000000000000000000000000000000000000000000028152600401808373ffffffffffffffffffffffffffffffffffffffff1673ffffffffffffffffffffffffffffffffffffffff16815260200182815260200192505050600060405180830381600087803b15156117e257600080fd5b5af115156117ef57600080fd5b5050505050565b6000803373ffffffffffffffffffffffffffffffffffffffff1673ffffffffffffffffffffffffffffffffffffffff16815260200190815260200160002060007f4d6f6e6574617279426f6172640000000000000000000000000000000000000060001916815260200190815260200160002060009054906101000a900460ff16151561188257600080fd5b60016000808473ffffffffffffffffffffffffffffffffffffffff1673ffffffffffffffffffffffffffffffffffffffff1681526020019081526020016000206000836000191660001916815260200190815260200160002060006101000a81548160ff0219169083151502179055508173ffffffffffffffffffffffffffffffffffffffff167fc65937e3dbcb9fb30f646815dd67a3dbd09ba17718cbcb54efbe3635f8e0a6fe8260405180826000191660001916815260200191505060405180910390a25050565b600360009054906101000a900473ffffffffffffffffffffffffffffffffffffffff1681565b600080828401905083811015151561198957600080fd5b8091505092915050565b60008282111515156119a457600080fd5b818303905092915050565b60408051908101604052806002905b60008152602001906001900390816119be57905050905600a165627a7a72305820e101e3aded3e87363ea91e34b8c2b724bcabb6879798f4a7ae87ce56b53814130029",
  "source": "/* MonetarySupervisor\n    - maintains system wide KPIs (eg totalLockAmount, totalLoanAmount)\n    - holds system wide parameters/limits\n    - enforces system wide limits\n    - burns and issues to AugmintReserves\n    - Send funds from reserve to exchange when intervening (not implemented yet)\n    - Converts older versions of AugmintTokens in 1:1 to new\n\n    TODO:\n        - enforce LTD limits\n        - MonetarySupervisorInterface (and use it everywhere)\n        - interestEarnedAccount setter?\n        - create and use InterestEarnedAccount interface instead?\n\n*/\n\npragma solidity 0.4.21;\nimport \"./generic/SafeMath.sol\";\nimport \"./generic/Restricted.sol\";\nimport \"./interfaces/AugmintTokenInterface.sol\";\nimport \"./interfaces/TokenReceiver.sol\";\nimport \"./InterestEarnedAccount.sol\";\nimport \"./AugmintReserves.sol\";\n\n\ncontract MonetarySupervisor is Restricted, TokenReceiver { // solhint-disable-line no-empty-blocks\n    using SafeMath for uint256;\n\n    AugmintTokenInterface public augmintToken;\n    InterestEarnedAccount public interestEarnedAccount;\n    AugmintReserves public augmintReserves;\n\n    uint public issuedByMonetaryBoard; // supply issued manually by monetary board\n\n    uint public totalLoanAmount; // total amount of all loans without interest, in token\n    uint public totalLockedAmount; // total amount of all locks without premium, in token\n\n    /* Parameters Used to ensure totalLoanAmount or totalLockedAmount difference is withing limit and system also works\n        when any of those 0 or low. */\n    uint public ltdDifferenceLimit;     /* allow lock or loan if Loan To Deposut ratio stay within 1 +- this param\n                                            stored as parts per million */\n    uint public allowedLtdDifferenceAmount; /* in token - if totalLoan and totalLock difference is less than that\n                                             then allow loan or lock even if ltdDifference limit would go off with it */\n\n    /* Previously deployed AugmintTokens which are accepted for conversion (see transferNotification() )\n        NB: it's not iterable so old version addresses needs to be added for UI manually after each deploy */\n    mapping(address => bool) public acceptedLegacyAugmintTokens;\n\n    event ParamsChanged(uint ltdDifferenceLimit, uint allowedLtdDifferenceAmount);\n\n    event AcceptedLegacyAugmintTokenChanged(address augmintTokenAddress, bool newAcceptedState);\n\n    event LegacyTokenConverted(address oldTokenAddress, address account, uint amount);\n\n    function MonetarySupervisor(AugmintTokenInterface _augmintToken, AugmintReserves _augmintReserves,\n        InterestEarnedAccount _interestEarnedAccount,\n        uint _ltdDifferenceLimit, uint _allowedLtdDifferenceAmount) public {\n        augmintToken = _augmintToken;\n        augmintReserves = _augmintReserves;\n        interestEarnedAccount = _interestEarnedAccount;\n\n        ltdDifferenceLimit = _ltdDifferenceLimit;\n        allowedLtdDifferenceAmount = _allowedLtdDifferenceAmount;\n    }\n\n    function issueToReserve(uint amount) external restrict(\"MonetaryBoard\") {\n        issuedByMonetaryBoard = issuedByMonetaryBoard.add(amount);\n        augmintToken.issueTo(augmintReserves, amount);\n    }\n\n    function burnFromReserve(uint amount) external restrict(\"MonetaryBoard\") {\n        issuedByMonetaryBoard = issuedByMonetaryBoard.sub(amount);\n        augmintReserves.burn(augmintToken, amount);\n    }\n\n    // Locker requesting interest when locking funds\n    function requestInterest(uint amountToLock, uint interestAmount) external {\n        require(permissions[msg.sender][\"LockerContracts\"]); // only whitelisted LockerContracts\n        /* TODO: enforce LTD limits (ltdDifferenceLimit & allowedLtdDifferenceAmount) */\n\n        totalLockedAmount = totalLockedAmount.add(amountToLock);\n        interestEarnedAccount.transferInterest(augmintToken, msg.sender, interestAmount); // transfer interest to Locker\n    }\n\n    // Locker notifying when releasing funds to update KPIs\n    function releaseFundsNotification(uint lockedAmount) external {\n        require(permissions[msg.sender][\"LockerContracts\"]); // only whitelisted LockerContracts\n        totalLockedAmount = totalLockedAmount.sub(lockedAmount);\n    }\n\n    function issueLoan(address borrower, uint loanAmount) external {\n        require(permissions[msg.sender][\"LoanManagerContracts\"]); // only whitelisted LoanManager contracts\n        totalLoanAmount = totalLoanAmount.add(loanAmount);\n        augmintToken.issueTo(borrower, loanAmount);\n    }\n\n    function loanRepaymentNotification(uint loanAmount) external {\n        require(permissions[msg.sender][\"LoanManagerContracts\"]); // only whitelisted Lender contracts\n        totalLoanAmount = totalLoanAmount.sub(loanAmount);\n    }\n\n    // NB: this is called by Lender contract with the sum of all loans collected in batch\n    function loanCollectionNotification(uint totalLoanAmountCollected) external {\n        require(permissions[msg.sender][\"LoanManagerContracts\"]); // only whitelisted Lender contracts\n        totalLoanAmount = totalLoanAmount.sub(totalLoanAmountCollected);\n    }\n\n    function setAcceptedLegacyAugmintToken(address legacyAugmintTokenAddress, bool newAcceptedState)\n    external restrict(\"MonetaryBoard\") {\n        acceptedLegacyAugmintTokens[legacyAugmintTokenAddress] = newAcceptedState;\n        emit AcceptedLegacyAugmintTokenChanged(legacyAugmintTokenAddress, newAcceptedState);\n    }\n\n    function setParams(uint _ltdDifferenceLimit, uint _allowedLtdDifferenceAmount)\n    external restrict(\"MonetaryBoard\") {\n        ltdDifferenceLimit = _ltdDifferenceLimit;\n        allowedLtdDifferenceAmount = _allowedLtdDifferenceAmount;\n\n        emit ParamsChanged(ltdDifferenceLimit, allowedLtdDifferenceAmount);\n    }\n\n    /* User can request to convert their tokens from older AugmintToken versions in 1:1\n      transferNotification is called from AugmintToken's transferAndNotify\n     Flow for converting old tokens:\n        1) user calls old token contract's transferAndNotify with the amount to convert,\n                addressing the new MonetarySupervisor Contract\n        2) transferAndNotify transfers user's old tokens to the current MonetarySupervisor contract's address\n        3) transferAndNotify calls MonetarySupervisor.transferNotification\n        4) MonetarySupervisor checks if old AugmintToken is permitted\n        5) MonetarySupervisor issues new tokens to user's account in current AugmintToken\n        6) MonetarySupervisor burns old tokens from own balance\n    */\n    function transferNotification(address from, uint amount, uint /* data, not used */ ) external {\n        AugmintTokenInterface legacyToken = AugmintTokenInterface(msg.sender);\n        require(acceptedLegacyAugmintTokens[legacyToken]);\n\n        legacyToken.burn(amount);\n        augmintToken.issueTo(from, amount);\n        emit LegacyTokenConverted(msg.sender, from, amount);\n    }\n\n    // helper function for FrontEnd to reduce calls\n    function getParams() external view returns(uint[2]) {\n        return [ltdDifferenceLimit, allowedLtdDifferenceAmount];\n    }\n\n}\n",
  "sourcePath": "/Users/petro/ether/augmint-contracts/contracts/MonetarySupervisor.sol",
  "compiler": {
    "name": "solc",
    "version": "0.4.21+commit.dfe3193c.Emscripten.clang"
  },
  "schemaVersion": "2.0.0",
  "updatedAt": "2018-04-03T11:22:47.466Z"
}