{
  "contractName": "MonetarySupervisor",
  "abi": [
    {
      "constant": true,
      "inputs": [],
      "name": "totalLockedAmount",
      "outputs": [
        {
          "name": "",
          "type": "uint256"
        }
      ],
      "payable": false,
      "stateMutability": "view",
      "type": "function"
    },
    {
      "constant": true,
      "inputs": [],
      "name": "ltdLoanDifferenceLimit",
      "outputs": [
        {
          "name": "",
          "type": "uint256"
        }
      ],
      "payable": false,
      "stateMutability": "view",
      "type": "function"
    },
    {
      "constant": true,
      "inputs": [],
      "name": "totalLoanAmount",
      "outputs": [
        {
          "name": "",
          "type": "uint256"
        }
      ],
      "payable": false,
      "stateMutability": "view",
      "type": "function"
    },
    {
      "constant": true,
      "inputs": [],
      "name": "issuedByMonetaryBoard",
      "outputs": [
        {
          "name": "",
          "type": "uint256"
        }
      ],
      "payable": false,
      "stateMutability": "view",
      "type": "function"
    },
    {
      "constant": true,
      "inputs": [
        {
          "name": "",
          "type": "address"
        },
        {
          "name": "",
          "type": "bytes32"
        }
      ],
      "name": "permissions",
      "outputs": [
        {
          "name": "",
          "type": "bool"
        }
      ],
      "payable": false,
      "stateMutability": "view",
      "type": "function"
    },
    {
      "constant": true,
      "inputs": [],
      "name": "interestEarnedAccount",
      "outputs": [
        {
          "name": "",
          "type": "address"
        }
      ],
      "payable": false,
      "stateMutability": "view",
      "type": "function"
    },
    {
      "constant": false,
      "inputs": [
        {
          "name": "agent",
          "type": "address"
        },
        {
          "name": "requiredPermission",
          "type": "bytes32"
        }
      ],
      "name": "revokePermission",
      "outputs": [],
      "payable": false,
      "stateMutability": "nonpayable",
      "type": "function"
    },
    {
      "constant": true,
      "inputs": [],
      "name": "allowedLtdDifferenceAmount",
      "outputs": [
        {
          "name": "",
          "type": "uint256"
        }
      ],
      "payable": false,
      "stateMutability": "view",
      "type": "function"
    },
    {
      "constant": true,
      "inputs": [],
      "name": "ltdLockDifferenceLimit",
      "outputs": [
        {
          "name": "",
          "type": "uint256"
        }
      ],
      "payable": false,
      "stateMutability": "view",
      "type": "function"
    },
    {
      "constant": true,
      "inputs": [],
      "name": "augmintToken",
      "outputs": [
        {
          "name": "",
          "type": "address"
        }
      ],
      "payable": false,
      "stateMutability": "view",
      "type": "function"
    },
    {
      "constant": true,
      "inputs": [],
      "name": "PERCENT_100",
      "outputs": [
        {
          "name": "",
          "type": "uint256"
        }
      ],
      "payable": false,
      "stateMutability": "view",
      "type": "function"
    },
    {
      "constant": false,
      "inputs": [
        {
          "name": "agent",
          "type": "address"
        },
        {
          "name": "requiredPermissions",
          "type": "bytes32[]"
        }
      ],
      "name": "revokeMultiplePermissions",
      "outputs": [],
      "payable": false,
      "stateMutability": "nonpayable",
      "type": "function"
    },
    {
      "constant": true,
      "inputs": [
        {
          "name": "",
          "type": "address"
        }
      ],
      "name": "acceptedLegacyAugmintTokens",
      "outputs": [
        {
          "name": "",
          "type": "bool"
        }
      ],
      "payable": false,
      "stateMutability": "view",
      "type": "function"
    },
    {
      "constant": false,
      "inputs": [
        {
          "name": "agent",
          "type": "address"
        },
        {
          "name": "requiredPermissions",
          "type": "bytes32[]"
        }
      ],
      "name": "grantMultiplePermissions",
      "outputs": [],
      "payable": false,
      "stateMutability": "nonpayable",
      "type": "function"
    },
    {
      "constant": false,
      "inputs": [
        {
          "name": "agent",
          "type": "address"
        },
        {
          "name": "requiredPermission",
          "type": "bytes32"
        }
      ],
      "name": "grantPermission",
      "outputs": [],
      "payable": false,
      "stateMutability": "nonpayable",
      "type": "function"
    },
    {
      "constant": true,
      "inputs": [],
      "name": "augmintReserves",
      "outputs": [
        {
          "name": "",
          "type": "address"
        }
      ],
      "payable": false,
      "stateMutability": "view",
      "type": "function"
    },
    {
      "inputs": [
        {
          "name": "_augmintToken",
          "type": "address"
        },
        {
          "name": "_augmintReserves",
          "type": "address"
        },
        {
          "name": "_interestEarnedAccount",
          "type": "address"
        },
        {
          "name": "_ltdLockDifferenceLimit",
          "type": "uint256"
        },
        {
          "name": "_ltdLoanDifferenceLimit",
          "type": "uint256"
        },
        {
          "name": "_allowedLtdDifferenceAmount",
          "type": "uint256"
        }
      ],
      "payable": false,
      "stateMutability": "nonpayable",
      "type": "constructor"
    },
    {
      "anonymous": false,
      "inputs": [
        {
          "indexed": false,
          "name": "ltdLockDifferenceLimit",
          "type": "uint256"
        },
        {
          "indexed": false,
          "name": "ltdLoanDifferenceLimit",
          "type": "uint256"
        },
        {
          "indexed": false,
          "name": "allowedLtdDifferenceAmount",
          "type": "uint256"
        }
      ],
      "name": "ParamsChanged",
      "type": "event"
    },
    {
      "anonymous": false,
      "inputs": [
        {
          "indexed": false,
          "name": "augmintTokenAddress",
          "type": "address"
        },
        {
          "indexed": false,
          "name": "newAcceptedState",
          "type": "bool"
        }
      ],
      "name": "AcceptedLegacyAugmintTokenChanged",
      "type": "event"
    },
    {
      "anonymous": false,
      "inputs": [
        {
          "indexed": false,
          "name": "oldTokenAddress",
          "type": "address"
        },
        {
          "indexed": false,
          "name": "account",
          "type": "address"
        },
        {
          "indexed": false,
          "name": "amount",
          "type": "uint256"
        }
      ],
      "name": "LegacyTokenConverted",
      "type": "event"
    },
    {
      "anonymous": false,
      "inputs": [
        {
          "indexed": true,
          "name": "agent",
          "type": "address"
        },
        {
          "indexed": false,
          "name": "grantedPermission",
          "type": "bytes32"
        }
      ],
      "name": "PermissionGranted",
      "type": "event"
    },
    {
      "anonymous": false,
      "inputs": [
        {
          "indexed": true,
          "name": "agent",
          "type": "address"
        },
        {
          "indexed": false,
          "name": "revokedPermission",
          "type": "bytes32"
        }
      ],
      "name": "PermissionRevoked",
      "type": "event"
    },
    {
      "constant": false,
      "inputs": [
        {
          "name": "amount",
          "type": "uint256"
        }
      ],
      "name": "issueToReserve",
      "outputs": [],
      "payable": false,
      "stateMutability": "nonpayable",
      "type": "function"
    },
    {
      "constant": false,
      "inputs": [
        {
          "name": "amount",
          "type": "uint256"
        }
      ],
      "name": "burnFromReserve",
      "outputs": [],
      "payable": false,
      "stateMutability": "nonpayable",
      "type": "function"
    },
    {
      "constant": false,
      "inputs": [
        {
          "name": "amountToLock",
          "type": "uint256"
        },
        {
          "name": "interestAmount",
          "type": "uint256"
        }
      ],
      "name": "requestInterest",
      "outputs": [],
      "payable": false,
      "stateMutability": "nonpayable",
      "type": "function"
    },
    {
      "constant": false,
      "inputs": [
        {
          "name": "lockedAmount",
          "type": "uint256"
        }
      ],
      "name": "releaseFundsNotification",
      "outputs": [],
      "payable": false,
      "stateMutability": "nonpayable",
      "type": "function"
    },
    {
      "constant": false,
      "inputs": [
        {
          "name": "borrower",
          "type": "address"
        },
        {
          "name": "loanAmount",
          "type": "uint256"
        }
      ],
      "name": "issueLoan",
      "outputs": [],
      "payable": false,
      "stateMutability": "nonpayable",
      "type": "function"
    },
    {
      "constant": false,
      "inputs": [
        {
          "name": "loanAmount",
          "type": "uint256"
        }
      ],
      "name": "loanRepaymentNotification",
      "outputs": [],
      "payable": false,
      "stateMutability": "nonpayable",
      "type": "function"
    },
    {
      "constant": false,
      "inputs": [
        {
          "name": "totalLoanAmountCollected",
          "type": "uint256"
        }
      ],
      "name": "loanCollectionNotification",
      "outputs": [],
      "payable": false,
      "stateMutability": "nonpayable",
      "type": "function"
    },
    {
      "constant": false,
      "inputs": [
        {
          "name": "legacyAugmintTokenAddress",
          "type": "address"
        },
        {
          "name": "newAcceptedState",
          "type": "bool"
        }
      ],
      "name": "setAcceptedLegacyAugmintToken",
      "outputs": [],
      "payable": false,
      "stateMutability": "nonpayable",
      "type": "function"
    },
    {
      "constant": false,
      "inputs": [
        {
          "name": "_ltdLockDifferenceLimit",
          "type": "uint256"
        },
        {
          "name": "_ltdLoanDifferenceLimit",
          "type": "uint256"
        },
        {
          "name": "_allowedLtdDifferenceAmount",
          "type": "uint256"
        }
      ],
      "name": "setParams",
      "outputs": [],
      "payable": false,
      "stateMutability": "nonpayable",
      "type": "function"
    },
    {
      "constant": false,
      "inputs": [
        {
          "name": "from",
          "type": "address"
        },
        {
          "name": "amount",
          "type": "uint256"
        },
        {
          "name": "",
          "type": "uint256"
        }
      ],
      "name": "transferNotification",
      "outputs": [],
      "payable": false,
      "stateMutability": "nonpayable",
      "type": "function"
    },
    {
      "constant": true,
      "inputs": [],
      "name": "getParams",
      "outputs": [
        {
          "name": "",
          "type": "uint256[3]"
        }
      ],
      "payable": false,
      "stateMutability": "view",
      "type": "function"
    },
    {
      "constant": true,
      "inputs": [],
      "name": "getLoanToDepositRatio",
      "outputs": [
        {
          "name": "loanToDepositRatio",
          "type": "uint256"
        }
      ],
      "payable": false,
      "stateMutability": "view",
      "type": "function"
    },
    {
      "constant": true,
      "inputs": [
        {
          "name": "minLockAmount",
          "type": "uint256"
        },
        {
          "name": "interestPt",
          "type": "uint256"
        }
      ],
      "name": "getMaxLockAmount",
      "outputs": [
        {
          "name": "maxLock",
          "type": "uint256"
        }
      ],
      "payable": false,
      "stateMutability": "view",
      "type": "function"
    },
    {
      "constant": true,
      "inputs": [
        {
          "name": "minLoanAmount",
          "type": "uint256"
        }
      ],
      "name": "getMaxLoanAmount",
      "outputs": [
        {
          "name": "maxLoan",
          "type": "uint256"
        }
      ],
      "payable": false,
      "stateMutability": "view",
      "type": "function"
    },
    {
      "constant": true,
      "inputs": [],
      "name": "getMaxLockAmountAllowedByLtd",
      "outputs": [
        {
          "name": "maxLockByLtd",
          "type": "uint256"
        }
      ],
      "payable": false,
      "stateMutability": "view",
      "type": "function"
    },
    {
      "constant": true,
      "inputs": [],
      "name": "getMaxLoanAmountAllowedByLtd",
      "outputs": [
        {
          "name": "maxLoanByLtd",
          "type": "uint256"
        }
      ],
      "payable": false,
      "stateMutability": "view",
      "type": "function"
    }
  ],
  "bytecode": "0x6060604052341561000f57600080fd5b60405160c0806121f88339810160405280805190602001909190805190602001909190805190602001909190805190602001909190805190602001909190805190602001909190505060016000803373ffffffffffffffffffffffffffffffffffffffff1673ffffffffffffffffffffffffffffffffffffffff16815260200190815260200160002060007f4d6f6e6574617279426f6172640000000000000000000000000000000000000060001916815260200190815260200160002060006101000a81548160ff0219169083151502179055503373ffffffffffffffffffffffffffffffffffffffff167fc65937e3dbcb9fb30f646815dd67a3dbd09ba17718cbcb54efbe3635f8e0a6fe60405180807f4d6f6e6574617279426f61726400000000000000000000000000000000000000815250602001905060405180910390a285600160006101000a81548173ffffffffffffffffffffffffffffffffffffffff021916908373ffffffffffffffffffffffffffffffffffffffff16021790555084600360006101000a81548173ffffffffffffffffffffffffffffffffffffffff021916908373ffffffffffffffffffffffffffffffffffffffff16021790555083600260006101000a81548173ffffffffffffffffffffffffffffffffffffffff021916908373ffffffffffffffffffffffffffffffffffffffff160217905550826007819055508160088190555080600981905550505050505050611fb98061023f6000396000f300606060405260043610610196576000357c0100000000000000000000000000000000000000000000000000000000900463ffffffff168063023f4a661461019b57806305a9f274146101be57806312ef900b146101e75780631768fd6f146102105780631895687d146102395780631a8887081461027b578063265b5d93146102a4578063295777be146102e45780634c9e502e146103075780634cae5f991461033057806358c3160314610353578063596368e0146103765780635a0ce6761461039f5780635b225526146103d45780635e615a6b146104325780635fcf0455146104835780635fe07013146104d857806364217bdf1461051e57806364e7e4a41461054a57806373396ff414610595578063777896f8146105be5780637abdffd5146105e75780637b9b9c89146106105780637e780157146106655780637ea469931461068e57806392413ddc1461070757806392969b30146107585780639ac3317b1461079c578063d0d968c014610815578063e95f2c7d14610838578063f38a82621461086f578063fe1ebb04146108b5575b600080fd5b34156101a657600080fd5b6101bc600480803590602001909190505061090a565b005b34156101c957600080fd5b6101d1610ab0565b6040518082815260200191505060405180910390f35b34156101f257600080fd5b6101fa610ab6565b6040518082815260200191505060405180910390f35b341561021b57600080fd5b610223610b91565b6040518082815260200191505060405180910390f35b341561024457600080fd5b610279600480803573ffffffffffffffffffffffffffffffffffffffff16906020019091908035906020019091905050610c6c565b005b341561028657600080fd5b61028e610e01565b6040518082815260200191505060405180910390f35b34156102af57600080fd5b6102ce6004808035906020019091908035906020019091905050610e07565b6040518082815260200191505060405180910390f35b34156102ef57600080fd5b6103056004808035906020019091905050610f5f565b005b341561031257600080fd5b61031a611009565b6040518082815260200191505060405180910390f35b341561033b57600080fd5b610351600480803590602001909190505061100f565b005b341561035e57600080fd5b61037460048080359060200190919050506110b9565b005b341561038157600080fd5b610389611163565b6040518082815260200191505060405180910390f35b34156103aa57600080fd5b6103d26004808035906020019091908035906020019091908035906020019091905050611169565b005b34156103df57600080fd5b610418600480803573ffffffffffffffffffffffffffffffffffffffff1690602001909190803560001916906020019091905050611262565b604051808215151515815260200191505060405180910390f35b341561043d57600080fd5b610445611291565b6040518082600360200280838360005b83811015610470578082015181840152602081019050610455565b5050505090500191505060405180910390f35b341561048e57600080fd5b6104966112c0565b604051808273ffffffffffffffffffffffffffffffffffffffff1673ffffffffffffffffffffffffffffffffffffffff16815260200191505060405180910390f35b34156104e357600080fd5b61051c600480803573ffffffffffffffffffffffffffffffffffffffff16906020019091908035600019169060200190919050506112e6565b005b341561052957600080fd5b610548600480803590602001909190803590602001909190505061143c565b005b341561055557600080fd5b610593600480803573ffffffffffffffffffffffffffffffffffffffff16906020019091908035906020019091908035906020019091905050611627565b005b34156105a057600080fd5b6105a861187b565b6040518082815260200191505060405180910390f35b34156105c957600080fd5b6105d16118bf565b6040518082815260200191505060405180910390f35b34156105f257600080fd5b6105fa6118c5565b6040518082815260200191505060405180910390f35b341561061b57600080fd5b6106236118cb565b604051808273ffffffffffffffffffffffffffffffffffffffff1673ffffffffffffffffffffffffffffffffffffffff16815260200191505060405180910390f35b341561067057600080fd5b6106786118f1565b6040518082815260200191505060405180910390f35b341561069957600080fd5b610705600480803573ffffffffffffffffffffffffffffffffffffffff16906020019091908035906020019082018035906020019080806020026020016040519081016040528093929190818152602001838360200280828437820191505050505050919050506118f8565b005b341561071257600080fd5b61073e600480803573ffffffffffffffffffffffffffffffffffffffff16906020019091905050611940565b604051808215151515815260200191505060405180910390f35b341561076357600080fd5b61079a600480803573ffffffffffffffffffffffffffffffffffffffff169060200190919080351515906020019091905050611960565b005b34156107a757600080fd5b610813600480803573ffffffffffffffffffffffffffffffffffffffff1690602001909190803590602001908201803590602001908080602002602001604051908101604052809392919081815260200183836020028082843782019150505050505091905050611abc565b005b341561082057600080fd5b6108366004808035906020019091905050611b90565b005b341561084357600080fd5b6108596004808035906020019091905050611d36565b6040518082815260200191505060405180910390f35b341561087a57600080fd5b6108b3600480803573ffffffffffffffffffffffffffffffffffffffff1690602001909190803560001916906020019091905050611d5b565b005b34156108c057600080fd5b6108c8611eb1565b604051808273ffffffffffffffffffffffffffffffffffffffff1673ffffffffffffffffffffffffffffffffffffffff16815260200191505060405180910390f35b7f4d6f6e6574617279426f617264000000000000000000000000000000000000006000803373ffffffffffffffffffffffffffffffffffffffff1673ffffffffffffffffffffffffffffffffffffffff1681526020019081526020016000206000826000191660001916815260200190815260200160002060009054906101000a900460ff16151561099b57600080fd5b6109b082600454611ed790919063ffffffff16565b600481905550600160009054906101000a900473ffffffffffffffffffffffffffffffffffffffff1673ffffffffffffffffffffffffffffffffffffffff16631207f0c1600360009054906101000a900473ffffffffffffffffffffffffffffffffffffffff16846040518363ffffffff167c0100000000000000000000000000000000000000000000000000000000028152600401808373ffffffffffffffffffffffffffffffffffffffff1673ffffffffffffffffffffffffffffffffffffffff16815260200182815260200192505050600060405180830381600087803b1515610a9c57600080fd5b5af11515610aa957600080fd5b5050505050565b60065481565b6000806000610afc620f4240610aee610add620f4240600854611ed790919063ffffffff16565b600654611ef890919063ffffffff16565b611f2e90919063ffffffff16565b9150816005541015610b2257610b1d60055483611f4990919063ffffffff16565b610b25565b60005b9150610b3e600954600654611ed790919063ffffffff16565b60055411610b7657610b71600554610b63600954600654611ed790919063ffffffff16565b611f4990919063ffffffff16565b610b79565b60005b9050808211610b885780610b8a565b815b9250505090565b6000806000610bd7610bb1600754620f4240611f4990919063ffffffff16565b610bc9620f4240600554611ef890919063ffffffff16565b611f2e90919063ffffffff16565b9150816006541015610bfd57610bf860065483611f4990919063ffffffff16565b610c00565b60005b9150610c19600954600654611ed790919063ffffffff16565b60055411610c5157610c4c600654610c3e600954600554611ed790919063ffffffff16565b611f4990919063ffffffff16565b610c54565b60005b9050808211610c635780610c65565b815b9250505090565b6000803373ffffffffffffffffffffffffffffffffffffffff1673ffffffffffffffffffffffffffffffffffffffff16815260200190815260200160002060007f4c6f616e4d616e61676572436f6e74726163747300000000000000000000000060001916815260200190815260200160002060009054906101000a900460ff161515610cf857600080fd5b610d00610ab6565b8111151515610d0e57600080fd5b610d2381600554611ed790919063ffffffff16565b600581905550600160009054906101000a900473ffffffffffffffffffffffffffffffffffffffff1673ffffffffffffffffffffffffffffffffffffffff16631207f0c183836040518363ffffffff167c0100000000000000000000000000000000000000000000000000000000028152600401808373ffffffffffffffffffffffffffffffffffffffff1673ffffffffffffffffffffffffffffffffffffffff16815260200182815260200192505050600060405180830381600087803b1515610ded57600080fd5b5af11515610dfa57600080fd5b5050505050565b60085481565b6000806000610f2884610f1a620f4240600160009054906101000a900473ffffffffffffffffffffffffffffffffffffffff1673ffffffffffffffffffffffffffffffffffffffff166370a08231600260009054906101000a900473ffffffffffffffffffffffffffffffffffffffff166040518263ffffffff167c0100000000000000000000000000000000000000000000000000000000028152600401808273ffffffffffffffffffffffffffffffffffffffff1673ffffffffffffffffffffffffffffffffffffffff168152602001915050602060405180830381600087803b1515610ef557600080fd5b5af11515610f0257600080fd5b50505060405180519050611ef890919063ffffffff16565b611f2e90919063ffffffff16565b9150610f32610b91565b9050808210610f415780610f43565b815b9250848310610f525782610f55565b60005b9250505092915050565b6000803373ffffffffffffffffffffffffffffffffffffffff1673ffffffffffffffffffffffffffffffffffffffff16815260200190815260200160002060007f4c6f636b6572436f6e747261637473000000000000000000000000000000000060001916815260200190815260200160002060009054906101000a900460ff161515610feb57600080fd5b61100081600654611f4990919063ffffffff16565b60068190555050565b60055481565b6000803373ffffffffffffffffffffffffffffffffffffffff1673ffffffffffffffffffffffffffffffffffffffff16815260200190815260200160002060007f4c6f616e4d616e61676572436f6e74726163747300000000000000000000000060001916815260200190815260200160002060009054906101000a900460ff16151561109b57600080fd5b6110b081600554611f4990919063ffffffff16565b60058190555050565b6000803373ffffffffffffffffffffffffffffffffffffffff1673ffffffffffffffffffffffffffffffffffffffff16815260200190815260200160002060007f4c6f616e4d616e61676572436f6e74726163747300000000000000000000000060001916815260200190815260200160002060009054906101000a900460ff16151561114557600080fd5b61115a81600554611f4990919063ffffffff16565b60058190555050565b60045481565b7f4d6f6e6574617279426f617264000000000000000000000000000000000000006000803373ffffffffffffffffffffffffffffffffffffffff1673ffffffffffffffffffffffffffffffffffffffff1681526020019081526020016000206000826000191660001916815260200190815260200160002060009054906101000a900460ff1615156111fa57600080fd5b8360078190555082600881905550816009819055507fc67740ec6b8e01e85235967c5031201015f6bc252124415197f443c6d48a2a8f60075460085460095460405180848152602001838152602001828152602001935050505060405180910390a150505050565b60006020528160005260406000206020528060005260406000206000915091509054906101000a900460ff1681565b611299611f65565b60606040519081016040528060075481526020016008548152602001600954815250905090565b600260009054906101000a900473ffffffffffffffffffffffffffffffffffffffff1681565b6000803373ffffffffffffffffffffffffffffffffffffffff1673ffffffffffffffffffffffffffffffffffffffff16815260200190815260200160002060007f4d6f6e6574617279426f6172640000000000000000000000000000000000000060001916815260200190815260200160002060009054906101000a900460ff16151561137257600080fd5b60008060008473ffffffffffffffffffffffffffffffffffffffff1673ffffffffffffffffffffffffffffffffffffffff1681526020019081526020016000206000836000191660001916815260200190815260200160002060006101000a81548160ff0219169083151502179055508173ffffffffffffffffffffffffffffffffffffffff167f789770131846de4d1f28418f0f957cdf4fcabe5eccf70067083e20ecece69a348260405180826000191660001916815260200191505060405180910390a25050565b6000803373ffffffffffffffffffffffffffffffffffffffff1673ffffffffffffffffffffffffffffffffffffffff16815260200190815260200160002060007f4c6f636b6572436f6e747261637473000000000000000000000000000000000060001916815260200190815260200160002060009054906101000a900460ff1615156114c857600080fd5b6114d0610b91565b82111515156114de57600080fd5b6114f382600654611ed790919063ffffffff16565b600681905550600260009054906101000a900473ffffffffffffffffffffffffffffffffffffffff1673ffffffffffffffffffffffffffffffffffffffff1663726254d2600160009054906101000a900473ffffffffffffffffffffffffffffffffffffffff1633846040518463ffffffff167c0100000000000000000000000000000000000000000000000000000000028152600401808473ffffffffffffffffffffffffffffffffffffffff1673ffffffffffffffffffffffffffffffffffffffff1681526020018373ffffffffffffffffffffffffffffffffffffffff1673ffffffffffffffffffffffffffffffffffffffff1681526020018281526020019350505050600060405180830381600087803b151561161357600080fd5b5af1151561162057600080fd5b5050505050565b6000339050600a60008273ffffffffffffffffffffffffffffffffffffffff1673ffffffffffffffffffffffffffffffffffffffff16815260200190815260200160002060009054906101000a900460ff16151561168457600080fd5b8073ffffffffffffffffffffffffffffffffffffffff166342966c68846040518263ffffffff167c010000000000000000000000000000000000000000000000000000000002815260040180828152602001915050600060405180830381600087803b15156116f257600080fd5b5af115156116ff57600080fd5b505050600160009054906101000a900473ffffffffffffffffffffffffffffffffffffffff1673ffffffffffffffffffffffffffffffffffffffff16631207f0c185856040518363ffffffff167c0100000000000000000000000000000000000000000000000000000000028152600401808373ffffffffffffffffffffffffffffffffffffffff1673ffffffffffffffffffffffffffffffffffffffff16815260200182815260200192505050600060405180830381600087803b15156117c657600080fd5b5af115156117d357600080fd5b5050507fed3be8b083d065309356e7da4e9c3ea55ca16ce92d8c239b0bae2aa6fcf32432338585604051808473ffffffffffffffffffffffffffffffffffffffff1673ffffffffffffffffffffffffffffffffffffffff1681526020018373ffffffffffffffffffffffffffffffffffffffff1673ffffffffffffffffffffffffffffffffffffffff168152602001828152602001935050505060405180910390a150505050565b600080600654146118b7576118b26005546118a4620f4240600654611ef890919063ffffffff16565b611f2e90919063ffffffff16565b6118ba565b60005b905090565b60095481565b60075481565b600160009054906101000a900473ffffffffffffffffffffffffffffffffffffffff1681565b620f424081565b60008082519150600090505b8181101561193a5761192d84848381518110151561191e57fe5b906020019060200201516112e6565b8080600101915050611904565b50505050565b600a6020528060005260406000206000915054906101000a900460ff1681565b7f4d6f6e6574617279426f617264000000000000000000000000000000000000006000803373ffffffffffffffffffffffffffffffffffffffff1673ffffffffffffffffffffffffffffffffffffffff1681526020019081526020016000206000826000191660001916815260200190815260200160002060009054906101000a900460ff1615156119f157600080fd5b81600a60008573ffffffffffffffffffffffffffffffffffffffff1673ffffffffffffffffffffffffffffffffffffffff16815260200190815260200160002060006101000a81548160ff0219169083151502179055507fae884efbcf119c5626909ea781d57194bdb5943d13bb537cdec2fbd8294febbf8383604051808373ffffffffffffffffffffffffffffffffffffffff1673ffffffffffffffffffffffffffffffffffffffff168152602001821515151581526020019250505060405180910390a1505050565b6000806000803373ffffffffffffffffffffffffffffffffffffffff1673ffffffffffffffffffffffffffffffffffffffff16815260200190815260200160002060007f4d6f6e6574617279426f6172640000000000000000000000000000000000000060001916815260200190815260200160002060009054906101000a900460ff161515611b4b57600080fd5b82519150600090505b81811015611b8a57611b7d848483815181101515611b6e57fe5b90602001906020020151611d5b565b8080600101915050611b54565b50505050565b7f4d6f6e6574617279426f617264000000000000000000000000000000000000006000803373ffffffffffffffffffffffffffffffffffffffff1673ffffffffffffffffffffffffffffffffffffffff1681526020019081526020016000206000826000191660001916815260200190815260200160002060009054906101000a900460ff161515611c2157600080fd5b611c3682600454611f4990919063ffffffff16565b600481905550600360009054906101000a900473ffffffffffffffffffffffffffffffffffffffff1673ffffffffffffffffffffffffffffffffffffffff16639dc29fac600160009054906101000a900473ffffffffffffffffffffffffffffffffffffffff16846040518363ffffffff167c0100000000000000000000000000000000000000000000000000000000028152600401808373ffffffffffffffffffffffffffffffffffffffff1673ffffffffffffffffffffffffffffffffffffffff16815260200182815260200192505050600060405180830381600087803b1515611d2257600080fd5b5af11515611d2f57600080fd5b5050505050565b600080611d41610ab6565b9050828110611d505780611d53565b60005b915050919050565b6000803373ffffffffffffffffffffffffffffffffffffffff1673ffffffffffffffffffffffffffffffffffffffff16815260200190815260200160002060007f4d6f6e6574617279426f6172640000000000000000000000000000000000000060001916815260200190815260200160002060009054906101000a900460ff161515611de757600080fd5b60016000808473ffffffffffffffffffffffffffffffffffffffff1673ffffffffffffffffffffffffffffffffffffffff1681526020019081526020016000206000836000191660001916815260200190815260200160002060006101000a81548160ff0219169083151502179055508173ffffffffffffffffffffffffffffffffffffffff167fc65937e3dbcb9fb30f646815dd67a3dbd09ba17718cbcb54efbe3635f8e0a6fe8260405180826000191660001916815260200191505060405180910390a25050565b600360009054906101000a900473ffffffffffffffffffffffffffffffffffffffff1681565b6000808284019050838110151515611eee57600080fd5b8091505092915050565b60008082840290506000841480611f195750828482811515611f1657fe5b04145b1515611f2457600080fd5b8091505092915050565b6000808284811515611f3c57fe5b0490508091505092915050565b6000828211151515611f5a57600080fd5b818303905092915050565b6060604051908101604052806003905b6000815260200190600190039081611f7557905050905600a165627a7a72305820cd4f8b56ed5baf2b9ece59204dd4488c267b02c95389f9fbbffbd8510d5c35060029",
  "source": "/* MonetarySupervisor\n    - maintains system wide KPIs (eg totalLockAmount, totalLoanAmount)\n    - holds system wide parameters/limits\n    - enforces system wide limits\n    - burns and issues to AugmintReserves\n    - Send funds from reserve to exchange when intervening (not implemented yet)\n    - Converts older versions of AugmintTokens in 1:1 to new\n\n    TODO:\n        - MonetarySupervisorInterface (and use it everywhere)\n        - interestEarnedAccount setter?\n        - create and use InterestEarnedAccount interface instead?\n\n*/\n\npragma solidity 0.4.21;\nimport \"./generic/SafeMath.sol\";\nimport \"./generic/Restricted.sol\";\nimport \"./interfaces/AugmintTokenInterface.sol\";\nimport \"./interfaces/TokenReceiver.sol\";\nimport \"./InterestEarnedAccount.sol\";\nimport \"./AugmintReserves.sol\";\n\n\ncontract MonetarySupervisor is Restricted, TokenReceiver { // solhint-disable-line no-empty-blocks\n    using SafeMath for uint256;\n\n    uint public constant PERCENT_100 = 1000000;\n\n    AugmintTokenInterface public augmintToken;\n    InterestEarnedAccount public interestEarnedAccount;\n    AugmintReserves public augmintReserves;\n\n    uint public issuedByMonetaryBoard; // supply issued manually by monetary board\n\n    uint public totalLoanAmount; // total amount of all loans without interest, in token\n    uint public totalLockedAmount; // total amount of all locks without premium, in token\n\n    /**********\n        Parameters to ensure totalLoanAmount or totalLockedAmount difference is within limits and system also works\n        when total loan or lock amounts are low.\n            for test calculations: https://docs.google.com/spreadsheets/d/1MeWYPYZRIm1n9lzpvbq8kLfQg1hhvk5oJY6NrR401S0\n    **********/\n    uint public ltdLockDifferenceLimit; /* only allow a new lock if Loan To Deposit ratio would stay above\n                                            (1 - ltdLockDifferenceLimit) with new lock. Stored as parts per million */\n    uint public ltdLoanDifferenceLimit; /* only allow a new loan if Loan To Deposit ratio would stay above\n                                            (1 + ltdLoanDifferenceLimit) with new loan. Stored as parts per million */\n    /* allowedLtdDifferenceAmount param is to ensure the system is not \"freezing\" when totalLoanAmount or\n            totalLockAmount is low.\n        It allows a new loan or lock (up to an amount to reach this difference) even if LTD will go below / above \n            ltdLockDifferenceLimit / ltdLoanDifferenceLimit with the new lock/loan */\n    uint public allowedLtdDifferenceAmount;\n\n    /* Previously deployed AugmintTokens which are accepted for conversion (see transferNotification() )\n        NB: it's not iterable so old version addresses needs to be added for UI manually after each deploy */\n    mapping(address => bool) public acceptedLegacyAugmintTokens;\n\n    event ParamsChanged(uint ltdLockDifferenceLimit, uint ltdLoanDifferenceLimit, uint allowedLtdDifferenceAmount);\n\n    event AcceptedLegacyAugmintTokenChanged(address augmintTokenAddress, bool newAcceptedState);\n\n    event LegacyTokenConverted(address oldTokenAddress, address account, uint amount);\n\n    function MonetarySupervisor(AugmintTokenInterface _augmintToken, AugmintReserves _augmintReserves,\n        InterestEarnedAccount _interestEarnedAccount,\n        uint _ltdLockDifferenceLimit, uint _ltdLoanDifferenceLimit, uint _allowedLtdDifferenceAmount) public {\n        augmintToken = _augmintToken;\n        augmintReserves = _augmintReserves;\n        interestEarnedAccount = _interestEarnedAccount;\n\n        ltdLockDifferenceLimit = _ltdLockDifferenceLimit;\n        ltdLoanDifferenceLimit = _ltdLoanDifferenceLimit;\n        allowedLtdDifferenceAmount = _allowedLtdDifferenceAmount;\n    }\n\n    function issueToReserve(uint amount) external restrict(\"MonetaryBoard\") {\n        issuedByMonetaryBoard = issuedByMonetaryBoard.add(amount);\n        augmintToken.issueTo(augmintReserves, amount);\n    }\n\n    function burnFromReserve(uint amount) external restrict(\"MonetaryBoard\") {\n        issuedByMonetaryBoard = issuedByMonetaryBoard.sub(amount);\n        augmintReserves.burn(augmintToken, amount);\n    }\n\n    /* Locker requesting interest when locking funds. Enforcing LTD to stay within range allowed by LTD params\n        NB: it does not know about min loan amount, it's the loan contract's responsibility to enforce it  */\n    function requestInterest(uint amountToLock, uint interestAmount) external {\n        require(permissions[msg.sender][\"LockerContracts\"]); // only whitelisted LockerContracts\n        require(amountToLock <= getMaxLockAmountAllowedByLtd());\n\n        totalLockedAmount = totalLockedAmount.add(amountToLock);\n        interestEarnedAccount.transferInterest(augmintToken, msg.sender, interestAmount); // transfer interest to Locker\n    }\n\n    // Locker notifying when releasing funds to update KPIs\n    function releaseFundsNotification(uint lockedAmount) external {\n        require(permissions[msg.sender][\"LockerContracts\"]); // only whitelisted LockerContracts\n        totalLockedAmount = totalLockedAmount.sub(lockedAmount);\n    }\n\n    /* Issue loan if LTD stays within range allowed by LTD params\n        NB: it does not know about min loan amount, it's the loan contract's responsibility to enforce it */\n    function issueLoan(address borrower, uint loanAmount) external {\n        require(permissions[msg.sender][\"LoanManagerContracts\"]); // only whitelisted LoanManager contracts\n        require(loanAmount <= getMaxLoanAmountAllowedByLtd());\n        totalLoanAmount = totalLoanAmount.add(loanAmount);\n        augmintToken.issueTo(borrower, loanAmount);\n    }\n\n    function loanRepaymentNotification(uint loanAmount) external {\n        require(permissions[msg.sender][\"LoanManagerContracts\"]); // only whitelisted Lender contracts\n        totalLoanAmount = totalLoanAmount.sub(loanAmount);\n    }\n\n    // NB: this is called by Lender contract with the sum of all loans collected in batch\n    function loanCollectionNotification(uint totalLoanAmountCollected) external {\n        require(permissions[msg.sender][\"LoanManagerContracts\"]); // only whitelisted Lender contracts\n        totalLoanAmount = totalLoanAmount.sub(totalLoanAmountCollected);\n    }\n\n    function setAcceptedLegacyAugmintToken(address legacyAugmintTokenAddress, bool newAcceptedState)\n    external restrict(\"MonetaryBoard\") {\n        acceptedLegacyAugmintTokens[legacyAugmintTokenAddress] = newAcceptedState;\n        emit AcceptedLegacyAugmintTokenChanged(legacyAugmintTokenAddress, newAcceptedState);\n    }\n\n    function setParams(uint _ltdLockDifferenceLimit, uint _ltdLoanDifferenceLimit, uint _allowedLtdDifferenceAmount)\n    external restrict(\"MonetaryBoard\") {\n        ltdLockDifferenceLimit = _ltdLockDifferenceLimit;\n        ltdLoanDifferenceLimit = _ltdLoanDifferenceLimit;\n        allowedLtdDifferenceAmount = _allowedLtdDifferenceAmount;\n\n        emit ParamsChanged(ltdLockDifferenceLimit, ltdLoanDifferenceLimit, allowedLtdDifferenceAmount);\n    }\n\n    /* User can request to convert their tokens from older AugmintToken versions in 1:1\n      transferNotification is called from AugmintToken's transferAndNotify\n     Flow for converting old tokens:\n        1) user calls old token contract's transferAndNotify with the amount to convert,\n                addressing the new MonetarySupervisor Contract\n        2) transferAndNotify transfers user's old tokens to the current MonetarySupervisor contract's address\n        3) transferAndNotify calls MonetarySupervisor.transferNotification\n        4) MonetarySupervisor checks if old AugmintToken is permitted\n        5) MonetarySupervisor issues new tokens to user's account in current AugmintToken\n        6) MonetarySupervisor burns old tokens from own balance\n    */\n    function transferNotification(address from, uint amount, uint /* data, not used */ ) external {\n        AugmintTokenInterface legacyToken = AugmintTokenInterface(msg.sender);\n        require(acceptedLegacyAugmintTokens[legacyToken]);\n\n        legacyToken.burn(amount);\n        augmintToken.issueTo(from, amount);\n        emit LegacyTokenConverted(msg.sender, from, amount);\n    }\n\n    // helper function for FrontEnd to reduce calls\n    function getParams() external view returns(uint[3]) {\n        return [ltdLockDifferenceLimit, ltdLoanDifferenceLimit, allowedLtdDifferenceAmount];\n    }\n\n    function getLoanToDepositRatio() external view returns (uint loanToDepositRatio) {\n        loanToDepositRatio = totalLockedAmount == 0 ? 0 : totalLockedAmount.mul(PERCENT_100).div(totalLoanAmount);\n    }\n\n    /* Helper function for UI.\n        Returns max lock amount based on minLockAmount, interestPt, using LTD params & interestEarnedAccount balance */\n    function getMaxLockAmount(uint minLockAmount, uint interestPt) external view returns (uint maxLock) {\n        uint allowedByEarning = augmintToken.balanceOf(address(interestEarnedAccount)).mul(PERCENT_100).div(interestPt);\n        uint allowedByLtd = getMaxLockAmountAllowedByLtd();\n        maxLock = allowedByEarning < allowedByLtd ? allowedByEarning : allowedByLtd;\n        maxLock = maxLock < minLockAmount ? 0 : maxLock;\n    }\n\n    /* Helper function for UI.\n        Returns max loan amount based on minLoanAmont using LTD params */\n    function getMaxLoanAmount(uint minLoanAmount) external view returns (uint maxLoan) {\n        uint allowedByLtd = getMaxLoanAmountAllowedByLtd();\n        maxLoan = allowedByLtd < minLoanAmount ? 0 : allowedByLtd;\n    }\n\n    /* returns maximum lockable token amount allowed by LTD params. */\n    function getMaxLockAmountAllowedByLtd() public view returns(uint maxLockByLtd) {\n        uint allowedByLtdDifferencePt = totalLoanAmount.mul(PERCENT_100).div(PERCENT_100.sub(ltdLockDifferenceLimit));\n        allowedByLtdDifferencePt = totalLockedAmount >= allowedByLtdDifferencePt ?\n                                        0 : allowedByLtdDifferencePt.sub(totalLockedAmount);\n\n        uint allowedByLtdDifferenceAmount = totalLoanAmount > totalLockedAmount.add(allowedLtdDifferenceAmount) ?\n                                        0 : totalLoanAmount.add(allowedLtdDifferenceAmount).sub(totalLockedAmount);\n\n        maxLockByLtd = allowedByLtdDifferencePt > allowedByLtdDifferenceAmount ?\n                                        allowedByLtdDifferencePt : allowedByLtdDifferenceAmount;\n    }\n\n    /* returns maximum borrowable token amount allowed by LTD params */\n    function getMaxLoanAmountAllowedByLtd() public view returns(uint maxLoanByLtd) {\n        uint allowedByLtdDifferencePt = totalLockedAmount.mul(ltdLoanDifferenceLimit.add(PERCENT_100)).div(PERCENT_100);\n        allowedByLtdDifferencePt = totalLoanAmount >= allowedByLtdDifferencePt ?\n                                        0 : allowedByLtdDifferencePt.sub(totalLoanAmount);\n\n        uint allowedByLtdDifferenceAmount = totalLoanAmount > totalLockedAmount.add(allowedLtdDifferenceAmount) ?\n                                        0 : totalLockedAmount.add(allowedLtdDifferenceAmount).sub(totalLoanAmount);\n\n        maxLoanByLtd = allowedByLtdDifferencePt > allowedByLtdDifferenceAmount ?\n                                        allowedByLtdDifferencePt : allowedByLtdDifferenceAmount;\n    }\n\n}\n",
  "sourcePath": "/Users/petro/ether/augmint-web/augmint-contracts/contracts/MonetarySupervisor.sol",
  "compiler": {
    "name": "solc",
    "version": "0.4.21+commit.dfe3193c.Emscripten.clang"
  },
  "schemaVersion": "2.0.0",
  "updatedAt": "2018-04-12T13:30:47.822Z"
}