{
  "contractName": "OrdersLib",
  "abi": [
    {
      "constant": false,
      "inputs": [
        {
          "name": "self",
          "type": "OrdersLib.OrderList storage"
        },
        {
          "name": "_index",
          "type": "uint80"
        }
      ],
      "name": "iterateNext",
      "outputs": [
        {
          "name": "",
          "type": "uint80"
        }
      ],
      "payable": false,
      "type": "function",
      "stateMutability": "nonpayable"
    },
    {
      "constant": false,
      "inputs": [
        {
          "name": "self",
          "type": "OrdersLib.OrderList storage"
        }
      ],
      "name": "iterateFirst",
      "outputs": [
        {
          "name": "",
          "type": "uint80"
        }
      ],
      "payable": false,
      "type": "function",
      "stateMutability": "nonpayable"
    },
    {
      "constant": false,
      "inputs": [
        {
          "name": "self",
          "type": "OrdersLib.OrderList storage"
        },
        {
          "name": "_index",
          "type": "uint80"
        }
      ],
      "name": "iteratePrev",
      "outputs": [
        {
          "name": "",
          "type": "uint80"
        }
      ],
      "payable": false,
      "type": "function",
      "stateMutability": "nonpayable"
    },
    {
      "constant": false,
      "inputs": [
        {
          "name": "self",
          "type": "OrdersLib.OrderList storage"
        },
        {
          "name": "_index",
          "type": "uint80"
        }
      ],
      "name": "iterateValid",
      "outputs": [
        {
          "name": "",
          "type": "bool"
        }
      ],
      "payable": false,
      "type": "function",
      "stateMutability": "nonpayable"
    }
  ],
  "bytecode": "0x6060604052341561000f57600080fd5b6102b98061001e6000396000f300606060405260043610610062576000357c0100000000000000000000000000000000000000000000000000000000900463ffffffff168063754646f8146100675780639854d129146100c0578063d1dd415e14610104578063e25fb1eb1461015d575b600080fd5b610092600480803590602001909190803569ffffffffffffffffffff169060200190919050506101a2565b604051808269ffffffffffffffffffff1669ffffffffffffffffffff16815260200191505060405180910390f35b6100d660048080359060200190919050506101f4565b604051808269ffffffffffffffffffff1669ffffffffffffffffffff16815260200191505060405180910390f35b61012f600480803590602001909190803569ffffffffffffffffffff16906020019091905050610218565b604051808269ffffffffffffffffffff1669ffffffffffffffffffff16815260200191505060405180910390f35b610188600480803590602001909190803569ffffffffffffffffffff1690602001909190505061026a565b604051808215151515815260200191505060405180910390f35b6000826001016001830369ffffffffffffffffffff168154811015156101c457fe5b9060005260206000209060030201600001600a9054906101000a900469ffffffffffffffffffff16905092915050565b60008160000160009054906101000a900469ffffffffffffffffffff169050919050565b6000826001016001830369ffffffffffffffffffff1681548110151561023a57fe5b906000526020600020906003020160000160009054906101000a900469ffffffffffffffffffff16905092915050565b600082600101805490506001830369ffffffffffffffffffff16109050929150505600a165627a7a72305820a92bda68a7d5327cb998a1d5139d295d151d02e8d051c39d85201402716c2bc80029",
  "source": "pragma solidity ^0.4.11;\n\nlibrary OrdersLib {\n    uint80 constant None = uint80(0);\n\n    // this struct holds open sell and buy orders actual state\n    // Ie. amount is updated when order partially filled\n    struct OrderList {\n        uint80 first;\n        uint80 last;\n        uint80 count;\n        Order[] orders;\n    }\n\n    enum OrderType {EthSell, UcdSell}\n    // all open orders\n    struct OrderData {\n        address maker;\n        uint80 makerOrderIdx; // idx in map(maker => [])\n        OrderType orderType;\n        uint amount; // actual amount to sell left (WEI or UCDC depending on orderType)\n\n    }\n\n    struct Order  {\n        uint80 prev;\n        uint80 next;\n        OrderData order;\n    }\n\n    /// Appends `_data` to the end of the list `self`.\n    function append(OrderList storage self, OrderData _order) internal returns (uint80 index)  {\n        index = uint80(self.orders.push(Order({prev: self.last, next: None, order: _order})));\n        if (self.last == None)\n        {\n            assert (self.first == None && self.count == 0) ;\n            self.first = self.last = index;\n            self.count = 1;\n        }\n        else\n        {\n            self.orders[self.last - 1].next = index;\n            self.last = index;\n            self.count ++;\n        }\n        return index;\n    }\n\n    /// Removes the element identified by index\n    /// `_index` from the list `self`.\n    function remove(OrderList storage self, uint80 _index) internal {\n        Order storage order = self.orders[_index - 1];\n        if (self.count == 1) {\n                self.count = 0;\n                self.first = 0;\n                self.last = 0;\n                order.prev = 0;\n                order.next = 0;\n                return;\n        }\n\n        if (order.prev == None && order.next == None  ) {\n            // this item is already deleted\n            return;\n        }\n        if (order.prev == None)\n            self.first = order.next;\n        if (order.next == None)\n            self.last = order.prev;\n        if (order.prev != None)\n            self.orders[order.prev - 1].next = order.next;\n        if (order.next != None)\n            self.orders[order.next - 1].prev = order.prev;\n        self.count--;\n\n    }\n\n    // Iterator interface\n    function iterateFirst(OrderList storage self) returns (uint80) { return self.first; }\n    function iterateValid(OrderList storage self, uint80 _index) returns (bool) { return _index - 1 < self.orders.length; }\n    function iteratePrev(OrderList storage self, uint80 _index) returns (uint80) { return self.orders[_index - 1].prev; }\n    function iterateNext(OrderList storage self, uint80 _index) returns (uint80) { return self.orders[_index - 1].next; }\n    // function iterateGet(OrderList storage self, uint80 _index) returns (Order) { return self.orders[_index - 1].order; }\n}\n",
  "sourcePath": "/Users/petro/ether/dcm-poc/contracts/OrdersLib.sol",
  "compiler": {
    "name": "solc",
    "version": "0.4.18+commit.9cf6e910.Emscripten.clang"
  },
  "schemaVersion": "1.0.1",
  "updatedAt": "2017-11-02T15:35:41.610Z"
}