{
  "contractName": "OrdersLib",
  "abi": [
    {
      "constant": true,
      "inputs": [],
      "name": "NONE",
      "outputs": [
        {
          "name": "",
          "type": "uint80"
        }
      ],
      "payable": false,
      "stateMutability": "view",
      "type": "function"
    }
  ],
  "bytecode": "0x6060604052341561000f57600080fd5b60a98061001d6000396000f300606060405260043610603f576000357c0100000000000000000000000000000000000000000000000000000000900463ffffffff16806383525394146044575b600080fd5b604a6078565b604051808269ffffffffffffffffffff1669ffffffffffffffffffff16815260200191505060405180910390f35b6000815600a165627a7a7230582046272ce0bdf117a28c20473c3c4082d2b99a49765485613c72cdd10b2d26184c0029",
  "source": "pragma solidity 0.4.18;\n\n\nlibrary OrdersLib {\n    uint80 public constant NONE = uint80(0);\n\n    // this struct holds open sell and buy orders actual state\n    // Ie. amount is updated when order partially filled\n    struct OrderList {\n        uint80 first;\n        uint80 last;\n        uint80 count;\n        Order[] orders;\n    }\n\n    enum OrderType {EthSell, TokenSell}\n\n    // all open orders\n    struct OrderData {\n        address maker;\n        uint80 makerOrderIdx; // idx in map(maker => [])\n        OrderType orderType;\n        uint amount; // actual amount to sell left (WEI or token depending on orderType)\n\n    }\n\n    struct Order {\n        uint80 prev;\n        uint80 next;\n        OrderData order;\n    }\n\n    /// Appends `_data` to the end of the list `self`.\n    function append(OrderList storage self, OrderData _order) internal returns (uint80 index) {\n        index = uint80(self.orders.push(Order({prev: self.last, next: NONE, order: _order})));\n        if (self.last == NONE) {\n            require(self.first == NONE && self.count == 0);\n            self.first = self.last = index;\n            self.count = 1;\n        } else {\n            self.orders[self.last - 1].next = index;\n            self.last = index;\n            self.count++;\n        }\n        return index;\n    }\n\n    /// Removes the element identified by index\n    /// `_index` from the list `self`.\n    function remove(OrderList storage self, uint80 _index) internal {\n        Order storage order = self.orders[_index - 1];\n        if (self.count == 1) {\n            self.count = 0;\n            self.first = 0;\n            self.last = 0;\n            order.prev = 0;\n            order.next = 0;\n            return;\n        }\n\n        if (order.prev == NONE && order.next == NONE) {\n            // this item is already deleted\n            return;\n        }\n        if (order.prev == NONE)\n            self.first = order.next;\n        if (order.next == NONE)\n            self.last = order.prev;\n        if (order.prev != NONE)\n            self.orders[order.prev - 1].next = order.next;\n        if (order.next != NONE)\n            self.orders[order.next - 1].prev = order.prev;\n        self.count--;\n\n    }\n\n    // Iterator interface\n    function iterateFirst(OrderList storage self) internal view returns (uint80) { return self.first; }\n\n    function iterateValid(OrderList storage self, uint80 _index) internal view  returns (bool) {\n        return _index - 1 < self.orders.length;\n    }\n\n    function iteratePrev(OrderList storage self, uint80 _index) internal view  returns (uint80) {\n        return self.orders[_index - 1].prev;\n    }\n\n    function iterateNext(OrderList storage self, uint80 _index) internal view returns (uint80) {\n        return self.orders[_index - 1].next;\n    }\n\n    //function iterateGet(OrderList storage self, uint80 _index) returns (Order) {return self.orders[_index - 1].order;}\n}\n",
  "sourcePath": "/Users/petro/ether/dcm-poc/contracts/generic/OrdersLib.sol",
  "compiler": {
    "name": "solc",
    "version": "0.4.18+commit.9cf6e910.Emscripten.clang"
  },
  "schemaVersion": "1.0.1",
  "updatedAt": "2018-01-10T20:22:40.475Z"
}