{
  "contractName": "Rates",
  "abi": [
    {
      "constant": false,
      "inputs": [
        {
          "name": "agent",
          "type": "address"
        },
        {
          "name": "requiredPermissions",
          "type": "bytes32[]"
        }
      ],
      "name": "revokeMulitplePermissions",
      "outputs": [],
      "payable": false,
      "stateMutability": "nonpayable",
      "type": "function"
    },
    {
      "constant": true,
      "inputs": [
        {
          "name": "",
          "type": "address"
        },
        {
          "name": "",
          "type": "bytes32"
        }
      ],
      "name": "permissions",
      "outputs": [
        {
          "name": "",
          "type": "bool"
        }
      ],
      "payable": false,
      "stateMutability": "view",
      "type": "function"
    },
    {
      "constant": true,
      "inputs": [
        {
          "name": "bSymbol",
          "type": "bytes32"
        },
        {
          "name": "value",
          "type": "uint256"
        }
      ],
      "name": "convertToWei",
      "outputs": [
        {
          "name": "weiValue",
          "type": "uint256"
        }
      ],
      "payable": false,
      "stateMutability": "view",
      "type": "function"
    },
    {
      "constant": false,
      "inputs": [
        {
          "name": "agent",
          "type": "address"
        },
        {
          "name": "requiredPermission",
          "type": "bytes32"
        }
      ],
      "name": "revokePermission",
      "outputs": [],
      "payable": false,
      "stateMutability": "nonpayable",
      "type": "function"
    },
    {
      "constant": false,
      "inputs": [
        {
          "name": "symbol",
          "type": "bytes32"
        },
        {
          "name": "newRate",
          "type": "uint256"
        }
      ],
      "name": "setRate",
      "outputs": [],
      "payable": false,
      "stateMutability": "nonpayable",
      "type": "function"
    },
    {
      "constant": true,
      "inputs": [
        {
          "name": "bSymbol",
          "type": "bytes32"
        },
        {
          "name": "weiValue",
          "type": "uint256"
        }
      ],
      "name": "convertFromWei",
      "outputs": [
        {
          "name": "value",
          "type": "uint256"
        }
      ],
      "payable": false,
      "stateMutability": "view",
      "type": "function"
    },
    {
      "constant": true,
      "inputs": [],
      "name": "owner",
      "outputs": [
        {
          "name": "",
          "type": "address"
        }
      ],
      "payable": false,
      "stateMutability": "view",
      "type": "function"
    },
    {
      "constant": false,
      "inputs": [
        {
          "name": "agent",
          "type": "address"
        },
        {
          "name": "requiredPermissions",
          "type": "bytes32[]"
        }
      ],
      "name": "grantMultiplePermissions",
      "outputs": [],
      "payable": false,
      "stateMutability": "nonpayable",
      "type": "function"
    },
    {
      "constant": true,
      "inputs": [
        {
          "name": "",
          "type": "bytes32"
        }
      ],
      "name": "rates",
      "outputs": [
        {
          "name": "rate",
          "type": "uint256"
        },
        {
          "name": "lastUpdated",
          "type": "uint256"
        }
      ],
      "payable": false,
      "stateMutability": "view",
      "type": "function"
    },
    {
      "constant": false,
      "inputs": [
        {
          "name": "symbols",
          "type": "bytes32[]"
        },
        {
          "name": "newRates",
          "type": "uint256[]"
        }
      ],
      "name": "setMultipleRates",
      "outputs": [],
      "payable": false,
      "stateMutability": "nonpayable",
      "type": "function"
    },
    {
      "constant": false,
      "inputs": [
        {
          "name": "newOwner",
          "type": "address"
        }
      ],
      "name": "transferOwnership",
      "outputs": [],
      "payable": false,
      "stateMutability": "nonpayable",
      "type": "function"
    },
    {
      "constant": false,
      "inputs": [
        {
          "name": "agent",
          "type": "address"
        },
        {
          "name": "requiredPermission",
          "type": "bytes32"
        }
      ],
      "name": "grantPermission",
      "outputs": [],
      "payable": false,
      "stateMutability": "nonpayable",
      "type": "function"
    },
    {
      "anonymous": false,
      "inputs": [
        {
          "indexed": false,
          "name": "symbol",
          "type": "bytes32"
        },
        {
          "indexed": false,
          "name": "newRate",
          "type": "uint256"
        }
      ],
      "name": "RateChanged",
      "type": "event"
    },
    {
      "anonymous": false,
      "inputs": [
        {
          "indexed": true,
          "name": "agent",
          "type": "address"
        },
        {
          "indexed": false,
          "name": "grantedPermission",
          "type": "bytes32"
        }
      ],
      "name": "PermissionGranted",
      "type": "event"
    },
    {
      "anonymous": false,
      "inputs": [
        {
          "indexed": true,
          "name": "agent",
          "type": "address"
        },
        {
          "indexed": false,
          "name": "revokedPermission",
          "type": "bytes32"
        }
      ],
      "name": "PermissionRevoked",
      "type": "event"
    },
    {
      "anonymous": false,
      "inputs": [
        {
          "indexed": true,
          "name": "oldOwner",
          "type": "address"
        },
        {
          "indexed": true,
          "name": "newOwner",
          "type": "address"
        }
      ],
      "name": "NewOwner",
      "type": "event"
    }
  ],
  "bytecode": "0x6060604052600073ffffffffffffffffffffffffffffffffffffffff166000809054906101000a900473ffffffffffffffffffffffffffffffffffffffff1673ffffffffffffffffffffffffffffffffffffffff1614151561006057600080fd5b336000806101000a81548173ffffffffffffffffffffffffffffffffffffffff021916908373ffffffffffffffffffffffffffffffffffffffff160217905550610e17806100af6000396000f3006060604052600436106100ba576000357c0100000000000000000000000000000000000000000000000000000000900463ffffffff1680630da32eaa146100bf5780635b225526146101385780635c481d8b146101965780635fe07013146101da578063680819eb1461022057806382f5e31b146102505780638da5cb5b146102945780639ac3317b146102e9578063dc72620514610362578063dd17eaec146103a4578063f2fde38b146103e6578063f38a82621461041f575b600080fd5b34156100ca57600080fd5b610136600480803573ffffffffffffffffffffffffffffffffffffffff1690602001909190803590602001908201803590602001908080602002602001604051908101604052809392919081815260200183836020028082843782019150505050505091905050610465565b005b341561014357600080fd5b61017c600480803573ffffffffffffffffffffffffffffffffffffffff1690602001909190803560001916906020019091905050610508565b604051808215151515815260200191505060405180910390f35b34156101a157600080fd5b6101c4600480803560001916906020019091908035906020019091905050610537565b6040518082815260200191505060405180910390f35b34156101e557600080fd5b61021e600480803573ffffffffffffffffffffffffffffffffffffffff169060200190919080356000191690602001909190505061058c565b005b341561022b57600080fd5b61024e6004808035600019169060200190919080359060200190919050506106b2565b005b341561025b57600080fd5b61027e6004808035600019169060200190919080359060200190919050506107d7565b6040518082815260200191505060405180910390f35b341561029f57600080fd5b6102a7610858565b604051808273ffffffffffffffffffffffffffffffffffffffff1673ffffffffffffffffffffffffffffffffffffffff16815260200191505060405180910390f35b34156102f457600080fd5b610360600480803573ffffffffffffffffffffffffffffffffffffffff169060200190919080359060200190820180359060200190808060200260200160405190810160405280939291908181526020018383602002808284378201915050505050509190505061087d565b005b341561036d57600080fd5b610387600480803560001916906020019091905050610920565b604051808381526020018281526020019250505060405180910390f35b34156103af57600080fd5b6103e4600480803590602001908201803590602001919091929080359060200190820180359060200191909192905050610944565b005b34156103f157600080fd5b61041d600480803573ffffffffffffffffffffffffffffffffffffffff16906020019091905050610af7565b005b341561042a57600080fd5b610463600480803573ffffffffffffffffffffffffffffffffffffffff1690602001909190803560001916906020019091905050610c4c565b005b6000806000809054906101000a900473ffffffffffffffffffffffffffffffffffffffff1673ffffffffffffffffffffffffffffffffffffffff163373ffffffffffffffffffffffffffffffffffffffff161415156104c357600080fd5b82519150600090505b81811015610502576104f58484838151811015156104e657fe5b9060200190602002015161058c565b80806001019150506104cc565b50505050565b60016020528160005260406000206020528060005260406000206000915091509054906101000a900460ff1681565b600061058460026000856000191660001916815260200190815260200160002060000154610576670de0b6b3a764000085610d7190919063ffffffff16565b610da790919063ffffffff16565b905092915050565b6000809054906101000a900473ffffffffffffffffffffffffffffffffffffffff1673ffffffffffffffffffffffffffffffffffffffff163373ffffffffffffffffffffffffffffffffffffffff161415156105e757600080fd5b6000600160008473ffffffffffffffffffffffffffffffffffffffff1673ffffffffffffffffffffffffffffffffffffffff1681526020019081526020016000206000836000191660001916815260200190815260200160002060006101000a81548160ff0219169083151502179055508173ffffffffffffffffffffffffffffffffffffffff167f789770131846de4d1f28418f0f957cdf4fcabe5eccf70067083e20ecece69a348260405180826000191660001916815260200191505060405180910390a25050565b7f7365745261746500000000000000000000000000000000000000000000000000600160003373ffffffffffffffffffffffffffffffffffffffff1673ffffffffffffffffffffffffffffffffffffffff1681526020019081526020016000206000826000191660001916815260200190815260200160002060009054906101000a900460ff16151561074457600080fd5b60408051908101604052808381526020014281525060026000856000191660001916815260200190815260200160002060008201518160000155602082015181600101559050507f9de72aa82d2cf62928e15749581b4bb9120a74b0de039e0908d84c73a28c82d783836040518083600019166000191681526020018281526020019250505060405180910390a1505050565b6000806002600085600019166000191681526020019081526020016000206000015411151561080557600080fd5b610850670de0b6b3a76400006108426002600087600019166000191681526020019081526020016000206000015485610d7190919063ffffffff16565b610da790919063ffffffff16565b905092915050565b6000809054906101000a900473ffffffffffffffffffffffffffffffffffffffff1681565b6000806000809054906101000a900473ffffffffffffffffffffffffffffffffffffffff1673ffffffffffffffffffffffffffffffffffffffff163373ffffffffffffffffffffffffffffffffffffffff161415156108db57600080fd5b82519150600090505b8181101561091a5761090d8484838151811015156108fe57fe5b90602001906020020151610c4c565b80806001019150506108e4565b50505050565b60026020528060005260406000206000915090508060000154908060010154905082565b60007f7365745261746500000000000000000000000000000000000000000000000000600160003373ffffffffffffffffffffffffffffffffffffffff1673ffffffffffffffffffffffffffffffffffffffff1681526020019081526020016000206000826000191660001916815260200190815260200160002060009054906101000a900460ff1615156109d857600080fd5b83839050868690501415156109ec57600080fd5b600091505b85859050821015610aef5760408051908101604052808585858181101515610a1557fe5b90506020020135815260200142815250600260008888868181101515610a3757fe5b90506020020135600019166000191660001916815260200190815260200160002060008201518160000155602082015181600101559050507f9de72aa82d2cf62928e15749581b4bb9120a74b0de039e0908d84c73a28c82d78686848181101515610a9e57fe5b90506020020135600019168585858181101515610ab757fe5b905060200201356040518083600019166000191681526020018281526020019250505060405180910390a181806001019250506109f1565b505050505050565b6000809054906101000a900473ffffffffffffffffffffffffffffffffffffffff1673ffffffffffffffffffffffffffffffffffffffff163373ffffffffffffffffffffffffffffffffffffffff16141515610b5257600080fd5b600073ffffffffffffffffffffffffffffffffffffffff168173ffffffffffffffffffffffffffffffffffffffff1614151515610b8e57600080fd5b8073ffffffffffffffffffffffffffffffffffffffff166000809054906101000a900473ffffffffffffffffffffffffffffffffffffffff1673ffffffffffffffffffffffffffffffffffffffff167f70aea8d848e8a90fb7661b227dc522eb6395c3dac71b63cb59edd5c9899b236460405160405180910390a3806000806101000a81548173ffffffffffffffffffffffffffffffffffffffff021916908373ffffffffffffffffffffffffffffffffffffffff16021790555050565b6000809054906101000a900473ffffffffffffffffffffffffffffffffffffffff1673ffffffffffffffffffffffffffffffffffffffff163373ffffffffffffffffffffffffffffffffffffffff16141515610ca757600080fd5b60018060008473ffffffffffffffffffffffffffffffffffffffff1673ffffffffffffffffffffffffffffffffffffffff1681526020019081526020016000206000836000191660001916815260200190815260200160002060006101000a81548160ff0219169083151502179055508173ffffffffffffffffffffffffffffffffffffffff167fc65937e3dbcb9fb30f646815dd67a3dbd09ba17718cbcb54efbe3635f8e0a6fe8260405180826000191660001916815260200191505060405180910390a25050565b60008082840290506000841480610d925750828482811515610d8f57fe5b04145b1515610d9d57600080fd5b8091505092915050565b6000808284811515610db557fe5b049050600283811515610dc457fe5b048385811515610dd057fe5b06101515610de15780806001019150505b80915050929150505600a165627a7a72305820141bffa7ad00cd5dbb79e62d9939752323a1ec031549b6b4e08f2cc5b9e24cf70029",
  "source": "/*\n Generic symbol / WEI rates contract.\n only callable by trusted price oracles.\n Being regularly called by a price oracle\n    TODO: trustless/decentrilezed price Oracle\n    TODO: shall we use blockNumber instead of now for lastUpdated?\n    TODO: consider if we need storing rates with variable decimals instead of fixed 4\n    TODO: could we emit 1 RateChanged event from setMultipleRates (symbols and newrates arrays)?\n*/\npragma solidity 0.4.18;\n\nimport \"./generic/SafeMath.sol\";\nimport \"./generic/Restricted.sol\";\n\n\ncontract Rates is Restricted {\n    using SafeMath for uint256;\n\n    struct RateInfo {\n        uint rate; // how much 1 WEI worth 1 unit , i.e. symbol/ETH rate\n                    // 0 rate means no rate info available\n        uint lastUpdated;\n    }\n\n    // mapping currency symbol => rate. all rates are stored with 4 decimals. i.e. ETH/EUR = 989.12 then rate = 989,1200\n    mapping(bytes32 => RateInfo) public rates;\n\n    event RateChanged(bytes32 symbol, uint newRate);\n\n    function setRate(bytes32 symbol, uint newRate) external restrict(\"setRate\") {\n        rates[symbol] = RateInfo(newRate, now);\n        RateChanged(symbol, newRate);\n    }\n\n    function setMultipleRates(bytes32[] symbols, uint[] newRates) external restrict(\"setRate\") {\n        require(symbols.length == newRates.length);\n        for (uint256 i = 0; i < symbols.length; i++) {\n            rates[symbols[i]] = RateInfo(newRates[i], now);\n            RateChanged(symbols[i], newRates[i]);\n        }\n    }\n\n    function convertFromWei(bytes32 bSymbol, uint weiValue) external view returns(uint value) {\n        require(rates[bSymbol].rate > 0);\n        return weiValue.mul(rates[bSymbol].rate).roundedDiv(1000000000000000000);\n    }\n\n    function convertToWei(bytes32 bSymbol, uint value) external view returns(uint weiValue) {\n        // no require(rates[symbol].rate >  0) needed b/c it will revert with div by zero\n        /* TODO: can we make this not loosing max scale? */\n        return value.mul(1000000000000000000).roundedDiv(rates[bSymbol].rate);\n    }\n\n}\n",
  "sourcePath": "/Users/petro/ether/dcm-poc/contracts/Rates.sol",
  "compiler": {
    "name": "solc",
    "version": "0.4.18+commit.9cf6e910.Emscripten.clang"
  },
  "schemaVersion": "1.0.1",
  "updatedAt": "2018-01-23T13:47:31.713Z"
}