{
  "contractName": "Rates",
  "abi": [
    {
      "constant": false,
      "inputs": [
        {
          "name": "agent",
          "type": "address"
        },
        {
          "name": "requiredPermissions",
          "type": "bytes32[]"
        }
      ],
      "name": "revokeMulitplePermissions",
      "outputs": [],
      "payable": false,
      "stateMutability": "nonpayable",
      "type": "function"
    },
    {
      "constant": true,
      "inputs": [
        {
          "name": "",
          "type": "address"
        },
        {
          "name": "",
          "type": "bytes32"
        }
      ],
      "name": "permissions",
      "outputs": [
        {
          "name": "",
          "type": "bool"
        }
      ],
      "payable": false,
      "stateMutability": "view",
      "type": "function"
    },
    {
      "constant": false,
      "inputs": [
        {
          "name": "agent",
          "type": "address"
        },
        {
          "name": "requiredPermission",
          "type": "bytes32"
        }
      ],
      "name": "revokePermission",
      "outputs": [],
      "payable": false,
      "stateMutability": "nonpayable",
      "type": "function"
    },
    {
      "constant": false,
      "inputs": [
        {
          "name": "agent",
          "type": "address"
        },
        {
          "name": "requiredPermissions",
          "type": "bytes32[]"
        }
      ],
      "name": "grantMultiplePermissions",
      "outputs": [],
      "payable": false,
      "stateMutability": "nonpayable",
      "type": "function"
    },
    {
      "constant": true,
      "inputs": [
        {
          "name": "",
          "type": "bytes32"
        }
      ],
      "name": "rates",
      "outputs": [
        {
          "name": "rate",
          "type": "uint256"
        },
        {
          "name": "lastUpdated",
          "type": "uint256"
        }
      ],
      "payable": false,
      "stateMutability": "view",
      "type": "function"
    },
    {
      "constant": false,
      "inputs": [
        {
          "name": "agent",
          "type": "address"
        },
        {
          "name": "requiredPermission",
          "type": "bytes32"
        }
      ],
      "name": "grantPermission",
      "outputs": [],
      "payable": false,
      "stateMutability": "nonpayable",
      "type": "function"
    },
    {
      "anonymous": false,
      "inputs": [
        {
          "indexed": false,
          "name": "symbol",
          "type": "bytes32"
        },
        {
          "indexed": false,
          "name": "newRate",
          "type": "uint256"
        }
      ],
      "name": "RateChanged",
      "type": "event"
    },
    {
      "anonymous": false,
      "inputs": [
        {
          "indexed": true,
          "name": "agent",
          "type": "address"
        },
        {
          "indexed": false,
          "name": "grantedPermission",
          "type": "bytes32"
        }
      ],
      "name": "PermissionGranted",
      "type": "event"
    },
    {
      "anonymous": false,
      "inputs": [
        {
          "indexed": true,
          "name": "agent",
          "type": "address"
        },
        {
          "indexed": false,
          "name": "revokedPermission",
          "type": "bytes32"
        }
      ],
      "name": "PermissionRevoked",
      "type": "event"
    },
    {
      "constant": false,
      "inputs": [
        {
          "name": "symbol",
          "type": "bytes32"
        },
        {
          "name": "newRate",
          "type": "uint256"
        }
      ],
      "name": "setRate",
      "outputs": [],
      "payable": false,
      "stateMutability": "nonpayable",
      "type": "function"
    },
    {
      "constant": false,
      "inputs": [
        {
          "name": "symbols",
          "type": "bytes32[]"
        },
        {
          "name": "newRates",
          "type": "uint256[]"
        }
      ],
      "name": "setMultipleRates",
      "outputs": [],
      "payable": false,
      "stateMutability": "nonpayable",
      "type": "function"
    },
    {
      "constant": true,
      "inputs": [
        {
          "name": "bSymbol",
          "type": "bytes32"
        },
        {
          "name": "weiValue",
          "type": "uint256"
        }
      ],
      "name": "convertFromWei",
      "outputs": [
        {
          "name": "value",
          "type": "uint256"
        }
      ],
      "payable": false,
      "stateMutability": "view",
      "type": "function"
    },
    {
      "constant": true,
      "inputs": [
        {
          "name": "bSymbol",
          "type": "bytes32"
        },
        {
          "name": "value",
          "type": "uint256"
        }
      ],
      "name": "convertToWei",
      "outputs": [
        {
          "name": "weiValue",
          "type": "uint256"
        }
      ],
      "payable": false,
      "stateMutability": "view",
      "type": "function"
    }
  ],
  "bytecode": "0x606060405260016000803373ffffffffffffffffffffffffffffffffffffffff1673ffffffffffffffffffffffffffffffffffffffff16815260200190815260200160002060007f4d6f6e6574617279426f6172640000000000000000000000000000000000000060001916815260200190815260200160002060006101000a81548160ff0219169083151502179055503373ffffffffffffffffffffffffffffffffffffffff167fc65937e3dbcb9fb30f646815dd67a3dbd09ba17718cbcb54efbe3635f8e0a6fe60405180807f4d6f6e6574617279426f61726400000000000000000000000000000000000000815250602001905060405180910390a2610ba28061010d6000396000f3006060604052600436106100a4576000357c0100000000000000000000000000000000000000000000000000000000900463ffffffff1680630da32eaa146100a95780635b225526146101225780635c481d8b146101805780635fe07013146101c4578063680819eb1461020a57806382f5e31b1461023a5780639ac3317b1461027e578063dc726205146102f7578063dd17eaec14610339578063f38a82621461037b575b600080fd5b34156100b457600080fd5b610120600480803573ffffffffffffffffffffffffffffffffffffffff16906020019091908035906020019082018035906020019080806020026020016040519081016040528093929190818152602001838360200280828437820191505050505050919050506103c1565b005b341561012d57600080fd5b610166600480803573ffffffffffffffffffffffffffffffffffffffff1690602001909190803560001916906020019091905050610409565b604051808215151515815260200191505060405180910390f35b341561018b57600080fd5b6101ae600480803560001916906020019091908035906020019091905050610438565b6040518082815260200191505060405180910390f35b34156101cf57600080fd5b610208600480803573ffffffffffffffffffffffffffffffffffffffff169060200190919080356000191690602001909190505061048d565b005b341561021557600080fd5b610238600480803560001916906020019091908035906020019091905050610557565b005b341561024557600080fd5b61026860048080356000191690602001909190803590602001909190505061067b565b6040518082815260200191505060405180910390f35b341561028957600080fd5b6102f5600480803573ffffffffffffffffffffffffffffffffffffffff16906020019091908035906020019082018035906020019080806020026020016040519081016040528093929190818152602001838360200280828437820191505050505050919050506106fc565b005b341561030257600080fd5b61031c6004808035600019169060200190919050506107d0565b604051808381526020018281526020019250505060405180910390f35b341561034457600080fd5b6103796004808035906020019082018035906020019190919290803590602001908201803590602001919091929050506107f4565b005b341561038657600080fd5b6103bf600480803573ffffffffffffffffffffffffffffffffffffffff16906020019091908035600019169060200190919050506109a6565b005b60008082519150600090505b81811015610403576103f68484838151811015156103e757fe5b9060200190602002015161048d565b80806001019150506103cd565b50505050565b60006020528160005260406000206020528060005260406000206000915091509054906101000a900460ff1681565b600061048560016000856000191660001916815260200190815260200160002060000154610477670de0b6b3a764000085610afc90919063ffffffff16565b610b3290919063ffffffff16565b905092915050565b60008060008473ffffffffffffffffffffffffffffffffffffffff1673ffffffffffffffffffffffffffffffffffffffff1681526020019081526020016000206000836000191660001916815260200190815260200160002060006101000a81548160ff0219169083151502179055508173ffffffffffffffffffffffffffffffffffffffff167f789770131846de4d1f28418f0f957cdf4fcabe5eccf70067083e20ecece69a348260405180826000191660001916815260200191505060405180910390a25050565b7f73657452617465000000000000000000000000000000000000000000000000006000803373ffffffffffffffffffffffffffffffffffffffff1673ffffffffffffffffffffffffffffffffffffffff1681526020019081526020016000206000826000191660001916815260200190815260200160002060009054906101000a900460ff1615156105e857600080fd5b60408051908101604052808381526020014281525060016000856000191660001916815260200190815260200160002060008201518160000155602082015181600101559050507f9de72aa82d2cf62928e15749581b4bb9120a74b0de039e0908d84c73a28c82d783836040518083600019166000191681526020018281526020019250505060405180910390a1505050565b600080600160008560001916600019168152602001908152602001600020600001541115156106a957600080fd5b6106f4670de0b6b3a76400006106e66001600087600019166000191681526020019081526020016000206000015485610afc90919063ffffffff16565b610b3290919063ffffffff16565b905092915050565b6000806000803373ffffffffffffffffffffffffffffffffffffffff1673ffffffffffffffffffffffffffffffffffffffff16815260200190815260200160002060007f4d6f6e6574617279426f6172640000000000000000000000000000000000000060001916815260200190815260200160002060009054906101000a900460ff16151561078b57600080fd5b82519150600090505b818110156107ca576107bd8484838151811015156107ae57fe5b906020019060200201516109a6565b8080600101915050610794565b50505050565b60016020528060005260406000206000915090508060000154908060010154905082565b60007f73657452617465000000000000000000000000000000000000000000000000006000803373ffffffffffffffffffffffffffffffffffffffff1673ffffffffffffffffffffffffffffffffffffffff1681526020019081526020016000206000826000191660001916815260200190815260200160002060009054906101000a900460ff16151561088757600080fd5b838390508686905014151561089b57600080fd5b600091505b8585905082101561099e57604080519081016040528085858581811015156108c457fe5b905060200201358152602001428152506001600088888681811015156108e657fe5b90506020020135600019166000191660001916815260200190815260200160002060008201518160000155602082015181600101559050507f9de72aa82d2cf62928e15749581b4bb9120a74b0de039e0908d84c73a28c82d7868684818110151561094d57fe5b9050602002013560001916858585818110151561096657fe5b905060200201356040518083600019166000191681526020018281526020019250505060405180910390a181806001019250506108a0565b505050505050565b6000803373ffffffffffffffffffffffffffffffffffffffff1673ffffffffffffffffffffffffffffffffffffffff16815260200190815260200160002060007f4d6f6e6574617279426f6172640000000000000000000000000000000000000060001916815260200190815260200160002060009054906101000a900460ff161515610a3257600080fd5b60016000808473ffffffffffffffffffffffffffffffffffffffff1673ffffffffffffffffffffffffffffffffffffffff1681526020019081526020016000206000836000191660001916815260200190815260200160002060006101000a81548160ff0219169083151502179055508173ffffffffffffffffffffffffffffffffffffffff167fc65937e3dbcb9fb30f646815dd67a3dbd09ba17718cbcb54efbe3635f8e0a6fe8260405180826000191660001916815260200191505060405180910390a25050565b60008082840290506000841480610b1d5750828482811515610b1a57fe5b04145b1515610b2857600080fd5b8091505092915050565b6000808284811515610b4057fe5b049050600283811515610b4f57fe5b048385811515610b5b57fe5b06101515610b6c5780806001019150505b80915050929150505600a165627a7a7230582031b6cbbbbe10cf8e26aa05484ad4b2d9dc734492ea71f6fd3104754fb0ad50990029",
  "source": "/*\n Generic symbol / WEI rates contract.\n only callable by trusted price oracles.\n Being regularly called by a price oracle\n    TODO: trustless/decentrilezed price Oracle\n    TODO: shall we use blockNumber instead of now for lastUpdated?\n    TODO: consider if we need storing rates with variable decimals instead of fixed 4\n    TODO: could we emit 1 RateChanged event from setMultipleRates (symbols and newrates arrays)?\n*/\npragma solidity 0.4.19;\n\nimport \"./generic/SafeMath.sol\";\nimport \"./generic/Restricted.sol\";\n\n\ncontract Rates is Restricted {\n    using SafeMath for uint256;\n\n    struct RateInfo {\n        uint rate; // how much 1 WEI worth 1 unit , i.e. symbol/ETH rate\n                    // 0 rate means no rate info available\n        uint lastUpdated;\n    }\n\n    // mapping currency symbol => rate. all rates are stored with 4 decimals. i.e. ETH/EUR = 989.12 then rate = 989,1200\n    mapping(bytes32 => RateInfo) public rates;\n\n    event RateChanged(bytes32 symbol, uint newRate);\n\n    function setRate(bytes32 symbol, uint newRate) external restrict(\"setRate\") {\n        rates[symbol] = RateInfo(newRate, now);\n        RateChanged(symbol, newRate);\n    }\n\n    function setMultipleRates(bytes32[] symbols, uint[] newRates) external restrict(\"setRate\") {\n        require(symbols.length == newRates.length);\n        for (uint256 i = 0; i < symbols.length; i++) {\n            rates[symbols[i]] = RateInfo(newRates[i], now);\n            RateChanged(symbols[i], newRates[i]);\n        }\n    }\n\n    function convertFromWei(bytes32 bSymbol, uint weiValue) external view returns(uint value) {\n        require(rates[bSymbol].rate > 0);\n        return weiValue.mul(rates[bSymbol].rate).roundedDiv(1000000000000000000);\n    }\n\n    function convertToWei(bytes32 bSymbol, uint value) external view returns(uint weiValue) {\n        // no require(rates[symbol].rate >  0) needed b/c it will revert with div by zero\n        /* TODO: can we make this not loosing max scale? */\n        return value.mul(1000000000000000000).roundedDiv(rates[bSymbol].rate);\n    }\n\n}\n",
  "sourcePath": "/Users/petro/ether/augmint-web/augmint-contracts/contracts/Rates.sol",
  "compiler": {
    "name": "solc",
    "version": "0.4.19+commit.c4cbbb05.Emscripten.clang"
  },
  "schemaVersion": "1.0.1",
  "updatedAt": "2018-02-27T07:31:58.107Z"
}