{
  "contractName": "Rates",
  "abi": [
    {
      "constant": true,
      "inputs": [
        {
          "name": "",
          "type": "address"
        },
        {
          "name": "",
          "type": "bytes32"
        }
      ],
      "name": "permissions",
      "outputs": [
        {
          "name": "",
          "type": "bool"
        }
      ],
      "payable": false,
      "stateMutability": "view",
      "type": "function"
    },
    {
      "constant": false,
      "inputs": [
        {
          "name": "agent",
          "type": "address"
        },
        {
          "name": "requiredPermission",
          "type": "bytes32"
        }
      ],
      "name": "revokePermission",
      "outputs": [],
      "payable": false,
      "stateMutability": "nonpayable",
      "type": "function"
    },
    {
      "constant": false,
      "inputs": [
        {
          "name": "agent",
          "type": "address"
        },
        {
          "name": "requiredPermissions",
          "type": "bytes32[]"
        }
      ],
      "name": "revokeMultiplePermissions",
      "outputs": [],
      "payable": false,
      "stateMutability": "nonpayable",
      "type": "function"
    },
    {
      "constant": false,
      "inputs": [
        {
          "name": "agent",
          "type": "address"
        },
        {
          "name": "requiredPermissions",
          "type": "bytes32[]"
        }
      ],
      "name": "grantMultiplePermissions",
      "outputs": [],
      "payable": false,
      "stateMutability": "nonpayable",
      "type": "function"
    },
    {
      "constant": true,
      "inputs": [
        {
          "name": "",
          "type": "bytes32"
        }
      ],
      "name": "rates",
      "outputs": [
        {
          "name": "rate",
          "type": "uint256"
        },
        {
          "name": "lastUpdated",
          "type": "uint256"
        }
      ],
      "payable": false,
      "stateMutability": "view",
      "type": "function"
    },
    {
      "constant": false,
      "inputs": [
        {
          "name": "agent",
          "type": "address"
        },
        {
          "name": "requiredPermission",
          "type": "bytes32"
        }
      ],
      "name": "grantPermission",
      "outputs": [],
      "payable": false,
      "stateMutability": "nonpayable",
      "type": "function"
    },
    {
      "anonymous": false,
      "inputs": [
        {
          "indexed": false,
          "name": "symbol",
          "type": "bytes32"
        },
        {
          "indexed": false,
          "name": "newRate",
          "type": "uint256"
        }
      ],
      "name": "RateChanged",
      "type": "event"
    },
    {
      "anonymous": false,
      "inputs": [
        {
          "indexed": true,
          "name": "agent",
          "type": "address"
        },
        {
          "indexed": false,
          "name": "grantedPermission",
          "type": "bytes32"
        }
      ],
      "name": "PermissionGranted",
      "type": "event"
    },
    {
      "anonymous": false,
      "inputs": [
        {
          "indexed": true,
          "name": "agent",
          "type": "address"
        },
        {
          "indexed": false,
          "name": "revokedPermission",
          "type": "bytes32"
        }
      ],
      "name": "PermissionRevoked",
      "type": "event"
    },
    {
      "constant": false,
      "inputs": [
        {
          "name": "symbol",
          "type": "bytes32"
        },
        {
          "name": "newRate",
          "type": "uint256"
        }
      ],
      "name": "setRate",
      "outputs": [],
      "payable": false,
      "stateMutability": "nonpayable",
      "type": "function"
    },
    {
      "constant": false,
      "inputs": [
        {
          "name": "symbols",
          "type": "bytes32[]"
        },
        {
          "name": "newRates",
          "type": "uint256[]"
        }
      ],
      "name": "setMultipleRates",
      "outputs": [],
      "payable": false,
      "stateMutability": "nonpayable",
      "type": "function"
    },
    {
      "constant": true,
      "inputs": [
        {
          "name": "bSymbol",
          "type": "bytes32"
        },
        {
          "name": "weiValue",
          "type": "uint256"
        }
      ],
      "name": "convertFromWei",
      "outputs": [
        {
          "name": "value",
          "type": "uint256"
        }
      ],
      "payable": false,
      "stateMutability": "view",
      "type": "function"
    },
    {
      "constant": true,
      "inputs": [
        {
          "name": "bSymbol",
          "type": "bytes32"
        },
        {
          "name": "value",
          "type": "uint256"
        }
      ],
      "name": "convertToWei",
      "outputs": [
        {
          "name": "weiValue",
          "type": "uint256"
        }
      ],
      "payable": false,
      "stateMutability": "view",
      "type": "function"
    }
  ],
  "bytecode": "0x608060405260016000803373ffffffffffffffffffffffffffffffffffffffff1673ffffffffffffffffffffffffffffffffffffffff16815260200190815260200160002060007f4d6f6e6574617279426f6172640000000000000000000000000000000000000060001916815260200190815260200160002060006101000a81548160ff0219169083151502179055503373ffffffffffffffffffffffffffffffffffffffff167fc65937e3dbcb9fb30f646815dd67a3dbd09ba17718cbcb54efbe3635f8e0a6fe60405180807f4d6f6e6574617279426f61726400000000000000000000000000000000000000815250602001905060405180910390a26111928061010d6000396000f3006080604052600436106100a4576000357c0100000000000000000000000000000000000000000000000000000000900463ffffffff1680635b225526146100a95780635c481d8b146101125780635fe0701314610161578063680819eb146101b25780637ea46993146101ed57806382f5e31b146102735780639ac3317b146102c2578063dc72620514610348578063dd17eaec14610394578063f38a8262146103e7575b600080fd5b3480156100b557600080fd5b506100f8600480360381019080803573ffffffffffffffffffffffffffffffffffffffff1690602001909291908035600019169060200190929190505050610438565b604051808215151515815260200191505060405180910390f35b34801561011e57600080fd5b5061014b600480360381019080803560001916906020019092919080359060200190929190505050610467565b6040518082815260200191505060405180910390f35b34801561016d57600080fd5b506101b0600480360381019080803573ffffffffffffffffffffffffffffffffffffffff1690602001909291908035600019169060200190929190505050610551565b005b3480156101be57600080fd5b506101eb600480360381019080803560001916906020019092919080359060200190929190505050610736565b005b3480156101f957600080fd5b50610271600480360381019080803573ffffffffffffffffffffffffffffffffffffffff169060200190929190803590602001908201803590602001908080602002602001604051908101604052809392919081815260200183836020028082843782019150505050505091929192905050506108c3565b005b34801561027f57600080fd5b506102ac60048036038101908080356000191690602001909291908035906020019092919050505061090b565b6040518082815260200191505060405180910390f35b3480156102ce57600080fd5b50610346600480360381019080803573ffffffffffffffffffffffffffffffffffffffff169060200190929190803590602001908201803590602001908080602002602001604051908101604052809392919081815260200183836020028082843782019150505050505091929192905050506109f5565b005b34801561035457600080fd5b506103776004803603810190808035600019169060200190929190505050610b58565b604051808381526020018281526020019250505060405180910390f35b3480156103a057600080fd5b506103e5600480360381019080803590602001908201803590602001919091929391929390803590602001908201803590602001919091929391929390505050610b7c565b005b3480156103f357600080fd5b50610436600480360381019080803573ffffffffffffffffffffffffffffffffffffffff1690602001909291908035600019169060200190929190505050610e26565b005b60006020528160005260406000206020528060005260406000206000915091509054906101000a900460ff1681565b600080600160008560001916600019168152602001908152602001600020600001541115156104fe576040517f08c379a000000000000000000000000000000000000000000000000000000000815260040180806020018281038252601a8152602001807f72617465735b6253796d626f6c5d206d757374206265203e203000000000000081525060200191505060405180910390fd5b6105496001600085600019166000191681526020019081526020016000206000015461053b670de0b6b3a76400008561100b90919063ffffffff16565b6110aa90919063ffffffff16565b905092915050565b6000803373ffffffffffffffffffffffffffffffffffffffff1673ffffffffffffffffffffffffffffffffffffffff16815260200190815260200160002060007f4d6f6e6574617279426f6172640000000000000000000000000000000000000060001916815260200190815260200160002060009054906101000a900460ff16151561066c576040517f08c379a000000000000000000000000000000000000000000000000000000000815260040180806020018281038252602d8152602001807f6d73672e73656e646572206d7573742068617665204d6f6e6574617279426f6181526020017f7264207065726d697373696f6e0000000000000000000000000000000000000081525060400191505060405180910390fd5b60008060008473ffffffffffffffffffffffffffffffffffffffff1673ffffffffffffffffffffffffffffffffffffffff1681526020019081526020016000206000836000191660001916815260200190815260200160002060006101000a81548160ff0219169083151502179055508173ffffffffffffffffffffffffffffffffffffffff167f789770131846de4d1f28418f0f957cdf4fcabe5eccf70067083e20ecece69a348260405180826000191660001916815260200191505060405180910390a25050565b7f73657452617465000000000000000000000000000000000000000000000000006000803373ffffffffffffffffffffffffffffffffffffffff1673ffffffffffffffffffffffffffffffffffffffff1681526020019081526020016000206000826000191660001916815260200190815260200160002060009054906101000a900460ff161515610830576040517f08c379a000000000000000000000000000000000000000000000000000000000815260040180806020018281038252601f8152602001807f6d73672e73656e646572206d7573742068617665207065726d697373696f6e0081525060200191505060405180910390fd5b60408051908101604052808381526020014281525060016000856000191660001916815260200190815260200160002060008201518160000155602082015181600101559050507f9de72aa82d2cf62928e15749581b4bb9120a74b0de039e0908d84c73a28c82d783836040518083600019166000191681526020018281526020019250505060405180910390a1505050565b60008082519150600090505b81811015610905576108f88484838151811015156108e957fe5b90602001906020020151610551565b80806001019150506108cf565b50505050565b600080600160008560001916600019168152602001908152602001600020600001541115156109a2576040517f08c379a000000000000000000000000000000000000000000000000000000000815260040180806020018281038252601a8152602001807f72617465735b6253796d626f6c5d206d757374206265203e203000000000000081525060200191505060405180910390fd5b6109ed670de0b6b3a76400006109df600160008760001916600019168152602001908152602001600020600001548561100b90919063ffffffff16565b6110aa90919063ffffffff16565b905092915050565b6000806000803373ffffffffffffffffffffffffffffffffffffffff1673ffffffffffffffffffffffffffffffffffffffff16815260200190815260200160002060007f4d6f6e6574617279426f6172640000000000000000000000000000000000000060001916815260200190815260200160002060009054906101000a900460ff161515610b13576040517f08c379a000000000000000000000000000000000000000000000000000000000815260040180806020018281038252602d8152602001807f6d73672e73656e646572206d7573742068617665204d6f6e6574617279426f6181526020017f7264207065726d697373696f6e0000000000000000000000000000000000000081525060400191505060405180910390fd5b82519150600090505b81811015610b5257610b45848483815181101515610b3657fe5b90602001906020020151610e26565b8080600101915050610b1c565b50505050565b60016020528060005260406000206000915090508060000154908060010154905082565b60007f73657452617465000000000000000000000000000000000000000000000000006000803373ffffffffffffffffffffffffffffffffffffffff1673ffffffffffffffffffffffffffffffffffffffff1681526020019081526020016000206000826000191660001916815260200190815260200160002060009054906101000a900460ff161515610c78576040517f08c379a000000000000000000000000000000000000000000000000000000000815260040180806020018281038252601f8152602001807f6d73672e73656e646572206d7573742068617665207065726d697373696f6e0081525060200191505060405180910390fd5b8383905086869050141515610d1b576040517f08c379a000000000000000000000000000000000000000000000000000000000815260040180806020018281038252602a8152602001807f73796d6f626c7320616e64206e65775261746573206c656e67746873206d757381526020017f7420626520657175616c0000000000000000000000000000000000000000000081525060400191505060405180910390fd5b600091505b85859050821015610e1e5760408051908101604052808585858181101515610d4457fe5b90506020020135815260200142815250600160008888868181101515610d6657fe5b90506020020135600019166000191660001916815260200190815260200160002060008201518160000155602082015181600101559050507f9de72aa82d2cf62928e15749581b4bb9120a74b0de039e0908d84c73a28c82d78686848181101515610dcd57fe5b90506020020135600019168585858181101515610de657fe5b905060200201356040518083600019166000191681526020018281526020019250505060405180910390a18180600101925050610d20565b505050505050565b6000803373ffffffffffffffffffffffffffffffffffffffff1673ffffffffffffffffffffffffffffffffffffffff16815260200190815260200160002060007f4d6f6e6574617279426f6172640000000000000000000000000000000000000060001916815260200190815260200160002060009054906101000a900460ff161515610f41576040517f08c379a000000000000000000000000000000000000000000000000000000000815260040180806020018281038252602d8152602001807f6d73672e73656e646572206d7573742068617665204d6f6e6574617279426f6181526020017f7264207065726d697373696f6e0000000000000000000000000000000000000081525060400191505060405180910390fd5b60016000808473ffffffffffffffffffffffffffffffffffffffff1673ffffffffffffffffffffffffffffffffffffffff1681526020019081526020016000206000836000191660001916815260200190815260200160002060006101000a81548160ff0219169083151502179055508173ffffffffffffffffffffffffffffffffffffffff167fc65937e3dbcb9fb30f646815dd67a3dbd09ba17718cbcb54efbe3635f8e0a6fe8260405180826000191660001916815260200191505060405180910390a25050565b6000808284029050600084148061102c575082848281151561102957fe5b04145b15156110a0576040517f08c379a000000000000000000000000000000000000000000000000000000000815260040180806020018281038252600c8152602001807f6d756c206f766572666c6f77000000000000000000000000000000000000000081525060200191505060405180910390fd5b8091505092915050565b600080600083111515611125576040517f08c379a00000000000000000000000000000000000000000000000000000000081526004018080602001828103825260088152602001807f646976206279203000000000000000000000000000000000000000000000000081525060200191505060405180910390fd5b828481151561113057fe5b04905060028381151561113f57fe5b04838581151561114b57fe5b0610151561115c5780806001019150505b80915050929150505600a165627a7a72305820fecd2c5a3e25b932427e9f9e99d6f52977a92b5ecb4b479bb14d3e8fad2cf67e0029",
  "source": "/*\n Generic symbol / WEI rates contract.\n only callable by trusted price oracles.\n Being regularly called by a price oracle\n    TODO: trustless/decentrilezed price Oracle\n    TODO: shall we use blockNumber instead of now for lastUpdated?\n    TODO: consider if we need storing rates with variable decimals instead of fixed 4\n    TODO: could we emit 1 RateChanged event from setMultipleRates (symbols and newrates arrays)?\n*/\npragma solidity ^0.4.23;\n\nimport \"./generic/SafeMath.sol\";\nimport \"./generic/Restricted.sol\";\n\n\ncontract Rates is Restricted {\n    using SafeMath for uint256;\n\n    struct RateInfo {\n        uint rate; // how much 1 WEI worth 1 unit , i.e. symbol/ETH rate\n                    // 0 rate means no rate info available\n        uint lastUpdated;\n    }\n\n    // mapping currency symbol => rate. all rates are stored with 4 decimals. i.e. ETH/EUR = 989.12 then rate = 989,1200\n    mapping(bytes32 => RateInfo) public rates;\n\n    event RateChanged(bytes32 symbol, uint newRate);\n\n    function setRate(bytes32 symbol, uint newRate) external restrict(\"setRate\") {\n        rates[symbol] = RateInfo(newRate, now);\n        emit RateChanged(symbol, newRate);\n    }\n\n    function setMultipleRates(bytes32[] symbols, uint[] newRates) external restrict(\"setRate\") {\n        require(symbols.length == newRates.length, \"symobls and newRates lengths must be equal\");\n        for (uint256 i = 0; i < symbols.length; i++) {\n            rates[symbols[i]] = RateInfo(newRates[i], now);\n            emit RateChanged(symbols[i], newRates[i]);\n        }\n    }\n\n    function convertFromWei(bytes32 bSymbol, uint weiValue) external view returns(uint value) {\n        require(rates[bSymbol].rate > 0, \"rates[bSymbol] must be > 0\");\n        return weiValue.mul(rates[bSymbol].rate).roundedDiv(1000000000000000000);\n    }\n\n    function convertToWei(bytes32 bSymbol, uint value) external view returns(uint weiValue) {\n        // next line would revert with div by zero but require to emit reason\n        require(rates[bSymbol].rate > 0, \"rates[bSymbol] must be > 0\");\n        /* TODO: can we make this not loosing max scale? */\n        return value.mul(1000000000000000000).roundedDiv(rates[bSymbol].rate);\n    }\n\n}\n",
  "sourcePath": "/Users/petro/ether/augmint-contracts/contracts/Rates.sol",
  "compiler": {
    "name": "solc",
    "version": "0.4.23+commit.124ca40d.Emscripten.clang"
  },
  "schemaVersion": "2.0.0",
  "updatedAt": "2018-04-20T18:21:38.645Z"
}