{
  "contractName": "Rates",
  "abi": [
    {
      "constant": true,
      "inputs": [
        {
          "name": "weiValue",
          "type": "uint256"
        }
      ],
      "name": "convertWeiToUsdc",
      "outputs": [
        {
          "name": "usdcValue",
          "type": "uint256"
        }
      ],
      "payable": false,
      "stateMutability": "view",
      "type": "function"
    },
    {
      "constant": true,
      "inputs": [],
      "name": "USD_DECIMALS",
      "outputs": [
        {
          "name": "",
          "type": "uint8"
        }
      ],
      "payable": false,
      "stateMutability": "view",
      "type": "function"
    },
    {
      "constant": true,
      "inputs": [],
      "name": "ethUsdcRate",
      "outputs": [
        {
          "name": "",
          "type": "uint256"
        }
      ],
      "payable": false,
      "stateMutability": "view",
      "type": "function"
    },
    {
      "constant": true,
      "inputs": [
        {
          "name": "usdcValue",
          "type": "uint256"
        }
      ],
      "name": "convertUsdcToWei",
      "outputs": [
        {
          "name": "weiValue",
          "type": "uint256"
        }
      ],
      "payable": false,
      "stateMutability": "view",
      "type": "function"
    },
    {
      "constant": true,
      "inputs": [],
      "name": "owner",
      "outputs": [
        {
          "name": "",
          "type": "address"
        }
      ],
      "payable": false,
      "stateMutability": "view",
      "type": "function"
    },
    {
      "constant": false,
      "inputs": [
        {
          "name": "newEthUsdcRate",
          "type": "uint256"
        }
      ],
      "name": "ethToUsdc",
      "outputs": [],
      "payable": false,
      "stateMutability": "nonpayable",
      "type": "function"
    },
    {
      "constant": false,
      "inputs": [
        {
          "name": "newOwner",
          "type": "address"
        }
      ],
      "name": "transferOwnership",
      "outputs": [],
      "payable": false,
      "stateMutability": "nonpayable",
      "type": "function"
    },
    {
      "constant": true,
      "inputs": [],
      "name": "USD_SCALE",
      "outputs": [
        {
          "name": "",
          "type": "uint32"
        }
      ],
      "payable": false,
      "stateMutability": "view",
      "type": "function"
    },
    {
      "anonymous": false,
      "inputs": [
        {
          "indexed": false,
          "name": "newEthUsdcRate",
          "type": "uint256"
        }
      ],
      "name": "e_ethToUsdcChanged",
      "type": "event"
    },
    {
      "anonymous": false,
      "inputs": [
        {
          "indexed": true,
          "name": "oldOwner",
          "type": "address"
        },
        {
          "indexed": true,
          "name": "newOwner",
          "type": "address"
        }
      ],
      "name": "NewOwner",
      "type": "event"
    }
  ],
  "bytecode": "0x6060604052621dc130600155600073ffffffffffffffffffffffffffffffffffffffff166000809054906101000a900473ffffffffffffffffffffffffffffffffffffffff1673ffffffffffffffffffffffffffffffffffffffff1614151561006757600080fd5b336000806101000a81548173ffffffffffffffffffffffffffffffffffffffff021916908373ffffffffffffffffffffffffffffffffffffffff16021790555061057e806100b66000396000f30060606040526004361061008e576000357c0100000000000000000000000000000000000000000000000000000000900463ffffffff16806319605cd9146100935780632f6ee695146100ca5780635940da1e146100f957806375e1d3ac146101225780638da5cb5b14610159578063d8bddbd8146101ae578063f2fde38b146101d1578063f96d0baa1461020a575b600080fd5b341561009e57600080fd5b6100b4600480803590602001909190505061023f565b6040518082815260200191505060405180910390f35b34156100d557600080fd5b6100dd610277565b604051808260ff1660ff16815260200191505060405180910390f35b341561010457600080fd5b61010c61027c565b6040518082815260200191505060405180910390f35b341561012d57600080fd5b6101436004808035906020019091905050610282565b6040518082815260200191505060405180910390f35b341561016457600080fd5b61016c6102ba565b604051808273ffffffffffffffffffffffffffffffffffffffff1673ffffffffffffffffffffffffffffffffffffffff16815260200191505060405180910390f35b34156101b957600080fd5b6101cf60048080359060200190919050506102df565b005b34156101dc57600080fd5b610208600480803573ffffffffffffffffffffffffffffffffffffffff1690602001909190505061037d565b005b341561021557600080fd5b61021d6104d2565b604051808263ffffffff1663ffffffff16815260200191505060405180910390f35b6000610270670de0b6b3a7640000610262600154856104d890919063ffffffff16565b61050e90919063ffffffff16565b9050919050565b600481565b60015481565b60006102b36001546102a584670de0b6b3a76400006104d890919063ffffffff16565b61050e90919063ffffffff16565b9050919050565b6000809054906101000a900473ffffffffffffffffffffffffffffffffffffffff1681565b6000809054906101000a900473ffffffffffffffffffffffffffffffffffffffff1673ffffffffffffffffffffffffffffffffffffffff163373ffffffffffffffffffffffffffffffffffffffff1614151561033a57600080fd5b806001819055507f148205eae942f5b918b25c45e339e3a8214be73b66606179037cfbafc15a294d6001546040518082815260200191505060405180910390a150565b6000809054906101000a900473ffffffffffffffffffffffffffffffffffffffff1673ffffffffffffffffffffffffffffffffffffffff163373ffffffffffffffffffffffffffffffffffffffff161415156103d857600080fd5b600073ffffffffffffffffffffffffffffffffffffffff168173ffffffffffffffffffffffffffffffffffffffff161415151561041457600080fd5b8073ffffffffffffffffffffffffffffffffffffffff166000809054906101000a900473ffffffffffffffffffffffffffffffffffffffff1673ffffffffffffffffffffffffffffffffffffffff167f70aea8d848e8a90fb7661b227dc522eb6395c3dac71b63cb59edd5c9899b236460405160405180910390a3806000806101000a81548173ffffffffffffffffffffffffffffffffffffffff021916908373ffffffffffffffffffffffffffffffffffffffff16021790555050565b61271081565b600080828402905060008414806104f957508284828115156104f657fe5b04145b151561050457600080fd5b8091505092915050565b600080828481151561051c57fe5b04905060028381151561052b57fe5b04838581151561053757fe5b061015156105485780806001019150505b80915050929150505600a165627a7a72305820a84e9721532e8e3982647db114c64a5cab4054b4b37f9e895b454fb876c4f2740029",
  "source": "/*  mock implamentation of ETH/USD exchange rate oracle\n    TODO: use a more realistic rates oracle (eg. piggyback Oraclize pricing contract?)\n*/\npragma solidity ^0.4.11;\n\nimport \"./generic/SafeMath.sol\";\nimport \"./generic/Owned.sol\";\n\ncontract Rates is Owned {\n    using SafeMath for uint256;\n\n    uint constant ONE_ETH = 1000000000000000000; // 1 ETH in WEI\n\n    // 1 USD = 10000 ACDc\n    uint8 public constant USD_DECIMALS = 4; // USD values decimal places\n    uint32 public constant USD_SCALE = 10 ** 4;  // USDc to USD conversion, 10 ** USD_DECIMALS\n\n    // TODO: remove this when connected to an Oracle\n    uint public ethUsdcRate = 1950000   ;  //  1/195ETH = 512,820,512,821 WEI;\n\n    event e_ethToUsdcChanged(uint newEthUsdcRate);\n    function ethToUsdc(uint newEthUsdcRate) public onlyOwner {\n        ethUsdcRate = newEthUsdcRate;\n        e_ethToUsdcChanged(ethUsdcRate);\n        return;\n    }\n\n    function convertWeiToUsdc(uint weiValue) external view returns(uint usdcValue) {\n        return weiValue.mul(ethUsdcRate).roundedDiv(ONE_ETH);\n    }\n\n    function convertUsdcToWei(uint usdcValue) external view returns(uint weiValue) {\n        // TODO: can we make this not loosing max scale?\n        return ONE_ETH.mul(usdcValue).roundedDiv(ethUsdcRate) ;\n    }\n}\n",
  "sourcePath": "/Users/petro/ether/dcm-poc/contracts/Rates.sol",
  "compiler": {
    "name": "solc",
    "version": "0.4.18+commit.9cf6e910.Emscripten.clang"
  },
  "schemaVersion": "1.0.1",
  "updatedAt": "2018-01-06T09:38:10.188Z"
}