{
  "contractName": "Rates",
  "abi": [
    {
      "constant": true,
      "inputs": [
        {
          "name": "",
          "type": "address"
        },
        {
          "name": "",
          "type": "bytes32"
        }
      ],
      "name": "permissions",
      "outputs": [
        {
          "name": "",
          "type": "bool"
        }
      ],
      "payable": false,
      "stateMutability": "view",
      "type": "function"
    },
    {
      "constant": false,
      "inputs": [
        {
          "name": "agent",
          "type": "address"
        },
        {
          "name": "requiredPermission",
          "type": "bytes32"
        }
      ],
      "name": "revokePermission",
      "outputs": [],
      "payable": false,
      "stateMutability": "nonpayable",
      "type": "function"
    },
    {
      "constant": false,
      "inputs": [
        {
          "name": "agent",
          "type": "address"
        },
        {
          "name": "requiredPermissions",
          "type": "bytes32[]"
        }
      ],
      "name": "revokeMultiplePermissions",
      "outputs": [],
      "payable": false,
      "stateMutability": "nonpayable",
      "type": "function"
    },
    {
      "constant": false,
      "inputs": [
        {
          "name": "agent",
          "type": "address"
        },
        {
          "name": "requiredPermissions",
          "type": "bytes32[]"
        }
      ],
      "name": "grantMultiplePermissions",
      "outputs": [],
      "payable": false,
      "stateMutability": "nonpayable",
      "type": "function"
    },
    {
      "constant": true,
      "inputs": [
        {
          "name": "",
          "type": "bytes32"
        }
      ],
      "name": "rates",
      "outputs": [
        {
          "name": "rate",
          "type": "uint256"
        },
        {
          "name": "lastUpdated",
          "type": "uint256"
        }
      ],
      "payable": false,
      "stateMutability": "view",
      "type": "function"
    },
    {
      "constant": false,
      "inputs": [
        {
          "name": "agent",
          "type": "address"
        },
        {
          "name": "requiredPermission",
          "type": "bytes32"
        }
      ],
      "name": "grantPermission",
      "outputs": [],
      "payable": false,
      "stateMutability": "nonpayable",
      "type": "function"
    },
    {
      "anonymous": false,
      "inputs": [
        {
          "indexed": false,
          "name": "symbol",
          "type": "bytes32"
        },
        {
          "indexed": false,
          "name": "newRate",
          "type": "uint256"
        }
      ],
      "name": "RateChanged",
      "type": "event"
    },
    {
      "anonymous": false,
      "inputs": [
        {
          "indexed": true,
          "name": "agent",
          "type": "address"
        },
        {
          "indexed": false,
          "name": "grantedPermission",
          "type": "bytes32"
        }
      ],
      "name": "PermissionGranted",
      "type": "event"
    },
    {
      "anonymous": false,
      "inputs": [
        {
          "indexed": true,
          "name": "agent",
          "type": "address"
        },
        {
          "indexed": false,
          "name": "revokedPermission",
          "type": "bytes32"
        }
      ],
      "name": "PermissionRevoked",
      "type": "event"
    },
    {
      "constant": false,
      "inputs": [
        {
          "name": "symbol",
          "type": "bytes32"
        },
        {
          "name": "newRate",
          "type": "uint256"
        }
      ],
      "name": "setRate",
      "outputs": [],
      "payable": false,
      "stateMutability": "nonpayable",
      "type": "function"
    },
    {
      "constant": false,
      "inputs": [
        {
          "name": "symbols",
          "type": "bytes32[]"
        },
        {
          "name": "newRates",
          "type": "uint256[]"
        }
      ],
      "name": "setMultipleRates",
      "outputs": [],
      "payable": false,
      "stateMutability": "nonpayable",
      "type": "function"
    },
    {
      "constant": true,
      "inputs": [
        {
          "name": "bSymbol",
          "type": "bytes32"
        },
        {
          "name": "weiValue",
          "type": "uint256"
        }
      ],
      "name": "convertFromWei",
      "outputs": [
        {
          "name": "value",
          "type": "uint256"
        }
      ],
      "payable": false,
      "stateMutability": "view",
      "type": "function"
    },
    {
      "constant": true,
      "inputs": [
        {
          "name": "bSymbol",
          "type": "bytes32"
        },
        {
          "name": "value",
          "type": "uint256"
        }
      ],
      "name": "convertToWei",
      "outputs": [
        {
          "name": "weiValue",
          "type": "uint256"
        }
      ],
      "payable": false,
      "stateMutability": "view",
      "type": "function"
    }
  ],
  "bytecode": "0x606060405260016000803373ffffffffffffffffffffffffffffffffffffffff1673ffffffffffffffffffffffffffffffffffffffff16815260200190815260200160002060007f4d6f6e6574617279426f6172640000000000000000000000000000000000000060001916815260200190815260200160002060006101000a81548160ff0219169083151502179055503373ffffffffffffffffffffffffffffffffffffffff167fc65937e3dbcb9fb30f646815dd67a3dbd09ba17718cbcb54efbe3635f8e0a6fe60405180807f4d6f6e6574617279426f61726400000000000000000000000000000000000000815250602001905060405180910390a2610c2e8061010d6000396000f3006060604052600436106100a4576000357c0100000000000000000000000000000000000000000000000000000000900463ffffffff1680635b225526146100a95780635c481d8b146101075780635fe070131461014b578063680819eb146101915780637ea46993146101c157806382f5e31b1461023a5780639ac3317b1461027e578063dc726205146102f7578063dd17eaec14610339578063f38a82621461037b575b600080fd5b34156100b457600080fd5b6100ed600480803573ffffffffffffffffffffffffffffffffffffffff16906020019091908035600019169060200190919050506103c1565b604051808215151515815260200191505060405180910390f35b341561011257600080fd5b6101356004808035600019169060200190919080359060200190919050506103f0565b6040518082815260200191505060405180910390f35b341561015657600080fd5b61018f600480803573ffffffffffffffffffffffffffffffffffffffff1690602001909190803560001916906020019091905050610445565b005b341561019c57600080fd5b6101bf60048080356000191690602001909190803590602001909190505061059b565b005b34156101cc57600080fd5b610238600480803573ffffffffffffffffffffffffffffffffffffffff16906020019091908035906020019082018035906020019080806020026020016040519081016040528093929190818152602001838360200280828437820191505050505050919050506106bf565b005b341561024557600080fd5b610268600480803560001916906020019091908035906020019091905050610707565b6040518082815260200191505060405180910390f35b341561028957600080fd5b6102f5600480803573ffffffffffffffffffffffffffffffffffffffff1690602001909190803590602001908201803590602001908080602002602001604051908101604052809392919081815260200183836020028082843782019150505050505091905050610788565b005b341561030257600080fd5b61031c60048080356000191690602001909190505061085c565b604051808381526020018281526020019250505060405180910390f35b341561034457600080fd5b610379600480803590602001908201803590602001919091929080359060200190820180359060200191909192905050610880565b005b341561038657600080fd5b6103bf600480803573ffffffffffffffffffffffffffffffffffffffff1690602001909190803560001916906020019091905050610a32565b005b60006020528160005260406000206020528060005260406000206000915091509054906101000a900460ff1681565b600061043d6001600085600019166000191681526020019081526020016000206000015461042f670de0b6b3a764000085610b8890919063ffffffff16565b610bbe90919063ffffffff16565b905092915050565b6000803373ffffffffffffffffffffffffffffffffffffffff1673ffffffffffffffffffffffffffffffffffffffff16815260200190815260200160002060007f4d6f6e6574617279426f6172640000000000000000000000000000000000000060001916815260200190815260200160002060009054906101000a900460ff1615156104d157600080fd5b60008060008473ffffffffffffffffffffffffffffffffffffffff1673ffffffffffffffffffffffffffffffffffffffff1681526020019081526020016000206000836000191660001916815260200190815260200160002060006101000a81548160ff0219169083151502179055508173ffffffffffffffffffffffffffffffffffffffff167f789770131846de4d1f28418f0f957cdf4fcabe5eccf70067083e20ecece69a348260405180826000191660001916815260200191505060405180910390a25050565b7f73657452617465000000000000000000000000000000000000000000000000006000803373ffffffffffffffffffffffffffffffffffffffff1673ffffffffffffffffffffffffffffffffffffffff1681526020019081526020016000206000826000191660001916815260200190815260200160002060009054906101000a900460ff16151561062c57600080fd5b60408051908101604052808381526020014281525060016000856000191660001916815260200190815260200160002060008201518160000155602082015181600101559050507f9de72aa82d2cf62928e15749581b4bb9120a74b0de039e0908d84c73a28c82d783836040518083600019166000191681526020018281526020019250505060405180910390a1505050565b60008082519150600090505b81811015610701576106f48484838151811015156106e557fe5b90602001906020020151610445565b80806001019150506106cb565b50505050565b6000806001600085600019166000191681526020019081526020016000206000015411151561073557600080fd5b610780670de0b6b3a76400006107726001600087600019166000191681526020019081526020016000206000015485610b8890919063ffffffff16565b610bbe90919063ffffffff16565b905092915050565b6000806000803373ffffffffffffffffffffffffffffffffffffffff1673ffffffffffffffffffffffffffffffffffffffff16815260200190815260200160002060007f4d6f6e6574617279426f6172640000000000000000000000000000000000000060001916815260200190815260200160002060009054906101000a900460ff16151561081757600080fd5b82519150600090505b818110156108565761084984848381518110151561083a57fe5b90602001906020020151610a32565b8080600101915050610820565b50505050565b60016020528060005260406000206000915090508060000154908060010154905082565b60007f73657452617465000000000000000000000000000000000000000000000000006000803373ffffffffffffffffffffffffffffffffffffffff1673ffffffffffffffffffffffffffffffffffffffff1681526020019081526020016000206000826000191660001916815260200190815260200160002060009054906101000a900460ff16151561091357600080fd5b838390508686905014151561092757600080fd5b600091505b85859050821015610a2a576040805190810160405280858585818110151561095057fe5b9050602002013581526020014281525060016000888886818110151561097257fe5b90506020020135600019166000191660001916815260200190815260200160002060008201518160000155602082015181600101559050507f9de72aa82d2cf62928e15749581b4bb9120a74b0de039e0908d84c73a28c82d786868481811015156109d957fe5b905060200201356000191685858581811015156109f257fe5b905060200201356040518083600019166000191681526020018281526020019250505060405180910390a1818060010192505061092c565b505050505050565b6000803373ffffffffffffffffffffffffffffffffffffffff1673ffffffffffffffffffffffffffffffffffffffff16815260200190815260200160002060007f4d6f6e6574617279426f6172640000000000000000000000000000000000000060001916815260200190815260200160002060009054906101000a900460ff161515610abe57600080fd5b60016000808473ffffffffffffffffffffffffffffffffffffffff1673ffffffffffffffffffffffffffffffffffffffff1681526020019081526020016000206000836000191660001916815260200190815260200160002060006101000a81548160ff0219169083151502179055508173ffffffffffffffffffffffffffffffffffffffff167fc65937e3dbcb9fb30f646815dd67a3dbd09ba17718cbcb54efbe3635f8e0a6fe8260405180826000191660001916815260200191505060405180910390a25050565b60008082840290506000841480610ba95750828482811515610ba657fe5b04145b1515610bb457600080fd5b8091505092915050565b6000808284811515610bcc57fe5b049050600283811515610bdb57fe5b048385811515610be757fe5b06101515610bf85780806001019150505b80915050929150505600a165627a7a723058206b7e29fb8d0335107a586dd6f4f60c8c4c5728f11facc378a95a05812edf7e000029",
  "source": "/*\n Generic symbol / WEI rates contract.\n only callable by trusted price oracles.\n Being regularly called by a price oracle\n    TODO: trustless/decentrilezed price Oracle\n    TODO: shall we use blockNumber instead of now for lastUpdated?\n    TODO: consider if we need storing rates with variable decimals instead of fixed 4\n    TODO: could we emit 1 RateChanged event from setMultipleRates (symbols and newrates arrays)?\n*/\npragma solidity 0.4.21;\n\nimport \"./generic/SafeMath.sol\";\nimport \"./generic/Restricted.sol\";\n\n\ncontract Rates is Restricted {\n    using SafeMath for uint256;\n\n    struct RateInfo {\n        uint rate; // how much 1 WEI worth 1 unit , i.e. symbol/ETH rate\n                    // 0 rate means no rate info available\n        uint lastUpdated;\n    }\n\n    // mapping currency symbol => rate. all rates are stored with 4 decimals. i.e. ETH/EUR = 989.12 then rate = 989,1200\n    mapping(bytes32 => RateInfo) public rates;\n\n    event RateChanged(bytes32 symbol, uint newRate);\n\n    function setRate(bytes32 symbol, uint newRate) external restrict(\"setRate\") {\n        rates[symbol] = RateInfo(newRate, now);\n        emit RateChanged(symbol, newRate);\n    }\n\n    function setMultipleRates(bytes32[] symbols, uint[] newRates) external restrict(\"setRate\") {\n        require(symbols.length == newRates.length);\n        for (uint256 i = 0; i < symbols.length; i++) {\n            rates[symbols[i]] = RateInfo(newRates[i], now);\n            emit RateChanged(symbols[i], newRates[i]);\n        }\n    }\n\n    function convertFromWei(bytes32 bSymbol, uint weiValue) external view returns(uint value) {\n        require(rates[bSymbol].rate > 0);\n        return weiValue.mul(rates[bSymbol].rate).roundedDiv(1000000000000000000);\n    }\n\n    function convertToWei(bytes32 bSymbol, uint value) external view returns(uint weiValue) {\n        // no require(rates[symbol].rate >  0) needed b/c it will revert with div by zero\n        /* TODO: can we make this not loosing max scale? */\n        return value.mul(1000000000000000000).roundedDiv(rates[bSymbol].rate);\n    }\n\n}\n",
  "sourcePath": "/Users/petro/ether/augmint-contracts/contracts/Rates.sol",
  "compiler": {
    "name": "solc",
    "version": "0.4.21+commit.dfe3193c.Emscripten.clang"
  },
  "schemaVersion": "2.0.0",
  "updatedAt": "2018-04-10T18:50:16.315Z"
}