{
  "contractName": "Rates",
  "abi": [
    {
      "constant": false,
      "inputs": [
        {
          "name": "agent",
          "type": "address"
        },
        {
          "name": "requiredPermissions",
          "type": "bytes32[]"
        }
      ],
      "name": "revokeMulitplePermissions",
      "outputs": [],
      "payable": false,
      "stateMutability": "nonpayable",
      "type": "function"
    },
    {
      "constant": true,
      "inputs": [
        {
          "name": "",
          "type": "address"
        },
        {
          "name": "",
          "type": "bytes32"
        }
      ],
      "name": "permissions",
      "outputs": [
        {
          "name": "",
          "type": "bool"
        }
      ],
      "payable": false,
      "stateMutability": "view",
      "type": "function"
    },
    {
      "constant": true,
      "inputs": [
        {
          "name": "bSymbol",
          "type": "bytes32"
        },
        {
          "name": "value",
          "type": "uint256"
        }
      ],
      "name": "convertToWei",
      "outputs": [
        {
          "name": "weiValue",
          "type": "uint256"
        }
      ],
      "payable": false,
      "stateMutability": "view",
      "type": "function"
    },
    {
      "constant": true,
      "inputs": [
        {
          "name": "agent",
          "type": "address"
        },
        {
          "name": "permission",
          "type": "bytes32"
        }
      ],
      "name": "isAllowed",
      "outputs": [
        {
          "name": "",
          "type": "bool"
        }
      ],
      "payable": false,
      "stateMutability": "view",
      "type": "function"
    },
    {
      "constant": false,
      "inputs": [
        {
          "name": "agent",
          "type": "address"
        },
        {
          "name": "requiredPermission",
          "type": "bytes32"
        }
      ],
      "name": "revokePermission",
      "outputs": [],
      "payable": false,
      "stateMutability": "nonpayable",
      "type": "function"
    },
    {
      "constant": false,
      "inputs": [
        {
          "name": "symbol",
          "type": "bytes32"
        },
        {
          "name": "newRate",
          "type": "uint256"
        }
      ],
      "name": "setRate",
      "outputs": [],
      "payable": false,
      "stateMutability": "nonpayable",
      "type": "function"
    },
    {
      "constant": true,
      "inputs": [
        {
          "name": "bSymbol",
          "type": "bytes32"
        },
        {
          "name": "weiValue",
          "type": "uint256"
        }
      ],
      "name": "convertFromWei",
      "outputs": [
        {
          "name": "value",
          "type": "uint256"
        }
      ],
      "payable": false,
      "stateMutability": "view",
      "type": "function"
    },
    {
      "constant": true,
      "inputs": [],
      "name": "owner",
      "outputs": [
        {
          "name": "",
          "type": "address"
        }
      ],
      "payable": false,
      "stateMutability": "view",
      "type": "function"
    },
    {
      "constant": false,
      "inputs": [
        {
          "name": "agent",
          "type": "address"
        },
        {
          "name": "requiredPermissions",
          "type": "bytes32[]"
        }
      ],
      "name": "grantMultiplePermissions",
      "outputs": [],
      "payable": false,
      "stateMutability": "nonpayable",
      "type": "function"
    },
    {
      "constant": true,
      "inputs": [
        {
          "name": "",
          "type": "bytes32"
        }
      ],
      "name": "rates",
      "outputs": [
        {
          "name": "rate",
          "type": "uint256"
        },
        {
          "name": "lastUpdated",
          "type": "uint256"
        }
      ],
      "payable": false,
      "stateMutability": "view",
      "type": "function"
    },
    {
      "constant": false,
      "inputs": [
        {
          "name": "symbols",
          "type": "bytes32[]"
        },
        {
          "name": "newRates",
          "type": "uint256[]"
        }
      ],
      "name": "setMultipleRates",
      "outputs": [],
      "payable": false,
      "stateMutability": "nonpayable",
      "type": "function"
    },
    {
      "constant": false,
      "inputs": [
        {
          "name": "newOwner",
          "type": "address"
        }
      ],
      "name": "transferOwnership",
      "outputs": [],
      "payable": false,
      "stateMutability": "nonpayable",
      "type": "function"
    },
    {
      "constant": false,
      "inputs": [
        {
          "name": "agent",
          "type": "address"
        },
        {
          "name": "requiredPermission",
          "type": "bytes32"
        }
      ],
      "name": "grantPermission",
      "outputs": [],
      "payable": false,
      "stateMutability": "nonpayable",
      "type": "function"
    },
    {
      "anonymous": false,
      "inputs": [
        {
          "indexed": false,
          "name": "symbol",
          "type": "bytes32"
        },
        {
          "indexed": false,
          "name": "newRate",
          "type": "uint256"
        }
      ],
      "name": "RateChanged",
      "type": "event"
    },
    {
      "anonymous": false,
      "inputs": [
        {
          "indexed": true,
          "name": "agent",
          "type": "address"
        },
        {
          "indexed": false,
          "name": "grantedPermission",
          "type": "bytes32"
        }
      ],
      "name": "PermissionGranted",
      "type": "event"
    },
    {
      "anonymous": false,
      "inputs": [
        {
          "indexed": true,
          "name": "agent",
          "type": "address"
        },
        {
          "indexed": false,
          "name": "revokedPermission",
          "type": "bytes32"
        }
      ],
      "name": "PermissionRevoked",
      "type": "event"
    },
    {
      "anonymous": false,
      "inputs": [
        {
          "indexed": true,
          "name": "oldOwner",
          "type": "address"
        },
        {
          "indexed": true,
          "name": "newOwner",
          "type": "address"
        }
      ],
      "name": "NewOwner",
      "type": "event"
    }
  ],
  "bytecode": "0x6060604052600073ffffffffffffffffffffffffffffffffffffffff166000809054906101000a900473ffffffffffffffffffffffffffffffffffffffff1673ffffffffffffffffffffffffffffffffffffffff1614151561006057600080fd5b336000806101000a81548173ffffffffffffffffffffffffffffffffffffffff021916908373ffffffffffffffffffffffffffffffffffffffff160217905550610ef0806100af6000396000f3006060604052600436106100c5576000357c0100000000000000000000000000000000000000000000000000000000900463ffffffff1680630da32eaa146100ca5780635b225526146101435780635c481d8b146101a15780635cb8dd09146101e55780635fe0701314610243578063680819eb1461028957806382f5e31b146102b95780638da5cb5b146102fd5780639ac3317b14610352578063dc726205146103cb578063dd17eaec1461040d578063f2fde38b1461044f578063f38a826214610488575b600080fd5b34156100d557600080fd5b610141600480803573ffffffffffffffffffffffffffffffffffffffff16906020019091908035906020019082018035906020019080806020026020016040519081016040528093929190818152602001838360200280828437820191505050505050919050506104ce565b005b341561014e57600080fd5b610187600480803573ffffffffffffffffffffffffffffffffffffffff1690602001909190803560001916906020019091905050610571565b604051808215151515815260200191505060405180910390f35b34156101ac57600080fd5b6101cf6004808035600019169060200190919080359060200190919050506105a0565b6040518082815260200191505060405180910390f35b34156101f057600080fd5b610229600480803573ffffffffffffffffffffffffffffffffffffffff16906020019091908035600019169060200190919050506105f5565b604051808215151515815260200191505060405180910390f35b341561024e57600080fd5b610287600480803573ffffffffffffffffffffffffffffffffffffffff1690602001909190803560001916906020019091905050610665565b005b341561029457600080fd5b6102b760048080356000191690602001909190803590602001909190505061078b565b005b34156102c457600080fd5b6102e76004808035600019169060200190919080359060200190919050506108b0565b6040518082815260200191505060405180910390f35b341561030857600080fd5b610310610931565b604051808273ffffffffffffffffffffffffffffffffffffffff1673ffffffffffffffffffffffffffffffffffffffff16815260200191505060405180910390f35b341561035d57600080fd5b6103c9600480803573ffffffffffffffffffffffffffffffffffffffff1690602001909190803590602001908201803590602001908080602002602001604051908101604052809392919081815260200183836020028082843782019150505050505091905050610956565b005b34156103d657600080fd5b6103f06004808035600019169060200190919050506109f9565b604051808381526020018281526020019250505060405180910390f35b341561041857600080fd5b61044d600480803590602001908201803590602001919091929080359060200190820180359060200191909192905050610a1d565b005b341561045a57600080fd5b610486600480803573ffffffffffffffffffffffffffffffffffffffff16906020019091905050610bd0565b005b341561049357600080fd5b6104cc600480803573ffffffffffffffffffffffffffffffffffffffff1690602001909190803560001916906020019091905050610d25565b005b6000806000809054906101000a900473ffffffffffffffffffffffffffffffffffffffff1673ffffffffffffffffffffffffffffffffffffffff163373ffffffffffffffffffffffffffffffffffffffff1614151561052c57600080fd5b82519150600090505b8181101561056b5761055e84848381518110151561054f57fe5b90602001906020020151610665565b8080600101915050610535565b50505050565b60016020528160005260406000206020528060005260406000206000915091509054906101000a900460ff1681565b60006105ed600260008560001916600019168152602001908152602001600020600001546105df670de0b6b3a764000085610e4a90919063ffffffff16565b610e8090919063ffffffff16565b905092915050565b6000600160008473ffffffffffffffffffffffffffffffffffffffff1673ffffffffffffffffffffffffffffffffffffffff1681526020019081526020016000206000836000191660001916815260200190815260200160002060009054906101000a900460ff16905092915050565b6000809054906101000a900473ffffffffffffffffffffffffffffffffffffffff1673ffffffffffffffffffffffffffffffffffffffff163373ffffffffffffffffffffffffffffffffffffffff161415156106c057600080fd5b6000600160008473ffffffffffffffffffffffffffffffffffffffff1673ffffffffffffffffffffffffffffffffffffffff1681526020019081526020016000206000836000191660001916815260200190815260200160002060006101000a81548160ff0219169083151502179055508173ffffffffffffffffffffffffffffffffffffffff167f789770131846de4d1f28418f0f957cdf4fcabe5eccf70067083e20ecece69a348260405180826000191660001916815260200191505060405180910390a25050565b7f7365745261746500000000000000000000000000000000000000000000000000600160003373ffffffffffffffffffffffffffffffffffffffff1673ffffffffffffffffffffffffffffffffffffffff1681526020019081526020016000206000826000191660001916815260200190815260200160002060009054906101000a900460ff16151561081d57600080fd5b60408051908101604052808381526020014281525060026000856000191660001916815260200190815260200160002060008201518160000155602082015181600101559050507f9de72aa82d2cf62928e15749581b4bb9120a74b0de039e0908d84c73a28c82d783836040518083600019166000191681526020018281526020019250505060405180910390a1505050565b600080600260008560001916600019168152602001908152602001600020600001541115156108de57600080fd5b610929670de0b6b3a764000061091b6002600087600019166000191681526020019081526020016000206000015485610e4a90919063ffffffff16565b610e8090919063ffffffff16565b905092915050565b6000809054906101000a900473ffffffffffffffffffffffffffffffffffffffff1681565b6000806000809054906101000a900473ffffffffffffffffffffffffffffffffffffffff1673ffffffffffffffffffffffffffffffffffffffff163373ffffffffffffffffffffffffffffffffffffffff161415156109b457600080fd5b82519150600090505b818110156109f3576109e68484838151811015156109d757fe5b90602001906020020151610d25565b80806001019150506109bd565b50505050565b60026020528060005260406000206000915090508060000154908060010154905082565b60007f7365745261746500000000000000000000000000000000000000000000000000600160003373ffffffffffffffffffffffffffffffffffffffff1673ffffffffffffffffffffffffffffffffffffffff1681526020019081526020016000206000826000191660001916815260200190815260200160002060009054906101000a900460ff161515610ab157600080fd5b8383905086869050141515610ac557600080fd5b600091505b85859050821015610bc85760408051908101604052808585858181101515610aee57fe5b90506020020135815260200142815250600260008888868181101515610b1057fe5b90506020020135600019166000191660001916815260200190815260200160002060008201518160000155602082015181600101559050507f9de72aa82d2cf62928e15749581b4bb9120a74b0de039e0908d84c73a28c82d78686848181101515610b7757fe5b90506020020135600019168585858181101515610b9057fe5b905060200201356040518083600019166000191681526020018281526020019250505060405180910390a18180600101925050610aca565b505050505050565b6000809054906101000a900473ffffffffffffffffffffffffffffffffffffffff1673ffffffffffffffffffffffffffffffffffffffff163373ffffffffffffffffffffffffffffffffffffffff16141515610c2b57600080fd5b600073ffffffffffffffffffffffffffffffffffffffff168173ffffffffffffffffffffffffffffffffffffffff1614151515610c6757600080fd5b8073ffffffffffffffffffffffffffffffffffffffff166000809054906101000a900473ffffffffffffffffffffffffffffffffffffffff1673ffffffffffffffffffffffffffffffffffffffff167f70aea8d848e8a90fb7661b227dc522eb6395c3dac71b63cb59edd5c9899b236460405160405180910390a3806000806101000a81548173ffffffffffffffffffffffffffffffffffffffff021916908373ffffffffffffffffffffffffffffffffffffffff16021790555050565b6000809054906101000a900473ffffffffffffffffffffffffffffffffffffffff1673ffffffffffffffffffffffffffffffffffffffff163373ffffffffffffffffffffffffffffffffffffffff16141515610d8057600080fd5b60018060008473ffffffffffffffffffffffffffffffffffffffff1673ffffffffffffffffffffffffffffffffffffffff1681526020019081526020016000206000836000191660001916815260200190815260200160002060006101000a81548160ff0219169083151502179055508173ffffffffffffffffffffffffffffffffffffffff167fc65937e3dbcb9fb30f646815dd67a3dbd09ba17718cbcb54efbe3635f8e0a6fe8260405180826000191660001916815260200191505060405180910390a25050565b60008082840290506000841480610e6b5750828482811515610e6857fe5b04145b1515610e7657600080fd5b8091505092915050565b6000808284811515610e8e57fe5b049050600283811515610e9d57fe5b048385811515610ea957fe5b06101515610eba5780806001019150505b80915050929150505600a165627a7a72305820ea754bc51984286c45e07f21f8eb82ec656fd7fe2bb624ca3dcc85334ccbbdfd0029",
  "source": "/*\n Generic symbol / WEI rates contract.\n only callable by trusted price oracles.\n Being regularly called by a price oracle\n    TODO: trustless/decentrilezed price Oracle\n    TODO: shall we use blockNumber instead of now for lastUpdated?\n    TODO: consider if we need storing rates with variable decimals instead of fixed 4\n    TODO: could we emit 1 RateChanged event from setMultipleRates (symbols and newrates arrays)?\n*/\npragma solidity 0.4.18;\n\nimport \"./generic/SafeMath.sol\";\nimport \"./generic/Restricted.sol\";\n\n\ncontract Rates is Restricted {\n    using SafeMath for uint256;\n\n    struct RateInfo {\n        uint rate; // how much 1 WEI worth 1 unit , i.e. symbol/ETH rate\n                    // 0 rate means no rate info available\n        uint lastUpdated;\n    }\n\n    // mapping currency symbol => rate. all rates are stored with 4 decimals. i.e. ETH/EUR = 989.12 then rate = 989,1200\n    mapping(bytes32 => RateInfo) public rates;\n\n    event RateChanged(bytes32 symbol, uint newRate);\n\n    function convertFromWei(bytes32 bSymbol, uint weiValue) external view returns(uint value) {\n        require(rates[bSymbol].rate > 0);\n        return weiValue.mul(rates[bSymbol].rate).roundedDiv(1000000000000000000);\n    }\n\n    function convertToWei(bytes32 bSymbol, uint value) external view returns(uint weiValue) {\n        // no require(rates[symbol].rate >  0) needed b/c it will revert with div by zero\n        /* TODO: can we make this not loosing max scale? */\n        return value.mul(1000000000000000000).roundedDiv(rates[bSymbol].rate);\n    }\n\n    function setRate(bytes32 symbol, uint newRate) external restrict(\"setRate\") {\n        rates[symbol] = RateInfo(newRate, now);\n        RateChanged(symbol, newRate);\n    }\n\n    function setMultipleRates(bytes32[] symbols, uint[] newRates) external restrict(\"setRate\") {\n        require(symbols.length == newRates.length);\n        for (uint256 i = 0; i < symbols.length; i++) {\n            rates[symbols[i]] = RateInfo(newRates[i], now);\n            RateChanged(symbols[i], newRates[i]);\n        }\n\n    }\n\n}\n",
  "sourcePath": "/Users/petro/ether/dcm-poc/contracts/Rates.sol",
  "compiler": {
    "name": "solc",
    "version": "0.4.18+commit.9cf6e910.Emscripten.clang"
  },
  "schemaVersion": "1.0.1",
  "updatedAt": "2018-01-10T20:22:40.473Z"
}