{
  "contractName": "Restricted",
  "abi": [
    {
      "constant": false,
      "inputs": [
        {
          "name": "agent",
          "type": "address"
        },
        {
          "name": "requiredPermissions",
          "type": "bytes32[]"
        }
      ],
      "name": "revokeMulitplePermissions",
      "outputs": [],
      "payable": false,
      "stateMutability": "nonpayable",
      "type": "function"
    },
    {
      "constant": true,
      "inputs": [
        {
          "name": "",
          "type": "address"
        },
        {
          "name": "",
          "type": "bytes32"
        }
      ],
      "name": "permissions",
      "outputs": [
        {
          "name": "",
          "type": "bool"
        }
      ],
      "payable": false,
      "stateMutability": "view",
      "type": "function"
    },
    {
      "constant": true,
      "inputs": [
        {
          "name": "agent",
          "type": "address"
        },
        {
          "name": "permission",
          "type": "bytes32"
        }
      ],
      "name": "isAllowed",
      "outputs": [
        {
          "name": "",
          "type": "bool"
        }
      ],
      "payable": false,
      "stateMutability": "view",
      "type": "function"
    },
    {
      "constant": false,
      "inputs": [
        {
          "name": "agent",
          "type": "address"
        },
        {
          "name": "requiredPermission",
          "type": "bytes32"
        }
      ],
      "name": "revokePermission",
      "outputs": [],
      "payable": false,
      "stateMutability": "nonpayable",
      "type": "function"
    },
    {
      "constant": true,
      "inputs": [],
      "name": "owner",
      "outputs": [
        {
          "name": "",
          "type": "address"
        }
      ],
      "payable": false,
      "stateMutability": "view",
      "type": "function"
    },
    {
      "constant": false,
      "inputs": [
        {
          "name": "agent",
          "type": "address"
        },
        {
          "name": "requiredPermissions",
          "type": "bytes32[]"
        }
      ],
      "name": "grantMultiplePermissions",
      "outputs": [],
      "payable": false,
      "stateMutability": "nonpayable",
      "type": "function"
    },
    {
      "constant": false,
      "inputs": [
        {
          "name": "newOwner",
          "type": "address"
        }
      ],
      "name": "transferOwnership",
      "outputs": [],
      "payable": false,
      "stateMutability": "nonpayable",
      "type": "function"
    },
    {
      "constant": false,
      "inputs": [
        {
          "name": "agent",
          "type": "address"
        },
        {
          "name": "requiredPermission",
          "type": "bytes32"
        }
      ],
      "name": "grantPermission",
      "outputs": [],
      "payable": false,
      "stateMutability": "nonpayable",
      "type": "function"
    },
    {
      "anonymous": false,
      "inputs": [
        {
          "indexed": true,
          "name": "agent",
          "type": "address"
        },
        {
          "indexed": false,
          "name": "grantedPermission",
          "type": "bytes32"
        }
      ],
      "name": "PermissionGranted",
      "type": "event"
    },
    {
      "anonymous": false,
      "inputs": [
        {
          "indexed": true,
          "name": "agent",
          "type": "address"
        },
        {
          "indexed": false,
          "name": "revokedPermission",
          "type": "bytes32"
        }
      ],
      "name": "PermissionRevoked",
      "type": "event"
    },
    {
      "anonymous": false,
      "inputs": [
        {
          "indexed": true,
          "name": "oldOwner",
          "type": "address"
        },
        {
          "indexed": true,
          "name": "newOwner",
          "type": "address"
        }
      ],
      "name": "NewOwner",
      "type": "event"
    }
  ],
  "bytecode": "0x6060604052600073ffffffffffffffffffffffffffffffffffffffff166000809054906101000a900473ffffffffffffffffffffffffffffffffffffffff1673ffffffffffffffffffffffffffffffffffffffff1614151561006057600080fd5b336000806101000a81548173ffffffffffffffffffffffffffffffffffffffff021916908373ffffffffffffffffffffffffffffffffffffffff160217905550610931806100af6000396000f30060606040526004361061008e576000357c0100000000000000000000000000000000000000000000000000000000900463ffffffff1680630da32eaa146100935780635b2255261461010c5780635cb8dd091461016a5780635fe07013146101c85780638da5cb5b1461020e5780639ac3317b14610263578063f2fde38b146102dc578063f38a826214610315575b600080fd5b341561009e57600080fd5b61010a600480803573ffffffffffffffffffffffffffffffffffffffff169060200190919080359060200190820180359060200190808060200260200160405190810160405280939291908181526020018383602002808284378201915050505050509190505061035b565b005b341561011757600080fd5b610150600480803573ffffffffffffffffffffffffffffffffffffffff16906020019091908035600019169060200190919050506103fe565b604051808215151515815260200191505060405180910390f35b341561017557600080fd5b6101ae600480803573ffffffffffffffffffffffffffffffffffffffff169060200190919080356000191690602001909190505061042d565b604051808215151515815260200191505060405180910390f35b34156101d357600080fd5b61020c600480803573ffffffffffffffffffffffffffffffffffffffff169060200190919080356000191690602001909190505061049d565b005b341561021957600080fd5b6102216105c3565b604051808273ffffffffffffffffffffffffffffffffffffffff1673ffffffffffffffffffffffffffffffffffffffff16815260200191505060405180910390f35b341561026e57600080fd5b6102da600480803573ffffffffffffffffffffffffffffffffffffffff16906020019091908035906020019082018035906020019080806020026020016040519081016040528093929190818152602001838360200280828437820191505050505050919050506105e8565b005b34156102e757600080fd5b610313600480803573ffffffffffffffffffffffffffffffffffffffff1690602001909190505061068b565b005b341561032057600080fd5b610359600480803573ffffffffffffffffffffffffffffffffffffffff16906020019091908035600019169060200190919050506107e0565b005b6000806000809054906101000a900473ffffffffffffffffffffffffffffffffffffffff1673ffffffffffffffffffffffffffffffffffffffff163373ffffffffffffffffffffffffffffffffffffffff161415156103b957600080fd5b82519150600090505b818110156103f8576103eb8484838151811015156103dc57fe5b9060200190602002015161049d565b80806001019150506103c2565b50505050565b60016020528160005260406000206020528060005260406000206000915091509054906101000a900460ff1681565b6000600160008473ffffffffffffffffffffffffffffffffffffffff1673ffffffffffffffffffffffffffffffffffffffff1681526020019081526020016000206000836000191660001916815260200190815260200160002060009054906101000a900460ff16905092915050565b6000809054906101000a900473ffffffffffffffffffffffffffffffffffffffff1673ffffffffffffffffffffffffffffffffffffffff163373ffffffffffffffffffffffffffffffffffffffff161415156104f857600080fd5b6000600160008473ffffffffffffffffffffffffffffffffffffffff1673ffffffffffffffffffffffffffffffffffffffff1681526020019081526020016000206000836000191660001916815260200190815260200160002060006101000a81548160ff0219169083151502179055508173ffffffffffffffffffffffffffffffffffffffff167f789770131846de4d1f28418f0f957cdf4fcabe5eccf70067083e20ecece69a348260405180826000191660001916815260200191505060405180910390a25050565b6000809054906101000a900473ffffffffffffffffffffffffffffffffffffffff1681565b6000806000809054906101000a900473ffffffffffffffffffffffffffffffffffffffff1673ffffffffffffffffffffffffffffffffffffffff163373ffffffffffffffffffffffffffffffffffffffff1614151561064657600080fd5b82519150600090505b818110156106855761067884848381518110151561066957fe5b906020019060200201516107e0565b808060010191505061064f565b50505050565b6000809054906101000a900473ffffffffffffffffffffffffffffffffffffffff1673ffffffffffffffffffffffffffffffffffffffff163373ffffffffffffffffffffffffffffffffffffffff161415156106e657600080fd5b600073ffffffffffffffffffffffffffffffffffffffff168173ffffffffffffffffffffffffffffffffffffffff161415151561072257600080fd5b8073ffffffffffffffffffffffffffffffffffffffff166000809054906101000a900473ffffffffffffffffffffffffffffffffffffffff1673ffffffffffffffffffffffffffffffffffffffff167f70aea8d848e8a90fb7661b227dc522eb6395c3dac71b63cb59edd5c9899b236460405160405180910390a3806000806101000a81548173ffffffffffffffffffffffffffffffffffffffff021916908373ffffffffffffffffffffffffffffffffffffffff16021790555050565b6000809054906101000a900473ffffffffffffffffffffffffffffffffffffffff1673ffffffffffffffffffffffffffffffffffffffff163373ffffffffffffffffffffffffffffffffffffffff1614151561083b57600080fd5b60018060008473ffffffffffffffffffffffffffffffffffffffff1673ffffffffffffffffffffffffffffffffffffffff1681526020019081526020016000206000836000191660001916815260200190815260200160002060006101000a81548160ff0219169083151502179055508173ffffffffffffffffffffffffffffffffffffffff167fc65937e3dbcb9fb30f646815dd67a3dbd09ba17718cbcb54efbe3635f8e0a6fe8260405180826000191660001916815260200191505060405180910390a250505600a165627a7a7230582051512cad0d346d3e4273fba234b45fde532a4877bd457346696299bb56e299120029",
  "source": "/*\n    Generic contract to authorise calls to certain functions only from a given address.\n    This is just for single adderss authorisation.\n\n    TODO: replace Owned with multisig permission\n*/\n\npragma solidity 0.4.18;\nimport \"./Owned.sol\";\n\n\ncontract Restricted is Owned {\n\n    // NB: using bytes32 rather than the string type because it's cheaper gas-wise:\n    mapping (address => mapping (bytes32 => bool)) public permissions;\n\n    event PermissionGranted(address indexed agent, bytes32 grantedPermission);\n    event PermissionRevoked(address indexed agent, bytes32 revokedPermission);\n\n    modifier restrict(bytes32 requiredPermission) {\n        require(permissions[msg.sender][requiredPermission]);\n        _;\n    }\n\n    function isAllowed(address agent, bytes32 permission) public view returns (bool) {\n        return(permissions[agent][permission]);\n    }\n\n    function grantPermission(address agent, bytes32 requiredPermission) public onlyOwner {\n        permissions[agent][requiredPermission] = true;\n        PermissionGranted(agent, requiredPermission);\n    }\n\n    function grantMultiplePermissions(address agent, bytes32[] requiredPermissions) public onlyOwner {\n        uint256 length = requiredPermissions.length;\n        for (uint256 i = 0; i < length; i++) {\n            grantPermission(agent, requiredPermissions[i]);\n        }\n    }\n\n    function revokePermission(address agent, bytes32 requiredPermission) public onlyOwner {\n        permissions[agent][requiredPermission] = false;\n        PermissionRevoked(agent, requiredPermission);\n    }\n\n    function revokeMulitplePermissions(address agent, bytes32[] requiredPermissions) public onlyOwner {\n        uint256 length = requiredPermissions.length;\n        for (uint256 i = 0; i < length; i++) {\n            revokePermission(agent, requiredPermissions[i]);\n        }\n    }\n\n}\n",
  "sourcePath": "/Users/petro/ether/dcm-poc/contracts/generic/Restricted.sol",
  "compiler": {
    "name": "solc",
    "version": "0.4.18+commit.9cf6e910.Emscripten.clang"
  },
  "schemaVersion": "1.0.1",
  "updatedAt": "2018-01-10T20:22:33.721Z"
}