{
  "contractName": "SafeMath",
  "abi": [
    {
      "constant": true,
      "inputs": [
        {
          "name": "a",
          "type": "uint256"
        },
        {
          "name": "b",
          "type": "uint256"
        }
      ],
      "name": "roundedDiv",
      "outputs": [
        {
          "name": "",
          "type": "uint256"
        }
      ],
      "payable": false,
      "type": "function",
      "stateMutability": "view"
    }
  ],
  "bytecode": "0x6060604052341561000f57600080fd5b60e38061001d6000396000f300606060405260043610603f576000357c0100000000000000000000000000000000000000000000000000000000900463ffffffff16806351b644c0146044575b600080fd5b606160048080359060200190919080359060200190919050506077565b6040518082815260200191505060405180910390f35b6000808284811515608457fe5b049050600283811515609257fe5b048385811515609d57fe5b0610151560ad5780806001019150505b80915050929150505600a165627a7a7230582048e471c29ef0d752ef2bf7335720c1ad9f50f159034bff632892aa276373226c0029",
  "source": "pragma solidity ^0.4.11;\n\n/**\n* @title SafeMath\n* @dev Math operations with safety checks that throw on error\n\n    TODO: check against ds-math: https://blog.dapphub.com/ds-math/\n    TODO: move roundedDiv to a sep lib? (eg. Math.sol)\n*\n*/\nlibrary SafeMath {\n    function mul(uint256 a, uint256 b) internal constant returns (uint256) {\n        uint256 c = a * b;\n        assert(a == 0 || c / a == b);\n        return c;\n    }\n\n    function div(uint256 a, uint256 b) internal constant returns (uint256) {\n        // assert(b > 0); // Solidity automatically throws when dividing by 0\n        uint256 c = a / b;\n        // assert(a == b * c + a % b); // There is no case in which this doesn't hold\n        return c;\n    }\n\n    function sub(uint256 a, uint256 b) internal constant returns (uint256) {\n        assert(b <= a);\n        return a - b;\n    }\n\n    function add(uint256 a, uint256 b) internal constant returns (uint256) {\n        uint256 c = a + b;\n        assert(c >= a);\n        return c;\n    }\n\n    function roundedDiv(uint a, uint b)  constant returns (uint256) {\n        // assert(b > 0); // Solidity automatically throws when dividing by 0\n        uint256 z = a / b;\n        if ( a % b >= b / 2) {\n            z++;  // no need for safe add b/c it can happen only if we divided the input\n        }\n        return z;\n    }\n}\n",
  "sourcePath": "/Users/petro/ether/dcm-poc/contracts/SafeMath.sol",
  "compiler": {
    "name": "solc",
    "version": "0.4.18+commit.9cf6e910.Emscripten.clang"
  },
  "schemaVersion": "1.0.1",
  "updatedAt": "2017-11-02T15:35:41.601Z"
}