{
  "contractName": "SignCheck",
  "abi": [
    {
      "constant": true,
      "inputs": [
        {
          "name": "message",
          "type": "string"
        }
      ],
      "name": "getKeccak256",
      "outputs": [
        {
          "name": "_hash",
          "type": "bytes32"
        }
      ],
      "payable": false,
      "stateMutability": "pure",
      "type": "function"
    },
    {
      "constant": true,
      "inputs": [
        {
          "name": "_from",
          "type": "address"
        },
        {
          "name": "_to",
          "type": "address"
        },
        {
          "name": "_amount",
          "type": "uint256"
        },
        {
          "name": "_signer",
          "type": "address"
        },
        {
          "name": "_signature",
          "type": "bytes"
        }
      ],
      "name": "ecVerifyTx",
      "outputs": [
        {
          "name": "valid",
          "type": "bool"
        },
        {
          "name": "",
          "type": "address"
        }
      ],
      "payable": false,
      "stateMutability": "pure",
      "type": "function"
    },
    {
      "constant": true,
      "inputs": [
        {
          "name": "m1",
          "type": "string"
        },
        {
          "name": "m2",
          "type": "string"
        }
      ],
      "name": "getKeccak256",
      "outputs": [
        {
          "name": "_hash1",
          "type": "bytes32"
        },
        {
          "name": "_hash2",
          "type": "bytes32"
        }
      ],
      "payable": false,
      "stateMutability": "pure",
      "type": "function"
    },
    {
      "constant": true,
      "inputs": [
        {
          "name": "hash",
          "type": "bytes32"
        },
        {
          "name": "sig",
          "type": "bytes"
        }
      ],
      "name": "ecRecovery",
      "outputs": [
        {
          "name": "recoveredAddress",
          "type": "address"
        }
      ],
      "payable": false,
      "stateMutability": "pure",
      "type": "function"
    },
    {
      "constant": true,
      "inputs": [
        {
          "name": "_hash",
          "type": "bytes32"
        },
        {
          "name": "_signer",
          "type": "address"
        },
        {
          "name": "_signature",
          "type": "bytes"
        }
      ],
      "name": "ecVerify",
      "outputs": [
        {
          "name": "valid",
          "type": "bool"
        }
      ],
      "payable": false,
      "stateMutability": "pure",
      "type": "function"
    },
    {
      "constant": true,
      "inputs": [
        {
          "name": "_hash",
          "type": "bytes32"
        },
        {
          "name": "_signer",
          "type": "address"
        },
        {
          "name": "_signature",
          "type": "bytes"
        }
      ],
      "name": "ecVerifyPrefixed",
      "outputs": [
        {
          "name": "valid",
          "type": "bool"
        }
      ],
      "payable": false,
      "stateMutability": "pure",
      "type": "function"
    },
    {
      "constant": true,
      "inputs": [
        {
          "name": "msgLength",
          "type": "string"
        },
        {
          "name": "paramsString",
          "type": "string"
        },
        {
          "name": "nonce",
          "type": "bytes32"
        },
        {
          "name": "_from",
          "type": "address"
        },
        {
          "name": "_to",
          "type": "address"
        },
        {
          "name": "_amount",
          "type": "uint256"
        }
      ],
      "name": "getEthereumKeccak256",
      "outputs": [
        {
          "name": "_hash",
          "type": "bytes32"
        }
      ],
      "payable": false,
      "stateMutability": "pure",
      "type": "function"
    }
  ],
  "bytecode": "0x6060604052341561000f57600080fd5b610d928061001e6000396000f300606060405260043610610082576000357c0100000000000000000000000000000000000000000000000000000000900463ffffffff168062f86ac7146100875780635fa1eccb1461010057806375d4066d1461020e578063c5e24f86146102d9578063df0e6e3314610383578063eac0551014610424578063f35c86c1146104c5575b600080fd5b341561009257600080fd5b6100e2600480803590602001908201803590602001908080601f016020809104026020016040519081016040528093929190818152602001838380828437820191505050505050919050506105d5565b60405180826000191660001916815260200191505060405180910390f35b341561010b57600080fd5b6101c1600480803573ffffffffffffffffffffffffffffffffffffffff1690602001909190803573ffffffffffffffffffffffffffffffffffffffff1690602001909190803590602001909190803573ffffffffffffffffffffffffffffffffffffffff1690602001909190803590602001908201803590602001908080601f01602080910402602001604051908101604052809392919081815260200183838082843782019150505050505091905050610641565b60405180831515151581526020018273ffffffffffffffffffffffffffffffffffffffff1673ffffffffffffffffffffffffffffffffffffffff1681526020019250505060405180910390f35b341561021957600080fd5b6102ac600480803590602001908201803590602001908080601f0160208091040260200160405190810160405280939291908181526020018383808284378201915050505050509190803590602001908201803590602001908080601f016020809104026020016040519081016040528093929190818152602001838380828437820191505050505050919050506107ef565b60405180836000191660001916815260200182600019166000191681526020019250505060405180910390f35b34156102e457600080fd5b61034160048080356000191690602001909190803590602001908201803590602001908080601f0160208091040260200160405190810160405280939291908181526020018383808284378201915050505050509190505061098a565b604051808273ffffffffffffffffffffffffffffffffffffffff1673ffffffffffffffffffffffffffffffffffffffff16815260200191505060405180910390f35b341561038e57600080fd5b61040a60048080356000191690602001909190803573ffffffffffffffffffffffffffffffffffffffff1690602001909190803590602001908201803590602001908080601f01602080910402602001604051908101604052809392919081815260200183838082843782019150505050505091905050610a88565b604051808215151515815260200191505060405180910390f35b341561042f57600080fd5b6104ab60048080356000191690602001909190803573ffffffffffffffffffffffffffffffffffffffff1690602001909190803590602001908201803590602001908080601f01602080910402602001604051908101604052809392919081815260200183838082843782019150505050505091905050610acb565b604051808215151515815260200191505060405180910390f35b34156104d057600080fd5b6105b7600480803590602001908201803590602001908080601f0160208091040260200160405190810160405280939291908181526020018383808284378201915050505050509190803590602001908201803590602001908080601f016020809104026020016040519081016040528093929190818152602001838380828437820191505050505050919080356000191690602001909190803573ffffffffffffffffffffffffffffffffffffffff1690602001909190803573ffffffffffffffffffffffffffffffffffffffff16906020019091908035906020019091905050610b58565b60405180826000191660001916815260200191505060405180910390f35b6000816040518082805190602001908083835b60208310151561060d57805182526020820191506020810190506020830392506105e8565b6001836020036101000a03801982511681845116808217855250505050505090500191505060405180910390209050919050565b60008061064c610d52565b6000806040805190810160405280601a81526020017f19457468657265756d205369676e6564204d6573736167653a0a0000000000008152509250828a8a8a6040518085805190602001908083835b6020831015156106c0578051825260208201915060208101905060208303925061069b565b6001836020036101000a038019825116818451168082178552505050505050905001807f31310000000000000000000000000000000000000000000000000000000000008152506002018473ffffffffffffffffffffffffffffffffffffffff1673ffffffffffffffffffffffffffffffffffffffff166c010000000000000000000000000281526014018373ffffffffffffffffffffffffffffffffffffffff1673ffffffffffffffffffffffffffffffffffffffff166c01000000000000000000000000028152601401828152602001945050505050604051809103902091506107ac828761098a565b90508073ffffffffffffffffffffffffffffffffffffffff168773ffffffffffffffffffffffffffffffffffffffff161481945094505050509550959350505050565b60008083836040518083805190602001908083835b6020831015156108295780518252602082019150602081019050602083039250610804565b6001836020036101000a03801982511681845116808217855250505050505090500182805190602001908083835b60208310151561087c5780518252602082019150602081019050602083039250610857565b6001836020036101000a038019825116818451168082178552505050505050905001925050506040518091039020846040518082805190602001908083835b6020831015156108e057805182526020820191506020810190506020830392506108bb565b6001836020036101000a03801982511681845116808217855250505050505090500191505060405180910390208460405180836000191660001916815260200182805190602001908083835b602083101515610951578051825260208201915060208101905060208303925061092c565b6001836020036101000a038019825116818451168082178552505050505050905001925050506040518091039020915091509250929050565b600080600080604185511415156109a45760009350610a7f565b602085015192506040850151915060ff6041860151169050601b8160ff1610156109cf57601b810190505b601b8160ff16141580156109e75750601c8160ff1614155b156109f55760009350610a7f565b600186828585604051600081526020016040526000604051602001526040518085600019166000191681526020018460ff1660ff16815260200183600019166000191681526020018260001916600019168152602001945050505050602060405160208103908084039060008661646e5a03f11515610a7357600080fd5b50506020604051035193505b50505092915050565b6000610a94848361098a565b73ffffffffffffffffffffffffffffffffffffffff168373ffffffffffffffffffffffffffffffffffffffff161490509392505050565b6000808460405180807f19457468657265756d205369676e6564204d6573736167653a0a333200000000815250601c01826000191660001916815260200191505060405180910390209050610b20818461098a565b73ffffffffffffffffffffffffffffffffffffffff168473ffffffffffffffffffffffffffffffffffffffff16149150509392505050565b6000610b62610d52565b6040805190810160405280601a81526020017f19457468657265756d205369676e6564204d6573736167653a0a0000000000008152509050808888888888886040518088805190602001908083835b602083101515610bd65780518252602082019150602081019050602083039250610bb1565b6001836020036101000a03801982511681845116808217855250505050505090500187805190602001908083835b602083101515610c295780518252602082019150602081019050602083039250610c04565b6001836020036101000a03801982511681845116808217855250505050505090500186805190602001908083835b602083101515610c7c5780518252602082019150602081019050602083039250610c57565b6001836020036101000a03801982511681845116808217855250505050505090500185600019166000191681526020018473ffffffffffffffffffffffffffffffffffffffff1673ffffffffffffffffffffffffffffffffffffffff166c010000000000000000000000000281526014018373ffffffffffffffffffffffffffffffffffffffff1673ffffffffffffffffffffffffffffffffffffffff166c0100000000000000000000000002815260140182815260200197505050505050505060405180910390209150509695505050505050565b6020604051908101604052806000815250905600a165627a7a723058204d7d216a73066ee8ee5bf2aaaeb444ef3be6a9495873ca3d7efeacdf97b6c7950029",
  "source": "// TODO: this is halfbacked and not in use yet.\n//        it  should be a lib, used by AugmintToken and some fx should go there from here.\npragma solidity 0.4.18;\n\n\ncontract SignCheck {\n\n    function ecRecovery(bytes32 hash, bytes sig) public pure returns ( address recoveredAddress) {\n        bytes32 r;\n        bytes32 s;\n        uint8 v;\n\n        if (sig.length != 65) {\n            return 0;\n        }\n\n        assembly { // solhint-disable-line no-inline-assembly\n            r := mload(add(sig, 32))\n            s := mload(add(sig, 64))\n            v := and(mload(add(sig, 65)), 255)\n        }\n\n        // https://github.com/ethereum/go-ethereum/issues/2053\n        if (v < 27) {\n            v += 27;\n        }\n\n        if (v != 27 && v != 28) {\n            return 0;\n        }\n\n        return ecrecover(hash, v, r, s);\n    }\n\n    function ecVerify( bytes32 _hash, address _signer, bytes _signature) public pure returns (bool valid) {\n        return _signer == ecRecovery(_hash, _signature);\n    }\n\n    function ecVerifyPrefixed( bytes32 _hash, address _signer, bytes _signature) public pure returns (bool valid) {\n        bytes32 prefixedHash = keccak256(\"\\x19Ethereum Signed Message:\\n32\", _hash);\n        return _signer == ecRecovery(prefixedHash, _signature);\n    }\n\n    function ecVerifyTx( address _from, address _to, uint _amount, address _signer, bytes _signature) public pure\n    returns (bool valid, address) {\n        // TODO: this should to the token contract as par\n        // TODO: decide what we sign for the transferOnBehalf (hash of params only or a human readable text)\n        bytes memory prefix = \"\\x19Ethereum Signed Message:\\n\";\n        bytes32 prefixedHash = keccak256(prefix, \"11\", _from, _to, _amount);\n        address recoveredAddress = ecRecovery(prefixedHash, _signature);\n        return (_signer == recoveredAddress, recoveredAddress);\n    }\n\n    function getKeccak256(string message) public pure returns (bytes32 _hash) {\n        // for Remix testing\n        return keccak256(message);\n    }\n\n    function getKeccak256(string m1, string m2) public pure returns (bytes32 _hash1, bytes32 _hash2) {\n        // for Remix testing\n        return (keccak256(m1, m2), keccak256(keccak256(m1), m2));\n    }\n\n    function getEthereumKeccak256(string msgLength, string paramsString, bytes32 nonce, address _from, address _to,\n        uint _amount) public pure returns (bytes32 _hash) {\n        // for Remix testing\n        bytes memory prefix = \"\\x19Ethereum Signed Message:\\n\";\n        return keccak256(prefix, msgLength, paramsString, nonce, _from, _to, _amount);\n    }\n\n    /* Check this gist: https://gist.github.com/axic/5b33912c6f61ae6fd96d6c4a47afde6d if any safer */\n}\n",
  "sourcePath": "/Users/gyurka00/Documents/dcm-poc/contracts/generic/SignCheck.sol",
  "compiler": {
    "name": "solc",
    "version": "0.4.18+commit.9cf6e910.Emscripten.clang"
  },
  "schemaVersion": "1.0.1",
  "updatedAt": "2018-01-26T13:21:24.745Z"
}