{
  "contractName": "TokenAcd",
  "abi": [
    {
      "constant": false,
      "inputs": [
        {
          "name": "_from",
          "type": "address"
        },
        {
          "name": "_to",
          "type": "address"
        },
        {
          "name": "_amount",
          "type": "uint256"
        },
        {
          "name": "_narrative",
          "type": "string"
        }
      ],
      "name": "transferFromNoFee",
      "outputs": [],
      "payable": false,
      "stateMutability": "nonpayable",
      "type": "function"
    },
    {
      "constant": true,
      "inputs": [],
      "name": "name",
      "outputs": [
        {
          "name": "",
          "type": "string"
        }
      ],
      "payable": false,
      "stateMutability": "view",
      "type": "function"
    },
    {
      "constant": false,
      "inputs": [
        {
          "name": "_spender",
          "type": "address"
        },
        {
          "name": "_amount",
          "type": "uint256"
        }
      ],
      "name": "approve",
      "outputs": [
        {
          "name": "",
          "type": "bool"
        }
      ],
      "payable": false,
      "stateMutability": "nonpayable",
      "type": "function"
    },
    {
      "constant": false,
      "inputs": [
        {
          "name": "agent",
          "type": "address"
        },
        {
          "name": "requiredPermissions",
          "type": "bytes32[]"
        }
      ],
      "name": "revokeMulitplePermissions",
      "outputs": [],
      "payable": false,
      "stateMutability": "nonpayable",
      "type": "function"
    },
    {
      "constant": true,
      "inputs": [],
      "name": "totalSupply",
      "outputs": [
        {
          "name": "",
          "type": "uint256"
        }
      ],
      "payable": false,
      "stateMutability": "view",
      "type": "function"
    },
    {
      "constant": false,
      "inputs": [
        {
          "name": "_from",
          "type": "address"
        },
        {
          "name": "_to",
          "type": "address"
        },
        {
          "name": "_amount",
          "type": "uint256"
        }
      ],
      "name": "transferFrom",
      "outputs": [
        {
          "name": "",
          "type": "bool"
        }
      ],
      "payable": false,
      "stateMutability": "nonpayable",
      "type": "function"
    },
    {
      "constant": false,
      "inputs": [
        {
          "name": "newFeeAccount",
          "type": "address"
        },
        {
          "name": "newInteresPoolAccount",
          "type": "address"
        },
        {
          "name": "newInterestEarnedAccount",
          "type": "address"
        }
      ],
      "name": "setSystemAccounts",
      "outputs": [],
      "payable": false,
      "stateMutability": "nonpayable",
      "type": "function"
    },
    {
      "constant": true,
      "inputs": [
        {
          "name": "",
          "type": "address"
        }
      ],
      "name": "balances",
      "outputs": [
        {
          "name": "",
          "type": "uint256"
        }
      ],
      "payable": false,
      "stateMutability": "view",
      "type": "function"
    },
    {
      "constant": true,
      "inputs": [],
      "name": "decimals",
      "outputs": [
        {
          "name": "",
          "type": "uint8"
        }
      ],
      "payable": false,
      "stateMutability": "view",
      "type": "function"
    },
    {
      "constant": true,
      "inputs": [
        {
          "name": "",
          "type": "address"
        },
        {
          "name": "",
          "type": "bytes32"
        }
      ],
      "name": "permissions",
      "outputs": [
        {
          "name": "",
          "type": "bool"
        }
      ],
      "payable": false,
      "stateMutability": "view",
      "type": "function"
    },
    {
      "constant": true,
      "inputs": [
        {
          "name": "",
          "type": "address"
        },
        {
          "name": "",
          "type": "address"
        }
      ],
      "name": "allowed",
      "outputs": [
        {
          "name": "",
          "type": "uint256"
        }
      ],
      "payable": false,
      "stateMutability": "view",
      "type": "function"
    },
    {
      "constant": true,
      "inputs": [
        {
          "name": "agent",
          "type": "address"
        },
        {
          "name": "permission",
          "type": "bytes32"
        }
      ],
      "name": "isAllowed",
      "outputs": [
        {
          "name": "",
          "type": "bool"
        }
      ],
      "payable": false,
      "stateMutability": "view",
      "type": "function"
    },
    {
      "constant": true,
      "inputs": [],
      "name": "interestEarnedAccount",
      "outputs": [
        {
          "name": "",
          "type": "address"
        }
      ],
      "payable": false,
      "stateMutability": "view",
      "type": "function"
    },
    {
      "constant": false,
      "inputs": [
        {
          "name": "agent",
          "type": "address"
        },
        {
          "name": "requiredPermission",
          "type": "bytes32"
        }
      ],
      "name": "revokePermission",
      "outputs": [],
      "payable": false,
      "stateMutability": "nonpayable",
      "type": "function"
    },
    {
      "constant": true,
      "inputs": [],
      "name": "feeAccount",
      "outputs": [
        {
          "name": "",
          "type": "address"
        }
      ],
      "payable": false,
      "stateMutability": "view",
      "type": "function"
    },
    {
      "constant": false,
      "inputs": [
        {
          "name": "_spender",
          "type": "address"
        },
        {
          "name": "_subtractedValue",
          "type": "uint256"
        }
      ],
      "name": "decreaseApproval",
      "outputs": [
        {
          "name": "",
          "type": "bool"
        }
      ],
      "payable": false,
      "stateMutability": "nonpayable",
      "type": "function"
    },
    {
      "constant": true,
      "inputs": [
        {
          "name": "_owner",
          "type": "address"
        }
      ],
      "name": "balanceOf",
      "outputs": [
        {
          "name": "balance",
          "type": "uint256"
        }
      ],
      "payable": false,
      "stateMutability": "view",
      "type": "function"
    },
    {
      "constant": true,
      "inputs": [],
      "name": "transferFeeMax",
      "outputs": [
        {
          "name": "",
          "type": "uint256"
        }
      ],
      "payable": false,
      "stateMutability": "view",
      "type": "function"
    },
    {
      "constant": false,
      "inputs": [
        {
          "name": "_from",
          "type": "address"
        },
        {
          "name": "_to",
          "type": "address"
        },
        {
          "name": "_amount",
          "type": "uint256"
        },
        {
          "name": "_narrative",
          "type": "string"
        }
      ],
      "name": "transferFromWithNarrative",
      "outputs": [],
      "payable": false,
      "stateMutability": "nonpayable",
      "type": "function"
    },
    {
      "constant": true,
      "inputs": [],
      "name": "transferFeePt",
      "outputs": [
        {
          "name": "",
          "type": "uint256"
        }
      ],
      "payable": false,
      "stateMutability": "view",
      "type": "function"
    },
    {
      "constant": true,
      "inputs": [],
      "name": "owner",
      "outputs": [
        {
          "name": "",
          "type": "address"
        }
      ],
      "payable": false,
      "stateMutability": "view",
      "type": "function"
    },
    {
      "constant": false,
      "inputs": [
        {
          "name": "_loanManager",
          "type": "address"
        },
        {
          "name": "loanId",
          "type": "uint256"
        }
      ],
      "name": "repayLoan",
      "outputs": [],
      "payable": false,
      "stateMutability": "nonpayable",
      "type": "function"
    },
    {
      "constant": true,
      "inputs": [],
      "name": "symbol",
      "outputs": [
        {
          "name": "",
          "type": "string"
        }
      ],
      "payable": false,
      "stateMutability": "view",
      "type": "function"
    },
    {
      "constant": false,
      "inputs": [
        {
          "name": "agent",
          "type": "address"
        },
        {
          "name": "requiredPermissions",
          "type": "bytes32[]"
        }
      ],
      "name": "grantMultiplePermissions",
      "outputs": [],
      "payable": false,
      "stateMutability": "nonpayable",
      "type": "function"
    },
    {
      "constant": true,
      "inputs": [],
      "name": "interestPoolAccount",
      "outputs": [
        {
          "name": "",
          "type": "address"
        }
      ],
      "payable": false,
      "stateMutability": "view",
      "type": "function"
    },
    {
      "constant": true,
      "inputs": [],
      "name": "transferFeeMin",
      "outputs": [
        {
          "name": "",
          "type": "uint256"
        }
      ],
      "payable": false,
      "stateMutability": "view",
      "type": "function"
    },
    {
      "constant": false,
      "inputs": [
        {
          "name": "_to",
          "type": "address"
        },
        {
          "name": "_amount",
          "type": "uint256"
        }
      ],
      "name": "transfer",
      "outputs": [
        {
          "name": "",
          "type": "bool"
        }
      ],
      "payable": false,
      "stateMutability": "nonpayable",
      "type": "function"
    },
    {
      "constant": false,
      "inputs": [
        {
          "name": "_from",
          "type": "address"
        },
        {
          "name": "_to",
          "type": "address"
        },
        {
          "name": "_amount",
          "type": "uint256"
        },
        {
          "name": "_narrative",
          "type": "string"
        }
      ],
      "name": "transferNoFee",
      "outputs": [],
      "payable": false,
      "stateMutability": "nonpayable",
      "type": "function"
    },
    {
      "constant": false,
      "inputs": [
        {
          "name": "_transferFeePt",
          "type": "uint256"
        },
        {
          "name": "_transferFeeMin",
          "type": "uint256"
        },
        {
          "name": "_transferFeeMax",
          "type": "uint256"
        }
      ],
      "name": "setTransferFees",
      "outputs": [],
      "payable": false,
      "stateMutability": "nonpayable",
      "type": "function"
    },
    {
      "constant": false,
      "inputs": [
        {
          "name": "interestAmount",
          "type": "uint256"
        }
      ],
      "name": "moveCollectedInterest",
      "outputs": [],
      "payable": false,
      "stateMutability": "nonpayable",
      "type": "function"
    },
    {
      "constant": false,
      "inputs": [
        {
          "name": "borrower",
          "type": "address"
        },
        {
          "name": "loanAmount",
          "type": "uint256"
        },
        {
          "name": "interestAmount",
          "type": "uint256"
        },
        {
          "name": "narrative",
          "type": "string"
        }
      ],
      "name": "issueAndDisburse",
      "outputs": [],
      "payable": false,
      "stateMutability": "nonpayable",
      "type": "function"
    },
    {
      "constant": false,
      "inputs": [
        {
          "name": "borrower",
          "type": "address"
        },
        {
          "name": "repaymentAmount",
          "type": "uint256"
        },
        {
          "name": "interestAmount",
          "type": "uint256"
        },
        {
          "name": "narrative",
          "type": "string"
        }
      ],
      "name": "repayAndBurn",
      "outputs": [],
      "payable": false,
      "stateMutability": "nonpayable",
      "type": "function"
    },
    {
      "constant": false,
      "inputs": [
        {
          "name": "_spender",
          "type": "address"
        },
        {
          "name": "_addedValue",
          "type": "uint256"
        }
      ],
      "name": "increaseApproval",
      "outputs": [
        {
          "name": "",
          "type": "bool"
        }
      ],
      "payable": false,
      "stateMutability": "nonpayable",
      "type": "function"
    },
    {
      "constant": true,
      "inputs": [
        {
          "name": "_owner",
          "type": "address"
        },
        {
          "name": "_spender",
          "type": "address"
        }
      ],
      "name": "allowance",
      "outputs": [
        {
          "name": "remaining",
          "type": "uint256"
        }
      ],
      "payable": false,
      "stateMutability": "view",
      "type": "function"
    },
    {
      "constant": false,
      "inputs": [
        {
          "name": "newOwner",
          "type": "address"
        }
      ],
      "name": "transferOwnership",
      "outputs": [],
      "payable": false,
      "stateMutability": "nonpayable",
      "type": "function"
    },
    {
      "constant": false,
      "inputs": [
        {
          "name": "agent",
          "type": "address"
        },
        {
          "name": "requiredPermission",
          "type": "bytes32"
        }
      ],
      "name": "grantPermission",
      "outputs": [],
      "payable": false,
      "stateMutability": "nonpayable",
      "type": "function"
    },
    {
      "constant": false,
      "inputs": [
        {
          "name": "_to",
          "type": "address"
        },
        {
          "name": "_amount",
          "type": "uint256"
        },
        {
          "name": "_narrative",
          "type": "string"
        }
      ],
      "name": "transferWithNarrative",
      "outputs": [],
      "payable": false,
      "stateMutability": "nonpayable",
      "type": "function"
    },
    {
      "inputs": [
        {
          "name": "_feeAccount",
          "type": "address"
        },
        {
          "name": "_interestPoolAccount",
          "type": "address"
        },
        {
          "name": "_interestEarnedAccount",
          "type": "address"
        },
        {
          "name": "_transferFeePt",
          "type": "uint256"
        },
        {
          "name": "_transferFeeMin",
          "type": "uint256"
        },
        {
          "name": "_transferFeeMax",
          "type": "uint256"
        }
      ],
      "payable": false,
      "stateMutability": "nonpayable",
      "type": "constructor"
    },
    {
      "payable": true,
      "stateMutability": "payable",
      "type": "fallback"
    },
    {
      "anonymous": false,
      "inputs": [
        {
          "indexed": false,
          "name": "amount",
          "type": "uint256"
        }
      ],
      "name": "TokenIssued",
      "type": "event"
    },
    {
      "anonymous": false,
      "inputs": [
        {
          "indexed": false,
          "name": "amount",
          "type": "uint256"
        }
      ],
      "name": "TokenBurned",
      "type": "event"
    },
    {
      "anonymous": false,
      "inputs": [
        {
          "indexed": false,
          "name": "newFeeAccount",
          "type": "address"
        },
        {
          "indexed": false,
          "name": "newInteresPoolAccount",
          "type": "address"
        },
        {
          "indexed": false,
          "name": "newInterestEarnedAccount",
          "type": "address"
        }
      ],
      "name": "SystemAccountsChanged",
      "type": "event"
    },
    {
      "anonymous": false,
      "inputs": [
        {
          "indexed": false,
          "name": "_transferFeePt",
          "type": "uint256"
        },
        {
          "indexed": false,
          "name": "_transferFeeMin",
          "type": "uint256"
        },
        {
          "indexed": false,
          "name": "_transferFeeMax",
          "type": "uint256"
        }
      ],
      "name": "TransferFeesChanged",
      "type": "event"
    },
    {
      "anonymous": false,
      "inputs": [
        {
          "indexed": true,
          "name": "from",
          "type": "address"
        },
        {
          "indexed": true,
          "name": "to",
          "type": "address"
        },
        {
          "indexed": false,
          "name": "amount",
          "type": "uint256"
        }
      ],
      "name": "Transfer",
      "type": "event"
    },
    {
      "anonymous": false,
      "inputs": [
        {
          "indexed": true,
          "name": "from",
          "type": "address"
        },
        {
          "indexed": true,
          "name": "to",
          "type": "address"
        },
        {
          "indexed": false,
          "name": "amount",
          "type": "uint256"
        },
        {
          "indexed": false,
          "name": "narrative",
          "type": "string"
        },
        {
          "indexed": false,
          "name": "fee",
          "type": "uint256"
        }
      ],
      "name": "AugmintTransfer",
      "type": "event"
    },
    {
      "anonymous": false,
      "inputs": [
        {
          "indexed": true,
          "name": "_owner",
          "type": "address"
        },
        {
          "indexed": true,
          "name": "_spender",
          "type": "address"
        },
        {
          "indexed": false,
          "name": "_value",
          "type": "uint256"
        }
      ],
      "name": "Approval",
      "type": "event"
    },
    {
      "anonymous": false,
      "inputs": [
        {
          "indexed": true,
          "name": "agent",
          "type": "address"
        },
        {
          "indexed": false,
          "name": "grantedPermission",
          "type": "bytes32"
        }
      ],
      "name": "PermissionGranted",
      "type": "event"
    },
    {
      "anonymous": false,
      "inputs": [
        {
          "indexed": true,
          "name": "agent",
          "type": "address"
        },
        {
          "indexed": false,
          "name": "revokedPermission",
          "type": "bytes32"
        }
      ],
      "name": "PermissionRevoked",
      "type": "event"
    },
    {
      "anonymous": false,
      "inputs": [
        {
          "indexed": true,
          "name": "oldOwner",
          "type": "address"
        },
        {
          "indexed": true,
          "name": "newOwner",
          "type": "address"
        }
      ],
      "name": "NewOwner",
      "type": "event"
    }
  ],
  "bytecode": "0x606060405234156200001057600080fd5b60405160c080620035ef83398101604052808051906020019091908051906020019091908051906020019091908051906020019091908051906020019091908051906020019091905050858585858585600073ffffffffffffffffffffffffffffffffffffffff166000809054906101000a900473ffffffffffffffffffffffffffffffffffffffff1673ffffffffffffffffffffffffffffffffffffffff16141515620000bd57600080fd5b336000806101000a81548173ffffffffffffffffffffffffffffffffffffffff021916908373ffffffffffffffffffffffffffffffffffffffff16021790555060008673ffffffffffffffffffffffffffffffffffffffff16141515156200012457600080fd5b60008573ffffffffffffffffffffffffffffffffffffffff16141515156200014b57600080fd5b60008473ffffffffffffffffffffffffffffffffffffffff16141515156200017257600080fd5b85600560006101000a81548173ffffffffffffffffffffffffffffffffffffffff021916908373ffffffffffffffffffffffffffffffffffffffff16021790555084600660006101000a81548173ffffffffffffffffffffffffffffffffffffffff021916908373ffffffffffffffffffffffffffffffffffffffff16021790555083600760006101000a81548173ffffffffffffffffffffffffffffffffffffffff021916908373ffffffffffffffffffffffffffffffffffffffff160217905550826008819055508160098190555080600a8190555050505050505050505050505061338980620002666000396000f3006060604052600436106101cd576000357c0100000000000000000000000000000000000000000000000000000000900463ffffffff16806304282d25146101cf57806306fdde0314610273578063095ea7b3146103015780630da32eaa1461035b57806318160ddd146103d457806323b872dd146103fd57806324839a3a1461047657806327e235e3146104ed578063313ce5671461053a5780635b225526146105695780635c658165146105c75780635cb8dd09146106335780635fcf0455146106915780635fe07013146106e657806365e17c9d1461072c578063661884631461078157806370a08231146107db57806372a1eecc14610828578063765879211461085157806377c9db1a146108f55780638da5cb5b1461091e57806393a595f51461097357806395d89b41146109b55780639ac3317b14610a435780639ae8dcef14610abc578063a7f839a714610b11578063a9059cbb14610b3a578063b0455f1314610b94578063bfd201f514610c09578063c06ec4bc14610c3e578063c28f379314610c61578063c613aa6a14610cc0578063d73dd62314610d1f578063dd62ed3e14610d79578063f2fde38b14610de5578063f38a826214610e1e578063ffdcf09514610e64575b005b34156101da57600080fd5b610271600480803573ffffffffffffffffffffffffffffffffffffffff1690602001909190803573ffffffffffffffffffffffffffffffffffffffff1690602001909190803590602001909190803590602001908201803590602001908080601f01602080910402602001604051908101604052809392919081815260200183838082843782019150505050505091905050610eba565b005b341561027e57600080fd5b610286610f61565b6040518080602001828103825283818151815260200191508051906020019080838360005b838110156102c65780820151818401526020810190506102ab565b50505050905090810190601f1680156102f35780820380516001836020036101000a031916815260200191505b509250505060405180910390f35b341561030c57600080fd5b610341600480803573ffffffffffffffffffffffffffffffffffffffff16906020019091908035906020019091905050610f9a565b604051808215151515815260200191505060405180910390f35b341561036657600080fd5b6103d2600480803573ffffffffffffffffffffffffffffffffffffffff16906020019091908035906020019082018035906020019080806020026020016040519081016040528093929190818152602001838360200280828437820191505050505050919050506110c7565b005b34156103df57600080fd5b6103e761116a565b6040518082815260200191505060405180910390f35b341561040857600080fd5b61045c600480803573ffffffffffffffffffffffffffffffffffffffff1690602001909190803573ffffffffffffffffffffffffffffffffffffffff16906020019091908035906020019091905050611170565b604051808215151515815260200191505060405180910390f35b341561048157600080fd5b6104eb600480803573ffffffffffffffffffffffffffffffffffffffff1690602001909190803573ffffffffffffffffffffffffffffffffffffffff1690602001909190803573ffffffffffffffffffffffffffffffffffffffff169060200190919050506111a2565b005b34156104f857600080fd5b610524600480803573ffffffffffffffffffffffffffffffffffffffff1690602001909190505061143a565b6040518082815260200191505060405180910390f35b341561054557600080fd5b61054d611452565b604051808260ff1660ff16815260200191505060405180910390f35b341561057457600080fd5b6105ad600480803573ffffffffffffffffffffffffffffffffffffffff1690602001909190803560001916906020019091905050611457565b604051808215151515815260200191505060405180910390f35b34156105d257600080fd5b61061d600480803573ffffffffffffffffffffffffffffffffffffffff1690602001909190803573ffffffffffffffffffffffffffffffffffffffff16906020019091905050611486565b6040518082815260200191505060405180910390f35b341561063e57600080fd5b610677600480803573ffffffffffffffffffffffffffffffffffffffff16906020019091908035600019169060200190919050506114ab565b604051808215151515815260200191505060405180910390f35b341561069c57600080fd5b6106a461151b565b604051808273ffffffffffffffffffffffffffffffffffffffff1673ffffffffffffffffffffffffffffffffffffffff16815260200191505060405180910390f35b34156106f157600080fd5b61072a600480803573ffffffffffffffffffffffffffffffffffffffff1690602001909190803560001916906020019091905050611541565b005b341561073757600080fd5b61073f611667565b604051808273ffffffffffffffffffffffffffffffffffffffff1673ffffffffffffffffffffffffffffffffffffffff16815260200191505060405180910390f35b341561078c57600080fd5b6107c1600480803573ffffffffffffffffffffffffffffffffffffffff1690602001909190803590602001909190505061168d565b604051808215151515815260200191505060405180910390f35b34156107e657600080fd5b610812600480803573ffffffffffffffffffffffffffffffffffffffff16906020019091905050611959565b6040518082815260200191505060405180910390f35b341561083357600080fd5b61083b6119a2565b6040518082815260200191505060405180910390f35b341561085c57600080fd5b6108f3600480803573ffffffffffffffffffffffffffffffffffffffff1690602001909190803573ffffffffffffffffffffffffffffffffffffffff1690602001909190803590602001909190803590602001908201803590602001908080601f016020809104026020016040519081016040528093929190818152602001838380828437820191505050505050919050506119a8565b005b341561090057600080fd5b6109086119c3565b6040518082815260200191505060405180910390f35b341561092957600080fd5b6109316119c9565b604051808273ffffffffffffffffffffffffffffffffffffffff1673ffffffffffffffffffffffffffffffffffffffff16815260200191505060405180910390f35b341561097e57600080fd5b6109b3600480803573ffffffffffffffffffffffffffffffffffffffff169060200190919080359060200190919050506119ee565b005b34156109c057600080fd5b6109c8611bc9565b6040518080602001828103825283818151815260200191508051906020019080838360005b83811015610a085780820151818401526020810190506109ed565b50505050905090810190601f168015610a355780820380516001836020036101000a031916815260200191505b509250505060405180910390f35b3415610a4e57600080fd5b610aba600480803573ffffffffffffffffffffffffffffffffffffffff1690602001909190803590602001908201803590602001908080602002602001604051908101604052809392919081815260200183836020028082843782019150505050505091905050611c02565b005b3415610ac757600080fd5b610acf611ca5565b604051808273ffffffffffffffffffffffffffffffffffffffff1673ffffffffffffffffffffffffffffffffffffffff16815260200191505060405180910390f35b3415610b1c57600080fd5b610b24611ccb565b6040518082815260200191505060405180910390f35b3415610b4557600080fd5b610b7a600480803573ffffffffffffffffffffffffffffffffffffffff16906020019091908035906020019091905050611cd1565b604051808215151515815260200191505060405180910390f35b3415610b9f57600080fd5b610c07600480803573ffffffffffffffffffffffffffffffffffffffff1690602001909190803573ffffffffffffffffffffffffffffffffffffffff169060200190919080359060200190919080359060200190820180359060200191909192905050611d02565b005b3415610c1457600080fd5b610c3c6004808035906020019091908035906020019091908035906020019091905050611ddc565b005b3415610c4957600080fd5b610c5f6004808035906020019091905050611ed6565b005b3415610c6c57600080fd5b610cbe600480803573ffffffffffffffffffffffffffffffffffffffff169060200190919080359060200190919080359060200190919080359060200190820180359060200191909192905050611fd1565b005b3415610ccb57600080fd5b610d1d600480803573ffffffffffffffffffffffffffffffffffffffff16906020019091908035906020019091908035906020019091908035906020019082018035906020019190919290505061229c565b005b3415610d2a57600080fd5b610d5f600480803573ffffffffffffffffffffffffffffffffffffffff16906020019091908035906020019091905050612619565b604051808215151515815260200191505060405180910390f35b3415610d8457600080fd5b610dcf600480803573ffffffffffffffffffffffffffffffffffffffff1690602001909190803573ffffffffffffffffffffffffffffffffffffffff1690602001909190505061262e565b6040518082815260200191505060405180910390f35b3415610df057600080fd5b610e1c600480803573ffffffffffffffffffffffffffffffffffffffff169060200190919050506126b5565b005b3415610e2957600080fd5b610e62600480803573ffffffffffffffffffffffffffffffffffffffff169060200190919080356000191690602001909190505061280a565b005b3415610e6f57600080fd5b610eb8600480803573ffffffffffffffffffffffffffffffffffffffff16906020019091908035906020019091908035906020019082018035906020019190919290505061292f565b005b7f7472616e7366657246726f6d4e6f466565000000000000000000000000000000600160003373ffffffffffffffffffffffffffffffffffffffff1673ffffffffffffffffffffffffffffffffffffffff1681526020019081526020016000206000826000191660001916815260200190815260200160002060009054906101000a900460ff161515610f4c57600080fd5b610f5a85858585600061297c565b5050505050565b6040805190810160405280601581526020017f4175676d696e742043727970746f20446f6c6c6172000000000000000000000081525081565b60008273ffffffffffffffffffffffffffffffffffffffff163373ffffffffffffffffffffffffffffffffffffffff1614151515610fd757600080fd5b81600460003373ffffffffffffffffffffffffffffffffffffffff1673ffffffffffffffffffffffffffffffffffffffff16815260200190815260200160002060008573ffffffffffffffffffffffffffffffffffffffff1673ffffffffffffffffffffffffffffffffffffffff168152602001908152602001600020819055508273ffffffffffffffffffffffffffffffffffffffff163373ffffffffffffffffffffffffffffffffffffffff167f8c5be1e5ebec7d5bd14f71427d1e84f3dd0314c0f7b2291e5b200ac8c7c3b925846040518082815260200191505060405180910390a36001905092915050565b6000806000809054906101000a900473ffffffffffffffffffffffffffffffffffffffff1673ffffffffffffffffffffffffffffffffffffffff163373ffffffffffffffffffffffffffffffffffffffff1614151561112557600080fd5b82519150600090505b818110156111645761115784848381518110151561114857fe5b90602001906020020151611541565b808060010191505061112e565b50505050565b60025481565b6000611197848484602060405190810160405280600081525061119287612bf7565b61297c565b600190509392505050565b7f73657453797374656d4163636f756e7473000000000000000000000000000000600160003373ffffffffffffffffffffffffffffffffffffffff1673ffffffffffffffffffffffffffffffffffffffff1681526020019081526020016000206000826000191660001916815260200190815260200160002060009054906101000a900460ff16151561123457600080fd5b60008473ffffffffffffffffffffffffffffffffffffffff161415151561125a57600080fd5b60008373ffffffffffffffffffffffffffffffffffffffff161415151561128057600080fd5b60008273ffffffffffffffffffffffffffffffffffffffff16141515156112a657600080fd5b83600560006101000a81548173ffffffffffffffffffffffffffffffffffffffff021916908373ffffffffffffffffffffffffffffffffffffffff16021790555082600660006101000a81548173ffffffffffffffffffffffffffffffffffffffff021916908373ffffffffffffffffffffffffffffffffffffffff16021790555081600760006101000a81548173ffffffffffffffffffffffffffffffffffffffff021916908373ffffffffffffffffffffffffffffffffffffffff1602179055507f23dbec4dc224f6b5dbb7872e42fdf27b8eab89540005970d572678433093c94e848484604051808473ffffffffffffffffffffffffffffffffffffffff1673ffffffffffffffffffffffffffffffffffffffff1681526020018373ffffffffffffffffffffffffffffffffffffffff1673ffffffffffffffffffffffffffffffffffffffff1681526020018273ffffffffffffffffffffffffffffffffffffffff1673ffffffffffffffffffffffffffffffffffffffff168152602001935050505060405180910390a150505050565b60036020528060005260406000206000915090505481565b600481565b60016020528160005260406000206020528060005260406000206000915091509054906101000a900460ff1681565b6004602052816000526040600020602052806000526040600020600091509150505481565b6000600160008473ffffffffffffffffffffffffffffffffffffffff1673ffffffffffffffffffffffffffffffffffffffff1681526020019081526020016000206000836000191660001916815260200190815260200160002060009054906101000a900460ff16905092915050565b600760009054906101000a900473ffffffffffffffffffffffffffffffffffffffff1681565b6000809054906101000a900473ffffffffffffffffffffffffffffffffffffffff1673ffffffffffffffffffffffffffffffffffffffff163373ffffffffffffffffffffffffffffffffffffffff1614151561159c57600080fd5b6000600160008473ffffffffffffffffffffffffffffffffffffffff1673ffffffffffffffffffffffffffffffffffffffff1681526020019081526020016000206000836000191660001916815260200190815260200160002060006101000a81548160ff0219169083151502179055508173ffffffffffffffffffffffffffffffffffffffff167f789770131846de4d1f28418f0f957cdf4fcabe5eccf70067083e20ecece69a348260405180826000191660001916815260200191505060405180910390a25050565b600560009054906101000a900473ffffffffffffffffffffffffffffffffffffffff1681565b6000808373ffffffffffffffffffffffffffffffffffffffff163373ffffffffffffffffffffffffffffffffffffffff16141515156116cb57600080fd5b600460003373ffffffffffffffffffffffffffffffffffffffff1673ffffffffffffffffffffffffffffffffffffffff16815260200190815260200160002060008573ffffffffffffffffffffffffffffffffffffffff1673ffffffffffffffffffffffffffffffffffffffff168152602001908152602001600020549050808311156117d9576000600460003373ffffffffffffffffffffffffffffffffffffffff1673ffffffffffffffffffffffffffffffffffffffff16815260200190815260200160002060008673ffffffffffffffffffffffffffffffffffffffff1673ffffffffffffffffffffffffffffffffffffffff1681526020019081526020016000208190555061186d565b6117ec8382612c5290919063ffffffff16565b600460003373ffffffffffffffffffffffffffffffffffffffff1673ffffffffffffffffffffffffffffffffffffffff16815260200190815260200160002060008673ffffffffffffffffffffffffffffffffffffffff1673ffffffffffffffffffffffffffffffffffffffff168152602001908152602001600020819055505b8373ffffffffffffffffffffffffffffffffffffffff163373ffffffffffffffffffffffffffffffffffffffff167f8c5be1e5ebec7d5bd14f71427d1e84f3dd0314c0f7b2291e5b200ac8c7c3b925600460003373ffffffffffffffffffffffffffffffffffffffff1673ffffffffffffffffffffffffffffffffffffffff16815260200190815260200160002060008873ffffffffffffffffffffffffffffffffffffffff1673ffffffffffffffffffffffffffffffffffffffff168152602001908152602001600020546040518082815260200191505060405180910390a3600191505092915050565b6000600360008373ffffffffffffffffffffffffffffffffffffffff1673ffffffffffffffffffffffffffffffffffffffff168152602001908152602001600020549050919050565b600a5481565b6119bd848484846119b887612bf7565b61297c565b50505050565b60085481565b6000809054906101000a900473ffffffffffffffffffffffffffffffffffffffff1681565b6000806000611a1d857f4c6f616e4d616e616765720000000000000000000000000000000000000000006114ab565b1515611a2857600080fd5b8492508273ffffffffffffffffffffffffffffffffffffffff1663e1ec3c6885600060405161012001526040518263ffffffff167c01000000000000000000000000000000000000000000000000000000000281526004018082815260200191505061012060405180830381600087803b1515611aa457600080fd5b6102c65a03f11515611ab557600080fd5b5050506040518051906020018051906020018051906020018051906020018051906020018051906020018051906020018051906020018051905050505050509350505091503373ffffffffffffffffffffffffffffffffffffffff168273ffffffffffffffffffffffffffffffffffffffff16141515611b3457600080fd5b611b3f338683612c6e565b508273ffffffffffffffffffffffffffffffffffffffff166339007b77856040518263ffffffff167c010000000000000000000000000000000000000000000000000000000002815260040180828152602001915050600060405180830381600087803b1515611bae57600080fd5b6102c65a03f11515611bbf57600080fd5b5050505050505050565b6040805190810160405280600381526020017f414344000000000000000000000000000000000000000000000000000000000081525081565b6000806000809054906101000a900473ffffffffffffffffffffffffffffffffffffffff1673ffffffffffffffffffffffffffffffffffffffff163373ffffffffffffffffffffffffffffffffffffffff16141515611c6057600080fd5b82519150600090505b81811015611c9f57611c92848483815181101515611c8357fe5b9060200190602002015161280a565b8080600101915050611c69565b50505050565b600660009054906101000a900473ffffffffffffffffffffffffffffffffffffffff1681565b60095481565b6000611cf83384846020604051908101604052806000815250611cf387612bf7565b612ea2565b6001905092915050565b7f7472616e736665724e6f46656500000000000000000000000000000000000000600160003373ffffffffffffffffffffffffffffffffffffffff1673ffffffffffffffffffffffffffffffffffffffff1681526020019081526020016000206000826000191660001916815260200190815260200160002060009054906101000a900460ff161515611d9457600080fd5b611dd486868686868080601f0160208091040260200160405190810160405280939291908181526020018383808284378201915050505050506000612ea2565b505050505050565b7f7365745472616e73666572466565730000000000000000000000000000000000600160003373ffffffffffffffffffffffffffffffffffffffff1673ffffffffffffffffffffffffffffffffffffffff1681526020019081526020016000206000826000191660001916815260200190815260200160002060009054906101000a900460ff161515611e6e57600080fd5b836008819055508260098190555081600a819055507fd987a3acde40f231f760d7c3d2907c83d26bca5aededafbeefba5619b5955d71600854600954600a5460405180848152602001838152602001828152602001935050505060405180910390a150505050565b7f6d6f7665436f6c6c6563746564496e7465726573740000000000000000000000600160003373ffffffffffffffffffffffffffffffffffffffff1673ffffffffffffffffffffffffffffffffffffffff1681526020019081526020016000206000826000191660001916815260200190815260200160002060009054906101000a900460ff161515611f6857600080fd5b611fcd600660009054906101000a900473ffffffffffffffffffffffffffffffffffffffff1630846040805190810160405280601781526020017f44656661756c746564206c6f616e20696e7465726573740000000000000000008152506000612ea2565b5050565b60007f6973737565416e64446973627572736500000000000000000000000000000000600160003373ffffffffffffffffffffffffffffffffffffffff1673ffffffffffffffffffffffffffffffffffffffff1681526020019081526020016000206000826000191660001916815260200190815260200160002060009054906101000a900460ff16151561206557600080fd5b60008611151561207457600080fd5b61208785876132eb90919063ffffffff16565b915061209e826002546132eb90919063ffffffff16565b6002819055506120f686600360003073ffffffffffffffffffffffffffffffffffffffff1673ffffffffffffffffffffffffffffffffffffffff168152602001908152602001600020546132eb90919063ffffffff16565b600360003073ffffffffffffffffffffffffffffffffffffffff1673ffffffffffffffffffffffffffffffffffffffff16815260200190815260200160002081905550600085111561221c576121b68560036000600660009054906101000a900473ffffffffffffffffffffffffffffffffffffffff1673ffffffffffffffffffffffffffffffffffffffff1673ffffffffffffffffffffffffffffffffffffffff168152602001908152602001600020546132eb90919063ffffffff16565b60036000600660009054906101000a900473ffffffffffffffffffffffffffffffffffffffff1673ffffffffffffffffffffffffffffffffffffffff1673ffffffffffffffffffffffffffffffffffffffff168152602001908152602001600020819055505b61225c30888887878080601f0160208091040260200160405190810160405280939291908181526020018383808284378201915050505050506000612ea2565b7f22e0481cfeefc9defe3dece414137b4b644284658facef6d9734c16204cca3f0826040518082815260200191505060405180910390a150505050505050565b7f7265706179416e644275726e0000000000000000000000000000000000000000600160003373ffffffffffffffffffffffffffffffffffffffff1673ffffffffffffffffffffffffffffffffffffffff1681526020019081526020016000206000826000191660001916815260200190815260200160002060009054906101000a900460ff16151561232e57600080fd5b61236e86308786868080601f016020809104026020016040519081016040528093929190818152602001838380828437820191505050505050600061297c565b61238385600254612c5290919063ffffffff16565b6002819055506123db85600360003073ffffffffffffffffffffffffffffffffffffffff1673ffffffffffffffffffffffffffffffffffffffff16815260200190815260200160002054612c5290919063ffffffff16565b600360003073ffffffffffffffffffffffffffffffffffffffff1673ffffffffffffffffffffffffffffffffffffffff1681526020019081526020016000208190555060008411156125da5761249b8460036000600760009054906101000a900473ffffffffffffffffffffffffffffffffffffffff1673ffffffffffffffffffffffffffffffffffffffff1673ffffffffffffffffffffffffffffffffffffffff168152602001908152602001600020546132eb90919063ffffffff16565b60036000600760009054906101000a900473ffffffffffffffffffffffffffffffffffffffff1673ffffffffffffffffffffffffffffffffffffffff1673ffffffffffffffffffffffffffffffffffffffff168152602001908152602001600020819055506125748460036000600660009054906101000a900473ffffffffffffffffffffffffffffffffffffffff1673ffffffffffffffffffffffffffffffffffffffff1673ffffffffffffffffffffffffffffffffffffffff16815260200190815260200160002054612c5290919063ffffffff16565b60036000600660009054906101000a900473ffffffffffffffffffffffffffffffffffffffff1673ffffffffffffffffffffffffffffffffffffffff1673ffffffffffffffffffffffffffffffffffffffff168152602001908152602001600020819055505b7f0c526103b8f47af5516191d0c89a598755bd00faa211a3cb52e4c2cc782f7fe2856040518082815260200191505060405180910390a1505050505050565b6000612626338484612c6e565b905092915050565b6000600460008473ffffffffffffffffffffffffffffffffffffffff1673ffffffffffffffffffffffffffffffffffffffff16815260200190815260200160002060008373ffffffffffffffffffffffffffffffffffffffff1673ffffffffffffffffffffffffffffffffffffffff16815260200190815260200160002054905092915050565b6000809054906101000a900473ffffffffffffffffffffffffffffffffffffffff1673ffffffffffffffffffffffffffffffffffffffff163373ffffffffffffffffffffffffffffffffffffffff1614151561271057600080fd5b600073ffffffffffffffffffffffffffffffffffffffff168173ffffffffffffffffffffffffffffffffffffffff161415151561274c57600080fd5b8073ffffffffffffffffffffffffffffffffffffffff166000809054906101000a900473ffffffffffffffffffffffffffffffffffffffff1673ffffffffffffffffffffffffffffffffffffffff167f70aea8d848e8a90fb7661b227dc522eb6395c3dac71b63cb59edd5c9899b236460405160405180910390a3806000806101000a81548173ffffffffffffffffffffffffffffffffffffffff021916908373ffffffffffffffffffffffffffffffffffffffff16021790555050565b6000809054906101000a900473ffffffffffffffffffffffffffffffffffffffff1673ffffffffffffffffffffffffffffffffffffffff163373ffffffffffffffffffffffffffffffffffffffff1614151561286557600080fd5b60018060008473ffffffffffffffffffffffffffffffffffffffff1673ffffffffffffffffffffffffffffffffffffffff1681526020019081526020016000206000836000191660001916815260200190815260200160002060006101000a81548160ff0219169083151502179055508173ffffffffffffffffffffffffffffffffffffffff167fc65937e3dbcb9fb30f646815dd67a3dbd09ba17718cbcb54efbe3635f8e0a6fe8260405180826000191660001916815260200191505060405180910390a25050565b61297633858585858080601f01602080910402602001604051908101604052809392919081815260200183838082843782019150505050505061297188612bf7565b612ea2565b50505050565b82600360008773ffffffffffffffffffffffffffffffffffffffff1673ffffffffffffffffffffffffffffffffffffffff16815260200190815260200160002054101515156129ca57600080fd5b82600460008773ffffffffffffffffffffffffffffffffffffffff1673ffffffffffffffffffffffffffffffffffffffff16815260200190815260200160002060003373ffffffffffffffffffffffffffffffffffffffff1673ffffffffffffffffffffffffffffffffffffffff1681526020019081526020016000205410151515612a5557600080fd5b600083111515612a6457600080fd5b612a72858585856000612ea2565b6000811115612ae157612ae084600560009054906101000a900473ffffffffffffffffffffffffffffffffffffffff16836040805190810160405280601081526020017f5472616e7366657246726f6d20666565000000000000000000000000000000008152506000612ea2565b5b612b7083600460008873ffffffffffffffffffffffffffffffffffffffff1673ffffffffffffffffffffffffffffffffffffffff16815260200190815260200160002060003373ffffffffffffffffffffffffffffffffffffffff1673ffffffffffffffffffffffffffffffffffffffff16815260200190815260200160002054612c5290919063ffffffff16565b600460008773ffffffffffffffffffffffffffffffffffffffff1673ffffffffffffffffffffffffffffffffffffffff16815260200190815260200160002060003373ffffffffffffffffffffffffffffffffffffffff1673ffffffffffffffffffffffffffffffffffffffff168152602001908152602001600020819055505050505050565b6000612c23620f4240612c156008548561330c90919063ffffffff16565b61334290919063ffffffff16565b9050600a54811115612c3957600a549050612c4a565b600954811015612c495760095490505b5b809050919050565b6000828211151515612c6357600080fd5b818303905092915050565b60008273ffffffffffffffffffffffffffffffffffffffff168473ffffffffffffffffffffffffffffffffffffffff1614151515612cab57600080fd5b612d3a82600460008773ffffffffffffffffffffffffffffffffffffffff1673ffffffffffffffffffffffffffffffffffffffff16815260200190815260200160002060008673ffffffffffffffffffffffffffffffffffffffff1673ffffffffffffffffffffffffffffffffffffffff168152602001908152602001600020546132eb90919063ffffffff16565b600460008673ffffffffffffffffffffffffffffffffffffffff1673ffffffffffffffffffffffffffffffffffffffff16815260200190815260200160002060008573ffffffffffffffffffffffffffffffffffffffff1673ffffffffffffffffffffffffffffffffffffffff168152602001908152602001600020819055508273ffffffffffffffffffffffffffffffffffffffff168473ffffffffffffffffffffffffffffffffffffffff167f8c5be1e5ebec7d5bd14f71427d1e84f3dd0314c0f7b2291e5b200ac8c7c3b925600460008873ffffffffffffffffffffffffffffffffffffffff1673ffffffffffffffffffffffffffffffffffffffff16815260200190815260200160002060008773ffffffffffffffffffffffffffffffffffffffff1673ffffffffffffffffffffffffffffffffffffffff168152602001908152602001600020546040518082815260200191505060405180910390a39392505050565b8373ffffffffffffffffffffffffffffffffffffffff168573ffffffffffffffffffffffffffffffffffffffff1614151515612edd57600080fd5b600083111515612eec57600080fd5b600081111561307a57612f698160036000600560009054906101000a900473ffffffffffffffffffffffffffffffffffffffff1673ffffffffffffffffffffffffffffffffffffffff1673ffffffffffffffffffffffffffffffffffffffff168152602001908152602001600020546132eb90919063ffffffff16565b60036000600560009054906101000a900473ffffffffffffffffffffffffffffffffffffffff1673ffffffffffffffffffffffffffffffffffffffff1673ffffffffffffffffffffffffffffffffffffffff168152602001908152602001600020819055506130328161302485600360008a73ffffffffffffffffffffffffffffffffffffffff1673ffffffffffffffffffffffffffffffffffffffff16815260200190815260200160002054612c5290919063ffffffff16565b612c5290919063ffffffff16565b600360008773ffffffffffffffffffffffffffffffffffffffff1673ffffffffffffffffffffffffffffffffffffffff16815260200190815260200160002081905550613110565b6130cc83600360008873ffffffffffffffffffffffffffffffffffffffff1673ffffffffffffffffffffffffffffffffffffffff16815260200190815260200160002054612c5290919063ffffffff16565b600360008773ffffffffffffffffffffffffffffffffffffffff1673ffffffffffffffffffffffffffffffffffffffff168152602001908152602001600020819055505b61316283600360008773ffffffffffffffffffffffffffffffffffffffff1673ffffffffffffffffffffffffffffffffffffffff168152602001908152602001600020546132eb90919063ffffffff16565b600360008673ffffffffffffffffffffffffffffffffffffffff1673ffffffffffffffffffffffffffffffffffffffff168152602001908152602001600020819055508373ffffffffffffffffffffffffffffffffffffffff168573ffffffffffffffffffffffffffffffffffffffff167fddf252ad1be2c89b69c2b068fc378daa952ba7f163c4a11628f55a4df523b3ef856040518082815260200191505060405180910390a38373ffffffffffffffffffffffffffffffffffffffff168573ffffffffffffffffffffffffffffffffffffffff167f3c37a37469220e9bdcb1e8083efdcac8373f1448f59b5c4b23ebe3a0723642b28585856040518084815260200180602001838152602001828103825284818151815260200191508051906020019080838360005b838110156132a857808201518184015260208101905061328d565b50505050905090810190601f1680156132d55780820380516001836020036101000a031916815260200191505b5094505050505060405180910390a35050505050565b600080828401905083811015151561330257600080fd5b8091505092915050565b6000808284029050600084148061332d575082848281151561332a57fe5b04145b151561333857600080fd5b8091505092915050565b600080828481151561335057fe5b04905080915050929150505600a165627a7a72305820b2ec36c7e0f63af8e0e3c1fc1c0633c5fdf3d3b30ee358a1b3fb5eead8b622ca0029",
  "source": "/* Augmint Crypto Dollar token (ACD) implementation */\npragma solidity ^0.4.18;\nimport \"./generic/AugmintToken.sol\";\n\n\ncontract TokenAcd is AugmintToken {\n    string public constant name = \"Augmint Crypto Dollar\";\n    string public constant symbol = \"ACD\";\n    uint8 public constant decimals = 4; // TODO: check if 4 enough - assuming rate will be around USD\n\n    function TokenAcd(address _feeAccount, address _interestPoolAccount, address _interestEarnedAccount,\n        uint _transferFeePt, uint _transferFeeMin, uint _transferFeeMax) public AugmintToken(\n        _feeAccount, _interestPoolAccount, _interestEarnedAccount,\n        _transferFeePt, _transferFeeMin, _transferFeeMax ) {\n    }\n}\n",
  "sourcePath": "/Users/petro/ether/dcm-poc/contracts/TokenAcd.sol",
  "compiler": {
    "name": "solc",
    "version": "0.4.18+commit.9cf6e910.Emscripten.clang"
  },
  "schemaVersion": "1.0.1",
  "updatedAt": "2018-01-06T09:38:10.188Z"
}