{
  "contractName": "TokenAce",
  "abi": [
    {
      "constant": false,
      "inputs": [
        {
          "name": "_from",
          "type": "address"
        },
        {
          "name": "_to",
          "type": "address"
        },
        {
          "name": "_amount",
          "type": "uint256"
        },
        {
          "name": "_narrative",
          "type": "string"
        }
      ],
      "name": "transferFromNoFee",
      "outputs": [],
      "payable": false,
      "stateMutability": "nonpayable",
      "type": "function"
    },
    {
      "constant": true,
      "inputs": [],
      "name": "name",
      "outputs": [
        {
          "name": "",
          "type": "string"
        }
      ],
      "payable": false,
      "stateMutability": "view",
      "type": "function"
    },
    {
      "constant": false,
      "inputs": [
        {
          "name": "_spender",
          "type": "address"
        },
        {
          "name": "_amount",
          "type": "uint256"
        }
      ],
      "name": "approve",
      "outputs": [
        {
          "name": "",
          "type": "bool"
        }
      ],
      "payable": false,
      "stateMutability": "nonpayable",
      "type": "function"
    },
    {
      "constant": false,
      "inputs": [
        {
          "name": "agent",
          "type": "address"
        },
        {
          "name": "requiredPermissions",
          "type": "bytes32[]"
        }
      ],
      "name": "revokeMulitplePermissions",
      "outputs": [],
      "payable": false,
      "stateMutability": "nonpayable",
      "type": "function"
    },
    {
      "constant": true,
      "inputs": [],
      "name": "totalSupply",
      "outputs": [
        {
          "name": "",
          "type": "uint256"
        }
      ],
      "payable": false,
      "stateMutability": "view",
      "type": "function"
    },
    {
      "constant": false,
      "inputs": [
        {
          "name": "_from",
          "type": "address"
        },
        {
          "name": "_to",
          "type": "address"
        },
        {
          "name": "_amount",
          "type": "uint256"
        }
      ],
      "name": "transferFrom",
      "outputs": [
        {
          "name": "",
          "type": "bool"
        }
      ],
      "payable": false,
      "stateMutability": "nonpayable",
      "type": "function"
    },
    {
      "constant": false,
      "inputs": [
        {
          "name": "newFeeAccount",
          "type": "address"
        },
        {
          "name": "newInteresPoolAccount",
          "type": "address"
        },
        {
          "name": "newInterestEarnedAccount",
          "type": "address"
        }
      ],
      "name": "setSystemAccounts",
      "outputs": [],
      "payable": false,
      "stateMutability": "nonpayable",
      "type": "function"
    },
    {
      "constant": true,
      "inputs": [
        {
          "name": "",
          "type": "address"
        }
      ],
      "name": "balances",
      "outputs": [
        {
          "name": "",
          "type": "uint256"
        }
      ],
      "payable": false,
      "stateMutability": "view",
      "type": "function"
    },
    {
      "constant": true,
      "inputs": [],
      "name": "decimals",
      "outputs": [
        {
          "name": "",
          "type": "uint8"
        }
      ],
      "payable": false,
      "stateMutability": "view",
      "type": "function"
    },
    {
      "constant": true,
      "inputs": [],
      "name": "peggedSymbol",
      "outputs": [
        {
          "name": "",
          "type": "bytes32"
        }
      ],
      "payable": false,
      "stateMutability": "view",
      "type": "function"
    },
    {
      "constant": true,
      "inputs": [
        {
          "name": "",
          "type": "address"
        },
        {
          "name": "",
          "type": "bytes32"
        }
      ],
      "name": "permissions",
      "outputs": [
        {
          "name": "",
          "type": "bool"
        }
      ],
      "payable": false,
      "stateMutability": "view",
      "type": "function"
    },
    {
      "constant": true,
      "inputs": [
        {
          "name": "",
          "type": "address"
        },
        {
          "name": "",
          "type": "address"
        }
      ],
      "name": "allowed",
      "outputs": [
        {
          "name": "",
          "type": "uint256"
        }
      ],
      "payable": false,
      "stateMutability": "view",
      "type": "function"
    },
    {
      "constant": true,
      "inputs": [
        {
          "name": "agent",
          "type": "address"
        },
        {
          "name": "permission",
          "type": "bytes32"
        }
      ],
      "name": "isAllowed",
      "outputs": [
        {
          "name": "",
          "type": "bool"
        }
      ],
      "payable": false,
      "stateMutability": "view",
      "type": "function"
    },
    {
      "constant": true,
      "inputs": [],
      "name": "interestEarnedAccount",
      "outputs": [
        {
          "name": "",
          "type": "address"
        }
      ],
      "payable": false,
      "stateMutability": "view",
      "type": "function"
    },
    {
      "constant": false,
      "inputs": [
        {
          "name": "agent",
          "type": "address"
        },
        {
          "name": "requiredPermission",
          "type": "bytes32"
        }
      ],
      "name": "revokePermission",
      "outputs": [],
      "payable": false,
      "stateMutability": "nonpayable",
      "type": "function"
    },
    {
      "constant": true,
      "inputs": [],
      "name": "feeAccount",
      "outputs": [
        {
          "name": "",
          "type": "address"
        }
      ],
      "payable": false,
      "stateMutability": "view",
      "type": "function"
    },
    {
      "constant": false,
      "inputs": [
        {
          "name": "_spender",
          "type": "address"
        },
        {
          "name": "_subtractedValue",
          "type": "uint256"
        }
      ],
      "name": "decreaseApproval",
      "outputs": [
        {
          "name": "",
          "type": "bool"
        }
      ],
      "payable": false,
      "stateMutability": "nonpayable",
      "type": "function"
    },
    {
      "constant": true,
      "inputs": [
        {
          "name": "_owner",
          "type": "address"
        }
      ],
      "name": "balanceOf",
      "outputs": [
        {
          "name": "balance",
          "type": "uint256"
        }
      ],
      "payable": false,
      "stateMutability": "view",
      "type": "function"
    },
    {
      "constant": true,
      "inputs": [],
      "name": "transferFeeMax",
      "outputs": [
        {
          "name": "",
          "type": "uint256"
        }
      ],
      "payable": false,
      "stateMutability": "view",
      "type": "function"
    },
    {
      "constant": false,
      "inputs": [
        {
          "name": "_from",
          "type": "address"
        },
        {
          "name": "_to",
          "type": "address"
        },
        {
          "name": "_amount",
          "type": "uint256"
        },
        {
          "name": "_narrative",
          "type": "string"
        }
      ],
      "name": "transferFromWithNarrative",
      "outputs": [],
      "payable": false,
      "stateMutability": "nonpayable",
      "type": "function"
    },
    {
      "constant": true,
      "inputs": [],
      "name": "transferFeePt",
      "outputs": [
        {
          "name": "",
          "type": "uint256"
        }
      ],
      "payable": false,
      "stateMutability": "view",
      "type": "function"
    },
    {
      "constant": true,
      "inputs": [],
      "name": "owner",
      "outputs": [
        {
          "name": "",
          "type": "address"
        }
      ],
      "payable": false,
      "stateMutability": "view",
      "type": "function"
    },
    {
      "constant": false,
      "inputs": [
        {
          "name": "_loanManager",
          "type": "address"
        },
        {
          "name": "loanId",
          "type": "uint256"
        }
      ],
      "name": "repayLoan",
      "outputs": [],
      "payable": false,
      "stateMutability": "nonpayable",
      "type": "function"
    },
    {
      "constant": true,
      "inputs": [],
      "name": "symbol",
      "outputs": [
        {
          "name": "",
          "type": "string"
        }
      ],
      "payable": false,
      "stateMutability": "view",
      "type": "function"
    },
    {
      "constant": false,
      "inputs": [
        {
          "name": "agent",
          "type": "address"
        },
        {
          "name": "requiredPermissions",
          "type": "bytes32[]"
        }
      ],
      "name": "grantMultiplePermissions",
      "outputs": [],
      "payable": false,
      "stateMutability": "nonpayable",
      "type": "function"
    },
    {
      "constant": true,
      "inputs": [],
      "name": "interestPoolAccount",
      "outputs": [
        {
          "name": "",
          "type": "address"
        }
      ],
      "payable": false,
      "stateMutability": "view",
      "type": "function"
    },
    {
      "constant": true,
      "inputs": [],
      "name": "transferFeeMin",
      "outputs": [
        {
          "name": "",
          "type": "uint256"
        }
      ],
      "payable": false,
      "stateMutability": "view",
      "type": "function"
    },
    {
      "constant": false,
      "inputs": [
        {
          "name": "_to",
          "type": "address"
        },
        {
          "name": "_amount",
          "type": "uint256"
        }
      ],
      "name": "transfer",
      "outputs": [
        {
          "name": "",
          "type": "bool"
        }
      ],
      "payable": false,
      "stateMutability": "nonpayable",
      "type": "function"
    },
    {
      "constant": false,
      "inputs": [
        {
          "name": "_from",
          "type": "address"
        },
        {
          "name": "_to",
          "type": "address"
        },
        {
          "name": "_amount",
          "type": "uint256"
        },
        {
          "name": "_narrative",
          "type": "string"
        }
      ],
      "name": "transferNoFee",
      "outputs": [],
      "payable": false,
      "stateMutability": "nonpayable",
      "type": "function"
    },
    {
      "constant": false,
      "inputs": [
        {
          "name": "_transferFeePt",
          "type": "uint256"
        },
        {
          "name": "_transferFeeMin",
          "type": "uint256"
        },
        {
          "name": "_transferFeeMax",
          "type": "uint256"
        }
      ],
      "name": "setTransferFees",
      "outputs": [],
      "payable": false,
      "stateMutability": "nonpayable",
      "type": "function"
    },
    {
      "constant": false,
      "inputs": [
        {
          "name": "interestAmount",
          "type": "uint256"
        }
      ],
      "name": "moveCollectedInterest",
      "outputs": [],
      "payable": false,
      "stateMutability": "nonpayable",
      "type": "function"
    },
    {
      "constant": false,
      "inputs": [
        {
          "name": "borrower",
          "type": "address"
        },
        {
          "name": "loanAmount",
          "type": "uint256"
        },
        {
          "name": "interestAmount",
          "type": "uint256"
        },
        {
          "name": "narrative",
          "type": "string"
        }
      ],
      "name": "issueAndDisburse",
      "outputs": [],
      "payable": false,
      "stateMutability": "nonpayable",
      "type": "function"
    },
    {
      "constant": false,
      "inputs": [
        {
          "name": "borrower",
          "type": "address"
        },
        {
          "name": "repaymentAmount",
          "type": "uint256"
        },
        {
          "name": "interestAmount",
          "type": "uint256"
        },
        {
          "name": "narrative",
          "type": "string"
        }
      ],
      "name": "repayAndBurn",
      "outputs": [],
      "payable": false,
      "stateMutability": "nonpayable",
      "type": "function"
    },
    {
      "constant": false,
      "inputs": [
        {
          "name": "_spender",
          "type": "address"
        },
        {
          "name": "_addedValue",
          "type": "uint256"
        }
      ],
      "name": "increaseApproval",
      "outputs": [
        {
          "name": "",
          "type": "bool"
        }
      ],
      "payable": false,
      "stateMutability": "nonpayable",
      "type": "function"
    },
    {
      "constant": true,
      "inputs": [
        {
          "name": "_owner",
          "type": "address"
        },
        {
          "name": "_spender",
          "type": "address"
        }
      ],
      "name": "allowance",
      "outputs": [
        {
          "name": "remaining",
          "type": "uint256"
        }
      ],
      "payable": false,
      "stateMutability": "view",
      "type": "function"
    },
    {
      "constant": false,
      "inputs": [
        {
          "name": "newOwner",
          "type": "address"
        }
      ],
      "name": "transferOwnership",
      "outputs": [],
      "payable": false,
      "stateMutability": "nonpayable",
      "type": "function"
    },
    {
      "constant": false,
      "inputs": [
        {
          "name": "agent",
          "type": "address"
        },
        {
          "name": "requiredPermission",
          "type": "bytes32"
        }
      ],
      "name": "grantPermission",
      "outputs": [],
      "payable": false,
      "stateMutability": "nonpayable",
      "type": "function"
    },
    {
      "constant": false,
      "inputs": [
        {
          "name": "_to",
          "type": "address"
        },
        {
          "name": "_amount",
          "type": "uint256"
        },
        {
          "name": "_narrative",
          "type": "string"
        }
      ],
      "name": "transferWithNarrative",
      "outputs": [],
      "payable": false,
      "stateMutability": "nonpayable",
      "type": "function"
    },
    {
      "inputs": [
        {
          "name": "_feeAccount",
          "type": "address"
        },
        {
          "name": "_interestPoolAccount",
          "type": "address"
        },
        {
          "name": "_interestEarnedAccount",
          "type": "address"
        },
        {
          "name": "_transferFeePt",
          "type": "uint256"
        },
        {
          "name": "_transferFeeMin",
          "type": "uint256"
        },
        {
          "name": "_transferFeeMax",
          "type": "uint256"
        }
      ],
      "payable": false,
      "stateMutability": "nonpayable",
      "type": "constructor"
    },
    {
      "payable": true,
      "stateMutability": "payable",
      "type": "fallback"
    },
    {
      "anonymous": false,
      "inputs": [
        {
          "indexed": false,
          "name": "amount",
          "type": "uint256"
        }
      ],
      "name": "TokenIssued",
      "type": "event"
    },
    {
      "anonymous": false,
      "inputs": [
        {
          "indexed": false,
          "name": "amount",
          "type": "uint256"
        }
      ],
      "name": "TokenBurned",
      "type": "event"
    },
    {
      "anonymous": false,
      "inputs": [
        {
          "indexed": false,
          "name": "newFeeAccount",
          "type": "address"
        },
        {
          "indexed": false,
          "name": "newInteresPoolAccount",
          "type": "address"
        },
        {
          "indexed": false,
          "name": "newInterestEarnedAccount",
          "type": "address"
        }
      ],
      "name": "SystemAccountsChanged",
      "type": "event"
    },
    {
      "anonymous": false,
      "inputs": [
        {
          "indexed": false,
          "name": "_transferFeePt",
          "type": "uint256"
        },
        {
          "indexed": false,
          "name": "_transferFeeMin",
          "type": "uint256"
        },
        {
          "indexed": false,
          "name": "_transferFeeMax",
          "type": "uint256"
        }
      ],
      "name": "TransferFeesChanged",
      "type": "event"
    },
    {
      "anonymous": false,
      "inputs": [
        {
          "indexed": true,
          "name": "from",
          "type": "address"
        },
        {
          "indexed": true,
          "name": "to",
          "type": "address"
        },
        {
          "indexed": false,
          "name": "amount",
          "type": "uint256"
        }
      ],
      "name": "Transfer",
      "type": "event"
    },
    {
      "anonymous": false,
      "inputs": [
        {
          "indexed": true,
          "name": "from",
          "type": "address"
        },
        {
          "indexed": true,
          "name": "to",
          "type": "address"
        },
        {
          "indexed": false,
          "name": "amount",
          "type": "uint256"
        },
        {
          "indexed": false,
          "name": "narrative",
          "type": "string"
        },
        {
          "indexed": false,
          "name": "fee",
          "type": "uint256"
        }
      ],
      "name": "AugmintTransfer",
      "type": "event"
    },
    {
      "anonymous": false,
      "inputs": [
        {
          "indexed": true,
          "name": "_owner",
          "type": "address"
        },
        {
          "indexed": true,
          "name": "_spender",
          "type": "address"
        },
        {
          "indexed": false,
          "name": "_value",
          "type": "uint256"
        }
      ],
      "name": "Approval",
      "type": "event"
    },
    {
      "anonymous": false,
      "inputs": [
        {
          "indexed": true,
          "name": "agent",
          "type": "address"
        },
        {
          "indexed": false,
          "name": "grantedPermission",
          "type": "bytes32"
        }
      ],
      "name": "PermissionGranted",
      "type": "event"
    },
    {
      "anonymous": false,
      "inputs": [
        {
          "indexed": true,
          "name": "agent",
          "type": "address"
        },
        {
          "indexed": false,
          "name": "revokedPermission",
          "type": "bytes32"
        }
      ],
      "name": "PermissionRevoked",
      "type": "event"
    },
    {
      "anonymous": false,
      "inputs": [
        {
          "indexed": true,
          "name": "oldOwner",
          "type": "address"
        },
        {
          "indexed": true,
          "name": "newOwner",
          "type": "address"
        }
      ],
      "name": "NewOwner",
      "type": "event"
    }
  ],
  "bytecode": "0x606060405234156200001057600080fd5b60405160c08062003903833981016040528080519060200190919080519060200190919080519060200190919080519060200190919080519060200190919080519060200190919050506040805190810160405280601381526020017f4175676d696e742043727970746f204575726f000000000000000000000000008152506040805190810160405280600381526020017f41434500000000000000000000000000000000000000000000000000000000008152507f45555200000000000000000000000000000000000000000000000000000000006004898989898989600073ffffffffffffffffffffffffffffffffffffffff166000809054906101000a900473ffffffffffffffffffffffffffffffffffffffff1673ffffffffffffffffffffffffffffffffffffffff161415156200014c57600080fd5b336000806101000a81548173ffffffffffffffffffffffffffffffffffffffff021916908373ffffffffffffffffffffffffffffffffffffffff160217905550600073ffffffffffffffffffffffffffffffffffffffff168673ffffffffffffffffffffffffffffffffffffffff1614151515620001c957600080fd5b600073ffffffffffffffffffffffffffffffffffffffff168573ffffffffffffffffffffffffffffffffffffffff16141515156200020657600080fd5b600073ffffffffffffffffffffffffffffffffffffffff168473ffffffffffffffffffffffffffffffffffffffff16141515156200024357600080fd5b60008a511115156200025457600080fd5b89600290805190602001906200026c9291906200039a565b508860039080519060200190620002859291906200039a565b50876004816000191690555086600560006101000a81548160ff021916908360ff16021790555085600960006101000a81548173ffffffffffffffffffffffffffffffffffffffff021916908373ffffffffffffffffffffffffffffffffffffffff16021790555084600a60006101000a81548173ffffffffffffffffffffffffffffffffffffffff021916908373ffffffffffffffffffffffffffffffffffffffff16021790555083600b60006101000a81548173ffffffffffffffffffffffffffffffffffffffff021916908373ffffffffffffffffffffffffffffffffffffffff16021790555082600c8190555081600d8190555080600e819055505050505050505050505050505050505062000449565b828054600181600116156101000203166002900490600052602060002090601f016020900481019282601f10620003dd57805160ff19168380011785556200040e565b828001600101855582156200040e579182015b828111156200040d578251825591602001919060010190620003f0565b5b5090506200041d919062000421565b5090565b6200044691905b808211156200044257600081600090555060010162000428565b5090565b90565b6134aa80620004596000396000f3006060604052600436106101d8576000357c0100000000000000000000000000000000000000000000000000000000900463ffffffff16806304282d25146101da57806306fdde031461027e578063095ea7b31461030c5780630da32eaa1461036657806318160ddd146103df57806323b872dd1461040857806324839a3a1461048157806327e235e3146104f8578063313ce5671461054557806333a263e6146105745780635b225526146105a55780635c658165146106035780635cb8dd091461066f5780635fcf0455146106cd5780635fe070131461072257806365e17c9d1461076857806366188463146107bd57806370a082311461081757806372a1eecc14610864578063765879211461088d57806377c9db1a146109315780638da5cb5b1461095a57806393a595f5146109af57806395d89b41146109f15780639ac3317b14610a7f5780639ae8dcef14610af8578063a7f839a714610b4d578063a9059cbb14610b76578063b0455f1314610bd0578063bfd201f514610c45578063c06ec4bc14610c7a578063c28f379314610c9d578063c613aa6a14610cfc578063d73dd62314610d5b578063dd62ed3e14610db5578063f2fde38b14610e21578063f38a826214610e5a578063ffdcf09514610ea0575b005b34156101e557600080fd5b61027c600480803573ffffffffffffffffffffffffffffffffffffffff1690602001909190803573ffffffffffffffffffffffffffffffffffffffff1690602001909190803590602001909190803590602001908201803590602001908080601f01602080910402602001604051908101604052809392919081815260200183838082843782019150505050505091905050610ef6565b005b341561028957600080fd5b610291610f9d565b6040518080602001828103825283818151815260200191508051906020019080838360005b838110156102d15780820151818401526020810190506102b6565b50505050905090810190601f1680156102fe5780820380516001836020036101000a031916815260200191505b509250505060405180910390f35b341561031757600080fd5b61034c600480803573ffffffffffffffffffffffffffffffffffffffff1690602001909190803590602001909190505061103b565b604051808215151515815260200191505060405180910390f35b341561037157600080fd5b6103dd600480803573ffffffffffffffffffffffffffffffffffffffff1690602001909190803590602001908201803590602001908080602002602001604051908101604052809392919081815260200183836020028082843782019150505050505091905050611168565b005b34156103ea57600080fd5b6103f261120b565b6040518082815260200191505060405180910390f35b341561041357600080fd5b610467600480803573ffffffffffffffffffffffffffffffffffffffff1690602001909190803573ffffffffffffffffffffffffffffffffffffffff16906020019091908035906020019091905050611211565b604051808215151515815260200191505060405180910390f35b341561048c57600080fd5b6104f6600480803573ffffffffffffffffffffffffffffffffffffffff1690602001909190803573ffffffffffffffffffffffffffffffffffffffff1690602001909190803573ffffffffffffffffffffffffffffffffffffffff16906020019091905050611243565b005b341561050357600080fd5b61052f600480803573ffffffffffffffffffffffffffffffffffffffff169060200190919050506114db565b6040518082815260200191505060405180910390f35b341561055057600080fd5b6105586114f3565b604051808260ff1660ff16815260200191505060405180910390f35b341561057f57600080fd5b610587611506565b60405180826000191660001916815260200191505060405180910390f35b34156105b057600080fd5b6105e9600480803573ffffffffffffffffffffffffffffffffffffffff169060200190919080356000191690602001909190505061150c565b604051808215151515815260200191505060405180910390f35b341561060e57600080fd5b610659600480803573ffffffffffffffffffffffffffffffffffffffff1690602001909190803573ffffffffffffffffffffffffffffffffffffffff1690602001909190505061153b565b6040518082815260200191505060405180910390f35b341561067a57600080fd5b6106b3600480803573ffffffffffffffffffffffffffffffffffffffff1690602001909190803560001916906020019091905050611560565b604051808215151515815260200191505060405180910390f35b34156106d857600080fd5b6106e06115d0565b604051808273ffffffffffffffffffffffffffffffffffffffff1673ffffffffffffffffffffffffffffffffffffffff16815260200191505060405180910390f35b341561072d57600080fd5b610766600480803573ffffffffffffffffffffffffffffffffffffffff16906020019091908035600019169060200190919050506115f6565b005b341561077357600080fd5b61077b61171c565b604051808273ffffffffffffffffffffffffffffffffffffffff1673ffffffffffffffffffffffffffffffffffffffff16815260200191505060405180910390f35b34156107c857600080fd5b6107fd600480803573ffffffffffffffffffffffffffffffffffffffff16906020019091908035906020019091905050611742565b604051808215151515815260200191505060405180910390f35b341561082257600080fd5b61084e600480803573ffffffffffffffffffffffffffffffffffffffff16906020019091905050611a0e565b6040518082815260200191505060405180910390f35b341561086f57600080fd5b610877611a57565b6040518082815260200191505060405180910390f35b341561089857600080fd5b61092f600480803573ffffffffffffffffffffffffffffffffffffffff1690602001909190803573ffffffffffffffffffffffffffffffffffffffff1690602001909190803590602001909190803590602001908201803590602001908080601f01602080910402602001604051908101604052809392919081815260200183838082843782019150505050505091905050611a5d565b005b341561093c57600080fd5b610944611a78565b6040518082815260200191505060405180910390f35b341561096557600080fd5b61096d611a7e565b604051808273ffffffffffffffffffffffffffffffffffffffff1673ffffffffffffffffffffffffffffffffffffffff16815260200191505060405180910390f35b34156109ba57600080fd5b6109ef600480803573ffffffffffffffffffffffffffffffffffffffff16906020019091908035906020019091905050611aa3565b005b34156109fc57600080fd5b610a04611c85565b6040518080602001828103825283818151815260200191508051906020019080838360005b83811015610a44578082015181840152602081019050610a29565b50505050905090810190601f168015610a715780820380516001836020036101000a031916815260200191505b509250505060405180910390f35b3415610a8a57600080fd5b610af6600480803573ffffffffffffffffffffffffffffffffffffffff1690602001909190803590602001908201803590602001908080602002602001604051908101604052809392919081815260200183836020028082843782019150505050505091905050611d23565b005b3415610b0357600080fd5b610b0b611dc6565b604051808273ffffffffffffffffffffffffffffffffffffffff1673ffffffffffffffffffffffffffffffffffffffff16815260200191505060405180910390f35b3415610b5857600080fd5b610b60611dec565b6040518082815260200191505060405180910390f35b3415610b8157600080fd5b610bb6600480803573ffffffffffffffffffffffffffffffffffffffff16906020019091908035906020019091905050611df2565b604051808215151515815260200191505060405180910390f35b3415610bdb57600080fd5b610c43600480803573ffffffffffffffffffffffffffffffffffffffff1690602001909190803573ffffffffffffffffffffffffffffffffffffffff169060200190919080359060200190919080359060200190820180359060200191909192905050611e23565b005b3415610c5057600080fd5b610c786004808035906020019091908035906020019091908035906020019091905050611efd565b005b3415610c8557600080fd5b610c9b6004808035906020019091905050611ff7565b005b3415610ca857600080fd5b610cfa600480803573ffffffffffffffffffffffffffffffffffffffff1690602001909190803590602001909190803590602001909190803590602001908201803590602001919091929050506120f2565b005b3415610d0757600080fd5b610d59600480803573ffffffffffffffffffffffffffffffffffffffff1690602001909190803590602001909190803590602001909190803590602001908201803590602001919091929050506123bd565b005b3415610d6657600080fd5b610d9b600480803573ffffffffffffffffffffffffffffffffffffffff1690602001909190803590602001909190505061273a565b604051808215151515815260200191505060405180910390f35b3415610dc057600080fd5b610e0b600480803573ffffffffffffffffffffffffffffffffffffffff1690602001909190803573ffffffffffffffffffffffffffffffffffffffff1690602001909190505061274f565b6040518082815260200191505060405180910390f35b3415610e2c57600080fd5b610e58600480803573ffffffffffffffffffffffffffffffffffffffff169060200190919050506127d6565b005b3415610e6557600080fd5b610e9e600480803573ffffffffffffffffffffffffffffffffffffffff169060200190919080356000191690602001909190505061292b565b005b3415610eab57600080fd5b610ef4600480803573ffffffffffffffffffffffffffffffffffffffff169060200190919080359060200190919080359060200190820180359060200191909192905050612a50565b005b7f7472616e7366657246726f6d4e6f466565000000000000000000000000000000600160003373ffffffffffffffffffffffffffffffffffffffff1673ffffffffffffffffffffffffffffffffffffffff1681526020019081526020016000206000826000191660001916815260200190815260200160002060009054906101000a900460ff161515610f8857600080fd5b610f96858585856000612a9d565b5050505050565b60028054600181600116156101000203166002900480601f0160208091040260200160405190810160405280929190818152602001828054600181600116156101000203166002900480156110335780601f1061100857610100808354040283529160200191611033565b820191906000526020600020905b81548152906001019060200180831161101657829003601f168201915b505050505081565b60008273ffffffffffffffffffffffffffffffffffffffff163373ffffffffffffffffffffffffffffffffffffffff161415151561107857600080fd5b81600860003373ffffffffffffffffffffffffffffffffffffffff1673ffffffffffffffffffffffffffffffffffffffff16815260200190815260200160002060008573ffffffffffffffffffffffffffffffffffffffff1673ffffffffffffffffffffffffffffffffffffffff168152602001908152602001600020819055508273ffffffffffffffffffffffffffffffffffffffff163373ffffffffffffffffffffffffffffffffffffffff167f8c5be1e5ebec7d5bd14f71427d1e84f3dd0314c0f7b2291e5b200ac8c7c3b925846040518082815260200191505060405180910390a36001905092915050565b6000806000809054906101000a900473ffffffffffffffffffffffffffffffffffffffff1673ffffffffffffffffffffffffffffffffffffffff163373ffffffffffffffffffffffffffffffffffffffff161415156111c657600080fd5b82519150600090505b81811015611205576111f88484838151811015156111e957fe5b906020019060200201516115f6565b80806001019150506111cf565b50505050565b60065481565b6000611238848484602060405190810160405280600081525061123387612d18565b612a9d565b600190509392505050565b7f73657453797374656d4163636f756e7473000000000000000000000000000000600160003373ffffffffffffffffffffffffffffffffffffffff1673ffffffffffffffffffffffffffffffffffffffff1681526020019081526020016000206000826000191660001916815260200190815260200160002060009054906101000a900460ff1615156112d557600080fd5b60008473ffffffffffffffffffffffffffffffffffffffff16141515156112fb57600080fd5b60008373ffffffffffffffffffffffffffffffffffffffff161415151561132157600080fd5b60008273ffffffffffffffffffffffffffffffffffffffff161415151561134757600080fd5b83600960006101000a81548173ffffffffffffffffffffffffffffffffffffffff021916908373ffffffffffffffffffffffffffffffffffffffff16021790555082600a60006101000a81548173ffffffffffffffffffffffffffffffffffffffff021916908373ffffffffffffffffffffffffffffffffffffffff16021790555081600b60006101000a81548173ffffffffffffffffffffffffffffffffffffffff021916908373ffffffffffffffffffffffffffffffffffffffff1602179055507f23dbec4dc224f6b5dbb7872e42fdf27b8eab89540005970d572678433093c94e848484604051808473ffffffffffffffffffffffffffffffffffffffff1673ffffffffffffffffffffffffffffffffffffffff1681526020018373ffffffffffffffffffffffffffffffffffffffff1673ffffffffffffffffffffffffffffffffffffffff1681526020018273ffffffffffffffffffffffffffffffffffffffff1673ffffffffffffffffffffffffffffffffffffffff168152602001935050505060405180910390a150505050565b60076020528060005260406000206000915090505481565b600560009054906101000a900460ff1681565b60045481565b60016020528160005260406000206020528060005260406000206000915091509054906101000a900460ff1681565b6008602052816000526040600020602052806000526040600020600091509150505481565b6000600160008473ffffffffffffffffffffffffffffffffffffffff1673ffffffffffffffffffffffffffffffffffffffff1681526020019081526020016000206000836000191660001916815260200190815260200160002060009054906101000a900460ff16905092915050565b600b60009054906101000a900473ffffffffffffffffffffffffffffffffffffffff1681565b6000809054906101000a900473ffffffffffffffffffffffffffffffffffffffff1673ffffffffffffffffffffffffffffffffffffffff163373ffffffffffffffffffffffffffffffffffffffff1614151561165157600080fd5b6000600160008473ffffffffffffffffffffffffffffffffffffffff1673ffffffffffffffffffffffffffffffffffffffff1681526020019081526020016000206000836000191660001916815260200190815260200160002060006101000a81548160ff0219169083151502179055508173ffffffffffffffffffffffffffffffffffffffff167f789770131846de4d1f28418f0f957cdf4fcabe5eccf70067083e20ecece69a348260405180826000191660001916815260200191505060405180910390a25050565b600960009054906101000a900473ffffffffffffffffffffffffffffffffffffffff1681565b6000808373ffffffffffffffffffffffffffffffffffffffff163373ffffffffffffffffffffffffffffffffffffffff161415151561178057600080fd5b600860003373ffffffffffffffffffffffffffffffffffffffff1673ffffffffffffffffffffffffffffffffffffffff16815260200190815260200160002060008573ffffffffffffffffffffffffffffffffffffffff1673ffffffffffffffffffffffffffffffffffffffff1681526020019081526020016000205490508083111561188e576000600860003373ffffffffffffffffffffffffffffffffffffffff1673ffffffffffffffffffffffffffffffffffffffff16815260200190815260200160002060008673ffffffffffffffffffffffffffffffffffffffff1673ffffffffffffffffffffffffffffffffffffffff16815260200190815260200160002081905550611922565b6118a18382612d7390919063ffffffff16565b600860003373ffffffffffffffffffffffffffffffffffffffff1673ffffffffffffffffffffffffffffffffffffffff16815260200190815260200160002060008673ffffffffffffffffffffffffffffffffffffffff1673ffffffffffffffffffffffffffffffffffffffff168152602001908152602001600020819055505b8373ffffffffffffffffffffffffffffffffffffffff163373ffffffffffffffffffffffffffffffffffffffff167f8c5be1e5ebec7d5bd14f71427d1e84f3dd0314c0f7b2291e5b200ac8c7c3b925600860003373ffffffffffffffffffffffffffffffffffffffff1673ffffffffffffffffffffffffffffffffffffffff16815260200190815260200160002060008873ffffffffffffffffffffffffffffffffffffffff1673ffffffffffffffffffffffffffffffffffffffff168152602001908152602001600020546040518082815260200191505060405180910390a3600191505092915050565b6000600760008373ffffffffffffffffffffffffffffffffffffffff1673ffffffffffffffffffffffffffffffffffffffff168152602001908152602001600020549050919050565b600e5481565b611a7284848484611a6d87612d18565b612a9d565b50505050565b600c5481565b6000809054906101000a900473ffffffffffffffffffffffffffffffffffffffff1681565b6000806000611ad2857f4c6f616e4d616e61676572000000000000000000000000000000000000000000611560565b1515611add57600080fd5b8492508273ffffffffffffffffffffffffffffffffffffffff1663e1ec3c6885600060405161014001526040518263ffffffff167c01000000000000000000000000000000000000000000000000000000000281526004018082815260200191505061014060405180830381600087803b1515611b5957600080fd5b6102c65a03f11515611b6a57600080fd5b505050604051805190602001805190602001805190602001805190602001805190602001805190602001805190602001805190602001805190602001805190505050505050509350505091503373ffffffffffffffffffffffffffffffffffffffff168273ffffffffffffffffffffffffffffffffffffffff16141515611bf057600080fd5b611bfb338683612d8f565b508273ffffffffffffffffffffffffffffffffffffffff166339007b77856040518263ffffffff167c010000000000000000000000000000000000000000000000000000000002815260040180828152602001915050600060405180830381600087803b1515611c6a57600080fd5b6102c65a03f11515611c7b57600080fd5b5050505050505050565b60038054600181600116156101000203166002900480601f016020809104026020016040519081016040528092919081815260200182805460018160011615610100020316600290048015611d1b5780601f10611cf057610100808354040283529160200191611d1b565b820191906000526020600020905b815481529060010190602001808311611cfe57829003601f168201915b505050505081565b6000806000809054906101000a900473ffffffffffffffffffffffffffffffffffffffff1673ffffffffffffffffffffffffffffffffffffffff163373ffffffffffffffffffffffffffffffffffffffff16141515611d8157600080fd5b82519150600090505b81811015611dc057611db3848483815181101515611da457fe5b9060200190602002015161292b565b8080600101915050611d8a565b50505050565b600a60009054906101000a900473ffffffffffffffffffffffffffffffffffffffff1681565b600d5481565b6000611e193384846020604051908101604052806000815250611e1487612d18565b612fc3565b6001905092915050565b7f7472616e736665724e6f46656500000000000000000000000000000000000000600160003373ffffffffffffffffffffffffffffffffffffffff1673ffffffffffffffffffffffffffffffffffffffff1681526020019081526020016000206000826000191660001916815260200190815260200160002060009054906101000a900460ff161515611eb557600080fd5b611ef586868686868080601f0160208091040260200160405190810160405280939291908181526020018383808284378201915050505050506000612fc3565b505050505050565b7f7365745472616e73666572466565730000000000000000000000000000000000600160003373ffffffffffffffffffffffffffffffffffffffff1673ffffffffffffffffffffffffffffffffffffffff1681526020019081526020016000206000826000191660001916815260200190815260200160002060009054906101000a900460ff161515611f8f57600080fd5b83600c8190555082600d8190555081600e819055507fd987a3acde40f231f760d7c3d2907c83d26bca5aededafbeefba5619b5955d71600c54600d54600e5460405180848152602001838152602001828152602001935050505060405180910390a150505050565b7f6d6f7665436f6c6c6563746564496e7465726573740000000000000000000000600160003373ffffffffffffffffffffffffffffffffffffffff1673ffffffffffffffffffffffffffffffffffffffff1681526020019081526020016000206000826000191660001916815260200190815260200160002060009054906101000a900460ff16151561208957600080fd5b6120ee600a60009054906101000a900473ffffffffffffffffffffffffffffffffffffffff1630846040805190810160405280601781526020017f44656661756c746564206c6f616e20696e7465726573740000000000000000008152506000612fc3565b5050565b60007f6973737565416e64446973627572736500000000000000000000000000000000600160003373ffffffffffffffffffffffffffffffffffffffff1673ffffffffffffffffffffffffffffffffffffffff1681526020019081526020016000206000826000191660001916815260200190815260200160002060009054906101000a900460ff16151561218657600080fd5b60008611151561219557600080fd5b6121a8858761340c90919063ffffffff16565b91506121bf8260065461340c90919063ffffffff16565b60068190555061221786600760003073ffffffffffffffffffffffffffffffffffffffff1673ffffffffffffffffffffffffffffffffffffffff1681526020019081526020016000205461340c90919063ffffffff16565b600760003073ffffffffffffffffffffffffffffffffffffffff1673ffffffffffffffffffffffffffffffffffffffff16815260200190815260200160002081905550600085111561233d576122d78560076000600a60009054906101000a900473ffffffffffffffffffffffffffffffffffffffff1673ffffffffffffffffffffffffffffffffffffffff1673ffffffffffffffffffffffffffffffffffffffff1681526020019081526020016000205461340c90919063ffffffff16565b60076000600a60009054906101000a900473ffffffffffffffffffffffffffffffffffffffff1673ffffffffffffffffffffffffffffffffffffffff1673ffffffffffffffffffffffffffffffffffffffff168152602001908152602001600020819055505b61237d30888887878080601f0160208091040260200160405190810160405280939291908181526020018383808284378201915050505050506000612fc3565b7f22e0481cfeefc9defe3dece414137b4b644284658facef6d9734c16204cca3f0826040518082815260200191505060405180910390a150505050505050565b7f7265706179416e644275726e0000000000000000000000000000000000000000600160003373ffffffffffffffffffffffffffffffffffffffff1673ffffffffffffffffffffffffffffffffffffffff1681526020019081526020016000206000826000191660001916815260200190815260200160002060009054906101000a900460ff16151561244f57600080fd5b61248f86308786868080601f0160208091040260200160405190810160405280939291908181526020018383808284378201915050505050506000612a9d565b6124a485600654612d7390919063ffffffff16565b6006819055506124fc85600760003073ffffffffffffffffffffffffffffffffffffffff1673ffffffffffffffffffffffffffffffffffffffff16815260200190815260200160002054612d7390919063ffffffff16565b600760003073ffffffffffffffffffffffffffffffffffffffff1673ffffffffffffffffffffffffffffffffffffffff1681526020019081526020016000208190555060008411156126fb576125bc8460076000600b60009054906101000a900473ffffffffffffffffffffffffffffffffffffffff1673ffffffffffffffffffffffffffffffffffffffff1673ffffffffffffffffffffffffffffffffffffffff1681526020019081526020016000205461340c90919063ffffffff16565b60076000600b60009054906101000a900473ffffffffffffffffffffffffffffffffffffffff1673ffffffffffffffffffffffffffffffffffffffff1673ffffffffffffffffffffffffffffffffffffffff168152602001908152602001600020819055506126958460076000600a60009054906101000a900473ffffffffffffffffffffffffffffffffffffffff1673ffffffffffffffffffffffffffffffffffffffff1673ffffffffffffffffffffffffffffffffffffffff16815260200190815260200160002054612d7390919063ffffffff16565b60076000600a60009054906101000a900473ffffffffffffffffffffffffffffffffffffffff1673ffffffffffffffffffffffffffffffffffffffff1673ffffffffffffffffffffffffffffffffffffffff168152602001908152602001600020819055505b7f0c526103b8f47af5516191d0c89a598755bd00faa211a3cb52e4c2cc782f7fe2856040518082815260200191505060405180910390a1505050505050565b6000612747338484612d8f565b905092915050565b6000600860008473ffffffffffffffffffffffffffffffffffffffff1673ffffffffffffffffffffffffffffffffffffffff16815260200190815260200160002060008373ffffffffffffffffffffffffffffffffffffffff1673ffffffffffffffffffffffffffffffffffffffff16815260200190815260200160002054905092915050565b6000809054906101000a900473ffffffffffffffffffffffffffffffffffffffff1673ffffffffffffffffffffffffffffffffffffffff163373ffffffffffffffffffffffffffffffffffffffff1614151561283157600080fd5b600073ffffffffffffffffffffffffffffffffffffffff168173ffffffffffffffffffffffffffffffffffffffff161415151561286d57600080fd5b8073ffffffffffffffffffffffffffffffffffffffff166000809054906101000a900473ffffffffffffffffffffffffffffffffffffffff1673ffffffffffffffffffffffffffffffffffffffff167f70aea8d848e8a90fb7661b227dc522eb6395c3dac71b63cb59edd5c9899b236460405160405180910390a3806000806101000a81548173ffffffffffffffffffffffffffffffffffffffff021916908373ffffffffffffffffffffffffffffffffffffffff16021790555050565b6000809054906101000a900473ffffffffffffffffffffffffffffffffffffffff1673ffffffffffffffffffffffffffffffffffffffff163373ffffffffffffffffffffffffffffffffffffffff1614151561298657600080fd5b60018060008473ffffffffffffffffffffffffffffffffffffffff1673ffffffffffffffffffffffffffffffffffffffff1681526020019081526020016000206000836000191660001916815260200190815260200160002060006101000a81548160ff0219169083151502179055508173ffffffffffffffffffffffffffffffffffffffff167fc65937e3dbcb9fb30f646815dd67a3dbd09ba17718cbcb54efbe3635f8e0a6fe8260405180826000191660001916815260200191505060405180910390a25050565b612a9733858585858080601f016020809104026020016040519081016040528093929190818152602001838380828437820191505050505050612a9288612d18565b612fc3565b50505050565b82600760008773ffffffffffffffffffffffffffffffffffffffff1673ffffffffffffffffffffffffffffffffffffffff1681526020019081526020016000205410151515612aeb57600080fd5b82600860008773ffffffffffffffffffffffffffffffffffffffff1673ffffffffffffffffffffffffffffffffffffffff16815260200190815260200160002060003373ffffffffffffffffffffffffffffffffffffffff1673ffffffffffffffffffffffffffffffffffffffff1681526020019081526020016000205410151515612b7657600080fd5b600083111515612b8557600080fd5b612b93858585856000612fc3565b6000811115612c0257612c0184600960009054906101000a900473ffffffffffffffffffffffffffffffffffffffff16836040805190810160405280601081526020017f5472616e7366657246726f6d20666565000000000000000000000000000000008152506000612fc3565b5b612c9183600860008873ffffffffffffffffffffffffffffffffffffffff1673ffffffffffffffffffffffffffffffffffffffff16815260200190815260200160002060003373ffffffffffffffffffffffffffffffffffffffff1673ffffffffffffffffffffffffffffffffffffffff16815260200190815260200160002054612d7390919063ffffffff16565b600860008773ffffffffffffffffffffffffffffffffffffffff1673ffffffffffffffffffffffffffffffffffffffff16815260200190815260200160002060003373ffffffffffffffffffffffffffffffffffffffff1673ffffffffffffffffffffffffffffffffffffffff168152602001908152602001600020819055505050505050565b6000612d44620f4240612d36600c548561342d90919063ffffffff16565b61346390919063ffffffff16565b9050600e54811115612d5a57600e549050612d6b565b600d54811015612d6a57600d5490505b5b809050919050565b6000828211151515612d8457600080fd5b818303905092915050565b60008273ffffffffffffffffffffffffffffffffffffffff168473ffffffffffffffffffffffffffffffffffffffff1614151515612dcc57600080fd5b612e5b82600860008773ffffffffffffffffffffffffffffffffffffffff1673ffffffffffffffffffffffffffffffffffffffff16815260200190815260200160002060008673ffffffffffffffffffffffffffffffffffffffff1673ffffffffffffffffffffffffffffffffffffffff1681526020019081526020016000205461340c90919063ffffffff16565b600860008673ffffffffffffffffffffffffffffffffffffffff1673ffffffffffffffffffffffffffffffffffffffff16815260200190815260200160002060008573ffffffffffffffffffffffffffffffffffffffff1673ffffffffffffffffffffffffffffffffffffffff168152602001908152602001600020819055508273ffffffffffffffffffffffffffffffffffffffff168473ffffffffffffffffffffffffffffffffffffffff167f8c5be1e5ebec7d5bd14f71427d1e84f3dd0314c0f7b2291e5b200ac8c7c3b925600860008873ffffffffffffffffffffffffffffffffffffffff1673ffffffffffffffffffffffffffffffffffffffff16815260200190815260200160002060008773ffffffffffffffffffffffffffffffffffffffff1673ffffffffffffffffffffffffffffffffffffffff168152602001908152602001600020546040518082815260200191505060405180910390a39392505050565b8373ffffffffffffffffffffffffffffffffffffffff168573ffffffffffffffffffffffffffffffffffffffff1614151515612ffe57600080fd5b60008311151561300d57600080fd5b600081111561319b5761308a8160076000600960009054906101000a900473ffffffffffffffffffffffffffffffffffffffff1673ffffffffffffffffffffffffffffffffffffffff1673ffffffffffffffffffffffffffffffffffffffff1681526020019081526020016000205461340c90919063ffffffff16565b60076000600960009054906101000a900473ffffffffffffffffffffffffffffffffffffffff1673ffffffffffffffffffffffffffffffffffffffff1673ffffffffffffffffffffffffffffffffffffffff168152602001908152602001600020819055506131538161314585600760008a73ffffffffffffffffffffffffffffffffffffffff1673ffffffffffffffffffffffffffffffffffffffff16815260200190815260200160002054612d7390919063ffffffff16565b612d7390919063ffffffff16565b600760008773ffffffffffffffffffffffffffffffffffffffff1673ffffffffffffffffffffffffffffffffffffffff16815260200190815260200160002081905550613231565b6131ed83600760008873ffffffffffffffffffffffffffffffffffffffff1673ffffffffffffffffffffffffffffffffffffffff16815260200190815260200160002054612d7390919063ffffffff16565b600760008773ffffffffffffffffffffffffffffffffffffffff1673ffffffffffffffffffffffffffffffffffffffff168152602001908152602001600020819055505b61328383600760008773ffffffffffffffffffffffffffffffffffffffff1673ffffffffffffffffffffffffffffffffffffffff1681526020019081526020016000205461340c90919063ffffffff16565b600760008673ffffffffffffffffffffffffffffffffffffffff1673ffffffffffffffffffffffffffffffffffffffff168152602001908152602001600020819055508373ffffffffffffffffffffffffffffffffffffffff168573ffffffffffffffffffffffffffffffffffffffff167fddf252ad1be2c89b69c2b068fc378daa952ba7f163c4a11628f55a4df523b3ef856040518082815260200191505060405180910390a38373ffffffffffffffffffffffffffffffffffffffff168573ffffffffffffffffffffffffffffffffffffffff167f3c37a37469220e9bdcb1e8083efdcac8373f1448f59b5c4b23ebe3a0723642b28585856040518084815260200180602001838152602001828103825284818151815260200191508051906020019080838360005b838110156133c95780820151818401526020810190506133ae565b50505050905090810190601f1680156133f65780820380516001836020036101000a031916815260200191505b5094505050505060405180910390a35050505050565b600080828401905083811015151561342357600080fd5b8091505092915050565b6000808284029050600084148061344e575082848281151561344b57fe5b04145b151561345957600080fd5b8091505092915050565b600080828481151561347157fe5b04905080915050929150505600a165627a7a72305820749a1a515beefd460f02d25794b7efc9f6d24e479c039a83c2a0636337f8dce90029",
  "source": "/* Augmint Crypto Dollar token (ACD) implementation */\npragma solidity 0.4.18;\nimport \"./generic/AugmintToken.sol\";\n\n\ncontract TokenAce is AugmintToken {\n    function TokenAce(address _feeAccount, address _interestPoolAccount, address _interestEarnedAccount,\n        uint _transferFeePt, uint _transferFeeMin, uint _transferFeeMax)\n    public AugmintToken(\"Augmint Crypto Euro\", \"ACE\", \"EUR\", 4, _feeAccount, _interestPoolAccount,\n        _interestEarnedAccount, _transferFeePt, _transferFeeMin, _transferFeeMax )\n    {} // solhint-disable-line no-empty-blocks\n\n}\n",
  "sourcePath": "/Users/petro/ether/dcm-poc/contracts/TokenAce.sol",
  "compiler": {
    "name": "solc",
    "version": "0.4.18+commit.9cf6e910.Emscripten.clang"
  },
  "schemaVersion": "1.0.1",
  "updatedAt": "2018-01-10T20:22:40.470Z"
}