{
  "contractName": "TokenAceMock",
  "abi": [
    {
      "constant": false,
      "inputs": [
        {
          "name": "_from",
          "type": "address"
        },
        {
          "name": "_to",
          "type": "address"
        },
        {
          "name": "_amount",
          "type": "uint256"
        },
        {
          "name": "_narrative",
          "type": "string"
        }
      ],
      "name": "transferFromNoFee",
      "outputs": [],
      "payable": false,
      "stateMutability": "nonpayable",
      "type": "function"
    },
    {
      "constant": true,
      "inputs": [],
      "name": "name",
      "outputs": [
        {
          "name": "",
          "type": "string"
        }
      ],
      "payable": false,
      "stateMutability": "view",
      "type": "function"
    },
    {
      "constant": false,
      "inputs": [
        {
          "name": "_spender",
          "type": "address"
        },
        {
          "name": "_amount",
          "type": "uint256"
        }
      ],
      "name": "approve",
      "outputs": [
        {
          "name": "",
          "type": "bool"
        }
      ],
      "payable": false,
      "stateMutability": "nonpayable",
      "type": "function"
    },
    {
      "constant": false,
      "inputs": [
        {
          "name": "agent",
          "type": "address"
        },
        {
          "name": "requiredPermissions",
          "type": "bytes32[]"
        }
      ],
      "name": "revokeMulitplePermissions",
      "outputs": [],
      "payable": false,
      "stateMutability": "nonpayable",
      "type": "function"
    },
    {
      "constant": true,
      "inputs": [],
      "name": "totalSupply",
      "outputs": [
        {
          "name": "",
          "type": "uint256"
        }
      ],
      "payable": false,
      "stateMutability": "view",
      "type": "function"
    },
    {
      "constant": false,
      "inputs": [
        {
          "name": "_from",
          "type": "address"
        },
        {
          "name": "_to",
          "type": "address"
        },
        {
          "name": "_amount",
          "type": "uint256"
        }
      ],
      "name": "transferFrom",
      "outputs": [
        {
          "name": "",
          "type": "bool"
        }
      ],
      "payable": false,
      "stateMutability": "nonpayable",
      "type": "function"
    },
    {
      "constant": true,
      "inputs": [
        {
          "name": "",
          "type": "address"
        }
      ],
      "name": "balances",
      "outputs": [
        {
          "name": "",
          "type": "uint256"
        }
      ],
      "payable": false,
      "stateMutability": "view",
      "type": "function"
    },
    {
      "constant": true,
      "inputs": [],
      "name": "decimals",
      "outputs": [
        {
          "name": "",
          "type": "uint8"
        }
      ],
      "payable": false,
      "stateMutability": "view",
      "type": "function"
    },
    {
      "constant": true,
      "inputs": [],
      "name": "peggedSymbol",
      "outputs": [
        {
          "name": "",
          "type": "bytes32"
        }
      ],
      "payable": false,
      "stateMutability": "view",
      "type": "function"
    },
    {
      "constant": false,
      "inputs": [
        {
          "name": "amount",
          "type": "uint256"
        }
      ],
      "name": "burn",
      "outputs": [],
      "payable": false,
      "stateMutability": "nonpayable",
      "type": "function"
    },
    {
      "constant": true,
      "inputs": [],
      "name": "issuedByMonetaryBoard",
      "outputs": [
        {
          "name": "",
          "type": "uint256"
        }
      ],
      "payable": false,
      "stateMutability": "view",
      "type": "function"
    },
    {
      "constant": true,
      "inputs": [
        {
          "name": "",
          "type": "address"
        },
        {
          "name": "",
          "type": "bytes32"
        }
      ],
      "name": "permissions",
      "outputs": [
        {
          "name": "",
          "type": "bool"
        }
      ],
      "payable": false,
      "stateMutability": "view",
      "type": "function"
    },
    {
      "constant": true,
      "inputs": [
        {
          "name": "",
          "type": "address"
        },
        {
          "name": "",
          "type": "address"
        }
      ],
      "name": "allowed",
      "outputs": [
        {
          "name": "",
          "type": "uint256"
        }
      ],
      "payable": false,
      "stateMutability": "view",
      "type": "function"
    },
    {
      "constant": true,
      "inputs": [],
      "name": "interestEarnedAccount",
      "outputs": [
        {
          "name": "",
          "type": "address"
        }
      ],
      "payable": false,
      "stateMutability": "view",
      "type": "function"
    },
    {
      "constant": false,
      "inputs": [
        {
          "name": "agent",
          "type": "address"
        },
        {
          "name": "requiredPermission",
          "type": "bytes32"
        }
      ],
      "name": "revokePermission",
      "outputs": [],
      "payable": false,
      "stateMutability": "nonpayable",
      "type": "function"
    },
    {
      "constant": true,
      "inputs": [],
      "name": "feeAccount",
      "outputs": [
        {
          "name": "",
          "type": "address"
        }
      ],
      "payable": false,
      "stateMutability": "view",
      "type": "function"
    },
    {
      "constant": false,
      "inputs": [
        {
          "name": "_spender",
          "type": "address"
        },
        {
          "name": "_subtractedValue",
          "type": "uint256"
        }
      ],
      "name": "decreaseApproval",
      "outputs": [
        {
          "name": "",
          "type": "bool"
        }
      ],
      "payable": false,
      "stateMutability": "nonpayable",
      "type": "function"
    },
    {
      "constant": true,
      "inputs": [
        {
          "name": "_owner",
          "type": "address"
        }
      ],
      "name": "balanceOf",
      "outputs": [
        {
          "name": "balance",
          "type": "uint256"
        }
      ],
      "payable": false,
      "stateMutability": "view",
      "type": "function"
    },
    {
      "constant": true,
      "inputs": [],
      "name": "transferFeeMax",
      "outputs": [
        {
          "name": "",
          "type": "uint256"
        }
      ],
      "payable": false,
      "stateMutability": "view",
      "type": "function"
    },
    {
      "constant": false,
      "inputs": [
        {
          "name": "_from",
          "type": "address"
        },
        {
          "name": "_to",
          "type": "address"
        },
        {
          "name": "_amount",
          "type": "uint256"
        },
        {
          "name": "_narrative",
          "type": "string"
        }
      ],
      "name": "transferFromWithNarrative",
      "outputs": [],
      "payable": false,
      "stateMutability": "nonpayable",
      "type": "function"
    },
    {
      "constant": true,
      "inputs": [],
      "name": "transferFeePt",
      "outputs": [
        {
          "name": "",
          "type": "uint256"
        }
      ],
      "payable": false,
      "stateMutability": "view",
      "type": "function"
    },
    {
      "constant": false,
      "inputs": [
        {
          "name": "_loanManager",
          "type": "address"
        },
        {
          "name": "loanId",
          "type": "uint256"
        }
      ],
      "name": "repayLoan",
      "outputs": [],
      "payable": false,
      "stateMutability": "nonpayable",
      "type": "function"
    },
    {
      "constant": true,
      "inputs": [],
      "name": "symbol",
      "outputs": [
        {
          "name": "",
          "type": "string"
        }
      ],
      "payable": false,
      "stateMutability": "view",
      "type": "function"
    },
    {
      "constant": false,
      "inputs": [
        {
          "name": "agent",
          "type": "address"
        },
        {
          "name": "requiredPermissions",
          "type": "bytes32[]"
        }
      ],
      "name": "grantMultiplePermissions",
      "outputs": [],
      "payable": false,
      "stateMutability": "nonpayable",
      "type": "function"
    },
    {
      "constant": false,
      "inputs": [
        {
          "name": "_exchange",
          "type": "address"
        },
        {
          "name": "price",
          "type": "uint256"
        },
        {
          "name": "tokenAmount",
          "type": "uint256"
        }
      ],
      "name": "placeSellTokenOrderOnExchange",
      "outputs": [
        {
          "name": "sellTokenOrderIndex",
          "type": "uint256"
        },
        {
          "name": "sellTokenOrderId",
          "type": "uint256"
        }
      ],
      "payable": false,
      "stateMutability": "nonpayable",
      "type": "function"
    },
    {
      "constant": true,
      "inputs": [],
      "name": "transferFeeMin",
      "outputs": [
        {
          "name": "",
          "type": "uint256"
        }
      ],
      "payable": false,
      "stateMutability": "view",
      "type": "function"
    },
    {
      "constant": false,
      "inputs": [
        {
          "name": "_to",
          "type": "address"
        },
        {
          "name": "_amount",
          "type": "uint256"
        }
      ],
      "name": "transfer",
      "outputs": [
        {
          "name": "",
          "type": "bool"
        }
      ],
      "payable": false,
      "stateMutability": "nonpayable",
      "type": "function"
    },
    {
      "constant": false,
      "inputs": [
        {
          "name": "_to",
          "type": "address"
        },
        {
          "name": "_amount",
          "type": "uint256"
        },
        {
          "name": "_narrative",
          "type": "string"
        }
      ],
      "name": "transferNoFee",
      "outputs": [],
      "payable": false,
      "stateMutability": "nonpayable",
      "type": "function"
    },
    {
      "constant": false,
      "inputs": [
        {
          "name": "lockerAddress",
          "type": "address"
        },
        {
          "name": "lockProductId",
          "type": "uint256"
        },
        {
          "name": "amountToLock",
          "type": "uint256"
        }
      ],
      "name": "lockFunds",
      "outputs": [],
      "payable": false,
      "stateMutability": "nonpayable",
      "type": "function"
    },
    {
      "constant": false,
      "inputs": [
        {
          "name": "_transferFeePt",
          "type": "uint256"
        },
        {
          "name": "_transferFeeMin",
          "type": "uint256"
        },
        {
          "name": "_transferFeeMax",
          "type": "uint256"
        }
      ],
      "name": "setTransferFees",
      "outputs": [],
      "payable": false,
      "stateMutability": "nonpayable",
      "type": "function"
    },
    {
      "constant": false,
      "inputs": [
        {
          "name": "borrower",
          "type": "address"
        },
        {
          "name": "loanAmount",
          "type": "uint256"
        },
        {
          "name": "narrative",
          "type": "string"
        }
      ],
      "name": "issueAndDisburse",
      "outputs": [],
      "payable": false,
      "stateMutability": "nonpayable",
      "type": "function"
    },
    {
      "constant": false,
      "inputs": [
        {
          "name": "amount",
          "type": "uint256"
        }
      ],
      "name": "issue",
      "outputs": [],
      "payable": false,
      "stateMutability": "nonpayable",
      "type": "function"
    },
    {
      "constant": false,
      "inputs": [
        {
          "name": "_spender",
          "type": "address"
        },
        {
          "name": "_addedValue",
          "type": "uint256"
        }
      ],
      "name": "increaseApproval",
      "outputs": [
        {
          "name": "",
          "type": "bool"
        }
      ],
      "payable": false,
      "stateMutability": "nonpayable",
      "type": "function"
    },
    {
      "constant": true,
      "inputs": [
        {
          "name": "_owner",
          "type": "address"
        },
        {
          "name": "_spender",
          "type": "address"
        }
      ],
      "name": "allowance",
      "outputs": [
        {
          "name": "remaining",
          "type": "uint256"
        }
      ],
      "payable": false,
      "stateMutability": "view",
      "type": "function"
    },
    {
      "constant": false,
      "inputs": [
        {
          "name": "agent",
          "type": "address"
        },
        {
          "name": "requiredPermission",
          "type": "bytes32"
        }
      ],
      "name": "grantPermission",
      "outputs": [],
      "payable": false,
      "stateMutability": "nonpayable",
      "type": "function"
    },
    {
      "constant": false,
      "inputs": [
        {
          "name": "_to",
          "type": "address"
        },
        {
          "name": "_amount",
          "type": "uint256"
        },
        {
          "name": "_narrative",
          "type": "string"
        }
      ],
      "name": "transferWithNarrative",
      "outputs": [],
      "payable": false,
      "stateMutability": "nonpayable",
      "type": "function"
    },
    {
      "inputs": [
        {
          "name": "_feeAccount",
          "type": "address"
        },
        {
          "name": "_interestEarnedAccount",
          "type": "address"
        },
        {
          "name": "_transferFeePt",
          "type": "uint256"
        },
        {
          "name": "_transferFeeMin",
          "type": "uint256"
        },
        {
          "name": "_transferFeeMax",
          "type": "uint256"
        }
      ],
      "payable": false,
      "stateMutability": "nonpayable",
      "type": "constructor"
    },
    {
      "payable": true,
      "stateMutability": "payable",
      "type": "fallback"
    },
    {
      "anonymous": false,
      "inputs": [
        {
          "indexed": false,
          "name": "_transferFeePt",
          "type": "uint256"
        },
        {
          "indexed": false,
          "name": "_transferFeeMin",
          "type": "uint256"
        },
        {
          "indexed": false,
          "name": "_transferFeeMax",
          "type": "uint256"
        }
      ],
      "name": "TransferFeesChanged",
      "type": "event"
    },
    {
      "anonymous": false,
      "inputs": [
        {
          "indexed": true,
          "name": "from",
          "type": "address"
        },
        {
          "indexed": true,
          "name": "to",
          "type": "address"
        },
        {
          "indexed": false,
          "name": "amount",
          "type": "uint256"
        }
      ],
      "name": "Transfer",
      "type": "event"
    },
    {
      "anonymous": false,
      "inputs": [
        {
          "indexed": true,
          "name": "from",
          "type": "address"
        },
        {
          "indexed": true,
          "name": "to",
          "type": "address"
        },
        {
          "indexed": false,
          "name": "amount",
          "type": "uint256"
        },
        {
          "indexed": false,
          "name": "narrative",
          "type": "string"
        },
        {
          "indexed": false,
          "name": "fee",
          "type": "uint256"
        }
      ],
      "name": "AugmintTransfer",
      "type": "event"
    },
    {
      "anonymous": false,
      "inputs": [
        {
          "indexed": false,
          "name": "amount",
          "type": "uint256"
        }
      ],
      "name": "TokenIssued",
      "type": "event"
    },
    {
      "anonymous": false,
      "inputs": [
        {
          "indexed": false,
          "name": "amount",
          "type": "uint256"
        }
      ],
      "name": "TokenBurned",
      "type": "event"
    },
    {
      "anonymous": false,
      "inputs": [
        {
          "indexed": true,
          "name": "_owner",
          "type": "address"
        },
        {
          "indexed": true,
          "name": "_spender",
          "type": "address"
        },
        {
          "indexed": false,
          "name": "_value",
          "type": "uint256"
        }
      ],
      "name": "Approval",
      "type": "event"
    },
    {
      "anonymous": false,
      "inputs": [
        {
          "indexed": true,
          "name": "agent",
          "type": "address"
        },
        {
          "indexed": false,
          "name": "grantedPermission",
          "type": "bytes32"
        }
      ],
      "name": "PermissionGranted",
      "type": "event"
    },
    {
      "anonymous": false,
      "inputs": [
        {
          "indexed": true,
          "name": "agent",
          "type": "address"
        },
        {
          "indexed": false,
          "name": "revokedPermission",
          "type": "bytes32"
        }
      ],
      "name": "PermissionRevoked",
      "type": "event"
    },
    {
      "constant": false,
      "inputs": [
        {
          "name": "_to",
          "type": "address"
        },
        {
          "name": "_amount",
          "type": "uint256"
        }
      ],
      "name": "withdrawTokens",
      "outputs": [],
      "payable": false,
      "stateMutability": "nonpayable",
      "type": "function"
    }
  ],
  "bytecode": "0x606060405234156200001057600080fd5b60405160a080620037f3833981016040528080519060200190919080519060200190919080519060200190919080519060200190919080519060200190919050506040805190810160405280601781526020017f4175676d696e7420544553542043727970746f204555520000000000000000008152506040805190810160405280600481526020017f41434554000000000000000000000000000000000000000000000000000000008152507f45555200000000000000000000000000000000000000000000000000000000006004888888888860016000803373ffffffffffffffffffffffffffffffffffffffff1673ffffffffffffffffffffffffffffffffffffffff16815260200190815260200160002060007f4d6f6e6574617279426f6172640000000000000000000000000000000000000060001916815260200190815260200160002060006101000a81548160ff0219169083151502179055503373ffffffffffffffffffffffffffffffffffffffff167fc65937e3dbcb9fb30f646815dd67a3dbd09ba17718cbcb54efbe3635f8e0a6fe60405180807f4d6f6e6574617279426f61726400000000000000000000000000000000000000815250602001905060405180910390a2600073ffffffffffffffffffffffffffffffffffffffff168573ffffffffffffffffffffffffffffffffffffffff16141515156200021c57600080fd5b600073ffffffffffffffffffffffffffffffffffffffff168473ffffffffffffffffffffffffffffffffffffffff16141515156200025957600080fd5b600089511115156200026a57600080fd5b8860019080519060200190620002829291906200036d565b5087600290805190602001906200029b9291906200036d565b50866003816000191690555085600460006101000a81548160ff021916908360ff16021790555084600860006101000a81548173ffffffffffffffffffffffffffffffffffffffff021916908373ffffffffffffffffffffffffffffffffffffffff16021790555083600960006101000a81548173ffffffffffffffffffffffffffffffffffffffff021916908373ffffffffffffffffffffffffffffffffffffffff16021790555082600a8190555081600b8190555080600c8190555050505050505050505050505050506200041c565b828054600181600116156101000203166002900490600052602060002090601f016020900481019282601f10620003b057805160ff1916838001178555620003e1565b82800160010185558215620003e1579182015b82811115620003e0578251825591602001919060010190620003c3565b5b509050620003f09190620003f4565b5090565b6200041991905b8082111562000415576000816000905550600101620003fb565b5090565b90565b6133c7806200042c6000396000f3006060604052600436106101cd576000357c0100000000000000000000000000000000000000000000000000000000900463ffffffff16806304282d25146101cf57806306b091f91461027357806306fdde03146102b5578063095ea7b3146103435780630da32eaa1461039d57806318160ddd1461041657806323b872dd1461043f57806327e235e3146104b8578063313ce5671461050557806333a263e61461053457806342966c6814610565578063596368e0146105885780635b225526146105b15780635c6581651461060f5780635fcf04551461067b5780635fe07013146106d057806365e17c9d14610716578063661884631461076b57806370a08231146107c557806372a1eecc14610812578063765879211461083b57806377c9db1a146108df57806393a595f51461090857806395d89b411461094a5780639ac3317b146109d85780639c1a51a314610a51578063a7f839a714610ab7578063a9059cbb14610ae0578063ab1f032714610b3a578063babac77e14610b90578063bfd201f514610bdb578063c9a3249914610c10578063cc872b6614610c66578063d73dd62314610c89578063dd62ed3e14610ce3578063f38a826214610d4f578063ffdcf09514610d95575b005b34156101da57600080fd5b610271600480803573ffffffffffffffffffffffffffffffffffffffff1690602001909190803573ffffffffffffffffffffffffffffffffffffffff1690602001909190803590602001909190803590602001908201803590602001908080601f01602080910402602001604051908101604052809392919081815260200183838082843782019150505050505091905050610deb565b005b341561027e57600080fd5b6102b3600480803573ffffffffffffffffffffffffffffffffffffffff16906020019091908035906020019091905050610e91565b005b34156102c057600080fd5b6102c8611051565b6040518080602001828103825283818151815260200191508051906020019080838360005b838110156103085780820151818401526020810190506102ed565b50505050905090810190601f1680156103355780820380516001836020036101000a031916815260200191505b509250505060405180910390f35b341561034e57600080fd5b610383600480803573ffffffffffffffffffffffffffffffffffffffff169060200190919080359060200190919050506110ef565b604051808215151515815260200191505060405180910390f35b34156103a857600080fd5b610414600480803573ffffffffffffffffffffffffffffffffffffffff1690602001909190803590602001908201803590602001908080602002602001604051908101604052809392919081815260200183836020028082843782019150505050505091905050611241565b005b341561042157600080fd5b610429611289565b6040518082815260200191505060405180910390f35b341561044a57600080fd5b61049e600480803573ffffffffffffffffffffffffffffffffffffffff1690602001909190803573ffffffffffffffffffffffffffffffffffffffff1690602001909190803590602001909190505061128f565b604051808215151515815260200191505060405180910390f35b34156104c357600080fd5b6104ef600480803573ffffffffffffffffffffffffffffffffffffffff169060200190919050506112c1565b6040518082815260200191505060405180910390f35b341561051057600080fd5b6105186112d9565b604051808260ff1660ff16815260200191505060405180910390f35b341561053f57600080fd5b6105476112ec565b60405180826000191660001916815260200191505060405180910390f35b341561057057600080fd5b61058660048080359060200190919050506112f2565b005b341561059357600080fd5b61059b6113ac565b6040518082815260200191505060405180910390f35b34156105bc57600080fd5b6105f5600480803573ffffffffffffffffffffffffffffffffffffffff16906020019091908035600019169060200190919050506113b2565b604051808215151515815260200191505060405180910390f35b341561061a57600080fd5b610665600480803573ffffffffffffffffffffffffffffffffffffffff1690602001909190803573ffffffffffffffffffffffffffffffffffffffff169060200190919050506113e1565b6040518082815260200191505060405180910390f35b341561068657600080fd5b61068e611406565b604051808273ffffffffffffffffffffffffffffffffffffffff1673ffffffffffffffffffffffffffffffffffffffff16815260200191505060405180910390f35b34156106db57600080fd5b610714600480803573ffffffffffffffffffffffffffffffffffffffff169060200190919080356000191690602001909190505061142c565b005b341561072157600080fd5b6107296114f6565b604051808273ffffffffffffffffffffffffffffffffffffffff1673ffffffffffffffffffffffffffffffffffffffff16815260200191505060405180910390f35b341561077657600080fd5b6107ab600480803573ffffffffffffffffffffffffffffffffffffffff1690602001909190803590602001909190505061151c565b604051808215151515815260200191505060405180910390f35b34156107d057600080fd5b6107fc600480803573ffffffffffffffffffffffffffffffffffffffff169060200190919050506117e8565b6040518082815260200191505060405180910390f35b341561081d57600080fd5b610825611831565b6040518082815260200191505060405180910390f35b341561084657600080fd5b6108dd600480803573ffffffffffffffffffffffffffffffffffffffff1690602001909190803573ffffffffffffffffffffffffffffffffffffffff1690602001909190803590602001909190803590602001908201803590602001908080601f01602080910402602001604051908101604052809392919081815260200183838082843782019150505050505091905050611837565b005b34156108ea57600080fd5b6108f2611852565b6040518082815260200191505060405180910390f35b341561091357600080fd5b610948600480803573ffffffffffffffffffffffffffffffffffffffff16906020019091908035906020019091905050611858565b005b341561095557600080fd5b61095d611c51565b6040518080602001828103825283818151815260200191508051906020019080838360005b8381101561099d578082015181840152602081019050610982565b50505050905090810190601f1680156109ca5780820380516001836020036101000a031916815260200191505b509250505060405180910390f35b34156109e357600080fd5b610a4f600480803573ffffffffffffffffffffffffffffffffffffffff1690602001909190803590602001908201803590602001908080602002602001604051908101604052809392919081815260200183836020028082843782019150505050505091905050611cef565b005b3415610a5c57600080fd5b610a9a600480803573ffffffffffffffffffffffffffffffffffffffff16906020019091908035906020019091908035906020019091905050611dc3565b604051808381526020018281526020019250505060405180910390f35b3415610ac257600080fd5b610aca611f7a565b6040518082815260200191505060405180910390f35b3415610aeb57600080fd5b610b20600480803573ffffffffffffffffffffffffffffffffffffffff16906020019091908035906020019091905050611f80565b604051808215151515815260200191505060405180910390f35b3415610b4557600080fd5b610b8e600480803573ffffffffffffffffffffffffffffffffffffffff169060200190919080359060200190919080359060200190820180359060200191909192905050611fb1565b005b3415610b9b57600080fd5b610bd9600480803573ffffffffffffffffffffffffffffffffffffffff16906020019091908035906020019091908035906020019091905050612089565b005b3415610be657600080fd5b610c0e600480803590602001909190803590602001909190803590602001909190505061229a565b005b3415610c1b57600080fd5b610c64600480803573ffffffffffffffffffffffffffffffffffffffff169060200190919080359060200190919080359060200190820180359060200191909192905050612393565b005b3415610c7157600080fd5b610c876004808035906020019091905050612484565b005b3415610c9457600080fd5b610cc9600480803573ffffffffffffffffffffffffffffffffffffffff1690602001909190803590602001909190505061253e565b604051808215151515815260200191505060405180910390f35b3415610cee57600080fd5b610d39600480803573ffffffffffffffffffffffffffffffffffffffff1690602001909190803573ffffffffffffffffffffffffffffffffffffffff16906020019091905050612553565b6040518082815260200191505060405180910390f35b3415610d5a57600080fd5b610d93600480803573ffffffffffffffffffffffffffffffffffffffff16906020019091908035600019169060200190919050506125da565b005b3415610da057600080fd5b610de9600480803573ffffffffffffffffffffffffffffffffffffffff169060200190919080359060200190919080359060200190820180359060200191909192905050612730565b005b7f4e6f4665655472616e73666572436f6e747261637473000000000000000000006000803373ffffffffffffffffffffffffffffffffffffffff1673ffffffffffffffffffffffffffffffffffffffff1681526020019081526020016000206000826000191660001916815260200190815260200160002060009054906101000a900460ff161515610e7c57600080fd5b610e8a85858585600061277d565b5050505050565b7f4d6f6e6574617279426f617264000000000000000000000000000000000000006000803373ffffffffffffffffffffffffffffffffffffffff1673ffffffffffffffffffffffffffffffffffffffff1681526020019081526020016000206000826000191660001916815260200190815260200160002060009054906101000a900460ff161515610f2257600080fd5b610f7482600660003073ffffffffffffffffffffffffffffffffffffffff1673ffffffffffffffffffffffffffffffffffffffff16815260200190815260200160002054612a0490919063ffffffff16565b600660003073ffffffffffffffffffffffffffffffffffffffff1673ffffffffffffffffffffffffffffffffffffffff1681526020019081526020016000208190555061100982600660008673ffffffffffffffffffffffffffffffffffffffff1673ffffffffffffffffffffffffffffffffffffffff16815260200190815260200160002054612a2090919063ffffffff16565b600660008573ffffffffffffffffffffffffffffffffffffffff1673ffffffffffffffffffffffffffffffffffffffff16815260200190815260200160002081905550505050565b60018054600181600116156101000203166002900480601f0160208091040260200160405190810160405280929190818152602001828054600181600116156101000203166002900480156110e75780601f106110bc576101008083540402835291602001916110e7565b820191906000526020600020905b8154815290600101906020018083116110ca57829003601f168201915b505050505081565b6000808373ffffffffffffffffffffffffffffffffffffffff161415151561111657600080fd5b8273ffffffffffffffffffffffffffffffffffffffff163373ffffffffffffffffffffffffffffffffffffffff161415151561115157600080fd5b81600760003373ffffffffffffffffffffffffffffffffffffffff1673ffffffffffffffffffffffffffffffffffffffff16815260200190815260200160002060008573ffffffffffffffffffffffffffffffffffffffff1673ffffffffffffffffffffffffffffffffffffffff168152602001908152602001600020819055508273ffffffffffffffffffffffffffffffffffffffff163373ffffffffffffffffffffffffffffffffffffffff167f8c5be1e5ebec7d5bd14f71427d1e84f3dd0314c0f7b2291e5b200ac8c7c3b925846040518082815260200191505060405180910390a36001905092915050565b60008082519150600090505b818110156112835761127684848381518110151561126757fe5b9060200190602002015161142c565b808060010191505061124d565b50505050565b60055481565b60006112b684848460206040519081016040528060008152506112b187612a41565b61277d565b600190509392505050565b60066020528060005260406000206000915090505481565b600460009054906101000a900460ff1681565b60035481565b7f4d6f6e6574617279426f617264000000000000000000000000000000000000006000803373ffffffffffffffffffffffffffffffffffffffff1673ffffffffffffffffffffffffffffffffffffffff1681526020019081526020016000206000826000191660001916815260200190815260200160002060009054906101000a900460ff16151561138357600080fd5b61139882600d54612a0490919063ffffffff16565b600d819055506113a83083612aae565b5050565b600d5481565b60006020528160005260406000206020528060005260406000206000915091509054906101000a900460ff1681565b6007602052816000526040600020602052806000526040600020600091509150505481565b600960009054906101000a900473ffffffffffffffffffffffffffffffffffffffff1681565b60008060008473ffffffffffffffffffffffffffffffffffffffff1673ffffffffffffffffffffffffffffffffffffffff1681526020019081526020016000206000836000191660001916815260200190815260200160002060006101000a81548160ff0219169083151502179055508173ffffffffffffffffffffffffffffffffffffffff167f789770131846de4d1f28418f0f957cdf4fcabe5eccf70067083e20ecece69a348260405180826000191660001916815260200191505060405180910390a25050565b600860009054906101000a900473ffffffffffffffffffffffffffffffffffffffff1681565b6000808373ffffffffffffffffffffffffffffffffffffffff163373ffffffffffffffffffffffffffffffffffffffff161415151561155a57600080fd5b600760003373ffffffffffffffffffffffffffffffffffffffff1673ffffffffffffffffffffffffffffffffffffffff16815260200190815260200160002060008573ffffffffffffffffffffffffffffffffffffffff1673ffffffffffffffffffffffffffffffffffffffff16815260200190815260200160002054905080831115611668576000600760003373ffffffffffffffffffffffffffffffffffffffff1673ffffffffffffffffffffffffffffffffffffffff16815260200190815260200160002060008673ffffffffffffffffffffffffffffffffffffffff1673ffffffffffffffffffffffffffffffffffffffff168152602001908152602001600020819055506116fc565b61167b8382612a0490919063ffffffff16565b600760003373ffffffffffffffffffffffffffffffffffffffff1673ffffffffffffffffffffffffffffffffffffffff16815260200190815260200160002060008673ffffffffffffffffffffffffffffffffffffffff1673ffffffffffffffffffffffffffffffffffffffff168152602001908152602001600020819055505b8373ffffffffffffffffffffffffffffffffffffffff163373ffffffffffffffffffffffffffffffffffffffff167f8c5be1e5ebec7d5bd14f71427d1e84f3dd0314c0f7b2291e5b200ac8c7c3b925600760003373ffffffffffffffffffffffffffffffffffffffff1673ffffffffffffffffffffffffffffffffffffffff16815260200190815260200160002060008873ffffffffffffffffffffffffffffffffffffffff1673ffffffffffffffffffffffffffffffffffffffff168152602001908152602001600020546040518082815260200191505060405180910390a3600191505092915050565b6000600660008373ffffffffffffffffffffffffffffffffffffffff1673ffffffffffffffffffffffffffffffffffffffff168152602001908152602001600020549050919050565b600c5481565b61184c8484848461184787612a41565b61277d565b50505050565b600a5481565b60008060008060008060008873ffffffffffffffffffffffffffffffffffffffff1673ffffffffffffffffffffffffffffffffffffffff16815260200190815260200160002060007f4c6f616e4d616e61676572436f6e74726163747300000000000000000000000060001916815260200190815260200160002060009054906101000a900460ff1615156118ec57600080fd5b8694508473ffffffffffffffffffffffffffffffffffffffff1663e1ec3c6887600060405161014001526040518263ffffffff167c01000000000000000000000000000000000000000000000000000000000281526004018082815260200191505061014060405180830381600087803b151561196857600080fd5b6102c65a03f1151561197957600080fd5b5050506040518051906020018051906020018051906020018051906020018051906020018051906020018051906020018051906020018051906020018051905050505050955095509550505093503373ffffffffffffffffffffffffffffffffffffffff168473ffffffffffffffffffffffffffffffffffffffff16141515611a0157600080fd5b611a443330856040805190810160405280600e81526020017f4c6f616e2072657061796d656e740000000000000000000000000000000000008152506000612bb2565b611a4e3083612aae565b6000811115611bc657611aa981600660003073ffffffffffffffffffffffffffffffffffffffff1673ffffffffffffffffffffffffffffffffffffffff16815260200190815260200160002054612a0490919063ffffffff16565b600660003073ffffffffffffffffffffffffffffffffffffffff1673ffffffffffffffffffffffffffffffffffffffff16815260200190815260200160002081905550611b608160066000600960009054906101000a900473ffffffffffffffffffffffffffffffffffffffff1673ffffffffffffffffffffffffffffffffffffffff1673ffffffffffffffffffffffffffffffffffffffff16815260200190815260200160002054612a2090919063ffffffff16565b60066000600960009054906101000a900473ffffffffffffffffffffffffffffffffffffffff1673ffffffffffffffffffffffffffffffffffffffff1673ffffffffffffffffffffffffffffffffffffffff168152602001908152602001600020819055505b8473ffffffffffffffffffffffffffffffffffffffff166339007b77876040518263ffffffff167c010000000000000000000000000000000000000000000000000000000002815260040180828152602001915050600060405180830381600087803b1515611c3457600080fd5b6102c65a03f11515611c4557600080fd5b50505050505050505050565b60028054600181600116156101000203166002900480601f016020809104026020016040519081016040528092919081815260200182805460018160011615610100020316600290048015611ce75780601f10611cbc57610100808354040283529160200191611ce7565b820191906000526020600020905b815481529060010190602001808311611cca57829003601f168201915b505050505081565b6000806000803373ffffffffffffffffffffffffffffffffffffffff1673ffffffffffffffffffffffffffffffffffffffff16815260200190815260200160002060007f4d6f6e6574617279426f6172640000000000000000000000000000000000000060001916815260200190815260200160002060009054906101000a900460ff161515611d7e57600080fd5b82519150600090505b81811015611dbd57611db0848483815181101515611da157fe5b906020019060200201516125da565b8080600101915050611d87565b50505050565b60008060008060008773ffffffffffffffffffffffffffffffffffffffff1673ffffffffffffffffffffffffffffffffffffffff16815260200190815260200160002060007f45786368616e6765436f6e74726163747300000000000000000000000000000060001916815260200190815260200160002060009054906101000a900460ff161515611e5457600080fd5b859050611e9a3387866040805190810160405280601781526020017f53656c6c20746f6b656e206f7264657220706c616365640000000000000000008152506000612bb2565b8073ffffffffffffffffffffffffffffffffffffffff1663f7e8953b3387876000604051604001526040518463ffffffff167c0100000000000000000000000000000000000000000000000000000000028152600401808473ffffffffffffffffffffffffffffffffffffffff1673ffffffffffffffffffffffffffffffffffffffff16815260200183815260200182815260200193505050506040805180830381600087803b1515611f4c57600080fd5b6102c65a03f11515611f5d57600080fd5b505050604051805190602001805190509250925050935093915050565b600b5481565b6000611fa73384846020604051908101604052806000815250611fa287612a41565b612bb2565b6001905092915050565b7f4e6f4665655472616e73666572436f6e747261637473000000000000000000006000803373ffffffffffffffffffffffffffffffffffffffff1673ffffffffffffffffffffffffffffffffffffffff1681526020019081526020016000206000826000191660001916815260200190815260200160002060009054906101000a900460ff16151561204257600080fd5b61208233868686868080601f0160208091040260200160405190810160405280939291908181526020018383808284378201915050505050506000612bb2565b5050505050565b6000806000808673ffffffffffffffffffffffffffffffffffffffff1673ffffffffffffffffffffffffffffffffffffffff16815260200190815260200160002060007f4c6f636b6572436f6e747261637473000000000000000000000000000000000060001916815260200190815260200160002060009054906101000a900460ff16151561211857600080fd5b8491508173ffffffffffffffffffffffffffffffffffffffff1663f551de6c8533866000604051602001526040518463ffffffff167c0100000000000000000000000000000000000000000000000000000000028152600401808481526020018373ffffffffffffffffffffffffffffffffffffffff1673ffffffffffffffffffffffffffffffffffffffff1681526020018281526020019350505050602060405180830381600087803b15156121ce57600080fd5b6102c65a03f115156121df57600080fd5b50505060405180519050905061222e3383856040805190810160405280600d81526020017f4c6f636b696e672066756e6473000000000000000000000000000000000000008152506000612bb2565b612293600960009054906101000a900473ffffffffffffffffffffffffffffffffffffffff1683836040805190810160405280601481526020017f416363727565206c6f636b20696e7465726573740000000000000000000000008152506000612bb2565b5050505050565b7f4d6f6e6574617279426f617264000000000000000000000000000000000000006000803373ffffffffffffffffffffffffffffffffffffffff1673ffffffffffffffffffffffffffffffffffffffff1681526020019081526020016000206000826000191660001916815260200190815260200160002060009054906101000a900460ff16151561232b57600080fd5b83600a8190555082600b8190555081600c819055507fd987a3acde40f231f760d7c3d2907c83d26bca5aededafbeefba5619b5955d71600a54600b54600c5460405180848152602001838152602001828152602001935050505060405180910390a150505050565b7f4c6f616e4d616e61676572436f6e7472616374730000000000000000000000006000803373ffffffffffffffffffffffffffffffffffffffff1673ffffffffffffffffffffffffffffffffffffffff1681526020019081526020016000206000826000191660001916815260200190815260200160002060009054906101000a900460ff16151561242457600080fd5b60008411151561243357600080fd5b61243d3085613012565b61247d30868686868080601f0160208091040260200160405190810160405280939291908181526020018383808284378201915050505050506000612bb2565b5050505050565b7f4d6f6e6574617279426f617264000000000000000000000000000000000000006000803373ffffffffffffffffffffffffffffffffffffffff1673ffffffffffffffffffffffffffffffffffffffff1681526020019081526020016000206000826000191660001916815260200190815260200160002060009054906101000a900460ff16151561251557600080fd5b61252a82600d54612a2090919063ffffffff16565b600d8190555061253a3083613012565b5050565b600061254b338484613116565b905092915050565b6000600760008473ffffffffffffffffffffffffffffffffffffffff1673ffffffffffffffffffffffffffffffffffffffff16815260200190815260200160002060008373ffffffffffffffffffffffffffffffffffffffff1673ffffffffffffffffffffffffffffffffffffffff16815260200190815260200160002054905092915050565b6000803373ffffffffffffffffffffffffffffffffffffffff1673ffffffffffffffffffffffffffffffffffffffff16815260200190815260200160002060007f4d6f6e6574617279426f6172640000000000000000000000000000000000000060001916815260200190815260200160002060009054906101000a900460ff16151561266657600080fd5b60016000808473ffffffffffffffffffffffffffffffffffffffff1673ffffffffffffffffffffffffffffffffffffffff1681526020019081526020016000206000836000191660001916815260200190815260200160002060006101000a81548160ff0219169083151502179055508173ffffffffffffffffffffffffffffffffffffffff167fc65937e3dbcb9fb30f646815dd67a3dbd09ba17718cbcb54efbe3635f8e0a6fe8260405180826000191660001916815260200191505060405180910390a25050565b61277733858585858080601f01602080910402602001604051908101604052809392919081815260200183838082843782019150505050505061277288612a41565b612bb2565b50505050565b82600660008773ffffffffffffffffffffffffffffffffffffffff1673ffffffffffffffffffffffffffffffffffffffff16815260200190815260200160002054101515156127cb57600080fd5b82600760008773ffffffffffffffffffffffffffffffffffffffff1673ffffffffffffffffffffffffffffffffffffffff16815260200190815260200160002060003373ffffffffffffffffffffffffffffffffffffffff1673ffffffffffffffffffffffffffffffffffffffff168152602001908152602001600020541015151561285657600080fd5b6000600760008773ffffffffffffffffffffffffffffffffffffffff1673ffffffffffffffffffffffffffffffffffffffff16815260200190815260200160002060003373ffffffffffffffffffffffffffffffffffffffff1673ffffffffffffffffffffffffffffffffffffffff168152602001908152602001600020541115156128e157600080fd5b6128ee8585858585612bb2565b61297d83600760008873ffffffffffffffffffffffffffffffffffffffff1673ffffffffffffffffffffffffffffffffffffffff16815260200190815260200160002060003373ffffffffffffffffffffffffffffffffffffffff1673ffffffffffffffffffffffffffffffffffffffff16815260200190815260200160002054612a0490919063ffffffff16565b600760008773ffffffffffffffffffffffffffffffffffffffff1673ffffffffffffffffffffffffffffffffffffffff16815260200190815260200160002060003373ffffffffffffffffffffffffffffffffffffffff1673ffffffffffffffffffffffffffffffffffffffff168152602001908152602001600020819055505050505050565b6000828211151515612a1557600080fd5b818303905092915050565b6000808284019050838110151515612a3757600080fd5b8091505092915050565b600080821115612a7c57612a75620f4240612a67600a548561334a90919063ffffffff16565b61338090919063ffffffff16565b9050612a81565b600090505b600c54811115612a9557600c549050612aa6565b600b54811015612aa557600b5490505b5b809050919050565b612b0081600660008573ffffffffffffffffffffffffffffffffffffffff1673ffffffffffffffffffffffffffffffffffffffff16815260200190815260200160002054612a0490919063ffffffff16565b600660008473ffffffffffffffffffffffffffffffffffffffff1673ffffffffffffffffffffffffffffffffffffffff16815260200190815260200160002081905550612b5881600554612a0490919063ffffffff16565b60058190555060008273ffffffffffffffffffffffffffffffffffffffff167fddf252ad1be2c89b69c2b068fc378daa952ba7f163c4a11628f55a4df523b3ef836040518082815260200191505060405180910390a35050565b60008473ffffffffffffffffffffffffffffffffffffffff1614151515612bd857600080fd5b8373ffffffffffffffffffffffffffffffffffffffff168573ffffffffffffffffffffffffffffffffffffffff1614151515612c1357600080fd5b6000811115612da157612c908160066000600860009054906101000a900473ffffffffffffffffffffffffffffffffffffffff1673ffffffffffffffffffffffffffffffffffffffff1673ffffffffffffffffffffffffffffffffffffffff16815260200190815260200160002054612a2090919063ffffffff16565b60066000600860009054906101000a900473ffffffffffffffffffffffffffffffffffffffff1673ffffffffffffffffffffffffffffffffffffffff1673ffffffffffffffffffffffffffffffffffffffff16815260200190815260200160002081905550612d5981612d4b85600660008a73ffffffffffffffffffffffffffffffffffffffff1673ffffffffffffffffffffffffffffffffffffffff16815260200190815260200160002054612a0490919063ffffffff16565b612a0490919063ffffffff16565b600660008773ffffffffffffffffffffffffffffffffffffffff1673ffffffffffffffffffffffffffffffffffffffff16815260200190815260200160002081905550612e37565b612df383600660008873ffffffffffffffffffffffffffffffffffffffff1673ffffffffffffffffffffffffffffffffffffffff16815260200190815260200160002054612a0490919063ffffffff16565b600660008773ffffffffffffffffffffffffffffffffffffffff1673ffffffffffffffffffffffffffffffffffffffff168152602001908152602001600020819055505b612e8983600660008773ffffffffffffffffffffffffffffffffffffffff1673ffffffffffffffffffffffffffffffffffffffff16815260200190815260200160002054612a2090919063ffffffff16565b600660008673ffffffffffffffffffffffffffffffffffffffff1673ffffffffffffffffffffffffffffffffffffffff168152602001908152602001600020819055508373ffffffffffffffffffffffffffffffffffffffff168573ffffffffffffffffffffffffffffffffffffffff167fddf252ad1be2c89b69c2b068fc378daa952ba7f163c4a11628f55a4df523b3ef856040518082815260200191505060405180910390a38373ffffffffffffffffffffffffffffffffffffffff168573ffffffffffffffffffffffffffffffffffffffff167f3c37a37469220e9bdcb1e8083efdcac8373f1448f59b5c4b23ebe3a0723642b28585856040518084815260200180602001838152602001828103825284818151815260200191508051906020019080838360005b83811015612fcf578082015181840152602081019050612fb4565b50505050905090810190601f168015612ffc5780820380516001836020036101000a031916815260200191505b5094505050505060405180910390a35050505050565b61306481600660008573ffffffffffffffffffffffffffffffffffffffff1673ffffffffffffffffffffffffffffffffffffffff16815260200190815260200160002054612a2090919063ffffffff16565b600660008473ffffffffffffffffffffffffffffffffffffffff1673ffffffffffffffffffffffffffffffffffffffff168152602001908152602001600020819055506130bc81600554612a2090919063ffffffff16565b6005819055508173ffffffffffffffffffffffffffffffffffffffff1660007fddf252ad1be2c89b69c2b068fc378daa952ba7f163c4a11628f55a4df523b3ef836040518082815260200191505060405180910390a35050565b60008273ffffffffffffffffffffffffffffffffffffffff168473ffffffffffffffffffffffffffffffffffffffff161415151561315357600080fd5b6131e282600760008773ffffffffffffffffffffffffffffffffffffffff1673ffffffffffffffffffffffffffffffffffffffff16815260200190815260200160002060008673ffffffffffffffffffffffffffffffffffffffff1673ffffffffffffffffffffffffffffffffffffffff16815260200190815260200160002054612a2090919063ffffffff16565b600760008673ffffffffffffffffffffffffffffffffffffffff1673ffffffffffffffffffffffffffffffffffffffff16815260200190815260200160002060008573ffffffffffffffffffffffffffffffffffffffff1673ffffffffffffffffffffffffffffffffffffffff168152602001908152602001600020819055508273ffffffffffffffffffffffffffffffffffffffff168473ffffffffffffffffffffffffffffffffffffffff167f8c5be1e5ebec7d5bd14f71427d1e84f3dd0314c0f7b2291e5b200ac8c7c3b925600760008873ffffffffffffffffffffffffffffffffffffffff1673ffffffffffffffffffffffffffffffffffffffff16815260200190815260200160002060008773ffffffffffffffffffffffffffffffffffffffff1673ffffffffffffffffffffffffffffffffffffffff168152602001908152602001600020546040518082815260200191505060405180910390a39392505050565b6000808284029050600084148061336b575082848281151561336857fe5b04145b151561337657600080fd5b8091505092915050565b600080828481151561338e57fe5b04905080915050929150505600a165627a7a72305820ffac42980bddc9d3ee9181b6c0cdfaae36183c7c6aa9356157223fab8432c9640029",
  "source": "/* Contract ONLY for testing */\npragma solidity 0.4.19;\nimport \"../generic/AugmintToken.sol\";\n\n\ncontract TokenAceMock is AugmintToken {\n\n    function TokenAceMock(address _feeAccount, address _interestEarnedAccount,\n        uint _transferFeePt, uint _transferFeeMin, uint _transferFeeMax)\n    public AugmintToken(\"Augmint TEST Crypto EUR\", \"ACET\", \"EUR\", 4, _feeAccount,\n        _interestEarnedAccount, _transferFeePt, _transferFeeMin, _transferFeeMax)\n    {} // solhint-disable-line no-empty-blocks\n\n    function withdrawTokens(address _to, uint _amount) external restrict(\"MonetaryBoard\") {\n        balances[this] = balances[this].sub(_amount);\n        balances[_to] = balances[_to].add(_amount);\n    }\n\n}\n",
  "sourcePath": "/Users/petro/ether/augmint-core/contracts/mocks/TokenAceMock.sol",
  "compiler": {
    "name": "solc",
    "version": "0.4.19+commit.c4cbbb05.Emscripten.clang"
  },
  "schemaVersion": "1.0.1",
  "updatedAt": "2018-02-02T20:45:12.899Z"
}