{
  "contractName": "TokenAceMock",
  "abi": [
    {
      "constant": false,
      "inputs": [
        {
          "name": "_from",
          "type": "address"
        },
        {
          "name": "_to",
          "type": "address"
        },
        {
          "name": "_amount",
          "type": "uint256"
        },
        {
          "name": "_narrative",
          "type": "string"
        }
      ],
      "name": "transferFromNoFee",
      "outputs": [],
      "payable": false,
      "stateMutability": "nonpayable",
      "type": "function"
    },
    {
      "constant": true,
      "inputs": [],
      "name": "totalLockedAmount",
      "outputs": [
        {
          "name": "",
          "type": "uint256"
        }
      ],
      "payable": false,
      "stateMutability": "view",
      "type": "function"
    },
    {
      "constant": true,
      "inputs": [],
      "name": "name",
      "outputs": [
        {
          "name": "",
          "type": "string"
        }
      ],
      "payable": false,
      "stateMutability": "view",
      "type": "function"
    },
    {
      "constant": false,
      "inputs": [
        {
          "name": "_spender",
          "type": "address"
        },
        {
          "name": "_amount",
          "type": "uint256"
        }
      ],
      "name": "approve",
      "outputs": [
        {
          "name": "",
          "type": "bool"
        }
      ],
      "payable": false,
      "stateMutability": "nonpayable",
      "type": "function"
    },
    {
      "constant": false,
      "inputs": [
        {
          "name": "agent",
          "type": "address"
        },
        {
          "name": "requiredPermissions",
          "type": "bytes32[]"
        }
      ],
      "name": "revokeMulitplePermissions",
      "outputs": [],
      "payable": false,
      "stateMutability": "nonpayable",
      "type": "function"
    },
    {
      "constant": true,
      "inputs": [],
      "name": "totalSupply",
      "outputs": [
        {
          "name": "",
          "type": "uint256"
        }
      ],
      "payable": false,
      "stateMutability": "view",
      "type": "function"
    },
    {
      "constant": false,
      "inputs": [
        {
          "name": "releasedAmount",
          "type": "uint256"
        }
      ],
      "name": "fundsReleased",
      "outputs": [],
      "payable": false,
      "stateMutability": "nonpayable",
      "type": "function"
    },
    {
      "constant": false,
      "inputs": [
        {
          "name": "_from",
          "type": "address"
        },
        {
          "name": "_to",
          "type": "address"
        },
        {
          "name": "_amount",
          "type": "uint256"
        }
      ],
      "name": "transferFrom",
      "outputs": [
        {
          "name": "",
          "type": "bool"
        }
      ],
      "payable": false,
      "stateMutability": "nonpayable",
      "type": "function"
    },
    {
      "constant": true,
      "inputs": [
        {
          "name": "",
          "type": "address"
        }
      ],
      "name": "balances",
      "outputs": [
        {
          "name": "",
          "type": "uint256"
        }
      ],
      "payable": false,
      "stateMutability": "view",
      "type": "function"
    },
    {
      "constant": true,
      "inputs": [],
      "name": "decimals",
      "outputs": [
        {
          "name": "",
          "type": "uint8"
        }
      ],
      "payable": false,
      "stateMutability": "view",
      "type": "function"
    },
    {
      "constant": true,
      "inputs": [],
      "name": "peggedSymbol",
      "outputs": [
        {
          "name": "",
          "type": "bytes32"
        }
      ],
      "payable": false,
      "stateMutability": "view",
      "type": "function"
    },
    {
      "constant": true,
      "inputs": [],
      "name": "loanToDepositLockLimit",
      "outputs": [
        {
          "name": "",
          "type": "uint256"
        }
      ],
      "payable": false,
      "stateMutability": "view",
      "type": "function"
    },
    {
      "constant": false,
      "inputs": [
        {
          "name": "amount",
          "type": "uint256"
        }
      ],
      "name": "burn",
      "outputs": [],
      "payable": false,
      "stateMutability": "nonpayable",
      "type": "function"
    },
    {
      "constant": true,
      "inputs": [],
      "name": "lockNoLimitAllowance",
      "outputs": [
        {
          "name": "",
          "type": "uint256"
        }
      ],
      "payable": false,
      "stateMutability": "view",
      "type": "function"
    },
    {
      "constant": true,
      "inputs": [],
      "name": "totalLoanAmount",
      "outputs": [
        {
          "name": "",
          "type": "uint256"
        }
      ],
      "payable": false,
      "stateMutability": "view",
      "type": "function"
    },
    {
      "constant": true,
      "inputs": [],
      "name": "issuedByMonetaryBoard",
      "outputs": [
        {
          "name": "",
          "type": "uint256"
        }
      ],
      "payable": false,
      "stateMutability": "view",
      "type": "function"
    },
    {
      "constant": true,
      "inputs": [
        {
          "name": "",
          "type": "address"
        },
        {
          "name": "",
          "type": "bytes32"
        }
      ],
      "name": "permissions",
      "outputs": [
        {
          "name": "",
          "type": "bool"
        }
      ],
      "payable": false,
      "stateMutability": "view",
      "type": "function"
    },
    {
      "constant": true,
      "inputs": [
        {
          "name": "",
          "type": "address"
        },
        {
          "name": "",
          "type": "address"
        }
      ],
      "name": "allowed",
      "outputs": [
        {
          "name": "",
          "type": "uint256"
        }
      ],
      "payable": false,
      "stateMutability": "view",
      "type": "function"
    },
    {
      "constant": true,
      "inputs": [],
      "name": "getParams",
      "outputs": [
        {
          "name": "",
          "type": "uint256[7]"
        }
      ],
      "payable": false,
      "stateMutability": "view",
      "type": "function"
    },
    {
      "constant": true,
      "inputs": [],
      "name": "interestEarnedAccount",
      "outputs": [
        {
          "name": "",
          "type": "address"
        }
      ],
      "payable": false,
      "stateMutability": "view",
      "type": "function"
    },
    {
      "constant": false,
      "inputs": [
        {
          "name": "agent",
          "type": "address"
        },
        {
          "name": "requiredPermission",
          "type": "bytes32"
        }
      ],
      "name": "revokePermission",
      "outputs": [],
      "payable": false,
      "stateMutability": "nonpayable",
      "type": "function"
    },
    {
      "constant": true,
      "inputs": [],
      "name": "feeAccount",
      "outputs": [
        {
          "name": "",
          "type": "address"
        }
      ],
      "payable": false,
      "stateMutability": "view",
      "type": "function"
    },
    {
      "constant": false,
      "inputs": [
        {
          "name": "_spender",
          "type": "address"
        },
        {
          "name": "_subtractedValue",
          "type": "uint256"
        }
      ],
      "name": "decreaseApproval",
      "outputs": [
        {
          "name": "",
          "type": "bool"
        }
      ],
      "payable": false,
      "stateMutability": "nonpayable",
      "type": "function"
    },
    {
      "constant": true,
      "inputs": [
        {
          "name": "_owner",
          "type": "address"
        }
      ],
      "name": "balanceOf",
      "outputs": [
        {
          "name": "balance",
          "type": "uint256"
        }
      ],
      "payable": false,
      "stateMutability": "view",
      "type": "function"
    },
    {
      "constant": true,
      "inputs": [],
      "name": "transferFeeMax",
      "outputs": [
        {
          "name": "",
          "type": "uint256"
        }
      ],
      "payable": false,
      "stateMutability": "view",
      "type": "function"
    },
    {
      "constant": false,
      "inputs": [
        {
          "name": "_from",
          "type": "address"
        },
        {
          "name": "_to",
          "type": "address"
        },
        {
          "name": "_amount",
          "type": "uint256"
        },
        {
          "name": "_narrative",
          "type": "string"
        }
      ],
      "name": "transferFromWithNarrative",
      "outputs": [],
      "payable": false,
      "stateMutability": "nonpayable",
      "type": "function"
    },
    {
      "constant": true,
      "inputs": [],
      "name": "transferFeePt",
      "outputs": [
        {
          "name": "",
          "type": "uint256"
        }
      ],
      "payable": false,
      "stateMutability": "view",
      "type": "function"
    },
    {
      "constant": true,
      "inputs": [],
      "name": "loanNoLimitAllowance",
      "outputs": [
        {
          "name": "",
          "type": "uint256"
        }
      ],
      "payable": false,
      "stateMutability": "view",
      "type": "function"
    },
    {
      "constant": false,
      "inputs": [
        {
          "name": "_loanManager",
          "type": "address"
        },
        {
          "name": "loanId",
          "type": "uint256"
        }
      ],
      "name": "repayLoan",
      "outputs": [],
      "payable": false,
      "stateMutability": "nonpayable",
      "type": "function"
    },
    {
      "constant": true,
      "inputs": [],
      "name": "symbol",
      "outputs": [
        {
          "name": "",
          "type": "string"
        }
      ],
      "payable": false,
      "stateMutability": "view",
      "type": "function"
    },
    {
      "constant": false,
      "inputs": [
        {
          "name": "agent",
          "type": "address"
        },
        {
          "name": "requiredPermissions",
          "type": "bytes32[]"
        }
      ],
      "name": "grantMultiplePermissions",
      "outputs": [],
      "payable": false,
      "stateMutability": "nonpayable",
      "type": "function"
    },
    {
      "constant": false,
      "inputs": [
        {
          "name": "repaymentAmount",
          "type": "uint256"
        }
      ],
      "name": "loanCollected",
      "outputs": [],
      "payable": false,
      "stateMutability": "nonpayable",
      "type": "function"
    },
    {
      "constant": false,
      "inputs": [
        {
          "name": "_exchange",
          "type": "address"
        },
        {
          "name": "price",
          "type": "uint256"
        },
        {
          "name": "tokenAmount",
          "type": "uint256"
        }
      ],
      "name": "placeSellTokenOrderOnExchange",
      "outputs": [
        {
          "name": "sellTokenOrderId",
          "type": "uint256"
        }
      ],
      "payable": false,
      "stateMutability": "nonpayable",
      "type": "function"
    },
    {
      "constant": true,
      "inputs": [],
      "name": "transferFeeMin",
      "outputs": [
        {
          "name": "",
          "type": "uint256"
        }
      ],
      "payable": false,
      "stateMutability": "view",
      "type": "function"
    },
    {
      "constant": false,
      "inputs": [
        {
          "name": "_to",
          "type": "address"
        },
        {
          "name": "_amount",
          "type": "uint256"
        }
      ],
      "name": "transfer",
      "outputs": [
        {
          "name": "",
          "type": "bool"
        }
      ],
      "payable": false,
      "stateMutability": "nonpayable",
      "type": "function"
    },
    {
      "constant": false,
      "inputs": [
        {
          "name": "_to",
          "type": "address"
        },
        {
          "name": "_amount",
          "type": "uint256"
        },
        {
          "name": "_narrative",
          "type": "string"
        }
      ],
      "name": "transferNoFee",
      "outputs": [],
      "payable": false,
      "stateMutability": "nonpayable",
      "type": "function"
    },
    {
      "constant": true,
      "inputs": [],
      "name": "loanToDepositLoanLimit",
      "outputs": [
        {
          "name": "",
          "type": "uint256"
        }
      ],
      "payable": false,
      "stateMutability": "view",
      "type": "function"
    },
    {
      "constant": false,
      "inputs": [
        {
          "name": "lockerAddress",
          "type": "address"
        },
        {
          "name": "lockProductId",
          "type": "uint256"
        },
        {
          "name": "amountToLock",
          "type": "uint256"
        }
      ],
      "name": "lockFunds",
      "outputs": [],
      "payable": false,
      "stateMutability": "nonpayable",
      "type": "function"
    },
    {
      "constant": false,
      "inputs": [
        {
          "name": "_transferFeePt",
          "type": "uint256"
        },
        {
          "name": "_transferFeeMin",
          "type": "uint256"
        },
        {
          "name": "_transferFeeMax",
          "type": "uint256"
        }
      ],
      "name": "setTransferFees",
      "outputs": [],
      "payable": false,
      "stateMutability": "nonpayable",
      "type": "function"
    },
    {
      "constant": false,
      "inputs": [
        {
          "name": "borrower",
          "type": "address"
        },
        {
          "name": "loanAmount",
          "type": "uint256"
        },
        {
          "name": "repaymentAmount",
          "type": "uint256"
        },
        {
          "name": "narrative",
          "type": "string"
        }
      ],
      "name": "issueAndDisburse",
      "outputs": [],
      "payable": false,
      "stateMutability": "nonpayable",
      "type": "function"
    },
    {
      "constant": false,
      "inputs": [
        {
          "name": "amount",
          "type": "uint256"
        }
      ],
      "name": "issue",
      "outputs": [],
      "payable": false,
      "stateMutability": "nonpayable",
      "type": "function"
    },
    {
      "constant": false,
      "inputs": [
        {
          "name": "_spender",
          "type": "address"
        },
        {
          "name": "_addedValue",
          "type": "uint256"
        }
      ],
      "name": "increaseApproval",
      "outputs": [
        {
          "name": "",
          "type": "bool"
        }
      ],
      "payable": false,
      "stateMutability": "nonpayable",
      "type": "function"
    },
    {
      "constant": true,
      "inputs": [
        {
          "name": "_owner",
          "type": "address"
        },
        {
          "name": "_spender",
          "type": "address"
        }
      ],
      "name": "allowance",
      "outputs": [
        {
          "name": "remaining",
          "type": "uint256"
        }
      ],
      "payable": false,
      "stateMutability": "view",
      "type": "function"
    },
    {
      "constant": false,
      "inputs": [
        {
          "name": "agent",
          "type": "address"
        },
        {
          "name": "requiredPermission",
          "type": "bytes32"
        }
      ],
      "name": "grantPermission",
      "outputs": [],
      "payable": false,
      "stateMutability": "nonpayable",
      "type": "function"
    },
    {
      "constant": false,
      "inputs": [
        {
          "name": "_loanToDepositLockLimit",
          "type": "uint256"
        },
        {
          "name": "_loanToDepositLoanLimit",
          "type": "uint256"
        },
        {
          "name": "_lockNoLimitAllowance",
          "type": "uint256"
        },
        {
          "name": "_loanNoLimitAllowance",
          "type": "uint256"
        }
      ],
      "name": "setLoanAndLockParams",
      "outputs": [],
      "payable": false,
      "stateMutability": "nonpayable",
      "type": "function"
    },
    {
      "constant": false,
      "inputs": [
        {
          "name": "_to",
          "type": "address"
        },
        {
          "name": "_amount",
          "type": "uint256"
        },
        {
          "name": "_narrative",
          "type": "string"
        }
      ],
      "name": "transferWithNarrative",
      "outputs": [],
      "payable": false,
      "stateMutability": "nonpayable",
      "type": "function"
    },
    {
      "inputs": [
        {
          "name": "_feeAccount",
          "type": "address"
        },
        {
          "name": "_interestEarnedAccount",
          "type": "address"
        },
        {
          "name": "_transferFeePt",
          "type": "uint256"
        },
        {
          "name": "_transferFeeMin",
          "type": "uint256"
        },
        {
          "name": "_transferFeeMax",
          "type": "uint256"
        },
        {
          "name": "_loanToDepositLockLimit",
          "type": "uint256"
        },
        {
          "name": "_loanToDepositLoanLimit",
          "type": "uint256"
        },
        {
          "name": "_lockNoLimitAllowance",
          "type": "uint256"
        },
        {
          "name": "_loanNoLimitAllowance",
          "type": "uint256"
        }
      ],
      "payable": false,
      "stateMutability": "nonpayable",
      "type": "constructor"
    },
    {
      "payable": true,
      "stateMutability": "payable",
      "type": "fallback"
    },
    {
      "anonymous": false,
      "inputs": [
        {
          "indexed": false,
          "name": "transferFeePt",
          "type": "uint256"
        },
        {
          "indexed": false,
          "name": "transferFeeMin",
          "type": "uint256"
        },
        {
          "indexed": false,
          "name": "transferFeeMax",
          "type": "uint256"
        }
      ],
      "name": "TransferFeesChanged",
      "type": "event"
    },
    {
      "anonymous": false,
      "inputs": [
        {
          "indexed": false,
          "name": "loanToDepositLockLimit",
          "type": "uint256"
        },
        {
          "indexed": false,
          "name": "loanToDepositLoanLimit",
          "type": "uint256"
        }
      ],
      "name": "LoanToDepositLimitsChanged",
      "type": "event"
    },
    {
      "anonymous": false,
      "inputs": [
        {
          "indexed": false,
          "name": "loanToDepositLockLimit",
          "type": "uint256"
        },
        {
          "indexed": false,
          "name": "loanToDepositLoanLimit",
          "type": "uint256"
        },
        {
          "indexed": false,
          "name": "lockNoLimitAllowance",
          "type": "uint256"
        },
        {
          "indexed": false,
          "name": "loanNoLimitAllowance",
          "type": "uint256"
        }
      ],
      "name": "LoanAndLockParamsChanged",
      "type": "event"
    },
    {
      "anonymous": false,
      "inputs": [
        {
          "indexed": true,
          "name": "from",
          "type": "address"
        },
        {
          "indexed": true,
          "name": "to",
          "type": "address"
        },
        {
          "indexed": false,
          "name": "amount",
          "type": "uint256"
        }
      ],
      "name": "Transfer",
      "type": "event"
    },
    {
      "anonymous": false,
      "inputs": [
        {
          "indexed": true,
          "name": "from",
          "type": "address"
        },
        {
          "indexed": true,
          "name": "to",
          "type": "address"
        },
        {
          "indexed": false,
          "name": "amount",
          "type": "uint256"
        },
        {
          "indexed": false,
          "name": "narrative",
          "type": "string"
        },
        {
          "indexed": false,
          "name": "fee",
          "type": "uint256"
        }
      ],
      "name": "AugmintTransfer",
      "type": "event"
    },
    {
      "anonymous": false,
      "inputs": [
        {
          "indexed": false,
          "name": "amount",
          "type": "uint256"
        }
      ],
      "name": "TokenIssued",
      "type": "event"
    },
    {
      "anonymous": false,
      "inputs": [
        {
          "indexed": false,
          "name": "amount",
          "type": "uint256"
        }
      ],
      "name": "TokenBurned",
      "type": "event"
    },
    {
      "anonymous": false,
      "inputs": [
        {
          "indexed": true,
          "name": "_owner",
          "type": "address"
        },
        {
          "indexed": true,
          "name": "_spender",
          "type": "address"
        },
        {
          "indexed": false,
          "name": "_value",
          "type": "uint256"
        }
      ],
      "name": "Approval",
      "type": "event"
    },
    {
      "anonymous": false,
      "inputs": [
        {
          "indexed": true,
          "name": "agent",
          "type": "address"
        },
        {
          "indexed": false,
          "name": "grantedPermission",
          "type": "bytes32"
        }
      ],
      "name": "PermissionGranted",
      "type": "event"
    },
    {
      "anonymous": false,
      "inputs": [
        {
          "indexed": true,
          "name": "agent",
          "type": "address"
        },
        {
          "indexed": false,
          "name": "revokedPermission",
          "type": "bytes32"
        }
      ],
      "name": "PermissionRevoked",
      "type": "event"
    },
    {
      "constant": false,
      "inputs": [
        {
          "name": "_to",
          "type": "address"
        },
        {
          "name": "_amount",
          "type": "uint256"
        }
      ],
      "name": "withdrawTokens",
      "outputs": [],
      "payable": false,
      "stateMutability": "nonpayable",
      "type": "function"
    }
  ],
  "bytecode": "0x606060405234156200001057600080fd5b6040516101208062003dde833981016040528080519060200190919080519060200190919080519060200190919080519060200190919080519060200190919080519060200190919080519060200190919080519060200190919080519060200190919050506040805190810160405280601781526020017f4175676d696e7420544553542043727970746f204555520000000000000000008152506040805190810160405280600481526020017f41434554000000000000000000000000000000000000000000000000000000008152507f455552000000000000000000000000000000000000000000000000000000000060048c8c8c8c8c8c8c8c8c60016000803373ffffffffffffffffffffffffffffffffffffffff1673ffffffffffffffffffffffffffffffffffffffff16815260200190815260200160002060007f4d6f6e6574617279426f6172640000000000000000000000000000000000000060001916815260200190815260200160002060006101000a81548160ff0219169083151502179055503373ffffffffffffffffffffffffffffffffffffffff167fc65937e3dbcb9fb30f646815dd67a3dbd09ba17718cbcb54efbe3635f8e0a6fe60405180807f4d6f6e6574617279426f61726400000000000000000000000000000000000000815250602001905060405180910390a2600073ffffffffffffffffffffffffffffffffffffffff168973ffffffffffffffffffffffffffffffffffffffff16141515156200024557600080fd5b600073ffffffffffffffffffffffffffffffffffffffff168873ffffffffffffffffffffffffffffffffffffffff16141515156200028257600080fd5b60008d511115156200029357600080fd5b8c60019080519060200190620002ab929190620003ba565b508b60029080519060200190620002c4929190620003ba565b508a6003816000191690555089600460006101000a81548160ff021916908360ff16021790555088600860006101000a81548173ffffffffffffffffffffffffffffffffffffffff021916908373ffffffffffffffffffffffffffffffffffffffff16021790555087600960006101000a81548173ffffffffffffffffffffffffffffffffffffffff021916908373ffffffffffffffffffffffffffffffffffffffff16021790555086600a8190555085600b8190555084600c81905550836010819055508260118190555081601281905550806013819055505050505050505050505050505050505050505050505062000469565b828054600181600116156101000203166002900490600052602060002090601f016020900481019282601f10620003fd57805160ff19168380011785556200042e565b828001600101855582156200042e579182015b828111156200042d57825182559160200191906001019062000410565b5b5090506200043d919062000441565b5090565b6200046691905b808211156200046257600081600090555060010162000448565b5090565b90565b61396580620004796000396000f30060606040526004361061023b576000357c0100000000000000000000000000000000000000000000000000000000900463ffffffff16806304282d251461023d57806305a9f274146102e157806306b091f91461030a57806306fdde031461034c578063095ea7b3146103da5780630da32eaa1461043457806318160ddd146104ad5780631e1a55e6146104d657806323b872dd146104f957806327e235e314610572578063313ce567146105bf57806333a263e6146105ee57806333e2168a1461061f57806342966c6814610648578063492a8f571461066b5780634c9e502e14610694578063596368e0146106bd5780635b225526146106e65780635c658165146107445780635e615a6b146107b05780635fcf0455146108015780635fe070131461085657806365e17c9d1461089c57806366188463146108f157806370a082311461094b57806372a1eecc1461099857806376587921146109c157806377c9db1a14610a655780638f9c0cdf14610a8e57806393a595f514610ab757806395d89b4114610af95780639ac3317b14610b875780639b007f9d14610c005780639c1a51a314610c23578063a7f839a714610c82578063a9059cbb14610cab578063ab1f032714610d05578063b2979cbe14610d5b578063babac77e14610d84578063bfd201f514610dcf578063c28f379314610e04578063cc872b6614610e63578063d73dd62314610e86578063dd62ed3e14610ee0578063f38a826214610f4c578063f4b4730914610f92578063ffdcf09514610fd0575b005b341561024857600080fd5b6102df600480803573ffffffffffffffffffffffffffffffffffffffff1690602001909190803573ffffffffffffffffffffffffffffffffffffffff1690602001909190803590602001909190803590602001908201803590602001908080601f01602080910402602001604051908101604052809392919081815260200183838082843782019150505050505091905050611026565b005b34156102ec57600080fd5b6102f46110cc565b6040518082815260200191505060405180910390f35b341561031557600080fd5b61034a600480803573ffffffffffffffffffffffffffffffffffffffff169060200190919080359060200190919050506110d2565b005b341561035757600080fd5b61035f611292565b6040518080602001828103825283818151815260200191508051906020019080838360005b8381101561039f578082015181840152602081019050610384565b50505050905090810190601f1680156103cc5780820380516001836020036101000a031916815260200191505b509250505060405180910390f35b34156103e557600080fd5b61041a600480803573ffffffffffffffffffffffffffffffffffffffff16906020019091908035906020019091905050611330565b604051808215151515815260200191505060405180910390f35b341561043f57600080fd5b6104ab600480803573ffffffffffffffffffffffffffffffffffffffff1690602001909190803590602001908201803590602001908080602002602001604051908101604052809392919081815260200183836020028082843782019150505050505091905050611482565b005b34156104b857600080fd5b6104c06114ca565b6040518082815260200191505060405180910390f35b34156104e157600080fd5b6104f760048080359060200190919050506114d0565b005b341561050457600080fd5b610558600480803573ffffffffffffffffffffffffffffffffffffffff1690602001909190803573ffffffffffffffffffffffffffffffffffffffff1690602001909190803590602001909190505061157a565b604051808215151515815260200191505060405180910390f35b341561057d57600080fd5b6105a9600480803573ffffffffffffffffffffffffffffffffffffffff169060200190919050506115ac565b6040518082815260200191505060405180910390f35b34156105ca57600080fd5b6105d26115c4565b604051808260ff1660ff16815260200191505060405180910390f35b34156105f957600080fd5b6106016115d7565b60405180826000191660001916815260200191505060405180910390f35b341561062a57600080fd5b6106326115dd565b6040518082815260200191505060405180910390f35b341561065357600080fd5b61066960048080359060200190919050506115e3565b005b341561067657600080fd5b61067e61169d565b6040518082815260200191505060405180910390f35b341561069f57600080fd5b6106a76116a3565b6040518082815260200191505060405180910390f35b34156106c857600080fd5b6106d06116a9565b6040518082815260200191505060405180910390f35b34156106f157600080fd5b61072a600480803573ffffffffffffffffffffffffffffffffffffffff16906020019091908035600019169060200190919050506116af565b604051808215151515815260200191505060405180910390f35b341561074f57600080fd5b61079a600480803573ffffffffffffffffffffffffffffffffffffffff1690602001909190803573ffffffffffffffffffffffffffffffffffffffff169060200190919050506116de565b6040518082815260200191505060405180910390f35b34156107bb57600080fd5b6107c3611703565b6040518082600760200280838360005b838110156107ee5780820151818401526020810190506107d3565b5050505090500191505060405180910390f35b341561080c57600080fd5b610814611752565b604051808273ffffffffffffffffffffffffffffffffffffffff1673ffffffffffffffffffffffffffffffffffffffff16815260200191505060405180910390f35b341561086157600080fd5b61089a600480803573ffffffffffffffffffffffffffffffffffffffff1690602001909190803560001916906020019091905050611778565b005b34156108a757600080fd5b6108af611842565b604051808273ffffffffffffffffffffffffffffffffffffffff1673ffffffffffffffffffffffffffffffffffffffff16815260200191505060405180910390f35b34156108fc57600080fd5b610931600480803573ffffffffffffffffffffffffffffffffffffffff16906020019091908035906020019091905050611868565b604051808215151515815260200191505060405180910390f35b341561095657600080fd5b610982600480803573ffffffffffffffffffffffffffffffffffffffff16906020019091905050611b34565b6040518082815260200191505060405180910390f35b34156109a357600080fd5b6109ab611b7d565b6040518082815260200191505060405180910390f35b34156109cc57600080fd5b610a63600480803573ffffffffffffffffffffffffffffffffffffffff1690602001909190803573ffffffffffffffffffffffffffffffffffffffff1690602001909190803590602001909190803590602001908201803590602001908080601f01602080910402602001604051908101604052809392919081815260200183838082843782019150505050505091905050611b83565b005b3415610a7057600080fd5b610a78611b9e565b6040518082815260200191505060405180910390f35b3415610a9957600080fd5b610aa1611ba4565b6040518082815260200191505060405180910390f35b3415610ac257600080fd5b610af7600480803573ffffffffffffffffffffffffffffffffffffffff16906020019091908035906020019091905050611baa565b005b3415610b0457600080fd5b610b0c611fbe565b6040518080602001828103825283818151815260200191508051906020019080838360005b83811015610b4c578082015181840152602081019050610b31565b50505050905090810190601f168015610b795780820380516001836020036101000a031916815260200191505b509250505060405180910390f35b3415610b9257600080fd5b610bfe600480803573ffffffffffffffffffffffffffffffffffffffff169060200190919080359060200190820180359060200190808060200260200160405190810160405280939291908181526020018383602002808284378201915050505050509190505061205c565b005b3415610c0b57600080fd5b610c216004808035906020019091905050612130565b005b3415610c2e57600080fd5b610c6c600480803573ffffffffffffffffffffffffffffffffffffffff169060200190919080359060200190919080359060200190919050506121da565b6040518082815260200191505060405180910390f35b3415610c8d57600080fd5b610c95612387565b6040518082815260200191505060405180910390f35b3415610cb657600080fd5b610ceb600480803573ffffffffffffffffffffffffffffffffffffffff1690602001909190803590602001909190505061238d565b604051808215151515815260200191505060405180910390f35b3415610d1057600080fd5b610d59600480803573ffffffffffffffffffffffffffffffffffffffff1690602001909190803590602001909190803590602001908201803590602001919091929050506123be565b005b3415610d6657600080fd5b610d6e612496565b6040518082815260200191505060405180910390f35b3415610d8f57600080fd5b610dcd600480803573ffffffffffffffffffffffffffffffffffffffff1690602001909190803590602001909190803590602001909190505061249c565b005b3415610dda57600080fd5b610e0260048080359060200190919080359060200190919080359060200190919050506126da565b005b3415610e0f57600080fd5b610e61600480803573ffffffffffffffffffffffffffffffffffffffff1690602001909190803590602001909190803590602001909190803590602001908201803590602001919091929050506127d3565b005b3415610e6e57600080fd5b610e8460048080359060200190919050506128ef565b005b3415610e9157600080fd5b610ec6600480803573ffffffffffffffffffffffffffffffffffffffff169060200190919080359060200190919050506129a9565b604051808215151515815260200191505060405180910390f35b3415610eeb57600080fd5b610f36600480803573ffffffffffffffffffffffffffffffffffffffff1690602001909190803573ffffffffffffffffffffffffffffffffffffffff169060200190919050506129be565b6040518082815260200191505060405180910390f35b3415610f5757600080fd5b610f90600480803573ffffffffffffffffffffffffffffffffffffffff1690602001909190803560001916906020019091905050612a45565b005b3415610f9d57600080fd5b610fce6004808035906020019091908035906020019091908035906020019091908035906020019091905050612b9b565b005b3415610fdb57600080fd5b611024600480803573ffffffffffffffffffffffffffffffffffffffff169060200190919080359060200190919080359060200190820180359060200191909192905050612ca6565b005b7f4e6f4665655472616e73666572436f6e747261637473000000000000000000006000803373ffffffffffffffffffffffffffffffffffffffff1673ffffffffffffffffffffffffffffffffffffffff1681526020019081526020016000206000826000191660001916815260200190815260200160002060009054906101000a900460ff1615156110b757600080fd5b6110c5858585856000612cf3565b5050505050565b600f5481565b7f4d6f6e6574617279426f617264000000000000000000000000000000000000006000803373ffffffffffffffffffffffffffffffffffffffff1673ffffffffffffffffffffffffffffffffffffffff1681526020019081526020016000206000826000191660001916815260200190815260200160002060009054906101000a900460ff16151561116357600080fd5b6111b582600660003073ffffffffffffffffffffffffffffffffffffffff1673ffffffffffffffffffffffffffffffffffffffff16815260200190815260200160002054612f7a90919063ffffffff16565b600660003073ffffffffffffffffffffffffffffffffffffffff1673ffffffffffffffffffffffffffffffffffffffff1681526020019081526020016000208190555061124a82600660008673ffffffffffffffffffffffffffffffffffffffff1673ffffffffffffffffffffffffffffffffffffffff16815260200190815260200160002054612f9690919063ffffffff16565b600660008573ffffffffffffffffffffffffffffffffffffffff1673ffffffffffffffffffffffffffffffffffffffff16815260200190815260200160002081905550505050565b60018054600181600116156101000203166002900480601f0160208091040260200160405190810160405280929190818152602001828054600181600116156101000203166002900480156113285780601f106112fd57610100808354040283529160200191611328565b820191906000526020600020905b81548152906001019060200180831161130b57829003601f168201915b505050505081565b6000808373ffffffffffffffffffffffffffffffffffffffff161415151561135757600080fd5b8273ffffffffffffffffffffffffffffffffffffffff163373ffffffffffffffffffffffffffffffffffffffff161415151561139257600080fd5b81600760003373ffffffffffffffffffffffffffffffffffffffff1673ffffffffffffffffffffffffffffffffffffffff16815260200190815260200160002060008573ffffffffffffffffffffffffffffffffffffffff1673ffffffffffffffffffffffffffffffffffffffff168152602001908152602001600020819055508273ffffffffffffffffffffffffffffffffffffffff163373ffffffffffffffffffffffffffffffffffffffff167f8c5be1e5ebec7d5bd14f71427d1e84f3dd0314c0f7b2291e5b200ac8c7c3b925846040518082815260200191505060405180910390a36001905092915050565b60008082519150600090505b818110156114c4576114b78484838151811015156114a857fe5b90602001906020020151611778565b808060010191505061148e565b50505050565b60055481565b6000803373ffffffffffffffffffffffffffffffffffffffff1673ffffffffffffffffffffffffffffffffffffffff16815260200190815260200160002060007f4c6f636b6572436f6e747261637473000000000000000000000000000000000060001916815260200190815260200160002060009054906101000a900460ff16151561155c57600080fd5b61157181600f54612f7a90919063ffffffff16565b600f8190555050565b60006115a1848484602060405190810160405280600081525061159c87612fb7565b612cf3565b600190509392505050565b60066020528060005260406000206000915090505481565b600460009054906101000a900460ff1681565b60035481565b60105481565b7f4d6f6e6574617279426f617264000000000000000000000000000000000000006000803373ffffffffffffffffffffffffffffffffffffffff1673ffffffffffffffffffffffffffffffffffffffff1681526020019081526020016000206000826000191660001916815260200190815260200160002060009054906101000a900460ff16151561167457600080fd5b61168982600d54612f7a90919063ffffffff16565b600d819055506116993083613024565b5050565b60125481565b600e5481565b600d5481565b60006020528160005260406000206020528060005260406000206000915091509054906101000a900460ff1681565b6007602052816000526040600020602052806000526040600020600091509150505481565b61170b613911565b60e060405190810160405280600a548152602001600b548152602001600c548152602001601054815260200160115481526020016012548152602001601354815250905090565b600960009054906101000a900473ffffffffffffffffffffffffffffffffffffffff1681565b60008060008473ffffffffffffffffffffffffffffffffffffffff1673ffffffffffffffffffffffffffffffffffffffff1681526020019081526020016000206000836000191660001916815260200190815260200160002060006101000a81548160ff0219169083151502179055508173ffffffffffffffffffffffffffffffffffffffff167f789770131846de4d1f28418f0f957cdf4fcabe5eccf70067083e20ecece69a348260405180826000191660001916815260200191505060405180910390a25050565b600860009054906101000a900473ffffffffffffffffffffffffffffffffffffffff1681565b6000808373ffffffffffffffffffffffffffffffffffffffff163373ffffffffffffffffffffffffffffffffffffffff16141515156118a657600080fd5b600760003373ffffffffffffffffffffffffffffffffffffffff1673ffffffffffffffffffffffffffffffffffffffff16815260200190815260200160002060008573ffffffffffffffffffffffffffffffffffffffff1673ffffffffffffffffffffffffffffffffffffffff168152602001908152602001600020549050808311156119b4576000600760003373ffffffffffffffffffffffffffffffffffffffff1673ffffffffffffffffffffffffffffffffffffffff16815260200190815260200160002060008673ffffffffffffffffffffffffffffffffffffffff1673ffffffffffffffffffffffffffffffffffffffff16815260200190815260200160002081905550611a48565b6119c78382612f7a90919063ffffffff16565b600760003373ffffffffffffffffffffffffffffffffffffffff1673ffffffffffffffffffffffffffffffffffffffff16815260200190815260200160002060008673ffffffffffffffffffffffffffffffffffffffff1673ffffffffffffffffffffffffffffffffffffffff168152602001908152602001600020819055505b8373ffffffffffffffffffffffffffffffffffffffff163373ffffffffffffffffffffffffffffffffffffffff167f8c5be1e5ebec7d5bd14f71427d1e84f3dd0314c0f7b2291e5b200ac8c7c3b925600760003373ffffffffffffffffffffffffffffffffffffffff1673ffffffffffffffffffffffffffffffffffffffff16815260200190815260200160002060008873ffffffffffffffffffffffffffffffffffffffff1673ffffffffffffffffffffffffffffffffffffffff168152602001908152602001600020546040518082815260200191505060405180910390a3600191505092915050565b6000600660008373ffffffffffffffffffffffffffffffffffffffff1673ffffffffffffffffffffffffffffffffffffffff168152602001908152602001600020549050919050565b600c5481565b611b9884848484611b9387612fb7565b612cf3565b50505050565b600a5481565b60135481565b60008060008060008060008873ffffffffffffffffffffffffffffffffffffffff1673ffffffffffffffffffffffffffffffffffffffff16815260200190815260200160002060007f4c6f616e4d616e61676572436f6e74726163747300000000000000000000000060001916815260200190815260200160002060009054906101000a900460ff161515611c3e57600080fd5b8694508473ffffffffffffffffffffffffffffffffffffffff1663e1ec3c6887600060405161014001526040518263ffffffff167c01000000000000000000000000000000000000000000000000000000000281526004018082815260200191505061014060405180830381600087803b1515611cba57600080fd5b6102c65a03f11515611ccb57600080fd5b5050506040518051906020018051906020018051906020018051906020018051906020018051906020018051906020018051906020018051906020018051905050505050955095509550505093503373ffffffffffffffffffffffffffffffffffffffff168473ffffffffffffffffffffffffffffffffffffffff16141515611d5357600080fd5b611d6883600e54612f7a90919063ffffffff16565b600e81905550611db13330856040805190810160405280600e81526020017f4c6f616e2072657061796d656e740000000000000000000000000000000000008152506000613128565b611dbb3083613024565b6000811115611f3357611e1681600660003073ffffffffffffffffffffffffffffffffffffffff1673ffffffffffffffffffffffffffffffffffffffff16815260200190815260200160002054612f7a90919063ffffffff16565b600660003073ffffffffffffffffffffffffffffffffffffffff1673ffffffffffffffffffffffffffffffffffffffff16815260200190815260200160002081905550611ecd8160066000600960009054906101000a900473ffffffffffffffffffffffffffffffffffffffff1673ffffffffffffffffffffffffffffffffffffffff1673ffffffffffffffffffffffffffffffffffffffff16815260200190815260200160002054612f9690919063ffffffff16565b60066000600960009054906101000a900473ffffffffffffffffffffffffffffffffffffffff1673ffffffffffffffffffffffffffffffffffffffff1673ffffffffffffffffffffffffffffffffffffffff168152602001908152602001600020819055505b8473ffffffffffffffffffffffffffffffffffffffff166339007b77876040518263ffffffff167c010000000000000000000000000000000000000000000000000000000002815260040180828152602001915050600060405180830381600087803b1515611fa157600080fd5b6102c65a03f11515611fb257600080fd5b50505050505050505050565b60028054600181600116156101000203166002900480601f0160208091040260200160405190810160405280929190818152602001828054600181600116156101000203166002900480156120545780601f1061202957610100808354040283529160200191612054565b820191906000526020600020905b81548152906001019060200180831161203757829003601f168201915b505050505081565b6000806000803373ffffffffffffffffffffffffffffffffffffffff1673ffffffffffffffffffffffffffffffffffffffff16815260200190815260200160002060007f4d6f6e6574617279426f6172640000000000000000000000000000000000000060001916815260200190815260200160002060009054906101000a900460ff1615156120eb57600080fd5b82519150600090505b8181101561212a5761211d84848381518110151561210e57fe5b90602001906020020151612a45565b80806001019150506120f4565b50505050565b6000803373ffffffffffffffffffffffffffffffffffffffff1673ffffffffffffffffffffffffffffffffffffffff16815260200190815260200160002060007f4c6f616e4d616e61676572436f6e74726163747300000000000000000000000060001916815260200190815260200160002060009054906101000a900460ff1615156121bc57600080fd5b6121d181600e54612f7a90919063ffffffff16565b600e8190555050565b6000806000808673ffffffffffffffffffffffffffffffffffffffff1673ffffffffffffffffffffffffffffffffffffffff16815260200190815260200160002060007f45786368616e6765436f6e74726163747300000000000000000000000000000060001916815260200190815260200160002060009054906101000a900460ff16151561226957600080fd5b8490506122af3386856040805190810160405280601781526020017f53656c6c20746f6b656e206f7264657220706c616365640000000000000000008152506000613128565b8073ffffffffffffffffffffffffffffffffffffffff1663f7e8953b3386866000604051602001526040518463ffffffff167c0100000000000000000000000000000000000000000000000000000000028152600401808473ffffffffffffffffffffffffffffffffffffffff1673ffffffffffffffffffffffffffffffffffffffff1681526020018381526020018281526020019350505050602060405180830381600087803b151561236257600080fd5b6102c65a03f1151561237357600080fd5b505050604051805190509150509392505050565b600b5481565b60006123b433848460206040519081016040528060008152506123af87612fb7565b613128565b6001905092915050565b7f4e6f4665655472616e73666572436f6e747261637473000000000000000000006000803373ffffffffffffffffffffffffffffffffffffffff1673ffffffffffffffffffffffffffffffffffffffff1681526020019081526020016000206000826000191660001916815260200190815260200160002060009054906101000a900460ff16151561244f57600080fd5b61248f33868686868080601f0160208091040260200160405190810160405280939291908181526020018383808284378201915050505050506000613128565b5050505050565b60115481565b6000806000808673ffffffffffffffffffffffffffffffffffffffff1673ffffffffffffffffffffffffffffffffffffffff16815260200190815260200160002060007f4c6f636b6572436f6e747261637473000000000000000000000000000000000060001916815260200190815260200160002060009054906101000a900460ff16151561252b57600080fd5b8491508173ffffffffffffffffffffffffffffffffffffffff1663f551de6c8533866000604051602001526040518463ffffffff167c0100000000000000000000000000000000000000000000000000000000028152600401808481526020018373ffffffffffffffffffffffffffffffffffffffff1673ffffffffffffffffffffffffffffffffffffffff1681526020018281526020019350505050602060405180830381600087803b15156125e157600080fd5b6102c65a03f115156125f257600080fd5b5050506040518051905090506126258161261785600f54612f9690919063ffffffff16565b612f9690919063ffffffff16565b600f8190555061266e3383856040805190810160405280600c81526020017f46756e6473206c6f636b656400000000000000000000000000000000000000008152506000613128565b6126d3600960009054906101000a900473ffffffffffffffffffffffffffffffffffffffff1683836040805190810160405280601481526020017f416363727565206c6f636b20696e7465726573740000000000000000000000008152506000613128565b5050505050565b7f4d6f6e6574617279426f617264000000000000000000000000000000000000006000803373ffffffffffffffffffffffffffffffffffffffff1673ffffffffffffffffffffffffffffffffffffffff1681526020019081526020016000206000826000191660001916815260200190815260200160002060009054906101000a900460ff16151561276b57600080fd5b83600a8190555082600b8190555081600c819055507fd987a3acde40f231f760d7c3d2907c83d26bca5aededafbeefba5619b5955d71600a54600b54600c5460405180848152602001838152602001828152602001935050505060405180910390a150505050565b7f4c6f616e4d616e61676572436f6e7472616374730000000000000000000000006000803373ffffffffffffffffffffffffffffffffffffffff1673ffffffffffffffffffffffffffffffffffffffff1681526020019081526020016000206000826000191660001916815260200190815260200160002060009054906101000a900460ff16151561286457600080fd5b60008511151561287357600080fd5b60008411151561288257600080fd5b61289784600e54612f9690919063ffffffff16565b600e819055506128a73086613588565b6128e730878786868080601f0160208091040260200160405190810160405280939291908181526020018383808284378201915050505050506000613128565b505050505050565b7f4d6f6e6574617279426f617264000000000000000000000000000000000000006000803373ffffffffffffffffffffffffffffffffffffffff1673ffffffffffffffffffffffffffffffffffffffff1681526020019081526020016000206000826000191660001916815260200190815260200160002060009054906101000a900460ff16151561298057600080fd5b61299582600d54612f9690919063ffffffff16565b600d819055506129a53083613588565b5050565b60006129b633848461368c565b905092915050565b6000600760008473ffffffffffffffffffffffffffffffffffffffff1673ffffffffffffffffffffffffffffffffffffffff16815260200190815260200160002060008373ffffffffffffffffffffffffffffffffffffffff1673ffffffffffffffffffffffffffffffffffffffff16815260200190815260200160002054905092915050565b6000803373ffffffffffffffffffffffffffffffffffffffff1673ffffffffffffffffffffffffffffffffffffffff16815260200190815260200160002060007f4d6f6e6574617279426f6172640000000000000000000000000000000000000060001916815260200190815260200160002060009054906101000a900460ff161515612ad157600080fd5b60016000808473ffffffffffffffffffffffffffffffffffffffff1673ffffffffffffffffffffffffffffffffffffffff1681526020019081526020016000206000836000191660001916815260200190815260200160002060006101000a81548160ff0219169083151502179055508173ffffffffffffffffffffffffffffffffffffffff167fc65937e3dbcb9fb30f646815dd67a3dbd09ba17718cbcb54efbe3635f8e0a6fe8260405180826000191660001916815260200191505060405180910390a25050565b7f4d6f6e6574617279426f617264000000000000000000000000000000000000006000803373ffffffffffffffffffffffffffffffffffffffff1673ffffffffffffffffffffffffffffffffffffffff1681526020019081526020016000206000826000191660001916815260200190815260200160002060009054906101000a900460ff161515612c2c57600080fd5b846010819055508360118190555082601281905550816013819055507fa9bf431be023407f43a2b3ce72a229c859965fc3e711d398f966041b696b47e96010546011546012546013546040518085815260200184815260200183815260200182815260200194505050505060405180910390a15050505050565b612ced33858585858080601f016020809104026020016040519081016040528093929190818152602001838380828437820191505050505050612ce888612fb7565b613128565b50505050565b82600660008773ffffffffffffffffffffffffffffffffffffffff1673ffffffffffffffffffffffffffffffffffffffff1681526020019081526020016000205410151515612d4157600080fd5b82600760008773ffffffffffffffffffffffffffffffffffffffff1673ffffffffffffffffffffffffffffffffffffffff16815260200190815260200160002060003373ffffffffffffffffffffffffffffffffffffffff1673ffffffffffffffffffffffffffffffffffffffff1681526020019081526020016000205410151515612dcc57600080fd5b6000600760008773ffffffffffffffffffffffffffffffffffffffff1673ffffffffffffffffffffffffffffffffffffffff16815260200190815260200160002060003373ffffffffffffffffffffffffffffffffffffffff1673ffffffffffffffffffffffffffffffffffffffff16815260200190815260200160002054111515612e5757600080fd5b612e648585858585613128565b612ef383600760008873ffffffffffffffffffffffffffffffffffffffff1673ffffffffffffffffffffffffffffffffffffffff16815260200190815260200160002060003373ffffffffffffffffffffffffffffffffffffffff1673ffffffffffffffffffffffffffffffffffffffff16815260200190815260200160002054612f7a90919063ffffffff16565b600760008773ffffffffffffffffffffffffffffffffffffffff1673ffffffffffffffffffffffffffffffffffffffff16815260200190815260200160002060003373ffffffffffffffffffffffffffffffffffffffff1673ffffffffffffffffffffffffffffffffffffffff168152602001908152602001600020819055505050505050565b6000828211151515612f8b57600080fd5b818303905092915050565b6000808284019050838110151515612fad57600080fd5b8091505092915050565b600080821115612ff257612feb620f4240612fdd600a54856138c090919063ffffffff16565b6138f690919063ffffffff16565b9050612ff7565b600090505b600c5481111561300b57600c54905061301c565b600b5481101561301b57600b5490505b5b809050919050565b61307681600660008573ffffffffffffffffffffffffffffffffffffffff1673ffffffffffffffffffffffffffffffffffffffff16815260200190815260200160002054612f7a90919063ffffffff16565b600660008473ffffffffffffffffffffffffffffffffffffffff1673ffffffffffffffffffffffffffffffffffffffff168152602001908152602001600020819055506130ce81600554612f7a90919063ffffffff16565b60058190555060008273ffffffffffffffffffffffffffffffffffffffff167fddf252ad1be2c89b69c2b068fc378daa952ba7f163c4a11628f55a4df523b3ef836040518082815260200191505060405180910390a35050565b60008473ffffffffffffffffffffffffffffffffffffffff161415151561314e57600080fd5b8373ffffffffffffffffffffffffffffffffffffffff168573ffffffffffffffffffffffffffffffffffffffff161415151561318957600080fd5b6000811115613317576132068160066000600860009054906101000a900473ffffffffffffffffffffffffffffffffffffffff1673ffffffffffffffffffffffffffffffffffffffff1673ffffffffffffffffffffffffffffffffffffffff16815260200190815260200160002054612f9690919063ffffffff16565b60066000600860009054906101000a900473ffffffffffffffffffffffffffffffffffffffff1673ffffffffffffffffffffffffffffffffffffffff1673ffffffffffffffffffffffffffffffffffffffff168152602001908152602001600020819055506132cf816132c185600660008a73ffffffffffffffffffffffffffffffffffffffff1673ffffffffffffffffffffffffffffffffffffffff16815260200190815260200160002054612f7a90919063ffffffff16565b612f7a90919063ffffffff16565b600660008773ffffffffffffffffffffffffffffffffffffffff1673ffffffffffffffffffffffffffffffffffffffff168152602001908152602001600020819055506133ad565b61336983600660008873ffffffffffffffffffffffffffffffffffffffff1673ffffffffffffffffffffffffffffffffffffffff16815260200190815260200160002054612f7a90919063ffffffff16565b600660008773ffffffffffffffffffffffffffffffffffffffff1673ffffffffffffffffffffffffffffffffffffffff168152602001908152602001600020819055505b6133ff83600660008773ffffffffffffffffffffffffffffffffffffffff1673ffffffffffffffffffffffffffffffffffffffff16815260200190815260200160002054612f9690919063ffffffff16565b600660008673ffffffffffffffffffffffffffffffffffffffff1673ffffffffffffffffffffffffffffffffffffffff168152602001908152602001600020819055508373ffffffffffffffffffffffffffffffffffffffff168573ffffffffffffffffffffffffffffffffffffffff167fddf252ad1be2c89b69c2b068fc378daa952ba7f163c4a11628f55a4df523b3ef856040518082815260200191505060405180910390a38373ffffffffffffffffffffffffffffffffffffffff168573ffffffffffffffffffffffffffffffffffffffff167f3c37a37469220e9bdcb1e8083efdcac8373f1448f59b5c4b23ebe3a0723642b28585856040518084815260200180602001838152602001828103825284818151815260200191508051906020019080838360005b8381101561354557808201518184015260208101905061352a565b50505050905090810190601f1680156135725780820380516001836020036101000a031916815260200191505b5094505050505060405180910390a35050505050565b6135da81600660008573ffffffffffffffffffffffffffffffffffffffff1673ffffffffffffffffffffffffffffffffffffffff16815260200190815260200160002054612f9690919063ffffffff16565b600660008473ffffffffffffffffffffffffffffffffffffffff1673ffffffffffffffffffffffffffffffffffffffff1681526020019081526020016000208190555061363281600554612f9690919063ffffffff16565b6005819055508173ffffffffffffffffffffffffffffffffffffffff1660007fddf252ad1be2c89b69c2b068fc378daa952ba7f163c4a11628f55a4df523b3ef836040518082815260200191505060405180910390a35050565b60008273ffffffffffffffffffffffffffffffffffffffff168473ffffffffffffffffffffffffffffffffffffffff16141515156136c957600080fd5b61375882600760008773ffffffffffffffffffffffffffffffffffffffff1673ffffffffffffffffffffffffffffffffffffffff16815260200190815260200160002060008673ffffffffffffffffffffffffffffffffffffffff1673ffffffffffffffffffffffffffffffffffffffff16815260200190815260200160002054612f9690919063ffffffff16565b600760008673ffffffffffffffffffffffffffffffffffffffff1673ffffffffffffffffffffffffffffffffffffffff16815260200190815260200160002060008573ffffffffffffffffffffffffffffffffffffffff1673ffffffffffffffffffffffffffffffffffffffff168152602001908152602001600020819055508273ffffffffffffffffffffffffffffffffffffffff168473ffffffffffffffffffffffffffffffffffffffff167f8c5be1e5ebec7d5bd14f71427d1e84f3dd0314c0f7b2291e5b200ac8c7c3b925600760008873ffffffffffffffffffffffffffffffffffffffff1673ffffffffffffffffffffffffffffffffffffffff16815260200190815260200160002060008773ffffffffffffffffffffffffffffffffffffffff1673ffffffffffffffffffffffffffffffffffffffff168152602001908152602001600020546040518082815260200191505060405180910390a39392505050565b600080828402905060008414806138e157508284828115156138de57fe5b04145b15156138ec57600080fd5b8091505092915050565b600080828481151561390457fe5b0490508091505092915050565b60e0604051908101604052806007905b600081526020019060019003908161392157905050905600a165627a7a723058205a45a5abfe07e85717b6e19ab9ff59587c822aee79526f9756f4dfa3521ed6160029",
  "source": "/* Contract ONLY for testing */\npragma solidity 0.4.19;\nimport \"../generic/AugmintToken.sol\";\n\n\ncontract TokenAceMock is AugmintToken {\n\n    function TokenAceMock(address _feeAccount, address _interestEarnedAccount, uint _transferFeePt,\n                uint _transferFeeMin, uint _transferFeeMax, uint _loanToDepositLockLimit, uint _loanToDepositLoanLimit,\n                uint _lockNoLimitAllowance, uint _loanNoLimitAllowance)\n    public AugmintToken(\"Augmint TEST Crypto EUR\", \"ACET\", \"EUR\", 4, _feeAccount, _interestEarnedAccount,\n        _transferFeePt, _transferFeeMin, _transferFeeMax, _loanToDepositLockLimit, _loanToDepositLoanLimit,\n        _lockNoLimitAllowance, _loanNoLimitAllowance)\n    {} // solhint-disable-line no-empty-blocks\n\n    function withdrawTokens(address _to, uint _amount) external restrict(\"MonetaryBoard\") {\n        balances[this] = balances[this].sub(_amount);\n        balances[_to] = balances[_to].add(_amount);\n    }\n\n}\n",
  "sourcePath": "/Users/petro/ether/augmint-contracts/contracts/mocks/TokenAceMock.sol",
  "compiler": {
    "name": "solc",
    "version": "0.4.19+commit.c4cbbb05.Emscripten.clang"
  },
  "schemaVersion": "1.0.1",
  "updatedAt": "2018-02-09T18:56:51.437Z"
}