{
  "contractName": "TokenAceMock",
  "abi": [
    {
      "constant": false,
      "inputs": [
        {
          "name": "_from",
          "type": "address"
        },
        {
          "name": "_to",
          "type": "address"
        },
        {
          "name": "_amount",
          "type": "uint256"
        },
        {
          "name": "_narrative",
          "type": "string"
        }
      ],
      "name": "transferFromNoFee",
      "outputs": [],
      "payable": false,
      "stateMutability": "nonpayable",
      "type": "function"
    },
    {
      "constant": false,
      "inputs": [
        {
          "name": "_to",
          "type": "address"
        },
        {
          "name": "_amount",
          "type": "uint256"
        }
      ],
      "name": "withdrawTokens",
      "outputs": [],
      "payable": false,
      "stateMutability": "nonpayable",
      "type": "function"
    },
    {
      "constant": true,
      "inputs": [],
      "name": "name",
      "outputs": [
        {
          "name": "",
          "type": "string"
        }
      ],
      "payable": false,
      "stateMutability": "view",
      "type": "function"
    },
    {
      "constant": false,
      "inputs": [
        {
          "name": "_spender",
          "type": "address"
        },
        {
          "name": "_amount",
          "type": "uint256"
        }
      ],
      "name": "approve",
      "outputs": [
        {
          "name": "",
          "type": "bool"
        }
      ],
      "payable": false,
      "stateMutability": "nonpayable",
      "type": "function"
    },
    {
      "constant": false,
      "inputs": [
        {
          "name": "agent",
          "type": "address"
        },
        {
          "name": "requiredPermissions",
          "type": "bytes32[]"
        }
      ],
      "name": "revokeMulitplePermissions",
      "outputs": [],
      "payable": false,
      "stateMutability": "nonpayable",
      "type": "function"
    },
    {
      "constant": true,
      "inputs": [],
      "name": "totalSupply",
      "outputs": [
        {
          "name": "",
          "type": "uint256"
        }
      ],
      "payable": false,
      "stateMutability": "view",
      "type": "function"
    },
    {
      "constant": false,
      "inputs": [
        {
          "name": "_from",
          "type": "address"
        },
        {
          "name": "_to",
          "type": "address"
        },
        {
          "name": "_amount",
          "type": "uint256"
        }
      ],
      "name": "transferFrom",
      "outputs": [
        {
          "name": "",
          "type": "bool"
        }
      ],
      "payable": false,
      "stateMutability": "nonpayable",
      "type": "function"
    },
    {
      "constant": false,
      "inputs": [
        {
          "name": "newFeeAccount",
          "type": "address"
        },
        {
          "name": "newInteresPoolAccount",
          "type": "address"
        },
        {
          "name": "newInterestEarnedAccount",
          "type": "address"
        }
      ],
      "name": "setSystemAccounts",
      "outputs": [],
      "payable": false,
      "stateMutability": "nonpayable",
      "type": "function"
    },
    {
      "constant": true,
      "inputs": [
        {
          "name": "",
          "type": "address"
        }
      ],
      "name": "balances",
      "outputs": [
        {
          "name": "",
          "type": "uint256"
        }
      ],
      "payable": false,
      "stateMutability": "view",
      "type": "function"
    },
    {
      "constant": true,
      "inputs": [],
      "name": "decimals",
      "outputs": [
        {
          "name": "",
          "type": "uint8"
        }
      ],
      "payable": false,
      "stateMutability": "view",
      "type": "function"
    },
    {
      "constant": true,
      "inputs": [],
      "name": "peggedSymbol",
      "outputs": [
        {
          "name": "",
          "type": "bytes32"
        }
      ],
      "payable": false,
      "stateMutability": "view",
      "type": "function"
    },
    {
      "constant": false,
      "inputs": [
        {
          "name": "amount",
          "type": "uint256"
        }
      ],
      "name": "burn",
      "outputs": [],
      "payable": false,
      "stateMutability": "nonpayable",
      "type": "function"
    },
    {
      "constant": true,
      "inputs": [
        {
          "name": "",
          "type": "address"
        },
        {
          "name": "",
          "type": "bytes32"
        }
      ],
      "name": "permissions",
      "outputs": [
        {
          "name": "",
          "type": "bool"
        }
      ],
      "payable": false,
      "stateMutability": "view",
      "type": "function"
    },
    {
      "constant": true,
      "inputs": [
        {
          "name": "",
          "type": "address"
        },
        {
          "name": "",
          "type": "address"
        }
      ],
      "name": "allowed",
      "outputs": [
        {
          "name": "",
          "type": "uint256"
        }
      ],
      "payable": false,
      "stateMutability": "view",
      "type": "function"
    },
    {
      "constant": true,
      "inputs": [
        {
          "name": "agent",
          "type": "address"
        },
        {
          "name": "permission",
          "type": "bytes32"
        }
      ],
      "name": "isAllowed",
      "outputs": [
        {
          "name": "",
          "type": "bool"
        }
      ],
      "payable": false,
      "stateMutability": "view",
      "type": "function"
    },
    {
      "constant": true,
      "inputs": [],
      "name": "interestEarnedAccount",
      "outputs": [
        {
          "name": "",
          "type": "address"
        }
      ],
      "payable": false,
      "stateMutability": "view",
      "type": "function"
    },
    {
      "constant": false,
      "inputs": [
        {
          "name": "agent",
          "type": "address"
        },
        {
          "name": "requiredPermission",
          "type": "bytes32"
        }
      ],
      "name": "revokePermission",
      "outputs": [],
      "payable": false,
      "stateMutability": "nonpayable",
      "type": "function"
    },
    {
      "constant": true,
      "inputs": [],
      "name": "feeAccount",
      "outputs": [
        {
          "name": "",
          "type": "address"
        }
      ],
      "payable": false,
      "stateMutability": "view",
      "type": "function"
    },
    {
      "constant": false,
      "inputs": [
        {
          "name": "_spender",
          "type": "address"
        },
        {
          "name": "_subtractedValue",
          "type": "uint256"
        }
      ],
      "name": "decreaseApproval",
      "outputs": [
        {
          "name": "",
          "type": "bool"
        }
      ],
      "payable": false,
      "stateMutability": "nonpayable",
      "type": "function"
    },
    {
      "constant": true,
      "inputs": [
        {
          "name": "_owner",
          "type": "address"
        }
      ],
      "name": "balanceOf",
      "outputs": [
        {
          "name": "balance",
          "type": "uint256"
        }
      ],
      "payable": false,
      "stateMutability": "view",
      "type": "function"
    },
    {
      "constant": true,
      "inputs": [],
      "name": "transferFeeMax",
      "outputs": [
        {
          "name": "",
          "type": "uint256"
        }
      ],
      "payable": false,
      "stateMutability": "view",
      "type": "function"
    },
    {
      "constant": false,
      "inputs": [
        {
          "name": "_from",
          "type": "address"
        },
        {
          "name": "_to",
          "type": "address"
        },
        {
          "name": "_amount",
          "type": "uint256"
        },
        {
          "name": "_narrative",
          "type": "string"
        }
      ],
      "name": "transferFromWithNarrative",
      "outputs": [],
      "payable": false,
      "stateMutability": "nonpayable",
      "type": "function"
    },
    {
      "constant": true,
      "inputs": [],
      "name": "transferFeePt",
      "outputs": [
        {
          "name": "",
          "type": "uint256"
        }
      ],
      "payable": false,
      "stateMutability": "view",
      "type": "function"
    },
    {
      "constant": true,
      "inputs": [],
      "name": "owner",
      "outputs": [
        {
          "name": "",
          "type": "address"
        }
      ],
      "payable": false,
      "stateMutability": "view",
      "type": "function"
    },
    {
      "constant": false,
      "inputs": [
        {
          "name": "_loanManager",
          "type": "address"
        },
        {
          "name": "loanId",
          "type": "uint256"
        }
      ],
      "name": "repayLoan",
      "outputs": [],
      "payable": false,
      "stateMutability": "nonpayable",
      "type": "function"
    },
    {
      "constant": true,
      "inputs": [],
      "name": "symbol",
      "outputs": [
        {
          "name": "",
          "type": "string"
        }
      ],
      "payable": false,
      "stateMutability": "view",
      "type": "function"
    },
    {
      "constant": false,
      "inputs": [
        {
          "name": "agent",
          "type": "address"
        },
        {
          "name": "requiredPermissions",
          "type": "bytes32[]"
        }
      ],
      "name": "grantMultiplePermissions",
      "outputs": [],
      "payable": false,
      "stateMutability": "nonpayable",
      "type": "function"
    },
    {
      "constant": true,
      "inputs": [],
      "name": "interestPoolAccount",
      "outputs": [
        {
          "name": "",
          "type": "address"
        }
      ],
      "payable": false,
      "stateMutability": "view",
      "type": "function"
    },
    {
      "constant": true,
      "inputs": [],
      "name": "transferFeeMin",
      "outputs": [
        {
          "name": "",
          "type": "uint256"
        }
      ],
      "payable": false,
      "stateMutability": "view",
      "type": "function"
    },
    {
      "constant": false,
      "inputs": [
        {
          "name": "_to",
          "type": "address"
        },
        {
          "name": "_amount",
          "type": "uint256"
        }
      ],
      "name": "transfer",
      "outputs": [
        {
          "name": "",
          "type": "bool"
        }
      ],
      "payable": false,
      "stateMutability": "nonpayable",
      "type": "function"
    },
    {
      "constant": false,
      "inputs": [
        {
          "name": "_from",
          "type": "address"
        },
        {
          "name": "_to",
          "type": "address"
        },
        {
          "name": "_amount",
          "type": "uint256"
        },
        {
          "name": "_narrative",
          "type": "string"
        }
      ],
      "name": "transferNoFee",
      "outputs": [],
      "payable": false,
      "stateMutability": "nonpayable",
      "type": "function"
    },
    {
      "constant": false,
      "inputs": [
        {
          "name": "_transferFeePt",
          "type": "uint256"
        },
        {
          "name": "_transferFeeMin",
          "type": "uint256"
        },
        {
          "name": "_transferFeeMax",
          "type": "uint256"
        }
      ],
      "name": "setTransferFees",
      "outputs": [],
      "payable": false,
      "stateMutability": "nonpayable",
      "type": "function"
    },
    {
      "constant": false,
      "inputs": [
        {
          "name": "interestAmount",
          "type": "uint256"
        }
      ],
      "name": "moveCollectedInterest",
      "outputs": [],
      "payable": false,
      "stateMutability": "nonpayable",
      "type": "function"
    },
    {
      "constant": false,
      "inputs": [
        {
          "name": "borrower",
          "type": "address"
        },
        {
          "name": "loanAmount",
          "type": "uint256"
        },
        {
          "name": "interestAmount",
          "type": "uint256"
        },
        {
          "name": "narrative",
          "type": "string"
        }
      ],
      "name": "issueAndDisburse",
      "outputs": [],
      "payable": false,
      "stateMutability": "nonpayable",
      "type": "function"
    },
    {
      "constant": false,
      "inputs": [
        {
          "name": "borrower",
          "type": "address"
        },
        {
          "name": "repaymentAmount",
          "type": "uint256"
        },
        {
          "name": "interestAmount",
          "type": "uint256"
        },
        {
          "name": "narrative",
          "type": "string"
        }
      ],
      "name": "repayAndBurn",
      "outputs": [],
      "payable": false,
      "stateMutability": "nonpayable",
      "type": "function"
    },
    {
      "constant": false,
      "inputs": [
        {
          "name": "amount",
          "type": "uint256"
        }
      ],
      "name": "issue",
      "outputs": [],
      "payable": false,
      "stateMutability": "nonpayable",
      "type": "function"
    },
    {
      "constant": false,
      "inputs": [
        {
          "name": "_spender",
          "type": "address"
        },
        {
          "name": "_addedValue",
          "type": "uint256"
        }
      ],
      "name": "increaseApproval",
      "outputs": [
        {
          "name": "",
          "type": "bool"
        }
      ],
      "payable": false,
      "stateMutability": "nonpayable",
      "type": "function"
    },
    {
      "constant": true,
      "inputs": [
        {
          "name": "_owner",
          "type": "address"
        },
        {
          "name": "_spender",
          "type": "address"
        }
      ],
      "name": "allowance",
      "outputs": [
        {
          "name": "remaining",
          "type": "uint256"
        }
      ],
      "payable": false,
      "stateMutability": "view",
      "type": "function"
    },
    {
      "constant": false,
      "inputs": [
        {
          "name": "newOwner",
          "type": "address"
        }
      ],
      "name": "transferOwnership",
      "outputs": [],
      "payable": false,
      "stateMutability": "nonpayable",
      "type": "function"
    },
    {
      "constant": false,
      "inputs": [
        {
          "name": "agent",
          "type": "address"
        },
        {
          "name": "requiredPermission",
          "type": "bytes32"
        }
      ],
      "name": "grantPermission",
      "outputs": [],
      "payable": false,
      "stateMutability": "nonpayable",
      "type": "function"
    },
    {
      "constant": false,
      "inputs": [
        {
          "name": "_to",
          "type": "address"
        },
        {
          "name": "_amount",
          "type": "uint256"
        },
        {
          "name": "_narrative",
          "type": "string"
        }
      ],
      "name": "transferWithNarrative",
      "outputs": [],
      "payable": false,
      "stateMutability": "nonpayable",
      "type": "function"
    },
    {
      "inputs": [
        {
          "name": "_feeAccount",
          "type": "address"
        },
        {
          "name": "_interestPoolAccount",
          "type": "address"
        },
        {
          "name": "_interestEarnedAccount",
          "type": "address"
        },
        {
          "name": "_transferFeePt",
          "type": "uint256"
        },
        {
          "name": "_transferFeeMin",
          "type": "uint256"
        },
        {
          "name": "_transferFeeMax",
          "type": "uint256"
        }
      ],
      "payable": false,
      "stateMutability": "nonpayable",
      "type": "constructor"
    },
    {
      "payable": true,
      "stateMutability": "payable",
      "type": "fallback"
    },
    {
      "anonymous": false,
      "inputs": [
        {
          "indexed": false,
          "name": "amount",
          "type": "uint256"
        }
      ],
      "name": "TokenIssued",
      "type": "event"
    },
    {
      "anonymous": false,
      "inputs": [
        {
          "indexed": false,
          "name": "amount",
          "type": "uint256"
        }
      ],
      "name": "TokenBurned",
      "type": "event"
    },
    {
      "anonymous": false,
      "inputs": [
        {
          "indexed": false,
          "name": "newFeeAccount",
          "type": "address"
        },
        {
          "indexed": false,
          "name": "newInteresPoolAccount",
          "type": "address"
        },
        {
          "indexed": false,
          "name": "newInterestEarnedAccount",
          "type": "address"
        }
      ],
      "name": "SystemAccountsChanged",
      "type": "event"
    },
    {
      "anonymous": false,
      "inputs": [
        {
          "indexed": false,
          "name": "_transferFeePt",
          "type": "uint256"
        },
        {
          "indexed": false,
          "name": "_transferFeeMin",
          "type": "uint256"
        },
        {
          "indexed": false,
          "name": "_transferFeeMax",
          "type": "uint256"
        }
      ],
      "name": "TransferFeesChanged",
      "type": "event"
    },
    {
      "anonymous": false,
      "inputs": [
        {
          "indexed": true,
          "name": "from",
          "type": "address"
        },
        {
          "indexed": true,
          "name": "to",
          "type": "address"
        },
        {
          "indexed": false,
          "name": "amount",
          "type": "uint256"
        }
      ],
      "name": "Transfer",
      "type": "event"
    },
    {
      "anonymous": false,
      "inputs": [
        {
          "indexed": true,
          "name": "from",
          "type": "address"
        },
        {
          "indexed": true,
          "name": "to",
          "type": "address"
        },
        {
          "indexed": false,
          "name": "amount",
          "type": "uint256"
        },
        {
          "indexed": false,
          "name": "narrative",
          "type": "string"
        },
        {
          "indexed": false,
          "name": "fee",
          "type": "uint256"
        }
      ],
      "name": "AugmintTransfer",
      "type": "event"
    },
    {
      "anonymous": false,
      "inputs": [
        {
          "indexed": true,
          "name": "_owner",
          "type": "address"
        },
        {
          "indexed": true,
          "name": "_spender",
          "type": "address"
        },
        {
          "indexed": false,
          "name": "_value",
          "type": "uint256"
        }
      ],
      "name": "Approval",
      "type": "event"
    },
    {
      "anonymous": false,
      "inputs": [
        {
          "indexed": true,
          "name": "agent",
          "type": "address"
        },
        {
          "indexed": false,
          "name": "grantedPermission",
          "type": "bytes32"
        }
      ],
      "name": "PermissionGranted",
      "type": "event"
    },
    {
      "anonymous": false,
      "inputs": [
        {
          "indexed": true,
          "name": "agent",
          "type": "address"
        },
        {
          "indexed": false,
          "name": "revokedPermission",
          "type": "bytes32"
        }
      ],
      "name": "PermissionRevoked",
      "type": "event"
    },
    {
      "anonymous": false,
      "inputs": [
        {
          "indexed": true,
          "name": "oldOwner",
          "type": "address"
        },
        {
          "indexed": true,
          "name": "newOwner",
          "type": "address"
        }
      ],
      "name": "NewOwner",
      "type": "event"
    }
  ],
  "bytecode": "0x606060405234156200001057600080fd5b60405160c08062003f03833981016040528080519060200190919080519060200190919080519060200190919080519060200190919080519060200190919080519060200190919050506040805190810160405280601781526020017f4175676d696e7420544553542043727970746f204555520000000000000000008152506040805190810160405280600481526020017f41434554000000000000000000000000000000000000000000000000000000008152507f45555200000000000000000000000000000000000000000000000000000000006004898989898989600073ffffffffffffffffffffffffffffffffffffffff166000809054906101000a900473ffffffffffffffffffffffffffffffffffffffff1673ffffffffffffffffffffffffffffffffffffffff161415156200014c57600080fd5b336000806101000a81548173ffffffffffffffffffffffffffffffffffffffff021916908373ffffffffffffffffffffffffffffffffffffffff160217905550600073ffffffffffffffffffffffffffffffffffffffff168673ffffffffffffffffffffffffffffffffffffffff1614151515620001c957600080fd5b600073ffffffffffffffffffffffffffffffffffffffff168573ffffffffffffffffffffffffffffffffffffffff16141515156200020657600080fd5b600073ffffffffffffffffffffffffffffffffffffffff168473ffffffffffffffffffffffffffffffffffffffff16141515156200024357600080fd5b60008a511115156200025457600080fd5b89600290805190602001906200026c9291906200039a565b508860039080519060200190620002859291906200039a565b50876004816000191690555086600560006101000a81548160ff021916908360ff16021790555085600960006101000a81548173ffffffffffffffffffffffffffffffffffffffff021916908373ffffffffffffffffffffffffffffffffffffffff16021790555084600a60006101000a81548173ffffffffffffffffffffffffffffffffffffffff021916908373ffffffffffffffffffffffffffffffffffffffff16021790555083600b60006101000a81548173ffffffffffffffffffffffffffffffffffffffff021916908373ffffffffffffffffffffffffffffffffffffffff16021790555082600c8190555081600d8190555080600e819055505050505050505050505050505050505062000449565b828054600181600116156101000203166002900490600052602060002090601f016020900481019282601f10620003dd57805160ff19168380011785556200040e565b828001600101855582156200040e579182015b828111156200040d578251825591602001919060010190620003f0565b5b5090506200041d919062000421565b5090565b6200044691905b808211156200044257600081600090555060010162000428565b5090565b90565b613aaa80620004596000396000f3006060604052600436106101f9576000357c0100000000000000000000000000000000000000000000000000000000900463ffffffff16806304282d25146101fb57806306b091f91461029f57806306fdde03146102e1578063095ea7b31461036f5780630da32eaa146103c957806318160ddd1461044257806323b872dd1461046b57806324839a3a146104e457806327e235e31461055b578063313ce567146105a857806333a263e6146105d757806342966c68146106085780635b2255261461062b5780635c658165146106895780635cb8dd09146106f55780635fcf0455146107535780635fe07013146107a857806365e17c9d146107ee578063661884631461084357806370a082311461089d57806372a1eecc146108ea578063765879211461091357806377c9db1a146109b75780638da5cb5b146109e057806393a595f514610a3557806395d89b4114610a775780639ac3317b14610b055780639ae8dcef14610b7e578063a7f839a714610bd3578063a9059cbb14610bfc578063b0455f1314610c56578063bfd201f514610ccb578063c06ec4bc14610d00578063c28f379314610d23578063c613aa6a14610d82578063cc872b6614610de1578063d73dd62314610e04578063dd62ed3e14610e5e578063f2fde38b14610eca578063f38a826214610f03578063ffdcf09514610f49575b005b341561020657600080fd5b61029d600480803573ffffffffffffffffffffffffffffffffffffffff1690602001909190803573ffffffffffffffffffffffffffffffffffffffff1690602001909190803590602001909190803590602001908201803590602001908080601f01602080910402602001604051908101604052809392919081815260200183838082843782019150505050505091905050610f9f565b005b34156102aa57600080fd5b6102df600480803573ffffffffffffffffffffffffffffffffffffffff16906020019091908035906020019091905050611046565b005b34156102ec57600080fd5b6102f4611255565b6040518080602001828103825283818151815260200191508051906020019080838360005b83811015610334578082015181840152602081019050610319565b50505050905090810190601f1680156103615780820380516001836020036101000a031916815260200191505b509250505060405180910390f35b341561037a57600080fd5b6103af600480803573ffffffffffffffffffffffffffffffffffffffff169060200190919080359060200190919050506112f3565b604051808215151515815260200191505060405180910390f35b34156103d457600080fd5b610440600480803573ffffffffffffffffffffffffffffffffffffffff1690602001909190803590602001908201803590602001908080602002602001604051908101604052809392919081815260200183836020028082843782019150505050505091905050611420565b005b341561044d57600080fd5b6104556114c3565b6040518082815260200191505060405180910390f35b341561047657600080fd5b6104ca600480803573ffffffffffffffffffffffffffffffffffffffff1690602001909190803573ffffffffffffffffffffffffffffffffffffffff169060200190919080359060200190919050506114c9565b604051808215151515815260200191505060405180910390f35b34156104ef57600080fd5b610559600480803573ffffffffffffffffffffffffffffffffffffffff1690602001909190803573ffffffffffffffffffffffffffffffffffffffff1690602001909190803573ffffffffffffffffffffffffffffffffffffffff169060200190919050506114fb565b005b341561056657600080fd5b610592600480803573ffffffffffffffffffffffffffffffffffffffff16906020019091905050611793565b6040518082815260200191505060405180910390f35b34156105b357600080fd5b6105bb6117ab565b604051808260ff1660ff16815260200191505060405180910390f35b34156105e257600080fd5b6105ea6117be565b60405180826000191660001916815260200191505060405180910390f35b341561061357600080fd5b61062960048080359060200190919050506117c4565b005b341561063657600080fd5b61066f600480803573ffffffffffffffffffffffffffffffffffffffff169060200190919080356000191690602001909190505061198f565b604051808215151515815260200191505060405180910390f35b341561069457600080fd5b6106df600480803573ffffffffffffffffffffffffffffffffffffffff1690602001909190803573ffffffffffffffffffffffffffffffffffffffff169060200190919050506119be565b6040518082815260200191505060405180910390f35b341561070057600080fd5b610739600480803573ffffffffffffffffffffffffffffffffffffffff16906020019091908035600019169060200190919050506119e3565b604051808215151515815260200191505060405180910390f35b341561075e57600080fd5b610766611a53565b604051808273ffffffffffffffffffffffffffffffffffffffff1673ffffffffffffffffffffffffffffffffffffffff16815260200191505060405180910390f35b34156107b357600080fd5b6107ec600480803573ffffffffffffffffffffffffffffffffffffffff1690602001909190803560001916906020019091905050611a79565b005b34156107f957600080fd5b610801611b9f565b604051808273ffffffffffffffffffffffffffffffffffffffff1673ffffffffffffffffffffffffffffffffffffffff16815260200191505060405180910390f35b341561084e57600080fd5b610883600480803573ffffffffffffffffffffffffffffffffffffffff16906020019091908035906020019091905050611bc5565b604051808215151515815260200191505060405180910390f35b34156108a857600080fd5b6108d4600480803573ffffffffffffffffffffffffffffffffffffffff16906020019091905050611e91565b6040518082815260200191505060405180910390f35b34156108f557600080fd5b6108fd611eda565b6040518082815260200191505060405180910390f35b341561091e57600080fd5b6109b5600480803573ffffffffffffffffffffffffffffffffffffffff1690602001909190803573ffffffffffffffffffffffffffffffffffffffff1690602001909190803590602001909190803590602001908201803590602001908080601f01602080910402602001604051908101604052809392919081815260200183838082843782019150505050505091905050611ee0565b005b34156109c257600080fd5b6109ca611efb565b6040518082815260200191505060405180910390f35b34156109eb57600080fd5b6109f3611f01565b604051808273ffffffffffffffffffffffffffffffffffffffff1673ffffffffffffffffffffffffffffffffffffffff16815260200191505060405180910390f35b3415610a4057600080fd5b610a75600480803573ffffffffffffffffffffffffffffffffffffffff16906020019091908035906020019091905050611f26565b005b3415610a8257600080fd5b610a8a612108565b6040518080602001828103825283818151815260200191508051906020019080838360005b83811015610aca578082015181840152602081019050610aaf565b50505050905090810190601f168015610af75780820380516001836020036101000a031916815260200191505b509250505060405180910390f35b3415610b1057600080fd5b610b7c600480803573ffffffffffffffffffffffffffffffffffffffff16906020019091908035906020019082018035906020019080806020026020016040519081016040528093929190818152602001838360200280828437820191505050505050919050506121a6565b005b3415610b8957600080fd5b610b91612249565b604051808273ffffffffffffffffffffffffffffffffffffffff1673ffffffffffffffffffffffffffffffffffffffff16815260200191505060405180910390f35b3415610bde57600080fd5b610be661226f565b6040518082815260200191505060405180910390f35b3415610c0757600080fd5b610c3c600480803573ffffffffffffffffffffffffffffffffffffffff16906020019091908035906020019091905050612275565b604051808215151515815260200191505060405180910390f35b3415610c6157600080fd5b610cc9600480803573ffffffffffffffffffffffffffffffffffffffff1690602001909190803573ffffffffffffffffffffffffffffffffffffffff1690602001909190803590602001909190803590602001908201803590602001919091929050506122a6565b005b3415610cd657600080fd5b610cfe6004808035906020019091908035906020019091908035906020019091905050612380565b005b3415610d0b57600080fd5b610d21600480803590602001909190505061247a565b005b3415610d2e57600080fd5b610d80600480803573ffffffffffffffffffffffffffffffffffffffff169060200190919080359060200190919080359060200190919080359060200190820180359060200191909192905050612575565b005b3415610d8d57600080fd5b610ddf600480803573ffffffffffffffffffffffffffffffffffffffff169060200190919080359060200190919080359060200190919080359060200190820180359060200191909192905050612840565b005b3415610dec57600080fd5b610e026004808035906020019091905050612bbd565b005b3415610e0f57600080fd5b610e44600480803573ffffffffffffffffffffffffffffffffffffffff16906020019091908035906020019091905050612d3a565b604051808215151515815260200191505060405180910390f35b3415610e6957600080fd5b610eb4600480803573ffffffffffffffffffffffffffffffffffffffff1690602001909190803573ffffffffffffffffffffffffffffffffffffffff16906020019091905050612d4f565b6040518082815260200191505060405180910390f35b3415610ed557600080fd5b610f01600480803573ffffffffffffffffffffffffffffffffffffffff16906020019091905050612dd6565b005b3415610f0e57600080fd5b610f47600480803573ffffffffffffffffffffffffffffffffffffffff1690602001909190803560001916906020019091905050612f2b565b005b3415610f5457600080fd5b610f9d600480803573ffffffffffffffffffffffffffffffffffffffff169060200190919080359060200190919080359060200190820180359060200191909192905050613050565b005b7f7472616e7366657246726f6d4e6f466565000000000000000000000000000000600160003373ffffffffffffffffffffffffffffffffffffffff1673ffffffffffffffffffffffffffffffffffffffff1681526020019081526020016000206000826000191660001916815260200190815260200160002060009054906101000a900460ff16151561103157600080fd5b61103f85858585600061309d565b5050505050565b7f7769746864726177546f6b656e73000000000000000000000000000000000000600160003373ffffffffffffffffffffffffffffffffffffffff1673ffffffffffffffffffffffffffffffffffffffff1681526020019081526020016000206000826000191660001916815260200190815260200160002060009054906101000a900460ff1615156110d857600080fd5b600760003073ffffffffffffffffffffffffffffffffffffffff1673ffffffffffffffffffffffffffffffffffffffff16815260200190815260200160002054821115151561112657600080fd5b61117882600760003073ffffffffffffffffffffffffffffffffffffffff1673ffffffffffffffffffffffffffffffffffffffff1681526020019081526020016000205461331890919063ffffffff16565b600760003073ffffffffffffffffffffffffffffffffffffffff1673ffffffffffffffffffffffffffffffffffffffff1681526020019081526020016000208190555061120d82600760008673ffffffffffffffffffffffffffffffffffffffff1673ffffffffffffffffffffffffffffffffffffffff1681526020019081526020016000205461333490919063ffffffff16565b600760008573ffffffffffffffffffffffffffffffffffffffff1673ffffffffffffffffffffffffffffffffffffffff16815260200190815260200160002081905550505050565b60028054600181600116156101000203166002900480601f0160208091040260200160405190810160405280929190818152602001828054600181600116156101000203166002900480156112eb5780601f106112c0576101008083540402835291602001916112eb565b820191906000526020600020905b8154815290600101906020018083116112ce57829003601f168201915b505050505081565b60008273ffffffffffffffffffffffffffffffffffffffff163373ffffffffffffffffffffffffffffffffffffffff161415151561133057600080fd5b81600860003373ffffffffffffffffffffffffffffffffffffffff1673ffffffffffffffffffffffffffffffffffffffff16815260200190815260200160002060008573ffffffffffffffffffffffffffffffffffffffff1673ffffffffffffffffffffffffffffffffffffffff168152602001908152602001600020819055508273ffffffffffffffffffffffffffffffffffffffff163373ffffffffffffffffffffffffffffffffffffffff167f8c5be1e5ebec7d5bd14f71427d1e84f3dd0314c0f7b2291e5b200ac8c7c3b925846040518082815260200191505060405180910390a36001905092915050565b6000806000809054906101000a900473ffffffffffffffffffffffffffffffffffffffff1673ffffffffffffffffffffffffffffffffffffffff163373ffffffffffffffffffffffffffffffffffffffff1614151561147e57600080fd5b82519150600090505b818110156114bd576114b08484838151811015156114a157fe5b90602001906020020151611a79565b8080600101915050611487565b50505050565b60065481565b60006114f084848460206040519081016040528060008152506114eb87613355565b61309d565b600190509392505050565b7f73657453797374656d4163636f756e7473000000000000000000000000000000600160003373ffffffffffffffffffffffffffffffffffffffff1673ffffffffffffffffffffffffffffffffffffffff1681526020019081526020016000206000826000191660001916815260200190815260200160002060009054906101000a900460ff16151561158d57600080fd5b60008473ffffffffffffffffffffffffffffffffffffffff16141515156115b357600080fd5b60008373ffffffffffffffffffffffffffffffffffffffff16141515156115d957600080fd5b60008273ffffffffffffffffffffffffffffffffffffffff16141515156115ff57600080fd5b83600960006101000a81548173ffffffffffffffffffffffffffffffffffffffff021916908373ffffffffffffffffffffffffffffffffffffffff16021790555082600a60006101000a81548173ffffffffffffffffffffffffffffffffffffffff021916908373ffffffffffffffffffffffffffffffffffffffff16021790555081600b60006101000a81548173ffffffffffffffffffffffffffffffffffffffff021916908373ffffffffffffffffffffffffffffffffffffffff1602179055507f23dbec4dc224f6b5dbb7872e42fdf27b8eab89540005970d572678433093c94e848484604051808473ffffffffffffffffffffffffffffffffffffffff1673ffffffffffffffffffffffffffffffffffffffff1681526020018373ffffffffffffffffffffffffffffffffffffffff1673ffffffffffffffffffffffffffffffffffffffff1681526020018273ffffffffffffffffffffffffffffffffffffffff1673ffffffffffffffffffffffffffffffffffffffff168152602001935050505060405180910390a150505050565b60076020528060005260406000206000915090505481565b600560009054906101000a900460ff1681565b60045481565b7f6275726e00000000000000000000000000000000000000000000000000000000600160003373ffffffffffffffffffffffffffffffffffffffff1673ffffffffffffffffffffffffffffffffffffffff1681526020019081526020016000206000826000191660001916815260200190815260200160002060009054906101000a900460ff16151561185657600080fd5b600760003073ffffffffffffffffffffffffffffffffffffffff1673ffffffffffffffffffffffffffffffffffffffff1681526020019081526020016000205482111515156118a457600080fd5b6118b98260065461331890919063ffffffff16565b60068190555061191182600760003073ffffffffffffffffffffffffffffffffffffffff1673ffffffffffffffffffffffffffffffffffffffff1681526020019081526020016000205461331890919063ffffffff16565b600760003073ffffffffffffffffffffffffffffffffffffffff1673ffffffffffffffffffffffffffffffffffffffff168152602001908152602001600020819055507f0c526103b8f47af5516191d0c89a598755bd00faa211a3cb52e4c2cc782f7fe2826040518082815260200191505060405180910390a15050565b60016020528160005260406000206020528060005260406000206000915091509054906101000a900460ff1681565b6008602052816000526040600020602052806000526040600020600091509150505481565b6000600160008473ffffffffffffffffffffffffffffffffffffffff1673ffffffffffffffffffffffffffffffffffffffff1681526020019081526020016000206000836000191660001916815260200190815260200160002060009054906101000a900460ff16905092915050565b600b60009054906101000a900473ffffffffffffffffffffffffffffffffffffffff1681565b6000809054906101000a900473ffffffffffffffffffffffffffffffffffffffff1673ffffffffffffffffffffffffffffffffffffffff163373ffffffffffffffffffffffffffffffffffffffff16141515611ad457600080fd5b6000600160008473ffffffffffffffffffffffffffffffffffffffff1673ffffffffffffffffffffffffffffffffffffffff1681526020019081526020016000206000836000191660001916815260200190815260200160002060006101000a81548160ff0219169083151502179055508173ffffffffffffffffffffffffffffffffffffffff167f789770131846de4d1f28418f0f957cdf4fcabe5eccf70067083e20ecece69a348260405180826000191660001916815260200191505060405180910390a25050565b600960009054906101000a900473ffffffffffffffffffffffffffffffffffffffff1681565b6000808373ffffffffffffffffffffffffffffffffffffffff163373ffffffffffffffffffffffffffffffffffffffff1614151515611c0357600080fd5b600860003373ffffffffffffffffffffffffffffffffffffffff1673ffffffffffffffffffffffffffffffffffffffff16815260200190815260200160002060008573ffffffffffffffffffffffffffffffffffffffff1673ffffffffffffffffffffffffffffffffffffffff16815260200190815260200160002054905080831115611d11576000600860003373ffffffffffffffffffffffffffffffffffffffff1673ffffffffffffffffffffffffffffffffffffffff16815260200190815260200160002060008673ffffffffffffffffffffffffffffffffffffffff1673ffffffffffffffffffffffffffffffffffffffff16815260200190815260200160002081905550611da5565b611d24838261331890919063ffffffff16565b600860003373ffffffffffffffffffffffffffffffffffffffff1673ffffffffffffffffffffffffffffffffffffffff16815260200190815260200160002060008673ffffffffffffffffffffffffffffffffffffffff1673ffffffffffffffffffffffffffffffffffffffff168152602001908152602001600020819055505b8373ffffffffffffffffffffffffffffffffffffffff163373ffffffffffffffffffffffffffffffffffffffff167f8c5be1e5ebec7d5bd14f71427d1e84f3dd0314c0f7b2291e5b200ac8c7c3b925600860003373ffffffffffffffffffffffffffffffffffffffff1673ffffffffffffffffffffffffffffffffffffffff16815260200190815260200160002060008873ffffffffffffffffffffffffffffffffffffffff1673ffffffffffffffffffffffffffffffffffffffff168152602001908152602001600020546040518082815260200191505060405180910390a3600191505092915050565b6000600760008373ffffffffffffffffffffffffffffffffffffffff1673ffffffffffffffffffffffffffffffffffffffff168152602001908152602001600020549050919050565b600e5481565b611ef584848484611ef087613355565b61309d565b50505050565b600c5481565b6000809054906101000a900473ffffffffffffffffffffffffffffffffffffffff1681565b6000806000611f55857f4c6f616e4d616e616765720000000000000000000000000000000000000000006119e3565b1515611f6057600080fd5b8492508273ffffffffffffffffffffffffffffffffffffffff1663e1ec3c6885600060405161014001526040518263ffffffff167c01000000000000000000000000000000000000000000000000000000000281526004018082815260200191505061014060405180830381600087803b1515611fdc57600080fd5b6102c65a03f11515611fed57600080fd5b505050604051805190602001805190602001805190602001805190602001805190602001805190602001805190602001805190602001805190602001805190505050505050509350505091503373ffffffffffffffffffffffffffffffffffffffff168273ffffffffffffffffffffffffffffffffffffffff1614151561207357600080fd5b61207e3386836133b0565b508273ffffffffffffffffffffffffffffffffffffffff166339007b77856040518263ffffffff167c010000000000000000000000000000000000000000000000000000000002815260040180828152602001915050600060405180830381600087803b15156120ed57600080fd5b6102c65a03f115156120fe57600080fd5b5050505050505050565b60038054600181600116156101000203166002900480601f01602080910402602001604051908101604052809291908181526020018280546001816001161561010002031660029004801561219e5780601f106121735761010080835404028352916020019161219e565b820191906000526020600020905b81548152906001019060200180831161218157829003601f168201915b505050505081565b6000806000809054906101000a900473ffffffffffffffffffffffffffffffffffffffff1673ffffffffffffffffffffffffffffffffffffffff163373ffffffffffffffffffffffffffffffffffffffff1614151561220457600080fd5b82519150600090505b818110156122435761223684848381518110151561222757fe5b90602001906020020151612f2b565b808060010191505061220d565b50505050565b600a60009054906101000a900473ffffffffffffffffffffffffffffffffffffffff1681565b600d5481565b600061229c338484602060405190810160405280600081525061229787613355565b6135e4565b6001905092915050565b7f7472616e736665724e6f46656500000000000000000000000000000000000000600160003373ffffffffffffffffffffffffffffffffffffffff1673ffffffffffffffffffffffffffffffffffffffff1681526020019081526020016000206000826000191660001916815260200190815260200160002060009054906101000a900460ff16151561233857600080fd5b61237886868686868080601f01602080910402602001604051908101604052809392919081815260200183838082843782019150505050505060006135e4565b505050505050565b7f7365745472616e73666572466565730000000000000000000000000000000000600160003373ffffffffffffffffffffffffffffffffffffffff1673ffffffffffffffffffffffffffffffffffffffff1681526020019081526020016000206000826000191660001916815260200190815260200160002060009054906101000a900460ff16151561241257600080fd5b83600c8190555082600d8190555081600e819055507fd987a3acde40f231f760d7c3d2907c83d26bca5aededafbeefba5619b5955d71600c54600d54600e5460405180848152602001838152602001828152602001935050505060405180910390a150505050565b7f6d6f7665436f6c6c6563746564496e7465726573740000000000000000000000600160003373ffffffffffffffffffffffffffffffffffffffff1673ffffffffffffffffffffffffffffffffffffffff1681526020019081526020016000206000826000191660001916815260200190815260200160002060009054906101000a900460ff16151561250c57600080fd5b612571600a60009054906101000a900473ffffffffffffffffffffffffffffffffffffffff1630846040805190810160405280601781526020017f44656661756c746564206c6f616e20696e74657265737400000000000000000081525060006135e4565b5050565b60007f6973737565416e64446973627572736500000000000000000000000000000000600160003373ffffffffffffffffffffffffffffffffffffffff1673ffffffffffffffffffffffffffffffffffffffff1681526020019081526020016000206000826000191660001916815260200190815260200160002060009054906101000a900460ff16151561260957600080fd5b60008611151561261857600080fd5b61262b858761333490919063ffffffff16565b91506126428260065461333490919063ffffffff16565b60068190555061269a86600760003073ffffffffffffffffffffffffffffffffffffffff1673ffffffffffffffffffffffffffffffffffffffff1681526020019081526020016000205461333490919063ffffffff16565b600760003073ffffffffffffffffffffffffffffffffffffffff1673ffffffffffffffffffffffffffffffffffffffff1681526020019081526020016000208190555060008511156127c05761275a8560076000600a60009054906101000a900473ffffffffffffffffffffffffffffffffffffffff1673ffffffffffffffffffffffffffffffffffffffff1673ffffffffffffffffffffffffffffffffffffffff1681526020019081526020016000205461333490919063ffffffff16565b60076000600a60009054906101000a900473ffffffffffffffffffffffffffffffffffffffff1673ffffffffffffffffffffffffffffffffffffffff1673ffffffffffffffffffffffffffffffffffffffff168152602001908152602001600020819055505b61280030888887878080601f01602080910402602001604051908101604052809392919081815260200183838082843782019150505050505060006135e4565b7f22e0481cfeefc9defe3dece414137b4b644284658facef6d9734c16204cca3f0826040518082815260200191505060405180910390a150505050505050565b7f7265706179416e644275726e0000000000000000000000000000000000000000600160003373ffffffffffffffffffffffffffffffffffffffff1673ffffffffffffffffffffffffffffffffffffffff1681526020019081526020016000206000826000191660001916815260200190815260200160002060009054906101000a900460ff1615156128d257600080fd5b61291286308786868080601f016020809104026020016040519081016040528093929190818152602001838380828437820191505050505050600061309d565b6129278560065461331890919063ffffffff16565b60068190555061297f85600760003073ffffffffffffffffffffffffffffffffffffffff1673ffffffffffffffffffffffffffffffffffffffff1681526020019081526020016000205461331890919063ffffffff16565b600760003073ffffffffffffffffffffffffffffffffffffffff1673ffffffffffffffffffffffffffffffffffffffff168152602001908152602001600020819055506000841115612b7e57612a3f8460076000600b60009054906101000a900473ffffffffffffffffffffffffffffffffffffffff1673ffffffffffffffffffffffffffffffffffffffff1673ffffffffffffffffffffffffffffffffffffffff1681526020019081526020016000205461333490919063ffffffff16565b60076000600b60009054906101000a900473ffffffffffffffffffffffffffffffffffffffff1673ffffffffffffffffffffffffffffffffffffffff1673ffffffffffffffffffffffffffffffffffffffff16815260200190815260200160002081905550612b188460076000600a60009054906101000a900473ffffffffffffffffffffffffffffffffffffffff1673ffffffffffffffffffffffffffffffffffffffff1673ffffffffffffffffffffffffffffffffffffffff1681526020019081526020016000205461331890919063ffffffff16565b60076000600a60009054906101000a900473ffffffffffffffffffffffffffffffffffffffff1673ffffffffffffffffffffffffffffffffffffffff1673ffffffffffffffffffffffffffffffffffffffff168152602001908152602001600020819055505b7f0c526103b8f47af5516191d0c89a598755bd00faa211a3cb52e4c2cc782f7fe2856040518082815260200191505060405180910390a1505050505050565b7f6973737565000000000000000000000000000000000000000000000000000000600160003373ffffffffffffffffffffffffffffffffffffffff1673ffffffffffffffffffffffffffffffffffffffff1681526020019081526020016000206000826000191660001916815260200190815260200160002060009054906101000a900460ff161515612c4f57600080fd5b612c648260065461333490919063ffffffff16565b600681905550612cbc82600760003073ffffffffffffffffffffffffffffffffffffffff1673ffffffffffffffffffffffffffffffffffffffff1681526020019081526020016000205461333490919063ffffffff16565b600760003073ffffffffffffffffffffffffffffffffffffffff1673ffffffffffffffffffffffffffffffffffffffff168152602001908152602001600020819055507f22e0481cfeefc9defe3dece414137b4b644284658facef6d9734c16204cca3f0826040518082815260200191505060405180910390a15050565b6000612d473384846133b0565b905092915050565b6000600860008473ffffffffffffffffffffffffffffffffffffffff1673ffffffffffffffffffffffffffffffffffffffff16815260200190815260200160002060008373ffffffffffffffffffffffffffffffffffffffff1673ffffffffffffffffffffffffffffffffffffffff16815260200190815260200160002054905092915050565b6000809054906101000a900473ffffffffffffffffffffffffffffffffffffffff1673ffffffffffffffffffffffffffffffffffffffff163373ffffffffffffffffffffffffffffffffffffffff16141515612e3157600080fd5b600073ffffffffffffffffffffffffffffffffffffffff168173ffffffffffffffffffffffffffffffffffffffff1614151515612e6d57600080fd5b8073ffffffffffffffffffffffffffffffffffffffff166000809054906101000a900473ffffffffffffffffffffffffffffffffffffffff1673ffffffffffffffffffffffffffffffffffffffff167f70aea8d848e8a90fb7661b227dc522eb6395c3dac71b63cb59edd5c9899b236460405160405180910390a3806000806101000a81548173ffffffffffffffffffffffffffffffffffffffff021916908373ffffffffffffffffffffffffffffffffffffffff16021790555050565b6000809054906101000a900473ffffffffffffffffffffffffffffffffffffffff1673ffffffffffffffffffffffffffffffffffffffff163373ffffffffffffffffffffffffffffffffffffffff16141515612f8657600080fd5b60018060008473ffffffffffffffffffffffffffffffffffffffff1673ffffffffffffffffffffffffffffffffffffffff1681526020019081526020016000206000836000191660001916815260200190815260200160002060006101000a81548160ff0219169083151502179055508173ffffffffffffffffffffffffffffffffffffffff167fc65937e3dbcb9fb30f646815dd67a3dbd09ba17718cbcb54efbe3635f8e0a6fe8260405180826000191660001916815260200191505060405180910390a25050565b61309733858585858080601f01602080910402602001604051908101604052809392919081815260200183838082843782019150505050505061309288613355565b6135e4565b50505050565b82600760008773ffffffffffffffffffffffffffffffffffffffff1673ffffffffffffffffffffffffffffffffffffffff16815260200190815260200160002054101515156130eb57600080fd5b82600860008773ffffffffffffffffffffffffffffffffffffffff1673ffffffffffffffffffffffffffffffffffffffff16815260200190815260200160002060003373ffffffffffffffffffffffffffffffffffffffff1673ffffffffffffffffffffffffffffffffffffffff168152602001908152602001600020541015151561317657600080fd5b60008311151561318557600080fd5b6131938585858560006135e4565b60008111156132025761320184600960009054906101000a900473ffffffffffffffffffffffffffffffffffffffff16836040805190810160405280601081526020017f5472616e7366657246726f6d206665650000000000000000000000000000000081525060006135e4565b5b61329183600860008873ffffffffffffffffffffffffffffffffffffffff1673ffffffffffffffffffffffffffffffffffffffff16815260200190815260200160002060003373ffffffffffffffffffffffffffffffffffffffff1673ffffffffffffffffffffffffffffffffffffffff1681526020019081526020016000205461331890919063ffffffff16565b600860008773ffffffffffffffffffffffffffffffffffffffff1673ffffffffffffffffffffffffffffffffffffffff16815260200190815260200160002060003373ffffffffffffffffffffffffffffffffffffffff1673ffffffffffffffffffffffffffffffffffffffff168152602001908152602001600020819055505050505050565b600082821115151561332957600080fd5b818303905092915050565b600080828401905083811015151561334b57600080fd5b8091505092915050565b6000613381620f4240613373600c5485613a2d90919063ffffffff16565b613a6390919063ffffffff16565b9050600e5481111561339757600e5490506133a8565b600d548110156133a757600d5490505b5b809050919050565b60008273ffffffffffffffffffffffffffffffffffffffff168473ffffffffffffffffffffffffffffffffffffffff16141515156133ed57600080fd5b61347c82600860008773ffffffffffffffffffffffffffffffffffffffff1673ffffffffffffffffffffffffffffffffffffffff16815260200190815260200160002060008673ffffffffffffffffffffffffffffffffffffffff1673ffffffffffffffffffffffffffffffffffffffff1681526020019081526020016000205461333490919063ffffffff16565b600860008673ffffffffffffffffffffffffffffffffffffffff1673ffffffffffffffffffffffffffffffffffffffff16815260200190815260200160002060008573ffffffffffffffffffffffffffffffffffffffff1673ffffffffffffffffffffffffffffffffffffffff168152602001908152602001600020819055508273ffffffffffffffffffffffffffffffffffffffff168473ffffffffffffffffffffffffffffffffffffffff167f8c5be1e5ebec7d5bd14f71427d1e84f3dd0314c0f7b2291e5b200ac8c7c3b925600860008873ffffffffffffffffffffffffffffffffffffffff1673ffffffffffffffffffffffffffffffffffffffff16815260200190815260200160002060008773ffffffffffffffffffffffffffffffffffffffff1673ffffffffffffffffffffffffffffffffffffffff168152602001908152602001600020546040518082815260200191505060405180910390a39392505050565b8373ffffffffffffffffffffffffffffffffffffffff168573ffffffffffffffffffffffffffffffffffffffff161415151561361f57600080fd5b60008311151561362e57600080fd5b60008111156137bc576136ab8160076000600960009054906101000a900473ffffffffffffffffffffffffffffffffffffffff1673ffffffffffffffffffffffffffffffffffffffff1673ffffffffffffffffffffffffffffffffffffffff1681526020019081526020016000205461333490919063ffffffff16565b60076000600960009054906101000a900473ffffffffffffffffffffffffffffffffffffffff1673ffffffffffffffffffffffffffffffffffffffff1673ffffffffffffffffffffffffffffffffffffffff168152602001908152602001600020819055506137748161376685600760008a73ffffffffffffffffffffffffffffffffffffffff1673ffffffffffffffffffffffffffffffffffffffff1681526020019081526020016000205461331890919063ffffffff16565b61331890919063ffffffff16565b600760008773ffffffffffffffffffffffffffffffffffffffff1673ffffffffffffffffffffffffffffffffffffffff16815260200190815260200160002081905550613852565b61380e83600760008873ffffffffffffffffffffffffffffffffffffffff1673ffffffffffffffffffffffffffffffffffffffff1681526020019081526020016000205461331890919063ffffffff16565b600760008773ffffffffffffffffffffffffffffffffffffffff1673ffffffffffffffffffffffffffffffffffffffff168152602001908152602001600020819055505b6138a483600760008773ffffffffffffffffffffffffffffffffffffffff1673ffffffffffffffffffffffffffffffffffffffff1681526020019081526020016000205461333490919063ffffffff16565b600760008673ffffffffffffffffffffffffffffffffffffffff1673ffffffffffffffffffffffffffffffffffffffff168152602001908152602001600020819055508373ffffffffffffffffffffffffffffffffffffffff168573ffffffffffffffffffffffffffffffffffffffff167fddf252ad1be2c89b69c2b068fc378daa952ba7f163c4a11628f55a4df523b3ef856040518082815260200191505060405180910390a38373ffffffffffffffffffffffffffffffffffffffff168573ffffffffffffffffffffffffffffffffffffffff167f3c37a37469220e9bdcb1e8083efdcac8373f1448f59b5c4b23ebe3a0723642b28585856040518084815260200180602001838152602001828103825284818151815260200191508051906020019080838360005b838110156139ea5780820151818401526020810190506139cf565b50505050905090810190601f168015613a175780820380516001836020036101000a031916815260200191505b5094505050505060405180910390a35050505050565b60008082840290506000841480613a4e5750828482811515613a4b57fe5b04145b1515613a5957600080fd5b8091505092915050565b6000808284811515613a7157fe5b04905080915050929150505600a165627a7a723058204252c0e28bf37c82727a6dfbbe95fa0c96088717a96ea0336f1719022efa78910029",
  "source": "/* Contract ONLY for testing */\npragma solidity 0.4.18;\nimport \"../generic/AugmintToken.sol\";\n\n\ncontract TokenAceMock is AugmintToken {\n\n    function TokenAceMock(address _feeAccount, address _interestPoolAccount, address _interestEarnedAccount,\n        uint _transferFeePt, uint _transferFeeMin, uint _transferFeeMax)\n    public AugmintToken(\"Augmint TEST Crypto EUR\", \"ACET\", \"EUR\", 4, _feeAccount, _interestPoolAccount,\n        _interestEarnedAccount, _transferFeePt, _transferFeeMin, _transferFeeMax)\n    {} // solhint-disable-line no-empty-blocks\n\n    function issue(uint amount) external restrict(\"issue\") {\n        totalSupply = totalSupply.add(amount);\n        balances[this] = balances[this].add(amount);\n        TokenIssued(amount);\n    }\n\n    function burn(uint amount) external restrict(\"burn\") {\n        require(amount <= balances[this]);\n        totalSupply = totalSupply.sub(amount);\n        balances[this] = balances[this].sub(amount);\n        TokenBurned(amount);\n    }\n\n    function withdrawTokens(address _to, uint _amount) external restrict(\"withdrawTokens\") {\n        require(_amount <= balances[this]);\n        balances[this] = balances[this].sub(_amount);\n        balances[_to] = balances[_to].add(_amount);\n    }\n\n}\n",
  "sourcePath": "/Users/petro/ether/dcm-poc/contracts/mocks/TokenAceMock.sol",
  "compiler": {
    "name": "solc",
    "version": "0.4.18+commit.9cf6e910.Emscripten.clang"
  },
  "schemaVersion": "1.0.1",
  "updatedAt": "2018-01-10T20:22:33.725Z"
}