{
  "contractName": "TokenUcd",
  "abi": [
    {
      "constant": true,
      "inputs": [],
      "name": "name",
      "outputs": [
        {
          "name": "",
          "type": "string"
        }
      ],
      "payable": false,
      "type": "function",
      "stateMutability": "view"
    },
    {
      "constant": false,
      "inputs": [
        {
          "name": "_spender",
          "type": "address"
        },
        {
          "name": "_amount",
          "type": "uint256"
        }
      ],
      "name": "approve",
      "outputs": [
        {
          "name": "success",
          "type": "bool"
        }
      ],
      "payable": false,
      "type": "function",
      "stateMutability": "nonpayable"
    },
    {
      "constant": false,
      "inputs": [
        {
          "name": "_new",
          "type": "address"
        }
      ],
      "name": "setOwner",
      "outputs": [],
      "payable": false,
      "type": "function",
      "stateMutability": "nonpayable"
    },
    {
      "constant": true,
      "inputs": [],
      "name": "totalSupply",
      "outputs": [
        {
          "name": "",
          "type": "uint256"
        }
      ],
      "payable": false,
      "type": "function",
      "stateMutability": "view"
    },
    {
      "constant": false,
      "inputs": [
        {
          "name": "_from",
          "type": "address"
        },
        {
          "name": "_to",
          "type": "address"
        },
        {
          "name": "_amount",
          "type": "uint256"
        }
      ],
      "name": "transferFrom",
      "outputs": [
        {
          "name": "success",
          "type": "bool"
        }
      ],
      "payable": false,
      "type": "function",
      "stateMutability": "nonpayable"
    },
    {
      "constant": false,
      "inputs": [
        {
          "name": "borrower",
          "type": "address"
        },
        {
          "name": "ucdDueAtMaturity",
          "type": "uint256"
        },
        {
          "name": "narrative",
          "type": "string"
        }
      ],
      "name": "repayAndBurnUcd",
      "outputs": [
        {
          "name": "result",
          "type": "int8"
        }
      ],
      "payable": false,
      "type": "function",
      "stateMutability": "nonpayable"
    },
    {
      "constant": true,
      "inputs": [],
      "name": "getUcdReserveBalance",
      "outputs": [
        {
          "name": "balance",
          "type": "uint256"
        }
      ],
      "payable": false,
      "type": "function",
      "stateMutability": "view"
    },
    {
      "constant": false,
      "inputs": [
        {
          "name": "borrower",
          "type": "address"
        },
        {
          "name": "ucdDueAtMaturity",
          "type": "uint256"
        },
        {
          "name": "disbursedLoanInUcd",
          "type": "uint256"
        },
        {
          "name": "narrative",
          "type": "string"
        }
      ],
      "name": "issueAndDisburseUcd",
      "outputs": [
        {
          "name": "result",
          "type": "int8"
        }
      ],
      "payable": false,
      "type": "function",
      "stateMutability": "nonpayable"
    },
    {
      "constant": true,
      "inputs": [],
      "name": "decimals",
      "outputs": [
        {
          "name": "",
          "type": "uint8"
        }
      ],
      "payable": false,
      "type": "function",
      "stateMutability": "view"
    },
    {
      "constant": true,
      "inputs": [],
      "name": "loanManagerAddress",
      "outputs": [
        {
          "name": "",
          "type": "address"
        }
      ],
      "payable": false,
      "type": "function",
      "stateMutability": "view"
    },
    {
      "constant": true,
      "inputs": [],
      "name": "ERR_NOT_AUTHORISED",
      "outputs": [
        {
          "name": "",
          "type": "int8"
        }
      ],
      "payable": false,
      "type": "function",
      "stateMutability": "view"
    },
    {
      "constant": true,
      "inputs": [
        {
          "name": "_owner",
          "type": "address"
        }
      ],
      "name": "balanceOf",
      "outputs": [
        {
          "name": "balance",
          "type": "uint256"
        }
      ],
      "payable": false,
      "type": "function",
      "stateMutability": "view"
    },
    {
      "constant": false,
      "inputs": [
        {
          "name": "amount",
          "type": "uint256"
        }
      ],
      "name": "burnUcd",
      "outputs": [
        {
          "name": "result",
          "type": "int8"
        }
      ],
      "payable": false,
      "type": "function",
      "stateMutability": "nonpayable"
    },
    {
      "constant": true,
      "inputs": [],
      "name": "ERR_RESERVE_BALANCE_NOT_ENOUGH",
      "outputs": [
        {
          "name": "",
          "type": "int8"
        }
      ],
      "payable": false,
      "type": "function",
      "stateMutability": "view"
    },
    {
      "constant": true,
      "inputs": [],
      "name": "owner",
      "outputs": [
        {
          "name": "",
          "type": "address"
        }
      ],
      "payable": false,
      "type": "function",
      "stateMutability": "view"
    },
    {
      "constant": true,
      "inputs": [],
      "name": "symbol",
      "outputs": [
        {
          "name": "",
          "type": "string"
        }
      ],
      "payable": false,
      "type": "function",
      "stateMutability": "view"
    },
    {
      "constant": true,
      "inputs": [],
      "name": "exchangeAddress",
      "outputs": [
        {
          "name": "",
          "type": "address"
        }
      ],
      "payable": false,
      "type": "function",
      "stateMutability": "view"
    },
    {
      "constant": false,
      "inputs": [
        {
          "name": "_to",
          "type": "address"
        },
        {
          "name": "_amount",
          "type": "uint256"
        }
      ],
      "name": "transfer",
      "outputs": [
        {
          "name": "success",
          "type": "bool"
        }
      ],
      "payable": false,
      "type": "function",
      "stateMutability": "nonpayable"
    },
    {
      "constant": true,
      "inputs": [],
      "name": "ERR_UCD_BALANCE_NOT_ENOUGH",
      "outputs": [
        {
          "name": "",
          "type": "int8"
        }
      ],
      "payable": false,
      "type": "function",
      "stateMutability": "view"
    },
    {
      "constant": false,
      "inputs": [
        {
          "name": "newAddress",
          "type": "address"
        }
      ],
      "name": "setExchangeAddress",
      "outputs": [
        {
          "name": "result",
          "type": "int8"
        }
      ],
      "payable": false,
      "type": "function",
      "stateMutability": "nonpayable"
    },
    {
      "constant": true,
      "inputs": [],
      "name": "SUCCESS",
      "outputs": [
        {
          "name": "",
          "type": "int8"
        }
      ],
      "payable": false,
      "type": "function",
      "stateMutability": "view"
    },
    {
      "constant": false,
      "inputs": [
        {
          "name": "_from",
          "type": "address"
        },
        {
          "name": "_to",
          "type": "address"
        },
        {
          "name": "_amount",
          "type": "uint256"
        },
        {
          "name": "narrative",
          "type": "string"
        }
      ],
      "name": "systemTransfer",
      "outputs": [
        {
          "name": "success",
          "type": "bool"
        }
      ],
      "payable": false,
      "type": "function",
      "stateMutability": "nonpayable"
    },
    {
      "constant": false,
      "inputs": [
        {
          "name": "amount",
          "type": "uint256"
        }
      ],
      "name": "issueUcd",
      "outputs": [
        {
          "name": "result",
          "type": "int8"
        }
      ],
      "payable": false,
      "type": "function",
      "stateMutability": "nonpayable"
    },
    {
      "constant": false,
      "inputs": [
        {
          "name": "newAddress",
          "type": "address"
        }
      ],
      "name": "setLoanManagerAddress",
      "outputs": [
        {
          "name": "result",
          "type": "int8"
        }
      ],
      "payable": false,
      "type": "function",
      "stateMutability": "nonpayable"
    },
    {
      "constant": false,
      "inputs": [
        {
          "name": "amount",
          "type": "uint256"
        }
      ],
      "name": "getUcdFromReserve",
      "outputs": [
        {
          "name": "result",
          "type": "int8"
        }
      ],
      "payable": false,
      "type": "function",
      "stateMutability": "nonpayable"
    },
    {
      "constant": false,
      "inputs": [
        {
          "name": "_to",
          "type": "address"
        },
        {
          "name": "_amount",
          "type": "uint256"
        },
        {
          "name": "narrative",
          "type": "string"
        }
      ],
      "name": "transferWithNarrative",
      "outputs": [
        {
          "name": "success",
          "type": "bool"
        }
      ],
      "payable": false,
      "type": "function",
      "stateMutability": "nonpayable"
    },
    {
      "payable": true,
      "type": "fallback",
      "stateMutability": "payable"
    },
    {
      "anonymous": false,
      "inputs": [
        {
          "indexed": false,
          "name": "newAddress",
          "type": "address"
        }
      ],
      "name": "e_loanManagerAddressChanged",
      "type": "event"
    },
    {
      "anonymous": false,
      "inputs": [
        {
          "indexed": false,
          "name": "newAddress",
          "type": "address"
        }
      ],
      "name": "e_exchangeAddressChanged",
      "type": "event"
    },
    {
      "anonymous": false,
      "inputs": [
        {
          "indexed": true,
          "name": "from",
          "type": "address"
        },
        {
          "indexed": true,
          "name": "to",
          "type": "address"
        },
        {
          "indexed": false,
          "name": "amount",
          "type": "uint256"
        },
        {
          "indexed": false,
          "name": "narrative",
          "type": "string"
        }
      ],
      "name": "e_transfer",
      "type": "event"
    },
    {
      "anonymous": false,
      "inputs": [
        {
          "indexed": false,
          "name": "amount",
          "type": "uint256"
        }
      ],
      "name": "e_ucdIssued",
      "type": "event"
    },
    {
      "anonymous": false,
      "inputs": [
        {
          "indexed": false,
          "name": "amount",
          "type": "uint256"
        }
      ],
      "name": "e_ucdBurned",
      "type": "event"
    },
    {
      "anonymous": false,
      "inputs": [
        {
          "indexed": true,
          "name": "old",
          "type": "address"
        },
        {
          "indexed": true,
          "name": "current",
          "type": "address"
        }
      ],
      "name": "NewOwner",
      "type": "event"
    }
  ],
  "bytecode": "0x606060405233600360006101000a81548173ffffffffffffffffffffffffffffffffffffffff021916908373ffffffffffffffffffffffffffffffffffffffff160217905550612225806100546000396000f300606060405260043610610154576000357c0100000000000000000000000000000000000000000000000000000000900463ffffffff16806306fdde0314610156578063095ea7b3146101e457806313af40351461023e57806318160ddd1461027757806323b872dd146102a057806328dfa43d146103195780632b9cb0ef146103b85780632c4a958e146103e1578063313ce5671461048957806340eefcbf146104b85780636ac2be9e1461050d57806370a082311461053c57806371418a89146105895780638b90178e146105c65780638da5cb5b146105f557806395d89b411461064a5780639cd01605146106d8578063a9059cbb1461072d578063ca45737214610787578063d082ea8c146107b6578063d0a6d1a614610809578063d1a48c3614610838578063d24afd74146108f4578063da09bd4a14610931578063ebe9512814610984578063ffdcf095146109c1575b005b341561016157600080fd5b610169610a5e565b6040518080602001828103825283818151815260200191508051906020019080838360005b838110156101a957808201518184015260208101905061018e565b50505050905090810190601f1680156101d65780820380516001836020036101000a031916815260200191505b509250505060405180910390f35b34156101ef57600080fd5b610224600480803573ffffffffffffffffffffffffffffffffffffffff16906020019091908035906020019091905050610a97565b604051808215151515815260200191505060405180910390f35b341561024957600080fd5b610275600480803573ffffffffffffffffffffffffffffffffffffffff16906020019091905050610b5f565b005b341561028257600080fd5b61028a610c76565b6040518082815260200191505060405180910390f35b34156102ab57600080fd5b6102ff600480803573ffffffffffffffffffffffffffffffffffffffff1690602001909190803573ffffffffffffffffffffffffffffffffffffffff16906020019091908035906020019091905050610c7c565b604051808215151515815260200191505060405180910390f35b341561032457600080fd5b61039c600480803573ffffffffffffffffffffffffffffffffffffffff1690602001909190803590602001909190803590602001908201803590602001908080601f01602080910402602001604051908101604052809392919081815260200183838082843782019150505050505091905050610d1c565b604051808260000b60000b815260200191505060405180910390f35b34156103c357600080fd5b6103cb610e4a565b6040518082815260200191505060405180910390f35b34156103ec57600080fd5b61046d600480803573ffffffffffffffffffffffffffffffffffffffff1690602001909190803590602001909190803590602001909190803590602001908201803590602001908080601f01602080910402602001604051908101604052809392919081815260200183838082843782019150505050505091905050610e91565b604051808260000b60000b815260200191505060405180910390f35b341561049457600080fd5b61049c61100f565b604051808260ff1660ff16815260200191505060405180910390f35b34156104c357600080fd5b6104cb611014565b604051808273ffffffffffffffffffffffffffffffffffffffff1673ffffffffffffffffffffffffffffffffffffffff16815260200191505060405180910390f35b341561051857600080fd5b61052061103a565b604051808260000b60000b815260200191505060405180910390f35b341561054757600080fd5b610573600480803573ffffffffffffffffffffffffffffffffffffffff1690602001909190505061105e565b6040518082815260200191505060405180910390f35b341561059457600080fd5b6105aa60048080359060200190919050506110a7565b604051808260000b60000b815260200191505060405180910390f35b34156105d157600080fd5b6105d9611260565b604051808260000b60000b815260200191505060405180910390f35b341561060057600080fd5b610608611284565b604051808273ffffffffffffffffffffffffffffffffffffffff1673ffffffffffffffffffffffffffffffffffffffff16815260200191505060405180910390f35b341561065557600080fd5b61065d6112aa565b6040518080602001828103825283818151815260200191508051906020019080838360005b8381101561069d578082015181840152602081019050610682565b50505050905090810190601f1680156106ca5780820380516001836020036101000a031916815260200191505b509250505060405180910390f35b34156106e357600080fd5b6106eb6112e3565b604051808273ffffffffffffffffffffffffffffffffffffffff1673ffffffffffffffffffffffffffffffffffffffff16815260200191505060405180910390f35b341561073857600080fd5b61076d600480803573ffffffffffffffffffffffffffffffffffffffff16906020019091908035906020019091905050611309565b604051808215151515815260200191505060405180910390f35b341561079257600080fd5b61079a61132e565b604051808260000b60000b815260200191505060405180910390f35b34156107c157600080fd5b6107ed600480803573ffffffffffffffffffffffffffffffffffffffff16906020019091905050611352565b604051808260000b60000b815260200191505060405180910390f35b341561081457600080fd5b61081c611458565b604051808260000b60000b815260200191505060405180910390f35b341561084357600080fd5b6108da600480803573ffffffffffffffffffffffffffffffffffffffff1690602001909190803573ffffffffffffffffffffffffffffffffffffffff1690602001909190803590602001909190803590602001908201803590602001908080601f0160208091040260200160405190810160405280939291908181526020018383808284378201915050505050509190505061145d565b604051808215151515815260200191505060405180910390f35b34156108ff57600080fd5b6109156004808035906020019091905050611648565b604051808260000b60000b815260200191505060405180910390f35b341561093c57600080fd5b610968600480803573ffffffffffffffffffffffffffffffffffffffff16906020019091905050611791565b604051808260000b60000b815260200191505060405180910390f35b341561098f57600080fd5b6109a56004808035906020019091905050611897565b604051808260000b60000b815260200191505060405180910390f35b34156109cc57600080fd5b610a44600480803573ffffffffffffffffffffffffffffffffffffffff1690602001909190803590602001909190803590602001908201803590602001908080601f01602080910402602001604051908101604052809392919081815260200183838082843782019150505050505091905050611a93565b604051808215151515815260200191505060405180910390f35b6040805190810160405280601081526020017f55532043727970746f20446f6c6c61720000000000000000000000000000000081525081565b60008273ffffffffffffffffffffffffffffffffffffffff163373ffffffffffffffffffffffffffffffffffffffff1614151515610ad457600080fd5b81600260003373ffffffffffffffffffffffffffffffffffffffff1673ffffffffffffffffffffffffffffffffffffffff16815260200190815260200160002060008573ffffffffffffffffffffffffffffffffffffffff1673ffffffffffffffffffffffffffffffffffffffff168152602001908152602001600020819055506001905092915050565b600360009054906101000a900473ffffffffffffffffffffffffffffffffffffffff1673ffffffffffffffffffffffffffffffffffffffff163373ffffffffffffffffffffffffffffffffffffffff161415610c73578073ffffffffffffffffffffffffffffffffffffffff16600360009054906101000a900473ffffffffffffffffffffffffffffffffffffffff1673ffffffffffffffffffffffffffffffffffffffff167f70aea8d848e8a90fb7661b227dc522eb6395c3dac71b63cb59edd5c9899b236460405160405180910390a380600360006101000a81548173ffffffffffffffffffffffffffffffffffffffff021916908373ffffffffffffffffffffffffffffffffffffffff1602179055505b50565b60005481565b6000610c89848484611b8b565b15610d10578273ffffffffffffffffffffffffffffffffffffffff168473ffffffffffffffffffffffffffffffffffffffff167fb3d876ec2d89cdc0bff0c24cb5dbbe91c80448144771870cbb5e55caee9546208460405180828152602001806020018281038252600081526020016020019250505060405180910390a360019050610d15565b600090505b9392505050565b6000600460009054906101000a900473ffffffffffffffffffffffffffffffffffffffff1673ffffffffffffffffffffffffffffffffffffffff163373ffffffffffffffffffffffffffffffffffffffff16141515610d9d577ffffffffffffffffffffffffffffffffffffffffffffffffffffffffffffffffd9050610e43565b82600160008673ffffffffffffffffffffffffffffffffffffffff1673ffffffffffffffffffffffffffffffffffffffff168152602001908152602001600020541015610e0c577ffffffffffffffffffffffffffffffffffffffffffffffffffffffffffffffffe9050610e43565b610e188430858561145d565b1515610e2357600080fd5b610e3883600054611e2d90919063ffffffff16565b600081905550600190505b9392505050565b6000600160003073ffffffffffffffffffffffffffffffffffffffff1673ffffffffffffffffffffffffffffffffffffffff16815260200190815260200160002054905090565b6000600460009054906101000a900473ffffffffffffffffffffffffffffffffffffffff1673ffffffffffffffffffffffffffffffffffffffff163373ffffffffffffffffffffffffffffffffffffffff16141515610f12577ffffffffffffffffffffffffffffffffffffffffffffffffffffffffffffffffd9050611007565b82841115610fcf57610f2f84600054611e4690919063ffffffff16565b600081905550610f8784600160003073ffffffffffffffffffffffffffffffffffffffff1673ffffffffffffffffffffffffffffffffffffffff16815260200190815260200160002054611e4690919063ffffffff16565b600160003073ffffffffffffffffffffffffffffffffffffffff1673ffffffffffffffffffffffffffffffffffffffff16815260200190815260200160002081905550610feb565b610fe483600054611e4690919063ffffffff16565b6000819055505b610ff73086858561145d565b151561100257600080fd5b600190505b949350505050565b600481565b600460009054906101000a900473ffffffffffffffffffffffffffffffffffffffff1681565b7ffffffffffffffffffffffffffffffffffffffffffffffffffffffffffffffffd81565b6000600160008373ffffffffffffffffffffffffffffffffffffffff1673ffffffffffffffffffffffffffffffffffffffff168152602001908152602001600020549050919050565b6000600360009054906101000a900473ffffffffffffffffffffffffffffffffffffffff1673ffffffffffffffffffffffffffffffffffffffff163373ffffffffffffffffffffffffffffffffffffffff16141561125b57600160003073ffffffffffffffffffffffffffffffffffffffff1673ffffffffffffffffffffffffffffffffffffffff1681526020019081526020016000205482111561116e577fffffffffffffffffffffffffffffffffffffffffffffffffffffffffffffffff905061125a565b61118382600054611e2d90919063ffffffff16565b6000819055506111db82600160003073ffffffffffffffffffffffffffffffffffffffff1673ffffffffffffffffffffffffffffffffffffffff16815260200190815260200160002054611e2d90919063ffffffff16565b600160003073ffffffffffffffffffffffffffffffffffffffff1673ffffffffffffffffffffffffffffffffffffffff168152602001908152602001600020819055507f36201c46a263f814b8c4987575e0d805ee31d78e79d1b4aed5f95d7c02933e5d826040518082815260200191505060405180910390a1600190505b5b919050565b7fffffffffffffffffffffffffffffffffffffffffffffffffffffffffffffffff81565b600360009054906101000a900473ffffffffffffffffffffffffffffffffffffffff1681565b6040805190810160405280600381526020017f554344000000000000000000000000000000000000000000000000000000000081525081565b600560009054906101000a900473ffffffffffffffffffffffffffffffffffffffff1681565b600061132683836020604051908101604052806000815250611a93565b905092915050565b7ffffffffffffffffffffffffffffffffffffffffffffffffffffffffffffffffe81565b6000600360009054906101000a900473ffffffffffffffffffffffffffffffffffffffff1673ffffffffffffffffffffffffffffffffffffffff163373ffffffffffffffffffffffffffffffffffffffff1614156114535781600560006101000a81548173ffffffffffffffffffffffffffffffffffffffff021916908373ffffffffffffffffffffffffffffffffffffffff1602179055507faa20649ee6d7a1749d66a7e4a9482bcaf13735dde9fddd027ce53611f5ef47c182604051808273ffffffffffffffffffffffffffffffffffffffff1673ffffffffffffffffffffffffffffffffffffffff16815260200191505060405180910390a1600190505b919050565b600181565b6000600560009054906101000a900473ffffffffffffffffffffffffffffffffffffffff1673ffffffffffffffffffffffffffffffffffffffff163373ffffffffffffffffffffffffffffffffffffffff1614806115085750600460009054906101000a900473ffffffffffffffffffffffffffffffffffffffff1673ffffffffffffffffffffffffffffffffffffffff163373ffffffffffffffffffffffffffffffffffffffff16145b151561151357600080fd5b8373ffffffffffffffffffffffffffffffffffffffff168573ffffffffffffffffffffffffffffffffffffffff1614156115505760009050611640565b61155b858585611e64565b1561163b578373ffffffffffffffffffffffffffffffffffffffff168573ffffffffffffffffffffffffffffffffffffffff167fb3d876ec2d89cdc0bff0c24cb5dbbe91c80448144771870cbb5e55caee95462085856040518083815260200180602001828103825283818151815260200191508051906020019080838360005b838110156115f75780820151818401526020810190506115dc565b50505050905090810190601f1680156116245780820380516001836020036101000a031916815260200191505b50935050505060405180910390a360019050611640565b600090505b949350505050565b6000600360009054906101000a900473ffffffffffffffffffffffffffffffffffffffff1673ffffffffffffffffffffffffffffffffffffffff163373ffffffffffffffffffffffffffffffffffffffff16141561178c576116b582600054611e4690919063ffffffff16565b60008190555061170d82600160003073ffffffffffffffffffffffffffffffffffffffff1673ffffffffffffffffffffffffffffffffffffffff16815260200190815260200160002054611e4690919063ffffffff16565b600160003073ffffffffffffffffffffffffffffffffffffffff1673ffffffffffffffffffffffffffffffffffffffff168152602001908152602001600020819055507f5f9eca792ef010f5c4b5b4314122a63698157b8dbbc17344fa9d6713ab62a0fe826040518082815260200191505060405180910390a1600190505b919050565b6000600360009054906101000a900473ffffffffffffffffffffffffffffffffffffffff1673ffffffffffffffffffffffffffffffffffffffff163373ffffffffffffffffffffffffffffffffffffffff1614156118925781600460006101000a81548173ffffffffffffffffffffffffffffffffffffffff021916908373ffffffffffffffffffffffffffffffffffffffff1602179055507fab5b35579f32673e56d1369471531f244de4fccc5bbe0bb9ca7566ece0cd27e382604051808273ffffffffffffffffffffffffffffffffffffffff1673ffffffffffffffffffffffffffffffffffffffff16815260200191505060405180910390a1600190505b919050565b6000600360009054906101000a900473ffffffffffffffffffffffffffffffffffffffff1673ffffffffffffffffffffffffffffffffffffffff163373ffffffffffffffffffffffffffffffffffffffff161415611a8e57600160003073ffffffffffffffffffffffffffffffffffffffff1673ffffffffffffffffffffffffffffffffffffffff1681526020019081526020016000205482111561195e577fffffffffffffffffffffffffffffffffffffffffffffffffffffffffffffffff9050611a8d565b6119b082600160003073ffffffffffffffffffffffffffffffffffffffff1673ffffffffffffffffffffffffffffffffffffffff16815260200190815260200160002054611e2d90919063ffffffff16565b600160003073ffffffffffffffffffffffffffffffffffffffff1673ffffffffffffffffffffffffffffffffffffffff16815260200190815260200160002081905550611a4582600160003373ffffffffffffffffffffffffffffffffffffffff1673ffffffffffffffffffffffffffffffffffffffff16815260200190815260200160002054611e4690919063ffffffff16565b600160003373ffffffffffffffffffffffffffffffffffffffff1673ffffffffffffffffffffffffffffffffffffffff16815260200190815260200160002081905550600190505b5b919050565b6000611a9f848461202f565b15611b7f578373ffffffffffffffffffffffffffffffffffffffff163373ffffffffffffffffffffffffffffffffffffffff167fb3d876ec2d89cdc0bff0c24cb5dbbe91c80448144771870cbb5e55caee95462085856040518083815260200180602001828103825283818151815260200191508051906020019080838360005b83811015611b3b578082015181840152602081019050611b20565b50505050905090810190601f168015611b685780820380516001836020036101000a031916815260200191505b50935050505060405180910390a360019050611b84565b600090505b9392505050565b600081600160008673ffffffffffffffffffffffffffffffffffffffff1673ffffffffffffffffffffffffffffffffffffffff1681526020019081526020016000205410158015611c58575081600260008673ffffffffffffffffffffffffffffffffffffffff1673ffffffffffffffffffffffffffffffffffffffff16815260200190815260200160002060003373ffffffffffffffffffffffffffffffffffffffff1673ffffffffffffffffffffffffffffffffffffffff1681526020019081526020016000205410155b8015611c645750600082115b8015611cef5750600160008473ffffffffffffffffffffffffffffffffffffffff1673ffffffffffffffffffffffffffffffffffffffff1681526020019081526020016000205482600160008673ffffffffffffffffffffffffffffffffffffffff1673ffffffffffffffffffffffffffffffffffffffff1681526020019081526020016000205401115b15611e215781600160008673ffffffffffffffffffffffffffffffffffffffff1673ffffffffffffffffffffffffffffffffffffffff1681526020019081526020016000206000828254039250508190555081600260008673ffffffffffffffffffffffffffffffffffffffff1673ffffffffffffffffffffffffffffffffffffffff16815260200190815260200160002060003373ffffffffffffffffffffffffffffffffffffffff1673ffffffffffffffffffffffffffffffffffffffff1681526020019081526020016000206000828254039250508190555081600160008573ffffffffffffffffffffffffffffffffffffffff1673ffffffffffffffffffffffffffffffffffffffff1681526020019081526020016000206000828254019250508190555060019050611e26565b600090505b9392505050565b6000828211151515611e3b57fe5b818303905092915050565b6000808284019050838110151515611e5a57fe5b8091505092915050565b60008273ffffffffffffffffffffffffffffffffffffffff168473ffffffffffffffffffffffffffffffffffffffff1614151515611ea157600080fd5b81600160008673ffffffffffffffffffffffffffffffffffffffff1673ffffffffffffffffffffffffffffffffffffffff1681526020019081526020016000205410158015611ef05750600082115b8015611f7b5750600160008473ffffffffffffffffffffffffffffffffffffffff1673ffffffffffffffffffffffffffffffffffffffff1681526020019081526020016000205482600160008673ffffffffffffffffffffffffffffffffffffffff1673ffffffffffffffffffffffffffffffffffffffff1681526020019081526020016000205401115b156120235781600160008673ffffffffffffffffffffffffffffffffffffffff1673ffffffffffffffffffffffffffffffffffffffff1681526020019081526020016000206000828254039250508190555081600160008573ffffffffffffffffffffffffffffffffffffffff1673ffffffffffffffffffffffffffffffffffffffff1681526020019081526020016000206000828254019250508190555060019050612028565b600090505b9392505050565b60008273ffffffffffffffffffffffffffffffffffffffff163373ffffffffffffffffffffffffffffffffffffffff161415151561206c57600080fd5b81600160003373ffffffffffffffffffffffffffffffffffffffff1673ffffffffffffffffffffffffffffffffffffffff16815260200190815260200160002054101580156120bb5750600082115b80156121465750600160008473ffffffffffffffffffffffffffffffffffffffff1673ffffffffffffffffffffffffffffffffffffffff1681526020019081526020016000205482600160008673ffffffffffffffffffffffffffffffffffffffff1673ffffffffffffffffffffffffffffffffffffffff1681526020019081526020016000205401115b156121ee5781600160003373ffffffffffffffffffffffffffffffffffffffff1673ffffffffffffffffffffffffffffffffffffffff1681526020019081526020016000206000828254039250508190555081600160008573ffffffffffffffffffffffffffffffffffffffff1673ffffffffffffffffffffffffffffffffffffffff16815260200190815260200160002060008282540192505081905550600190506121f3565b600090505b929150505600a165627a7a72305820baab94bb20513566098d3cf8b89da9567577064c0b9cc8b09016bbe8fa85efd30029",
  "source": "/* UCD Token implementation (ERC20 token)\n    This contract manages:\n        * Balances of UCD holders and transactions between them\n        * Issues and burns UCD\n            - manually by the contract owner or\n            - automatically when new UCD loan issued or repaid\n        * Holds ETH reserve (as regular ETH balance of the contract)\n            from defaulted loans\n            TBD: ETH bought by owner for UCD\n        * Holds UCD reserve (stored as regular UCD balance under the contract address)\n            from ETH collateral sold on auctions (from defauleted loans)\n            newly issued UCD (UCD reserve)\n\n        Note that all reserves are held under the contract address,\n          therefore any transaction on the reserve is limited to the tx-s defined here\n          (ie. transfer of reserve is not possible by the contract owner)\n\n    TODO: decision making mechanism (ie. replace all onlyOwner)\n    TODO: implement ETH/UCD transfer for sale (ie. transfer from UCD or ETH reserves to exchange by owner)\n    TODO: consider moving reserve to a separate contract\n    TODO: add reentrancy protection\n    TODO: remove test functions (issue/burnUcd, getUcdFromReserve)\n    TODO: check more security best practices, eg: https://github.com/ConsenSys/smart-contract-best-practices, https://github.com/OpenZeppelin/zeppelin-solidity\n    TODO: move ERR all error code constants to lib/separate contract\n    TODO: any point for ECR20Impl and TokenUcd separation now?\n*/\npragma solidity ^0.4.11;\nimport \"./Owned.sol\";\nimport \"./SafeMath.sol\";\nimport \"./ERC20Impl.sol\";\n\ncontract TokenUcd is ERC20Impl, owned {\n    using SafeMath for uint256;\n    string public constant name = \"US Crypto Dollar\";\n    string public constant symbol = \"UCD\";\n    uint8 public constant decimals = 4; // TODO: check if 4 enough - assuming rate will be around USD\n\n    int8 constant public SUCCESS = 1;\n    int8 constant public ERR_RESERVE_BALANCE_NOT_ENOUGH = -1;\n    int8 public constant ERR_UCD_BALANCE_NOT_ENOUGH = -2;\n    int8 constant public ERR_NOT_AUTHORISED = -3;\n\n    address public loanManagerAddress; // used for authorisation of issuing UCD for loans\n    address public exchangeAddress; // for authorisation of transferExchange()\n\n    function () payable {} // to accept ETH sent into reserve (from defaulted loan's collateral )\n\n    function getUcdReserveBalance() constant returns (uint balance) {\n        return balances[this];\n    }\n\n    event e_loanManagerAddressChanged(address newAddress);\n    function setLoanManagerAddress(address newAddress) onlyOwner returns(int8 result) {\n        loanManagerAddress = newAddress;\n        e_loanManagerAddressChanged(newAddress);\n        return SUCCESS;\n    }\n\n    event e_exchangeAddressChanged(address newAddress);\n    function setExchangeAddress(address newAddress) onlyOwner returns(int8 result) {\n        exchangeAddress = newAddress;\n        e_exchangeAddressChanged(newAddress);\n        return SUCCESS;\n    }\n\n    event e_transfer(address indexed from, address indexed to, uint amount, string narrative);\n    function transferFrom(\n        address _from,\n        address _to,\n        uint256 _amount\n    ) returns (bool success) {\n        if (_transferFrom(_from, _to, _amount)) {\n            e_transfer(_from, _to, _amount, \"\");\n            return true;\n        } else {\n            return false;\n        }\n    }\n\n    function transfer(address _to, uint256 _amount) returns (bool success) {\n        return transferWithNarrative(_to, _amount, \"\");\n    }\n\n    function transferWithNarrative(address _to, uint256 _amount, string narrative) returns (bool success) {\n        if ( _transfer(_to, _amount) ) {\n            e_transfer(msg.sender, _to, _amount, narrative);\n            return true;\n        } else {\n            return false;\n        }\n    }\n\n    function systemTransfer(address _from, address _to, uint256 _amount, string narrative) returns (bool success) {\n        require( msg.sender == exchangeAddress || msg.sender == loanManagerAddress);\n        if(_from == _to) { // we don't need to throw in case of transfer b/w own accounts\n            return false;\n        }\n        if ( _transferInternal(_from, _to, _amount) ) {\n            e_transfer(_from, _to, _amount, narrative);\n            return true;\n            } else {\n                return false;\n        }\n    }\n\n    // FIXME: this is only for testing, remove this function\n    event e_ucdIssued(uint amount);\n    function issueUcd(uint amount) onlyOwner returns (int8 result) {\n        totalSupply = totalSupply.add(amount);\n        balances[this] = balances[this].add(amount);\n        e_ucdIssued(amount);\n        return SUCCESS;\n    }\n\n    // FIXME: this is only for testing, remove this function\n    event e_ucdBurned(uint amount);\n    function burnUcd(uint amount) onlyOwner returns (int8 result) {\n        if (amount > balances[this]) {\n            return ERR_RESERVE_BALANCE_NOT_ENOUGH;\n        }\n        totalSupply = totalSupply.sub(amount);\n        balances[this] = balances[this].sub(amount);\n        e_ucdBurned(amount);\n        return SUCCESS;\n    }\n\n    // FIXME: this is only for testing, remove this function\n    function getUcdFromReserve(uint amount) onlyOwner returns (int8 result) {\n        if (amount > balances[this]) {\n            return ERR_RESERVE_BALANCE_NOT_ENOUGH;\n        }\n        balances[this] = balances[this].sub(amount);\n        balances[msg.sender] = balances[msg.sender].add(amount);\n        return SUCCESS;\n    }\n\n    function issueAndDisburseUcd(address borrower, uint ucdDueAtMaturity, uint disbursedLoanInUcd, string narrative) returns (int8 result) {\n        if( msg.sender != loanManagerAddress) {\n            return ERR_NOT_AUTHORISED;\n        }\n        if( ucdDueAtMaturity > disbursedLoanInUcd) {\n            totalSupply = totalSupply.add(ucdDueAtMaturity);\n            balances[this] = balances[this].add(ucdDueAtMaturity);\n        } else {\n            totalSupply = totalSupply.add(disbursedLoanInUcd);\n        }\n        require( systemTransfer(this, borrower, disbursedLoanInUcd, narrative));\n        return SUCCESS;\n    }\n\n    function repayAndBurnUcd(address borrower, uint ucdDueAtMaturity, string narrative) returns (int8 result) {\n        if( msg.sender != loanManagerAddress) {\n            return ERR_NOT_AUTHORISED;\n        }\n        if( balances[borrower] < ucdDueAtMaturity) {\n            return ERR_UCD_BALANCE_NOT_ENOUGH;\n        }\n        require( systemTransfer(borrower, this, ucdDueAtMaturity, narrative));\n        totalSupply = totalSupply.sub(ucdDueAtMaturity);\n        return SUCCESS;\n    }\n\n    // TODO: sell ETH (from reserve) for UCD and add to UCD reserve (do we need this?)\n    // TODO: sell UCD (from reserve) for ETH and add to ETH reserve\n\n}\n",
  "sourcePath": "/Users/petro/ether/dcm-poc/contracts/TokenUcd.sol",
  "compiler": {
    "name": "solc",
    "version": "0.4.18+commit.9cf6e910.Emscripten.clang"
  },
  "schemaVersion": "1.0.1",
  "updatedAt": "2017-11-02T15:35:41.607Z"
}