{
  "contractName": "TokenUcd",
  "abi": [
    {
      "constant": true,
      "inputs": [],
      "name": "name",
      "outputs": [
        {
          "name": "",
          "type": "string"
        }
      ],
      "payable": false,
      "stateMutability": "view",
      "type": "function"
    },
    {
      "constant": false,
      "inputs": [
        {
          "name": "_spender",
          "type": "address"
        },
        {
          "name": "_amount",
          "type": "uint256"
        }
      ],
      "name": "approve",
      "outputs": [
        {
          "name": "success",
          "type": "bool"
        }
      ],
      "payable": false,
      "stateMutability": "nonpayable",
      "type": "function"
    },
    {
      "constant": false,
      "inputs": [
        {
          "name": "_new",
          "type": "address"
        }
      ],
      "name": "setOwner",
      "outputs": [],
      "payable": false,
      "stateMutability": "nonpayable",
      "type": "function"
    },
    {
      "constant": true,
      "inputs": [],
      "name": "totalSupply",
      "outputs": [
        {
          "name": "",
          "type": "uint256"
        }
      ],
      "payable": false,
      "stateMutability": "view",
      "type": "function"
    },
    {
      "constant": false,
      "inputs": [
        {
          "name": "_from",
          "type": "address"
        },
        {
          "name": "_to",
          "type": "address"
        },
        {
          "name": "_amount",
          "type": "uint256"
        }
      ],
      "name": "transferFrom",
      "outputs": [
        {
          "name": "success",
          "type": "bool"
        }
      ],
      "payable": false,
      "stateMutability": "nonpayable",
      "type": "function"
    },
    {
      "constant": false,
      "inputs": [
        {
          "name": "borrower",
          "type": "address"
        },
        {
          "name": "ucdDueAtMaturity",
          "type": "uint256"
        },
        {
          "name": "narrative",
          "type": "string"
        }
      ],
      "name": "repayAndBurnUcd",
      "outputs": [
        {
          "name": "result",
          "type": "int8"
        }
      ],
      "payable": false,
      "stateMutability": "nonpayable",
      "type": "function"
    },
    {
      "constant": true,
      "inputs": [],
      "name": "getUcdReserveBalance",
      "outputs": [
        {
          "name": "balance",
          "type": "uint256"
        }
      ],
      "payable": false,
      "stateMutability": "view",
      "type": "function"
    },
    {
      "constant": false,
      "inputs": [
        {
          "name": "borrower",
          "type": "address"
        },
        {
          "name": "ucdDueAtMaturity",
          "type": "uint256"
        },
        {
          "name": "disbursedLoanInUcd",
          "type": "uint256"
        },
        {
          "name": "narrative",
          "type": "string"
        }
      ],
      "name": "issueAndDisburseUcd",
      "outputs": [
        {
          "name": "result",
          "type": "int8"
        }
      ],
      "payable": false,
      "stateMutability": "nonpayable",
      "type": "function"
    },
    {
      "constant": true,
      "inputs": [],
      "name": "decimals",
      "outputs": [
        {
          "name": "",
          "type": "uint8"
        }
      ],
      "payable": false,
      "stateMutability": "view",
      "type": "function"
    },
    {
      "constant": true,
      "inputs": [],
      "name": "loanManagerAddress",
      "outputs": [
        {
          "name": "",
          "type": "address"
        }
      ],
      "payable": false,
      "stateMutability": "view",
      "type": "function"
    },
    {
      "constant": true,
      "inputs": [],
      "name": "ERR_NOT_AUTHORISED",
      "outputs": [
        {
          "name": "",
          "type": "int8"
        }
      ],
      "payable": false,
      "stateMutability": "view",
      "type": "function"
    },
    {
      "constant": true,
      "inputs": [
        {
          "name": "_owner",
          "type": "address"
        }
      ],
      "name": "balanceOf",
      "outputs": [
        {
          "name": "balance",
          "type": "uint256"
        }
      ],
      "payable": false,
      "stateMutability": "view",
      "type": "function"
    },
    {
      "constant": false,
      "inputs": [
        {
          "name": "amount",
          "type": "uint256"
        }
      ],
      "name": "burnUcd",
      "outputs": [
        {
          "name": "result",
          "type": "int8"
        }
      ],
      "payable": false,
      "stateMutability": "nonpayable",
      "type": "function"
    },
    {
      "constant": true,
      "inputs": [],
      "name": "ERR_RESERVE_BALANCE_NOT_ENOUGH",
      "outputs": [
        {
          "name": "",
          "type": "int8"
        }
      ],
      "payable": false,
      "stateMutability": "view",
      "type": "function"
    },
    {
      "constant": true,
      "inputs": [],
      "name": "owner",
      "outputs": [
        {
          "name": "",
          "type": "address"
        }
      ],
      "payable": false,
      "stateMutability": "view",
      "type": "function"
    },
    {
      "constant": true,
      "inputs": [],
      "name": "symbol",
      "outputs": [
        {
          "name": "",
          "type": "string"
        }
      ],
      "payable": false,
      "stateMutability": "view",
      "type": "function"
    },
    {
      "constant": true,
      "inputs": [],
      "name": "exchangeAddress",
      "outputs": [
        {
          "name": "",
          "type": "address"
        }
      ],
      "payable": false,
      "stateMutability": "view",
      "type": "function"
    },
    {
      "constant": false,
      "inputs": [
        {
          "name": "_to",
          "type": "address"
        },
        {
          "name": "_amount",
          "type": "uint256"
        }
      ],
      "name": "transfer",
      "outputs": [
        {
          "name": "success",
          "type": "bool"
        }
      ],
      "payable": false,
      "stateMutability": "nonpayable",
      "type": "function"
    },
    {
      "constant": true,
      "inputs": [],
      "name": "ERR_UCD_BALANCE_NOT_ENOUGH",
      "outputs": [
        {
          "name": "",
          "type": "int8"
        }
      ],
      "payable": false,
      "stateMutability": "view",
      "type": "function"
    },
    {
      "constant": false,
      "inputs": [
        {
          "name": "newAddress",
          "type": "address"
        }
      ],
      "name": "setExchangeAddress",
      "outputs": [
        {
          "name": "result",
          "type": "int8"
        }
      ],
      "payable": false,
      "stateMutability": "nonpayable",
      "type": "function"
    },
    {
      "constant": true,
      "inputs": [],
      "name": "SUCCESS",
      "outputs": [
        {
          "name": "",
          "type": "int8"
        }
      ],
      "payable": false,
      "stateMutability": "view",
      "type": "function"
    },
    {
      "constant": false,
      "inputs": [
        {
          "name": "_from",
          "type": "address"
        },
        {
          "name": "_to",
          "type": "address"
        },
        {
          "name": "_amount",
          "type": "uint256"
        },
        {
          "name": "narrative",
          "type": "string"
        }
      ],
      "name": "systemTransfer",
      "outputs": [
        {
          "name": "success",
          "type": "bool"
        }
      ],
      "payable": false,
      "stateMutability": "nonpayable",
      "type": "function"
    },
    {
      "constant": false,
      "inputs": [
        {
          "name": "amount",
          "type": "uint256"
        }
      ],
      "name": "issueUcd",
      "outputs": [
        {
          "name": "result",
          "type": "int8"
        }
      ],
      "payable": false,
      "stateMutability": "nonpayable",
      "type": "function"
    },
    {
      "constant": false,
      "inputs": [
        {
          "name": "newAddress",
          "type": "address"
        }
      ],
      "name": "setLoanManagerAddress",
      "outputs": [
        {
          "name": "result",
          "type": "int8"
        }
      ],
      "payable": false,
      "stateMutability": "nonpayable",
      "type": "function"
    },
    {
      "constant": false,
      "inputs": [
        {
          "name": "amount",
          "type": "uint256"
        }
      ],
      "name": "getUcdFromReserve",
      "outputs": [
        {
          "name": "result",
          "type": "int8"
        }
      ],
      "payable": false,
      "stateMutability": "nonpayable",
      "type": "function"
    },
    {
      "constant": false,
      "inputs": [
        {
          "name": "_to",
          "type": "address"
        },
        {
          "name": "_amount",
          "type": "uint256"
        },
        {
          "name": "narrative",
          "type": "string"
        }
      ],
      "name": "transferWithNarrative",
      "outputs": [
        {
          "name": "success",
          "type": "bool"
        }
      ],
      "payable": false,
      "stateMutability": "nonpayable",
      "type": "function"
    },
    {
      "payable": true,
      "stateMutability": "payable",
      "type": "fallback"
    },
    {
      "anonymous": false,
      "inputs": [
        {
          "indexed": false,
          "name": "newAddress",
          "type": "address"
        }
      ],
      "name": "e_loanManagerAddressChanged",
      "type": "event"
    },
    {
      "anonymous": false,
      "inputs": [
        {
          "indexed": false,
          "name": "newAddress",
          "type": "address"
        }
      ],
      "name": "e_exchangeAddressChanged",
      "type": "event"
    },
    {
      "anonymous": false,
      "inputs": [
        {
          "indexed": true,
          "name": "from",
          "type": "address"
        },
        {
          "indexed": true,
          "name": "to",
          "type": "address"
        },
        {
          "indexed": false,
          "name": "amount",
          "type": "uint256"
        },
        {
          "indexed": false,
          "name": "narrative",
          "type": "string"
        }
      ],
      "name": "e_transfer",
      "type": "event"
    },
    {
      "anonymous": false,
      "inputs": [
        {
          "indexed": false,
          "name": "amount",
          "type": "uint256"
        }
      ],
      "name": "e_ucdIssued",
      "type": "event"
    },
    {
      "anonymous": false,
      "inputs": [
        {
          "indexed": false,
          "name": "amount",
          "type": "uint256"
        }
      ],
      "name": "e_ucdBurned",
      "type": "event"
    },
    {
      "anonymous": false,
      "inputs": [
        {
          "indexed": true,
          "name": "old",
          "type": "address"
        },
        {
          "indexed": true,
          "name": "current",
          "type": "address"
        }
      ],
      "name": "NewOwner",
      "type": "event"
    }
  ],
  "bytecode": "0x606060405233600360006101000a81548173ffffffffffffffffffffffffffffffffffffffff021916908373ffffffffffffffffffffffffffffffffffffffff16021790555061222d806100546000396000f300606060405260043610610154576000357c0100000000000000000000000000000000000000000000000000000000900463ffffffff16806306fdde0314610156578063095ea7b3146101e457806313af40351461023e57806318160ddd1461027757806323b872dd146102a057806328dfa43d146103195780632b9cb0ef146103895780632c4a958e146103b2578063313ce5671461042b57806340eefcbf1461045a5780636ac2be9e146104af57806370a08231146104de57806371418a891461052b5780638b90178e146105685780638da5cb5b1461059757806395d89b41146105ec5780639cd016051461067a578063a9059cbb146106cf578063ca45737214610729578063d082ea8c14610758578063d0a6d1a6146107ab578063d1a48c36146107da578063d24afd7414610896578063da09bd4a146108d3578063ebe9512814610926578063ffdcf09514610963575b005b341561016157600080fd5b610169610a00565b6040518080602001828103825283818151815260200191508051906020019080838360005b838110156101a957808201518184015260208101905061018e565b50505050905090810190601f1680156101d65780820380516001836020036101000a031916815260200191505b509250505060405180910390f35b34156101ef57600080fd5b610224600480803573ffffffffffffffffffffffffffffffffffffffff16906020019091908035906020019091905050610a39565b604051808215151515815260200191505060405180910390f35b341561024957600080fd5b610275600480803573ffffffffffffffffffffffffffffffffffffffff16906020019091905050610b01565b005b341561028257600080fd5b61028a610c18565b6040518082815260200191505060405180910390f35b34156102ab57600080fd5b6102ff600480803573ffffffffffffffffffffffffffffffffffffffff1690602001909190803573ffffffffffffffffffffffffffffffffffffffff16906020019091908035906020019091905050610c1e565b604051808215151515815260200191505060405180910390f35b341561032457600080fd5b61036d600480803573ffffffffffffffffffffffffffffffffffffffff169060200190919080359060200190919080359060200190820180359060200191909192905050610cbe565b604051808260000b60000b815260200191505060405180910390f35b341561039457600080fd5b61039c610e1f565b6040518082815260200191505060405180910390f35b34156103bd57600080fd5b61040f600480803573ffffffffffffffffffffffffffffffffffffffff169060200190919080359060200190919080359060200190919080359060200190820180359060200191909192905050610e66565b604051808260000b60000b815260200191505060405180910390f35b341561043657600080fd5b61043e611017565b604051808260ff1660ff16815260200191505060405180910390f35b341561046557600080fd5b61046d61101c565b604051808273ffffffffffffffffffffffffffffffffffffffff1673ffffffffffffffffffffffffffffffffffffffff16815260200191505060405180910390f35b34156104ba57600080fd5b6104c2611042565b604051808260000b60000b815260200191505060405180910390f35b34156104e957600080fd5b610515600480803573ffffffffffffffffffffffffffffffffffffffff16906020019091905050611066565b6040518082815260200191505060405180910390f35b341561053657600080fd5b61054c60048080359060200190919050506110af565b604051808260000b60000b815260200191505060405180910390f35b341561057357600080fd5b61057b611268565b604051808260000b60000b815260200191505060405180910390f35b34156105a257600080fd5b6105aa61128c565b604051808273ffffffffffffffffffffffffffffffffffffffff1673ffffffffffffffffffffffffffffffffffffffff16815260200191505060405180910390f35b34156105f757600080fd5b6105ff6112b2565b6040518080602001828103825283818151815260200191508051906020019080838360005b8381101561063f578082015181840152602081019050610624565b50505050905090810190601f16801561066c5780820380516001836020036101000a031916815260200191505b509250505060405180910390f35b341561068557600080fd5b61068d6112eb565b604051808273ffffffffffffffffffffffffffffffffffffffff1673ffffffffffffffffffffffffffffffffffffffff16815260200191505060405180910390f35b34156106da57600080fd5b61070f600480803573ffffffffffffffffffffffffffffffffffffffff16906020019091908035906020019091905050611311565b604051808215151515815260200191505060405180910390f35b341561073457600080fd5b61073c611336565b604051808260000b60000b815260200191505060405180910390f35b341561076357600080fd5b61078f600480803573ffffffffffffffffffffffffffffffffffffffff1690602001909190505061135a565b604051808260000b60000b815260200191505060405180910390f35b34156107b657600080fd5b6107be611460565b604051808260000b60000b815260200191505060405180910390f35b34156107e557600080fd5b61087c600480803573ffffffffffffffffffffffffffffffffffffffff1690602001909190803573ffffffffffffffffffffffffffffffffffffffff1690602001909190803590602001909190803590602001908201803590602001908080601f01602080910402602001604051908101604052809392919081815260200183838082843782019150505050505091905050611465565b604051808215151515815260200191505060405180910390f35b34156108a157600080fd5b6108b76004808035906020019091905050611650565b604051808260000b60000b815260200191505060405180910390f35b34156108de57600080fd5b61090a600480803573ffffffffffffffffffffffffffffffffffffffff16906020019091905050611799565b604051808260000b60000b815260200191505060405180910390f35b341561093157600080fd5b610947600480803590602001909190505061189f565b604051808260000b60000b815260200191505060405180910390f35b341561096e57600080fd5b6109e6600480803573ffffffffffffffffffffffffffffffffffffffff1690602001909190803590602001909190803590602001908201803590602001908080601f01602080910402602001604051908101604052809392919081815260200183838082843782019150505050505091905050611a9b565b604051808215151515815260200191505060405180910390f35b6040805190810160405280601081526020017f55532043727970746f20446f6c6c61720000000000000000000000000000000081525081565b60008273ffffffffffffffffffffffffffffffffffffffff163373ffffffffffffffffffffffffffffffffffffffff1614151515610a7657600080fd5b81600260003373ffffffffffffffffffffffffffffffffffffffff1673ffffffffffffffffffffffffffffffffffffffff16815260200190815260200160002060008573ffffffffffffffffffffffffffffffffffffffff1673ffffffffffffffffffffffffffffffffffffffff168152602001908152602001600020819055506001905092915050565b600360009054906101000a900473ffffffffffffffffffffffffffffffffffffffff1673ffffffffffffffffffffffffffffffffffffffff163373ffffffffffffffffffffffffffffffffffffffff161415610c15578073ffffffffffffffffffffffffffffffffffffffff16600360009054906101000a900473ffffffffffffffffffffffffffffffffffffffff1673ffffffffffffffffffffffffffffffffffffffff167f70aea8d848e8a90fb7661b227dc522eb6395c3dac71b63cb59edd5c9899b236460405160405180910390a380600360006101000a81548173ffffffffffffffffffffffffffffffffffffffff021916908373ffffffffffffffffffffffffffffffffffffffff1602179055505b50565b60005481565b6000610c2b848484611b93565b15610cb2578273ffffffffffffffffffffffffffffffffffffffff168473ffffffffffffffffffffffffffffffffffffffff167fb3d876ec2d89cdc0bff0c24cb5dbbe91c80448144771870cbb5e55caee9546208460405180828152602001806020018281038252600081526020016020019250505060405180910390a360019050610cb7565b600090505b9392505050565b6000600460009054906101000a900473ffffffffffffffffffffffffffffffffffffffff1673ffffffffffffffffffffffffffffffffffffffff163373ffffffffffffffffffffffffffffffffffffffff16141515610d3f577ffffffffffffffffffffffffffffffffffffffffffffffffffffffffffffffffd9050610e17565b83600160008773ffffffffffffffffffffffffffffffffffffffff1673ffffffffffffffffffffffffffffffffffffffff168152602001908152602001600020541015610dae577ffffffffffffffffffffffffffffffffffffffffffffffffffffffffffffffffe9050610e17565b610dec85308686868080601f016020809104026020016040519081016040528093929190818152602001838380828437820191505050505050611465565b1515610df757600080fd5b610e0c84600054611e3590919063ffffffff16565b600081905550600190505b949350505050565b6000600160003073ffffffffffffffffffffffffffffffffffffffff1673ffffffffffffffffffffffffffffffffffffffff16815260200190815260200160002054905090565b6000600460009054906101000a900473ffffffffffffffffffffffffffffffffffffffff1673ffffffffffffffffffffffffffffffffffffffff163373ffffffffffffffffffffffffffffffffffffffff16141515610ee7577ffffffffffffffffffffffffffffffffffffffffffffffffffffffffffffffffd905061100e565b83851115610fa457610f0485600054611e4e90919063ffffffff16565b600081905550610f5c85600160003073ffffffffffffffffffffffffffffffffffffffff1673ffffffffffffffffffffffffffffffffffffffff16815260200190815260200160002054611e4e90919063ffffffff16565b600160003073ffffffffffffffffffffffffffffffffffffffff1673ffffffffffffffffffffffffffffffffffffffff16815260200190815260200160002081905550610fc0565b610fb984600054611e4e90919063ffffffff16565b6000819055505b610ffe30878686868080601f016020809104026020016040519081016040528093929190818152602001838380828437820191505050505050611465565b151561100957600080fd5b600190505b95945050505050565b600481565b600460009054906101000a900473ffffffffffffffffffffffffffffffffffffffff1681565b7ffffffffffffffffffffffffffffffffffffffffffffffffffffffffffffffffd81565b6000600160008373ffffffffffffffffffffffffffffffffffffffff1673ffffffffffffffffffffffffffffffffffffffff168152602001908152602001600020549050919050565b6000600360009054906101000a900473ffffffffffffffffffffffffffffffffffffffff1673ffffffffffffffffffffffffffffffffffffffff163373ffffffffffffffffffffffffffffffffffffffff16141561126357600160003073ffffffffffffffffffffffffffffffffffffffff1673ffffffffffffffffffffffffffffffffffffffff16815260200190815260200160002054821115611176577fffffffffffffffffffffffffffffffffffffffffffffffffffffffffffffffff9050611262565b61118b82600054611e3590919063ffffffff16565b6000819055506111e382600160003073ffffffffffffffffffffffffffffffffffffffff1673ffffffffffffffffffffffffffffffffffffffff16815260200190815260200160002054611e3590919063ffffffff16565b600160003073ffffffffffffffffffffffffffffffffffffffff1673ffffffffffffffffffffffffffffffffffffffff168152602001908152602001600020819055507f36201c46a263f814b8c4987575e0d805ee31d78e79d1b4aed5f95d7c02933e5d826040518082815260200191505060405180910390a1600190505b5b919050565b7fffffffffffffffffffffffffffffffffffffffffffffffffffffffffffffffff81565b600360009054906101000a900473ffffffffffffffffffffffffffffffffffffffff1681565b6040805190810160405280600381526020017f554344000000000000000000000000000000000000000000000000000000000081525081565b600560009054906101000a900473ffffffffffffffffffffffffffffffffffffffff1681565b600061132e83836020604051908101604052806000815250611a9b565b905092915050565b7ffffffffffffffffffffffffffffffffffffffffffffffffffffffffffffffffe81565b6000600360009054906101000a900473ffffffffffffffffffffffffffffffffffffffff1673ffffffffffffffffffffffffffffffffffffffff163373ffffffffffffffffffffffffffffffffffffffff16141561145b5781600560006101000a81548173ffffffffffffffffffffffffffffffffffffffff021916908373ffffffffffffffffffffffffffffffffffffffff1602179055507faa20649ee6d7a1749d66a7e4a9482bcaf13735dde9fddd027ce53611f5ef47c182604051808273ffffffffffffffffffffffffffffffffffffffff1673ffffffffffffffffffffffffffffffffffffffff16815260200191505060405180910390a1600190505b919050565b600181565b6000600560009054906101000a900473ffffffffffffffffffffffffffffffffffffffff1673ffffffffffffffffffffffffffffffffffffffff163373ffffffffffffffffffffffffffffffffffffffff1614806115105750600460009054906101000a900473ffffffffffffffffffffffffffffffffffffffff1673ffffffffffffffffffffffffffffffffffffffff163373ffffffffffffffffffffffffffffffffffffffff16145b151561151b57600080fd5b8373ffffffffffffffffffffffffffffffffffffffff168573ffffffffffffffffffffffffffffffffffffffff1614156115585760009050611648565b611563858585611e6c565b15611643578373ffffffffffffffffffffffffffffffffffffffff168573ffffffffffffffffffffffffffffffffffffffff167fb3d876ec2d89cdc0bff0c24cb5dbbe91c80448144771870cbb5e55caee95462085856040518083815260200180602001828103825283818151815260200191508051906020019080838360005b838110156115ff5780820151818401526020810190506115e4565b50505050905090810190601f16801561162c5780820380516001836020036101000a031916815260200191505b50935050505060405180910390a360019050611648565b600090505b949350505050565b6000600360009054906101000a900473ffffffffffffffffffffffffffffffffffffffff1673ffffffffffffffffffffffffffffffffffffffff163373ffffffffffffffffffffffffffffffffffffffff161415611794576116bd82600054611e4e90919063ffffffff16565b60008190555061171582600160003073ffffffffffffffffffffffffffffffffffffffff1673ffffffffffffffffffffffffffffffffffffffff16815260200190815260200160002054611e4e90919063ffffffff16565b600160003073ffffffffffffffffffffffffffffffffffffffff1673ffffffffffffffffffffffffffffffffffffffff168152602001908152602001600020819055507f5f9eca792ef010f5c4b5b4314122a63698157b8dbbc17344fa9d6713ab62a0fe826040518082815260200191505060405180910390a1600190505b919050565b6000600360009054906101000a900473ffffffffffffffffffffffffffffffffffffffff1673ffffffffffffffffffffffffffffffffffffffff163373ffffffffffffffffffffffffffffffffffffffff16141561189a5781600460006101000a81548173ffffffffffffffffffffffffffffffffffffffff021916908373ffffffffffffffffffffffffffffffffffffffff1602179055507fab5b35579f32673e56d1369471531f244de4fccc5bbe0bb9ca7566ece0cd27e382604051808273ffffffffffffffffffffffffffffffffffffffff1673ffffffffffffffffffffffffffffffffffffffff16815260200191505060405180910390a1600190505b919050565b6000600360009054906101000a900473ffffffffffffffffffffffffffffffffffffffff1673ffffffffffffffffffffffffffffffffffffffff163373ffffffffffffffffffffffffffffffffffffffff161415611a9657600160003073ffffffffffffffffffffffffffffffffffffffff1673ffffffffffffffffffffffffffffffffffffffff16815260200190815260200160002054821115611966577fffffffffffffffffffffffffffffffffffffffffffffffffffffffffffffffff9050611a95565b6119b882600160003073ffffffffffffffffffffffffffffffffffffffff1673ffffffffffffffffffffffffffffffffffffffff16815260200190815260200160002054611e3590919063ffffffff16565b600160003073ffffffffffffffffffffffffffffffffffffffff1673ffffffffffffffffffffffffffffffffffffffff16815260200190815260200160002081905550611a4d82600160003373ffffffffffffffffffffffffffffffffffffffff1673ffffffffffffffffffffffffffffffffffffffff16815260200190815260200160002054611e4e90919063ffffffff16565b600160003373ffffffffffffffffffffffffffffffffffffffff1673ffffffffffffffffffffffffffffffffffffffff16815260200190815260200160002081905550600190505b5b919050565b6000611aa78484612037565b15611b87578373ffffffffffffffffffffffffffffffffffffffff163373ffffffffffffffffffffffffffffffffffffffff167fb3d876ec2d89cdc0bff0c24cb5dbbe91c80448144771870cbb5e55caee95462085856040518083815260200180602001828103825283818151815260200191508051906020019080838360005b83811015611b43578082015181840152602081019050611b28565b50505050905090810190601f168015611b705780820380516001836020036101000a031916815260200191505b50935050505060405180910390a360019050611b8c565b600090505b9392505050565b600081600160008673ffffffffffffffffffffffffffffffffffffffff1673ffffffffffffffffffffffffffffffffffffffff1681526020019081526020016000205410158015611c60575081600260008673ffffffffffffffffffffffffffffffffffffffff1673ffffffffffffffffffffffffffffffffffffffff16815260200190815260200160002060003373ffffffffffffffffffffffffffffffffffffffff1673ffffffffffffffffffffffffffffffffffffffff1681526020019081526020016000205410155b8015611c6c5750600082115b8015611cf75750600160008473ffffffffffffffffffffffffffffffffffffffff1673ffffffffffffffffffffffffffffffffffffffff1681526020019081526020016000205482600160008673ffffffffffffffffffffffffffffffffffffffff1673ffffffffffffffffffffffffffffffffffffffff1681526020019081526020016000205401115b15611e295781600160008673ffffffffffffffffffffffffffffffffffffffff1673ffffffffffffffffffffffffffffffffffffffff1681526020019081526020016000206000828254039250508190555081600260008673ffffffffffffffffffffffffffffffffffffffff1673ffffffffffffffffffffffffffffffffffffffff16815260200190815260200160002060003373ffffffffffffffffffffffffffffffffffffffff1673ffffffffffffffffffffffffffffffffffffffff1681526020019081526020016000206000828254039250508190555081600160008573ffffffffffffffffffffffffffffffffffffffff1673ffffffffffffffffffffffffffffffffffffffff1681526020019081526020016000206000828254019250508190555060019050611e2e565b600090505b9392505050565b6000828211151515611e4357fe5b818303905092915050565b6000808284019050838110151515611e6257fe5b8091505092915050565b60008273ffffffffffffffffffffffffffffffffffffffff168473ffffffffffffffffffffffffffffffffffffffff1614151515611ea957600080fd5b81600160008673ffffffffffffffffffffffffffffffffffffffff1673ffffffffffffffffffffffffffffffffffffffff1681526020019081526020016000205410158015611ef85750600082115b8015611f835750600160008473ffffffffffffffffffffffffffffffffffffffff1673ffffffffffffffffffffffffffffffffffffffff1681526020019081526020016000205482600160008673ffffffffffffffffffffffffffffffffffffffff1673ffffffffffffffffffffffffffffffffffffffff1681526020019081526020016000205401115b1561202b5781600160008673ffffffffffffffffffffffffffffffffffffffff1673ffffffffffffffffffffffffffffffffffffffff1681526020019081526020016000206000828254039250508190555081600160008573ffffffffffffffffffffffffffffffffffffffff1673ffffffffffffffffffffffffffffffffffffffff1681526020019081526020016000206000828254019250508190555060019050612030565b600090505b9392505050565b60008273ffffffffffffffffffffffffffffffffffffffff163373ffffffffffffffffffffffffffffffffffffffff161415151561207457600080fd5b81600160003373ffffffffffffffffffffffffffffffffffffffff1673ffffffffffffffffffffffffffffffffffffffff16815260200190815260200160002054101580156120c35750600082115b801561214e5750600160008473ffffffffffffffffffffffffffffffffffffffff1673ffffffffffffffffffffffffffffffffffffffff1681526020019081526020016000205482600160008673ffffffffffffffffffffffffffffffffffffffff1673ffffffffffffffffffffffffffffffffffffffff1681526020019081526020016000205401115b156121f65781600160003373ffffffffffffffffffffffffffffffffffffffff1673ffffffffffffffffffffffffffffffffffffffff1681526020019081526020016000206000828254039250508190555081600160008573ffffffffffffffffffffffffffffffffffffffff1673ffffffffffffffffffffffffffffffffffffffff16815260200190815260200160002060008282540192505081905550600190506121fb565b600090505b929150505600a165627a7a7230582020675181b1a193df9989a07340f840778e90e390a687164170a521dfcb99621f0029",
  "source": "/* UCD Token implementation (ERC20 token)\n    This contract manages:\n        * Balances of UCD holders and transactions between them\n        * Issues and burns UCD\n            - manually by the contract owner or\n            - automatically when new UCD loan issued or repaid\n        * Holds ETH reserve (as regular ETH balance of the contract)\n            from defaulted loans\n            TBD: ETH bought by owner for UCD\n        * Holds UCD reserve (stored as regular UCD balance under the contract address)\n            from ETH collateral sold on auctions (from defauleted loans)\n            newly issued UCD (UCD reserve)\n\n        Note that all reserves are held under the contract address,\n          therefore any transaction on the reserve is limited to the tx-s defined here\n          (ie. transfer of reserve is not possible by the contract owner)\n\n    TODO: decision making mechanism (ie. replace all onlyOwner)\n    TODO: implement ETH/UCD transfer for sale (ie. transfer from UCD or ETH reserves to exchange by owner)\n    TODO: consider moving reserve to a separate contract\n    TODO: add reentrancy protection\n    TODO: remove test functions (issue/burnUcd, getUcdFromReserve)\n    TODO: check more security best practices, eg: https://github.com/ConsenSys/smart-contract-best-practices, https://github.com/OpenZeppelin/zeppelin-solidity\n    TODO: move ERR all error code constants to lib/separate contract\n    TODO: any point for ECR20Impl and TokenUcd separation now?\n*/\npragma solidity ^0.4.18;\nimport \"./Owned.sol\";\nimport \"./SafeMath.sol\";\nimport \"./ERC20Impl.sol\";\n\ncontract TokenUcd is ERC20Impl, owned {\n    using SafeMath for uint256;\n    string public constant name = \"US Crypto Dollar\";\n    string public constant symbol = \"UCD\";\n    uint8 public constant decimals = 4; // TODO: check if 4 enough - assuming rate will be around USD\n\n    int8 constant public SUCCESS = 1;\n    int8 constant public ERR_RESERVE_BALANCE_NOT_ENOUGH = -1;\n    int8 public constant ERR_UCD_BALANCE_NOT_ENOUGH = -2;\n    int8 constant public ERR_NOT_AUTHORISED = -3;\n\n    address public loanManagerAddress; // used for authorisation of issuing UCD for loans\n    address public exchangeAddress; // for authorisation of transferExchange()\n\n    function () public payable {} // to accept ETH sent into reserve (from defaulted loan's collateral )\n\n    function getUcdReserveBalance() external view returns (uint balance) {\n        return balances[this];\n    }\n\n    event e_loanManagerAddressChanged(address newAddress);\n    function setLoanManagerAddress(address newAddress) external onlyOwner returns(int8 result) {\n        loanManagerAddress = newAddress;\n        e_loanManagerAddressChanged(newAddress);\n        return SUCCESS;\n    }\n\n    event e_exchangeAddressChanged(address newAddress);\n    function setExchangeAddress(address newAddress) external onlyOwner returns(int8 result) {\n        exchangeAddress = newAddress;\n        e_exchangeAddressChanged(newAddress);\n        return SUCCESS;\n    }\n\n    event e_transfer(address indexed from, address indexed to, uint amount, string narrative);\n    function transferFrom(\n        address _from,\n        address _to,\n        uint256 _amount\n    ) external returns (bool success) {\n        if (_transferFrom(_from, _to, _amount)) {\n            e_transfer(_from, _to, _amount, \"\");\n            return true;\n        } else {\n            return false;\n        }\n    }\n\n    function transfer(address _to, uint256 _amount) external returns (bool success) {\n        return transferWithNarrative(_to, _amount, \"\");\n    }\n\n    function transferWithNarrative(address _to, uint256 _amount, string narrative) public returns (bool success) {\n        if ( _transfer(_to, _amount) ) {\n            e_transfer(msg.sender, _to, _amount, narrative);\n            return true;\n        } else {\n            return false;\n        }\n    }\n\n    function systemTransfer(address _from, address _to, uint256 _amount, string narrative) public returns (bool success) {\n        require( msg.sender == exchangeAddress || msg.sender == loanManagerAddress);\n        if(_from == _to) { // we don't need to throw in case of transfer b/w own accounts\n            return false;\n        }\n        if ( _transferInternal(_from, _to, _amount) ) {\n            e_transfer(_from, _to, _amount, narrative);\n            return true;\n            } else {\n                return false;\n        }\n    }\n\n    // FIXME: this is only for testing, remove this function\n    event e_ucdIssued(uint amount);\n    function issueUcd(uint amount) external onlyOwner returns (int8 result) {\n        totalSupply = totalSupply.add(amount);\n        balances[this] = balances[this].add(amount);\n        e_ucdIssued(amount);\n        return SUCCESS;\n    }\n\n    // FIXME: this is only for testing, remove this function\n    event e_ucdBurned(uint amount);\n    function burnUcd(uint amount) external onlyOwner returns (int8 result) {\n        if (amount > balances[this]) {\n            return ERR_RESERVE_BALANCE_NOT_ENOUGH;\n        }\n        totalSupply = totalSupply.sub(amount);\n        balances[this] = balances[this].sub(amount);\n        e_ucdBurned(amount);\n        return SUCCESS;\n    }\n\n    // FIXME: this is only for testing, remove this function\n    function getUcdFromReserve(uint amount) external onlyOwner returns (int8 result) {\n        if (amount > balances[this]) {\n            return ERR_RESERVE_BALANCE_NOT_ENOUGH;\n        }\n        balances[this] = balances[this].sub(amount);\n        balances[msg.sender] = balances[msg.sender].add(amount);\n        return SUCCESS;\n    }\n\n    function issueAndDisburseUcd(address borrower, uint ucdDueAtMaturity, uint disbursedLoanInUcd, string narrative) external returns (int8 result) {\n        if( msg.sender != loanManagerAddress) {\n            return ERR_NOT_AUTHORISED;\n        }\n        if( ucdDueAtMaturity > disbursedLoanInUcd) {\n            totalSupply = totalSupply.add(ucdDueAtMaturity);\n            balances[this] = balances[this].add(ucdDueAtMaturity);\n        } else {\n            totalSupply = totalSupply.add(disbursedLoanInUcd);\n        }\n        require( systemTransfer(this, borrower, disbursedLoanInUcd, narrative));\n        return SUCCESS;\n    }\n\n    function repayAndBurnUcd(address borrower, uint ucdDueAtMaturity, string narrative) external returns (int8 result) {\n        if( msg.sender != loanManagerAddress) {\n            return ERR_NOT_AUTHORISED;\n        }\n        if( balances[borrower] < ucdDueAtMaturity) {\n            return ERR_UCD_BALANCE_NOT_ENOUGH;\n        }\n        require( systemTransfer(borrower, this, ucdDueAtMaturity, narrative));\n        totalSupply = totalSupply.sub(ucdDueAtMaturity);\n        return SUCCESS;\n    }\n\n    // TODO: sell ETH (from reserve) for UCD and add to UCD reserve (do we need this?)\n    // TODO: sell UCD (from reserve) for ETH and add to ETH reserve\n\n}\n",
  "sourcePath": "/Users/petro/ether/dcm-poc/contracts/TokenUcd.sol",
  "compiler": {
    "name": "solc",
    "version": "0.4.18+commit.9cf6e910.Emscripten.clang"
  },
  "schemaVersion": "1.0.1",
  "updatedAt": "2017-11-04T08:00:49.733Z"
}