{
  "contractName": "AugmintToken",
  "abi": [
    {
      "constant": false,
      "inputs": [
        {
          "name": "_spender",
          "type": "address"
        },
        {
          "name": "_amount",
          "type": "uint256"
        }
      ],
      "name": "approve",
      "outputs": [
        {
          "name": "success",
          "type": "bool"
        }
      ],
      "payable": false,
      "stateMutability": "nonpayable",
      "type": "function"
    },
    {
      "constant": false,
      "inputs": [
        {
          "name": "_new",
          "type": "address"
        }
      ],
      "name": "setOwner",
      "outputs": [],
      "payable": false,
      "stateMutability": "nonpayable",
      "type": "function"
    },
    {
      "constant": true,
      "inputs": [],
      "name": "totalSupply",
      "outputs": [
        {
          "name": "",
          "type": "uint256"
        }
      ],
      "payable": false,
      "stateMutability": "view",
      "type": "function"
    },
    {
      "constant": false,
      "inputs": [
        {
          "name": "_from",
          "type": "address"
        },
        {
          "name": "_to",
          "type": "address"
        },
        {
          "name": "_amount",
          "type": "uint256"
        }
      ],
      "name": "transferFrom",
      "outputs": [],
      "payable": false,
      "stateMutability": "nonpayable",
      "type": "function"
    },
    {
      "constant": true,
      "inputs": [],
      "name": "loanManagerAddress",
      "outputs": [
        {
          "name": "",
          "type": "address"
        }
      ],
      "payable": false,
      "stateMutability": "view",
      "type": "function"
    },
    {
      "constant": false,
      "inputs": [
        {
          "name": "amount",
          "type": "uint256"
        }
      ],
      "name": "burn",
      "outputs": [],
      "payable": false,
      "stateMutability": "nonpayable",
      "type": "function"
    },
    {
      "constant": true,
      "inputs": [
        {
          "name": "_owner",
          "type": "address"
        }
      ],
      "name": "balanceOf",
      "outputs": [
        {
          "name": "balance",
          "type": "uint256"
        }
      ],
      "payable": false,
      "stateMutability": "view",
      "type": "function"
    },
    {
      "constant": false,
      "inputs": [
        {
          "name": "_from",
          "type": "address"
        },
        {
          "name": "_to",
          "type": "address"
        },
        {
          "name": "_amount",
          "type": "uint256"
        },
        {
          "name": "_narrative",
          "type": "string"
        }
      ],
      "name": "transferFromWithNarrative",
      "outputs": [],
      "payable": false,
      "stateMutability": "nonpayable",
      "type": "function"
    },
    {
      "constant": true,
      "inputs": [],
      "name": "owner",
      "outputs": [
        {
          "name": "",
          "type": "address"
        }
      ],
      "payable": false,
      "stateMutability": "view",
      "type": "function"
    },
    {
      "constant": true,
      "inputs": [],
      "name": "exchangeAddress",
      "outputs": [
        {
          "name": "",
          "type": "address"
        }
      ],
      "payable": false,
      "stateMutability": "view",
      "type": "function"
    },
    {
      "constant": false,
      "inputs": [
        {
          "name": "_to",
          "type": "address"
        },
        {
          "name": "_amount",
          "type": "uint256"
        }
      ],
      "name": "transfer",
      "outputs": [],
      "payable": false,
      "stateMutability": "nonpayable",
      "type": "function"
    },
    {
      "constant": false,
      "inputs": [
        {
          "name": "_from",
          "type": "address"
        },
        {
          "name": "_to",
          "type": "address"
        },
        {
          "name": "_amount",
          "type": "uint256"
        },
        {
          "name": "_narrative",
          "type": "string"
        }
      ],
      "name": "transferNoFee",
      "outputs": [],
      "payable": false,
      "stateMutability": "nonpayable",
      "type": "function"
    },
    {
      "constant": false,
      "inputs": [
        {
          "name": "amount",
          "type": "uint256"
        }
      ],
      "name": "issue",
      "outputs": [],
      "payable": false,
      "stateMutability": "nonpayable",
      "type": "function"
    },
    {
      "constant": false,
      "inputs": [
        {
          "name": "newAddress",
          "type": "address"
        }
      ],
      "name": "setExchangeAddress",
      "outputs": [],
      "payable": false,
      "stateMutability": "nonpayable",
      "type": "function"
    },
    {
      "constant": false,
      "inputs": [
        {
          "name": "amount",
          "type": "uint256"
        }
      ],
      "name": "getFromReserve",
      "outputs": [],
      "payable": false,
      "stateMutability": "nonpayable",
      "type": "function"
    },
    {
      "constant": false,
      "inputs": [
        {
          "name": "newAddress",
          "type": "address"
        }
      ],
      "name": "setLoanManagerAddress",
      "outputs": [],
      "payable": false,
      "stateMutability": "nonpayable",
      "type": "function"
    },
    {
      "constant": false,
      "inputs": [
        {
          "name": "_to",
          "type": "address"
        },
        {
          "name": "_amount",
          "type": "uint256"
        },
        {
          "name": "_narrative",
          "type": "string"
        }
      ],
      "name": "transferWithNarrative",
      "outputs": [],
      "payable": false,
      "stateMutability": "nonpayable",
      "type": "function"
    },
    {
      "payable": true,
      "stateMutability": "payable",
      "type": "fallback"
    },
    {
      "anonymous": false,
      "inputs": [
        {
          "indexed": false,
          "name": "newAddress",
          "type": "address"
        }
      ],
      "name": "e_loanManagerAddressChanged",
      "type": "event"
    },
    {
      "anonymous": false,
      "inputs": [
        {
          "indexed": false,
          "name": "newAddress",
          "type": "address"
        }
      ],
      "name": "e_exchangeAddressChanged",
      "type": "event"
    },
    {
      "anonymous": false,
      "inputs": [
        {
          "indexed": true,
          "name": "from",
          "type": "address"
        },
        {
          "indexed": true,
          "name": "to",
          "type": "address"
        },
        {
          "indexed": false,
          "name": "amount",
          "type": "uint256"
        },
        {
          "indexed": false,
          "name": "narrative",
          "type": "string"
        }
      ],
      "name": "e_transfer",
      "type": "event"
    },
    {
      "anonymous": false,
      "inputs": [
        {
          "indexed": false,
          "name": "amount",
          "type": "uint256"
        }
      ],
      "name": "e_issued",
      "type": "event"
    },
    {
      "anonymous": false,
      "inputs": [
        {
          "indexed": false,
          "name": "amount",
          "type": "uint256"
        }
      ],
      "name": "e_burned",
      "type": "event"
    },
    {
      "anonymous": false,
      "inputs": [
        {
          "indexed": true,
          "name": "old",
          "type": "address"
        },
        {
          "indexed": true,
          "name": "current",
          "type": "address"
        }
      ],
      "name": "NewOwner",
      "type": "event"
    }
  ],
  "bytecode": "0x6060604052336000806101000a81548173ffffffffffffffffffffffffffffffffffffffff021916908373ffffffffffffffffffffffffffffffffffffffff16021790555061180e806100536000396000f3006060604052600436106100f1576000357c0100000000000000000000000000000000000000000000000000000000900463ffffffff168063095ea7b3146100f357806313af40351461014d57806318160ddd1461018657806323b872dd146101af57806340eefcbf1461021057806342966c681461026557806370a082311461028857806376587921146102d55780638da5cb5b146103795780639cd01605146103ce578063a9059cbb14610423578063b0455f1314610465578063cc872b66146104da578063d082ea8c146104fd578063d354a39e14610536578063da09bd4a14610559578063ffdcf09514610592575b005b34156100fe57600080fd5b610133600480803573ffffffffffffffffffffffffffffffffffffffff169060200190919080359060200190919050506105e8565b604051808215151515815260200191505060405180910390f35b341561015857600080fd5b610184600480803573ffffffffffffffffffffffffffffffffffffffff169060200190919050506106b0565b005b341561019157600080fd5b6101996107c9565b6040518082815260200191505060405180910390f35b34156101ba57600080fd5b61020e600480803573ffffffffffffffffffffffffffffffffffffffff1690602001909190803573ffffffffffffffffffffffffffffffffffffffff169060200190919080359060200190919050506107cf565b005b341561021b57600080fd5b6102236107f0565b604051808273ffffffffffffffffffffffffffffffffffffffff1673ffffffffffffffffffffffffffffffffffffffff16815260200191505060405180910390f35b341561027057600080fd5b6102866004808035906020019091905050610816565b005b341561029357600080fd5b6102bf600480803573ffffffffffffffffffffffffffffffffffffffff169060200190919050506109aa565b6040518082815260200191505060405180910390f35b34156102e057600080fd5b610377600480803573ffffffffffffffffffffffffffffffffffffffff1690602001909190803573ffffffffffffffffffffffffffffffffffffffff1690602001909190803590602001909190803590602001908201803590602001908080601f016020809104026020016040519081016040528093929190818152602001838380828437820191505050505050919050506109f3565b005b341561038457600080fd5b61038c610dec565b604051808273ffffffffffffffffffffffffffffffffffffffff1673ffffffffffffffffffffffffffffffffffffffff16815260200191505060405180910390f35b34156103d957600080fd5b6103e1610e11565b604051808273ffffffffffffffffffffffffffffffffffffffff1673ffffffffffffffffffffffffffffffffffffffff16815260200191505060405180910390f35b341561042e57600080fd5b610463600480803573ffffffffffffffffffffffffffffffffffffffff16906020019091908035906020019091905050610e37565b005b341561047057600080fd5b6104d8600480803573ffffffffffffffffffffffffffffffffffffffff1690602001909190803573ffffffffffffffffffffffffffffffffffffffff169060200190919080359060200190919080359060200190820180359060200191909192905050610e57565b005b34156104e557600080fd5b6104fb6004808035906020019091905050610f50565b005b341561050857600080fd5b610534600480803573ffffffffffffffffffffffffffffffffffffffff169060200190919050506110ed565b005b341561054157600080fd5b61055760048080359060200190919050506111ef565b005b341561056457600080fd5b610590600480803573ffffffffffffffffffffffffffffffffffffffff169060200190919050506113c5565b005b341561059d57600080fd5b6105e6600480803573ffffffffffffffffffffffffffffffffffffffff1690602001909190803590602001909190803590602001908201803590602001919091929050506114c7565b005b60008273ffffffffffffffffffffffffffffffffffffffff163373ffffffffffffffffffffffffffffffffffffffff161415151561062557600080fd5b81600360003373ffffffffffffffffffffffffffffffffffffffff1673ffffffffffffffffffffffffffffffffffffffff16815260200190815260200160002060008573ffffffffffffffffffffffffffffffffffffffff1673ffffffffffffffffffffffffffffffffffffffff168152602001908152602001600020819055506001905092915050565b6000809054906101000a900473ffffffffffffffffffffffffffffffffffffffff1673ffffffffffffffffffffffffffffffffffffffff163373ffffffffffffffffffffffffffffffffffffffff1614151561070b57600080fd5b8073ffffffffffffffffffffffffffffffffffffffff166000809054906101000a900473ffffffffffffffffffffffffffffffffffffffff1673ffffffffffffffffffffffffffffffffffffffff167f70aea8d848e8a90fb7661b227dc522eb6395c3dac71b63cb59edd5c9899b236460405160405180910390a3806000806101000a81548173ffffffffffffffffffffffffffffffffffffffff021916908373ffffffffffffffffffffffffffffffffffffffff16021790555050565b60015481565b6107eb83838360206040519081016040528060008152506109f3565b505050565b600460009054906101000a900473ffffffffffffffffffffffffffffffffffffffff1681565b600460009054906101000a900473ffffffffffffffffffffffffffffffffffffffff1673ffffffffffffffffffffffffffffffffffffffff163373ffffffffffffffffffffffffffffffffffffffff1614151561087257600080fd5b600260003073ffffffffffffffffffffffffffffffffffffffff1673ffffffffffffffffffffffffffffffffffffffff1681526020019081526020016000205481111515156108c057600080fd5b6108d58160015461150b90919063ffffffff16565b60018190555061092d81600260003073ffffffffffffffffffffffffffffffffffffffff1673ffffffffffffffffffffffffffffffffffffffff1681526020019081526020016000205461150b90919063ffffffff16565b600260003073ffffffffffffffffffffffffffffffffffffffff1673ffffffffffffffffffffffffffffffffffffffff168152602001908152602001600020819055507fe3317934b57fdd4e8fdbde29a2292e43940f9b5d858c010a9821eaaf96c8121f816040518082815260200191505060405180910390a150565b6000600260008373ffffffffffffffffffffffffffffffffffffffff1673ffffffffffffffffffffffffffffffffffffffff168152602001908152602001600020549050919050565b81600260008673ffffffffffffffffffffffffffffffffffffffff1673ffffffffffffffffffffffffffffffffffffffff1681526020019081526020016000205410151515610a4157600080fd5b81600360008673ffffffffffffffffffffffffffffffffffffffff1673ffffffffffffffffffffffffffffffffffffffff16815260200190815260200160002060003373ffffffffffffffffffffffffffffffffffffffff1673ffffffffffffffffffffffffffffffffffffffff1681526020019081526020016000205410151515610acc57600080fd5b600082111515610adb57600080fd5b610b2d82600260008773ffffffffffffffffffffffffffffffffffffffff1673ffffffffffffffffffffffffffffffffffffffff1681526020019081526020016000205461150b90919063ffffffff16565b600260008673ffffffffffffffffffffffffffffffffffffffff1673ffffffffffffffffffffffffffffffffffffffff16815260200190815260200160002081905550610bc282600260008673ffffffffffffffffffffffffffffffffffffffff1673ffffffffffffffffffffffffffffffffffffffff1681526020019081526020016000205461152790919063ffffffff16565b600260008573ffffffffffffffffffffffffffffffffffffffff1673ffffffffffffffffffffffffffffffffffffffff16815260200190815260200160002081905550610c9482600360008773ffffffffffffffffffffffffffffffffffffffff1673ffffffffffffffffffffffffffffffffffffffff16815260200190815260200160002060003373ffffffffffffffffffffffffffffffffffffffff1673ffffffffffffffffffffffffffffffffffffffff1681526020019081526020016000205461150b90919063ffffffff16565b600360008673ffffffffffffffffffffffffffffffffffffffff1673ffffffffffffffffffffffffffffffffffffffff16815260200190815260200160002060003373ffffffffffffffffffffffffffffffffffffffff1673ffffffffffffffffffffffffffffffffffffffff168152602001908152602001600020819055508273ffffffffffffffffffffffffffffffffffffffff168473ffffffffffffffffffffffffffffffffffffffff167fb3d876ec2d89cdc0bff0c24cb5dbbe91c80448144771870cbb5e55caee95462084846040518083815260200180602001828103825283818151815260200191508051906020019080838360005b83811015610dab578082015181840152602081019050610d90565b50505050905090810190601f168015610dd85780820380516001836020036101000a031916815260200191505b50935050505060405180910390a350505050565b6000809054906101000a900473ffffffffffffffffffffffffffffffffffffffff1681565b600560009054906101000a900473ffffffffffffffffffffffffffffffffffffffff1681565b610e533383836020604051908101604052806000815250611548565b5050565b600560009054906101000a900473ffffffffffffffffffffffffffffffffffffffff1673ffffffffffffffffffffffffffffffffffffffff163373ffffffffffffffffffffffffffffffffffffffff161480610f005750600460009054906101000a900473ffffffffffffffffffffffffffffffffffffffff1673ffffffffffffffffffffffffffffffffffffffff163373ffffffffffffffffffffffffffffffffffffffff16145b1515610f0b57600080fd5b610f4985858585858080601f016020809104026020016040519081016040528093929190818152602001838380828437820191505050505050611548565b5050505050565b6000809054906101000a900473ffffffffffffffffffffffffffffffffffffffff1673ffffffffffffffffffffffffffffffffffffffff163373ffffffffffffffffffffffffffffffffffffffff161480610ff85750600460009054906101000a900473ffffffffffffffffffffffffffffffffffffffff1673ffffffffffffffffffffffffffffffffffffffff163373ffffffffffffffffffffffffffffffffffffffff16145b151561100357600080fd5b6110188160015461152790919063ffffffff16565b60018190555061107081600260003073ffffffffffffffffffffffffffffffffffffffff1673ffffffffffffffffffffffffffffffffffffffff1681526020019081526020016000205461152790919063ffffffff16565b600260003073ffffffffffffffffffffffffffffffffffffffff1673ffffffffffffffffffffffffffffffffffffffff168152602001908152602001600020819055507fe577e4f006808eed5d0ad8485b418f02acc793550ea62ad75159c3255848ed63816040518082815260200191505060405180910390a150565b6000809054906101000a900473ffffffffffffffffffffffffffffffffffffffff1673ffffffffffffffffffffffffffffffffffffffff163373ffffffffffffffffffffffffffffffffffffffff1614151561114857600080fd5b80600560006101000a81548173ffffffffffffffffffffffffffffffffffffffff021916908373ffffffffffffffffffffffffffffffffffffffff1602179055507faa20649ee6d7a1749d66a7e4a9482bcaf13735dde9fddd027ce53611f5ef47c181604051808273ffffffffffffffffffffffffffffffffffffffff1673ffffffffffffffffffffffffffffffffffffffff16815260200191505060405180910390a150565b6000809054906101000a900473ffffffffffffffffffffffffffffffffffffffff1673ffffffffffffffffffffffffffffffffffffffff163373ffffffffffffffffffffffffffffffffffffffff1614151561124a57600080fd5b600260003073ffffffffffffffffffffffffffffffffffffffff1673ffffffffffffffffffffffffffffffffffffffff16815260200190815260200160002054811115151561129857600080fd5b6112ea81600260003073ffffffffffffffffffffffffffffffffffffffff1673ffffffffffffffffffffffffffffffffffffffff1681526020019081526020016000205461150b90919063ffffffff16565b600260003073ffffffffffffffffffffffffffffffffffffffff1673ffffffffffffffffffffffffffffffffffffffff1681526020019081526020016000208190555061137f81600260003373ffffffffffffffffffffffffffffffffffffffff1673ffffffffffffffffffffffffffffffffffffffff1681526020019081526020016000205461152790919063ffffffff16565b600260003373ffffffffffffffffffffffffffffffffffffffff1673ffffffffffffffffffffffffffffffffffffffff1681526020019081526020016000208190555050565b6000809054906101000a900473ffffffffffffffffffffffffffffffffffffffff1673ffffffffffffffffffffffffffffffffffffffff163373ffffffffffffffffffffffffffffffffffffffff1614151561142057600080fd5b80600460006101000a81548173ffffffffffffffffffffffffffffffffffffffff021916908373ffffffffffffffffffffffffffffffffffffffff1602179055507fab5b35579f32673e56d1369471531f244de4fccc5bbe0bb9ca7566ece0cd27e381604051808273ffffffffffffffffffffffffffffffffffffffff1673ffffffffffffffffffffffffffffffffffffffff16815260200191505060405180910390a150565b61150533858585858080601f016020809104026020016040519081016040528093929190818152602001838380828437820191505050505050611548565b50505050565b600082821115151561151c57600080fd5b818303905092915050565b600080828401905083811015151561153e57600080fd5b8091505092915050565b8273ffffffffffffffffffffffffffffffffffffffff168473ffffffffffffffffffffffffffffffffffffffff161415151561158357600080fd5b81600260008673ffffffffffffffffffffffffffffffffffffffff1673ffffffffffffffffffffffffffffffffffffffff16815260200190815260200160002054101515156115d157600080fd5b6000821115156115e057600080fd5b61163282600260008773ffffffffffffffffffffffffffffffffffffffff1673ffffffffffffffffffffffffffffffffffffffff1681526020019081526020016000205461150b90919063ffffffff16565b600260008673ffffffffffffffffffffffffffffffffffffffff1673ffffffffffffffffffffffffffffffffffffffff168152602001908152602001600020819055506116c782600260008673ffffffffffffffffffffffffffffffffffffffff1673ffffffffffffffffffffffffffffffffffffffff1681526020019081526020016000205461152790919063ffffffff16565b600260008573ffffffffffffffffffffffffffffffffffffffff1673ffffffffffffffffffffffffffffffffffffffff168152602001908152602001600020819055508273ffffffffffffffffffffffffffffffffffffffff168473ffffffffffffffffffffffffffffffffffffffff167fb3d876ec2d89cdc0bff0c24cb5dbbe91c80448144771870cbb5e55caee95462084846040518083815260200180602001828103825283818151815260200191508051906020019080838360005b838110156117a1578082015181840152602081019050611786565b50505050905090810190601f1680156117ce5780820380516001836020036101000a031916815260200191505b50935050505060405180910390a3505050505600a165627a7a72305820964299edc728765165f84c1f3b70d2a16b8142b1791ddc5a1def39e298272b140029",
  "source": "/* Generic Augmint Token implementation (ERC20 token)\n    This contract manages:\n        * Balances of Augmint holders and transactions between them\n        * Issues and burns tokens\n            - manually by the contract owner or\n            - automatically when new loan issued or repaid\n        * Holds  reserves:\n            - ETH as regular ETH balance of the contract\n            - ERC20 token reserve (stored as regular Token balance under the contract address)\n            TODO: separate reserve contract in order to hold any ERC20 token in one reserve\n\n        Note that all reserves are held under the contract address,\n          therefore any transaction on the reserve is limited to the tx-s defined here\n          (ie. transfer of reserve is not possible by the contract owner)\n\n    TODO: split this: ERC20 base - generic Augmint Token\n    TODO: separate data from logic for code upgradeablity\n    TODO: if we emit generic events from here then can we filter to specific AugmintTokens?\n    TODO: decision making mechanism (ie. replace all onlyOwner)\n    TODO: remove test functions (getFromReserve + restrict issue)\n    TODO: check more security best practices, eg: https://github.com/ConsenSys/smart-contract-best-practices,\n                        https://github.com/OpenZeppelin/zeppelin-solidity\n                        https://github.com/OpenZeppelin/zeppelin-solidity/tree/master/contracts/token\n*/\npragma solidity ^0.4.18;\nimport \"./Owned.sol\";\nimport \"./SafeMath.sol\";\n\ncontract AugmintToken is owned {\n    using SafeMath for uint256;\n\n    uint256 public totalSupply; // total amount of tokens\n\n    // Balances for each account\n    mapping(address => uint256) balances;\n    // Owner of account approves the transfer of an amount to another account\n    mapping(address => mapping (address => uint256)) allowed;\n\n    address public loanManagerAddress; // used for authorisation of issuing ACD for loans\n    address public exchangeAddress; // for authorisation of transferExchange()\n\n    function () public payable {} // to accept ETH sent into reserve (from defaulted loan's collateral )\n    // TODO: shall we put protection against accidentally sending in ETH?\n\n    // What is the balance of a particular account?\n    function balanceOf(address _owner) external view returns (uint256 balance) {\n        return balances[_owner];\n    }\n\n    event e_loanManagerAddressChanged(address newAddress);\n    function setLoanManagerAddress(address newAddress) external onlyOwner {\n        loanManagerAddress = newAddress;\n        e_loanManagerAddressChanged(newAddress);\n    }\n\n    event e_exchangeAddressChanged(address newAddress);\n    function setExchangeAddress(address newAddress) external onlyOwner {\n        exchangeAddress = newAddress;\n        e_exchangeAddressChanged(newAddress);\n    }\n\n    event e_transfer(address indexed from, address indexed to, uint amount, string narrative);\n\n    function transfer(address _to, uint256 _amount) external {\n        _transfer(msg.sender, _to, _amount, \"\");\n    }\n\n    function transferWithNarrative(address _to, uint256 _amount, string _narrative) external {\n        _transfer(msg.sender, _to, _amount, _narrative);\n    }\n\n    function transferNoFee(address _from, address _to, uint256 _amount, string _narrative) external {\n        require( msg.sender == exchangeAddress || msg.sender == loanManagerAddress);\n        _transfer(_from, _to, _amount, _narrative);\n    }\n\n    function _transfer(address _from, address _to, uint256 _amount, string narrative) internal {\n        // TODO: add fee arg, calc fee and deduct fee if there is any\n        require(_from != _to); // no need to send to myself. Makes client code simpler if we don't allow\n        require(balances[_from] >= _amount);\n        require(_amount > 0);\n        balances[_from] = balances[_from].sub(_amount);\n        balances[_to] = balances[_to].add(_amount);\n        e_transfer(_from, _to, _amount, narrative);\n    }\n\n    // Allow _spender to withdraw from your account, multiple times, up to the _value amount.\n    // If this function is called again it overwrites the current allowance with _value.\n    function approve(address _spender, uint256 _amount) external returns (bool success) {\n        require(msg.sender != _spender); // no need to approve for myself. Makes client code simpler if we don't allow\n        allowed[msg.sender][_spender] = _amount;\n        // TODO: emit event\n        return true;\n    }\n\n    // Send _value amount of tokens from address _from to address _to\n    // The transferFrom method is used for a withdraw workflow, allowing contracts to send\n    // tokens on your behalf, for example to \"deposit\" to a contract address and/or to charge\n    // fees in sub-currencies; the command should fail unless the _from account has\n    // deliberately authorized the sender of the message via some mechanism; we propose\n    // these standardized APIs for approval:\n    // This is only callable by the parent contract which emits transfer events\n    function transferFrom(\n            address _from,\n            address _to,\n            uint256 _amount\n        ) public {\n        transferFromWithNarrative(_from, _to, _amount, \"\");\n    }\n\n    function transferFromWithNarrative(\n        address _from,\n        address _to,\n        uint256 _amount,\n        string _narrative\n    ) public {\n        require(balances[_from] >= _amount);\n        require(allowed[_from][msg.sender] >= _amount);\n        require(_amount > 0);\n        balances[_from] = balances[_from].sub(_amount);\n        balances[_to] = balances[_to].add(_amount);\n        allowed[_from][msg.sender] = allowed[_from][msg.sender].sub(_amount);\n        e_transfer(_from, _to, _amount, _narrative);\n    }\n\n    event e_issued(uint amount);\n    function issue(uint amount) external  { // FIXME: this is only public for testing, change to internal\n        require(msg.sender == owner || msg.sender == loanManagerAddress); // this won't be needed when we change it internal\n        totalSupply = totalSupply.add(amount);\n        balances[this] = balances[this].add(amount);\n        e_issued(amount);\n    }\n\n    event e_burned(uint amount);\n    function burn(uint amount) external {\n        require(msg.sender == loanManagerAddress);\n        require( amount <= balances[this]);\n        totalSupply = totalSupply.sub(amount);\n        balances[this] = balances[this].sub(amount);\n        e_burned(amount);\n    }\n\n    /* This can be removed, loanManager does this\n    function repayAndBurn(address borrower, uint loanAmount, uint disbursedAmount, string narrative) external {\n        require(msg.sender == loanManagerAddress); // only called from repay()\n        systemTransfer(borrower, address(this), loanAmount, narrative);\n        if( loanAmount > disbursedAmount) { // burn all what has been issued at originiation\n            burn(loanAmount);\n        } else  {\n            burn(disbursedAmount); // loan was with zero or negative interest\n        }\n    }*/\n\n    // FIXME: this is only for testing, remove this function\n    function getFromReserve(uint amount) external onlyOwner {\n        require(amount <= balances[this]);\n        balances[this] = balances[this].sub(amount);\n        balances[msg.sender] = balances[msg.sender].add(amount);\n    }\n\n    /* This can be removed, loanManager does this\n    function issueAndDisburse(address borrower, uint loanAmount, uint disbursedAmount, string narrative) external {\n        require( msg.sender == loanManagerAddress);\n        require(loanAmount > 0);\n        if( loanAmount > disbursedAmount) {\n            issue(loanAmount);\n        } else {\n            issue(disbursedAmount); // negative or zero interest loan\n        }\n        systemTransfer(address(this), borrower, disbursedAmount, narrative);\n        // we leave the interest part (if any) in reserve\n    }*/\n\n}\n",
  "sourcePath": "/Users/petro/ether/dcm-poc/contracts/AugmintToken.sol",
  "compiler": {
    "name": "solc",
    "version": "0.4.18+commit.9cf6e910.Emscripten.clang"
  },
  "schemaVersion": "1.0.1",
  "updatedAt": "2017-11-19T08:10:40.223Z"
}