{
  "contractName": "AugmintToken",
  "abi": [
    {
      "constant": false,
      "inputs": [
        {
          "name": "newAddress",
          "type": "address"
        }
      ],
      "name": "setFeeAccountAddress",
      "outputs": [],
      "payable": false,
      "stateMutability": "nonpayable",
      "type": "function"
    },
    {
      "constant": false,
      "inputs": [
        {
          "name": "_to",
          "type": "address"
        },
        {
          "name": "_amount",
          "type": "uint256"
        }
      ],
      "name": "withdrawTokens",
      "outputs": [],
      "payable": false,
      "stateMutability": "nonpayable",
      "type": "function"
    },
    {
      "constant": false,
      "inputs": [
        {
          "name": "_spender",
          "type": "address"
        },
        {
          "name": "_amount",
          "type": "uint256"
        }
      ],
      "name": "approve",
      "outputs": [
        {
          "name": "success",
          "type": "bool"
        }
      ],
      "payable": false,
      "stateMutability": "nonpayable",
      "type": "function"
    },
    {
      "constant": false,
      "inputs": [
        {
          "name": "_new",
          "type": "address"
        }
      ],
      "name": "setOwner",
      "outputs": [],
      "payable": false,
      "stateMutability": "nonpayable",
      "type": "function"
    },
    {
      "constant": true,
      "inputs": [],
      "name": "totalSupply",
      "outputs": [
        {
          "name": "",
          "type": "uint256"
        }
      ],
      "payable": false,
      "stateMutability": "view",
      "type": "function"
    },
    {
      "constant": false,
      "inputs": [
        {
          "name": "_from",
          "type": "address"
        },
        {
          "name": "_to",
          "type": "address"
        },
        {
          "name": "_amount",
          "type": "uint256"
        }
      ],
      "name": "transferFrom",
      "outputs": [],
      "payable": false,
      "stateMutability": "nonpayable",
      "type": "function"
    },
    {
      "constant": true,
      "inputs": [],
      "name": "transferFeeDiv",
      "outputs": [
        {
          "name": "",
          "type": "uint256"
        }
      ],
      "payable": false,
      "stateMutability": "view",
      "type": "function"
    },
    {
      "constant": true,
      "inputs": [],
      "name": "loanManagerAddress",
      "outputs": [
        {
          "name": "",
          "type": "address"
        }
      ],
      "payable": false,
      "stateMutability": "view",
      "type": "function"
    },
    {
      "constant": false,
      "inputs": [
        {
          "name": "amount",
          "type": "uint256"
        }
      ],
      "name": "burn",
      "outputs": [],
      "payable": false,
      "stateMutability": "nonpayable",
      "type": "function"
    },
    {
      "constant": true,
      "inputs": [],
      "name": "feeAccount",
      "outputs": [
        {
          "name": "",
          "type": "address"
        }
      ],
      "payable": false,
      "stateMutability": "view",
      "type": "function"
    },
    {
      "constant": true,
      "inputs": [
        {
          "name": "_owner",
          "type": "address"
        }
      ],
      "name": "balanceOf",
      "outputs": [
        {
          "name": "balance",
          "type": "uint256"
        }
      ],
      "payable": false,
      "stateMutability": "view",
      "type": "function"
    },
    {
      "constant": true,
      "inputs": [],
      "name": "transferFeeMax",
      "outputs": [
        {
          "name": "",
          "type": "uint256"
        }
      ],
      "payable": false,
      "stateMutability": "view",
      "type": "function"
    },
    {
      "constant": false,
      "inputs": [
        {
          "name": "_from",
          "type": "address"
        },
        {
          "name": "_to",
          "type": "address"
        },
        {
          "name": "_amount",
          "type": "uint256"
        },
        {
          "name": "_narrative",
          "type": "string"
        }
      ],
      "name": "transferFromWithNarrative",
      "outputs": [],
      "payable": false,
      "stateMutability": "nonpayable",
      "type": "function"
    },
    {
      "constant": true,
      "inputs": [],
      "name": "owner",
      "outputs": [
        {
          "name": "",
          "type": "address"
        }
      ],
      "payable": false,
      "stateMutability": "view",
      "type": "function"
    },
    {
      "constant": true,
      "inputs": [],
      "name": "exchangeAddress",
      "outputs": [
        {
          "name": "",
          "type": "address"
        }
      ],
      "payable": false,
      "stateMutability": "view",
      "type": "function"
    },
    {
      "constant": true,
      "inputs": [],
      "name": "transferFeeMin",
      "outputs": [
        {
          "name": "",
          "type": "uint256"
        }
      ],
      "payable": false,
      "stateMutability": "view",
      "type": "function"
    },
    {
      "constant": false,
      "inputs": [
        {
          "name": "_to",
          "type": "address"
        },
        {
          "name": "_amount",
          "type": "uint256"
        }
      ],
      "name": "transfer",
      "outputs": [],
      "payable": false,
      "stateMutability": "nonpayable",
      "type": "function"
    },
    {
      "constant": false,
      "inputs": [
        {
          "name": "_from",
          "type": "address"
        },
        {
          "name": "_to",
          "type": "address"
        },
        {
          "name": "_amount",
          "type": "uint256"
        },
        {
          "name": "_narrative",
          "type": "string"
        }
      ],
      "name": "transferNoFee",
      "outputs": [],
      "payable": false,
      "stateMutability": "nonpayable",
      "type": "function"
    },
    {
      "constant": false,
      "inputs": [
        {
          "name": "_transferFeeDiv",
          "type": "uint256"
        },
        {
          "name": "_transferFeeMin",
          "type": "uint256"
        },
        {
          "name": "_transferFeeMax",
          "type": "uint256"
        }
      ],
      "name": "setTransferFees",
      "outputs": [],
      "payable": false,
      "stateMutability": "nonpayable",
      "type": "function"
    },
    {
      "constant": false,
      "inputs": [
        {
          "name": "amount",
          "type": "uint256"
        }
      ],
      "name": "issue",
      "outputs": [],
      "payable": false,
      "stateMutability": "nonpayable",
      "type": "function"
    },
    {
      "constant": false,
      "inputs": [
        {
          "name": "newAddress",
          "type": "address"
        }
      ],
      "name": "setExchangeAddress",
      "outputs": [],
      "payable": false,
      "stateMutability": "nonpayable",
      "type": "function"
    },
    {
      "constant": false,
      "inputs": [
        {
          "name": "newAddress",
          "type": "address"
        }
      ],
      "name": "setLoanManagerAddress",
      "outputs": [],
      "payable": false,
      "stateMutability": "nonpayable",
      "type": "function"
    },
    {
      "constant": false,
      "inputs": [
        {
          "name": "_to",
          "type": "address"
        },
        {
          "name": "_amount",
          "type": "uint256"
        },
        {
          "name": "_narrative",
          "type": "string"
        }
      ],
      "name": "transferWithNarrative",
      "outputs": [],
      "payable": false,
      "stateMutability": "nonpayable",
      "type": "function"
    },
    {
      "payable": true,
      "stateMutability": "payable",
      "type": "fallback"
    },
    {
      "anonymous": false,
      "inputs": [
        {
          "indexed": false,
          "name": "newAddress",
          "type": "address"
        }
      ],
      "name": "e_loanManagerAddressChanged",
      "type": "event"
    },
    {
      "anonymous": false,
      "inputs": [
        {
          "indexed": false,
          "name": "newAddress",
          "type": "address"
        }
      ],
      "name": "e_exchangeAddressChanged",
      "type": "event"
    },
    {
      "anonymous": false,
      "inputs": [
        {
          "indexed": false,
          "name": "newAddress",
          "type": "address"
        }
      ],
      "name": "e_feeAccountChanged",
      "type": "event"
    },
    {
      "anonymous": false,
      "inputs": [
        {
          "indexed": false,
          "name": "_transferFeePt",
          "type": "uint256"
        },
        {
          "indexed": false,
          "name": "_transferFeeMin",
          "type": "uint256"
        },
        {
          "indexed": false,
          "name": "_transferFeeMax",
          "type": "uint256"
        }
      ],
      "name": "e_transferFeesChanged",
      "type": "event"
    },
    {
      "anonymous": false,
      "inputs": [
        {
          "indexed": true,
          "name": "from",
          "type": "address"
        },
        {
          "indexed": true,
          "name": "to",
          "type": "address"
        },
        {
          "indexed": false,
          "name": "amount",
          "type": "uint256"
        },
        {
          "indexed": false,
          "name": "narrative",
          "type": "string"
        },
        {
          "indexed": false,
          "name": "fee",
          "type": "uint256"
        }
      ],
      "name": "e_transfer",
      "type": "event"
    },
    {
      "anonymous": false,
      "inputs": [
        {
          "indexed": false,
          "name": "amount",
          "type": "uint256"
        }
      ],
      "name": "e_issued",
      "type": "event"
    },
    {
      "anonymous": false,
      "inputs": [
        {
          "indexed": false,
          "name": "amount",
          "type": "uint256"
        }
      ],
      "name": "e_burned",
      "type": "event"
    },
    {
      "anonymous": false,
      "inputs": [
        {
          "indexed": true,
          "name": "old",
          "type": "address"
        },
        {
          "indexed": true,
          "name": "current",
          "type": "address"
        }
      ],
      "name": "NewOwner",
      "type": "event"
    }
  ],
  "bytecode": "0x6060604052336000806101000a81548173ffffffffffffffffffffffffffffffffffffffff021916908373ffffffffffffffffffffffffffffffffffffffff160217905550611c88806100536000396000f300606060405260043610610133576000357c0100000000000000000000000000000000000000000000000000000000900463ffffffff168063031959e51461013557806306b091f91461016e578063095ea7b3146101b057806313af40351461020a57806318160ddd1461024357806323b872dd1461026c5780633da26d99146102cd57806340eefcbf146102f657806342966c681461034b57806365e17c9d1461036e57806370a08231146103c357806372a1eecc1461041057806376587921146104395780638da5cb5b146104dd5780639cd0160514610532578063a7f839a714610587578063a9059cbb146105b0578063b0455f13146105f2578063bfd201f514610667578063cc872b661461069c578063d082ea8c146106bf578063da09bd4a146106f8578063ffdcf09514610731575b005b341561014057600080fd5b61016c600480803573ffffffffffffffffffffffffffffffffffffffff16906020019091905050610787565b005b341561017957600080fd5b6101ae600480803573ffffffffffffffffffffffffffffffffffffffff16906020019091908035906020019091905050610889565b005b34156101bb57600080fd5b6101f0600480803573ffffffffffffffffffffffffffffffffffffffff16906020019091908035906020019091905050610a60565b604051808215151515815260200191505060405180910390f35b341561021557600080fd5b610241600480803573ffffffffffffffffffffffffffffffffffffffff16906020019091905050610b28565b005b341561024e57600080fd5b610256610c41565b6040518082815260200191505060405180910390f35b341561027757600080fd5b6102cb600480803573ffffffffffffffffffffffffffffffffffffffff1690602001909190803573ffffffffffffffffffffffffffffffffffffffff16906020019091908035906020019091905050610c47565b005b34156102d857600080fd5b6102e0610c68565b6040518082815260200191505060405180910390f35b341561030157600080fd5b610309610c6e565b604051808273ffffffffffffffffffffffffffffffffffffffff1673ffffffffffffffffffffffffffffffffffffffff16815260200191505060405180910390f35b341561035657600080fd5b61036c6004808035906020019091905050610c94565b005b341561037957600080fd5b610381610e28565b604051808273ffffffffffffffffffffffffffffffffffffffff1673ffffffffffffffffffffffffffffffffffffffff16815260200191505060405180910390f35b34156103ce57600080fd5b6103fa600480803573ffffffffffffffffffffffffffffffffffffffff16906020019091905050610e4e565b6040518082815260200191505060405180910390f35b341561041b57600080fd5b610423610e97565b6040518082815260200191505060405180910390f35b341561044457600080fd5b6104db600480803573ffffffffffffffffffffffffffffffffffffffff1690602001909190803573ffffffffffffffffffffffffffffffffffffffff1690602001909190803590602001909190803590602001908201803590602001908080601f01602080910402602001604051908101604052809392919081815260200183838082843782019150505050505091905050610e9d565b005b34156104e857600080fd5b6104f06112a6565b604051808273ffffffffffffffffffffffffffffffffffffffff1673ffffffffffffffffffffffffffffffffffffffff16815260200191505060405180910390f35b341561053d57600080fd5b6105456112cb565b604051808273ffffffffffffffffffffffffffffffffffffffff1673ffffffffffffffffffffffffffffffffffffffff16815260200191505060405180910390f35b341561059257600080fd5b61059a6112f1565b6040518082815260200191505060405180910390f35b34156105bb57600080fd5b6105f0600480803573ffffffffffffffffffffffffffffffffffffffff169060200190919080359060200190919050506112f7565b005b34156105fd57600080fd5b610665600480803573ffffffffffffffffffffffffffffffffffffffff1690602001909190803573ffffffffffffffffffffffffffffffffffffffff169060200190919080359060200190919080359060200190820180359060200191909192905050611320565b005b341561067257600080fd5b61069a600480803590602001909190803590602001909190803590602001909190505061141b565b005b34156106a757600080fd5b6106bd6004808035906020019091905050611490565b005b34156106ca57600080fd5b6106f6600480803573ffffffffffffffffffffffffffffffffffffffff1690602001909190505061162d565b005b341561070357600080fd5b61072f600480803573ffffffffffffffffffffffffffffffffffffffff1690602001909190505061172f565b005b341561073c57600080fd5b610785600480803573ffffffffffffffffffffffffffffffffffffffff169060200190919080359060200190919080359060200190820180359060200191909192905050611831565b005b6000809054906101000a900473ffffffffffffffffffffffffffffffffffffffff1673ffffffffffffffffffffffffffffffffffffffff163373ffffffffffffffffffffffffffffffffffffffff161415156107e257600080fd5b80600660006101000a81548173ffffffffffffffffffffffffffffffffffffffff021916908373ffffffffffffffffffffffffffffffffffffffff1602179055507fbb68edc9f4444e92b8976173525dca196ace9c5d4310695cf0404cbd87aedd6881604051808273ffffffffffffffffffffffffffffffffffffffff1673ffffffffffffffffffffffffffffffffffffffff16815260200191505060405180910390a150565b6000809054906101000a900473ffffffffffffffffffffffffffffffffffffffff1673ffffffffffffffffffffffffffffffffffffffff163373ffffffffffffffffffffffffffffffffffffffff161415156108e457600080fd5b600260003073ffffffffffffffffffffffffffffffffffffffff1673ffffffffffffffffffffffffffffffffffffffff16815260200190815260200160002054811115151561093257600080fd5b61098481600260003073ffffffffffffffffffffffffffffffffffffffff1673ffffffffffffffffffffffffffffffffffffffff1681526020019081526020016000205461187e90919063ffffffff16565b600260003073ffffffffffffffffffffffffffffffffffffffff1673ffffffffffffffffffffffffffffffffffffffff16815260200190815260200160002081905550610a1981600260008573ffffffffffffffffffffffffffffffffffffffff1673ffffffffffffffffffffffffffffffffffffffff1681526020019081526020016000205461189a90919063ffffffff16565b600260008473ffffffffffffffffffffffffffffffffffffffff1673ffffffffffffffffffffffffffffffffffffffff168152602001908152602001600020819055505050565b60008273ffffffffffffffffffffffffffffffffffffffff163373ffffffffffffffffffffffffffffffffffffffff1614151515610a9d57600080fd5b81600360003373ffffffffffffffffffffffffffffffffffffffff1673ffffffffffffffffffffffffffffffffffffffff16815260200190815260200160002060008573ffffffffffffffffffffffffffffffffffffffff1673ffffffffffffffffffffffffffffffffffffffff168152602001908152602001600020819055506001905092915050565b6000809054906101000a900473ffffffffffffffffffffffffffffffffffffffff1673ffffffffffffffffffffffffffffffffffffffff163373ffffffffffffffffffffffffffffffffffffffff16141515610b8357600080fd5b8073ffffffffffffffffffffffffffffffffffffffff166000809054906101000a900473ffffffffffffffffffffffffffffffffffffffff1673ffffffffffffffffffffffffffffffffffffffff167f70aea8d848e8a90fb7661b227dc522eb6395c3dac71b63cb59edd5c9899b236460405160405180910390a3806000806101000a81548173ffffffffffffffffffffffffffffffffffffffff021916908373ffffffffffffffffffffffffffffffffffffffff16021790555050565b60015481565b610c638383836020604051908101604052806000815250610e9d565b505050565b60075481565b600460009054906101000a900473ffffffffffffffffffffffffffffffffffffffff1681565b600460009054906101000a900473ffffffffffffffffffffffffffffffffffffffff1673ffffffffffffffffffffffffffffffffffffffff163373ffffffffffffffffffffffffffffffffffffffff16141515610cf057600080fd5b600260003073ffffffffffffffffffffffffffffffffffffffff1673ffffffffffffffffffffffffffffffffffffffff168152602001908152602001600020548111151515610d3e57600080fd5b610d538160015461187e90919063ffffffff16565b600181905550610dab81600260003073ffffffffffffffffffffffffffffffffffffffff1673ffffffffffffffffffffffffffffffffffffffff1681526020019081526020016000205461187e90919063ffffffff16565b600260003073ffffffffffffffffffffffffffffffffffffffff1673ffffffffffffffffffffffffffffffffffffffff168152602001908152602001600020819055507fe3317934b57fdd4e8fdbde29a2292e43940f9b5d858c010a9821eaaf96c8121f816040518082815260200191505060405180910390a150565b600660009054906101000a900473ffffffffffffffffffffffffffffffffffffffff1681565b6000600260008373ffffffffffffffffffffffffffffffffffffffff1673ffffffffffffffffffffffffffffffffffffffff168152602001908152602001600020549050919050565b60095481565b81600260008673ffffffffffffffffffffffffffffffffffffffff1673ffffffffffffffffffffffffffffffffffffffff1681526020019081526020016000205410151515610eeb57600080fd5b81600360008673ffffffffffffffffffffffffffffffffffffffff1673ffffffffffffffffffffffffffffffffffffffff16815260200190815260200160002060003373ffffffffffffffffffffffffffffffffffffffff1673ffffffffffffffffffffffffffffffffffffffff1681526020019081526020016000205410151515610f7657600080fd5b600082111515610f8557600080fd5b610fd782600260008773ffffffffffffffffffffffffffffffffffffffff1673ffffffffffffffffffffffffffffffffffffffff1681526020019081526020016000205461187e90919063ffffffff16565b600260008673ffffffffffffffffffffffffffffffffffffffff1673ffffffffffffffffffffffffffffffffffffffff1681526020019081526020016000208190555061106c82600260008673ffffffffffffffffffffffffffffffffffffffff1673ffffffffffffffffffffffffffffffffffffffff1681526020019081526020016000205461189a90919063ffffffff16565b600260008573ffffffffffffffffffffffffffffffffffffffff1673ffffffffffffffffffffffffffffffffffffffff1681526020019081526020016000208190555061113e82600360008773ffffffffffffffffffffffffffffffffffffffff1673ffffffffffffffffffffffffffffffffffffffff16815260200190815260200160002060003373ffffffffffffffffffffffffffffffffffffffff1673ffffffffffffffffffffffffffffffffffffffff1681526020019081526020016000205461187e90919063ffffffff16565b600360008673ffffffffffffffffffffffffffffffffffffffff1673ffffffffffffffffffffffffffffffffffffffff16815260200190815260200160002060003373ffffffffffffffffffffffffffffffffffffffff1673ffffffffffffffffffffffffffffffffffffffff168152602001908152602001600020819055508273ffffffffffffffffffffffffffffffffffffffff168473ffffffffffffffffffffffffffffffffffffffff167fc5c7f02ebfd7cb0a85cb40960ffc5ef5d6548458ccf76c7d143d200164c9cd238484611218876118bb565b6040518084815260200180602001838152602001828103825284818151815260200191508051906020019080838360005b83811015611264578082015181840152602081019050611249565b50505050905090810190601f1680156112915780820380516001836020036101000a031916815260200191505b5094505050505060405180910390a350505050565b6000809054906101000a900473ffffffffffffffffffffffffffffffffffffffff1681565b600560009054906101000a900473ffffffffffffffffffffffffffffffffffffffff1681565b60085481565b61131c3383836020604051908101604052806000815250611317866118bb565b611901565b5050565b600560009054906101000a900473ffffffffffffffffffffffffffffffffffffffff1673ffffffffffffffffffffffffffffffffffffffff163373ffffffffffffffffffffffffffffffffffffffff1614806113c95750600460009054906101000a900473ffffffffffffffffffffffffffffffffffffffff1673ffffffffffffffffffffffffffffffffffffffff163373ffffffffffffffffffffffffffffffffffffffff16145b15156113d457600080fd5b61141485858585858080601f0160208091040260200160405190810160405280939291908181526020018383808284378201915050505050506000611901565b5050505050565b6000809054906101000a900473ffffffffffffffffffffffffffffffffffffffff1673ffffffffffffffffffffffffffffffffffffffff163373ffffffffffffffffffffffffffffffffffffffff1614151561147657600080fd5b826007819055508160088190555080600981905550505050565b6000809054906101000a900473ffffffffffffffffffffffffffffffffffffffff1673ffffffffffffffffffffffffffffffffffffffff163373ffffffffffffffffffffffffffffffffffffffff1614806115385750600460009054906101000a900473ffffffffffffffffffffffffffffffffffffffff1673ffffffffffffffffffffffffffffffffffffffff163373ffffffffffffffffffffffffffffffffffffffff16145b151561154357600080fd5b6115588160015461189a90919063ffffffff16565b6001819055506115b081600260003073ffffffffffffffffffffffffffffffffffffffff1673ffffffffffffffffffffffffffffffffffffffff1681526020019081526020016000205461189a90919063ffffffff16565b600260003073ffffffffffffffffffffffffffffffffffffffff1673ffffffffffffffffffffffffffffffffffffffff168152602001908152602001600020819055507fe577e4f006808eed5d0ad8485b418f02acc793550ea62ad75159c3255848ed63816040518082815260200191505060405180910390a150565b6000809054906101000a900473ffffffffffffffffffffffffffffffffffffffff1673ffffffffffffffffffffffffffffffffffffffff163373ffffffffffffffffffffffffffffffffffffffff1614151561168857600080fd5b80600560006101000a81548173ffffffffffffffffffffffffffffffffffffffff021916908373ffffffffffffffffffffffffffffffffffffffff1602179055507faa20649ee6d7a1749d66a7e4a9482bcaf13735dde9fddd027ce53611f5ef47c181604051808273ffffffffffffffffffffffffffffffffffffffff1673ffffffffffffffffffffffffffffffffffffffff16815260200191505060405180910390a150565b6000809054906101000a900473ffffffffffffffffffffffffffffffffffffffff1673ffffffffffffffffffffffffffffffffffffffff163373ffffffffffffffffffffffffffffffffffffffff1614151561178a57600080fd5b80600460006101000a81548173ffffffffffffffffffffffffffffffffffffffff021916908373ffffffffffffffffffffffffffffffffffffffff1602179055507fab5b35579f32673e56d1369471531f244de4fccc5bbe0bb9ca7566ece0cd27e381604051808273ffffffffffffffffffffffffffffffffffffffff1673ffffffffffffffffffffffffffffffffffffffff16815260200191505060405180910390a150565b61187833858585858080601f016020809104026020016040519081016040528093929190818152602001838380828437820191505050505050611873886118bb565b611901565b50505050565b600082821115151561188f57600080fd5b818303905092915050565b60008082840190508381101515156118b157600080fd5b8091505092915050565b60006118d260075483611c4190919063ffffffff16565b90506009548111156118e85760095490506118f9565b6008548110156118f85760085490505b5b809050919050565b8373ffffffffffffffffffffffffffffffffffffffff168573ffffffffffffffffffffffffffffffffffffffff161415151561193c57600080fd5b60008311151561194b57600080fd5b6119bf8160026000600660009054906101000a900473ffffffffffffffffffffffffffffffffffffffff1673ffffffffffffffffffffffffffffffffffffffff1673ffffffffffffffffffffffffffffffffffffffff1681526020019081526020016000205461189a90919063ffffffff16565b60026000600660009054906101000a900473ffffffffffffffffffffffffffffffffffffffff1673ffffffffffffffffffffffffffffffffffffffff1673ffffffffffffffffffffffffffffffffffffffff16815260200190815260200160002081905550611a8881611a7a85600260008a73ffffffffffffffffffffffffffffffffffffffff1673ffffffffffffffffffffffffffffffffffffffff1681526020019081526020016000205461187e90919063ffffffff16565b61187e90919063ffffffff16565b600260008773ffffffffffffffffffffffffffffffffffffffff1673ffffffffffffffffffffffffffffffffffffffff16815260200190815260200160002081905550611b1d83600260008773ffffffffffffffffffffffffffffffffffffffff1673ffffffffffffffffffffffffffffffffffffffff1681526020019081526020016000205461189a90919063ffffffff16565b600260008673ffffffffffffffffffffffffffffffffffffffff1673ffffffffffffffffffffffffffffffffffffffff168152602001908152602001600020819055508373ffffffffffffffffffffffffffffffffffffffff168573ffffffffffffffffffffffffffffffffffffffff167fc5c7f02ebfd7cb0a85cb40960ffc5ef5d6548458ccf76c7d143d200164c9cd238585856040518084815260200180602001838152602001828103825284818151815260200191508051906020019080838360005b83811015611bfe578082015181840152602081019050611be3565b50505050905090810190601f168015611c2b5780820380516001836020036101000a031916815260200191505b5094505050505060405180910390a35050505050565b6000808284811515611c4f57fe5b04905080915050929150505600a165627a7a7230582040029e46890d072db27b4c14c37d901210efd4c4e5356fec87d5d649c62bffc10029",
  "source": "/* Generic Augmint Token implementation (ERC20 token)\n    This contract manages:\n        * Balances of Augmint holders and transactions between them\n        * Issues and burns tokens\n            - manually by the contract owner or\n            - automatically when new loan issued or repaid\n        * Holds  reserves:\n            - ETH as regular ETH balance of the contract\n            - ERC20 token reserve (stored as regular Token balance under the contract address)\n            TODO: separate reserve contract in order to hold any ERC20 token in one reserve\n\n        Note that all reserves are held under the contract address,\n          therefore any transaction on the reserve is limited to the tx-s defined here\n          (ie. transfer of reserve is not possible by the contract owner)\n\n    TODO: split this: ERC20 base - generic Augmint Token\n    TODO: separate data from logic for code upgradeablity\n    TODO: if we emit generic events from here then can we filter to specific AugmintTokens?\n    TODO: decision making mechanism (ie. replace all onlyOwner)\n    TODO: remove test functions (getFromReserve + restrict issue)\n    TODO: check more security best practices, eg: https://github.com/ConsenSys/smart-contract-best-practices,\n                        https://github.com/OpenZeppelin/zeppelin-solidity\n                        https://github.com/OpenZeppelin/zeppelin-solidity/tree/master/contracts/token\n*/\npragma solidity ^0.4.18;\nimport \"./Owned.sol\";\nimport \"./SafeMath.sol\";\n\ncontract AugmintToken is owned {\n    using SafeMath for uint256;\n\n    uint256 public totalSupply; // total amount of tokens\n\n    // Balances for each account\n    mapping(address => uint256) balances;\n    // Owner of account approves the transfer of an amount to another account\n    mapping(address => mapping (address => uint256)) allowed;\n\n    address public loanManagerAddress; // used for authorisation of issuing ACD for loans\n    address public exchangeAddress; // for authorisation of transferExchange()\n    address public feeAccount;\n    uint public transferFeeDiv; // 1/transferFeeDiv %, eg. 500 = 0.2%\n    uint public transferFeeMin; // with base unit of augmint token, eg. 4 decimals for TokenACD, 31000 = 3.1ACD\n    uint public transferFeeMax; // with base unit of augmint token, eg. 4 decimals for TokenACD, 31000 = 3.1ACD\n\n    /* TODO: TRUFFLE migrate fails on TokenAcd.deploy(...) if constructor is defined here\n        function AugmintToken(address _feeAccount, uint _transferFeePt, uint _transferFeeMin, uint _transferFeeMax) public {\n        feeAccount = _feeAccount;\n        transferFeePt = _transferFeePt;\n        transferFeeMin = _transferFeeMin;\n        transferFeeMax = _transferFeeMax;\n    }*/\n\n    function () public payable {} // to accept ETH sent into reserve (from defaulted loan's collateral )\n    // TODO: shall we put protection against accidentally sending in ETH?\n\n    function balanceOf(address _owner) external view returns (uint256 balance) {\n        return balances[_owner];\n    }\n\n    function getFee(uint amount) internal view returns (uint256 fee) {\n        fee = amount.div(transferFeeDiv) ;\n        if (fee > transferFeeMax ) {\n            fee = transferFeeMax;\n        } else if (fee < transferFeeMin) {\n            fee = transferFeeMin;\n        }\n        return fee;\n    }\n\n    event e_loanManagerAddressChanged(address newAddress);\n    function setLoanManagerAddress(address newAddress) external onlyOwner {\n        loanManagerAddress = newAddress;\n        e_loanManagerAddressChanged(newAddress);\n    }\n\n    event e_exchangeAddressChanged(address newAddress);\n    function setExchangeAddress(address newAddress) external onlyOwner {\n        exchangeAddress = newAddress;\n        e_exchangeAddressChanged(newAddress);\n    }\n\n    event e_feeAccountChanged(address newAddress);\n    function setFeeAccountAddress(address newAddress) external onlyOwner {\n        feeAccount = newAddress;\n        e_feeAccountChanged(newAddress);\n    }\n\n    event e_transferFeesChanged(uint _transferFeePt, uint _transferFeeMin, uint _transferFeeMax);\n    function setTransferFees(uint _transferFeeDiv, uint _transferFeeMin, uint _transferFeeMax) external onlyOwner {\n        transferFeeDiv = _transferFeeDiv;\n        transferFeeMin = _transferFeeMin;\n        transferFeeMax = _transferFeeMax;\n    }\n\n    event e_transfer(address indexed from, address indexed to, uint amount, string narrative, uint fee);\n\n    function transfer(address _to, uint256 _amount) external {\n        _transfer(msg.sender, _to, _amount, \"\", getFee(_amount));\n    }\n\n    function transferWithNarrative(address _to, uint256 _amount, string _narrative) external {\n        _transfer(msg.sender, _to, _amount, _narrative, getFee(_amount));\n    }\n\n    function transferNoFee(address _from, address _to, uint256 _amount, string _narrative) external {\n        require( msg.sender == exchangeAddress || msg.sender == loanManagerAddress);\n        _transfer(_from, _to, _amount, _narrative, 0);\n    }\n\n    function _transfer(address _from, address _to, uint256 _amount, string narrative, uint _fee) internal {\n        // TODO: add fee arg, calc fee and deduct fee if there is any\n        require(_from != _to); // no need to send to myself. Makes client code simpler if we don't allow\n        require(_amount > 0);\n        balances[feeAccount] = balances[feeAccount].add(_fee);\n        balances[_from] = balances[_from].sub(_amount).sub(_fee);\n        balances[_to] = balances[_to].add(_amount);\n        e_transfer(_from, _to, _amount, narrative, _fee);\n    }\n\n    // Allow _spender to withdraw from your account, multiple times, up to the _value amount.\n    // If this function is called again it overwrites the current allowance with _value.\n    function approve(address _spender, uint256 _amount) external returns (bool success) {\n        require(msg.sender != _spender); // no need to approve for myself. Makes client code simpler if we don't allow\n        allowed[msg.sender][_spender] = _amount;\n        // TODO: emit event\n        return true;\n    }\n\n    // Send _value amount of tokens from address _from to address _to\n    // The transferFrom method is used for a withdraw workflow, allowing contracts to send\n    // tokens on your behalf, for example to \"deposit\" to a contract address and/or to charge\n    // fees in sub-currencies; the command should fail unless the _from account has\n    // deliberately authorized the sender of the message via some mechanism; we propose\n    // these standardized APIs for approval:\n    // This is only callable by the parent contract which emits transfer events\n    function transferFrom(\n            address _from,\n            address _to,\n            uint256 _amount\n        ) public {\n        transferFromWithNarrative(_from, _to, _amount, \"\");\n    }\n\n    function transferFromWithNarrative(\n        address _from,\n        address _to,\n        uint256 _amount,\n        string _narrative\n    ) public {\n        require(balances[_from] >= _amount);\n        require(allowed[_from][msg.sender] >= _amount);\n        require(_amount > 0);\n        balances[_from] = balances[_from].sub(_amount);\n        balances[_to] = balances[_to].add(_amount);\n        allowed[_from][msg.sender] = allowed[_from][msg.sender].sub(_amount);\n        e_transfer(_from, _to, _amount, _narrative, getFee(_amount));\n    }\n\n    event e_issued(uint amount);\n    function issue(uint amount) external  {\n        // FIXME: owner only allowed for testing, remove from production\n        require(msg.sender == owner || msg.sender == loanManagerAddress);\n        totalSupply = totalSupply.add(amount);\n        balances[this] = balances[this].add(amount);\n        e_issued(amount);\n    }\n\n    event e_burned(uint amount);\n    function burn(uint amount) external {\n        require(msg.sender == loanManagerAddress);\n        require( amount <= balances[this]);\n        totalSupply = totalSupply.sub(amount);\n        balances[this] = balances[this].sub(amount);\n        e_burned(amount);\n    }\n\n    /* This can be removed, loanManager does this\n    function repayAndBurn(address borrower, uint loanAmount, uint disbursedAmount, string narrative) external {\n        require(msg.sender == loanManagerAddress); // only called from repay()\n        systemTransfer(borrower, address(this), loanAmount, narrative);\n        if( loanAmount > disbursedAmount) { // burn all what has been issued at originiation\n            burn(loanAmount);\n        } else  {\n            burn(disbursedAmount); // loan was with zero or negative interest\n        }\n    }*/\n\n    // FIXME: this is only for testing, remove this function from production\n    function withdrawTokens(address _to, uint _amount) external onlyOwner {\n        require(_amount <= balances[this]);\n        balances[this] = balances[this].sub(_amount);\n        balances[_to] = balances[_to].add(_amount);\n    }\n\n    /* This can be removed, loanManager does this\n    function issueAndDisburse(address borrower, uint loanAmount, uint disbursedAmount, string narrative) external {\n        require( msg.sender == loanManagerAddress);\n        require(loanAmount > 0);\n        if( loanAmount > disbursedAmount) {\n            issue(loanAmount);\n        } else {\n            issue(disbursedAmount); // negative or zero interest loan\n        }\n        systemTransfer(address(this), borrower, disbursedAmount, narrative);\n        // we leave the interest part (if any) in reserve\n    }*/\n\n}\n",
  "sourcePath": "/Users/petro/ether/dcm-poc/contracts/AugmintToken.sol",
  "compiler": {
    "name": "solc",
    "version": "0.4.18+commit.9cf6e910.Emscripten.clang"
  },
  "schemaVersion": "1.0.1",
  "updatedAt": "2017-11-20T15:32:05.643Z"
}