{
  "contractName": "Exchange",
  "abi": [
    {
      "constant": true,
      "inputs": [
        {
          "name": "",
          "type": "address"
        },
        {
          "name": "",
          "type": "uint256"
        }
      ],
      "name": "m_orders",
      "outputs": [
        {
          "name": "",
          "type": "uint80"
        }
      ],
      "payable": false,
      "stateMutability": "view",
      "type": "function"
    },
    {
      "constant": false,
      "inputs": [
        {
          "name": "_new",
          "type": "address"
        }
      ],
      "name": "setOwner",
      "outputs": [],
      "payable": false,
      "stateMutability": "nonpayable",
      "type": "function"
    },
    {
      "constant": true,
      "inputs": [],
      "name": "tokenUcd",
      "outputs": [
        {
          "name": "",
          "type": "address"
        }
      ],
      "payable": false,
      "stateMutability": "view",
      "type": "function"
    },
    {
      "constant": true,
      "inputs": [],
      "name": "rates",
      "outputs": [
        {
          "name": "",
          "type": "address"
        }
      ],
      "payable": false,
      "stateMutability": "view",
      "type": "function"
    },
    {
      "constant": false,
      "inputs": [
        {
          "name": "ucdAmount",
          "type": "uint256"
        }
      ],
      "name": "placeSellUcdOrder",
      "outputs": [],
      "payable": false,
      "stateMutability": "nonpayable",
      "type": "function"
    },
    {
      "constant": true,
      "inputs": [
        {
          "name": "orderId",
          "type": "uint80"
        }
      ],
      "name": "getOrder",
      "outputs": [
        {
          "name": "maker",
          "type": "address"
        },
        {
          "name": "makerOrderIdx",
          "type": "uint80"
        },
        {
          "name": "orderType",
          "type": "uint8"
        },
        {
          "name": "amount",
          "type": "uint256"
        }
      ],
      "payable": false,
      "stateMutability": "view",
      "type": "function"
    },
    {
      "constant": true,
      "inputs": [],
      "name": "orders",
      "outputs": [
        {
          "name": "first",
          "type": "uint80"
        },
        {
          "name": "last",
          "type": "uint80"
        },
        {
          "name": "count",
          "type": "uint80"
        }
      ],
      "payable": false,
      "stateMutability": "view",
      "type": "function"
    },
    {
      "constant": true,
      "inputs": [],
      "name": "totalEthSellOrders",
      "outputs": [
        {
          "name": "",
          "type": "uint256"
        }
      ],
      "payable": false,
      "stateMutability": "view",
      "type": "function"
    },
    {
      "constant": true,
      "inputs": [
        {
          "name": "maker",
          "type": "address"
        },
        {
          "name": "_makerOrderIdx",
          "type": "uint80"
        }
      ],
      "name": "getMakerOrder",
      "outputs": [
        {
          "name": "orderId",
          "type": "uint80"
        },
        {
          "name": "makerOrderIdx",
          "type": "uint80"
        },
        {
          "name": "orderType",
          "type": "uint8"
        },
        {
          "name": "amount",
          "type": "uint256"
        }
      ],
      "payable": false,
      "stateMutability": "view",
      "type": "function"
    },
    {
      "constant": true,
      "inputs": [
        {
          "name": "maker",
          "type": "address"
        }
      ],
      "name": "getMakerOrderCount",
      "outputs": [
        {
          "name": "orderCount",
          "type": "uint256"
        }
      ],
      "payable": false,
      "stateMutability": "view",
      "type": "function"
    },
    {
      "constant": true,
      "inputs": [],
      "name": "getOrderCount",
      "outputs": [
        {
          "name": "orderCount",
          "type": "uint80"
        }
      ],
      "payable": false,
      "stateMutability": "view",
      "type": "function"
    },
    {
      "constant": true,
      "inputs": [],
      "name": "owner",
      "outputs": [
        {
          "name": "",
          "type": "address"
        }
      ],
      "payable": false,
      "stateMutability": "view",
      "type": "function"
    },
    {
      "constant": false,
      "inputs": [],
      "name": "placeSellEthOrder",
      "outputs": [],
      "payable": true,
      "stateMutability": "payable",
      "type": "function"
    },
    {
      "constant": true,
      "inputs": [
        {
          "name": "orderId",
          "type": "uint80"
        }
      ],
      "name": "iterateOpenOrders",
      "outputs": [
        {
          "name": "_orderId",
          "type": "uint80"
        },
        {
          "name": "maker",
          "type": "address"
        },
        {
          "name": "makerOrderIdx",
          "type": "uint80"
        },
        {
          "name": "orderType",
          "type": "uint8"
        },
        {
          "name": "amount",
          "type": "uint256"
        },
        {
          "name": "nextOrderId",
          "type": "uint80"
        }
      ],
      "payable": false,
      "stateMutability": "view",
      "type": "function"
    },
    {
      "constant": true,
      "inputs": [],
      "name": "totalUcdSellOrders",
      "outputs": [
        {
          "name": "",
          "type": "uint256"
        }
      ],
      "payable": false,
      "stateMutability": "view",
      "type": "function"
    },
    {
      "inputs": [
        {
          "name": "_tokenUcdAddress",
          "type": "address"
        },
        {
          "name": "_ratesAddress",
          "type": "address"
        }
      ],
      "payable": false,
      "stateMutability": "nonpayable",
      "type": "constructor"
    },
    {
      "anonymous": false,
      "inputs": [
        {
          "indexed": false,
          "name": "orderId",
          "type": "uint80"
        },
        {
          "indexed": false,
          "name": "orderType",
          "type": "uint8"
        },
        {
          "indexed": false,
          "name": "maker",
          "type": "address"
        },
        {
          "indexed": false,
          "name": "amount",
          "type": "uint256"
        }
      ],
      "name": "e_newOrder",
      "type": "event"
    },
    {
      "anonymous": false,
      "inputs": [
        {
          "indexed": false,
          "name": "orderId",
          "type": "uint80"
        },
        {
          "indexed": false,
          "name": "taker",
          "type": "address"
        },
        {
          "indexed": false,
          "name": "amountSold",
          "type": "uint256"
        },
        {
          "indexed": false,
          "name": "amountPaid",
          "type": "uint256"
        }
      ],
      "name": "e_orderFill",
      "type": "event"
    },
    {
      "anonymous": false,
      "inputs": [
        {
          "indexed": true,
          "name": "old",
          "type": "address"
        },
        {
          "indexed": true,
          "name": "current",
          "type": "address"
        }
      ],
      "name": "NewOwner",
      "type": "event"
    }
  ],
  "bytecode": "0x6060604052341561000f57600080fd5b604051604080612d8383398101604052808051906020019091908051906020019091905050336000806101000a81548173ffffffffffffffffffffffffffffffffffffffff021916908373ffffffffffffffffffffffffffffffffffffffff16021790555080600160006101000a81548173ffffffffffffffffffffffffffffffffffffffff021916908373ffffffffffffffffffffffffffffffffffffffff16021790555081600260006101000a81548173ffffffffffffffffffffffffffffffffffffffff021916908373ffffffffffffffffffffffffffffffffffffffff1602179055505050612c7c806101076000396000f3006060604052600436106100db576000357c0100000000000000000000000000000000000000000000000000000000900463ffffffff1680630f3e8af2146100e057806313af40351461014e57806335b6f81b1461018757806343f48fbd146101dc5780634c5291ed146102315780634d88a639146102545780634fb764c9146102fe57806368a958af1461037d57806374ee4d4d146103a65780637539a4251461045b5780638d0a5fbb146104a85780638da5cb5b146104e9578063a9facb421461053e578063beeb401814610548578063ec0ee35c14610630575b600080fd5b34156100eb57600080fd5b610120600480803573ffffffffffffffffffffffffffffffffffffffff16906020019091908035906020019091905050610659565b604051808269ffffffffffffffffffff1669ffffffffffffffffffff16815260200191505060405180910390f35b341561015957600080fd5b610185600480803573ffffffffffffffffffffffffffffffffffffffff169060200190919050506106a7565b005b341561019257600080fd5b61019a6107c0565b604051808273ffffffffffffffffffffffffffffffffffffffff1673ffffffffffffffffffffffffffffffffffffffff16815260200191505060405180910390f35b34156101e757600080fd5b6101ef6107e6565b604051808273ffffffffffffffffffffffffffffffffffffffff1673ffffffffffffffffffffffffffffffffffffffff16815260200191505060405180910390f35b341561023c57600080fd5b610252600480803590602001909190505061080c565b005b341561025f57600080fd5b610281600480803569ffffffffffffffffffff16906020019091905050610cc1565b604051808573ffffffffffffffffffffffffffffffffffffffff1673ffffffffffffffffffffffffffffffffffffffff1681526020018469ffffffffffffffffffff1669ffffffffffffffffffff1681526020018360018111156102e157fe5b60ff16815260200182815260200194505050505060405180910390f35b341561030957600080fd5b610311610df1565b604051808469ffffffffffffffffffff1669ffffffffffffffffffff1681526020018369ffffffffffffffffffff1669ffffffffffffffffffff1681526020018269ffffffffffffffffffff1669ffffffffffffffffffff168152602001935050505060405180910390f35b341561038857600080fd5b610390610e4b565b6040518082815260200191505060405180910390f35b34156103b157600080fd5b6103f2600480803573ffffffffffffffffffffffffffffffffffffffff1690602001909190803569ffffffffffffffffffff16906020019091905050610e51565b604051808569ffffffffffffffffffff1669ffffffffffffffffffff1681526020018469ffffffffffffffffffff1669ffffffffffffffffffff16815260200183600181111561043e57fe5b60ff16815260200182815260200194505050505060405180910390f35b341561046657600080fd5b610492600480803573ffffffffffffffffffffffffffffffffffffffff16906020019091905050610fb4565b6040518082815260200191505060405180910390f35b34156104b357600080fd5b6104bb611000565b604051808269ffffffffffffffffffff1669ffffffffffffffffffff16815260200191505060405180910390f35b34156104f457600080fd5b6104fc611023565b604051808273ffffffffffffffffffffffffffffffffffffffff1673ffffffffffffffffffffffffffffffffffffffff16815260200191505060405180910390f35b610546611048565b005b341561055357600080fd5b610575600480803569ffffffffffffffffffff169060200190919050506114d8565b604051808769ffffffffffffffffffff1669ffffffffffffffffffff1681526020018673ffffffffffffffffffffffffffffffffffffffff1673ffffffffffffffffffffffffffffffffffffffff1681526020018569ffffffffffffffffffff1669ffffffffffffffffffff1681526020018460018111156105f357fe5b60ff1681526020018381526020018269ffffffffffffffffffff1669ffffffffffffffffffff168152602001965050505050505060405180910390f35b341561063b57600080fd5b6106436116ee565b6040518082815260200191505060405180910390f35b60076020528160005260406000208181548110151561067457fe5b9060005260206000209060039182820401919006600a02915091509054906101000a900469ffffffffffffffffffff1681565b6000809054906101000a900473ffffffffffffffffffffffffffffffffffffffff1673ffffffffffffffffffffffffffffffffffffffff163373ffffffffffffffffffffffffffffffffffffffff1614151561070257600080fd5b8073ffffffffffffffffffffffffffffffffffffffff166000809054906101000a900473ffffffffffffffffffffffffffffffffffffffff1673ffffffffffffffffffffffffffffffffffffffff167f70aea8d848e8a90fb7661b227dc522eb6395c3dac71b63cb59edd5c9899b236460405160405180910390a3806000806101000a81548173ffffffffffffffffffffffffffffffffffffffff021916908373ffffffffffffffffffffffffffffffffffffffff16021790555050565b600260009054906101000a900473ffffffffffffffffffffffffffffffffffffffff1681565b600160009054906101000a900473ffffffffffffffffffffffffffffffffffffffff1681565b60008060008060008060008060008911151561082757600080fd5b600260009054906101000a900473ffffffffffffffffffffffffffffffffffffffff1673ffffffffffffffffffffffffffffffffffffffff1663b0455f1333308c6040518463ffffffff167c0100000000000000000000000000000000000000000000000000000000028152600401808473ffffffffffffffffffffffffffffffffffffffff1673ffffffffffffffffffffffffffffffffffffffff1681526020018373ffffffffffffffffffffffffffffffffffffffff1673ffffffffffffffffffffffffffffffffffffffff16815260200182815260200180602001828103825260158152602001807f5543442073656c6c206f7264657220706c616365640000000000000000000000815250602001945050505050600060405180830381600087803b151561095857600080fd5b6102c65a03f1151561096957600080fd5b505050600160009054906101000a900473ffffffffffffffffffffffffffffffffffffffff1673ffffffffffffffffffffffffffffffffffffffff166375e1d3ac8a6000604051602001526040518263ffffffff167c010000000000000000000000000000000000000000000000000000000002815260040180828152602001915050602060405180830381600087803b1515610a0557600080fd5b6102c65a03f11515610a1657600080fd5b505050604051805190509750879650889550610a3260056116f4565b90505b610a4981600561171890919063ffffffff16565b8015610a555750600087115b8015610a645750600060045414155b15610c4d57809150610a8082600561173b90919063ffffffff16565b905060056001016001830369ffffffffffffffffffff16815481101515610aa357fe5b906000526020600020906003020160010160000160009054906101000a900473ffffffffffffffffffffffffffffffffffffffff1692508660056001016001840369ffffffffffffffffffff16815481101515610afc57fe5b906000526020600020906003020160010160010154101515610b2357869450859350610c12565b60056001016001830369ffffffffffffffffffff16815481101515610b4457fe5b9060005260206000209060030201600101600101549450600160009054906101000a900473ffffffffffffffffffffffffffffffffffffffff1673ffffffffffffffffffffffffffffffffffffffff166319605cd9866000604051602001526040518263ffffffff167c010000000000000000000000000000000000000000000000000000000002815260040180828152602001915050602060405180830381600087803b1515610bf457600080fd5b6102c65a03f11515610c0557600080fd5b5050506040518051905093505b610c25858861178d90919063ffffffff16565b9650610c3a848761178d90919063ffffffff16565b9550610c48823387876117a9565b610a35565b3373ffffffffffffffffffffffffffffffffffffffff166108fc610c7a898b61178d90919063ffffffff16565b9081150290604051600060405180830381858888f193505050501515610c9f57600080fd5b600086141515610cb657610cb560013388611bb5565b5b505050505050505050565b60008060008060056001016001860369ffffffffffffffffffff16815481101515610ce857fe5b906000526020600020906003020160010160000160009054906101000a900473ffffffffffffffffffffffffffffffffffffffff1660056001016001870369ffffffffffffffffffff16815481101515610d3e57fe5b906000526020600020906003020160010160000160149054906101000a900469ffffffffffffffffffff1660056001016001880369ffffffffffffffffffff16815481101515610d8a57fe5b9060005260206000209060030201600101600001601e9054906101000a900460ff1660056001016001890369ffffffffffffffffffff16815481101515610dcd57fe5b90600052602060002090600302016001016001015493509350935093509193509193565b60058060000160009054906101000a900469ffffffffffffffffffff169080600001600a9054906101000a900469ffffffffffffffffffff16908060000160149054906101000a900469ffffffffffffffffffff16905083565b60045481565b600080600080600760008773ffffffffffffffffffffffffffffffffffffffff1673ffffffffffffffffffffffffffffffffffffffff1681526020019081526020016000208569ffffffffffffffffffff16815481101515610eaf57fe5b9060005260206000209060039182820401919006600a029054906101000a900469ffffffffffffffffffff1693508360056001016001860369ffffffffffffffffffff16815481101515610eff57fe5b906000526020600020906003020160010160000160149054906101000a900469ffffffffffffffffffff1660056001016001870369ffffffffffffffffffff16815481101515610f4b57fe5b9060005260206000209060030201600101600001601e9054906101000a900460ff1660056001016001880369ffffffffffffffffffff16815481101515610f8e57fe5b906000526020600020906003020160010160010154935093509350935092959194509250565b6000600760008373ffffffffffffffffffffffffffffffffffffffff1673ffffffffffffffffffffffffffffffffffffffff168152602001908152602001600020805490509050919050565b6000600560000160149054906101000a900469ffffffffffffffffffff16905090565b6000809054906101000a900473ffffffffffffffffffffffffffffffffffffffff1681565b60008060008060008060008060003411151561106357600080fd5b349750600160009054906101000a900473ffffffffffffffffffffffffffffffffffffffff1673ffffffffffffffffffffffffffffffffffffffff166319605cd9896000604051602001526040518263ffffffff167c010000000000000000000000000000000000000000000000000000000002815260040180828152602001915050602060405180830381600087803b15156110ff57600080fd5b6102c65a03f1151561111057600080fd5b50505060405180519050965086955061112960056116f4565b90505b61114081600561171890919063ffffffff16565b801561114c5750600088115b801561115b5750600060035414155b156113445780915061117782600561173b90919063ffffffff16565b905060056001016001830369ffffffffffffffffffff1681548110151561119a57fe5b906000526020600020906003020160010160000160009054906101000a900473ffffffffffffffffffffffffffffffffffffffff1692508560056001016001840369ffffffffffffffffffff168154811015156111f357fe5b90600052602060002090600302016001016001015410151561121a57859350879450611309565b60056001016001830369ffffffffffffffffffff1681548110151561123b57fe5b9060005260206000209060030201600101600101549350600160009054906101000a900473ffffffffffffffffffffffffffffffffffffffff1673ffffffffffffffffffffffffffffffffffffffff166375e1d3ac856000604051602001526040518263ffffffff167c010000000000000000000000000000000000000000000000000000000002815260040180828152602001915050602060405180830381600087803b15156112eb57600080fd5b6102c65a03f115156112fc57600080fd5b5050506040518051905094505b61131c848761178d90919063ffffffff16565b9550611331858961178d90919063ffffffff16565b975061133f823386886117a9565b61112c565b6000611359878961178d90919063ffffffff16565b11156114b757600260009054906101000a900473ffffffffffffffffffffffffffffffffffffffff1673ffffffffffffffffffffffffffffffffffffffff1663b0455f1330336113b28a8c61178d90919063ffffffff16565b6040518463ffffffff167c0100000000000000000000000000000000000000000000000000000000028152600401808473ffffffffffffffffffffffffffffffffffffffff1673ffffffffffffffffffffffffffffffffffffffff1681526020018373ffffffffffffffffffffffffffffffffffffffff1673ffffffffffffffffffffffffffffffffffffffff16815260200182815260200180602001828103825260088152602001807f55434420736f6c64000000000000000000000000000000000000000000000000815250602001945050505050600060405180830381600087803b15156114a257600080fd5b6102c65a03f115156114b357600080fd5b5050505b6000881415156114ce576114cd6000338a611bb5565b5b5050505050505050565b6000806000806000806000600560000160009054906101000a900469ffffffffffffffffffff1669ffffffffffffffffffff161415611537576000806000806000808595508393508191508090509550955095509550955095506116e5565b60008769ffffffffffffffffffff16141561156f57600560000160009054906101000a900469ffffffffffffffffffff169550611573565b8695505b8560056001016001880369ffffffffffffffffffff1681548110151561159557fe5b906000526020600020906003020160010160000160009054906101000a900473ffffffffffffffffffffffffffffffffffffffff1660056001016001890369ffffffffffffffffffff168154811015156115eb57fe5b906000526020600020906003020160010160000160149054906101000a900469ffffffffffffffffffff16600560010160018a0369ffffffffffffffffffff1681548110151561163757fe5b9060005260206000209060030201600101600001601e9054906101000a900460ff16600560010160018b0369ffffffffffffffffffff1681548110151561167a57fe5b906000526020600020906003020160010160010154600560010160018c0369ffffffffffffffffffff168154811015156116b057fe5b9060005260206000209060030201600001600a9054906101000a900469ffffffffffffffffffff169550955095509550955095505b91939550919395565b60035481565b60008160000160009054906101000a900469ffffffffffffffffffff169050919050565b600082600101805490506001830369ffffffffffffffffffff1610905092915050565b6000826001016001830369ffffffffffffffffffff1681548110151561175d57fe5b9060005260206000209060030201600001600a9054906101000a900469ffffffffffffffffffff16905092915050565b600082821115151561179e57600080fd5b818303905092915050565b60008060056001016001870369ffffffffffffffffffff168154811015156117cd57fe5b9060005260206000209060030201600101600001601e9054906101000a900460ff16915060056001016001870369ffffffffffffffffffff1681548110151561181257fe5b906000526020600020906003020160010160000160009054906101000a900473ffffffffffffffffffffffffffffffffffffffff1690506000600181111561185657fe5b82600181111561186257fe5b14156119cd57600260009054906101000a900473ffffffffffffffffffffffffffffffffffffffff1673ffffffffffffffffffffffffffffffffffffffff1663b0455f133083866040518463ffffffff167c0100000000000000000000000000000000000000000000000000000000028152600401808473ffffffffffffffffffffffffffffffffffffffff1673ffffffffffffffffffffffffffffffffffffffff1681526020018373ffffffffffffffffffffffffffffffffffffffff1673ffffffffffffffffffffffffffffffffffffffff16815260200182815260200180602001828103825260088152602001807f45544820736f6c64000000000000000000000000000000000000000000000000815250602001945050505050600060405180830381600087803b151561199957600080fd5b6102c65a03f115156119aa57600080fd5b5050506119c28460045461178d90919063ffffffff16565b600481905550611a51565b6001808111156119d957fe5b8260018111156119e557fe5b1415611a4b578073ffffffffffffffffffffffffffffffffffffffff166108fc849081150290604051600060405180830381858888f193505050501515611a2b57600080fd5b611a408460035461178d90919063ffffffff16565b600381905550611a50565b600080fd5b5b611a998460056001016001890369ffffffffffffffffffff16815481101515611a7657fe5b90600052602060002090600302016001016001015461178d90919063ffffffff16565b60056001016001880369ffffffffffffffffffff16815481101515611aba57fe5b906000526020600020906003020160010160010181905550600060056001016001880369ffffffffffffffffffff16815481101515611af557fe5b9060005260206000209060030201600101600101541415611b1a57611b1986611e42565b5b7fb3fc4af679e46f08642f310e723080297e3141483e86707d76ebde10485fc6e686868686604051808569ffffffffffffffffffff1669ffffffffffffffffffff1681526020018473ffffffffffffffffffffffffffffffffffffffff1673ffffffffffffffffffffffffffffffffffffffff16815260200183815260200182815260200194505050505060405180910390a1505050505050565b60008060006001811115611bc557fe5b856001811115611bd157fe5b1415611bf757611bec836004546121fb90919063ffffffff16565b600481905550611c3b565b600180811115611c0357fe5b856001811115611c0f57fe5b1415611c3557611c2a836003546121fb90919063ffffffff16565b600381905550611c3a565b600080fd5b5b611c9e6080604051908101604052808673ffffffffffffffffffffffffffffffffffffffff168152602001600069ffffffffffffffffffff168152602001876001811115611c8557fe5b815260200185815250600561221c90919063ffffffff16565b9150600760008573ffffffffffffffffffffffffffffffffffffffff1673ffffffffffffffffffffffffffffffffffffffff1681526020019081526020016000208054806001018281611cf19190612ac5565b9160005260206000209060039182820401919006600a0284909190916101000a81548169ffffffffffffffffffff021916908369ffffffffffffffffffff16021790555090506001810360056001016001840369ffffffffffffffffffff16815481101515611d5c57fe5b906000526020600020906003020160010160000160146101000a81548169ffffffffffffffffffff021916908369ffffffffffffffffffff1602179055507f6a6a3654772608c35489e2c1e81b1408c68274aafcbbd354e8eac75c28a4412582868686604051808569ffffffffffffffffffff1669ffffffffffffffffffff168152602001846001811115611ded57fe5b60ff1681526020018373ffffffffffffffffffffffffffffffffffffffff1673ffffffffffffffffffffffffffffffffffffffff16815260200182815260200194505050505060405180910390a15050505050565b600080600060056001016001850369ffffffffffffffffffff16815481101515611e6857fe5b906000526020600020906003020160010160000160149054906101000a900469ffffffffffffffffffff16925060056001016001850369ffffffffffffffffffff16815481101515611eb657fe5b906000526020600020906003020160010160000160009054906101000a900473ffffffffffffffffffffffffffffffffffffffff169150611f018460056125f790919063ffffffff16565b600760008373ffffffffffffffffffffffffffffffffffffffff1673ffffffffffffffffffffffffffffffffffffffff168152602001908152602001600020805490509050600181038369ffffffffffffffffffff161415611fb557600760008373ffffffffffffffffffffffffffffffffffffffff1673ffffffffffffffffffffffffffffffffffffffff168152602001908152602001600020805480919060019003611faf9190612aff565b506121f5565b600760008373ffffffffffffffffffffffffffffffffffffffff1673ffffffffffffffffffffffffffffffffffffffff1681526020019081526020016000206001820381548110151561200457fe5b9060005260206000209060039182820401919006600a029054906101000a900469ffffffffffffffffffff16600760008473ffffffffffffffffffffffffffffffffffffffff1673ffffffffffffffffffffffffffffffffffffffff1681526020019081526020016000208469ffffffffffffffffffff1681548110151561208857fe5b9060005260206000209060039182820401919006600a026101000a81548169ffffffffffffffffffff021916908369ffffffffffffffffffff1602179055508260056001016001600760008673ffffffffffffffffffffffffffffffffffffffff1673ffffffffffffffffffffffffffffffffffffffff1681526020019081526020016000206001850381548110151561211e57fe5b9060005260206000209060039182820401919006600a029054906101000a900469ffffffffffffffffffff160369ffffffffffffffffffff1681548110151561216357fe5b906000526020600020906003020160010160000160146101000a81548169ffffffffffffffffffff021916908369ffffffffffffffffffff160217905550600760008373ffffffffffffffffffffffffffffffffffffffff1673ffffffffffffffffffffffffffffffffffffffff1681526020019081526020016000208054809190600190036121f39190612aff565b505b50505050565b600080828401905083811015151561221257600080fd5b8091505092915050565b60008260010180548060010182816122349190612b39565b9160005260206000209060030201600060606040519081016040528087600001600a9054906101000a900469ffffffffffffffffffff1669ffffffffffffffffffff168152602001600069ffffffffffffffffffff16815260200186815250909190915060008201518160000160006101000a81548169ffffffffffffffffffff021916908369ffffffffffffffffffff160217905550602082015181600001600a6101000a81548169ffffffffffffffffffff021916908369ffffffffffffffffffff16021790555060408201518160010160008201518160000160006101000a81548173ffffffffffffffffffffffffffffffffffffffff021916908373ffffffffffffffffffffffffffffffffffffffff16021790555060208201518160000160146101000a81548169ffffffffffffffffffff021916908369ffffffffffffffffffff160217905550604082015181600001601e6101000a81548160ff021916908360018111156123a557fe5b021790555060608201518160010155505050509050600069ffffffffffffffffffff1683600001600a9054906101000a900469ffffffffffffffffffff1669ffffffffffffffffffff1614156124f957600069ffffffffffffffffffff168360000160009054906101000a900469ffffffffffffffffffff1669ffffffffffffffffffff1614801561245d575060008360000160149054906101000a900469ffffffffffffffffffff1669ffffffffffffffffffff16145b151561246857600080fd5b8083600001600a6101000a81548169ffffffffffffffffffff021916908369ffffffffffffffffffff16021790558360000160006101000a81548169ffffffffffffffffffff021916908369ffffffffffffffffffff16021790555060018360000160146101000a81548169ffffffffffffffffffff021916908369ffffffffffffffffffff1602179055506125ee565b8083600101600185600001600a9054906101000a900469ffffffffffffffffffff160369ffffffffffffffffffff1681548110151561253457fe5b9060005260206000209060030201600001600a6101000a81548169ffffffffffffffffffff021916908369ffffffffffffffffffff1602179055508083600001600a6101000a81548169ffffffffffffffffffff021916908369ffffffffffffffffffff16021790555082600001601481819054906101000a900469ffffffffffffffffffff168092919060010191906101000a81548169ffffffffffffffffffff021916908369ffffffffffffffffffff160217905550505b80905092915050565b6000826001016001830369ffffffffffffffffffff1681548110151561261957fe5b9060005260206000209060030201905060018360000160149054906101000a900469ffffffffffffffffffff1669ffffffffffffffffffff16141561274d5760008360000160146101000a81548169ffffffffffffffffffff021916908369ffffffffffffffffffff16021790555060008360000160006101000a81548169ffffffffffffffffffff021916908369ffffffffffffffffffff160217905550600083600001600a6101000a81548169ffffffffffffffffffff021916908369ffffffffffffffffffff16021790555060008160000160006101000a81548169ffffffffffffffffffff021916908369ffffffffffffffffffff160217905550600081600001600a6101000a81548169ffffffffffffffffffff021916908369ffffffffffffffffffff160217905550612ac0565b600069ffffffffffffffffffff168160000160009054906101000a900469ffffffffffffffffffff1669ffffffffffffffffffff161480156127c15750600069ffffffffffffffffffff1681600001600a9054906101000a900469ffffffffffffffffffff1669ffffffffffffffffffff16145b156127cb57612ac0565b600069ffffffffffffffffffff168160000160009054906101000a900469ffffffffffffffffffff1669ffffffffffffffffffff1614156128505780600001600a9054906101000a900469ffffffffffffffffffff168360000160006101000a81548169ffffffffffffffffffff021916908369ffffffffffffffffffff1602179055505b600069ffffffffffffffffffff1681600001600a9054906101000a900469ffffffffffffffffffff1669ffffffffffffffffffff1614156128d5578060000160009054906101000a900469ffffffffffffffffffff1683600001600a6101000a81548169ffffffffffffffffffff021916908369ffffffffffffffffffff1602179055505b600069ffffffffffffffffffff168160000160009054906101000a900469ffffffffffffffffffff1669ffffffffffffffffffff161415156129a25780600001600a9054906101000a900469ffffffffffffffffffff168360010160018360000160009054906101000a900469ffffffffffffffffffff160369ffffffffffffffffffff1681548110151561296657fe5b9060005260206000209060030201600001600a6101000a81548169ffffffffffffffffffff021916908369ffffffffffffffffffff1602179055505b600069ffffffffffffffffffff1681600001600a9054906101000a900469ffffffffffffffffffff1669ffffffffffffffffffff16141515612a6f578060000160009054906101000a900469ffffffffffffffffffff1683600101600183600001600a9054906101000a900469ffffffffffffffffffff160369ffffffffffffffffffff16815481101515612a3357fe5b906000526020600020906003020160000160006101000a81548169ffffffffffffffffffff021916908369ffffffffffffffffffff1602179055505b82600001601481819054906101000a900469ffffffffffffffffffff16809291906001900391906101000a81548169ffffffffffffffffffff021916908369ffffffffffffffffffff160217905550505b505050565b815481835581811511612afa576002016003900481600201600390048360005260206000209182019101612af99190612b6b565b5b505050565b815481835581811511612b34576002016003900481600201600390048360005260206000209182019101612b339190612b6b565b5b505050565b815481835581811511612b6657600302816003028360005260206000209182019101612b659190612b90565b5b505050565b612b8d91905b80821115612b89576000816000905550600101612b71565b5090565b90565b612c4d91905b80821115612c4957600080820160006101000a81549069ffffffffffffffffffff021916905560008201600a6101000a81549069ffffffffffffffffffff021916905560018201600080820160006101000a81549073ffffffffffffffffffffffffffffffffffffffff02191690556000820160146101000a81549069ffffffffffffffffffff021916905560008201601e6101000a81549060ff02191690556001820160009055505050600301612b96565b5090565b905600a165627a7a72305820cced3fa016620aa6784127274ce8f8b833f0648114a0833583737e80fe5c49350029",
  "source": "/*\nExchange Acd <-> ETH\nIt's mock only yet, basic implemantion of selling Acd for ETH or vica versa.\nAll orders are on a market ethAcd rate at the moment of fullmilment\nMarket rate is provided  by the rates contract\n\nTODO: add reentrancy protection\nTODO: add min exchanged amount param (set in Acd for both?)\n    + what if total leftover from fills  carried over to new order but it's small than minamount?\nTODO: astronomical gas costs when filling a lot of orders\n    + how to handle on client side (eg. estimate if it might be over the gas etc.)\nTODO: make orders generic, ie. more generic placeSellOrder func.\nTODO: test for rounding if could be any leftover after order fills\nTODO: add option to fill or kill (ie option to not place orders if can't fill from open orders)\nTODO: add option to pass a rate for fill or kill orders to avoid different rate if it changes while submitting - it would ensure trade happens on predictable rate\nTODO: add orderId to Acd transfer narrative\n*/\npragma solidity ^0.4.18;\nimport \"./SafeMath.sol\";\nimport \"./Owned.sol\";\nimport \"./OrdersLib.sol\";\nimport \"./TokenAcd.sol\";\nimport \"./Rates.sol\";\n\ncontract Exchange is owned {\n    using SafeMath for uint256;\n    using OrdersLib for OrdersLib.OrderList;\n    using OrdersLib for OrdersLib.OrderData;\n\n    Rates public rates;\n    TokenAcd public tokenUcd; // for UCD transfers\n\n    // These should be equal to ETH and UCD Balances of contract\n    /* TODO: consider to remove these when rounding tested */\n    uint256 public totalUcdSellOrders;\n    uint256 public totalEthSellOrders;\n\n    /*\n     orders stores all open orders. It's a linked array, ordered by the order was placed\n     Order removed  when fully filled and updated when partially filled\n     Note that it contains only one type of orders (EthSell or UtcSell) at any given time because all orders are on market rate\n     Ie. it's not a real order book\n    */\n    OrdersLib.OrderList public orders;\n\n    mapping(address => uint80[]) public m_orders; // orders for an account => orderId\n\n    function Exchange(address _tokenUcdAddress, address _ratesAddress) public owned() {\n         rates = Rates(_ratesAddress);\n         tokenUcd = TokenAcd(_tokenUcdAddress);\n    }\n\n    function getMakerOrderCount(address maker) external view returns(uint orderCount) {\n        return m_orders[maker].length;\n    }\n\n    function getOrderCount() public view returns(uint80 orderCount) {\n        return orders.count;\n    }\n\n    function getMakerOrder(address maker, uint80 _makerOrderIdx) external view\n            returns(uint80 orderId, uint80 makerOrderIdx, OrdersLib.OrderType orderType, uint amount)  {\n        orderId = m_orders[maker][_makerOrderIdx];\n        return (\n                orderId,\n                orders.orders[ orderId -1].order.makerOrderIdx,\n                orders.orders[ orderId -1].order.orderType,\n                orders.orders[ orderId -1].order.amount);\n    }\n\n    function getOrder(uint80 orderId) external view\n            returns(address maker,  uint80 makerOrderIdx, OrdersLib.OrderType orderType, uint amount) {\n        return (orders.orders[ orderId -1 ].order.maker,\n                orders.orders[ orderId -1 ].order.makerOrderIdx,\n                orders.orders[ orderId -1 ].order.orderType,\n                orders.orders[ orderId -1 ].order.amount);\n    }\n\n    /* Helper function for client to reduce web3 calls when getting orderlist\n        Note: client should handle potential state changes in orders during iteration\n        Returns:\n            order data for orderId if order is open + next open orderId.\n            Passing 0 orderId will return first open order\n        Return values:\n         order.amount 0 returned then orderId is not open\n         nextOrderId 0 returned then no more open orders\n         For invalid orderId returns 0 order.amount and nextOrderId\n    */\n    function iterateOpenOrders(uint80 orderId) external view\n        returns (uint80 _orderId,\n                address maker,\n                uint80 makerOrderIdx,\n                OrdersLib.OrderType orderType,\n                uint amount,\n                uint80 nextOrderId) {\n        if( orders.first == 0) { // OrdersLib.None\n            // no open orders\n            return (0,address(0), 0,OrdersLib.OrderType.EthSell,0,0);\n        }\n        if(orderId == 0) {\n            //|| orders.orders[orderid-1].first == OrdersLib.None) {\n            _orderId = orders.first;\n        } else {\n            _orderId = orderId;\n        }\n\n        return (_orderId,\n                orders.orders[ _orderId -1 ].order.maker,\n                orders.orders[ _orderId -1 ].order.makerOrderIdx,\n                orders.orders[ _orderId -1 ].order.orderType,\n                orders.orders[ _orderId -1 ].order.amount,\n                orders.orders[ _orderId -1 ].next);\n    }\n\n\n    function placeSellEthOrder() external payable {\n        require(msg.value > 0); // FIXME: min amount? Shall we use min UCD amount instead of ETH value?\n        uint weiToSellLeft = msg.value;\n        uint ucdValueTotal = rates.convertWeiToUsdc(weiToSellLeft);\n        uint ucdValueLeft = ucdValueTotal;\n        uint weiToPay;\n        uint ucdSold;\n        address maker;\n        // fill as much as we can from open buy eth orders\n        uint80 i;\n        uint80 nextOrderId = orders.iterateFirst();\n        while ( orders.iterateValid(nextOrderId) &&\n                weiToSellLeft > 0 && // FIXME: minAmount to rounding acc?\n                totalUcdSellOrders != 0 ) {\n            i = nextOrderId;\n            nextOrderId = orders.iterateNext(i);\n            maker = orders.orders[i-1].order.maker;\n            if (orders.orders[i-1].order.amount >= ucdValueLeft) {\n                // sell order fully covered from maker buy order\n                ucdSold = ucdValueLeft ;\n                weiToPay = weiToSellLeft;\n            } else {\n                // sell order partially covers buy order\n                ucdSold = orders.orders[i-1].order.amount ;\n                weiToPay = rates.convertUsdcToWei(ucdSold);\n            }\n            ucdValueLeft = ucdValueLeft.sub(ucdSold);\n            weiToSellLeft = weiToSellLeft.sub(weiToPay);\n\n            fillOrder(i, msg.sender, ucdSold, weiToPay); // this pays the maker but not the taker yet\n\n        }\n        if( ucdValueTotal.sub(ucdValueLeft) > 0 ) {\n            // transfer the sum UCD value of all WEI sold with orderFills\n            tokenUcd.transferNoFee(this, msg.sender, ucdValueTotal.sub(ucdValueLeft), \"UCD sold\");\n        }\n        if (weiToSellLeft != 0) {\n            // No buy order or buy orders wasn't enough to fully fill order\n            // ETH amount already on contract balance\n            addOrder(OrdersLib.OrderType.EthSell, msg.sender,  weiToSellLeft);\n        }\n    }\n\n    function placeSellUcdOrder(uint ucdAmount) external {\n        require(ucdAmount > 0); // FIXME: min amount?\n        tokenUcd.transferNoFee(msg.sender, this, ucdAmount, \"UCD sell order placed\" );\n        uint weiValueTotal = rates.convertUsdcToWei(ucdAmount);\n        uint weiValueLeft = weiValueTotal;\n        uint ucdToSellLeft = ucdAmount;\n        uint weiSold;\n        uint ucdToPay;\n        address maker;\n        // fill as much as we can from open buy ucd orders\n        uint80 i;\n        uint80 nextOrderId = orders.iterateFirst();\n        while ( orders.iterateValid(nextOrderId) &&\n                weiValueLeft > 0 && // FIXME: minAmount to rounding acc?\n                totalEthSellOrders != 0 ) {\n            i = nextOrderId;\n            nextOrderId = orders.iterateNext(i);\n            maker = orders.orders[i-1].order.maker;\n            if (orders.orders[i-1].order.amount >= weiValueLeft) {\n                // sell order fully covered from maker buy order\n                weiSold = weiValueLeft;\n                ucdToPay = ucdToSellLeft;\n           } else {\n                // sell order partially covers buy order\n                weiSold = orders.orders[i-1].order.amount;\n                ucdToPay = rates.convertWeiToUsdc(weiSold);\n            }\n            weiValueLeft = weiValueLeft.sub(weiSold);\n            ucdToSellLeft = ucdToSellLeft.sub(ucdToPay);\n            fillOrder(i, msg.sender, weiSold, ucdToPay); // this pays the maker but not the taker yet\n        }\n        // pay the sum WEI value of all UCD sold with orderFills to taker\n        msg.sender.transfer( weiValueTotal.sub(weiValueLeft));\n        if (ucdToSellLeft != 0) {\n            // No buy order or weren't enough buy orders to fully fill order\n            addOrder(OrdersLib.OrderType.UcdSell, msg.sender, ucdToSellLeft);\n        }\n    }\n\n    event e_newOrder(uint80 orderId, OrdersLib.OrderType orderType, address maker, uint amount);\n    function addOrder(OrdersLib.OrderType orderType, address maker, uint amount) internal {\n        // It's assumed that the ETH/UCD already taken from maker in calling function\n        if (orderType == OrdersLib.OrderType.EthSell) {\n            totalEthSellOrders = totalEthSellOrders.add(amount);\n        } else if(orderType == OrdersLib.OrderType.UcdSell ){\n            totalUcdSellOrders = totalUcdSellOrders.add(amount);\n        } else {\n            revert();\n        }\n\n        uint80 orderId = orders.append(OrdersLib.OrderData(maker, 0, orderType, amount));\n        uint80 makerOrderIdx = uint80( m_orders[maker].push(orderId));\n        orders.orders[orderId-1].order.makerOrderIdx = makerOrderIdx - 1;\n\n        e_newOrder(orderId, orderType, maker, amount );\n        return;\n    }\n\n    event e_orderFill(uint80 orderId, address taker, uint amountSold, uint amountPaid);\n    function fillOrder(uint80 orderId, address taker,\n            uint amountToSell, uint amountToPay) internal {\n        // we only pay the maker here. Calling function must pay the sum of all buys to taker\n        OrdersLib.OrderType orderType = orders.orders[orderId -1].order.orderType;\n        address maker = orders.orders[orderId-1].order.maker;\n        if (orderType == OrdersLib.OrderType.EthSell) {\n            tokenUcd.transferNoFee(this, maker, amountToPay, \"ETH sold\");\n            totalEthSellOrders = totalEthSellOrders.sub(amountToSell);\n        } else if(orderType == OrdersLib.OrderType.UcdSell ){\n            maker.transfer(amountToPay);\n            totalUcdSellOrders = totalUcdSellOrders.sub(amountToSell);\n        } else {\n            revert();\n        }\n\n        orders.orders[orderId -1 ].order.amount = orders.orders[orderId -1 ].order.amount.sub(amountToSell);\n\n        if (orders.orders[orderId -1].order.amount == 0) {\n            removeOrder(orderId);\n        }\n\n        e_orderFill(orderId, taker, amountToSell, amountToPay);\n    }\n\n    function removeOrder(uint80 orderId) internal {\n        uint80 makerOrderIdx = orders.orders[orderId-1].order.makerOrderIdx;\n        address maker = orders.orders[orderId-1].order.maker;\n        orders.remove(orderId);\n        uint len = m_orders[maker].length;\n        if(makerOrderIdx == len -1 ) {\n            // last item\n            m_orders[maker].length--;\n        } else {\n            // not the last item, overwrite with last item and shrink array\n            m_orders[maker][makerOrderIdx] = m_orders[maker][len -1];\n            orders.orders[  m_orders[maker][len -1] - 1 ].order.makerOrderIdx = makerOrderIdx;\n            m_orders[maker].length--;\n        }\n    }\n/*\n    function cancelOrder( uint80 orderId ) external {\n        // FIXME: to implement\n        // transfer ETH or UCD back\n         //orderId = orderId; // to supress compiler warnings\n         // FIXME: check orderId\n         // removeOrder( orderIdx)\n    }\n*/\n}\n",
  "sourcePath": "/Users/petro/ether/dcm-poc/contracts/Exchange.sol",
  "compiler": {
    "name": "solc",
    "version": "0.4.18+commit.9cf6e910.Emscripten.clang"
  },
  "schemaVersion": "1.0.1",
  "updatedAt": "2017-11-21T15:38:08.431Z"
}