{
  "contractName": "LoanManager",
  "abi": [
    {
      "constant": false,
      "inputs": [
        {
          "name": "_new",
          "type": "address"
        }
      ],
      "name": "setOwner",
      "outputs": [],
      "payable": false,
      "stateMutability": "nonpayable",
      "type": "function"
    },
    {
      "constant": false,
      "inputs": [
        {
          "name": "productId",
          "type": "uint8"
        }
      ],
      "name": "newEthBackedLoan",
      "outputs": [],
      "payable": true,
      "stateMutability": "payable",
      "type": "function"
    },
    {
      "constant": true,
      "inputs": [
        {
          "name": "",
          "type": "uint256"
        }
      ],
      "name": "loanPointers",
      "outputs": [
        {
          "name": "contractAddress",
          "type": "address"
        },
        {
          "name": "loanState",
          "type": "uint8"
        }
      ],
      "payable": false,
      "stateMutability": "view",
      "type": "function"
    },
    {
      "constant": true,
      "inputs": [],
      "name": "tokenUcd",
      "outputs": [
        {
          "name": "",
          "type": "address"
        }
      ],
      "payable": false,
      "stateMutability": "view",
      "type": "function"
    },
    {
      "constant": false,
      "inputs": [
        {
          "name": "loanId",
          "type": "uint256"
        }
      ],
      "name": "repay",
      "outputs": [
        {
          "name": "result",
          "type": "int8"
        }
      ],
      "payable": false,
      "stateMutability": "nonpayable",
      "type": "function"
    },
    {
      "constant": true,
      "inputs": [],
      "name": "rates",
      "outputs": [
        {
          "name": "",
          "type": "address"
        }
      ],
      "payable": false,
      "stateMutability": "view",
      "type": "function"
    },
    {
      "constant": true,
      "inputs": [],
      "name": "getProductCount",
      "outputs": [
        {
          "name": "ct",
          "type": "uint256"
        }
      ],
      "payable": false,
      "stateMutability": "view",
      "type": "function"
    },
    {
      "constant": true,
      "inputs": [],
      "name": "getLoanCount",
      "outputs": [
        {
          "name": "ct",
          "type": "uint256"
        }
      ],
      "payable": false,
      "stateMutability": "view",
      "type": "function"
    },
    {
      "constant": false,
      "inputs": [
        {
          "name": "loanIds",
          "type": "uint256[]"
        }
      ],
      "name": "collect",
      "outputs": [
        {
          "name": "result",
          "type": "int8"
        }
      ],
      "payable": false,
      "stateMutability": "nonpayable",
      "type": "function"
    },
    {
      "constant": false,
      "inputs": [
        {
          "name": "_term",
          "type": "uint256"
        },
        {
          "name": "_discountRate",
          "type": "uint256"
        },
        {
          "name": "_loanCollateralRatio",
          "type": "uint256"
        },
        {
          "name": "_minDisbursedAmountInUcd",
          "type": "uint256"
        },
        {
          "name": "_repayPeriod",
          "type": "uint256"
        },
        {
          "name": "_isActive",
          "type": "bool"
        }
      ],
      "name": "addProduct",
      "outputs": [
        {
          "name": "newProductId",
          "type": "uint256"
        }
      ],
      "payable": false,
      "stateMutability": "nonpayable",
      "type": "function"
    },
    {
      "constant": true,
      "inputs": [
        {
          "name": "borrower",
          "type": "address"
        }
      ],
      "name": "getLoanIds",
      "outputs": [
        {
          "name": "loans",
          "type": "uint256[]"
        }
      ],
      "payable": false,
      "stateMutability": "view",
      "type": "function"
    },
    {
      "constant": true,
      "inputs": [],
      "name": "ERR_LOAN_NOT_OPEN",
      "outputs": [
        {
          "name": "",
          "type": "int8"
        }
      ],
      "payable": false,
      "stateMutability": "view",
      "type": "function"
    },
    {
      "constant": true,
      "inputs": [],
      "name": "ERR_NOT_OWNER",
      "outputs": [
        {
          "name": "",
          "type": "int8"
        }
      ],
      "payable": false,
      "stateMutability": "view",
      "type": "function"
    },
    {
      "constant": true,
      "inputs": [
        {
          "name": "",
          "type": "uint256"
        }
      ],
      "name": "products",
      "outputs": [
        {
          "name": "term",
          "type": "uint256"
        },
        {
          "name": "discountRate",
          "type": "uint256"
        },
        {
          "name": "loanCollateralRatio",
          "type": "uint256"
        },
        {
          "name": "minDisbursedAmountInUcd",
          "type": "uint256"
        },
        {
          "name": "repayPeriod",
          "type": "uint256"
        },
        {
          "name": "isActive",
          "type": "bool"
        }
      ],
      "payable": false,
      "stateMutability": "view",
      "type": "function"
    },
    {
      "constant": true,
      "inputs": [],
      "name": "owner",
      "outputs": [
        {
          "name": "",
          "type": "address"
        }
      ],
      "payable": false,
      "stateMutability": "view",
      "type": "function"
    },
    {
      "constant": true,
      "inputs": [],
      "name": "ERR_NO_LOAN",
      "outputs": [
        {
          "name": "",
          "type": "int8"
        }
      ],
      "payable": false,
      "stateMutability": "view",
      "type": "function"
    },
    {
      "constant": true,
      "inputs": [],
      "name": "ERR_EXT_ERRCODE_BASE",
      "outputs": [
        {
          "name": "",
          "type": "int8"
        }
      ],
      "payable": false,
      "stateMutability": "view",
      "type": "function"
    },
    {
      "constant": false,
      "inputs": [
        {
          "name": "productId",
          "type": "uint8"
        }
      ],
      "name": "enableProduct",
      "outputs": [],
      "payable": false,
      "stateMutability": "nonpayable",
      "type": "function"
    },
    {
      "constant": true,
      "inputs": [
        {
          "name": "",
          "type": "address"
        },
        {
          "name": "",
          "type": "uint256"
        }
      ],
      "name": "m_loanPointers",
      "outputs": [
        {
          "name": "",
          "type": "uint256"
        }
      ],
      "payable": false,
      "stateMutability": "view",
      "type": "function"
    },
    {
      "constant": false,
      "inputs": [
        {
          "name": "productId",
          "type": "uint8"
        }
      ],
      "name": "disableProduct",
      "outputs": [],
      "payable": false,
      "stateMutability": "nonpayable",
      "type": "function"
    },
    {
      "constant": true,
      "inputs": [],
      "name": "SUCCESS",
      "outputs": [
        {
          "name": "",
          "type": "int8"
        }
      ],
      "payable": false,
      "stateMutability": "view",
      "type": "function"
    },
    {
      "inputs": [
        {
          "name": "_tokenUcdAddress",
          "type": "address"
        },
        {
          "name": "_ratesAddress",
          "type": "address"
        }
      ],
      "payable": false,
      "stateMutability": "nonpayable",
      "type": "constructor"
    },
    {
      "anonymous": false,
      "inputs": [
        {
          "indexed": false,
          "name": "productId",
          "type": "uint8"
        },
        {
          "indexed": false,
          "name": "loanId",
          "type": "uint256"
        },
        {
          "indexed": false,
          "name": "borrower",
          "type": "address"
        },
        {
          "indexed": false,
          "name": "loanContract",
          "type": "address"
        },
        {
          "indexed": false,
          "name": "disbursedLoanInUcd",
          "type": "uint256"
        }
      ],
      "name": "e_newLoan",
      "type": "event"
    },
    {
      "anonymous": false,
      "inputs": [
        {
          "indexed": false,
          "name": "errorCode",
          "type": "int8"
        }
      ],
      "name": "e_error",
      "type": "event"
    },
    {
      "anonymous": false,
      "inputs": [
        {
          "indexed": false,
          "name": "loanContractAddress",
          "type": "address"
        },
        {
          "indexed": false,
          "name": "borrower",
          "type": "address"
        }
      ],
      "name": "e_repayed",
      "type": "event"
    },
    {
      "anonymous": false,
      "inputs": [
        {
          "indexed": false,
          "name": "borrower",
          "type": "address"
        },
        {
          "indexed": false,
          "name": "loanContractAddress",
          "type": "address"
        }
      ],
      "name": "e_collected",
      "type": "event"
    },
    {
      "anonymous": false,
      "inputs": [
        {
          "indexed": true,
          "name": "old",
          "type": "address"
        },
        {
          "indexed": true,
          "name": "current",
          "type": "address"
        }
      ],
      "name": "NewOwner",
      "type": "event"
    }
  ],
  "bytecode": "0x6060604052341561000f57600080fd5b6040516040806134ac83398101604052808051906020019091908051906020019091905050336000806101000a81548173ffffffffffffffffffffffffffffffffffffffff021916908373ffffffffffffffffffffffffffffffffffffffff16021790555081600260006101000a81548173ffffffffffffffffffffffffffffffffffffffff021916908373ffffffffffffffffffffffffffffffffffffffff16021790555080600160006101000a81548173ffffffffffffffffffffffffffffffffffffffff021916908373ffffffffffffffffffffffffffffffffffffffff16021790555050506133a5806101076000396000f30060606040526004361062000133576000357c0100000000000000000000000000000000000000000000000000000000900463ffffffff16806313af403514620001385780631509c8cf1462000174578063176ab16c146200019157806335b6f81b146200020d578063371fd8e6146200026557806343f48fbd14620002a55780634a348da914620002fd57806352196812146200032957806357f46cbe146200035557806364858d2114620003a05780636b64c88514620004095780636ff6680e146200049c57806374c64fb314620004ce5780637acc0b2014620005005780638da5cb5b1462000561578063a7444b4914620005b9578063afb7cee014620005eb578063c4e1c7cb146200061d578063c5fa437c1462000646578063caa54362146200069f578063d0a6d1a614620006c8575b600080fd5b34156200014457600080fd5b62000172600480803573ffffffffffffffffffffffffffffffffffffffff16906020019091905050620006fa565b005b6200018f600480803560ff1690602001909190505062000814565b005b34156200019d57600080fd5b620001b5600480803590602001909190505062000fb9565b604051808373ffffffffffffffffffffffffffffffffffffffff1673ffffffffffffffffffffffffffffffffffffffff168152602001826002811115620001f857fe5b60ff1681526020019250505060405180910390f35b34156200021957600080fd5b6200022362001017565b604051808273ffffffffffffffffffffffffffffffffffffffff1673ffffffffffffffffffffffffffffffffffffffff16815260200191505060405180910390f35b34156200027157600080fd5b6200028960048080359060200190919050506200103d565b604051808260000b60000b815260200191505060405180910390f35b3415620002b157600080fd5b620002bb6200190b565b604051808273ffffffffffffffffffffffffffffffffffffffff1673ffffffffffffffffffffffffffffffffffffffff16815260200191505060405180910390f35b34156200030957600080fd5b6200031362001931565b6040518082815260200191505060405180910390f35b34156200033557600080fd5b6200033f6200193e565b6040518082815260200191505060405180910390f35b34156200036157600080fd5b62000384600480803590602001908201803590602001919091929050506200194b565b604051808260000b60000b815260200191505060405180910390f35b3415620003ac57600080fd5b620003f36004808035906020019091908035906020019091908035906020019091908035906020019091908035906020019091908035151590602001909190505062001eea565b6040518082815260200191505060405180910390f35b34156200041557600080fd5b62000443600480803573ffffffffffffffffffffffffffffffffffffffff1690602001909190505062002009565b6040518080602001828103825283818151815260200191508051906020019060200280838360005b83811015620004885780820151818401526020810190506200046b565b505050509050019250505060405180910390f35b3415620004a857600080fd5b620004b2620020aa565b604051808260000b60000b815260200191505060405180910390f35b3415620004da57600080fd5b620004e4620020ce565b604051808260000b60000b815260200191505060405180910390f35b34156200050c57600080fd5b620005246004808035906020019091905050620020f2565b6040518087815260200186815260200185815260200184815260200183815260200182151515158152602001965050505050505060405180910390f35b34156200056d57600080fd5b620005776200214b565b604051808273ffffffffffffffffffffffffffffffffffffffff1673ffffffffffffffffffffffffffffffffffffffff16815260200191505060405180910390f35b3415620005c557600080fd5b620005cf62002170565b604051808260000b60000b815260200191505060405180910390f35b3415620005f757600080fd5b6200060162002194565b604051808260000b60000b815260200191505060405180910390f35b34156200062957600080fd5b62000644600480803560ff16906020019091905050620021b8565b005b34156200065257600080fd5b62000689600480803573ffffffffffffffffffffffffffffffffffffffff1690602001909190803590602001909190505062002254565b6040518082815260200191505060405180910390f35b3415620006ab57600080fd5b620006c6600480803560ff1690602001909190505062002286565b005b3415620006d457600080fd5b620006de62002322565b604051808260000b60000b815260200191505060405180910390f35b6000809054906101000a900473ffffffffffffffffffffffffffffffffffffffff1673ffffffffffffffffffffffffffffffffffffffff163373ffffffffffffffffffffffffffffffffffffffff161415156200075657600080fd5b8073ffffffffffffffffffffffffffffffffffffffff166000809054906101000a900473ffffffffffffffffffffffffffffffffffffffff1673ffffffffffffffffffffffffffffffffffffffff167f70aea8d848e8a90fb7661b227dc522eb6395c3dac71b63cb59edd5c9899b236460405160405180910390a3806000806101000a81548173ffffffffffffffffffffffffffffffffffffffff021916908373ffffffffffffffffffffffffffffffffffffffff16021790555050565b60008060008060008060038760ff168154811015156200083057fe5b906000526020600020906006020160050160009054906101000a900460ff1615156200085b57600080fd5b600160009054906101000a900473ffffffffffffffffffffffffffffffffffffffff1673ffffffffffffffffffffffffffffffffffffffff166319605cd9346000604051602001526040518263ffffffff167c010000000000000000000000000000000000000000000000000000000002815260040180828152602001915050602060405180830381600087803b1515620008f557600080fd5b6102c65a03f115156200090757600080fd5b505050604051805190509550620009646305f5e1006200095560038a60ff168154811015156200093357fe5b906000526020600020906006020160020154896200232790919063ffffffff16565b6200236090919063ffffffff16565b9450606485029450620f4240620009cd60038960ff168154811015156200098757fe5b90600052602060002090600602016001015460038a60ff16815481101515620009ac57fe5b9060005260206000209060060201600201546200232790919063ffffffff16565b811515620009d757fe5b04935062000a076305f5e100620009f886896200232790919063ffffffff16565b6200236090919063ffffffff16565b925060648302925060038760ff1681548110151562000a2257fe5b906000526020600020906006020160030154831015151562000a4357600080fd5b60016004805480600101828162000a5b9190620023a8565b916000526020600020900160006040805190810160405280600073ffffffffffffffffffffffffffffffffffffffff1681526020016000600281111562000a9e57fe5b815250909190915060008201518160000160006101000a81548173ffffffffffffffffffffffffffffffffffffffff021916908373ffffffffffffffffffffffffffffffffffffffff16021790555060208201518160000160146101000a81548160ff0219169083600281111562000b1257fe5b02179055505050039150813360038960ff1681548110151562000b3157fe5b906000526020600020906006020160000154858860038c60ff1681548110151562000b5857fe5b90600052602060002090600602016004015462000b74620023d7565b808781526020018673ffffffffffffffffffffffffffffffffffffffff1673ffffffffffffffffffffffffffffffffffffffff1681526020018581526020018481526020018381526020018281526020019650505050505050604051809103906000f080151562000be457600080fd5b90508060048381548110151562000bf757fe5b906000526020600020900160000160006101000a81548173ffffffffffffffffffffffffffffffffffffffff021916908373ffffffffffffffffffffffffffffffffffffffff160217905550600560003373ffffffffffffffffffffffffffffffffffffffff1673ffffffffffffffffffffffffffffffffffffffff168152602001908152602001600020805480600101828162000c969190620023e8565b9160005260206000209001600084909190915055508073ffffffffffffffffffffffffffffffffffffffff166108fc349081150290604051600060405180830381858888f19350505050151562000cec57600080fd5b600260009054906101000a900473ffffffffffffffffffffffffffffffffffffffff1673ffffffffffffffffffffffffffffffffffffffff1663cc872b66866040518263ffffffff167c010000000000000000000000000000000000000000000000000000000002815260040180828152602001915050600060405180830381600087803b151562000d7d57600080fd5b6102c65a03f1151562000d8f57600080fd5b505050600260009054906101000a900473ffffffffffffffffffffffffffffffffffffffff1673ffffffffffffffffffffffffffffffffffffffff1663b0455f13600260009054906101000a900473ffffffffffffffffffffffffffffffffffffffff1633866040518463ffffffff167c0100000000000000000000000000000000000000000000000000000000028152600401808473ffffffffffffffffffffffffffffffffffffffff1673ffffffffffffffffffffffffffffffffffffffff1681526020018373ffffffffffffffffffffffffffffffffffffffff1673ffffffffffffffffffffffffffffffffffffffff16815260200182815260200180602001828103825260118152602001807f4c6f616e2064697362757273656d656e74000000000000000000000000000000815250602001945050505050600060405180830381600087803b151562000ee657600080fd5b6102c65a03f1151562000ef857600080fd5b5050507fd2ee45819a43ebf6a838cb6f114c920e274ad2c21ee8a33517f01a2fef1ab9af8783338487604051808660ff1660ff1681526020018581526020018473ffffffffffffffffffffffffffffffffffffffff1673ffffffffffffffffffffffffffffffffffffffff1681526020018373ffffffffffffffffffffffffffffffffffffffff1673ffffffffffffffffffffffffffffffffffffffff1681526020018281526020019550505050505060405180910390a150505050505050565b60048181548110151562000fc957fe5b90600052602060002090016000915090508060000160009054906101000a900473ffffffffffffffffffffffffffffffffffffffff16908060000160149054906101000a900460ff16905082565b600260009054906101000a900473ffffffffffffffffffffffffffffffffffffffff1681565b6000806000600184016004805490501015620010d9577fc25603b84a99df3a9bd030fe06c8ff67cea262f9966e79d4604d9991e1702cd07ffffffffffffffffffffffffffffffffffffffffffffffffffffffffffffffffd604051808260000b60000b815260200191505060405180910390a17ffffffffffffffffffffffffffffffffffffffffffffffffffffffffffffffffd925062001904565b60006002811115620010e757fe5b600485815481101515620010f757fe5b906000526020600020900160000160149054906101000a900460ff1660028111156200111f57fe5b141515620011ad577fc25603b84a99df3a9bd030fe06c8ff67cea262f9966e79d4604d9991e1702cd07ffffffffffffffffffffffffffffffffffffffffffffffffffffffffffffffffc604051808260000b60000b815260200191505060405180910390a17ffffffffffffffffffffffffffffffffffffffffffffffffffffffffffffffffc925062001904565b6000600560003373ffffffffffffffffffffffffffffffffffffffff1673ffffffffffffffffffffffffffffffffffffffff1681526020019081526020016000208054905014156200127f577fc25603b84a99df3a9bd030fe06c8ff67cea262f9966e79d4604d9991e1702cd07ffffffffffffffffffffffffffffffffffffffffffffffffffffffffffffffffe604051808260000b60000b815260200191505060405180910390a17ffffffffffffffffffffffffffffffffffffffffffffffffffffffffffffffffe925062001904565b6004848154811015156200128f57fe5b906000526020600020900160000160009054906101000a900473ffffffffffffffffffffffffffffffffffffffff1691508190503373ffffffffffffffffffffffffffffffffffffffff168173ffffffffffffffffffffffffffffffffffffffff16638da5cb5b6000604051602001526040518163ffffffff167c0100000000000000000000000000000000000000000000000000000000028152600401602060405180830381600087803b15156200134757600080fd5b6102c65a03f115156200135957600080fd5b5050506040518051905073ffffffffffffffffffffffffffffffffffffffff1614151562001407577fc25603b84a99df3a9bd030fe06c8ff67cea262f9966e79d4604d9991e1702cd07ffffffffffffffffffffffffffffffffffffffffffffffffffffffffffffffffe604051808260000b60000b815260200191505060405180910390a17ffffffffffffffffffffffffffffffffffffffffffffffffffffffffffffffffe925062001904565b600260009054906101000a900473ffffffffffffffffffffffffffffffffffffffff1673ffffffffffffffffffffffffffffffffffffffff1663b0455f1333600260009054906101000a900473ffffffffffffffffffffffffffffffffffffffff168473ffffffffffffffffffffffffffffffffffffffff16632cbdbd166000604051602001526040518163ffffffff167c0100000000000000000000000000000000000000000000000000000000028152600401602060405180830381600087803b1515620014d657600080fd5b6102c65a03f11515620014e857600080fd5b505050604051805190506040518463ffffffff167c0100000000000000000000000000000000000000000000000000000000028152600401808473ffffffffffffffffffffffffffffffffffffffff1673ffffffffffffffffffffffffffffffffffffffff1681526020018373ffffffffffffffffffffffffffffffffffffffff1673ffffffffffffffffffffffffffffffffffffffff168152602001828152602001806020018281038252600e8152602001807f4c6f616e2072657061796d656e74000000000000000000000000000000000000815250602001945050505050600060405180830381600087803b1515620015e357600080fd5b6102c65a03f11515620015f557600080fd5b505050600260009054906101000a900473ffffffffffffffffffffffffffffffffffffffff1673ffffffffffffffffffffffffffffffffffffffff166342966c688273ffffffffffffffffffffffffffffffffffffffff16632cbdbd166000604051602001526040518163ffffffff167c0100000000000000000000000000000000000000000000000000000000028152600401602060405180830381600087803b1515620016a357600080fd5b6102c65a03f11515620016b557600080fd5b505050604051805190506040518263ffffffff167c010000000000000000000000000000000000000000000000000000000002815260040180828152602001915050600060405180830381600087803b15156200171157600080fd5b6102c65a03f115156200172357600080fd5b5050508073ffffffffffffffffffffffffffffffffffffffff16636665b6216040518163ffffffff167c0100000000000000000000000000000000000000000000000000000000028152600401600060405180830381600087803b15156200178a57600080fd5b6102c65a03f115156200179c57600080fd5b5050506001600485815481101515620017b157fe5b906000526020600020900160000160146101000a81548160ff02191690836002811115620017db57fe5b02179055507f92673760d27f198e5f8d087e7d5d6d4ae04069d64af7cf7bd8897bde49be7dee828273ffffffffffffffffffffffffffffffffffffffff16638da5cb5b6000604051602001526040518163ffffffff167c0100000000000000000000000000000000000000000000000000000000028152600401602060405180830381600087803b15156200186f57600080fd5b6102c65a03f115156200188157600080fd5b50505060405180519050604051808373ffffffffffffffffffffffffffffffffffffffff1673ffffffffffffffffffffffffffffffffffffffff1681526020018273ffffffffffffffffffffffffffffffffffffffff1673ffffffffffffffffffffffffffffffffffffffff1681526020019250505060405180910390a1600192505b5050919050565b600160009054906101000a900473ffffffffffffffffffffffffffffffffffffffff1681565b6000600380549050905090565b6000600480549050905090565b60008060008060008060006004805490501415620019e9577fc25603b84a99df3a9bd030fe06c8ff67cea262f9966e79d4604d9991e1702cd07ffffffffffffffffffffffffffffffffffffffffffffffffffffffffffffffffd604051808260000b60000b815260200191505060405180910390a17ffffffffffffffffffffffffffffffffffffffffffffffffffffffffffffffffd955062001edf565b600094505b8787905085101562001eda57878786818110151562001a0957fe5b9050602002013593508360048054905011151562001aa7577fc25603b84a99df3a9bd030fe06c8ff67cea262f9966e79d4604d9991e1702cd07ffffffffffffffffffffffffffffffffffffffffffffffffffffffffffffffffd604051808260000b60000b815260200191505060405180910390a17ffffffffffffffffffffffffffffffffffffffffffffffffffffffffffffffffd955062001edf565b6000600281111562001ab557fe5b60048581548110151562001ac557fe5b906000526020600020900160000160149054906101000a900460ff16600281111562001aed57fe5b14151562001b7b577fc25603b84a99df3a9bd030fe06c8ff67cea262f9966e79d4604d9991e1702cd07ffffffffffffffffffffffffffffffffffffffffffffffffffffffffffffffffc604051808260000b60000b815260200191505060405180910390a17ffffffffffffffffffffffffffffffffffffffffffffffffffffffffffffffffc955062001edf565b60048481548110151562001b8b57fe5b906000526020600020900160000160009054906101000a900473ffffffffffffffffffffffffffffffffffffffff1692508291508173ffffffffffffffffffffffffffffffffffffffff1663e52253816000604051602001526040518163ffffffff167c0100000000000000000000000000000000000000000000000000000000028152600401602060405180830381600087803b151562001c2c57600080fd5b6102c65a03f1151562001c3e57600080fd5b5050506040518051905090508173ffffffffffffffffffffffffffffffffffffffff1663d0a6d1a66000604051602001526040518163ffffffff167c0100000000000000000000000000000000000000000000000000000000028152600401602060405180830381600087803b151562001cb757600080fd5b6102c65a03f1151562001cc957600080fd5b5050506040518051905060000b8160000b14151562001d6c577fc25603b84a99df3a9bd030fe06c8ff67cea262f9966e79d4604d9991e1702cd0817ffffffffffffffffffffffffffffffffffffffffffffffffffffffffffffffff601604051808260000b60000b815260200191505060405180910390a1807ffffffffffffffffffffffffffffffffffffffffffffffffffffffffffffffff601955062001edf565b600260048581548110151562001d7e57fe5b906000526020600020900160000160146101000a81548160ff0219169083600281111562001da857fe5b02179055507f07a9507ae6cf5a62a8d57d3060ad7eb3049ddc76843ed80f26b105eedb7f6f7a8273ffffffffffffffffffffffffffffffffffffffff16638da5cb5b6000604051602001526040518163ffffffff167c0100000000000000000000000000000000000000000000000000000000028152600401602060405180830381600087803b151562001e3b57600080fd5b6102c65a03f1151562001e4d57600080fd5b5050506040518051905084604051808373ffffffffffffffffffffffffffffffffffffffff1673ffffffffffffffffffffffffffffffffffffffff1681526020018273ffffffffffffffffffffffffffffffffffffffff1673ffffffffffffffffffffffffffffffffffffffff1681526020019250505060405180910390a18480600101955050620019ee565b600195505b505050505092915050565b60008060009054906101000a900473ffffffffffffffffffffffffffffffffffffffff1673ffffffffffffffffffffffffffffffffffffffff163373ffffffffffffffffffffffffffffffffffffffff1614151562001f4857600080fd5b6003805480600101828162001f5e919062002417565b9160005260206000209060060201600060c0604051908101604052808b81526020018a81526020018981526020018881526020018781526020018615158152509091909150600082015181600001556020820151816001015560408201518160020155606082015181600301556080820151816004015560a08201518160050160006101000a81548160ff021916908315150217905550505090506001810390509695505050505050565b620020136200244c565b600560008373ffffffffffffffffffffffffffffffffffffffff1673ffffffffffffffffffffffffffffffffffffffff1681526020019081526020016000208054806020026020016040519081016040528092919081815260200182805480156200209e57602002820191906000526020600020905b81548152602001906001019080831162002089575b50505050509050919050565b7ffffffffffffffffffffffffffffffffffffffffffffffffffffffffffffffffc81565b7ffffffffffffffffffffffffffffffffffffffffffffffffffffffffffffffffe81565b6003818154811015156200210257fe5b90600052602060002090600602016000915090508060000154908060010154908060020154908060030154908060040154908060050160009054906101000a900460ff16905086565b6000809054906101000a900473ffffffffffffffffffffffffffffffffffffffff1681565b7ffffffffffffffffffffffffffffffffffffffffffffffffffffffffffffffffd81565b7ffffffffffffffffffffffffffffffffffffffffffffffffffffffffffffffff681565b6000809054906101000a900473ffffffffffffffffffffffffffffffffffffffff1673ffffffffffffffffffffffffffffffffffffffff163373ffffffffffffffffffffffffffffffffffffffff161415156200221457600080fd5b600160038260ff168154811015156200222957fe5b906000526020600020906006020160050160006101000a81548160ff02191690831515021790555050565b6005602052816000526040600020818154811015156200227057fe5b9060005260206000209001600091509150505481565b6000809054906101000a900473ffffffffffffffffffffffffffffffffffffffff1673ffffffffffffffffffffffffffffffffffffffff163373ffffffffffffffffffffffffffffffffffffffff16141515620022e257600080fd5b600060038260ff16815481101515620022f757fe5b906000526020600020906006020160050160006101000a81548160ff02191690831515021790555050565b600181565b600080828402905060008414806200234a57508284828115156200234757fe5b04145b15156200235657600080fd5b8091505092915050565b60008082848115156200236f57fe5b0490506002838115156200237f57fe5b0483858115156200238c57fe5b061015156200239e5780806001019150505b8091505092915050565b815481835581811511620023d257818360005260206000209182019101620023d1919062002460565b5b505050565b604051610e36806200254483390190565b8154818355818115116200241257818360005260206000209182019101620024119190620024bd565b5b505050565b8154818355818115116200244757600602816006028360005260206000209182019101620024469190620024e5565b5b505050565b602060405190810160405280600081525090565b620024ba91905b80821115620024b657600080820160006101000a81549073ffffffffffffffffffffffffffffffffffffffff02191690556000820160146101000a81549060ff02191690555060010162002467565b5090565b90565b620024e291905b80821115620024de576000816000905550600101620024c4565b5090565b90565b6200254091905b808211156200253c5760008082016000905560018201600090556002820160009055600382016000905560048201600090556005820160006101000a81549060ff021916905550600601620024ec565b5090565b9056006060604052341561000f57600080fd5b60405160c080610e36833981016040528080519060200190919080519060200190919080519060200190919080519060200190919080519060200190919080519060200190919050508560038190555033600160006101000a81548173ffffffffffffffffffffffffffffffffffffffff021916908373ffffffffffffffffffffffffffffffffffffffff160217905550846000806101000a81548173ffffffffffffffffffffffffffffffffffffffff021916908373ffffffffffffffffffffffffffffffffffffffff160217905550600160009054906101000a900473ffffffffffffffffffffffffffffffffffffffff1673ffffffffffffffffffffffffffffffffffffffff166335b6f81b6000604051602001526040518163ffffffff167c0100000000000000000000000000000000000000000000000000000000028152600401602060405180830381600087803b151561016e57600080fd5b6102c65a03f1151561017f57600080fd5b50505060405180519050600260006101000a81548173ffffffffffffffffffffffffffffffffffffffff021916908373ffffffffffffffffffffffffffffffffffffffff16021790555083600681905550426007819055506101fb60065460075461024564010000000002610b74179091906401000000009004565b6008819055508060098190555082600581905550816004819055506000600260146101000a81548160ff0219169083600281111561023557fe5b0217905550505050505050610266565b600080828401905083811015151561025c57600080fd5b8091505092915050565b610bc1806102756000396000f30060606040526004361061011d576000357c0100000000000000000000000000000000000000000000000000000000900463ffffffff168063204f83f91461011f578063207efe651461014857806325af34cd146101775780632bf51e40146101ae5780632cbdbd16146101d757806335b6f81b146102005780636665b6211461025557806368e8d7d61461026a5780636ac2be9e146102995780636ff6680e146102c85780638da5cb5b146102f75780639c5a58801461034c578063a10ffbed14610375578063afb7cee01461039e578063b3ccbcfe146103cd578063c95669a514610422578063ca4573721461044b578063d0a6d1a61461047a578063e5225381146104a9578063e720fe94146104d8578063fbbf93a014610501575b005b341561012a57600080fd5b610132610602565b6040518082815260200191505060405180910390f35b341561015357600080fd5b61015b610608565b604051808260000b60000b815260200191505060405180910390f35b341561018257600080fd5b61018a61062c565b6040518082600281111561019a57fe5b60ff16815260200191505060405180910390f35b34156101b957600080fd5b6101c161063f565b6040518082815260200191505060405180910390f35b34156101e257600080fd5b6101ea610645565b6040518082815260200191505060405180910390f35b341561020b57600080fd5b61021361064b565b604051808273ffffffffffffffffffffffffffffffffffffffff1673ffffffffffffffffffffffffffffffffffffffff16815260200191505060405180910390f35b341561026057600080fd5b610268610671565b005b341561027557600080fd5b61027d6107d5565b604051808260000b60000b815260200191505060405180910390f35b34156102a457600080fd5b6102ac6107f9565b604051808260000b60000b815260200191505060405180910390f35b34156102d357600080fd5b6102db61081d565b604051808260000b60000b815260200191505060405180910390f35b341561030257600080fd5b61030a610841565b604051808273ffffffffffffffffffffffffffffffffffffffff1673ffffffffffffffffffffffffffffffffffffffff16815260200191505060405180910390f35b341561035757600080fd5b61035f610866565b6040518082815260200191505060405180910390f35b341561038057600080fd5b61038861086c565b6040518082815260200191505060405180910390f35b34156103a957600080fd5b6103b1610872565b604051808260000b60000b815260200191505060405180910390f35b34156103d857600080fd5b6103e0610896565b604051808273ffffffffffffffffffffffffffffffffffffffff1673ffffffffffffffffffffffffffffffffffffffff16815260200191505060405180910390f35b341561042d57600080fd5b6104356108bc565b6040518082815260200191505060405180910390f35b341561045657600080fd5b61045e6108c2565b604051808260000b60000b815260200191505060405180910390f35b341561048557600080fd5b61048d6108e6565b604051808260000b60000b815260200191505060405180910390f35b34156104b457600080fd5b6104bc6108eb565b604051808260000b60000b815260200191505060405180910390f35b34156104e357600080fd5b6104eb610aad565b6040518082815260200191505060405180910390f35b341561050c57600080fd5b610514610ab3565b604051808c73ffffffffffffffffffffffffffffffffffffffff1673ffffffffffffffffffffffffffffffffffffffff1681526020018b73ffffffffffffffffffffffffffffffffffffffff1673ffffffffffffffffffffffffffffffffffffffff1681526020018a73ffffffffffffffffffffffffffffffffffffffff1673ffffffffffffffffffffffffffffffffffffffff1681526020018960028111156105ba57fe5b60ff1681526020018881526020018781526020018681526020018581526020018481526020018381526020018281526020019b50505050505050505050505060405180910390f35b60085481565b7ffffffffffffffffffffffffffffffffffffffffffffffffffffffffffffffffe81565b600260149054906101000a900460ff1681565b60095481565b60045481565b600260009054906101000a900473ffffffffffffffffffffffffffffffffffffffff1681565b600160009054906101000a900473ffffffffffffffffffffffffffffffffffffffff1673ffffffffffffffffffffffffffffffffffffffff163373ffffffffffffffffffffffffffffffffffffffff161415156106cd57600080fd5b600060028111156106da57fe5b600260149054906101000a900460ff1660028111156106f557fe5b14151561070157600080fd5b600854421015151561071257600080fd5b610729600954600854610b7490919063ffffffff16565b421115151561073757600080fd5b6001600260146101000a81548160ff0219169083600281111561075657fe5b02179055506000809054906101000a900473ffffffffffffffffffffffffffffffffffffffff1673ffffffffffffffffffffffffffffffffffffffff166108fc3073ffffffffffffffffffffffffffffffffffffffff16319081150290604051600060405180830381858888f1935050505015156107d357600080fd5b565b7fffffffffffffffffffffffffffffffffffffffffffffffffffffffffffffffff81565b7ffffffffffffffffffffffffffffffffffffffffffffffffffffffffffffffffc81565b7ffffffffffffffffffffffffffffffffffffffffffffffffffffffffffffffffb81565b6000809054906101000a900473ffffffffffffffffffffffffffffffffffffffff1681565b60075481565b60065481565b7ffffffffffffffffffffffffffffffffffffffffffffffffffffffffffffffff681565b600160009054906101000a900473ffffffffffffffffffffffffffffffffffffffff1681565b60035481565b7ffffffffffffffffffffffffffffffffffffffffffffffffffffffffffffffffd81565b600181565b6000600160009054906101000a900473ffffffffffffffffffffffffffffffffffffffff1673ffffffffffffffffffffffffffffffffffffffff163373ffffffffffffffffffffffffffffffffffffffff1614151561096c577ffffffffffffffffffffffffffffffffffffffffffffffffffffffffffffffffc9050610aaa565b6000600281111561097957fe5b600260149054906101000a900460ff16600281111561099457fe5b1415156109c3577ffffffffffffffffffffffffffffffffffffffffffffffffffffffffffffffffb9050610aaa565b6109da600954600854610b7490919063ffffffff16565b421015610a09577fffffffffffffffffffffffffffffffffffffffffffffffffffffffffffffffff9050610aaa565b60028060146101000a81548160ff02191690836002811115610a2757fe5b0217905550600260009054906101000a900473ffffffffffffffffffffffffffffffffffffffff1673ffffffffffffffffffffffffffffffffffffffff166108fc3073ffffffffffffffffffffffffffffffffffffffff16319081150290604051600060405180830381858888f193505050501515610aa557600080fd5b600190505b90565b60055481565b60008060008060008060008060008060008060009054906101000a900473ffffffffffffffffffffffffffffffffffffffff16600160009054906101000a900473ffffffffffffffffffffffffffffffffffffffff16600260009054906101000a900473ffffffffffffffffffffffffffffffffffffffff16600260149054906101000a900460ff166004546005546006546007546008546009546003549a509a509a509a509a509a509a509a509a509a509a50909192939495969798999a565b6000808284019050838110151515610b8b57600080fd5b80915050929150505600a165627a7a72305820491b7e373afb4381649a549481f22fd7728aa443968af3f51a4a7c4956881f480029a165627a7a72305820b54684bd4db396391b75bac37857587a18ca97e406ff83fab0f464f4b6dc85200029",
  "source": "/* Contract to manage Acd loan contracts\n    TODO: add loanId to disbursement, repay and collection narrative\n    TODO: check if we could do repayment without \"direct\" access to borrower's balance (i.e. systemTransfer)\n           eg. transfer Acd to EthBackedLoan initiates repayment? or using ECR20 transfer approval?\n           it wouldn't restrict access more but would be better seperation of functions\n*/\npragma solidity ^0.4.18;\nimport \"./Owned.sol\";\nimport \"./SafeMath.sol\";\nimport \"./Rates.sol\";\nimport \"./TokenAcd.sol\";\nimport \"./EthBackedLoan.sol\";\n\ncontract LoanManager is owned {\n    using SafeMath for uint256;\n\n    int8 public constant SUCCESS = 1;\n    int8 public constant ERR_NOT_OWNER = -2;\n    int8 public constant ERR_NO_LOAN = -3;\n    int8 public constant ERR_LOAN_NOT_OPEN = -4;\n\n    int8 public constant ERR_EXT_ERRCODE_BASE = -10;\n\n    Rates public rates; // instance of ETH/USD rate provider contract\n                        // TODO:  setter to be able to change? (consider trust questions)\n    TokenAcd public tokenUcd; // instance of UCD token contract\n\n    struct Product {\n        uint term;\n        uint discountRate; // discountRate in parts per million , ie. 10,000 = 1%\n        uint loanCollateralRatio;  // ucd loan amount / colleteral usd value\n                                    // in parts per million , ie. 10,000 = 1%\n        uint minDisbursedAmountInUcd; // with 4 decimals, ie. 31000 = 3.1UCD\n        uint repayPeriod; // number of seconds after maturity before collect can be executed\n        bool isActive;\n    }\n\n    Product[] public products;\n\n    enum LoanState { Open, Repaid, Defaulted }\n\n    struct LoanPointer { // TODO: better name for it...\n        address contractAddress;\n        LoanState loanState;  // Redundant, stored in loan contract as well but saves us to instantiate each contract when need to iterate through\n    }\n\n    LoanPointer[] public loanPointers;\n    mapping(address => uint[]) public m_loanPointers;  // owner account address =>  array of loanContracts array idx-s (idx + 1)\n\n    function LoanManager(address _tokenUcdAddress, address _ratesAddress) public owned() {\n        tokenUcd = TokenAcd(_tokenUcdAddress);\n        rates = Rates(_ratesAddress);\n    }\n\n    function getLoanCount() external view returns (uint ct) {\n        return loanPointers.length;\n    }\n\n    function getProductCount() external view returns (uint ct) {\n        return products.length;\n    }\n\n    function getLoanIds(address borrower) external view returns (uint[] loans) {\n        return m_loanPointers[borrower];\n    }\n\n    function addProduct(uint _term, uint _discountRate, uint _loanCollateralRatio,\n            uint _minDisbursedAmountInUcd, uint _repayPeriod, bool _isActive) external onlyOwner returns (uint newProductId) {\n        newProductId = products.push( Product( {term: _term, discountRate: _discountRate,\n                loanCollateralRatio: _loanCollateralRatio, minDisbursedAmountInUcd: _minDisbursedAmountInUcd,\n                repayPeriod: _repayPeriod, isActive: _isActive }) );\n\n        return newProductId - 1;\n        // TODO: emit event\n    }\n\n    function disableProduct(uint8 productId) external onlyOwner {\n        products[productId].isActive = false;\n        // TODO: emit event\n    }\n\n    function enableProduct(uint8 productId) external onlyOwner {\n        products[productId].isActive = true;\n        // TODO: emit event\n    }\n\n    event e_newLoan(uint8 productId, uint loanId, address borrower, address loanContract, uint disbursedLoanInUcd );\n    function newEthBackedLoan(uint8 productId) external payable {\n        require( products[productId].isActive); // valid productId?\n\n        // calculate UCD loan values based on ETH sent in with Tx\n        uint usdcValue = rates.convertWeiToUsdc(msg.value);\n        uint ucdDueAtMaturity = usdcValue.mul(products[productId].loanCollateralRatio).roundedDiv(100000000);\n        ucdDueAtMaturity = ucdDueAtMaturity * 100; // rounding 4 decimals value to 2 decimals. no safe mul needed b/c of prev divide\n\n        uint mul = products[productId].loanCollateralRatio.mul(products[productId].discountRate) / 1000000;\n        uint disbursedLoanInUcd = usdcValue.mul(mul).roundedDiv(100000000);\n        disbursedLoanInUcd = disbursedLoanInUcd * 100; // rounding 4 decimals value to 2 decimals. no safe mul needed b/c of prev divide\n\n        require(disbursedLoanInUcd >= products[productId].minDisbursedAmountInUcd);\n\n        // Create new loan contract\n        uint loanId = loanPointers.push( LoanPointer(address(0), LoanState.Open) ) - 1;\n        // TODO: check if it's better to pass productId or Product struct\n        address loanContractAddress = new EthBackedLoan(loanId, msg.sender, products[productId].term,\n                    disbursedLoanInUcd, ucdDueAtMaturity, products[productId].repayPeriod);\n        loanPointers[loanId].contractAddress = loanContractAddress;\n\n        // Store ref to new loan contract in this contract\n        m_loanPointers[msg.sender].push(loanId );\n\n        // Send ETH collateral to loan contract\n        loanContractAddress.transfer(msg.value);\n\n        // Issue UCD and send to borrower\n        // tokenUcd.issueAndDisburse( msg.sender, ucdDueAtMaturity, disbursedLoanInUcd, \"Loan disbursement\");\n        /* Alternative to issueAndDisburse: */\n        tokenUcd.issue( ucdDueAtMaturity);\n        // TODO: interest should go to Interest Pool\n        tokenUcd.transferNoFee( address(tokenUcd), msg.sender, disbursedLoanInUcd, \"Loan disbursement\");\n\n        e_newLoan(productId, loanId, msg.sender, loanContractAddress, disbursedLoanInUcd );\n    }\n\n    event e_error(int8 errorCode);\n    event e_repayed(address loanContractAddress, address borrower);\n    function repay(uint loanId) external returns (int8 result) {\n        // TODO: remove contract from loanPointers & m_loanPointer on SUCCESS\n        // TODO: change to require\n        if(loanPointers.length < loanId + 1) {\n            e_error(ERR_NO_LOAN);\n            return ERR_NO_LOAN;\n        }\n\n        if(loanPointers[loanId].loanState != LoanState.Open) {\n            e_error(ERR_LOAN_NOT_OPEN);\n            return ERR_LOAN_NOT_OPEN;\n        }\n\n        if(m_loanPointers[msg.sender].length == 0) {\n            e_error(ERR_NOT_OWNER);\n            return ERR_NOT_OWNER;\n        }\n\n        address loanContractAddress = loanPointers[ loanId ].contractAddress;\n        EthBackedLoan loanContract = EthBackedLoan( loanContractAddress );\n\n        if(loanContract.owner() != msg.sender) {\n            e_error(ERR_NOT_OWNER);\n            return ERR_NOT_OWNER;\n        }\n\n        // tokenUcd.repayAndBurn(msg.sender, loanContract.ucdDueAtMaturity(), loanContract.disbursedLoanInUcd(), \"Loan repayment\");\n        /* Alternative to repayAndBurn: */\n        tokenUcd.transferNoFee(msg.sender, address(tokenUcd), loanContract.ucdDueAtMaturity(), \"Loan repayment\");\n        tokenUcd.burn(loanContract.ucdDueAtMaturity());\n        loanContract.releaseCollateral();\n\n        loanPointers[loanId].loanState = LoanState.Repaid;\n        e_repayed(loanContractAddress, loanContract.owner());\n        return SUCCESS;\n    }\n\n    event e_collected(address borrower, address loanContractAddress);\n    function collect(uint[] loanIds) external returns (int8 result) {\n        /* when there are a lots of loans to be collected then\n             the client need to call it in batches to make sure tx won't exceed block gas limit.\n         Anyone can call it - can't cause harm as it only allows to collect loans which they are defaulted\n         TODO: remove contract from loanPointers & m_loanPointer on SUCCESS\n        */\n        if(loanPointers.length == 0) {\n            e_error(ERR_NO_LOAN);\n            return ERR_NO_LOAN;\n        }\n        for (uint i = 0; i < loanIds.length; i++) {\n            uint loanId = loanIds[i];\n            if (loanPointers.length <= loanId) {\n                e_error(ERR_NO_LOAN);\n                return ERR_NO_LOAN;\n            }\n            if(loanPointers[loanId].loanState != LoanState.Open) {\n                e_error(ERR_LOAN_NOT_OPEN);\n                return ERR_LOAN_NOT_OPEN;\n            }\n\n            address loanContractAddress = loanPointers[ loanId ].contractAddress;\n            EthBackedLoan loanContract = EthBackedLoan( loanContractAddress );\n\n            int8 res = loanContract.collect();\n            if (res != loanContract.SUCCESS() ) {\n                // if EthBackedLoan.collect returned an error then no state changes could have happen yet\n                // ie. no revert required\n                e_error(ERR_EXT_ERRCODE_BASE + res);\n                return ERR_EXT_ERRCODE_BASE + res;\n            }\n\n            loanPointers[loanId].loanState = LoanState.Defaulted;\n            e_collected(loanContract.owner(), loanContractAddress);\n        }\n        return SUCCESS;\n    }\n\n}\n",
  "sourcePath": "/Users/petro/ether/dcm-poc/contracts/LoanManager.sol",
  "compiler": {
    "name": "solc",
    "version": "0.4.18+commit.9cf6e910.Emscripten.clang"
  },
  "schemaVersion": "1.0.1",
  "updatedAt": "2017-11-20T18:27:40.600Z"
}