{
  "contractName": "Rates",
  "abi": [
    {
      "constant": false,
      "inputs": [
        {
          "name": "_new",
          "type": "address"
        }
      ],
      "name": "setOwner",
      "outputs": [],
      "payable": false,
      "stateMutability": "nonpayable",
      "type": "function"
    },
    {
      "constant": true,
      "inputs": [
        {
          "name": "weiValue",
          "type": "uint256"
        }
      ],
      "name": "convertWeiToUsdc",
      "outputs": [
        {
          "name": "usdcValue",
          "type": "uint256"
        }
      ],
      "payable": false,
      "stateMutability": "view",
      "type": "function"
    },
    {
      "constant": true,
      "inputs": [],
      "name": "USD_DECIMALS",
      "outputs": [
        {
          "name": "",
          "type": "uint8"
        }
      ],
      "payable": false,
      "stateMutability": "view",
      "type": "function"
    },
    {
      "constant": true,
      "inputs": [],
      "name": "ethUsdcRate",
      "outputs": [
        {
          "name": "",
          "type": "uint256"
        }
      ],
      "payable": false,
      "stateMutability": "view",
      "type": "function"
    },
    {
      "constant": true,
      "inputs": [
        {
          "name": "usdcValue",
          "type": "uint256"
        }
      ],
      "name": "convertUsdcToWei",
      "outputs": [
        {
          "name": "weiValue",
          "type": "uint256"
        }
      ],
      "payable": false,
      "stateMutability": "view",
      "type": "function"
    },
    {
      "constant": true,
      "inputs": [],
      "name": "owner",
      "outputs": [
        {
          "name": "",
          "type": "address"
        }
      ],
      "payable": false,
      "stateMutability": "view",
      "type": "function"
    },
    {
      "constant": false,
      "inputs": [
        {
          "name": "newEthUsdcRate",
          "type": "uint256"
        }
      ],
      "name": "ethToUsdc",
      "outputs": [],
      "payable": false,
      "stateMutability": "nonpayable",
      "type": "function"
    },
    {
      "constant": true,
      "inputs": [],
      "name": "USD_SCALE",
      "outputs": [
        {
          "name": "",
          "type": "uint32"
        }
      ],
      "payable": false,
      "stateMutability": "view",
      "type": "function"
    },
    {
      "anonymous": false,
      "inputs": [
        {
          "indexed": false,
          "name": "newEthUsdcRate",
          "type": "uint256"
        }
      ],
      "name": "e_ethToUsdcChanged",
      "type": "event"
    },
    {
      "anonymous": false,
      "inputs": [
        {
          "indexed": true,
          "name": "old",
          "type": "address"
        },
        {
          "indexed": true,
          "name": "current",
          "type": "address"
        }
      ],
      "name": "NewOwner",
      "type": "event"
    }
  ],
  "bytecode": "0x6060604052621dc130600155336000806101000a81548173ffffffffffffffffffffffffffffffffffffffff021916908373ffffffffffffffffffffffffffffffffffffffff1602179055506105428061005a6000396000f30060606040526004361061008e576000357c0100000000000000000000000000000000000000000000000000000000900463ffffffff16806313af40351461009357806319605cd9146100cc5780632f6ee695146101035780635940da1e1461013257806375e1d3ac1461015b5780638da5cb5b14610192578063d8bddbd8146101e7578063f96d0baa1461020a575b600080fd5b341561009e57600080fd5b6100ca600480803573ffffffffffffffffffffffffffffffffffffffff1690602001909190505061023f565b005b34156100d757600080fd5b6100ed6004808035906020019091905050610358565b6040518082815260200191505060405180910390f35b341561010e57600080fd5b610116610390565b604051808260ff1660ff16815260200191505060405180910390f35b341561013d57600080fd5b610145610395565b6040518082815260200191505060405180910390f35b341561016657600080fd5b61017c600480803590602001909190505061039b565b6040518082815260200191505060405180910390f35b341561019d57600080fd5b6101a56103d3565b604051808273ffffffffffffffffffffffffffffffffffffffff1673ffffffffffffffffffffffffffffffffffffffff16815260200191505060405180910390f35b34156101f257600080fd5b61020860048080359060200190919050506103f8565b005b341561021557600080fd5b61021d610496565b604051808263ffffffff1663ffffffff16815260200191505060405180910390f35b6000809054906101000a900473ffffffffffffffffffffffffffffffffffffffff1673ffffffffffffffffffffffffffffffffffffffff163373ffffffffffffffffffffffffffffffffffffffff1614151561029a57600080fd5b8073ffffffffffffffffffffffffffffffffffffffff166000809054906101000a900473ffffffffffffffffffffffffffffffffffffffff1673ffffffffffffffffffffffffffffffffffffffff167f70aea8d848e8a90fb7661b227dc522eb6395c3dac71b63cb59edd5c9899b236460405160405180910390a3806000806101000a81548173ffffffffffffffffffffffffffffffffffffffff021916908373ffffffffffffffffffffffffffffffffffffffff16021790555050565b6000610389670de0b6b3a764000061037b6001548561049c90919063ffffffff16565b6104d290919063ffffffff16565b9050919050565b600481565b60015481565b60006103cc6001546103be84670de0b6b3a764000061049c90919063ffffffff16565b6104d290919063ffffffff16565b9050919050565b6000809054906101000a900473ffffffffffffffffffffffffffffffffffffffff1681565b6000809054906101000a900473ffffffffffffffffffffffffffffffffffffffff1673ffffffffffffffffffffffffffffffffffffffff163373ffffffffffffffffffffffffffffffffffffffff1614151561045357600080fd5b806001819055507f148205eae942f5b918b25c45e339e3a8214be73b66606179037cfbafc15a294d6001546040518082815260200191505060405180910390a150565b61271081565b600080828402905060008414806104bd57508284828115156104ba57fe5b04145b15156104c857600080fd5b8091505092915050565b60008082848115156104e057fe5b0490506002838115156104ef57fe5b0483858115156104fb57fe5b0610151561050c5780806001019150505b80915050929150505600a165627a7a723058202c95aac2ab9af6db74e9df7c29b06213c5708e25c4241b7da3145b42237bc4960029",
  "source": "/*  mock implamentation of ETH/USD exchange rate oracle\n    TODO: use a more realistic rates oracle (eg. piggyback Oraclize pricing contract?)\n*/\npragma solidity ^0.4.11;\n\nimport \"./SafeMath.sol\";\nimport \"./Owned.sol\";\n\ncontract Rates is owned {\n    using SafeMath for uint256;\n\n    uint constant ONE_ETH = 1000000000000000000; // 1 ETH in WEI\n\n    // 1 USD = 10000 ACDc\n    uint8 public constant USD_DECIMALS = 4; // USD values decimal places\n    uint32 public constant USD_SCALE = 10 ** 4;  // USDc to USD conversion, 10 ** USD_DECIMALS\n\n    // TODO: remove this when connected to an Oracle\n    uint public ethUsdcRate = 1950000   ;  //  1/195ETH = 512,820,512,821 WEI;\n\n    event e_ethToUsdcChanged(uint newEthUsdcRate);\n    function ethToUsdc(uint newEthUsdcRate) public onlyOwner {\n        ethUsdcRate = newEthUsdcRate;\n        e_ethToUsdcChanged(ethUsdcRate);\n        return;\n    }\n\n    function convertWeiToUsdc(uint weiValue) external view returns(uint usdcValue) {\n        return weiValue.mul(ethUsdcRate).roundedDiv(ONE_ETH);\n    }\n\n    function convertUsdcToWei(uint usdcValue) external view returns(uint weiValue) {\n        // TODO: can we make this not loosing max scale?\n        return ONE_ETH.mul(usdcValue).roundedDiv(ethUsdcRate) ;\n    }\n}\n",
  "sourcePath": "/Users/petro/ether/dcm-poc/contracts/Rates.sol",
  "compiler": {
    "name": "solc",
    "version": "0.4.18+commit.9cf6e910.Emscripten.clang"
  },
  "schemaVersion": "1.0.1",
  "updatedAt": "2017-11-20T18:27:40.784Z"
}